{
	"data": {
		"bytecode": {
			"linkReferences": {},
			"object": "60806040525f80805560018181556002828155600380546001600160a01b031990811673a1bf05780c2de3002086695d212a743eaa6532ad17909155600480548216734f6a1cfdf5e55db0c2ff4575b0887fea8a96708817905560058054821673985495c028f9b896de454ec448b53fba6450da401790556006805482167373d1ad5a474e1712d6cbe18d56b7281aaf19034717905560078054909116905560088390556009839055600a805460ff199081168417909155600b93909355600c80549093168217909255600d55600e553480156100da575f80fd5b50600c8054610100600160a81b03191633610100021790556100fa6100ff565b611531565b610107610121565b61010f610250565b6101176108f7565b61011f610dba565b565b600b8054905f610130836112a8565b9190505550604051806101200160405280600b548152602001604051806040016040528060078152602001665061636b61676560c81b81525081526020015f8152602001600115158152602001600115158152602001610196601e610dd360201b60201c565b81526020016101a6610bb8610dd3565b81525f602080830182905260016040938401819052600b548352600f825292909120835181559083015190918201906101df9082611358565b50604082015160028201556060820151600382018054608085015161ffff1990911692151561ff00191692909217610100921515830217905560a0830151600483015560c0830151600583015560e08301516006830155909101516007909101805460ff1916911515919091179055565b60088054905f61025f836112a8565b909155505060408051606081018252600880548083526101f460208085019182525f858701818152938152601090915294852093518455516001840155516002909201919091558054916102b2836112a8565b9091555050604080516060810182526008805480835261012c602080850191825260018587018181525f948552601090925295832094518555905194840194909455925160029092019190915580549161030b836112a8565b9091555050604080516060810182526008805480835260c8602080850191825260018587018181525f9485526010909252958320945185559051948401949094559251600290920191909155805491610363836112a8565b90915550506040805160608101825260088054808352610190602080850191825260028587018181525f948552601090925295832094518555905160018501555192909301919091558054916103b8836112a8565b9091555050604080516060810182526008805480835260c8602080850191825260028587018181525f9485526010909252958320945185559051600185015551929093019190915580549161040c836112a8565b9091555050604080516060810182526008805480835260c8602080850191825260028587018181525f94855260109092529583209451855590516001850155519290930191909155805491610460836112a8565b909155505060408051606081018252600880548083526064602080850191825260028587018181525f948552601090925295832094518555905160018501555192909301919091558054916104b4836112a8565b909155505060408051606081018252600880548083526064602080850191825260028587018181525f94855260109092529583209451855590516001850155519290930191909155805491610508836112a8565b9091555050604080516060810182526008805480835260c8602080850191825260038587019081525f938452601090915294822093518455516001840155925160029092019190915580549161055d836112a8565b909155505060408051606081018252600880548083526064602080850191825260038587019081525f93845260109091529482209351845551600184015592516002909201919091558054916105b2836112a8565b909155505060408051606081018252600880548083526032602080850191825260038587019081525f9384526010909152948220935184555160018401559251600290920191909155805491610607836112a8565b909155505060408051606081018252600880548083526032602080850191825260038587019081525f938452601090915294822093518455516001840155925160029092019190915580549161065c836112a8565b909155505060408051606081018252600880548083526032602080850191825260038587019081525f93845260109091529482209351845551600184015592516002909201919091558054916106b1836112a8565b909155505060408051606081018252600880548083526064602080850191825260048587019081525f9384526010909152948220935184555160018401559251600290920191909155805491610706836112a8565b909155505060408051606081018252600880548083526032602080850191825260048587019081525f938452601090915294822093518455516001840155925160029092019190915580549161075b836112a8565b909155505060408051606081018252600880548083526019602080850191825260048587019081525f93845260109091529482209351845551600184015592516002909201919091558054916107b0836112a8565b909155505060408051606081018252600880548083526019602080850191825260048587019081525f9384526010909152948220935184555160018401559251600290920191909155805491610805836112a8565b909155505060408051606081018252600880548083526019602080850191825260048587019081525f938452601090915294822093518455516001840155925160029092019190915580549161085a836112a8565b909155505060408051606081018252600880548083526019602080850191825260048587019081525f93845260109091529482209351845551600184015592516002909201919091558054916108af836112a8565b9091555050604080516060810182526008548082526019602080840191825260048486019081525f938452601090915293909120915182555160018201559051600290910155565b60098054905f610906836112a8565b91905055506040518060e00160405280600954815260200160405180604001604052806006815260200165189029ba30b960d11b815250815260200161095361012c610dd360201b60201c565b81526014602082015260400161096a6103e8610dd3565b815260200161097a6103e8610dd3565b81526020016109885f610dd3565b90526009545f908152601160209081526040909120825181559082015160018201906109b49082611358565b5060408201516002820155606082015160038201556080820151600482015560a0820151600582015560c09091015160069091015560098054905f6109f8836112a8565b91905055506040518060e00160405280600954815260200160405180604001604052806006815260200165191029ba30b960d11b8152508152602001610a456101f4610dd360201b60201c565b815260326020820152604001610a5c611388610dd3565b8152602001610a6c611388610dd3565b8152602001610a7a5f610dd3565b90526009545f90815260116020908152604090912082518155908201516001820190610aa69082611358565b5060408201516002820155606082015160038201556080820151600482015560a0820151600582015560c09091015160069091015560098054905f610aea836112a8565b91905055506040518060e00160405280600954815260200160405180604001604052806006815260200165199029ba30b960d11b8152508152602001610b376103e8610dd360201b60201c565b815260646020820152604001610b4e612710610dd3565b8152602001610b5e612710610dd3565b8152602001610b6c5f610dd3565b90526009545f90815260116020908152604090912082518155908201516001820190610b989082611358565b5060408201516002820155606082015160038201556080820151600482015560a0820151600582015560c09091015160069091015560098054905f610bdc836112a8565b91905055506040518060e001604052806009548152602001604051806040016040528060068152602001651a1029ba30b960d11b8152508152602001610c296107d0610dd360201b60201c565b815260c86020820152604001610c406161a8610dd3565b8152602001610c506161a8610dd3565b8152602001610c606109c4610dd3565b90526009545f90815260116020908152604090912082518155908201516001820190610c8c9082611358565b5060408201516002820155606082015160038201556080820151600482015560a0820151600582015560c09091015160069091015560098054905f610cd0836112a8565b91905055506040518060e001604052806009548152602001604051806040016040528060068152602001651a9029ba30b960d11b8152508152602001610d1d610bb8610dd360201b60201c565b81526101f46020820152604001610d36620124f8610dd3565b8152602001610d47620124f8610dd3565b8152602001610d57611388610dd3565b90526009545f90815260116020908152604090912082518155908201516001820190610d839082611358565b5060408201516002820155606082015160038201556080820151600482015560a0820151600582015560c090910151600690910155565b6003546001600160a01b0316610dd0815f610df0565b50565b5f610de06012600a6114f5565b610dea9083611507565b92915050565b5f80549080610dfe836112a8565b91905055505f604051806101a001604052805f548152602001846001600160a01b03168152602001836001600160a01b031681526020014281526020015f81526020015f81526020015f151581526020015f81526020015f81526020015f81526020015f81526020015f151581526020015f151581525090505f6040518060c001604052805f81526020015f6001600160401b03811115610ea157610ea16112c0565b604051908082528060200260200182016040528015610eca578160200160208202803683370190505b5081526020015f81526020015f81526020015f81526020015f6001600160401b03811115610efa57610efa6112c0565b604051908082528060200260200182016040528015610f23578160200160208202803683370190505b5081525090505f6040518060e001604052805f81526020015f81526020015f81526020016008546001610f56919061151e565b6001600160401b03811115610f6d57610f6d6112c0565b604051908082528060200260200182016040528015610f96578160200160208202803683370190505b5081525f6020808301829052604080840183905260609384018390528051608080820183528482528184018590528183018590528186018590526001600160a01b038c81168652601285528386208b5181558b860151600180830180546001600160a01b03199081169386169390931790558d8701516002840180549093169416939093179055968b01516003880155908a0151600487015560a08a0151600587015560c08a015160068701805460ff191691151591909117905560e08a01516007870155610100808b015160088801556101208b015160098801556101408b0151600a8801556101608b0151600b90970180546101808d015161ffff1990911698151561ff0019169890981797151590910296909617909555601483529220865181558682015180519596509294879491936110d8939285019201906111e4565b5060408201516002820155606082015160038201556080820151600482015560a082015180516111129160058401916020909101906111e4565b5050506001600160a01b0386165f908152601960209081526040918290208451815581850151600182015591840151600283015560608401518051859392611161926003850192910190611247565b506080820151600482015560a0820151600582015560c0909101516006909101555f8054815260136020908152604080832080546001600160a01b03909a166001600160a01b0319909a168a179055978252601b815290879020825181559082015160018201559581015160028701556060015160039095019490945550505050565b828054828255905f5260205f20908101928215611237579160200282015b8281111561123757825182546001600160a01b0319166001600160a01b03909116178255602090920191600190910190611202565b50611243929150611280565b5090565b828054828255905f5260205f20908101928215611237579160200282015b82811115611237578251825591602001919060010190611265565b5b80821115611243575f8155600101611281565b634e487b7160e01b5f52601160045260245ffd5b5f600182016112b9576112b9611294565b5060010190565b634e487b7160e01b5f52604160045260245ffd5b600181811c908216806112e857607f821691505b60208210810361130657634e487b7160e01b5f52602260045260245ffd5b50919050565b601f82111561135357805f5260205f20601f840160051c810160208510156113315750805b601f840160051c820191505b81811015611350575f815560010161133d565b50505b505050565b81516001600160401b03811115611371576113716112c0565b6113858161137f84546112d4565b8461130c565b6020601f8211600181146113b7575f83156113a05750848201515b5f19600385901b1c1916600184901b178455611350565b5f84815260208120601f198516915b828110156113e657878501518255602094850194600190920191016113c6565b508482101561140357868401515f19600387901b60f8161c191681555b50505050600190811b01905550565b6001815b600184111561144d5780850481111561143157611431611294565b600184161561143f57908102905b60019390931c928002611416565b935093915050565b5f8261146357506001610dea565b8161146f57505f610dea565b8160018114611485576002811461148f576114ab565b6001915050610dea565b60ff8411156114a0576114a0611294565b50506001821b610dea565b5060208310610133831016604e8410600b84101617156114ce575081810a610dea565b6114da5f198484611412565b805f19048211156114ed576114ed611294565b029392505050565b5f6115008383611455565b9392505050565b8082028115828204841417610dea57610dea611294565b80820180821115610dea57610dea611294565b615d8d8061153e5f395ff3fe60806040526004361061026a575f3560e01c8063759369d21161014a578063b1878162116100be578063e315927b11610078578063e315927b14610a6b578063edbdc91414610ae6578063eecc1c9514610b18578063eeda149c14610b47578063fd0bb36c14610b5a578063ff9b636414610b79575f80fd5b8063b187816214610983578063b5d962b7146109a2578063b66db385146109c1578063ba32f6f4146109e0578063c5f00964146109ff578063dacbb37e14610a3f575f80fd5b8063a18a609a1161010f578063a18a609a146108b5578063a3af609b146108e9578063a4b6f5e1146108fc578063a5f9452114610911578063a9a4c9bf14610930578063ac3a48001461094f575f80fd5b8063759369d2146107eb5780637e2594b81461081757806388cb410d1461084b5780638b2c295e1461086a57806394c1e22b14610896575f80fd5b80634788312f116101e15780635be94e83116101a65780635be94e83146105f65780635cf7551714610622578063641fba961461072757806368ec2fbe1461073b5780636b1a70861461075a578063705116a0146107b1575f80fd5b80634788312f146105495780634a40f2fe1461055e57806354a03e381461058a5780635a015583146105b65780635b6b431d146105d7575f80fd5b80632dedf15a116102325780632dedf15a146103d65780632e244fc7146104365780632e628e2e14610462578063365152fa1461048e5780633936e8b9146105095780633daa551c14610528575f80fd5b806307d940671461026e5780631362e8e6146102c55780631bfe37ce146103095780631cfa6e9b1461033f5780632a530a3614610376575b5f80fd5b348015610279575f80fd5b506102ab6102883660046153d0565b601660209081525f92835260408084209091529082529020805460019091015482565b604080519283526020830191909152015b60405180910390f35b3480156102d0575f80fd5b506102fb6102df3660046153d0565b601a60209081525f928352604080842090915290825290205481565b6040519081526020016102bc565b348015610314575f80fd5b506102fb6103233660046153d0565b601760209081525f928352604080842090915290825290205481565b34801561034a575f80fd5b5060035461035e906001600160a01b031681565b6040516001600160a01b0390911681526020016102bc565b348015610381575f80fd5b506103b66103903660046153f8565b60146020525f908152604090208054600282015460038301546004909301549192909184565b6040805194855260208501939093529183015260608201526080016102bc565b3480156103e1575f80fd5b5061041b6103f03660046153d0565b601860209081525f928352604080842090915290825290208054600182015460029092015490919083565b604080519384526020840192909252908201526060016102bc565b348015610441575f80fd5b50610455610450366004615418565b610b8d565b6040516102bc9190615448565b34801561046d575f80fd5b5061048161047c366004615418565b610cf8565b6040516102bc91906154a6565b348015610499575f80fd5b506104e16104a83660046153d0565b601560209081525f9283526040808420909152908252902080546001820154600283015460038401546004909401549293919290919085565b604080519586526020860194909452928401919091526060830152608082015260a0016102bc565b348015610514575f80fd5b5060065461035e906001600160a01b031681565b348015610533575f80fd5b5061053c610e7b565b6040516102bc919061553b565b348015610554575f80fd5b506102fb60025481565b348015610569575f80fd5b5061057d6105783660046153f8565b611074565b6040516102bc919061561e565b348015610595575f80fd5b506105a96105a43660046153f8565b6111ea565b6040516102bc919061569b565b3480156105c1575f80fd5b506105d56105d03660046157f5565b6116f8565b005b3480156105e2575f80fd5b506105d56105f136600461582f565b61195e565b348015610601575f80fd5b506106156106103660046153f8565b611d09565b6040516102bc9190615846565b34801561062d575f80fd5b506106b561063c3660046153f8565b60126020525f9081526040902080546001820154600283015460038401546004850154600586015460068701546007880154600889015460098a0154600a8b0154600b909b0154999a6001600160a01b03998a169a989099169896979596949560ff94851695939492939192818116916101009004168d565b604080519d8e526001600160a01b039c8d1660208f01529a909b16998c019990995260608b019790975260808a019590955260a089019390935290151560c088015260e0870152610100860152610120850152610140840152151561016083015215156101808201526101a0016102bc565b348015610732575f80fd5b506102fb5f5481565b348015610746575f80fd5b506105d56107553660046153f8565b611f09565b348015610765575f80fd5b5061076e611f4f565b6040516102bc91905f60a0820190508251825260208301516020830152604083015160408301526060830151606083015260808301511515608083015292915050565b3480156107bc575f80fd5b5061041b6107cb36600461582f565b60106020525f908152604090208054600182015460029092015490919083565b3480156107f6575f80fd5b5061080a610805366004615418565b611fbd565b6040516102bc91906158af565b348015610822575f80fd5b5061035e6108313660046153f8565b601c6020525f90815260409020546001600160a01b031681565b348015610856575f80fd5b5060075461035e906001600160a01b031681565b348015610875575f80fd5b506108896108843660046153f8565b612104565b6040516102bc91906158f2565b3480156108a1575f80fd5b506105d56108b03660046153f8565b612550565b3480156108c0575f80fd5b506108d46108cf36600461582f565b612596565b6040516102bc999897969594939291906159ef565b6105d56108f7366004615a43565b61266e565b348015610907575f80fd5b506102fb60015481565b34801561091c575f80fd5b506105d561092b3660046153f8565b61267c565b34801561093b575f80fd5b506105d561094a366004615a43565b6126c2565b34801561095a575f80fd5b5061035e61096936600461582f565b60136020525f90815260409020546001600160a01b031681565b34801561098e575f80fd5b506105d561099d36600461582f565b61283c565b3480156109ad575f80fd5b5060045461035e906001600160a01b031681565b3480156109cc575f80fd5b5060055461035e906001600160a01b031681565b3480156109eb575f80fd5b506105d56109fa3660046153f8565b61288d565b348015610a0a575f80fd5b506103b6610a193660046153f8565b601b6020525f908152604090208054600182015460028301546003909301549192909184565b348015610a4a575f80fd5b50610a5e610a59366004615418565b6128d3565b6040516102bc9190615a63565b348015610a76575f80fd5b50610ab9610a853660046153f8565b60196020525f9081526040902080546001820154600283015460048401546005850154600690950154939492939192909186565b604080519687526020870195909552938501929092526060840152608083015260a082015260c0016102bc565b348015610af1575f80fd5b50610b05610b0036600461582f565b612b3d565b6040516102bc9796959493929190615acc565b348015610b23575f80fd5b50610b37610b323660046153f8565b612bfd565b60405190151581526020016102bc565b6105d5610b553660046153f8565b612c44565b348015610b65575f80fd5b506102fb610b743660046153d0565b612c50565b348015610b84575f80fd5b50610b37612c77565b6001600160a01b0383165f908152601b602052604081206001015460609181610bb68587615b22565b11610bca57610bc58486615b22565b610bcc565b815b90505f84821015610bdd575f610be7565b610be78583615b39565b90505f610bf48284615b39565b67ffffffffffffffff811115610c0c57610c0c615b4c565b604051908082528060200260200182016040528015610c5e57816020015b610c4b60405180606001604052805f81526020015f81526020015f81525090565b815260200190600190039081610c2a5790505b509450825b82811115610cec576001600160a01b0389165f90815260186020908152604080832084845282529182902082516060810184528154815260018201549281019290925260020154918101919091528683610cbc81615b60565b945081518110610cce57610cce615b78565b60200260200101819052508080610ce490615b8c565b915050610c63565b50505050509392505050565b6001600160a01b0383165f908152601b602052604081205460609181610d1e8587615b22565b11610d3257610d2d8486615b22565b610d34565b815b90505f84821015610d45575f610d4f565b610d4f8583615b39565b90505f610d5c8284615b39565b67ffffffffffffffff811115610d7457610d74615b4c565b604051908082528060200260200182016040528015610dd257816020015b610dbf6040518060a001604052805f81526020015f81526020015f81526020015f81526020015f81525090565b815260200190600190039081610d925790505b509450825b82811115610cec576001600160a01b0389165f908152601560209081526040808320848452825291829020825160a081018452815481526001820154928101929092526002810154928201929092526003820154606082015260049091015460808201528651879084908110610e4f57610e4f615b78565b60200260200101819052508180610e6590615b60565b9250508080610e7390615b8c565b915050610dd7565b60605f600b5467ffffffffffffffff811115610e9957610e99615b4c565b604051908082528060200260200182016040528015610f1757816020015b610f046040518061012001604052805f8152602001606081526020015f81526020015f151581526020015f151581526020015f81526020015f81526020015f81526020015f151581525090565b815260200190600190039081610eb75790505b50905060015b600b54811161106e57600f5f8281526020019081526020015f20604051806101200160405290815f8201548152602001600182018054610f5c90615ba1565b80601f0160208091040260200160405190810160405280929190818152602001828054610f8890615ba1565b8015610fd35780601f10610faa57610100808354040283529160200191610fd3565b820191905f5260205f20905b815481529060010190602001808311610fb657829003601f168201915b505050918352505060028201546020820152600382015460ff8082161515604084015261010090910481161515606083015260048301546080830152600583015460a0830152600683015460c0830152600790920154909116151560e09091015282611040600184615b39565b8151811061105057611050615b78565b6020026020010181905250808061106690615b60565b915050610f1d565b50919050565b606060085467ffffffffffffffff81111561109157611091615b4c565b6040519080825280602002602001820160405280156110fd57816020015b6110ea6040518060e001604052805f81526020015f81526020015f81526020015f81526020015f81526020015f81526020015f151581525090565b8152602001906001900390816110af5790505b50905060015b600854811161106e576040805160e0810182528281525f838152601060209081528382206002810154828501526001600160a01b03881680845260128352858420600a015485870152808452601783528584208785528352858420546060860152600190910154608085015282526019905291909120600301805460a0830191908490811061119457611194615b78565b905f5260205f20015481526020016111ac8584612cd2565b15159052826111bc600184615b39565b815181106111cc576111cc615b78565b602002602001018190525080806111e290615b60565b915050611103565b6112a06040518061032001604052805f6001600160a01b031681526020015f81526020015f81526020015f81526020015f81526020015f81526020015f81526020015f81526020015f81526020015f81526020015f81526020015f81526020015f81526020015f81526020015f81526020015f81526020015f81526020015f81526020015f81526020015f8152602001606081526020015f81526020015f151581526020015f151581526020015f151581525090565b6001600160a01b038083165f81815260126020908152604080832081516101a081018352815481526001808301548816828601526002830154909716818401526003820154606082015260048201546080820152600582015460a0820152600682015460ff908116151560c080840191909152600784015460e08401526008840154610100808501919091526009850154610120850152600a850154610140850152600b909401548083161515610160850152939093041615156101808201529484526014835281842082519182018352805482529586018054835181860281018601909452808452959694959194938581019392908301828280156113cd57602002820191905f5260205f20905b81546001600160a01b031681526001909101906020018083116113af575b505050505081526020016002820154815260200160038201548152602001600482015481526020016005820180548060200260200160405190810160405280929190818152602001828054801561144b57602002820191905f5260205f20905b81546001600160a01b0316815260019091019060200180831161142d575b50505050508152505090505f60195f866001600160a01b03166001600160a01b031681526020019081526020015f206040518060e00160405290815f82015481526020016001820154815260200160028201548152602001600382018054806020026020016040519081016040528092919081815260200182805480156114ef57602002820191905f5260205f20905b8154815260200190600101908083116114db575b505050505081526020016004820154815260200160058201548152602001600682015481525050905060405180610320016040528084604001516001600160a01b03168152602001846080015181526020018360200151518152602001835f015181526020018460a00151815260200183604001518152602001836060015181526020018360800151815260200182602001518152602001825f0151815260200161159987612d12565b8152602001826040015181526020016115b187612e10565b8152602001826080015181526020018260a0015181526020016115d387612f77565b81526020016115e187612fd5565b81526020018260c0015181526020016115fc87600d54612c50565b815260200161160d87600e54612c50565b815260200160115f86610140015181526020019081526020015f20600101805461163690615ba1565b80601f016020809104026020016040519081016040528092919081815260200182805461166290615ba1565b80156116ad5780601f10611684576101008083540402835291602001916116ad565b820191905f5260205f20905b81548152906001019060200180831161169057829003601f168201915b505050505081526020016116c087613015565b81526020016116ce8761303c565b15158152602001846101600151151581526020015f8560e001511115158152509350505050919050565b611700613056565b611708573392505b61171183612bfd565b61175a5760405162461bcd60e51b8152602060048201526015602482015274496e76616c69642073656e64696e6720757365722160581b60448201526064015b60405180910390fd5b61176383613083565b156117a75760405162461bcd60e51b81526020600482015260146024820152732cb7bab91024a21034b99034b730b1ba34bb329760611b6044820152606401611751565b6117b082612bfd565b6117fc5760405162461bcd60e51b815260206004820152601760248201527f496e76616c696420726563656976696e672075736572210000000000000000006044820152606401611751565b6001600160a01b0383165f908152601a60209081526040808320600e5484529091529020548111156118665760405162461bcd60e51b8152602060048201526013602482015272496e73756666696369656e742066756e64732160681b6044820152606401611751565b61187060056130b7565b8110156118bb5760405162461bcd60e51b81526020600482015260196024820152784d696e696d756d20616d6f756e74206973203520555344542160381b6044820152606401611751565b5f60646118c9836005615b22565b6118d39190615bd3565b90505f6118e08284615bf2565b6001600160a01b0386165f908152601a60209081526040808320600e548452909152812080549293508392909190611919908490615b39565b90915550506001600160a01b0384165f908152601a60209081526040808320600e54845290915281208054859290611952908490615bf2565b90915550505050505050565b335f6119686130ce565b905061197382612bfd565b6119af5760405162461bcd60e51b815260206004820152600d60248201526c496e76616c696420757365722160981b6044820152606401611751565b6001600160a01b0382165f9081526012602052604090206006015460ff16156119ea5760405162461bcd60e51b815260040161175190615c05565b6119f382613083565b15611a375760405162461bcd60e51b81526020600482015260146024820152732cb7bab91024a21034b99034b730b1ba34bb329760611b6044820152606401611751565b611a4160056130b7565b831015611a8c5760405162461bcd60e51b81526020600482015260196024820152784d696e696d756d20616d6f756e74206973203520555344542160381b6044820152606401611751565b82611a9983600d54612c50565b1015611add5760405162461bcd60e51b8152602060048201526013602482015272496e73756666696369656e742066756e64732160681b6044820152606401611751565b6001600160a01b0382165f90815260126020908152604080832060040154601990925290912060060154611b12908590615bf2565b111580611b355750600c5460ff168015611b355750611b3160646130b7565b8110155b611ba75760405162461bcd60e51b815260206004820152603960248201527f5769746864726177616c206265796f6e64207072696e6369706c65206973207060448201527f726f686962697465642061742074686973206d6f6d656e7421000000000000006064820152608401611751565b6001600160a01b0382165f908152601a60209081526040808320600d54845290915281208054859290611bdb908490615b39565b90915550506001600160a01b0382165f9081526019602052604081206006018054859290611c0a908490615bf2565b909155505f90506064611c1e856005615b22565b611c289190615bd3565b90505f611c358286615b39565b604080518082018252878152426020808301919091526001600160a01b0388165f90815260168252838120601b909252928320600201549394509092839290611c7f906001615bf2565b815260208082019290925260409081015f90812084518155938301516001909401939093556001600160a01b0388168352601b9091528120600201805491611cc683615b60565b9190505550858410611cf757611cdc8583613141565b600754611cf2906001600160a01b031684613141565b611d01565b611d0185836131c8565b505050505050565b6001600160a01b0381165f9081526014602052604090206001015460609067ffffffffffffffff811115611d3f57611d3f615b4c565b604051908082528060200260200182016040528015611da057816020015b611d8d60405180608001604052805f81526020015f6001600160a01b031681526020015f81526020015f81525090565b815260200190600190039081611d5d5790505b5090505f5b6001600160a01b0383165f9081526014602052604090206001015481101561106e576040518060800160405280826001611ddf9190615bf2565b815260200160145f866001600160a01b03166001600160a01b031681526020019081526020015f206001018381548110611e1b57611e1b615b78565b5f9182526020808320909101546001600160a01b03908116845287168252601481526040822060010180549390910192601292919086908110611e6057611e60615b78565b5f9182526020808320909101546001600160a01b039081168452838201949094526040928301822060040154855292881681526014808452918120600101805494909301939192909186908110611eb957611eb9615b78565b5f9182526020808320909101546001600160a01b0316835282019290925260400190206004015490528251839083908110611ef657611ef6615b78565b6020908102919091010152600101611da5565b611f11613056565b611f2d5760405162461bcd60e51b815260040161175190615c05565b600380546001600160a01b0319166001600160a01b0392909216919091179055565b611f7e6040518060a001604052805f81526020015f81526020015f81526020015f81526020015f151581525090565b6040518060a001604052805f54815260200160015481526020016002548152602001611fa86130ce565b8152600c5460ff161515602090910152919050565b6001600160a01b0383165f908152601b602052604081206002015460609181611fe68587615b22565b11611ffa57611ff58486615b22565b611ffc565b815b90505f8482101561200d575f612017565b6120178583615b39565b90505f6120248284615b39565b67ffffffffffffffff81111561203c5761203c615b4c565b60405190808252806020026020018201604052801561208057816020015b604080518082019091525f808252602082015281526020019060019003908161205a5790505b509450825b82811115610cec576001600160a01b0389165f908152601660209081526040808320848452825291829020825180840190935280548352600101549082015286518790849081106120d8576120d8615b78565b602002602001018190525081806120ee90615b60565b92505080806120fc90615b8c565b915050612085565b606060095467ffffffffffffffff81111561212157612121615b4c565b6040519080825280602002602001820160405280156121b557816020015b6121a2604051806101a001604052805f8152602001606081526020015f81526020015f81526020015f81526020015f81526020015f81526020015f151581526020015f81526020015f81526020015f81526020015f81526020015f151581525090565b81526020019060019003908161213f5790505b506001600160a01b038084165f81815260126020908152604080832081516101a081018352815481526001808301548816828601526002830154909716818401526003820154606082015260048201546080820152600582015460a0820152600682015460ff908116151560c080840191909152600784015460e08401526008840154610100808501919091526009850154610120850152600a850154610140850152600b9094015480831615156101608501529390930416151561018082015294845260148352818420825191820183528054825295860180548351818602810186019094528084529798509496939590949093858401938301828280156122e557602002820191905f5260205f20905b81546001600160a01b031681526001909101906020018083116122c7575b505050505081526020016002820154815260200160038201548152602001600482015481526020016005820180548060200260200160405190810160405280929190818152602001828054801561236357602002820191905f5260205f20905b81546001600160a01b03168152600190910190602001808311612345575b50505050508152505090505f600190505b6009548111612548575f60115f8381526020019081526020015f206040518060e00160405290815f82015481526020016001820180546123b390615ba1565b80601f01602080910402602001604051908101604052809291908181526020018280546123df90615ba1565b801561242a5780601f106124015761010080835404028352916020019161242a565b820191905f5260205f20905b81548152906001019060200180831161240d57829003601f168201915b505050505081526020016002820154815260200160038201548152602001600482015481526020016005820154815260200160068201548152505090505f815f015185610140015110159050604051806101a00160405280835f015181526020018360200151815260200183604001518152602001836080015181526020018360a00151815260200183606001518152602001866080015181526020016124d5898560400151613297565b1515815260200185604001518152602001856060015181526020018660a0015181526020018360c001518152602001821515815250866001856125189190615b39565b8151811061252857612528615b78565b60200260200101819052505050808061254090615b60565b915050612374565b505050919050565b612558613056565b6125745760405162461bcd60e51b815260040161175190615c05565b600480546001600160a01b0319166001600160a01b0392909216919091179055565b600f6020525f9081526040902080546001820180549192916125b790615ba1565b80601f01602080910402602001604051908101604052809291908181526020018280546125e390615ba1565b801561262e5780601f106126055761010080835404028352916020019161262e565b820191905f5260205f20905b81548152906001019060200180831161261157829003601f168201915b50505050600283015460038401546004850154600586015460068701546007909701549596939560ff808516965061010090940484169492939192911689565b612678828261330c565b5050565b612684613056565b6126a05760405162461bcd60e51b815260040161175190615c05565b600780546001600160a01b0319166001600160a01b0392909216919091179055565b336126cc81612bfd565b6127125760405162461bcd60e51b8152602060048201526017602482015276596f7520617265206e6f7420726567697374657265642160481b6044820152606401611751565b6001600160a01b0381165f908152601260205260409020600b0154610100900460ff16156127985760405162461bcd60e51b815260206004820152602d60248201527f4f6e6c792066697273742074696d6520746f70757020697320616c6c6f77656460448201526c10333937b6903bb0b63632ba1760991b6064820152608401611751565b816127a582600e54612c50565b10156127f35760405162461bcd60e51b815260206004820152601d60248201527f496e73756666696369656e742066756e647320696e2077616c6c6574210000006044820152606401611751565b6127fe81848461346e565b506001600160a01b0381165f908152601a602090815260408083206002845290915281208054849290612832908490615b39565b9091555050505050565b612844613056565b6128605760405162461bcd60e51b815260040161175190615c05565b60015f52600f6020527f169f97de0d9a84d840042b17d3c6b9638b3d6fd9024c9eb0c7a306a17b49f89455565b612895613056565b6128b15760405162461bcd60e51b815260040161175190615c05565b600680546001600160a01b0319166001600160a01b0392909216919091179055565b6001600160a01b0383165f90815260146020908152604080832060050180548251818502810185019093528083526060949383018282801561293c57602002820191905f5260205f20905b81546001600160a01b0316815260019091019060200180831161291e575b505083519394505f925083915061295590508688615b22565b11612969576129648587615b22565b61296b565b815b90505f8582101561297c575f612986565b6129868683615b39565b90505f6129938284615b39565b90508067ffffffffffffffff8111156129ae576129ae615b4c565b604051908082528060200260200182016040528015612a0f57816020015b6129fc60405180608001604052805f81526020015f6001600160a01b031681526020015f81526020015f81525090565b8152602001906001900390816129cc5790505b5095505f835b83811115612b2f575f87612a2a600184615b39565b81518110612a3a57612a3a615b78565b602002602001015190506040518060800160405280838152602001826001600160a01b0316815260200160125f846001600160a01b03166001600160a01b031681526020019081526020015f2060040154815260200160145f60145f866001600160a01b03166001600160a01b031681526020019081526020015f206001018681548110612aca57612aca615b78565b5f9182526020808320909101546001600160a01b0316835282019290925260400190206004015490528984612afe81615b60565b955081518110612b1057612b10615b78565b6020026020010181905250508080612b2790615b8c565b915050612a15565b505050505050509392505050565b60116020525f908152604090208054600182018054919291612b5e90615ba1565b80601f0160208091040260200160405190810160405280929190818152602001828054612b8a90615ba1565b8015612bd55780601f10612bac57610100808354040283529160200191612bd5565b820191905f5260205f20905b815481529060010190602001808311612bb857829003601f168201915b5050505050908060020154908060030154908060040154908060050154908060060154905087565b6001600160a01b0381165f9081526012602052604081205415158015612c3e57506001600160a01b0382165f9081526012602052604090206006015460ff16155b92915050565b612c4d816138cc565b50565b6001600160a01b03919091165f908152601a60209081526040808320938352929052205490565b335f90815260126020526040812060090154421015612cc25760405162461bcd60e51b81526020600482015260076024820152664163746976652160c81b6044820152606401611751565b612ccd33425f61399f565b905090565b5f818152601060209081526040808320600201546001600160a01b038616845260129092528220600a015410612d0a57506001612c3e565b505f92915050565b6001600160a01b0381165f908152601960209081526040808320815160e0810183528154815260018201548185015260028201548184015260038201805484518187028101870190955280855286958695939493606086019390929091830182828015612d9c57602002820191905f5260205f20905b815481526020019060010190808311612d88575b50505050508152602001600482015481526020016005820154815260200160068201548152505090505f5b816060015151811015612e075781606001518181518110612dea57612dea615b78565b602002602001015183612dfd9190615bf2565b9250600101612dc7565b50909392505050565b6001600160a01b0381165f908152601b60205260408120544290829060015b818111612ec3576001600160a01b0386165f908152601560209081526040808320848452825291829020825160a081018452815481526001820154928101929092526002810154928201929092526003820154606082018190526004909201546080820181905290911115612eb0576020810151612ead9085615bf2565b93505b5080612ebb81615b60565b915050612e2f565b506001600160a01b0385165f90815260126020526040902060088101546009909101548185111580612ef55750818111155b15612f0657505f9695505050505050565b5f8286831115612f165786612f18565b825b612f229190615b39565b90505f612f2f8484615b39565b90505f612f3d826064615b22565b83612f4989600a615b22565b612f539190615b22565b612f5d9190615bd3565b9050612f698a82613a5f565b9a9950505050505050505050565b5f612f8182612d12565b6001600160a01b0383165f908152601960205260409020600581015460018201546002830154925491929091612fb79190615bf2565b612fc19190615bf2565b612fcb9190615bf2565b612c3e9190615bf2565b6001600160a01b0381165f9081526012602052604081206004810154600b9091015460ff16613005576003613008565b60045b60ff16612c3e9190615b22565b6001600160a01b0381165f90815260126020526040812060070154612c3e90610a8c615bf2565b5f61304682612fd5565b61304f83612f77565b1092915050565b6003545f906001600160a01b0316331480612ccd575050600c5461010090046001600160a01b0316331490565b6001600160a01b0381165f9081526012602052604081206009015442101580612c3e57506130b08261303c565b1592915050565b5f6130c46012600a615d16565b612c3e9083615b22565b6040516370a0823160e01b81523060048201525f90734622b46df102fd8648385bc96fd7a837111aec61906370a0823190602401602060405180830381865afa15801561311d573d5f803e3d5ffd5b505050506040513d601f19601f82011682018060405250810190612ccd9190615d21565b60405163a9059cbb60e01b81526001600160a01b038316600482015260248101829052734622b46df102fd8648385bc96fd7a837111aec619063a9059cbb906044016020604051808303815f875af115801561319f573d5f803e3d5ffd5b505050506040513d601f19601f820116820180604052508101906131c39190615d38565b505050565b6007546001600160a01b03166132205760405162461bcd60e51b815260206004820152601e60248201527f53656375726974792066756e6420636f6e7472616374206e6f742073657400006044820152606401611751565b6007546040516358908a0f60e01b8152734622b46df102fd8648385bc96fd7a837111aec6160048201526001600160a01b03848116602483015260448201849052909116906358908a0f906064015f604051808303815f87803b158015613285575f80fd5b505af1158015611d01573d5f803e3d5ffd5b6001600160a01b0382165f908152601b602052604081205460015b818111613302576001600160a01b0385165f90815260156020908152604080832084845290915290206001015484116132f057600192505050612c3e565b806132fa81615b60565b9150506132b2565b505f949350505050565b335f818152601260205260409020546133615760405162461bcd60e51b8152602060048201526017602482015276596f7520617265206e6f7420726567697374657265642160481b6044820152606401611751565b61336a81613083565b6133c85760405162461bcd60e51b815260206004820152602960248201527f4465706f73697420697320616c6c6f776564206f6e6c79206166746572207468604482015268329032bc3834b93c9760b91b6064820152608401611751565b6133d182613b90565b5f6133dd82858561346e565b60035490915061340c906001600160a01b031660646133fd866002615b22565b6134079190615bd3565b613141565b600454613429906001600160a01b031660646133fd866001615b22565b600654613446906001600160a01b031660646133fd866005615b22565b8061346857600554613468906001600160a01b031660646133fd866002615b22565b50505050565b5f828152600f602052604081206003015460ff16801561351557505f838152600f6020526040902060030154610100900460ff161580156134be57505f838152600f602052604090206002015482145b8061351557505f838152600f6020526040902060030154610100900460ff1680156134f957505f838152600f60205260409020600401548210155b801561351557505f838152600f60205260409020600501548211155b6135535760405162461bcd60e51b815260206004820152600f60248201526e496e76616c696420616d6f756e742160881b6044820152606401611751565b6001600160a01b0384165f908152601560209081526040808320601b83528184205484529091529020600101548210156135f55760405162461bcd60e51b815260206004820152603d60248201527f416d6f756e74206d75737420626520657175616c20746f206f72206d6f72652060448201527f7468616e2070726576696f7573206465706f73697420616d6f756e742e0000006064820152608401611751565b506001600160a01b0383165f908152601260205260408120600b01546001805461010090920460ff161592429285929190613631908490615bf2565b90915550506001600160a01b038086165f90815260126020526040812060028101546004909101805491909316928692909161366e908490615bf2565b90915550506001600160a01b0381165f908152601460205260408120805486929061369a908490615bf2565b909155505082156136ff576001600160a01b038116156136f5576001600160a01b038181165f9081526014602090815260408220600190810180549182018155835291200180546001600160a01b0319169188169190911790555b6136ff8187613c72565b6137098685613d00565b61371286613fe9565b6040805160a08101825286815260208082018790528183018590526001600160a01b0389165f9081526012909152918220600b01546060820190879060ff1661375c57600361375f565b60045b60ff1661376c9190615b22565b81526020015f815250905061378287865f614023565b6001600160a01b0387165f908152601560209081526040808320601b9092528220548392906137b2906001615bf2565b815260208082019290925260409081015f90812084518155848401516001820155848301516002820155606085015160038201556080909401516004909401939093556001600160a01b038a168352601b909152812080549161381483615b60565b919050555061382487848761399f565b5083156138c2576001600160a01b0387165f818152601260205260408120600701859055601d805460018101825591527f6d4407e7be21f808e6509aa9fa9143369579dd7d760fe20a2c09680fc146134f0180546001600160a01b03191690911790556138918786614153565b61389a85614276565b6001600160a01b0387165f908152601260205260409020600b01805461ff0019166101001790555b5050509392505050565b336138d682612bfd565b80156138fb57506001600160a01b0382165f9081526012602052604090206004015415155b61393a5760405162461bcd60e51b815260206004820152601060248201526f496e76616c69642073706f6e736f722160801b6044820152606401611751565b6001600160a01b0381165f90815260126020526040902054156139955760405162461bcd60e51b8152602060048201526013602482015272416c726561647920726567697374657265642160681b6044820152606401611751565b61267881836146c7565b6001600160a01b0383165f908152601b602052604081206003015481906139c890600290615bd3565b6139d390600a615bf2565b90505f6139e182603c615b22565b6139eb9086615bf2565b6001600160a01b0387165f90815260126020908152604080832060088101805460099092018054918c9055869055601b909352908320600301805494955090939192613a3683615b60565b9190505550613a48888884848a614abe565b613a5188614cc6565b506001979650505050505050565b6001600160a01b0382165f908152601260205260408120600901544210613a8757505f612c3e565b6001600160a01b0383165f908152601b602052604081205490839060015b838111613b86576001600160a01b0387165f9081526015602090815260408083208484528252808320815160a081018352815481526001820154938101939093526002810154918301919091526003810154606083018190526004909101546080830181905291929110613b19575f613b2d565b81608001518260600151613b2d9190615b39565b90508015613b71575f81861115613b445781613b46565b855b9050613b528186615bf2565b9450613b5e8187615b39565b9550855f03613b6f57505050613b86565b505b50508080613b7e90615b60565b915050613aa5565b5095945050505050565b5f613b996130ce565b6040516323b872dd60e01b815233600482015230602482015260448101849052909150734622b46df102fd8648385bc96fd7a837111aec61906323b872dd906064016020604051808303815f875af1158015613bf7573d5f803e3d5ffd5b505050506040513d601f19601f82011682018060405250810190613c1b9190615d38565b505f613c256130ce565b905082613c328383615b39565b10156131c35760405162461bcd60e51b815260206004820152600f60248201526e496e76616c696420616d6f756e742160881b6044820152606401611751565b6001600160a01b03821615612678576001600160a01b0382165f908152601260205260408120600501805491613ca783615b60565b90915550506001600160a01b039182165f81815260146020908152604080832060050180546001810182559084528284200180546001600160a01b03191686881617905592825260129052206002015490911690613c72565b6001600160a01b038083165f90815260126020526040902060020154600191165b6001600160a01b03811615613468576001600160a01b0381165f9081526014602052604081206004018054859290613d5a908490615bf2565b90915550506001600160a01b0381165f90815260176020908152604080832085845290915281208054859290613d91908490615bf2565b90915550506001600160a01b038082165f908152601c6020908152604080832054888516845260148352818420600490810154601290945291842090910154931692613ddd9190615bf2565b90506001600160a01b038216613e2e576001600160a01b038381165f908152601c6020908152604080832080546001600160a01b031916948b16949094179093556014905220600201819055613fb1565b816001600160a01b0316866001600160a01b031603613e7c576001600160a01b0383165f9081526014602052604081206002018054879290613e71908490615bf2565b90915550613fb19050565b6001600160a01b0383165f9081526014602052604090206002015480821115613f7f576001600160a01b0387165f90815260146020908152604080832060049081015460129093529220909101548791613ed591615bf2565b613edf9190615b39565b6001600160a01b0385165f9081526014602052604081206003018054909190613f09908490615b39565b90915550506001600160a01b0384165f9081526014602052604081206003018054839290613f38908490615bf2565b90915550506001600160a01b038481165f908152601460209081526040808320600201869055601c909152902080546001600160a01b031916918916919091179055613faf565b6001600160a01b0384165f9081526014602052604081206003018054889290613fa9908490615bf2565b90915550505b505b6001600160a01b038084165f90815260126020526040902060020154939650929092169183613fdf81615b60565b9450505050613d21565b6001600160a01b03811615612c4d5761400181614e32565b6001600160a01b039081165f9081526012602052604090206002015416613fe9565b6001600160a01b0383165f908152601260205260409020600b015460ff1615801561408057506001600160a01b0383165f908152601260205260409020600b0154610100900460ff16158061408057504261407d84613015565b10155b80156140a157506140926107d06130b7565b821015806140a1575060018110155b156131c3576001600160a01b0383165f908152601260209081526040808320600b01805460ff19166001908117909155601b90925290912054905b81811161414c576001600160a01b0385165f908152601560209081526040808320848452909152902060010154614114906004615b22565b6001600160a01b0386165f9081526015602090815260408083208584529091529020600301558061414481615b60565b9150506140dc565b5050505050565b5f61415f610bb86130b7565b82106141765761416f60286130b7565b90506141e5565b6141816107d06130b7565b82106141915761416f601e6130b7565b61419c6103e86130b7565b82106141ac5761416f60146130b7565b6141b76101f46130b7565b82106141c75761416f600c6130b7565b6141d261012c6130b7565b82106141e5576141e260076130b7565b90505b5f8111801561420c57506001600160a01b0383165f90815260196020526040902060010154155b801561423857506001600160a01b0383165f908152601260205260409020600b0154610100900460ff16155b156131c3576142478382615050565b6001600160a01b0384165f90815260196020526040812060010180549293508392909190612832908490615bf2565b5f6142846201518042615b39565b601d549091505f9067ffffffffffffffff8111156142a4576142a4615b4c565b6040519080825280602002602001820160405280156142e857816020015b604080518082019091525f80825260208201528152602001906001900390816142c25790505b50601d549091505f905b801561445c575f601d614306600184615b39565b8154811061431657614316615b78565b5f9182526020808320909101546001600160a01b0316808352601290915260409091206007015490915085111561434d575061445c565b6001600160a01b038082165f90815260126020526040902060020154168061437657505061444a565b5f805b858110156143f557826001600160a01b031687828151811061439d5761439d615b78565b60200260200101515f01516001600160a01b0316036143ed578681815181106143c8576143c8615b78565b602002602001015160200180518091906143e190615b60565b905250600191506143f5565b600101614379565b5080614446576040518060400160405280836001600160a01b03168152602001600181525086868151811061442c5761442c615b78565b6020026020010181905250848061444290615b60565b9550505b5050505b8061445481615b8c565b9150506142f2565b506144656152e7565b61446d6152e7565b5f5b838110156145d3575f85828151811061448a5761448a615b78565b60200260200101515f015190505f8683815181106144aa576144aa615b78565b60200260200101516020015190505f5b60038110156145c8578481600381106144d5576144d5615b78565b60200201518211156145c05760025b8181111561457c57856144f8600183615b39565b6003811061450857614508615b78565b602002015186826003811061451f5761451f615b78565b602002015286614530600183615b39565b6003811061454057614540615b78565b602002015187826003811061455757614557615b78565b6001600160a01b0390921660209290920201528061457481615b8c565b9150506144e4565b508185826003811061459057614590615b78565b6020020152828682600381106145a8576145a8615b78565b6001600160a01b0390921660209290920201526145c8565b6001016144ba565b50505060010161446f565b505f60646145e2886002615b22565b6145ec9190615bd3565b90505f604051806060016040528060328152602001601e8152602001601481525090505f5b60038110156146bc575f85826003811061462d5761462d615b78565b602002015190506001600160a01b038116156146b3575f606484846003811061465857614658615b78565b60200201516146679087615b22565b6146719190615bd3565b905061467d8282615050565b6001600160a01b0383165f908152601960205260408120600501805492935083929091906146ac908490615bf2565b9091555050505b50600101614611565b505050505050505050565b5f805490806146d583615b60565b91905055505f604051806101a001604052805f548152602001846001600160a01b03168152602001836001600160a01b031681526020014281526020015f81526020015f81526020015f151581526020015f81526020015f81526020015f81526020015f81526020015f151581526020015f151581525090505f6040518060c001604052805f81526020015f67ffffffffffffffff81111561477957614779615b4c565b6040519080825280602002602001820160405280156147a2578160200160208202803683370190505b5081526020015f81526020015f81526020015f81526020015f67ffffffffffffffff8111156147d3576147d3615b4c565b6040519080825280602002602001820160405280156147fc578160200160208202803683370190505b5081525090505f6040518060e001604052805f81526020015f81526020015f8152602001600854600161482f9190615bf2565b67ffffffffffffffff81111561484757614847615b4c565b604051908082528060200260200182016040528015614870578160200160208202803683370190505b5081525f6020808301829052604080840183905260609384018390528051608080820183528482528184018590528183018590528186018590526001600160a01b038c81168652601285528386208b5181558b860151600180830180546001600160a01b03199081169386169390931790558d8701516002840180549093169416939093179055968b01516003880155908a0151600487015560a08a0151600587015560c08a015160068701805460ff191691151591909117905560e08a01516007870155610100808b015160088801556101208b015160098801556101408b0151600a8801556101608b0151600b90970180546101808d015161ffff1990911698151561ff0019169890981797151590910296909617909555601483529220865181558682015180519596509294879491936149b293928501920190615305565b5060408201516002820155606082015160038201556080820151600482015560a082015180516149ec916005840191602090910190615305565b5050506001600160a01b0386165f908152601960209081526040918290208451815581850151600182015591840151600283015560608401518051859392614a3b926003850192910190615368565b506080820151600482015560a0820151600582015560c0909101516006909101555f8054815260136020908152604080832080546001600160a01b03909a166001600160a01b0319909a168a179055978252601b815290879020825181559082015160018201559581015160028701556060015160039095019490945550505050565b6001600160a01b0385165f908152601b602052604081205490614ae18585615b39565b90505f8587861115614af35787614af5565b855b614aff9190615b39565b90505f60015b848111614bb7576001600160a01b038a165f908152601560209081526040808320848452825291829020825160a0810184528154815260018201549281018390526002820154938101939093526003810154606084015260040154608083015287148015614b765750898160400151145b15614b815750614ba5565b806060015181608001511015614ba3576020810151614ba09084615bf2565b92505b505b80614baf81615b60565b915050614b05565b505f81118015614bc657505f83115b156146bc575f614bd7846064615b22565b83614be384600a615b22565b614bed9190615b22565b614bf79190615bd3565b9050614c038a82615050565b6001600160a01b038b165f90815260196020526040812060020180549293508392909190614c32908490615bf2565b90915550506001600160a01b038a165f908152601b60205260408120600101805491614c5d83615b60565b90915550506040805160608101825292835260208084019a8b528382019283526001600160a01b039b909b165f90815260188c52818120601b8d5282822060019081015483529c5220915182559751988101989098555050935160029095019490945550505050565b6001600160a01b038181165f9081526012602052604081206002810154600b90910154921691610100900460ff16614cff576001614d02565b60025b6001600160a01b0384165f90815260126020526040902060040154614d2a9160ff1690615bd3565b905060015f5b6001600160a01b03841615801590614d4a57506008548211155b1561414c57600a5460ff16614d6f575f82815260106020526040902060010154614d98565b5f8281526010602052604090206001015461271090614d8e9085615b22565b614d989190615bd3565b9050614da48483612cd2565b15614e0057614db38482615050565b6001600160a01b0385165f9081526019602052604090206003018054919250829184908110614de457614de4615b78565b905f5260205f20015f828254614dfa9190615bf2565b90915550505b6001600160a01b039384165f908152601260205260409020600201549093169281614e2a81615b60565b925050614d30565b6001600160a01b0381165f908152601260205260408120600a0154614e58906001615bf2565b90505b6009548111612678575f60115f8381526020019081526020015f206040518060e00160405290815f8201548152602001600182018054614e9a90615ba1565b80601f0160208091040260200160405190810160405280929190818152602001828054614ec690615ba1565b8015614f115780601f10614ee857610100808354040283529160200191614f11565b820191905f5260205f20905b815481529060010190602001808311614ef457829003601f168201915b50505050508152602001600282015481526020016003820154815260200160048201548152602001600582015481526020016006820154815250509050614f5c838260400151613297565b8015614f86575060808101516001600160a01b0384165f9081526014602052604090206002015410155b8015614fb0575060a08101516001600160a01b0384165f9081526014602052604090206003015410155b8015614fda575060608101516001600160a01b0384165f9081526012602052604090206005015410155b156131c35760c08101516001600160a01b0384165f908152601960205260408120600401805483929061500e908490615bf2565b90915550506001600160a01b0384165f908152601260205260408120600a0184905561503c90859085614023565b8261504681615b60565b9350505050614e5b565b5f61505b83836151d4565b9150811561106e576001600160a01b0383165f908152601260205260409020600a01546004111561512d57606461509383604b615b22565b61509d9190615bd3565b6001600160a01b0384165f908152601a60209081526040808320600d548452909152812080549091906150d1908490615bf2565b90915550606490506150e4836019615b22565b6150ee9190615bd3565b6001600160a01b0384165f908152601a60209081526040808320600e54845290915281208054909190615122908490615bf2565b9091555061106e9050565b606461513a836032615b22565b6151449190615bd3565b6001600160a01b0384165f908152601a60209081526040808320600d54845290915281208054909190615178908490615bf2565b909155506064905061518b836032615b22565b6151959190615bd3565b6001600160a01b0384165f908152601a60209081526040808320600e548452909152812080549091906151c9908490615bf2565b909155505050919050565b6001600160a01b0382165f9081526012602052604081206009015442106151fc57505f612c3e565b6001600160a01b0383165f908152601b60205260409020548260015b8281116152d3576001600160a01b0386165f90815260156020908152604080832084845290915281206004810154600382015491929111615259575f61526d565b8160040154826003015461526d9190615b39565b905080156152be575f818511156152845781615286565b845b905080836004015f82825461529b9190615bf2565b909155506152ab90508186615b39565b9450845f036152bc575050506152d3565b505b505080806152cb90615b60565b915050615218565b506152de8185615b39565b95945050505050565b60405180606001604052806003906020820280368337509192915050565b828054828255905f5260205f20908101928215615358579160200282015b8281111561535857825182546001600160a01b0319166001600160a01b03909116178255602090920191600190910190615323565b506153649291506153a1565b5090565b828054828255905f5260205f20908101928215615358579160200282015b82811115615358578251825591602001919060010190615386565b5b80821115615364575f81556001016153a2565b80356001600160a01b03811681146153cb575f80fd5b919050565b5f80604083850312156153e1575f80fd5b6153ea836153b5565b946020939093013593505050565b5f60208284031215615408575f80fd5b615411826153b5565b9392505050565b5f805f6060848603121561542a575f80fd5b615433846153b5565b95602085013595506040909401359392505050565b602080825282518282018190525f918401906040840190835b8181101561549b57835180518452602081015160208501526040810151604085015250606083019250602084019350600181019050615461565b509095945050505050565b602080825282518282018190525f918401906040840190835b8181101561549b57835180518452602081015160208501526040810151604085015260608101516060850152608081015160808501525060a0830192506020840193506001810190506154bf565b5f81518084528060208401602086015e5f602082860101526020601f19601f83011685010191505092915050565b5f602082016020835280845180835260408501915060408160051b8601019250602086015f5b8281101561561257603f198786030184528151805186526020810151610120602088015261559361012088018261550d565b90506040820151604088015260608201516155b2606089018215159052565b5060808201516155c6608089018215159052565b5060a082015160a088015260c082015160c088015260e082015160e088015261010082015191506155fc61010088018315159052565b9550506020938401939190910190600101615561565b50929695505050505050565b602080825282518282018190525f918401906040840190835b8181101561549b578351805184526020810151602085015260408101516040850152606081015160608501526080810151608085015260a081015160a085015260c0810151151560c08501525060e083019250602084019350600181019050615637565b602081526156b56020820183516001600160a01b03169052565b602082015160408201526040820151606082015260608201516080820152608082015160a082015260a082015160c082015260c082015160e082015260e08201516101008201526101008201516101208201526101208201516101408201526101408201516101608201526101608201516101808201526101808201516101a08201526101a08201516101c08201526101c08201516101e08201526101e08201516102008201526102008201516102208201526102208201516102408201526102408201516102608201526102608201516102808201525f6102808301516103206102a08401526157aa61034084018261550d565b90506102a08401516102c08401526102c08401516157cd6102e085018215159052565b506102e084015180151561030085015250610300840151801515610320850152509392505050565b5f805f60608486031215615807575f80fd5b615810846153b5565b925061581e602085016153b5565b929592945050506040919091013590565b5f6020828403121561583f575f80fd5b5035919050565b602080825282518282018190525f918401906040840190835b8181101561549b57615899838551805182526020808201516001600160a01b03169083015260408082015190830152606090810151910152565b602093909301926080929092019160010161585f565b602080825282518282018190525f918401906040840190835b8181101561549b5783518051845260209081015181850152909301926040909201916001016158c8565b5f602082016020835280845180835260408501915060408160051b8601019250602086015f5b8281101561561257603f1987860301845281518051865260208101516101a0602088015261594a6101a088018261550d565b905060408201516040880152606082015160608801526080820151608088015260a082015160a088015260c082015160c088015260e082015161599160e089018215159052565b5061010082015161010088015261012082015161012088015261014082015161014088015261016082015161016088015261018082015191506159d961018088018315159052565b9550506020938401939190910190600101615918565b89815261012060208201525f615a0961012083018b61550d565b6040830199909952509515156060870152931515608086015260a085019290925260c084015260e083015215156101009091015292915050565b5f8060408385031215615a54575f80fd5b50508035926020909101359150565b602080825282518282018190525f918401906040840190835b8181101561549b57615ab6838551805182526020808201516001600160a01b03169083015260408082015190830152606090810151910152565b6020939093019260809290920191600101615a7c565b87815260e060208201525f615ae460e083018961550d565b6040830197909752506060810194909452608084019290925260a083015260c09091015292915050565b634e487b7160e01b5f52601160045260245ffd5b8082028115828204841417612c3e57612c3e615b0e565b81810381811115612c3e57612c3e615b0e565b634e487b7160e01b5f52604160045260245ffd5b5f60018201615b7157615b71615b0e565b5060010190565b634e487b7160e01b5f52603260045260245ffd5b5f81615b9a57615b9a615b0e565b505f190190565b600181811c90821680615bb557607f821691505b60208210810361106e57634e487b7160e01b5f52602260045260245ffd5b5f82615bed57634e487b7160e01b5f52601260045260245ffd5b500490565b80820180821115612c3e57612c3e615b0e565b602080825260149082015273596f7520617265206e6f7420616c6c6f7765642160601b604082015260600190565b6001815b6001841115615c6e57808504811115615c5257615c52615b0e565b6001841615615c6057908102905b60019390931c928002615c37565b935093915050565b5f82615c8457506001612c3e565b81615c9057505f612c3e565b8160018114615ca65760028114615cb057615ccc565b6001915050612c3e565b60ff841115615cc157615cc1615b0e565b50506001821b612c3e565b5060208310610133831016604e8410600b8410161715615cef575081810a612c3e565b615cfb5f198484615c33565b805f1904821115615d0e57615d0e615b0e565b029392505050565b5f6154118383615c76565b5f60208284031215615d31575f80fd5b5051919050565b5f60208284031215615d48575f80fd5b81518015158114615411575f80fdfea26469706673582212201b8197ce965ac2dacfe4eba7041759833ca7c4f8b76407415647bea5e11ffe5a64736f6c634300081a0033",
			"opcodes": "PUSH1 0x80 PUSH1 0x40 MSTORE PUSH0 DUP1 DUP1 SSTORE PUSH1 0x1 DUP2 DUP2 SSTORE PUSH1 0x2 DUP3 DUP2 SSTORE PUSH1 0x3 DUP1 SLOAD PUSH1 0x1 PUSH1 0x1 PUSH1 0xA0 SHL SUB NOT SWAP1 DUP2 AND PUSH20 0xA1BF05780C2DE3002086695D212A743EAA6532AD OR SWAP1 SWAP2 SSTORE PUSH1 0x4 DUP1 SLOAD DUP3 AND PUSH20 0x4F6A1CFDF5E55DB0C2FF4575B0887FEA8A967088 OR SWAP1 SSTORE PUSH1 0x5 DUP1 SLOAD DUP3 AND PUSH20 0x985495C028F9B896DE454EC448B53FBA6450DA40 OR SWAP1 SSTORE PUSH1 0x6 DUP1 SLOAD DUP3 AND PUSH20 0x73D1AD5A474E1712D6CBE18D56B7281AAF190347 OR SWAP1 SSTORE PUSH1 0x7 DUP1 SLOAD SWAP1 SWAP2 AND SWAP1 SSTORE PUSH1 0x8 DUP4 SWAP1 SSTORE PUSH1 0x9 DUP4 SWAP1 SSTORE PUSH1 0xA DUP1 SLOAD PUSH1 0xFF NOT SWAP1 DUP2 AND DUP5 OR SWAP1 SWAP2 SSTORE PUSH1 0xB SWAP4 SWAP1 SWAP4 SSTORE PUSH1 0xC DUP1 SLOAD SWAP1 SWAP4 AND DUP3 OR SWAP1 SWAP3 SSTORE PUSH1 0xD SSTORE PUSH1 0xE SSTORE CALLVALUE DUP1 ISZERO PUSH2 0xDA JUMPI PUSH0 DUP1 REVERT JUMPDEST POP PUSH1 0xC DUP1 SLOAD PUSH2 0x100 PUSH1 0x1 PUSH1 0xA8 SHL SUB NOT AND CALLER PUSH2 0x100 MUL OR SWAP1 SSTORE PUSH2 0xFA PUSH2 0xFF JUMP JUMPDEST PUSH2 0x1531 JUMP JUMPDEST PUSH2 0x107 PUSH2 0x121 JUMP JUMPDEST PUSH2 0x10F PUSH2 0x250 JUMP JUMPDEST PUSH2 0x117 PUSH2 0x8F7 JUMP JUMPDEST PUSH2 0x11F PUSH2 0xDBA JUMP JUMPDEST JUMP JUMPDEST PUSH1 0xB DUP1 SLOAD SWAP1 PUSH0 PUSH2 0x130 DUP4 PUSH2 0x12A8 JUMP JUMPDEST SWAP2 SWAP1 POP SSTORE POP PUSH1 0x40 MLOAD DUP1 PUSH2 0x120 ADD PUSH1 0x40 MSTORE DUP1 PUSH1 0xB SLOAD DUP2 MSTORE PUSH1 0x20 ADD PUSH1 0x40 MLOAD DUP1 PUSH1 0x40 ADD PUSH1 0x40 MSTORE DUP1 PUSH1 0x7 DUP2 MSTORE PUSH1 0x20 ADD PUSH7 0x5061636B616765 PUSH1 0xC8 SHL DUP2 MSTORE POP DUP2 MSTORE PUSH1 0x20 ADD PUSH0 DUP2 MSTORE PUSH1 0x20 ADD PUSH1 0x1 ISZERO ISZERO DUP2 MSTORE PUSH1 0x20 ADD PUSH1 0x1 ISZERO ISZERO DUP2 MSTORE PUSH1 0x20 ADD PUSH2 0x196 PUSH1 0x1E PUSH2 0xDD3 PUSH1 0x20 SHL PUSH1 0x20 SHR JUMP JUMPDEST DUP2 MSTORE PUSH1 0x20 ADD PUSH2 0x1A6 PUSH2 0xBB8 PUSH2 0xDD3 JUMP JUMPDEST DUP2 MSTORE PUSH0 PUSH1 0x20 DUP1 DUP4 ADD DUP3 SWAP1 MSTORE PUSH1 0x1 PUSH1 0x40 SWAP4 DUP5 ADD DUP2 SWAP1 MSTORE PUSH1 0xB SLOAD DUP4 MSTORE PUSH1 0xF DUP3 MSTORE SWAP3 SWAP1 SWAP2 KECCAK256 DUP4 MLOAD DUP2 SSTORE SWAP1 DUP4 ADD MLOAD SWAP1 SWAP2 DUP3 ADD SWAP1 PUSH2 0x1DF SWAP1 DUP3 PUSH2 0x1358 JUMP JUMPDEST POP PUSH1 0x40 DUP3 ADD MLOAD PUSH1 0x2 DUP3 ADD SSTORE PUSH1 0x60 DUP3 ADD MLOAD PUSH1 0x3 DUP3 ADD DUP1 SLOAD PUSH1 0x80 DUP6 ADD MLOAD PUSH2 0xFFFF NOT SWAP1 SWAP2 AND SWAP3 ISZERO ISZERO PUSH2 0xFF00 NOT AND SWAP3 SWAP1 SWAP3 OR PUSH2 0x100 SWAP3 ISZERO ISZERO DUP4 MUL OR SWAP1 SSTORE PUSH1 0xA0 DUP4 ADD MLOAD PUSH1 0x4 DUP4 ADD SSTORE PUSH1 0xC0 DUP4 ADD MLOAD PUSH1 0x5 DUP4 ADD SSTORE PUSH1 0xE0 DUP4 ADD MLOAD PUSH1 0x6 DUP4 ADD SSTORE SWAP1 SWAP2 ADD MLOAD PUSH1 0x7 SWAP1 SWAP2 ADD DUP1 SLOAD PUSH1 0xFF NOT AND SWAP2 ISZERO ISZERO SWAP2 SWAP1 SWAP2 OR SWAP1 SSTORE JUMP JUMPDEST PUSH1 0x8 DUP1 SLOAD SWAP1 PUSH0 PUSH2 0x25F DUP4 PUSH2 0x12A8 JUMP JUMPDEST SWAP1 SWAP2 SSTORE POP POP PUSH1 0x40 DUP1 MLOAD PUSH1 0x60 DUP2 ADD DUP3 MSTORE PUSH1 0x8 DUP1 SLOAD DUP1 DUP4 MSTORE PUSH2 0x1F4 PUSH1 0x20 DUP1 DUP6 ADD SWAP2 DUP3 MSTORE PUSH0 DUP6 DUP8 ADD DUP2 DUP2 MSTORE SWAP4 DUP2 MSTORE PUSH1 0x10 SWAP1 SWAP2 MSTORE SWAP5 DUP6 KECCAK256 SWAP4 MLOAD DUP5 SSTORE MLOAD PUSH1 0x1 DUP5 ADD SSTORE MLOAD PUSH1 0x2 SWAP1 SWAP3 ADD SWAP2 SWAP1 SWAP2 SSTORE DUP1 SLOAD SWAP2 PUSH2 0x2B2 DUP4 PUSH2 0x12A8 JUMP JUMPDEST SWAP1 SWAP2 SSTORE POP POP PUSH1 0x40 DUP1 MLOAD PUSH1 0x60 DUP2 ADD DUP3 MSTORE PUSH1 0x8 DUP1 SLOAD DUP1 DUP4 MSTORE PUSH2 0x12C PUSH1 0x20 DUP1 DUP6 ADD SWAP2 DUP3 MSTORE PUSH1 0x1 DUP6 DUP8 ADD DUP2 DUP2 MSTORE PUSH0 SWAP5 DUP6 MSTORE PUSH1 0x10 SWAP1 SWAP3 MSTORE SWAP6 DUP4 KECCAK256 SWAP5 MLOAD DUP6 SSTORE SWAP1 MLOAD SWAP5 DUP5 ADD SWAP5 SWAP1 SWAP5 SSTORE SWAP3 MLOAD PUSH1 0x2 SWAP1 SWAP3 ADD SWAP2 SWAP1 SWAP2 SSTORE DUP1 SLOAD SWAP2 PUSH2 0x30B DUP4 PUSH2 0x12A8 JUMP JUMPDEST SWAP1 SWAP2 SSTORE POP POP PUSH1 0x40 DUP1 MLOAD PUSH1 0x60 DUP2 ADD DUP3 MSTORE PUSH1 0x8 DUP1 SLOAD DUP1 DUP4 MSTORE PUSH1 0xC8 PUSH1 0x20 DUP1 DUP6 ADD SWAP2 DUP3 MSTORE PUSH1 0x1 DUP6 DUP8 ADD DUP2 DUP2 MSTORE PUSH0 SWAP5 DUP6 MSTORE PUSH1 0x10 SWAP1 SWAP3 MSTORE SWAP6 DUP4 KECCAK256 SWAP5 MLOAD DUP6 SSTORE SWAP1 MLOAD SWAP5 DUP5 ADD SWAP5 SWAP1 SWAP5 SSTORE SWAP3 MLOAD PUSH1 0x2 SWAP1 SWAP3 ADD SWAP2 SWAP1 SWAP2 SSTORE DUP1 SLOAD SWAP2 PUSH2 0x363 DUP4 PUSH2 0x12A8 JUMP JUMPDEST SWAP1 SWAP2 SSTORE POP POP PUSH1 0x40 DUP1 MLOAD PUSH1 0x60 DUP2 ADD DUP3 MSTORE PUSH1 0x8 DUP1 SLOAD DUP1 DUP4 MSTORE PUSH2 0x190 PUSH1 0x20 DUP1 DUP6 ADD SWAP2 DUP3 MSTORE PUSH1 0x2 DUP6 DUP8 ADD DUP2 DUP2 MSTORE PUSH0 SWAP5 DUP6 MSTORE PUSH1 0x10 SWAP1 SWAP3 MSTORE SWAP6 DUP4 KECCAK256 SWAP5 MLOAD DUP6 SSTORE SWAP1 MLOAD PUSH1 0x1 DUP6 ADD SSTORE MLOAD SWAP3 SWAP1 SWAP4 ADD SWAP2 SWAP1 SWAP2 SSTORE DUP1 SLOAD SWAP2 PUSH2 0x3B8 DUP4 PUSH2 0x12A8 JUMP JUMPDEST SWAP1 SWAP2 SSTORE POP POP PUSH1 0x40 DUP1 MLOAD PUSH1 0x60 DUP2 ADD DUP3 MSTORE PUSH1 0x8 DUP1 SLOAD DUP1 DUP4 MSTORE PUSH1 0xC8 PUSH1 0x20 DUP1 DUP6 ADD SWAP2 DUP3 MSTORE PUSH1 0x2 DUP6 DUP8 ADD DUP2 DUP2 MSTORE PUSH0 SWAP5 DUP6 MSTORE PUSH1 0x10 SWAP1 SWAP3 MSTORE SWAP6 DUP4 KECCAK256 SWAP5 MLOAD DUP6 SSTORE SWAP1 MLOAD PUSH1 0x1 DUP6 ADD SSTORE MLOAD SWAP3 SWAP1 SWAP4 ADD SWAP2 SWAP1 SWAP2 SSTORE DUP1 SLOAD SWAP2 PUSH2 0x40C DUP4 PUSH2 0x12A8 JUMP JUMPDEST SWAP1 SWAP2 SSTORE POP POP PUSH1 0x40 DUP1 MLOAD PUSH1 0x60 DUP2 ADD DUP3 MSTORE PUSH1 0x8 DUP1 SLOAD DUP1 DUP4 MSTORE PUSH1 0xC8 PUSH1 0x20 DUP1 DUP6 ADD SWAP2 DUP3 MSTORE PUSH1 0x2 DUP6 DUP8 ADD DUP2 DUP2 MSTORE PUSH0 SWAP5 DUP6 MSTORE PUSH1 0x10 SWAP1 SWAP3 MSTORE SWAP6 DUP4 KECCAK256 SWAP5 MLOAD DUP6 SSTORE SWAP1 MLOAD PUSH1 0x1 DUP6 ADD SSTORE MLOAD SWAP3 SWAP1 SWAP4 ADD SWAP2 SWAP1 SWAP2 SSTORE DUP1 SLOAD SWAP2 PUSH2 0x460 DUP4 PUSH2 0x12A8 JUMP JUMPDEST SWAP1 SWAP2 SSTORE POP POP PUSH1 0x40 DUP1 MLOAD PUSH1 0x60 DUP2 ADD DUP3 MSTORE PUSH1 0x8 DUP1 SLOAD DUP1 DUP4 MSTORE PUSH1 0x64 PUSH1 0x20 DUP1 DUP6 ADD SWAP2 DUP3 MSTORE PUSH1 0x2 DUP6 DUP8 ADD DUP2 DUP2 MSTORE PUSH0 SWAP5 DUP6 MSTORE PUSH1 0x10 SWAP1 SWAP3 MSTORE SWAP6 DUP4 KECCAK256 SWAP5 MLOAD DUP6 SSTORE SWAP1 MLOAD PUSH1 0x1 DUP6 ADD SSTORE MLOAD SWAP3 SWAP1 SWAP4 ADD SWAP2 SWAP1 SWAP2 SSTORE DUP1 SLOAD SWAP2 PUSH2 0x4B4 DUP4 PUSH2 0x12A8 JUMP JUMPDEST SWAP1 SWAP2 SSTORE POP POP PUSH1 0x40 DUP1 MLOAD PUSH1 0x60 DUP2 ADD DUP3 MSTORE PUSH1 0x8 DUP1 SLOAD DUP1 DUP4 MSTORE PUSH1 0x64 PUSH1 0x20 DUP1 DUP6 ADD SWAP2 DUP3 MSTORE PUSH1 0x2 DUP6 DUP8 ADD DUP2 DUP2 MSTORE PUSH0 SWAP5 DUP6 MSTORE PUSH1 0x10 SWAP1 SWAP3 MSTORE SWAP6 DUP4 KECCAK256 SWAP5 MLOAD DUP6 SSTORE SWAP1 MLOAD PUSH1 0x1 DUP6 ADD SSTORE MLOAD SWAP3 SWAP1 SWAP4 ADD SWAP2 SWAP1 SWAP2 SSTORE DUP1 SLOAD SWAP2 PUSH2 0x508 DUP4 PUSH2 0x12A8 JUMP JUMPDEST SWAP1 SWAP2 SSTORE POP POP PUSH1 0x40 DUP1 MLOAD PUSH1 0x60 DUP2 ADD DUP3 MSTORE PUSH1 0x8 DUP1 SLOAD DUP1 DUP4 MSTORE PUSH1 0xC8 PUSH1 0x20 DUP1 DUP6 ADD SWAP2 DUP3 MSTORE PUSH1 0x3 DUP6 DUP8 ADD SWAP1 DUP2 MSTORE PUSH0 SWAP4 DUP5 MSTORE PUSH1 0x10 SWAP1 SWAP2 MSTORE SWAP5 DUP3 KECCAK256 SWAP4 MLOAD DUP5 SSTORE MLOAD PUSH1 0x1 DUP5 ADD SSTORE SWAP3 MLOAD PUSH1 0x2 SWAP1 SWAP3 ADD SWAP2 SWAP1 SWAP2 SSTORE DUP1 SLOAD SWAP2 PUSH2 0x55D DUP4 PUSH2 0x12A8 JUMP JUMPDEST SWAP1 SWAP2 SSTORE POP POP PUSH1 0x40 DUP1 MLOAD PUSH1 0x60 DUP2 ADD DUP3 MSTORE PUSH1 0x8 DUP1 SLOAD DUP1 DUP4 MSTORE PUSH1 0x64 PUSH1 0x20 DUP1 DUP6 ADD SWAP2 DUP3 MSTORE PUSH1 0x3 DUP6 DUP8 ADD SWAP1 DUP2 MSTORE PUSH0 SWAP4 DUP5 MSTORE PUSH1 0x10 SWAP1 SWAP2 MSTORE SWAP5 DUP3 KECCAK256 SWAP4 MLOAD DUP5 SSTORE MLOAD PUSH1 0x1 DUP5 ADD SSTORE SWAP3 MLOAD PUSH1 0x2 SWAP1 SWAP3 ADD SWAP2 SWAP1 SWAP2 SSTORE DUP1 SLOAD SWAP2 PUSH2 0x5B2 DUP4 PUSH2 0x12A8 JUMP JUMPDEST SWAP1 SWAP2 SSTORE POP POP PUSH1 0x40 DUP1 MLOAD PUSH1 0x60 DUP2 ADD DUP3 MSTORE PUSH1 0x8 DUP1 SLOAD DUP1 DUP4 MSTORE PUSH1 0x32 PUSH1 0x20 DUP1 DUP6 ADD SWAP2 DUP3 MSTORE PUSH1 0x3 DUP6 DUP8 ADD SWAP1 DUP2 MSTORE PUSH0 SWAP4 DUP5 MSTORE PUSH1 0x10 SWAP1 SWAP2 MSTORE SWAP5 DUP3 KECCAK256 SWAP4 MLOAD DUP5 SSTORE MLOAD PUSH1 0x1 DUP5 ADD SSTORE SWAP3 MLOAD PUSH1 0x2 SWAP1 SWAP3 ADD SWAP2 SWAP1 SWAP2 SSTORE DUP1 SLOAD SWAP2 PUSH2 0x607 DUP4 PUSH2 0x12A8 JUMP JUMPDEST SWAP1 SWAP2 SSTORE POP POP PUSH1 0x40 DUP1 MLOAD PUSH1 0x60 DUP2 ADD DUP3 MSTORE PUSH1 0x8 DUP1 SLOAD DUP1 DUP4 MSTORE PUSH1 0x32 PUSH1 0x20 DUP1 DUP6 ADD SWAP2 DUP3 MSTORE PUSH1 0x3 DUP6 DUP8 ADD SWAP1 DUP2 MSTORE PUSH0 SWAP4 DUP5 MSTORE PUSH1 0x10 SWAP1 SWAP2 MSTORE SWAP5 DUP3 KECCAK256 SWAP4 MLOAD DUP5 SSTORE MLOAD PUSH1 0x1 DUP5 ADD SSTORE SWAP3 MLOAD PUSH1 0x2 SWAP1 SWAP3 ADD SWAP2 SWAP1 SWAP2 SSTORE DUP1 SLOAD SWAP2 PUSH2 0x65C DUP4 PUSH2 0x12A8 JUMP JUMPDEST SWAP1 SWAP2 SSTORE POP POP PUSH1 0x40 DUP1 MLOAD PUSH1 0x60 DUP2 ADD DUP3 MSTORE PUSH1 0x8 DUP1 SLOAD DUP1 DUP4 MSTORE PUSH1 0x32 PUSH1 0x20 DUP1 DUP6 ADD SWAP2 DUP3 MSTORE PUSH1 0x3 DUP6 DUP8 ADD SWAP1 DUP2 MSTORE PUSH0 SWAP4 DUP5 MSTORE PUSH1 0x10 SWAP1 SWAP2 MSTORE SWAP5 DUP3 KECCAK256 SWAP4 MLOAD DUP5 SSTORE MLOAD PUSH1 0x1 DUP5 ADD SSTORE SWAP3 MLOAD PUSH1 0x2 SWAP1 SWAP3 ADD SWAP2 SWAP1 SWAP2 SSTORE DUP1 SLOAD SWAP2 PUSH2 0x6B1 DUP4 PUSH2 0x12A8 JUMP JUMPDEST SWAP1 SWAP2 SSTORE POP POP PUSH1 0x40 DUP1 MLOAD PUSH1 0x60 DUP2 ADD DUP3 MSTORE PUSH1 0x8 DUP1 SLOAD DUP1 DUP4 MSTORE PUSH1 0x64 PUSH1 0x20 DUP1 DUP6 ADD SWAP2 DUP3 MSTORE PUSH1 0x4 DUP6 DUP8 ADD SWAP1 DUP2 MSTORE PUSH0 SWAP4 DUP5 MSTORE PUSH1 0x10 SWAP1 SWAP2 MSTORE SWAP5 DUP3 KECCAK256 SWAP4 MLOAD DUP5 SSTORE MLOAD PUSH1 0x1 DUP5 ADD SSTORE SWAP3 MLOAD PUSH1 0x2 SWAP1 SWAP3 ADD SWAP2 SWAP1 SWAP2 SSTORE DUP1 SLOAD SWAP2 PUSH2 0x706 DUP4 PUSH2 0x12A8 JUMP JUMPDEST SWAP1 SWAP2 SSTORE POP POP PUSH1 0x40 DUP1 MLOAD PUSH1 0x60 DUP2 ADD DUP3 MSTORE PUSH1 0x8 DUP1 SLOAD DUP1 DUP4 MSTORE PUSH1 0x32 PUSH1 0x20 DUP1 DUP6 ADD SWAP2 DUP3 MSTORE PUSH1 0x4 DUP6 DUP8 ADD SWAP1 DUP2 MSTORE PUSH0 SWAP4 DUP5 MSTORE PUSH1 0x10 SWAP1 SWAP2 MSTORE SWAP5 DUP3 KECCAK256 SWAP4 MLOAD DUP5 SSTORE MLOAD PUSH1 0x1 DUP5 ADD SSTORE SWAP3 MLOAD PUSH1 0x2 SWAP1 SWAP3 ADD SWAP2 SWAP1 SWAP2 SSTORE DUP1 SLOAD SWAP2 PUSH2 0x75B DUP4 PUSH2 0x12A8 JUMP JUMPDEST SWAP1 SWAP2 SSTORE POP POP PUSH1 0x40 DUP1 MLOAD PUSH1 0x60 DUP2 ADD DUP3 MSTORE PUSH1 0x8 DUP1 SLOAD DUP1 DUP4 MSTORE PUSH1 0x19 PUSH1 0x20 DUP1 DUP6 ADD SWAP2 DUP3 MSTORE PUSH1 0x4 DUP6 DUP8 ADD SWAP1 DUP2 MSTORE PUSH0 SWAP4 DUP5 MSTORE PUSH1 0x10 SWAP1 SWAP2 MSTORE SWAP5 DUP3 KECCAK256 SWAP4 MLOAD DUP5 SSTORE MLOAD PUSH1 0x1 DUP5 ADD SSTORE SWAP3 MLOAD PUSH1 0x2 SWAP1 SWAP3 ADD SWAP2 SWAP1 SWAP2 SSTORE DUP1 SLOAD SWAP2 PUSH2 0x7B0 DUP4 PUSH2 0x12A8 JUMP JUMPDEST SWAP1 SWAP2 SSTORE POP POP PUSH1 0x40 DUP1 MLOAD PUSH1 0x60 DUP2 ADD DUP3 MSTORE PUSH1 0x8 DUP1 SLOAD DUP1 DUP4 MSTORE PUSH1 0x19 PUSH1 0x20 DUP1 DUP6 ADD SWAP2 DUP3 MSTORE PUSH1 0x4 DUP6 DUP8 ADD SWAP1 DUP2 MSTORE PUSH0 SWAP4 DUP5 MSTORE PUSH1 0x10 SWAP1 SWAP2 MSTORE SWAP5 DUP3 KECCAK256 SWAP4 MLOAD DUP5 SSTORE MLOAD PUSH1 0x1 DUP5 ADD SSTORE SWAP3 MLOAD PUSH1 0x2 SWAP1 SWAP3 ADD SWAP2 SWAP1 SWAP2 SSTORE DUP1 SLOAD SWAP2 PUSH2 0x805 DUP4 PUSH2 0x12A8 JUMP JUMPDEST SWAP1 SWAP2 SSTORE POP POP PUSH1 0x40 DUP1 MLOAD PUSH1 0x60 DUP2 ADD DUP3 MSTORE PUSH1 0x8 DUP1 SLOAD DUP1 DUP4 MSTORE PUSH1 0x19 PUSH1 0x20 DUP1 DUP6 ADD SWAP2 DUP3 MSTORE PUSH1 0x4 DUP6 DUP8 ADD SWAP1 DUP2 MSTORE PUSH0 SWAP4 DUP5 MSTORE PUSH1 0x10 SWAP1 SWAP2 MSTORE SWAP5 DUP3 KECCAK256 SWAP4 MLOAD DUP5 SSTORE MLOAD PUSH1 0x1 DUP5 ADD SSTORE SWAP3 MLOAD PUSH1 0x2 SWAP1 SWAP3 ADD SWAP2 SWAP1 SWAP2 SSTORE DUP1 SLOAD SWAP2 PUSH2 0x85A DUP4 PUSH2 0x12A8 JUMP JUMPDEST SWAP1 SWAP2 SSTORE POP POP PUSH1 0x40 DUP1 MLOAD PUSH1 0x60 DUP2 ADD DUP3 MSTORE PUSH1 0x8 DUP1 SLOAD DUP1 DUP4 MSTORE PUSH1 0x19 PUSH1 0x20 DUP1 DUP6 ADD SWAP2 DUP3 MSTORE PUSH1 0x4 DUP6 DUP8 ADD SWAP1 DUP2 MSTORE PUSH0 SWAP4 DUP5 MSTORE PUSH1 0x10 SWAP1 SWAP2 MSTORE SWAP5 DUP3 KECCAK256 SWAP4 MLOAD DUP5 SSTORE MLOAD PUSH1 0x1 DUP5 ADD SSTORE SWAP3 MLOAD PUSH1 0x2 SWAP1 SWAP3 ADD SWAP2 SWAP1 SWAP2 SSTORE DUP1 SLOAD SWAP2 PUSH2 0x8AF DUP4 PUSH2 0x12A8 JUMP JUMPDEST SWAP1 SWAP2 SSTORE POP POP PUSH1 0x40 DUP1 MLOAD PUSH1 0x60 DUP2 ADD DUP3 MSTORE PUSH1 0x8 SLOAD DUP1 DUP3 MSTORE PUSH1 0x19 PUSH1 0x20 DUP1 DUP5 ADD SWAP2 DUP3 MSTORE PUSH1 0x4 DUP5 DUP7 ADD SWAP1 DUP2 MSTORE PUSH0 SWAP4 DUP5 MSTORE PUSH1 0x10 SWAP1 SWAP2 MSTORE SWAP4 SWAP1 SWAP2 KECCAK256 SWAP2 MLOAD DUP3 SSTORE MLOAD PUSH1 0x1 DUP3 ADD SSTORE SWAP1 MLOAD PUSH1 0x2 SWAP1 SWAP2 ADD SSTORE JUMP JUMPDEST PUSH1 0x9 DUP1 SLOAD SWAP1 PUSH0 PUSH2 0x906 DUP4 PUSH2 0x12A8 JUMP JUMPDEST SWAP2 SWAP1 POP SSTORE POP PUSH1 0x40 MLOAD DUP1 PUSH1 0xE0 ADD PUSH1 0x40 MSTORE DUP1 PUSH1 0x9 SLOAD DUP2 MSTORE PUSH1 0x20 ADD PUSH1 0x40 MLOAD DUP1 PUSH1 0x40 ADD PUSH1 0x40 MSTORE DUP1 PUSH1 0x6 DUP2 MSTORE PUSH1 0x20 ADD PUSH6 0x189029BA30B9 PUSH1 0xD1 SHL DUP2 MSTORE POP DUP2 MSTORE PUSH1 0x20 ADD PUSH2 0x953 PUSH2 0x12C PUSH2 0xDD3 PUSH1 0x20 SHL PUSH1 0x20 SHR JUMP JUMPDEST DUP2 MSTORE PUSH1 0x14 PUSH1 0x20 DUP3 ADD MSTORE PUSH1 0x40 ADD PUSH2 0x96A PUSH2 0x3E8 PUSH2 0xDD3 JUMP JUMPDEST DUP2 MSTORE PUSH1 0x20 ADD PUSH2 0x97A PUSH2 0x3E8 PUSH2 0xDD3 JUMP JUMPDEST DUP2 MSTORE PUSH1 0x20 ADD PUSH2 0x988 PUSH0 PUSH2 0xDD3 JUMP JUMPDEST SWAP1 MSTORE PUSH1 0x9 SLOAD PUSH0 SWAP1 DUP2 MSTORE PUSH1 0x11 PUSH1 0x20 SWAP1 DUP2 MSTORE PUSH1 0x40 SWAP1 SWAP2 KECCAK256 DUP3 MLOAD DUP2 SSTORE SWAP1 DUP3 ADD MLOAD PUSH1 0x1 DUP3 ADD SWAP1 PUSH2 0x9B4 SWAP1 DUP3 PUSH2 0x1358 JUMP JUMPDEST POP PUSH1 0x40 DUP3 ADD MLOAD PUSH1 0x2 DUP3 ADD SSTORE PUSH1 0x60 DUP3 ADD MLOAD PUSH1 0x3 DUP3 ADD SSTORE PUSH1 0x80 DUP3 ADD MLOAD PUSH1 0x4 DUP3 ADD SSTORE PUSH1 0xA0 DUP3 ADD MLOAD PUSH1 0x5 DUP3 ADD SSTORE PUSH1 0xC0 SWAP1 SWAP2 ADD MLOAD PUSH1 0x6 SWAP1 SWAP2 ADD SSTORE PUSH1 0x9 DUP1 SLOAD SWAP1 PUSH0 PUSH2 0x9F8 DUP4 PUSH2 0x12A8 JUMP JUMPDEST SWAP2 SWAP1 POP SSTORE POP PUSH1 0x40 MLOAD DUP1 PUSH1 0xE0 ADD PUSH1 0x40 MSTORE DUP1 PUSH1 0x9 SLOAD DUP2 MSTORE PUSH1 0x20 ADD PUSH1 0x40 MLOAD DUP1 PUSH1 0x40 ADD PUSH1 0x40 MSTORE DUP1 PUSH1 0x6 DUP2 MSTORE PUSH1 0x20 ADD PUSH6 0x191029BA30B9 PUSH1 0xD1 SHL DUP2 MSTORE POP DUP2 MSTORE PUSH1 0x20 ADD PUSH2 0xA45 PUSH2 0x1F4 PUSH2 0xDD3 PUSH1 0x20 SHL PUSH1 0x20 SHR JUMP JUMPDEST DUP2 MSTORE PUSH1 0x32 PUSH1 0x20 DUP3 ADD MSTORE PUSH1 0x40 ADD PUSH2 0xA5C PUSH2 0x1388 PUSH2 0xDD3 JUMP JUMPDEST DUP2 MSTORE PUSH1 0x20 ADD PUSH2 0xA6C PUSH2 0x1388 PUSH2 0xDD3 JUMP JUMPDEST DUP2 MSTORE PUSH1 0x20 ADD PUSH2 0xA7A PUSH0 PUSH2 0xDD3 JUMP JUMPDEST SWAP1 MSTORE PUSH1 0x9 SLOAD PUSH0 SWAP1 DUP2 MSTORE PUSH1 0x11 PUSH1 0x20 SWAP1 DUP2 MSTORE PUSH1 0x40 SWAP1 SWAP2 KECCAK256 DUP3 MLOAD DUP2 SSTORE SWAP1 DUP3 ADD MLOAD PUSH1 0x1 DUP3 ADD SWAP1 PUSH2 0xAA6 SWAP1 DUP3 PUSH2 0x1358 JUMP JUMPDEST POP PUSH1 0x40 DUP3 ADD MLOAD PUSH1 0x2 DUP3 ADD SSTORE PUSH1 0x60 DUP3 ADD MLOAD PUSH1 0x3 DUP3 ADD SSTORE PUSH1 0x80 DUP3 ADD MLOAD PUSH1 0x4 DUP3 ADD SSTORE PUSH1 0xA0 DUP3 ADD MLOAD PUSH1 0x5 DUP3 ADD SSTORE PUSH1 0xC0 SWAP1 SWAP2 ADD MLOAD PUSH1 0x6 SWAP1 SWAP2 ADD SSTORE PUSH1 0x9 DUP1 SLOAD SWAP1 PUSH0 PUSH2 0xAEA DUP4 PUSH2 0x12A8 JUMP JUMPDEST SWAP2 SWAP1 POP SSTORE POP PUSH1 0x40 MLOAD DUP1 PUSH1 0xE0 ADD PUSH1 0x40 MSTORE DUP1 PUSH1 0x9 SLOAD DUP2 MSTORE PUSH1 0x20 ADD PUSH1 0x40 MLOAD DUP1 PUSH1 0x40 ADD PUSH1 0x40 MSTORE DUP1 PUSH1 0x6 DUP2 MSTORE PUSH1 0x20 ADD PUSH6 0x199029BA30B9 PUSH1 0xD1 SHL DUP2 MSTORE POP DUP2 MSTORE PUSH1 0x20 ADD PUSH2 0xB37 PUSH2 0x3E8 PUSH2 0xDD3 PUSH1 0x20 SHL PUSH1 0x20 SHR JUMP JUMPDEST DUP2 MSTORE PUSH1 0x64 PUSH1 0x20 DUP3 ADD MSTORE PUSH1 0x40 ADD PUSH2 0xB4E PUSH2 0x2710 PUSH2 0xDD3 JUMP JUMPDEST DUP2 MSTORE PUSH1 0x20 ADD PUSH2 0xB5E PUSH2 0x2710 PUSH2 0xDD3 JUMP JUMPDEST DUP2 MSTORE PUSH1 0x20 ADD PUSH2 0xB6C PUSH0 PUSH2 0xDD3 JUMP JUMPDEST SWAP1 MSTORE PUSH1 0x9 SLOAD PUSH0 SWAP1 DUP2 MSTORE PUSH1 0x11 PUSH1 0x20 SWAP1 DUP2 MSTORE PUSH1 0x40 SWAP1 SWAP2 KECCAK256 DUP3 MLOAD DUP2 SSTORE SWAP1 DUP3 ADD MLOAD PUSH1 0x1 DUP3 ADD SWAP1 PUSH2 0xB98 SWAP1 DUP3 PUSH2 0x1358 JUMP JUMPDEST POP PUSH1 0x40 DUP3 ADD MLOAD PUSH1 0x2 DUP3 ADD SSTORE PUSH1 0x60 DUP3 ADD MLOAD PUSH1 0x3 DUP3 ADD SSTORE PUSH1 0x80 DUP3 ADD MLOAD PUSH1 0x4 DUP3 ADD SSTORE PUSH1 0xA0 DUP3 ADD MLOAD PUSH1 0x5 DUP3 ADD SSTORE PUSH1 0xC0 SWAP1 SWAP2 ADD MLOAD PUSH1 0x6 SWAP1 SWAP2 ADD SSTORE PUSH1 0x9 DUP1 SLOAD SWAP1 PUSH0 PUSH2 0xBDC DUP4 PUSH2 0x12A8 JUMP JUMPDEST SWAP2 SWAP1 POP SSTORE POP PUSH1 0x40 MLOAD DUP1 PUSH1 0xE0 ADD PUSH1 0x40 MSTORE DUP1 PUSH1 0x9 SLOAD DUP2 MSTORE PUSH1 0x20 ADD PUSH1 0x40 MLOAD DUP1 PUSH1 0x40 ADD PUSH1 0x40 MSTORE DUP1 PUSH1 0x6 DUP2 MSTORE PUSH1 0x20 ADD PUSH6 0x1A1029BA30B9 PUSH1 0xD1 SHL DUP2 MSTORE POP DUP2 MSTORE PUSH1 0x20 ADD PUSH2 0xC29 PUSH2 0x7D0 PUSH2 0xDD3 PUSH1 0x20 SHL PUSH1 0x20 SHR JUMP JUMPDEST DUP2 MSTORE PUSH1 0xC8 PUSH1 0x20 DUP3 ADD MSTORE PUSH1 0x40 ADD PUSH2 0xC40 PUSH2 0x61A8 PUSH2 0xDD3 JUMP JUMPDEST DUP2 MSTORE PUSH1 0x20 ADD PUSH2 0xC50 PUSH2 0x61A8 PUSH2 0xDD3 JUMP JUMPDEST DUP2 MSTORE PUSH1 0x20 ADD PUSH2 0xC60 PUSH2 0x9C4 PUSH2 0xDD3 JUMP JUMPDEST SWAP1 MSTORE PUSH1 0x9 SLOAD PUSH0 SWAP1 DUP2 MSTORE PUSH1 0x11 PUSH1 0x20 SWAP1 DUP2 MSTORE PUSH1 0x40 SWAP1 SWAP2 KECCAK256 DUP3 MLOAD DUP2 SSTORE SWAP1 DUP3 ADD MLOAD PUSH1 0x1 DUP3 ADD SWAP1 PUSH2 0xC8C SWAP1 DUP3 PUSH2 0x1358 JUMP JUMPDEST POP PUSH1 0x40 DUP3 ADD MLOAD PUSH1 0x2 DUP3 ADD SSTORE PUSH1 0x60 DUP3 ADD MLOAD PUSH1 0x3 DUP3 ADD SSTORE PUSH1 0x80 DUP3 ADD MLOAD PUSH1 0x4 DUP3 ADD SSTORE PUSH1 0xA0 DUP3 ADD MLOAD PUSH1 0x5 DUP3 ADD SSTORE PUSH1 0xC0 SWAP1 SWAP2 ADD MLOAD PUSH1 0x6 SWAP1 SWAP2 ADD SSTORE PUSH1 0x9 DUP1 SLOAD SWAP1 PUSH0 PUSH2 0xCD0 DUP4 PUSH2 0x12A8 JUMP JUMPDEST SWAP2 SWAP1 POP SSTORE POP PUSH1 0x40 MLOAD DUP1 PUSH1 0xE0 ADD PUSH1 0x40 MSTORE DUP1 PUSH1 0x9 SLOAD DUP2 MSTORE PUSH1 0x20 ADD PUSH1 0x40 MLOAD DUP1 PUSH1 0x40 ADD PUSH1 0x40 MSTORE DUP1 PUSH1 0x6 DUP2 MSTORE PUSH1 0x20 ADD PUSH6 0x1A9029BA30B9 PUSH1 0xD1 SHL DUP2 MSTORE POP DUP2 MSTORE PUSH1 0x20 ADD PUSH2 0xD1D PUSH2 0xBB8 PUSH2 0xDD3 PUSH1 0x20 SHL PUSH1 0x20 SHR JUMP JUMPDEST DUP2 MSTORE PUSH2 0x1F4 PUSH1 0x20 DUP3 ADD MSTORE PUSH1 0x40 ADD PUSH2 0xD36 PUSH3 0x124F8 PUSH2 0xDD3 JUMP JUMPDEST DUP2 MSTORE PUSH1 0x20 ADD PUSH2 0xD47 PUSH3 0x124F8 PUSH2 0xDD3 JUMP JUMPDEST DUP2 MSTORE PUSH1 0x20 ADD PUSH2 0xD57 PUSH2 0x1388 PUSH2 0xDD3 JUMP JUMPDEST SWAP1 MSTORE PUSH1 0x9 SLOAD PUSH0 SWAP1 DUP2 MSTORE PUSH1 0x11 PUSH1 0x20 SWAP1 DUP2 MSTORE PUSH1 0x40 SWAP1 SWAP2 KECCAK256 DUP3 MLOAD DUP2 SSTORE SWAP1 DUP3 ADD MLOAD PUSH1 0x1 DUP3 ADD SWAP1 PUSH2 0xD83 SWAP1 DUP3 PUSH2 0x1358 JUMP JUMPDEST POP PUSH1 0x40 DUP3 ADD MLOAD PUSH1 0x2 DUP3 ADD SSTORE PUSH1 0x60 DUP3 ADD MLOAD PUSH1 0x3 DUP3 ADD SSTORE PUSH1 0x80 DUP3 ADD MLOAD PUSH1 0x4 DUP3 ADD SSTORE PUSH1 0xA0 DUP3 ADD MLOAD PUSH1 0x5 DUP3 ADD SSTORE PUSH1 0xC0 SWAP1 SWAP2 ADD MLOAD PUSH1 0x6 SWAP1 SWAP2 ADD SSTORE JUMP JUMPDEST PUSH1 0x3 SLOAD PUSH1 0x1 PUSH1 0x1 PUSH1 0xA0 SHL SUB AND PUSH2 0xDD0 DUP2 PUSH0 PUSH2 0xDF0 JUMP JUMPDEST POP JUMP JUMPDEST PUSH0 PUSH2 0xDE0 PUSH1 0x12 PUSH1 0xA PUSH2 0x14F5 JUMP JUMPDEST PUSH2 0xDEA SWAP1 DUP4 PUSH2 0x1507 JUMP JUMPDEST SWAP3 SWAP2 POP POP JUMP JUMPDEST PUSH0 DUP1 SLOAD SWAP1 DUP1 PUSH2 0xDFE DUP4 PUSH2 0x12A8 JUMP JUMPDEST SWAP2 SWAP1 POP SSTORE POP PUSH0 PUSH1 0x40 MLOAD DUP1 PUSH2 0x1A0 ADD PUSH1 0x40 MSTORE DUP1 PUSH0 SLOAD DUP2 MSTORE PUSH1 0x20 ADD DUP5 PUSH1 0x1 PUSH1 0x1 PUSH1 0xA0 SHL SUB AND DUP2 MSTORE PUSH1 0x20 ADD DUP4 PUSH1 0x1 PUSH1 0x1 PUSH1 0xA0 SHL SUB AND DUP2 MSTORE PUSH1 0x20 ADD TIMESTAMP DUP2 MSTORE PUSH1 0x20 ADD PUSH0 DUP2 MSTORE PUSH1 0x20 ADD PUSH0 DUP2 MSTORE PUSH1 0x20 ADD PUSH0 ISZERO ISZERO DUP2 MSTORE PUSH1 0x20 ADD PUSH0 DUP2 MSTORE PUSH1 0x20 ADD PUSH0 DUP2 MSTORE PUSH1 0x20 ADD PUSH0 DUP2 MSTORE PUSH1 0x20 ADD PUSH0 DUP2 MSTORE PUSH1 0x20 ADD PUSH0 ISZERO ISZERO DUP2 MSTORE PUSH1 0x20 ADD PUSH0 ISZERO ISZERO DUP2 MSTORE POP SWAP1 POP PUSH0 PUSH1 0x40 MLOAD DUP1 PUSH1 0xC0 ADD PUSH1 0x40 MSTORE DUP1 PUSH0 DUP2 MSTORE PUSH1 0x20 ADD PUSH0 PUSH1 0x1 PUSH1 0x1 PUSH1 0x40 SHL SUB DUP2 GT ISZERO PUSH2 0xEA1 JUMPI PUSH2 0xEA1 PUSH2 0x12C0 JUMP JUMPDEST PUSH1 0x40 MLOAD SWAP1 DUP1 DUP3 MSTORE DUP1 PUSH1 0x20 MUL PUSH1 0x20 ADD DUP3 ADD PUSH1 0x40 MSTORE DUP1 ISZERO PUSH2 0xECA JUMPI DUP2 PUSH1 0x20 ADD PUSH1 0x20 DUP3 MUL DUP1 CALLDATASIZE DUP4 CALLDATACOPY ADD SWAP1 POP JUMPDEST POP DUP2 MSTORE PUSH1 0x20 ADD PUSH0 DUP2 MSTORE PUSH1 0x20 ADD PUSH0 DUP2 MSTORE PUSH1 0x20 ADD PUSH0 DUP2 MSTORE PUSH1 0x20 ADD PUSH0 PUSH1 0x1 PUSH1 0x1 PUSH1 0x40 SHL SUB DUP2 GT ISZERO PUSH2 0xEFA JUMPI PUSH2 0xEFA PUSH2 0x12C0 JUMP JUMPDEST PUSH1 0x40 MLOAD SWAP1 DUP1 DUP3 MSTORE DUP1 PUSH1 0x20 MUL PUSH1 0x20 ADD DUP3 ADD PUSH1 0x40 MSTORE DUP1 ISZERO PUSH2 0xF23 JUMPI DUP2 PUSH1 0x20 ADD PUSH1 0x20 DUP3 MUL DUP1 CALLDATASIZE DUP4 CALLDATACOPY ADD SWAP1 POP JUMPDEST POP DUP2 MSTORE POP SWAP1 POP PUSH0 PUSH1 0x40 MLOAD DUP1 PUSH1 0xE0 ADD PUSH1 0x40 MSTORE DUP1 PUSH0 DUP2 MSTORE PUSH1 0x20 ADD PUSH0 DUP2 MSTORE PUSH1 0x20 ADD PUSH0 DUP2 MSTORE PUSH1 0x20 ADD PUSH1 0x8 SLOAD PUSH1 0x1 PUSH2 0xF56 SWAP2 SWAP1 PUSH2 0x151E JUMP JUMPDEST PUSH1 0x1 PUSH1 0x1 PUSH1 0x40 SHL SUB DUP2 GT ISZERO PUSH2 0xF6D JUMPI PUSH2 0xF6D PUSH2 0x12C0 JUMP JUMPDEST PUSH1 0x40 MLOAD SWAP1 DUP1 DUP3 MSTORE DUP1 PUSH1 0x20 MUL PUSH1 0x20 ADD DUP3 ADD PUSH1 0x40 MSTORE DUP1 ISZERO PUSH2 0xF96 JUMPI DUP2 PUSH1 0x20 ADD PUSH1 0x20 DUP3 MUL DUP1 CALLDATASIZE DUP4 CALLDATACOPY ADD SWAP1 POP JUMPDEST POP DUP2 MSTORE PUSH0 PUSH1 0x20 DUP1 DUP4 ADD DUP3 SWAP1 MSTORE PUSH1 0x40 DUP1 DUP5 ADD DUP4 SWAP1 MSTORE PUSH1 0x60 SWAP4 DUP5 ADD DUP4 SWAP1 MSTORE DUP1 MLOAD PUSH1 0x80 DUP1 DUP3 ADD DUP4 MSTORE DUP5 DUP3 MSTORE DUP2 DUP5 ADD DUP6 SWAP1 MSTORE DUP2 DUP4 ADD DUP6 SWAP1 MSTORE DUP2 DUP7 ADD DUP6 SWAP1 MSTORE PUSH1 0x1 PUSH1 0x1 PUSH1 0xA0 SHL SUB DUP13 DUP2 AND DUP7 MSTORE PUSH1 0x12 DUP6 MSTORE DUP4 DUP7 KECCAK256 DUP12 MLOAD DUP2 SSTORE DUP12 DUP7 ADD MLOAD PUSH1 0x1 DUP1 DUP4 ADD DUP1 SLOAD PUSH1 0x1 PUSH1 0x1 PUSH1 0xA0 SHL SUB NOT SWAP1 DUP2 AND SWAP4 DUP7 AND SWAP4 SWAP1 SWAP4 OR SWAP1 SSTORE DUP14 DUP8 ADD MLOAD PUSH1 0x2 DUP5 ADD DUP1 SLOAD SWAP1 SWAP4 AND SWAP5 AND SWAP4 SWAP1 SWAP4 OR SWAP1 SSTORE SWAP7 DUP12 ADD MLOAD PUSH1 0x3 DUP9 ADD SSTORE SWAP1 DUP11 ADD MLOAD PUSH1 0x4 DUP8 ADD SSTORE PUSH1 0xA0 DUP11 ADD MLOAD PUSH1 0x5 DUP8 ADD SSTORE PUSH1 0xC0 DUP11 ADD MLOAD PUSH1 0x6 DUP8 ADD DUP1 SLOAD PUSH1 0xFF NOT AND SWAP2 ISZERO ISZERO SWAP2 SWAP1 SWAP2 OR SWAP1 SSTORE PUSH1 0xE0 DUP11 ADD MLOAD PUSH1 0x7 DUP8 ADD SSTORE PUSH2 0x100 DUP1 DUP12 ADD MLOAD PUSH1 0x8 DUP9 ADD SSTORE PUSH2 0x120 DUP12 ADD MLOAD PUSH1 0x9 DUP9 ADD SSTORE PUSH2 0x140 DUP12 ADD MLOAD PUSH1 0xA DUP9 ADD SSTORE PUSH2 0x160 DUP12 ADD MLOAD PUSH1 0xB SWAP1 SWAP8 ADD DUP1 SLOAD PUSH2 0x180 DUP14 ADD MLOAD PUSH2 0xFFFF NOT SWAP1 SWAP2 AND SWAP9 ISZERO ISZERO PUSH2 0xFF00 NOT AND SWAP9 SWAP1 SWAP9 OR SWAP8 ISZERO ISZERO SWAP1 SWAP2 MUL SWAP7 SWAP1 SWAP7 OR SWAP1 SWAP6 SSTORE PUSH1 0x14 DUP4 MSTORE SWAP3 KECCAK256 DUP7 MLOAD DUP2 SSTORE DUP7 DUP3 ADD MLOAD DUP1 MLOAD SWAP6 SWAP7 POP SWAP3 SWAP5 DUP8 SWAP5 SWAP2 SWAP4 PUSH2 0x10D8 SWAP4 SWAP3 DUP6 ADD SWAP3 ADD SWAP1 PUSH2 0x11E4 JUMP JUMPDEST POP PUSH1 0x40 DUP3 ADD MLOAD PUSH1 0x2 DUP3 ADD SSTORE PUSH1 0x60 DUP3 ADD MLOAD PUSH1 0x3 DUP3 ADD SSTORE PUSH1 0x80 DUP3 ADD MLOAD PUSH1 0x4 DUP3 ADD SSTORE PUSH1 0xA0 DUP3 ADD MLOAD DUP1 MLOAD PUSH2 0x1112 SWAP2 PUSH1 0x5 DUP5 ADD SWAP2 PUSH1 0x20 SWAP1 SWAP2 ADD SWAP1 PUSH2 0x11E4 JUMP JUMPDEST POP POP POP PUSH1 0x1 PUSH1 0x1 PUSH1 0xA0 SHL SUB DUP7 AND PUSH0 SWAP1 DUP2 MSTORE PUSH1 0x19 PUSH1 0x20 SWAP1 DUP2 MSTORE PUSH1 0x40 SWAP2 DUP3 SWAP1 KECCAK256 DUP5 MLOAD DUP2 SSTORE DUP2 DUP6 ADD MLOAD PUSH1 0x1 DUP3 ADD SSTORE SWAP2 DUP5 ADD MLOAD PUSH1 0x2 DUP4 ADD SSTORE PUSH1 0x60 DUP5 ADD MLOAD DUP1 MLOAD DUP6 SWAP4 SWAP3 PUSH2 0x1161 SWAP3 PUSH1 0x3 DUP6 ADD SWAP3 SWAP2 ADD SWAP1 PUSH2 0x1247 JUMP JUMPDEST POP PUSH1 0x80 DUP3 ADD MLOAD PUSH1 0x4 DUP3 ADD SSTORE PUSH1 0xA0 DUP3 ADD MLOAD PUSH1 0x5 DUP3 ADD SSTORE PUSH1 0xC0 SWAP1 SWAP2 ADD MLOAD PUSH1 0x6 SWAP1 SWAP2 ADD SSTORE PUSH0 DUP1 SLOAD DUP2 MSTORE PUSH1 0x13 PUSH1 0x20 SWAP1 DUP2 MSTORE PUSH1 0x40 DUP1 DUP4 KECCAK256 DUP1 SLOAD PUSH1 0x1 PUSH1 0x1 PUSH1 0xA0 SHL SUB SWAP1 SWAP11 AND PUSH1 0x1 PUSH1 0x1 PUSH1 0xA0 SHL SUB NOT SWAP1 SWAP11 AND DUP11 OR SWAP1 SSTORE SWAP8 DUP3 MSTORE PUSH1 0x1B DUP2 MSTORE SWAP1 DUP8 SWAP1 KECCAK256 DUP3 MLOAD DUP2 SSTORE SWAP1 DUP3 ADD MLOAD PUSH1 0x1 DUP3 ADD SSTORE SWAP6 DUP2 ADD MLOAD PUSH1 0x2 DUP8 ADD SSTORE PUSH1 0x60 ADD MLOAD PUSH1 0x3 SWAP1 SWAP6 ADD SWAP5 SWAP1 SWAP5 SSTORE POP POP POP POP JUMP JUMPDEST DUP3 DUP1 SLOAD DUP3 DUP3 SSTORE SWAP1 PUSH0 MSTORE PUSH1 0x20 PUSH0 KECCAK256 SWAP1 DUP2 ADD SWAP3 DUP3 ISZERO PUSH2 0x1237 JUMPI SWAP2 PUSH1 0x20 MUL DUP3 ADD JUMPDEST DUP3 DUP2 GT ISZERO PUSH2 0x1237 JUMPI DUP3 MLOAD DUP3 SLOAD PUSH1 0x1 PUSH1 0x1 PUSH1 0xA0 SHL SUB NOT AND PUSH1 0x1 PUSH1 0x1 PUSH1 0xA0 SHL SUB SWAP1 SWAP2 AND OR DUP3 SSTORE PUSH1 0x20 SWAP1 SWAP3 ADD SWAP2 PUSH1 0x1 SWAP1 SWAP2 ADD SWAP1 PUSH2 0x1202 JUMP JUMPDEST POP PUSH2 0x1243 SWAP3 SWAP2 POP PUSH2 0x1280 JUMP JUMPDEST POP SWAP1 JUMP JUMPDEST DUP3 DUP1 SLOAD DUP3 DUP3 SSTORE SWAP1 PUSH0 MSTORE PUSH1 0x20 PUSH0 KECCAK256 SWAP1 DUP2 ADD SWAP3 DUP3 ISZERO PUSH2 0x1237 JUMPI SWAP2 PUSH1 0x20 MUL DUP3 ADD JUMPDEST DUP3 DUP2 GT ISZERO PUSH2 0x1237 JUMPI DUP3 MLOAD DUP3 SSTORE SWAP2 PUSH1 0x20 ADD SWAP2 SWAP1 PUSH1 0x1 ADD SWAP1 PUSH2 0x1265 JUMP JUMPDEST JUMPDEST DUP1 DUP3 GT ISZERO PUSH2 0x1243 JUMPI PUSH0 DUP2 SSTORE PUSH1 0x1 ADD PUSH2 0x1281 JUMP JUMPDEST PUSH4 0x4E487B71 PUSH1 0xE0 SHL PUSH0 MSTORE PUSH1 0x11 PUSH1 0x4 MSTORE PUSH1 0x24 PUSH0 REVERT JUMPDEST PUSH0 PUSH1 0x1 DUP3 ADD PUSH2 0x12B9 JUMPI PUSH2 0x12B9 PUSH2 0x1294 JUMP JUMPDEST POP PUSH1 0x1 ADD SWAP1 JUMP JUMPDEST PUSH4 0x4E487B71 PUSH1 0xE0 SHL PUSH0 MSTORE PUSH1 0x41 PUSH1 0x4 MSTORE PUSH1 0x24 PUSH0 REVERT JUMPDEST PUSH1 0x1 DUP2 DUP2 SHR SWAP1 DUP3 AND DUP1 PUSH2 0x12E8 JUMPI PUSH1 0x7F DUP3 AND SWAP2 POP JUMPDEST PUSH1 0x20 DUP3 LT DUP2 SUB PUSH2 0x1306 JUMPI PUSH4 0x4E487B71 PUSH1 0xE0 SHL PUSH0 MSTORE PUSH1 0x22 PUSH1 0x4 MSTORE PUSH1 0x24 PUSH0 REVERT JUMPDEST POP SWAP2 SWAP1 POP JUMP JUMPDEST PUSH1 0x1F DUP3 GT ISZERO PUSH2 0x1353 JUMPI DUP1 PUSH0 MSTORE PUSH1 0x20 PUSH0 KECCAK256 PUSH1 0x1F DUP5 ADD PUSH1 0x5 SHR DUP2 ADD PUSH1 0x20 DUP6 LT ISZERO PUSH2 0x1331 JUMPI POP DUP1 JUMPDEST PUSH1 0x1F DUP5 ADD PUSH1 0x5 SHR DUP3 ADD SWAP2 POP JUMPDEST DUP2 DUP2 LT ISZERO PUSH2 0x1350 JUMPI PUSH0 DUP2 SSTORE PUSH1 0x1 ADD PUSH2 0x133D JUMP JUMPDEST POP POP JUMPDEST POP POP POP JUMP JUMPDEST DUP2 MLOAD PUSH1 0x1 PUSH1 0x1 PUSH1 0x40 SHL SUB DUP2 GT ISZERO PUSH2 0x1371 JUMPI PUSH2 0x1371 PUSH2 0x12C0 JUMP JUMPDEST PUSH2 0x1385 DUP2 PUSH2 0x137F DUP5 SLOAD PUSH2 0x12D4 JUMP JUMPDEST DUP5 PUSH2 0x130C JUMP JUMPDEST PUSH1 0x20 PUSH1 0x1F DUP3 GT PUSH1 0x1 DUP2 EQ PUSH2 0x13B7 JUMPI PUSH0 DUP4 ISZERO PUSH2 0x13A0 JUMPI POP DUP5 DUP3 ADD MLOAD JUMPDEST PUSH0 NOT PUSH1 0x3 DUP6 SWAP1 SHL SHR NOT AND PUSH1 0x1 DUP5 SWAP1 SHL OR DUP5 SSTORE PUSH2 0x1350 JUMP JUMPDEST PUSH0 DUP5 DUP2 MSTORE PUSH1 0x20 DUP2 KECCAK256 PUSH1 0x1F NOT DUP6 AND SWAP2 JUMPDEST DUP3 DUP2 LT ISZERO PUSH2 0x13E6 JUMPI DUP8 DUP6 ADD MLOAD DUP3 SSTORE PUSH1 0x20 SWAP5 DUP6 ADD SWAP5 PUSH1 0x1 SWAP1 SWAP3 ADD SWAP2 ADD PUSH2 0x13C6 JUMP JUMPDEST POP DUP5 DUP3 LT ISZERO PUSH2 0x1403 JUMPI DUP7 DUP5 ADD MLOAD PUSH0 NOT PUSH1 0x3 DUP8 SWAP1 SHL PUSH1 0xF8 AND SHR NOT AND DUP2 SSTORE JUMPDEST POP POP POP POP PUSH1 0x1 SWAP1 DUP2 SHL ADD SWAP1 SSTORE POP JUMP JUMPDEST PUSH1 0x1 DUP2 JUMPDEST PUSH1 0x1 DUP5 GT ISZERO PUSH2 0x144D JUMPI DUP1 DUP6 DIV DUP2 GT ISZERO PUSH2 0x1431 JUMPI PUSH2 0x1431 PUSH2 0x1294 JUMP JUMPDEST PUSH1 0x1 DUP5 AND ISZERO PUSH2 0x143F JUMPI SWAP1 DUP2 MUL SWAP1 JUMPDEST PUSH1 0x1 SWAP4 SWAP1 SWAP4 SHR SWAP3 DUP1 MUL PUSH2 0x1416 JUMP JUMPDEST SWAP4 POP SWAP4 SWAP2 POP POP JUMP JUMPDEST PUSH0 DUP3 PUSH2 0x1463 JUMPI POP PUSH1 0x1 PUSH2 0xDEA JUMP JUMPDEST DUP2 PUSH2 0x146F JUMPI POP PUSH0 PUSH2 0xDEA JUMP JUMPDEST DUP2 PUSH1 0x1 DUP2 EQ PUSH2 0x1485 JUMPI PUSH1 0x2 DUP2 EQ PUSH2 0x148F JUMPI PUSH2 0x14AB JUMP JUMPDEST PUSH1 0x1 SWAP2 POP POP PUSH2 0xDEA JUMP JUMPDEST PUSH1 0xFF DUP5 GT ISZERO PUSH2 0x14A0 JUMPI PUSH2 0x14A0 PUSH2 0x1294 JUMP JUMPDEST POP POP PUSH1 0x1 DUP3 SHL PUSH2 0xDEA JUMP JUMPDEST POP PUSH1 0x20 DUP4 LT PUSH2 0x133 DUP4 LT AND PUSH1 0x4E DUP5 LT PUSH1 0xB DUP5 LT AND OR ISZERO PUSH2 0x14CE JUMPI POP DUP2 DUP2 EXP PUSH2 0xDEA JUMP JUMPDEST PUSH2 0x14DA PUSH0 NOT DUP5 DUP5 PUSH2 0x1412 JUMP JUMPDEST DUP1 PUSH0 NOT DIV DUP3 GT ISZERO PUSH2 0x14ED JUMPI PUSH2 0x14ED PUSH2 0x1294 JUMP JUMPDEST MUL SWAP4 SWAP3 POP POP POP JUMP JUMPDEST PUSH0 PUSH2 0x1500 DUP4 DUP4 PUSH2 0x1455 JUMP JUMPDEST SWAP4 SWAP3 POP POP POP JUMP JUMPDEST DUP1 DUP3 MUL DUP2 ISZERO DUP3 DUP3 DIV DUP5 EQ OR PUSH2 0xDEA JUMPI PUSH2 0xDEA PUSH2 0x1294 JUMP JUMPDEST DUP1 DUP3 ADD DUP1 DUP3 GT ISZERO PUSH2 0xDEA JUMPI PUSH2 0xDEA PUSH2 0x1294 JUMP JUMPDEST PUSH2 0x5D8D DUP1 PUSH2 0x153E PUSH0 CODECOPY PUSH0 RETURN INVALID PUSH1 0x80 PUSH1 0x40 MSTORE PUSH1 0x4 CALLDATASIZE LT PUSH2 0x26A JUMPI PUSH0 CALLDATALOAD PUSH1 0xE0 SHR DUP1 PUSH4 0x759369D2 GT PUSH2 0x14A JUMPI DUP1 PUSH4 0xB1878162 GT PUSH2 0xBE JUMPI DUP1 PUSH4 0xE315927B GT PUSH2 0x78 JUMPI DUP1 PUSH4 0xE315927B EQ PUSH2 0xA6B JUMPI DUP1 PUSH4 0xEDBDC914 EQ PUSH2 0xAE6 JUMPI DUP1 PUSH4 0xEECC1C95 EQ PUSH2 0xB18 JUMPI DUP1 PUSH4 0xEEDA149C EQ PUSH2 0xB47 JUMPI DUP1 PUSH4 0xFD0BB36C EQ PUSH2 0xB5A JUMPI DUP1 PUSH4 0xFF9B6364 EQ PUSH2 0xB79 JUMPI PUSH0 DUP1 REVERT JUMPDEST DUP1 PUSH4 0xB1878162 EQ PUSH2 0x983 JUMPI DUP1 PUSH4 0xB5D962B7 EQ PUSH2 0x9A2 JUMPI DUP1 PUSH4 0xB66DB385 EQ PUSH2 0x9C1 JUMPI DUP1 PUSH4 0xBA32F6F4 EQ PUSH2 0x9E0 JUMPI DUP1 PUSH4 0xC5F00964 EQ PUSH2 0x9FF JUMPI DUP1 PUSH4 0xDACBB37E EQ PUSH2 0xA3F JUMPI PUSH0 DUP1 REVERT JUMPDEST DUP1 PUSH4 0xA18A609A GT PUSH2 0x10F JUMPI DUP1 PUSH4 0xA18A609A EQ PUSH2 0x8B5 JUMPI DUP1 PUSH4 0xA3AF609B EQ PUSH2 0x8E9 JUMPI DUP1 PUSH4 0xA4B6F5E1 EQ PUSH2 0x8FC JUMPI DUP1 PUSH4 0xA5F94521 EQ PUSH2 0x911 JUMPI DUP1 PUSH4 0xA9A4C9BF EQ PUSH2 0x930 JUMPI DUP1 PUSH4 0xAC3A4800 EQ PUSH2 0x94F JUMPI PUSH0 DUP1 REVERT JUMPDEST DUP1 PUSH4 0x759369D2 EQ PUSH2 0x7EB JUMPI DUP1 PUSH4 0x7E2594B8 EQ PUSH2 0x817 JUMPI DUP1 PUSH4 0x88CB410D EQ PUSH2 0x84B JUMPI DUP1 PUSH4 0x8B2C295E EQ PUSH2 0x86A JUMPI DUP1 PUSH4 0x94C1E22B EQ PUSH2 0x896 JUMPI PUSH0 DUP1 REVERT JUMPDEST DUP1 PUSH4 0x4788312F GT PUSH2 0x1E1 JUMPI DUP1 PUSH4 0x5BE94E83 GT PUSH2 0x1A6 JUMPI DUP1 PUSH4 0x5BE94E83 EQ PUSH2 0x5F6 JUMPI DUP1 PUSH4 0x5CF75517 EQ PUSH2 0x622 JUMPI DUP1 PUSH4 0x641FBA96 EQ PUSH2 0x727 JUMPI DUP1 PUSH4 0x68EC2FBE EQ PUSH2 0x73B JUMPI DUP1 PUSH4 0x6B1A7086 EQ PUSH2 0x75A JUMPI DUP1 PUSH4 0x705116A0 EQ PUSH2 0x7B1 JUMPI PUSH0 DUP1 REVERT JUMPDEST DUP1 PUSH4 0x4788312F EQ PUSH2 0x549 JUMPI DUP1 PUSH4 0x4A40F2FE EQ PUSH2 0x55E JUMPI DUP1 PUSH4 0x54A03E38 EQ PUSH2 0x58A JUMPI DUP1 PUSH4 0x5A015583 EQ PUSH2 0x5B6 JUMPI DUP1 PUSH4 0x5B6B431D EQ PUSH2 0x5D7 JUMPI PUSH0 DUP1 REVERT JUMPDEST DUP1 PUSH4 0x2DEDF15A GT PUSH2 0x232 JUMPI DUP1 PUSH4 0x2DEDF15A EQ PUSH2 0x3D6 JUMPI DUP1 PUSH4 0x2E244FC7 EQ PUSH2 0x436 JUMPI DUP1 PUSH4 0x2E628E2E EQ PUSH2 0x462 JUMPI DUP1 PUSH4 0x365152FA EQ PUSH2 0x48E JUMPI DUP1 PUSH4 0x3936E8B9 EQ PUSH2 0x509 JUMPI DUP1 PUSH4 0x3DAA551C EQ PUSH2 0x528 JUMPI PUSH0 DUP1 REVERT JUMPDEST DUP1 PUSH4 0x7D94067 EQ PUSH2 0x26E JUMPI DUP1 PUSH4 0x1362E8E6 EQ PUSH2 0x2C5 JUMPI DUP1 PUSH4 0x1BFE37CE EQ PUSH2 0x309 JUMPI DUP1 PUSH4 0x1CFA6E9B EQ PUSH2 0x33F JUMPI DUP1 PUSH4 0x2A530A36 EQ PUSH2 0x376 JUMPI JUMPDEST PUSH0 DUP1 REVERT JUMPDEST CALLVALUE DUP1 ISZERO PUSH2 0x279 JUMPI PUSH0 DUP1 REVERT JUMPDEST POP PUSH2 0x2AB PUSH2 0x288 CALLDATASIZE PUSH1 0x4 PUSH2 0x53D0 JUMP JUMPDEST PUSH1 0x16 PUSH1 0x20 SWAP1 DUP2 MSTORE PUSH0 SWAP3 DUP4 MSTORE PUSH1 0x40 DUP1 DUP5 KECCAK256 SWAP1 SWAP2 MSTORE SWAP1 DUP3 MSTORE SWAP1 KECCAK256 DUP1 SLOAD PUSH1 0x1 SWAP1 SWAP2 ADD SLOAD DUP3 JUMP JUMPDEST PUSH1 0x40 DUP1 MLOAD SWAP3 DUP4 MSTORE PUSH1 0x20 DUP4 ADD SWAP2 SWAP1 SWAP2 MSTORE ADD JUMPDEST PUSH1 0x40 MLOAD DUP1 SWAP2 SUB SWAP1 RETURN JUMPDEST CALLVALUE DUP1 ISZERO PUSH2 0x2D0 JUMPI PUSH0 DUP1 REVERT JUMPDEST POP PUSH2 0x2FB PUSH2 0x2DF CALLDATASIZE PUSH1 0x4 PUSH2 0x53D0 JUMP JUMPDEST PUSH1 0x1A PUSH1 0x20 SWAP1 DUP2 MSTORE PUSH0 SWAP3 DUP4 MSTORE PUSH1 0x40 DUP1 DUP5 KECCAK256 SWAP1 SWAP2 MSTORE SWAP1 DUP3 MSTORE SWAP1 KECCAK256 SLOAD DUP2 JUMP JUMPDEST PUSH1 0x40 MLOAD SWAP1 DUP2 MSTORE PUSH1 0x20 ADD PUSH2 0x2BC JUMP JUMPDEST CALLVALUE DUP1 ISZERO PUSH2 0x314 JUMPI PUSH0 DUP1 REVERT JUMPDEST POP PUSH2 0x2FB PUSH2 0x323 CALLDATASIZE PUSH1 0x4 PUSH2 0x53D0 JUMP JUMPDEST PUSH1 0x17 PUSH1 0x20 SWAP1 DUP2 MSTORE PUSH0 SWAP3 DUP4 MSTORE PUSH1 0x40 DUP1 DUP5 KECCAK256 SWAP1 SWAP2 MSTORE SWAP1 DUP3 MSTORE SWAP1 KECCAK256 SLOAD DUP2 JUMP JUMPDEST CALLVALUE DUP1 ISZERO PUSH2 0x34A JUMPI PUSH0 DUP1 REVERT JUMPDEST POP PUSH1 0x3 SLOAD PUSH2 0x35E SWAP1 PUSH1 0x1 PUSH1 0x1 PUSH1 0xA0 SHL SUB AND DUP2 JUMP JUMPDEST PUSH1 0x40 MLOAD PUSH1 0x1 PUSH1 0x1 PUSH1 0xA0 SHL SUB SWAP1 SWAP2 AND DUP2 MSTORE PUSH1 0x20 ADD PUSH2 0x2BC JUMP JUMPDEST CALLVALUE DUP1 ISZERO PUSH2 0x381 JUMPI PUSH0 DUP1 REVERT JUMPDEST POP PUSH2 0x3B6 PUSH2 0x390 CALLDATASIZE PUSH1 0x4 PUSH2 0x53F8 JUMP JUMPDEST PUSH1 0x14 PUSH1 0x20 MSTORE PUSH0 SWAP1 DUP2 MSTORE PUSH1 0x40 SWAP1 KECCAK256 DUP1 SLOAD PUSH1 0x2 DUP3 ADD SLOAD PUSH1 0x3 DUP4 ADD SLOAD PUSH1 0x4 SWAP1 SWAP4 ADD SLOAD SWAP2 SWAP3 SWAP1 SWAP2 DUP5 JUMP JUMPDEST PUSH1 0x40 DUP1 MLOAD SWAP5 DUP6 MSTORE PUSH1 0x20 DUP6 ADD SWAP4 SWAP1 SWAP4 MSTORE SWAP2 DUP4 ADD MSTORE PUSH1 0x60 DUP3 ADD MSTORE PUSH1 0x80 ADD PUSH2 0x2BC JUMP JUMPDEST CALLVALUE DUP1 ISZERO PUSH2 0x3E1 JUMPI PUSH0 DUP1 REVERT JUMPDEST POP PUSH2 0x41B PUSH2 0x3F0 CALLDATASIZE PUSH1 0x4 PUSH2 0x53D0 JUMP JUMPDEST PUSH1 0x18 PUSH1 0x20 SWAP1 DUP2 MSTORE PUSH0 SWAP3 DUP4 MSTORE PUSH1 0x40 DUP1 DUP5 KECCAK256 SWAP1 SWAP2 MSTORE SWAP1 DUP3 MSTORE SWAP1 KECCAK256 DUP1 SLOAD PUSH1 0x1 DUP3 ADD SLOAD PUSH1 0x2 SWAP1 SWAP3 ADD SLOAD SWAP1 SWAP2 SWAP1 DUP4 JUMP JUMPDEST PUSH1 0x40 DUP1 MLOAD SWAP4 DUP5 MSTORE PUSH1 0x20 DUP5 ADD SWAP3 SWAP1 SWAP3 MSTORE SWAP1 DUP3 ADD MSTORE PUSH1 0x60 ADD PUSH2 0x2BC JUMP JUMPDEST CALLVALUE DUP1 ISZERO PUSH2 0x441 JUMPI PUSH0 DUP1 REVERT JUMPDEST POP PUSH2 0x455 PUSH2 0x450 CALLDATASIZE PUSH1 0x4 PUSH2 0x5418 JUMP JUMPDEST PUSH2 0xB8D JUMP JUMPDEST PUSH1 0x40 MLOAD PUSH2 0x2BC SWAP2 SWAP1 PUSH2 0x5448 JUMP JUMPDEST CALLVALUE DUP1 ISZERO PUSH2 0x46D JUMPI PUSH0 DUP1 REVERT JUMPDEST POP PUSH2 0x481 PUSH2 0x47C CALLDATASIZE PUSH1 0x4 PUSH2 0x5418 JUMP JUMPDEST PUSH2 0xCF8 JUMP JUMPDEST PUSH1 0x40 MLOAD PUSH2 0x2BC SWAP2 SWAP1 PUSH2 0x54A6 JUMP JUMPDEST CALLVALUE DUP1 ISZERO PUSH2 0x499 JUMPI PUSH0 DUP1 REVERT JUMPDEST POP PUSH2 0x4E1 PUSH2 0x4A8 CALLDATASIZE PUSH1 0x4 PUSH2 0x53D0 JUMP JUMPDEST PUSH1 0x15 PUSH1 0x20 SWAP1 DUP2 MSTORE PUSH0 SWAP3 DUP4 MSTORE PUSH1 0x40 DUP1 DUP5 KECCAK256 SWAP1 SWAP2 MSTORE SWAP1 DUP3 MSTORE SWAP1 KECCAK256 DUP1 SLOAD PUSH1 0x1 DUP3 ADD SLOAD PUSH1 0x2 DUP4 ADD SLOAD PUSH1 0x3 DUP5 ADD SLOAD PUSH1 0x4 SWAP1 SWAP5 ADD SLOAD SWAP3 SWAP4 SWAP2 SWAP3 SWAP1 SWAP2 SWAP1 DUP6 JUMP JUMPDEST PUSH1 0x40 DUP1 MLOAD SWAP6 DUP7 MSTORE PUSH1 0x20 DUP7 ADD SWAP5 SWAP1 SWAP5 MSTORE SWAP3 DUP5 ADD SWAP2 SWAP1 SWAP2 MSTORE PUSH1 0x60 DUP4 ADD MSTORE PUSH1 0x80 DUP3 ADD MSTORE PUSH1 0xA0 ADD PUSH2 0x2BC JUMP JUMPDEST CALLVALUE DUP1 ISZERO PUSH2 0x514 JUMPI PUSH0 DUP1 REVERT JUMPDEST POP PUSH1 0x6 SLOAD PUSH2 0x35E SWAP1 PUSH1 0x1 PUSH1 0x1 PUSH1 0xA0 SHL SUB AND DUP2 JUMP JUMPDEST CALLVALUE DUP1 ISZERO PUSH2 0x533 JUMPI PUSH0 DUP1 REVERT JUMPDEST POP PUSH2 0x53C PUSH2 0xE7B JUMP JUMPDEST PUSH1 0x40 MLOAD PUSH2 0x2BC SWAP2 SWAP1 PUSH2 0x553B JUMP JUMPDEST CALLVALUE DUP1 ISZERO PUSH2 0x554 JUMPI PUSH0 DUP1 REVERT JUMPDEST POP PUSH2 0x2FB PUSH1 0x2 SLOAD DUP2 JUMP JUMPDEST CALLVALUE DUP1 ISZERO PUSH2 0x569 JUMPI PUSH0 DUP1 REVERT JUMPDEST POP PUSH2 0x57D PUSH2 0x578 CALLDATASIZE PUSH1 0x4 PUSH2 0x53F8 JUMP JUMPDEST PUSH2 0x1074 JUMP JUMPDEST PUSH1 0x40 MLOAD PUSH2 0x2BC SWAP2 SWAP1 PUSH2 0x561E JUMP JUMPDEST CALLVALUE DUP1 ISZERO PUSH2 0x595 JUMPI PUSH0 DUP1 REVERT JUMPDEST POP PUSH2 0x5A9 PUSH2 0x5A4 CALLDATASIZE PUSH1 0x4 PUSH2 0x53F8 JUMP JUMPDEST PUSH2 0x11EA JUMP JUMPDEST PUSH1 0x40 MLOAD PUSH2 0x2BC SWAP2 SWAP1 PUSH2 0x569B JUMP JUMPDEST CALLVALUE DUP1 ISZERO PUSH2 0x5C1 JUMPI PUSH0 DUP1 REVERT JUMPDEST POP PUSH2 0x5D5 PUSH2 0x5D0 CALLDATASIZE PUSH1 0x4 PUSH2 0x57F5 JUMP JUMPDEST PUSH2 0x16F8 JUMP JUMPDEST STOP JUMPDEST CALLVALUE DUP1 ISZERO PUSH2 0x5E2 JUMPI PUSH0 DUP1 REVERT JUMPDEST POP PUSH2 0x5D5 PUSH2 0x5F1 CALLDATASIZE PUSH1 0x4 PUSH2 0x582F JUMP JUMPDEST PUSH2 0x195E JUMP JUMPDEST CALLVALUE DUP1 ISZERO PUSH2 0x601 JUMPI PUSH0 DUP1 REVERT JUMPDEST POP PUSH2 0x615 PUSH2 0x610 CALLDATASIZE PUSH1 0x4 PUSH2 0x53F8 JUMP JUMPDEST PUSH2 0x1D09 JUMP JUMPDEST PUSH1 0x40 MLOAD PUSH2 0x2BC SWAP2 SWAP1 PUSH2 0x5846 JUMP JUMPDEST CALLVALUE DUP1 ISZERO PUSH2 0x62D JUMPI PUSH0 DUP1 REVERT JUMPDEST POP PUSH2 0x6B5 PUSH2 0x63C CALLDATASIZE PUSH1 0x4 PUSH2 0x53F8 JUMP JUMPDEST PUSH1 0x12 PUSH1 0x20 MSTORE PUSH0 SWAP1 DUP2 MSTORE PUSH1 0x40 SWAP1 KECCAK256 DUP1 SLOAD PUSH1 0x1 DUP3 ADD SLOAD PUSH1 0x2 DUP4 ADD SLOAD PUSH1 0x3 DUP5 ADD SLOAD PUSH1 0x4 DUP6 ADD SLOAD PUSH1 0x5 DUP7 ADD SLOAD PUSH1 0x6 DUP8 ADD SLOAD PUSH1 0x7 DUP9 ADD SLOAD PUSH1 0x8 DUP10 ADD SLOAD PUSH1 0x9 DUP11 ADD SLOAD PUSH1 0xA DUP12 ADD SLOAD PUSH1 0xB SWAP1 SWAP12 ADD SLOAD SWAP10 SWAP11 PUSH1 0x1 PUSH1 0x1 PUSH1 0xA0 SHL SUB SWAP10 DUP11 AND SWAP11 SWAP9 SWAP1 SWAP10 AND SWAP9 SWAP7 SWAP8 SWAP6 SWAP7 SWAP5 SWAP6 PUSH1 0xFF SWAP5 DUP6 AND SWAP6 SWAP4 SWAP5 SWAP3 SWAP4 SWAP2 SWAP3 DUP2 DUP2 AND SWAP2 PUSH2 0x100 SWAP1 DIV AND DUP14 JUMP JUMPDEST PUSH1 0x40 DUP1 MLOAD SWAP14 DUP15 MSTORE PUSH1 0x1 PUSH1 0x1 PUSH1 0xA0 SHL SUB SWAP13 DUP14 AND PUSH1 0x20 DUP16 ADD MSTORE SWAP11 SWAP1 SWAP12 AND SWAP10 DUP13 ADD SWAP10 SWAP1 SWAP10 MSTORE PUSH1 0x60 DUP12 ADD SWAP8 SWAP1 SWAP8 MSTORE PUSH1 0x80 DUP11 ADD SWAP6 SWAP1 SWAP6 MSTORE PUSH1 0xA0 DUP10 ADD SWAP4 SWAP1 SWAP4 MSTORE SWAP1 ISZERO ISZERO PUSH1 0xC0 DUP9 ADD MSTORE PUSH1 0xE0 DUP8 ADD MSTORE PUSH2 0x100 DUP7 ADD MSTORE PUSH2 0x120 DUP6 ADD MSTORE PUSH2 0x140 DUP5 ADD MSTORE ISZERO ISZERO PUSH2 0x160 DUP4 ADD MSTORE ISZERO ISZERO PUSH2 0x180 DUP3 ADD MSTORE PUSH2 0x1A0 ADD PUSH2 0x2BC JUMP JUMPDEST CALLVALUE DUP1 ISZERO PUSH2 0x732 JUMPI PUSH0 DUP1 REVERT JUMPDEST POP PUSH2 0x2FB PUSH0 SLOAD DUP2 JUMP JUMPDEST CALLVALUE DUP1 ISZERO PUSH2 0x746 JUMPI PUSH0 DUP1 REVERT JUMPDEST POP PUSH2 0x5D5 PUSH2 0x755 CALLDATASIZE PUSH1 0x4 PUSH2 0x53F8 JUMP JUMPDEST PUSH2 0x1F09 JUMP JUMPDEST CALLVALUE DUP1 ISZERO PUSH2 0x765 JUMPI PUSH0 DUP1 REVERT JUMPDEST POP PUSH2 0x76E PUSH2 0x1F4F JUMP JUMPDEST PUSH1 0x40 MLOAD PUSH2 0x2BC SWAP2 SWAP1 PUSH0 PUSH1 0xA0 DUP3 ADD SWAP1 POP DUP3 MLOAD DUP3 MSTORE PUSH1 0x20 DUP4 ADD MLOAD PUSH1 0x20 DUP4 ADD MSTORE PUSH1 0x40 DUP4 ADD MLOAD PUSH1 0x40 DUP4 ADD MSTORE PUSH1 0x60 DUP4 ADD MLOAD PUSH1 0x60 DUP4 ADD MSTORE PUSH1 0x80 DUP4 ADD MLOAD ISZERO ISZERO PUSH1 0x80 DUP4 ADD MSTORE SWAP3 SWAP2 POP POP JUMP JUMPDEST CALLVALUE DUP1 ISZERO PUSH2 0x7BC JUMPI PUSH0 DUP1 REVERT JUMPDEST POP PUSH2 0x41B PUSH2 0x7CB CALLDATASIZE PUSH1 0x4 PUSH2 0x582F JUMP JUMPDEST PUSH1 0x10 PUSH1 0x20 MSTORE PUSH0 SWAP1 DUP2 MSTORE PUSH1 0x40 SWAP1 KECCAK256 DUP1 SLOAD PUSH1 0x1 DUP3 ADD SLOAD PUSH1 0x2 SWAP1 SWAP3 ADD SLOAD SWAP1 SWAP2 SWAP1 DUP4 JUMP JUMPDEST CALLVALUE DUP1 ISZERO PUSH2 0x7F6 JUMPI PUSH0 DUP1 REVERT JUMPDEST POP PUSH2 0x80A PUSH2 0x805 CALLDATASIZE PUSH1 0x4 PUSH2 0x5418 JUMP JUMPDEST PUSH2 0x1FBD JUMP JUMPDEST PUSH1 0x40 MLOAD PUSH2 0x2BC SWAP2 SWAP1 PUSH2 0x58AF JUMP JUMPDEST CALLVALUE DUP1 ISZERO PUSH2 0x822 JUMPI PUSH0 DUP1 REVERT JUMPDEST POP PUSH2 0x35E PUSH2 0x831 CALLDATASIZE PUSH1 0x4 PUSH2 0x53F8 JUMP JUMPDEST PUSH1 0x1C PUSH1 0x20 MSTORE PUSH0 SWAP1 DUP2 MSTORE PUSH1 0x40 SWAP1 KECCAK256 SLOAD PUSH1 0x1 PUSH1 0x1 PUSH1 0xA0 SHL SUB AND DUP2 JUMP JUMPDEST CALLVALUE DUP1 ISZERO PUSH2 0x856 JUMPI PUSH0 DUP1 REVERT JUMPDEST POP PUSH1 0x7 SLOAD PUSH2 0x35E SWAP1 PUSH1 0x1 PUSH1 0x1 PUSH1 0xA0 SHL SUB AND DUP2 JUMP JUMPDEST CALLVALUE DUP1 ISZERO PUSH2 0x875 JUMPI PUSH0 DUP1 REVERT JUMPDEST POP PUSH2 0x889 PUSH2 0x884 CALLDATASIZE PUSH1 0x4 PUSH2 0x53F8 JUMP JUMPDEST PUSH2 0x2104 JUMP JUMPDEST PUSH1 0x40 MLOAD PUSH2 0x2BC SWAP2 SWAP1 PUSH2 0x58F2 JUMP JUMPDEST CALLVALUE DUP1 ISZERO PUSH2 0x8A1 JUMPI PUSH0 DUP1 REVERT JUMPDEST POP PUSH2 0x5D5 PUSH2 0x8B0 CALLDATASIZE PUSH1 0x4 PUSH2 0x53F8 JUMP JUMPDEST PUSH2 0x2550 JUMP JUMPDEST CALLVALUE DUP1 ISZERO PUSH2 0x8C0 JUMPI PUSH0 DUP1 REVERT JUMPDEST POP PUSH2 0x8D4 PUSH2 0x8CF CALLDATASIZE PUSH1 0x4 PUSH2 0x582F JUMP JUMPDEST PUSH2 0x2596 JUMP JUMPDEST PUSH1 0x40 MLOAD PUSH2 0x2BC SWAP10 SWAP9 SWAP8 SWAP7 SWAP6 SWAP5 SWAP4 SWAP3 SWAP2 SWAP1 PUSH2 0x59EF JUMP JUMPDEST PUSH2 0x5D5 PUSH2 0x8F7 CALLDATASIZE PUSH1 0x4 PUSH2 0x5A43 JUMP JUMPDEST PUSH2 0x266E JUMP JUMPDEST CALLVALUE DUP1 ISZERO PUSH2 0x907 JUMPI PUSH0 DUP1 REVERT JUMPDEST POP PUSH2 0x2FB PUSH1 0x1 SLOAD DUP2 JUMP JUMPDEST CALLVALUE DUP1 ISZERO PUSH2 0x91C JUMPI PUSH0 DUP1 REVERT JUMPDEST POP PUSH2 0x5D5 PUSH2 0x92B CALLDATASIZE PUSH1 0x4 PUSH2 0x53F8 JUMP JUMPDEST PUSH2 0x267C JUMP JUMPDEST CALLVALUE DUP1 ISZERO PUSH2 0x93B JUMPI PUSH0 DUP1 REVERT JUMPDEST POP PUSH2 0x5D5 PUSH2 0x94A CALLDATASIZE PUSH1 0x4 PUSH2 0x5A43 JUMP JUMPDEST PUSH2 0x26C2 JUMP JUMPDEST CALLVALUE DUP1 ISZERO PUSH2 0x95A JUMPI PUSH0 DUP1 REVERT JUMPDEST POP PUSH2 0x35E PUSH2 0x969 CALLDATASIZE PUSH1 0x4 PUSH2 0x582F JUMP JUMPDEST PUSH1 0x13 PUSH1 0x20 MSTORE PUSH0 SWAP1 DUP2 MSTORE PUSH1 0x40 SWAP1 KECCAK256 SLOAD PUSH1 0x1 PUSH1 0x1 PUSH1 0xA0 SHL SUB AND DUP2 JUMP JUMPDEST CALLVALUE DUP1 ISZERO PUSH2 0x98E JUMPI PUSH0 DUP1 REVERT JUMPDEST POP PUSH2 0x5D5 PUSH2 0x99D CALLDATASIZE PUSH1 0x4 PUSH2 0x582F JUMP JUMPDEST PUSH2 0x283C JUMP JUMPDEST CALLVALUE DUP1 ISZERO PUSH2 0x9AD JUMPI PUSH0 DUP1 REVERT JUMPDEST POP PUSH1 0x4 SLOAD PUSH2 0x35E SWAP1 PUSH1 0x1 PUSH1 0x1 PUSH1 0xA0 SHL SUB AND DUP2 JUMP JUMPDEST CALLVALUE DUP1 ISZERO PUSH2 0x9CC JUMPI PUSH0 DUP1 REVERT JUMPDEST POP PUSH1 0x5 SLOAD PUSH2 0x35E SWAP1 PUSH1 0x1 PUSH1 0x1 PUSH1 0xA0 SHL SUB AND DUP2 JUMP JUMPDEST CALLVALUE DUP1 ISZERO PUSH2 0x9EB JUMPI PUSH0 DUP1 REVERT JUMPDEST POP PUSH2 0x5D5 PUSH2 0x9FA CALLDATASIZE PUSH1 0x4 PUSH2 0x53F8 JUMP JUMPDEST PUSH2 0x288D JUMP JUMPDEST CALLVALUE DUP1 ISZERO PUSH2 0xA0A JUMPI PUSH0 DUP1 REVERT JUMPDEST POP PUSH2 0x3B6 PUSH2 0xA19 CALLDATASIZE PUSH1 0x4 PUSH2 0x53F8 JUMP JUMPDEST PUSH1 0x1B PUSH1 0x20 MSTORE PUSH0 SWAP1 DUP2 MSTORE PUSH1 0x40 SWAP1 KECCAK256 DUP1 SLOAD PUSH1 0x1 DUP3 ADD SLOAD PUSH1 0x2 DUP4 ADD SLOAD PUSH1 0x3 SWAP1 SWAP4 ADD SLOAD SWAP2 SWAP3 SWAP1 SWAP2 DUP5 JUMP JUMPDEST CALLVALUE DUP1 ISZERO PUSH2 0xA4A JUMPI PUSH0 DUP1 REVERT JUMPDEST POP PUSH2 0xA5E PUSH2 0xA59 CALLDATASIZE PUSH1 0x4 PUSH2 0x5418 JUMP JUMPDEST PUSH2 0x28D3 JUMP JUMPDEST PUSH1 0x40 MLOAD PUSH2 0x2BC SWAP2 SWAP1 PUSH2 0x5A63 JUMP JUMPDEST CALLVALUE DUP1 ISZERO PUSH2 0xA76 JUMPI PUSH0 DUP1 REVERT JUMPDEST POP PUSH2 0xAB9 PUSH2 0xA85 CALLDATASIZE PUSH1 0x4 PUSH2 0x53F8 JUMP JUMPDEST PUSH1 0x19 PUSH1 0x20 MSTORE PUSH0 SWAP1 DUP2 MSTORE PUSH1 0x40 SWAP1 KECCAK256 DUP1 SLOAD PUSH1 0x1 DUP3 ADD SLOAD PUSH1 0x2 DUP4 ADD SLOAD PUSH1 0x4 DUP5 ADD SLOAD PUSH1 0x5 DUP6 ADD SLOAD PUSH1 0x6 SWAP1 SWAP6 ADD SLOAD SWAP4 SWAP5 SWAP3 SWAP4 SWAP2 SWAP3 SWAP1 SWAP2 DUP7 JUMP JUMPDEST PUSH1 0x40 DUP1 MLOAD SWAP7 DUP8 MSTORE PUSH1 0x20 DUP8 ADD SWAP6 SWAP1 SWAP6 MSTORE SWAP4 DUP6 ADD SWAP3 SWAP1 SWAP3 MSTORE PUSH1 0x60 DUP5 ADD MSTORE PUSH1 0x80 DUP4 ADD MSTORE PUSH1 0xA0 DUP3 ADD MSTORE PUSH1 0xC0 ADD PUSH2 0x2BC JUMP JUMPDEST CALLVALUE DUP1 ISZERO PUSH2 0xAF1 JUMPI PUSH0 DUP1 REVERT JUMPDEST POP PUSH2 0xB05 PUSH2 0xB00 CALLDATASIZE PUSH1 0x4 PUSH2 0x582F JUMP JUMPDEST PUSH2 0x2B3D JUMP JUMPDEST PUSH1 0x40 MLOAD PUSH2 0x2BC SWAP8 SWAP7 SWAP6 SWAP5 SWAP4 SWAP3 SWAP2 SWAP1 PUSH2 0x5ACC JUMP JUMPDEST CALLVALUE DUP1 ISZERO PUSH2 0xB23 JUMPI PUSH0 DUP1 REVERT JUMPDEST POP PUSH2 0xB37 PUSH2 0xB32 CALLDATASIZE PUSH1 0x4 PUSH2 0x53F8 JUMP JUMPDEST PUSH2 0x2BFD JUMP JUMPDEST PUSH1 0x40 MLOAD SWAP1 ISZERO ISZERO DUP2 MSTORE PUSH1 0x20 ADD PUSH2 0x2BC JUMP JUMPDEST PUSH2 0x5D5 PUSH2 0xB55 CALLDATASIZE PUSH1 0x4 PUSH2 0x53F8 JUMP JUMPDEST PUSH2 0x2C44 JUMP JUMPDEST CALLVALUE DUP1 ISZERO PUSH2 0xB65 JUMPI PUSH0 DUP1 REVERT JUMPDEST POP PUSH2 0x2FB PUSH2 0xB74 CALLDATASIZE PUSH1 0x4 PUSH2 0x53D0 JUMP JUMPDEST PUSH2 0x2C50 JUMP JUMPDEST CALLVALUE DUP1 ISZERO PUSH2 0xB84 JUMPI PUSH0 DUP1 REVERT JUMPDEST POP PUSH2 0xB37 PUSH2 0x2C77 JUMP JUMPDEST PUSH1 0x1 PUSH1 0x1 PUSH1 0xA0 SHL SUB DUP4 AND PUSH0 SWAP1 DUP2 MSTORE PUSH1 0x1B PUSH1 0x20 MSTORE PUSH1 0x40 DUP2 KECCAK256 PUSH1 0x1 ADD SLOAD PUSH1 0x60 SWAP2 DUP2 PUSH2 0xBB6 DUP6 DUP8 PUSH2 0x5B22 JUMP JUMPDEST GT PUSH2 0xBCA JUMPI PUSH2 0xBC5 DUP5 DUP7 PUSH2 0x5B22 JUMP JUMPDEST PUSH2 0xBCC JUMP JUMPDEST DUP2 JUMPDEST SWAP1 POP PUSH0 DUP5 DUP3 LT ISZERO PUSH2 0xBDD JUMPI PUSH0 PUSH2 0xBE7 JUMP JUMPDEST PUSH2 0xBE7 DUP6 DUP4 PUSH2 0x5B39 JUMP JUMPDEST SWAP1 POP PUSH0 PUSH2 0xBF4 DUP3 DUP5 PUSH2 0x5B39 JUMP JUMPDEST PUSH8 0xFFFFFFFFFFFFFFFF DUP2 GT ISZERO PUSH2 0xC0C JUMPI PUSH2 0xC0C PUSH2 0x5B4C JUMP JUMPDEST PUSH1 0x40 MLOAD SWAP1 DUP1 DUP3 MSTORE DUP1 PUSH1 0x20 MUL PUSH1 0x20 ADD DUP3 ADD PUSH1 0x40 MSTORE DUP1 ISZERO PUSH2 0xC5E JUMPI DUP2 PUSH1 0x20 ADD JUMPDEST PUSH2 0xC4B PUSH1 0x40 MLOAD DUP1 PUSH1 0x60 ADD PUSH1 0x40 MSTORE DUP1 PUSH0 DUP2 MSTORE PUSH1 0x20 ADD PUSH0 DUP2 MSTORE PUSH1 0x20 ADD PUSH0 DUP2 MSTORE POP SWAP1 JUMP JUMPDEST DUP2 MSTORE PUSH1 0x20 ADD SWAP1 PUSH1 0x1 SWAP1 SUB SWAP1 DUP2 PUSH2 0xC2A JUMPI SWAP1 POP JUMPDEST POP SWAP5 POP DUP3 JUMPDEST DUP3 DUP2 GT ISZERO PUSH2 0xCEC JUMPI PUSH1 0x1 PUSH1 0x1 PUSH1 0xA0 SHL SUB DUP10 AND PUSH0 SWAP1 DUP2 MSTORE PUSH1 0x18 PUSH1 0x20 SWAP1 DUP2 MSTORE PUSH1 0x40 DUP1 DUP4 KECCAK256 DUP5 DUP5 MSTORE DUP3 MSTORE SWAP2 DUP3 SWAP1 KECCAK256 DUP3 MLOAD PUSH1 0x60 DUP2 ADD DUP5 MSTORE DUP2 SLOAD DUP2 MSTORE PUSH1 0x1 DUP3 ADD SLOAD SWAP3 DUP2 ADD SWAP3 SWAP1 SWAP3 MSTORE PUSH1 0x2 ADD SLOAD SWAP2 DUP2 ADD SWAP2 SWAP1 SWAP2 MSTORE DUP7 DUP4 PUSH2 0xCBC DUP2 PUSH2 0x5B60 JUMP JUMPDEST SWAP5 POP DUP2 MLOAD DUP2 LT PUSH2 0xCCE JUMPI PUSH2 0xCCE PUSH2 0x5B78 JUMP JUMPDEST PUSH1 0x20 MUL PUSH1 0x20 ADD ADD DUP2 SWAP1 MSTORE POP DUP1 DUP1 PUSH2 0xCE4 SWAP1 PUSH2 0x5B8C JUMP JUMPDEST SWAP2 POP POP PUSH2 0xC63 JUMP JUMPDEST POP POP POP POP POP SWAP4 SWAP3 POP POP POP JUMP JUMPDEST PUSH1 0x1 PUSH1 0x1 PUSH1 0xA0 SHL SUB DUP4 AND PUSH0 SWAP1 DUP2 MSTORE PUSH1 0x1B PUSH1 0x20 MSTORE PUSH1 0x40 DUP2 KECCAK256 SLOAD PUSH1 0x60 SWAP2 DUP2 PUSH2 0xD1E DUP6 DUP8 PUSH2 0x5B22 JUMP JUMPDEST GT PUSH2 0xD32 JUMPI PUSH2 0xD2D DUP5 DUP7 PUSH2 0x5B22 JUMP JUMPDEST PUSH2 0xD34 JUMP JUMPDEST DUP2 JUMPDEST SWAP1 POP PUSH0 DUP5 DUP3 LT ISZERO PUSH2 0xD45 JUMPI PUSH0 PUSH2 0xD4F JUMP JUMPDEST PUSH2 0xD4F DUP6 DUP4 PUSH2 0x5B39 JUMP JUMPDEST SWAP1 POP PUSH0 PUSH2 0xD5C DUP3 DUP5 PUSH2 0x5B39 JUMP JUMPDEST PUSH8 0xFFFFFFFFFFFFFFFF DUP2 GT ISZERO PUSH2 0xD74 JUMPI PUSH2 0xD74 PUSH2 0x5B4C JUMP JUMPDEST PUSH1 0x40 MLOAD SWAP1 DUP1 DUP3 MSTORE DUP1 PUSH1 0x20 MUL PUSH1 0x20 ADD DUP3 ADD PUSH1 0x40 MSTORE DUP1 ISZERO PUSH2 0xDD2 JUMPI DUP2 PUSH1 0x20 ADD JUMPDEST PUSH2 0xDBF PUSH1 0x40 MLOAD DUP1 PUSH1 0xA0 ADD PUSH1 0x40 MSTORE DUP1 PUSH0 DUP2 MSTORE PUSH1 0x20 ADD PUSH0 DUP2 MSTORE PUSH1 0x20 ADD PUSH0 DUP2 MSTORE PUSH1 0x20 ADD PUSH0 DUP2 MSTORE PUSH1 0x20 ADD PUSH0 DUP2 MSTORE POP SWAP1 JUMP JUMPDEST DUP2 MSTORE PUSH1 0x20 ADD SWAP1 PUSH1 0x1 SWAP1 SUB SWAP1 DUP2 PUSH2 0xD92 JUMPI SWAP1 POP JUMPDEST POP SWAP5 POP DUP3 JUMPDEST DUP3 DUP2 GT ISZERO PUSH2 0xCEC JUMPI PUSH1 0x1 PUSH1 0x1 PUSH1 0xA0 SHL SUB DUP10 AND PUSH0 SWAP1 DUP2 MSTORE PUSH1 0x15 PUSH1 0x20 SWAP1 DUP2 MSTORE PUSH1 0x40 DUP1 DUP4 KECCAK256 DUP5 DUP5 MSTORE DUP3 MSTORE SWAP2 DUP3 SWAP1 KECCAK256 DUP3 MLOAD PUSH1 0xA0 DUP2 ADD DUP5 MSTORE DUP2 SLOAD DUP2 MSTORE PUSH1 0x1 DUP3 ADD SLOAD SWAP3 DUP2 ADD SWAP3 SWAP1 SWAP3 MSTORE PUSH1 0x2 DUP2 ADD SLOAD SWAP3 DUP3 ADD SWAP3 SWAP1 SWAP3 MSTORE PUSH1 0x3 DUP3 ADD SLOAD PUSH1 0x60 DUP3 ADD MSTORE PUSH1 0x4 SWAP1 SWAP2 ADD SLOAD PUSH1 0x80 DUP3 ADD MSTORE DUP7 MLOAD DUP8 SWAP1 DUP5 SWAP1 DUP2 LT PUSH2 0xE4F JUMPI PUSH2 0xE4F PUSH2 0x5B78 JUMP JUMPDEST PUSH1 0x20 MUL PUSH1 0x20 ADD ADD DUP2 SWAP1 MSTORE POP DUP2 DUP1 PUSH2 0xE65 SWAP1 PUSH2 0x5B60 JUMP JUMPDEST SWAP3 POP POP DUP1 DUP1 PUSH2 0xE73 SWAP1 PUSH2 0x5B8C JUMP JUMPDEST SWAP2 POP POP PUSH2 0xDD7 JUMP JUMPDEST PUSH1 0x60 PUSH0 PUSH1 0xB SLOAD PUSH8 0xFFFFFFFFFFFFFFFF DUP2 GT ISZERO PUSH2 0xE99 JUMPI PUSH2 0xE99 PUSH2 0x5B4C JUMP JUMPDEST PUSH1 0x40 MLOAD SWAP1 DUP1 DUP3 MSTORE DUP1 PUSH1 0x20 MUL PUSH1 0x20 ADD DUP3 ADD PUSH1 0x40 MSTORE DUP1 ISZERO PUSH2 0xF17 JUMPI DUP2 PUSH1 0x20 ADD JUMPDEST PUSH2 0xF04 PUSH1 0x40 MLOAD DUP1 PUSH2 0x120 ADD PUSH1 0x40 MSTORE DUP1 PUSH0 DUP2 MSTORE PUSH1 0x20 ADD PUSH1 0x60 DUP2 MSTORE PUSH1 0x20 ADD PUSH0 DUP2 MSTORE PUSH1 0x20 ADD PUSH0 ISZERO ISZERO DUP2 MSTORE PUSH1 0x20 ADD PUSH0 ISZERO ISZERO DUP2 MSTORE PUSH1 0x20 ADD PUSH0 DUP2 MSTORE PUSH1 0x20 ADD PUSH0 DUP2 MSTORE PUSH1 0x20 ADD PUSH0 DUP2 MSTORE PUSH1 0x20 ADD PUSH0 ISZERO ISZERO DUP2 MSTORE POP SWAP1 JUMP JUMPDEST DUP2 MSTORE PUSH1 0x20 ADD SWAP1 PUSH1 0x1 SWAP1 SUB SWAP1 DUP2 PUSH2 0xEB7 JUMPI SWAP1 POP JUMPDEST POP SWAP1 POP PUSH1 0x1 JUMPDEST PUSH1 0xB SLOAD DUP2 GT PUSH2 0x106E JUMPI PUSH1 0xF PUSH0 DUP3 DUP2 MSTORE PUSH1 0x20 ADD SWAP1 DUP2 MSTORE PUSH1 0x20 ADD PUSH0 KECCAK256 PUSH1 0x40 MLOAD DUP1 PUSH2 0x120 ADD PUSH1 0x40 MSTORE SWAP1 DUP2 PUSH0 DUP3 ADD SLOAD DUP2 MSTORE PUSH1 0x20 ADD PUSH1 0x1 DUP3 ADD DUP1 SLOAD PUSH2 0xF5C SWAP1 PUSH2 0x5BA1 JUMP JUMPDEST DUP1 PUSH1 0x1F ADD PUSH1 0x20 DUP1 SWAP2 DIV MUL PUSH1 0x20 ADD PUSH1 0x40 MLOAD SWAP1 DUP2 ADD PUSH1 0x40 MSTORE DUP1 SWAP3 SWAP2 SWAP1 DUP2 DUP2 MSTORE PUSH1 0x20 ADD DUP3 DUP1 SLOAD PUSH2 0xF88 SWAP1 PUSH2 0x5BA1 JUMP JUMPDEST DUP1 ISZERO PUSH2 0xFD3 JUMPI DUP1 PUSH1 0x1F LT PUSH2 0xFAA JUMPI PUSH2 0x100 DUP1 DUP4 SLOAD DIV MUL DUP4 MSTORE SWAP2 PUSH1 0x20 ADD SWAP2 PUSH2 0xFD3 JUMP JUMPDEST DUP3 ADD SWAP2 SWAP1 PUSH0 MSTORE PUSH1 0x20 PUSH0 KECCAK256 SWAP1 JUMPDEST DUP2 SLOAD DUP2 MSTORE SWAP1 PUSH1 0x1 ADD SWAP1 PUSH1 0x20 ADD DUP1 DUP4 GT PUSH2 0xFB6 JUMPI DUP3 SWAP1 SUB PUSH1 0x1F AND DUP3 ADD SWAP2 JUMPDEST POP POP POP SWAP2 DUP4 MSTORE POP POP PUSH1 0x2 DUP3 ADD SLOAD PUSH1 0x20 DUP3 ADD MSTORE PUSH1 0x3 DUP3 ADD SLOAD PUSH1 0xFF DUP1 DUP3 AND ISZERO ISZERO PUSH1 0x40 DUP5 ADD MSTORE PUSH2 0x100 SWAP1 SWAP2 DIV DUP2 AND ISZERO ISZERO PUSH1 0x60 DUP4 ADD MSTORE PUSH1 0x4 DUP4 ADD SLOAD PUSH1 0x80 DUP4 ADD MSTORE PUSH1 0x5 DUP4 ADD SLOAD PUSH1 0xA0 DUP4 ADD MSTORE PUSH1 0x6 DUP4 ADD SLOAD PUSH1 0xC0 DUP4 ADD MSTORE PUSH1 0x7 SWAP1 SWAP3 ADD SLOAD SWAP1 SWAP2 AND ISZERO ISZERO PUSH1 0xE0 SWAP1 SWAP2 ADD MSTORE DUP3 PUSH2 0x1040 PUSH1 0x1 DUP5 PUSH2 0x5B39 JUMP JUMPDEST DUP2 MLOAD DUP2 LT PUSH2 0x1050 JUMPI PUSH2 0x1050 PUSH2 0x5B78 JUMP JUMPDEST PUSH1 0x20 MUL PUSH1 0x20 ADD ADD DUP2 SWAP1 MSTORE POP DUP1 DUP1 PUSH2 0x1066 SWAP1 PUSH2 0x5B60 JUMP JUMPDEST SWAP2 POP POP PUSH2 0xF1D JUMP JUMPDEST POP SWAP2 SWAP1 POP JUMP JUMPDEST PUSH1 0x60 PUSH1 0x8 SLOAD PUSH8 0xFFFFFFFFFFFFFFFF DUP2 GT ISZERO PUSH2 0x1091 JUMPI PUSH2 0x1091 PUSH2 0x5B4C JUMP JUMPDEST PUSH1 0x40 MLOAD SWAP1 DUP1 DUP3 MSTORE DUP1 PUSH1 0x20 MUL PUSH1 0x20 ADD DUP3 ADD PUSH1 0x40 MSTORE DUP1 ISZERO PUSH2 0x10FD JUMPI DUP2 PUSH1 0x20 ADD JUMPDEST PUSH2 0x10EA PUSH1 0x40 MLOAD DUP1 PUSH1 0xE0 ADD PUSH1 0x40 MSTORE DUP1 PUSH0 DUP2 MSTORE PUSH1 0x20 ADD PUSH0 DUP2 MSTORE PUSH1 0x20 ADD PUSH0 DUP2 MSTORE PUSH1 0x20 ADD PUSH0 DUP2 MSTORE PUSH1 0x20 ADD PUSH0 DUP2 MSTORE PUSH1 0x20 ADD PUSH0 DUP2 MSTORE PUSH1 0x20 ADD PUSH0 ISZERO ISZERO DUP2 MSTORE POP SWAP1 JUMP JUMPDEST DUP2 MSTORE PUSH1 0x20 ADD SWAP1 PUSH1 0x1 SWAP1 SUB SWAP1 DUP2 PUSH2 0x10AF JUMPI SWAP1 POP JUMPDEST POP SWAP1 POP PUSH1 0x1 JUMPDEST PUSH1 0x8 SLOAD DUP2 GT PUSH2 0x106E JUMPI PUSH1 0x40 DUP1 MLOAD PUSH1 0xE0 DUP2 ADD DUP3 MSTORE DUP3 DUP2 MSTORE PUSH0 DUP4 DUP2 MSTORE PUSH1 0x10 PUSH1 0x20 SWAP1 DUP2 MSTORE DUP4 DUP3 KECCAK256 PUSH1 0x2 DUP2 ADD SLOAD DUP3 DUP6 ADD MSTORE PUSH1 0x1 PUSH1 0x1 PUSH1 0xA0 SHL SUB DUP9 AND DUP1 DUP5 MSTORE PUSH1 0x12 DUP4 MSTORE DUP6 DUP5 KECCAK256 PUSH1 0xA ADD SLOAD DUP6 DUP8 ADD MSTORE DUP1 DUP5 MSTORE PUSH1 0x17 DUP4 MSTORE DUP6 DUP5 KECCAK256 DUP8 DUP6 MSTORE DUP4 MSTORE DUP6 DUP5 KECCAK256 SLOAD PUSH1 0x60 DUP7 ADD MSTORE PUSH1 0x1 SWAP1 SWAP2 ADD SLOAD PUSH1 0x80 DUP6 ADD MSTORE DUP3 MSTORE PUSH1 0x19 SWAP1 MSTORE SWAP2 SWAP1 SWAP2 KECCAK256 PUSH1 0x3 ADD DUP1 SLOAD PUSH1 0xA0 DUP4 ADD SWAP2 SWAP1 DUP5 SWAP1 DUP2 LT PUSH2 0x1194 JUMPI PUSH2 0x1194 PUSH2 0x5B78 JUMP JUMPDEST SWAP1 PUSH0 MSTORE PUSH1 0x20 PUSH0 KECCAK256 ADD SLOAD DUP2 MSTORE PUSH1 0x20 ADD PUSH2 0x11AC DUP6 DUP5 PUSH2 0x2CD2 JUMP JUMPDEST ISZERO ISZERO SWAP1 MSTORE DUP3 PUSH2 0x11BC PUSH1 0x1 DUP5 PUSH2 0x5B39 JUMP JUMPDEST DUP2 MLOAD DUP2 LT PUSH2 0x11CC JUMPI PUSH2 0x11CC PUSH2 0x5B78 JUMP JUMPDEST PUSH1 0x20 MUL PUSH1 0x20 ADD ADD DUP2 SWAP1 MSTORE POP DUP1 DUP1 PUSH2 0x11E2 SWAP1 PUSH2 0x5B60 JUMP JUMPDEST SWAP2 POP POP PUSH2 0x1103 JUMP JUMPDEST PUSH2 0x12A0 PUSH1 0x40 MLOAD DUP1 PUSH2 0x320 ADD PUSH1 0x40 MSTORE DUP1 PUSH0 PUSH1 0x1 PUSH1 0x1 PUSH1 0xA0 SHL SUB AND DUP2 MSTORE PUSH1 0x20 ADD PUSH0 DUP2 MSTORE PUSH1 0x20 ADD PUSH0 DUP2 MSTORE PUSH1 0x20 ADD PUSH0 DUP2 MSTORE PUSH1 0x20 ADD PUSH0 DUP2 MSTORE PUSH1 0x20 ADD PUSH0 DUP2 MSTORE PUSH1 0x20 ADD PUSH0 DUP2 MSTORE PUSH1 0x20 ADD PUSH0 DUP2 MSTORE PUSH1 0x20 ADD PUSH0 DUP2 MSTORE PUSH1 0x20 ADD PUSH0 DUP2 MSTORE PUSH1 0x20 ADD PUSH0 DUP2 MSTORE PUSH1 0x20 ADD PUSH0 DUP2 MSTORE PUSH1 0x20 ADD PUSH0 DUP2 MSTORE PUSH1 0x20 ADD PUSH0 DUP2 MSTORE PUSH1 0x20 ADD PUSH0 DUP2 MSTORE PUSH1 0x20 ADD PUSH0 DUP2 MSTORE PUSH1 0x20 ADD PUSH0 DUP2 MSTORE PUSH1 0x20 ADD PUSH0 DUP2 MSTORE PUSH1 0x20 ADD PUSH0 DUP2 MSTORE PUSH1 0x20 ADD PUSH0 DUP2 MSTORE PUSH1 0x20 ADD PUSH1 0x60 DUP2 MSTORE PUSH1 0x20 ADD PUSH0 DUP2 MSTORE PUSH1 0x20 ADD PUSH0 ISZERO ISZERO DUP2 MSTORE PUSH1 0x20 ADD PUSH0 ISZERO ISZERO DUP2 MSTORE PUSH1 0x20 ADD PUSH0 ISZERO ISZERO DUP2 MSTORE POP SWAP1 JUMP JUMPDEST PUSH1 0x1 PUSH1 0x1 PUSH1 0xA0 SHL SUB DUP1 DUP4 AND PUSH0 DUP2 DUP2 MSTORE PUSH1 0x12 PUSH1 0x20 SWAP1 DUP2 MSTORE PUSH1 0x40 DUP1 DUP4 KECCAK256 DUP2 MLOAD PUSH2 0x1A0 DUP2 ADD DUP4 MSTORE DUP2 SLOAD DUP2 MSTORE PUSH1 0x1 DUP1 DUP4 ADD SLOAD DUP9 AND DUP3 DUP7 ADD MSTORE PUSH1 0x2 DUP4 ADD SLOAD SWAP1 SWAP8 AND DUP2 DUP5 ADD MSTORE PUSH1 0x3 DUP3 ADD SLOAD PUSH1 0x60 DUP3 ADD MSTORE PUSH1 0x4 DUP3 ADD SLOAD PUSH1 0x80 DUP3 ADD MSTORE PUSH1 0x5 DUP3 ADD SLOAD PUSH1 0xA0 DUP3 ADD MSTORE PUSH1 0x6 DUP3 ADD SLOAD PUSH1 0xFF SWAP1 DUP2 AND ISZERO ISZERO PUSH1 0xC0 DUP1 DUP5 ADD SWAP2 SWAP1 SWAP2 MSTORE PUSH1 0x7 DUP5 ADD SLOAD PUSH1 0xE0 DUP5 ADD MSTORE PUSH1 0x8 DUP5 ADD SLOAD PUSH2 0x100 DUP1 DUP6 ADD SWAP2 SWAP1 SWAP2 MSTORE PUSH1 0x9 DUP6 ADD SLOAD PUSH2 0x120 DUP6 ADD MSTORE PUSH1 0xA DUP6 ADD SLOAD PUSH2 0x140 DUP6 ADD MSTORE PUSH1 0xB SWAP1 SWAP5 ADD SLOAD DUP1 DUP4 AND ISZERO ISZERO PUSH2 0x160 DUP6 ADD MSTORE SWAP4 SWAP1 SWAP4 DIV AND ISZERO ISZERO PUSH2 0x180 DUP3 ADD MSTORE SWAP5 DUP5 MSTORE PUSH1 0x14 DUP4 MSTORE DUP2 DUP5 KECCAK256 DUP3 MLOAD SWAP2 DUP3 ADD DUP4 MSTORE DUP1 SLOAD DUP3 MSTORE SWAP6 DUP7 ADD DUP1 SLOAD DUP4 MLOAD DUP2 DUP7 MUL DUP2 ADD DUP7 ADD SWAP1 SWAP5 MSTORE DUP1 DUP5 MSTORE SWAP6 SWAP7 SWAP5 SWAP6 SWAP2 SWAP5 SWAP4 DUP6 DUP2 ADD SWAP4 SWAP3 SWAP1 DUP4 ADD DUP3 DUP3 DUP1 ISZERO PUSH2 0x13CD JUMPI PUSH1 0x20 MUL DUP3 ADD SWAP2 SWAP1 PUSH0 MSTORE PUSH1 0x20 PUSH0 KECCAK256 SWAP1 JUMPDEST DUP2 SLOAD PUSH1 0x1 PUSH1 0x1 PUSH1 0xA0 SHL SUB AND DUP2 MSTORE PUSH1 0x1 SWAP1 SWAP2 ADD SWAP1 PUSH1 0x20 ADD DUP1 DUP4 GT PUSH2 0x13AF JUMPI JUMPDEST POP POP POP POP POP DUP2 MSTORE PUSH1 0x20 ADD PUSH1 0x2 DUP3 ADD SLOAD DUP2 MSTORE PUSH1 0x20 ADD PUSH1 0x3 DUP3 ADD SLOAD DUP2 MSTORE PUSH1 0x20 ADD PUSH1 0x4 DUP3 ADD SLOAD DUP2 MSTORE PUSH1 0x20 ADD PUSH1 0x5 DUP3 ADD DUP1 SLOAD DUP1 PUSH1 0x20 MUL PUSH1 0x20 ADD PUSH1 0x40 MLOAD SWAP1 DUP2 ADD PUSH1 0x40 MSTORE DUP1 SWAP3 SWAP2 SWAP1 DUP2 DUP2 MSTORE PUSH1 0x20 ADD DUP3 DUP1 SLOAD DUP1 ISZERO PUSH2 0x144B JUMPI PUSH1 0x20 MUL DUP3 ADD SWAP2 SWAP1 PUSH0 MSTORE PUSH1 0x20 PUSH0 KECCAK256 SWAP1 JUMPDEST DUP2 SLOAD PUSH1 0x1 PUSH1 0x1 PUSH1 0xA0 SHL SUB AND DUP2 MSTORE PUSH1 0x1 SWAP1 SWAP2 ADD SWAP1 PUSH1 0x20 ADD DUP1 DUP4 GT PUSH2 0x142D JUMPI JUMPDEST POP POP POP POP POP DUP2 MSTORE POP POP SWAP1 POP PUSH0 PUSH1 0x19 PUSH0 DUP7 PUSH1 0x1 PUSH1 0x1 PUSH1 0xA0 SHL SUB AND PUSH1 0x1 PUSH1 0x1 PUSH1 0xA0 SHL SUB AND DUP2 MSTORE PUSH1 0x20 ADD SWAP1 DUP2 MSTORE PUSH1 0x20 ADD PUSH0 KECCAK256 PUSH1 0x40 MLOAD DUP1 PUSH1 0xE0 ADD PUSH1 0x40 MSTORE SWAP1 DUP2 PUSH0 DUP3 ADD SLOAD DUP2 MSTORE PUSH1 0x20 ADD PUSH1 0x1 DUP3 ADD SLOAD DUP2 MSTORE PUSH1 0x20 ADD PUSH1 0x2 DUP3 ADD SLOAD DUP2 MSTORE PUSH1 0x20 ADD PUSH1 0x3 DUP3 ADD DUP1 SLOAD DUP1 PUSH1 0x20 MUL PUSH1 0x20 ADD PUSH1 0x40 MLOAD SWAP1 DUP2 ADD PUSH1 0x40 MSTORE DUP1 SWAP3 SWAP2 SWAP1 DUP2 DUP2 MSTORE PUSH1 0x20 ADD DUP3 DUP1 SLOAD DUP1 ISZERO PUSH2 0x14EF JUMPI PUSH1 0x20 MUL DUP3 ADD SWAP2 SWAP1 PUSH0 MSTORE PUSH1 0x20 PUSH0 KECCAK256 SWAP1 JUMPDEST DUP2 SLOAD DUP2 MSTORE PUSH1 0x20 ADD SWAP1 PUSH1 0x1 ADD SWAP1 DUP1 DUP4 GT PUSH2 0x14DB JUMPI JUMPDEST POP POP POP POP POP DUP2 MSTORE PUSH1 0x20 ADD PUSH1 0x4 DUP3 ADD SLOAD DUP2 MSTORE PUSH1 0x20 ADD PUSH1 0x5 DUP3 ADD SLOAD DUP2 MSTORE PUSH1 0x20 ADD PUSH1 0x6 DUP3 ADD SLOAD DUP2 MSTORE POP POP SWAP1 POP PUSH1 0x40 MLOAD DUP1 PUSH2 0x320 ADD PUSH1 0x40 MSTORE DUP1 DUP5 PUSH1 0x40 ADD MLOAD PUSH1 0x1 PUSH1 0x1 PUSH1 0xA0 SHL SUB AND DUP2 MSTORE PUSH1 0x20 ADD DUP5 PUSH1 0x80 ADD MLOAD DUP2 MSTORE PUSH1 0x20 ADD DUP4 PUSH1 0x20 ADD MLOAD MLOAD DUP2 MSTORE PUSH1 0x20 ADD DUP4 PUSH0 ADD MLOAD DUP2 MSTORE PUSH1 0x20 ADD DUP5 PUSH1 0xA0 ADD MLOAD DUP2 MSTORE PUSH1 0x20 ADD DUP4 PUSH1 0x40 ADD MLOAD DUP2 MSTORE PUSH1 0x20 ADD DUP4 PUSH1 0x60 ADD MLOAD DUP2 MSTORE PUSH1 0x20 ADD DUP4 PUSH1 0x80 ADD MLOAD DUP2 MSTORE PUSH1 0x20 ADD DUP3 PUSH1 0x20 ADD MLOAD DUP2 MSTORE PUSH1 0x20 ADD DUP3 PUSH0 ADD MLOAD DUP2 MSTORE PUSH1 0x20 ADD PUSH2 0x1599 DUP8 PUSH2 0x2D12 JUMP JUMPDEST DUP2 MSTORE PUSH1 0x20 ADD DUP3 PUSH1 0x40 ADD MLOAD DUP2 MSTORE PUSH1 0x20 ADD PUSH2 0x15B1 DUP8 PUSH2 0x2E10 JUMP JUMPDEST DUP2 MSTORE PUSH1 0x20 ADD DUP3 PUSH1 0x80 ADD MLOAD DUP2 MSTORE PUSH1 0x20 ADD DUP3 PUSH1 0xA0 ADD MLOAD DUP2 MSTORE PUSH1 0x20 ADD PUSH2 0x15D3 DUP8 PUSH2 0x2F77 JUMP JUMPDEST DUP2 MSTORE PUSH1 0x20 ADD PUSH2 0x15E1 DUP8 PUSH2 0x2FD5 JUMP JUMPDEST DUP2 MSTORE PUSH1 0x20 ADD DUP3 PUSH1 0xC0 ADD MLOAD DUP2 MSTORE PUSH1 0x20 ADD PUSH2 0x15FC DUP8 PUSH1 0xD SLOAD PUSH2 0x2C50 JUMP JUMPDEST DUP2 MSTORE PUSH1 0x20 ADD PUSH2 0x160D DUP8 PUSH1 0xE SLOAD PUSH2 0x2C50 JUMP JUMPDEST DUP2 MSTORE PUSH1 0x20 ADD PUSH1 0x11 PUSH0 DUP7 PUSH2 0x140 ADD MLOAD DUP2 MSTORE PUSH1 0x20 ADD SWAP1 DUP2 MSTORE PUSH1 0x20 ADD PUSH0 KECCAK256 PUSH1 0x1 ADD DUP1 SLOAD PUSH2 0x1636 SWAP1 PUSH2 0x5BA1 JUMP JUMPDEST DUP1 PUSH1 0x1F ADD PUSH1 0x20 DUP1 SWAP2 DIV MUL PUSH1 0x20 ADD PUSH1 0x40 MLOAD SWAP1 DUP2 ADD PUSH1 0x40 MSTORE DUP1 SWAP3 SWAP2 SWAP1 DUP2 DUP2 MSTORE PUSH1 0x20 ADD DUP3 DUP1 SLOAD PUSH2 0x1662 SWAP1 PUSH2 0x5BA1 JUMP JUMPDEST DUP1 ISZERO PUSH2 0x16AD JUMPI DUP1 PUSH1 0x1F LT PUSH2 0x1684 JUMPI PUSH2 0x100 DUP1 DUP4 SLOAD DIV MUL DUP4 MSTORE SWAP2 PUSH1 0x20 ADD SWAP2 PUSH2 0x16AD JUMP JUMPDEST DUP3 ADD SWAP2 SWAP1 PUSH0 MSTORE PUSH1 0x20 PUSH0 KECCAK256 SWAP1 JUMPDEST DUP2 SLOAD DUP2 MSTORE SWAP1 PUSH1 0x1 ADD SWAP1 PUSH1 0x20 ADD DUP1 DUP4 GT PUSH2 0x1690 JUMPI DUP3 SWAP1 SUB PUSH1 0x1F AND DUP3 ADD SWAP2 JUMPDEST POP POP POP POP POP DUP2 MSTORE PUSH1 0x20 ADD PUSH2 0x16C0 DUP8 PUSH2 0x3015 JUMP JUMPDEST DUP2 MSTORE PUSH1 0x20 ADD PUSH2 0x16CE DUP8 PUSH2 0x303C JUMP JUMPDEST ISZERO ISZERO DUP2 MSTORE PUSH1 0x20 ADD DUP5 PUSH2 0x160 ADD MLOAD ISZERO ISZERO DUP2 MSTORE PUSH1 0x20 ADD PUSH0 DUP6 PUSH1 0xE0 ADD MLOAD GT ISZERO ISZERO DUP2 MSTORE POP SWAP4 POP POP POP POP SWAP2 SWAP1 POP JUMP JUMPDEST PUSH2 0x1700 PUSH2 0x3056 JUMP JUMPDEST PUSH2 0x1708 JUMPI CALLER SWAP3 POP JUMPDEST PUSH2 0x1711 DUP4 PUSH2 0x2BFD JUMP JUMPDEST PUSH2 0x175A JUMPI PUSH1 0x40 MLOAD PUSH3 0x461BCD PUSH1 0xE5 SHL DUP2 MSTORE PUSH1 0x20 PUSH1 0x4 DUP3 ADD MSTORE PUSH1 0x15 PUSH1 0x24 DUP3 ADD MSTORE PUSH21 0x496E76616C69642073656E64696E67207573657221 PUSH1 0x58 SHL PUSH1 0x44 DUP3 ADD MSTORE PUSH1 0x64 ADD JUMPDEST PUSH1 0x40 MLOAD DUP1 SWAP2 SUB SWAP1 REVERT JUMPDEST PUSH2 0x1763 DUP4 PUSH2 0x3083 JUMP JUMPDEST ISZERO PUSH2 0x17A7 JUMPI PUSH1 0x40 MLOAD PUSH3 0x461BCD PUSH1 0xE5 SHL DUP2 MSTORE PUSH1 0x20 PUSH1 0x4 DUP3 ADD MSTORE PUSH1 0x14 PUSH1 0x24 DUP3 ADD MSTORE PUSH20 0x2CB7BAB91024A21034B99034B730B1BA34BB3297 PUSH1 0x61 SHL PUSH1 0x44 DUP3 ADD MSTORE PUSH1 0x64 ADD PUSH2 0x1751 JUMP JUMPDEST PUSH2 0x17B0 DUP3 PUSH2 0x2BFD JUMP JUMPDEST PUSH2 0x17FC JUMPI PUSH1 0x40 MLOAD PUSH3 0x461BCD PUSH1 0xE5 SHL DUP2 MSTORE PUSH1 0x20 PUSH1 0x4 DUP3 ADD MSTORE PUSH1 0x17 PUSH1 0x24 DUP3 ADD MSTORE PUSH32 0x496E76616C696420726563656976696E67207573657221000000000000000000 PUSH1 0x44 DUP3 ADD MSTORE PUSH1 0x64 ADD PUSH2 0x1751 JUMP JUMPDEST PUSH1 0x1 PUSH1 0x1 PUSH1 0xA0 SHL SUB DUP4 AND PUSH0 SWAP1 DUP2 MSTORE PUSH1 0x1A PUSH1 0x20 SWAP1 DUP2 MSTORE PUSH1 0x40 DUP1 DUP4 KECCAK256 PUSH1 0xE SLOAD DUP5 MSTORE SWAP1 SWAP2 MSTORE SWAP1 KECCAK256 SLOAD DUP2 GT ISZERO PUSH2 0x1866 JUMPI PUSH1 0x40 MLOAD PUSH3 0x461BCD PUSH1 0xE5 SHL DUP2 MSTORE PUSH1 0x20 PUSH1 0x4 DUP3 ADD MSTORE PUSH1 0x13 PUSH1 0x24 DUP3 ADD MSTORE PUSH19 0x496E73756666696369656E742066756E647321 PUSH1 0x68 SHL PUSH1 0x44 DUP3 ADD MSTORE PUSH1 0x64 ADD PUSH2 0x1751 JUMP JUMPDEST PUSH2 0x1870 PUSH1 0x5 PUSH2 0x30B7 JUMP JUMPDEST DUP2 LT ISZERO PUSH2 0x18BB JUMPI PUSH1 0x40 MLOAD PUSH3 0x461BCD PUSH1 0xE5 SHL DUP2 MSTORE PUSH1 0x20 PUSH1 0x4 DUP3 ADD MSTORE PUSH1 0x19 PUSH1 0x24 DUP3 ADD MSTORE PUSH25 0x4D696E696D756D20616D6F756E742069732035205553445421 PUSH1 0x38 SHL PUSH1 0x44 DUP3 ADD MSTORE PUSH1 0x64 ADD PUSH2 0x1751 JUMP JUMPDEST PUSH0 PUSH1 0x64 PUSH2 0x18C9 DUP4 PUSH1 0x5 PUSH2 0x5B22 JUMP JUMPDEST PUSH2 0x18D3 SWAP2 SWAP1 PUSH2 0x5BD3 JUMP JUMPDEST SWAP1 POP PUSH0 PUSH2 0x18E0 DUP3 DUP5 PUSH2 0x5BF2 JUMP JUMPDEST PUSH1 0x1 PUSH1 0x1 PUSH1 0xA0 SHL SUB DUP7 AND PUSH0 SWAP1 DUP2 MSTORE PUSH1 0x1A PUSH1 0x20 SWAP1 DUP2 MSTORE PUSH1 0x40 DUP1 DUP4 KECCAK256 PUSH1 0xE SLOAD DUP5 MSTORE SWAP1 SWAP2 MSTORE DUP2 KECCAK256 DUP1 SLOAD SWAP3 SWAP4 POP DUP4 SWAP3 SWAP1 SWAP2 SWAP1 PUSH2 0x1919 SWAP1 DUP5 SWAP1 PUSH2 0x5B39 JUMP JUMPDEST SWAP1 SWAP2 SSTORE POP POP PUSH1 0x1 PUSH1 0x1 PUSH1 0xA0 SHL SUB DUP5 AND PUSH0 SWAP1 DUP2 MSTORE PUSH1 0x1A PUSH1 0x20 SWAP1 DUP2 MSTORE PUSH1 0x40 DUP1 DUP4 KECCAK256 PUSH1 0xE SLOAD DUP5 MSTORE SWAP1 SWAP2 MSTORE DUP2 KECCAK256 DUP1 SLOAD DUP6 SWAP3 SWAP1 PUSH2 0x1952 SWAP1 DUP5 SWAP1 PUSH2 0x5BF2 JUMP JUMPDEST SWAP1 SWAP2 SSTORE POP POP POP POP POP POP POP JUMP JUMPDEST CALLER PUSH0 PUSH2 0x1968 PUSH2 0x30CE JUMP JUMPDEST SWAP1 POP PUSH2 0x1973 DUP3 PUSH2 0x2BFD JUMP JUMPDEST PUSH2 0x19AF JUMPI PUSH1 0x40 MLOAD PUSH3 0x461BCD PUSH1 0xE5 SHL DUP2 MSTORE PUSH1 0x20 PUSH1 0x4 DUP3 ADD MSTORE PUSH1 0xD PUSH1 0x24 DUP3 ADD MSTORE PUSH13 0x496E76616C6964207573657221 PUSH1 0x98 SHL PUSH1 0x44 DUP3 ADD MSTORE PUSH1 0x64 ADD PUSH2 0x1751 JUMP JUMPDEST PUSH1 0x1 PUSH1 0x1 PUSH1 0xA0 SHL SUB DUP3 AND PUSH0 SWAP1 DUP2 MSTORE PUSH1 0x12 PUSH1 0x20 MSTORE PUSH1 0x40 SWAP1 KECCAK256 PUSH1 0x6 ADD SLOAD PUSH1 0xFF AND ISZERO PUSH2 0x19EA JUMPI PUSH1 0x40 MLOAD PUSH3 0x461BCD PUSH1 0xE5 SHL DUP2 MSTORE PUSH1 0x4 ADD PUSH2 0x1751 SWAP1 PUSH2 0x5C05 JUMP JUMPDEST PUSH2 0x19F3 DUP3 PUSH2 0x3083 JUMP JUMPDEST ISZERO PUSH2 0x1A37 JUMPI PUSH1 0x40 MLOAD PUSH3 0x461BCD PUSH1 0xE5 SHL DUP2 MSTORE PUSH1 0x20 PUSH1 0x4 DUP3 ADD MSTORE PUSH1 0x14 PUSH1 0x24 DUP3 ADD MSTORE PUSH20 0x2CB7BAB91024A21034B99034B730B1BA34BB3297 PUSH1 0x61 SHL PUSH1 0x44 DUP3 ADD MSTORE PUSH1 0x64 ADD PUSH2 0x1751 JUMP JUMPDEST PUSH2 0x1A41 PUSH1 0x5 PUSH2 0x30B7 JUMP JUMPDEST DUP4 LT ISZERO PUSH2 0x1A8C JUMPI PUSH1 0x40 MLOAD PUSH3 0x461BCD PUSH1 0xE5 SHL DUP2 MSTORE PUSH1 0x20 PUSH1 0x4 DUP3 ADD MSTORE PUSH1 0x19 PUSH1 0x24 DUP3 ADD MSTORE PUSH25 0x4D696E696D756D20616D6F756E742069732035205553445421 PUSH1 0x38 SHL PUSH1 0x44 DUP3 ADD MSTORE PUSH1 0x64 ADD PUSH2 0x1751 JUMP JUMPDEST DUP3 PUSH2 0x1A99 DUP4 PUSH1 0xD SLOAD PUSH2 0x2C50 JUMP JUMPDEST LT ISZERO PUSH2 0x1ADD JUMPI PUSH1 0x40 MLOAD PUSH3 0x461BCD PUSH1 0xE5 SHL DUP2 MSTORE PUSH1 0x20 PUSH1 0x4 DUP3 ADD MSTORE PUSH1 0x13 PUSH1 0x24 DUP3 ADD MSTORE PUSH19 0x496E73756666696369656E742066756E647321 PUSH1 0x68 SHL PUSH1 0x44 DUP3 ADD MSTORE PUSH1 0x64 ADD PUSH2 0x1751 JUMP JUMPDEST PUSH1 0x1 PUSH1 0x1 PUSH1 0xA0 SHL SUB DUP3 AND PUSH0 SWAP1 DUP2 MSTORE PUSH1 0x12 PUSH1 0x20 SWAP1 DUP2 MSTORE PUSH1 0x40 DUP1 DUP4 KECCAK256 PUSH1 0x4 ADD SLOAD PUSH1 0x19 SWAP1 SWAP3 MSTORE SWAP1 SWAP2 KECCAK256 PUSH1 0x6 ADD SLOAD PUSH2 0x1B12 SWAP1 DUP6 SWAP1 PUSH2 0x5BF2 JUMP JUMPDEST GT ISZERO DUP1 PUSH2 0x1B35 JUMPI POP PUSH1 0xC SLOAD PUSH1 0xFF AND DUP1 ISZERO PUSH2 0x1B35 JUMPI POP PUSH2 0x1B31 PUSH1 0x64 PUSH2 0x30B7 JUMP JUMPDEST DUP2 LT ISZERO JUMPDEST PUSH2 0x1BA7 JUMPI PUSH1 0x40 MLOAD PUSH3 0x461BCD PUSH1 0xE5 SHL DUP2 MSTORE PUSH1 0x20 PUSH1 0x4 DUP3 ADD MSTORE PUSH1 0x39 PUSH1 0x24 DUP3 ADD MSTORE PUSH32 0x5769746864726177616C206265796F6E64207072696E6369706C652069732070 PUSH1 0x44 DUP3 ADD MSTORE PUSH32 0x726F686962697465642061742074686973206D6F6D656E742100000000000000 PUSH1 0x64 DUP3 ADD MSTORE PUSH1 0x84 ADD PUSH2 0x1751 JUMP JUMPDEST PUSH1 0x1 PUSH1 0x1 PUSH1 0xA0 SHL SUB DUP3 AND PUSH0 SWAP1 DUP2 MSTORE PUSH1 0x1A PUSH1 0x20 SWAP1 DUP2 MSTORE PUSH1 0x40 DUP1 DUP4 KECCAK256 PUSH1 0xD SLOAD DUP5 MSTORE SWAP1 SWAP2 MSTORE DUP2 KECCAK256 DUP1 SLOAD DUP6 SWAP3 SWAP1 PUSH2 0x1BDB SWAP1 DUP5 SWAP1 PUSH2 0x5B39 JUMP JUMPDEST SWAP1 SWAP2 SSTORE POP POP PUSH1 0x1 PUSH1 0x1 PUSH1 0xA0 SHL SUB DUP3 AND PUSH0 SWAP1 DUP2 MSTORE PUSH1 0x19 PUSH1 0x20 MSTORE PUSH1 0x40 DUP2 KECCAK256 PUSH1 0x6 ADD DUP1 SLOAD DUP6 SWAP3 SWAP1 PUSH2 0x1C0A SWAP1 DUP5 SWAP1 PUSH2 0x5BF2 JUMP JUMPDEST SWAP1 SWAP2 SSTORE POP PUSH0 SWAP1 POP PUSH1 0x64 PUSH2 0x1C1E DUP6 PUSH1 0x5 PUSH2 0x5B22 JUMP JUMPDEST PUSH2 0x1C28 SWAP2 SWAP1 PUSH2 0x5BD3 JUMP JUMPDEST SWAP1 POP PUSH0 PUSH2 0x1C35 DUP3 DUP7 PUSH2 0x5B39 JUMP JUMPDEST PUSH1 0x40 DUP1 MLOAD DUP1 DUP3 ADD DUP3 MSTORE DUP8 DUP2 MSTORE TIMESTAMP PUSH1 0x20 DUP1 DUP4 ADD SWAP2 SWAP1 SWAP2 MSTORE PUSH1 0x1 PUSH1 0x1 PUSH1 0xA0 SHL SUB DUP9 AND PUSH0 SWAP1 DUP2 MSTORE PUSH1 0x16 DUP3 MSTORE DUP4 DUP2 KECCAK256 PUSH1 0x1B SWAP1 SWAP3 MSTORE SWAP3 DUP4 KECCAK256 PUSH1 0x2 ADD SLOAD SWAP4 SWAP5 POP SWAP1 SWAP3 DUP4 SWAP3 SWAP1 PUSH2 0x1C7F SWAP1 PUSH1 0x1 PUSH2 0x5BF2 JUMP JUMPDEST DUP2 MSTORE PUSH1 0x20 DUP1 DUP3 ADD SWAP3 SWAP1 SWAP3 MSTORE PUSH1 0x40 SWAP1 DUP2 ADD PUSH0 SWAP1 DUP2 KECCAK256 DUP5 MLOAD DUP2 SSTORE SWAP4 DUP4 ADD MLOAD PUSH1 0x1 SWAP1 SWAP5 ADD SWAP4 SWAP1 SWAP4 SSTORE PUSH1 0x1 PUSH1 0x1 PUSH1 0xA0 SHL SUB DUP9 AND DUP4 MSTORE PUSH1 0x1B SWAP1 SWAP2 MSTORE DUP2 KECCAK256 PUSH1 0x2 ADD DUP1 SLOAD SWAP2 PUSH2 0x1CC6 DUP4 PUSH2 0x5B60 JUMP JUMPDEST SWAP2 SWAP1 POP SSTORE POP DUP6 DUP5 LT PUSH2 0x1CF7 JUMPI PUSH2 0x1CDC DUP6 DUP4 PUSH2 0x3141 JUMP JUMPDEST PUSH1 0x7 SLOAD PUSH2 0x1CF2 SWAP1 PUSH1 0x1 PUSH1 0x1 PUSH1 0xA0 SHL SUB AND DUP5 PUSH2 0x3141 JUMP JUMPDEST PUSH2 0x1D01 JUMP JUMPDEST PUSH2 0x1D01 DUP6 DUP4 PUSH2 0x31C8 JUMP JUMPDEST POP POP POP POP POP POP JUMP JUMPDEST PUSH1 0x1 PUSH1 0x1 PUSH1 0xA0 SHL SUB DUP2 AND PUSH0 SWAP1 DUP2 MSTORE PUSH1 0x14 PUSH1 0x20 MSTORE PUSH1 0x40 SWAP1 KECCAK256 PUSH1 0x1 ADD SLOAD PUSH1 0x60 SWAP1 PUSH8 0xFFFFFFFFFFFFFFFF DUP2 GT ISZERO PUSH2 0x1D3F JUMPI PUSH2 0x1D3F PUSH2 0x5B4C JUMP JUMPDEST PUSH1 0x40 MLOAD SWAP1 DUP1 DUP3 MSTORE DUP1 PUSH1 0x20 MUL PUSH1 0x20 ADD DUP3 ADD PUSH1 0x40 MSTORE DUP1 ISZERO PUSH2 0x1DA0 JUMPI DUP2 PUSH1 0x20 ADD JUMPDEST PUSH2 0x1D8D PUSH1 0x40 MLOAD DUP1 PUSH1 0x80 ADD PUSH1 0x40 MSTORE DUP1 PUSH0 DUP2 MSTORE PUSH1 0x20 ADD PUSH0 PUSH1 0x1 PUSH1 0x1 PUSH1 0xA0 SHL SUB AND DUP2 MSTORE PUSH1 0x20 ADD PUSH0 DUP2 MSTORE PUSH1 0x20 ADD PUSH0 DUP2 MSTORE POP SWAP1 JUMP JUMPDEST DUP2 MSTORE PUSH1 0x20 ADD SWAP1 PUSH1 0x1 SWAP1 SUB SWAP1 DUP2 PUSH2 0x1D5D JUMPI SWAP1 POP JUMPDEST POP SWAP1 POP PUSH0 JUMPDEST PUSH1 0x1 PUSH1 0x1 PUSH1 0xA0 SHL SUB DUP4 AND PUSH0 SWAP1 DUP2 MSTORE PUSH1 0x14 PUSH1 0x20 MSTORE PUSH1 0x40 SWAP1 KECCAK256 PUSH1 0x1 ADD SLOAD DUP2 LT ISZERO PUSH2 0x106E JUMPI PUSH1 0x40 MLOAD DUP1 PUSH1 0x80 ADD PUSH1 0x40 MSTORE DUP1 DUP3 PUSH1 0x1 PUSH2 0x1DDF SWAP2 SWAP1 PUSH2 0x5BF2 JUMP JUMPDEST DUP2 MSTORE PUSH1 0x20 ADD PUSH1 0x14 PUSH0 DUP7 PUSH1 0x1 PUSH1 0x1 PUSH1 0xA0 SHL SUB AND PUSH1 0x1 PUSH1 0x1 PUSH1 0xA0 SHL SUB AND DUP2 MSTORE PUSH1 0x20 ADD SWAP1 DUP2 MSTORE PUSH1 0x20 ADD PUSH0 KECCAK256 PUSH1 0x1 ADD DUP4 DUP2 SLOAD DUP2 LT PUSH2 0x1E1B JUMPI PUSH2 0x1E1B PUSH2 0x5B78 JUMP JUMPDEST PUSH0 SWAP2 DUP3 MSTORE PUSH1 0x20 DUP1 DUP4 KECCAK256 SWAP1 SWAP2 ADD SLOAD PUSH1 0x1 PUSH1 0x1 PUSH1 0xA0 SHL SUB SWAP1 DUP2 AND DUP5 MSTORE DUP8 AND DUP3 MSTORE PUSH1 0x14 DUP2 MSTORE PUSH1 0x40 DUP3 KECCAK256 PUSH1 0x1 ADD DUP1 SLOAD SWAP4 SWAP1 SWAP2 ADD SWAP3 PUSH1 0x12 SWAP3 SWAP2 SWAP1 DUP7 SWAP1 DUP2 LT PUSH2 0x1E60 JUMPI PUSH2 0x1E60 PUSH2 0x5B78 JUMP JUMPDEST PUSH0 SWAP2 DUP3 MSTORE PUSH1 0x20 DUP1 DUP4 KECCAK256 SWAP1 SWAP2 ADD SLOAD PUSH1 0x1 PUSH1 0x1 PUSH1 0xA0 SHL SUB SWAP1 DUP2 AND DUP5 MSTORE DUP4 DUP3 ADD SWAP5 SWAP1 SWAP5 MSTORE PUSH1 0x40 SWAP3 DUP4 ADD DUP3 KECCAK256 PUSH1 0x4 ADD SLOAD DUP6 MSTORE SWAP3 DUP9 AND DUP2 MSTORE PUSH1 0x14 DUP1 DUP5 MSTORE SWAP2 DUP2 KECCAK256 PUSH1 0x1 ADD DUP1 SLOAD SWAP5 SWAP1 SWAP4 ADD SWAP4 SWAP2 SWAP3 SWAP1 SWAP2 DUP7 SWAP1 DUP2 LT PUSH2 0x1EB9 JUMPI PUSH2 0x1EB9 PUSH2 0x5B78 JUMP JUMPDEST PUSH0 SWAP2 DUP3 MSTORE PUSH1 0x20 DUP1 DUP4 KECCAK256 SWAP1 SWAP2 ADD SLOAD PUSH1 0x1 PUSH1 0x1 PUSH1 0xA0 SHL SUB AND DUP4 MSTORE DUP3 ADD SWAP3 SWAP1 SWAP3 MSTORE PUSH1 0x40 ADD SWAP1 KECCAK256 PUSH1 0x4 ADD SLOAD SWAP1 MSTORE DUP3 MLOAD DUP4 SWAP1 DUP4 SWAP1 DUP2 LT PUSH2 0x1EF6 JUMPI PUSH2 0x1EF6 PUSH2 0x5B78 JUMP JUMPDEST PUSH1 0x20 SWAP1 DUP2 MUL SWAP2 SWAP1 SWAP2 ADD ADD MSTORE PUSH1 0x1 ADD PUSH2 0x1DA5 JUMP JUMPDEST PUSH2 0x1F11 PUSH2 0x3056 JUMP JUMPDEST PUSH2 0x1F2D JUMPI PUSH1 0x40 MLOAD PUSH3 0x461BCD PUSH1 0xE5 SHL DUP2 MSTORE PUSH1 0x4 ADD PUSH2 0x1751 SWAP1 PUSH2 0x5C05 JUMP JUMPDEST PUSH1 0x3 DUP1 SLOAD PUSH1 0x1 PUSH1 0x1 PUSH1 0xA0 SHL SUB NOT AND PUSH1 0x1 PUSH1 0x1 PUSH1 0xA0 SHL SUB SWAP3 SWAP1 SWAP3 AND SWAP2 SWAP1 SWAP2 OR SWAP1 SSTORE JUMP JUMPDEST PUSH2 0x1F7E PUSH1 0x40 MLOAD DUP1 PUSH1 0xA0 ADD PUSH1 0x40 MSTORE DUP1 PUSH0 DUP2 MSTORE PUSH1 0x20 ADD PUSH0 DUP2 MSTORE PUSH1 0x20 ADD PUSH0 DUP2 MSTORE PUSH1 0x20 ADD PUSH0 DUP2 MSTORE PUSH1 0x20 ADD PUSH0 ISZERO ISZERO DUP2 MSTORE POP SWAP1 JUMP JUMPDEST PUSH1 0x40 MLOAD DUP1 PUSH1 0xA0 ADD PUSH1 0x40 MSTORE DUP1 PUSH0 SLOAD DUP2 MSTORE PUSH1 0x20 ADD PUSH1 0x1 SLOAD DUP2 MSTORE PUSH1 0x20 ADD PUSH1 0x2 SLOAD DUP2 MSTORE PUSH1 0x20 ADD PUSH2 0x1FA8 PUSH2 0x30CE JUMP JUMPDEST DUP2 MSTORE PUSH1 0xC SLOAD PUSH1 0xFF AND ISZERO ISZERO PUSH1 0x20 SWAP1 SWAP2 ADD MSTORE SWAP2 SWAP1 POP JUMP JUMPDEST PUSH1 0x1 PUSH1 0x1 PUSH1 0xA0 SHL SUB DUP4 AND PUSH0 SWAP1 DUP2 MSTORE PUSH1 0x1B PUSH1 0x20 MSTORE PUSH1 0x40 DUP2 KECCAK256 PUSH1 0x2 ADD SLOAD PUSH1 0x60 SWAP2 DUP2 PUSH2 0x1FE6 DUP6 DUP8 PUSH2 0x5B22 JUMP JUMPDEST GT PUSH2 0x1FFA JUMPI PUSH2 0x1FF5 DUP5 DUP7 PUSH2 0x5B22 JUMP JUMPDEST PUSH2 0x1FFC JUMP JUMPDEST DUP2 JUMPDEST SWAP1 POP PUSH0 DUP5 DUP3 LT ISZERO PUSH2 0x200D JUMPI PUSH0 PUSH2 0x2017 JUMP JUMPDEST PUSH2 0x2017 DUP6 DUP4 PUSH2 0x5B39 JUMP JUMPDEST SWAP1 POP PUSH0 PUSH2 0x2024 DUP3 DUP5 PUSH2 0x5B39 JUMP JUMPDEST PUSH8 0xFFFFFFFFFFFFFFFF DUP2 GT ISZERO PUSH2 0x203C JUMPI PUSH2 0x203C PUSH2 0x5B4C JUMP JUMPDEST PUSH1 0x40 MLOAD SWAP1 DUP1 DUP3 MSTORE DUP1 PUSH1 0x20 MUL PUSH1 0x20 ADD DUP3 ADD PUSH1 0x40 MSTORE DUP1 ISZERO PUSH2 0x2080 JUMPI DUP2 PUSH1 0x20 ADD JUMPDEST PUSH1 0x40 DUP1 MLOAD DUP1 DUP3 ADD SWAP1 SWAP2 MSTORE PUSH0 DUP1 DUP3 MSTORE PUSH1 0x20 DUP3 ADD MSTORE DUP2 MSTORE PUSH1 0x20 ADD SWAP1 PUSH1 0x1 SWAP1 SUB SWAP1 DUP2 PUSH2 0x205A JUMPI SWAP1 POP JUMPDEST POP SWAP5 POP DUP3 JUMPDEST DUP3 DUP2 GT ISZERO PUSH2 0xCEC JUMPI PUSH1 0x1 PUSH1 0x1 PUSH1 0xA0 SHL SUB DUP10 AND PUSH0 SWAP1 DUP2 MSTORE PUSH1 0x16 PUSH1 0x20 SWAP1 DUP2 MSTORE PUSH1 0x40 DUP1 DUP4 KECCAK256 DUP5 DUP5 MSTORE DUP3 MSTORE SWAP2 DUP3 SWAP1 KECCAK256 DUP3 MLOAD DUP1 DUP5 ADD SWAP1 SWAP4 MSTORE DUP1 SLOAD DUP4 MSTORE PUSH1 0x1 ADD SLOAD SWAP1 DUP3 ADD MSTORE DUP7 MLOAD DUP8 SWAP1 DUP5 SWAP1 DUP2 LT PUSH2 0x20D8 JUMPI PUSH2 0x20D8 PUSH2 0x5B78 JUMP JUMPDEST PUSH1 0x20 MUL PUSH1 0x20 ADD ADD DUP2 SWAP1 MSTORE POP DUP2 DUP1 PUSH2 0x20EE SWAP1 PUSH2 0x5B60 JUMP JUMPDEST SWAP3 POP POP DUP1 DUP1 PUSH2 0x20FC SWAP1 PUSH2 0x5B8C JUMP JUMPDEST SWAP2 POP POP PUSH2 0x2085 JUMP JUMPDEST PUSH1 0x60 PUSH1 0x9 SLOAD PUSH8 0xFFFFFFFFFFFFFFFF DUP2 GT ISZERO PUSH2 0x2121 JUMPI PUSH2 0x2121 PUSH2 0x5B4C JUMP JUMPDEST PUSH1 0x40 MLOAD SWAP1 DUP1 DUP3 MSTORE DUP1 PUSH1 0x20 MUL PUSH1 0x20 ADD DUP3 ADD PUSH1 0x40 MSTORE DUP1 ISZERO PUSH2 0x21B5 JUMPI DUP2 PUSH1 0x20 ADD JUMPDEST PUSH2 0x21A2 PUSH1 0x40 MLOAD DUP1 PUSH2 0x1A0 ADD PUSH1 0x40 MSTORE DUP1 PUSH0 DUP2 MSTORE PUSH1 0x20 ADD PUSH1 0x60 DUP2 MSTORE PUSH1 0x20 ADD PUSH0 DUP2 MSTORE PUSH1 0x20 ADD PUSH0 DUP2 MSTORE PUSH1 0x20 ADD PUSH0 DUP2 MSTORE PUSH1 0x20 ADD PUSH0 DUP2 MSTORE PUSH1 0x20 ADD PUSH0 DUP2 MSTORE PUSH1 0x20 ADD PUSH0 ISZERO ISZERO DUP2 MSTORE PUSH1 0x20 ADD PUSH0 DUP2 MSTORE PUSH1 0x20 ADD PUSH0 DUP2 MSTORE PUSH1 0x20 ADD PUSH0 DUP2 MSTORE PUSH1 0x20 ADD PUSH0 DUP2 MSTORE PUSH1 0x20 ADD PUSH0 ISZERO ISZERO DUP2 MSTORE POP SWAP1 JUMP JUMPDEST DUP2 MSTORE PUSH1 0x20 ADD SWAP1 PUSH1 0x1 SWAP1 SUB SWAP1 DUP2 PUSH2 0x213F JUMPI SWAP1 POP JUMPDEST POP PUSH1 0x1 PUSH1 0x1 PUSH1 0xA0 SHL SUB DUP1 DUP5 AND PUSH0 DUP2 DUP2 MSTORE PUSH1 0x12 PUSH1 0x20 SWAP1 DUP2 MSTORE PUSH1 0x40 DUP1 DUP4 KECCAK256 DUP2 MLOAD PUSH2 0x1A0 DUP2 ADD DUP4 MSTORE DUP2 SLOAD DUP2 MSTORE PUSH1 0x1 DUP1 DUP4 ADD SLOAD DUP9 AND DUP3 DUP7 ADD MSTORE PUSH1 0x2 DUP4 ADD SLOAD SWAP1 SWAP8 AND DUP2 DUP5 ADD MSTORE PUSH1 0x3 DUP3 ADD SLOAD PUSH1 0x60 DUP3 ADD MSTORE PUSH1 0x4 DUP3 ADD SLOAD PUSH1 0x80 DUP3 ADD MSTORE PUSH1 0x5 DUP3 ADD SLOAD PUSH1 0xA0 DUP3 ADD MSTORE PUSH1 0x6 DUP3 ADD SLOAD PUSH1 0xFF SWAP1 DUP2 AND ISZERO ISZERO PUSH1 0xC0 DUP1 DUP5 ADD SWAP2 SWAP1 SWAP2 MSTORE PUSH1 0x7 DUP5 ADD SLOAD PUSH1 0xE0 DUP5 ADD MSTORE PUSH1 0x8 DUP5 ADD SLOAD PUSH2 0x100 DUP1 DUP6 ADD SWAP2 SWAP1 SWAP2 MSTORE PUSH1 0x9 DUP6 ADD SLOAD PUSH2 0x120 DUP6 ADD MSTORE PUSH1 0xA DUP6 ADD SLOAD PUSH2 0x140 DUP6 ADD MSTORE PUSH1 0xB SWAP1 SWAP5 ADD SLOAD DUP1 DUP4 AND ISZERO ISZERO PUSH2 0x160 DUP6 ADD MSTORE SWAP4 SWAP1 SWAP4 DIV AND ISZERO ISZERO PUSH2 0x180 DUP3 ADD MSTORE SWAP5 DUP5 MSTORE PUSH1 0x14 DUP4 MSTORE DUP2 DUP5 KECCAK256 DUP3 MLOAD SWAP2 DUP3 ADD DUP4 MSTORE DUP1 SLOAD DUP3 MSTORE SWAP6 DUP7 ADD DUP1 SLOAD DUP4 MLOAD DUP2 DUP7 MUL DUP2 ADD DUP7 ADD SWAP1 SWAP5 MSTORE DUP1 DUP5 MSTORE SWAP8 SWAP9 POP SWAP5 SWAP7 SWAP4 SWAP6 SWAP1 SWAP5 SWAP1 SWAP4 DUP6 DUP5 ADD SWAP4 DUP4 ADD DUP3 DUP3 DUP1 ISZERO PUSH2 0x22E5 JUMPI PUSH1 0x20 MUL DUP3 ADD SWAP2 SWAP1 PUSH0 MSTORE PUSH1 0x20 PUSH0 KECCAK256 SWAP1 JUMPDEST DUP2 SLOAD PUSH1 0x1 PUSH1 0x1 PUSH1 0xA0 SHL SUB AND DUP2 MSTORE PUSH1 0x1 SWAP1 SWAP2 ADD SWAP1 PUSH1 0x20 ADD DUP1 DUP4 GT PUSH2 0x22C7 JUMPI JUMPDEST POP POP POP POP POP DUP2 MSTORE PUSH1 0x20 ADD PUSH1 0x2 DUP3 ADD SLOAD DUP2 MSTORE PUSH1 0x20 ADD PUSH1 0x3 DUP3 ADD SLOAD DUP2 MSTORE PUSH1 0x20 ADD PUSH1 0x4 DUP3 ADD SLOAD DUP2 MSTORE PUSH1 0x20 ADD PUSH1 0x5 DUP3 ADD DUP1 SLOAD DUP1 PUSH1 0x20 MUL PUSH1 0x20 ADD PUSH1 0x40 MLOAD SWAP1 DUP2 ADD PUSH1 0x40 MSTORE DUP1 SWAP3 SWAP2 SWAP1 DUP2 DUP2 MSTORE PUSH1 0x20 ADD DUP3 DUP1 SLOAD DUP1 ISZERO PUSH2 0x2363 JUMPI PUSH1 0x20 MUL DUP3 ADD SWAP2 SWAP1 PUSH0 MSTORE PUSH1 0x20 PUSH0 KECCAK256 SWAP1 JUMPDEST DUP2 SLOAD PUSH1 0x1 PUSH1 0x1 PUSH1 0xA0 SHL SUB AND DUP2 MSTORE PUSH1 0x1 SWAP1 SWAP2 ADD SWAP1 PUSH1 0x20 ADD DUP1 DUP4 GT PUSH2 0x2345 JUMPI JUMPDEST POP POP POP POP POP DUP2 MSTORE POP POP SWAP1 POP PUSH0 PUSH1 0x1 SWAP1 POP JUMPDEST PUSH1 0x9 SLOAD DUP2 GT PUSH2 0x2548 JUMPI PUSH0 PUSH1 0x11 PUSH0 DUP4 DUP2 MSTORE PUSH1 0x20 ADD SWAP1 DUP2 MSTORE PUSH1 0x20 ADD PUSH0 KECCAK256 PUSH1 0x40 MLOAD DUP1 PUSH1 0xE0 ADD PUSH1 0x40 MSTORE SWAP1 DUP2 PUSH0 DUP3 ADD SLOAD DUP2 MSTORE PUSH1 0x20 ADD PUSH1 0x1 DUP3 ADD DUP1 SLOAD PUSH2 0x23B3 SWAP1 PUSH2 0x5BA1 JUMP JUMPDEST DUP1 PUSH1 0x1F ADD PUSH1 0x20 DUP1 SWAP2 DIV MUL PUSH1 0x20 ADD PUSH1 0x40 MLOAD SWAP1 DUP2 ADD PUSH1 0x40 MSTORE DUP1 SWAP3 SWAP2 SWAP1 DUP2 DUP2 MSTORE PUSH1 0x20 ADD DUP3 DUP1 SLOAD PUSH2 0x23DF SWAP1 PUSH2 0x5BA1 JUMP JUMPDEST DUP1 ISZERO PUSH2 0x242A JUMPI DUP1 PUSH1 0x1F LT PUSH2 0x2401 JUMPI PUSH2 0x100 DUP1 DUP4 SLOAD DIV MUL DUP4 MSTORE SWAP2 PUSH1 0x20 ADD SWAP2 PUSH2 0x242A JUMP JUMPDEST DUP3 ADD SWAP2 SWAP1 PUSH0 MSTORE PUSH1 0x20 PUSH0 KECCAK256 SWAP1 JUMPDEST DUP2 SLOAD DUP2 MSTORE SWAP1 PUSH1 0x1 ADD SWAP1 PUSH1 0x20 ADD DUP1 DUP4 GT PUSH2 0x240D JUMPI DUP3 SWAP1 SUB PUSH1 0x1F AND DUP3 ADD SWAP2 JUMPDEST POP POP POP POP POP DUP2 MSTORE PUSH1 0x20 ADD PUSH1 0x2 DUP3 ADD SLOAD DUP2 MSTORE PUSH1 0x20 ADD PUSH1 0x3 DUP3 ADD SLOAD DUP2 MSTORE PUSH1 0x20 ADD PUSH1 0x4 DUP3 ADD SLOAD DUP2 MSTORE PUSH1 0x20 ADD PUSH1 0x5 DUP3 ADD SLOAD DUP2 MSTORE PUSH1 0x20 ADD PUSH1 0x6 DUP3 ADD SLOAD DUP2 MSTORE POP POP SWAP1 POP PUSH0 DUP2 PUSH0 ADD MLOAD DUP6 PUSH2 0x140 ADD MLOAD LT ISZERO SWAP1 POP PUSH1 0x40 MLOAD DUP1 PUSH2 0x1A0 ADD PUSH1 0x40 MSTORE DUP1 DUP4 PUSH0 ADD MLOAD DUP2 MSTORE PUSH1 0x20 ADD DUP4 PUSH1 0x20 ADD MLOAD DUP2 MSTORE PUSH1 0x20 ADD DUP4 PUSH1 0x40 ADD MLOAD DUP2 MSTORE PUSH1 0x20 ADD DUP4 PUSH1 0x80 ADD MLOAD DUP2 MSTORE PUSH1 0x20 ADD DUP4 PUSH1 0xA0 ADD MLOAD DUP2 MSTORE PUSH1 0x20 ADD DUP4 PUSH1 0x60 ADD MLOAD DUP2 MSTORE PUSH1 0x20 ADD DUP7 PUSH1 0x80 ADD MLOAD DUP2 MSTORE PUSH1 0x20 ADD PUSH2 0x24D5 DUP10 DUP6 PUSH1 0x40 ADD MLOAD PUSH2 0x3297 JUMP JUMPDEST ISZERO ISZERO DUP2 MSTORE PUSH1 0x20 ADD DUP6 PUSH1 0x40 ADD MLOAD DUP2 MSTORE PUSH1 0x20 ADD DUP6 PUSH1 0x60 ADD MLOAD DUP2 MSTORE PUSH1 0x20 ADD DUP7 PUSH1 0xA0 ADD MLOAD DUP2 MSTORE PUSH1 0x20 ADD DUP4 PUSH1 0xC0 ADD MLOAD DUP2 MSTORE PUSH1 0x20 ADD DUP3 ISZERO ISZERO DUP2 MSTORE POP DUP7 PUSH1 0x1 DUP6 PUSH2 0x2518 SWAP2 SWAP1 PUSH2 0x5B39 JUMP JUMPDEST DUP2 MLOAD DUP2 LT PUSH2 0x2528 JUMPI PUSH2 0x2528 PUSH2 0x5B78 JUMP JUMPDEST PUSH1 0x20 MUL PUSH1 0x20 ADD ADD DUP2 SWAP1 MSTORE POP POP POP DUP1 DUP1 PUSH2 0x2540 SWAP1 PUSH2 0x5B60 JUMP JUMPDEST SWAP2 POP POP PUSH2 0x2374 JUMP JUMPDEST POP POP POP SWAP2 SWAP1 POP JUMP JUMPDEST PUSH2 0x2558 PUSH2 0x3056 JUMP JUMPDEST PUSH2 0x2574 JUMPI PUSH1 0x40 MLOAD PUSH3 0x461BCD PUSH1 0xE5 SHL DUP2 MSTORE PUSH1 0x4 ADD PUSH2 0x1751 SWAP1 PUSH2 0x5C05 JUMP JUMPDEST PUSH1 0x4 DUP1 SLOAD PUSH1 0x1 PUSH1 0x1 PUSH1 0xA0 SHL SUB NOT AND PUSH1 0x1 PUSH1 0x1 PUSH1 0xA0 SHL SUB SWAP3 SWAP1 SWAP3 AND SWAP2 SWAP1 SWAP2 OR SWAP1 SSTORE JUMP JUMPDEST PUSH1 0xF PUSH1 0x20 MSTORE PUSH0 SWAP1 DUP2 MSTORE PUSH1 0x40 SWAP1 KECCAK256 DUP1 SLOAD PUSH1 0x1 DUP3 ADD DUP1 SLOAD SWAP2 SWAP3 SWAP2 PUSH2 0x25B7 SWAP1 PUSH2 0x5BA1 JUMP JUMPDEST DUP1 PUSH1 0x1F ADD PUSH1 0x20 DUP1 SWAP2 DIV MUL PUSH1 0x20 ADD PUSH1 0x40 MLOAD SWAP1 DUP2 ADD PUSH1 0x40 MSTORE DUP1 SWAP3 SWAP2 SWAP1 DUP2 DUP2 MSTORE PUSH1 0x20 ADD DUP3 DUP1 SLOAD PUSH2 0x25E3 SWAP1 PUSH2 0x5BA1 JUMP JUMPDEST DUP1 ISZERO PUSH2 0x262E JUMPI DUP1 PUSH1 0x1F LT PUSH2 0x2605 JUMPI PUSH2 0x100 DUP1 DUP4 SLOAD DIV MUL DUP4 MSTORE SWAP2 PUSH1 0x20 ADD SWAP2 PUSH2 0x262E JUMP JUMPDEST DUP3 ADD SWAP2 SWAP1 PUSH0 MSTORE PUSH1 0x20 PUSH0 KECCAK256 SWAP1 JUMPDEST DUP2 SLOAD DUP2 MSTORE SWAP1 PUSH1 0x1 ADD SWAP1 PUSH1 0x20 ADD DUP1 DUP4 GT PUSH2 0x2611 JUMPI DUP3 SWAP1 SUB PUSH1 0x1F AND DUP3 ADD SWAP2 JUMPDEST POP POP POP POP PUSH1 0x2 DUP4 ADD SLOAD PUSH1 0x3 DUP5 ADD SLOAD PUSH1 0x4 DUP6 ADD SLOAD PUSH1 0x5 DUP7 ADD SLOAD PUSH1 0x6 DUP8 ADD SLOAD PUSH1 0x7 SWAP1 SWAP8 ADD SLOAD SWAP6 SWAP7 SWAP4 SWAP6 PUSH1 0xFF DUP1 DUP6 AND SWAP7 POP PUSH2 0x100 SWAP1 SWAP5 DIV DUP5 AND SWAP5 SWAP3 SWAP4 SWAP2 SWAP3 SWAP2 AND DUP10 JUMP JUMPDEST PUSH2 0x2678 DUP3 DUP3 PUSH2 0x330C JUMP JUMPDEST POP POP JUMP JUMPDEST PUSH2 0x2684 PUSH2 0x3056 JUMP JUMPDEST PUSH2 0x26A0 JUMPI PUSH1 0x40 MLOAD PUSH3 0x461BCD PUSH1 0xE5 SHL DUP2 MSTORE PUSH1 0x4 ADD PUSH2 0x1751 SWAP1 PUSH2 0x5C05 JUMP JUMPDEST PUSH1 0x7 DUP1 SLOAD PUSH1 0x1 PUSH1 0x1 PUSH1 0xA0 SHL SUB NOT AND PUSH1 0x1 PUSH1 0x1 PUSH1 0xA0 SHL SUB SWAP3 SWAP1 SWAP3 AND SWAP2 SWAP1 SWAP2 OR SWAP1 SSTORE JUMP JUMPDEST CALLER PUSH2 0x26CC DUP2 PUSH2 0x2BFD JUMP JUMPDEST PUSH2 0x2712 JUMPI PUSH1 0x40 MLOAD PUSH3 0x461BCD PUSH1 0xE5 SHL DUP2 MSTORE PUSH1 0x20 PUSH1 0x4 DUP3 ADD MSTORE PUSH1 0x17 PUSH1 0x24 DUP3 ADD MSTORE PUSH23 0x596F7520617265206E6F74207265676973746572656421 PUSH1 0x48 SHL PUSH1 0x44 DUP3 ADD MSTORE PUSH1 0x64 ADD PUSH2 0x1751 JUMP JUMPDEST PUSH1 0x1 PUSH1 0x1 PUSH1 0xA0 SHL SUB DUP2 AND PUSH0 SWAP1 DUP2 MSTORE PUSH1 0x12 PUSH1 0x20 MSTORE PUSH1 0x40 SWAP1 KECCAK256 PUSH1 0xB ADD SLOAD PUSH2 0x100 SWAP1 DIV PUSH1 0xFF AND ISZERO PUSH2 0x2798 JUMPI PUSH1 0x40 MLOAD PUSH3 0x461BCD PUSH1 0xE5 SHL DUP2 MSTORE PUSH1 0x20 PUSH1 0x4 DUP3 ADD MSTORE PUSH1 0x2D PUSH1 0x24 DUP3 ADD MSTORE PUSH32 0x4F6E6C792066697273742074696D6520746F70757020697320616C6C6F776564 PUSH1 0x44 DUP3 ADD MSTORE PUSH13 0x10333937B6903BB0B63632BA17 PUSH1 0x99 SHL PUSH1 0x64 DUP3 ADD MSTORE PUSH1 0x84 ADD PUSH2 0x1751 JUMP JUMPDEST DUP2 PUSH2 0x27A5 DUP3 PUSH1 0xE SLOAD PUSH2 0x2C50 JUMP JUMPDEST LT ISZERO PUSH2 0x27F3 JUMPI PUSH1 0x40 MLOAD PUSH3 0x461BCD PUSH1 0xE5 SHL DUP2 MSTORE PUSH1 0x20 PUSH1 0x4 DUP3 ADD MSTORE PUSH1 0x1D PUSH1 0x24 DUP3 ADD MSTORE PUSH32 0x496E73756666696369656E742066756E647320696E2077616C6C657421000000 PUSH1 0x44 DUP3 ADD MSTORE PUSH1 0x64 ADD PUSH2 0x1751 JUMP JUMPDEST PUSH2 0x27FE DUP2 DUP5 DUP5 PUSH2 0x346E JUMP JUMPDEST POP PUSH1 0x1 PUSH1 0x1 PUSH1 0xA0 SHL SUB DUP2 AND PUSH0 SWAP1 DUP2 MSTORE PUSH1 0x1A PUSH1 0x20 SWAP1 DUP2 MSTORE PUSH1 0x40 DUP1 DUP4 KECCAK256 PUSH1 0x2 DUP5 MSTORE SWAP1 SWAP2 MSTORE DUP2 KECCAK256 DUP1 SLOAD DUP5 SWAP3 SWAP1 PUSH2 0x2832 SWAP1 DUP5 SWAP1 PUSH2 0x5B39 JUMP JUMPDEST SWAP1 SWAP2 SSTORE POP POP POP POP POP JUMP JUMPDEST PUSH2 0x2844 PUSH2 0x3056 JUMP JUMPDEST PUSH2 0x2860 JUMPI PUSH1 0x40 MLOAD PUSH3 0x461BCD PUSH1 0xE5 SHL DUP2 MSTORE PUSH1 0x4 ADD PUSH2 0x1751 SWAP1 PUSH2 0x5C05 JUMP JUMPDEST PUSH1 0x1 PUSH0 MSTORE PUSH1 0xF PUSH1 0x20 MSTORE PUSH32 0x169F97DE0D9A84D840042B17D3C6B9638B3D6FD9024C9EB0C7A306A17B49F894 SSTORE JUMP JUMPDEST PUSH2 0x2895 PUSH2 0x3056 JUMP JUMPDEST PUSH2 0x28B1 JUMPI PUSH1 0x40 MLOAD PUSH3 0x461BCD PUSH1 0xE5 SHL DUP2 MSTORE PUSH1 0x4 ADD PUSH2 0x1751 SWAP1 PUSH2 0x5C05 JUMP JUMPDEST PUSH1 0x6 DUP1 SLOAD PUSH1 0x1 PUSH1 0x1 PUSH1 0xA0 SHL SUB NOT AND PUSH1 0x1 PUSH1 0x1 PUSH1 0xA0 SHL SUB SWAP3 SWAP1 SWAP3 AND SWAP2 SWAP1 SWAP2 OR SWAP1 SSTORE JUMP JUMPDEST PUSH1 0x1 PUSH1 0x1 PUSH1 0xA0 SHL SUB DUP4 AND PUSH0 SWAP1 DUP2 MSTORE PUSH1 0x14 PUSH1 0x20 SWAP1 DUP2 MSTORE PUSH1 0x40 DUP1 DUP4 KECCAK256 PUSH1 0x5 ADD DUP1 SLOAD DUP3 MLOAD DUP2 DUP6 MUL DUP2 ADD DUP6 ADD SWAP1 SWAP4 MSTORE DUP1 DUP4 MSTORE PUSH1 0x60 SWAP5 SWAP4 DUP4 ADD DUP3 DUP3 DUP1 ISZERO PUSH2 0x293C JUMPI PUSH1 0x20 MUL DUP3 ADD SWAP2 SWAP1 PUSH0 MSTORE PUSH1 0x20 PUSH0 KECCAK256 SWAP1 JUMPDEST DUP2 SLOAD PUSH1 0x1 PUSH1 0x1 PUSH1 0xA0 SHL SUB AND DUP2 MSTORE PUSH1 0x1 SWAP1 SWAP2 ADD SWAP1 PUSH1 0x20 ADD DUP1 DUP4 GT PUSH2 0x291E JUMPI JUMPDEST POP POP DUP4 MLOAD SWAP4 SWAP5 POP PUSH0 SWAP3 POP DUP4 SWAP2 POP PUSH2 0x2955 SWAP1 POP DUP7 DUP9 PUSH2 0x5B22 JUMP JUMPDEST GT PUSH2 0x2969 JUMPI PUSH2 0x2964 DUP6 DUP8 PUSH2 0x5B22 JUMP JUMPDEST PUSH2 0x296B JUMP JUMPDEST DUP2 JUMPDEST SWAP1 POP PUSH0 DUP6 DUP3 LT ISZERO PUSH2 0x297C JUMPI PUSH0 PUSH2 0x2986 JUMP JUMPDEST PUSH2 0x2986 DUP7 DUP4 PUSH2 0x5B39 JUMP JUMPDEST SWAP1 POP PUSH0 PUSH2 0x2993 DUP3 DUP5 PUSH2 0x5B39 JUMP JUMPDEST SWAP1 POP DUP1 PUSH8 0xFFFFFFFFFFFFFFFF DUP2 GT ISZERO PUSH2 0x29AE JUMPI PUSH2 0x29AE PUSH2 0x5B4C JUMP JUMPDEST PUSH1 0x40 MLOAD SWAP1 DUP1 DUP3 MSTORE DUP1 PUSH1 0x20 MUL PUSH1 0x20 ADD DUP3 ADD PUSH1 0x40 MSTORE DUP1 ISZERO PUSH2 0x2A0F JUMPI DUP2 PUSH1 0x20 ADD JUMPDEST PUSH2 0x29FC PUSH1 0x40 MLOAD DUP1 PUSH1 0x80 ADD PUSH1 0x40 MSTORE DUP1 PUSH0 DUP2 MSTORE PUSH1 0x20 ADD PUSH0 PUSH1 0x1 PUSH1 0x1 PUSH1 0xA0 SHL SUB AND DUP2 MSTORE PUSH1 0x20 ADD PUSH0 DUP2 MSTORE PUSH1 0x20 ADD PUSH0 DUP2 MSTORE POP SWAP1 JUMP JUMPDEST DUP2 MSTORE PUSH1 0x20 ADD SWAP1 PUSH1 0x1 SWAP1 SUB SWAP1 DUP2 PUSH2 0x29CC JUMPI SWAP1 POP JUMPDEST POP SWAP6 POP PUSH0 DUP4 JUMPDEST DUP4 DUP2 GT ISZERO PUSH2 0x2B2F JUMPI PUSH0 DUP8 PUSH2 0x2A2A PUSH1 0x1 DUP5 PUSH2 0x5B39 JUMP JUMPDEST DUP2 MLOAD DUP2 LT PUSH2 0x2A3A JUMPI PUSH2 0x2A3A PUSH2 0x5B78 JUMP JUMPDEST PUSH1 0x20 MUL PUSH1 0x20 ADD ADD MLOAD SWAP1 POP PUSH1 0x40 MLOAD DUP1 PUSH1 0x80 ADD PUSH1 0x40 MSTORE DUP1 DUP4 DUP2 MSTORE PUSH1 0x20 ADD DUP3 PUSH1 0x1 PUSH1 0x1 PUSH1 0xA0 SHL SUB AND DUP2 MSTORE PUSH1 0x20 ADD PUSH1 0x12 PUSH0 DUP5 PUSH1 0x1 PUSH1 0x1 PUSH1 0xA0 SHL SUB AND PUSH1 0x1 PUSH1 0x1 PUSH1 0xA0 SHL SUB AND DUP2 MSTORE PUSH1 0x20 ADD SWAP1 DUP2 MSTORE PUSH1 0x20 ADD PUSH0 KECCAK256 PUSH1 0x4 ADD SLOAD DUP2 MSTORE PUSH1 0x20 ADD PUSH1 0x14 PUSH0 PUSH1 0x14 PUSH0 DUP7 PUSH1 0x1 PUSH1 0x1 PUSH1 0xA0 SHL SUB AND PUSH1 0x1 PUSH1 0x1 PUSH1 0xA0 SHL SUB AND DUP2 MSTORE PUSH1 0x20 ADD SWAP1 DUP2 MSTORE PUSH1 0x20 ADD PUSH0 KECCAK256 PUSH1 0x1 ADD DUP7 DUP2 SLOAD DUP2 LT PUSH2 0x2ACA JUMPI PUSH2 0x2ACA PUSH2 0x5B78 JUMP JUMPDEST PUSH0 SWAP2 DUP3 MSTORE PUSH1 0x20 DUP1 DUP4 KECCAK256 SWAP1 SWAP2 ADD SLOAD PUSH1 0x1 PUSH1 0x1 PUSH1 0xA0 SHL SUB AND DUP4 MSTORE DUP3 ADD SWAP3 SWAP1 SWAP3 MSTORE PUSH1 0x40 ADD SWAP1 KECCAK256 PUSH1 0x4 ADD SLOAD SWAP1 MSTORE DUP10 DUP5 PUSH2 0x2AFE DUP2 PUSH2 0x5B60 JUMP JUMPDEST SWAP6 POP DUP2 MLOAD DUP2 LT PUSH2 0x2B10 JUMPI PUSH2 0x2B10 PUSH2 0x5B78 JUMP JUMPDEST PUSH1 0x20 MUL PUSH1 0x20 ADD ADD DUP2 SWAP1 MSTORE POP POP DUP1 DUP1 PUSH2 0x2B27 SWAP1 PUSH2 0x5B8C JUMP JUMPDEST SWAP2 POP POP PUSH2 0x2A15 JUMP JUMPDEST POP POP POP POP POP POP POP SWAP4 SWAP3 POP POP POP JUMP JUMPDEST PUSH1 0x11 PUSH1 0x20 MSTORE PUSH0 SWAP1 DUP2 MSTORE PUSH1 0x40 SWAP1 KECCAK256 DUP1 SLOAD PUSH1 0x1 DUP3 ADD DUP1 SLOAD SWAP2 SWAP3 SWAP2 PUSH2 0x2B5E SWAP1 PUSH2 0x5BA1 JUMP JUMPDEST DUP1 PUSH1 0x1F ADD PUSH1 0x20 DUP1 SWAP2 DIV MUL PUSH1 0x20 ADD PUSH1 0x40 MLOAD SWAP1 DUP2 ADD PUSH1 0x40 MSTORE DUP1 SWAP3 SWAP2 SWAP1 DUP2 DUP2 MSTORE PUSH1 0x20 ADD DUP3 DUP1 SLOAD PUSH2 0x2B8A SWAP1 PUSH2 0x5BA1 JUMP JUMPDEST DUP1 ISZERO PUSH2 0x2BD5 JUMPI DUP1 PUSH1 0x1F LT PUSH2 0x2BAC JUMPI PUSH2 0x100 DUP1 DUP4 SLOAD DIV MUL DUP4 MSTORE SWAP2 PUSH1 0x20 ADD SWAP2 PUSH2 0x2BD5 JUMP JUMPDEST DUP3 ADD SWAP2 SWAP1 PUSH0 MSTORE PUSH1 0x20 PUSH0 KECCAK256 SWAP1 JUMPDEST DUP2 SLOAD DUP2 MSTORE SWAP1 PUSH1 0x1 ADD SWAP1 PUSH1 0x20 ADD DUP1 DUP4 GT PUSH2 0x2BB8 JUMPI DUP3 SWAP1 SUB PUSH1 0x1F AND DUP3 ADD SWAP2 JUMPDEST POP POP POP POP POP SWAP1 DUP1 PUSH1 0x2 ADD SLOAD SWAP1 DUP1 PUSH1 0x3 ADD SLOAD SWAP1 DUP1 PUSH1 0x4 ADD SLOAD SWAP1 DUP1 PUSH1 0x5 ADD SLOAD SWAP1 DUP1 PUSH1 0x6 ADD SLOAD SWAP1 POP DUP8 JUMP JUMPDEST PUSH1 0x1 PUSH1 0x1 PUSH1 0xA0 SHL SUB DUP2 AND PUSH0 SWAP1 DUP2 MSTORE PUSH1 0x12 PUSH1 0x20 MSTORE PUSH1 0x40 DUP2 KECCAK256 SLOAD ISZERO ISZERO DUP1 ISZERO PUSH2 0x2C3E JUMPI POP PUSH1 0x1 PUSH1 0x1 PUSH1 0xA0 SHL SUB DUP3 AND PUSH0 SWAP1 DUP2 MSTORE PUSH1 0x12 PUSH1 0x20 MSTORE PUSH1 0x40 SWAP1 KECCAK256 PUSH1 0x6 ADD SLOAD PUSH1 0xFF AND ISZERO JUMPDEST SWAP3 SWAP2 POP POP JUMP JUMPDEST PUSH2 0x2C4D DUP2 PUSH2 0x38CC JUMP JUMPDEST POP JUMP JUMPDEST PUSH1 0x1 PUSH1 0x1 PUSH1 0xA0 SHL SUB SWAP2 SWAP1 SWAP2 AND PUSH0 SWAP1 DUP2 MSTORE PUSH1 0x1A PUSH1 0x20 SWAP1 DUP2 MSTORE PUSH1 0x40 DUP1 DUP4 KECCAK256 SWAP4 DUP4 MSTORE SWAP3 SWAP1 MSTORE KECCAK256 SLOAD SWAP1 JUMP JUMPDEST CALLER PUSH0 SWAP1 DUP2 MSTORE PUSH1 0x12 PUSH1 0x20 MSTORE PUSH1 0x40 DUP2 KECCAK256 PUSH1 0x9 ADD SLOAD TIMESTAMP LT ISZERO PUSH2 0x2CC2 JUMPI PUSH1 0x40 MLOAD PUSH3 0x461BCD PUSH1 0xE5 SHL DUP2 MSTORE PUSH1 0x20 PUSH1 0x4 DUP3 ADD MSTORE PUSH1 0x7 PUSH1 0x24 DUP3 ADD MSTORE PUSH7 0x41637469766521 PUSH1 0xC8 SHL PUSH1 0x44 DUP3 ADD MSTORE PUSH1 0x64 ADD PUSH2 0x1751 JUMP JUMPDEST PUSH2 0x2CCD CALLER TIMESTAMP PUSH0 PUSH2 0x399F JUMP JUMPDEST SWAP1 POP SWAP1 JUMP JUMPDEST PUSH0 DUP2 DUP2 MSTORE PUSH1 0x10 PUSH1 0x20 SWAP1 DUP2 MSTORE PUSH1 0x40 DUP1 DUP4 KECCAK256 PUSH1 0x2 ADD SLOAD PUSH1 0x1 PUSH1 0x1 PUSH1 0xA0 SHL SUB DUP7 AND DUP5 MSTORE PUSH1 0x12 SWAP1 SWAP3 MSTORE DUP3 KECCAK256 PUSH1 0xA ADD SLOAD LT PUSH2 0x2D0A JUMPI POP PUSH1 0x1 PUSH2 0x2C3E JUMP JUMPDEST POP PUSH0 SWAP3 SWAP2 POP POP JUMP JUMPDEST PUSH1 0x1 PUSH1 0x1 PUSH1 0xA0 SHL SUB DUP2 AND PUSH0 SWAP1 DUP2 MSTORE PUSH1 0x19 PUSH1 0x20 SWAP1 DUP2 MSTORE PUSH1 0x40 DUP1 DUP4 KECCAK256 DUP2 MLOAD PUSH1 0xE0 DUP2 ADD DUP4 MSTORE DUP2 SLOAD DUP2 MSTORE PUSH1 0x1 DUP3 ADD SLOAD DUP2 DUP6 ADD MSTORE PUSH1 0x2 DUP3 ADD SLOAD DUP2 DUP5 ADD MSTORE PUSH1 0x3 DUP3 ADD DUP1 SLOAD DUP5 MLOAD DUP2 DUP8 MUL DUP2 ADD DUP8 ADD SWAP1 SWAP6 MSTORE DUP1 DUP6 MSTORE DUP7 SWAP6 DUP7 SWAP6 SWAP4 SWAP5 SWAP4 PUSH1 0x60 DUP7 ADD SWAP4 SWAP1 SWAP3 SWAP1 SWAP2 DUP4 ADD DUP3 DUP3 DUP1 ISZERO PUSH2 0x2D9C JUMPI PUSH1 0x20 MUL DUP3 ADD SWAP2 SWAP1 PUSH0 MSTORE PUSH1 0x20 PUSH0 KECCAK256 SWAP1 JUMPDEST DUP2 SLOAD DUP2 MSTORE PUSH1 0x20 ADD SWAP1 PUSH1 0x1 ADD SWAP1 DUP1 DUP4 GT PUSH2 0x2D88 JUMPI JUMPDEST POP POP POP POP POP DUP2 MSTORE PUSH1 0x20 ADD PUSH1 0x4 DUP3 ADD SLOAD DUP2 MSTORE PUSH1 0x20 ADD PUSH1 0x5 DUP3 ADD SLOAD DUP2 MSTORE PUSH1 0x20 ADD PUSH1 0x6 DUP3 ADD SLOAD DUP2 MSTORE POP POP SWAP1 POP PUSH0 JUMPDEST DUP2 PUSH1 0x60 ADD MLOAD MLOAD DUP2 LT ISZERO PUSH2 0x2E07 JUMPI DUP2 PUSH1 0x60 ADD MLOAD DUP2 DUP2 MLOAD DUP2 LT PUSH2 0x2DEA JUMPI PUSH2 0x2DEA PUSH2 0x5B78 JUMP JUMPDEST PUSH1 0x20 MUL PUSH1 0x20 ADD ADD MLOAD DUP4 PUSH2 0x2DFD SWAP2 SWAP1 PUSH2 0x5BF2 JUMP JUMPDEST SWAP3 POP PUSH1 0x1 ADD PUSH2 0x2DC7 JUMP JUMPDEST POP SWAP1 SWAP4 SWAP3 POP POP POP JUMP JUMPDEST PUSH1 0x1 PUSH1 0x1 PUSH1 0xA0 SHL SUB DUP2 AND PUSH0 SWAP1 DUP2 MSTORE PUSH1 0x1B PUSH1 0x20 MSTORE PUSH1 0x40 DUP2 KECCAK256 SLOAD TIMESTAMP SWAP1 DUP3 SWAP1 PUSH1 0x1 JUMPDEST DUP2 DUP2 GT PUSH2 0x2EC3 JUMPI PUSH1 0x1 PUSH1 0x1 PUSH1 0xA0 SHL SUB DUP7 AND PUSH0 SWAP1 DUP2 MSTORE PUSH1 0x15 PUSH1 0x20 SWAP1 DUP2 MSTORE PUSH1 0x40 DUP1 DUP4 KECCAK256 DUP5 DUP5 MSTORE DUP3 MSTORE SWAP2 DUP3 SWAP1 KECCAK256 DUP3 MLOAD PUSH1 0xA0 DUP2 ADD DUP5 MSTORE DUP2 SLOAD DUP2 MSTORE PUSH1 0x1 DUP3 ADD SLOAD SWAP3 DUP2 ADD SWAP3 SWAP1 SWAP3 MSTORE PUSH1 0x2 DUP2 ADD SLOAD SWAP3 DUP3 ADD SWAP3 SWAP1 SWAP3 MSTORE PUSH1 0x3 DUP3 ADD SLOAD PUSH1 0x60 DUP3 ADD DUP2 SWAP1 MSTORE PUSH1 0x4 SWAP1 SWAP3 ADD SLOAD PUSH1 0x80 DUP3 ADD DUP2 SWAP1 MSTORE SWAP1 SWAP2 GT ISZERO PUSH2 0x2EB0 JUMPI PUSH1 0x20 DUP2 ADD MLOAD PUSH2 0x2EAD SWAP1 DUP6 PUSH2 0x5BF2 JUMP JUMPDEST SWAP4 POP JUMPDEST POP DUP1 PUSH2 0x2EBB DUP2 PUSH2 0x5B60 JUMP JUMPDEST SWAP2 POP POP PUSH2 0x2E2F JUMP JUMPDEST POP PUSH1 0x1 PUSH1 0x1 PUSH1 0xA0 SHL SUB DUP6 AND PUSH0 SWAP1 DUP2 MSTORE PUSH1 0x12 PUSH1 0x20 MSTORE PUSH1 0x40 SWAP1 KECCAK256 PUSH1 0x8 DUP2 ADD SLOAD PUSH1 0x9 SWAP1 SWAP2 ADD SLOAD DUP2 DUP6 GT ISZERO DUP1 PUSH2 0x2EF5 JUMPI POP DUP2 DUP2 GT ISZERO JUMPDEST ISZERO PUSH2 0x2F06 JUMPI POP PUSH0 SWAP7 SWAP6 POP POP POP POP POP POP JUMP JUMPDEST PUSH0 DUP3 DUP7 DUP4 GT ISZERO PUSH2 0x2F16 JUMPI DUP7 PUSH2 0x2F18 JUMP JUMPDEST DUP3 JUMPDEST PUSH2 0x2F22 SWAP2 SWAP1 PUSH2 0x5B39 JUMP JUMPDEST SWAP1 POP PUSH0 PUSH2 0x2F2F DUP5 DUP5 PUSH2 0x5B39 JUMP JUMPDEST SWAP1 POP PUSH0 PUSH2 0x2F3D DUP3 PUSH1 0x64 PUSH2 0x5B22 JUMP JUMPDEST DUP4 PUSH2 0x2F49 DUP10 PUSH1 0xA PUSH2 0x5B22 JUMP JUMPDEST PUSH2 0x2F53 SWAP2 SWAP1 PUSH2 0x5B22 JUMP JUMPDEST PUSH2 0x2F5D SWAP2 SWAP1 PUSH2 0x5BD3 JUMP JUMPDEST SWAP1 POP PUSH2 0x2F69 DUP11 DUP3 PUSH2 0x3A5F JUMP JUMPDEST SWAP11 SWAP10 POP POP POP POP POP POP POP POP POP POP JUMP JUMPDEST PUSH0 PUSH2 0x2F81 DUP3 PUSH2 0x2D12 JUMP JUMPDEST PUSH1 0x1 PUSH1 0x1 PUSH1 0xA0 SHL SUB DUP4 AND PUSH0 SWAP1 DUP2 MSTORE PUSH1 0x19 PUSH1 0x20 MSTORE PUSH1 0x40 SWAP1 KECCAK256 PUSH1 0x5 DUP2 ADD SLOAD PUSH1 0x1 DUP3 ADD SLOAD PUSH1 0x2 DUP4 ADD SLOAD SWAP3 SLOAD SWAP2 SWAP3 SWAP1 SWAP2 PUSH2 0x2FB7 SWAP2 SWAP1 PUSH2 0x5BF2 JUMP JUMPDEST PUSH2 0x2FC1 SWAP2 SWAP1 PUSH2 0x5BF2 JUMP JUMPDEST PUSH2 0x2FCB SWAP2 SWAP1 PUSH2 0x5BF2 JUMP JUMPDEST PUSH2 0x2C3E SWAP2 SWAP1 PUSH2 0x5BF2 JUMP JUMPDEST PUSH1 0x1 PUSH1 0x1 PUSH1 0xA0 SHL SUB DUP2 AND PUSH0 SWAP1 DUP2 MSTORE PUSH1 0x12 PUSH1 0x20 MSTORE PUSH1 0x40 DUP2 KECCAK256 PUSH1 0x4 DUP2 ADD SLOAD PUSH1 0xB SWAP1 SWAP2 ADD SLOAD PUSH1 0xFF AND PUSH2 0x3005 JUMPI PUSH1 0x3 PUSH2 0x3008 JUMP JUMPDEST PUSH1 0x4 JUMPDEST PUSH1 0xFF AND PUSH2 0x2C3E SWAP2 SWAP1 PUSH2 0x5B22 JUMP JUMPDEST PUSH1 0x1 PUSH1 0x1 PUSH1 0xA0 SHL SUB DUP2 AND PUSH0 SWAP1 DUP2 MSTORE PUSH1 0x12 PUSH1 0x20 MSTORE PUSH1 0x40 DUP2 KECCAK256 PUSH1 0x7 ADD SLOAD PUSH2 0x2C3E SWAP1 PUSH2 0xA8C PUSH2 0x5BF2 JUMP JUMPDEST PUSH0 PUSH2 0x3046 DUP3 PUSH2 0x2FD5 JUMP JUMPDEST PUSH2 0x304F DUP4 PUSH2 0x2F77 JUMP JUMPDEST LT SWAP3 SWAP2 POP POP JUMP JUMPDEST PUSH1 0x3 SLOAD PUSH0 SWAP1 PUSH1 0x1 PUSH1 0x1 PUSH1 0xA0 SHL SUB AND CALLER EQ DUP1 PUSH2 0x2CCD JUMPI POP POP PUSH1 0xC SLOAD PUSH2 0x100 SWAP1 DIV PUSH1 0x1 PUSH1 0x1 PUSH1 0xA0 SHL SUB AND CALLER EQ SWAP1 JUMP JUMPDEST PUSH1 0x1 PUSH1 0x1 PUSH1 0xA0 SHL SUB DUP2 AND PUSH0 SWAP1 DUP2 MSTORE PUSH1 0x12 PUSH1 0x20 MSTORE PUSH1 0x40 DUP2 KECCAK256 PUSH1 0x9 ADD SLOAD TIMESTAMP LT ISZERO DUP1 PUSH2 0x2C3E JUMPI POP PUSH2 0x30B0 DUP3 PUSH2 0x303C JUMP JUMPDEST ISZERO SWAP3 SWAP2 POP POP JUMP JUMPDEST PUSH0 PUSH2 0x30C4 PUSH1 0x12 PUSH1 0xA PUSH2 0x5D16 JUMP JUMPDEST PUSH2 0x2C3E SWAP1 DUP4 PUSH2 0x5B22 JUMP JUMPDEST PUSH1 0x40 MLOAD PUSH4 0x70A08231 PUSH1 0xE0 SHL DUP2 MSTORE ADDRESS PUSH1 0x4 DUP3 ADD MSTORE PUSH0 SWAP1 PUSH20 0x4622B46DF102FD8648385BC96FD7A837111AEC61 SWAP1 PUSH4 0x70A08231 SWAP1 PUSH1 0x24 ADD PUSH1 0x20 PUSH1 0x40 MLOAD DUP1 DUP4 SUB DUP2 DUP7 GAS STATICCALL ISZERO DUP1 ISZERO PUSH2 0x311D JUMPI RETURNDATASIZE PUSH0 DUP1 RETURNDATACOPY RETURNDATASIZE PUSH0 REVERT JUMPDEST POP POP POP POP PUSH1 0x40 MLOAD RETURNDATASIZE PUSH1 0x1F NOT PUSH1 0x1F DUP3 ADD AND DUP3 ADD DUP1 PUSH1 0x40 MSTORE POP DUP2 ADD SWAP1 PUSH2 0x2CCD SWAP2 SWAP1 PUSH2 0x5D21 JUMP JUMPDEST PUSH1 0x40 MLOAD PUSH4 0xA9059CBB PUSH1 0xE0 SHL DUP2 MSTORE PUSH1 0x1 PUSH1 0x1 PUSH1 0xA0 SHL SUB DUP4 AND PUSH1 0x4 DUP3 ADD MSTORE PUSH1 0x24 DUP2 ADD DUP3 SWAP1 MSTORE PUSH20 0x4622B46DF102FD8648385BC96FD7A837111AEC61 SWAP1 PUSH4 0xA9059CBB SWAP1 PUSH1 0x44 ADD PUSH1 0x20 PUSH1 0x40 MLOAD DUP1 DUP4 SUB DUP2 PUSH0 DUP8 GAS CALL ISZERO DUP1 ISZERO PUSH2 0x319F JUMPI RETURNDATASIZE PUSH0 DUP1 RETURNDATACOPY RETURNDATASIZE PUSH0 REVERT JUMPDEST POP POP POP POP PUSH1 0x40 MLOAD RETURNDATASIZE PUSH1 0x1F NOT PUSH1 0x1F DUP3 ADD AND DUP3 ADD DUP1 PUSH1 0x40 MSTORE POP DUP2 ADD SWAP1 PUSH2 0x31C3 SWAP2 SWAP1 PUSH2 0x5D38 JUMP JUMPDEST POP POP POP JUMP JUMPDEST PUSH1 0x7 SLOAD PUSH1 0x1 PUSH1 0x1 PUSH1 0xA0 SHL SUB AND PUSH2 0x3220 JUMPI PUSH1 0x40 MLOAD PUSH3 0x461BCD PUSH1 0xE5 SHL DUP2 MSTORE PUSH1 0x20 PUSH1 0x4 DUP3 ADD MSTORE PUSH1 0x1E PUSH1 0x24 DUP3 ADD MSTORE PUSH32 0x53656375726974792066756E6420636F6E7472616374206E6F74207365740000 PUSH1 0x44 DUP3 ADD MSTORE PUSH1 0x64 ADD PUSH2 0x1751 JUMP JUMPDEST PUSH1 0x7 SLOAD PUSH1 0x40 MLOAD PUSH4 0x58908A0F PUSH1 0xE0 SHL DUP2 MSTORE PUSH20 0x4622B46DF102FD8648385BC96FD7A837111AEC61 PUSH1 0x4 DUP3 ADD MSTORE PUSH1 0x1 PUSH1 0x1 PUSH1 0xA0 SHL SUB DUP5 DUP2 AND PUSH1 0x24 DUP4 ADD MSTORE PUSH1 0x44 DUP3 ADD DUP5 SWAP1 MSTORE SWAP1 SWAP2 AND SWAP1 PUSH4 0x58908A0F SWAP1 PUSH1 0x64 ADD PUSH0 PUSH1 0x40 MLOAD DUP1 DUP4 SUB DUP2 PUSH0 DUP8 DUP1 EXTCODESIZE ISZERO DUP1 ISZERO PUSH2 0x3285 JUMPI PUSH0 DUP1 REVERT JUMPDEST POP GAS CALL ISZERO DUP1 ISZERO PUSH2 0x1D01 JUMPI RETURNDATASIZE PUSH0 DUP1 RETURNDATACOPY RETURNDATASIZE PUSH0 REVERT JUMPDEST PUSH1 0x1 PUSH1 0x1 PUSH1 0xA0 SHL SUB DUP3 AND PUSH0 SWAP1 DUP2 MSTORE PUSH1 0x1B PUSH1 0x20 MSTORE PUSH1 0x40 DUP2 KECCAK256 SLOAD PUSH1 0x1 JUMPDEST DUP2 DUP2 GT PUSH2 0x3302 JUMPI PUSH1 0x1 PUSH1 0x1 PUSH1 0xA0 SHL SUB DUP6 AND PUSH0 SWAP1 DUP2 MSTORE PUSH1 0x15 PUSH1 0x20 SWAP1 DUP2 MSTORE PUSH1 0x40 DUP1 DUP4 KECCAK256 DUP5 DUP5 MSTORE SWAP1 SWAP2 MSTORE SWAP1 KECCAK256 PUSH1 0x1 ADD SLOAD DUP5 GT PUSH2 0x32F0 JUMPI PUSH1 0x1 SWAP3 POP POP POP PUSH2 0x2C3E JUMP JUMPDEST DUP1 PUSH2 0x32FA DUP2 PUSH2 0x5B60 JUMP JUMPDEST SWAP2 POP POP PUSH2 0x32B2 JUMP JUMPDEST POP PUSH0 SWAP5 SWAP4 POP POP POP POP JUMP JUMPDEST CALLER PUSH0 DUP2 DUP2 MSTORE PUSH1 0x12 PUSH1 0x20 MSTORE PUSH1 0x40 SWAP1 KECCAK256 SLOAD PUSH2 0x3361 JUMPI PUSH1 0x40 MLOAD PUSH3 0x461BCD PUSH1 0xE5 SHL DUP2 MSTORE PUSH1 0x20 PUSH1 0x4 DUP3 ADD MSTORE PUSH1 0x17 PUSH1 0x24 DUP3 ADD MSTORE PUSH23 0x596F7520617265206E6F74207265676973746572656421 PUSH1 0x48 SHL PUSH1 0x44 DUP3 ADD MSTORE PUSH1 0x64 ADD PUSH2 0x1751 JUMP JUMPDEST PUSH2 0x336A DUP2 PUSH2 0x3083 JUMP JUMPDEST PUSH2 0x33C8 JUMPI PUSH1 0x40 MLOAD PUSH3 0x461BCD PUSH1 0xE5 SHL DUP2 MSTORE PUSH1 0x20 PUSH1 0x4 DUP3 ADD MSTORE PUSH1 0x29 PUSH1 0x24 DUP3 ADD MSTORE PUSH32 0x4465706F73697420697320616C6C6F776564206F6E6C79206166746572207468 PUSH1 0x44 DUP3 ADD MSTORE PUSH9 0x329032BC3834B93C97 PUSH1 0xB9 SHL PUSH1 0x64 DUP3 ADD MSTORE PUSH1 0x84 ADD PUSH2 0x1751 JUMP JUMPDEST PUSH2 0x33D1 DUP3 PUSH2 0x3B90 JUMP JUMPDEST PUSH0 PUSH2 0x33DD DUP3 DUP6 DUP6 PUSH2 0x346E JUMP JUMPDEST PUSH1 0x3 SLOAD SWAP1 SWAP2 POP PUSH2 0x340C SWAP1 PUSH1 0x1 PUSH1 0x1 PUSH1 0xA0 SHL SUB AND PUSH1 0x64 PUSH2 0x33FD DUP7 PUSH1 0x2 PUSH2 0x5B22 JUMP JUMPDEST PUSH2 0x3407 SWAP2 SWAP1 PUSH2 0x5BD3 JUMP JUMPDEST PUSH2 0x3141 JUMP JUMPDEST PUSH1 0x4 SLOAD PUSH2 0x3429 SWAP1 PUSH1 0x1 PUSH1 0x1 PUSH1 0xA0 SHL SUB AND PUSH1 0x64 PUSH2 0x33FD DUP7 PUSH1 0x1 PUSH2 0x5B22 JUMP JUMPDEST PUSH1 0x6 SLOAD PUSH2 0x3446 SWAP1 PUSH1 0x1 PUSH1 0x1 PUSH1 0xA0 SHL SUB AND PUSH1 0x64 PUSH2 0x33FD DUP7 PUSH1 0x5 PUSH2 0x5B22 JUMP JUMPDEST DUP1 PUSH2 0x3468 JUMPI PUSH1 0x5 SLOAD PUSH2 0x3468 SWAP1 PUSH1 0x1 PUSH1 0x1 PUSH1 0xA0 SHL SUB AND PUSH1 0x64 PUSH2 0x33FD DUP7 PUSH1 0x2 PUSH2 0x5B22 JUMP JUMPDEST POP POP POP POP JUMP JUMPDEST PUSH0 DUP3 DUP2 MSTORE PUSH1 0xF PUSH1 0x20 MSTORE PUSH1 0x40 DUP2 KECCAK256 PUSH1 0x3 ADD SLOAD PUSH1 0xFF AND DUP1 ISZERO PUSH2 0x3515 JUMPI POP PUSH0 DUP4 DUP2 MSTORE PUSH1 0xF PUSH1 0x20 MSTORE PUSH1 0x40 SWAP1 KECCAK256 PUSH1 0x3 ADD SLOAD PUSH2 0x100 SWAP1 DIV PUSH1 0xFF AND ISZERO DUP1 ISZERO PUSH2 0x34BE JUMPI POP PUSH0 DUP4 DUP2 MSTORE PUSH1 0xF PUSH1 0x20 MSTORE PUSH1 0x40 SWAP1 KECCAK256 PUSH1 0x2 ADD SLOAD DUP3 EQ JUMPDEST DUP1 PUSH2 0x3515 JUMPI POP PUSH0 DUP4 DUP2 MSTORE PUSH1 0xF PUSH1 0x20 MSTORE PUSH1 0x40 SWAP1 KECCAK256 PUSH1 0x3 ADD SLOAD PUSH2 0x100 SWAP1 DIV PUSH1 0xFF AND DUP1 ISZERO PUSH2 0x34F9 JUMPI POP PUSH0 DUP4 DUP2 MSTORE PUSH1 0xF PUSH1 0x20 MSTORE PUSH1 0x40 SWAP1 KECCAK256 PUSH1 0x4 ADD SLOAD DUP3 LT ISZERO JUMPDEST DUP1 ISZERO PUSH2 0x3515 JUMPI POP PUSH0 DUP4 DUP2 MSTORE PUSH1 0xF PUSH1 0x20 MSTORE PUSH1 0x40 SWAP1 KECCAK256 PUSH1 0x5 ADD SLOAD DUP3 GT ISZERO JUMPDEST PUSH2 0x3553 JUMPI PUSH1 0x40 MLOAD PUSH3 0x461BCD PUSH1 0xE5 SHL DUP2 MSTORE PUSH1 0x20 PUSH1 0x4 DUP3 ADD MSTORE PUSH1 0xF PUSH1 0x24 DUP3 ADD MSTORE PUSH15 0x496E76616C696420616D6F756E7421 PUSH1 0x88 SHL PUSH1 0x44 DUP3 ADD MSTORE PUSH1 0x64 ADD PUSH2 0x1751 JUMP JUMPDEST PUSH1 0x1 PUSH1 0x1 PUSH1 0xA0 SHL SUB DUP5 AND PUSH0 SWAP1 DUP2 MSTORE PUSH1 0x15 PUSH1 0x20 SWAP1 DUP2 MSTORE PUSH1 0x40 DUP1 DUP4 KECCAK256 PUSH1 0x1B DUP4 MSTORE DUP2 DUP5 KECCAK256 SLOAD DUP5 MSTORE SWAP1 SWAP2 MSTORE SWAP1 KECCAK256 PUSH1 0x1 ADD SLOAD DUP3 LT ISZERO PUSH2 0x35F5 JUMPI PUSH1 0x40 MLOAD PUSH3 0x461BCD PUSH1 0xE5 SHL DUP2 MSTORE PUSH1 0x20 PUSH1 0x4 DUP3 ADD MSTORE PUSH1 0x3D PUSH1 0x24 DUP3 ADD MSTORE PUSH32 0x416D6F756E74206D75737420626520657175616C20746F206F72206D6F726520 PUSH1 0x44 DUP3 ADD MSTORE PUSH32 0x7468616E2070726576696F7573206465706F73697420616D6F756E742E000000 PUSH1 0x64 DUP3 ADD MSTORE PUSH1 0x84 ADD PUSH2 0x1751 JUMP JUMPDEST POP PUSH1 0x1 PUSH1 0x1 PUSH1 0xA0 SHL SUB DUP4 AND PUSH0 SWAP1 DUP2 MSTORE PUSH1 0x12 PUSH1 0x20 MSTORE PUSH1 0x40 DUP2 KECCAK256 PUSH1 0xB ADD SLOAD PUSH1 0x1 DUP1 SLOAD PUSH2 0x100 SWAP1 SWAP3 DIV PUSH1 0xFF AND ISZERO SWAP3 TIMESTAMP SWAP3 DUP6 SWAP3 SWAP2 SWAP1 PUSH2 0x3631 SWAP1 DUP5 SWAP1 PUSH2 0x5BF2 JUMP JUMPDEST SWAP1 SWAP2 SSTORE POP POP PUSH1 0x1 PUSH1 0x1 PUSH1 0xA0 SHL SUB DUP1 DUP7 AND PUSH0 SWAP1 DUP2 MSTORE PUSH1 0x12 PUSH1 0x20 MSTORE PUSH1 0x40 DUP2 KECCAK256 PUSH1 0x2 DUP2 ADD SLOAD PUSH1 0x4 SWAP1 SWAP2 ADD DUP1 SLOAD SWAP2 SWAP1 SWAP4 AND SWAP3 DUP7 SWAP3 SWAP1 SWAP2 PUSH2 0x366E SWAP1 DUP5 SWAP1 PUSH2 0x5BF2 JUMP JUMPDEST SWAP1 SWAP2 SSTORE POP POP PUSH1 0x1 PUSH1 0x1 PUSH1 0xA0 SHL SUB DUP2 AND PUSH0 SWAP1 DUP2 MSTORE PUSH1 0x14 PUSH1 0x20 MSTORE PUSH1 0x40 DUP2 KECCAK256 DUP1 SLOAD DUP7 SWAP3 SWAP1 PUSH2 0x369A SWAP1 DUP5 SWAP1 PUSH2 0x5BF2 JUMP JUMPDEST SWAP1 SWAP2 SSTORE POP POP DUP3 ISZERO PUSH2 0x36FF JUMPI PUSH1 0x1 PUSH1 0x1 PUSH1 0xA0 SHL SUB DUP2 AND ISZERO PUSH2 0x36F5 JUMPI PUSH1 0x1 PUSH1 0x1 PUSH1 0xA0 SHL SUB DUP2 DUP2 AND PUSH0 SWAP1 DUP2 MSTORE PUSH1 0x14 PUSH1 0x20 SWAP1 DUP2 MSTORE PUSH1 0x40 DUP3 KECCAK256 PUSH1 0x1 SWAP1 DUP2 ADD DUP1 SLOAD SWAP2 DUP3 ADD DUP2 SSTORE DUP4 MSTORE SWAP2 KECCAK256 ADD DUP1 SLOAD PUSH1 0x1 PUSH1 0x1 PUSH1 0xA0 SHL SUB NOT AND SWAP2 DUP9 AND SWAP2 SWAP1 SWAP2 OR SWAP1 SSTORE JUMPDEST PUSH2 0x36FF DUP2 DUP8 PUSH2 0x3C72 JUMP JUMPDEST PUSH2 0x3709 DUP7 DUP6 PUSH2 0x3D00 JUMP JUMPDEST PUSH2 0x3712 DUP7 PUSH2 0x3FE9 JUMP JUMPDEST PUSH1 0x40 DUP1 MLOAD PUSH1 0xA0 DUP2 ADD DUP3 MSTORE DUP7 DUP2 MSTORE PUSH1 0x20 DUP1 DUP3 ADD DUP8 SWAP1 MSTORE DUP2 DUP4 ADD DUP6 SWAP1 MSTORE PUSH1 0x1 PUSH1 0x1 PUSH1 0xA0 SHL SUB DUP10 AND PUSH0 SWAP1 DUP2 MSTORE PUSH1 0x12 SWAP1 SWAP2 MSTORE SWAP2 DUP3 KECCAK256 PUSH1 0xB ADD SLOAD PUSH1 0x60 DUP3 ADD SWAP1 DUP8 SWAP1 PUSH1 0xFF AND PUSH2 0x375C JUMPI PUSH1 0x3 PUSH2 0x375F JUMP JUMPDEST PUSH1 0x4 JUMPDEST PUSH1 0xFF AND PUSH2 0x376C SWAP2 SWAP1 PUSH2 0x5B22 JUMP JUMPDEST DUP2 MSTORE PUSH1 0x20 ADD PUSH0 DUP2 MSTORE POP SWAP1 POP PUSH2 0x3782 DUP8 DUP7 PUSH0 PUSH2 0x4023 JUMP JUMPDEST PUSH1 0x1 PUSH1 0x1 PUSH1 0xA0 SHL SUB DUP8 AND PUSH0 SWAP1 DUP2 MSTORE PUSH1 0x15 PUSH1 0x20 SWAP1 DUP2 MSTORE PUSH1 0x40 DUP1 DUP4 KECCAK256 PUSH1 0x1B SWAP1 SWAP3 MSTORE DUP3 KECCAK256 SLOAD DUP4 SWAP3 SWAP1 PUSH2 0x37B2 SWAP1 PUSH1 0x1 PUSH2 0x5BF2 JUMP JUMPDEST DUP2 MSTORE PUSH1 0x20 DUP1 DUP3 ADD SWAP3 SWAP1 SWAP3 MSTORE PUSH1 0x40 SWAP1 DUP2 ADD PUSH0 SWAP1 DUP2 KECCAK256 DUP5 MLOAD DUP2 SSTORE DUP5 DUP5 ADD MLOAD PUSH1 0x1 DUP3 ADD SSTORE DUP5 DUP4 ADD MLOAD PUSH1 0x2 DUP3 ADD SSTORE PUSH1 0x60 DUP6 ADD MLOAD PUSH1 0x3 DUP3 ADD SSTORE PUSH1 0x80 SWAP1 SWAP5 ADD MLOAD PUSH1 0x4 SWAP1 SWAP5 ADD SWAP4 SWAP1 SWAP4 SSTORE PUSH1 0x1 PUSH1 0x1 PUSH1 0xA0 SHL SUB DUP11 AND DUP4 MSTORE PUSH1 0x1B SWAP1 SWAP2 MSTORE DUP2 KECCAK256 DUP1 SLOAD SWAP2 PUSH2 0x3814 DUP4 PUSH2 0x5B60 JUMP JUMPDEST SWAP2 SWAP1 POP SSTORE POP PUSH2 0x3824 DUP8 DUP5 DUP8 PUSH2 0x399F JUMP JUMPDEST POP DUP4 ISZERO PUSH2 0x38C2 JUMPI PUSH1 0x1 PUSH1 0x1 PUSH1 0xA0 SHL SUB DUP8 AND PUSH0 DUP2 DUP2 MSTORE PUSH1 0x12 PUSH1 0x20 MSTORE PUSH1 0x40 DUP2 KECCAK256 PUSH1 0x7 ADD DUP6 SWAP1 SSTORE PUSH1 0x1D DUP1 SLOAD PUSH1 0x1 DUP2 ADD DUP3 SSTORE SWAP2 MSTORE PUSH32 0x6D4407E7BE21F808E6509AA9FA9143369579DD7D760FE20A2C09680FC146134F ADD DUP1 SLOAD PUSH1 0x1 PUSH1 0x1 PUSH1 0xA0 SHL SUB NOT AND SWAP1 SWAP2 OR SWAP1 SSTORE PUSH2 0x3891 DUP8 DUP7 PUSH2 0x4153 JUMP JUMPDEST PUSH2 0x389A DUP6 PUSH2 0x4276 JUMP JUMPDEST PUSH1 0x1 PUSH1 0x1 PUSH1 0xA0 SHL SUB DUP8 AND PUSH0 SWAP1 DUP2 MSTORE PUSH1 0x12 PUSH1 0x20 MSTORE PUSH1 0x40 SWAP1 KECCAK256 PUSH1 0xB ADD DUP1 SLOAD PUSH2 0xFF00 NOT AND PUSH2 0x100 OR SWAP1 SSTORE JUMPDEST POP POP POP SWAP4 SWAP3 POP POP POP JUMP JUMPDEST CALLER PUSH2 0x38D6 DUP3 PUSH2 0x2BFD JUMP JUMPDEST DUP1 ISZERO PUSH2 0x38FB JUMPI POP PUSH1 0x1 PUSH1 0x1 PUSH1 0xA0 SHL SUB DUP3 AND PUSH0 SWAP1 DUP2 MSTORE PUSH1 0x12 PUSH1 0x20 MSTORE PUSH1 0x40 SWAP1 KECCAK256 PUSH1 0x4 ADD SLOAD ISZERO ISZERO JUMPDEST PUSH2 0x393A JUMPI PUSH1 0x40 MLOAD PUSH3 0x461BCD PUSH1 0xE5 SHL DUP2 MSTORE PUSH1 0x20 PUSH1 0x4 DUP3 ADD MSTORE PUSH1 0x10 PUSH1 0x24 DUP3 ADD MSTORE PUSH16 0x496E76616C69642073706F6E736F7221 PUSH1 0x80 SHL PUSH1 0x44 DUP3 ADD MSTORE PUSH1 0x64 ADD PUSH2 0x1751 JUMP JUMPDEST PUSH1 0x1 PUSH1 0x1 PUSH1 0xA0 SHL SUB DUP2 AND PUSH0 SWAP1 DUP2 MSTORE PUSH1 0x12 PUSH1 0x20 MSTORE PUSH1 0x40 SWAP1 KECCAK256 SLOAD ISZERO PUSH2 0x3995 JUMPI PUSH1 0x40 MLOAD PUSH3 0x461BCD PUSH1 0xE5 SHL DUP2 MSTORE PUSH1 0x20 PUSH1 0x4 DUP3 ADD MSTORE PUSH1 0x13 PUSH1 0x24 DUP3 ADD MSTORE PUSH19 0x416C7265616479207265676973746572656421 PUSH1 0x68 SHL PUSH1 0x44 DUP3 ADD MSTORE PUSH1 0x64 ADD PUSH2 0x1751 JUMP JUMPDEST PUSH2 0x2678 DUP2 DUP4 PUSH2 0x46C7 JUMP JUMPDEST PUSH1 0x1 PUSH1 0x1 PUSH1 0xA0 SHL SUB DUP4 AND PUSH0 SWAP1 DUP2 MSTORE PUSH1 0x1B PUSH1 0x20 MSTORE PUSH1 0x40 DUP2 KECCAK256 PUSH1 0x3 ADD SLOAD DUP2 SWAP1 PUSH2 0x39C8 SWAP1 PUSH1 0x2 SWAP1 PUSH2 0x5BD3 JUMP JUMPDEST PUSH2 0x39D3 SWAP1 PUSH1 0xA PUSH2 0x5BF2 JUMP JUMPDEST SWAP1 POP PUSH0 PUSH2 0x39E1 DUP3 PUSH1 0x3C PUSH2 0x5B22 JUMP JUMPDEST PUSH2 0x39EB SWAP1 DUP7 PUSH2 0x5BF2 JUMP JUMPDEST PUSH1 0x1 PUSH1 0x1 PUSH1 0xA0 SHL SUB DUP8 AND PUSH0 SWAP1 DUP2 MSTORE PUSH1 0x12 PUSH1 0x20 SWAP1 DUP2 MSTORE PUSH1 0x40 DUP1 DUP4 KECCAK256 PUSH1 0x8 DUP2 ADD DUP1 SLOAD PUSH1 0x9 SWAP1 SWAP3 ADD DUP1 SLOAD SWAP2 DUP13 SWAP1 SSTORE DUP7 SWAP1 SSTORE PUSH1 0x1B SWAP1 SWAP4 MSTORE SWAP1 DUP4 KECCAK256 PUSH1 0x3 ADD DUP1 SLOAD SWAP5 SWAP6 POP SWAP1 SWAP4 SWAP2 SWAP3 PUSH2 0x3A36 DUP4 PUSH2 0x5B60 JUMP JUMPDEST SWAP2 SWAP1 POP SSTORE POP PUSH2 0x3A48 DUP9 DUP9 DUP5 DUP5 DUP11 PUSH2 0x4ABE JUMP JUMPDEST PUSH2 0x3A51 DUP9 PUSH2 0x4CC6 JUMP JUMPDEST POP PUSH1 0x1 SWAP8 SWAP7 POP POP POP POP POP POP POP JUMP JUMPDEST PUSH1 0x1 PUSH1 0x1 PUSH1 0xA0 SHL SUB DUP3 AND PUSH0 SWAP1 DUP2 MSTORE PUSH1 0x12 PUSH1 0x20 MSTORE PUSH1 0x40 DUP2 KECCAK256 PUSH1 0x9 ADD SLOAD TIMESTAMP LT PUSH2 0x3A87 JUMPI POP PUSH0 PUSH2 0x2C3E JUMP JUMPDEST PUSH1 0x1 PUSH1 0x1 PUSH1 0xA0 SHL SUB DUP4 AND PUSH0 SWAP1 DUP2 MSTORE PUSH1 0x1B PUSH1 0x20 MSTORE PUSH1 0x40 DUP2 KECCAK256 SLOAD SWAP1 DUP4 SWAP1 PUSH1 0x1 JUMPDEST DUP4 DUP2 GT PUSH2 0x3B86 JUMPI PUSH1 0x1 PUSH1 0x1 PUSH1 0xA0 SHL SUB DUP8 AND PUSH0 SWAP1 DUP2 MSTORE PUSH1 0x15 PUSH1 0x20 SWAP1 DUP2 MSTORE PUSH1 0x40 DUP1 DUP4 KECCAK256 DUP5 DUP5 MSTORE DUP3 MSTORE DUP1 DUP4 KECCAK256 DUP2 MLOAD PUSH1 0xA0 DUP2 ADD DUP4 MSTORE DUP2 SLOAD DUP2 MSTORE PUSH1 0x1 DUP3 ADD SLOAD SWAP4 DUP2 ADD SWAP4 SWAP1 SWAP4 MSTORE PUSH1 0x2 DUP2 ADD SLOAD SWAP2 DUP4 ADD SWAP2 SWAP1 SWAP2 MSTORE PUSH1 0x3 DUP2 ADD SLOAD PUSH1 0x60 DUP4 ADD DUP2 SWAP1 MSTORE PUSH1 0x4 SWAP1 SWAP2 ADD SLOAD PUSH1 0x80 DUP4 ADD DUP2 SWAP1 MSTORE SWAP2 SWAP3 SWAP2 LT PUSH2 0x3B19 JUMPI PUSH0 PUSH2 0x3B2D JUMP JUMPDEST DUP2 PUSH1 0x80 ADD MLOAD DUP3 PUSH1 0x60 ADD MLOAD PUSH2 0x3B2D SWAP2 SWAP1 PUSH2 0x5B39 JUMP JUMPDEST SWAP1 POP DUP1 ISZERO PUSH2 0x3B71 JUMPI PUSH0 DUP2 DUP7 GT ISZERO PUSH2 0x3B44 JUMPI DUP2 PUSH2 0x3B46 JUMP JUMPDEST DUP6 JUMPDEST SWAP1 POP PUSH2 0x3B52 DUP2 DUP7 PUSH2 0x5BF2 JUMP JUMPDEST SWAP5 POP PUSH2 0x3B5E DUP2 DUP8 PUSH2 0x5B39 JUMP JUMPDEST SWAP6 POP DUP6 PUSH0 SUB PUSH2 0x3B6F JUMPI POP POP POP PUSH2 0x3B86 JUMP JUMPDEST POP JUMPDEST POP POP DUP1 DUP1 PUSH2 0x3B7E SWAP1 PUSH2 0x5B60 JUMP JUMPDEST SWAP2 POP POP PUSH2 0x3AA5 JUMP JUMPDEST POP SWAP6 SWAP5 POP POP POP POP POP JUMP JUMPDEST PUSH0 PUSH2 0x3B99 PUSH2 0x30CE JUMP JUMPDEST PUSH1 0x40 MLOAD PUSH4 0x23B872DD PUSH1 0xE0 SHL DUP2 MSTORE CALLER PUSH1 0x4 DUP3 ADD MSTORE ADDRESS PUSH1 0x24 DUP3 ADD MSTORE PUSH1 0x44 DUP2 ADD DUP5 SWAP1 MSTORE SWAP1 SWAP2 POP PUSH20 0x4622B46DF102FD8648385BC96FD7A837111AEC61 SWAP1 PUSH4 0x23B872DD SWAP1 PUSH1 0x64 ADD PUSH1 0x20 PUSH1 0x40 MLOAD DUP1 DUP4 SUB DUP2 PUSH0 DUP8 GAS CALL ISZERO DUP1 ISZERO PUSH2 0x3BF7 JUMPI RETURNDATASIZE PUSH0 DUP1 RETURNDATACOPY RETURNDATASIZE PUSH0 REVERT JUMPDEST POP POP POP POP PUSH1 0x40 MLOAD RETURNDATASIZE PUSH1 0x1F NOT PUSH1 0x1F DUP3 ADD AND DUP3 ADD DUP1 PUSH1 0x40 MSTORE POP DUP2 ADD SWAP1 PUSH2 0x3C1B SWAP2 SWAP1 PUSH2 0x5D38 JUMP JUMPDEST POP PUSH0 PUSH2 0x3C25 PUSH2 0x30CE JUMP JUMPDEST SWAP1 POP DUP3 PUSH2 0x3C32 DUP4 DUP4 PUSH2 0x5B39 JUMP JUMPDEST LT ISZERO PUSH2 0x31C3 JUMPI PUSH1 0x40 MLOAD PUSH3 0x461BCD PUSH1 0xE5 SHL DUP2 MSTORE PUSH1 0x20 PUSH1 0x4 DUP3 ADD MSTORE PUSH1 0xF PUSH1 0x24 DUP3 ADD MSTORE PUSH15 0x496E76616C696420616D6F756E7421 PUSH1 0x88 SHL PUSH1 0x44 DUP3 ADD MSTORE PUSH1 0x64 ADD PUSH2 0x1751 JUMP JUMPDEST PUSH1 0x1 PUSH1 0x1 PUSH1 0xA0 SHL SUB DUP3 AND ISZERO PUSH2 0x2678 JUMPI PUSH1 0x1 PUSH1 0x1 PUSH1 0xA0 SHL SUB DUP3 AND PUSH0 SWAP1 DUP2 MSTORE PUSH1 0x12 PUSH1 0x20 MSTORE PUSH1 0x40 DUP2 KECCAK256 PUSH1 0x5 ADD DUP1 SLOAD SWAP2 PUSH2 0x3CA7 DUP4 PUSH2 0x5B60 JUMP JUMPDEST SWAP1 SWAP2 SSTORE POP POP PUSH1 0x1 PUSH1 0x1 PUSH1 0xA0 SHL SUB SWAP2 DUP3 AND PUSH0 DUP2 DUP2 MSTORE PUSH1 0x14 PUSH1 0x20 SWAP1 DUP2 MSTORE PUSH1 0x40 DUP1 DUP4 KECCAK256 PUSH1 0x5 ADD DUP1 SLOAD PUSH1 0x1 DUP2 ADD DUP3 SSTORE SWAP1 DUP5 MSTORE DUP3 DUP5 KECCAK256 ADD DUP1 SLOAD PUSH1 0x1 PUSH1 0x1 PUSH1 0xA0 SHL SUB NOT AND DUP7 DUP9 AND OR SWAP1 SSTORE SWAP3 DUP3 MSTORE PUSH1 0x12 SWAP1 MSTORE KECCAK256 PUSH1 0x2 ADD SLOAD SWAP1 SWAP2 AND SWAP1 PUSH2 0x3C72 JUMP JUMPDEST PUSH1 0x1 PUSH1 0x1 PUSH1 0xA0 SHL SUB DUP1 DUP4 AND PUSH0 SWAP1 DUP2 MSTORE PUSH1 0x12 PUSH1 0x20 MSTORE PUSH1 0x40 SWAP1 KECCAK256 PUSH1 0x2 ADD SLOAD PUSH1 0x1 SWAP2 AND JUMPDEST PUSH1 0x1 PUSH1 0x1 PUSH1 0xA0 SHL SUB DUP2 AND ISZERO PUSH2 0x3468 JUMPI PUSH1 0x1 PUSH1 0x1 PUSH1 0xA0 SHL SUB DUP2 AND PUSH0 SWAP1 DUP2 MSTORE PUSH1 0x14 PUSH1 0x20 MSTORE PUSH1 0x40 DUP2 KECCAK256 PUSH1 0x4 ADD DUP1 SLOAD DUP6 SWAP3 SWAP1 PUSH2 0x3D5A SWAP1 DUP5 SWAP1 PUSH2 0x5BF2 JUMP JUMPDEST SWAP1 SWAP2 SSTORE POP POP PUSH1 0x1 PUSH1 0x1 PUSH1 0xA0 SHL SUB DUP2 AND PUSH0 SWAP1 DUP2 MSTORE PUSH1 0x17 PUSH1 0x20 SWAP1 DUP2 MSTORE PUSH1 0x40 DUP1 DUP4 KECCAK256 DUP6 DUP5 MSTORE SWAP1 SWAP2 MSTORE DUP2 KECCAK256 DUP1 SLOAD DUP6 SWAP3 SWAP1 PUSH2 0x3D91 SWAP1 DUP5 SWAP1 PUSH2 0x5BF2 JUMP JUMPDEST SWAP1 SWAP2 SSTORE POP POP PUSH1 0x1 PUSH1 0x1 PUSH1 0xA0 SHL SUB DUP1 DUP3 AND PUSH0 SWAP1 DUP2 MSTORE PUSH1 0x1C PUSH1 0x20 SWAP1 DUP2 MSTORE PUSH1 0x40 DUP1 DUP4 KECCAK256 SLOAD DUP9 DUP6 AND DUP5 MSTORE PUSH1 0x14 DUP4 MSTORE DUP2 DUP5 KECCAK256 PUSH1 0x4 SWAP1 DUP2 ADD SLOAD PUSH1 0x12 SWAP1 SWAP5 MSTORE SWAP2 DUP5 KECCAK256 SWAP1 SWAP2 ADD SLOAD SWAP4 AND SWAP3 PUSH2 0x3DDD SWAP2 SWAP1 PUSH2 0x5BF2 JUMP JUMPDEST SWAP1 POP PUSH1 0x1 PUSH1 0x1 PUSH1 0xA0 SHL SUB DUP3 AND PUSH2 0x3E2E JUMPI PUSH1 0x1 PUSH1 0x1 PUSH1 0xA0 SHL SUB DUP4 DUP2 AND PUSH0 SWAP1 DUP2 MSTORE PUSH1 0x1C PUSH1 0x20 SWAP1 DUP2 MSTORE PUSH1 0x40 DUP1 DUP4 KECCAK256 DUP1 SLOAD PUSH1 0x1 PUSH1 0x1 PUSH1 0xA0 SHL SUB NOT AND SWAP5 DUP12 AND SWAP5 SWAP1 SWAP5 OR SWAP1 SWAP4 SSTORE PUSH1 0x14 SWAP1 MSTORE KECCAK256 PUSH1 0x2 ADD DUP2 SWAP1 SSTORE PUSH2 0x3FB1 JUMP JUMPDEST DUP2 PUSH1 0x1 PUSH1 0x1 PUSH1 0xA0 SHL SUB AND DUP7 PUSH1 0x1 PUSH1 0x1 PUSH1 0xA0 SHL SUB AND SUB PUSH2 0x3E7C JUMPI PUSH1 0x1 PUSH1 0x1 PUSH1 0xA0 SHL SUB DUP4 AND PUSH0 SWAP1 DUP2 MSTORE PUSH1 0x14 PUSH1 0x20 MSTORE PUSH1 0x40 DUP2 KECCAK256 PUSH1 0x2 ADD DUP1 SLOAD DUP8 SWAP3 SWAP1 PUSH2 0x3E71 SWAP1 DUP5 SWAP1 PUSH2 0x5BF2 JUMP JUMPDEST SWAP1 SWAP2 SSTORE POP PUSH2 0x3FB1 SWAP1 POP JUMP JUMPDEST PUSH1 0x1 PUSH1 0x1 PUSH1 0xA0 SHL SUB DUP4 AND PUSH0 SWAP1 DUP2 MSTORE PUSH1 0x14 PUSH1 0x20 MSTORE PUSH1 0x40 SWAP1 KECCAK256 PUSH1 0x2 ADD SLOAD DUP1 DUP3 GT ISZERO PUSH2 0x3F7F JUMPI PUSH1 0x1 PUSH1 0x1 PUSH1 0xA0 SHL SUB DUP8 AND PUSH0 SWAP1 DUP2 MSTORE PUSH1 0x14 PUSH1 0x20 SWAP1 DUP2 MSTORE PUSH1 0x40 DUP1 DUP4 KECCAK256 PUSH1 0x4 SWAP1 DUP2 ADD SLOAD PUSH1 0x12 SWAP1 SWAP4 MSTORE SWAP3 KECCAK256 SWAP1 SWAP2 ADD SLOAD DUP8 SWAP2 PUSH2 0x3ED5 SWAP2 PUSH2 0x5BF2 JUMP JUMPDEST PUSH2 0x3EDF SWAP2 SWAP1 PUSH2 0x5B39 JUMP JUMPDEST PUSH1 0x1 PUSH1 0x1 PUSH1 0xA0 SHL SUB DUP6 AND PUSH0 SWAP1 DUP2 MSTORE PUSH1 0x14 PUSH1 0x20 MSTORE PUSH1 0x40 DUP2 KECCAK256 PUSH1 0x3 ADD DUP1 SLOAD SWAP1 SWAP2 SWAP1 PUSH2 0x3F09 SWAP1 DUP5 SWAP1 PUSH2 0x5B39 JUMP JUMPDEST SWAP1 SWAP2 SSTORE POP POP PUSH1 0x1 PUSH1 0x1 PUSH1 0xA0 SHL SUB DUP5 AND PUSH0 SWAP1 DUP2 MSTORE PUSH1 0x14 PUSH1 0x20 MSTORE PUSH1 0x40 DUP2 KECCAK256 PUSH1 0x3 ADD DUP1 SLOAD DUP4 SWAP3 SWAP1 PUSH2 0x3F38 SWAP1 DUP5 SWAP1 PUSH2 0x5BF2 JUMP JUMPDEST SWAP1 SWAP2 SSTORE POP POP PUSH1 0x1 PUSH1 0x1 PUSH1 0xA0 SHL SUB DUP5 DUP2 AND PUSH0 SWAP1 DUP2 MSTORE PUSH1 0x14 PUSH1 0x20 SWAP1 DUP2 MSTORE PUSH1 0x40 DUP1 DUP4 KECCAK256 PUSH1 0x2 ADD DUP7 SWAP1 SSTORE PUSH1 0x1C SWAP1 SWAP2 MSTORE SWAP1 KECCAK256 DUP1 SLOAD PUSH1 0x1 PUSH1 0x1 PUSH1 0xA0 SHL SUB NOT AND SWAP2 DUP10 AND SWAP2 SWAP1 SWAP2 OR SWAP1 SSTORE PUSH2 0x3FAF JUMP JUMPDEST PUSH1 0x1 PUSH1 0x1 PUSH1 0xA0 SHL SUB DUP5 AND PUSH0 SWAP1 DUP2 MSTORE PUSH1 0x14 PUSH1 0x20 MSTORE PUSH1 0x40 DUP2 KECCAK256 PUSH1 0x3 ADD DUP1 SLOAD DUP9 SWAP3 SWAP1 PUSH2 0x3FA9 SWAP1 DUP5 SWAP1 PUSH2 0x5BF2 JUMP JUMPDEST SWAP1 SWAP2 SSTORE POP POP JUMPDEST POP JUMPDEST PUSH1 0x1 PUSH1 0x1 PUSH1 0xA0 SHL SUB DUP1 DUP5 AND PUSH0 SWAP1 DUP2 MSTORE PUSH1 0x12 PUSH1 0x20 MSTORE PUSH1 0x40 SWAP1 KECCAK256 PUSH1 0x2 ADD SLOAD SWAP4 SWAP7 POP SWAP3 SWAP1 SWAP3 AND SWAP2 DUP4 PUSH2 0x3FDF DUP2 PUSH2 0x5B60 JUMP JUMPDEST SWAP5 POP POP POP POP PUSH2 0x3D21 JUMP JUMPDEST PUSH1 0x1 PUSH1 0x1 PUSH1 0xA0 SHL SUB DUP2 AND ISZERO PUSH2 0x2C4D JUMPI PUSH2 0x4001 DUP2 PUSH2 0x4E32 JUMP JUMPDEST PUSH1 0x1 PUSH1 0x1 PUSH1 0xA0 SHL SUB SWAP1 DUP2 AND PUSH0 SWAP1 DUP2 MSTORE PUSH1 0x12 PUSH1 0x20 MSTORE PUSH1 0x40 SWAP1 KECCAK256 PUSH1 0x2 ADD SLOAD AND PUSH2 0x3FE9 JUMP JUMPDEST PUSH1 0x1 PUSH1 0x1 PUSH1 0xA0 SHL SUB DUP4 AND PUSH0 SWAP1 DUP2 MSTORE PUSH1 0x12 PUSH1 0x20 MSTORE PUSH1 0x40 SWAP1 KECCAK256 PUSH1 0xB ADD SLOAD PUSH1 0xFF AND ISZERO DUP1 ISZERO PUSH2 0x4080 JUMPI POP PUSH1 0x1 PUSH1 0x1 PUSH1 0xA0 SHL SUB DUP4 AND PUSH0 SWAP1 DUP2 MSTORE PUSH1 0x12 PUSH1 0x20 MSTORE PUSH1 0x40 SWAP1 KECCAK256 PUSH1 0xB ADD SLOAD PUSH2 0x100 SWAP1 DIV PUSH1 0xFF AND ISZERO DUP1 PUSH2 0x4080 JUMPI POP TIMESTAMP PUSH2 0x407D DUP5 PUSH2 0x3015 JUMP JUMPDEST LT ISZERO JUMPDEST DUP1 ISZERO PUSH2 0x40A1 JUMPI POP PUSH2 0x4092 PUSH2 0x7D0 PUSH2 0x30B7 JUMP JUMPDEST DUP3 LT ISZERO DUP1 PUSH2 0x40A1 JUMPI POP PUSH1 0x1 DUP2 LT ISZERO JUMPDEST ISZERO PUSH2 0x31C3 JUMPI PUSH1 0x1 PUSH1 0x1 PUSH1 0xA0 SHL SUB DUP4 AND PUSH0 SWAP1 DUP2 MSTORE PUSH1 0x12 PUSH1 0x20 SWAP1 DUP2 MSTORE PUSH1 0x40 DUP1 DUP4 KECCAK256 PUSH1 0xB ADD DUP1 SLOAD PUSH1 0xFF NOT AND PUSH1 0x1 SWAP1 DUP2 OR SWAP1 SWAP2 SSTORE PUSH1 0x1B SWAP1 SWAP3 MSTORE SWAP1 SWAP2 KECCAK256 SLOAD SWAP1 JUMPDEST DUP2 DUP2 GT PUSH2 0x414C JUMPI PUSH1 0x1 PUSH1 0x1 PUSH1 0xA0 SHL SUB DUP6 AND PUSH0 SWAP1 DUP2 MSTORE PUSH1 0x15 PUSH1 0x20 SWAP1 DUP2 MSTORE PUSH1 0x40 DUP1 DUP4 KECCAK256 DUP5 DUP5 MSTORE SWAP1 SWAP2 MSTORE SWAP1 KECCAK256 PUSH1 0x1 ADD SLOAD PUSH2 0x4114 SWAP1 PUSH1 0x4 PUSH2 0x5B22 JUMP JUMPDEST PUSH1 0x1 PUSH1 0x1 PUSH1 0xA0 SHL SUB DUP7 AND PUSH0 SWAP1 DUP2 MSTORE PUSH1 0x15 PUSH1 0x20 SWAP1 DUP2 MSTORE PUSH1 0x40 DUP1 DUP4 KECCAK256 DUP6 DUP5 MSTORE SWAP1 SWAP2 MSTORE SWAP1 KECCAK256 PUSH1 0x3 ADD SSTORE DUP1 PUSH2 0x4144 DUP2 PUSH2 0x5B60 JUMP JUMPDEST SWAP2 POP POP PUSH2 0x40DC JUMP JUMPDEST POP POP POP POP POP JUMP JUMPDEST PUSH0 PUSH2 0x415F PUSH2 0xBB8 PUSH2 0x30B7 JUMP JUMPDEST DUP3 LT PUSH2 0x4176 JUMPI PUSH2 0x416F PUSH1 0x28 PUSH2 0x30B7 JUMP JUMPDEST SWAP1 POP PUSH2 0x41E5 JUMP JUMPDEST PUSH2 0x4181 PUSH2 0x7D0 PUSH2 0x30B7 JUMP JUMPDEST DUP3 LT PUSH2 0x4191 JUMPI PUSH2 0x416F PUSH1 0x1E PUSH2 0x30B7 JUMP JUMPDEST PUSH2 0x419C PUSH2 0x3E8 PUSH2 0x30B7 JUMP JUMPDEST DUP3 LT PUSH2 0x41AC JUMPI PUSH2 0x416F PUSH1 0x14 PUSH2 0x30B7 JUMP JUMPDEST PUSH2 0x41B7 PUSH2 0x1F4 PUSH2 0x30B7 JUMP JUMPDEST DUP3 LT PUSH2 0x41C7 JUMPI PUSH2 0x416F PUSH1 0xC PUSH2 0x30B7 JUMP JUMPDEST PUSH2 0x41D2 PUSH2 0x12C PUSH2 0x30B7 JUMP JUMPDEST DUP3 LT PUSH2 0x41E5 JUMPI PUSH2 0x41E2 PUSH1 0x7 PUSH2 0x30B7 JUMP JUMPDEST SWAP1 POP JUMPDEST PUSH0 DUP2 GT DUP1 ISZERO PUSH2 0x420C JUMPI POP PUSH1 0x1 PUSH1 0x1 PUSH1 0xA0 SHL SUB DUP4 AND PUSH0 SWAP1 DUP2 MSTORE PUSH1 0x19 PUSH1 0x20 MSTORE PUSH1 0x40 SWAP1 KECCAK256 PUSH1 0x1 ADD SLOAD ISZERO JUMPDEST DUP1 ISZERO PUSH2 0x4238 JUMPI POP PUSH1 0x1 PUSH1 0x1 PUSH1 0xA0 SHL SUB DUP4 AND PUSH0 SWAP1 DUP2 MSTORE PUSH1 0x12 PUSH1 0x20 MSTORE PUSH1 0x40 SWAP1 KECCAK256 PUSH1 0xB ADD SLOAD PUSH2 0x100 SWAP1 DIV PUSH1 0xFF AND ISZERO JUMPDEST ISZERO PUSH2 0x31C3 JUMPI PUSH2 0x4247 DUP4 DUP3 PUSH2 0x5050 JUMP JUMPDEST PUSH1 0x1 PUSH1 0x1 PUSH1 0xA0 SHL SUB DUP5 AND PUSH0 SWAP1 DUP2 MSTORE PUSH1 0x19 PUSH1 0x20 MSTORE PUSH1 0x40 DUP2 KECCAK256 PUSH1 0x1 ADD DUP1 SLOAD SWAP3 SWAP4 POP DUP4 SWAP3 SWAP1 SWAP2 SWAP1 PUSH2 0x2832 SWAP1 DUP5 SWAP1 PUSH2 0x5BF2 JUMP JUMPDEST PUSH0 PUSH2 0x4284 PUSH3 0x15180 TIMESTAMP PUSH2 0x5B39 JUMP JUMPDEST PUSH1 0x1D SLOAD SWAP1 SWAP2 POP PUSH0 SWAP1 PUSH8 0xFFFFFFFFFFFFFFFF DUP2 GT ISZERO PUSH2 0x42A4 JUMPI PUSH2 0x42A4 PUSH2 0x5B4C JUMP JUMPDEST PUSH1 0x40 MLOAD SWAP1 DUP1 DUP3 MSTORE DUP1 PUSH1 0x20 MUL PUSH1 0x20 ADD DUP3 ADD PUSH1 0x40 MSTORE DUP1 ISZERO PUSH2 0x42E8 JUMPI DUP2 PUSH1 0x20 ADD JUMPDEST PUSH1 0x40 DUP1 MLOAD DUP1 DUP3 ADD SWAP1 SWAP2 MSTORE PUSH0 DUP1 DUP3 MSTORE PUSH1 0x20 DUP3 ADD MSTORE DUP2 MSTORE PUSH1 0x20 ADD SWAP1 PUSH1 0x1 SWAP1 SUB SWAP1 DUP2 PUSH2 0x42C2 JUMPI SWAP1 POP JUMPDEST POP PUSH1 0x1D SLOAD SWAP1 SWAP2 POP PUSH0 SWAP1 JUMPDEST DUP1 ISZERO PUSH2 0x445C JUMPI PUSH0 PUSH1 0x1D PUSH2 0x4306 PUSH1 0x1 DUP5 PUSH2 0x5B39 JUMP JUMPDEST DUP2 SLOAD DUP2 LT PUSH2 0x4316 JUMPI PUSH2 0x4316 PUSH2 0x5B78 JUMP JUMPDEST PUSH0 SWAP2 DUP3 MSTORE PUSH1 0x20 DUP1 DUP4 KECCAK256 SWAP1 SWAP2 ADD SLOAD PUSH1 0x1 PUSH1 0x1 PUSH1 0xA0 SHL SUB AND DUP1 DUP4 MSTORE PUSH1 0x12 SWAP1 SWAP2 MSTORE PUSH1 0x40 SWAP1 SWAP2 KECCAK256 PUSH1 0x7 ADD SLOAD SWAP1 SWAP2 POP DUP6 GT ISZERO PUSH2 0x434D JUMPI POP PUSH2 0x445C JUMP JUMPDEST PUSH1 0x1 PUSH1 0x1 PUSH1 0xA0 SHL SUB DUP1 DUP3 AND PUSH0 SWAP1 DUP2 MSTORE PUSH1 0x12 PUSH1 0x20 MSTORE PUSH1 0x40 SWAP1 KECCAK256 PUSH1 0x2 ADD SLOAD AND DUP1 PUSH2 0x4376 JUMPI POP POP PUSH2 0x444A JUMP JUMPDEST PUSH0 DUP1 JUMPDEST DUP6 DUP2 LT ISZERO PUSH2 0x43F5 JUMPI DUP3 PUSH1 0x1 PUSH1 0x1 PUSH1 0xA0 SHL SUB AND DUP8 DUP3 DUP2 MLOAD DUP2 LT PUSH2 0x439D JUMPI PUSH2 0x439D PUSH2 0x5B78 JUMP JUMPDEST PUSH1 0x20 MUL PUSH1 0x20 ADD ADD MLOAD PUSH0 ADD MLOAD PUSH1 0x1 PUSH1 0x1 PUSH1 0xA0 SHL SUB AND SUB PUSH2 0x43ED JUMPI DUP7 DUP2 DUP2 MLOAD DUP2 LT PUSH2 0x43C8 JUMPI PUSH2 0x43C8 PUSH2 0x5B78 JUMP JUMPDEST PUSH1 0x20 MUL PUSH1 0x20 ADD ADD MLOAD PUSH1 0x20 ADD DUP1 MLOAD DUP1 SWAP2 SWAP1 PUSH2 0x43E1 SWAP1 PUSH2 0x5B60 JUMP JUMPDEST SWAP1 MSTORE POP PUSH1 0x1 SWAP2 POP PUSH2 0x43F5 JUMP JUMPDEST PUSH1 0x1 ADD PUSH2 0x4379 JUMP JUMPDEST POP DUP1 PUSH2 0x4446 JUMPI PUSH1 0x40 MLOAD DUP1 PUSH1 0x40 ADD PUSH1 0x40 MSTORE DUP1 DUP4 PUSH1 0x1 PUSH1 0x1 PUSH1 0xA0 SHL SUB AND DUP2 MSTORE PUSH1 0x20 ADD PUSH1 0x1 DUP2 MSTORE POP DUP7 DUP7 DUP2 MLOAD DUP2 LT PUSH2 0x442C JUMPI PUSH2 0x442C PUSH2 0x5B78 JUMP JUMPDEST PUSH1 0x20 MUL PUSH1 0x20 ADD ADD DUP2 SWAP1 MSTORE POP DUP5 DUP1 PUSH2 0x4442 SWAP1 PUSH2 0x5B60 JUMP JUMPDEST SWAP6 POP POP JUMPDEST POP POP POP JUMPDEST DUP1 PUSH2 0x4454 DUP2 PUSH2 0x5B8C JUMP JUMPDEST SWAP2 POP POP PUSH2 0x42F2 JUMP JUMPDEST POP PUSH2 0x4465 PUSH2 0x52E7 JUMP JUMPDEST PUSH2 0x446D PUSH2 0x52E7 JUMP JUMPDEST PUSH0 JUMPDEST DUP4 DUP2 LT ISZERO PUSH2 0x45D3 JUMPI PUSH0 DUP6 DUP3 DUP2 MLOAD DUP2 LT PUSH2 0x448A JUMPI PUSH2 0x448A PUSH2 0x5B78 JUMP JUMPDEST PUSH1 0x20 MUL PUSH1 0x20 ADD ADD MLOAD PUSH0 ADD MLOAD SWAP1 POP PUSH0 DUP7 DUP4 DUP2 MLOAD DUP2 LT PUSH2 0x44AA JUMPI PUSH2 0x44AA PUSH2 0x5B78 JUMP JUMPDEST PUSH1 0x20 MUL PUSH1 0x20 ADD ADD MLOAD PUSH1 0x20 ADD MLOAD SWAP1 POP PUSH0 JUMPDEST PUSH1 0x3 DUP2 LT ISZERO PUSH2 0x45C8 JUMPI DUP5 DUP2 PUSH1 0x3 DUP2 LT PUSH2 0x44D5 JUMPI PUSH2 0x44D5 PUSH2 0x5B78 JUMP JUMPDEST PUSH1 0x20 MUL ADD MLOAD DUP3 GT ISZERO PUSH2 0x45C0 JUMPI PUSH1 0x2 JUMPDEST DUP2 DUP2 GT ISZERO PUSH2 0x457C JUMPI DUP6 PUSH2 0x44F8 PUSH1 0x1 DUP4 PUSH2 0x5B39 JUMP JUMPDEST PUSH1 0x3 DUP2 LT PUSH2 0x4508 JUMPI PUSH2 0x4508 PUSH2 0x5B78 JUMP JUMPDEST PUSH1 0x20 MUL ADD MLOAD DUP7 DUP3 PUSH1 0x3 DUP2 LT PUSH2 0x451F JUMPI PUSH2 0x451F PUSH2 0x5B78 JUMP JUMPDEST PUSH1 0x20 MUL ADD MSTORE DUP7 PUSH2 0x4530 PUSH1 0x1 DUP4 PUSH2 0x5B39 JUMP JUMPDEST PUSH1 0x3 DUP2 LT PUSH2 0x4540 JUMPI PUSH2 0x4540 PUSH2 0x5B78 JUMP JUMPDEST PUSH1 0x20 MUL ADD MLOAD DUP8 DUP3 PUSH1 0x3 DUP2 LT PUSH2 0x4557 JUMPI PUSH2 0x4557 PUSH2 0x5B78 JUMP JUMPDEST PUSH1 0x1 PUSH1 0x1 PUSH1 0xA0 SHL SUB SWAP1 SWAP3 AND PUSH1 0x20 SWAP3 SWAP1 SWAP3 MUL ADD MSTORE DUP1 PUSH2 0x4574 DUP2 PUSH2 0x5B8C JUMP JUMPDEST SWAP2 POP POP PUSH2 0x44E4 JUMP JUMPDEST POP DUP2 DUP6 DUP3 PUSH1 0x3 DUP2 LT PUSH2 0x4590 JUMPI PUSH2 0x4590 PUSH2 0x5B78 JUMP JUMPDEST PUSH1 0x20 MUL ADD MSTORE DUP3 DUP7 DUP3 PUSH1 0x3 DUP2 LT PUSH2 0x45A8 JUMPI PUSH2 0x45A8 PUSH2 0x5B78 JUMP JUMPDEST PUSH1 0x1 PUSH1 0x1 PUSH1 0xA0 SHL SUB SWAP1 SWAP3 AND PUSH1 0x20 SWAP3 SWAP1 SWAP3 MUL ADD MSTORE PUSH2 0x45C8 JUMP JUMPDEST PUSH1 0x1 ADD PUSH2 0x44BA JUMP JUMPDEST POP POP POP PUSH1 0x1 ADD PUSH2 0x446F JUMP JUMPDEST POP PUSH0 PUSH1 0x64 PUSH2 0x45E2 DUP9 PUSH1 0x2 PUSH2 0x5B22 JUMP JUMPDEST PUSH2 0x45EC SWAP2 SWAP1 PUSH2 0x5BD3 JUMP JUMPDEST SWAP1 POP PUSH0 PUSH1 0x40 MLOAD DUP1 PUSH1 0x60 ADD PUSH1 0x40 MSTORE DUP1 PUSH1 0x32 DUP2 MSTORE PUSH1 0x20 ADD PUSH1 0x1E DUP2 MSTORE PUSH1 0x20 ADD PUSH1 0x14 DUP2 MSTORE POP SWAP1 POP PUSH0 JUMPDEST PUSH1 0x3 DUP2 LT ISZERO PUSH2 0x46BC JUMPI PUSH0 DUP6 DUP3 PUSH1 0x3 DUP2 LT PUSH2 0x462D JUMPI PUSH2 0x462D PUSH2 0x5B78 JUMP JUMPDEST PUSH1 0x20 MUL ADD MLOAD SWAP1 POP PUSH1 0x1 PUSH1 0x1 PUSH1 0xA0 SHL SUB DUP2 AND ISZERO PUSH2 0x46B3 JUMPI PUSH0 PUSH1 0x64 DUP5 DUP5 PUSH1 0x3 DUP2 LT PUSH2 0x4658 JUMPI PUSH2 0x4658 PUSH2 0x5B78 JUMP JUMPDEST PUSH1 0x20 MUL ADD MLOAD PUSH2 0x4667 SWAP1 DUP8 PUSH2 0x5B22 JUMP JUMPDEST PUSH2 0x4671 SWAP2 SWAP1 PUSH2 0x5BD3 JUMP JUMPDEST SWAP1 POP PUSH2 0x467D DUP3 DUP3 PUSH2 0x5050 JUMP JUMPDEST PUSH1 0x1 PUSH1 0x1 PUSH1 0xA0 SHL SUB DUP4 AND PUSH0 SWAP1 DUP2 MSTORE PUSH1 0x19 PUSH1 0x20 MSTORE PUSH1 0x40 DUP2 KECCAK256 PUSH1 0x5 ADD DUP1 SLOAD SWAP3 SWAP4 POP DUP4 SWAP3 SWAP1 SWAP2 SWAP1 PUSH2 0x46AC SWAP1 DUP5 SWAP1 PUSH2 0x5BF2 JUMP JUMPDEST SWAP1 SWAP2 SSTORE POP POP POP JUMPDEST POP PUSH1 0x1 ADD PUSH2 0x4611 JUMP JUMPDEST POP POP POP POP POP POP POP POP POP JUMP JUMPDEST PUSH0 DUP1 SLOAD SWAP1 DUP1 PUSH2 0x46D5 DUP4 PUSH2 0x5B60 JUMP JUMPDEST SWAP2 SWAP1 POP SSTORE POP PUSH0 PUSH1 0x40 MLOAD DUP1 PUSH2 0x1A0 ADD PUSH1 0x40 MSTORE DUP1 PUSH0 SLOAD DUP2 MSTORE PUSH1 0x20 ADD DUP5 PUSH1 0x1 PUSH1 0x1 PUSH1 0xA0 SHL SUB AND DUP2 MSTORE PUSH1 0x20 ADD DUP4 PUSH1 0x1 PUSH1 0x1 PUSH1 0xA0 SHL SUB AND DUP2 MSTORE PUSH1 0x20 ADD TIMESTAMP DUP2 MSTORE PUSH1 0x20 ADD PUSH0 DUP2 MSTORE PUSH1 0x20 ADD PUSH0 DUP2 MSTORE PUSH1 0x20 ADD PUSH0 ISZERO ISZERO DUP2 MSTORE PUSH1 0x20 ADD PUSH0 DUP2 MSTORE PUSH1 0x20 ADD PUSH0 DUP2 MSTORE PUSH1 0x20 ADD PUSH0 DUP2 MSTORE PUSH1 0x20 ADD PUSH0 DUP2 MSTORE PUSH1 0x20 ADD PUSH0 ISZERO ISZERO DUP2 MSTORE PUSH1 0x20 ADD PUSH0 ISZERO ISZERO DUP2 MSTORE POP SWAP1 POP PUSH0 PUSH1 0x40 MLOAD DUP1 PUSH1 0xC0 ADD PUSH1 0x40 MSTORE DUP1 PUSH0 DUP2 MSTORE PUSH1 0x20 ADD PUSH0 PUSH8 0xFFFFFFFFFFFFFFFF DUP2 GT ISZERO PUSH2 0x4779 JUMPI PUSH2 0x4779 PUSH2 0x5B4C JUMP JUMPDEST PUSH1 0x40 MLOAD SWAP1 DUP1 DUP3 MSTORE DUP1 PUSH1 0x20 MUL PUSH1 0x20 ADD DUP3 ADD PUSH1 0x40 MSTORE DUP1 ISZERO PUSH2 0x47A2 JUMPI DUP2 PUSH1 0x20 ADD PUSH1 0x20 DUP3 MUL DUP1 CALLDATASIZE DUP4 CALLDATACOPY ADD SWAP1 POP JUMPDEST POP DUP2 MSTORE PUSH1 0x20 ADD PUSH0 DUP2 MSTORE PUSH1 0x20 ADD PUSH0 DUP2 MSTORE PUSH1 0x20 ADD PUSH0 DUP2 MSTORE PUSH1 0x20 ADD PUSH0 PUSH8 0xFFFFFFFFFFFFFFFF DUP2 GT ISZERO PUSH2 0x47D3 JUMPI PUSH2 0x47D3 PUSH2 0x5B4C JUMP JUMPDEST PUSH1 0x40 MLOAD SWAP1 DUP1 DUP3 MSTORE DUP1 PUSH1 0x20 MUL PUSH1 0x20 ADD DUP3 ADD PUSH1 0x40 MSTORE DUP1 ISZERO PUSH2 0x47FC JUMPI DUP2 PUSH1 0x20 ADD PUSH1 0x20 DUP3 MUL DUP1 CALLDATASIZE DUP4 CALLDATACOPY ADD SWAP1 POP JUMPDEST POP DUP2 MSTORE POP SWAP1 POP PUSH0 PUSH1 0x40 MLOAD DUP1 PUSH1 0xE0 ADD PUSH1 0x40 MSTORE DUP1 PUSH0 DUP2 MSTORE PUSH1 0x20 ADD PUSH0 DUP2 MSTORE PUSH1 0x20 ADD PUSH0 DUP2 MSTORE PUSH1 0x20 ADD PUSH1 0x8 SLOAD PUSH1 0x1 PUSH2 0x482F SWAP2 SWAP1 PUSH2 0x5BF2 JUMP JUMPDEST PUSH8 0xFFFFFFFFFFFFFFFF DUP2 GT ISZERO PUSH2 0x4847 JUMPI PUSH2 0x4847 PUSH2 0x5B4C JUMP JUMPDEST PUSH1 0x40 MLOAD SWAP1 DUP1 DUP3 MSTORE DUP1 PUSH1 0x20 MUL PUSH1 0x20 ADD DUP3 ADD PUSH1 0x40 MSTORE DUP1 ISZERO PUSH2 0x4870 JUMPI DUP2 PUSH1 0x20 ADD PUSH1 0x20 DUP3 MUL DUP1 CALLDATASIZE DUP4 CALLDATACOPY ADD SWAP1 POP JUMPDEST POP DUP2 MSTORE PUSH0 PUSH1 0x20 DUP1 DUP4 ADD DUP3 SWAP1 MSTORE PUSH1 0x40 DUP1 DUP5 ADD DUP4 SWAP1 MSTORE PUSH1 0x60 SWAP4 DUP5 ADD DUP4 SWAP1 MSTORE DUP1 MLOAD PUSH1 0x80 DUP1 DUP3 ADD DUP4 MSTORE DUP5 DUP3 MSTORE DUP2 DUP5 ADD DUP6 SWAP1 MSTORE DUP2 DUP4 ADD DUP6 SWAP1 MSTORE DUP2 DUP7 ADD DUP6 SWAP1 MSTORE PUSH1 0x1 PUSH1 0x1 PUSH1 0xA0 SHL SUB DUP13 DUP2 AND DUP7 MSTORE PUSH1 0x12 DUP6 MSTORE DUP4 DUP7 KECCAK256 DUP12 MLOAD DUP2 SSTORE DUP12 DUP7 ADD MLOAD PUSH1 0x1 DUP1 DUP4 ADD DUP1 SLOAD PUSH1 0x1 PUSH1 0x1 PUSH1 0xA0 SHL SUB NOT SWAP1 DUP2 AND SWAP4 DUP7 AND SWAP4 SWAP1 SWAP4 OR SWAP1 SSTORE DUP14 DUP8 ADD MLOAD PUSH1 0x2 DUP5 ADD DUP1 SLOAD SWAP1 SWAP4 AND SWAP5 AND SWAP4 SWAP1 SWAP4 OR SWAP1 SSTORE SWAP7 DUP12 ADD MLOAD PUSH1 0x3 DUP9 ADD SSTORE SWAP1 DUP11 ADD MLOAD PUSH1 0x4 DUP8 ADD SSTORE PUSH1 0xA0 DUP11 ADD MLOAD PUSH1 0x5 DUP8 ADD SSTORE PUSH1 0xC0 DUP11 ADD MLOAD PUSH1 0x6 DUP8 ADD DUP1 SLOAD PUSH1 0xFF NOT AND SWAP2 ISZERO ISZERO SWAP2 SWAP1 SWAP2 OR SWAP1 SSTORE PUSH1 0xE0 DUP11 ADD MLOAD PUSH1 0x7 DUP8 ADD SSTORE PUSH2 0x100 DUP1 DUP12 ADD MLOAD PUSH1 0x8 DUP9 ADD SSTORE PUSH2 0x120 DUP12 ADD MLOAD PUSH1 0x9 DUP9 ADD SSTORE PUSH2 0x140 DUP12 ADD MLOAD PUSH1 0xA DUP9 ADD SSTORE PUSH2 0x160 DUP12 ADD MLOAD PUSH1 0xB SWAP1 SWAP8 ADD DUP1 SLOAD PUSH2 0x180 DUP14 ADD MLOAD PUSH2 0xFFFF NOT SWAP1 SWAP2 AND SWAP9 ISZERO ISZERO PUSH2 0xFF00 NOT AND SWAP9 SWAP1 SWAP9 OR SWAP8 ISZERO ISZERO SWAP1 SWAP2 MUL SWAP7 SWAP1 SWAP7 OR SWAP1 SWAP6 SSTORE PUSH1 0x14 DUP4 MSTORE SWAP3 KECCAK256 DUP7 MLOAD DUP2 SSTORE DUP7 DUP3 ADD MLOAD DUP1 MLOAD SWAP6 SWAP7 POP SWAP3 SWAP5 DUP8 SWAP5 SWAP2 SWAP4 PUSH2 0x49B2 SWAP4 SWAP3 DUP6 ADD SWAP3 ADD SWAP1 PUSH2 0x5305 JUMP JUMPDEST POP PUSH1 0x40 DUP3 ADD MLOAD PUSH1 0x2 DUP3 ADD SSTORE PUSH1 0x60 DUP3 ADD MLOAD PUSH1 0x3 DUP3 ADD SSTORE PUSH1 0x80 DUP3 ADD MLOAD PUSH1 0x4 DUP3 ADD SSTORE PUSH1 0xA0 DUP3 ADD MLOAD DUP1 MLOAD PUSH2 0x49EC SWAP2 PUSH1 0x5 DUP5 ADD SWAP2 PUSH1 0x20 SWAP1 SWAP2 ADD SWAP1 PUSH2 0x5305 JUMP JUMPDEST POP POP POP PUSH1 0x1 PUSH1 0x1 PUSH1 0xA0 SHL SUB DUP7 AND PUSH0 SWAP1 DUP2 MSTORE PUSH1 0x19 PUSH1 0x20 SWAP1 DUP2 MSTORE PUSH1 0x40 SWAP2 DUP3 SWAP1 KECCAK256 DUP5 MLOAD DUP2 SSTORE DUP2 DUP6 ADD MLOAD PUSH1 0x1 DUP3 ADD SSTORE SWAP2 DUP5 ADD MLOAD PUSH1 0x2 DUP4 ADD SSTORE PUSH1 0x60 DUP5 ADD MLOAD DUP1 MLOAD DUP6 SWAP4 SWAP3 PUSH2 0x4A3B SWAP3 PUSH1 0x3 DUP6 ADD SWAP3 SWAP2 ADD SWAP1 PUSH2 0x5368 JUMP JUMPDEST POP PUSH1 0x80 DUP3 ADD MLOAD PUSH1 0x4 DUP3 ADD SSTORE PUSH1 0xA0 DUP3 ADD MLOAD PUSH1 0x5 DUP3 ADD SSTORE PUSH1 0xC0 SWAP1 SWAP2 ADD MLOAD PUSH1 0x6 SWAP1 SWAP2 ADD SSTORE PUSH0 DUP1 SLOAD DUP2 MSTORE PUSH1 0x13 PUSH1 0x20 SWAP1 DUP2 MSTORE PUSH1 0x40 DUP1 DUP4 KECCAK256 DUP1 SLOAD PUSH1 0x1 PUSH1 0x1 PUSH1 0xA0 SHL SUB SWAP1 SWAP11 AND PUSH1 0x1 PUSH1 0x1 PUSH1 0xA0 SHL SUB NOT SWAP1 SWAP11 AND DUP11 OR SWAP1 SSTORE SWAP8 DUP3 MSTORE PUSH1 0x1B DUP2 MSTORE SWAP1 DUP8 SWAP1 KECCAK256 DUP3 MLOAD DUP2 SSTORE SWAP1 DUP3 ADD MLOAD PUSH1 0x1 DUP3 ADD SSTORE SWAP6 DUP2 ADD MLOAD PUSH1 0x2 DUP8 ADD SSTORE PUSH1 0x60 ADD MLOAD PUSH1 0x3 SWAP1 SWAP6 ADD SWAP5 SWAP1 SWAP5 SSTORE POP POP POP POP JUMP JUMPDEST PUSH1 0x1 PUSH1 0x1 PUSH1 0xA0 SHL SUB DUP6 AND PUSH0 SWAP1 DUP2 MSTORE PUSH1 0x1B PUSH1 0x20 MSTORE PUSH1 0x40 DUP2 KECCAK256 SLOAD SWAP1 PUSH2 0x4AE1 DUP6 DUP6 PUSH2 0x5B39 JUMP JUMPDEST SWAP1 POP PUSH0 DUP6 DUP8 DUP7 GT ISZERO PUSH2 0x4AF3 JUMPI DUP8 PUSH2 0x4AF5 JUMP JUMPDEST DUP6 JUMPDEST PUSH2 0x4AFF SWAP2 SWAP1 PUSH2 0x5B39 JUMP JUMPDEST SWAP1 POP PUSH0 PUSH1 0x1 JUMPDEST DUP5 DUP2 GT PUSH2 0x4BB7 JUMPI PUSH1 0x1 PUSH1 0x1 PUSH1 0xA0 SHL SUB DUP11 AND PUSH0 SWAP1 DUP2 MSTORE PUSH1 0x15 PUSH1 0x20 SWAP1 DUP2 MSTORE PUSH1 0x40 DUP1 DUP4 KECCAK256 DUP5 DUP5 MSTORE DUP3 MSTORE SWAP2 DUP3 SWAP1 KECCAK256 DUP3 MLOAD PUSH1 0xA0 DUP2 ADD DUP5 MSTORE DUP2 SLOAD DUP2 MSTORE PUSH1 0x1 DUP3 ADD SLOAD SWAP3 DUP2 ADD DUP4 SWAP1 MSTORE PUSH1 0x2 DUP3 ADD SLOAD SWAP4 DUP2 ADD SWAP4 SWAP1 SWAP4 MSTORE PUSH1 0x3 DUP2 ADD SLOAD PUSH1 0x60 DUP5 ADD MSTORE PUSH1 0x4 ADD SLOAD PUSH1 0x80 DUP4 ADD MSTORE DUP8 EQ DUP1 ISZERO PUSH2 0x4B76 JUMPI POP DUP10 DUP2 PUSH1 0x40 ADD MLOAD EQ JUMPDEST ISZERO PUSH2 0x4B81 JUMPI POP PUSH2 0x4BA5 JUMP JUMPDEST DUP1 PUSH1 0x60 ADD MLOAD DUP2 PUSH1 0x80 ADD MLOAD LT ISZERO PUSH2 0x4BA3 JUMPI PUSH1 0x20 DUP2 ADD MLOAD PUSH2 0x4BA0 SWAP1 DUP5 PUSH2 0x5BF2 JUMP JUMPDEST SWAP3 POP JUMPDEST POP JUMPDEST DUP1 PUSH2 0x4BAF DUP2 PUSH2 0x5B60 JUMP JUMPDEST SWAP2 POP POP PUSH2 0x4B05 JUMP JUMPDEST POP PUSH0 DUP2 GT DUP1 ISZERO PUSH2 0x4BC6 JUMPI POP PUSH0 DUP4 GT JUMPDEST ISZERO PUSH2 0x46BC JUMPI PUSH0 PUSH2 0x4BD7 DUP5 PUSH1 0x64 PUSH2 0x5B22 JUMP JUMPDEST DUP4 PUSH2 0x4BE3 DUP5 PUSH1 0xA PUSH2 0x5B22 JUMP JUMPDEST PUSH2 0x4BED SWAP2 SWAP1 PUSH2 0x5B22 JUMP JUMPDEST PUSH2 0x4BF7 SWAP2 SWAP1 PUSH2 0x5BD3 JUMP JUMPDEST SWAP1 POP PUSH2 0x4C03 DUP11 DUP3 PUSH2 0x5050 JUMP JUMPDEST PUSH1 0x1 PUSH1 0x1 PUSH1 0xA0 SHL SUB DUP12 AND PUSH0 SWAP1 DUP2 MSTORE PUSH1 0x19 PUSH1 0x20 MSTORE PUSH1 0x40 DUP2 KECCAK256 PUSH1 0x2 ADD DUP1 SLOAD SWAP3 SWAP4 POP DUP4 SWAP3 SWAP1 SWAP2 SWAP1 PUSH2 0x4C32 SWAP1 DUP5 SWAP1 PUSH2 0x5BF2 JUMP JUMPDEST SWAP1 SWAP2 SSTORE POP POP PUSH1 0x1 PUSH1 0x1 PUSH1 0xA0 SHL SUB DUP11 AND PUSH0 SWAP1 DUP2 MSTORE PUSH1 0x1B PUSH1 0x20 MSTORE PUSH1 0x40 DUP2 KECCAK256 PUSH1 0x1 ADD DUP1 SLOAD SWAP2 PUSH2 0x4C5D DUP4 PUSH2 0x5B60 JUMP JUMPDEST SWAP1 SWAP2 SSTORE POP POP PUSH1 0x40 DUP1 MLOAD PUSH1 0x60 DUP2 ADD DUP3 MSTORE SWAP3 DUP4 MSTORE PUSH1 0x20 DUP1 DUP5 ADD SWAP11 DUP12 MSTORE DUP4 DUP3 ADD SWAP3 DUP4 MSTORE PUSH1 0x1 PUSH1 0x1 PUSH1 0xA0 SHL SUB SWAP12 SWAP1 SWAP12 AND PUSH0 SWAP1 DUP2 MSTORE PUSH1 0x18 DUP13 MSTORE DUP2 DUP2 KECCAK256 PUSH1 0x1B DUP14 MSTORE DUP3 DUP3 KECCAK256 PUSH1 0x1 SWAP1 DUP2 ADD SLOAD DUP4 MSTORE SWAP13 MSTORE KECCAK256 SWAP2 MLOAD DUP3 SSTORE SWAP8 MLOAD SWAP9 DUP2 ADD SWAP9 SWAP1 SWAP9 SSTORE POP POP SWAP4 MLOAD PUSH1 0x2 SWAP1 SWAP6 ADD SWAP5 SWAP1 SWAP5 SSTORE POP POP POP POP JUMP JUMPDEST PUSH1 0x1 PUSH1 0x1 PUSH1 0xA0 SHL SUB DUP2 DUP2 AND PUSH0 SWAP1 DUP2 MSTORE PUSH1 0x12 PUSH1 0x20 MSTORE PUSH1 0x40 DUP2 KECCAK256 PUSH1 0x2 DUP2 ADD SLOAD PUSH1 0xB SWAP1 SWAP2 ADD SLOAD SWAP3 AND SWAP2 PUSH2 0x100 SWAP1 DIV PUSH1 0xFF AND PUSH2 0x4CFF JUMPI PUSH1 0x1 PUSH2 0x4D02 JUMP JUMPDEST PUSH1 0x2 JUMPDEST PUSH1 0x1 PUSH1 0x1 PUSH1 0xA0 SHL SUB DUP5 AND PUSH0 SWAP1 DUP2 MSTORE PUSH1 0x12 PUSH1 0x20 MSTORE PUSH1 0x40 SWAP1 KECCAK256 PUSH1 0x4 ADD SLOAD PUSH2 0x4D2A SWAP2 PUSH1 0xFF AND SWAP1 PUSH2 0x5BD3 JUMP JUMPDEST SWAP1 POP PUSH1 0x1 PUSH0 JUMPDEST PUSH1 0x1 PUSH1 0x1 PUSH1 0xA0 SHL SUB DUP5 AND ISZERO DUP1 ISZERO SWAP1 PUSH2 0x4D4A JUMPI POP PUSH1 0x8 SLOAD DUP3 GT ISZERO JUMPDEST ISZERO PUSH2 0x414C JUMPI PUSH1 0xA SLOAD PUSH1 0xFF AND PUSH2 0x4D6F JUMPI PUSH0 DUP3 DUP2 MSTORE PUSH1 0x10 PUSH1 0x20 MSTORE PUSH1 0x40 SWAP1 KECCAK256 PUSH1 0x1 ADD SLOAD PUSH2 0x4D98 JUMP JUMPDEST PUSH0 DUP3 DUP2 MSTORE PUSH1 0x10 PUSH1 0x20 MSTORE PUSH1 0x40 SWAP1 KECCAK256 PUSH1 0x1 ADD SLOAD PUSH2 0x2710 SWAP1 PUSH2 0x4D8E SWAP1 DUP6 PUSH2 0x5B22 JUMP JUMPDEST PUSH2 0x4D98 SWAP2 SWAP1 PUSH2 0x5BD3 JUMP JUMPDEST SWAP1 POP PUSH2 0x4DA4 DUP5 DUP4 PUSH2 0x2CD2 JUMP JUMPDEST ISZERO PUSH2 0x4E00 JUMPI PUSH2 0x4DB3 DUP5 DUP3 PUSH2 0x5050 JUMP JUMPDEST PUSH1 0x1 PUSH1 0x1 PUSH1 0xA0 SHL SUB DUP6 AND PUSH0 SWAP1 DUP2 MSTORE PUSH1 0x19 PUSH1 0x20 MSTORE PUSH1 0x40 SWAP1 KECCAK256 PUSH1 0x3 ADD DUP1 SLOAD SWAP2 SWAP3 POP DUP3 SWAP2 DUP5 SWAP1 DUP2 LT PUSH2 0x4DE4 JUMPI PUSH2 0x4DE4 PUSH2 0x5B78 JUMP JUMPDEST SWAP1 PUSH0 MSTORE PUSH1 0x20 PUSH0 KECCAK256 ADD PUSH0 DUP3 DUP3 SLOAD PUSH2 0x4DFA SWAP2 SWAP1 PUSH2 0x5BF2 JUMP JUMPDEST SWAP1 SWAP2 SSTORE POP POP JUMPDEST PUSH1 0x1 PUSH1 0x1 PUSH1 0xA0 SHL SUB SWAP4 DUP5 AND PUSH0 SWAP1 DUP2 MSTORE PUSH1 0x12 PUSH1 0x20 MSTORE PUSH1 0x40 SWAP1 KECCAK256 PUSH1 0x2 ADD SLOAD SWAP1 SWAP4 AND SWAP3 DUP2 PUSH2 0x4E2A DUP2 PUSH2 0x5B60 JUMP JUMPDEST SWAP3 POP POP PUSH2 0x4D30 JUMP JUMPDEST PUSH1 0x1 PUSH1 0x1 PUSH1 0xA0 SHL SUB DUP2 AND PUSH0 SWAP1 DUP2 MSTORE PUSH1 0x12 PUSH1 0x20 MSTORE PUSH1 0x40 DUP2 KECCAK256 PUSH1 0xA ADD SLOAD PUSH2 0x4E58 SWAP1 PUSH1 0x1 PUSH2 0x5BF2 JUMP JUMPDEST SWAP1 POP JUMPDEST PUSH1 0x9 SLOAD DUP2 GT PUSH2 0x2678 JUMPI PUSH0 PUSH1 0x11 PUSH0 DUP4 DUP2 MSTORE PUSH1 0x20 ADD SWAP1 DUP2 MSTORE PUSH1 0x20 ADD PUSH0 KECCAK256 PUSH1 0x40 MLOAD DUP1 PUSH1 0xE0 ADD PUSH1 0x40 MSTORE SWAP1 DUP2 PUSH0 DUP3 ADD SLOAD DUP2 MSTORE PUSH1 0x20 ADD PUSH1 0x1 DUP3 ADD DUP1 SLOAD PUSH2 0x4E9A SWAP1 PUSH2 0x5BA1 JUMP JUMPDEST DUP1 PUSH1 0x1F ADD PUSH1 0x20 DUP1 SWAP2 DIV MUL PUSH1 0x20 ADD PUSH1 0x40 MLOAD SWAP1 DUP2 ADD PUSH1 0x40 MSTORE DUP1 SWAP3 SWAP2 SWAP1 DUP2 DUP2 MSTORE PUSH1 0x20 ADD DUP3 DUP1 SLOAD PUSH2 0x4EC6 SWAP1 PUSH2 0x5BA1 JUMP JUMPDEST DUP1 ISZERO PUSH2 0x4F11 JUMPI DUP1 PUSH1 0x1F LT PUSH2 0x4EE8 JUMPI PUSH2 0x100 DUP1 DUP4 SLOAD DIV MUL DUP4 MSTORE SWAP2 PUSH1 0x20 ADD SWAP2 PUSH2 0x4F11 JUMP JUMPDEST DUP3 ADD SWAP2 SWAP1 PUSH0 MSTORE PUSH1 0x20 PUSH0 KECCAK256 SWAP1 JUMPDEST DUP2 SLOAD DUP2 MSTORE SWAP1 PUSH1 0x1 ADD SWAP1 PUSH1 0x20 ADD DUP1 DUP4 GT PUSH2 0x4EF4 JUMPI DUP3 SWAP1 SUB PUSH1 0x1F AND DUP3 ADD SWAP2 JUMPDEST POP POP POP POP POP DUP2 MSTORE PUSH1 0x20 ADD PUSH1 0x2 DUP3 ADD SLOAD DUP2 MSTORE PUSH1 0x20 ADD PUSH1 0x3 DUP3 ADD SLOAD DUP2 MSTORE PUSH1 0x20 ADD PUSH1 0x4 DUP3 ADD SLOAD DUP2 MSTORE PUSH1 0x20 ADD PUSH1 0x5 DUP3 ADD SLOAD DUP2 MSTORE PUSH1 0x20 ADD PUSH1 0x6 DUP3 ADD SLOAD DUP2 MSTORE POP POP SWAP1 POP PUSH2 0x4F5C DUP4 DUP3 PUSH1 0x40 ADD MLOAD PUSH2 0x3297 JUMP JUMPDEST DUP1 ISZERO PUSH2 0x4F86 JUMPI POP PUSH1 0x80 DUP2 ADD MLOAD PUSH1 0x1 PUSH1 0x1 PUSH1 0xA0 SHL SUB DUP5 AND PUSH0 SWAP1 DUP2 MSTORE PUSH1 0x14 PUSH1 0x20 MSTORE PUSH1 0x40 SWAP1 KECCAK256 PUSH1 0x2 ADD SLOAD LT ISZERO JUMPDEST DUP1 ISZERO PUSH2 0x4FB0 JUMPI POP PUSH1 0xA0 DUP2 ADD MLOAD PUSH1 0x1 PUSH1 0x1 PUSH1 0xA0 SHL SUB DUP5 AND PUSH0 SWAP1 DUP2 MSTORE PUSH1 0x14 PUSH1 0x20 MSTORE PUSH1 0x40 SWAP1 KECCAK256 PUSH1 0x3 ADD SLOAD LT ISZERO JUMPDEST DUP1 ISZERO PUSH2 0x4FDA JUMPI POP PUSH1 0x60 DUP2 ADD MLOAD PUSH1 0x1 PUSH1 0x1 PUSH1 0xA0 SHL SUB DUP5 AND PUSH0 SWAP1 DUP2 MSTORE PUSH1 0x12 PUSH1 0x20 MSTORE PUSH1 0x40 SWAP1 KECCAK256 PUSH1 0x5 ADD SLOAD LT ISZERO JUMPDEST ISZERO PUSH2 0x31C3 JUMPI PUSH1 0xC0 DUP2 ADD MLOAD PUSH1 0x1 PUSH1 0x1 PUSH1 0xA0 SHL SUB DUP5 AND PUSH0 SWAP1 DUP2 MSTORE PUSH1 0x19 PUSH1 0x20 MSTORE PUSH1 0x40 DUP2 KECCAK256 PUSH1 0x4 ADD DUP1 SLOAD DUP4 SWAP3 SWAP1 PUSH2 0x500E SWAP1 DUP5 SWAP1 PUSH2 0x5BF2 JUMP JUMPDEST SWAP1 SWAP2 SSTORE POP POP PUSH1 0x1 PUSH1 0x1 PUSH1 0xA0 SHL SUB DUP5 AND PUSH0 SWAP1 DUP2 MSTORE PUSH1 0x12 PUSH1 0x20 MSTORE PUSH1 0x40 DUP2 KECCAK256 PUSH1 0xA ADD DUP5 SWAP1 SSTORE PUSH2 0x503C SWAP1 DUP6 SWAP1 DUP6 PUSH2 0x4023 JUMP JUMPDEST DUP3 PUSH2 0x5046 DUP2 PUSH2 0x5B60 JUMP JUMPDEST SWAP4 POP POP POP POP PUSH2 0x4E5B JUMP JUMPDEST PUSH0 PUSH2 0x505B DUP4 DUP4 PUSH2 0x51D4 JUMP JUMPDEST SWAP2 POP DUP2 ISZERO PUSH2 0x106E JUMPI PUSH1 0x1 PUSH1 0x1 PUSH1 0xA0 SHL SUB DUP4 AND PUSH0 SWAP1 DUP2 MSTORE PUSH1 0x12 PUSH1 0x20 MSTORE PUSH1 0x40 SWAP1 KECCAK256 PUSH1 0xA ADD SLOAD PUSH1 0x4 GT ISZERO PUSH2 0x512D JUMPI PUSH1 0x64 PUSH2 0x5093 DUP4 PUSH1 0x4B PUSH2 0x5B22 JUMP JUMPDEST PUSH2 0x509D SWAP2 SWAP1 PUSH2 0x5BD3 JUMP JUMPDEST PUSH1 0x1 PUSH1 0x1 PUSH1 0xA0 SHL SUB DUP5 AND PUSH0 SWAP1 DUP2 MSTORE PUSH1 0x1A PUSH1 0x20 SWAP1 DUP2 MSTORE PUSH1 0x40 DUP1 DUP4 KECCAK256 PUSH1 0xD SLOAD DUP5 MSTORE SWAP1 SWAP2 MSTORE DUP2 KECCAK256 DUP1 SLOAD SWAP1 SWAP2 SWAP1 PUSH2 0x50D1 SWAP1 DUP5 SWAP1 PUSH2 0x5BF2 JUMP JUMPDEST SWAP1 SWAP2 SSTORE POP PUSH1 0x64 SWAP1 POP PUSH2 0x50E4 DUP4 PUSH1 0x19 PUSH2 0x5B22 JUMP JUMPDEST PUSH2 0x50EE SWAP2 SWAP1 PUSH2 0x5BD3 JUMP JUMPDEST PUSH1 0x1 PUSH1 0x1 PUSH1 0xA0 SHL SUB DUP5 AND PUSH0 SWAP1 DUP2 MSTORE PUSH1 0x1A PUSH1 0x20 SWAP1 DUP2 MSTORE PUSH1 0x40 DUP1 DUP4 KECCAK256 PUSH1 0xE SLOAD DUP5 MSTORE SWAP1 SWAP2 MSTORE DUP2 KECCAK256 DUP1 SLOAD SWAP1 SWAP2 SWAP1 PUSH2 0x5122 SWAP1 DUP5 SWAP1 PUSH2 0x5BF2 JUMP JUMPDEST SWAP1 SWAP2 SSTORE POP PUSH2 0x106E SWAP1 POP JUMP JUMPDEST PUSH1 0x64 PUSH2 0x513A DUP4 PUSH1 0x32 PUSH2 0x5B22 JUMP JUMPDEST PUSH2 0x5144 SWAP2 SWAP1 PUSH2 0x5BD3 JUMP JUMPDEST PUSH1 0x1 PUSH1 0x1 PUSH1 0xA0 SHL SUB DUP5 AND PUSH0 SWAP1 DUP2 MSTORE PUSH1 0x1A PUSH1 0x20 SWAP1 DUP2 MSTORE PUSH1 0x40 DUP1 DUP4 KECCAK256 PUSH1 0xD SLOAD DUP5 MSTORE SWAP1 SWAP2 MSTORE DUP2 KECCAK256 DUP1 SLOAD SWAP1 SWAP2 SWAP1 PUSH2 0x5178 SWAP1 DUP5 SWAP1 PUSH2 0x5BF2 JUMP JUMPDEST SWAP1 SWAP2 SSTORE POP PUSH1 0x64 SWAP1 POP PUSH2 0x518B DUP4 PUSH1 0x32 PUSH2 0x5B22 JUMP JUMPDEST PUSH2 0x5195 SWAP2 SWAP1 PUSH2 0x5BD3 JUMP JUMPDEST PUSH1 0x1 PUSH1 0x1 PUSH1 0xA0 SHL SUB DUP5 AND PUSH0 SWAP1 DUP2 MSTORE PUSH1 0x1A PUSH1 0x20 SWAP1 DUP2 MSTORE PUSH1 0x40 DUP1 DUP4 KECCAK256 PUSH1 0xE SLOAD DUP5 MSTORE SWAP1 SWAP2 MSTORE DUP2 KECCAK256 DUP1 SLOAD SWAP1 SWAP2 SWAP1 PUSH2 0x51C9 SWAP1 DUP5 SWAP1 PUSH2 0x5BF2 JUMP JUMPDEST SWAP1 SWAP2 SSTORE POP POP POP SWAP2 SWAP1 POP JUMP JUMPDEST PUSH1 0x1 PUSH1 0x1 PUSH1 0xA0 SHL SUB DUP3 AND PUSH0 SWAP1 DUP2 MSTORE PUSH1 0x12 PUSH1 0x20 MSTORE PUSH1 0x40 DUP2 KECCAK256 PUSH1 0x9 ADD SLOAD TIMESTAMP LT PUSH2 0x51FC JUMPI POP PUSH0 PUSH2 0x2C3E JUMP JUMPDEST PUSH1 0x1 PUSH1 0x1 PUSH1 0xA0 SHL SUB DUP4 AND PUSH0 SWAP1 DUP2 MSTORE PUSH1 0x1B PUSH1 0x20 MSTORE PUSH1 0x40 SWAP1 KECCAK256 SLOAD DUP3 PUSH1 0x1 JUMPDEST DUP3 DUP2 GT PUSH2 0x52D3 JUMPI PUSH1 0x1 PUSH1 0x1 PUSH1 0xA0 SHL SUB DUP7 AND PUSH0 SWAP1 DUP2 MSTORE PUSH1 0x15 PUSH1 0x20 SWAP1 DUP2 MSTORE PUSH1 0x40 DUP1 DUP4 KECCAK256 DUP5 DUP5 MSTORE SWAP1 SWAP2 MSTORE DUP2 KECCAK256 PUSH1 0x4 DUP2 ADD SLOAD PUSH1 0x3 DUP3 ADD SLOAD SWAP2 SWAP3 SWAP2 GT PUSH2 0x5259 JUMPI PUSH0 PUSH2 0x526D JUMP JUMPDEST DUP2 PUSH1 0x4 ADD SLOAD DUP3 PUSH1 0x3 ADD SLOAD PUSH2 0x526D SWAP2 SWAP1 PUSH2 0x5B39 JUMP JUMPDEST SWAP1 POP DUP1 ISZERO PUSH2 0x52BE JUMPI PUSH0 DUP2 DUP6 GT ISZERO PUSH2 0x5284 JUMPI DUP2 PUSH2 0x5286 JUMP JUMPDEST DUP5 JUMPDEST SWAP1 POP DUP1 DUP4 PUSH1 0x4 ADD PUSH0 DUP3 DUP3 SLOAD PUSH2 0x529B SWAP2 SWAP1 PUSH2 0x5BF2 JUMP JUMPDEST SWAP1 SWAP2 SSTORE POP PUSH2 0x52AB SWAP1 POP DUP2 DUP7 PUSH2 0x5B39 JUMP JUMPDEST SWAP5 POP DUP5 PUSH0 SUB PUSH2 0x52BC JUMPI POP POP POP PUSH2 0x52D3 JUMP JUMPDEST POP JUMPDEST POP POP DUP1 DUP1 PUSH2 0x52CB SWAP1 PUSH2 0x5B60 JUMP JUMPDEST SWAP2 POP POP PUSH2 0x5218 JUMP JUMPDEST POP PUSH2 0x52DE DUP2 DUP6 PUSH2 0x5B39 JUMP JUMPDEST SWAP6 SWAP5 POP POP POP POP POP JUMP JUMPDEST PUSH1 0x40 MLOAD DUP1 PUSH1 0x60 ADD PUSH1 0x40 MSTORE DUP1 PUSH1 0x3 SWAP1 PUSH1 0x20 DUP3 MUL DUP1 CALLDATASIZE DUP4 CALLDATACOPY POP SWAP2 SWAP3 SWAP2 POP POP JUMP JUMPDEST DUP3 DUP1 SLOAD DUP3 DUP3 SSTORE SWAP1 PUSH0 MSTORE PUSH1 0x20 PUSH0 KECCAK256 SWAP1 DUP2 ADD SWAP3 DUP3 ISZERO PUSH2 0x5358 JUMPI SWAP2 PUSH1 0x20 MUL DUP3 ADD JUMPDEST DUP3 DUP2 GT ISZERO PUSH2 0x5358 JUMPI DUP3 MLOAD DUP3 SLOAD PUSH1 0x1 PUSH1 0x1 PUSH1 0xA0 SHL SUB NOT AND PUSH1 0x1 PUSH1 0x1 PUSH1 0xA0 SHL SUB SWAP1 SWAP2 AND OR DUP3 SSTORE PUSH1 0x20 SWAP1 SWAP3 ADD SWAP2 PUSH1 0x1 SWAP1 SWAP2 ADD SWAP1 PUSH2 0x5323 JUMP JUMPDEST POP PUSH2 0x5364 SWAP3 SWAP2 POP PUSH2 0x53A1 JUMP JUMPDEST POP SWAP1 JUMP JUMPDEST DUP3 DUP1 SLOAD DUP3 DUP3 SSTORE SWAP1 PUSH0 MSTORE PUSH1 0x20 PUSH0 KECCAK256 SWAP1 DUP2 ADD SWAP3 DUP3 ISZERO PUSH2 0x5358 JUMPI SWAP2 PUSH1 0x20 MUL DUP3 ADD JUMPDEST DUP3 DUP2 GT ISZERO PUSH2 0x5358 JUMPI DUP3 MLOAD DUP3 SSTORE SWAP2 PUSH1 0x20 ADD SWAP2 SWAP1 PUSH1 0x1 ADD SWAP1 PUSH2 0x5386 JUMP JUMPDEST JUMPDEST DUP1 DUP3 GT ISZERO PUSH2 0x5364 JUMPI PUSH0 DUP2 SSTORE PUSH1 0x1 ADD PUSH2 0x53A2 JUMP JUMPDEST DUP1 CALLDATALOAD PUSH1 0x1 PUSH1 0x1 PUSH1 0xA0 SHL SUB DUP2 AND DUP2 EQ PUSH2 0x53CB JUMPI PUSH0 DUP1 REVERT JUMPDEST SWAP2 SWAP1 POP JUMP JUMPDEST PUSH0 DUP1 PUSH1 0x40 DUP4 DUP6 SUB SLT ISZERO PUSH2 0x53E1 JUMPI PUSH0 DUP1 REVERT JUMPDEST PUSH2 0x53EA DUP4 PUSH2 0x53B5 JUMP JUMPDEST SWAP5 PUSH1 0x20 SWAP4 SWAP1 SWAP4 ADD CALLDATALOAD SWAP4 POP POP POP JUMP JUMPDEST PUSH0 PUSH1 0x20 DUP3 DUP5 SUB SLT ISZERO PUSH2 0x5408 JUMPI PUSH0 DUP1 REVERT JUMPDEST PUSH2 0x5411 DUP3 PUSH2 0x53B5 JUMP JUMPDEST SWAP4 SWAP3 POP POP POP JUMP JUMPDEST PUSH0 DUP1 PUSH0 PUSH1 0x60 DUP5 DUP7 SUB SLT ISZERO PUSH2 0x542A JUMPI PUSH0 DUP1 REVERT JUMPDEST PUSH2 0x5433 DUP5 PUSH2 0x53B5 JUMP JUMPDEST SWAP6 PUSH1 0x20 DUP6 ADD CALLDATALOAD SWAP6 POP PUSH1 0x40 SWAP1 SWAP5 ADD CALLDATALOAD SWAP4 SWAP3 POP POP POP JUMP JUMPDEST PUSH1 0x20 DUP1 DUP3 MSTORE DUP3 MLOAD DUP3 DUP3 ADD DUP2 SWAP1 MSTORE PUSH0 SWAP2 DUP5 ADD SWAP1 PUSH1 0x40 DUP5 ADD SWAP1 DUP4 JUMPDEST DUP2 DUP2 LT ISZERO PUSH2 0x549B JUMPI DUP4 MLOAD DUP1 MLOAD DUP5 MSTORE PUSH1 0x20 DUP2 ADD MLOAD PUSH1 0x20 DUP6 ADD MSTORE PUSH1 0x40 DUP2 ADD MLOAD PUSH1 0x40 DUP6 ADD MSTORE POP PUSH1 0x60 DUP4 ADD SWAP3 POP PUSH1 0x20 DUP5 ADD SWAP4 POP PUSH1 0x1 DUP2 ADD SWAP1 POP PUSH2 0x5461 JUMP JUMPDEST POP SWAP1 SWAP6 SWAP5 POP POP POP POP POP JUMP JUMPDEST PUSH1 0x20 DUP1 DUP3 MSTORE DUP3 MLOAD DUP3 DUP3 ADD DUP2 SWAP1 MSTORE PUSH0 SWAP2 DUP5 ADD SWAP1 PUSH1 0x40 DUP5 ADD SWAP1 DUP4 JUMPDEST DUP2 DUP2 LT ISZERO PUSH2 0x549B JUMPI DUP4 MLOAD DUP1 MLOAD DUP5 MSTORE PUSH1 0x20 DUP2 ADD MLOAD PUSH1 0x20 DUP6 ADD MSTORE PUSH1 0x40 DUP2 ADD MLOAD PUSH1 0x40 DUP6 ADD MSTORE PUSH1 0x60 DUP2 ADD MLOAD PUSH1 0x60 DUP6 ADD MSTORE PUSH1 0x80 DUP2 ADD MLOAD PUSH1 0x80 DUP6 ADD MSTORE POP PUSH1 0xA0 DUP4 ADD SWAP3 POP PUSH1 0x20 DUP5 ADD SWAP4 POP PUSH1 0x1 DUP2 ADD SWAP1 POP PUSH2 0x54BF JUMP JUMPDEST PUSH0 DUP2 MLOAD DUP1 DUP5 MSTORE DUP1 PUSH1 0x20 DUP5 ADD PUSH1 0x20 DUP7 ADD MCOPY PUSH0 PUSH1 0x20 DUP3 DUP7 ADD ADD MSTORE PUSH1 0x20 PUSH1 0x1F NOT PUSH1 0x1F DUP4 ADD AND DUP6 ADD ADD SWAP2 POP POP SWAP3 SWAP2 POP POP JUMP JUMPDEST PUSH0 PUSH1 0x20 DUP3 ADD PUSH1 0x20 DUP4 MSTORE DUP1 DUP5 MLOAD DUP1 DUP4 MSTORE PUSH1 0x40 DUP6 ADD SWAP2 POP PUSH1 0x40 DUP2 PUSH1 0x5 SHL DUP7 ADD ADD SWAP3 POP PUSH1 0x20 DUP7 ADD PUSH0 JUMPDEST DUP3 DUP2 LT ISZERO PUSH2 0x5612 JUMPI PUSH1 0x3F NOT DUP8 DUP7 SUB ADD DUP5 MSTORE DUP2 MLOAD DUP1 MLOAD DUP7 MSTORE PUSH1 0x20 DUP2 ADD MLOAD PUSH2 0x120 PUSH1 0x20 DUP9 ADD MSTORE PUSH2 0x5593 PUSH2 0x120 DUP9 ADD DUP3 PUSH2 0x550D JUMP JUMPDEST SWAP1 POP PUSH1 0x40 DUP3 ADD MLOAD PUSH1 0x40 DUP9 ADD MSTORE PUSH1 0x60 DUP3 ADD MLOAD PUSH2 0x55B2 PUSH1 0x60 DUP10 ADD DUP3 ISZERO ISZERO SWAP1 MSTORE JUMP JUMPDEST POP PUSH1 0x80 DUP3 ADD MLOAD PUSH2 0x55C6 PUSH1 0x80 DUP10 ADD DUP3 ISZERO ISZERO SWAP1 MSTORE JUMP JUMPDEST POP PUSH1 0xA0 DUP3 ADD MLOAD PUSH1 0xA0 DUP9 ADD MSTORE PUSH1 0xC0 DUP3 ADD MLOAD PUSH1 0xC0 DUP9 ADD MSTORE PUSH1 0xE0 DUP3 ADD MLOAD PUSH1 0xE0 DUP9 ADD MSTORE PUSH2 0x100 DUP3 ADD MLOAD SWAP2 POP PUSH2 0x55FC PUSH2 0x100 DUP9 ADD DUP4 ISZERO ISZERO SWAP1 MSTORE JUMP JUMPDEST SWAP6 POP POP PUSH1 0x20 SWAP4 DUP5 ADD SWAP4 SWAP2 SWAP1 SWAP2 ADD SWAP1 PUSH1 0x1 ADD PUSH2 0x5561 JUMP JUMPDEST POP SWAP3 SWAP7 SWAP6 POP POP POP POP POP POP JUMP JUMPDEST PUSH1 0x20 DUP1 DUP3 MSTORE DUP3 MLOAD DUP3 DUP3 ADD DUP2 SWAP1 MSTORE PUSH0 SWAP2 DUP5 ADD SWAP1 PUSH1 0x40 DUP5 ADD SWAP1 DUP4 JUMPDEST DUP2 DUP2 LT ISZERO PUSH2 0x549B JUMPI DUP4 MLOAD DUP1 MLOAD DUP5 MSTORE PUSH1 0x20 DUP2 ADD MLOAD PUSH1 0x20 DUP6 ADD MSTORE PUSH1 0x40 DUP2 ADD MLOAD PUSH1 0x40 DUP6 ADD MSTORE PUSH1 0x60 DUP2 ADD MLOAD PUSH1 0x60 DUP6 ADD MSTORE PUSH1 0x80 DUP2 ADD MLOAD PUSH1 0x80 DUP6 ADD MSTORE PUSH1 0xA0 DUP2 ADD MLOAD PUSH1 0xA0 DUP6 ADD MSTORE PUSH1 0xC0 DUP2 ADD MLOAD ISZERO ISZERO PUSH1 0xC0 DUP6 ADD MSTORE POP PUSH1 0xE0 DUP4 ADD SWAP3 POP PUSH1 0x20 DUP5 ADD SWAP4 POP PUSH1 0x1 DUP2 ADD SWAP1 POP PUSH2 0x5637 JUMP JUMPDEST PUSH1 0x20 DUP2 MSTORE PUSH2 0x56B5 PUSH1 0x20 DUP3 ADD DUP4 MLOAD PUSH1 0x1 PUSH1 0x1 PUSH1 0xA0 SHL SUB AND SWAP1 MSTORE JUMP JUMPDEST PUSH1 0x20 DUP3 ADD MLOAD PUSH1 0x40 DUP3 ADD MSTORE PUSH1 0x40 DUP3 ADD MLOAD PUSH1 0x60 DUP3 ADD MSTORE PUSH1 0x60 DUP3 ADD MLOAD PUSH1 0x80 DUP3 ADD MSTORE PUSH1 0x80 DUP3 ADD MLOAD PUSH1 0xA0 DUP3 ADD MSTORE PUSH1 0xA0 DUP3 ADD MLOAD PUSH1 0xC0 DUP3 ADD MSTORE PUSH1 0xC0 DUP3 ADD MLOAD PUSH1 0xE0 DUP3 ADD MSTORE PUSH1 0xE0 DUP3 ADD MLOAD PUSH2 0x100 DUP3 ADD MSTORE PUSH2 0x100 DUP3 ADD MLOAD PUSH2 0x120 DUP3 ADD MSTORE PUSH2 0x120 DUP3 ADD MLOAD PUSH2 0x140 DUP3 ADD MSTORE PUSH2 0x140 DUP3 ADD MLOAD PUSH2 0x160 DUP3 ADD MSTORE PUSH2 0x160 DUP3 ADD MLOAD PUSH2 0x180 DUP3 ADD MSTORE PUSH2 0x180 DUP3 ADD MLOAD PUSH2 0x1A0 DUP3 ADD MSTORE PUSH2 0x1A0 DUP3 ADD MLOAD PUSH2 0x1C0 DUP3 ADD MSTORE PUSH2 0x1C0 DUP3 ADD MLOAD PUSH2 0x1E0 DUP3 ADD MSTORE PUSH2 0x1E0 DUP3 ADD MLOAD PUSH2 0x200 DUP3 ADD MSTORE PUSH2 0x200 DUP3 ADD MLOAD PUSH2 0x220 DUP3 ADD MSTORE PUSH2 0x220 DUP3 ADD MLOAD PUSH2 0x240 DUP3 ADD MSTORE PUSH2 0x240 DUP3 ADD MLOAD PUSH2 0x260 DUP3 ADD MSTORE PUSH2 0x260 DUP3 ADD MLOAD PUSH2 0x280 DUP3 ADD MSTORE PUSH0 PUSH2 0x280 DUP4 ADD MLOAD PUSH2 0x320 PUSH2 0x2A0 DUP5 ADD MSTORE PUSH2 0x57AA PUSH2 0x340 DUP5 ADD DUP3 PUSH2 0x550D JUMP JUMPDEST SWAP1 POP PUSH2 0x2A0 DUP5 ADD MLOAD PUSH2 0x2C0 DUP5 ADD MSTORE PUSH2 0x2C0 DUP5 ADD MLOAD PUSH2 0x57CD PUSH2 0x2E0 DUP6 ADD DUP3 ISZERO ISZERO SWAP1 MSTORE JUMP JUMPDEST POP PUSH2 0x2E0 DUP5 ADD MLOAD DUP1 ISZERO ISZERO PUSH2 0x300 DUP6 ADD MSTORE POP PUSH2 0x300 DUP5 ADD MLOAD DUP1 ISZERO ISZERO PUSH2 0x320 DUP6 ADD MSTORE POP SWAP4 SWAP3 POP POP POP JUMP JUMPDEST PUSH0 DUP1 PUSH0 PUSH1 0x60 DUP5 DUP7 SUB SLT ISZERO PUSH2 0x5807 JUMPI PUSH0 DUP1 REVERT JUMPDEST PUSH2 0x5810 DUP5 PUSH2 0x53B5 JUMP JUMPDEST SWAP3 POP PUSH2 0x581E PUSH1 0x20 DUP6 ADD PUSH2 0x53B5 JUMP JUMPDEST SWAP3 SWAP6 SWAP3 SWAP5 POP POP POP PUSH1 0x40 SWAP2 SWAP1 SWAP2 ADD CALLDATALOAD SWAP1 JUMP JUMPDEST PUSH0 PUSH1 0x20 DUP3 DUP5 SUB SLT ISZERO PUSH2 0x583F JUMPI PUSH0 DUP1 REVERT JUMPDEST POP CALLDATALOAD SWAP2 SWAP1 POP JUMP JUMPDEST PUSH1 0x20 DUP1 DUP3 MSTORE DUP3 MLOAD DUP3 DUP3 ADD DUP2 SWAP1 MSTORE PUSH0 SWAP2 DUP5 ADD SWAP1 PUSH1 0x40 DUP5 ADD SWAP1 DUP4 JUMPDEST DUP2 DUP2 LT ISZERO PUSH2 0x549B JUMPI PUSH2 0x5899 DUP4 DUP6 MLOAD DUP1 MLOAD DUP3 MSTORE PUSH1 0x20 DUP1 DUP3 ADD MLOAD PUSH1 0x1 PUSH1 0x1 PUSH1 0xA0 SHL SUB AND SWAP1 DUP4 ADD MSTORE PUSH1 0x40 DUP1 DUP3 ADD MLOAD SWAP1 DUP4 ADD MSTORE PUSH1 0x60 SWAP1 DUP2 ADD MLOAD SWAP2 ADD MSTORE JUMP JUMPDEST PUSH1 0x20 SWAP4 SWAP1 SWAP4 ADD SWAP3 PUSH1 0x80 SWAP3 SWAP1 SWAP3 ADD SWAP2 PUSH1 0x1 ADD PUSH2 0x585F JUMP JUMPDEST PUSH1 0x20 DUP1 DUP3 MSTORE DUP3 MLOAD DUP3 DUP3 ADD DUP2 SWAP1 MSTORE PUSH0 SWAP2 DUP5 ADD SWAP1 PUSH1 0x40 DUP5 ADD SWAP1 DUP4 JUMPDEST DUP2 DUP2 LT ISZERO PUSH2 0x549B JUMPI DUP4 MLOAD DUP1 MLOAD DUP5 MSTORE PUSH1 0x20 SWAP1 DUP2 ADD MLOAD DUP2 DUP6 ADD MSTORE SWAP1 SWAP4 ADD SWAP3 PUSH1 0x40 SWAP1 SWAP3 ADD SWAP2 PUSH1 0x1 ADD PUSH2 0x58C8 JUMP JUMPDEST PUSH0 PUSH1 0x20 DUP3 ADD PUSH1 0x20 DUP4 MSTORE DUP1 DUP5 MLOAD DUP1 DUP4 MSTORE PUSH1 0x40 DUP6 ADD SWAP2 POP PUSH1 0x40 DUP2 PUSH1 0x5 SHL DUP7 ADD ADD SWAP3 POP PUSH1 0x20 DUP7 ADD PUSH0 JUMPDEST DUP3 DUP2 LT ISZERO PUSH2 0x5612 JUMPI PUSH1 0x3F NOT DUP8 DUP7 SUB ADD DUP5 MSTORE DUP2 MLOAD DUP1 MLOAD DUP7 MSTORE PUSH1 0x20 DUP2 ADD MLOAD PUSH2 0x1A0 PUSH1 0x20 DUP9 ADD MSTORE PUSH2 0x594A PUSH2 0x1A0 DUP9 ADD DUP3 PUSH2 0x550D JUMP JUMPDEST SWAP1 POP PUSH1 0x40 DUP3 ADD MLOAD PUSH1 0x40 DUP9 ADD MSTORE PUSH1 0x60 DUP3 ADD MLOAD PUSH1 0x60 DUP9 ADD MSTORE PUSH1 0x80 DUP3 ADD MLOAD PUSH1 0x80 DUP9 ADD MSTORE PUSH1 0xA0 DUP3 ADD MLOAD PUSH1 0xA0 DUP9 ADD MSTORE PUSH1 0xC0 DUP3 ADD MLOAD PUSH1 0xC0 DUP9 ADD MSTORE PUSH1 0xE0 DUP3 ADD MLOAD PUSH2 0x5991 PUSH1 0xE0 DUP10 ADD DUP3 ISZERO ISZERO SWAP1 MSTORE JUMP JUMPDEST POP PUSH2 0x100 DUP3 ADD MLOAD PUSH2 0x100 DUP9 ADD MSTORE PUSH2 0x120 DUP3 ADD MLOAD PUSH2 0x120 DUP9 ADD MSTORE PUSH2 0x140 DUP3 ADD MLOAD PUSH2 0x140 DUP9 ADD MSTORE PUSH2 0x160 DUP3 ADD MLOAD PUSH2 0x160 DUP9 ADD MSTORE PUSH2 0x180 DUP3 ADD MLOAD SWAP2 POP PUSH2 0x59D9 PUSH2 0x180 DUP9 ADD DUP4 ISZERO ISZERO SWAP1 MSTORE JUMP JUMPDEST SWAP6 POP POP PUSH1 0x20 SWAP4 DUP5 ADD SWAP4 SWAP2 SWAP1 SWAP2 ADD SWAP1 PUSH1 0x1 ADD PUSH2 0x5918 JUMP JUMPDEST DUP10 DUP2 MSTORE PUSH2 0x120 PUSH1 0x20 DUP3 ADD MSTORE PUSH0 PUSH2 0x5A09 PUSH2 0x120 DUP4 ADD DUP12 PUSH2 0x550D JUMP JUMPDEST PUSH1 0x40 DUP4 ADD SWAP10 SWAP1 SWAP10 MSTORE POP SWAP6 ISZERO ISZERO PUSH1 0x60 DUP8 ADD MSTORE SWAP4 ISZERO ISZERO PUSH1 0x80 DUP7 ADD MSTORE PUSH1 0xA0 DUP6 ADD SWAP3 SWAP1 SWAP3 MSTORE PUSH1 0xC0 DUP5 ADD MSTORE PUSH1 0xE0 DUP4 ADD MSTORE ISZERO ISZERO PUSH2 0x100 SWAP1 SWAP2 ADD MSTORE SWAP3 SWAP2 POP POP JUMP JUMPDEST PUSH0 DUP1 PUSH1 0x40 DUP4 DUP6 SUB SLT ISZERO PUSH2 0x5A54 JUMPI PUSH0 DUP1 REVERT JUMPDEST POP POP DUP1 CALLDATALOAD SWAP3 PUSH1 0x20 SWAP1 SWAP2 ADD CALLDATALOAD SWAP2 POP JUMP JUMPDEST PUSH1 0x20 DUP1 DUP3 MSTORE DUP3 MLOAD DUP3 DUP3 ADD DUP2 SWAP1 MSTORE PUSH0 SWAP2 DUP5 ADD SWAP1 PUSH1 0x40 DUP5 ADD SWAP1 DUP4 JUMPDEST DUP2 DUP2 LT ISZERO PUSH2 0x549B JUMPI PUSH2 0x5AB6 DUP4 DUP6 MLOAD DUP1 MLOAD DUP3 MSTORE PUSH1 0x20 DUP1 DUP3 ADD MLOAD PUSH1 0x1 PUSH1 0x1 PUSH1 0xA0 SHL SUB AND SWAP1 DUP4 ADD MSTORE PUSH1 0x40 DUP1 DUP3 ADD MLOAD SWAP1 DUP4 ADD MSTORE PUSH1 0x60 SWAP1 DUP2 ADD MLOAD SWAP2 ADD MSTORE JUMP JUMPDEST PUSH1 0x20 SWAP4 SWAP1 SWAP4 ADD SWAP3 PUSH1 0x80 SWAP3 SWAP1 SWAP3 ADD SWAP2 PUSH1 0x1 ADD PUSH2 0x5A7C JUMP JUMPDEST DUP8 DUP2 MSTORE PUSH1 0xE0 PUSH1 0x20 DUP3 ADD MSTORE PUSH0 PUSH2 0x5AE4 PUSH1 0xE0 DUP4 ADD DUP10 PUSH2 0x550D JUMP JUMPDEST PUSH1 0x40 DUP4 ADD SWAP8 SWAP1 SWAP8 MSTORE POP PUSH1 0x60 DUP2 ADD SWAP5 SWAP1 SWAP5 MSTORE PUSH1 0x80 DUP5 ADD SWAP3 SWAP1 SWAP3 MSTORE PUSH1 0xA0 DUP4 ADD MSTORE PUSH1 0xC0 SWAP1 SWAP2 ADD MSTORE SWAP3 SWAP2 POP POP JUMP JUMPDEST PUSH4 0x4E487B71 PUSH1 0xE0 SHL PUSH0 MSTORE PUSH1 0x11 PUSH1 0x4 MSTORE PUSH1 0x24 PUSH0 REVERT JUMPDEST DUP1 DUP3 MUL DUP2 ISZERO DUP3 DUP3 DIV DUP5 EQ OR PUSH2 0x2C3E JUMPI PUSH2 0x2C3E PUSH2 0x5B0E JUMP JUMPDEST DUP2 DUP2 SUB DUP2 DUP2 GT ISZERO PUSH2 0x2C3E JUMPI PUSH2 0x2C3E PUSH2 0x5B0E JUMP JUMPDEST PUSH4 0x4E487B71 PUSH1 0xE0 SHL PUSH0 MSTORE PUSH1 0x41 PUSH1 0x4 MSTORE PUSH1 0x24 PUSH0 REVERT JUMPDEST PUSH0 PUSH1 0x1 DUP3 ADD PUSH2 0x5B71 JUMPI PUSH2 0x5B71 PUSH2 0x5B0E JUMP JUMPDEST POP PUSH1 0x1 ADD SWAP1 JUMP JUMPDEST PUSH4 0x4E487B71 PUSH1 0xE0 SHL PUSH0 MSTORE PUSH1 0x32 PUSH1 0x4 MSTORE PUSH1 0x24 PUSH0 REVERT JUMPDEST PUSH0 DUP2 PUSH2 0x5B9A JUMPI PUSH2 0x5B9A PUSH2 0x5B0E JUMP JUMPDEST POP PUSH0 NOT ADD SWAP1 JUMP JUMPDEST PUSH1 0x1 DUP2 DUP2 SHR SWAP1 DUP3 AND DUP1 PUSH2 0x5BB5 JUMPI PUSH1 0x7F DUP3 AND SWAP2 POP JUMPDEST PUSH1 0x20 DUP3 LT DUP2 SUB PUSH2 0x106E JUMPI PUSH4 0x4E487B71 PUSH1 0xE0 SHL PUSH0 MSTORE PUSH1 0x22 PUSH1 0x4 MSTORE PUSH1 0x24 PUSH0 REVERT JUMPDEST PUSH0 DUP3 PUSH2 0x5BED JUMPI PUSH4 0x4E487B71 PUSH1 0xE0 SHL PUSH0 MSTORE PUSH1 0x12 PUSH1 0x4 MSTORE PUSH1 0x24 PUSH0 REVERT JUMPDEST POP DIV SWAP1 JUMP JUMPDEST DUP1 DUP3 ADD DUP1 DUP3 GT ISZERO PUSH2 0x2C3E JUMPI PUSH2 0x2C3E PUSH2 0x5B0E JUMP JUMPDEST PUSH1 0x20 DUP1 DUP3 MSTORE PUSH1 0x14 SWAP1 DUP3 ADD MSTORE PUSH20 0x596F7520617265206E6F7420616C6C6F77656421 PUSH1 0x60 SHL PUSH1 0x40 DUP3 ADD MSTORE PUSH1 0x60 ADD SWAP1 JUMP JUMPDEST PUSH1 0x1 DUP2 JUMPDEST PUSH1 0x1 DUP5 GT ISZERO PUSH2 0x5C6E JUMPI DUP1 DUP6 DIV DUP2 GT ISZERO PUSH2 0x5C52 JUMPI PUSH2 0x5C52 PUSH2 0x5B0E JUMP JUMPDEST PUSH1 0x1 DUP5 AND ISZERO PUSH2 0x5C60 JUMPI SWAP1 DUP2 MUL SWAP1 JUMPDEST PUSH1 0x1 SWAP4 SWAP1 SWAP4 SHR SWAP3 DUP1 MUL PUSH2 0x5C37 JUMP JUMPDEST SWAP4 POP SWAP4 SWAP2 POP POP JUMP JUMPDEST PUSH0 DUP3 PUSH2 0x5C84 JUMPI POP PUSH1 0x1 PUSH2 0x2C3E JUMP JUMPDEST DUP2 PUSH2 0x5C90 JUMPI POP PUSH0 PUSH2 0x2C3E JUMP JUMPDEST DUP2 PUSH1 0x1 DUP2 EQ PUSH2 0x5CA6 JUMPI PUSH1 0x2 DUP2 EQ PUSH2 0x5CB0 JUMPI PUSH2 0x5CCC JUMP JUMPDEST PUSH1 0x1 SWAP2 POP POP PUSH2 0x2C3E JUMP JUMPDEST PUSH1 0xFF DUP5 GT ISZERO PUSH2 0x5CC1 JUMPI PUSH2 0x5CC1 PUSH2 0x5B0E JUMP JUMPDEST POP POP PUSH1 0x1 DUP3 SHL PUSH2 0x2C3E JUMP JUMPDEST POP PUSH1 0x20 DUP4 LT PUSH2 0x133 DUP4 LT AND PUSH1 0x4E DUP5 LT PUSH1 0xB DUP5 LT AND OR ISZERO PUSH2 0x5CEF JUMPI POP DUP2 DUP2 EXP PUSH2 0x2C3E JUMP JUMPDEST PUSH2 0x5CFB PUSH0 NOT DUP5 DUP5 PUSH2 0x5C33 JUMP JUMPDEST DUP1 PUSH0 NOT DIV DUP3 GT ISZERO PUSH2 0x5D0E JUMPI PUSH2 0x5D0E PUSH2 0x5B0E JUMP JUMPDEST MUL SWAP4 SWAP3 POP POP POP JUMP JUMPDEST PUSH0 PUSH2 0x5411 DUP4 DUP4 PUSH2 0x5C76 JUMP JUMPDEST PUSH0 PUSH1 0x20 DUP3 DUP5 SUB SLT ISZERO PUSH2 0x5D31 JUMPI PUSH0 DUP1 REVERT JUMPDEST POP MLOAD SWAP2 SWAP1 POP JUMP JUMPDEST PUSH0 PUSH1 0x20 DUP3 DUP5 SUB SLT ISZERO PUSH2 0x5D48 JUMPI PUSH0 DUP1 REVERT JUMPDEST DUP2 MLOAD DUP1 ISZERO ISZERO DUP2 EQ PUSH2 0x5411 JUMPI PUSH0 DUP1 REVERT INVALID LOG2 PUSH5 0x6970667358 0x22 SLT KECCAK256 SHL DUP2 SWAP8 0xCE SWAP7 GAS 0xC2 0xDA 0xCF 0xE4 0xEB 0xA7 DIV OR MSIZE DUP4 EXTCODECOPY 0xA7 0xC4 0xF8 0xB7 PUSH5 0x7415647BE 0xA5 0xE1 0x1F INVALID GAS PUSH5 0x736F6C6343 STOP ADDMOD BYTE STOP CALLER "
		},
		"gasEstimates": {
			"creation": {
				"codeDepositCost": "4789800",
				"executionCost": "infinite",
				"totalCost": "infinite"
			},
			"external": {
				"CreatorAddress()": "2449",
				"CreatorAddress_2()": "2403",
				"Deposit(uint256,uint256)": "infinite",
				"GetContractDetails()": "infinite",
				"GetDashboardDetails(address)": "infinite",
				"GetDepositHistory(address,uint256,uint256)": "infinite",
				"GetDirects(address)": "infinite",
				"GetIncomeWithdrawalHistory(address,uint256,uint256)": "infinite",
				"GetLevelIncomeInfo(address)": "infinite",
				"GetPackages()": "infinite",
				"GetROIIncomeHistory(address,uint256,uint256)": "infinite",
				"GetRankInfo(address)": "infinite",
				"GetTeamDetails(address,uint256,uint256)": "infinite",
				"GetWalletBalance(address,uint256)": "2777",
				"Login(address)": "4882",
				"ManagementFee()": "2425",
				"MarketingAddress()": "2470",
				"Reactivate()": "infinite",
				"Register(address)": "infinite",
				"SecurityFundContract()": "2426",
				"SetSecurityFundContract(address)": "29009",
				"TopupMemberFromWallet(uint256,uint256)": "infinite",
				"TotalInvestment()": "2383",
				"TotalUsers()": "2382",
				"TotalWithdrawn()": "2340",
				"TransferFunds(address,address,uint256)": "infinite",
				"UpdateCreator2Address(address)": "29032",
				"UpdateCreatorAddress(address)": "29009",
				"UpdateMarketingAddress(address)": "29009",
				"UpdatePackageMaxAmount(uint256)": "26713",
				"Withdraw(uint256)": "infinite",
				"map_LevelIncomeMaster(uint256)": "6865",
				"map_PackageMaster(uint256)": "infinite",
				"map_ROIIncomeHistory(address,uint256)": "6930",
				"map_RankMaster(uint256)": "infinite",
				"map_TeamALegAddress(address)": "2623",
				"map_UserBusinessOnLevel(address,uint256)": "2700",
				"map_UserDeposits(address,uint256)": "11265",
				"map_UserIdToAddress(uint256)": "2629",
				"map_UserIncome(address)": "13231",
				"map_UserIncomeWithdrawalHistory(address,uint256)": "4784",
				"map_UserTeam(address)": "9053",
				"map_UserTransactionCount(address)": "9051",
				"map_UserWalletBalance(address,uint256)": "2678",
				"map_Users(address)": "26189"
			},
			"internal": {
				"CapAndCreditIncomeToWallet(address,uint256)": "infinite",
				"CapIncome(address,uint256)": "infinite",
				"CapIncomeView(address,uint256)": "infinite",
				"ConvertToBase(uint256)": "infinite",
				"DepositInternal(uint256,uint256)": "infinite",
				"DistributeLevelIncome(address)": "infinite",
				"GetCapping4X_QualificationEndTimestamp(address)": "infinite",
				"GetContractBalance()": "infinite",
				"GetPendingROIIncome(address)": "infinite",
				"GetTotalIncome(address)": "infinite",
				"GetTotalLevelIncome(address)": "infinite",
				"GetUserCappingAmount(address)": "infinite",
				"HasOneTimeInvestment(address,uint256)": "infinite",
				"HasUserActivationExpired(address)": "infinite",
				"Init()": "infinite",
				"InitLevelIncomeMaster()": "infinite",
				"InitPackageMaster()": "infinite",
				"InitRankMaster()": "infinite",
				"InitTopUser()": "infinite",
				"IsCappingRemaining(address)": "infinite",
				"IsOwner()": "4300",
				"IsQualifiedForLevelIncome(address,uint256)": "4431",
				"Process24HoursTopmostSponsorsIncome(uint256)": "infinite",
				"Process4X_CappingQualification(address,uint256,uint256)": "infinite",
				"ProcessNewRegistrationBonus(address,uint256)": "infinite",
				"ProcessROIIncome(address,uint256,uint256,uint256,uint256)": "infinite",
				"ProcessRankQualification(address)": "infinite",
				"ProcessRanks(address)": "infinite",
				"ReactivateInternal(address,uint256,uint256)": "infinite",
				"ReceiveTokens(uint256)": "infinite",
				"RegisterInternal(address)": "infinite",
				"SaveDeposit(address,uint256,uint256)": "infinite",
				"SaveUser(address,address)": "infinite",
				"SendTokens(address,uint256)": "infinite",
				"SendTokensFromSecurityContract(address,uint256)": "infinite",
				"UpdateTeamCount(address,address)": "infinite",
				"UpdateTeamInvestment(address,uint256)": "infinite",
				"doesUserExist(address)": "infinite",
				"isUserActive(address)": "infinite"
			}
		},
		"methodIdentifiers": {
			"CreatorAddress()": "1cfa6e9b",
			"CreatorAddress_2()": "b5d962b7",
			"Deposit(uint256,uint256)": "a3af609b",
			"GetContractDetails()": "6b1a7086",
			"GetDashboardDetails(address)": "54a03e38",
			"GetDepositHistory(address,uint256,uint256)": "2e628e2e",
			"GetDirects(address)": "5be94e83",
			"GetIncomeWithdrawalHistory(address,uint256,uint256)": "759369d2",
			"GetLevelIncomeInfo(address)": "4a40f2fe",
			"GetPackages()": "3daa551c",
			"GetROIIncomeHistory(address,uint256,uint256)": "2e244fc7",
			"GetRankInfo(address)": "8b2c295e",
			"GetTeamDetails(address,uint256,uint256)": "dacbb37e",
			"GetWalletBalance(address,uint256)": "fd0bb36c",
			"Login(address)": "eecc1c95",
			"ManagementFee()": "b66db385",
			"MarketingAddress()": "3936e8b9",
			"Reactivate()": "ff9b6364",
			"Register(address)": "eeda149c",
			"SecurityFundContract()": "88cb410d",
			"SetSecurityFundContract(address)": "a5f94521",
			"TopupMemberFromWallet(uint256,uint256)": "a9a4c9bf",
			"TotalInvestment()": "a4b6f5e1",
			"TotalUsers()": "641fba96",
			"TotalWithdrawn()": "4788312f",
			"TransferFunds(address,address,uint256)": "5a015583",
			"UpdateCreator2Address(address)": "94c1e22b",
			"UpdateCreatorAddress(address)": "68ec2fbe",
			"UpdateMarketingAddress(address)": "ba32f6f4",
			"UpdatePackageMaxAmount(uint256)": "b1878162",
			"Withdraw(uint256)": "5b6b431d",
			"map_LevelIncomeMaster(uint256)": "705116a0",
			"map_PackageMaster(uint256)": "a18a609a",
			"map_ROIIncomeHistory(address,uint256)": "2dedf15a",
			"map_RankMaster(uint256)": "edbdc914",
			"map_TeamALegAddress(address)": "7e2594b8",
			"map_UserBusinessOnLevel(address,uint256)": "1bfe37ce",
			"map_UserDeposits(address,uint256)": "365152fa",
			"map_UserIdToAddress(uint256)": "ac3a4800",
			"map_UserIncome(address)": "e315927b",
			"map_UserIncomeWithdrawalHistory(address,uint256)": "07d94067",
			"map_UserTeam(address)": "2a530a36",
			"map_UserTransactionCount(address)": "c5f00964",
			"map_UserWalletBalance(address,uint256)": "1362e8e6",
			"map_Users(address)": "5cf75517"
		}
	},
	"abi": [
		{
			"inputs": [],
			"stateMutability": "nonpayable",
			"type": "constructor"
		},
		{
			"anonymous": false,
			"inputs": [
				{
					"indexed": true,
					"internalType": "address",
					"name": "from",
					"type": "address"
				},
				{
					"indexed": true,
					"internalType": "address",
					"name": "to",
					"type": "address"
				},
				{
					"indexed": false,
					"internalType": "uint256",
					"name": "value",
					"type": "uint256"
				}
			],
			"name": "Transfer",
			"type": "event"
		},
		{
			"inputs": [],
			"name": "CreatorAddress",
			"outputs": [
				{
					"internalType": "address",
					"name": "",
					"type": "address"
				}
			],
			"stateMutability": "view",
			"type": "function"
		},
		{
			"inputs": [],
			"name": "CreatorAddress_2",
			"outputs": [
				{
					"internalType": "address",
					"name": "",
					"type": "address"
				}
			],
			"stateMutability": "view",
			"type": "function"
		},
		{
			"inputs": [
				{
					"internalType": "uint256",
					"name": "packageId",
					"type": "uint256"
				},
				{
					"internalType": "uint256",
					"name": "amount",
					"type": "uint256"
				}
			],
			"name": "Deposit",
			"outputs": [],
			"stateMutability": "payable",
			"type": "function"
		},
		{
			"inputs": [],
			"name": "GetContractDetails",
			"outputs": [
				{
					"components": [
						{
							"internalType": "uint256",
							"name": "TotalCommunity",
							"type": "uint256"
						},
						{
							"internalType": "uint256",
							"name": "CommunityInvestment",
							"type": "uint256"
						},
						{
							"internalType": "uint256",
							"name": "CommunityWithdrawal",
							"type": "uint256"
						},
						{
							"internalType": "uint256",
							"name": "ContractBalance",
							"type": "uint256"
						},
						{
							"internalType": "bool",
							"name": "IsWithdrawalAllowedAfterPrincipleAmount",
							"type": "bool"
						}
					],
					"internalType": "struct BBD.ContractInfo",
					"name": "info",
					"type": "tuple"
				}
			],
			"stateMutability": "view",
			"type": "function"
		},
		{
			"inputs": [
				{
					"internalType": "address",
					"name": "userAddress",
					"type": "address"
				}
			],
			"name": "GetDashboardDetails",
			"outputs": [
				{
					"components": [
						{
							"internalType": "address",
							"name": "SponsorAddress",
							"type": "address"
						},
						{
							"internalType": "uint256",
							"name": "Investment",
							"type": "uint256"
						},
						{
							"internalType": "uint256",
							"name": "DirectsCount",
							"type": "uint256"
						},
						{
							"internalType": "uint256",
							"name": "DirectsInvestment",
							"type": "uint256"
						},
						{
							"internalType": "uint256",
							"name": "TeamCount",
							"type": "uint256"
						},
						{
							"internalType": "uint256",
							"name": "TeamA_Business",
							"type": "uint256"
						},
						{
							"internalType": "uint256",
							"name": "TeamB_Business",
							"type": "uint256"
						},
						{
							"internalType": "uint256",
							"name": "TeamInvestment",
							"type": "uint256"
						},
						{
							"internalType": "uint256",
							"name": "NewRegistrationBonus",
							"type": "uint256"
						},
						{
							"internalType": "uint256",
							"name": "ReferralIncome",
							"type": "uint256"
						},
						{
							"internalType": "uint256",
							"name": "LevelIncome",
							"type": "uint256"
						},
						{
							"internalType": "uint256",
							"name": "ROIIncome",
							"type": "uint256"
						},
						{
							"internalType": "uint256",
							"name": "PendingROIIncome",
							"type": "uint256"
						},
						{
							"internalType": "uint256",
							"name": "RankIncome",
							"type": "uint256"
						},
						{
							"internalType": "uint256",
							"name": "TopmostSponsorsIncome",
							"type": "uint256"
						},
						{
							"internalType": "uint256",
							"name": "TotalIncome",
							"type": "uint256"
						},
						{
							"internalType": "uint256",
							"name": "Capping",
							"type": "uint256"
						},
						{
							"internalType": "uint256",
							"name": "AmountWithdrawn",
							"type": "uint256"
						},
						{
							"internalType": "uint256",
							"name": "WithdrawalWalletBalance",
							"type": "uint256"
						},
						{
							"internalType": "uint256",
							"name": "TopupWalletBalance",
							"type": "uint256"
						},
						{
							"internalType": "string",
							"name": "RankName",
							"type": "string"
						},
						{
							"internalType": "uint256",
							"name": "Capping4X_QualificationEndTimestamp",
							"type": "uint256"
						},
						{
							"internalType": "bool",
							"name": "IsCappingRemaining",
							"type": "bool"
						},
						{
							"internalType": "bool",
							"name": "IsQualifiedFor4X",
							"type": "bool"
						},
						{
							"internalType": "bool",
							"name": "IsFirstActivationDone",
							"type": "bool"
						}
					],
					"internalType": "struct BBD.UserDashboard",
					"name": "info",
					"type": "tuple"
				}
			],
			"stateMutability": "view",
			"type": "function"
		},
		{
			"inputs": [
				{
					"internalType": "address",
					"name": "userAddress",
					"type": "address"
				},
				{
					"internalType": "uint256",
					"name": "pageIndex",
					"type": "uint256"
				},
				{
					"internalType": "uint256",
					"name": "pageSize",
					"type": "uint256"
				}
			],
			"name": "GetDepositHistory",
			"outputs": [
				{
					"components": [
						{
							"internalType": "uint256",
							"name": "PackageId",
							"type": "uint256"
						},
						{
							"internalType": "uint256",
							"name": "Amount",
							"type": "uint256"
						},
						{
							"internalType": "uint256",
							"name": "Timestamp",
							"type": "uint256"
						},
						{
							"internalType": "uint256",
							"name": "Capping",
							"type": "uint256"
						},
						{
							"internalType": "uint256",
							"name": "IncomePaid",
							"type": "uint256"
						}
					],
					"internalType": "struct BBD.UserDeposit[]",
					"name": "deposits",
					"type": "tuple[]"
				}
			],
			"stateMutability": "view",
			"type": "function"
		},
		{
			"inputs": [
				{
					"internalType": "address",
					"name": "userAddress",
					"type": "address"
				}
			],
			"name": "GetDirects",
			"outputs": [
				{
					"components": [
						{
							"internalType": "uint256",
							"name": "Srno",
							"type": "uint256"
						},
						{
							"internalType": "address",
							"name": "Address",
							"type": "address"
						},
						{
							"internalType": "uint256",
							"name": "Investment",
							"type": "uint256"
						},
						{
							"internalType": "uint256",
							"name": "Business",
							"type": "uint256"
						}
					],
					"internalType": "struct BBD.UserDirects[]",
					"name": "directs",
					"type": "tuple[]"
				}
			],
			"stateMutability": "view",
			"type": "function"
		},
		{
			"inputs": [
				{
					"internalType": "address",
					"name": "userAddress",
					"type": "address"
				},
				{
					"internalType": "uint256",
					"name": "pageIndex",
					"type": "uint256"
				},
				{
					"internalType": "uint256",
					"name": "pageSize",
					"type": "uint256"
				}
			],
			"name": "GetIncomeWithdrawalHistory",
			"outputs": [
				{
					"components": [
						{
							"internalType": "uint256",
							"name": "Amount",
							"type": "uint256"
						},
						{
							"internalType": "uint256",
							"name": "Timestamp",
							"type": "uint256"
						}
					],
					"internalType": "struct BBD.UserIncomeWithdrawalTransaction[]",
					"name": "history",
					"type": "tuple[]"
				}
			],
			"stateMutability": "view",
			"type": "function"
		},
		{
			"inputs": [
				{
					"internalType": "address",
					"name": "userAddress",
					"type": "address"
				}
			],
			"name": "GetLevelIncomeInfo",
			"outputs": [
				{
					"components": [
						{
							"internalType": "uint256",
							"name": "Level",
							"type": "uint256"
						},
						{
							"internalType": "uint256",
							"name": "RequiredMinRankId",
							"type": "uint256"
						},
						{
							"internalType": "uint256",
							"name": "RankId",
							"type": "uint256"
						},
						{
							"internalType": "uint256",
							"name": "OnAmount",
							"type": "uint256"
						},
						{
							"internalType": "uint256",
							"name": "Percentage",
							"type": "uint256"
						},
						{
							"internalType": "uint256",
							"name": "Income",
							"type": "uint256"
						},
						{
							"internalType": "bool",
							"name": "IsLevelAchieved",
							"type": "bool"
						}
					],
					"internalType": "struct BBD.LevelIncomeInfo[]",
					"name": "info",
					"type": "tuple[]"
				}
			],
			"stateMutability": "view",
			"type": "function"
		},
		{
			"inputs": [],
			"name": "GetPackages",
			"outputs": [
				{
					"components": [
						{
							"internalType": "uint256",
							"name": "PackageId",
							"type": "uint256"
						},
						{
							"internalType": "string",
							"name": "Name",
							"type": "string"
						},
						{
							"internalType": "uint256",
							"name": "Amount",
							"type": "uint256"
						},
						{
							"internalType": "bool",
							"name": "IsActive",
							"type": "bool"
						},
						{
							"internalType": "bool",
							"name": "HasRange",
							"type": "bool"
						},
						{
							"internalType": "uint256",
							"name": "MinAmount",
							"type": "uint256"
						},
						{
							"internalType": "uint256",
							"name": "MaxAmount",
							"type": "uint256"
						},
						{
							"internalType": "uint256",
							"name": "ReferralIncome",
							"type": "uint256"
						},
						{
							"internalType": "bool",
							"name": "IsReferralIncomePercentage",
							"type": "bool"
						}
					],
					"internalType": "struct BBD.PackageMaster[]",
					"name": "",
					"type": "tuple[]"
				}
			],
			"stateMutability": "view",
			"type": "function"
		},
		{
			"inputs": [
				{
					"internalType": "address",
					"name": "userAddress",
					"type": "address"
				},
				{
					"internalType": "uint256",
					"name": "pageIndex",
					"type": "uint256"
				},
				{
					"internalType": "uint256",
					"name": "pageSize",
					"type": "uint256"
				}
			],
			"name": "GetROIIncomeHistory",
			"outputs": [
				{
					"components": [
						{
							"internalType": "uint256",
							"name": "OnAmount",
							"type": "uint256"
						},
						{
							"internalType": "uint256",
							"name": "Timestamp",
							"type": "uint256"
						},
						{
							"internalType": "uint256",
							"name": "Income",
							"type": "uint256"
						}
					],
					"internalType": "struct BBD.ROIIncomeDetail[]",
					"name": "history",
					"type": "tuple[]"
				}
			],
			"stateMutability": "view",
			"type": "function"
		},
		{
			"inputs": [
				{
					"internalType": "address",
					"name": "userAddress",
					"type": "address"
				}
			],
			"name": "GetRankInfo",
			"outputs": [
				{
					"components": [
						{
							"internalType": "uint256",
							"name": "RankId",
							"type": "uint256"
						},
						{
							"internalType": "string",
							"name": "RankName",
							"type": "string"
						},
						{
							"internalType": "uint256",
							"name": "ReqSelfInvestment",
							"type": "uint256"
						},
						{
							"internalType": "uint256",
							"name": "ReqTeamA_Business",
							"type": "uint256"
						},
						{
							"internalType": "uint256",
							"name": "ReqTeamB_Business",
							"type": "uint256"
						},
						{
							"internalType": "uint256",
							"name": "ReqTeamCount",
							"type": "uint256"
						},
						{
							"internalType": "uint256",
							"name": "UserSelfInvestment",
							"type": "uint256"
						},
						{
							"internalType": "bool",
							"name": "HasOneTimeSelfInvestment",
							"type": "bool"
						},
						{
							"internalType": "uint256",
							"name": "UserTeamA_Business",
							"type": "uint256"
						},
						{
							"internalType": "uint256",
							"name": "UserTeamB_Business",
							"type": "uint256"
						},
						{
							"internalType": "uint256",
							"name": "UserTeamCount",
							"type": "uint256"
						},
						{
							"internalType": "uint256",
							"name": "RewardAmount",
							"type": "uint256"
						},
						{
							"internalType": "bool",
							"name": "IsAchieved",
							"type": "bool"
						}
					],
					"internalType": "struct BBD.RankInfo[]",
					"name": "info",
					"type": "tuple[]"
				}
			],
			"stateMutability": "view",
			"type": "function"
		},
		{
			"inputs": [
				{
					"internalType": "address",
					"name": "userAddress",
					"type": "address"
				},
				{
					"internalType": "uint256",
					"name": "pageIndex",
					"type": "uint256"
				},
				{
					"internalType": "uint256",
					"name": "pageSize",
					"type": "uint256"
				}
			],
			"name": "GetTeamDetails",
			"outputs": [
				{
					"components": [
						{
							"internalType": "uint256",
							"name": "Srno",
							"type": "uint256"
						},
						{
							"internalType": "address",
							"name": "Address",
							"type": "address"
						},
						{
							"internalType": "uint256",
							"name": "Investment",
							"type": "uint256"
						},
						{
							"internalType": "uint256",
							"name": "Business",
							"type": "uint256"
						}
					],
					"internalType": "struct BBD.UserTeamMember[]",
					"name": "team",
					"type": "tuple[]"
				}
			],
			"stateMutability": "view",
			"type": "function"
		},
		{
			"inputs": [
				{
					"internalType": "address",
					"name": "userAddress",
					"type": "address"
				},
				{
					"internalType": "uint256",
					"name": "walletId",
					"type": "uint256"
				}
			],
			"name": "GetWalletBalance",
			"outputs": [
				{
					"internalType": "uint256",
					"name": "",
					"type": "uint256"
				}
			],
			"stateMutability": "view",
			"type": "function"
		},
		{
			"inputs": [
				{
					"internalType": "address",
					"name": "_address",
					"type": "address"
				}
			],
			"name": "Login",
			"outputs": [
				{
					"internalType": "bool",
					"name": "",
					"type": "bool"
				}
			],
			"stateMutability": "view",
			"type": "function"
		},
		{
			"inputs": [],
			"name": "ManagementFee",
			"outputs": [
				{
					"internalType": "address",
					"name": "",
					"type": "address"
				}
			],
			"stateMutability": "view",
			"type": "function"
		},
		{
			"inputs": [],
			"name": "MarketingAddress",
			"outputs": [
				{
					"internalType": "address",
					"name": "",
					"type": "address"
				}
			],
			"stateMutability": "view",
			"type": "function"
		},
		{
			"inputs": [],
			"name": "Reactivate",
			"outputs": [
				{
					"internalType": "bool",
					"name": "",
					"type": "bool"
				}
			],
			"stateMutability": "nonpayable",
			"type": "function"
		},
		{
			"inputs": [
				{
					"internalType": "address",
					"name": "sponsorAddress",
					"type": "address"
				}
			],
			"name": "Register",
			"outputs": [],
			"stateMutability": "payable",
			"type": "function"
		},
		{
			"inputs": [],
			"name": "SecurityFundContract",
			"outputs": [
				{
					"internalType": "address",
					"name": "",
					"type": "address"
				}
			],
			"stateMutability": "view",
			"type": "function"
		},
		{
			"inputs": [
				{
					"internalType": "address",
					"name": "_security",
					"type": "address"
				}
			],
			"name": "SetSecurityFundContract",
			"outputs": [],
			"stateMutability": "nonpayable",
			"type": "function"
		},
		{
			"inputs": [
				{
					"internalType": "uint256",
					"name": "packageId",
					"type": "uint256"
				},
				{
					"internalType": "uint256",
					"name": "amount",
					"type": "uint256"
				}
			],
			"name": "TopupMemberFromWallet",
			"outputs": [],
			"stateMutability": "nonpayable",
			"type": "function"
		},
		{
			"inputs": [],
			"name": "TotalInvestment",
			"outputs": [
				{
					"internalType": "uint256",
					"name": "",
					"type": "uint256"
				}
			],
			"stateMutability": "view",
			"type": "function"
		},
		{
			"inputs": [],
			"name": "TotalUsers",
			"outputs": [
				{
					"internalType": "uint256",
					"name": "",
					"type": "uint256"
				}
			],
			"stateMutability": "view",
			"type": "function"
		},
		{
			"inputs": [],
			"name": "TotalWithdrawn",
			"outputs": [
				{
					"internalType": "uint256",
					"name": "",
					"type": "uint256"
				}
			],
			"stateMutability": "view",
			"type": "function"
		},
		{
			"inputs": [
				{
					"internalType": "address",
					"name": "from",
					"type": "address"
				},
				{
					"internalType": "address",
					"name": "to",
					"type": "address"
				},
				{
					"internalType": "uint256",
					"name": "value",
					"type": "uint256"
				}
			],
			"name": "TransferFunds",
			"outputs": [],
			"stateMutability": "nonpayable",
			"type": "function"
		},
		{
			"inputs": [
				{
					"internalType": "address",
					"name": "addr",
					"type": "address"
				}
			],
			"name": "UpdateCreator2Address",
			"outputs": [],
			"stateMutability": "nonpayable",
			"type": "function"
		},
		{
			"inputs": [
				{
					"internalType": "address",
					"name": "addr",
					"type": "address"
				}
			],
			"name": "UpdateCreatorAddress",
			"outputs": [],
			"stateMutability": "nonpayable",
			"type": "function"
		},
		{
			"inputs": [
				{
					"internalType": "address",
					"name": "addr",
					"type": "address"
				}
			],
			"name": "UpdateMarketingAddress",
			"outputs": [],
			"stateMutability": "nonpayable",
			"type": "function"
		},
		{
			"inputs": [
				{
					"internalType": "uint256",
					"name": "amount",
					"type": "uint256"
				}
			],
			"name": "UpdatePackageMaxAmount",
			"outputs": [],
			"stateMutability": "nonpayable",
			"type": "function"
		},
		{
			"inputs": [
				{
					"internalType": "uint256",
					"name": "amount",
					"type": "uint256"
				}
			],
			"name": "Withdraw",
			"outputs": [],
			"stateMutability": "nonpayable",
			"type": "function"
		},
		{
			"inputs": [
				{
					"internalType": "uint256",
					"name": "",
					"type": "uint256"
				}
			],
			"name": "map_LevelIncomeMaster",
			"outputs": [
				{
					"internalType": "uint256",
					"name": "Level",
					"type": "uint256"
				},
				{
					"internalType": "uint256",
					"name": "Percentage",
					"type": "uint256"
				},
				{
					"internalType": "uint256",
					"name": "RequiredMinRankId",
					"type": "uint256"
				}
			],
			"stateMutability": "view",
			"type": "function"
		},
		{
			"inputs": [
				{
					"internalType": "uint256",
					"name": "",
					"type": "uint256"
				}
			],
			"name": "map_PackageMaster",
			"outputs": [
				{
					"internalType": "uint256",
					"name": "PackageId",
					"type": "uint256"
				},
				{
					"internalType": "string",
					"name": "Name",
					"type": "string"
				},
				{
					"internalType": "uint256",
					"name": "Amount",
					"type": "uint256"
				},
				{
					"internalType": "bool",
					"name": "IsActive",
					"type": "bool"
				},
				{
					"internalType": "bool",
					"name": "HasRange",
					"type": "bool"
				},
				{
					"internalType": "uint256",
					"name": "MinAmount",
					"type": "uint256"
				},
				{
					"internalType": "uint256",
					"name": "MaxAmount",
					"type": "uint256"
				},
				{
					"internalType": "uint256",
					"name": "ReferralIncome",
					"type": "uint256"
				},
				{
					"internalType": "bool",
					"name": "IsReferralIncomePercentage",
					"type": "bool"
				}
			],
			"stateMutability": "view",
			"type": "function"
		},
		{
			"inputs": [
				{
					"internalType": "address",
					"name": "",
					"type": "address"
				},
				{
					"internalType": "uint256",
					"name": "",
					"type": "uint256"
				}
			],
			"name": "map_ROIIncomeHistory",
			"outputs": [
				{
					"internalType": "uint256",
					"name": "OnAmount",
					"type": "uint256"
				},
				{
					"internalType": "uint256",
					"name": "Timestamp",
					"type": "uint256"
				},
				{
					"internalType": "uint256",
					"name": "Income",
					"type": "uint256"
				}
			],
			"stateMutability": "view",
			"type": "function"
		},
		{
			"inputs": [
				{
					"internalType": "uint256",
					"name": "",
					"type": "uint256"
				}
			],
			"name": "map_RankMaster",
			"outputs": [
				{
					"internalType": "uint256",
					"name": "RankId",
					"type": "uint256"
				},
				{
					"internalType": "string",
					"name": "RankName",
					"type": "string"
				},
				{
					"internalType": "uint256",
					"name": "ReqSelfInvestment",
					"type": "uint256"
				},
				{
					"internalType": "uint256",
					"name": "ReqTeamCount",
					"type": "uint256"
				},
				{
					"internalType": "uint256",
					"name": "ReqTeamA_Business",
					"type": "uint256"
				},
				{
					"internalType": "uint256",
					"name": "ReqTeamB_Business",
					"type": "uint256"
				},
				{
					"internalType": "uint256",
					"name": "RewardAmount",
					"type": "uint256"
				}
			],
			"stateMutability": "view",
			"type": "function"
		},
		{
			"inputs": [
				{
					"internalType": "address",
					"name": "",
					"type": "address"
				}
			],
			"name": "map_TeamALegAddress",
			"outputs": [
				{
					"internalType": "address",
					"name": "",
					"type": "address"
				}
			],
			"stateMutability": "view",
			"type": "function"
		},
		{
			"inputs": [
				{
					"internalType": "address",
					"name": "",
					"type": "address"
				},
				{
					"internalType": "uint256",
					"name": "",
					"type": "uint256"
				}
			],
			"name": "map_UserBusinessOnLevel",
			"outputs": [
				{
					"internalType": "uint256",
					"name": "",
					"type": "uint256"
				}
			],
			"stateMutability": "view",
			"type": "function"
		},
		{
			"inputs": [
				{
					"internalType": "address",
					"name": "",
					"type": "address"
				},
				{
					"internalType": "uint256",
					"name": "",
					"type": "uint256"
				}
			],
			"name": "map_UserDeposits",
			"outputs": [
				{
					"internalType": "uint256",
					"name": "PackageId",
					"type": "uint256"
				},
				{
					"internalType": "uint256",
					"name": "Amount",
					"type": "uint256"
				},
				{
					"internalType": "uint256",
					"name": "Timestamp",
					"type": "uint256"
				},
				{
					"internalType": "uint256",
					"name": "Capping",
					"type": "uint256"
				},
				{
					"internalType": "uint256",
					"name": "IncomePaid",
					"type": "uint256"
				}
			],
			"stateMutability": "view",
			"type": "function"
		},
		{
			"inputs": [
				{
					"internalType": "uint256",
					"name": "",
					"type": "uint256"
				}
			],
			"name": "map_UserIdToAddress",
			"outputs": [
				{
					"internalType": "address",
					"name": "",
					"type": "address"
				}
			],
			"stateMutability": "view",
			"type": "function"
		},
		{
			"inputs": [
				{
					"internalType": "address",
					"name": "",
					"type": "address"
				}
			],
			"name": "map_UserIncome",
			"outputs": [
				{
					"internalType": "uint256",
					"name": "ReferralIncome",
					"type": "uint256"
				},
				{
					"internalType": "uint256",
					"name": "NewRegistrationBonus",
					"type": "uint256"
				},
				{
					"internalType": "uint256",
					"name": "ROIIncome",
					"type": "uint256"
				},
				{
					"internalType": "uint256",
					"name": "RankIncome",
					"type": "uint256"
				},
				{
					"internalType": "uint256",
					"name": "TopmostSponsorsIncome",
					"type": "uint256"
				},
				{
					"internalType": "uint256",
					"name": "AmountWithdrawn",
					"type": "uint256"
				}
			],
			"stateMutability": "view",
			"type": "function"
		},
		{
			"inputs": [
				{
					"internalType": "address",
					"name": "",
					"type": "address"
				},
				{
					"internalType": "uint256",
					"name": "",
					"type": "uint256"
				}
			],
			"name": "map_UserIncomeWithdrawalHistory",
			"outputs": [
				{
					"internalType": "uint256",
					"name": "Amount",
					"type": "uint256"
				},
				{
					"internalType": "uint256",
					"name": "Timestamp",
					"type": "uint256"
				}
			],
			"stateMutability": "view",
			"type": "function"
		},
		{
			"inputs": [
				{
					"internalType": "address",
					"name": "",
					"type": "address"
				}
			],
			"name": "map_UserTeam",
			"outputs": [
				{
					"internalType": "uint256",
					"name": "DirectsInvestment",
					"type": "uint256"
				},
				{
					"internalType": "uint256",
					"name": "TeamABusiness",
					"type": "uint256"
				},
				{
					"internalType": "uint256",
					"name": "TeamBBusiness",
					"type": "uint256"
				},
				{
					"internalType": "uint256",
					"name": "TeamInvestment",
					"type": "uint256"
				}
			],
			"stateMutability": "view",
			"type": "function"
		},
		{
			"inputs": [
				{
					"internalType": "address",
					"name": "",
					"type": "address"
				}
			],
			"name": "map_UserTransactionCount",
			"outputs": [
				{
					"internalType": "uint256",
					"name": "DepositsCount",
					"type": "uint256"
				},
				{
					"internalType": "uint256",
					"name": "ROIIncomeCount",
					"type": "uint256"
				},
				{
					"internalType": "uint256",
					"name": "IncomeWithdrawalCount",
					"type": "uint256"
				},
				{
					"internalType": "uint256",
					"name": "ReactivationCount",
					"type": "uint256"
				}
			],
			"stateMutability": "view",
			"type": "function"
		},
		{
			"inputs": [
				{
					"internalType": "address",
					"name": "",
					"type": "address"
				},
				{
					"internalType": "uint256",
					"name": "",
					"type": "uint256"
				}
			],
			"name": "map_UserWalletBalance",
			"outputs": [
				{
					"internalType": "uint256",
					"name": "",
					"type": "uint256"
				}
			],
			"stateMutability": "view",
			"type": "function"
		},
		{
			"inputs": [
				{
					"internalType": "address",
					"name": "",
					"type": "address"
				}
			],
			"name": "map_Users",
			"outputs": [
				{
					"internalType": "uint256",
					"name": "Id",
					"type": "uint256"
				},
				{
					"internalType": "address",
					"name": "Address",
					"type": "address"
				},
				{
					"internalType": "address",
					"name": "SponsorAddress",
					"type": "address"
				},
				{
					"internalType": "uint256",
					"name": "JoiningTimestamp",
					"type": "uint256"
				},
				{
					"internalType": "uint256",
					"name": "Investment",
					"type": "uint256"
				},
				{
					"internalType": "uint256",
					"name": "TotalTeam",
					"type": "uint256"
				},
				{
					"internalType": "bool",
					"name": "IsBlocked",
					"type": "bool"
				},
				{
					"internalType": "uint256",
					"name": "FirstActivationTimestamp",
					"type": "uint256"
				},
				{
					"internalType": "uint256",
					"name": "LastActivationTimestamp",
					"type": "uint256"
				},
				{
					"internalType": "uint256",
					"name": "ActivationExpiryTimestamp",
					"type": "uint256"
				},
				{
					"internalType": "uint256",
					"name": "RankId",
					"type": "uint256"
				},
				{
					"internalType": "bool",
					"name": "IsQualifiedFor4X",
					"type": "bool"
				},
				{
					"internalType": "bool",
					"name": "IsFirstActivationDone",
					"type": "bool"
				}
			],
			"stateMutability": "view",
			"type": "function"
		}
	]
}