{
	"data": {
		"bytecode": {
			"linkReferences": {},
			"object": "60806040525f80805560018181556002828155600380546001600160a01b031990811673a1bf05780c2de3002086695d212a743eaa6532ad17909155600480548216734f6a1cfdf5e55db0c2ff4575b0887fea8a96708817905560058054821673985495c028f9b896de454ec448b53fba6450da401790556006805482167373d1ad5a474e1712d6cbe18d56b7281aaf19034717905560078054909116905560088390556009839055600a805460ff199081168417909155600b93909355600c80549093168217909255600d55600e553480156100da575f80fd5b50600c8054610100600160a81b03191633610100021790556100fa6100ff565b611531565b610107610121565b61010f610250565b6101176108f7565b61011f610dba565b565b600b8054905f610130836112a8565b9190505550604051806101200160405280600b548152602001604051806040016040528060078152602001665061636b61676560c81b81525081526020015f8152602001600115158152602001600115158152602001610196601e610dd360201b60201c565b81526020016101a6610bb8610dd3565b81525f602080830182905260016040938401819052600b548352600f825292909120835181559083015190918201906101df9082611358565b50604082015160028201556060820151600382018054608085015161ffff1990911692151561ff00191692909217610100921515830217905560a0830151600483015560c0830151600583015560e08301516006830155909101516007909101805460ff1916911515919091179055565b60088054905f61025f836112a8565b909155505060408051606081018252600880548083526101f460208085019182525f858701818152938152601090915294852093518455516001840155516002909201919091558054916102b2836112a8565b9091555050604080516060810182526008805480835261012c602080850191825260018587018181525f948552601090925295832094518555905194840194909455925160029092019190915580549161030b836112a8565b9091555050604080516060810182526008805480835260c8602080850191825260018587018181525f9485526010909252958320945185559051948401949094559251600290920191909155805491610363836112a8565b90915550506040805160608101825260088054808352610190602080850191825260028587018181525f948552601090925295832094518555905160018501555192909301919091558054916103b8836112a8565b9091555050604080516060810182526008805480835260c8602080850191825260028587018181525f9485526010909252958320945185559051600185015551929093019190915580549161040c836112a8565b9091555050604080516060810182526008805480835260c8602080850191825260028587018181525f94855260109092529583209451855590516001850155519290930191909155805491610460836112a8565b909155505060408051606081018252600880548083526064602080850191825260028587018181525f948552601090925295832094518555905160018501555192909301919091558054916104b4836112a8565b909155505060408051606081018252600880548083526064602080850191825260028587018181525f94855260109092529583209451855590516001850155519290930191909155805491610508836112a8565b9091555050604080516060810182526008805480835260c8602080850191825260038587019081525f938452601090915294822093518455516001840155925160029092019190915580549161055d836112a8565b909155505060408051606081018252600880548083526064602080850191825260038587019081525f93845260109091529482209351845551600184015592516002909201919091558054916105b2836112a8565b909155505060408051606081018252600880548083526032602080850191825260038587019081525f9384526010909152948220935184555160018401559251600290920191909155805491610607836112a8565b909155505060408051606081018252600880548083526032602080850191825260038587019081525f938452601090915294822093518455516001840155925160029092019190915580549161065c836112a8565b909155505060408051606081018252600880548083526032602080850191825260038587019081525f93845260109091529482209351845551600184015592516002909201919091558054916106b1836112a8565b909155505060408051606081018252600880548083526064602080850191825260048587019081525f9384526010909152948220935184555160018401559251600290920191909155805491610706836112a8565b909155505060408051606081018252600880548083526032602080850191825260048587019081525f938452601090915294822093518455516001840155925160029092019190915580549161075b836112a8565b909155505060408051606081018252600880548083526019602080850191825260048587019081525f93845260109091529482209351845551600184015592516002909201919091558054916107b0836112a8565b909155505060408051606081018252600880548083526019602080850191825260048587019081525f9384526010909152948220935184555160018401559251600290920191909155805491610805836112a8565b909155505060408051606081018252600880548083526019602080850191825260048587019081525f938452601090915294822093518455516001840155925160029092019190915580549161085a836112a8565b909155505060408051606081018252600880548083526019602080850191825260048587019081525f93845260109091529482209351845551600184015592516002909201919091558054916108af836112a8565b9091555050604080516060810182526008548082526019602080840191825260048486019081525f938452601090915293909120915182555160018201559051600290910155565b60098054905f610906836112a8565b91905055506040518060e00160405280600954815260200160405180604001604052806006815260200165189029ba30b960d11b815250815260200161095361012c610dd360201b60201c565b81526014602082015260400161096a6103e8610dd3565b815260200161097a6103e8610dd3565b81526020016109885f610dd3565b90526009545f908152601160209081526040909120825181559082015160018201906109b49082611358565b5060408201516002820155606082015160038201556080820151600482015560a0820151600582015560c09091015160069091015560098054905f6109f8836112a8565b91905055506040518060e00160405280600954815260200160405180604001604052806006815260200165191029ba30b960d11b8152508152602001610a456101f4610dd360201b60201c565b815260326020820152604001610a5c611388610dd3565b8152602001610a6c611388610dd3565b8152602001610a7a5f610dd3565b90526009545f90815260116020908152604090912082518155908201516001820190610aa69082611358565b5060408201516002820155606082015160038201556080820151600482015560a0820151600582015560c09091015160069091015560098054905f610aea836112a8565b91905055506040518060e00160405280600954815260200160405180604001604052806006815260200165199029ba30b960d11b8152508152602001610b376103e8610dd360201b60201c565b815260646020820152604001610b4e612710610dd3565b8152602001610b5e612710610dd3565b8152602001610b6c5f610dd3565b90526009545f90815260116020908152604090912082518155908201516001820190610b989082611358565b5060408201516002820155606082015160038201556080820151600482015560a0820151600582015560c09091015160069091015560098054905f610bdc836112a8565b91905055506040518060e001604052806009548152602001604051806040016040528060068152602001651a1029ba30b960d11b8152508152602001610c296107d0610dd360201b60201c565b815260c86020820152604001610c406161a8610dd3565b8152602001610c506161a8610dd3565b8152602001610c606109c4610dd3565b90526009545f90815260116020908152604090912082518155908201516001820190610c8c9082611358565b5060408201516002820155606082015160038201556080820151600482015560a0820151600582015560c09091015160069091015560098054905f610cd0836112a8565b91905055506040518060e001604052806009548152602001604051806040016040528060068152602001651a9029ba30b960d11b8152508152602001610d1d610bb8610dd360201b60201c565b81526101f46020820152604001610d36620124f8610dd3565b8152602001610d47620124f8610dd3565b8152602001610d57611388610dd3565b90526009545f90815260116020908152604090912082518155908201516001820190610d839082611358565b5060408201516002820155606082015160038201556080820151600482015560a0820151600582015560c090910151600690910155565b6003546001600160a01b0316610dd0815f610df0565b50565b5f610de06012600a6114f5565b610dea9083611507565b92915050565b5f80549080610dfe836112a8565b91905055505f604051806101a001604052805f548152602001846001600160a01b03168152602001836001600160a01b031681526020014281526020015f81526020015f81526020015f151581526020015f81526020015f81526020015f81526020015f81526020015f151581526020015f151581525090505f6040518060c001604052805f81526020015f6001600160401b03811115610ea157610ea16112c0565b604051908082528060200260200182016040528015610eca578160200160208202803683370190505b5081526020015f81526020015f81526020015f81526020015f6001600160401b03811115610efa57610efa6112c0565b604051908082528060200260200182016040528015610f23578160200160208202803683370190505b5081525090505f6040518060e001604052805f81526020015f81526020015f81526020016008546001610f56919061151e565b6001600160401b03811115610f6d57610f6d6112c0565b604051908082528060200260200182016040528015610f96578160200160208202803683370190505b5081525f6020808301829052604080840183905260609384018390528051608080820183528482528184018590528183018590528186018590526001600160a01b038c81168652601285528386208b5181558b860151600180830180546001600160a01b03199081169386169390931790558d8701516002840180549093169416939093179055968b01516003880155908a0151600487015560a08a0151600587015560c08a015160068701805460ff191691151591909117905560e08a01516007870155610100808b015160088801556101208b015160098801556101408b0151600a8801556101608b0151600b90970180546101808d015161ffff1990911698151561ff0019169890981797151590910296909617909555601483529220865181558682015180519596509294879491936110d8939285019201906111e4565b5060408201516002820155606082015160038201556080820151600482015560a082015180516111129160058401916020909101906111e4565b5050506001600160a01b0386165f908152601960209081526040918290208451815581850151600182015591840151600283015560608401518051859392611161926003850192910190611247565b506080820151600482015560a0820151600582015560c0909101516006909101555f8054815260136020908152604080832080546001600160a01b03909a166001600160a01b0319909a168a179055978252601b815290879020825181559082015160018201559581015160028701556060015160039095019490945550505050565b828054828255905f5260205f20908101928215611237579160200282015b8281111561123757825182546001600160a01b0319166001600160a01b03909116178255602090920191600190910190611202565b50611243929150611280565b5090565b828054828255905f5260205f20908101928215611237579160200282015b82811115611237578251825591602001919060010190611265565b5b80821115611243575f8155600101611281565b634e487b7160e01b5f52601160045260245ffd5b5f600182016112b9576112b9611294565b5060010190565b634e487b7160e01b5f52604160045260245ffd5b600181811c908216806112e857607f821691505b60208210810361130657634e487b7160e01b5f52602260045260245ffd5b50919050565b601f82111561135357805f5260205f20601f840160051c810160208510156113315750805b601f840160051c820191505b81811015611350575f815560010161133d565b50505b505050565b81516001600160401b03811115611371576113716112c0565b6113858161137f84546112d4565b8461130c565b6020601f8211600181146113b7575f83156113a05750848201515b5f19600385901b1c1916600184901b178455611350565b5f84815260208120601f198516915b828110156113e657878501518255602094850194600190920191016113c6565b508482101561140357868401515f19600387901b60f8161c191681555b50505050600190811b01905550565b6001815b600184111561144d5780850481111561143157611431611294565b600184161561143f57908102905b60019390931c928002611416565b935093915050565b5f8261146357506001610dea565b8161146f57505f610dea565b8160018114611485576002811461148f576114ab565b6001915050610dea565b60ff8411156114a0576114a0611294565b50506001821b610dea565b5060208310610133831016604e8410600b84101617156114ce575081810a610dea565b6114da5f198484611412565b805f19048211156114ed576114ed611294565b029392505050565b5f6115008383611455565b9392505050565b8082028115828204841417610dea57610dea611294565b80820180821115610dea57610dea611294565b615da08061153e5f395ff3fe60806040526004361061025f575f3560e01c8063759369d21161013f578063b66db385116100b3578063edbdc91411610078578063edbdc91414610a88578063eecc1c9514610aba578063eeda149c14610ae9578063f279e6a114610afc578063fd0bb36c14610b1b578063ff9b636414610b3a575f80fd5b8063b66db38514610963578063ba32f6f414610982578063c5f00964146109a1578063dacbb37e146109e1578063e315927b14610a0d575f80fd5b8063a3af609b11610104578063a3af609b146108aa578063a4b6f5e1146108bd578063a5f94521146108d2578063a9a4c9bf146108f1578063ac3a480014610910578063b5d962b714610944575f80fd5b8063759369d2146107e057806388cb410d1461080c5780638b2c295e1461082b57806394c1e22b14610857578063a18a609a14610876575f80fd5b80634788312f116101d65780635be94e831161019b5780635be94e83146105eb5780635cf7551714610617578063641fba961461071c57806368ec2fbe146107305780636b1a70861461074f578063705116a0146107a6575f80fd5b80634788312f1461053e5780634a40f2fe1461055357806354a03e381461057f5780635a015583146105ab5780635b6b431d146105cc575f80fd5b80632dedf15a116102275780632dedf15a146103cb5780632e244fc71461042b5780632e628e2e14610457578063365152fa146104835780633936e8b9146104fe5780633daa551c1461051d575f80fd5b806307d94067146102635780631362e8e6146102ba5780631bfe37ce146102fe5780631cfa6e9b146103345780632a530a361461036b575b5f80fd5b34801561026e575f80fd5b506102a061027d3660046153fb565b601660209081525f92835260408084209091529082529020805460019091015482565b604080519283526020830191909152015b60405180910390f35b3480156102c5575f80fd5b506102f06102d43660046153fb565b601a60209081525f928352604080842090915290825290205481565b6040519081526020016102b1565b348015610309575f80fd5b506102f06103183660046153fb565b601760209081525f928352604080842090915290825290205481565b34801561033f575f80fd5b50600354610353906001600160a01b031681565b6040516001600160a01b0390911681526020016102b1565b348015610376575f80fd5b506103ab610385366004615423565b60146020525f908152604090208054600282015460038301546004909301549192909184565b6040805194855260208501939093529183015260608201526080016102b1565b3480156103d6575f80fd5b506104106103e53660046153fb565b601860209081525f928352604080842090915290825290208054600182015460029092015490919083565b604080519384526020840192909252908201526060016102b1565b348015610436575f80fd5b5061044a610445366004615443565b610b4e565b6040516102b19190615473565b348015610462575f80fd5b50610476610471366004615443565b610cb9565b6040516102b191906154d1565b34801561048e575f80fd5b506104d661049d3660046153fb565b601560209081525f9283526040808420909152908252902080546001820154600283015460038401546004909401549293919290919085565b604080519586526020860194909452928401919091526060830152608082015260a0016102b1565b348015610509575f80fd5b50600654610353906001600160a01b031681565b348015610528575f80fd5b50610531610e3c565b6040516102b19190615566565b348015610549575f80fd5b506102f060025481565b34801561055e575f80fd5b5061057261056d366004615423565b611035565b6040516102b19190615649565b34801561058a575f80fd5b5061059e610599366004615423565b6111ab565b6040516102b191906156c6565b3480156105b6575f80fd5b506105ca6105c5366004615820565b6116b9565b005b3480156105d7575f80fd5b506105ca6105e636600461585a565b611944565b3480156105f6575f80fd5b5061060a610605366004615423565b611cd9565b6040516102b19190615871565b348015610622575f80fd5b506106aa610631366004615423565b60126020525f9081526040902080546001820154600283015460038401546004850154600586015460068701546007880154600889015460098a0154600a8b0154600b909b0154999a6001600160a01b03998a169a989099169896979596949560ff94851695939492939192818116916101009004168d565b604080519d8e526001600160a01b039c8d1660208f01529a909b16998c019990995260608b019790975260808a019590955260a089019390935290151560c088015260e0870152610100860152610120850152610140840152151561016083015215156101808201526101a0016102b1565b348015610727575f80fd5b506102f05f5481565b34801561073b575f80fd5b506105ca61074a366004615423565b611ed8565b34801561075a575f80fd5b50610763611f1e565b6040516102b191905f60a0820190508251825260208301516020830152604083015160408301526060830151606083015260808301511515608083015292915050565b3480156107b1575f80fd5b506104106107c036600461585a565b60106020525f908152604090208054600182015460029092015490919083565b3480156107eb575f80fd5b506107ff6107fa366004615443565b611f8c565b6040516102b191906158da565b348015610817575f80fd5b50600754610353906001600160a01b031681565b348015610836575f80fd5b5061084a610845366004615423565b6120d3565b6040516102b1919061591d565b348015610862575f80fd5b506105ca610871366004615423565b6124ff565b348015610881575f80fd5b5061089561089036600461585a565b612545565b6040516102b199989796959493929190615a02565b6105ca6108b8366004615a56565b61261d565b3480156108c8575f80fd5b506102f060015481565b3480156108dd575f80fd5b506105ca6108ec366004615423565b61262b565b3480156108fc575f80fd5b506105ca61090b366004615a56565b612671565b34801561091b575f80fd5b5061035361092a36600461585a565b60136020525f90815260409020546001600160a01b031681565b34801561094f575f80fd5b50600454610353906001600160a01b031681565b34801561096e575f80fd5b50600554610353906001600160a01b031681565b34801561098d575f80fd5b506105ca61099c366004615423565b612867565b3480156109ac575f80fd5b506103ab6109bb366004615423565b601b6020525f908152604090208054600182015460028301546003909301549192909184565b3480156109ec575f80fd5b50610a006109fb366004615443565b6128ad565b6040516102b19190615a76565b348015610a18575f80fd5b50610a5b610a27366004615423565b60196020525f9081526040902080546001820154600283015460048401546005850154600690950154939492939192909186565b604080519687526020870195909552938501929092526060840152608083015260a082015260c0016102b1565b348015610a93575f80fd5b50610aa7610aa236600461585a565b612aaa565b6040516102b19796959493929190615adf565b348015610ac5575f80fd5b50610ad9610ad4366004615423565b612b6a565b60405190151581526020016102b1565b6105ca610af7366004615423565b612b8a565b348015610b07575f80fd5b506105ca610b16366004615443565b612b96565b348015610b26575f80fd5b506102f0610b353660046153fb565b612df2565b348015610b45575f80fd5b50610ad9612e19565b6001600160a01b0383165f908152601b602052604081206001015460609181610b778587615b35565b11610b8b57610b868486615b35565b610b8d565b815b90505f84821015610b9e575f610ba8565b610ba88583615b4c565b90505f610bb58284615b4c565b67ffffffffffffffff811115610bcd57610bcd615b5f565b604051908082528060200260200182016040528015610c1f57816020015b610c0c60405180606001604052805f81526020015f81526020015f81525090565b815260200190600190039081610beb5790505b509450825b82811115610cad576001600160a01b0389165f90815260186020908152604080832084845282529182902082516060810184528154815260018201549281019290925260020154918101919091528683610c7d81615b73565b945081518110610c8f57610c8f615b8b565b60200260200101819052508080610ca590615b9f565b915050610c24565b50505050509392505050565b6001600160a01b0383165f908152601b602052604081205460609181610cdf8587615b35565b11610cf357610cee8486615b35565b610cf5565b815b90505f84821015610d06575f610d10565b610d108583615b4c565b90505f610d1d8284615b4c565b67ffffffffffffffff811115610d3557610d35615b5f565b604051908082528060200260200182016040528015610d9357816020015b610d806040518060a001604052805f81526020015f81526020015f81526020015f81526020015f81525090565b815260200190600190039081610d535790505b509450825b82811115610cad576001600160a01b0389165f908152601560209081526040808320848452825291829020825160a081018452815481526001820154928101929092526002810154928201929092526003820154606082015260049091015460808201528651879084908110610e1057610e10615b8b565b60200260200101819052508180610e2690615b73565b9250508080610e3490615b9f565b915050610d98565b60605f600b5467ffffffffffffffff811115610e5a57610e5a615b5f565b604051908082528060200260200182016040528015610ed857816020015b610ec56040518061012001604052805f8152602001606081526020015f81526020015f151581526020015f151581526020015f81526020015f81526020015f81526020015f151581525090565b815260200190600190039081610e785790505b50905060015b600b54811161102f57600f5f8281526020019081526020015f20604051806101200160405290815f8201548152602001600182018054610f1d90615bb4565b80601f0160208091040260200160405190810160405280929190818152602001828054610f4990615bb4565b8015610f945780601f10610f6b57610100808354040283529160200191610f94565b820191905f5260205f20905b815481529060010190602001808311610f7757829003601f168201915b505050918352505060028201546020820152600382015460ff8082161515604084015261010090910481161515606083015260048301546080830152600583015460a0830152600683015460c0830152600790920154909116151560e09091015282611001600184615b4c565b8151811061101157611011615b8b565b6020026020010181905250808061102790615b73565b915050610ede565b50919050565b606060085467ffffffffffffffff81111561105257611052615b5f565b6040519080825280602002602001820160405280156110be57816020015b6110ab6040518060e001604052805f81526020015f81526020015f81526020015f81526020015f81526020015f81526020015f151581525090565b8152602001906001900390816110705790505b50905060015b600854811161102f576040805160e0810182528281525f838152601060209081528382206002810154828501526001600160a01b03881680845260128352858420600a015485870152808452601783528584208785528352858420546060860152600190910154608085015282526019905291909120600301805460a0830191908490811061115557611155615b8b565b905f5260205f200154815260200161116d8584612e74565b151590528261117d600184615b4c565b8151811061118d5761118d615b8b565b602002602001018190525080806111a390615b73565b9150506110c4565b6112616040518061032001604052805f6001600160a01b031681526020015f81526020015f81526020015f81526020015f81526020015f81526020015f81526020015f81526020015f81526020015f81526020015f81526020015f81526020015f81526020015f81526020015f81526020015f81526020015f81526020015f81526020015f81526020015f8152602001606081526020015f81526020015f151581526020015f151581526020015f151581525090565b6001600160a01b038083165f81815260126020908152604080832081516101a081018352815481526001808301548816828601526002830154909716818401526003820154606082015260048201546080820152600582015460a0820152600682015460ff908116151560c080840191909152600784015460e08401526008840154610100808501919091526009850154610120850152600a850154610140850152600b9094015480831615156101608501529390930416151561018082015294845260148352818420825191820183528054825295860180548351818602810186019094528084529596949591949385810193929083018282801561138e57602002820191905f5260205f20905b81546001600160a01b03168152600190910190602001808311611370575b505050505081526020016002820154815260200160038201548152602001600482015481526020016005820180548060200260200160405190810160405280929190818152602001828054801561140c57602002820191905f5260205f20905b81546001600160a01b031681526001909101906020018083116113ee575b50505050508152505090505f60195f866001600160a01b03166001600160a01b031681526020019081526020015f206040518060e00160405290815f82015481526020016001820154815260200160028201548152602001600382018054806020026020016040519081016040528092919081815260200182805480156114b057602002820191905f5260205f20905b81548152602001906001019080831161149c575b505050505081526020016004820154815260200160058201548152602001600682015481525050905060405180610320016040528084604001516001600160a01b03168152602001846080015181526020018360200151518152602001835f015181526020018460a00151815260200183604001518152602001836060015181526020018360800151815260200182602001518152602001825f0151815260200161155a87612eb4565b81526020018260400151815260200161157287612fb2565b8152602001826080015181526020018260a00151815260200161159487613119565b81526020016115a287613177565b81526020018260c0015181526020016115bd87600d54612df2565b81526020016115ce87600e54612df2565b815260200160115f86610140015181526020019081526020015f2060010180546115f790615bb4565b80601f016020809104026020016040519081016040528092919081815260200182805461162390615bb4565b801561166e5780601f106116455761010080835404028352916020019161166e565b820191905f5260205f20905b81548152906001019060200180831161165157829003601f168201915b50505050508152602001611681876131b7565b815260200161168f876131de565b15158152602001846101600151151581526020015f8560e001511115158152509350505050919050565b6116c16131f8565b6116c9573392505b6116d283612b6a565b61171b5760405162461bcd60e51b8152602060048201526015602482015274496e76616c69642073656e64696e6720757365722160581b60448201526064015b60405180910390fd5b61172483613225565b6117405760405162461bcd60e51b815260040161171290615be6565b61174983613246565b1561178d5760405162461bcd60e51b81526020600482015260146024820152732cb7bab91024a21034b99034b730b1ba34bb329760611b6044820152606401611712565b61179682612b6a565b6117e25760405162461bcd60e51b815260206004820152601760248201527f496e76616c696420726563656976696e672075736572210000000000000000006044820152606401611712565b6001600160a01b0383165f908152601a60209081526040808320600e54845290915290205481111561184c5760405162461bcd60e51b8152602060048201526013602482015272496e73756666696369656e742066756e64732160681b6044820152606401611712565b611856600561327a565b8110156118a15760405162461bcd60e51b81526020600482015260196024820152784d696e696d756d20616d6f756e74206973203520555344542160381b6044820152606401611712565b5f60646118af836005615b35565b6118b99190615c14565b90505f6118c68284615c33565b6001600160a01b0386165f908152601a60209081526040808320600e5484529091528120805492935083929091906118ff908490615b4c565b90915550506001600160a01b0384165f908152601a60209081526040808320600e54845290915281208054859290611938908490615c33565b90915550505050505050565b335f61194e613291565b905061195982613304565b6119955760405162461bcd60e51b815260206004820152600d60248201526c496e76616c696420757365722160981b6044820152606401611712565b61199e82613225565b6119ba5760405162461bcd60e51b815260040161171290615be6565b6119c382613246565b15611a075760405162461bcd60e51b81526020600482015260146024820152732cb7bab91024a21034b99034b730b1ba34bb329760611b6044820152606401611712565b611a11600561327a565b831015611a5c5760405162461bcd60e51b81526020600482015260196024820152784d696e696d756d20616d6f756e74206973203520555344542160381b6044820152606401611712565b82611a6983600d54612df2565b1015611aad5760405162461bcd60e51b8152602060048201526013602482015272496e73756666696369656e742066756e64732160681b6044820152606401611712565b6001600160a01b0382165f90815260126020908152604080832060040154601990925290912060060154611ae2908590615c33565b111580611b055750600c5460ff168015611b055750611b01606461327a565b8110155b611b775760405162461bcd60e51b815260206004820152603960248201527f5769746864726177616c206265796f6e64207072696e6369706c65206973207060448201527f726f686962697465642061742074686973206d6f6d656e7421000000000000006064820152608401611712565b6001600160a01b0382165f908152601a60209081526040808320600d54845290915281208054859290611bab908490615b4c565b90915550506001600160a01b0382165f9081526019602052604081206006018054859290611bda908490615c33565b909155505f90506064611bee856005615b35565b611bf89190615c14565b90505f611c058286615b4c565b604080518082018252878152426020808301919091526001600160a01b0388165f90815260168252838120601b909252928320600201549394509092839290611c4f906001615c33565b815260208082019290925260409081015f90812084518155938301516001909401939093556001600160a01b0388168352601b9091528120600201805491611c9683615b73565b9190505550858410611cc757611cac8583613320565b600754611cc2906001600160a01b031684613320565b611cd1565b611cd185836133a2565b505050505050565b6001600160a01b0381165f9081526014602052604090206001015460609067ffffffffffffffff811115611d0f57611d0f615b5f565b604051908082528060200260200182016040528015611d7057816020015b611d5d60405180608001604052805f81526020015f6001600160a01b031681526020015f81526020015f81525090565b815260200190600190039081611d2d5790505b5090505f5b6001600160a01b0383165f9081526014602052604090206001015481101561102f576040518060800160405280826001611daf9190615c33565b815260200160145f866001600160a01b03166001600160a01b031681526020019081526020015f206001018381548110611deb57611deb615b8b565b5f9182526020808320909101546001600160a01b03908116845287168252601481526040822060010180549390910192601292919086908110611e3057611e30615b8b565b5f9182526020808320909101546001600160a01b0390811684528382019490945260409283018220600401548552928816815260148352908120600101805493909201926012929086908110611e8857611e88615b8b565b5f9182526020808320909101546001600160a01b0316835282019290925260400190206004015490528251839083908110611ec557611ec5615b8b565b6020908102919091010152600101611d75565b611ee06131f8565b611efc5760405162461bcd60e51b815260040161171290615be6565b600380546001600160a01b0319166001600160a01b0392909216919091179055565b611f4d6040518060a001604052805f81526020015f81526020015f81526020015f81526020015f151581525090565b6040518060a001604052805f54815260200160015481526020016002548152602001611f77613291565b8152600c5460ff161515602090910152919050565b6001600160a01b0383165f908152601b602052604081206002015460609181611fb58587615b35565b11611fc957611fc48486615b35565b611fcb565b815b90505f84821015611fdc575f611fe6565b611fe68583615b4c565b90505f611ff38284615b4c565b67ffffffffffffffff81111561200b5761200b615b5f565b60405190808252806020026020018201604052801561204f57816020015b604080518082019091525f80825260208201528152602001906001900390816120295790505b509450825b82811115610cad576001600160a01b0389165f908152601660209081526040808320848452825291829020825180840190935280548352600101549082015286518790849081106120a7576120a7615b8b565b602002602001018190525081806120bd90615b73565b92505080806120cb90615b9f565b915050612054565b606060095467ffffffffffffffff8111156120f0576120f0615b5f565b60405190808252806020026020018201604052801561217857816020015b6121656040518061016001604052805f8152602001606081526020015f81526020015f81526020015f81526020015f81526020015f151581526020015f81526020015f81526020015f81526020015f151581525090565b81526020019060019003908161210e5790505b506001600160a01b038084165f81815260126020908152604080832081516101a081018352815481526001808301548816828601526002830154909716818401526003820154606082015260048201546080820152600582015460a0820152600682015460ff908116151560c080840191909152600784015460e08401526008840154610100808501919091526009850154610120850152600a850154610140850152600b9094015480831615156101608501529390930416151561018082015294845260148352818420825191820183528054825295860180548351818602810186019094528084529798509496939590949093858401938301828280156122a857602002820191905f5260205f20905b81546001600160a01b0316815260019091019060200180831161228a575b505050505081526020016002820154815260200160038201548152602001600482015481526020016005820180548060200260200160405190810160405280929190818152602001828054801561232657602002820191905f5260205f20905b81546001600160a01b03168152600190910190602001808311612308575b50505050508152505090505f600190505b60095481116124f7575f60115f8381526020019081526020015f206040518060e00160405290815f820154815260200160018201805461237690615bb4565b80601f01602080910402602001604051908101604052809291908181526020018280546123a290615bb4565b80156123ed5780601f106123c4576101008083540402835291602001916123ed565b820191905f5260205f20905b8154815290600101906020018083116123d057829003601f168201915b505050505081526020016002820154815260200160038201548152602001600482015481526020016005820154815260200160068201548152505090505f815f015185610140015110159050604051806101600160405280835f015181526020018360200151815260200183604001518152602001836080015181526020018360a0015181526020018660800151815260200161248e898560400151613471565b1515815260200185604001518152602001856060015181526020018360c001518152602001821515815250866001856124c79190615b4c565b815181106124d7576124d7615b8b565b6020026020010181905250505080806124ef90615b73565b915050612337565b505050919050565b6125076131f8565b6125235760405162461bcd60e51b815260040161171290615be6565b600480546001600160a01b0319166001600160a01b0392909216919091179055565b600f6020525f90815260409020805460018201805491929161256690615bb4565b80601f016020809104026020016040519081016040528092919081815260200182805461259290615bb4565b80156125dd5780601f106125b4576101008083540402835291602001916125dd565b820191905f5260205f20905b8154815290600101906020018083116125c057829003601f168201915b50505050600283015460038401546004850154600586015460068701546007909701549596939560ff808516965061010090940484169492939192911689565b61262782826134e6565b5050565b6126336131f8565b61264f5760405162461bcd60e51b815260040161171290615be6565b600780546001600160a01b0319166001600160a01b0392909216919091179055565b338061267c81613304565b6126c25760405162461bcd60e51b8152602060048201526017602482015276596f7520617265206e6f7420726567697374657265642160481b6044820152606401611712565b6126cb82613225565b6126e75760405162461bcd60e51b815260040161171290615be6565b6126f081613304565b61273c5760405162461bcd60e51b815260206004820152601760248201527f496e76616c6964207573657220666f7220746f707570210000000000000000006044820152606401611712565b6001600160a01b0381165f908152601260205260409020600b0154610100900460ff16156127c25760405162461bcd60e51b815260206004820152602d60248201527f4f6e6c792066697273742074696d6520746f70757020697320616c6c6f77656460448201526c10333937b6903bb0b63632ba1760991b6064820152608401611712565b826127cf83600e54612df2565b101561281d5760405162461bcd60e51b815260206004820152601d60248201527f496e73756666696369656e742066756e647320696e2077616c6c6574210000006044820152606401611712565b612828818585613643565b506001600160a01b0382165f908152601a60209081526040808320600284529091528120805485929061285c908490615b4c565b909155505050505050565b61286f6131f8565b61288b5760405162461bcd60e51b815260040161171290615be6565b600680546001600160a01b0319166001600160a01b0392909216919091179055565b6001600160a01b0383165f90815260146020908152604080832060050180548251818502810185019093528083526060949383018282801561291657602002820191905f5260205f20905b81546001600160a01b031681526001909101906020018083116128f8575b505083519394505f925083915061292f90508688615b35565b116129435761293e8587615b35565b612945565b815b90505f85821015612956575f612960565b6129608683615b4c565b90505f61296d8284615b4c565b90508067ffffffffffffffff81111561298857612988615b5f565b6040519080825280602002602001820160405280156129e957816020015b6129d660405180608001604052805f81526020015f6001600160a01b031681526020015f81526020015f81525090565b8152602001906001900390816129a65790505b5095505f835b83811115612a9c575f87612a04600184615b4c565b81518110612a1457612a14615b8b565b602090810291909101810151604080516080810182528581526001600160a01b0383168185018190525f818152601280875284822060040154948401859052919052909352606083015291508984612a6b81615b73565b955081518110612a7d57612a7d615b8b565b6020026020010181905250508080612a9490615b9f565b9150506129ef565b505050505050509392505050565b60116020525f908152604090208054600182018054919291612acb90615bb4565b80601f0160208091040260200160405190810160405280929190818152602001828054612af790615bb4565b8015612b425780601f10612b1957610100808354040283529160200191612b42565b820191905f5260205f20905b815481529060010190602001808311612b2557829003601f168201915b5050505050908060020154908060030154908060040154908060050154908060060154905087565b5f612b7482613304565b8015612b845750612b8482613225565b92915050565b612b9381613ab7565b50565b612b9e6131f8565b612be05760405162461bcd60e51b8152602060048201526013602482015272165bdd48185c99481b9bdd08185b1b1bddd959606a1b6044820152606401611712565b80600203612c17575060015f52600f6020527f169f97de0d9a84d840042b17d3c6b9638b3d6fd9024c9eb0c7a306a17b49f8945550565b80600303612c5e576001600160a01b0383165f908152601a60209081526040808320600d54845290915281208054849290612c53908490615c33565b90915550612d179050565b80600403612c9a576001600160a01b0383165f908152601a60209081526040808320600d54845290915281208054849290612c53908490615b4c565b80600503612ccc576001600160a01b0383165f908152601260205260409020600601805460ff19166001179055505050565b80600603612cf95750506001600160a01b03165f908152601260205260409020600601805460ff19169055565b80600703612d1c57600354612d17906001600160a01b031683613320565b505050565b80600803612d58576001600160a01b0383165f908152601a60209081526040808320600e54845290915281208054849290612c53908490615c33565b80600903612d94576001600160a01b0383165f908152601a60209081526040808320600e54845290915281208054849290612c53908490615b4c565b80600a03612dab57600c805460ff19169055505050565b80600b03612dc557600c805460ff19166001179055505050565b80600c03612d1757600c8054610100600160a81b0319166101006001600160a01b03861602179055505050565b6001600160a01b03919091165f908152601a60209081526040808320938352929052205490565b335f90815260126020526040812060090154421015612e645760405162461bcd60e51b81526020600482015260076024820152664163746976652160c81b6044820152606401611712565b612e6f33425f613b7b565b905090565b5f818152601060209081526040808320600201546001600160a01b038616845260129092528220600a015410612eac57506001612b84565b505f92915050565b6001600160a01b0381165f908152601960209081526040808320815160e0810183528154815260018201548185015260028201548184015260038201805484518187028101870190955280855286958695939493606086019390929091830182828015612f3e57602002820191905f5260205f20905b815481526020019060010190808311612f2a575b50505050508152602001600482015481526020016005820154815260200160068201548152505090505f5b816060015151811015612fa95781606001518181518110612f8c57612f8c615b8b565b602002602001015183612f9f9190615c33565b9250600101612f69565b50909392505050565b6001600160a01b0381165f908152601b60205260408120544290829060015b818111613065576001600160a01b0386165f908152601560209081526040808320848452825291829020825160a08101845281548152600182015492810192909252600281015492820192909252600382015460608201819052600490920154608082018190529091111561305257602081015161304f9085615c33565b93505b508061305d81615b73565b915050612fd1565b506001600160a01b0385165f908152601260205260409020600881015460099091015481851115806130975750818111155b156130a857505f9695505050505050565b5f82868311156130b857866130ba565b825b6130c49190615b4c565b90505f6130d18484615b4c565b90505f6130df826064615b35565b836130eb89600a615b35565b6130f59190615b35565b6130ff9190615c14565b905061310b8a82613c3b565b9a9950505050505050505050565b5f61312382612eb4565b6001600160a01b0383165f9081526019602052604090206005810154600182015460028301549254919290916131599190615c33565b6131639190615c33565b61316d9190615c33565b612b849190615c33565b6001600160a01b0381165f9081526012602052604081206004810154600b9091015460ff166131a75760036131aa565b60045b60ff16612b849190615b35565b6001600160a01b0381165f90815260126020526040812060070154612b8490610a8c615c33565b5f6131e882613177565b6131f183613119565b1092915050565b6003545f906001600160a01b0316331480612e6f575050600c5461010090046001600160a01b0316331490565b6001600160a01b03165f9081526012602052604090206006015460ff161590565b6001600160a01b0381165f9081526012602052604081206009015442101580612b845750613273826131de565b1592915050565b5f6132876012600a615d29565b612b849083615b35565b6040516370a0823160e01b81523060048201525f90734622b46df102fd8648385bc96fd7a837111aec61906370a0823190602401602060405180830381865afa1580156132e0573d5f803e3d5ffd5b505050506040513d601f19601f82011682018060405250810190612e6f9190615d34565b6001600160a01b03165f90815260126020526040902054151590565b60405163a9059cbb60e01b81526001600160a01b038316600482015260248101829052734622b46df102fd8648385bc96fd7a837111aec619063a9059cbb906044016020604051808303815f875af115801561337e573d5f803e3d5ffd5b505050506040513d601f19601f82011682018060405250810190612d179190615d4b565b6007546001600160a01b03166133fa5760405162461bcd60e51b815260206004820152601e60248201527f53656375726974792066756e6420636f6e7472616374206e6f742073657400006044820152606401611712565b6007546040516358908a0f60e01b8152734622b46df102fd8648385bc96fd7a837111aec6160048201526001600160a01b03848116602483015260448201849052909116906358908a0f906064015f604051808303815f87803b15801561345f575f80fd5b505af1158015611cd1573d5f803e3d5ffd5b6001600160a01b0382165f908152601b602052604081205460015b8181116134dc576001600160a01b0385165f90815260156020908152604080832084845290915290206001015484116134ca57600192505050612b84565b806134d481615b73565b91505061348c565b505f949350505050565b336134f081613304565b6135365760405162461bcd60e51b8152602060048201526017602482015276596f7520617265206e6f7420726567697374657265642160481b6044820152606401611712565b61353f81613246565b61359d5760405162461bcd60e51b815260206004820152602960248201527f4465706f73697420697320616c6c6f776564206f6e6c79206166746572207468604482015268329032bc3834b93c9760b91b6064820152608401611712565b6135a682613d6c565b5f6135b2828585613643565b6003549091506135e1906001600160a01b031660646135d2866002615b35565b6135dc9190615c14565b613320565b6004546135fe906001600160a01b031660646135d2866001615b35565b60065461361b906001600160a01b031660646135d2866005615b35565b8061363d5760055461363d906001600160a01b031660646135d2866002615b35565b50505050565b5f828152600f602052604081206003015460ff1680156136ea57505f838152600f6020526040902060030154610100900460ff1615801561369357505f838152600f602052604090206002015482145b806136ea57505f838152600f6020526040902060030154610100900460ff1680156136ce57505f838152600f60205260409020600401548210155b80156136ea57505f838152600f60205260409020600501548211155b6137285760405162461bcd60e51b815260206004820152600f60248201526e496e76616c696420616d6f756e742160881b6044820152606401611712565b6001600160a01b0384165f908152601560209081526040808320601b83528184205484529091529020600101548210156137ca5760405162461bcd60e51b815260206004820152603d60248201527f416d6f756e74206d75737420626520657175616c20746f206f72206d6f72652060448201527f7468616e2070726576696f7573206465706f73697420616d6f756e742e0000006064820152608401611712565b5f4290508260015f8282546137df9190615c33565b90915550506001600160a01b038581165f9081526012602052604090206002810154600b90910154911690610100900460ff16613870576001600160a01b03811615613866576001600160a01b038181165f9081526014602090815260408220600190810180549182018155835291200180546001600160a01b0319169188169190911790555b6138708187613e4e565b6001600160a01b0386165f908152601260205260408120600401805486929061389a908490615c33565b90915550506001600160a01b0381165f90815260146020526040812080548692906138c6908490615c33565b909155506138d79050818786613edc565b6040805160a08101825286815260208082018790528183018590526001600160a01b0389165f9081526012909152918220600b01546060820190879060ff16613921576003613924565b60045b60ff166139319190615b35565b81526020015f815250905061394787865f614044565b6001600160a01b0387165f908152601560209081526040808320601b909252822054839290613977906001615c33565b815260208082019290925260409081015f90812084518155848401516001820155848301516002820155606085015160038201556080909401516004909401939093556001600160a01b038a168352601b90915281208054916139d983615b73565b91905055506139e9878487613b7b565b506001600160a01b0387165f908152601260205260409020600b0154610100900460ff161593508315613aad576001600160a01b0387165f818152601260205260408120600701859055601c805460018101825591527f0e4562a10381dec21b205ed72637e6b1b523bdd0e4d4d50af5cd23dd4500a2110180546001600160a01b0319169091179055613a7c8786614174565b613a85856142a1565b6001600160a01b0387165f908152601260205260409020600b01805461ff0019166101001790555b5050509392505050565b33613ac182612b6a565b8015613ae657506001600160a01b0382165f9081526012602052604090206004015415155b613b255760405162461bcd60e51b815260206004820152601060248201526f496e76616c69642073706f6e736f722160801b6044820152606401611712565b613b2e81613304565b15613b715760405162461bcd60e51b8152602060048201526013602482015272416c726561647920726567697374657265642160681b6044820152606401611712565b61262781836146f2565b6001600160a01b0383165f908152601b60205260408120600301548190613ba490600290615c14565b613baf90600a615c33565b90505f613bbd82603c615b35565b613bc79086615c33565b6001600160a01b0387165f90815260126020908152604080832060088101805460099092018054918c9055869055601b909352908320600301805494955090939192613c1283615b73565b9190505550613c24888884848a614ae9565b613c2d88614cf1565b506001979650505050505050565b6001600160a01b0382165f908152601260205260408120600901544210613c6357505f612b84565b6001600160a01b0383165f908152601b602052604081205490839060015b838111613d62576001600160a01b0387165f9081526015602090815260408083208484528252808320815160a081018352815481526001820154938101939093526002810154918301919091526003810154606083018190526004909101546080830181905291929110613cf5575f613d09565b81608001518260600151613d099190615b4c565b90508015613d4d575f81861115613d205781613d22565b855b9050613d2e8186615c33565b9450613d3a8187615b4c565b9550855f03613d4b57505050613d62565b505b50508080613d5a90615b73565b915050613c81565b5095945050505050565b5f613d75613291565b6040516323b872dd60e01b815233600482015230602482015260448101849052909150734622b46df102fd8648385bc96fd7a837111aec61906323b872dd906064016020604051808303815f875af1158015613dd3573d5f803e3d5ffd5b505050506040513d601f19601f82011682018060405250810190613df79190615d4b565b505f613e01613291565b905082613e0e8383615b4c565b1015612d175760405162461bcd60e51b815260206004820152600f60248201526e496e76616c696420616d6f756e742160881b6044820152606401611712565b6001600160a01b03821615612627576001600160a01b0382165f908152601260205260408120600501805491613e8383615b73565b90915550506001600160a01b039182165f81815260146020908152604080832060050180546001810182559084528284200180546001600160a01b03191686881617905592825260129052206002015490911690613e4e565b613ee582614e5d565b60015b6001600160a01b0384161561363d576001600160a01b0384165f90815260146020526040902060020154821115613f72576001600160a01b0384165f90815260146020526040812060028101546003909101805491929091613f4b908490615c33565b90915550506001600160a01b0384165f908152601460205260409020600201829055613fa2565b6001600160a01b0384165f9081526014602052604081206003018054849290613f9c908490615c33565b90915550505b6001600160a01b0384165f9081526014602052604081206004018054849290613fcc908490615c33565b90915550506001600160a01b0384165f90815260176020908152604080832084845290915281208054849290614003908490615c33565b90915550614012905084614e5d565b6001600160a01b039384165f90815260126020526040902060020154909316928061403c81615b73565b915050613ee8565b6001600160a01b0383165f908152601260205260409020600b015460ff161580156140a157506001600160a01b0383165f908152601260205260409020600b0154610100900460ff1615806140a157504261409e846131b7565b10155b80156140c257506140b36107d061327a565b821015806140c2575060018110155b15612d17576001600160a01b0383165f908152601260209081526040808320600b01805460ff19166001908117909155601b90925290912054905b81811161416d576001600160a01b0385165f908152601560209081526040808320848452909152902060010154614135906004615b35565b6001600160a01b0386165f9081526015602090815260408083208584529091529020600301558061416581615b73565b9150506140fd565b5050505050565b5f614180610bb861327a565b821061419757614190602861327a565b9050614206565b6141a26107d061327a565b82106141b257614190601e61327a565b6141bd6103e861327a565b82106141cd57614190601461327a565b6141d86101f461327a565b82106141e857614190600c61327a565b6141f361012c61327a565b821061420657614203600761327a565b90505b5f8111801561422d57506001600160a01b0383165f90815260196020526040902060010154155b801561425957506001600160a01b0383165f908152601260205260409020600b0154610100900460ff16155b15612d1757614268838261507b565b6001600160a01b0384165f90815260196020526040812060010180549293508392909190614297908490615c33565b9091555050505050565b5f6142af6201518042615b4c565b601c549091505f9067ffffffffffffffff8111156142cf576142cf615b5f565b60405190808252806020026020018201604052801561431357816020015b604080518082019091525f80825260208201528152602001906001900390816142ed5790505b50601c549091505f905b8015614487575f601c614331600184615b4c565b8154811061434157614341615b8b565b5f9182526020808320909101546001600160a01b031680835260129091526040909120600701549091508511156143785750614487565b6001600160a01b038082165f9081526012602052604090206002015416806143a1575050614475565b5f805b8581101561442057826001600160a01b03168782815181106143c8576143c8615b8b565b60200260200101515f01516001600160a01b031603614418578681815181106143f3576143f3615b8b565b6020026020010151602001805180919061440c90615b73565b90525060019150614420565b6001016143a4565b5080614471576040518060400160405280836001600160a01b03168152602001600181525086868151811061445757614457615b8b565b6020026020010181905250848061446d90615b73565b9550505b5050505b8061447f81615b9f565b91505061431d565b50614490615312565b614498615312565b5f5b838110156145fe575f8582815181106144b5576144b5615b8b565b60200260200101515f015190505f8683815181106144d5576144d5615b8b565b60200260200101516020015190505f5b60038110156145f35784816003811061450057614500615b8b565b60200201518211156145eb5760025b818111156145a75785614523600183615b4c565b6003811061453357614533615b8b565b602002015186826003811061454a5761454a615b8b565b60200201528661455b600183615b4c565b6003811061456b5761456b615b8b565b602002015187826003811061458257614582615b8b565b6001600160a01b0390921660209290920201528061459f81615b9f565b91505061450f565b50818582600381106145bb576145bb615b8b565b6020020152828682600381106145d3576145d3615b8b565b6001600160a01b0390921660209290920201526145f3565b6001016144e5565b50505060010161449a565b505f606461460d886002615b35565b6146179190615c14565b90505f604051806060016040528060328152602001601e8152602001601481525090505f5b60038110156146e7575f85826003811061465857614658615b8b565b602002015190506001600160a01b038116156146de575f606484846003811061468357614683615b8b565b60200201516146929087615b35565b61469c9190615c14565b90506146a8828261507b565b6001600160a01b0383165f908152601960205260408120600501805492935083929091906146d7908490615c33565b9091555050505b5060010161463c565b505050505050505050565b5f8054908061470083615b73565b91905055505f604051806101a001604052805f548152602001846001600160a01b03168152602001836001600160a01b031681526020014281526020015f81526020015f81526020015f151581526020015f81526020015f81526020015f81526020015f81526020015f151581526020015f151581525090505f6040518060c001604052805f81526020015f67ffffffffffffffff8111156147a4576147a4615b5f565b6040519080825280602002602001820160405280156147cd578160200160208202803683370190505b5081526020015f81526020015f81526020015f81526020015f67ffffffffffffffff8111156147fe576147fe615b5f565b604051908082528060200260200182016040528015614827578160200160208202803683370190505b5081525090505f6040518060e001604052805f81526020015f81526020015f8152602001600854600161485a9190615c33565b67ffffffffffffffff81111561487257614872615b5f565b60405190808252806020026020018201604052801561489b578160200160208202803683370190505b5081525f6020808301829052604080840183905260609384018390528051608080820183528482528184018590528183018590528186018590526001600160a01b038c81168652601285528386208b5181558b860151600180830180546001600160a01b03199081169386169390931790558d8701516002840180549093169416939093179055968b01516003880155908a0151600487015560a08a0151600587015560c08a015160068701805460ff191691151591909117905560e08a01516007870155610100808b015160088801556101208b015160098801556101408b0151600a8801556101608b0151600b90970180546101808d015161ffff1990911698151561ff0019169890981797151590910296909617909555601483529220865181558682015180519596509294879491936149dd93928501920190615330565b5060408201516002820155606082015160038201556080820151600482015560a08201518051614a17916005840191602090910190615330565b5050506001600160a01b0386165f908152601960209081526040918290208451815581850151600182015591840151600283015560608401518051859392614a66926003850192910190615393565b506080820151600482015560a0820151600582015560c0909101516006909101555f8054815260136020908152604080832080546001600160a01b03909a166001600160a01b0319909a168a179055978252601b815290879020825181559082015160018201559581015160028701556060015160039095019490945550505050565b6001600160a01b0385165f908152601b602052604081205490614b0c8585615b4c565b90505f8587861115614b1e5787614b20565b855b614b2a9190615b4c565b90505f60015b848111614be2576001600160a01b038a165f908152601560209081526040808320848452825291829020825160a0810184528154815260018201549281018390526002820154938101939093526003810154606084015260040154608083015287148015614ba15750898160400151145b15614bac5750614bd0565b806060015181608001511015614bce576020810151614bcb9084615c33565b92505b505b80614bda81615b73565b915050614b30565b505f81118015614bf157505f83115b156146e7575f614c02846064615b35565b83614c0e84600a615b35565b614c189190615b35565b614c229190615c14565b9050614c2e8a8261507b565b6001600160a01b038b165f90815260196020526040812060020180549293508392909190614c5d908490615c33565b90915550506001600160a01b038a165f908152601b60205260408120600101805491614c8883615b73565b90915550506040805160608101825292835260208084019a8b528382019283526001600160a01b039b909b165f90815260188c52818120601b8d5282822060019081015483529c5220915182559751988101989098555050935160029095019490945550505050565b6001600160a01b038181165f9081526012602052604081206002810154600b90910154921691610100900460ff16614d2a576001614d2d565b60025b6001600160a01b0384165f90815260126020526040902060040154614d559160ff1690615c14565b905060015f5b6001600160a01b03841615801590614d7557506008548211155b1561416d57600a5460ff16614d9a575f82815260106020526040902060010154614dc3565b5f8281526010602052604090206001015461271090614db99085615b35565b614dc39190615c14565b9050614dcf8483612e74565b15614e2b57614dde848261507b565b6001600160a01b0385165f9081526019602052604090206003018054919250829184908110614e0f57614e0f615b8b565b905f5260205f20015f828254614e259190615c33565b90915550505b6001600160a01b039384165f908152601260205260409020600201549093169281614e5581615b73565b925050614d5b565b6001600160a01b0381165f908152601260205260408120600a0154614e83906001615c33565b90505b6009548111612627575f60115f8381526020019081526020015f206040518060e00160405290815f8201548152602001600182018054614ec590615bb4565b80601f0160208091040260200160405190810160405280929190818152602001828054614ef190615bb4565b8015614f3c5780601f10614f1357610100808354040283529160200191614f3c565b820191905f5260205f20905b815481529060010190602001808311614f1f57829003601f168201915b50505050508152602001600282015481526020016003820154815260200160048201548152602001600582015481526020016006820154815250509050614f87838260400151613471565b8015614fb1575060808101516001600160a01b0384165f9081526014602052604090206002015410155b8015614fdb575060a08101516001600160a01b0384165f9081526014602052604090206003015410155b8015615005575060608101516001600160a01b0384165f9081526012602052604090206005015410155b15612d175760c08101516001600160a01b0384165f9081526019602052604081206004018054839290615039908490615c33565b90915550506001600160a01b0384165f908152601260205260408120600a0184905561506790859085614044565b8261507181615b73565b9350505050614e86565b5f61508683836151ff565b9150811561102f576001600160a01b0383165f908152601260205260409020600a0154600411156151585760646150be83604b615b35565b6150c89190615c14565b6001600160a01b0384165f908152601a60209081526040808320600d548452909152812080549091906150fc908490615c33565b909155506064905061510f836019615b35565b6151199190615c14565b6001600160a01b0384165f908152601a60209081526040808320600e5484529091528120805490919061514d908490615c33565b9091555061102f9050565b6064615165836032615b35565b61516f9190615c14565b6001600160a01b0384165f908152601a60209081526040808320600d548452909152812080549091906151a3908490615c33565b90915550606490506151b6836032615b35565b6151c09190615c14565b6001600160a01b0384165f908152601a60209081526040808320600e548452909152812080549091906151f4908490615c33565b909155505050919050565b6001600160a01b0382165f90815260126020526040812060090154421061522757505f612b84565b6001600160a01b0383165f908152601b60205260409020548260015b8281116152fe576001600160a01b0386165f90815260156020908152604080832084845290915281206004810154600382015491929111615284575f615298565b816004015482600301546152989190615b4c565b905080156152e9575f818511156152af57816152b1565b845b905080836004015f8282546152c69190615c33565b909155506152d690508186615b4c565b9450845f036152e7575050506152fe565b505b505080806152f690615b73565b915050615243565b506153098185615b4c565b95945050505050565b60405180606001604052806003906020820280368337509192915050565b828054828255905f5260205f20908101928215615383579160200282015b8281111561538357825182546001600160a01b0319166001600160a01b0390911617825560209092019160019091019061534e565b5061538f9291506153cc565b5090565b828054828255905f5260205f20908101928215615383579160200282015b828111156153835782518255916020019190600101906153b1565b5b8082111561538f575f81556001016153cd565b80356001600160a01b03811681146153f6575f80fd5b919050565b5f806040838503121561540c575f80fd5b615415836153e0565b946020939093013593505050565b5f60208284031215615433575f80fd5b61543c826153e0565b9392505050565b5f805f60608486031215615455575f80fd5b61545e846153e0565b95602085013595506040909401359392505050565b602080825282518282018190525f918401906040840190835b818110156154c65783518051845260208101516020850152604081015160408501525060608301925060208401935060018101905061548c565b509095945050505050565b602080825282518282018190525f918401906040840190835b818110156154c657835180518452602081015160208501526040810151604085015260608101516060850152608081015160808501525060a0830192506020840193506001810190506154ea565b5f81518084528060208401602086015e5f602082860101526020601f19601f83011685010191505092915050565b5f602082016020835280845180835260408501915060408160051b8601019250602086015f5b8281101561563d57603f19878603018452815180518652602081015161012060208801526155be610120880182615538565b90506040820151604088015260608201516155dd606089018215159052565b5060808201516155f1608089018215159052565b5060a082015160a088015260c082015160c088015260e082015160e0880152610100820151915061562761010088018315159052565b955050602093840193919091019060010161558c565b50929695505050505050565b602080825282518282018190525f918401906040840190835b818110156154c6578351805184526020810151602085015260408101516040850152606081015160608501526080810151608085015260a081015160a085015260c0810151151560c08501525060e083019250602084019350600181019050615662565b602081526156e06020820183516001600160a01b03169052565b602082015160408201526040820151606082015260608201516080820152608082015160a082015260a082015160c082015260c082015160e082015260e08201516101008201526101008201516101208201526101208201516101408201526101408201516101608201526101608201516101808201526101808201516101a08201526101a08201516101c08201526101c08201516101e08201526101e08201516102008201526102008201516102208201526102208201516102408201526102408201516102608201526102608201516102808201525f6102808301516103206102a08401526157d5610340840182615538565b90506102a08401516102c08401526102c08401516157f86102e085018215159052565b506102e084015180151561030085015250610300840151801515610320850152509392505050565b5f805f60608486031215615832575f80fd5b61583b846153e0565b9250615849602085016153e0565b929592945050506040919091013590565b5f6020828403121561586a575f80fd5b5035919050565b602080825282518282018190525f918401906040840190835b818110156154c6576158c4838551805182526020808201516001600160a01b03169083015260408082015190830152606090810151910152565b602093909301926080929092019160010161588a565b602080825282518282018190525f918401906040840190835b818110156154c65783518051845260209081015181850152909301926040909201916001016158f3565b5f602082016020835280845180835260408501915060408160051b8601019250602086015f5b8281101561563d57603f1987860301845281518051865260208101516101606020880152615975610160880182615538565b905060408201516040880152606082015160608801526080820151608088015260a082015160a088015260c08201516159b260c089018215159052565b5060e082015160e088015261010082015161010088015261012082015161012088015261014082015191506159ec61014088018315159052565b9550506020938401939190910190600101615943565b89815261012060208201525f615a1c61012083018b615538565b6040830199909952509515156060870152931515608086015260a085019290925260c084015260e083015215156101009091015292915050565b5f8060408385031215615a67575f80fd5b50508035926020909101359150565b602080825282518282018190525f918401906040840190835b818110156154c657615ac9838551805182526020808201516001600160a01b03169083015260408082015190830152606090810151910152565b6020939093019260809290920191600101615a8f565b87815260e060208201525f615af760e0830189615538565b6040830197909752506060810194909452608084019290925260a083015260c09091015292915050565b634e487b7160e01b5f52601160045260245ffd5b8082028115828204841417612b8457612b84615b21565b81810381811115612b8457612b84615b21565b634e487b7160e01b5f52604160045260245ffd5b5f60018201615b8457615b84615b21565b5060010190565b634e487b7160e01b5f52603260045260245ffd5b5f81615bad57615bad615b21565b505f190190565b600181811c90821680615bc857607f821691505b60208210810361102f57634e487b7160e01b5f52602260045260245ffd5b602080825260149082015273596f7520617265206e6f7420616c6c6f7765642160601b604082015260600190565b5f82615c2e57634e487b7160e01b5f52601260045260245ffd5b500490565b80820180821115612b8457612b84615b21565b6001815b6001841115615c8157808504811115615c6557615c65615b21565b6001841615615c7357908102905b60019390931c928002615c4a565b935093915050565b5f82615c9757506001612b84565b81615ca357505f612b84565b8160018114615cb95760028114615cc357615cdf565b6001915050612b84565b60ff841115615cd457615cd4615b21565b50506001821b612b84565b5060208310610133831016604e8410600b8410161715615d02575081810a612b84565b615d0e5f198484615c46565b805f1904821115615d2157615d21615b21565b029392505050565b5f61543c8383615c89565b5f60208284031215615d44575f80fd5b5051919050565b5f60208284031215615d5b575f80fd5b8151801515811461543c575f80fdfea2646970667358221220267de6f1d2fdd7638e55ebbb23ec83129f2fbc19945b62f2ba712279f1b22bfe64736f6c634300081a0033",
			"opcodes": "PUSH1 0x80 PUSH1 0x40 MSTORE PUSH0 DUP1 DUP1 SSTORE PUSH1 0x1 DUP2 DUP2 SSTORE PUSH1 0x2 DUP3 DUP2 SSTORE PUSH1 0x3 DUP1 SLOAD PUSH1 0x1 PUSH1 0x1 PUSH1 0xA0 SHL SUB NOT SWAP1 DUP2 AND PUSH20 0xA1BF05780C2DE3002086695D212A743EAA6532AD OR SWAP1 SWAP2 SSTORE PUSH1 0x4 DUP1 SLOAD DUP3 AND PUSH20 0x4F6A1CFDF5E55DB0C2FF4575B0887FEA8A967088 OR SWAP1 SSTORE PUSH1 0x5 DUP1 SLOAD DUP3 AND PUSH20 0x985495C028F9B896DE454EC448B53FBA6450DA40 OR SWAP1 SSTORE PUSH1 0x6 DUP1 SLOAD DUP3 AND PUSH20 0x73D1AD5A474E1712D6CBE18D56B7281AAF190347 OR SWAP1 SSTORE PUSH1 0x7 DUP1 SLOAD SWAP1 SWAP2 AND SWAP1 SSTORE PUSH1 0x8 DUP4 SWAP1 SSTORE PUSH1 0x9 DUP4 SWAP1 SSTORE PUSH1 0xA DUP1 SLOAD PUSH1 0xFF NOT SWAP1 DUP2 AND DUP5 OR SWAP1 SWAP2 SSTORE PUSH1 0xB SWAP4 SWAP1 SWAP4 SSTORE PUSH1 0xC DUP1 SLOAD SWAP1 SWAP4 AND DUP3 OR SWAP1 SWAP3 SSTORE PUSH1 0xD SSTORE PUSH1 0xE SSTORE CALLVALUE DUP1 ISZERO PUSH2 0xDA JUMPI PUSH0 DUP1 REVERT JUMPDEST POP PUSH1 0xC DUP1 SLOAD PUSH2 0x100 PUSH1 0x1 PUSH1 0xA8 SHL SUB NOT AND CALLER PUSH2 0x100 MUL OR SWAP1 SSTORE PUSH2 0xFA PUSH2 0xFF JUMP JUMPDEST PUSH2 0x1531 JUMP JUMPDEST PUSH2 0x107 PUSH2 0x121 JUMP JUMPDEST PUSH2 0x10F PUSH2 0x250 JUMP JUMPDEST PUSH2 0x117 PUSH2 0x8F7 JUMP JUMPDEST PUSH2 0x11F PUSH2 0xDBA JUMP JUMPDEST JUMP JUMPDEST PUSH1 0xB DUP1 SLOAD SWAP1 PUSH0 PUSH2 0x130 DUP4 PUSH2 0x12A8 JUMP JUMPDEST SWAP2 SWAP1 POP SSTORE POP PUSH1 0x40 MLOAD DUP1 PUSH2 0x120 ADD PUSH1 0x40 MSTORE DUP1 PUSH1 0xB SLOAD DUP2 MSTORE PUSH1 0x20 ADD PUSH1 0x40 MLOAD DUP1 PUSH1 0x40 ADD PUSH1 0x40 MSTORE DUP1 PUSH1 0x7 DUP2 MSTORE PUSH1 0x20 ADD PUSH7 0x5061636B616765 PUSH1 0xC8 SHL DUP2 MSTORE POP DUP2 MSTORE PUSH1 0x20 ADD PUSH0 DUP2 MSTORE PUSH1 0x20 ADD PUSH1 0x1 ISZERO ISZERO DUP2 MSTORE PUSH1 0x20 ADD PUSH1 0x1 ISZERO ISZERO DUP2 MSTORE PUSH1 0x20 ADD PUSH2 0x196 PUSH1 0x1E PUSH2 0xDD3 PUSH1 0x20 SHL PUSH1 0x20 SHR JUMP JUMPDEST DUP2 MSTORE PUSH1 0x20 ADD PUSH2 0x1A6 PUSH2 0xBB8 PUSH2 0xDD3 JUMP JUMPDEST DUP2 MSTORE PUSH0 PUSH1 0x20 DUP1 DUP4 ADD DUP3 SWAP1 MSTORE PUSH1 0x1 PUSH1 0x40 SWAP4 DUP5 ADD DUP2 SWAP1 MSTORE PUSH1 0xB SLOAD DUP4 MSTORE PUSH1 0xF DUP3 MSTORE SWAP3 SWAP1 SWAP2 KECCAK256 DUP4 MLOAD DUP2 SSTORE SWAP1 DUP4 ADD MLOAD SWAP1 SWAP2 DUP3 ADD SWAP1 PUSH2 0x1DF SWAP1 DUP3 PUSH2 0x1358 JUMP JUMPDEST POP PUSH1 0x40 DUP3 ADD MLOAD PUSH1 0x2 DUP3 ADD SSTORE PUSH1 0x60 DUP3 ADD MLOAD PUSH1 0x3 DUP3 ADD DUP1 SLOAD PUSH1 0x80 DUP6 ADD MLOAD PUSH2 0xFFFF NOT SWAP1 SWAP2 AND SWAP3 ISZERO ISZERO PUSH2 0xFF00 NOT AND SWAP3 SWAP1 SWAP3 OR PUSH2 0x100 SWAP3 ISZERO ISZERO DUP4 MUL OR SWAP1 SSTORE PUSH1 0xA0 DUP4 ADD MLOAD PUSH1 0x4 DUP4 ADD SSTORE PUSH1 0xC0 DUP4 ADD MLOAD PUSH1 0x5 DUP4 ADD SSTORE PUSH1 0xE0 DUP4 ADD MLOAD PUSH1 0x6 DUP4 ADD SSTORE SWAP1 SWAP2 ADD MLOAD PUSH1 0x7 SWAP1 SWAP2 ADD DUP1 SLOAD PUSH1 0xFF NOT AND SWAP2 ISZERO ISZERO SWAP2 SWAP1 SWAP2 OR SWAP1 SSTORE JUMP JUMPDEST PUSH1 0x8 DUP1 SLOAD SWAP1 PUSH0 PUSH2 0x25F DUP4 PUSH2 0x12A8 JUMP JUMPDEST SWAP1 SWAP2 SSTORE POP POP PUSH1 0x40 DUP1 MLOAD PUSH1 0x60 DUP2 ADD DUP3 MSTORE PUSH1 0x8 DUP1 SLOAD DUP1 DUP4 MSTORE PUSH2 0x1F4 PUSH1 0x20 DUP1 DUP6 ADD SWAP2 DUP3 MSTORE PUSH0 DUP6 DUP8 ADD DUP2 DUP2 MSTORE SWAP4 DUP2 MSTORE PUSH1 0x10 SWAP1 SWAP2 MSTORE SWAP5 DUP6 KECCAK256 SWAP4 MLOAD DUP5 SSTORE MLOAD PUSH1 0x1 DUP5 ADD SSTORE MLOAD PUSH1 0x2 SWAP1 SWAP3 ADD SWAP2 SWAP1 SWAP2 SSTORE DUP1 SLOAD SWAP2 PUSH2 0x2B2 DUP4 PUSH2 0x12A8 JUMP JUMPDEST SWAP1 SWAP2 SSTORE POP POP PUSH1 0x40 DUP1 MLOAD PUSH1 0x60 DUP2 ADD DUP3 MSTORE PUSH1 0x8 DUP1 SLOAD DUP1 DUP4 MSTORE PUSH2 0x12C PUSH1 0x20 DUP1 DUP6 ADD SWAP2 DUP3 MSTORE PUSH1 0x1 DUP6 DUP8 ADD DUP2 DUP2 MSTORE PUSH0 SWAP5 DUP6 MSTORE PUSH1 0x10 SWAP1 SWAP3 MSTORE SWAP6 DUP4 KECCAK256 SWAP5 MLOAD DUP6 SSTORE SWAP1 MLOAD SWAP5 DUP5 ADD SWAP5 SWAP1 SWAP5 SSTORE SWAP3 MLOAD PUSH1 0x2 SWAP1 SWAP3 ADD SWAP2 SWAP1 SWAP2 SSTORE DUP1 SLOAD SWAP2 PUSH2 0x30B DUP4 PUSH2 0x12A8 JUMP JUMPDEST SWAP1 SWAP2 SSTORE POP POP PUSH1 0x40 DUP1 MLOAD PUSH1 0x60 DUP2 ADD DUP3 MSTORE PUSH1 0x8 DUP1 SLOAD DUP1 DUP4 MSTORE PUSH1 0xC8 PUSH1 0x20 DUP1 DUP6 ADD SWAP2 DUP3 MSTORE PUSH1 0x1 DUP6 DUP8 ADD DUP2 DUP2 MSTORE PUSH0 SWAP5 DUP6 MSTORE PUSH1 0x10 SWAP1 SWAP3 MSTORE SWAP6 DUP4 KECCAK256 SWAP5 MLOAD DUP6 SSTORE SWAP1 MLOAD SWAP5 DUP5 ADD SWAP5 SWAP1 SWAP5 SSTORE SWAP3 MLOAD PUSH1 0x2 SWAP1 SWAP3 ADD SWAP2 SWAP1 SWAP2 SSTORE DUP1 SLOAD SWAP2 PUSH2 0x363 DUP4 PUSH2 0x12A8 JUMP JUMPDEST SWAP1 SWAP2 SSTORE POP POP PUSH1 0x40 DUP1 MLOAD PUSH1 0x60 DUP2 ADD DUP3 MSTORE PUSH1 0x8 DUP1 SLOAD DUP1 DUP4 MSTORE PUSH2 0x190 PUSH1 0x20 DUP1 DUP6 ADD SWAP2 DUP3 MSTORE PUSH1 0x2 DUP6 DUP8 ADD DUP2 DUP2 MSTORE PUSH0 SWAP5 DUP6 MSTORE PUSH1 0x10 SWAP1 SWAP3 MSTORE SWAP6 DUP4 KECCAK256 SWAP5 MLOAD DUP6 SSTORE SWAP1 MLOAD PUSH1 0x1 DUP6 ADD SSTORE MLOAD SWAP3 SWAP1 SWAP4 ADD SWAP2 SWAP1 SWAP2 SSTORE DUP1 SLOAD SWAP2 PUSH2 0x3B8 DUP4 PUSH2 0x12A8 JUMP JUMPDEST SWAP1 SWAP2 SSTORE POP POP PUSH1 0x40 DUP1 MLOAD PUSH1 0x60 DUP2 ADD DUP3 MSTORE PUSH1 0x8 DUP1 SLOAD DUP1 DUP4 MSTORE PUSH1 0xC8 PUSH1 0x20 DUP1 DUP6 ADD SWAP2 DUP3 MSTORE PUSH1 0x2 DUP6 DUP8 ADD DUP2 DUP2 MSTORE PUSH0 SWAP5 DUP6 MSTORE PUSH1 0x10 SWAP1 SWAP3 MSTORE SWAP6 DUP4 KECCAK256 SWAP5 MLOAD DUP6 SSTORE SWAP1 MLOAD PUSH1 0x1 DUP6 ADD SSTORE MLOAD SWAP3 SWAP1 SWAP4 ADD SWAP2 SWAP1 SWAP2 SSTORE DUP1 SLOAD SWAP2 PUSH2 0x40C DUP4 PUSH2 0x12A8 JUMP JUMPDEST SWAP1 SWAP2 SSTORE POP POP PUSH1 0x40 DUP1 MLOAD PUSH1 0x60 DUP2 ADD DUP3 MSTORE PUSH1 0x8 DUP1 SLOAD DUP1 DUP4 MSTORE PUSH1 0xC8 PUSH1 0x20 DUP1 DUP6 ADD SWAP2 DUP3 MSTORE PUSH1 0x2 DUP6 DUP8 ADD DUP2 DUP2 MSTORE PUSH0 SWAP5 DUP6 MSTORE PUSH1 0x10 SWAP1 SWAP3 MSTORE SWAP6 DUP4 KECCAK256 SWAP5 MLOAD DUP6 SSTORE SWAP1 MLOAD PUSH1 0x1 DUP6 ADD SSTORE MLOAD SWAP3 SWAP1 SWAP4 ADD SWAP2 SWAP1 SWAP2 SSTORE DUP1 SLOAD SWAP2 PUSH2 0x460 DUP4 PUSH2 0x12A8 JUMP JUMPDEST SWAP1 SWAP2 SSTORE POP POP PUSH1 0x40 DUP1 MLOAD PUSH1 0x60 DUP2 ADD DUP3 MSTORE PUSH1 0x8 DUP1 SLOAD DUP1 DUP4 MSTORE PUSH1 0x64 PUSH1 0x20 DUP1 DUP6 ADD SWAP2 DUP3 MSTORE PUSH1 0x2 DUP6 DUP8 ADD DUP2 DUP2 MSTORE PUSH0 SWAP5 DUP6 MSTORE PUSH1 0x10 SWAP1 SWAP3 MSTORE SWAP6 DUP4 KECCAK256 SWAP5 MLOAD DUP6 SSTORE SWAP1 MLOAD PUSH1 0x1 DUP6 ADD SSTORE MLOAD SWAP3 SWAP1 SWAP4 ADD SWAP2 SWAP1 SWAP2 SSTORE DUP1 SLOAD SWAP2 PUSH2 0x4B4 DUP4 PUSH2 0x12A8 JUMP JUMPDEST SWAP1 SWAP2 SSTORE POP POP PUSH1 0x40 DUP1 MLOAD PUSH1 0x60 DUP2 ADD DUP3 MSTORE PUSH1 0x8 DUP1 SLOAD DUP1 DUP4 MSTORE PUSH1 0x64 PUSH1 0x20 DUP1 DUP6 ADD SWAP2 DUP3 MSTORE PUSH1 0x2 DUP6 DUP8 ADD DUP2 DUP2 MSTORE PUSH0 SWAP5 DUP6 MSTORE PUSH1 0x10 SWAP1 SWAP3 MSTORE SWAP6 DUP4 KECCAK256 SWAP5 MLOAD DUP6 SSTORE SWAP1 MLOAD PUSH1 0x1 DUP6 ADD SSTORE MLOAD SWAP3 SWAP1 SWAP4 ADD SWAP2 SWAP1 SWAP2 SSTORE DUP1 SLOAD SWAP2 PUSH2 0x508 DUP4 PUSH2 0x12A8 JUMP JUMPDEST SWAP1 SWAP2 SSTORE POP POP PUSH1 0x40 DUP1 MLOAD PUSH1 0x60 DUP2 ADD DUP3 MSTORE PUSH1 0x8 DUP1 SLOAD DUP1 DUP4 MSTORE PUSH1 0xC8 PUSH1 0x20 DUP1 DUP6 ADD SWAP2 DUP3 MSTORE PUSH1 0x3 DUP6 DUP8 ADD SWAP1 DUP2 MSTORE PUSH0 SWAP4 DUP5 MSTORE PUSH1 0x10 SWAP1 SWAP2 MSTORE SWAP5 DUP3 KECCAK256 SWAP4 MLOAD DUP5 SSTORE MLOAD PUSH1 0x1 DUP5 ADD SSTORE SWAP3 MLOAD PUSH1 0x2 SWAP1 SWAP3 ADD SWAP2 SWAP1 SWAP2 SSTORE DUP1 SLOAD SWAP2 PUSH2 0x55D DUP4 PUSH2 0x12A8 JUMP JUMPDEST SWAP1 SWAP2 SSTORE POP POP PUSH1 0x40 DUP1 MLOAD PUSH1 0x60 DUP2 ADD DUP3 MSTORE PUSH1 0x8 DUP1 SLOAD DUP1 DUP4 MSTORE PUSH1 0x64 PUSH1 0x20 DUP1 DUP6 ADD SWAP2 DUP3 MSTORE PUSH1 0x3 DUP6 DUP8 ADD SWAP1 DUP2 MSTORE PUSH0 SWAP4 DUP5 MSTORE PUSH1 0x10 SWAP1 SWAP2 MSTORE SWAP5 DUP3 KECCAK256 SWAP4 MLOAD DUP5 SSTORE MLOAD PUSH1 0x1 DUP5 ADD SSTORE SWAP3 MLOAD PUSH1 0x2 SWAP1 SWAP3 ADD SWAP2 SWAP1 SWAP2 SSTORE DUP1 SLOAD SWAP2 PUSH2 0x5B2 DUP4 PUSH2 0x12A8 JUMP JUMPDEST SWAP1 SWAP2 SSTORE POP POP PUSH1 0x40 DUP1 MLOAD PUSH1 0x60 DUP2 ADD DUP3 MSTORE PUSH1 0x8 DUP1 SLOAD DUP1 DUP4 MSTORE PUSH1 0x32 PUSH1 0x20 DUP1 DUP6 ADD SWAP2 DUP3 MSTORE PUSH1 0x3 DUP6 DUP8 ADD SWAP1 DUP2 MSTORE PUSH0 SWAP4 DUP5 MSTORE PUSH1 0x10 SWAP1 SWAP2 MSTORE SWAP5 DUP3 KECCAK256 SWAP4 MLOAD DUP5 SSTORE MLOAD PUSH1 0x1 DUP5 ADD SSTORE SWAP3 MLOAD PUSH1 0x2 SWAP1 SWAP3 ADD SWAP2 SWAP1 SWAP2 SSTORE DUP1 SLOAD SWAP2 PUSH2 0x607 DUP4 PUSH2 0x12A8 JUMP JUMPDEST SWAP1 SWAP2 SSTORE POP POP PUSH1 0x40 DUP1 MLOAD PUSH1 0x60 DUP2 ADD DUP3 MSTORE PUSH1 0x8 DUP1 SLOAD DUP1 DUP4 MSTORE PUSH1 0x32 PUSH1 0x20 DUP1 DUP6 ADD SWAP2 DUP3 MSTORE PUSH1 0x3 DUP6 DUP8 ADD SWAP1 DUP2 MSTORE PUSH0 SWAP4 DUP5 MSTORE PUSH1 0x10 SWAP1 SWAP2 MSTORE SWAP5 DUP3 KECCAK256 SWAP4 MLOAD DUP5 SSTORE MLOAD PUSH1 0x1 DUP5 ADD SSTORE SWAP3 MLOAD PUSH1 0x2 SWAP1 SWAP3 ADD SWAP2 SWAP1 SWAP2 SSTORE DUP1 SLOAD SWAP2 PUSH2 0x65C DUP4 PUSH2 0x12A8 JUMP JUMPDEST SWAP1 SWAP2 SSTORE POP POP PUSH1 0x40 DUP1 MLOAD PUSH1 0x60 DUP2 ADD DUP3 MSTORE PUSH1 0x8 DUP1 SLOAD DUP1 DUP4 MSTORE PUSH1 0x32 PUSH1 0x20 DUP1 DUP6 ADD SWAP2 DUP3 MSTORE PUSH1 0x3 DUP6 DUP8 ADD SWAP1 DUP2 MSTORE PUSH0 SWAP4 DUP5 MSTORE PUSH1 0x10 SWAP1 SWAP2 MSTORE SWAP5 DUP3 KECCAK256 SWAP4 MLOAD DUP5 SSTORE MLOAD PUSH1 0x1 DUP5 ADD SSTORE SWAP3 MLOAD PUSH1 0x2 SWAP1 SWAP3 ADD SWAP2 SWAP1 SWAP2 SSTORE DUP1 SLOAD SWAP2 PUSH2 0x6B1 DUP4 PUSH2 0x12A8 JUMP JUMPDEST SWAP1 SWAP2 SSTORE POP POP PUSH1 0x40 DUP1 MLOAD PUSH1 0x60 DUP2 ADD DUP3 MSTORE PUSH1 0x8 DUP1 SLOAD DUP1 DUP4 MSTORE PUSH1 0x64 PUSH1 0x20 DUP1 DUP6 ADD SWAP2 DUP3 MSTORE PUSH1 0x4 DUP6 DUP8 ADD SWAP1 DUP2 MSTORE PUSH0 SWAP4 DUP5 MSTORE PUSH1 0x10 SWAP1 SWAP2 MSTORE SWAP5 DUP3 KECCAK256 SWAP4 MLOAD DUP5 SSTORE MLOAD PUSH1 0x1 DUP5 ADD SSTORE SWAP3 MLOAD PUSH1 0x2 SWAP1 SWAP3 ADD SWAP2 SWAP1 SWAP2 SSTORE DUP1 SLOAD SWAP2 PUSH2 0x706 DUP4 PUSH2 0x12A8 JUMP JUMPDEST SWAP1 SWAP2 SSTORE POP POP PUSH1 0x40 DUP1 MLOAD PUSH1 0x60 DUP2 ADD DUP3 MSTORE PUSH1 0x8 DUP1 SLOAD DUP1 DUP4 MSTORE PUSH1 0x32 PUSH1 0x20 DUP1 DUP6 ADD SWAP2 DUP3 MSTORE PUSH1 0x4 DUP6 DUP8 ADD SWAP1 DUP2 MSTORE PUSH0 SWAP4 DUP5 MSTORE PUSH1 0x10 SWAP1 SWAP2 MSTORE SWAP5 DUP3 KECCAK256 SWAP4 MLOAD DUP5 SSTORE MLOAD PUSH1 0x1 DUP5 ADD SSTORE SWAP3 MLOAD PUSH1 0x2 SWAP1 SWAP3 ADD SWAP2 SWAP1 SWAP2 SSTORE DUP1 SLOAD SWAP2 PUSH2 0x75B DUP4 PUSH2 0x12A8 JUMP JUMPDEST SWAP1 SWAP2 SSTORE POP POP PUSH1 0x40 DUP1 MLOAD PUSH1 0x60 DUP2 ADD DUP3 MSTORE PUSH1 0x8 DUP1 SLOAD DUP1 DUP4 MSTORE PUSH1 0x19 PUSH1 0x20 DUP1 DUP6 ADD SWAP2 DUP3 MSTORE PUSH1 0x4 DUP6 DUP8 ADD SWAP1 DUP2 MSTORE PUSH0 SWAP4 DUP5 MSTORE PUSH1 0x10 SWAP1 SWAP2 MSTORE SWAP5 DUP3 KECCAK256 SWAP4 MLOAD DUP5 SSTORE MLOAD PUSH1 0x1 DUP5 ADD SSTORE SWAP3 MLOAD PUSH1 0x2 SWAP1 SWAP3 ADD SWAP2 SWAP1 SWAP2 SSTORE DUP1 SLOAD SWAP2 PUSH2 0x7B0 DUP4 PUSH2 0x12A8 JUMP JUMPDEST SWAP1 SWAP2 SSTORE POP POP PUSH1 0x40 DUP1 MLOAD PUSH1 0x60 DUP2 ADD DUP3 MSTORE PUSH1 0x8 DUP1 SLOAD DUP1 DUP4 MSTORE PUSH1 0x19 PUSH1 0x20 DUP1 DUP6 ADD SWAP2 DUP3 MSTORE PUSH1 0x4 DUP6 DUP8 ADD SWAP1 DUP2 MSTORE PUSH0 SWAP4 DUP5 MSTORE PUSH1 0x10 SWAP1 SWAP2 MSTORE SWAP5 DUP3 KECCAK256 SWAP4 MLOAD DUP5 SSTORE MLOAD PUSH1 0x1 DUP5 ADD SSTORE SWAP3 MLOAD PUSH1 0x2 SWAP1 SWAP3 ADD SWAP2 SWAP1 SWAP2 SSTORE DUP1 SLOAD SWAP2 PUSH2 0x805 DUP4 PUSH2 0x12A8 JUMP JUMPDEST SWAP1 SWAP2 SSTORE POP POP PUSH1 0x40 DUP1 MLOAD PUSH1 0x60 DUP2 ADD DUP3 MSTORE PUSH1 0x8 DUP1 SLOAD DUP1 DUP4 MSTORE PUSH1 0x19 PUSH1 0x20 DUP1 DUP6 ADD SWAP2 DUP3 MSTORE PUSH1 0x4 DUP6 DUP8 ADD SWAP1 DUP2 MSTORE PUSH0 SWAP4 DUP5 MSTORE PUSH1 0x10 SWAP1 SWAP2 MSTORE SWAP5 DUP3 KECCAK256 SWAP4 MLOAD DUP5 SSTORE MLOAD PUSH1 0x1 DUP5 ADD SSTORE SWAP3 MLOAD PUSH1 0x2 SWAP1 SWAP3 ADD SWAP2 SWAP1 SWAP2 SSTORE DUP1 SLOAD SWAP2 PUSH2 0x85A DUP4 PUSH2 0x12A8 JUMP JUMPDEST SWAP1 SWAP2 SSTORE POP POP PUSH1 0x40 DUP1 MLOAD PUSH1 0x60 DUP2 ADD DUP3 MSTORE PUSH1 0x8 DUP1 SLOAD DUP1 DUP4 MSTORE PUSH1 0x19 PUSH1 0x20 DUP1 DUP6 ADD SWAP2 DUP3 MSTORE PUSH1 0x4 DUP6 DUP8 ADD SWAP1 DUP2 MSTORE PUSH0 SWAP4 DUP5 MSTORE PUSH1 0x10 SWAP1 SWAP2 MSTORE SWAP5 DUP3 KECCAK256 SWAP4 MLOAD DUP5 SSTORE MLOAD PUSH1 0x1 DUP5 ADD SSTORE SWAP3 MLOAD PUSH1 0x2 SWAP1 SWAP3 ADD SWAP2 SWAP1 SWAP2 SSTORE DUP1 SLOAD SWAP2 PUSH2 0x8AF DUP4 PUSH2 0x12A8 JUMP JUMPDEST SWAP1 SWAP2 SSTORE POP POP PUSH1 0x40 DUP1 MLOAD PUSH1 0x60 DUP2 ADD DUP3 MSTORE PUSH1 0x8 SLOAD DUP1 DUP3 MSTORE PUSH1 0x19 PUSH1 0x20 DUP1 DUP5 ADD SWAP2 DUP3 MSTORE PUSH1 0x4 DUP5 DUP7 ADD SWAP1 DUP2 MSTORE PUSH0 SWAP4 DUP5 MSTORE PUSH1 0x10 SWAP1 SWAP2 MSTORE SWAP4 SWAP1 SWAP2 KECCAK256 SWAP2 MLOAD DUP3 SSTORE MLOAD PUSH1 0x1 DUP3 ADD SSTORE SWAP1 MLOAD PUSH1 0x2 SWAP1 SWAP2 ADD SSTORE JUMP JUMPDEST PUSH1 0x9 DUP1 SLOAD SWAP1 PUSH0 PUSH2 0x906 DUP4 PUSH2 0x12A8 JUMP JUMPDEST SWAP2 SWAP1 POP SSTORE POP PUSH1 0x40 MLOAD DUP1 PUSH1 0xE0 ADD PUSH1 0x40 MSTORE DUP1 PUSH1 0x9 SLOAD DUP2 MSTORE PUSH1 0x20 ADD PUSH1 0x40 MLOAD DUP1 PUSH1 0x40 ADD PUSH1 0x40 MSTORE DUP1 PUSH1 0x6 DUP2 MSTORE PUSH1 0x20 ADD PUSH6 0x189029BA30B9 PUSH1 0xD1 SHL DUP2 MSTORE POP DUP2 MSTORE PUSH1 0x20 ADD PUSH2 0x953 PUSH2 0x12C PUSH2 0xDD3 PUSH1 0x20 SHL PUSH1 0x20 SHR JUMP JUMPDEST DUP2 MSTORE PUSH1 0x14 PUSH1 0x20 DUP3 ADD MSTORE PUSH1 0x40 ADD PUSH2 0x96A PUSH2 0x3E8 PUSH2 0xDD3 JUMP JUMPDEST DUP2 MSTORE PUSH1 0x20 ADD PUSH2 0x97A PUSH2 0x3E8 PUSH2 0xDD3 JUMP JUMPDEST DUP2 MSTORE PUSH1 0x20 ADD PUSH2 0x988 PUSH0 PUSH2 0xDD3 JUMP JUMPDEST SWAP1 MSTORE PUSH1 0x9 SLOAD PUSH0 SWAP1 DUP2 MSTORE PUSH1 0x11 PUSH1 0x20 SWAP1 DUP2 MSTORE PUSH1 0x40 SWAP1 SWAP2 KECCAK256 DUP3 MLOAD DUP2 SSTORE SWAP1 DUP3 ADD MLOAD PUSH1 0x1 DUP3 ADD SWAP1 PUSH2 0x9B4 SWAP1 DUP3 PUSH2 0x1358 JUMP JUMPDEST POP PUSH1 0x40 DUP3 ADD MLOAD PUSH1 0x2 DUP3 ADD SSTORE PUSH1 0x60 DUP3 ADD MLOAD PUSH1 0x3 DUP3 ADD SSTORE PUSH1 0x80 DUP3 ADD MLOAD PUSH1 0x4 DUP3 ADD SSTORE PUSH1 0xA0 DUP3 ADD MLOAD PUSH1 0x5 DUP3 ADD SSTORE PUSH1 0xC0 SWAP1 SWAP2 ADD MLOAD PUSH1 0x6 SWAP1 SWAP2 ADD SSTORE PUSH1 0x9 DUP1 SLOAD SWAP1 PUSH0 PUSH2 0x9F8 DUP4 PUSH2 0x12A8 JUMP JUMPDEST SWAP2 SWAP1 POP SSTORE POP PUSH1 0x40 MLOAD DUP1 PUSH1 0xE0 ADD PUSH1 0x40 MSTORE DUP1 PUSH1 0x9 SLOAD DUP2 MSTORE PUSH1 0x20 ADD PUSH1 0x40 MLOAD DUP1 PUSH1 0x40 ADD PUSH1 0x40 MSTORE DUP1 PUSH1 0x6 DUP2 MSTORE PUSH1 0x20 ADD PUSH6 0x191029BA30B9 PUSH1 0xD1 SHL DUP2 MSTORE POP DUP2 MSTORE PUSH1 0x20 ADD PUSH2 0xA45 PUSH2 0x1F4 PUSH2 0xDD3 PUSH1 0x20 SHL PUSH1 0x20 SHR JUMP JUMPDEST DUP2 MSTORE PUSH1 0x32 PUSH1 0x20 DUP3 ADD MSTORE PUSH1 0x40 ADD PUSH2 0xA5C PUSH2 0x1388 PUSH2 0xDD3 JUMP JUMPDEST DUP2 MSTORE PUSH1 0x20 ADD PUSH2 0xA6C PUSH2 0x1388 PUSH2 0xDD3 JUMP JUMPDEST DUP2 MSTORE PUSH1 0x20 ADD PUSH2 0xA7A PUSH0 PUSH2 0xDD3 JUMP JUMPDEST SWAP1 MSTORE PUSH1 0x9 SLOAD PUSH0 SWAP1 DUP2 MSTORE PUSH1 0x11 PUSH1 0x20 SWAP1 DUP2 MSTORE PUSH1 0x40 SWAP1 SWAP2 KECCAK256 DUP3 MLOAD DUP2 SSTORE SWAP1 DUP3 ADD MLOAD PUSH1 0x1 DUP3 ADD SWAP1 PUSH2 0xAA6 SWAP1 DUP3 PUSH2 0x1358 JUMP JUMPDEST POP PUSH1 0x40 DUP3 ADD MLOAD PUSH1 0x2 DUP3 ADD SSTORE PUSH1 0x60 DUP3 ADD MLOAD PUSH1 0x3 DUP3 ADD SSTORE PUSH1 0x80 DUP3 ADD MLOAD PUSH1 0x4 DUP3 ADD SSTORE PUSH1 0xA0 DUP3 ADD MLOAD PUSH1 0x5 DUP3 ADD SSTORE PUSH1 0xC0 SWAP1 SWAP2 ADD MLOAD PUSH1 0x6 SWAP1 SWAP2 ADD SSTORE PUSH1 0x9 DUP1 SLOAD SWAP1 PUSH0 PUSH2 0xAEA DUP4 PUSH2 0x12A8 JUMP JUMPDEST SWAP2 SWAP1 POP SSTORE POP PUSH1 0x40 MLOAD DUP1 PUSH1 0xE0 ADD PUSH1 0x40 MSTORE DUP1 PUSH1 0x9 SLOAD DUP2 MSTORE PUSH1 0x20 ADD PUSH1 0x40 MLOAD DUP1 PUSH1 0x40 ADD PUSH1 0x40 MSTORE DUP1 PUSH1 0x6 DUP2 MSTORE PUSH1 0x20 ADD PUSH6 0x199029BA30B9 PUSH1 0xD1 SHL DUP2 MSTORE POP DUP2 MSTORE PUSH1 0x20 ADD PUSH2 0xB37 PUSH2 0x3E8 PUSH2 0xDD3 PUSH1 0x20 SHL PUSH1 0x20 SHR JUMP JUMPDEST DUP2 MSTORE PUSH1 0x64 PUSH1 0x20 DUP3 ADD MSTORE PUSH1 0x40 ADD PUSH2 0xB4E PUSH2 0x2710 PUSH2 0xDD3 JUMP JUMPDEST DUP2 MSTORE PUSH1 0x20 ADD PUSH2 0xB5E PUSH2 0x2710 PUSH2 0xDD3 JUMP JUMPDEST DUP2 MSTORE PUSH1 0x20 ADD PUSH2 0xB6C PUSH0 PUSH2 0xDD3 JUMP JUMPDEST SWAP1 MSTORE PUSH1 0x9 SLOAD PUSH0 SWAP1 DUP2 MSTORE PUSH1 0x11 PUSH1 0x20 SWAP1 DUP2 MSTORE PUSH1 0x40 SWAP1 SWAP2 KECCAK256 DUP3 MLOAD DUP2 SSTORE SWAP1 DUP3 ADD MLOAD PUSH1 0x1 DUP3 ADD SWAP1 PUSH2 0xB98 SWAP1 DUP3 PUSH2 0x1358 JUMP JUMPDEST POP PUSH1 0x40 DUP3 ADD MLOAD PUSH1 0x2 DUP3 ADD SSTORE PUSH1 0x60 DUP3 ADD MLOAD PUSH1 0x3 DUP3 ADD SSTORE PUSH1 0x80 DUP3 ADD MLOAD PUSH1 0x4 DUP3 ADD SSTORE PUSH1 0xA0 DUP3 ADD MLOAD PUSH1 0x5 DUP3 ADD SSTORE PUSH1 0xC0 SWAP1 SWAP2 ADD MLOAD PUSH1 0x6 SWAP1 SWAP2 ADD SSTORE PUSH1 0x9 DUP1 SLOAD SWAP1 PUSH0 PUSH2 0xBDC DUP4 PUSH2 0x12A8 JUMP JUMPDEST SWAP2 SWAP1 POP SSTORE POP PUSH1 0x40 MLOAD DUP1 PUSH1 0xE0 ADD PUSH1 0x40 MSTORE DUP1 PUSH1 0x9 SLOAD DUP2 MSTORE PUSH1 0x20 ADD PUSH1 0x40 MLOAD DUP1 PUSH1 0x40 ADD PUSH1 0x40 MSTORE DUP1 PUSH1 0x6 DUP2 MSTORE PUSH1 0x20 ADD PUSH6 0x1A1029BA30B9 PUSH1 0xD1 SHL DUP2 MSTORE POP DUP2 MSTORE PUSH1 0x20 ADD PUSH2 0xC29 PUSH2 0x7D0 PUSH2 0xDD3 PUSH1 0x20 SHL PUSH1 0x20 SHR JUMP JUMPDEST DUP2 MSTORE PUSH1 0xC8 PUSH1 0x20 DUP3 ADD MSTORE PUSH1 0x40 ADD PUSH2 0xC40 PUSH2 0x61A8 PUSH2 0xDD3 JUMP JUMPDEST DUP2 MSTORE PUSH1 0x20 ADD PUSH2 0xC50 PUSH2 0x61A8 PUSH2 0xDD3 JUMP JUMPDEST DUP2 MSTORE PUSH1 0x20 ADD PUSH2 0xC60 PUSH2 0x9C4 PUSH2 0xDD3 JUMP JUMPDEST SWAP1 MSTORE PUSH1 0x9 SLOAD PUSH0 SWAP1 DUP2 MSTORE PUSH1 0x11 PUSH1 0x20 SWAP1 DUP2 MSTORE PUSH1 0x40 SWAP1 SWAP2 KECCAK256 DUP3 MLOAD DUP2 SSTORE SWAP1 DUP3 ADD MLOAD PUSH1 0x1 DUP3 ADD SWAP1 PUSH2 0xC8C SWAP1 DUP3 PUSH2 0x1358 JUMP JUMPDEST POP PUSH1 0x40 DUP3 ADD MLOAD PUSH1 0x2 DUP3 ADD SSTORE PUSH1 0x60 DUP3 ADD MLOAD PUSH1 0x3 DUP3 ADD SSTORE PUSH1 0x80 DUP3 ADD MLOAD PUSH1 0x4 DUP3 ADD SSTORE PUSH1 0xA0 DUP3 ADD MLOAD PUSH1 0x5 DUP3 ADD SSTORE PUSH1 0xC0 SWAP1 SWAP2 ADD MLOAD PUSH1 0x6 SWAP1 SWAP2 ADD SSTORE PUSH1 0x9 DUP1 SLOAD SWAP1 PUSH0 PUSH2 0xCD0 DUP4 PUSH2 0x12A8 JUMP JUMPDEST SWAP2 SWAP1 POP SSTORE POP PUSH1 0x40 MLOAD DUP1 PUSH1 0xE0 ADD PUSH1 0x40 MSTORE DUP1 PUSH1 0x9 SLOAD DUP2 MSTORE PUSH1 0x20 ADD PUSH1 0x40 MLOAD DUP1 PUSH1 0x40 ADD PUSH1 0x40 MSTORE DUP1 PUSH1 0x6 DUP2 MSTORE PUSH1 0x20 ADD PUSH6 0x1A9029BA30B9 PUSH1 0xD1 SHL DUP2 MSTORE POP DUP2 MSTORE PUSH1 0x20 ADD PUSH2 0xD1D PUSH2 0xBB8 PUSH2 0xDD3 PUSH1 0x20 SHL PUSH1 0x20 SHR JUMP JUMPDEST DUP2 MSTORE PUSH2 0x1F4 PUSH1 0x20 DUP3 ADD MSTORE PUSH1 0x40 ADD PUSH2 0xD36 PUSH3 0x124F8 PUSH2 0xDD3 JUMP JUMPDEST DUP2 MSTORE PUSH1 0x20 ADD PUSH2 0xD47 PUSH3 0x124F8 PUSH2 0xDD3 JUMP JUMPDEST DUP2 MSTORE PUSH1 0x20 ADD PUSH2 0xD57 PUSH2 0x1388 PUSH2 0xDD3 JUMP JUMPDEST SWAP1 MSTORE PUSH1 0x9 SLOAD PUSH0 SWAP1 DUP2 MSTORE PUSH1 0x11 PUSH1 0x20 SWAP1 DUP2 MSTORE PUSH1 0x40 SWAP1 SWAP2 KECCAK256 DUP3 MLOAD DUP2 SSTORE SWAP1 DUP3 ADD MLOAD PUSH1 0x1 DUP3 ADD SWAP1 PUSH2 0xD83 SWAP1 DUP3 PUSH2 0x1358 JUMP JUMPDEST POP PUSH1 0x40 DUP3 ADD MLOAD PUSH1 0x2 DUP3 ADD SSTORE PUSH1 0x60 DUP3 ADD MLOAD PUSH1 0x3 DUP3 ADD SSTORE PUSH1 0x80 DUP3 ADD MLOAD PUSH1 0x4 DUP3 ADD SSTORE PUSH1 0xA0 DUP3 ADD MLOAD PUSH1 0x5 DUP3 ADD SSTORE PUSH1 0xC0 SWAP1 SWAP2 ADD MLOAD PUSH1 0x6 SWAP1 SWAP2 ADD SSTORE JUMP JUMPDEST PUSH1 0x3 SLOAD PUSH1 0x1 PUSH1 0x1 PUSH1 0xA0 SHL SUB AND PUSH2 0xDD0 DUP2 PUSH0 PUSH2 0xDF0 JUMP JUMPDEST POP JUMP JUMPDEST PUSH0 PUSH2 0xDE0 PUSH1 0x12 PUSH1 0xA PUSH2 0x14F5 JUMP JUMPDEST PUSH2 0xDEA SWAP1 DUP4 PUSH2 0x1507 JUMP JUMPDEST SWAP3 SWAP2 POP POP JUMP JUMPDEST PUSH0 DUP1 SLOAD SWAP1 DUP1 PUSH2 0xDFE DUP4 PUSH2 0x12A8 JUMP JUMPDEST SWAP2 SWAP1 POP SSTORE POP PUSH0 PUSH1 0x40 MLOAD DUP1 PUSH2 0x1A0 ADD PUSH1 0x40 MSTORE DUP1 PUSH0 SLOAD DUP2 MSTORE PUSH1 0x20 ADD DUP5 PUSH1 0x1 PUSH1 0x1 PUSH1 0xA0 SHL SUB AND DUP2 MSTORE PUSH1 0x20 ADD DUP4 PUSH1 0x1 PUSH1 0x1 PUSH1 0xA0 SHL SUB AND DUP2 MSTORE PUSH1 0x20 ADD TIMESTAMP DUP2 MSTORE PUSH1 0x20 ADD PUSH0 DUP2 MSTORE PUSH1 0x20 ADD PUSH0 DUP2 MSTORE PUSH1 0x20 ADD PUSH0 ISZERO ISZERO DUP2 MSTORE PUSH1 0x20 ADD PUSH0 DUP2 MSTORE PUSH1 0x20 ADD PUSH0 DUP2 MSTORE PUSH1 0x20 ADD PUSH0 DUP2 MSTORE PUSH1 0x20 ADD PUSH0 DUP2 MSTORE PUSH1 0x20 ADD PUSH0 ISZERO ISZERO DUP2 MSTORE PUSH1 0x20 ADD PUSH0 ISZERO ISZERO DUP2 MSTORE POP SWAP1 POP PUSH0 PUSH1 0x40 MLOAD DUP1 PUSH1 0xC0 ADD PUSH1 0x40 MSTORE DUP1 PUSH0 DUP2 MSTORE PUSH1 0x20 ADD PUSH0 PUSH1 0x1 PUSH1 0x1 PUSH1 0x40 SHL SUB DUP2 GT ISZERO PUSH2 0xEA1 JUMPI PUSH2 0xEA1 PUSH2 0x12C0 JUMP JUMPDEST PUSH1 0x40 MLOAD SWAP1 DUP1 DUP3 MSTORE DUP1 PUSH1 0x20 MUL PUSH1 0x20 ADD DUP3 ADD PUSH1 0x40 MSTORE DUP1 ISZERO PUSH2 0xECA JUMPI DUP2 PUSH1 0x20 ADD PUSH1 0x20 DUP3 MUL DUP1 CALLDATASIZE DUP4 CALLDATACOPY ADD SWAP1 POP JUMPDEST POP DUP2 MSTORE PUSH1 0x20 ADD PUSH0 DUP2 MSTORE PUSH1 0x20 ADD PUSH0 DUP2 MSTORE PUSH1 0x20 ADD PUSH0 DUP2 MSTORE PUSH1 0x20 ADD PUSH0 PUSH1 0x1 PUSH1 0x1 PUSH1 0x40 SHL SUB DUP2 GT ISZERO PUSH2 0xEFA JUMPI PUSH2 0xEFA PUSH2 0x12C0 JUMP JUMPDEST PUSH1 0x40 MLOAD SWAP1 DUP1 DUP3 MSTORE DUP1 PUSH1 0x20 MUL PUSH1 0x20 ADD DUP3 ADD PUSH1 0x40 MSTORE DUP1 ISZERO PUSH2 0xF23 JUMPI DUP2 PUSH1 0x20 ADD PUSH1 0x20 DUP3 MUL DUP1 CALLDATASIZE DUP4 CALLDATACOPY ADD SWAP1 POP JUMPDEST POP DUP2 MSTORE POP SWAP1 POP PUSH0 PUSH1 0x40 MLOAD DUP1 PUSH1 0xE0 ADD PUSH1 0x40 MSTORE DUP1 PUSH0 DUP2 MSTORE PUSH1 0x20 ADD PUSH0 DUP2 MSTORE PUSH1 0x20 ADD PUSH0 DUP2 MSTORE PUSH1 0x20 ADD PUSH1 0x8 SLOAD PUSH1 0x1 PUSH2 0xF56 SWAP2 SWAP1 PUSH2 0x151E JUMP JUMPDEST PUSH1 0x1 PUSH1 0x1 PUSH1 0x40 SHL SUB DUP2 GT ISZERO PUSH2 0xF6D JUMPI PUSH2 0xF6D PUSH2 0x12C0 JUMP JUMPDEST PUSH1 0x40 MLOAD SWAP1 DUP1 DUP3 MSTORE DUP1 PUSH1 0x20 MUL PUSH1 0x20 ADD DUP3 ADD PUSH1 0x40 MSTORE DUP1 ISZERO PUSH2 0xF96 JUMPI DUP2 PUSH1 0x20 ADD PUSH1 0x20 DUP3 MUL DUP1 CALLDATASIZE DUP4 CALLDATACOPY ADD SWAP1 POP JUMPDEST POP DUP2 MSTORE PUSH0 PUSH1 0x20 DUP1 DUP4 ADD DUP3 SWAP1 MSTORE PUSH1 0x40 DUP1 DUP5 ADD DUP4 SWAP1 MSTORE PUSH1 0x60 SWAP4 DUP5 ADD DUP4 SWAP1 MSTORE DUP1 MLOAD PUSH1 0x80 DUP1 DUP3 ADD DUP4 MSTORE DUP5 DUP3 MSTORE DUP2 DUP5 ADD DUP6 SWAP1 MSTORE DUP2 DUP4 ADD DUP6 SWAP1 MSTORE DUP2 DUP7 ADD DUP6 SWAP1 MSTORE PUSH1 0x1 PUSH1 0x1 PUSH1 0xA0 SHL SUB DUP13 DUP2 AND DUP7 MSTORE PUSH1 0x12 DUP6 MSTORE DUP4 DUP7 KECCAK256 DUP12 MLOAD DUP2 SSTORE DUP12 DUP7 ADD MLOAD PUSH1 0x1 DUP1 DUP4 ADD DUP1 SLOAD PUSH1 0x1 PUSH1 0x1 PUSH1 0xA0 SHL SUB NOT SWAP1 DUP2 AND SWAP4 DUP7 AND SWAP4 SWAP1 SWAP4 OR SWAP1 SSTORE DUP14 DUP8 ADD MLOAD PUSH1 0x2 DUP5 ADD DUP1 SLOAD SWAP1 SWAP4 AND SWAP5 AND SWAP4 SWAP1 SWAP4 OR SWAP1 SSTORE SWAP7 DUP12 ADD MLOAD PUSH1 0x3 DUP9 ADD SSTORE SWAP1 DUP11 ADD MLOAD PUSH1 0x4 DUP8 ADD SSTORE PUSH1 0xA0 DUP11 ADD MLOAD PUSH1 0x5 DUP8 ADD SSTORE PUSH1 0xC0 DUP11 ADD MLOAD PUSH1 0x6 DUP8 ADD DUP1 SLOAD PUSH1 0xFF NOT AND SWAP2 ISZERO ISZERO SWAP2 SWAP1 SWAP2 OR SWAP1 SSTORE PUSH1 0xE0 DUP11 ADD MLOAD PUSH1 0x7 DUP8 ADD SSTORE PUSH2 0x100 DUP1 DUP12 ADD MLOAD PUSH1 0x8 DUP9 ADD SSTORE PUSH2 0x120 DUP12 ADD MLOAD PUSH1 0x9 DUP9 ADD SSTORE PUSH2 0x140 DUP12 ADD MLOAD PUSH1 0xA DUP9 ADD SSTORE PUSH2 0x160 DUP12 ADD MLOAD PUSH1 0xB SWAP1 SWAP8 ADD DUP1 SLOAD PUSH2 0x180 DUP14 ADD MLOAD PUSH2 0xFFFF NOT SWAP1 SWAP2 AND SWAP9 ISZERO ISZERO PUSH2 0xFF00 NOT AND SWAP9 SWAP1 SWAP9 OR SWAP8 ISZERO ISZERO SWAP1 SWAP2 MUL SWAP7 SWAP1 SWAP7 OR SWAP1 SWAP6 SSTORE PUSH1 0x14 DUP4 MSTORE SWAP3 KECCAK256 DUP7 MLOAD DUP2 SSTORE DUP7 DUP3 ADD MLOAD DUP1 MLOAD SWAP6 SWAP7 POP SWAP3 SWAP5 DUP8 SWAP5 SWAP2 SWAP4 PUSH2 0x10D8 SWAP4 SWAP3 DUP6 ADD SWAP3 ADD SWAP1 PUSH2 0x11E4 JUMP JUMPDEST POP PUSH1 0x40 DUP3 ADD MLOAD PUSH1 0x2 DUP3 ADD SSTORE PUSH1 0x60 DUP3 ADD MLOAD PUSH1 0x3 DUP3 ADD SSTORE PUSH1 0x80 DUP3 ADD MLOAD PUSH1 0x4 DUP3 ADD SSTORE PUSH1 0xA0 DUP3 ADD MLOAD DUP1 MLOAD PUSH2 0x1112 SWAP2 PUSH1 0x5 DUP5 ADD SWAP2 PUSH1 0x20 SWAP1 SWAP2 ADD SWAP1 PUSH2 0x11E4 JUMP JUMPDEST POP POP POP PUSH1 0x1 PUSH1 0x1 PUSH1 0xA0 SHL SUB DUP7 AND PUSH0 SWAP1 DUP2 MSTORE PUSH1 0x19 PUSH1 0x20 SWAP1 DUP2 MSTORE PUSH1 0x40 SWAP2 DUP3 SWAP1 KECCAK256 DUP5 MLOAD DUP2 SSTORE DUP2 DUP6 ADD MLOAD PUSH1 0x1 DUP3 ADD SSTORE SWAP2 DUP5 ADD MLOAD PUSH1 0x2 DUP4 ADD SSTORE PUSH1 0x60 DUP5 ADD MLOAD DUP1 MLOAD DUP6 SWAP4 SWAP3 PUSH2 0x1161 SWAP3 PUSH1 0x3 DUP6 ADD SWAP3 SWAP2 ADD SWAP1 PUSH2 0x1247 JUMP JUMPDEST POP PUSH1 0x80 DUP3 ADD MLOAD PUSH1 0x4 DUP3 ADD SSTORE PUSH1 0xA0 DUP3 ADD MLOAD PUSH1 0x5 DUP3 ADD SSTORE PUSH1 0xC0 SWAP1 SWAP2 ADD MLOAD PUSH1 0x6 SWAP1 SWAP2 ADD SSTORE PUSH0 DUP1 SLOAD DUP2 MSTORE PUSH1 0x13 PUSH1 0x20 SWAP1 DUP2 MSTORE PUSH1 0x40 DUP1 DUP4 KECCAK256 DUP1 SLOAD PUSH1 0x1 PUSH1 0x1 PUSH1 0xA0 SHL SUB SWAP1 SWAP11 AND PUSH1 0x1 PUSH1 0x1 PUSH1 0xA0 SHL SUB NOT SWAP1 SWAP11 AND DUP11 OR SWAP1 SSTORE SWAP8 DUP3 MSTORE PUSH1 0x1B DUP2 MSTORE SWAP1 DUP8 SWAP1 KECCAK256 DUP3 MLOAD DUP2 SSTORE SWAP1 DUP3 ADD MLOAD PUSH1 0x1 DUP3 ADD SSTORE SWAP6 DUP2 ADD MLOAD PUSH1 0x2 DUP8 ADD SSTORE PUSH1 0x60 ADD MLOAD PUSH1 0x3 SWAP1 SWAP6 ADD SWAP5 SWAP1 SWAP5 SSTORE POP POP POP POP JUMP JUMPDEST DUP3 DUP1 SLOAD DUP3 DUP3 SSTORE SWAP1 PUSH0 MSTORE PUSH1 0x20 PUSH0 KECCAK256 SWAP1 DUP2 ADD SWAP3 DUP3 ISZERO PUSH2 0x1237 JUMPI SWAP2 PUSH1 0x20 MUL DUP3 ADD JUMPDEST DUP3 DUP2 GT ISZERO PUSH2 0x1237 JUMPI DUP3 MLOAD DUP3 SLOAD PUSH1 0x1 PUSH1 0x1 PUSH1 0xA0 SHL SUB NOT AND PUSH1 0x1 PUSH1 0x1 PUSH1 0xA0 SHL SUB SWAP1 SWAP2 AND OR DUP3 SSTORE PUSH1 0x20 SWAP1 SWAP3 ADD SWAP2 PUSH1 0x1 SWAP1 SWAP2 ADD SWAP1 PUSH2 0x1202 JUMP JUMPDEST POP PUSH2 0x1243 SWAP3 SWAP2 POP PUSH2 0x1280 JUMP JUMPDEST POP SWAP1 JUMP JUMPDEST DUP3 DUP1 SLOAD DUP3 DUP3 SSTORE SWAP1 PUSH0 MSTORE PUSH1 0x20 PUSH0 KECCAK256 SWAP1 DUP2 ADD SWAP3 DUP3 ISZERO PUSH2 0x1237 JUMPI SWAP2 PUSH1 0x20 MUL DUP3 ADD JUMPDEST DUP3 DUP2 GT ISZERO PUSH2 0x1237 JUMPI DUP3 MLOAD DUP3 SSTORE SWAP2 PUSH1 0x20 ADD SWAP2 SWAP1 PUSH1 0x1 ADD SWAP1 PUSH2 0x1265 JUMP JUMPDEST JUMPDEST DUP1 DUP3 GT ISZERO PUSH2 0x1243 JUMPI PUSH0 DUP2 SSTORE PUSH1 0x1 ADD PUSH2 0x1281 JUMP JUMPDEST PUSH4 0x4E487B71 PUSH1 0xE0 SHL PUSH0 MSTORE PUSH1 0x11 PUSH1 0x4 MSTORE PUSH1 0x24 PUSH0 REVERT JUMPDEST PUSH0 PUSH1 0x1 DUP3 ADD PUSH2 0x12B9 JUMPI PUSH2 0x12B9 PUSH2 0x1294 JUMP JUMPDEST POP PUSH1 0x1 ADD SWAP1 JUMP JUMPDEST PUSH4 0x4E487B71 PUSH1 0xE0 SHL PUSH0 MSTORE PUSH1 0x41 PUSH1 0x4 MSTORE PUSH1 0x24 PUSH0 REVERT JUMPDEST PUSH1 0x1 DUP2 DUP2 SHR SWAP1 DUP3 AND DUP1 PUSH2 0x12E8 JUMPI PUSH1 0x7F DUP3 AND SWAP2 POP JUMPDEST PUSH1 0x20 DUP3 LT DUP2 SUB PUSH2 0x1306 JUMPI PUSH4 0x4E487B71 PUSH1 0xE0 SHL PUSH0 MSTORE PUSH1 0x22 PUSH1 0x4 MSTORE PUSH1 0x24 PUSH0 REVERT JUMPDEST POP SWAP2 SWAP1 POP JUMP JUMPDEST PUSH1 0x1F DUP3 GT ISZERO PUSH2 0x1353 JUMPI DUP1 PUSH0 MSTORE PUSH1 0x20 PUSH0 KECCAK256 PUSH1 0x1F DUP5 ADD PUSH1 0x5 SHR DUP2 ADD PUSH1 0x20 DUP6 LT ISZERO PUSH2 0x1331 JUMPI POP DUP1 JUMPDEST PUSH1 0x1F DUP5 ADD PUSH1 0x5 SHR DUP3 ADD SWAP2 POP JUMPDEST DUP2 DUP2 LT ISZERO PUSH2 0x1350 JUMPI PUSH0 DUP2 SSTORE PUSH1 0x1 ADD PUSH2 0x133D JUMP JUMPDEST POP POP JUMPDEST POP POP POP JUMP JUMPDEST DUP2 MLOAD PUSH1 0x1 PUSH1 0x1 PUSH1 0x40 SHL SUB DUP2 GT ISZERO PUSH2 0x1371 JUMPI PUSH2 0x1371 PUSH2 0x12C0 JUMP JUMPDEST PUSH2 0x1385 DUP2 PUSH2 0x137F DUP5 SLOAD PUSH2 0x12D4 JUMP JUMPDEST DUP5 PUSH2 0x130C JUMP JUMPDEST PUSH1 0x20 PUSH1 0x1F DUP3 GT PUSH1 0x1 DUP2 EQ PUSH2 0x13B7 JUMPI PUSH0 DUP4 ISZERO PUSH2 0x13A0 JUMPI POP DUP5 DUP3 ADD MLOAD JUMPDEST PUSH0 NOT PUSH1 0x3 DUP6 SWAP1 SHL SHR NOT AND PUSH1 0x1 DUP5 SWAP1 SHL OR DUP5 SSTORE PUSH2 0x1350 JUMP JUMPDEST PUSH0 DUP5 DUP2 MSTORE PUSH1 0x20 DUP2 KECCAK256 PUSH1 0x1F NOT DUP6 AND SWAP2 JUMPDEST DUP3 DUP2 LT ISZERO PUSH2 0x13E6 JUMPI DUP8 DUP6 ADD MLOAD DUP3 SSTORE PUSH1 0x20 SWAP5 DUP6 ADD SWAP5 PUSH1 0x1 SWAP1 SWAP3 ADD SWAP2 ADD PUSH2 0x13C6 JUMP JUMPDEST POP DUP5 DUP3 LT ISZERO PUSH2 0x1403 JUMPI DUP7 DUP5 ADD MLOAD PUSH0 NOT PUSH1 0x3 DUP8 SWAP1 SHL PUSH1 0xF8 AND SHR NOT AND DUP2 SSTORE JUMPDEST POP POP POP POP PUSH1 0x1 SWAP1 DUP2 SHL ADD SWAP1 SSTORE POP JUMP JUMPDEST PUSH1 0x1 DUP2 JUMPDEST PUSH1 0x1 DUP5 GT ISZERO PUSH2 0x144D JUMPI DUP1 DUP6 DIV DUP2 GT ISZERO PUSH2 0x1431 JUMPI PUSH2 0x1431 PUSH2 0x1294 JUMP JUMPDEST PUSH1 0x1 DUP5 AND ISZERO PUSH2 0x143F JUMPI SWAP1 DUP2 MUL SWAP1 JUMPDEST PUSH1 0x1 SWAP4 SWAP1 SWAP4 SHR SWAP3 DUP1 MUL PUSH2 0x1416 JUMP JUMPDEST SWAP4 POP SWAP4 SWAP2 POP POP JUMP JUMPDEST PUSH0 DUP3 PUSH2 0x1463 JUMPI POP PUSH1 0x1 PUSH2 0xDEA JUMP JUMPDEST DUP2 PUSH2 0x146F JUMPI POP PUSH0 PUSH2 0xDEA JUMP JUMPDEST DUP2 PUSH1 0x1 DUP2 EQ PUSH2 0x1485 JUMPI PUSH1 0x2 DUP2 EQ PUSH2 0x148F JUMPI PUSH2 0x14AB JUMP JUMPDEST PUSH1 0x1 SWAP2 POP POP PUSH2 0xDEA JUMP JUMPDEST PUSH1 0xFF DUP5 GT ISZERO PUSH2 0x14A0 JUMPI PUSH2 0x14A0 PUSH2 0x1294 JUMP JUMPDEST POP POP PUSH1 0x1 DUP3 SHL PUSH2 0xDEA JUMP JUMPDEST POP PUSH1 0x20 DUP4 LT PUSH2 0x133 DUP4 LT AND PUSH1 0x4E DUP5 LT PUSH1 0xB DUP5 LT AND OR ISZERO PUSH2 0x14CE JUMPI POP DUP2 DUP2 EXP PUSH2 0xDEA JUMP JUMPDEST PUSH2 0x14DA PUSH0 NOT DUP5 DUP5 PUSH2 0x1412 JUMP JUMPDEST DUP1 PUSH0 NOT DIV DUP3 GT ISZERO PUSH2 0x14ED JUMPI PUSH2 0x14ED PUSH2 0x1294 JUMP JUMPDEST MUL SWAP4 SWAP3 POP POP POP JUMP JUMPDEST PUSH0 PUSH2 0x1500 DUP4 DUP4 PUSH2 0x1455 JUMP JUMPDEST SWAP4 SWAP3 POP POP POP JUMP JUMPDEST DUP1 DUP3 MUL DUP2 ISZERO DUP3 DUP3 DIV DUP5 EQ OR PUSH2 0xDEA JUMPI PUSH2 0xDEA PUSH2 0x1294 JUMP JUMPDEST DUP1 DUP3 ADD DUP1 DUP3 GT ISZERO PUSH2 0xDEA JUMPI PUSH2 0xDEA PUSH2 0x1294 JUMP JUMPDEST PUSH2 0x5DA0 DUP1 PUSH2 0x153E PUSH0 CODECOPY PUSH0 RETURN INVALID PUSH1 0x80 PUSH1 0x40 MSTORE PUSH1 0x4 CALLDATASIZE LT PUSH2 0x25F JUMPI PUSH0 CALLDATALOAD PUSH1 0xE0 SHR DUP1 PUSH4 0x759369D2 GT PUSH2 0x13F JUMPI DUP1 PUSH4 0xB66DB385 GT PUSH2 0xB3 JUMPI DUP1 PUSH4 0xEDBDC914 GT PUSH2 0x78 JUMPI DUP1 PUSH4 0xEDBDC914 EQ PUSH2 0xA88 JUMPI DUP1 PUSH4 0xEECC1C95 EQ PUSH2 0xABA JUMPI DUP1 PUSH4 0xEEDA149C EQ PUSH2 0xAE9 JUMPI DUP1 PUSH4 0xF279E6A1 EQ PUSH2 0xAFC JUMPI DUP1 PUSH4 0xFD0BB36C EQ PUSH2 0xB1B JUMPI DUP1 PUSH4 0xFF9B6364 EQ PUSH2 0xB3A JUMPI PUSH0 DUP1 REVERT JUMPDEST DUP1 PUSH4 0xB66DB385 EQ PUSH2 0x963 JUMPI DUP1 PUSH4 0xBA32F6F4 EQ PUSH2 0x982 JUMPI DUP1 PUSH4 0xC5F00964 EQ PUSH2 0x9A1 JUMPI DUP1 PUSH4 0xDACBB37E EQ PUSH2 0x9E1 JUMPI DUP1 PUSH4 0xE315927B EQ PUSH2 0xA0D JUMPI PUSH0 DUP1 REVERT JUMPDEST DUP1 PUSH4 0xA3AF609B GT PUSH2 0x104 JUMPI DUP1 PUSH4 0xA3AF609B EQ PUSH2 0x8AA JUMPI DUP1 PUSH4 0xA4B6F5E1 EQ PUSH2 0x8BD JUMPI DUP1 PUSH4 0xA5F94521 EQ PUSH2 0x8D2 JUMPI DUP1 PUSH4 0xA9A4C9BF EQ PUSH2 0x8F1 JUMPI DUP1 PUSH4 0xAC3A4800 EQ PUSH2 0x910 JUMPI DUP1 PUSH4 0xB5D962B7 EQ PUSH2 0x944 JUMPI PUSH0 DUP1 REVERT JUMPDEST DUP1 PUSH4 0x759369D2 EQ PUSH2 0x7E0 JUMPI DUP1 PUSH4 0x88CB410D EQ PUSH2 0x80C JUMPI DUP1 PUSH4 0x8B2C295E EQ PUSH2 0x82B JUMPI DUP1 PUSH4 0x94C1E22B EQ PUSH2 0x857 JUMPI DUP1 PUSH4 0xA18A609A EQ PUSH2 0x876 JUMPI PUSH0 DUP1 REVERT JUMPDEST DUP1 PUSH4 0x4788312F GT PUSH2 0x1D6 JUMPI DUP1 PUSH4 0x5BE94E83 GT PUSH2 0x19B JUMPI DUP1 PUSH4 0x5BE94E83 EQ PUSH2 0x5EB JUMPI DUP1 PUSH4 0x5CF75517 EQ PUSH2 0x617 JUMPI DUP1 PUSH4 0x641FBA96 EQ PUSH2 0x71C JUMPI DUP1 PUSH4 0x68EC2FBE EQ PUSH2 0x730 JUMPI DUP1 PUSH4 0x6B1A7086 EQ PUSH2 0x74F JUMPI DUP1 PUSH4 0x705116A0 EQ PUSH2 0x7A6 JUMPI PUSH0 DUP1 REVERT JUMPDEST DUP1 PUSH4 0x4788312F EQ PUSH2 0x53E JUMPI DUP1 PUSH4 0x4A40F2FE EQ PUSH2 0x553 JUMPI DUP1 PUSH4 0x54A03E38 EQ PUSH2 0x57F JUMPI DUP1 PUSH4 0x5A015583 EQ PUSH2 0x5AB JUMPI DUP1 PUSH4 0x5B6B431D EQ PUSH2 0x5CC JUMPI PUSH0 DUP1 REVERT JUMPDEST DUP1 PUSH4 0x2DEDF15A GT PUSH2 0x227 JUMPI DUP1 PUSH4 0x2DEDF15A EQ PUSH2 0x3CB JUMPI DUP1 PUSH4 0x2E244FC7 EQ PUSH2 0x42B JUMPI DUP1 PUSH4 0x2E628E2E EQ PUSH2 0x457 JUMPI DUP1 PUSH4 0x365152FA EQ PUSH2 0x483 JUMPI DUP1 PUSH4 0x3936E8B9 EQ PUSH2 0x4FE JUMPI DUP1 PUSH4 0x3DAA551C EQ PUSH2 0x51D JUMPI PUSH0 DUP1 REVERT JUMPDEST DUP1 PUSH4 0x7D94067 EQ PUSH2 0x263 JUMPI DUP1 PUSH4 0x1362E8E6 EQ PUSH2 0x2BA JUMPI DUP1 PUSH4 0x1BFE37CE EQ PUSH2 0x2FE JUMPI DUP1 PUSH4 0x1CFA6E9B EQ PUSH2 0x334 JUMPI DUP1 PUSH4 0x2A530A36 EQ PUSH2 0x36B JUMPI JUMPDEST PUSH0 DUP1 REVERT JUMPDEST CALLVALUE DUP1 ISZERO PUSH2 0x26E JUMPI PUSH0 DUP1 REVERT JUMPDEST POP PUSH2 0x2A0 PUSH2 0x27D CALLDATASIZE PUSH1 0x4 PUSH2 0x53FB JUMP JUMPDEST PUSH1 0x16 PUSH1 0x20 SWAP1 DUP2 MSTORE PUSH0 SWAP3 DUP4 MSTORE PUSH1 0x40 DUP1 DUP5 KECCAK256 SWAP1 SWAP2 MSTORE SWAP1 DUP3 MSTORE SWAP1 KECCAK256 DUP1 SLOAD PUSH1 0x1 SWAP1 SWAP2 ADD SLOAD DUP3 JUMP JUMPDEST PUSH1 0x40 DUP1 MLOAD SWAP3 DUP4 MSTORE PUSH1 0x20 DUP4 ADD SWAP2 SWAP1 SWAP2 MSTORE ADD JUMPDEST PUSH1 0x40 MLOAD DUP1 SWAP2 SUB SWAP1 RETURN JUMPDEST CALLVALUE DUP1 ISZERO PUSH2 0x2C5 JUMPI PUSH0 DUP1 REVERT JUMPDEST POP PUSH2 0x2F0 PUSH2 0x2D4 CALLDATASIZE PUSH1 0x4 PUSH2 0x53FB JUMP JUMPDEST PUSH1 0x1A PUSH1 0x20 SWAP1 DUP2 MSTORE PUSH0 SWAP3 DUP4 MSTORE PUSH1 0x40 DUP1 DUP5 KECCAK256 SWAP1 SWAP2 MSTORE SWAP1 DUP3 MSTORE SWAP1 KECCAK256 SLOAD DUP2 JUMP JUMPDEST PUSH1 0x40 MLOAD SWAP1 DUP2 MSTORE PUSH1 0x20 ADD PUSH2 0x2B1 JUMP JUMPDEST CALLVALUE DUP1 ISZERO PUSH2 0x309 JUMPI PUSH0 DUP1 REVERT JUMPDEST POP PUSH2 0x2F0 PUSH2 0x318 CALLDATASIZE PUSH1 0x4 PUSH2 0x53FB JUMP JUMPDEST PUSH1 0x17 PUSH1 0x20 SWAP1 DUP2 MSTORE PUSH0 SWAP3 DUP4 MSTORE PUSH1 0x40 DUP1 DUP5 KECCAK256 SWAP1 SWAP2 MSTORE SWAP1 DUP3 MSTORE SWAP1 KECCAK256 SLOAD DUP2 JUMP JUMPDEST CALLVALUE DUP1 ISZERO PUSH2 0x33F JUMPI PUSH0 DUP1 REVERT JUMPDEST POP PUSH1 0x3 SLOAD PUSH2 0x353 SWAP1 PUSH1 0x1 PUSH1 0x1 PUSH1 0xA0 SHL SUB AND DUP2 JUMP JUMPDEST PUSH1 0x40 MLOAD PUSH1 0x1 PUSH1 0x1 PUSH1 0xA0 SHL SUB SWAP1 SWAP2 AND DUP2 MSTORE PUSH1 0x20 ADD PUSH2 0x2B1 JUMP JUMPDEST CALLVALUE DUP1 ISZERO PUSH2 0x376 JUMPI PUSH0 DUP1 REVERT JUMPDEST POP PUSH2 0x3AB PUSH2 0x385 CALLDATASIZE PUSH1 0x4 PUSH2 0x5423 JUMP JUMPDEST PUSH1 0x14 PUSH1 0x20 MSTORE PUSH0 SWAP1 DUP2 MSTORE PUSH1 0x40 SWAP1 KECCAK256 DUP1 SLOAD PUSH1 0x2 DUP3 ADD SLOAD PUSH1 0x3 DUP4 ADD SLOAD PUSH1 0x4 SWAP1 SWAP4 ADD SLOAD SWAP2 SWAP3 SWAP1 SWAP2 DUP5 JUMP JUMPDEST PUSH1 0x40 DUP1 MLOAD SWAP5 DUP6 MSTORE PUSH1 0x20 DUP6 ADD SWAP4 SWAP1 SWAP4 MSTORE SWAP2 DUP4 ADD MSTORE PUSH1 0x60 DUP3 ADD MSTORE PUSH1 0x80 ADD PUSH2 0x2B1 JUMP JUMPDEST CALLVALUE DUP1 ISZERO PUSH2 0x3D6 JUMPI PUSH0 DUP1 REVERT JUMPDEST POP PUSH2 0x410 PUSH2 0x3E5 CALLDATASIZE PUSH1 0x4 PUSH2 0x53FB JUMP JUMPDEST PUSH1 0x18 PUSH1 0x20 SWAP1 DUP2 MSTORE PUSH0 SWAP3 DUP4 MSTORE PUSH1 0x40 DUP1 DUP5 KECCAK256 SWAP1 SWAP2 MSTORE SWAP1 DUP3 MSTORE SWAP1 KECCAK256 DUP1 SLOAD PUSH1 0x1 DUP3 ADD SLOAD PUSH1 0x2 SWAP1 SWAP3 ADD SLOAD SWAP1 SWAP2 SWAP1 DUP4 JUMP JUMPDEST PUSH1 0x40 DUP1 MLOAD SWAP4 DUP5 MSTORE PUSH1 0x20 DUP5 ADD SWAP3 SWAP1 SWAP3 MSTORE SWAP1 DUP3 ADD MSTORE PUSH1 0x60 ADD PUSH2 0x2B1 JUMP JUMPDEST CALLVALUE DUP1 ISZERO PUSH2 0x436 JUMPI PUSH0 DUP1 REVERT JUMPDEST POP PUSH2 0x44A PUSH2 0x445 CALLDATASIZE PUSH1 0x4 PUSH2 0x5443 JUMP JUMPDEST PUSH2 0xB4E JUMP JUMPDEST PUSH1 0x40 MLOAD PUSH2 0x2B1 SWAP2 SWAP1 PUSH2 0x5473 JUMP JUMPDEST CALLVALUE DUP1 ISZERO PUSH2 0x462 JUMPI PUSH0 DUP1 REVERT JUMPDEST POP PUSH2 0x476 PUSH2 0x471 CALLDATASIZE PUSH1 0x4 PUSH2 0x5443 JUMP JUMPDEST PUSH2 0xCB9 JUMP JUMPDEST PUSH1 0x40 MLOAD PUSH2 0x2B1 SWAP2 SWAP1 PUSH2 0x54D1 JUMP JUMPDEST CALLVALUE DUP1 ISZERO PUSH2 0x48E JUMPI PUSH0 DUP1 REVERT JUMPDEST POP PUSH2 0x4D6 PUSH2 0x49D CALLDATASIZE PUSH1 0x4 PUSH2 0x53FB JUMP JUMPDEST PUSH1 0x15 PUSH1 0x20 SWAP1 DUP2 MSTORE PUSH0 SWAP3 DUP4 MSTORE PUSH1 0x40 DUP1 DUP5 KECCAK256 SWAP1 SWAP2 MSTORE SWAP1 DUP3 MSTORE SWAP1 KECCAK256 DUP1 SLOAD PUSH1 0x1 DUP3 ADD SLOAD PUSH1 0x2 DUP4 ADD SLOAD PUSH1 0x3 DUP5 ADD SLOAD PUSH1 0x4 SWAP1 SWAP5 ADD SLOAD SWAP3 SWAP4 SWAP2 SWAP3 SWAP1 SWAP2 SWAP1 DUP6 JUMP JUMPDEST PUSH1 0x40 DUP1 MLOAD SWAP6 DUP7 MSTORE PUSH1 0x20 DUP7 ADD SWAP5 SWAP1 SWAP5 MSTORE SWAP3 DUP5 ADD SWAP2 SWAP1 SWAP2 MSTORE PUSH1 0x60 DUP4 ADD MSTORE PUSH1 0x80 DUP3 ADD MSTORE PUSH1 0xA0 ADD PUSH2 0x2B1 JUMP JUMPDEST CALLVALUE DUP1 ISZERO PUSH2 0x509 JUMPI PUSH0 DUP1 REVERT JUMPDEST POP PUSH1 0x6 SLOAD PUSH2 0x353 SWAP1 PUSH1 0x1 PUSH1 0x1 PUSH1 0xA0 SHL SUB AND DUP2 JUMP JUMPDEST CALLVALUE DUP1 ISZERO PUSH2 0x528 JUMPI PUSH0 DUP1 REVERT JUMPDEST POP PUSH2 0x531 PUSH2 0xE3C JUMP JUMPDEST PUSH1 0x40 MLOAD PUSH2 0x2B1 SWAP2 SWAP1 PUSH2 0x5566 JUMP JUMPDEST CALLVALUE DUP1 ISZERO PUSH2 0x549 JUMPI PUSH0 DUP1 REVERT JUMPDEST POP PUSH2 0x2F0 PUSH1 0x2 SLOAD DUP2 JUMP JUMPDEST CALLVALUE DUP1 ISZERO PUSH2 0x55E JUMPI PUSH0 DUP1 REVERT JUMPDEST POP PUSH2 0x572 PUSH2 0x56D CALLDATASIZE PUSH1 0x4 PUSH2 0x5423 JUMP JUMPDEST PUSH2 0x1035 JUMP JUMPDEST PUSH1 0x40 MLOAD PUSH2 0x2B1 SWAP2 SWAP1 PUSH2 0x5649 JUMP JUMPDEST CALLVALUE DUP1 ISZERO PUSH2 0x58A JUMPI PUSH0 DUP1 REVERT JUMPDEST POP PUSH2 0x59E PUSH2 0x599 CALLDATASIZE PUSH1 0x4 PUSH2 0x5423 JUMP JUMPDEST PUSH2 0x11AB JUMP JUMPDEST PUSH1 0x40 MLOAD PUSH2 0x2B1 SWAP2 SWAP1 PUSH2 0x56C6 JUMP JUMPDEST CALLVALUE DUP1 ISZERO PUSH2 0x5B6 JUMPI PUSH0 DUP1 REVERT JUMPDEST POP PUSH2 0x5CA PUSH2 0x5C5 CALLDATASIZE PUSH1 0x4 PUSH2 0x5820 JUMP JUMPDEST PUSH2 0x16B9 JUMP JUMPDEST STOP JUMPDEST CALLVALUE DUP1 ISZERO PUSH2 0x5D7 JUMPI PUSH0 DUP1 REVERT JUMPDEST POP PUSH2 0x5CA PUSH2 0x5E6 CALLDATASIZE PUSH1 0x4 PUSH2 0x585A JUMP JUMPDEST PUSH2 0x1944 JUMP JUMPDEST CALLVALUE DUP1 ISZERO PUSH2 0x5F6 JUMPI PUSH0 DUP1 REVERT JUMPDEST POP PUSH2 0x60A PUSH2 0x605 CALLDATASIZE PUSH1 0x4 PUSH2 0x5423 JUMP JUMPDEST PUSH2 0x1CD9 JUMP JUMPDEST PUSH1 0x40 MLOAD PUSH2 0x2B1 SWAP2 SWAP1 PUSH2 0x5871 JUMP JUMPDEST CALLVALUE DUP1 ISZERO PUSH2 0x622 JUMPI PUSH0 DUP1 REVERT JUMPDEST POP PUSH2 0x6AA PUSH2 0x631 CALLDATASIZE PUSH1 0x4 PUSH2 0x5423 JUMP JUMPDEST PUSH1 0x12 PUSH1 0x20 MSTORE PUSH0 SWAP1 DUP2 MSTORE PUSH1 0x40 SWAP1 KECCAK256 DUP1 SLOAD PUSH1 0x1 DUP3 ADD SLOAD PUSH1 0x2 DUP4 ADD SLOAD PUSH1 0x3 DUP5 ADD SLOAD PUSH1 0x4 DUP6 ADD SLOAD PUSH1 0x5 DUP7 ADD SLOAD PUSH1 0x6 DUP8 ADD SLOAD PUSH1 0x7 DUP9 ADD SLOAD PUSH1 0x8 DUP10 ADD SLOAD PUSH1 0x9 DUP11 ADD SLOAD PUSH1 0xA DUP12 ADD SLOAD PUSH1 0xB SWAP1 SWAP12 ADD SLOAD SWAP10 SWAP11 PUSH1 0x1 PUSH1 0x1 PUSH1 0xA0 SHL SUB SWAP10 DUP11 AND SWAP11 SWAP9 SWAP1 SWAP10 AND SWAP9 SWAP7 SWAP8 SWAP6 SWAP7 SWAP5 SWAP6 PUSH1 0xFF SWAP5 DUP6 AND SWAP6 SWAP4 SWAP5 SWAP3 SWAP4 SWAP2 SWAP3 DUP2 DUP2 AND SWAP2 PUSH2 0x100 SWAP1 DIV AND DUP14 JUMP JUMPDEST PUSH1 0x40 DUP1 MLOAD SWAP14 DUP15 MSTORE PUSH1 0x1 PUSH1 0x1 PUSH1 0xA0 SHL SUB SWAP13 DUP14 AND PUSH1 0x20 DUP16 ADD MSTORE SWAP11 SWAP1 SWAP12 AND SWAP10 DUP13 ADD SWAP10 SWAP1 SWAP10 MSTORE PUSH1 0x60 DUP12 ADD SWAP8 SWAP1 SWAP8 MSTORE PUSH1 0x80 DUP11 ADD SWAP6 SWAP1 SWAP6 MSTORE PUSH1 0xA0 DUP10 ADD SWAP4 SWAP1 SWAP4 MSTORE SWAP1 ISZERO ISZERO PUSH1 0xC0 DUP9 ADD MSTORE PUSH1 0xE0 DUP8 ADD MSTORE PUSH2 0x100 DUP7 ADD MSTORE PUSH2 0x120 DUP6 ADD MSTORE PUSH2 0x140 DUP5 ADD MSTORE ISZERO ISZERO PUSH2 0x160 DUP4 ADD MSTORE ISZERO ISZERO PUSH2 0x180 DUP3 ADD MSTORE PUSH2 0x1A0 ADD PUSH2 0x2B1 JUMP JUMPDEST CALLVALUE DUP1 ISZERO PUSH2 0x727 JUMPI PUSH0 DUP1 REVERT JUMPDEST POP PUSH2 0x2F0 PUSH0 SLOAD DUP2 JUMP JUMPDEST CALLVALUE DUP1 ISZERO PUSH2 0x73B JUMPI PUSH0 DUP1 REVERT JUMPDEST POP PUSH2 0x5CA PUSH2 0x74A CALLDATASIZE PUSH1 0x4 PUSH2 0x5423 JUMP JUMPDEST PUSH2 0x1ED8 JUMP JUMPDEST CALLVALUE DUP1 ISZERO PUSH2 0x75A JUMPI PUSH0 DUP1 REVERT JUMPDEST POP PUSH2 0x763 PUSH2 0x1F1E JUMP JUMPDEST PUSH1 0x40 MLOAD PUSH2 0x2B1 SWAP2 SWAP1 PUSH0 PUSH1 0xA0 DUP3 ADD SWAP1 POP DUP3 MLOAD DUP3 MSTORE PUSH1 0x20 DUP4 ADD MLOAD PUSH1 0x20 DUP4 ADD MSTORE PUSH1 0x40 DUP4 ADD MLOAD PUSH1 0x40 DUP4 ADD MSTORE PUSH1 0x60 DUP4 ADD MLOAD PUSH1 0x60 DUP4 ADD MSTORE PUSH1 0x80 DUP4 ADD MLOAD ISZERO ISZERO PUSH1 0x80 DUP4 ADD MSTORE SWAP3 SWAP2 POP POP JUMP JUMPDEST CALLVALUE DUP1 ISZERO PUSH2 0x7B1 JUMPI PUSH0 DUP1 REVERT JUMPDEST POP PUSH2 0x410 PUSH2 0x7C0 CALLDATASIZE PUSH1 0x4 PUSH2 0x585A JUMP JUMPDEST PUSH1 0x10 PUSH1 0x20 MSTORE PUSH0 SWAP1 DUP2 MSTORE PUSH1 0x40 SWAP1 KECCAK256 DUP1 SLOAD PUSH1 0x1 DUP3 ADD SLOAD PUSH1 0x2 SWAP1 SWAP3 ADD SLOAD SWAP1 SWAP2 SWAP1 DUP4 JUMP JUMPDEST CALLVALUE DUP1 ISZERO PUSH2 0x7EB JUMPI PUSH0 DUP1 REVERT JUMPDEST POP PUSH2 0x7FF PUSH2 0x7FA CALLDATASIZE PUSH1 0x4 PUSH2 0x5443 JUMP JUMPDEST PUSH2 0x1F8C JUMP JUMPDEST PUSH1 0x40 MLOAD PUSH2 0x2B1 SWAP2 SWAP1 PUSH2 0x58DA JUMP JUMPDEST CALLVALUE DUP1 ISZERO PUSH2 0x817 JUMPI PUSH0 DUP1 REVERT JUMPDEST POP PUSH1 0x7 SLOAD PUSH2 0x353 SWAP1 PUSH1 0x1 PUSH1 0x1 PUSH1 0xA0 SHL SUB AND DUP2 JUMP JUMPDEST CALLVALUE DUP1 ISZERO PUSH2 0x836 JUMPI PUSH0 DUP1 REVERT JUMPDEST POP PUSH2 0x84A PUSH2 0x845 CALLDATASIZE PUSH1 0x4 PUSH2 0x5423 JUMP JUMPDEST PUSH2 0x20D3 JUMP JUMPDEST PUSH1 0x40 MLOAD PUSH2 0x2B1 SWAP2 SWAP1 PUSH2 0x591D JUMP JUMPDEST CALLVALUE DUP1 ISZERO PUSH2 0x862 JUMPI PUSH0 DUP1 REVERT JUMPDEST POP PUSH2 0x5CA PUSH2 0x871 CALLDATASIZE PUSH1 0x4 PUSH2 0x5423 JUMP JUMPDEST PUSH2 0x24FF JUMP JUMPDEST CALLVALUE DUP1 ISZERO PUSH2 0x881 JUMPI PUSH0 DUP1 REVERT JUMPDEST POP PUSH2 0x895 PUSH2 0x890 CALLDATASIZE PUSH1 0x4 PUSH2 0x585A JUMP JUMPDEST PUSH2 0x2545 JUMP JUMPDEST PUSH1 0x40 MLOAD PUSH2 0x2B1 SWAP10 SWAP9 SWAP8 SWAP7 SWAP6 SWAP5 SWAP4 SWAP3 SWAP2 SWAP1 PUSH2 0x5A02 JUMP JUMPDEST PUSH2 0x5CA PUSH2 0x8B8 CALLDATASIZE PUSH1 0x4 PUSH2 0x5A56 JUMP JUMPDEST PUSH2 0x261D JUMP JUMPDEST CALLVALUE DUP1 ISZERO PUSH2 0x8C8 JUMPI PUSH0 DUP1 REVERT JUMPDEST POP PUSH2 0x2F0 PUSH1 0x1 SLOAD DUP2 JUMP JUMPDEST CALLVALUE DUP1 ISZERO PUSH2 0x8DD JUMPI PUSH0 DUP1 REVERT JUMPDEST POP PUSH2 0x5CA PUSH2 0x8EC CALLDATASIZE PUSH1 0x4 PUSH2 0x5423 JUMP JUMPDEST PUSH2 0x262B JUMP JUMPDEST CALLVALUE DUP1 ISZERO PUSH2 0x8FC JUMPI PUSH0 DUP1 REVERT JUMPDEST POP PUSH2 0x5CA PUSH2 0x90B CALLDATASIZE PUSH1 0x4 PUSH2 0x5A56 JUMP JUMPDEST PUSH2 0x2671 JUMP JUMPDEST CALLVALUE DUP1 ISZERO PUSH2 0x91B JUMPI PUSH0 DUP1 REVERT JUMPDEST POP PUSH2 0x353 PUSH2 0x92A CALLDATASIZE PUSH1 0x4 PUSH2 0x585A JUMP JUMPDEST PUSH1 0x13 PUSH1 0x20 MSTORE PUSH0 SWAP1 DUP2 MSTORE PUSH1 0x40 SWAP1 KECCAK256 SLOAD PUSH1 0x1 PUSH1 0x1 PUSH1 0xA0 SHL SUB AND DUP2 JUMP JUMPDEST CALLVALUE DUP1 ISZERO PUSH2 0x94F JUMPI PUSH0 DUP1 REVERT JUMPDEST POP PUSH1 0x4 SLOAD PUSH2 0x353 SWAP1 PUSH1 0x1 PUSH1 0x1 PUSH1 0xA0 SHL SUB AND DUP2 JUMP JUMPDEST CALLVALUE DUP1 ISZERO PUSH2 0x96E JUMPI PUSH0 DUP1 REVERT JUMPDEST POP PUSH1 0x5 SLOAD PUSH2 0x353 SWAP1 PUSH1 0x1 PUSH1 0x1 PUSH1 0xA0 SHL SUB AND DUP2 JUMP JUMPDEST CALLVALUE DUP1 ISZERO PUSH2 0x98D JUMPI PUSH0 DUP1 REVERT JUMPDEST POP PUSH2 0x5CA PUSH2 0x99C CALLDATASIZE PUSH1 0x4 PUSH2 0x5423 JUMP JUMPDEST PUSH2 0x2867 JUMP JUMPDEST CALLVALUE DUP1 ISZERO PUSH2 0x9AC JUMPI PUSH0 DUP1 REVERT JUMPDEST POP PUSH2 0x3AB PUSH2 0x9BB CALLDATASIZE PUSH1 0x4 PUSH2 0x5423 JUMP JUMPDEST PUSH1 0x1B PUSH1 0x20 MSTORE PUSH0 SWAP1 DUP2 MSTORE PUSH1 0x40 SWAP1 KECCAK256 DUP1 SLOAD PUSH1 0x1 DUP3 ADD SLOAD PUSH1 0x2 DUP4 ADD SLOAD PUSH1 0x3 SWAP1 SWAP4 ADD SLOAD SWAP2 SWAP3 SWAP1 SWAP2 DUP5 JUMP JUMPDEST CALLVALUE DUP1 ISZERO PUSH2 0x9EC JUMPI PUSH0 DUP1 REVERT JUMPDEST POP PUSH2 0xA00 PUSH2 0x9FB CALLDATASIZE PUSH1 0x4 PUSH2 0x5443 JUMP JUMPDEST PUSH2 0x28AD JUMP JUMPDEST PUSH1 0x40 MLOAD PUSH2 0x2B1 SWAP2 SWAP1 PUSH2 0x5A76 JUMP JUMPDEST CALLVALUE DUP1 ISZERO PUSH2 0xA18 JUMPI PUSH0 DUP1 REVERT JUMPDEST POP PUSH2 0xA5B PUSH2 0xA27 CALLDATASIZE PUSH1 0x4 PUSH2 0x5423 JUMP JUMPDEST PUSH1 0x19 PUSH1 0x20 MSTORE PUSH0 SWAP1 DUP2 MSTORE PUSH1 0x40 SWAP1 KECCAK256 DUP1 SLOAD PUSH1 0x1 DUP3 ADD SLOAD PUSH1 0x2 DUP4 ADD SLOAD PUSH1 0x4 DUP5 ADD SLOAD PUSH1 0x5 DUP6 ADD SLOAD PUSH1 0x6 SWAP1 SWAP6 ADD SLOAD SWAP4 SWAP5 SWAP3 SWAP4 SWAP2 SWAP3 SWAP1 SWAP2 DUP7 JUMP JUMPDEST PUSH1 0x40 DUP1 MLOAD SWAP7 DUP8 MSTORE PUSH1 0x20 DUP8 ADD SWAP6 SWAP1 SWAP6 MSTORE SWAP4 DUP6 ADD SWAP3 SWAP1 SWAP3 MSTORE PUSH1 0x60 DUP5 ADD MSTORE PUSH1 0x80 DUP4 ADD MSTORE PUSH1 0xA0 DUP3 ADD MSTORE PUSH1 0xC0 ADD PUSH2 0x2B1 JUMP JUMPDEST CALLVALUE DUP1 ISZERO PUSH2 0xA93 JUMPI PUSH0 DUP1 REVERT JUMPDEST POP PUSH2 0xAA7 PUSH2 0xAA2 CALLDATASIZE PUSH1 0x4 PUSH2 0x585A JUMP JUMPDEST PUSH2 0x2AAA JUMP JUMPDEST PUSH1 0x40 MLOAD PUSH2 0x2B1 SWAP8 SWAP7 SWAP6 SWAP5 SWAP4 SWAP3 SWAP2 SWAP1 PUSH2 0x5ADF JUMP JUMPDEST CALLVALUE DUP1 ISZERO PUSH2 0xAC5 JUMPI PUSH0 DUP1 REVERT JUMPDEST POP PUSH2 0xAD9 PUSH2 0xAD4 CALLDATASIZE PUSH1 0x4 PUSH2 0x5423 JUMP JUMPDEST PUSH2 0x2B6A JUMP JUMPDEST PUSH1 0x40 MLOAD SWAP1 ISZERO ISZERO DUP2 MSTORE PUSH1 0x20 ADD PUSH2 0x2B1 JUMP JUMPDEST PUSH2 0x5CA PUSH2 0xAF7 CALLDATASIZE PUSH1 0x4 PUSH2 0x5423 JUMP JUMPDEST PUSH2 0x2B8A JUMP JUMPDEST CALLVALUE DUP1 ISZERO PUSH2 0xB07 JUMPI PUSH0 DUP1 REVERT JUMPDEST POP PUSH2 0x5CA PUSH2 0xB16 CALLDATASIZE PUSH1 0x4 PUSH2 0x5443 JUMP JUMPDEST PUSH2 0x2B96 JUMP JUMPDEST CALLVALUE DUP1 ISZERO PUSH2 0xB26 JUMPI PUSH0 DUP1 REVERT JUMPDEST POP PUSH2 0x2F0 PUSH2 0xB35 CALLDATASIZE PUSH1 0x4 PUSH2 0x53FB JUMP JUMPDEST PUSH2 0x2DF2 JUMP JUMPDEST CALLVALUE DUP1 ISZERO PUSH2 0xB45 JUMPI PUSH0 DUP1 REVERT JUMPDEST POP PUSH2 0xAD9 PUSH2 0x2E19 JUMP JUMPDEST PUSH1 0x1 PUSH1 0x1 PUSH1 0xA0 SHL SUB DUP4 AND PUSH0 SWAP1 DUP2 MSTORE PUSH1 0x1B PUSH1 0x20 MSTORE PUSH1 0x40 DUP2 KECCAK256 PUSH1 0x1 ADD SLOAD PUSH1 0x60 SWAP2 DUP2 PUSH2 0xB77 DUP6 DUP8 PUSH2 0x5B35 JUMP JUMPDEST GT PUSH2 0xB8B JUMPI PUSH2 0xB86 DUP5 DUP7 PUSH2 0x5B35 JUMP JUMPDEST PUSH2 0xB8D JUMP JUMPDEST DUP2 JUMPDEST SWAP1 POP PUSH0 DUP5 DUP3 LT ISZERO PUSH2 0xB9E JUMPI PUSH0 PUSH2 0xBA8 JUMP JUMPDEST PUSH2 0xBA8 DUP6 DUP4 PUSH2 0x5B4C JUMP JUMPDEST SWAP1 POP PUSH0 PUSH2 0xBB5 DUP3 DUP5 PUSH2 0x5B4C JUMP JUMPDEST PUSH8 0xFFFFFFFFFFFFFFFF DUP2 GT ISZERO PUSH2 0xBCD JUMPI PUSH2 0xBCD PUSH2 0x5B5F JUMP JUMPDEST PUSH1 0x40 MLOAD SWAP1 DUP1 DUP3 MSTORE DUP1 PUSH1 0x20 MUL PUSH1 0x20 ADD DUP3 ADD PUSH1 0x40 MSTORE DUP1 ISZERO PUSH2 0xC1F JUMPI DUP2 PUSH1 0x20 ADD JUMPDEST PUSH2 0xC0C PUSH1 0x40 MLOAD DUP1 PUSH1 0x60 ADD PUSH1 0x40 MSTORE DUP1 PUSH0 DUP2 MSTORE PUSH1 0x20 ADD PUSH0 DUP2 MSTORE PUSH1 0x20 ADD PUSH0 DUP2 MSTORE POP SWAP1 JUMP JUMPDEST DUP2 MSTORE PUSH1 0x20 ADD SWAP1 PUSH1 0x1 SWAP1 SUB SWAP1 DUP2 PUSH2 0xBEB JUMPI SWAP1 POP JUMPDEST POP SWAP5 POP DUP3 JUMPDEST DUP3 DUP2 GT ISZERO PUSH2 0xCAD JUMPI PUSH1 0x1 PUSH1 0x1 PUSH1 0xA0 SHL SUB DUP10 AND PUSH0 SWAP1 DUP2 MSTORE PUSH1 0x18 PUSH1 0x20 SWAP1 DUP2 MSTORE PUSH1 0x40 DUP1 DUP4 KECCAK256 DUP5 DUP5 MSTORE DUP3 MSTORE SWAP2 DUP3 SWAP1 KECCAK256 DUP3 MLOAD PUSH1 0x60 DUP2 ADD DUP5 MSTORE DUP2 SLOAD DUP2 MSTORE PUSH1 0x1 DUP3 ADD SLOAD SWAP3 DUP2 ADD SWAP3 SWAP1 SWAP3 MSTORE PUSH1 0x2 ADD SLOAD SWAP2 DUP2 ADD SWAP2 SWAP1 SWAP2 MSTORE DUP7 DUP4 PUSH2 0xC7D DUP2 PUSH2 0x5B73 JUMP JUMPDEST SWAP5 POP DUP2 MLOAD DUP2 LT PUSH2 0xC8F JUMPI PUSH2 0xC8F PUSH2 0x5B8B JUMP JUMPDEST PUSH1 0x20 MUL PUSH1 0x20 ADD ADD DUP2 SWAP1 MSTORE POP DUP1 DUP1 PUSH2 0xCA5 SWAP1 PUSH2 0x5B9F JUMP JUMPDEST SWAP2 POP POP PUSH2 0xC24 JUMP JUMPDEST POP POP POP POP POP SWAP4 SWAP3 POP POP POP JUMP JUMPDEST PUSH1 0x1 PUSH1 0x1 PUSH1 0xA0 SHL SUB DUP4 AND PUSH0 SWAP1 DUP2 MSTORE PUSH1 0x1B PUSH1 0x20 MSTORE PUSH1 0x40 DUP2 KECCAK256 SLOAD PUSH1 0x60 SWAP2 DUP2 PUSH2 0xCDF DUP6 DUP8 PUSH2 0x5B35 JUMP JUMPDEST GT PUSH2 0xCF3 JUMPI PUSH2 0xCEE DUP5 DUP7 PUSH2 0x5B35 JUMP JUMPDEST PUSH2 0xCF5 JUMP JUMPDEST DUP2 JUMPDEST SWAP1 POP PUSH0 DUP5 DUP3 LT ISZERO PUSH2 0xD06 JUMPI PUSH0 PUSH2 0xD10 JUMP JUMPDEST PUSH2 0xD10 DUP6 DUP4 PUSH2 0x5B4C JUMP JUMPDEST SWAP1 POP PUSH0 PUSH2 0xD1D DUP3 DUP5 PUSH2 0x5B4C JUMP JUMPDEST PUSH8 0xFFFFFFFFFFFFFFFF DUP2 GT ISZERO PUSH2 0xD35 JUMPI PUSH2 0xD35 PUSH2 0x5B5F JUMP JUMPDEST PUSH1 0x40 MLOAD SWAP1 DUP1 DUP3 MSTORE DUP1 PUSH1 0x20 MUL PUSH1 0x20 ADD DUP3 ADD PUSH1 0x40 MSTORE DUP1 ISZERO PUSH2 0xD93 JUMPI DUP2 PUSH1 0x20 ADD JUMPDEST PUSH2 0xD80 PUSH1 0x40 MLOAD DUP1 PUSH1 0xA0 ADD PUSH1 0x40 MSTORE DUP1 PUSH0 DUP2 MSTORE PUSH1 0x20 ADD PUSH0 DUP2 MSTORE PUSH1 0x20 ADD PUSH0 DUP2 MSTORE PUSH1 0x20 ADD PUSH0 DUP2 MSTORE PUSH1 0x20 ADD PUSH0 DUP2 MSTORE POP SWAP1 JUMP JUMPDEST DUP2 MSTORE PUSH1 0x20 ADD SWAP1 PUSH1 0x1 SWAP1 SUB SWAP1 DUP2 PUSH2 0xD53 JUMPI SWAP1 POP JUMPDEST POP SWAP5 POP DUP3 JUMPDEST DUP3 DUP2 GT ISZERO PUSH2 0xCAD JUMPI PUSH1 0x1 PUSH1 0x1 PUSH1 0xA0 SHL SUB DUP10 AND PUSH0 SWAP1 DUP2 MSTORE PUSH1 0x15 PUSH1 0x20 SWAP1 DUP2 MSTORE PUSH1 0x40 DUP1 DUP4 KECCAK256 DUP5 DUP5 MSTORE DUP3 MSTORE SWAP2 DUP3 SWAP1 KECCAK256 DUP3 MLOAD PUSH1 0xA0 DUP2 ADD DUP5 MSTORE DUP2 SLOAD DUP2 MSTORE PUSH1 0x1 DUP3 ADD SLOAD SWAP3 DUP2 ADD SWAP3 SWAP1 SWAP3 MSTORE PUSH1 0x2 DUP2 ADD SLOAD SWAP3 DUP3 ADD SWAP3 SWAP1 SWAP3 MSTORE PUSH1 0x3 DUP3 ADD SLOAD PUSH1 0x60 DUP3 ADD MSTORE PUSH1 0x4 SWAP1 SWAP2 ADD SLOAD PUSH1 0x80 DUP3 ADD MSTORE DUP7 MLOAD DUP8 SWAP1 DUP5 SWAP1 DUP2 LT PUSH2 0xE10 JUMPI PUSH2 0xE10 PUSH2 0x5B8B JUMP JUMPDEST PUSH1 0x20 MUL PUSH1 0x20 ADD ADD DUP2 SWAP1 MSTORE POP DUP2 DUP1 PUSH2 0xE26 SWAP1 PUSH2 0x5B73 JUMP JUMPDEST SWAP3 POP POP DUP1 DUP1 PUSH2 0xE34 SWAP1 PUSH2 0x5B9F JUMP JUMPDEST SWAP2 POP POP PUSH2 0xD98 JUMP JUMPDEST PUSH1 0x60 PUSH0 PUSH1 0xB SLOAD PUSH8 0xFFFFFFFFFFFFFFFF DUP2 GT ISZERO PUSH2 0xE5A JUMPI PUSH2 0xE5A PUSH2 0x5B5F JUMP JUMPDEST PUSH1 0x40 MLOAD SWAP1 DUP1 DUP3 MSTORE DUP1 PUSH1 0x20 MUL PUSH1 0x20 ADD DUP3 ADD PUSH1 0x40 MSTORE DUP1 ISZERO PUSH2 0xED8 JUMPI DUP2 PUSH1 0x20 ADD JUMPDEST PUSH2 0xEC5 PUSH1 0x40 MLOAD DUP1 PUSH2 0x120 ADD PUSH1 0x40 MSTORE DUP1 PUSH0 DUP2 MSTORE PUSH1 0x20 ADD PUSH1 0x60 DUP2 MSTORE PUSH1 0x20 ADD PUSH0 DUP2 MSTORE PUSH1 0x20 ADD PUSH0 ISZERO ISZERO DUP2 MSTORE PUSH1 0x20 ADD PUSH0 ISZERO ISZERO DUP2 MSTORE PUSH1 0x20 ADD PUSH0 DUP2 MSTORE PUSH1 0x20 ADD PUSH0 DUP2 MSTORE PUSH1 0x20 ADD PUSH0 DUP2 MSTORE PUSH1 0x20 ADD PUSH0 ISZERO ISZERO DUP2 MSTORE POP SWAP1 JUMP JUMPDEST DUP2 MSTORE PUSH1 0x20 ADD SWAP1 PUSH1 0x1 SWAP1 SUB SWAP1 DUP2 PUSH2 0xE78 JUMPI SWAP1 POP JUMPDEST POP SWAP1 POP PUSH1 0x1 JUMPDEST PUSH1 0xB SLOAD DUP2 GT PUSH2 0x102F JUMPI PUSH1 0xF PUSH0 DUP3 DUP2 MSTORE PUSH1 0x20 ADD SWAP1 DUP2 MSTORE PUSH1 0x20 ADD PUSH0 KECCAK256 PUSH1 0x40 MLOAD DUP1 PUSH2 0x120 ADD PUSH1 0x40 MSTORE SWAP1 DUP2 PUSH0 DUP3 ADD SLOAD DUP2 MSTORE PUSH1 0x20 ADD PUSH1 0x1 DUP3 ADD DUP1 SLOAD PUSH2 0xF1D SWAP1 PUSH2 0x5BB4 JUMP JUMPDEST DUP1 PUSH1 0x1F ADD PUSH1 0x20 DUP1 SWAP2 DIV MUL PUSH1 0x20 ADD PUSH1 0x40 MLOAD SWAP1 DUP2 ADD PUSH1 0x40 MSTORE DUP1 SWAP3 SWAP2 SWAP1 DUP2 DUP2 MSTORE PUSH1 0x20 ADD DUP3 DUP1 SLOAD PUSH2 0xF49 SWAP1 PUSH2 0x5BB4 JUMP JUMPDEST DUP1 ISZERO PUSH2 0xF94 JUMPI DUP1 PUSH1 0x1F LT PUSH2 0xF6B JUMPI PUSH2 0x100 DUP1 DUP4 SLOAD DIV MUL DUP4 MSTORE SWAP2 PUSH1 0x20 ADD SWAP2 PUSH2 0xF94 JUMP JUMPDEST DUP3 ADD SWAP2 SWAP1 PUSH0 MSTORE PUSH1 0x20 PUSH0 KECCAK256 SWAP1 JUMPDEST DUP2 SLOAD DUP2 MSTORE SWAP1 PUSH1 0x1 ADD SWAP1 PUSH1 0x20 ADD DUP1 DUP4 GT PUSH2 0xF77 JUMPI DUP3 SWAP1 SUB PUSH1 0x1F AND DUP3 ADD SWAP2 JUMPDEST POP POP POP SWAP2 DUP4 MSTORE POP POP PUSH1 0x2 DUP3 ADD SLOAD PUSH1 0x20 DUP3 ADD MSTORE PUSH1 0x3 DUP3 ADD SLOAD PUSH1 0xFF DUP1 DUP3 AND ISZERO ISZERO PUSH1 0x40 DUP5 ADD MSTORE PUSH2 0x100 SWAP1 SWAP2 DIV DUP2 AND ISZERO ISZERO PUSH1 0x60 DUP4 ADD MSTORE PUSH1 0x4 DUP4 ADD SLOAD PUSH1 0x80 DUP4 ADD MSTORE PUSH1 0x5 DUP4 ADD SLOAD PUSH1 0xA0 DUP4 ADD MSTORE PUSH1 0x6 DUP4 ADD SLOAD PUSH1 0xC0 DUP4 ADD MSTORE PUSH1 0x7 SWAP1 SWAP3 ADD SLOAD SWAP1 SWAP2 AND ISZERO ISZERO PUSH1 0xE0 SWAP1 SWAP2 ADD MSTORE DUP3 PUSH2 0x1001 PUSH1 0x1 DUP5 PUSH2 0x5B4C JUMP JUMPDEST DUP2 MLOAD DUP2 LT PUSH2 0x1011 JUMPI PUSH2 0x1011 PUSH2 0x5B8B JUMP JUMPDEST PUSH1 0x20 MUL PUSH1 0x20 ADD ADD DUP2 SWAP1 MSTORE POP DUP1 DUP1 PUSH2 0x1027 SWAP1 PUSH2 0x5B73 JUMP JUMPDEST SWAP2 POP POP PUSH2 0xEDE JUMP JUMPDEST POP SWAP2 SWAP1 POP JUMP JUMPDEST PUSH1 0x60 PUSH1 0x8 SLOAD PUSH8 0xFFFFFFFFFFFFFFFF DUP2 GT ISZERO PUSH2 0x1052 JUMPI PUSH2 0x1052 PUSH2 0x5B5F JUMP JUMPDEST PUSH1 0x40 MLOAD SWAP1 DUP1 DUP3 MSTORE DUP1 PUSH1 0x20 MUL PUSH1 0x20 ADD DUP3 ADD PUSH1 0x40 MSTORE DUP1 ISZERO PUSH2 0x10BE JUMPI DUP2 PUSH1 0x20 ADD JUMPDEST PUSH2 0x10AB PUSH1 0x40 MLOAD DUP1 PUSH1 0xE0 ADD PUSH1 0x40 MSTORE DUP1 PUSH0 DUP2 MSTORE PUSH1 0x20 ADD PUSH0 DUP2 MSTORE PUSH1 0x20 ADD PUSH0 DUP2 MSTORE PUSH1 0x20 ADD PUSH0 DUP2 MSTORE PUSH1 0x20 ADD PUSH0 DUP2 MSTORE PUSH1 0x20 ADD PUSH0 DUP2 MSTORE PUSH1 0x20 ADD PUSH0 ISZERO ISZERO DUP2 MSTORE POP SWAP1 JUMP JUMPDEST DUP2 MSTORE PUSH1 0x20 ADD SWAP1 PUSH1 0x1 SWAP1 SUB SWAP1 DUP2 PUSH2 0x1070 JUMPI SWAP1 POP JUMPDEST POP SWAP1 POP PUSH1 0x1 JUMPDEST PUSH1 0x8 SLOAD DUP2 GT PUSH2 0x102F JUMPI PUSH1 0x40 DUP1 MLOAD PUSH1 0xE0 DUP2 ADD DUP3 MSTORE DUP3 DUP2 MSTORE PUSH0 DUP4 DUP2 MSTORE PUSH1 0x10 PUSH1 0x20 SWAP1 DUP2 MSTORE DUP4 DUP3 KECCAK256 PUSH1 0x2 DUP2 ADD SLOAD DUP3 DUP6 ADD MSTORE PUSH1 0x1 PUSH1 0x1 PUSH1 0xA0 SHL SUB DUP9 AND DUP1 DUP5 MSTORE PUSH1 0x12 DUP4 MSTORE DUP6 DUP5 KECCAK256 PUSH1 0xA ADD SLOAD DUP6 DUP8 ADD MSTORE DUP1 DUP5 MSTORE PUSH1 0x17 DUP4 MSTORE DUP6 DUP5 KECCAK256 DUP8 DUP6 MSTORE DUP4 MSTORE DUP6 DUP5 KECCAK256 SLOAD PUSH1 0x60 DUP7 ADD MSTORE PUSH1 0x1 SWAP1 SWAP2 ADD SLOAD PUSH1 0x80 DUP6 ADD MSTORE DUP3 MSTORE PUSH1 0x19 SWAP1 MSTORE SWAP2 SWAP1 SWAP2 KECCAK256 PUSH1 0x3 ADD DUP1 SLOAD PUSH1 0xA0 DUP4 ADD SWAP2 SWAP1 DUP5 SWAP1 DUP2 LT PUSH2 0x1155 JUMPI PUSH2 0x1155 PUSH2 0x5B8B JUMP JUMPDEST SWAP1 PUSH0 MSTORE PUSH1 0x20 PUSH0 KECCAK256 ADD SLOAD DUP2 MSTORE PUSH1 0x20 ADD PUSH2 0x116D DUP6 DUP5 PUSH2 0x2E74 JUMP JUMPDEST ISZERO ISZERO SWAP1 MSTORE DUP3 PUSH2 0x117D PUSH1 0x1 DUP5 PUSH2 0x5B4C JUMP JUMPDEST DUP2 MLOAD DUP2 LT PUSH2 0x118D JUMPI PUSH2 0x118D PUSH2 0x5B8B JUMP JUMPDEST PUSH1 0x20 MUL PUSH1 0x20 ADD ADD DUP2 SWAP1 MSTORE POP DUP1 DUP1 PUSH2 0x11A3 SWAP1 PUSH2 0x5B73 JUMP JUMPDEST SWAP2 POP POP PUSH2 0x10C4 JUMP JUMPDEST PUSH2 0x1261 PUSH1 0x40 MLOAD DUP1 PUSH2 0x320 ADD PUSH1 0x40 MSTORE DUP1 PUSH0 PUSH1 0x1 PUSH1 0x1 PUSH1 0xA0 SHL SUB AND DUP2 MSTORE PUSH1 0x20 ADD PUSH0 DUP2 MSTORE PUSH1 0x20 ADD PUSH0 DUP2 MSTORE PUSH1 0x20 ADD PUSH0 DUP2 MSTORE PUSH1 0x20 ADD PUSH0 DUP2 MSTORE PUSH1 0x20 ADD PUSH0 DUP2 MSTORE PUSH1 0x20 ADD PUSH0 DUP2 MSTORE PUSH1 0x20 ADD PUSH0 DUP2 MSTORE PUSH1 0x20 ADD PUSH0 DUP2 MSTORE PUSH1 0x20 ADD PUSH0 DUP2 MSTORE PUSH1 0x20 ADD PUSH0 DUP2 MSTORE PUSH1 0x20 ADD PUSH0 DUP2 MSTORE PUSH1 0x20 ADD PUSH0 DUP2 MSTORE PUSH1 0x20 ADD PUSH0 DUP2 MSTORE PUSH1 0x20 ADD PUSH0 DUP2 MSTORE PUSH1 0x20 ADD PUSH0 DUP2 MSTORE PUSH1 0x20 ADD PUSH0 DUP2 MSTORE PUSH1 0x20 ADD PUSH0 DUP2 MSTORE PUSH1 0x20 ADD PUSH0 DUP2 MSTORE PUSH1 0x20 ADD PUSH0 DUP2 MSTORE PUSH1 0x20 ADD PUSH1 0x60 DUP2 MSTORE PUSH1 0x20 ADD PUSH0 DUP2 MSTORE PUSH1 0x20 ADD PUSH0 ISZERO ISZERO DUP2 MSTORE PUSH1 0x20 ADD PUSH0 ISZERO ISZERO DUP2 MSTORE PUSH1 0x20 ADD PUSH0 ISZERO ISZERO DUP2 MSTORE POP SWAP1 JUMP JUMPDEST PUSH1 0x1 PUSH1 0x1 PUSH1 0xA0 SHL SUB DUP1 DUP4 AND PUSH0 DUP2 DUP2 MSTORE PUSH1 0x12 PUSH1 0x20 SWAP1 DUP2 MSTORE PUSH1 0x40 DUP1 DUP4 KECCAK256 DUP2 MLOAD PUSH2 0x1A0 DUP2 ADD DUP4 MSTORE DUP2 SLOAD DUP2 MSTORE PUSH1 0x1 DUP1 DUP4 ADD SLOAD DUP9 AND DUP3 DUP7 ADD MSTORE PUSH1 0x2 DUP4 ADD SLOAD SWAP1 SWAP8 AND DUP2 DUP5 ADD MSTORE PUSH1 0x3 DUP3 ADD SLOAD PUSH1 0x60 DUP3 ADD MSTORE PUSH1 0x4 DUP3 ADD SLOAD PUSH1 0x80 DUP3 ADD MSTORE PUSH1 0x5 DUP3 ADD SLOAD PUSH1 0xA0 DUP3 ADD MSTORE PUSH1 0x6 DUP3 ADD SLOAD PUSH1 0xFF SWAP1 DUP2 AND ISZERO ISZERO PUSH1 0xC0 DUP1 DUP5 ADD SWAP2 SWAP1 SWAP2 MSTORE PUSH1 0x7 DUP5 ADD SLOAD PUSH1 0xE0 DUP5 ADD MSTORE PUSH1 0x8 DUP5 ADD SLOAD PUSH2 0x100 DUP1 DUP6 ADD SWAP2 SWAP1 SWAP2 MSTORE PUSH1 0x9 DUP6 ADD SLOAD PUSH2 0x120 DUP6 ADD MSTORE PUSH1 0xA DUP6 ADD SLOAD PUSH2 0x140 DUP6 ADD MSTORE PUSH1 0xB SWAP1 SWAP5 ADD SLOAD DUP1 DUP4 AND ISZERO ISZERO PUSH2 0x160 DUP6 ADD MSTORE SWAP4 SWAP1 SWAP4 DIV AND ISZERO ISZERO PUSH2 0x180 DUP3 ADD MSTORE SWAP5 DUP5 MSTORE PUSH1 0x14 DUP4 MSTORE DUP2 DUP5 KECCAK256 DUP3 MLOAD SWAP2 DUP3 ADD DUP4 MSTORE DUP1 SLOAD DUP3 MSTORE SWAP6 DUP7 ADD DUP1 SLOAD DUP4 MLOAD DUP2 DUP7 MUL DUP2 ADD DUP7 ADD SWAP1 SWAP5 MSTORE DUP1 DUP5 MSTORE SWAP6 SWAP7 SWAP5 SWAP6 SWAP2 SWAP5 SWAP4 DUP6 DUP2 ADD SWAP4 SWAP3 SWAP1 DUP4 ADD DUP3 DUP3 DUP1 ISZERO PUSH2 0x138E JUMPI PUSH1 0x20 MUL DUP3 ADD SWAP2 SWAP1 PUSH0 MSTORE PUSH1 0x20 PUSH0 KECCAK256 SWAP1 JUMPDEST DUP2 SLOAD PUSH1 0x1 PUSH1 0x1 PUSH1 0xA0 SHL SUB AND DUP2 MSTORE PUSH1 0x1 SWAP1 SWAP2 ADD SWAP1 PUSH1 0x20 ADD DUP1 DUP4 GT PUSH2 0x1370 JUMPI JUMPDEST POP POP POP POP POP DUP2 MSTORE PUSH1 0x20 ADD PUSH1 0x2 DUP3 ADD SLOAD DUP2 MSTORE PUSH1 0x20 ADD PUSH1 0x3 DUP3 ADD SLOAD DUP2 MSTORE PUSH1 0x20 ADD PUSH1 0x4 DUP3 ADD SLOAD DUP2 MSTORE PUSH1 0x20 ADD PUSH1 0x5 DUP3 ADD DUP1 SLOAD DUP1 PUSH1 0x20 MUL PUSH1 0x20 ADD PUSH1 0x40 MLOAD SWAP1 DUP2 ADD PUSH1 0x40 MSTORE DUP1 SWAP3 SWAP2 SWAP1 DUP2 DUP2 MSTORE PUSH1 0x20 ADD DUP3 DUP1 SLOAD DUP1 ISZERO PUSH2 0x140C JUMPI PUSH1 0x20 MUL DUP3 ADD SWAP2 SWAP1 PUSH0 MSTORE PUSH1 0x20 PUSH0 KECCAK256 SWAP1 JUMPDEST DUP2 SLOAD PUSH1 0x1 PUSH1 0x1 PUSH1 0xA0 SHL SUB AND DUP2 MSTORE PUSH1 0x1 SWAP1 SWAP2 ADD SWAP1 PUSH1 0x20 ADD DUP1 DUP4 GT PUSH2 0x13EE JUMPI JUMPDEST POP POP POP POP POP DUP2 MSTORE POP POP SWAP1 POP PUSH0 PUSH1 0x19 PUSH0 DUP7 PUSH1 0x1 PUSH1 0x1 PUSH1 0xA0 SHL SUB AND PUSH1 0x1 PUSH1 0x1 PUSH1 0xA0 SHL SUB AND DUP2 MSTORE PUSH1 0x20 ADD SWAP1 DUP2 MSTORE PUSH1 0x20 ADD PUSH0 KECCAK256 PUSH1 0x40 MLOAD DUP1 PUSH1 0xE0 ADD PUSH1 0x40 MSTORE SWAP1 DUP2 PUSH0 DUP3 ADD SLOAD DUP2 MSTORE PUSH1 0x20 ADD PUSH1 0x1 DUP3 ADD SLOAD DUP2 MSTORE PUSH1 0x20 ADD PUSH1 0x2 DUP3 ADD SLOAD DUP2 MSTORE PUSH1 0x20 ADD PUSH1 0x3 DUP3 ADD DUP1 SLOAD DUP1 PUSH1 0x20 MUL PUSH1 0x20 ADD PUSH1 0x40 MLOAD SWAP1 DUP2 ADD PUSH1 0x40 MSTORE DUP1 SWAP3 SWAP2 SWAP1 DUP2 DUP2 MSTORE PUSH1 0x20 ADD DUP3 DUP1 SLOAD DUP1 ISZERO PUSH2 0x14B0 JUMPI PUSH1 0x20 MUL DUP3 ADD SWAP2 SWAP1 PUSH0 MSTORE PUSH1 0x20 PUSH0 KECCAK256 SWAP1 JUMPDEST DUP2 SLOAD DUP2 MSTORE PUSH1 0x20 ADD SWAP1 PUSH1 0x1 ADD SWAP1 DUP1 DUP4 GT PUSH2 0x149C JUMPI JUMPDEST POP POP POP POP POP DUP2 MSTORE PUSH1 0x20 ADD PUSH1 0x4 DUP3 ADD SLOAD DUP2 MSTORE PUSH1 0x20 ADD PUSH1 0x5 DUP3 ADD SLOAD DUP2 MSTORE PUSH1 0x20 ADD PUSH1 0x6 DUP3 ADD SLOAD DUP2 MSTORE POP POP SWAP1 POP PUSH1 0x40 MLOAD DUP1 PUSH2 0x320 ADD PUSH1 0x40 MSTORE DUP1 DUP5 PUSH1 0x40 ADD MLOAD PUSH1 0x1 PUSH1 0x1 PUSH1 0xA0 SHL SUB AND DUP2 MSTORE PUSH1 0x20 ADD DUP5 PUSH1 0x80 ADD MLOAD DUP2 MSTORE PUSH1 0x20 ADD DUP4 PUSH1 0x20 ADD MLOAD MLOAD DUP2 MSTORE PUSH1 0x20 ADD DUP4 PUSH0 ADD MLOAD DUP2 MSTORE PUSH1 0x20 ADD DUP5 PUSH1 0xA0 ADD MLOAD DUP2 MSTORE PUSH1 0x20 ADD DUP4 PUSH1 0x40 ADD MLOAD DUP2 MSTORE PUSH1 0x20 ADD DUP4 PUSH1 0x60 ADD MLOAD DUP2 MSTORE PUSH1 0x20 ADD DUP4 PUSH1 0x80 ADD MLOAD DUP2 MSTORE PUSH1 0x20 ADD DUP3 PUSH1 0x20 ADD MLOAD DUP2 MSTORE PUSH1 0x20 ADD DUP3 PUSH0 ADD MLOAD DUP2 MSTORE PUSH1 0x20 ADD PUSH2 0x155A DUP8 PUSH2 0x2EB4 JUMP JUMPDEST DUP2 MSTORE PUSH1 0x20 ADD DUP3 PUSH1 0x40 ADD MLOAD DUP2 MSTORE PUSH1 0x20 ADD PUSH2 0x1572 DUP8 PUSH2 0x2FB2 JUMP JUMPDEST DUP2 MSTORE PUSH1 0x20 ADD DUP3 PUSH1 0x80 ADD MLOAD DUP2 MSTORE PUSH1 0x20 ADD DUP3 PUSH1 0xA0 ADD MLOAD DUP2 MSTORE PUSH1 0x20 ADD PUSH2 0x1594 DUP8 PUSH2 0x3119 JUMP JUMPDEST DUP2 MSTORE PUSH1 0x20 ADD PUSH2 0x15A2 DUP8 PUSH2 0x3177 JUMP JUMPDEST DUP2 MSTORE PUSH1 0x20 ADD DUP3 PUSH1 0xC0 ADD MLOAD DUP2 MSTORE PUSH1 0x20 ADD PUSH2 0x15BD DUP8 PUSH1 0xD SLOAD PUSH2 0x2DF2 JUMP JUMPDEST DUP2 MSTORE PUSH1 0x20 ADD PUSH2 0x15CE DUP8 PUSH1 0xE SLOAD PUSH2 0x2DF2 JUMP JUMPDEST DUP2 MSTORE PUSH1 0x20 ADD PUSH1 0x11 PUSH0 DUP7 PUSH2 0x140 ADD MLOAD DUP2 MSTORE PUSH1 0x20 ADD SWAP1 DUP2 MSTORE PUSH1 0x20 ADD PUSH0 KECCAK256 PUSH1 0x1 ADD DUP1 SLOAD PUSH2 0x15F7 SWAP1 PUSH2 0x5BB4 JUMP JUMPDEST DUP1 PUSH1 0x1F ADD PUSH1 0x20 DUP1 SWAP2 DIV MUL PUSH1 0x20 ADD PUSH1 0x40 MLOAD SWAP1 DUP2 ADD PUSH1 0x40 MSTORE DUP1 SWAP3 SWAP2 SWAP1 DUP2 DUP2 MSTORE PUSH1 0x20 ADD DUP3 DUP1 SLOAD PUSH2 0x1623 SWAP1 PUSH2 0x5BB4 JUMP JUMPDEST DUP1 ISZERO PUSH2 0x166E JUMPI DUP1 PUSH1 0x1F LT PUSH2 0x1645 JUMPI PUSH2 0x100 DUP1 DUP4 SLOAD DIV MUL DUP4 MSTORE SWAP2 PUSH1 0x20 ADD SWAP2 PUSH2 0x166E JUMP JUMPDEST DUP3 ADD SWAP2 SWAP1 PUSH0 MSTORE PUSH1 0x20 PUSH0 KECCAK256 SWAP1 JUMPDEST DUP2 SLOAD DUP2 MSTORE SWAP1 PUSH1 0x1 ADD SWAP1 PUSH1 0x20 ADD DUP1 DUP4 GT PUSH2 0x1651 JUMPI DUP3 SWAP1 SUB PUSH1 0x1F AND DUP3 ADD SWAP2 JUMPDEST POP POP POP POP POP DUP2 MSTORE PUSH1 0x20 ADD PUSH2 0x1681 DUP8 PUSH2 0x31B7 JUMP JUMPDEST DUP2 MSTORE PUSH1 0x20 ADD PUSH2 0x168F DUP8 PUSH2 0x31DE JUMP JUMPDEST ISZERO ISZERO DUP2 MSTORE PUSH1 0x20 ADD DUP5 PUSH2 0x160 ADD MLOAD ISZERO ISZERO DUP2 MSTORE PUSH1 0x20 ADD PUSH0 DUP6 PUSH1 0xE0 ADD MLOAD GT ISZERO ISZERO DUP2 MSTORE POP SWAP4 POP POP POP POP SWAP2 SWAP1 POP JUMP JUMPDEST PUSH2 0x16C1 PUSH2 0x31F8 JUMP JUMPDEST PUSH2 0x16C9 JUMPI CALLER SWAP3 POP JUMPDEST PUSH2 0x16D2 DUP4 PUSH2 0x2B6A JUMP JUMPDEST PUSH2 0x171B JUMPI PUSH1 0x40 MLOAD PUSH3 0x461BCD PUSH1 0xE5 SHL DUP2 MSTORE PUSH1 0x20 PUSH1 0x4 DUP3 ADD MSTORE PUSH1 0x15 PUSH1 0x24 DUP3 ADD MSTORE PUSH21 0x496E76616C69642073656E64696E67207573657221 PUSH1 0x58 SHL PUSH1 0x44 DUP3 ADD MSTORE PUSH1 0x64 ADD JUMPDEST PUSH1 0x40 MLOAD DUP1 SWAP2 SUB SWAP1 REVERT JUMPDEST PUSH2 0x1724 DUP4 PUSH2 0x3225 JUMP JUMPDEST PUSH2 0x1740 JUMPI PUSH1 0x40 MLOAD PUSH3 0x461BCD PUSH1 0xE5 SHL DUP2 MSTORE PUSH1 0x4 ADD PUSH2 0x1712 SWAP1 PUSH2 0x5BE6 JUMP JUMPDEST PUSH2 0x1749 DUP4 PUSH2 0x3246 JUMP JUMPDEST ISZERO PUSH2 0x178D JUMPI PUSH1 0x40 MLOAD PUSH3 0x461BCD PUSH1 0xE5 SHL DUP2 MSTORE PUSH1 0x20 PUSH1 0x4 DUP3 ADD MSTORE PUSH1 0x14 PUSH1 0x24 DUP3 ADD MSTORE PUSH20 0x2CB7BAB91024A21034B99034B730B1BA34BB3297 PUSH1 0x61 SHL PUSH1 0x44 DUP3 ADD MSTORE PUSH1 0x64 ADD PUSH2 0x1712 JUMP JUMPDEST PUSH2 0x1796 DUP3 PUSH2 0x2B6A JUMP JUMPDEST PUSH2 0x17E2 JUMPI PUSH1 0x40 MLOAD PUSH3 0x461BCD PUSH1 0xE5 SHL DUP2 MSTORE PUSH1 0x20 PUSH1 0x4 DUP3 ADD MSTORE PUSH1 0x17 PUSH1 0x24 DUP3 ADD MSTORE PUSH32 0x496E76616C696420726563656976696E67207573657221000000000000000000 PUSH1 0x44 DUP3 ADD MSTORE PUSH1 0x64 ADD PUSH2 0x1712 JUMP JUMPDEST PUSH1 0x1 PUSH1 0x1 PUSH1 0xA0 SHL SUB DUP4 AND PUSH0 SWAP1 DUP2 MSTORE PUSH1 0x1A PUSH1 0x20 SWAP1 DUP2 MSTORE PUSH1 0x40 DUP1 DUP4 KECCAK256 PUSH1 0xE SLOAD DUP5 MSTORE SWAP1 SWAP2 MSTORE SWAP1 KECCAK256 SLOAD DUP2 GT ISZERO PUSH2 0x184C JUMPI PUSH1 0x40 MLOAD PUSH3 0x461BCD PUSH1 0xE5 SHL DUP2 MSTORE PUSH1 0x20 PUSH1 0x4 DUP3 ADD MSTORE PUSH1 0x13 PUSH1 0x24 DUP3 ADD MSTORE PUSH19 0x496E73756666696369656E742066756E647321 PUSH1 0x68 SHL PUSH1 0x44 DUP3 ADD MSTORE PUSH1 0x64 ADD PUSH2 0x1712 JUMP JUMPDEST PUSH2 0x1856 PUSH1 0x5 PUSH2 0x327A JUMP JUMPDEST DUP2 LT ISZERO PUSH2 0x18A1 JUMPI PUSH1 0x40 MLOAD PUSH3 0x461BCD PUSH1 0xE5 SHL DUP2 MSTORE PUSH1 0x20 PUSH1 0x4 DUP3 ADD MSTORE PUSH1 0x19 PUSH1 0x24 DUP3 ADD MSTORE PUSH25 0x4D696E696D756D20616D6F756E742069732035205553445421 PUSH1 0x38 SHL PUSH1 0x44 DUP3 ADD MSTORE PUSH1 0x64 ADD PUSH2 0x1712 JUMP JUMPDEST PUSH0 PUSH1 0x64 PUSH2 0x18AF DUP4 PUSH1 0x5 PUSH2 0x5B35 JUMP JUMPDEST PUSH2 0x18B9 SWAP2 SWAP1 PUSH2 0x5C14 JUMP JUMPDEST SWAP1 POP PUSH0 PUSH2 0x18C6 DUP3 DUP5 PUSH2 0x5C33 JUMP JUMPDEST PUSH1 0x1 PUSH1 0x1 PUSH1 0xA0 SHL SUB DUP7 AND PUSH0 SWAP1 DUP2 MSTORE PUSH1 0x1A PUSH1 0x20 SWAP1 DUP2 MSTORE PUSH1 0x40 DUP1 DUP4 KECCAK256 PUSH1 0xE SLOAD DUP5 MSTORE SWAP1 SWAP2 MSTORE DUP2 KECCAK256 DUP1 SLOAD SWAP3 SWAP4 POP DUP4 SWAP3 SWAP1 SWAP2 SWAP1 PUSH2 0x18FF SWAP1 DUP5 SWAP1 PUSH2 0x5B4C JUMP JUMPDEST SWAP1 SWAP2 SSTORE POP POP PUSH1 0x1 PUSH1 0x1 PUSH1 0xA0 SHL SUB DUP5 AND PUSH0 SWAP1 DUP2 MSTORE PUSH1 0x1A PUSH1 0x20 SWAP1 DUP2 MSTORE PUSH1 0x40 DUP1 DUP4 KECCAK256 PUSH1 0xE SLOAD DUP5 MSTORE SWAP1 SWAP2 MSTORE DUP2 KECCAK256 DUP1 SLOAD DUP6 SWAP3 SWAP1 PUSH2 0x1938 SWAP1 DUP5 SWAP1 PUSH2 0x5C33 JUMP JUMPDEST SWAP1 SWAP2 SSTORE POP POP POP POP POP POP POP JUMP JUMPDEST CALLER PUSH0 PUSH2 0x194E PUSH2 0x3291 JUMP JUMPDEST SWAP1 POP PUSH2 0x1959 DUP3 PUSH2 0x3304 JUMP JUMPDEST PUSH2 0x1995 JUMPI PUSH1 0x40 MLOAD PUSH3 0x461BCD PUSH1 0xE5 SHL DUP2 MSTORE PUSH1 0x20 PUSH1 0x4 DUP3 ADD MSTORE PUSH1 0xD PUSH1 0x24 DUP3 ADD MSTORE PUSH13 0x496E76616C6964207573657221 PUSH1 0x98 SHL PUSH1 0x44 DUP3 ADD MSTORE PUSH1 0x64 ADD PUSH2 0x1712 JUMP JUMPDEST PUSH2 0x199E DUP3 PUSH2 0x3225 JUMP JUMPDEST PUSH2 0x19BA JUMPI PUSH1 0x40 MLOAD PUSH3 0x461BCD PUSH1 0xE5 SHL DUP2 MSTORE PUSH1 0x4 ADD PUSH2 0x1712 SWAP1 PUSH2 0x5BE6 JUMP JUMPDEST PUSH2 0x19C3 DUP3 PUSH2 0x3246 JUMP JUMPDEST ISZERO PUSH2 0x1A07 JUMPI PUSH1 0x40 MLOAD PUSH3 0x461BCD PUSH1 0xE5 SHL DUP2 MSTORE PUSH1 0x20 PUSH1 0x4 DUP3 ADD MSTORE PUSH1 0x14 PUSH1 0x24 DUP3 ADD MSTORE PUSH20 0x2CB7BAB91024A21034B99034B730B1BA34BB3297 PUSH1 0x61 SHL PUSH1 0x44 DUP3 ADD MSTORE PUSH1 0x64 ADD PUSH2 0x1712 JUMP JUMPDEST PUSH2 0x1A11 PUSH1 0x5 PUSH2 0x327A JUMP JUMPDEST DUP4 LT ISZERO PUSH2 0x1A5C JUMPI PUSH1 0x40 MLOAD PUSH3 0x461BCD PUSH1 0xE5 SHL DUP2 MSTORE PUSH1 0x20 PUSH1 0x4 DUP3 ADD MSTORE PUSH1 0x19 PUSH1 0x24 DUP3 ADD MSTORE PUSH25 0x4D696E696D756D20616D6F756E742069732035205553445421 PUSH1 0x38 SHL PUSH1 0x44 DUP3 ADD MSTORE PUSH1 0x64 ADD PUSH2 0x1712 JUMP JUMPDEST DUP3 PUSH2 0x1A69 DUP4 PUSH1 0xD SLOAD PUSH2 0x2DF2 JUMP JUMPDEST LT ISZERO PUSH2 0x1AAD JUMPI PUSH1 0x40 MLOAD PUSH3 0x461BCD PUSH1 0xE5 SHL DUP2 MSTORE PUSH1 0x20 PUSH1 0x4 DUP3 ADD MSTORE PUSH1 0x13 PUSH1 0x24 DUP3 ADD MSTORE PUSH19 0x496E73756666696369656E742066756E647321 PUSH1 0x68 SHL PUSH1 0x44 DUP3 ADD MSTORE PUSH1 0x64 ADD PUSH2 0x1712 JUMP JUMPDEST PUSH1 0x1 PUSH1 0x1 PUSH1 0xA0 SHL SUB DUP3 AND PUSH0 SWAP1 DUP2 MSTORE PUSH1 0x12 PUSH1 0x20 SWAP1 DUP2 MSTORE PUSH1 0x40 DUP1 DUP4 KECCAK256 PUSH1 0x4 ADD SLOAD PUSH1 0x19 SWAP1 SWAP3 MSTORE SWAP1 SWAP2 KECCAK256 PUSH1 0x6 ADD SLOAD PUSH2 0x1AE2 SWAP1 DUP6 SWAP1 PUSH2 0x5C33 JUMP JUMPDEST GT ISZERO DUP1 PUSH2 0x1B05 JUMPI POP PUSH1 0xC SLOAD PUSH1 0xFF AND DUP1 ISZERO PUSH2 0x1B05 JUMPI POP PUSH2 0x1B01 PUSH1 0x64 PUSH2 0x327A JUMP JUMPDEST DUP2 LT ISZERO JUMPDEST PUSH2 0x1B77 JUMPI PUSH1 0x40 MLOAD PUSH3 0x461BCD PUSH1 0xE5 SHL DUP2 MSTORE PUSH1 0x20 PUSH1 0x4 DUP3 ADD MSTORE PUSH1 0x39 PUSH1 0x24 DUP3 ADD MSTORE PUSH32 0x5769746864726177616C206265796F6E64207072696E6369706C652069732070 PUSH1 0x44 DUP3 ADD MSTORE PUSH32 0x726F686962697465642061742074686973206D6F6D656E742100000000000000 PUSH1 0x64 DUP3 ADD MSTORE PUSH1 0x84 ADD PUSH2 0x1712 JUMP JUMPDEST PUSH1 0x1 PUSH1 0x1 PUSH1 0xA0 SHL SUB DUP3 AND PUSH0 SWAP1 DUP2 MSTORE PUSH1 0x1A PUSH1 0x20 SWAP1 DUP2 MSTORE PUSH1 0x40 DUP1 DUP4 KECCAK256 PUSH1 0xD SLOAD DUP5 MSTORE SWAP1 SWAP2 MSTORE DUP2 KECCAK256 DUP1 SLOAD DUP6 SWAP3 SWAP1 PUSH2 0x1BAB SWAP1 DUP5 SWAP1 PUSH2 0x5B4C JUMP JUMPDEST SWAP1 SWAP2 SSTORE POP POP PUSH1 0x1 PUSH1 0x1 PUSH1 0xA0 SHL SUB DUP3 AND PUSH0 SWAP1 DUP2 MSTORE PUSH1 0x19 PUSH1 0x20 MSTORE PUSH1 0x40 DUP2 KECCAK256 PUSH1 0x6 ADD DUP1 SLOAD DUP6 SWAP3 SWAP1 PUSH2 0x1BDA SWAP1 DUP5 SWAP1 PUSH2 0x5C33 JUMP JUMPDEST SWAP1 SWAP2 SSTORE POP PUSH0 SWAP1 POP PUSH1 0x64 PUSH2 0x1BEE DUP6 PUSH1 0x5 PUSH2 0x5B35 JUMP JUMPDEST PUSH2 0x1BF8 SWAP2 SWAP1 PUSH2 0x5C14 JUMP JUMPDEST SWAP1 POP PUSH0 PUSH2 0x1C05 DUP3 DUP7 PUSH2 0x5B4C JUMP JUMPDEST PUSH1 0x40 DUP1 MLOAD DUP1 DUP3 ADD DUP3 MSTORE DUP8 DUP2 MSTORE TIMESTAMP PUSH1 0x20 DUP1 DUP4 ADD SWAP2 SWAP1 SWAP2 MSTORE PUSH1 0x1 PUSH1 0x1 PUSH1 0xA0 SHL SUB DUP9 AND PUSH0 SWAP1 DUP2 MSTORE PUSH1 0x16 DUP3 MSTORE DUP4 DUP2 KECCAK256 PUSH1 0x1B SWAP1 SWAP3 MSTORE SWAP3 DUP4 KECCAK256 PUSH1 0x2 ADD SLOAD SWAP4 SWAP5 POP SWAP1 SWAP3 DUP4 SWAP3 SWAP1 PUSH2 0x1C4F SWAP1 PUSH1 0x1 PUSH2 0x5C33 JUMP JUMPDEST DUP2 MSTORE PUSH1 0x20 DUP1 DUP3 ADD SWAP3 SWAP1 SWAP3 MSTORE PUSH1 0x40 SWAP1 DUP2 ADD PUSH0 SWAP1 DUP2 KECCAK256 DUP5 MLOAD DUP2 SSTORE SWAP4 DUP4 ADD MLOAD PUSH1 0x1 SWAP1 SWAP5 ADD SWAP4 SWAP1 SWAP4 SSTORE PUSH1 0x1 PUSH1 0x1 PUSH1 0xA0 SHL SUB DUP9 AND DUP4 MSTORE PUSH1 0x1B SWAP1 SWAP2 MSTORE DUP2 KECCAK256 PUSH1 0x2 ADD DUP1 SLOAD SWAP2 PUSH2 0x1C96 DUP4 PUSH2 0x5B73 JUMP JUMPDEST SWAP2 SWAP1 POP SSTORE POP DUP6 DUP5 LT PUSH2 0x1CC7 JUMPI PUSH2 0x1CAC DUP6 DUP4 PUSH2 0x3320 JUMP JUMPDEST PUSH1 0x7 SLOAD PUSH2 0x1CC2 SWAP1 PUSH1 0x1 PUSH1 0x1 PUSH1 0xA0 SHL SUB AND DUP5 PUSH2 0x3320 JUMP JUMPDEST PUSH2 0x1CD1 JUMP JUMPDEST PUSH2 0x1CD1 DUP6 DUP4 PUSH2 0x33A2 JUMP JUMPDEST POP POP POP POP POP POP JUMP JUMPDEST PUSH1 0x1 PUSH1 0x1 PUSH1 0xA0 SHL SUB DUP2 AND PUSH0 SWAP1 DUP2 MSTORE PUSH1 0x14 PUSH1 0x20 MSTORE PUSH1 0x40 SWAP1 KECCAK256 PUSH1 0x1 ADD SLOAD PUSH1 0x60 SWAP1 PUSH8 0xFFFFFFFFFFFFFFFF DUP2 GT ISZERO PUSH2 0x1D0F JUMPI PUSH2 0x1D0F PUSH2 0x5B5F JUMP JUMPDEST PUSH1 0x40 MLOAD SWAP1 DUP1 DUP3 MSTORE DUP1 PUSH1 0x20 MUL PUSH1 0x20 ADD DUP3 ADD PUSH1 0x40 MSTORE DUP1 ISZERO PUSH2 0x1D70 JUMPI DUP2 PUSH1 0x20 ADD JUMPDEST PUSH2 0x1D5D PUSH1 0x40 MLOAD DUP1 PUSH1 0x80 ADD PUSH1 0x40 MSTORE DUP1 PUSH0 DUP2 MSTORE PUSH1 0x20 ADD PUSH0 PUSH1 0x1 PUSH1 0x1 PUSH1 0xA0 SHL SUB AND DUP2 MSTORE PUSH1 0x20 ADD PUSH0 DUP2 MSTORE PUSH1 0x20 ADD PUSH0 DUP2 MSTORE POP SWAP1 JUMP JUMPDEST DUP2 MSTORE PUSH1 0x20 ADD SWAP1 PUSH1 0x1 SWAP1 SUB SWAP1 DUP2 PUSH2 0x1D2D JUMPI SWAP1 POP JUMPDEST POP SWAP1 POP PUSH0 JUMPDEST PUSH1 0x1 PUSH1 0x1 PUSH1 0xA0 SHL SUB DUP4 AND PUSH0 SWAP1 DUP2 MSTORE PUSH1 0x14 PUSH1 0x20 MSTORE PUSH1 0x40 SWAP1 KECCAK256 PUSH1 0x1 ADD SLOAD DUP2 LT ISZERO PUSH2 0x102F JUMPI PUSH1 0x40 MLOAD DUP1 PUSH1 0x80 ADD PUSH1 0x40 MSTORE DUP1 DUP3 PUSH1 0x1 PUSH2 0x1DAF SWAP2 SWAP1 PUSH2 0x5C33 JUMP JUMPDEST DUP2 MSTORE PUSH1 0x20 ADD PUSH1 0x14 PUSH0 DUP7 PUSH1 0x1 PUSH1 0x1 PUSH1 0xA0 SHL SUB AND PUSH1 0x1 PUSH1 0x1 PUSH1 0xA0 SHL SUB AND DUP2 MSTORE PUSH1 0x20 ADD SWAP1 DUP2 MSTORE PUSH1 0x20 ADD PUSH0 KECCAK256 PUSH1 0x1 ADD DUP4 DUP2 SLOAD DUP2 LT PUSH2 0x1DEB JUMPI PUSH2 0x1DEB PUSH2 0x5B8B JUMP JUMPDEST PUSH0 SWAP2 DUP3 MSTORE PUSH1 0x20 DUP1 DUP4 KECCAK256 SWAP1 SWAP2 ADD SLOAD PUSH1 0x1 PUSH1 0x1 PUSH1 0xA0 SHL SUB SWAP1 DUP2 AND DUP5 MSTORE DUP8 AND DUP3 MSTORE PUSH1 0x14 DUP2 MSTORE PUSH1 0x40 DUP3 KECCAK256 PUSH1 0x1 ADD DUP1 SLOAD SWAP4 SWAP1 SWAP2 ADD SWAP3 PUSH1 0x12 SWAP3 SWAP2 SWAP1 DUP7 SWAP1 DUP2 LT PUSH2 0x1E30 JUMPI PUSH2 0x1E30 PUSH2 0x5B8B JUMP JUMPDEST PUSH0 SWAP2 DUP3 MSTORE PUSH1 0x20 DUP1 DUP4 KECCAK256 SWAP1 SWAP2 ADD SLOAD PUSH1 0x1 PUSH1 0x1 PUSH1 0xA0 SHL SUB SWAP1 DUP2 AND DUP5 MSTORE DUP4 DUP3 ADD SWAP5 SWAP1 SWAP5 MSTORE PUSH1 0x40 SWAP3 DUP4 ADD DUP3 KECCAK256 PUSH1 0x4 ADD SLOAD DUP6 MSTORE SWAP3 DUP9 AND DUP2 MSTORE PUSH1 0x14 DUP4 MSTORE SWAP1 DUP2 KECCAK256 PUSH1 0x1 ADD DUP1 SLOAD SWAP4 SWAP1 SWAP3 ADD SWAP3 PUSH1 0x12 SWAP3 SWAP1 DUP7 SWAP1 DUP2 LT PUSH2 0x1E88 JUMPI PUSH2 0x1E88 PUSH2 0x5B8B JUMP JUMPDEST PUSH0 SWAP2 DUP3 MSTORE PUSH1 0x20 DUP1 DUP4 KECCAK256 SWAP1 SWAP2 ADD SLOAD PUSH1 0x1 PUSH1 0x1 PUSH1 0xA0 SHL SUB AND DUP4 MSTORE DUP3 ADD SWAP3 SWAP1 SWAP3 MSTORE PUSH1 0x40 ADD SWAP1 KECCAK256 PUSH1 0x4 ADD SLOAD SWAP1 MSTORE DUP3 MLOAD DUP4 SWAP1 DUP4 SWAP1 DUP2 LT PUSH2 0x1EC5 JUMPI PUSH2 0x1EC5 PUSH2 0x5B8B JUMP JUMPDEST PUSH1 0x20 SWAP1 DUP2 MUL SWAP2 SWAP1 SWAP2 ADD ADD MSTORE PUSH1 0x1 ADD PUSH2 0x1D75 JUMP JUMPDEST PUSH2 0x1EE0 PUSH2 0x31F8 JUMP JUMPDEST PUSH2 0x1EFC JUMPI PUSH1 0x40 MLOAD PUSH3 0x461BCD PUSH1 0xE5 SHL DUP2 MSTORE PUSH1 0x4 ADD PUSH2 0x1712 SWAP1 PUSH2 0x5BE6 JUMP JUMPDEST PUSH1 0x3 DUP1 SLOAD PUSH1 0x1 PUSH1 0x1 PUSH1 0xA0 SHL SUB NOT AND PUSH1 0x1 PUSH1 0x1 PUSH1 0xA0 SHL SUB SWAP3 SWAP1 SWAP3 AND SWAP2 SWAP1 SWAP2 OR SWAP1 SSTORE JUMP JUMPDEST PUSH2 0x1F4D PUSH1 0x40 MLOAD DUP1 PUSH1 0xA0 ADD PUSH1 0x40 MSTORE DUP1 PUSH0 DUP2 MSTORE PUSH1 0x20 ADD PUSH0 DUP2 MSTORE PUSH1 0x20 ADD PUSH0 DUP2 MSTORE PUSH1 0x20 ADD PUSH0 DUP2 MSTORE PUSH1 0x20 ADD PUSH0 ISZERO ISZERO DUP2 MSTORE POP SWAP1 JUMP JUMPDEST PUSH1 0x40 MLOAD DUP1 PUSH1 0xA0 ADD PUSH1 0x40 MSTORE DUP1 PUSH0 SLOAD DUP2 MSTORE PUSH1 0x20 ADD PUSH1 0x1 SLOAD DUP2 MSTORE PUSH1 0x20 ADD PUSH1 0x2 SLOAD DUP2 MSTORE PUSH1 0x20 ADD PUSH2 0x1F77 PUSH2 0x3291 JUMP JUMPDEST DUP2 MSTORE PUSH1 0xC SLOAD PUSH1 0xFF AND ISZERO ISZERO PUSH1 0x20 SWAP1 SWAP2 ADD MSTORE SWAP2 SWAP1 POP JUMP JUMPDEST PUSH1 0x1 PUSH1 0x1 PUSH1 0xA0 SHL SUB DUP4 AND PUSH0 SWAP1 DUP2 MSTORE PUSH1 0x1B PUSH1 0x20 MSTORE PUSH1 0x40 DUP2 KECCAK256 PUSH1 0x2 ADD SLOAD PUSH1 0x60 SWAP2 DUP2 PUSH2 0x1FB5 DUP6 DUP8 PUSH2 0x5B35 JUMP JUMPDEST GT PUSH2 0x1FC9 JUMPI PUSH2 0x1FC4 DUP5 DUP7 PUSH2 0x5B35 JUMP JUMPDEST PUSH2 0x1FCB JUMP JUMPDEST DUP2 JUMPDEST SWAP1 POP PUSH0 DUP5 DUP3 LT ISZERO PUSH2 0x1FDC JUMPI PUSH0 PUSH2 0x1FE6 JUMP JUMPDEST PUSH2 0x1FE6 DUP6 DUP4 PUSH2 0x5B4C JUMP JUMPDEST SWAP1 POP PUSH0 PUSH2 0x1FF3 DUP3 DUP5 PUSH2 0x5B4C JUMP JUMPDEST PUSH8 0xFFFFFFFFFFFFFFFF DUP2 GT ISZERO PUSH2 0x200B JUMPI PUSH2 0x200B PUSH2 0x5B5F JUMP JUMPDEST PUSH1 0x40 MLOAD SWAP1 DUP1 DUP3 MSTORE DUP1 PUSH1 0x20 MUL PUSH1 0x20 ADD DUP3 ADD PUSH1 0x40 MSTORE DUP1 ISZERO PUSH2 0x204F JUMPI DUP2 PUSH1 0x20 ADD JUMPDEST PUSH1 0x40 DUP1 MLOAD DUP1 DUP3 ADD SWAP1 SWAP2 MSTORE PUSH0 DUP1 DUP3 MSTORE PUSH1 0x20 DUP3 ADD MSTORE DUP2 MSTORE PUSH1 0x20 ADD SWAP1 PUSH1 0x1 SWAP1 SUB SWAP1 DUP2 PUSH2 0x2029 JUMPI SWAP1 POP JUMPDEST POP SWAP5 POP DUP3 JUMPDEST DUP3 DUP2 GT ISZERO PUSH2 0xCAD JUMPI PUSH1 0x1 PUSH1 0x1 PUSH1 0xA0 SHL SUB DUP10 AND PUSH0 SWAP1 DUP2 MSTORE PUSH1 0x16 PUSH1 0x20 SWAP1 DUP2 MSTORE PUSH1 0x40 DUP1 DUP4 KECCAK256 DUP5 DUP5 MSTORE DUP3 MSTORE SWAP2 DUP3 SWAP1 KECCAK256 DUP3 MLOAD DUP1 DUP5 ADD SWAP1 SWAP4 MSTORE DUP1 SLOAD DUP4 MSTORE PUSH1 0x1 ADD SLOAD SWAP1 DUP3 ADD MSTORE DUP7 MLOAD DUP8 SWAP1 DUP5 SWAP1 DUP2 LT PUSH2 0x20A7 JUMPI PUSH2 0x20A7 PUSH2 0x5B8B JUMP JUMPDEST PUSH1 0x20 MUL PUSH1 0x20 ADD ADD DUP2 SWAP1 MSTORE POP DUP2 DUP1 PUSH2 0x20BD SWAP1 PUSH2 0x5B73 JUMP JUMPDEST SWAP3 POP POP DUP1 DUP1 PUSH2 0x20CB SWAP1 PUSH2 0x5B9F JUMP JUMPDEST SWAP2 POP POP PUSH2 0x2054 JUMP JUMPDEST PUSH1 0x60 PUSH1 0x9 SLOAD PUSH8 0xFFFFFFFFFFFFFFFF DUP2 GT ISZERO PUSH2 0x20F0 JUMPI PUSH2 0x20F0 PUSH2 0x5B5F JUMP JUMPDEST PUSH1 0x40 MLOAD SWAP1 DUP1 DUP3 MSTORE DUP1 PUSH1 0x20 MUL PUSH1 0x20 ADD DUP3 ADD PUSH1 0x40 MSTORE DUP1 ISZERO PUSH2 0x2178 JUMPI DUP2 PUSH1 0x20 ADD JUMPDEST PUSH2 0x2165 PUSH1 0x40 MLOAD DUP1 PUSH2 0x160 ADD PUSH1 0x40 MSTORE DUP1 PUSH0 DUP2 MSTORE PUSH1 0x20 ADD PUSH1 0x60 DUP2 MSTORE PUSH1 0x20 ADD PUSH0 DUP2 MSTORE PUSH1 0x20 ADD PUSH0 DUP2 MSTORE PUSH1 0x20 ADD PUSH0 DUP2 MSTORE PUSH1 0x20 ADD PUSH0 DUP2 MSTORE PUSH1 0x20 ADD PUSH0 ISZERO ISZERO DUP2 MSTORE PUSH1 0x20 ADD PUSH0 DUP2 MSTORE PUSH1 0x20 ADD PUSH0 DUP2 MSTORE PUSH1 0x20 ADD PUSH0 DUP2 MSTORE PUSH1 0x20 ADD PUSH0 ISZERO ISZERO DUP2 MSTORE POP SWAP1 JUMP JUMPDEST DUP2 MSTORE PUSH1 0x20 ADD SWAP1 PUSH1 0x1 SWAP1 SUB SWAP1 DUP2 PUSH2 0x210E JUMPI SWAP1 POP JUMPDEST POP PUSH1 0x1 PUSH1 0x1 PUSH1 0xA0 SHL SUB DUP1 DUP5 AND PUSH0 DUP2 DUP2 MSTORE PUSH1 0x12 PUSH1 0x20 SWAP1 DUP2 MSTORE PUSH1 0x40 DUP1 DUP4 KECCAK256 DUP2 MLOAD PUSH2 0x1A0 DUP2 ADD DUP4 MSTORE DUP2 SLOAD DUP2 MSTORE PUSH1 0x1 DUP1 DUP4 ADD SLOAD DUP9 AND DUP3 DUP7 ADD MSTORE PUSH1 0x2 DUP4 ADD SLOAD SWAP1 SWAP8 AND DUP2 DUP5 ADD MSTORE PUSH1 0x3 DUP3 ADD SLOAD PUSH1 0x60 DUP3 ADD MSTORE PUSH1 0x4 DUP3 ADD SLOAD PUSH1 0x80 DUP3 ADD MSTORE PUSH1 0x5 DUP3 ADD SLOAD PUSH1 0xA0 DUP3 ADD MSTORE PUSH1 0x6 DUP3 ADD SLOAD PUSH1 0xFF SWAP1 DUP2 AND ISZERO ISZERO PUSH1 0xC0 DUP1 DUP5 ADD SWAP2 SWAP1 SWAP2 MSTORE PUSH1 0x7 DUP5 ADD SLOAD PUSH1 0xE0 DUP5 ADD MSTORE PUSH1 0x8 DUP5 ADD SLOAD PUSH2 0x100 DUP1 DUP6 ADD SWAP2 SWAP1 SWAP2 MSTORE PUSH1 0x9 DUP6 ADD SLOAD PUSH2 0x120 DUP6 ADD MSTORE PUSH1 0xA DUP6 ADD SLOAD PUSH2 0x140 DUP6 ADD MSTORE PUSH1 0xB SWAP1 SWAP5 ADD SLOAD DUP1 DUP4 AND ISZERO ISZERO PUSH2 0x160 DUP6 ADD MSTORE SWAP4 SWAP1 SWAP4 DIV AND ISZERO ISZERO PUSH2 0x180 DUP3 ADD MSTORE SWAP5 DUP5 MSTORE PUSH1 0x14 DUP4 MSTORE DUP2 DUP5 KECCAK256 DUP3 MLOAD SWAP2 DUP3 ADD DUP4 MSTORE DUP1 SLOAD DUP3 MSTORE SWAP6 DUP7 ADD DUP1 SLOAD DUP4 MLOAD DUP2 DUP7 MUL DUP2 ADD DUP7 ADD SWAP1 SWAP5 MSTORE DUP1 DUP5 MSTORE SWAP8 SWAP9 POP SWAP5 SWAP7 SWAP4 SWAP6 SWAP1 SWAP5 SWAP1 SWAP4 DUP6 DUP5 ADD SWAP4 DUP4 ADD DUP3 DUP3 DUP1 ISZERO PUSH2 0x22A8 JUMPI PUSH1 0x20 MUL DUP3 ADD SWAP2 SWAP1 PUSH0 MSTORE PUSH1 0x20 PUSH0 KECCAK256 SWAP1 JUMPDEST DUP2 SLOAD PUSH1 0x1 PUSH1 0x1 PUSH1 0xA0 SHL SUB AND DUP2 MSTORE PUSH1 0x1 SWAP1 SWAP2 ADD SWAP1 PUSH1 0x20 ADD DUP1 DUP4 GT PUSH2 0x228A JUMPI JUMPDEST POP POP POP POP POP DUP2 MSTORE PUSH1 0x20 ADD PUSH1 0x2 DUP3 ADD SLOAD DUP2 MSTORE PUSH1 0x20 ADD PUSH1 0x3 DUP3 ADD SLOAD DUP2 MSTORE PUSH1 0x20 ADD PUSH1 0x4 DUP3 ADD SLOAD DUP2 MSTORE PUSH1 0x20 ADD PUSH1 0x5 DUP3 ADD DUP1 SLOAD DUP1 PUSH1 0x20 MUL PUSH1 0x20 ADD PUSH1 0x40 MLOAD SWAP1 DUP2 ADD PUSH1 0x40 MSTORE DUP1 SWAP3 SWAP2 SWAP1 DUP2 DUP2 MSTORE PUSH1 0x20 ADD DUP3 DUP1 SLOAD DUP1 ISZERO PUSH2 0x2326 JUMPI PUSH1 0x20 MUL DUP3 ADD SWAP2 SWAP1 PUSH0 MSTORE PUSH1 0x20 PUSH0 KECCAK256 SWAP1 JUMPDEST DUP2 SLOAD PUSH1 0x1 PUSH1 0x1 PUSH1 0xA0 SHL SUB AND DUP2 MSTORE PUSH1 0x1 SWAP1 SWAP2 ADD SWAP1 PUSH1 0x20 ADD DUP1 DUP4 GT PUSH2 0x2308 JUMPI JUMPDEST POP POP POP POP POP DUP2 MSTORE POP POP SWAP1 POP PUSH0 PUSH1 0x1 SWAP1 POP JUMPDEST PUSH1 0x9 SLOAD DUP2 GT PUSH2 0x24F7 JUMPI PUSH0 PUSH1 0x11 PUSH0 DUP4 DUP2 MSTORE PUSH1 0x20 ADD SWAP1 DUP2 MSTORE PUSH1 0x20 ADD PUSH0 KECCAK256 PUSH1 0x40 MLOAD DUP1 PUSH1 0xE0 ADD PUSH1 0x40 MSTORE SWAP1 DUP2 PUSH0 DUP3 ADD SLOAD DUP2 MSTORE PUSH1 0x20 ADD PUSH1 0x1 DUP3 ADD DUP1 SLOAD PUSH2 0x2376 SWAP1 PUSH2 0x5BB4 JUMP JUMPDEST DUP1 PUSH1 0x1F ADD PUSH1 0x20 DUP1 SWAP2 DIV MUL PUSH1 0x20 ADD PUSH1 0x40 MLOAD SWAP1 DUP2 ADD PUSH1 0x40 MSTORE DUP1 SWAP3 SWAP2 SWAP1 DUP2 DUP2 MSTORE PUSH1 0x20 ADD DUP3 DUP1 SLOAD PUSH2 0x23A2 SWAP1 PUSH2 0x5BB4 JUMP JUMPDEST DUP1 ISZERO PUSH2 0x23ED JUMPI DUP1 PUSH1 0x1F LT PUSH2 0x23C4 JUMPI PUSH2 0x100 DUP1 DUP4 SLOAD DIV MUL DUP4 MSTORE SWAP2 PUSH1 0x20 ADD SWAP2 PUSH2 0x23ED JUMP JUMPDEST DUP3 ADD SWAP2 SWAP1 PUSH0 MSTORE PUSH1 0x20 PUSH0 KECCAK256 SWAP1 JUMPDEST DUP2 SLOAD DUP2 MSTORE SWAP1 PUSH1 0x1 ADD SWAP1 PUSH1 0x20 ADD DUP1 DUP4 GT PUSH2 0x23D0 JUMPI DUP3 SWAP1 SUB PUSH1 0x1F AND DUP3 ADD SWAP2 JUMPDEST POP POP POP POP POP DUP2 MSTORE PUSH1 0x20 ADD PUSH1 0x2 DUP3 ADD SLOAD DUP2 MSTORE PUSH1 0x20 ADD PUSH1 0x3 DUP3 ADD SLOAD DUP2 MSTORE PUSH1 0x20 ADD PUSH1 0x4 DUP3 ADD SLOAD DUP2 MSTORE PUSH1 0x20 ADD PUSH1 0x5 DUP3 ADD SLOAD DUP2 MSTORE PUSH1 0x20 ADD PUSH1 0x6 DUP3 ADD SLOAD DUP2 MSTORE POP POP SWAP1 POP PUSH0 DUP2 PUSH0 ADD MLOAD DUP6 PUSH2 0x140 ADD MLOAD LT ISZERO SWAP1 POP PUSH1 0x40 MLOAD DUP1 PUSH2 0x160 ADD PUSH1 0x40 MSTORE DUP1 DUP4 PUSH0 ADD MLOAD DUP2 MSTORE PUSH1 0x20 ADD DUP4 PUSH1 0x20 ADD MLOAD DUP2 MSTORE PUSH1 0x20 ADD DUP4 PUSH1 0x40 ADD MLOAD DUP2 MSTORE PUSH1 0x20 ADD DUP4 PUSH1 0x80 ADD MLOAD DUP2 MSTORE PUSH1 0x20 ADD DUP4 PUSH1 0xA0 ADD MLOAD DUP2 MSTORE PUSH1 0x20 ADD DUP7 PUSH1 0x80 ADD MLOAD DUP2 MSTORE PUSH1 0x20 ADD PUSH2 0x248E DUP10 DUP6 PUSH1 0x40 ADD MLOAD PUSH2 0x3471 JUMP JUMPDEST ISZERO ISZERO DUP2 MSTORE PUSH1 0x20 ADD DUP6 PUSH1 0x40 ADD MLOAD DUP2 MSTORE PUSH1 0x20 ADD DUP6 PUSH1 0x60 ADD MLOAD DUP2 MSTORE PUSH1 0x20 ADD DUP4 PUSH1 0xC0 ADD MLOAD DUP2 MSTORE PUSH1 0x20 ADD DUP3 ISZERO ISZERO DUP2 MSTORE POP DUP7 PUSH1 0x1 DUP6 PUSH2 0x24C7 SWAP2 SWAP1 PUSH2 0x5B4C JUMP JUMPDEST DUP2 MLOAD DUP2 LT PUSH2 0x24D7 JUMPI PUSH2 0x24D7 PUSH2 0x5B8B JUMP JUMPDEST PUSH1 0x20 MUL PUSH1 0x20 ADD ADD DUP2 SWAP1 MSTORE POP POP POP DUP1 DUP1 PUSH2 0x24EF SWAP1 PUSH2 0x5B73 JUMP JUMPDEST SWAP2 POP POP PUSH2 0x2337 JUMP JUMPDEST POP POP POP SWAP2 SWAP1 POP JUMP JUMPDEST PUSH2 0x2507 PUSH2 0x31F8 JUMP JUMPDEST PUSH2 0x2523 JUMPI PUSH1 0x40 MLOAD PUSH3 0x461BCD PUSH1 0xE5 SHL DUP2 MSTORE PUSH1 0x4 ADD PUSH2 0x1712 SWAP1 PUSH2 0x5BE6 JUMP JUMPDEST PUSH1 0x4 DUP1 SLOAD PUSH1 0x1 PUSH1 0x1 PUSH1 0xA0 SHL SUB NOT AND PUSH1 0x1 PUSH1 0x1 PUSH1 0xA0 SHL SUB SWAP3 SWAP1 SWAP3 AND SWAP2 SWAP1 SWAP2 OR SWAP1 SSTORE JUMP JUMPDEST PUSH1 0xF PUSH1 0x20 MSTORE PUSH0 SWAP1 DUP2 MSTORE PUSH1 0x40 SWAP1 KECCAK256 DUP1 SLOAD PUSH1 0x1 DUP3 ADD DUP1 SLOAD SWAP2 SWAP3 SWAP2 PUSH2 0x2566 SWAP1 PUSH2 0x5BB4 JUMP JUMPDEST DUP1 PUSH1 0x1F ADD PUSH1 0x20 DUP1 SWAP2 DIV MUL PUSH1 0x20 ADD PUSH1 0x40 MLOAD SWAP1 DUP2 ADD PUSH1 0x40 MSTORE DUP1 SWAP3 SWAP2 SWAP1 DUP2 DUP2 MSTORE PUSH1 0x20 ADD DUP3 DUP1 SLOAD PUSH2 0x2592 SWAP1 PUSH2 0x5BB4 JUMP JUMPDEST DUP1 ISZERO PUSH2 0x25DD JUMPI DUP1 PUSH1 0x1F LT PUSH2 0x25B4 JUMPI PUSH2 0x100 DUP1 DUP4 SLOAD DIV MUL DUP4 MSTORE SWAP2 PUSH1 0x20 ADD SWAP2 PUSH2 0x25DD JUMP JUMPDEST DUP3 ADD SWAP2 SWAP1 PUSH0 MSTORE PUSH1 0x20 PUSH0 KECCAK256 SWAP1 JUMPDEST DUP2 SLOAD DUP2 MSTORE SWAP1 PUSH1 0x1 ADD SWAP1 PUSH1 0x20 ADD DUP1 DUP4 GT PUSH2 0x25C0 JUMPI DUP3 SWAP1 SUB PUSH1 0x1F AND DUP3 ADD SWAP2 JUMPDEST POP POP POP POP PUSH1 0x2 DUP4 ADD SLOAD PUSH1 0x3 DUP5 ADD SLOAD PUSH1 0x4 DUP6 ADD SLOAD PUSH1 0x5 DUP7 ADD SLOAD PUSH1 0x6 DUP8 ADD SLOAD PUSH1 0x7 SWAP1 SWAP8 ADD SLOAD SWAP6 SWAP7 SWAP4 SWAP6 PUSH1 0xFF DUP1 DUP6 AND SWAP7 POP PUSH2 0x100 SWAP1 SWAP5 DIV DUP5 AND SWAP5 SWAP3 SWAP4 SWAP2 SWAP3 SWAP2 AND DUP10 JUMP JUMPDEST PUSH2 0x2627 DUP3 DUP3 PUSH2 0x34E6 JUMP JUMPDEST POP POP JUMP JUMPDEST PUSH2 0x2633 PUSH2 0x31F8 JUMP JUMPDEST PUSH2 0x264F JUMPI PUSH1 0x40 MLOAD PUSH3 0x461BCD PUSH1 0xE5 SHL DUP2 MSTORE PUSH1 0x4 ADD PUSH2 0x1712 SWAP1 PUSH2 0x5BE6 JUMP JUMPDEST PUSH1 0x7 DUP1 SLOAD PUSH1 0x1 PUSH1 0x1 PUSH1 0xA0 SHL SUB NOT AND PUSH1 0x1 PUSH1 0x1 PUSH1 0xA0 SHL SUB SWAP3 SWAP1 SWAP3 AND SWAP2 SWAP1 SWAP2 OR SWAP1 SSTORE JUMP JUMPDEST CALLER DUP1 PUSH2 0x267C DUP2 PUSH2 0x3304 JUMP JUMPDEST PUSH2 0x26C2 JUMPI PUSH1 0x40 MLOAD PUSH3 0x461BCD PUSH1 0xE5 SHL DUP2 MSTORE PUSH1 0x20 PUSH1 0x4 DUP3 ADD MSTORE PUSH1 0x17 PUSH1 0x24 DUP3 ADD MSTORE PUSH23 0x596F7520617265206E6F74207265676973746572656421 PUSH1 0x48 SHL PUSH1 0x44 DUP3 ADD MSTORE PUSH1 0x64 ADD PUSH2 0x1712 JUMP JUMPDEST PUSH2 0x26CB DUP3 PUSH2 0x3225 JUMP JUMPDEST PUSH2 0x26E7 JUMPI PUSH1 0x40 MLOAD PUSH3 0x461BCD PUSH1 0xE5 SHL DUP2 MSTORE PUSH1 0x4 ADD PUSH2 0x1712 SWAP1 PUSH2 0x5BE6 JUMP JUMPDEST PUSH2 0x26F0 DUP2 PUSH2 0x3304 JUMP JUMPDEST PUSH2 0x273C JUMPI PUSH1 0x40 MLOAD PUSH3 0x461BCD PUSH1 0xE5 SHL DUP2 MSTORE PUSH1 0x20 PUSH1 0x4 DUP3 ADD MSTORE PUSH1 0x17 PUSH1 0x24 DUP3 ADD MSTORE PUSH32 0x496E76616C6964207573657220666F7220746F70757021000000000000000000 PUSH1 0x44 DUP3 ADD MSTORE PUSH1 0x64 ADD PUSH2 0x1712 JUMP JUMPDEST PUSH1 0x1 PUSH1 0x1 PUSH1 0xA0 SHL SUB DUP2 AND PUSH0 SWAP1 DUP2 MSTORE PUSH1 0x12 PUSH1 0x20 MSTORE PUSH1 0x40 SWAP1 KECCAK256 PUSH1 0xB ADD SLOAD PUSH2 0x100 SWAP1 DIV PUSH1 0xFF AND ISZERO PUSH2 0x27C2 JUMPI PUSH1 0x40 MLOAD PUSH3 0x461BCD PUSH1 0xE5 SHL DUP2 MSTORE PUSH1 0x20 PUSH1 0x4 DUP3 ADD MSTORE PUSH1 0x2D PUSH1 0x24 DUP3 ADD MSTORE PUSH32 0x4F6E6C792066697273742074696D6520746F70757020697320616C6C6F776564 PUSH1 0x44 DUP3 ADD MSTORE PUSH13 0x10333937B6903BB0B63632BA17 PUSH1 0x99 SHL PUSH1 0x64 DUP3 ADD MSTORE PUSH1 0x84 ADD PUSH2 0x1712 JUMP JUMPDEST DUP3 PUSH2 0x27CF DUP4 PUSH1 0xE SLOAD PUSH2 0x2DF2 JUMP JUMPDEST LT ISZERO PUSH2 0x281D JUMPI PUSH1 0x40 MLOAD PUSH3 0x461BCD PUSH1 0xE5 SHL DUP2 MSTORE PUSH1 0x20 PUSH1 0x4 DUP3 ADD MSTORE PUSH1 0x1D PUSH1 0x24 DUP3 ADD MSTORE PUSH32 0x496E73756666696369656E742066756E647320696E2077616C6C657421000000 PUSH1 0x44 DUP3 ADD MSTORE PUSH1 0x64 ADD PUSH2 0x1712 JUMP JUMPDEST PUSH2 0x2828 DUP2 DUP6 DUP6 PUSH2 0x3643 JUMP JUMPDEST POP PUSH1 0x1 PUSH1 0x1 PUSH1 0xA0 SHL SUB DUP3 AND PUSH0 SWAP1 DUP2 MSTORE PUSH1 0x1A PUSH1 0x20 SWAP1 DUP2 MSTORE PUSH1 0x40 DUP1 DUP4 KECCAK256 PUSH1 0x2 DUP5 MSTORE SWAP1 SWAP2 MSTORE DUP2 KECCAK256 DUP1 SLOAD DUP6 SWAP3 SWAP1 PUSH2 0x285C SWAP1 DUP5 SWAP1 PUSH2 0x5B4C JUMP JUMPDEST SWAP1 SWAP2 SSTORE POP POP POP POP POP POP JUMP JUMPDEST PUSH2 0x286F PUSH2 0x31F8 JUMP JUMPDEST PUSH2 0x288B JUMPI PUSH1 0x40 MLOAD PUSH3 0x461BCD PUSH1 0xE5 SHL DUP2 MSTORE PUSH1 0x4 ADD PUSH2 0x1712 SWAP1 PUSH2 0x5BE6 JUMP JUMPDEST PUSH1 0x6 DUP1 SLOAD PUSH1 0x1 PUSH1 0x1 PUSH1 0xA0 SHL SUB NOT AND PUSH1 0x1 PUSH1 0x1 PUSH1 0xA0 SHL SUB SWAP3 SWAP1 SWAP3 AND SWAP2 SWAP1 SWAP2 OR SWAP1 SSTORE JUMP JUMPDEST PUSH1 0x1 PUSH1 0x1 PUSH1 0xA0 SHL SUB DUP4 AND PUSH0 SWAP1 DUP2 MSTORE PUSH1 0x14 PUSH1 0x20 SWAP1 DUP2 MSTORE PUSH1 0x40 DUP1 DUP4 KECCAK256 PUSH1 0x5 ADD DUP1 SLOAD DUP3 MLOAD DUP2 DUP6 MUL DUP2 ADD DUP6 ADD SWAP1 SWAP4 MSTORE DUP1 DUP4 MSTORE PUSH1 0x60 SWAP5 SWAP4 DUP4 ADD DUP3 DUP3 DUP1 ISZERO PUSH2 0x2916 JUMPI PUSH1 0x20 MUL DUP3 ADD SWAP2 SWAP1 PUSH0 MSTORE PUSH1 0x20 PUSH0 KECCAK256 SWAP1 JUMPDEST DUP2 SLOAD PUSH1 0x1 PUSH1 0x1 PUSH1 0xA0 SHL SUB AND DUP2 MSTORE PUSH1 0x1 SWAP1 SWAP2 ADD SWAP1 PUSH1 0x20 ADD DUP1 DUP4 GT PUSH2 0x28F8 JUMPI JUMPDEST POP POP DUP4 MLOAD SWAP4 SWAP5 POP PUSH0 SWAP3 POP DUP4 SWAP2 POP PUSH2 0x292F SWAP1 POP DUP7 DUP9 PUSH2 0x5B35 JUMP JUMPDEST GT PUSH2 0x2943 JUMPI PUSH2 0x293E DUP6 DUP8 PUSH2 0x5B35 JUMP JUMPDEST PUSH2 0x2945 JUMP JUMPDEST DUP2 JUMPDEST SWAP1 POP PUSH0 DUP6 DUP3 LT ISZERO PUSH2 0x2956 JUMPI PUSH0 PUSH2 0x2960 JUMP JUMPDEST PUSH2 0x2960 DUP7 DUP4 PUSH2 0x5B4C JUMP JUMPDEST SWAP1 POP PUSH0 PUSH2 0x296D DUP3 DUP5 PUSH2 0x5B4C JUMP JUMPDEST SWAP1 POP DUP1 PUSH8 0xFFFFFFFFFFFFFFFF DUP2 GT ISZERO PUSH2 0x2988 JUMPI PUSH2 0x2988 PUSH2 0x5B5F JUMP JUMPDEST PUSH1 0x40 MLOAD SWAP1 DUP1 DUP3 MSTORE DUP1 PUSH1 0x20 MUL PUSH1 0x20 ADD DUP3 ADD PUSH1 0x40 MSTORE DUP1 ISZERO PUSH2 0x29E9 JUMPI DUP2 PUSH1 0x20 ADD JUMPDEST PUSH2 0x29D6 PUSH1 0x40 MLOAD DUP1 PUSH1 0x80 ADD PUSH1 0x40 MSTORE DUP1 PUSH0 DUP2 MSTORE PUSH1 0x20 ADD PUSH0 PUSH1 0x1 PUSH1 0x1 PUSH1 0xA0 SHL SUB AND DUP2 MSTORE PUSH1 0x20 ADD PUSH0 DUP2 MSTORE PUSH1 0x20 ADD PUSH0 DUP2 MSTORE POP SWAP1 JUMP JUMPDEST DUP2 MSTORE PUSH1 0x20 ADD SWAP1 PUSH1 0x1 SWAP1 SUB SWAP1 DUP2 PUSH2 0x29A6 JUMPI SWAP1 POP JUMPDEST POP SWAP6 POP PUSH0 DUP4 JUMPDEST DUP4 DUP2 GT ISZERO PUSH2 0x2A9C JUMPI PUSH0 DUP8 PUSH2 0x2A04 PUSH1 0x1 DUP5 PUSH2 0x5B4C JUMP JUMPDEST DUP2 MLOAD DUP2 LT PUSH2 0x2A14 JUMPI PUSH2 0x2A14 PUSH2 0x5B8B JUMP JUMPDEST PUSH1 0x20 SWAP1 DUP2 MUL SWAP2 SWAP1 SWAP2 ADD DUP2 ADD MLOAD PUSH1 0x40 DUP1 MLOAD PUSH1 0x80 DUP2 ADD DUP3 MSTORE DUP6 DUP2 MSTORE PUSH1 0x1 PUSH1 0x1 PUSH1 0xA0 SHL SUB DUP4 AND DUP2 DUP6 ADD DUP2 SWAP1 MSTORE PUSH0 DUP2 DUP2 MSTORE PUSH1 0x12 DUP1 DUP8 MSTORE DUP5 DUP3 KECCAK256 PUSH1 0x4 ADD SLOAD SWAP5 DUP5 ADD DUP6 SWAP1 MSTORE SWAP2 SWAP1 MSTORE SWAP1 SWAP4 MSTORE PUSH1 0x60 DUP4 ADD MSTORE SWAP2 POP DUP10 DUP5 PUSH2 0x2A6B DUP2 PUSH2 0x5B73 JUMP JUMPDEST SWAP6 POP DUP2 MLOAD DUP2 LT PUSH2 0x2A7D JUMPI PUSH2 0x2A7D PUSH2 0x5B8B JUMP JUMPDEST PUSH1 0x20 MUL PUSH1 0x20 ADD ADD DUP2 SWAP1 MSTORE POP POP DUP1 DUP1 PUSH2 0x2A94 SWAP1 PUSH2 0x5B9F JUMP JUMPDEST SWAP2 POP POP PUSH2 0x29EF JUMP JUMPDEST POP POP POP POP POP POP POP SWAP4 SWAP3 POP POP POP JUMP JUMPDEST PUSH1 0x11 PUSH1 0x20 MSTORE PUSH0 SWAP1 DUP2 MSTORE PUSH1 0x40 SWAP1 KECCAK256 DUP1 SLOAD PUSH1 0x1 DUP3 ADD DUP1 SLOAD SWAP2 SWAP3 SWAP2 PUSH2 0x2ACB SWAP1 PUSH2 0x5BB4 JUMP JUMPDEST DUP1 PUSH1 0x1F ADD PUSH1 0x20 DUP1 SWAP2 DIV MUL PUSH1 0x20 ADD PUSH1 0x40 MLOAD SWAP1 DUP2 ADD PUSH1 0x40 MSTORE DUP1 SWAP3 SWAP2 SWAP1 DUP2 DUP2 MSTORE PUSH1 0x20 ADD DUP3 DUP1 SLOAD PUSH2 0x2AF7 SWAP1 PUSH2 0x5BB4 JUMP JUMPDEST DUP1 ISZERO PUSH2 0x2B42 JUMPI DUP1 PUSH1 0x1F LT PUSH2 0x2B19 JUMPI PUSH2 0x100 DUP1 DUP4 SLOAD DIV MUL DUP4 MSTORE SWAP2 PUSH1 0x20 ADD SWAP2 PUSH2 0x2B42 JUMP JUMPDEST DUP3 ADD SWAP2 SWAP1 PUSH0 MSTORE PUSH1 0x20 PUSH0 KECCAK256 SWAP1 JUMPDEST DUP2 SLOAD DUP2 MSTORE SWAP1 PUSH1 0x1 ADD SWAP1 PUSH1 0x20 ADD DUP1 DUP4 GT PUSH2 0x2B25 JUMPI DUP3 SWAP1 SUB PUSH1 0x1F AND DUP3 ADD SWAP2 JUMPDEST POP POP POP POP POP SWAP1 DUP1 PUSH1 0x2 ADD SLOAD SWAP1 DUP1 PUSH1 0x3 ADD SLOAD SWAP1 DUP1 PUSH1 0x4 ADD SLOAD SWAP1 DUP1 PUSH1 0x5 ADD SLOAD SWAP1 DUP1 PUSH1 0x6 ADD SLOAD SWAP1 POP DUP8 JUMP JUMPDEST PUSH0 PUSH2 0x2B74 DUP3 PUSH2 0x3304 JUMP JUMPDEST DUP1 ISZERO PUSH2 0x2B84 JUMPI POP PUSH2 0x2B84 DUP3 PUSH2 0x3225 JUMP JUMPDEST SWAP3 SWAP2 POP POP JUMP JUMPDEST PUSH2 0x2B93 DUP2 PUSH2 0x3AB7 JUMP JUMPDEST POP JUMP JUMPDEST PUSH2 0x2B9E PUSH2 0x31F8 JUMP JUMPDEST PUSH2 0x2BE0 JUMPI PUSH1 0x40 MLOAD PUSH3 0x461BCD PUSH1 0xE5 SHL DUP2 MSTORE PUSH1 0x20 PUSH1 0x4 DUP3 ADD MSTORE PUSH1 0x13 PUSH1 0x24 DUP3 ADD MSTORE PUSH19 0x165BDD48185C99481B9BDD08185B1B1BDDD959 PUSH1 0x6A SHL PUSH1 0x44 DUP3 ADD MSTORE PUSH1 0x64 ADD PUSH2 0x1712 JUMP JUMPDEST DUP1 PUSH1 0x2 SUB PUSH2 0x2C17 JUMPI POP PUSH1 0x1 PUSH0 MSTORE PUSH1 0xF PUSH1 0x20 MSTORE PUSH32 0x169F97DE0D9A84D840042B17D3C6B9638B3D6FD9024C9EB0C7A306A17B49F894 SSTORE POP JUMP JUMPDEST DUP1 PUSH1 0x3 SUB PUSH2 0x2C5E JUMPI PUSH1 0x1 PUSH1 0x1 PUSH1 0xA0 SHL SUB DUP4 AND PUSH0 SWAP1 DUP2 MSTORE PUSH1 0x1A PUSH1 0x20 SWAP1 DUP2 MSTORE PUSH1 0x40 DUP1 DUP4 KECCAK256 PUSH1 0xD SLOAD DUP5 MSTORE SWAP1 SWAP2 MSTORE DUP2 KECCAK256 DUP1 SLOAD DUP5 SWAP3 SWAP1 PUSH2 0x2C53 SWAP1 DUP5 SWAP1 PUSH2 0x5C33 JUMP JUMPDEST SWAP1 SWAP2 SSTORE POP PUSH2 0x2D17 SWAP1 POP JUMP JUMPDEST DUP1 PUSH1 0x4 SUB PUSH2 0x2C9A JUMPI PUSH1 0x1 PUSH1 0x1 PUSH1 0xA0 SHL SUB DUP4 AND PUSH0 SWAP1 DUP2 MSTORE PUSH1 0x1A PUSH1 0x20 SWAP1 DUP2 MSTORE PUSH1 0x40 DUP1 DUP4 KECCAK256 PUSH1 0xD SLOAD DUP5 MSTORE SWAP1 SWAP2 MSTORE DUP2 KECCAK256 DUP1 SLOAD DUP5 SWAP3 SWAP1 PUSH2 0x2C53 SWAP1 DUP5 SWAP1 PUSH2 0x5B4C JUMP JUMPDEST DUP1 PUSH1 0x5 SUB PUSH2 0x2CCC JUMPI PUSH1 0x1 PUSH1 0x1 PUSH1 0xA0 SHL SUB DUP4 AND PUSH0 SWAP1 DUP2 MSTORE PUSH1 0x12 PUSH1 0x20 MSTORE PUSH1 0x40 SWAP1 KECCAK256 PUSH1 0x6 ADD DUP1 SLOAD PUSH1 0xFF NOT AND PUSH1 0x1 OR SWAP1 SSTORE POP POP POP JUMP JUMPDEST DUP1 PUSH1 0x6 SUB PUSH2 0x2CF9 JUMPI POP POP PUSH1 0x1 PUSH1 0x1 PUSH1 0xA0 SHL SUB AND PUSH0 SWAP1 DUP2 MSTORE PUSH1 0x12 PUSH1 0x20 MSTORE PUSH1 0x40 SWAP1 KECCAK256 PUSH1 0x6 ADD DUP1 SLOAD PUSH1 0xFF NOT AND SWAP1 SSTORE JUMP JUMPDEST DUP1 PUSH1 0x7 SUB PUSH2 0x2D1C JUMPI PUSH1 0x3 SLOAD PUSH2 0x2D17 SWAP1 PUSH1 0x1 PUSH1 0x1 PUSH1 0xA0 SHL SUB AND DUP4 PUSH2 0x3320 JUMP JUMPDEST POP POP POP JUMP JUMPDEST DUP1 PUSH1 0x8 SUB PUSH2 0x2D58 JUMPI PUSH1 0x1 PUSH1 0x1 PUSH1 0xA0 SHL SUB DUP4 AND PUSH0 SWAP1 DUP2 MSTORE PUSH1 0x1A PUSH1 0x20 SWAP1 DUP2 MSTORE PUSH1 0x40 DUP1 DUP4 KECCAK256 PUSH1 0xE SLOAD DUP5 MSTORE SWAP1 SWAP2 MSTORE DUP2 KECCAK256 DUP1 SLOAD DUP5 SWAP3 SWAP1 PUSH2 0x2C53 SWAP1 DUP5 SWAP1 PUSH2 0x5C33 JUMP JUMPDEST DUP1 PUSH1 0x9 SUB PUSH2 0x2D94 JUMPI PUSH1 0x1 PUSH1 0x1 PUSH1 0xA0 SHL SUB DUP4 AND PUSH0 SWAP1 DUP2 MSTORE PUSH1 0x1A PUSH1 0x20 SWAP1 DUP2 MSTORE PUSH1 0x40 DUP1 DUP4 KECCAK256 PUSH1 0xE SLOAD DUP5 MSTORE SWAP1 SWAP2 MSTORE DUP2 KECCAK256 DUP1 SLOAD DUP5 SWAP3 SWAP1 PUSH2 0x2C53 SWAP1 DUP5 SWAP1 PUSH2 0x5B4C JUMP JUMPDEST DUP1 PUSH1 0xA SUB PUSH2 0x2DAB JUMPI PUSH1 0xC DUP1 SLOAD PUSH1 0xFF NOT AND SWAP1 SSTORE POP POP POP JUMP JUMPDEST DUP1 PUSH1 0xB SUB PUSH2 0x2DC5 JUMPI PUSH1 0xC DUP1 SLOAD PUSH1 0xFF NOT AND PUSH1 0x1 OR SWAP1 SSTORE POP POP POP JUMP JUMPDEST DUP1 PUSH1 0xC SUB PUSH2 0x2D17 JUMPI PUSH1 0xC DUP1 SLOAD PUSH2 0x100 PUSH1 0x1 PUSH1 0xA8 SHL SUB NOT AND PUSH2 0x100 PUSH1 0x1 PUSH1 0x1 PUSH1 0xA0 SHL SUB DUP7 AND MUL OR SWAP1 SSTORE POP POP POP JUMP JUMPDEST PUSH1 0x1 PUSH1 0x1 PUSH1 0xA0 SHL SUB SWAP2 SWAP1 SWAP2 AND PUSH0 SWAP1 DUP2 MSTORE PUSH1 0x1A PUSH1 0x20 SWAP1 DUP2 MSTORE PUSH1 0x40 DUP1 DUP4 KECCAK256 SWAP4 DUP4 MSTORE SWAP3 SWAP1 MSTORE KECCAK256 SLOAD SWAP1 JUMP JUMPDEST CALLER PUSH0 SWAP1 DUP2 MSTORE PUSH1 0x12 PUSH1 0x20 MSTORE PUSH1 0x40 DUP2 KECCAK256 PUSH1 0x9 ADD SLOAD TIMESTAMP LT ISZERO PUSH2 0x2E64 JUMPI PUSH1 0x40 MLOAD PUSH3 0x461BCD PUSH1 0xE5 SHL DUP2 MSTORE PUSH1 0x20 PUSH1 0x4 DUP3 ADD MSTORE PUSH1 0x7 PUSH1 0x24 DUP3 ADD MSTORE PUSH7 0x41637469766521 PUSH1 0xC8 SHL PUSH1 0x44 DUP3 ADD MSTORE PUSH1 0x64 ADD PUSH2 0x1712 JUMP JUMPDEST PUSH2 0x2E6F CALLER TIMESTAMP PUSH0 PUSH2 0x3B7B JUMP JUMPDEST SWAP1 POP SWAP1 JUMP JUMPDEST PUSH0 DUP2 DUP2 MSTORE PUSH1 0x10 PUSH1 0x20 SWAP1 DUP2 MSTORE PUSH1 0x40 DUP1 DUP4 KECCAK256 PUSH1 0x2 ADD SLOAD PUSH1 0x1 PUSH1 0x1 PUSH1 0xA0 SHL SUB DUP7 AND DUP5 MSTORE PUSH1 0x12 SWAP1 SWAP3 MSTORE DUP3 KECCAK256 PUSH1 0xA ADD SLOAD LT PUSH2 0x2EAC JUMPI POP PUSH1 0x1 PUSH2 0x2B84 JUMP JUMPDEST POP PUSH0 SWAP3 SWAP2 POP POP JUMP JUMPDEST PUSH1 0x1 PUSH1 0x1 PUSH1 0xA0 SHL SUB DUP2 AND PUSH0 SWAP1 DUP2 MSTORE PUSH1 0x19 PUSH1 0x20 SWAP1 DUP2 MSTORE PUSH1 0x40 DUP1 DUP4 KECCAK256 DUP2 MLOAD PUSH1 0xE0 DUP2 ADD DUP4 MSTORE DUP2 SLOAD DUP2 MSTORE PUSH1 0x1 DUP3 ADD SLOAD DUP2 DUP6 ADD MSTORE PUSH1 0x2 DUP3 ADD SLOAD DUP2 DUP5 ADD MSTORE PUSH1 0x3 DUP3 ADD DUP1 SLOAD DUP5 MLOAD DUP2 DUP8 MUL DUP2 ADD DUP8 ADD SWAP1 SWAP6 MSTORE DUP1 DUP6 MSTORE DUP7 SWAP6 DUP7 SWAP6 SWAP4 SWAP5 SWAP4 PUSH1 0x60 DUP7 ADD SWAP4 SWAP1 SWAP3 SWAP1 SWAP2 DUP4 ADD DUP3 DUP3 DUP1 ISZERO PUSH2 0x2F3E JUMPI PUSH1 0x20 MUL DUP3 ADD SWAP2 SWAP1 PUSH0 MSTORE PUSH1 0x20 PUSH0 KECCAK256 SWAP1 JUMPDEST DUP2 SLOAD DUP2 MSTORE PUSH1 0x20 ADD SWAP1 PUSH1 0x1 ADD SWAP1 DUP1 DUP4 GT PUSH2 0x2F2A JUMPI JUMPDEST POP POP POP POP POP DUP2 MSTORE PUSH1 0x20 ADD PUSH1 0x4 DUP3 ADD SLOAD DUP2 MSTORE PUSH1 0x20 ADD PUSH1 0x5 DUP3 ADD SLOAD DUP2 MSTORE PUSH1 0x20 ADD PUSH1 0x6 DUP3 ADD SLOAD DUP2 MSTORE POP POP SWAP1 POP PUSH0 JUMPDEST DUP2 PUSH1 0x60 ADD MLOAD MLOAD DUP2 LT ISZERO PUSH2 0x2FA9 JUMPI DUP2 PUSH1 0x60 ADD MLOAD DUP2 DUP2 MLOAD DUP2 LT PUSH2 0x2F8C JUMPI PUSH2 0x2F8C PUSH2 0x5B8B JUMP JUMPDEST PUSH1 0x20 MUL PUSH1 0x20 ADD ADD MLOAD DUP4 PUSH2 0x2F9F SWAP2 SWAP1 PUSH2 0x5C33 JUMP JUMPDEST SWAP3 POP PUSH1 0x1 ADD PUSH2 0x2F69 JUMP JUMPDEST POP SWAP1 SWAP4 SWAP3 POP POP POP JUMP JUMPDEST PUSH1 0x1 PUSH1 0x1 PUSH1 0xA0 SHL SUB DUP2 AND PUSH0 SWAP1 DUP2 MSTORE PUSH1 0x1B PUSH1 0x20 MSTORE PUSH1 0x40 DUP2 KECCAK256 SLOAD TIMESTAMP SWAP1 DUP3 SWAP1 PUSH1 0x1 JUMPDEST DUP2 DUP2 GT PUSH2 0x3065 JUMPI PUSH1 0x1 PUSH1 0x1 PUSH1 0xA0 SHL SUB DUP7 AND PUSH0 SWAP1 DUP2 MSTORE PUSH1 0x15 PUSH1 0x20 SWAP1 DUP2 MSTORE PUSH1 0x40 DUP1 DUP4 KECCAK256 DUP5 DUP5 MSTORE DUP3 MSTORE SWAP2 DUP3 SWAP1 KECCAK256 DUP3 MLOAD PUSH1 0xA0 DUP2 ADD DUP5 MSTORE DUP2 SLOAD DUP2 MSTORE PUSH1 0x1 DUP3 ADD SLOAD SWAP3 DUP2 ADD SWAP3 SWAP1 SWAP3 MSTORE PUSH1 0x2 DUP2 ADD SLOAD SWAP3 DUP3 ADD SWAP3 SWAP1 SWAP3 MSTORE PUSH1 0x3 DUP3 ADD SLOAD PUSH1 0x60 DUP3 ADD DUP2 SWAP1 MSTORE PUSH1 0x4 SWAP1 SWAP3 ADD SLOAD PUSH1 0x80 DUP3 ADD DUP2 SWAP1 MSTORE SWAP1 SWAP2 GT ISZERO PUSH2 0x3052 JUMPI PUSH1 0x20 DUP2 ADD MLOAD PUSH2 0x304F SWAP1 DUP6 PUSH2 0x5C33 JUMP JUMPDEST SWAP4 POP JUMPDEST POP DUP1 PUSH2 0x305D DUP2 PUSH2 0x5B73 JUMP JUMPDEST SWAP2 POP POP PUSH2 0x2FD1 JUMP JUMPDEST POP PUSH1 0x1 PUSH1 0x1 PUSH1 0xA0 SHL SUB DUP6 AND PUSH0 SWAP1 DUP2 MSTORE PUSH1 0x12 PUSH1 0x20 MSTORE PUSH1 0x40 SWAP1 KECCAK256 PUSH1 0x8 DUP2 ADD SLOAD PUSH1 0x9 SWAP1 SWAP2 ADD SLOAD DUP2 DUP6 GT ISZERO DUP1 PUSH2 0x3097 JUMPI POP DUP2 DUP2 GT ISZERO JUMPDEST ISZERO PUSH2 0x30A8 JUMPI POP PUSH0 SWAP7 SWAP6 POP POP POP POP POP POP JUMP JUMPDEST PUSH0 DUP3 DUP7 DUP4 GT ISZERO PUSH2 0x30B8 JUMPI DUP7 PUSH2 0x30BA JUMP JUMPDEST DUP3 JUMPDEST PUSH2 0x30C4 SWAP2 SWAP1 PUSH2 0x5B4C JUMP JUMPDEST SWAP1 POP PUSH0 PUSH2 0x30D1 DUP5 DUP5 PUSH2 0x5B4C JUMP JUMPDEST SWAP1 POP PUSH0 PUSH2 0x30DF DUP3 PUSH1 0x64 PUSH2 0x5B35 JUMP JUMPDEST DUP4 PUSH2 0x30EB DUP10 PUSH1 0xA PUSH2 0x5B35 JUMP JUMPDEST PUSH2 0x30F5 SWAP2 SWAP1 PUSH2 0x5B35 JUMP JUMPDEST PUSH2 0x30FF SWAP2 SWAP1 PUSH2 0x5C14 JUMP JUMPDEST SWAP1 POP PUSH2 0x310B DUP11 DUP3 PUSH2 0x3C3B JUMP JUMPDEST SWAP11 SWAP10 POP POP POP POP POP POP POP POP POP POP JUMP JUMPDEST PUSH0 PUSH2 0x3123 DUP3 PUSH2 0x2EB4 JUMP JUMPDEST PUSH1 0x1 PUSH1 0x1 PUSH1 0xA0 SHL SUB DUP4 AND PUSH0 SWAP1 DUP2 MSTORE PUSH1 0x19 PUSH1 0x20 MSTORE PUSH1 0x40 SWAP1 KECCAK256 PUSH1 0x5 DUP2 ADD SLOAD PUSH1 0x1 DUP3 ADD SLOAD PUSH1 0x2 DUP4 ADD SLOAD SWAP3 SLOAD SWAP2 SWAP3 SWAP1 SWAP2 PUSH2 0x3159 SWAP2 SWAP1 PUSH2 0x5C33 JUMP JUMPDEST PUSH2 0x3163 SWAP2 SWAP1 PUSH2 0x5C33 JUMP JUMPDEST PUSH2 0x316D SWAP2 SWAP1 PUSH2 0x5C33 JUMP JUMPDEST PUSH2 0x2B84 SWAP2 SWAP1 PUSH2 0x5C33 JUMP JUMPDEST PUSH1 0x1 PUSH1 0x1 PUSH1 0xA0 SHL SUB DUP2 AND PUSH0 SWAP1 DUP2 MSTORE PUSH1 0x12 PUSH1 0x20 MSTORE PUSH1 0x40 DUP2 KECCAK256 PUSH1 0x4 DUP2 ADD SLOAD PUSH1 0xB SWAP1 SWAP2 ADD SLOAD PUSH1 0xFF AND PUSH2 0x31A7 JUMPI PUSH1 0x3 PUSH2 0x31AA JUMP JUMPDEST PUSH1 0x4 JUMPDEST PUSH1 0xFF AND PUSH2 0x2B84 SWAP2 SWAP1 PUSH2 0x5B35 JUMP JUMPDEST PUSH1 0x1 PUSH1 0x1 PUSH1 0xA0 SHL SUB DUP2 AND PUSH0 SWAP1 DUP2 MSTORE PUSH1 0x12 PUSH1 0x20 MSTORE PUSH1 0x40 DUP2 KECCAK256 PUSH1 0x7 ADD SLOAD PUSH2 0x2B84 SWAP1 PUSH2 0xA8C PUSH2 0x5C33 JUMP JUMPDEST PUSH0 PUSH2 0x31E8 DUP3 PUSH2 0x3177 JUMP JUMPDEST PUSH2 0x31F1 DUP4 PUSH2 0x3119 JUMP JUMPDEST LT SWAP3 SWAP2 POP POP JUMP JUMPDEST PUSH1 0x3 SLOAD PUSH0 SWAP1 PUSH1 0x1 PUSH1 0x1 PUSH1 0xA0 SHL SUB AND CALLER EQ DUP1 PUSH2 0x2E6F JUMPI POP POP PUSH1 0xC SLOAD PUSH2 0x100 SWAP1 DIV PUSH1 0x1 PUSH1 0x1 PUSH1 0xA0 SHL SUB AND CALLER EQ SWAP1 JUMP JUMPDEST PUSH1 0x1 PUSH1 0x1 PUSH1 0xA0 SHL SUB AND PUSH0 SWAP1 DUP2 MSTORE PUSH1 0x12 PUSH1 0x20 MSTORE PUSH1 0x40 SWAP1 KECCAK256 PUSH1 0x6 ADD SLOAD PUSH1 0xFF AND ISZERO SWAP1 JUMP JUMPDEST PUSH1 0x1 PUSH1 0x1 PUSH1 0xA0 SHL SUB DUP2 AND PUSH0 SWAP1 DUP2 MSTORE PUSH1 0x12 PUSH1 0x20 MSTORE PUSH1 0x40 DUP2 KECCAK256 PUSH1 0x9 ADD SLOAD TIMESTAMP LT ISZERO DUP1 PUSH2 0x2B84 JUMPI POP PUSH2 0x3273 DUP3 PUSH2 0x31DE JUMP JUMPDEST ISZERO SWAP3 SWAP2 POP POP JUMP JUMPDEST PUSH0 PUSH2 0x3287 PUSH1 0x12 PUSH1 0xA PUSH2 0x5D29 JUMP JUMPDEST PUSH2 0x2B84 SWAP1 DUP4 PUSH2 0x5B35 JUMP JUMPDEST PUSH1 0x40 MLOAD PUSH4 0x70A08231 PUSH1 0xE0 SHL DUP2 MSTORE ADDRESS PUSH1 0x4 DUP3 ADD MSTORE PUSH0 SWAP1 PUSH20 0x4622B46DF102FD8648385BC96FD7A837111AEC61 SWAP1 PUSH4 0x70A08231 SWAP1 PUSH1 0x24 ADD PUSH1 0x20 PUSH1 0x40 MLOAD DUP1 DUP4 SUB DUP2 DUP7 GAS STATICCALL ISZERO DUP1 ISZERO PUSH2 0x32E0 JUMPI RETURNDATASIZE PUSH0 DUP1 RETURNDATACOPY RETURNDATASIZE PUSH0 REVERT JUMPDEST POP POP POP POP PUSH1 0x40 MLOAD RETURNDATASIZE PUSH1 0x1F NOT PUSH1 0x1F DUP3 ADD AND DUP3 ADD DUP1 PUSH1 0x40 MSTORE POP DUP2 ADD SWAP1 PUSH2 0x2E6F SWAP2 SWAP1 PUSH2 0x5D34 JUMP JUMPDEST PUSH1 0x1 PUSH1 0x1 PUSH1 0xA0 SHL SUB AND PUSH0 SWAP1 DUP2 MSTORE PUSH1 0x12 PUSH1 0x20 MSTORE PUSH1 0x40 SWAP1 KECCAK256 SLOAD ISZERO ISZERO SWAP1 JUMP JUMPDEST PUSH1 0x40 MLOAD PUSH4 0xA9059CBB PUSH1 0xE0 SHL DUP2 MSTORE PUSH1 0x1 PUSH1 0x1 PUSH1 0xA0 SHL SUB DUP4 AND PUSH1 0x4 DUP3 ADD MSTORE PUSH1 0x24 DUP2 ADD DUP3 SWAP1 MSTORE PUSH20 0x4622B46DF102FD8648385BC96FD7A837111AEC61 SWAP1 PUSH4 0xA9059CBB SWAP1 PUSH1 0x44 ADD PUSH1 0x20 PUSH1 0x40 MLOAD DUP1 DUP4 SUB DUP2 PUSH0 DUP8 GAS CALL ISZERO DUP1 ISZERO PUSH2 0x337E JUMPI RETURNDATASIZE PUSH0 DUP1 RETURNDATACOPY RETURNDATASIZE PUSH0 REVERT JUMPDEST POP POP POP POP PUSH1 0x40 MLOAD RETURNDATASIZE PUSH1 0x1F NOT PUSH1 0x1F DUP3 ADD AND DUP3 ADD DUP1 PUSH1 0x40 MSTORE POP DUP2 ADD SWAP1 PUSH2 0x2D17 SWAP2 SWAP1 PUSH2 0x5D4B JUMP JUMPDEST PUSH1 0x7 SLOAD PUSH1 0x1 PUSH1 0x1 PUSH1 0xA0 SHL SUB AND PUSH2 0x33FA JUMPI PUSH1 0x40 MLOAD PUSH3 0x461BCD PUSH1 0xE5 SHL DUP2 MSTORE PUSH1 0x20 PUSH1 0x4 DUP3 ADD MSTORE PUSH1 0x1E PUSH1 0x24 DUP3 ADD MSTORE PUSH32 0x53656375726974792066756E6420636F6E7472616374206E6F74207365740000 PUSH1 0x44 DUP3 ADD MSTORE PUSH1 0x64 ADD PUSH2 0x1712 JUMP JUMPDEST PUSH1 0x7 SLOAD PUSH1 0x40 MLOAD PUSH4 0x58908A0F PUSH1 0xE0 SHL DUP2 MSTORE PUSH20 0x4622B46DF102FD8648385BC96FD7A837111AEC61 PUSH1 0x4 DUP3 ADD MSTORE PUSH1 0x1 PUSH1 0x1 PUSH1 0xA0 SHL SUB DUP5 DUP2 AND PUSH1 0x24 DUP4 ADD MSTORE PUSH1 0x44 DUP3 ADD DUP5 SWAP1 MSTORE SWAP1 SWAP2 AND SWAP1 PUSH4 0x58908A0F SWAP1 PUSH1 0x64 ADD PUSH0 PUSH1 0x40 MLOAD DUP1 DUP4 SUB DUP2 PUSH0 DUP8 DUP1 EXTCODESIZE ISZERO DUP1 ISZERO PUSH2 0x345F JUMPI PUSH0 DUP1 REVERT JUMPDEST POP GAS CALL ISZERO DUP1 ISZERO PUSH2 0x1CD1 JUMPI RETURNDATASIZE PUSH0 DUP1 RETURNDATACOPY RETURNDATASIZE PUSH0 REVERT JUMPDEST PUSH1 0x1 PUSH1 0x1 PUSH1 0xA0 SHL SUB DUP3 AND PUSH0 SWAP1 DUP2 MSTORE PUSH1 0x1B PUSH1 0x20 MSTORE PUSH1 0x40 DUP2 KECCAK256 SLOAD PUSH1 0x1 JUMPDEST DUP2 DUP2 GT PUSH2 0x34DC JUMPI PUSH1 0x1 PUSH1 0x1 PUSH1 0xA0 SHL SUB DUP6 AND PUSH0 SWAP1 DUP2 MSTORE PUSH1 0x15 PUSH1 0x20 SWAP1 DUP2 MSTORE PUSH1 0x40 DUP1 DUP4 KECCAK256 DUP5 DUP5 MSTORE SWAP1 SWAP2 MSTORE SWAP1 KECCAK256 PUSH1 0x1 ADD SLOAD DUP5 GT PUSH2 0x34CA JUMPI PUSH1 0x1 SWAP3 POP POP POP PUSH2 0x2B84 JUMP JUMPDEST DUP1 PUSH2 0x34D4 DUP2 PUSH2 0x5B73 JUMP JUMPDEST SWAP2 POP POP PUSH2 0x348C JUMP JUMPDEST POP PUSH0 SWAP5 SWAP4 POP POP POP POP JUMP JUMPDEST CALLER PUSH2 0x34F0 DUP2 PUSH2 0x3304 JUMP JUMPDEST PUSH2 0x3536 JUMPI PUSH1 0x40 MLOAD PUSH3 0x461BCD PUSH1 0xE5 SHL DUP2 MSTORE PUSH1 0x20 PUSH1 0x4 DUP3 ADD MSTORE PUSH1 0x17 PUSH1 0x24 DUP3 ADD MSTORE PUSH23 0x596F7520617265206E6F74207265676973746572656421 PUSH1 0x48 SHL PUSH1 0x44 DUP3 ADD MSTORE PUSH1 0x64 ADD PUSH2 0x1712 JUMP JUMPDEST PUSH2 0x353F DUP2 PUSH2 0x3246 JUMP JUMPDEST PUSH2 0x359D JUMPI PUSH1 0x40 MLOAD PUSH3 0x461BCD PUSH1 0xE5 SHL DUP2 MSTORE PUSH1 0x20 PUSH1 0x4 DUP3 ADD MSTORE PUSH1 0x29 PUSH1 0x24 DUP3 ADD MSTORE PUSH32 0x4465706F73697420697320616C6C6F776564206F6E6C79206166746572207468 PUSH1 0x44 DUP3 ADD MSTORE PUSH9 0x329032BC3834B93C97 PUSH1 0xB9 SHL PUSH1 0x64 DUP3 ADD MSTORE PUSH1 0x84 ADD PUSH2 0x1712 JUMP JUMPDEST PUSH2 0x35A6 DUP3 PUSH2 0x3D6C JUMP JUMPDEST PUSH0 PUSH2 0x35B2 DUP3 DUP6 DUP6 PUSH2 0x3643 JUMP JUMPDEST PUSH1 0x3 SLOAD SWAP1 SWAP2 POP PUSH2 0x35E1 SWAP1 PUSH1 0x1 PUSH1 0x1 PUSH1 0xA0 SHL SUB AND PUSH1 0x64 PUSH2 0x35D2 DUP7 PUSH1 0x2 PUSH2 0x5B35 JUMP JUMPDEST PUSH2 0x35DC SWAP2 SWAP1 PUSH2 0x5C14 JUMP JUMPDEST PUSH2 0x3320 JUMP JUMPDEST PUSH1 0x4 SLOAD PUSH2 0x35FE SWAP1 PUSH1 0x1 PUSH1 0x1 PUSH1 0xA0 SHL SUB AND PUSH1 0x64 PUSH2 0x35D2 DUP7 PUSH1 0x1 PUSH2 0x5B35 JUMP JUMPDEST PUSH1 0x6 SLOAD PUSH2 0x361B SWAP1 PUSH1 0x1 PUSH1 0x1 PUSH1 0xA0 SHL SUB AND PUSH1 0x64 PUSH2 0x35D2 DUP7 PUSH1 0x5 PUSH2 0x5B35 JUMP JUMPDEST DUP1 PUSH2 0x363D JUMPI PUSH1 0x5 SLOAD PUSH2 0x363D SWAP1 PUSH1 0x1 PUSH1 0x1 PUSH1 0xA0 SHL SUB AND PUSH1 0x64 PUSH2 0x35D2 DUP7 PUSH1 0x2 PUSH2 0x5B35 JUMP JUMPDEST POP POP POP POP JUMP JUMPDEST PUSH0 DUP3 DUP2 MSTORE PUSH1 0xF PUSH1 0x20 MSTORE PUSH1 0x40 DUP2 KECCAK256 PUSH1 0x3 ADD SLOAD PUSH1 0xFF AND DUP1 ISZERO PUSH2 0x36EA JUMPI POP PUSH0 DUP4 DUP2 MSTORE PUSH1 0xF PUSH1 0x20 MSTORE PUSH1 0x40 SWAP1 KECCAK256 PUSH1 0x3 ADD SLOAD PUSH2 0x100 SWAP1 DIV PUSH1 0xFF AND ISZERO DUP1 ISZERO PUSH2 0x3693 JUMPI POP PUSH0 DUP4 DUP2 MSTORE PUSH1 0xF PUSH1 0x20 MSTORE PUSH1 0x40 SWAP1 KECCAK256 PUSH1 0x2 ADD SLOAD DUP3 EQ JUMPDEST DUP1 PUSH2 0x36EA JUMPI POP PUSH0 DUP4 DUP2 MSTORE PUSH1 0xF PUSH1 0x20 MSTORE PUSH1 0x40 SWAP1 KECCAK256 PUSH1 0x3 ADD SLOAD PUSH2 0x100 SWAP1 DIV PUSH1 0xFF AND DUP1 ISZERO PUSH2 0x36CE JUMPI POP PUSH0 DUP4 DUP2 MSTORE PUSH1 0xF PUSH1 0x20 MSTORE PUSH1 0x40 SWAP1 KECCAK256 PUSH1 0x4 ADD SLOAD DUP3 LT ISZERO JUMPDEST DUP1 ISZERO PUSH2 0x36EA JUMPI POP PUSH0 DUP4 DUP2 MSTORE PUSH1 0xF PUSH1 0x20 MSTORE PUSH1 0x40 SWAP1 KECCAK256 PUSH1 0x5 ADD SLOAD DUP3 GT ISZERO JUMPDEST PUSH2 0x3728 JUMPI PUSH1 0x40 MLOAD PUSH3 0x461BCD PUSH1 0xE5 SHL DUP2 MSTORE PUSH1 0x20 PUSH1 0x4 DUP3 ADD MSTORE PUSH1 0xF PUSH1 0x24 DUP3 ADD MSTORE PUSH15 0x496E76616C696420616D6F756E7421 PUSH1 0x88 SHL PUSH1 0x44 DUP3 ADD MSTORE PUSH1 0x64 ADD PUSH2 0x1712 JUMP JUMPDEST PUSH1 0x1 PUSH1 0x1 PUSH1 0xA0 SHL SUB DUP5 AND PUSH0 SWAP1 DUP2 MSTORE PUSH1 0x15 PUSH1 0x20 SWAP1 DUP2 MSTORE PUSH1 0x40 DUP1 DUP4 KECCAK256 PUSH1 0x1B DUP4 MSTORE DUP2 DUP5 KECCAK256 SLOAD DUP5 MSTORE SWAP1 SWAP2 MSTORE SWAP1 KECCAK256 PUSH1 0x1 ADD SLOAD DUP3 LT ISZERO PUSH2 0x37CA JUMPI PUSH1 0x40 MLOAD PUSH3 0x461BCD PUSH1 0xE5 SHL DUP2 MSTORE PUSH1 0x20 PUSH1 0x4 DUP3 ADD MSTORE PUSH1 0x3D PUSH1 0x24 DUP3 ADD MSTORE PUSH32 0x416D6F756E74206D75737420626520657175616C20746F206F72206D6F726520 PUSH1 0x44 DUP3 ADD MSTORE PUSH32 0x7468616E2070726576696F7573206465706F73697420616D6F756E742E000000 PUSH1 0x64 DUP3 ADD MSTORE PUSH1 0x84 ADD PUSH2 0x1712 JUMP JUMPDEST PUSH0 TIMESTAMP SWAP1 POP DUP3 PUSH1 0x1 PUSH0 DUP3 DUP3 SLOAD PUSH2 0x37DF SWAP2 SWAP1 PUSH2 0x5C33 JUMP JUMPDEST SWAP1 SWAP2 SSTORE POP POP PUSH1 0x1 PUSH1 0x1 PUSH1 0xA0 SHL SUB DUP6 DUP2 AND PUSH0 SWAP1 DUP2 MSTORE PUSH1 0x12 PUSH1 0x20 MSTORE PUSH1 0x40 SWAP1 KECCAK256 PUSH1 0x2 DUP2 ADD SLOAD PUSH1 0xB SWAP1 SWAP2 ADD SLOAD SWAP2 AND SWAP1 PUSH2 0x100 SWAP1 DIV PUSH1 0xFF AND PUSH2 0x3870 JUMPI PUSH1 0x1 PUSH1 0x1 PUSH1 0xA0 SHL SUB DUP2 AND ISZERO PUSH2 0x3866 JUMPI PUSH1 0x1 PUSH1 0x1 PUSH1 0xA0 SHL SUB DUP2 DUP2 AND PUSH0 SWAP1 DUP2 MSTORE PUSH1 0x14 PUSH1 0x20 SWAP1 DUP2 MSTORE PUSH1 0x40 DUP3 KECCAK256 PUSH1 0x1 SWAP1 DUP2 ADD DUP1 SLOAD SWAP2 DUP3 ADD DUP2 SSTORE DUP4 MSTORE SWAP2 KECCAK256 ADD DUP1 SLOAD PUSH1 0x1 PUSH1 0x1 PUSH1 0xA0 SHL SUB NOT AND SWAP2 DUP9 AND SWAP2 SWAP1 SWAP2 OR SWAP1 SSTORE JUMPDEST PUSH2 0x3870 DUP2 DUP8 PUSH2 0x3E4E JUMP JUMPDEST PUSH1 0x1 PUSH1 0x1 PUSH1 0xA0 SHL SUB DUP7 AND PUSH0 SWAP1 DUP2 MSTORE PUSH1 0x12 PUSH1 0x20 MSTORE PUSH1 0x40 DUP2 KECCAK256 PUSH1 0x4 ADD DUP1 SLOAD DUP7 SWAP3 SWAP1 PUSH2 0x389A SWAP1 DUP5 SWAP1 PUSH2 0x5C33 JUMP JUMPDEST SWAP1 SWAP2 SSTORE POP POP PUSH1 0x1 PUSH1 0x1 PUSH1 0xA0 SHL SUB DUP2 AND PUSH0 SWAP1 DUP2 MSTORE PUSH1 0x14 PUSH1 0x20 MSTORE PUSH1 0x40 DUP2 KECCAK256 DUP1 SLOAD DUP7 SWAP3 SWAP1 PUSH2 0x38C6 SWAP1 DUP5 SWAP1 PUSH2 0x5C33 JUMP JUMPDEST SWAP1 SWAP2 SSTORE POP PUSH2 0x38D7 SWAP1 POP DUP2 DUP8 DUP7 PUSH2 0x3EDC JUMP JUMPDEST PUSH1 0x40 DUP1 MLOAD PUSH1 0xA0 DUP2 ADD DUP3 MSTORE DUP7 DUP2 MSTORE PUSH1 0x20 DUP1 DUP3 ADD DUP8 SWAP1 MSTORE DUP2 DUP4 ADD DUP6 SWAP1 MSTORE PUSH1 0x1 PUSH1 0x1 PUSH1 0xA0 SHL SUB DUP10 AND PUSH0 SWAP1 DUP2 MSTORE PUSH1 0x12 SWAP1 SWAP2 MSTORE SWAP2 DUP3 KECCAK256 PUSH1 0xB ADD SLOAD PUSH1 0x60 DUP3 ADD SWAP1 DUP8 SWAP1 PUSH1 0xFF AND PUSH2 0x3921 JUMPI PUSH1 0x3 PUSH2 0x3924 JUMP JUMPDEST PUSH1 0x4 JUMPDEST PUSH1 0xFF AND PUSH2 0x3931 SWAP2 SWAP1 PUSH2 0x5B35 JUMP JUMPDEST DUP2 MSTORE PUSH1 0x20 ADD PUSH0 DUP2 MSTORE POP SWAP1 POP PUSH2 0x3947 DUP8 DUP7 PUSH0 PUSH2 0x4044 JUMP JUMPDEST PUSH1 0x1 PUSH1 0x1 PUSH1 0xA0 SHL SUB DUP8 AND PUSH0 SWAP1 DUP2 MSTORE PUSH1 0x15 PUSH1 0x20 SWAP1 DUP2 MSTORE PUSH1 0x40 DUP1 DUP4 KECCAK256 PUSH1 0x1B SWAP1 SWAP3 MSTORE DUP3 KECCAK256 SLOAD DUP4 SWAP3 SWAP1 PUSH2 0x3977 SWAP1 PUSH1 0x1 PUSH2 0x5C33 JUMP JUMPDEST DUP2 MSTORE PUSH1 0x20 DUP1 DUP3 ADD SWAP3 SWAP1 SWAP3 MSTORE PUSH1 0x40 SWAP1 DUP2 ADD PUSH0 SWAP1 DUP2 KECCAK256 DUP5 MLOAD DUP2 SSTORE DUP5 DUP5 ADD MLOAD PUSH1 0x1 DUP3 ADD SSTORE DUP5 DUP4 ADD MLOAD PUSH1 0x2 DUP3 ADD SSTORE PUSH1 0x60 DUP6 ADD MLOAD PUSH1 0x3 DUP3 ADD SSTORE PUSH1 0x80 SWAP1 SWAP5 ADD MLOAD PUSH1 0x4 SWAP1 SWAP5 ADD SWAP4 SWAP1 SWAP4 SSTORE PUSH1 0x1 PUSH1 0x1 PUSH1 0xA0 SHL SUB DUP11 AND DUP4 MSTORE PUSH1 0x1B SWAP1 SWAP2 MSTORE DUP2 KECCAK256 DUP1 SLOAD SWAP2 PUSH2 0x39D9 DUP4 PUSH2 0x5B73 JUMP JUMPDEST SWAP2 SWAP1 POP SSTORE POP PUSH2 0x39E9 DUP8 DUP5 DUP8 PUSH2 0x3B7B JUMP JUMPDEST POP PUSH1 0x1 PUSH1 0x1 PUSH1 0xA0 SHL SUB DUP8 AND PUSH0 SWAP1 DUP2 MSTORE PUSH1 0x12 PUSH1 0x20 MSTORE PUSH1 0x40 SWAP1 KECCAK256 PUSH1 0xB ADD SLOAD PUSH2 0x100 SWAP1 DIV PUSH1 0xFF AND ISZERO SWAP4 POP DUP4 ISZERO PUSH2 0x3AAD JUMPI PUSH1 0x1 PUSH1 0x1 PUSH1 0xA0 SHL SUB DUP8 AND PUSH0 DUP2 DUP2 MSTORE PUSH1 0x12 PUSH1 0x20 MSTORE PUSH1 0x40 DUP2 KECCAK256 PUSH1 0x7 ADD DUP6 SWAP1 SSTORE PUSH1 0x1C DUP1 SLOAD PUSH1 0x1 DUP2 ADD DUP3 SSTORE SWAP2 MSTORE PUSH32 0xE4562A10381DEC21B205ED72637E6B1B523BDD0E4D4D50AF5CD23DD4500A211 ADD DUP1 SLOAD PUSH1 0x1 PUSH1 0x1 PUSH1 0xA0 SHL SUB NOT AND SWAP1 SWAP2 OR SWAP1 SSTORE PUSH2 0x3A7C DUP8 DUP7 PUSH2 0x4174 JUMP JUMPDEST PUSH2 0x3A85 DUP6 PUSH2 0x42A1 JUMP JUMPDEST PUSH1 0x1 PUSH1 0x1 PUSH1 0xA0 SHL SUB DUP8 AND PUSH0 SWAP1 DUP2 MSTORE PUSH1 0x12 PUSH1 0x20 MSTORE PUSH1 0x40 SWAP1 KECCAK256 PUSH1 0xB ADD DUP1 SLOAD PUSH2 0xFF00 NOT AND PUSH2 0x100 OR SWAP1 SSTORE JUMPDEST POP POP POP SWAP4 SWAP3 POP POP POP JUMP JUMPDEST CALLER PUSH2 0x3AC1 DUP3 PUSH2 0x2B6A JUMP JUMPDEST DUP1 ISZERO PUSH2 0x3AE6 JUMPI POP PUSH1 0x1 PUSH1 0x1 PUSH1 0xA0 SHL SUB DUP3 AND PUSH0 SWAP1 DUP2 MSTORE PUSH1 0x12 PUSH1 0x20 MSTORE PUSH1 0x40 SWAP1 KECCAK256 PUSH1 0x4 ADD SLOAD ISZERO ISZERO JUMPDEST PUSH2 0x3B25 JUMPI PUSH1 0x40 MLOAD PUSH3 0x461BCD PUSH1 0xE5 SHL DUP2 MSTORE PUSH1 0x20 PUSH1 0x4 DUP3 ADD MSTORE PUSH1 0x10 PUSH1 0x24 DUP3 ADD MSTORE PUSH16 0x496E76616C69642073706F6E736F7221 PUSH1 0x80 SHL PUSH1 0x44 DUP3 ADD MSTORE PUSH1 0x64 ADD PUSH2 0x1712 JUMP JUMPDEST PUSH2 0x3B2E DUP2 PUSH2 0x3304 JUMP JUMPDEST ISZERO PUSH2 0x3B71 JUMPI PUSH1 0x40 MLOAD PUSH3 0x461BCD PUSH1 0xE5 SHL DUP2 MSTORE PUSH1 0x20 PUSH1 0x4 DUP3 ADD MSTORE PUSH1 0x13 PUSH1 0x24 DUP3 ADD MSTORE PUSH19 0x416C7265616479207265676973746572656421 PUSH1 0x68 SHL PUSH1 0x44 DUP3 ADD MSTORE PUSH1 0x64 ADD PUSH2 0x1712 JUMP JUMPDEST PUSH2 0x2627 DUP2 DUP4 PUSH2 0x46F2 JUMP JUMPDEST PUSH1 0x1 PUSH1 0x1 PUSH1 0xA0 SHL SUB DUP4 AND PUSH0 SWAP1 DUP2 MSTORE PUSH1 0x1B PUSH1 0x20 MSTORE PUSH1 0x40 DUP2 KECCAK256 PUSH1 0x3 ADD SLOAD DUP2 SWAP1 PUSH2 0x3BA4 SWAP1 PUSH1 0x2 SWAP1 PUSH2 0x5C14 JUMP JUMPDEST PUSH2 0x3BAF SWAP1 PUSH1 0xA PUSH2 0x5C33 JUMP JUMPDEST SWAP1 POP PUSH0 PUSH2 0x3BBD DUP3 PUSH1 0x3C PUSH2 0x5B35 JUMP JUMPDEST PUSH2 0x3BC7 SWAP1 DUP7 PUSH2 0x5C33 JUMP JUMPDEST PUSH1 0x1 PUSH1 0x1 PUSH1 0xA0 SHL SUB DUP8 AND PUSH0 SWAP1 DUP2 MSTORE PUSH1 0x12 PUSH1 0x20 SWAP1 DUP2 MSTORE PUSH1 0x40 DUP1 DUP4 KECCAK256 PUSH1 0x8 DUP2 ADD DUP1 SLOAD PUSH1 0x9 SWAP1 SWAP3 ADD DUP1 SLOAD SWAP2 DUP13 SWAP1 SSTORE DUP7 SWAP1 SSTORE PUSH1 0x1B SWAP1 SWAP4 MSTORE SWAP1 DUP4 KECCAK256 PUSH1 0x3 ADD DUP1 SLOAD SWAP5 SWAP6 POP SWAP1 SWAP4 SWAP2 SWAP3 PUSH2 0x3C12 DUP4 PUSH2 0x5B73 JUMP JUMPDEST SWAP2 SWAP1 POP SSTORE POP PUSH2 0x3C24 DUP9 DUP9 DUP5 DUP5 DUP11 PUSH2 0x4AE9 JUMP JUMPDEST PUSH2 0x3C2D DUP9 PUSH2 0x4CF1 JUMP JUMPDEST POP PUSH1 0x1 SWAP8 SWAP7 POP POP POP POP POP POP POP JUMP JUMPDEST PUSH1 0x1 PUSH1 0x1 PUSH1 0xA0 SHL SUB DUP3 AND PUSH0 SWAP1 DUP2 MSTORE PUSH1 0x12 PUSH1 0x20 MSTORE PUSH1 0x40 DUP2 KECCAK256 PUSH1 0x9 ADD SLOAD TIMESTAMP LT PUSH2 0x3C63 JUMPI POP PUSH0 PUSH2 0x2B84 JUMP JUMPDEST PUSH1 0x1 PUSH1 0x1 PUSH1 0xA0 SHL SUB DUP4 AND PUSH0 SWAP1 DUP2 MSTORE PUSH1 0x1B PUSH1 0x20 MSTORE PUSH1 0x40 DUP2 KECCAK256 SLOAD SWAP1 DUP4 SWAP1 PUSH1 0x1 JUMPDEST DUP4 DUP2 GT PUSH2 0x3D62 JUMPI PUSH1 0x1 PUSH1 0x1 PUSH1 0xA0 SHL SUB DUP8 AND PUSH0 SWAP1 DUP2 MSTORE PUSH1 0x15 PUSH1 0x20 SWAP1 DUP2 MSTORE PUSH1 0x40 DUP1 DUP4 KECCAK256 DUP5 DUP5 MSTORE DUP3 MSTORE DUP1 DUP4 KECCAK256 DUP2 MLOAD PUSH1 0xA0 DUP2 ADD DUP4 MSTORE DUP2 SLOAD DUP2 MSTORE PUSH1 0x1 DUP3 ADD SLOAD SWAP4 DUP2 ADD SWAP4 SWAP1 SWAP4 MSTORE PUSH1 0x2 DUP2 ADD SLOAD SWAP2 DUP4 ADD SWAP2 SWAP1 SWAP2 MSTORE PUSH1 0x3 DUP2 ADD SLOAD PUSH1 0x60 DUP4 ADD DUP2 SWAP1 MSTORE PUSH1 0x4 SWAP1 SWAP2 ADD SLOAD PUSH1 0x80 DUP4 ADD DUP2 SWAP1 MSTORE SWAP2 SWAP3 SWAP2 LT PUSH2 0x3CF5 JUMPI PUSH0 PUSH2 0x3D09 JUMP JUMPDEST DUP2 PUSH1 0x80 ADD MLOAD DUP3 PUSH1 0x60 ADD MLOAD PUSH2 0x3D09 SWAP2 SWAP1 PUSH2 0x5B4C JUMP JUMPDEST SWAP1 POP DUP1 ISZERO PUSH2 0x3D4D JUMPI PUSH0 DUP2 DUP7 GT ISZERO PUSH2 0x3D20 JUMPI DUP2 PUSH2 0x3D22 JUMP JUMPDEST DUP6 JUMPDEST SWAP1 POP PUSH2 0x3D2E DUP2 DUP7 PUSH2 0x5C33 JUMP JUMPDEST SWAP5 POP PUSH2 0x3D3A DUP2 DUP8 PUSH2 0x5B4C JUMP JUMPDEST SWAP6 POP DUP6 PUSH0 SUB PUSH2 0x3D4B JUMPI POP POP POP PUSH2 0x3D62 JUMP JUMPDEST POP JUMPDEST POP POP DUP1 DUP1 PUSH2 0x3D5A SWAP1 PUSH2 0x5B73 JUMP JUMPDEST SWAP2 POP POP PUSH2 0x3C81 JUMP JUMPDEST POP SWAP6 SWAP5 POP POP POP POP POP JUMP JUMPDEST PUSH0 PUSH2 0x3D75 PUSH2 0x3291 JUMP JUMPDEST PUSH1 0x40 MLOAD PUSH4 0x23B872DD PUSH1 0xE0 SHL DUP2 MSTORE CALLER PUSH1 0x4 DUP3 ADD MSTORE ADDRESS PUSH1 0x24 DUP3 ADD MSTORE PUSH1 0x44 DUP2 ADD DUP5 SWAP1 MSTORE SWAP1 SWAP2 POP PUSH20 0x4622B46DF102FD8648385BC96FD7A837111AEC61 SWAP1 PUSH4 0x23B872DD SWAP1 PUSH1 0x64 ADD PUSH1 0x20 PUSH1 0x40 MLOAD DUP1 DUP4 SUB DUP2 PUSH0 DUP8 GAS CALL ISZERO DUP1 ISZERO PUSH2 0x3DD3 JUMPI RETURNDATASIZE PUSH0 DUP1 RETURNDATACOPY RETURNDATASIZE PUSH0 REVERT JUMPDEST POP POP POP POP PUSH1 0x40 MLOAD RETURNDATASIZE PUSH1 0x1F NOT PUSH1 0x1F DUP3 ADD AND DUP3 ADD DUP1 PUSH1 0x40 MSTORE POP DUP2 ADD SWAP1 PUSH2 0x3DF7 SWAP2 SWAP1 PUSH2 0x5D4B JUMP JUMPDEST POP PUSH0 PUSH2 0x3E01 PUSH2 0x3291 JUMP JUMPDEST SWAP1 POP DUP3 PUSH2 0x3E0E DUP4 DUP4 PUSH2 0x5B4C JUMP JUMPDEST LT ISZERO PUSH2 0x2D17 JUMPI PUSH1 0x40 MLOAD PUSH3 0x461BCD PUSH1 0xE5 SHL DUP2 MSTORE PUSH1 0x20 PUSH1 0x4 DUP3 ADD MSTORE PUSH1 0xF PUSH1 0x24 DUP3 ADD MSTORE PUSH15 0x496E76616C696420616D6F756E7421 PUSH1 0x88 SHL PUSH1 0x44 DUP3 ADD MSTORE PUSH1 0x64 ADD PUSH2 0x1712 JUMP JUMPDEST PUSH1 0x1 PUSH1 0x1 PUSH1 0xA0 SHL SUB DUP3 AND ISZERO PUSH2 0x2627 JUMPI PUSH1 0x1 PUSH1 0x1 PUSH1 0xA0 SHL SUB DUP3 AND PUSH0 SWAP1 DUP2 MSTORE PUSH1 0x12 PUSH1 0x20 MSTORE PUSH1 0x40 DUP2 KECCAK256 PUSH1 0x5 ADD DUP1 SLOAD SWAP2 PUSH2 0x3E83 DUP4 PUSH2 0x5B73 JUMP JUMPDEST SWAP1 SWAP2 SSTORE POP POP PUSH1 0x1 PUSH1 0x1 PUSH1 0xA0 SHL SUB SWAP2 DUP3 AND PUSH0 DUP2 DUP2 MSTORE PUSH1 0x14 PUSH1 0x20 SWAP1 DUP2 MSTORE PUSH1 0x40 DUP1 DUP4 KECCAK256 PUSH1 0x5 ADD DUP1 SLOAD PUSH1 0x1 DUP2 ADD DUP3 SSTORE SWAP1 DUP5 MSTORE DUP3 DUP5 KECCAK256 ADD DUP1 SLOAD PUSH1 0x1 PUSH1 0x1 PUSH1 0xA0 SHL SUB NOT AND DUP7 DUP9 AND OR SWAP1 SSTORE SWAP3 DUP3 MSTORE PUSH1 0x12 SWAP1 MSTORE KECCAK256 PUSH1 0x2 ADD SLOAD SWAP1 SWAP2 AND SWAP1 PUSH2 0x3E4E JUMP JUMPDEST PUSH2 0x3EE5 DUP3 PUSH2 0x4E5D JUMP JUMPDEST PUSH1 0x1 JUMPDEST PUSH1 0x1 PUSH1 0x1 PUSH1 0xA0 SHL SUB DUP5 AND ISZERO PUSH2 0x363D JUMPI PUSH1 0x1 PUSH1 0x1 PUSH1 0xA0 SHL SUB DUP5 AND PUSH0 SWAP1 DUP2 MSTORE PUSH1 0x14 PUSH1 0x20 MSTORE PUSH1 0x40 SWAP1 KECCAK256 PUSH1 0x2 ADD SLOAD DUP3 GT ISZERO PUSH2 0x3F72 JUMPI PUSH1 0x1 PUSH1 0x1 PUSH1 0xA0 SHL SUB DUP5 AND PUSH0 SWAP1 DUP2 MSTORE PUSH1 0x14 PUSH1 0x20 MSTORE PUSH1 0x40 DUP2 KECCAK256 PUSH1 0x2 DUP2 ADD SLOAD PUSH1 0x3 SWAP1 SWAP2 ADD DUP1 SLOAD SWAP2 SWAP3 SWAP1 SWAP2 PUSH2 0x3F4B SWAP1 DUP5 SWAP1 PUSH2 0x5C33 JUMP JUMPDEST SWAP1 SWAP2 SSTORE POP POP PUSH1 0x1 PUSH1 0x1 PUSH1 0xA0 SHL SUB DUP5 AND PUSH0 SWAP1 DUP2 MSTORE PUSH1 0x14 PUSH1 0x20 MSTORE PUSH1 0x40 SWAP1 KECCAK256 PUSH1 0x2 ADD DUP3 SWAP1 SSTORE PUSH2 0x3FA2 JUMP JUMPDEST PUSH1 0x1 PUSH1 0x1 PUSH1 0xA0 SHL SUB DUP5 AND PUSH0 SWAP1 DUP2 MSTORE PUSH1 0x14 PUSH1 0x20 MSTORE PUSH1 0x40 DUP2 KECCAK256 PUSH1 0x3 ADD DUP1 SLOAD DUP5 SWAP3 SWAP1 PUSH2 0x3F9C SWAP1 DUP5 SWAP1 PUSH2 0x5C33 JUMP JUMPDEST SWAP1 SWAP2 SSTORE POP POP JUMPDEST PUSH1 0x1 PUSH1 0x1 PUSH1 0xA0 SHL SUB DUP5 AND PUSH0 SWAP1 DUP2 MSTORE PUSH1 0x14 PUSH1 0x20 MSTORE PUSH1 0x40 DUP2 KECCAK256 PUSH1 0x4 ADD DUP1 SLOAD DUP5 SWAP3 SWAP1 PUSH2 0x3FCC SWAP1 DUP5 SWAP1 PUSH2 0x5C33 JUMP JUMPDEST SWAP1 SWAP2 SSTORE POP POP PUSH1 0x1 PUSH1 0x1 PUSH1 0xA0 SHL SUB DUP5 AND PUSH0 SWAP1 DUP2 MSTORE PUSH1 0x17 PUSH1 0x20 SWAP1 DUP2 MSTORE PUSH1 0x40 DUP1 DUP4 KECCAK256 DUP5 DUP5 MSTORE SWAP1 SWAP2 MSTORE DUP2 KECCAK256 DUP1 SLOAD DUP5 SWAP3 SWAP1 PUSH2 0x4003 SWAP1 DUP5 SWAP1 PUSH2 0x5C33 JUMP JUMPDEST SWAP1 SWAP2 SSTORE POP PUSH2 0x4012 SWAP1 POP DUP5 PUSH2 0x4E5D JUMP JUMPDEST PUSH1 0x1 PUSH1 0x1 PUSH1 0xA0 SHL SUB SWAP4 DUP5 AND PUSH0 SWAP1 DUP2 MSTORE PUSH1 0x12 PUSH1 0x20 MSTORE PUSH1 0x40 SWAP1 KECCAK256 PUSH1 0x2 ADD SLOAD SWAP1 SWAP4 AND SWAP3 DUP1 PUSH2 0x403C DUP2 PUSH2 0x5B73 JUMP JUMPDEST SWAP2 POP POP PUSH2 0x3EE8 JUMP JUMPDEST PUSH1 0x1 PUSH1 0x1 PUSH1 0xA0 SHL SUB DUP4 AND PUSH0 SWAP1 DUP2 MSTORE PUSH1 0x12 PUSH1 0x20 MSTORE PUSH1 0x40 SWAP1 KECCAK256 PUSH1 0xB ADD SLOAD PUSH1 0xFF AND ISZERO DUP1 ISZERO PUSH2 0x40A1 JUMPI POP PUSH1 0x1 PUSH1 0x1 PUSH1 0xA0 SHL SUB DUP4 AND PUSH0 SWAP1 DUP2 MSTORE PUSH1 0x12 PUSH1 0x20 MSTORE PUSH1 0x40 SWAP1 KECCAK256 PUSH1 0xB ADD SLOAD PUSH2 0x100 SWAP1 DIV PUSH1 0xFF AND ISZERO DUP1 PUSH2 0x40A1 JUMPI POP TIMESTAMP PUSH2 0x409E DUP5 PUSH2 0x31B7 JUMP JUMPDEST LT ISZERO JUMPDEST DUP1 ISZERO PUSH2 0x40C2 JUMPI POP PUSH2 0x40B3 PUSH2 0x7D0 PUSH2 0x327A JUMP JUMPDEST DUP3 LT ISZERO DUP1 PUSH2 0x40C2 JUMPI POP PUSH1 0x1 DUP2 LT ISZERO JUMPDEST ISZERO PUSH2 0x2D17 JUMPI PUSH1 0x1 PUSH1 0x1 PUSH1 0xA0 SHL SUB DUP4 AND PUSH0 SWAP1 DUP2 MSTORE PUSH1 0x12 PUSH1 0x20 SWAP1 DUP2 MSTORE PUSH1 0x40 DUP1 DUP4 KECCAK256 PUSH1 0xB ADD DUP1 SLOAD PUSH1 0xFF NOT AND PUSH1 0x1 SWAP1 DUP2 OR SWAP1 SWAP2 SSTORE PUSH1 0x1B SWAP1 SWAP3 MSTORE SWAP1 SWAP2 KECCAK256 SLOAD SWAP1 JUMPDEST DUP2 DUP2 GT PUSH2 0x416D JUMPI PUSH1 0x1 PUSH1 0x1 PUSH1 0xA0 SHL SUB DUP6 AND PUSH0 SWAP1 DUP2 MSTORE PUSH1 0x15 PUSH1 0x20 SWAP1 DUP2 MSTORE PUSH1 0x40 DUP1 DUP4 KECCAK256 DUP5 DUP5 MSTORE SWAP1 SWAP2 MSTORE SWAP1 KECCAK256 PUSH1 0x1 ADD SLOAD PUSH2 0x4135 SWAP1 PUSH1 0x4 PUSH2 0x5B35 JUMP JUMPDEST PUSH1 0x1 PUSH1 0x1 PUSH1 0xA0 SHL SUB DUP7 AND PUSH0 SWAP1 DUP2 MSTORE PUSH1 0x15 PUSH1 0x20 SWAP1 DUP2 MSTORE PUSH1 0x40 DUP1 DUP4 KECCAK256 DUP6 DUP5 MSTORE SWAP1 SWAP2 MSTORE SWAP1 KECCAK256 PUSH1 0x3 ADD SSTORE DUP1 PUSH2 0x4165 DUP2 PUSH2 0x5B73 JUMP JUMPDEST SWAP2 POP POP PUSH2 0x40FD JUMP JUMPDEST POP POP POP POP POP JUMP JUMPDEST PUSH0 PUSH2 0x4180 PUSH2 0xBB8 PUSH2 0x327A JUMP JUMPDEST DUP3 LT PUSH2 0x4197 JUMPI PUSH2 0x4190 PUSH1 0x28 PUSH2 0x327A JUMP JUMPDEST SWAP1 POP PUSH2 0x4206 JUMP JUMPDEST PUSH2 0x41A2 PUSH2 0x7D0 PUSH2 0x327A JUMP JUMPDEST DUP3 LT PUSH2 0x41B2 JUMPI PUSH2 0x4190 PUSH1 0x1E PUSH2 0x327A JUMP JUMPDEST PUSH2 0x41BD PUSH2 0x3E8 PUSH2 0x327A JUMP JUMPDEST DUP3 LT PUSH2 0x41CD JUMPI PUSH2 0x4190 PUSH1 0x14 PUSH2 0x327A JUMP JUMPDEST PUSH2 0x41D8 PUSH2 0x1F4 PUSH2 0x327A JUMP JUMPDEST DUP3 LT PUSH2 0x41E8 JUMPI PUSH2 0x4190 PUSH1 0xC PUSH2 0x327A JUMP JUMPDEST PUSH2 0x41F3 PUSH2 0x12C PUSH2 0x327A JUMP JUMPDEST DUP3 LT PUSH2 0x4206 JUMPI PUSH2 0x4203 PUSH1 0x7 PUSH2 0x327A JUMP JUMPDEST SWAP1 POP JUMPDEST PUSH0 DUP2 GT DUP1 ISZERO PUSH2 0x422D JUMPI POP PUSH1 0x1 PUSH1 0x1 PUSH1 0xA0 SHL SUB DUP4 AND PUSH0 SWAP1 DUP2 MSTORE PUSH1 0x19 PUSH1 0x20 MSTORE PUSH1 0x40 SWAP1 KECCAK256 PUSH1 0x1 ADD SLOAD ISZERO JUMPDEST DUP1 ISZERO PUSH2 0x4259 JUMPI POP PUSH1 0x1 PUSH1 0x1 PUSH1 0xA0 SHL SUB DUP4 AND PUSH0 SWAP1 DUP2 MSTORE PUSH1 0x12 PUSH1 0x20 MSTORE PUSH1 0x40 SWAP1 KECCAK256 PUSH1 0xB ADD SLOAD PUSH2 0x100 SWAP1 DIV PUSH1 0xFF AND ISZERO JUMPDEST ISZERO PUSH2 0x2D17 JUMPI PUSH2 0x4268 DUP4 DUP3 PUSH2 0x507B JUMP JUMPDEST PUSH1 0x1 PUSH1 0x1 PUSH1 0xA0 SHL SUB DUP5 AND PUSH0 SWAP1 DUP2 MSTORE PUSH1 0x19 PUSH1 0x20 MSTORE PUSH1 0x40 DUP2 KECCAK256 PUSH1 0x1 ADD DUP1 SLOAD SWAP3 SWAP4 POP DUP4 SWAP3 SWAP1 SWAP2 SWAP1 PUSH2 0x4297 SWAP1 DUP5 SWAP1 PUSH2 0x5C33 JUMP JUMPDEST SWAP1 SWAP2 SSTORE POP POP POP POP POP JUMP JUMPDEST PUSH0 PUSH2 0x42AF PUSH3 0x15180 TIMESTAMP PUSH2 0x5B4C JUMP JUMPDEST PUSH1 0x1C SLOAD SWAP1 SWAP2 POP PUSH0 SWAP1 PUSH8 0xFFFFFFFFFFFFFFFF DUP2 GT ISZERO PUSH2 0x42CF JUMPI PUSH2 0x42CF PUSH2 0x5B5F JUMP JUMPDEST PUSH1 0x40 MLOAD SWAP1 DUP1 DUP3 MSTORE DUP1 PUSH1 0x20 MUL PUSH1 0x20 ADD DUP3 ADD PUSH1 0x40 MSTORE DUP1 ISZERO PUSH2 0x4313 JUMPI DUP2 PUSH1 0x20 ADD JUMPDEST PUSH1 0x40 DUP1 MLOAD DUP1 DUP3 ADD SWAP1 SWAP2 MSTORE PUSH0 DUP1 DUP3 MSTORE PUSH1 0x20 DUP3 ADD MSTORE DUP2 MSTORE PUSH1 0x20 ADD SWAP1 PUSH1 0x1 SWAP1 SUB SWAP1 DUP2 PUSH2 0x42ED JUMPI SWAP1 POP JUMPDEST POP PUSH1 0x1C SLOAD SWAP1 SWAP2 POP PUSH0 SWAP1 JUMPDEST DUP1 ISZERO PUSH2 0x4487 JUMPI PUSH0 PUSH1 0x1C PUSH2 0x4331 PUSH1 0x1 DUP5 PUSH2 0x5B4C JUMP JUMPDEST DUP2 SLOAD DUP2 LT PUSH2 0x4341 JUMPI PUSH2 0x4341 PUSH2 0x5B8B JUMP JUMPDEST PUSH0 SWAP2 DUP3 MSTORE PUSH1 0x20 DUP1 DUP4 KECCAK256 SWAP1 SWAP2 ADD SLOAD PUSH1 0x1 PUSH1 0x1 PUSH1 0xA0 SHL SUB AND DUP1 DUP4 MSTORE PUSH1 0x12 SWAP1 SWAP2 MSTORE PUSH1 0x40 SWAP1 SWAP2 KECCAK256 PUSH1 0x7 ADD SLOAD SWAP1 SWAP2 POP DUP6 GT ISZERO PUSH2 0x4378 JUMPI POP PUSH2 0x4487 JUMP JUMPDEST PUSH1 0x1 PUSH1 0x1 PUSH1 0xA0 SHL SUB DUP1 DUP3 AND PUSH0 SWAP1 DUP2 MSTORE PUSH1 0x12 PUSH1 0x20 MSTORE PUSH1 0x40 SWAP1 KECCAK256 PUSH1 0x2 ADD SLOAD AND DUP1 PUSH2 0x43A1 JUMPI POP POP PUSH2 0x4475 JUMP JUMPDEST PUSH0 DUP1 JUMPDEST DUP6 DUP2 LT ISZERO PUSH2 0x4420 JUMPI DUP3 PUSH1 0x1 PUSH1 0x1 PUSH1 0xA0 SHL SUB AND DUP8 DUP3 DUP2 MLOAD DUP2 LT PUSH2 0x43C8 JUMPI PUSH2 0x43C8 PUSH2 0x5B8B JUMP JUMPDEST PUSH1 0x20 MUL PUSH1 0x20 ADD ADD MLOAD PUSH0 ADD MLOAD PUSH1 0x1 PUSH1 0x1 PUSH1 0xA0 SHL SUB AND SUB PUSH2 0x4418 JUMPI DUP7 DUP2 DUP2 MLOAD DUP2 LT PUSH2 0x43F3 JUMPI PUSH2 0x43F3 PUSH2 0x5B8B JUMP JUMPDEST PUSH1 0x20 MUL PUSH1 0x20 ADD ADD MLOAD PUSH1 0x20 ADD DUP1 MLOAD DUP1 SWAP2 SWAP1 PUSH2 0x440C SWAP1 PUSH2 0x5B73 JUMP JUMPDEST SWAP1 MSTORE POP PUSH1 0x1 SWAP2 POP PUSH2 0x4420 JUMP JUMPDEST PUSH1 0x1 ADD PUSH2 0x43A4 JUMP JUMPDEST POP DUP1 PUSH2 0x4471 JUMPI PUSH1 0x40 MLOAD DUP1 PUSH1 0x40 ADD PUSH1 0x40 MSTORE DUP1 DUP4 PUSH1 0x1 PUSH1 0x1 PUSH1 0xA0 SHL SUB AND DUP2 MSTORE PUSH1 0x20 ADD PUSH1 0x1 DUP2 MSTORE POP DUP7 DUP7 DUP2 MLOAD DUP2 LT PUSH2 0x4457 JUMPI PUSH2 0x4457 PUSH2 0x5B8B JUMP JUMPDEST PUSH1 0x20 MUL PUSH1 0x20 ADD ADD DUP2 SWAP1 MSTORE POP DUP5 DUP1 PUSH2 0x446D SWAP1 PUSH2 0x5B73 JUMP JUMPDEST SWAP6 POP POP JUMPDEST POP POP POP JUMPDEST DUP1 PUSH2 0x447F DUP2 PUSH2 0x5B9F JUMP JUMPDEST SWAP2 POP POP PUSH2 0x431D JUMP JUMPDEST POP PUSH2 0x4490 PUSH2 0x5312 JUMP JUMPDEST PUSH2 0x4498 PUSH2 0x5312 JUMP JUMPDEST PUSH0 JUMPDEST DUP4 DUP2 LT ISZERO PUSH2 0x45FE JUMPI PUSH0 DUP6 DUP3 DUP2 MLOAD DUP2 LT PUSH2 0x44B5 JUMPI PUSH2 0x44B5 PUSH2 0x5B8B JUMP JUMPDEST PUSH1 0x20 MUL PUSH1 0x20 ADD ADD MLOAD PUSH0 ADD MLOAD SWAP1 POP PUSH0 DUP7 DUP4 DUP2 MLOAD DUP2 LT PUSH2 0x44D5 JUMPI PUSH2 0x44D5 PUSH2 0x5B8B JUMP JUMPDEST PUSH1 0x20 MUL PUSH1 0x20 ADD ADD MLOAD PUSH1 0x20 ADD MLOAD SWAP1 POP PUSH0 JUMPDEST PUSH1 0x3 DUP2 LT ISZERO PUSH2 0x45F3 JUMPI DUP5 DUP2 PUSH1 0x3 DUP2 LT PUSH2 0x4500 JUMPI PUSH2 0x4500 PUSH2 0x5B8B JUMP JUMPDEST PUSH1 0x20 MUL ADD MLOAD DUP3 GT ISZERO PUSH2 0x45EB JUMPI PUSH1 0x2 JUMPDEST DUP2 DUP2 GT ISZERO PUSH2 0x45A7 JUMPI DUP6 PUSH2 0x4523 PUSH1 0x1 DUP4 PUSH2 0x5B4C JUMP JUMPDEST PUSH1 0x3 DUP2 LT PUSH2 0x4533 JUMPI PUSH2 0x4533 PUSH2 0x5B8B JUMP JUMPDEST PUSH1 0x20 MUL ADD MLOAD DUP7 DUP3 PUSH1 0x3 DUP2 LT PUSH2 0x454A JUMPI PUSH2 0x454A PUSH2 0x5B8B JUMP JUMPDEST PUSH1 0x20 MUL ADD MSTORE DUP7 PUSH2 0x455B PUSH1 0x1 DUP4 PUSH2 0x5B4C JUMP JUMPDEST PUSH1 0x3 DUP2 LT PUSH2 0x456B JUMPI PUSH2 0x456B PUSH2 0x5B8B JUMP JUMPDEST PUSH1 0x20 MUL ADD MLOAD DUP8 DUP3 PUSH1 0x3 DUP2 LT PUSH2 0x4582 JUMPI PUSH2 0x4582 PUSH2 0x5B8B JUMP JUMPDEST PUSH1 0x1 PUSH1 0x1 PUSH1 0xA0 SHL SUB SWAP1 SWAP3 AND PUSH1 0x20 SWAP3 SWAP1 SWAP3 MUL ADD MSTORE DUP1 PUSH2 0x459F DUP2 PUSH2 0x5B9F JUMP JUMPDEST SWAP2 POP POP PUSH2 0x450F JUMP JUMPDEST POP DUP2 DUP6 DUP3 PUSH1 0x3 DUP2 LT PUSH2 0x45BB JUMPI PUSH2 0x45BB PUSH2 0x5B8B JUMP JUMPDEST PUSH1 0x20 MUL ADD MSTORE DUP3 DUP7 DUP3 PUSH1 0x3 DUP2 LT PUSH2 0x45D3 JUMPI PUSH2 0x45D3 PUSH2 0x5B8B JUMP JUMPDEST PUSH1 0x1 PUSH1 0x1 PUSH1 0xA0 SHL SUB SWAP1 SWAP3 AND PUSH1 0x20 SWAP3 SWAP1 SWAP3 MUL ADD MSTORE PUSH2 0x45F3 JUMP JUMPDEST PUSH1 0x1 ADD PUSH2 0x44E5 JUMP JUMPDEST POP POP POP PUSH1 0x1 ADD PUSH2 0x449A JUMP JUMPDEST POP PUSH0 PUSH1 0x64 PUSH2 0x460D DUP9 PUSH1 0x2 PUSH2 0x5B35 JUMP JUMPDEST PUSH2 0x4617 SWAP2 SWAP1 PUSH2 0x5C14 JUMP JUMPDEST SWAP1 POP PUSH0 PUSH1 0x40 MLOAD DUP1 PUSH1 0x60 ADD PUSH1 0x40 MSTORE DUP1 PUSH1 0x32 DUP2 MSTORE PUSH1 0x20 ADD PUSH1 0x1E DUP2 MSTORE PUSH1 0x20 ADD PUSH1 0x14 DUP2 MSTORE POP SWAP1 POP PUSH0 JUMPDEST PUSH1 0x3 DUP2 LT ISZERO PUSH2 0x46E7 JUMPI PUSH0 DUP6 DUP3 PUSH1 0x3 DUP2 LT PUSH2 0x4658 JUMPI PUSH2 0x4658 PUSH2 0x5B8B JUMP JUMPDEST PUSH1 0x20 MUL ADD MLOAD SWAP1 POP PUSH1 0x1 PUSH1 0x1 PUSH1 0xA0 SHL SUB DUP2 AND ISZERO PUSH2 0x46DE JUMPI PUSH0 PUSH1 0x64 DUP5 DUP5 PUSH1 0x3 DUP2 LT PUSH2 0x4683 JUMPI PUSH2 0x4683 PUSH2 0x5B8B JUMP JUMPDEST PUSH1 0x20 MUL ADD MLOAD PUSH2 0x4692 SWAP1 DUP8 PUSH2 0x5B35 JUMP JUMPDEST PUSH2 0x469C SWAP2 SWAP1 PUSH2 0x5C14 JUMP JUMPDEST SWAP1 POP PUSH2 0x46A8 DUP3 DUP3 PUSH2 0x507B JUMP JUMPDEST PUSH1 0x1 PUSH1 0x1 PUSH1 0xA0 SHL SUB DUP4 AND PUSH0 SWAP1 DUP2 MSTORE PUSH1 0x19 PUSH1 0x20 MSTORE PUSH1 0x40 DUP2 KECCAK256 PUSH1 0x5 ADD DUP1 SLOAD SWAP3 SWAP4 POP DUP4 SWAP3 SWAP1 SWAP2 SWAP1 PUSH2 0x46D7 SWAP1 DUP5 SWAP1 PUSH2 0x5C33 JUMP JUMPDEST SWAP1 SWAP2 SSTORE POP POP POP JUMPDEST POP PUSH1 0x1 ADD PUSH2 0x463C JUMP JUMPDEST POP POP POP POP POP POP POP POP POP JUMP JUMPDEST PUSH0 DUP1 SLOAD SWAP1 DUP1 PUSH2 0x4700 DUP4 PUSH2 0x5B73 JUMP JUMPDEST SWAP2 SWAP1 POP SSTORE POP PUSH0 PUSH1 0x40 MLOAD DUP1 PUSH2 0x1A0 ADD PUSH1 0x40 MSTORE DUP1 PUSH0 SLOAD DUP2 MSTORE PUSH1 0x20 ADD DUP5 PUSH1 0x1 PUSH1 0x1 PUSH1 0xA0 SHL SUB AND DUP2 MSTORE PUSH1 0x20 ADD DUP4 PUSH1 0x1 PUSH1 0x1 PUSH1 0xA0 SHL SUB AND DUP2 MSTORE PUSH1 0x20 ADD TIMESTAMP DUP2 MSTORE PUSH1 0x20 ADD PUSH0 DUP2 MSTORE PUSH1 0x20 ADD PUSH0 DUP2 MSTORE PUSH1 0x20 ADD PUSH0 ISZERO ISZERO DUP2 MSTORE PUSH1 0x20 ADD PUSH0 DUP2 MSTORE PUSH1 0x20 ADD PUSH0 DUP2 MSTORE PUSH1 0x20 ADD PUSH0 DUP2 MSTORE PUSH1 0x20 ADD PUSH0 DUP2 MSTORE PUSH1 0x20 ADD PUSH0 ISZERO ISZERO DUP2 MSTORE PUSH1 0x20 ADD PUSH0 ISZERO ISZERO DUP2 MSTORE POP SWAP1 POP PUSH0 PUSH1 0x40 MLOAD DUP1 PUSH1 0xC0 ADD PUSH1 0x40 MSTORE DUP1 PUSH0 DUP2 MSTORE PUSH1 0x20 ADD PUSH0 PUSH8 0xFFFFFFFFFFFFFFFF DUP2 GT ISZERO PUSH2 0x47A4 JUMPI PUSH2 0x47A4 PUSH2 0x5B5F JUMP JUMPDEST PUSH1 0x40 MLOAD SWAP1 DUP1 DUP3 MSTORE DUP1 PUSH1 0x20 MUL PUSH1 0x20 ADD DUP3 ADD PUSH1 0x40 MSTORE DUP1 ISZERO PUSH2 0x47CD JUMPI DUP2 PUSH1 0x20 ADD PUSH1 0x20 DUP3 MUL DUP1 CALLDATASIZE DUP4 CALLDATACOPY ADD SWAP1 POP JUMPDEST POP DUP2 MSTORE PUSH1 0x20 ADD PUSH0 DUP2 MSTORE PUSH1 0x20 ADD PUSH0 DUP2 MSTORE PUSH1 0x20 ADD PUSH0 DUP2 MSTORE PUSH1 0x20 ADD PUSH0 PUSH8 0xFFFFFFFFFFFFFFFF DUP2 GT ISZERO PUSH2 0x47FE JUMPI PUSH2 0x47FE PUSH2 0x5B5F JUMP JUMPDEST PUSH1 0x40 MLOAD SWAP1 DUP1 DUP3 MSTORE DUP1 PUSH1 0x20 MUL PUSH1 0x20 ADD DUP3 ADD PUSH1 0x40 MSTORE DUP1 ISZERO PUSH2 0x4827 JUMPI DUP2 PUSH1 0x20 ADD PUSH1 0x20 DUP3 MUL DUP1 CALLDATASIZE DUP4 CALLDATACOPY ADD SWAP1 POP JUMPDEST POP DUP2 MSTORE POP SWAP1 POP PUSH0 PUSH1 0x40 MLOAD DUP1 PUSH1 0xE0 ADD PUSH1 0x40 MSTORE DUP1 PUSH0 DUP2 MSTORE PUSH1 0x20 ADD PUSH0 DUP2 MSTORE PUSH1 0x20 ADD PUSH0 DUP2 MSTORE PUSH1 0x20 ADD PUSH1 0x8 SLOAD PUSH1 0x1 PUSH2 0x485A SWAP2 SWAP1 PUSH2 0x5C33 JUMP JUMPDEST PUSH8 0xFFFFFFFFFFFFFFFF DUP2 GT ISZERO PUSH2 0x4872 JUMPI PUSH2 0x4872 PUSH2 0x5B5F JUMP JUMPDEST PUSH1 0x40 MLOAD SWAP1 DUP1 DUP3 MSTORE DUP1 PUSH1 0x20 MUL PUSH1 0x20 ADD DUP3 ADD PUSH1 0x40 MSTORE DUP1 ISZERO PUSH2 0x489B JUMPI DUP2 PUSH1 0x20 ADD PUSH1 0x20 DUP3 MUL DUP1 CALLDATASIZE DUP4 CALLDATACOPY ADD SWAP1 POP JUMPDEST POP DUP2 MSTORE PUSH0 PUSH1 0x20 DUP1 DUP4 ADD DUP3 SWAP1 MSTORE PUSH1 0x40 DUP1 DUP5 ADD DUP4 SWAP1 MSTORE PUSH1 0x60 SWAP4 DUP5 ADD DUP4 SWAP1 MSTORE DUP1 MLOAD PUSH1 0x80 DUP1 DUP3 ADD DUP4 MSTORE DUP5 DUP3 MSTORE DUP2 DUP5 ADD DUP6 SWAP1 MSTORE DUP2 DUP4 ADD DUP6 SWAP1 MSTORE DUP2 DUP7 ADD DUP6 SWAP1 MSTORE PUSH1 0x1 PUSH1 0x1 PUSH1 0xA0 SHL SUB DUP13 DUP2 AND DUP7 MSTORE PUSH1 0x12 DUP6 MSTORE DUP4 DUP7 KECCAK256 DUP12 MLOAD DUP2 SSTORE DUP12 DUP7 ADD MLOAD PUSH1 0x1 DUP1 DUP4 ADD DUP1 SLOAD PUSH1 0x1 PUSH1 0x1 PUSH1 0xA0 SHL SUB NOT SWAP1 DUP2 AND SWAP4 DUP7 AND SWAP4 SWAP1 SWAP4 OR SWAP1 SSTORE DUP14 DUP8 ADD MLOAD PUSH1 0x2 DUP5 ADD DUP1 SLOAD SWAP1 SWAP4 AND SWAP5 AND SWAP4 SWAP1 SWAP4 OR SWAP1 SSTORE SWAP7 DUP12 ADD MLOAD PUSH1 0x3 DUP9 ADD SSTORE SWAP1 DUP11 ADD MLOAD PUSH1 0x4 DUP8 ADD SSTORE PUSH1 0xA0 DUP11 ADD MLOAD PUSH1 0x5 DUP8 ADD SSTORE PUSH1 0xC0 DUP11 ADD MLOAD PUSH1 0x6 DUP8 ADD DUP1 SLOAD PUSH1 0xFF NOT AND SWAP2 ISZERO ISZERO SWAP2 SWAP1 SWAP2 OR SWAP1 SSTORE PUSH1 0xE0 DUP11 ADD MLOAD PUSH1 0x7 DUP8 ADD SSTORE PUSH2 0x100 DUP1 DUP12 ADD MLOAD PUSH1 0x8 DUP9 ADD SSTORE PUSH2 0x120 DUP12 ADD MLOAD PUSH1 0x9 DUP9 ADD SSTORE PUSH2 0x140 DUP12 ADD MLOAD PUSH1 0xA DUP9 ADD SSTORE PUSH2 0x160 DUP12 ADD MLOAD PUSH1 0xB SWAP1 SWAP8 ADD DUP1 SLOAD PUSH2 0x180 DUP14 ADD MLOAD PUSH2 0xFFFF NOT SWAP1 SWAP2 AND SWAP9 ISZERO ISZERO PUSH2 0xFF00 NOT AND SWAP9 SWAP1 SWAP9 OR SWAP8 ISZERO ISZERO SWAP1 SWAP2 MUL SWAP7 SWAP1 SWAP7 OR SWAP1 SWAP6 SSTORE PUSH1 0x14 DUP4 MSTORE SWAP3 KECCAK256 DUP7 MLOAD DUP2 SSTORE DUP7 DUP3 ADD MLOAD DUP1 MLOAD SWAP6 SWAP7 POP SWAP3 SWAP5 DUP8 SWAP5 SWAP2 SWAP4 PUSH2 0x49DD SWAP4 SWAP3 DUP6 ADD SWAP3 ADD SWAP1 PUSH2 0x5330 JUMP JUMPDEST POP PUSH1 0x40 DUP3 ADD MLOAD PUSH1 0x2 DUP3 ADD SSTORE PUSH1 0x60 DUP3 ADD MLOAD PUSH1 0x3 DUP3 ADD SSTORE PUSH1 0x80 DUP3 ADD MLOAD PUSH1 0x4 DUP3 ADD SSTORE PUSH1 0xA0 DUP3 ADD MLOAD DUP1 MLOAD PUSH2 0x4A17 SWAP2 PUSH1 0x5 DUP5 ADD SWAP2 PUSH1 0x20 SWAP1 SWAP2 ADD SWAP1 PUSH2 0x5330 JUMP JUMPDEST POP POP POP PUSH1 0x1 PUSH1 0x1 PUSH1 0xA0 SHL SUB DUP7 AND PUSH0 SWAP1 DUP2 MSTORE PUSH1 0x19 PUSH1 0x20 SWAP1 DUP2 MSTORE PUSH1 0x40 SWAP2 DUP3 SWAP1 KECCAK256 DUP5 MLOAD DUP2 SSTORE DUP2 DUP6 ADD MLOAD PUSH1 0x1 DUP3 ADD SSTORE SWAP2 DUP5 ADD MLOAD PUSH1 0x2 DUP4 ADD SSTORE PUSH1 0x60 DUP5 ADD MLOAD DUP1 MLOAD DUP6 SWAP4 SWAP3 PUSH2 0x4A66 SWAP3 PUSH1 0x3 DUP6 ADD SWAP3 SWAP2 ADD SWAP1 PUSH2 0x5393 JUMP JUMPDEST POP PUSH1 0x80 DUP3 ADD MLOAD PUSH1 0x4 DUP3 ADD SSTORE PUSH1 0xA0 DUP3 ADD MLOAD PUSH1 0x5 DUP3 ADD SSTORE PUSH1 0xC0 SWAP1 SWAP2 ADD MLOAD PUSH1 0x6 SWAP1 SWAP2 ADD SSTORE PUSH0 DUP1 SLOAD DUP2 MSTORE PUSH1 0x13 PUSH1 0x20 SWAP1 DUP2 MSTORE PUSH1 0x40 DUP1 DUP4 KECCAK256 DUP1 SLOAD PUSH1 0x1 PUSH1 0x1 PUSH1 0xA0 SHL SUB SWAP1 SWAP11 AND PUSH1 0x1 PUSH1 0x1 PUSH1 0xA0 SHL SUB NOT SWAP1 SWAP11 AND DUP11 OR SWAP1 SSTORE SWAP8 DUP3 MSTORE PUSH1 0x1B DUP2 MSTORE SWAP1 DUP8 SWAP1 KECCAK256 DUP3 MLOAD DUP2 SSTORE SWAP1 DUP3 ADD MLOAD PUSH1 0x1 DUP3 ADD SSTORE SWAP6 DUP2 ADD MLOAD PUSH1 0x2 DUP8 ADD SSTORE PUSH1 0x60 ADD MLOAD PUSH1 0x3 SWAP1 SWAP6 ADD SWAP5 SWAP1 SWAP5 SSTORE POP POP POP POP JUMP JUMPDEST PUSH1 0x1 PUSH1 0x1 PUSH1 0xA0 SHL SUB DUP6 AND PUSH0 SWAP1 DUP2 MSTORE PUSH1 0x1B PUSH1 0x20 MSTORE PUSH1 0x40 DUP2 KECCAK256 SLOAD SWAP1 PUSH2 0x4B0C DUP6 DUP6 PUSH2 0x5B4C JUMP JUMPDEST SWAP1 POP PUSH0 DUP6 DUP8 DUP7 GT ISZERO PUSH2 0x4B1E JUMPI DUP8 PUSH2 0x4B20 JUMP JUMPDEST DUP6 JUMPDEST PUSH2 0x4B2A SWAP2 SWAP1 PUSH2 0x5B4C JUMP JUMPDEST SWAP1 POP PUSH0 PUSH1 0x1 JUMPDEST DUP5 DUP2 GT PUSH2 0x4BE2 JUMPI PUSH1 0x1 PUSH1 0x1 PUSH1 0xA0 SHL SUB DUP11 AND PUSH0 SWAP1 DUP2 MSTORE PUSH1 0x15 PUSH1 0x20 SWAP1 DUP2 MSTORE PUSH1 0x40 DUP1 DUP4 KECCAK256 DUP5 DUP5 MSTORE DUP3 MSTORE SWAP2 DUP3 SWAP1 KECCAK256 DUP3 MLOAD PUSH1 0xA0 DUP2 ADD DUP5 MSTORE DUP2 SLOAD DUP2 MSTORE PUSH1 0x1 DUP3 ADD SLOAD SWAP3 DUP2 ADD DUP4 SWAP1 MSTORE PUSH1 0x2 DUP3 ADD SLOAD SWAP4 DUP2 ADD SWAP4 SWAP1 SWAP4 MSTORE PUSH1 0x3 DUP2 ADD SLOAD PUSH1 0x60 DUP5 ADD MSTORE PUSH1 0x4 ADD SLOAD PUSH1 0x80 DUP4 ADD MSTORE DUP8 EQ DUP1 ISZERO PUSH2 0x4BA1 JUMPI POP DUP10 DUP2 PUSH1 0x40 ADD MLOAD EQ JUMPDEST ISZERO PUSH2 0x4BAC JUMPI POP PUSH2 0x4BD0 JUMP JUMPDEST DUP1 PUSH1 0x60 ADD MLOAD DUP2 PUSH1 0x80 ADD MLOAD LT ISZERO PUSH2 0x4BCE JUMPI PUSH1 0x20 DUP2 ADD MLOAD PUSH2 0x4BCB SWAP1 DUP5 PUSH2 0x5C33 JUMP JUMPDEST SWAP3 POP JUMPDEST POP JUMPDEST DUP1 PUSH2 0x4BDA DUP2 PUSH2 0x5B73 JUMP JUMPDEST SWAP2 POP POP PUSH2 0x4B30 JUMP JUMPDEST POP PUSH0 DUP2 GT DUP1 ISZERO PUSH2 0x4BF1 JUMPI POP PUSH0 DUP4 GT JUMPDEST ISZERO PUSH2 0x46E7 JUMPI PUSH0 PUSH2 0x4C02 DUP5 PUSH1 0x64 PUSH2 0x5B35 JUMP JUMPDEST DUP4 PUSH2 0x4C0E DUP5 PUSH1 0xA PUSH2 0x5B35 JUMP JUMPDEST PUSH2 0x4C18 SWAP2 SWAP1 PUSH2 0x5B35 JUMP JUMPDEST PUSH2 0x4C22 SWAP2 SWAP1 PUSH2 0x5C14 JUMP JUMPDEST SWAP1 POP PUSH2 0x4C2E DUP11 DUP3 PUSH2 0x507B JUMP JUMPDEST PUSH1 0x1 PUSH1 0x1 PUSH1 0xA0 SHL SUB DUP12 AND PUSH0 SWAP1 DUP2 MSTORE PUSH1 0x19 PUSH1 0x20 MSTORE PUSH1 0x40 DUP2 KECCAK256 PUSH1 0x2 ADD DUP1 SLOAD SWAP3 SWAP4 POP DUP4 SWAP3 SWAP1 SWAP2 SWAP1 PUSH2 0x4C5D SWAP1 DUP5 SWAP1 PUSH2 0x5C33 JUMP JUMPDEST SWAP1 SWAP2 SSTORE POP POP PUSH1 0x1 PUSH1 0x1 PUSH1 0xA0 SHL SUB DUP11 AND PUSH0 SWAP1 DUP2 MSTORE PUSH1 0x1B PUSH1 0x20 MSTORE PUSH1 0x40 DUP2 KECCAK256 PUSH1 0x1 ADD DUP1 SLOAD SWAP2 PUSH2 0x4C88 DUP4 PUSH2 0x5B73 JUMP JUMPDEST SWAP1 SWAP2 SSTORE POP POP PUSH1 0x40 DUP1 MLOAD PUSH1 0x60 DUP2 ADD DUP3 MSTORE SWAP3 DUP4 MSTORE PUSH1 0x20 DUP1 DUP5 ADD SWAP11 DUP12 MSTORE DUP4 DUP3 ADD SWAP3 DUP4 MSTORE PUSH1 0x1 PUSH1 0x1 PUSH1 0xA0 SHL SUB SWAP12 SWAP1 SWAP12 AND PUSH0 SWAP1 DUP2 MSTORE PUSH1 0x18 DUP13 MSTORE DUP2 DUP2 KECCAK256 PUSH1 0x1B DUP14 MSTORE DUP3 DUP3 KECCAK256 PUSH1 0x1 SWAP1 DUP2 ADD SLOAD DUP4 MSTORE SWAP13 MSTORE KECCAK256 SWAP2 MLOAD DUP3 SSTORE SWAP8 MLOAD SWAP9 DUP2 ADD SWAP9 SWAP1 SWAP9 SSTORE POP POP SWAP4 MLOAD PUSH1 0x2 SWAP1 SWAP6 ADD SWAP5 SWAP1 SWAP5 SSTORE POP POP POP POP JUMP JUMPDEST PUSH1 0x1 PUSH1 0x1 PUSH1 0xA0 SHL SUB DUP2 DUP2 AND PUSH0 SWAP1 DUP2 MSTORE PUSH1 0x12 PUSH1 0x20 MSTORE PUSH1 0x40 DUP2 KECCAK256 PUSH1 0x2 DUP2 ADD SLOAD PUSH1 0xB SWAP1 SWAP2 ADD SLOAD SWAP3 AND SWAP2 PUSH2 0x100 SWAP1 DIV PUSH1 0xFF AND PUSH2 0x4D2A JUMPI PUSH1 0x1 PUSH2 0x4D2D JUMP JUMPDEST PUSH1 0x2 JUMPDEST PUSH1 0x1 PUSH1 0x1 PUSH1 0xA0 SHL SUB DUP5 AND PUSH0 SWAP1 DUP2 MSTORE PUSH1 0x12 PUSH1 0x20 MSTORE PUSH1 0x40 SWAP1 KECCAK256 PUSH1 0x4 ADD SLOAD PUSH2 0x4D55 SWAP2 PUSH1 0xFF AND SWAP1 PUSH2 0x5C14 JUMP JUMPDEST SWAP1 POP PUSH1 0x1 PUSH0 JUMPDEST PUSH1 0x1 PUSH1 0x1 PUSH1 0xA0 SHL SUB DUP5 AND ISZERO DUP1 ISZERO SWAP1 PUSH2 0x4D75 JUMPI POP PUSH1 0x8 SLOAD DUP3 GT ISZERO JUMPDEST ISZERO PUSH2 0x416D JUMPI PUSH1 0xA SLOAD PUSH1 0xFF AND PUSH2 0x4D9A JUMPI PUSH0 DUP3 DUP2 MSTORE PUSH1 0x10 PUSH1 0x20 MSTORE PUSH1 0x40 SWAP1 KECCAK256 PUSH1 0x1 ADD SLOAD PUSH2 0x4DC3 JUMP JUMPDEST PUSH0 DUP3 DUP2 MSTORE PUSH1 0x10 PUSH1 0x20 MSTORE PUSH1 0x40 SWAP1 KECCAK256 PUSH1 0x1 ADD SLOAD PUSH2 0x2710 SWAP1 PUSH2 0x4DB9 SWAP1 DUP6 PUSH2 0x5B35 JUMP JUMPDEST PUSH2 0x4DC3 SWAP2 SWAP1 PUSH2 0x5C14 JUMP JUMPDEST SWAP1 POP PUSH2 0x4DCF DUP5 DUP4 PUSH2 0x2E74 JUMP JUMPDEST ISZERO PUSH2 0x4E2B JUMPI PUSH2 0x4DDE DUP5 DUP3 PUSH2 0x507B JUMP JUMPDEST PUSH1 0x1 PUSH1 0x1 PUSH1 0xA0 SHL SUB DUP6 AND PUSH0 SWAP1 DUP2 MSTORE PUSH1 0x19 PUSH1 0x20 MSTORE PUSH1 0x40 SWAP1 KECCAK256 PUSH1 0x3 ADD DUP1 SLOAD SWAP2 SWAP3 POP DUP3 SWAP2 DUP5 SWAP1 DUP2 LT PUSH2 0x4E0F JUMPI PUSH2 0x4E0F PUSH2 0x5B8B JUMP JUMPDEST SWAP1 PUSH0 MSTORE PUSH1 0x20 PUSH0 KECCAK256 ADD PUSH0 DUP3 DUP3 SLOAD PUSH2 0x4E25 SWAP2 SWAP1 PUSH2 0x5C33 JUMP JUMPDEST SWAP1 SWAP2 SSTORE POP POP JUMPDEST PUSH1 0x1 PUSH1 0x1 PUSH1 0xA0 SHL SUB SWAP4 DUP5 AND PUSH0 SWAP1 DUP2 MSTORE PUSH1 0x12 PUSH1 0x20 MSTORE PUSH1 0x40 SWAP1 KECCAK256 PUSH1 0x2 ADD SLOAD SWAP1 SWAP4 AND SWAP3 DUP2 PUSH2 0x4E55 DUP2 PUSH2 0x5B73 JUMP JUMPDEST SWAP3 POP POP PUSH2 0x4D5B JUMP JUMPDEST PUSH1 0x1 PUSH1 0x1 PUSH1 0xA0 SHL SUB DUP2 AND PUSH0 SWAP1 DUP2 MSTORE PUSH1 0x12 PUSH1 0x20 MSTORE PUSH1 0x40 DUP2 KECCAK256 PUSH1 0xA ADD SLOAD PUSH2 0x4E83 SWAP1 PUSH1 0x1 PUSH2 0x5C33 JUMP JUMPDEST SWAP1 POP JUMPDEST PUSH1 0x9 SLOAD DUP2 GT PUSH2 0x2627 JUMPI PUSH0 PUSH1 0x11 PUSH0 DUP4 DUP2 MSTORE PUSH1 0x20 ADD SWAP1 DUP2 MSTORE PUSH1 0x20 ADD PUSH0 KECCAK256 PUSH1 0x40 MLOAD DUP1 PUSH1 0xE0 ADD PUSH1 0x40 MSTORE SWAP1 DUP2 PUSH0 DUP3 ADD SLOAD DUP2 MSTORE PUSH1 0x20 ADD PUSH1 0x1 DUP3 ADD DUP1 SLOAD PUSH2 0x4EC5 SWAP1 PUSH2 0x5BB4 JUMP JUMPDEST DUP1 PUSH1 0x1F ADD PUSH1 0x20 DUP1 SWAP2 DIV MUL PUSH1 0x20 ADD PUSH1 0x40 MLOAD SWAP1 DUP2 ADD PUSH1 0x40 MSTORE DUP1 SWAP3 SWAP2 SWAP1 DUP2 DUP2 MSTORE PUSH1 0x20 ADD DUP3 DUP1 SLOAD PUSH2 0x4EF1 SWAP1 PUSH2 0x5BB4 JUMP JUMPDEST DUP1 ISZERO PUSH2 0x4F3C JUMPI DUP1 PUSH1 0x1F LT PUSH2 0x4F13 JUMPI PUSH2 0x100 DUP1 DUP4 SLOAD DIV MUL DUP4 MSTORE SWAP2 PUSH1 0x20 ADD SWAP2 PUSH2 0x4F3C JUMP JUMPDEST DUP3 ADD SWAP2 SWAP1 PUSH0 MSTORE PUSH1 0x20 PUSH0 KECCAK256 SWAP1 JUMPDEST DUP2 SLOAD DUP2 MSTORE SWAP1 PUSH1 0x1 ADD SWAP1 PUSH1 0x20 ADD DUP1 DUP4 GT PUSH2 0x4F1F JUMPI DUP3 SWAP1 SUB PUSH1 0x1F AND DUP3 ADD SWAP2 JUMPDEST POP POP POP POP POP DUP2 MSTORE PUSH1 0x20 ADD PUSH1 0x2 DUP3 ADD SLOAD DUP2 MSTORE PUSH1 0x20 ADD PUSH1 0x3 DUP3 ADD SLOAD DUP2 MSTORE PUSH1 0x20 ADD PUSH1 0x4 DUP3 ADD SLOAD DUP2 MSTORE PUSH1 0x20 ADD PUSH1 0x5 DUP3 ADD SLOAD DUP2 MSTORE PUSH1 0x20 ADD PUSH1 0x6 DUP3 ADD SLOAD DUP2 MSTORE POP POP SWAP1 POP PUSH2 0x4F87 DUP4 DUP3 PUSH1 0x40 ADD MLOAD PUSH2 0x3471 JUMP JUMPDEST DUP1 ISZERO PUSH2 0x4FB1 JUMPI POP PUSH1 0x80 DUP2 ADD MLOAD PUSH1 0x1 PUSH1 0x1 PUSH1 0xA0 SHL SUB DUP5 AND PUSH0 SWAP1 DUP2 MSTORE PUSH1 0x14 PUSH1 0x20 MSTORE PUSH1 0x40 SWAP1 KECCAK256 PUSH1 0x2 ADD SLOAD LT ISZERO JUMPDEST DUP1 ISZERO PUSH2 0x4FDB JUMPI POP PUSH1 0xA0 DUP2 ADD MLOAD PUSH1 0x1 PUSH1 0x1 PUSH1 0xA0 SHL SUB DUP5 AND PUSH0 SWAP1 DUP2 MSTORE PUSH1 0x14 PUSH1 0x20 MSTORE PUSH1 0x40 SWAP1 KECCAK256 PUSH1 0x3 ADD SLOAD LT ISZERO JUMPDEST DUP1 ISZERO PUSH2 0x5005 JUMPI POP PUSH1 0x60 DUP2 ADD MLOAD PUSH1 0x1 PUSH1 0x1 PUSH1 0xA0 SHL SUB DUP5 AND PUSH0 SWAP1 DUP2 MSTORE PUSH1 0x12 PUSH1 0x20 MSTORE PUSH1 0x40 SWAP1 KECCAK256 PUSH1 0x5 ADD SLOAD LT ISZERO JUMPDEST ISZERO PUSH2 0x2D17 JUMPI PUSH1 0xC0 DUP2 ADD MLOAD PUSH1 0x1 PUSH1 0x1 PUSH1 0xA0 SHL SUB DUP5 AND PUSH0 SWAP1 DUP2 MSTORE PUSH1 0x19 PUSH1 0x20 MSTORE PUSH1 0x40 DUP2 KECCAK256 PUSH1 0x4 ADD DUP1 SLOAD DUP4 SWAP3 SWAP1 PUSH2 0x5039 SWAP1 DUP5 SWAP1 PUSH2 0x5C33 JUMP JUMPDEST SWAP1 SWAP2 SSTORE POP POP PUSH1 0x1 PUSH1 0x1 PUSH1 0xA0 SHL SUB DUP5 AND PUSH0 SWAP1 DUP2 MSTORE PUSH1 0x12 PUSH1 0x20 MSTORE PUSH1 0x40 DUP2 KECCAK256 PUSH1 0xA ADD DUP5 SWAP1 SSTORE PUSH2 0x5067 SWAP1 DUP6 SWAP1 DUP6 PUSH2 0x4044 JUMP JUMPDEST DUP3 PUSH2 0x5071 DUP2 PUSH2 0x5B73 JUMP JUMPDEST SWAP4 POP POP POP POP PUSH2 0x4E86 JUMP JUMPDEST PUSH0 PUSH2 0x5086 DUP4 DUP4 PUSH2 0x51FF JUMP JUMPDEST SWAP2 POP DUP2 ISZERO PUSH2 0x102F JUMPI PUSH1 0x1 PUSH1 0x1 PUSH1 0xA0 SHL SUB DUP4 AND PUSH0 SWAP1 DUP2 MSTORE PUSH1 0x12 PUSH1 0x20 MSTORE PUSH1 0x40 SWAP1 KECCAK256 PUSH1 0xA ADD SLOAD PUSH1 0x4 GT ISZERO PUSH2 0x5158 JUMPI PUSH1 0x64 PUSH2 0x50BE DUP4 PUSH1 0x4B PUSH2 0x5B35 JUMP JUMPDEST PUSH2 0x50C8 SWAP2 SWAP1 PUSH2 0x5C14 JUMP JUMPDEST PUSH1 0x1 PUSH1 0x1 PUSH1 0xA0 SHL SUB DUP5 AND PUSH0 SWAP1 DUP2 MSTORE PUSH1 0x1A PUSH1 0x20 SWAP1 DUP2 MSTORE PUSH1 0x40 DUP1 DUP4 KECCAK256 PUSH1 0xD SLOAD DUP5 MSTORE SWAP1 SWAP2 MSTORE DUP2 KECCAK256 DUP1 SLOAD SWAP1 SWAP2 SWAP1 PUSH2 0x50FC SWAP1 DUP5 SWAP1 PUSH2 0x5C33 JUMP JUMPDEST SWAP1 SWAP2 SSTORE POP PUSH1 0x64 SWAP1 POP PUSH2 0x510F DUP4 PUSH1 0x19 PUSH2 0x5B35 JUMP JUMPDEST PUSH2 0x5119 SWAP2 SWAP1 PUSH2 0x5C14 JUMP JUMPDEST PUSH1 0x1 PUSH1 0x1 PUSH1 0xA0 SHL SUB DUP5 AND PUSH0 SWAP1 DUP2 MSTORE PUSH1 0x1A PUSH1 0x20 SWAP1 DUP2 MSTORE PUSH1 0x40 DUP1 DUP4 KECCAK256 PUSH1 0xE SLOAD DUP5 MSTORE SWAP1 SWAP2 MSTORE DUP2 KECCAK256 DUP1 SLOAD SWAP1 SWAP2 SWAP1 PUSH2 0x514D SWAP1 DUP5 SWAP1 PUSH2 0x5C33 JUMP JUMPDEST SWAP1 SWAP2 SSTORE POP PUSH2 0x102F SWAP1 POP JUMP JUMPDEST PUSH1 0x64 PUSH2 0x5165 DUP4 PUSH1 0x32 PUSH2 0x5B35 JUMP JUMPDEST PUSH2 0x516F SWAP2 SWAP1 PUSH2 0x5C14 JUMP JUMPDEST PUSH1 0x1 PUSH1 0x1 PUSH1 0xA0 SHL SUB DUP5 AND PUSH0 SWAP1 DUP2 MSTORE PUSH1 0x1A PUSH1 0x20 SWAP1 DUP2 MSTORE PUSH1 0x40 DUP1 DUP4 KECCAK256 PUSH1 0xD SLOAD DUP5 MSTORE SWAP1 SWAP2 MSTORE DUP2 KECCAK256 DUP1 SLOAD SWAP1 SWAP2 SWAP1 PUSH2 0x51A3 SWAP1 DUP5 SWAP1 PUSH2 0x5C33 JUMP JUMPDEST SWAP1 SWAP2 SSTORE POP PUSH1 0x64 SWAP1 POP PUSH2 0x51B6 DUP4 PUSH1 0x32 PUSH2 0x5B35 JUMP JUMPDEST PUSH2 0x51C0 SWAP2 SWAP1 PUSH2 0x5C14 JUMP JUMPDEST PUSH1 0x1 PUSH1 0x1 PUSH1 0xA0 SHL SUB DUP5 AND PUSH0 SWAP1 DUP2 MSTORE PUSH1 0x1A PUSH1 0x20 SWAP1 DUP2 MSTORE PUSH1 0x40 DUP1 DUP4 KECCAK256 PUSH1 0xE SLOAD DUP5 MSTORE SWAP1 SWAP2 MSTORE DUP2 KECCAK256 DUP1 SLOAD SWAP1 SWAP2 SWAP1 PUSH2 0x51F4 SWAP1 DUP5 SWAP1 PUSH2 0x5C33 JUMP JUMPDEST SWAP1 SWAP2 SSTORE POP POP POP SWAP2 SWAP1 POP JUMP JUMPDEST PUSH1 0x1 PUSH1 0x1 PUSH1 0xA0 SHL SUB DUP3 AND PUSH0 SWAP1 DUP2 MSTORE PUSH1 0x12 PUSH1 0x20 MSTORE PUSH1 0x40 DUP2 KECCAK256 PUSH1 0x9 ADD SLOAD TIMESTAMP LT PUSH2 0x5227 JUMPI POP PUSH0 PUSH2 0x2B84 JUMP JUMPDEST PUSH1 0x1 PUSH1 0x1 PUSH1 0xA0 SHL SUB DUP4 AND PUSH0 SWAP1 DUP2 MSTORE PUSH1 0x1B PUSH1 0x20 MSTORE PUSH1 0x40 SWAP1 KECCAK256 SLOAD DUP3 PUSH1 0x1 JUMPDEST DUP3 DUP2 GT PUSH2 0x52FE JUMPI PUSH1 0x1 PUSH1 0x1 PUSH1 0xA0 SHL SUB DUP7 AND PUSH0 SWAP1 DUP2 MSTORE PUSH1 0x15 PUSH1 0x20 SWAP1 DUP2 MSTORE PUSH1 0x40 DUP1 DUP4 KECCAK256 DUP5 DUP5 MSTORE SWAP1 SWAP2 MSTORE DUP2 KECCAK256 PUSH1 0x4 DUP2 ADD SLOAD PUSH1 0x3 DUP3 ADD SLOAD SWAP2 SWAP3 SWAP2 GT PUSH2 0x5284 JUMPI PUSH0 PUSH2 0x5298 JUMP JUMPDEST DUP2 PUSH1 0x4 ADD SLOAD DUP3 PUSH1 0x3 ADD SLOAD PUSH2 0x5298 SWAP2 SWAP1 PUSH2 0x5B4C JUMP JUMPDEST SWAP1 POP DUP1 ISZERO PUSH2 0x52E9 JUMPI PUSH0 DUP2 DUP6 GT ISZERO PUSH2 0x52AF JUMPI DUP2 PUSH2 0x52B1 JUMP JUMPDEST DUP5 JUMPDEST SWAP1 POP DUP1 DUP4 PUSH1 0x4 ADD PUSH0 DUP3 DUP3 SLOAD PUSH2 0x52C6 SWAP2 SWAP1 PUSH2 0x5C33 JUMP JUMPDEST SWAP1 SWAP2 SSTORE POP PUSH2 0x52D6 SWAP1 POP DUP2 DUP7 PUSH2 0x5B4C JUMP JUMPDEST SWAP5 POP DUP5 PUSH0 SUB PUSH2 0x52E7 JUMPI POP POP POP PUSH2 0x52FE JUMP JUMPDEST POP JUMPDEST POP POP DUP1 DUP1 PUSH2 0x52F6 SWAP1 PUSH2 0x5B73 JUMP JUMPDEST SWAP2 POP POP PUSH2 0x5243 JUMP JUMPDEST POP PUSH2 0x5309 DUP2 DUP6 PUSH2 0x5B4C JUMP JUMPDEST SWAP6 SWAP5 POP POP POP POP POP JUMP JUMPDEST PUSH1 0x40 MLOAD DUP1 PUSH1 0x60 ADD PUSH1 0x40 MSTORE DUP1 PUSH1 0x3 SWAP1 PUSH1 0x20 DUP3 MUL DUP1 CALLDATASIZE DUP4 CALLDATACOPY POP SWAP2 SWAP3 SWAP2 POP POP JUMP JUMPDEST DUP3 DUP1 SLOAD DUP3 DUP3 SSTORE SWAP1 PUSH0 MSTORE PUSH1 0x20 PUSH0 KECCAK256 SWAP1 DUP2 ADD SWAP3 DUP3 ISZERO PUSH2 0x5383 JUMPI SWAP2 PUSH1 0x20 MUL DUP3 ADD JUMPDEST DUP3 DUP2 GT ISZERO PUSH2 0x5383 JUMPI DUP3 MLOAD DUP3 SLOAD PUSH1 0x1 PUSH1 0x1 PUSH1 0xA0 SHL SUB NOT AND PUSH1 0x1 PUSH1 0x1 PUSH1 0xA0 SHL SUB SWAP1 SWAP2 AND OR DUP3 SSTORE PUSH1 0x20 SWAP1 SWAP3 ADD SWAP2 PUSH1 0x1 SWAP1 SWAP2 ADD SWAP1 PUSH2 0x534E JUMP JUMPDEST POP PUSH2 0x538F SWAP3 SWAP2 POP PUSH2 0x53CC JUMP JUMPDEST POP SWAP1 JUMP JUMPDEST DUP3 DUP1 SLOAD DUP3 DUP3 SSTORE SWAP1 PUSH0 MSTORE PUSH1 0x20 PUSH0 KECCAK256 SWAP1 DUP2 ADD SWAP3 DUP3 ISZERO PUSH2 0x5383 JUMPI SWAP2 PUSH1 0x20 MUL DUP3 ADD JUMPDEST DUP3 DUP2 GT ISZERO PUSH2 0x5383 JUMPI DUP3 MLOAD DUP3 SSTORE SWAP2 PUSH1 0x20 ADD SWAP2 SWAP1 PUSH1 0x1 ADD SWAP1 PUSH2 0x53B1 JUMP JUMPDEST JUMPDEST DUP1 DUP3 GT ISZERO PUSH2 0x538F JUMPI PUSH0 DUP2 SSTORE PUSH1 0x1 ADD PUSH2 0x53CD JUMP JUMPDEST DUP1 CALLDATALOAD PUSH1 0x1 PUSH1 0x1 PUSH1 0xA0 SHL SUB DUP2 AND DUP2 EQ PUSH2 0x53F6 JUMPI PUSH0 DUP1 REVERT JUMPDEST SWAP2 SWAP1 POP JUMP JUMPDEST PUSH0 DUP1 PUSH1 0x40 DUP4 DUP6 SUB SLT ISZERO PUSH2 0x540C JUMPI PUSH0 DUP1 REVERT JUMPDEST PUSH2 0x5415 DUP4 PUSH2 0x53E0 JUMP JUMPDEST SWAP5 PUSH1 0x20 SWAP4 SWAP1 SWAP4 ADD CALLDATALOAD SWAP4 POP POP POP JUMP JUMPDEST PUSH0 PUSH1 0x20 DUP3 DUP5 SUB SLT ISZERO PUSH2 0x5433 JUMPI PUSH0 DUP1 REVERT JUMPDEST PUSH2 0x543C DUP3 PUSH2 0x53E0 JUMP JUMPDEST SWAP4 SWAP3 POP POP POP JUMP JUMPDEST PUSH0 DUP1 PUSH0 PUSH1 0x60 DUP5 DUP7 SUB SLT ISZERO PUSH2 0x5455 JUMPI PUSH0 DUP1 REVERT JUMPDEST PUSH2 0x545E DUP5 PUSH2 0x53E0 JUMP JUMPDEST SWAP6 PUSH1 0x20 DUP6 ADD CALLDATALOAD SWAP6 POP PUSH1 0x40 SWAP1 SWAP5 ADD CALLDATALOAD SWAP4 SWAP3 POP POP POP JUMP JUMPDEST PUSH1 0x20 DUP1 DUP3 MSTORE DUP3 MLOAD DUP3 DUP3 ADD DUP2 SWAP1 MSTORE PUSH0 SWAP2 DUP5 ADD SWAP1 PUSH1 0x40 DUP5 ADD SWAP1 DUP4 JUMPDEST DUP2 DUP2 LT ISZERO PUSH2 0x54C6 JUMPI DUP4 MLOAD DUP1 MLOAD DUP5 MSTORE PUSH1 0x20 DUP2 ADD MLOAD PUSH1 0x20 DUP6 ADD MSTORE PUSH1 0x40 DUP2 ADD MLOAD PUSH1 0x40 DUP6 ADD MSTORE POP PUSH1 0x60 DUP4 ADD SWAP3 POP PUSH1 0x20 DUP5 ADD SWAP4 POP PUSH1 0x1 DUP2 ADD SWAP1 POP PUSH2 0x548C JUMP JUMPDEST POP SWAP1 SWAP6 SWAP5 POP POP POP POP POP JUMP JUMPDEST PUSH1 0x20 DUP1 DUP3 MSTORE DUP3 MLOAD DUP3 DUP3 ADD DUP2 SWAP1 MSTORE PUSH0 SWAP2 DUP5 ADD SWAP1 PUSH1 0x40 DUP5 ADD SWAP1 DUP4 JUMPDEST DUP2 DUP2 LT ISZERO PUSH2 0x54C6 JUMPI DUP4 MLOAD DUP1 MLOAD DUP5 MSTORE PUSH1 0x20 DUP2 ADD MLOAD PUSH1 0x20 DUP6 ADD MSTORE PUSH1 0x40 DUP2 ADD MLOAD PUSH1 0x40 DUP6 ADD MSTORE PUSH1 0x60 DUP2 ADD MLOAD PUSH1 0x60 DUP6 ADD MSTORE PUSH1 0x80 DUP2 ADD MLOAD PUSH1 0x80 DUP6 ADD MSTORE POP PUSH1 0xA0 DUP4 ADD SWAP3 POP PUSH1 0x20 DUP5 ADD SWAP4 POP PUSH1 0x1 DUP2 ADD SWAP1 POP PUSH2 0x54EA JUMP JUMPDEST PUSH0 DUP2 MLOAD DUP1 DUP5 MSTORE DUP1 PUSH1 0x20 DUP5 ADD PUSH1 0x20 DUP7 ADD MCOPY PUSH0 PUSH1 0x20 DUP3 DUP7 ADD ADD MSTORE PUSH1 0x20 PUSH1 0x1F NOT PUSH1 0x1F DUP4 ADD AND DUP6 ADD ADD SWAP2 POP POP SWAP3 SWAP2 POP POP JUMP JUMPDEST PUSH0 PUSH1 0x20 DUP3 ADD PUSH1 0x20 DUP4 MSTORE DUP1 DUP5 MLOAD DUP1 DUP4 MSTORE PUSH1 0x40 DUP6 ADD SWAP2 POP PUSH1 0x40 DUP2 PUSH1 0x5 SHL DUP7 ADD ADD SWAP3 POP PUSH1 0x20 DUP7 ADD PUSH0 JUMPDEST DUP3 DUP2 LT ISZERO PUSH2 0x563D JUMPI PUSH1 0x3F NOT DUP8 DUP7 SUB ADD DUP5 MSTORE DUP2 MLOAD DUP1 MLOAD DUP7 MSTORE PUSH1 0x20 DUP2 ADD MLOAD PUSH2 0x120 PUSH1 0x20 DUP9 ADD MSTORE PUSH2 0x55BE PUSH2 0x120 DUP9 ADD DUP3 PUSH2 0x5538 JUMP JUMPDEST SWAP1 POP PUSH1 0x40 DUP3 ADD MLOAD PUSH1 0x40 DUP9 ADD MSTORE PUSH1 0x60 DUP3 ADD MLOAD PUSH2 0x55DD PUSH1 0x60 DUP10 ADD DUP3 ISZERO ISZERO SWAP1 MSTORE JUMP JUMPDEST POP PUSH1 0x80 DUP3 ADD MLOAD PUSH2 0x55F1 PUSH1 0x80 DUP10 ADD DUP3 ISZERO ISZERO SWAP1 MSTORE JUMP JUMPDEST POP PUSH1 0xA0 DUP3 ADD MLOAD PUSH1 0xA0 DUP9 ADD MSTORE PUSH1 0xC0 DUP3 ADD MLOAD PUSH1 0xC0 DUP9 ADD MSTORE PUSH1 0xE0 DUP3 ADD MLOAD PUSH1 0xE0 DUP9 ADD MSTORE PUSH2 0x100 DUP3 ADD MLOAD SWAP2 POP PUSH2 0x5627 PUSH2 0x100 DUP9 ADD DUP4 ISZERO ISZERO SWAP1 MSTORE JUMP JUMPDEST SWAP6 POP POP PUSH1 0x20 SWAP4 DUP5 ADD SWAP4 SWAP2 SWAP1 SWAP2 ADD SWAP1 PUSH1 0x1 ADD PUSH2 0x558C JUMP JUMPDEST POP SWAP3 SWAP7 SWAP6 POP POP POP POP POP POP JUMP JUMPDEST PUSH1 0x20 DUP1 DUP3 MSTORE DUP3 MLOAD DUP3 DUP3 ADD DUP2 SWAP1 MSTORE PUSH0 SWAP2 DUP5 ADD SWAP1 PUSH1 0x40 DUP5 ADD SWAP1 DUP4 JUMPDEST DUP2 DUP2 LT ISZERO PUSH2 0x54C6 JUMPI DUP4 MLOAD DUP1 MLOAD DUP5 MSTORE PUSH1 0x20 DUP2 ADD MLOAD PUSH1 0x20 DUP6 ADD MSTORE PUSH1 0x40 DUP2 ADD MLOAD PUSH1 0x40 DUP6 ADD MSTORE PUSH1 0x60 DUP2 ADD MLOAD PUSH1 0x60 DUP6 ADD MSTORE PUSH1 0x80 DUP2 ADD MLOAD PUSH1 0x80 DUP6 ADD MSTORE PUSH1 0xA0 DUP2 ADD MLOAD PUSH1 0xA0 DUP6 ADD MSTORE PUSH1 0xC0 DUP2 ADD MLOAD ISZERO ISZERO PUSH1 0xC0 DUP6 ADD MSTORE POP PUSH1 0xE0 DUP4 ADD SWAP3 POP PUSH1 0x20 DUP5 ADD SWAP4 POP PUSH1 0x1 DUP2 ADD SWAP1 POP PUSH2 0x5662 JUMP JUMPDEST PUSH1 0x20 DUP2 MSTORE PUSH2 0x56E0 PUSH1 0x20 DUP3 ADD DUP4 MLOAD PUSH1 0x1 PUSH1 0x1 PUSH1 0xA0 SHL SUB AND SWAP1 MSTORE JUMP JUMPDEST PUSH1 0x20 DUP3 ADD MLOAD PUSH1 0x40 DUP3 ADD MSTORE PUSH1 0x40 DUP3 ADD MLOAD PUSH1 0x60 DUP3 ADD MSTORE PUSH1 0x60 DUP3 ADD MLOAD PUSH1 0x80 DUP3 ADD MSTORE PUSH1 0x80 DUP3 ADD MLOAD PUSH1 0xA0 DUP3 ADD MSTORE PUSH1 0xA0 DUP3 ADD MLOAD PUSH1 0xC0 DUP3 ADD MSTORE PUSH1 0xC0 DUP3 ADD MLOAD PUSH1 0xE0 DUP3 ADD MSTORE PUSH1 0xE0 DUP3 ADD MLOAD PUSH2 0x100 DUP3 ADD MSTORE PUSH2 0x100 DUP3 ADD MLOAD PUSH2 0x120 DUP3 ADD MSTORE PUSH2 0x120 DUP3 ADD MLOAD PUSH2 0x140 DUP3 ADD MSTORE PUSH2 0x140 DUP3 ADD MLOAD PUSH2 0x160 DUP3 ADD MSTORE PUSH2 0x160 DUP3 ADD MLOAD PUSH2 0x180 DUP3 ADD MSTORE PUSH2 0x180 DUP3 ADD MLOAD PUSH2 0x1A0 DUP3 ADD MSTORE PUSH2 0x1A0 DUP3 ADD MLOAD PUSH2 0x1C0 DUP3 ADD MSTORE PUSH2 0x1C0 DUP3 ADD MLOAD PUSH2 0x1E0 DUP3 ADD MSTORE PUSH2 0x1E0 DUP3 ADD MLOAD PUSH2 0x200 DUP3 ADD MSTORE PUSH2 0x200 DUP3 ADD MLOAD PUSH2 0x220 DUP3 ADD MSTORE PUSH2 0x220 DUP3 ADD MLOAD PUSH2 0x240 DUP3 ADD MSTORE PUSH2 0x240 DUP3 ADD MLOAD PUSH2 0x260 DUP3 ADD MSTORE PUSH2 0x260 DUP3 ADD MLOAD PUSH2 0x280 DUP3 ADD MSTORE PUSH0 PUSH2 0x280 DUP4 ADD MLOAD PUSH2 0x320 PUSH2 0x2A0 DUP5 ADD MSTORE PUSH2 0x57D5 PUSH2 0x340 DUP5 ADD DUP3 PUSH2 0x5538 JUMP JUMPDEST SWAP1 POP PUSH2 0x2A0 DUP5 ADD MLOAD PUSH2 0x2C0 DUP5 ADD MSTORE PUSH2 0x2C0 DUP5 ADD MLOAD PUSH2 0x57F8 PUSH2 0x2E0 DUP6 ADD DUP3 ISZERO ISZERO SWAP1 MSTORE JUMP JUMPDEST POP PUSH2 0x2E0 DUP5 ADD MLOAD DUP1 ISZERO ISZERO PUSH2 0x300 DUP6 ADD MSTORE POP PUSH2 0x300 DUP5 ADD MLOAD DUP1 ISZERO ISZERO PUSH2 0x320 DUP6 ADD MSTORE POP SWAP4 SWAP3 POP POP POP JUMP JUMPDEST PUSH0 DUP1 PUSH0 PUSH1 0x60 DUP5 DUP7 SUB SLT ISZERO PUSH2 0x5832 JUMPI PUSH0 DUP1 REVERT JUMPDEST PUSH2 0x583B DUP5 PUSH2 0x53E0 JUMP JUMPDEST SWAP3 POP PUSH2 0x5849 PUSH1 0x20 DUP6 ADD PUSH2 0x53E0 JUMP JUMPDEST SWAP3 SWAP6 SWAP3 SWAP5 POP POP POP PUSH1 0x40 SWAP2 SWAP1 SWAP2 ADD CALLDATALOAD SWAP1 JUMP JUMPDEST PUSH0 PUSH1 0x20 DUP3 DUP5 SUB SLT ISZERO PUSH2 0x586A JUMPI PUSH0 DUP1 REVERT JUMPDEST POP CALLDATALOAD SWAP2 SWAP1 POP JUMP JUMPDEST PUSH1 0x20 DUP1 DUP3 MSTORE DUP3 MLOAD DUP3 DUP3 ADD DUP2 SWAP1 MSTORE PUSH0 SWAP2 DUP5 ADD SWAP1 PUSH1 0x40 DUP5 ADD SWAP1 DUP4 JUMPDEST DUP2 DUP2 LT ISZERO PUSH2 0x54C6 JUMPI PUSH2 0x58C4 DUP4 DUP6 MLOAD DUP1 MLOAD DUP3 MSTORE PUSH1 0x20 DUP1 DUP3 ADD MLOAD PUSH1 0x1 PUSH1 0x1 PUSH1 0xA0 SHL SUB AND SWAP1 DUP4 ADD MSTORE PUSH1 0x40 DUP1 DUP3 ADD MLOAD SWAP1 DUP4 ADD MSTORE PUSH1 0x60 SWAP1 DUP2 ADD MLOAD SWAP2 ADD MSTORE JUMP JUMPDEST PUSH1 0x20 SWAP4 SWAP1 SWAP4 ADD SWAP3 PUSH1 0x80 SWAP3 SWAP1 SWAP3 ADD SWAP2 PUSH1 0x1 ADD PUSH2 0x588A JUMP JUMPDEST PUSH1 0x20 DUP1 DUP3 MSTORE DUP3 MLOAD DUP3 DUP3 ADD DUP2 SWAP1 MSTORE PUSH0 SWAP2 DUP5 ADD SWAP1 PUSH1 0x40 DUP5 ADD SWAP1 DUP4 JUMPDEST DUP2 DUP2 LT ISZERO PUSH2 0x54C6 JUMPI DUP4 MLOAD DUP1 MLOAD DUP5 MSTORE PUSH1 0x20 SWAP1 DUP2 ADD MLOAD DUP2 DUP6 ADD MSTORE SWAP1 SWAP4 ADD SWAP3 PUSH1 0x40 SWAP1 SWAP3 ADD SWAP2 PUSH1 0x1 ADD PUSH2 0x58F3 JUMP JUMPDEST PUSH0 PUSH1 0x20 DUP3 ADD PUSH1 0x20 DUP4 MSTORE DUP1 DUP5 MLOAD DUP1 DUP4 MSTORE PUSH1 0x40 DUP6 ADD SWAP2 POP PUSH1 0x40 DUP2 PUSH1 0x5 SHL DUP7 ADD ADD SWAP3 POP PUSH1 0x20 DUP7 ADD PUSH0 JUMPDEST DUP3 DUP2 LT ISZERO PUSH2 0x563D JUMPI PUSH1 0x3F NOT DUP8 DUP7 SUB ADD DUP5 MSTORE DUP2 MLOAD DUP1 MLOAD DUP7 MSTORE PUSH1 0x20 DUP2 ADD MLOAD PUSH2 0x160 PUSH1 0x20 DUP9 ADD MSTORE PUSH2 0x5975 PUSH2 0x160 DUP9 ADD DUP3 PUSH2 0x5538 JUMP JUMPDEST SWAP1 POP PUSH1 0x40 DUP3 ADD MLOAD PUSH1 0x40 DUP9 ADD MSTORE PUSH1 0x60 DUP3 ADD MLOAD PUSH1 0x60 DUP9 ADD MSTORE PUSH1 0x80 DUP3 ADD MLOAD PUSH1 0x80 DUP9 ADD MSTORE PUSH1 0xA0 DUP3 ADD MLOAD PUSH1 0xA0 DUP9 ADD MSTORE PUSH1 0xC0 DUP3 ADD MLOAD PUSH2 0x59B2 PUSH1 0xC0 DUP10 ADD DUP3 ISZERO ISZERO SWAP1 MSTORE JUMP JUMPDEST POP PUSH1 0xE0 DUP3 ADD MLOAD PUSH1 0xE0 DUP9 ADD MSTORE PUSH2 0x100 DUP3 ADD MLOAD PUSH2 0x100 DUP9 ADD MSTORE PUSH2 0x120 DUP3 ADD MLOAD PUSH2 0x120 DUP9 ADD MSTORE PUSH2 0x140 DUP3 ADD MLOAD SWAP2 POP PUSH2 0x59EC PUSH2 0x140 DUP9 ADD DUP4 ISZERO ISZERO SWAP1 MSTORE JUMP JUMPDEST SWAP6 POP POP PUSH1 0x20 SWAP4 DUP5 ADD SWAP4 SWAP2 SWAP1 SWAP2 ADD SWAP1 PUSH1 0x1 ADD PUSH2 0x5943 JUMP JUMPDEST DUP10 DUP2 MSTORE PUSH2 0x120 PUSH1 0x20 DUP3 ADD MSTORE PUSH0 PUSH2 0x5A1C PUSH2 0x120 DUP4 ADD DUP12 PUSH2 0x5538 JUMP JUMPDEST PUSH1 0x40 DUP4 ADD SWAP10 SWAP1 SWAP10 MSTORE POP SWAP6 ISZERO ISZERO PUSH1 0x60 DUP8 ADD MSTORE SWAP4 ISZERO ISZERO PUSH1 0x80 DUP7 ADD MSTORE PUSH1 0xA0 DUP6 ADD SWAP3 SWAP1 SWAP3 MSTORE PUSH1 0xC0 DUP5 ADD MSTORE PUSH1 0xE0 DUP4 ADD MSTORE ISZERO ISZERO PUSH2 0x100 SWAP1 SWAP2 ADD MSTORE SWAP3 SWAP2 POP POP JUMP JUMPDEST PUSH0 DUP1 PUSH1 0x40 DUP4 DUP6 SUB SLT ISZERO PUSH2 0x5A67 JUMPI PUSH0 DUP1 REVERT JUMPDEST POP POP DUP1 CALLDATALOAD SWAP3 PUSH1 0x20 SWAP1 SWAP2 ADD CALLDATALOAD SWAP2 POP JUMP JUMPDEST PUSH1 0x20 DUP1 DUP3 MSTORE DUP3 MLOAD DUP3 DUP3 ADD DUP2 SWAP1 MSTORE PUSH0 SWAP2 DUP5 ADD SWAP1 PUSH1 0x40 DUP5 ADD SWAP1 DUP4 JUMPDEST DUP2 DUP2 LT ISZERO PUSH2 0x54C6 JUMPI PUSH2 0x5AC9 DUP4 DUP6 MLOAD DUP1 MLOAD DUP3 MSTORE PUSH1 0x20 DUP1 DUP3 ADD MLOAD PUSH1 0x1 PUSH1 0x1 PUSH1 0xA0 SHL SUB AND SWAP1 DUP4 ADD MSTORE PUSH1 0x40 DUP1 DUP3 ADD MLOAD SWAP1 DUP4 ADD MSTORE PUSH1 0x60 SWAP1 DUP2 ADD MLOAD SWAP2 ADD MSTORE JUMP JUMPDEST PUSH1 0x20 SWAP4 SWAP1 SWAP4 ADD SWAP3 PUSH1 0x80 SWAP3 SWAP1 SWAP3 ADD SWAP2 PUSH1 0x1 ADD PUSH2 0x5A8F JUMP JUMPDEST DUP8 DUP2 MSTORE PUSH1 0xE0 PUSH1 0x20 DUP3 ADD MSTORE PUSH0 PUSH2 0x5AF7 PUSH1 0xE0 DUP4 ADD DUP10 PUSH2 0x5538 JUMP JUMPDEST PUSH1 0x40 DUP4 ADD SWAP8 SWAP1 SWAP8 MSTORE POP PUSH1 0x60 DUP2 ADD SWAP5 SWAP1 SWAP5 MSTORE PUSH1 0x80 DUP5 ADD SWAP3 SWAP1 SWAP3 MSTORE PUSH1 0xA0 DUP4 ADD MSTORE PUSH1 0xC0 SWAP1 SWAP2 ADD MSTORE SWAP3 SWAP2 POP POP JUMP JUMPDEST PUSH4 0x4E487B71 PUSH1 0xE0 SHL PUSH0 MSTORE PUSH1 0x11 PUSH1 0x4 MSTORE PUSH1 0x24 PUSH0 REVERT JUMPDEST DUP1 DUP3 MUL DUP2 ISZERO DUP3 DUP3 DIV DUP5 EQ OR PUSH2 0x2B84 JUMPI PUSH2 0x2B84 PUSH2 0x5B21 JUMP JUMPDEST DUP2 DUP2 SUB DUP2 DUP2 GT ISZERO PUSH2 0x2B84 JUMPI PUSH2 0x2B84 PUSH2 0x5B21 JUMP JUMPDEST PUSH4 0x4E487B71 PUSH1 0xE0 SHL PUSH0 MSTORE PUSH1 0x41 PUSH1 0x4 MSTORE PUSH1 0x24 PUSH0 REVERT JUMPDEST PUSH0 PUSH1 0x1 DUP3 ADD PUSH2 0x5B84 JUMPI PUSH2 0x5B84 PUSH2 0x5B21 JUMP JUMPDEST POP PUSH1 0x1 ADD SWAP1 JUMP JUMPDEST PUSH4 0x4E487B71 PUSH1 0xE0 SHL PUSH0 MSTORE PUSH1 0x32 PUSH1 0x4 MSTORE PUSH1 0x24 PUSH0 REVERT JUMPDEST PUSH0 DUP2 PUSH2 0x5BAD JUMPI PUSH2 0x5BAD PUSH2 0x5B21 JUMP JUMPDEST POP PUSH0 NOT ADD SWAP1 JUMP JUMPDEST PUSH1 0x1 DUP2 DUP2 SHR SWAP1 DUP3 AND DUP1 PUSH2 0x5BC8 JUMPI PUSH1 0x7F DUP3 AND SWAP2 POP JUMPDEST PUSH1 0x20 DUP3 LT DUP2 SUB PUSH2 0x102F JUMPI PUSH4 0x4E487B71 PUSH1 0xE0 SHL PUSH0 MSTORE PUSH1 0x22 PUSH1 0x4 MSTORE PUSH1 0x24 PUSH0 REVERT JUMPDEST PUSH1 0x20 DUP1 DUP3 MSTORE PUSH1 0x14 SWAP1 DUP3 ADD MSTORE PUSH20 0x596F7520617265206E6F7420616C6C6F77656421 PUSH1 0x60 SHL PUSH1 0x40 DUP3 ADD MSTORE PUSH1 0x60 ADD SWAP1 JUMP JUMPDEST PUSH0 DUP3 PUSH2 0x5C2E JUMPI PUSH4 0x4E487B71 PUSH1 0xE0 SHL PUSH0 MSTORE PUSH1 0x12 PUSH1 0x4 MSTORE PUSH1 0x24 PUSH0 REVERT JUMPDEST POP DIV SWAP1 JUMP JUMPDEST DUP1 DUP3 ADD DUP1 DUP3 GT ISZERO PUSH2 0x2B84 JUMPI PUSH2 0x2B84 PUSH2 0x5B21 JUMP JUMPDEST PUSH1 0x1 DUP2 JUMPDEST PUSH1 0x1 DUP5 GT ISZERO PUSH2 0x5C81 JUMPI DUP1 DUP6 DIV DUP2 GT ISZERO PUSH2 0x5C65 JUMPI PUSH2 0x5C65 PUSH2 0x5B21 JUMP JUMPDEST PUSH1 0x1 DUP5 AND ISZERO PUSH2 0x5C73 JUMPI SWAP1 DUP2 MUL SWAP1 JUMPDEST PUSH1 0x1 SWAP4 SWAP1 SWAP4 SHR SWAP3 DUP1 MUL PUSH2 0x5C4A JUMP JUMPDEST SWAP4 POP SWAP4 SWAP2 POP POP JUMP JUMPDEST PUSH0 DUP3 PUSH2 0x5C97 JUMPI POP PUSH1 0x1 PUSH2 0x2B84 JUMP JUMPDEST DUP2 PUSH2 0x5CA3 JUMPI POP PUSH0 PUSH2 0x2B84 JUMP JUMPDEST DUP2 PUSH1 0x1 DUP2 EQ PUSH2 0x5CB9 JUMPI PUSH1 0x2 DUP2 EQ PUSH2 0x5CC3 JUMPI PUSH2 0x5CDF JUMP JUMPDEST PUSH1 0x1 SWAP2 POP POP PUSH2 0x2B84 JUMP JUMPDEST PUSH1 0xFF DUP5 GT ISZERO PUSH2 0x5CD4 JUMPI PUSH2 0x5CD4 PUSH2 0x5B21 JUMP JUMPDEST POP POP PUSH1 0x1 DUP3 SHL PUSH2 0x2B84 JUMP JUMPDEST POP PUSH1 0x20 DUP4 LT PUSH2 0x133 DUP4 LT AND PUSH1 0x4E DUP5 LT PUSH1 0xB DUP5 LT AND OR ISZERO PUSH2 0x5D02 JUMPI POP DUP2 DUP2 EXP PUSH2 0x2B84 JUMP JUMPDEST PUSH2 0x5D0E PUSH0 NOT DUP5 DUP5 PUSH2 0x5C46 JUMP JUMPDEST DUP1 PUSH0 NOT DIV DUP3 GT ISZERO PUSH2 0x5D21 JUMPI PUSH2 0x5D21 PUSH2 0x5B21 JUMP JUMPDEST MUL SWAP4 SWAP3 POP POP POP JUMP JUMPDEST PUSH0 PUSH2 0x543C DUP4 DUP4 PUSH2 0x5C89 JUMP JUMPDEST PUSH0 PUSH1 0x20 DUP3 DUP5 SUB SLT ISZERO PUSH2 0x5D44 JUMPI PUSH0 DUP1 REVERT JUMPDEST POP MLOAD SWAP2 SWAP1 POP JUMP JUMPDEST PUSH0 PUSH1 0x20 DUP3 DUP5 SUB SLT ISZERO PUSH2 0x5D5B JUMPI PUSH0 DUP1 REVERT JUMPDEST DUP2 MLOAD DUP1 ISZERO ISZERO DUP2 EQ PUSH2 0x543C JUMPI PUSH0 DUP1 REVERT INVALID LOG2 PUSH5 0x6970667358 0x22 SLT KECCAK256 0x26 PUSH30 0xE6F1D2FDD7638E55EBBB23EC83129F2FBC19945B62F2BA712279F1B22BFE PUSH5 0x736F6C6343 STOP ADDMOD BYTE STOP CALLER "
		},
		"gasEstimates": {
			"creation": {
				"codeDepositCost": "4793600",
				"executionCost": "infinite",
				"totalCost": "infinite"
			},
			"external": {
				"CreatorAddress()": "2449",
				"CreatorAddress_2()": "2491",
				"Deposit(uint256,uint256)": "infinite",
				"GetContractDetails()": "infinite",
				"GetDashboardDetails(address)": "infinite",
				"GetDepositHistory(address,uint256,uint256)": "infinite",
				"GetDirects(address)": "infinite",
				"GetIncomeWithdrawalHistory(address,uint256,uint256)": "infinite",
				"GetLevelIncomeInfo(address)": "infinite",
				"GetPackages()": "infinite",
				"GetROIIncomeHistory(address,uint256,uint256)": "infinite",
				"GetRankInfo(address)": "infinite",
				"GetTeamDetails(address,uint256,uint256)": "infinite",
				"GetWalletBalance(address,uint256)": "2777",
				"Login(address)": "4915",
				"ManagementFee()": "2381",
				"MarketingAddress()": "2470",
				"Reactivate()": "infinite",
				"Register(address)": "infinite",
				"SecurityFundContract()": "2404",
				"SetSecurityFundContract(address)": "28987",
				"TopupMemberFromWallet(uint256,uint256)": "infinite",
				"TotalInvestment()": "2361",
				"TotalUsers()": "2382",
				"TotalWithdrawn()": "2340",
				"TransferFunds(address,address,uint256)": "infinite",
				"UpdateCreator2Address(address)": "29010",
				"UpdateCreatorAddress(address)": "29009",
				"UpdateMarketingAddress(address)": "28965",
				"Withdraw(address,uint256,uint256)": "infinite",
				"Withdraw(uint256)": "infinite",
				"map_LevelIncomeMaster(uint256)": "6865",
				"map_PackageMaster(uint256)": "infinite",
				"map_ROIIncomeHistory(address,uint256)": "6930",
				"map_RankMaster(uint256)": "infinite",
				"map_UserBusinessOnLevel(address,uint256)": "2700",
				"map_UserDeposits(address,uint256)": "11265",
				"map_UserIdToAddress(uint256)": "2607",
				"map_UserIncome(address)": "13320",
				"map_UserIncomeWithdrawalHistory(address,uint256)": "4784",
				"map_UserTeam(address)": "9053",
				"map_UserTransactionCount(address)": "9007",
				"map_UserWalletBalance(address,uint256)": "2678",
				"map_Users(address)": "26189"
			},
			"internal": {
				"CapAndCreditIncomeToWallet(address,uint256)": "infinite",
				"CapIncome(address,uint256)": "infinite",
				"CapIncomeView(address,uint256)": "infinite",
				"ConvertToBase(uint256)": "infinite",
				"DepositInternal(uint256,uint256)": "infinite",
				"DistributeLevelIncome(address)": "infinite",
				"GetCapping4X_QualificationEndTimestamp(address)": "infinite",
				"GetContractBalance()": "infinite",
				"GetPendingROIIncome(address)": "infinite",
				"GetTotalIncome(address)": "infinite",
				"GetTotalLevelIncome(address)": "infinite",
				"GetUserCappingAmount(address)": "infinite",
				"HasOneTimeInvestment(address,uint256)": "infinite",
				"HasUserActivationExpired(address)": "infinite",
				"Init()": "infinite",
				"InitLevelIncomeMaster()": "infinite",
				"InitPackageMaster()": "infinite",
				"InitRankMaster()": "infinite",
				"InitTopUser()": "infinite",
				"IsCappingRemaining(address)": "infinite",
				"IsOwner()": "4300",
				"IsQualifiedForLevelIncome(address,uint256)": "4431",
				"Process24HoursTopmostSponsorsIncome(uint256)": "infinite",
				"Process4X_CappingQualification(address,uint256,uint256)": "infinite",
				"ProcessNewRegistrationBonus(address,uint256)": "infinite",
				"ProcessROIIncome(address,uint256,uint256,uint256,uint256)": "infinite",
				"ProcessRankQualification(address)": "infinite",
				"ReactivateInternal(address,uint256,uint256)": "infinite",
				"ReceiveTokens(uint256)": "infinite",
				"RegisterInternal(address)": "infinite",
				"SaveDeposit(address,uint256,uint256)": "infinite",
				"SaveUser(address,address)": "infinite",
				"SendTokens(address,uint256)": "infinite",
				"SendTokensFromSecurityContract(address,uint256)": "infinite",
				"UpdateTeamCount(address,address)": "infinite",
				"UpdateTeamInvestment(address,address,uint256)": "infinite",
				"doesUserExist(address)": "2210",
				"isUserActive(address)": "2219"
			}
		},
		"methodIdentifiers": {
			"CreatorAddress()": "1cfa6e9b",
			"CreatorAddress_2()": "b5d962b7",
			"Deposit(uint256,uint256)": "a3af609b",
			"GetContractDetails()": "6b1a7086",
			"GetDashboardDetails(address)": "54a03e38",
			"GetDepositHistory(address,uint256,uint256)": "2e628e2e",
			"GetDirects(address)": "5be94e83",
			"GetIncomeWithdrawalHistory(address,uint256,uint256)": "759369d2",
			"GetLevelIncomeInfo(address)": "4a40f2fe",
			"GetPackages()": "3daa551c",
			"GetROIIncomeHistory(address,uint256,uint256)": "2e244fc7",
			"GetRankInfo(address)": "8b2c295e",
			"GetTeamDetails(address,uint256,uint256)": "dacbb37e",
			"GetWalletBalance(address,uint256)": "fd0bb36c",
			"Login(address)": "eecc1c95",
			"ManagementFee()": "b66db385",
			"MarketingAddress()": "3936e8b9",
			"Reactivate()": "ff9b6364",
			"Register(address)": "eeda149c",
			"SecurityFundContract()": "88cb410d",
			"SetSecurityFundContract(address)": "a5f94521",
			"TopupMemberFromWallet(uint256,uint256)": "a9a4c9bf",
			"TotalInvestment()": "a4b6f5e1",
			"TotalUsers()": "641fba96",
			"TotalWithdrawn()": "4788312f",
			"TransferFunds(address,address,uint256)": "5a015583",
			"UpdateCreator2Address(address)": "94c1e22b",
			"UpdateCreatorAddress(address)": "68ec2fbe",
			"UpdateMarketingAddress(address)": "ba32f6f4",
			"Withdraw(address,uint256,uint256)": "f279e6a1",
			"Withdraw(uint256)": "5b6b431d",
			"map_LevelIncomeMaster(uint256)": "705116a0",
			"map_PackageMaster(uint256)": "a18a609a",
			"map_ROIIncomeHistory(address,uint256)": "2dedf15a",
			"map_RankMaster(uint256)": "edbdc914",
			"map_UserBusinessOnLevel(address,uint256)": "1bfe37ce",
			"map_UserDeposits(address,uint256)": "365152fa",
			"map_UserIdToAddress(uint256)": "ac3a4800",
			"map_UserIncome(address)": "e315927b",
			"map_UserIncomeWithdrawalHistory(address,uint256)": "07d94067",
			"map_UserTeam(address)": "2a530a36",
			"map_UserTransactionCount(address)": "c5f00964",
			"map_UserWalletBalance(address,uint256)": "1362e8e6",
			"map_Users(address)": "5cf75517"
		}
	},
	"abi": [
		{
			"inputs": [],
			"stateMutability": "nonpayable",
			"type": "constructor"
		},
		{
			"anonymous": false,
			"inputs": [
				{
					"indexed": true,
					"internalType": "address",
					"name": "from",
					"type": "address"
				},
				{
					"indexed": true,
					"internalType": "address",
					"name": "to",
					"type": "address"
				},
				{
					"indexed": false,
					"internalType": "uint256",
					"name": "value",
					"type": "uint256"
				}
			],
			"name": "Transfer",
			"type": "event"
		},
		{
			"inputs": [],
			"name": "CreatorAddress",
			"outputs": [
				{
					"internalType": "address",
					"name": "",
					"type": "address"
				}
			],
			"stateMutability": "view",
			"type": "function"
		},
		{
			"inputs": [],
			"name": "CreatorAddress_2",
			"outputs": [
				{
					"internalType": "address",
					"name": "",
					"type": "address"
				}
			],
			"stateMutability": "view",
			"type": "function"
		},
		{
			"inputs": [
				{
					"internalType": "uint256",
					"name": "packageId",
					"type": "uint256"
				},
				{
					"internalType": "uint256",
					"name": "amount",
					"type": "uint256"
				}
			],
			"name": "Deposit",
			"outputs": [],
			"stateMutability": "payable",
			"type": "function"
		},
		{
			"inputs": [],
			"name": "GetContractDetails",
			"outputs": [
				{
					"components": [
						{
							"internalType": "uint256",
							"name": "TotalCommunity",
							"type": "uint256"
						},
						{
							"internalType": "uint256",
							"name": "CommunityInvestment",
							"type": "uint256"
						},
						{
							"internalType": "uint256",
							"name": "CommunityWithdrawal",
							"type": "uint256"
						},
						{
							"internalType": "uint256",
							"name": "ContractBalance",
							"type": "uint256"
						},
						{
							"internalType": "bool",
							"name": "IsWithdrawalAllowedAfterPrincipleAmount",
							"type": "bool"
						}
					],
					"internalType": "struct BBD.ContractInfo",
					"name": "info",
					"type": "tuple"
				}
			],
			"stateMutability": "view",
			"type": "function"
		},
		{
			"inputs": [
				{
					"internalType": "address",
					"name": "userAddress",
					"type": "address"
				}
			],
			"name": "GetDashboardDetails",
			"outputs": [
				{
					"components": [
						{
							"internalType": "address",
							"name": "SponsorAddress",
							"type": "address"
						},
						{
							"internalType": "uint256",
							"name": "Investment",
							"type": "uint256"
						},
						{
							"internalType": "uint256",
							"name": "DirectsCount",
							"type": "uint256"
						},
						{
							"internalType": "uint256",
							"name": "DirectsInvestment",
							"type": "uint256"
						},
						{
							"internalType": "uint256",
							"name": "TeamCount",
							"type": "uint256"
						},
						{
							"internalType": "uint256",
							"name": "TeamA_Business",
							"type": "uint256"
						},
						{
							"internalType": "uint256",
							"name": "TeamB_Business",
							"type": "uint256"
						},
						{
							"internalType": "uint256",
							"name": "TeamInvestment",
							"type": "uint256"
						},
						{
							"internalType": "uint256",
							"name": "NewRegistrationBonus",
							"type": "uint256"
						},
						{
							"internalType": "uint256",
							"name": "ReferralIncome",
							"type": "uint256"
						},
						{
							"internalType": "uint256",
							"name": "LevelIncome",
							"type": "uint256"
						},
						{
							"internalType": "uint256",
							"name": "ROIIncome",
							"type": "uint256"
						},
						{
							"internalType": "uint256",
							"name": "PendingROIIncome",
							"type": "uint256"
						},
						{
							"internalType": "uint256",
							"name": "RankIncome",
							"type": "uint256"
						},
						{
							"internalType": "uint256",
							"name": "TopmostSponsorsIncome",
							"type": "uint256"
						},
						{
							"internalType": "uint256",
							"name": "TotalIncome",
							"type": "uint256"
						},
						{
							"internalType": "uint256",
							"name": "Capping",
							"type": "uint256"
						},
						{
							"internalType": "uint256",
							"name": "AmountWithdrawn",
							"type": "uint256"
						},
						{
							"internalType": "uint256",
							"name": "WithdrawalWalletBalance",
							"type": "uint256"
						},
						{
							"internalType": "uint256",
							"name": "TopupWalletBalance",
							"type": "uint256"
						},
						{
							"internalType": "string",
							"name": "RankName",
							"type": "string"
						},
						{
							"internalType": "uint256",
							"name": "Capping4X_QualificationEndTimestamp",
							"type": "uint256"
						},
						{
							"internalType": "bool",
							"name": "IsCappingRemaining",
							"type": "bool"
						},
						{
							"internalType": "bool",
							"name": "IsQualifiedFor4X",
							"type": "bool"
						},
						{
							"internalType": "bool",
							"name": "IsFirstActivationDone",
							"type": "bool"
						}
					],
					"internalType": "struct BBD.UserDashboard",
					"name": "info",
					"type": "tuple"
				}
			],
			"stateMutability": "view",
			"type": "function"
		},
		{
			"inputs": [
				{
					"internalType": "address",
					"name": "userAddress",
					"type": "address"
				},
				{
					"internalType": "uint256",
					"name": "pageIndex",
					"type": "uint256"
				},
				{
					"internalType": "uint256",
					"name": "pageSize",
					"type": "uint256"
				}
			],
			"name": "GetDepositHistory",
			"outputs": [
				{
					"components": [
						{
							"internalType": "uint256",
							"name": "PackageId",
							"type": "uint256"
						},
						{
							"internalType": "uint256",
							"name": "Amount",
							"type": "uint256"
						},
						{
							"internalType": "uint256",
							"name": "Timestamp",
							"type": "uint256"
						},
						{
							"internalType": "uint256",
							"name": "Capping",
							"type": "uint256"
						},
						{
							"internalType": "uint256",
							"name": "IncomePaid",
							"type": "uint256"
						}
					],
					"internalType": "struct BBD.UserDeposit[]",
					"name": "deposits",
					"type": "tuple[]"
				}
			],
			"stateMutability": "view",
			"type": "function"
		},
		{
			"inputs": [
				{
					"internalType": "address",
					"name": "userAddress",
					"type": "address"
				}
			],
			"name": "GetDirects",
			"outputs": [
				{
					"components": [
						{
							"internalType": "uint256",
							"name": "Srno",
							"type": "uint256"
						},
						{
							"internalType": "address",
							"name": "Address",
							"type": "address"
						},
						{
							"internalType": "uint256",
							"name": "Investment",
							"type": "uint256"
						},
						{
							"internalType": "uint256",
							"name": "Business",
							"type": "uint256"
						}
					],
					"internalType": "struct BBD.UserDirects[]",
					"name": "directs",
					"type": "tuple[]"
				}
			],
			"stateMutability": "view",
			"type": "function"
		},
		{
			"inputs": [
				{
					"internalType": "address",
					"name": "userAddress",
					"type": "address"
				},
				{
					"internalType": "uint256",
					"name": "pageIndex",
					"type": "uint256"
				},
				{
					"internalType": "uint256",
					"name": "pageSize",
					"type": "uint256"
				}
			],
			"name": "GetIncomeWithdrawalHistory",
			"outputs": [
				{
					"components": [
						{
							"internalType": "uint256",
							"name": "Amount",
							"type": "uint256"
						},
						{
							"internalType": "uint256",
							"name": "Timestamp",
							"type": "uint256"
						}
					],
					"internalType": "struct BBD.UserIncomeWithdrawalTransaction[]",
					"name": "history",
					"type": "tuple[]"
				}
			],
			"stateMutability": "view",
			"type": "function"
		},
		{
			"inputs": [
				{
					"internalType": "address",
					"name": "userAddress",
					"type": "address"
				}
			],
			"name": "GetLevelIncomeInfo",
			"outputs": [
				{
					"components": [
						{
							"internalType": "uint256",
							"name": "Level",
							"type": "uint256"
						},
						{
							"internalType": "uint256",
							"name": "RequiredMinRankId",
							"type": "uint256"
						},
						{
							"internalType": "uint256",
							"name": "RankId",
							"type": "uint256"
						},
						{
							"internalType": "uint256",
							"name": "OnAmount",
							"type": "uint256"
						},
						{
							"internalType": "uint256",
							"name": "Percentage",
							"type": "uint256"
						},
						{
							"internalType": "uint256",
							"name": "Income",
							"type": "uint256"
						},
						{
							"internalType": "bool",
							"name": "IsLevelAchieved",
							"type": "bool"
						}
					],
					"internalType": "struct BBD.LevelIncomeInfo[]",
					"name": "info",
					"type": "tuple[]"
				}
			],
			"stateMutability": "view",
			"type": "function"
		},
		{
			"inputs": [],
			"name": "GetPackages",
			"outputs": [
				{
					"components": [
						{
							"internalType": "uint256",
							"name": "PackageId",
							"type": "uint256"
						},
						{
							"internalType": "string",
							"name": "Name",
							"type": "string"
						},
						{
							"internalType": "uint256",
							"name": "Amount",
							"type": "uint256"
						},
						{
							"internalType": "bool",
							"name": "IsActive",
							"type": "bool"
						},
						{
							"internalType": "bool",
							"name": "HasRange",
							"type": "bool"
						},
						{
							"internalType": "uint256",
							"name": "MinAmount",
							"type": "uint256"
						},
						{
							"internalType": "uint256",
							"name": "MaxAmount",
							"type": "uint256"
						},
						{
							"internalType": "uint256",
							"name": "ReferralIncome",
							"type": "uint256"
						},
						{
							"internalType": "bool",
							"name": "IsReferralIncomePercentage",
							"type": "bool"
						}
					],
					"internalType": "struct BBD.PackageMaster[]",
					"name": "",
					"type": "tuple[]"
				}
			],
			"stateMutability": "view",
			"type": "function"
		},
		{
			"inputs": [
				{
					"internalType": "address",
					"name": "userAddress",
					"type": "address"
				},
				{
					"internalType": "uint256",
					"name": "pageIndex",
					"type": "uint256"
				},
				{
					"internalType": "uint256",
					"name": "pageSize",
					"type": "uint256"
				}
			],
			"name": "GetROIIncomeHistory",
			"outputs": [
				{
					"components": [
						{
							"internalType": "uint256",
							"name": "OnAmount",
							"type": "uint256"
						},
						{
							"internalType": "uint256",
							"name": "Timestamp",
							"type": "uint256"
						},
						{
							"internalType": "uint256",
							"name": "Income",
							"type": "uint256"
						}
					],
					"internalType": "struct BBD.ROIIncomeDetail[]",
					"name": "history",
					"type": "tuple[]"
				}
			],
			"stateMutability": "view",
			"type": "function"
		},
		{
			"inputs": [
				{
					"internalType": "address",
					"name": "userAddress",
					"type": "address"
				}
			],
			"name": "GetRankInfo",
			"outputs": [
				{
					"components": [
						{
							"internalType": "uint256",
							"name": "RankId",
							"type": "uint256"
						},
						{
							"internalType": "string",
							"name": "RankName",
							"type": "string"
						},
						{
							"internalType": "uint256",
							"name": "ReqSelfInvestment",
							"type": "uint256"
						},
						{
							"internalType": "uint256",
							"name": "ReqTeamA_Business",
							"type": "uint256"
						},
						{
							"internalType": "uint256",
							"name": "ReqTeamB_Business",
							"type": "uint256"
						},
						{
							"internalType": "uint256",
							"name": "UserSelfInvestment",
							"type": "uint256"
						},
						{
							"internalType": "bool",
							"name": "HasOneTimeSelfInvestment",
							"type": "bool"
						},
						{
							"internalType": "uint256",
							"name": "UserTeamA_Business",
							"type": "uint256"
						},
						{
							"internalType": "uint256",
							"name": "UserTeamB_Business",
							"type": "uint256"
						},
						{
							"internalType": "uint256",
							"name": "RewardAmount",
							"type": "uint256"
						},
						{
							"internalType": "bool",
							"name": "IsAchieved",
							"type": "bool"
						}
					],
					"internalType": "struct BBD.RankInfo[]",
					"name": "info",
					"type": "tuple[]"
				}
			],
			"stateMutability": "view",
			"type": "function"
		},
		{
			"inputs": [
				{
					"internalType": "address",
					"name": "userAddress",
					"type": "address"
				},
				{
					"internalType": "uint256",
					"name": "pageIndex",
					"type": "uint256"
				},
				{
					"internalType": "uint256",
					"name": "pageSize",
					"type": "uint256"
				}
			],
			"name": "GetTeamDetails",
			"outputs": [
				{
					"components": [
						{
							"internalType": "uint256",
							"name": "Srno",
							"type": "uint256"
						},
						{
							"internalType": "address",
							"name": "Address",
							"type": "address"
						},
						{
							"internalType": "uint256",
							"name": "Investment",
							"type": "uint256"
						},
						{
							"internalType": "uint256",
							"name": "Business",
							"type": "uint256"
						}
					],
					"internalType": "struct BBD.UserTeamMember[]",
					"name": "team",
					"type": "tuple[]"
				}
			],
			"stateMutability": "view",
			"type": "function"
		},
		{
			"inputs": [
				{
					"internalType": "address",
					"name": "userAddress",
					"type": "address"
				},
				{
					"internalType": "uint256",
					"name": "walletId",
					"type": "uint256"
				}
			],
			"name": "GetWalletBalance",
			"outputs": [
				{
					"internalType": "uint256",
					"name": "",
					"type": "uint256"
				}
			],
			"stateMutability": "view",
			"type": "function"
		},
		{
			"inputs": [
				{
					"internalType": "address",
					"name": "_address",
					"type": "address"
				}
			],
			"name": "Login",
			"outputs": [
				{
					"internalType": "bool",
					"name": "",
					"type": "bool"
				}
			],
			"stateMutability": "view",
			"type": "function"
		},
		{
			"inputs": [],
			"name": "ManagementFee",
			"outputs": [
				{
					"internalType": "address",
					"name": "",
					"type": "address"
				}
			],
			"stateMutability": "view",
			"type": "function"
		},
		{
			"inputs": [],
			"name": "MarketingAddress",
			"outputs": [
				{
					"internalType": "address",
					"name": "",
					"type": "address"
				}
			],
			"stateMutability": "view",
			"type": "function"
		},
		{
			"inputs": [],
			"name": "Reactivate",
			"outputs": [
				{
					"internalType": "bool",
					"name": "",
					"type": "bool"
				}
			],
			"stateMutability": "nonpayable",
			"type": "function"
		},
		{
			"inputs": [
				{
					"internalType": "address",
					"name": "sponsorAddress",
					"type": "address"
				}
			],
			"name": "Register",
			"outputs": [],
			"stateMutability": "payable",
			"type": "function"
		},
		{
			"inputs": [],
			"name": "SecurityFundContract",
			"outputs": [
				{
					"internalType": "address",
					"name": "",
					"type": "address"
				}
			],
			"stateMutability": "view",
			"type": "function"
		},
		{
			"inputs": [
				{
					"internalType": "address",
					"name": "_security",
					"type": "address"
				}
			],
			"name": "SetSecurityFundContract",
			"outputs": [],
			"stateMutability": "nonpayable",
			"type": "function"
		},
		{
			"inputs": [
				{
					"internalType": "uint256",
					"name": "packageId",
					"type": "uint256"
				},
				{
					"internalType": "uint256",
					"name": "amount",
					"type": "uint256"
				}
			],
			"name": "TopupMemberFromWallet",
			"outputs": [],
			"stateMutability": "nonpayable",
			"type": "function"
		},
		{
			"inputs": [],
			"name": "TotalInvestment",
			"outputs": [
				{
					"internalType": "uint256",
					"name": "",
					"type": "uint256"
				}
			],
			"stateMutability": "view",
			"type": "function"
		},
		{
			"inputs": [],
			"name": "TotalUsers",
			"outputs": [
				{
					"internalType": "uint256",
					"name": "",
					"type": "uint256"
				}
			],
			"stateMutability": "view",
			"type": "function"
		},
		{
			"inputs": [],
			"name": "TotalWithdrawn",
			"outputs": [
				{
					"internalType": "uint256",
					"name": "",
					"type": "uint256"
				}
			],
			"stateMutability": "view",
			"type": "function"
		},
		{
			"inputs": [
				{
					"internalType": "address",
					"name": "from",
					"type": "address"
				},
				{
					"internalType": "address",
					"name": "to",
					"type": "address"
				},
				{
					"internalType": "uint256",
					"name": "value",
					"type": "uint256"
				}
			],
			"name": "TransferFunds",
			"outputs": [],
			"stateMutability": "nonpayable",
			"type": "function"
		},
		{
			"inputs": [
				{
					"internalType": "address",
					"name": "addr",
					"type": "address"
				}
			],
			"name": "UpdateCreator2Address",
			"outputs": [],
			"stateMutability": "nonpayable",
			"type": "function"
		},
		{
			"inputs": [
				{
					"internalType": "address",
					"name": "addr",
					"type": "address"
				}
			],
			"name": "UpdateCreatorAddress",
			"outputs": [],
			"stateMutability": "nonpayable",
			"type": "function"
		},
		{
			"inputs": [
				{
					"internalType": "address",
					"name": "addr",
					"type": "address"
				}
			],
			"name": "UpdateMarketingAddress",
			"outputs": [],
			"stateMutability": "nonpayable",
			"type": "function"
		},
		{
			"inputs": [
				{
					"internalType": "uint256",
					"name": "amount",
					"type": "uint256"
				}
			],
			"name": "Withdraw",
			"outputs": [],
			"stateMutability": "nonpayable",
			"type": "function"
		},
		{
			"inputs": [
				{
					"internalType": "address",
					"name": "userAddress",
					"type": "address"
				},
				{
					"internalType": "uint256",
					"name": "amount",
					"type": "uint256"
				},
				{
					"internalType": "uint256",
					"name": "_type",
					"type": "uint256"
				}
			],
			"name": "Withdraw",
			"outputs": [],
			"stateMutability": "nonpayable",
			"type": "function"
		},
		{
			"inputs": [
				{
					"internalType": "uint256",
					"name": "",
					"type": "uint256"
				}
			],
			"name": "map_LevelIncomeMaster",
			"outputs": [
				{
					"internalType": "uint256",
					"name": "Level",
					"type": "uint256"
				},
				{
					"internalType": "uint256",
					"name": "Percentage",
					"type": "uint256"
				},
				{
					"internalType": "uint256",
					"name": "RequiredMinRankId",
					"type": "uint256"
				}
			],
			"stateMutability": "view",
			"type": "function"
		},
		{
			"inputs": [
				{
					"internalType": "uint256",
					"name": "",
					"type": "uint256"
				}
			],
			"name": "map_PackageMaster",
			"outputs": [
				{
					"internalType": "uint256",
					"name": "PackageId",
					"type": "uint256"
				},
				{
					"internalType": "string",
					"name": "Name",
					"type": "string"
				},
				{
					"internalType": "uint256",
					"name": "Amount",
					"type": "uint256"
				},
				{
					"internalType": "bool",
					"name": "IsActive",
					"type": "bool"
				},
				{
					"internalType": "bool",
					"name": "HasRange",
					"type": "bool"
				},
				{
					"internalType": "uint256",
					"name": "MinAmount",
					"type": "uint256"
				},
				{
					"internalType": "uint256",
					"name": "MaxAmount",
					"type": "uint256"
				},
				{
					"internalType": "uint256",
					"name": "ReferralIncome",
					"type": "uint256"
				},
				{
					"internalType": "bool",
					"name": "IsReferralIncomePercentage",
					"type": "bool"
				}
			],
			"stateMutability": "view",
			"type": "function"
		},
		{
			"inputs": [
				{
					"internalType": "address",
					"name": "",
					"type": "address"
				},
				{
					"internalType": "uint256",
					"name": "",
					"type": "uint256"
				}
			],
			"name": "map_ROIIncomeHistory",
			"outputs": [
				{
					"internalType": "uint256",
					"name": "OnAmount",
					"type": "uint256"
				},
				{
					"internalType": "uint256",
					"name": "Timestamp",
					"type": "uint256"
				},
				{
					"internalType": "uint256",
					"name": "Income",
					"type": "uint256"
				}
			],
			"stateMutability": "view",
			"type": "function"
		},
		{
			"inputs": [
				{
					"internalType": "uint256",
					"name": "",
					"type": "uint256"
				}
			],
			"name": "map_RankMaster",
			"outputs": [
				{
					"internalType": "uint256",
					"name": "RankId",
					"type": "uint256"
				},
				{
					"internalType": "string",
					"name": "RankName",
					"type": "string"
				},
				{
					"internalType": "uint256",
					"name": "ReqSelfInvestment",
					"type": "uint256"
				},
				{
					"internalType": "uint256",
					"name": "ReqTeamCount",
					"type": "uint256"
				},
				{
					"internalType": "uint256",
					"name": "ReqTeamA_Business",
					"type": "uint256"
				},
				{
					"internalType": "uint256",
					"name": "ReqTeamB_Business",
					"type": "uint256"
				},
				{
					"internalType": "uint256",
					"name": "RewardAmount",
					"type": "uint256"
				}
			],
			"stateMutability": "view",
			"type": "function"
		},
		{
			"inputs": [
				{
					"internalType": "address",
					"name": "",
					"type": "address"
				},
				{
					"internalType": "uint256",
					"name": "",
					"type": "uint256"
				}
			],
			"name": "map_UserBusinessOnLevel",
			"outputs": [
				{
					"internalType": "uint256",
					"name": "",
					"type": "uint256"
				}
			],
			"stateMutability": "view",
			"type": "function"
		},
		{
			"inputs": [
				{
					"internalType": "address",
					"name": "",
					"type": "address"
				},
				{
					"internalType": "uint256",
					"name": "",
					"type": "uint256"
				}
			],
			"name": "map_UserDeposits",
			"outputs": [
				{
					"internalType": "uint256",
					"name": "PackageId",
					"type": "uint256"
				},
				{
					"internalType": "uint256",
					"name": "Amount",
					"type": "uint256"
				},
				{
					"internalType": "uint256",
					"name": "Timestamp",
					"type": "uint256"
				},
				{
					"internalType": "uint256",
					"name": "Capping",
					"type": "uint256"
				},
				{
					"internalType": "uint256",
					"name": "IncomePaid",
					"type": "uint256"
				}
			],
			"stateMutability": "view",
			"type": "function"
		},
		{
			"inputs": [
				{
					"internalType": "uint256",
					"name": "",
					"type": "uint256"
				}
			],
			"name": "map_UserIdToAddress",
			"outputs": [
				{
					"internalType": "address",
					"name": "",
					"type": "address"
				}
			],
			"stateMutability": "view",
			"type": "function"
		},
		{
			"inputs": [
				{
					"internalType": "address",
					"name": "",
					"type": "address"
				}
			],
			"name": "map_UserIncome",
			"outputs": [
				{
					"internalType": "uint256",
					"name": "ReferralIncome",
					"type": "uint256"
				},
				{
					"internalType": "uint256",
					"name": "NewRegistrationBonus",
					"type": "uint256"
				},
				{
					"internalType": "uint256",
					"name": "ROIIncome",
					"type": "uint256"
				},
				{
					"internalType": "uint256",
					"name": "RankIncome",
					"type": "uint256"
				},
				{
					"internalType": "uint256",
					"name": "TopmostSponsorsIncome",
					"type": "uint256"
				},
				{
					"internalType": "uint256",
					"name": "AmountWithdrawn",
					"type": "uint256"
				}
			],
			"stateMutability": "view",
			"type": "function"
		},
		{
			"inputs": [
				{
					"internalType": "address",
					"name": "",
					"type": "address"
				},
				{
					"internalType": "uint256",
					"name": "",
					"type": "uint256"
				}
			],
			"name": "map_UserIncomeWithdrawalHistory",
			"outputs": [
				{
					"internalType": "uint256",
					"name": "Amount",
					"type": "uint256"
				},
				{
					"internalType": "uint256",
					"name": "Timestamp",
					"type": "uint256"
				}
			],
			"stateMutability": "view",
			"type": "function"
		},
		{
			"inputs": [
				{
					"internalType": "address",
					"name": "",
					"type": "address"
				}
			],
			"name": "map_UserTeam",
			"outputs": [
				{
					"internalType": "uint256",
					"name": "DirectsInvestment",
					"type": "uint256"
				},
				{
					"internalType": "uint256",
					"name": "TeamABusiness",
					"type": "uint256"
				},
				{
					"internalType": "uint256",
					"name": "TeamBBusiness",
					"type": "uint256"
				},
				{
					"internalType": "uint256",
					"name": "TeamInvestment",
					"type": "uint256"
				}
			],
			"stateMutability": "view",
			"type": "function"
		},
		{
			"inputs": [
				{
					"internalType": "address",
					"name": "",
					"type": "address"
				}
			],
			"name": "map_UserTransactionCount",
			"outputs": [
				{
					"internalType": "uint256",
					"name": "DepositsCount",
					"type": "uint256"
				},
				{
					"internalType": "uint256",
					"name": "ROIIncomeCount",
					"type": "uint256"
				},
				{
					"internalType": "uint256",
					"name": "IncomeWithdrawalCount",
					"type": "uint256"
				},
				{
					"internalType": "uint256",
					"name": "ReactivationCount",
					"type": "uint256"
				}
			],
			"stateMutability": "view",
			"type": "function"
		},
		{
			"inputs": [
				{
					"internalType": "address",
					"name": "",
					"type": "address"
				},
				{
					"internalType": "uint256",
					"name": "",
					"type": "uint256"
				}
			],
			"name": "map_UserWalletBalance",
			"outputs": [
				{
					"internalType": "uint256",
					"name": "",
					"type": "uint256"
				}
			],
			"stateMutability": "view",
			"type": "function"
		},
		{
			"inputs": [
				{
					"internalType": "address",
					"name": "",
					"type": "address"
				}
			],
			"name": "map_Users",
			"outputs": [
				{
					"internalType": "uint256",
					"name": "Id",
					"type": "uint256"
				},
				{
					"internalType": "address",
					"name": "Address",
					"type": "address"
				},
				{
					"internalType": "address",
					"name": "SponsorAddress",
					"type": "address"
				},
				{
					"internalType": "uint256",
					"name": "JoiningTimestamp",
					"type": "uint256"
				},
				{
					"internalType": "uint256",
					"name": "Investment",
					"type": "uint256"
				},
				{
					"internalType": "uint256",
					"name": "TotalTeam",
					"type": "uint256"
				},
				{
					"internalType": "bool",
					"name": "IsBlocked",
					"type": "bool"
				},
				{
					"internalType": "uint256",
					"name": "FirstActivationTimestamp",
					"type": "uint256"
				},
				{
					"internalType": "uint256",
					"name": "LastActivationTimestamp",
					"type": "uint256"
				},
				{
					"internalType": "uint256",
					"name": "ActivationExpiryTimestamp",
					"type": "uint256"
				},
				{
					"internalType": "uint256",
					"name": "RankId",
					"type": "uint256"
				},
				{
					"internalType": "bool",
					"name": "IsQualifiedFor4X",
					"type": "bool"
				},
				{
					"internalType": "bool",
					"name": "IsFirstActivationDone",
					"type": "bool"
				}
			],
			"stateMutability": "view",
			"type": "function"
		}
	]
}