{
	"data": {
		"bytecode": {
			"linkReferences": {},
			"object": "60806040525f80805560018181556002829055600380546001600160a01b031990811673a1bf05780c2de3002086695d212a743eaa6532ad17909155600480548216734f6a1cfdf5e55db0c2ff4575b0887fea8a96708817905560058054821673985495c028f9b896de454ec448b53fba6450da401790556006805482167373d1ad5a474e1712d6cbe18d56b7281aaf19034717905560078054909116905560088290556009829055600a805460ff199081168317909155600b92909255600c8054909216179055348015620000d3575f80fd5b50600c8054610100600160a81b0319163361010002179055620000f5620000fb565b62001597565b6200010562000125565b6200010f6200025c565b620001196200092b565b6200012362000dd4565b565b600b8054905f6200013683620012d7565b9190505550604051806101200160405280600b548152602001604051806040016040528060078152602001665061636b61676560c81b81525081526020015f81526020016001151581526020016001151581526020016200019e601e62000def60201b60201c565b8152602001620001b0610bb862000def565b81525f602080830182905260016040938401819052600b548352600d82529290912083518155908301519091820190620001eb908262001392565b50604082015160028201556060820151600382018054608085015161ffff1990911692151561ff00191692909217610100921515830217905560a0830151600483015560c0830151600583015560e08301516006830155909101516007909101805460ff1916911515919091179055565b60088054905f6200026d83620012d7565b909155505060408051606081018252600880548083526101f460208085019182525f858701818152938152600e9091529485209351845551600184015551600290920191909155805491620002c283620012d7565b9091555050604080516060810182526008805480835261012c602080850191825260018587018181525f948552600e9092529583209451855590519484019490945592516002909201919091558054916200031d83620012d7565b9091555050604080516060810182526008805480835260c8602080850191825260018587018181525f948552600e9092529583209451855590519484019490945592516002909201919091558054916200037783620012d7565b90915550506040805160608101825260088054808352610190602080850191825260028587018181525f948552600e9092529583209451855590516001850155519290930191909155805491620003ce83620012d7565b9091555050604080516060810182526008805480835260c8602080850191825260028587018181525f948552600e90925295832094518555905160018501555192909301919091558054916200042483620012d7565b9091555050604080516060810182526008805480835260c8602080850191825260028587018181525f948552600e90925295832094518555905160018501555192909301919091558054916200047a83620012d7565b909155505060408051606081018252600880548083526064602080850191825260028587018181525f948552600e9092529583209451855590516001850155519290930191909155805491620004d083620012d7565b909155505060408051606081018252600880548083526064602080850191825260028587018181525f948552600e90925295832094518555905160018501555192909301919091558054916200052683620012d7565b9091555050604080516060810182526008805480835260c8602080850191825260038587019081525f938452600e9091529482209351845551600184015592516002909201919091558054916200057d83620012d7565b909155505060408051606081018252600880548083526064602080850191825260038587019081525f938452600e909152948220935184555160018401559251600290920191909155805491620005d483620012d7565b909155505060408051606081018252600880548083526032602080850191825260038587019081525f938452600e9091529482209351845551600184015592516002909201919091558054916200062b83620012d7565b909155505060408051606081018252600880548083526032602080850191825260038587019081525f938452600e9091529482209351845551600184015592516002909201919091558054916200068283620012d7565b909155505060408051606081018252600880548083526032602080850191825260038587019081525f938452600e909152948220935184555160018401559251600290920191909155805491620006d983620012d7565b909155505060408051606081018252600880548083526064602080850191825260048587019081525f938452600e9091529482209351845551600184015592516002909201919091558054916200073083620012d7565b909155505060408051606081018252600880548083526032602080850191825260048587019081525f938452600e9091529482209351845551600184015592516002909201919091558054916200078783620012d7565b909155505060408051606081018252600880548083526019602080850191825260048587019081525f938452600e909152948220935184555160018401559251600290920191909155805491620007de83620012d7565b909155505060408051606081018252600880548083526019602080850191825260048587019081525f938452600e9091529482209351845551600184015592516002909201919091558054916200083583620012d7565b909155505060408051606081018252600880548083526019602080850191825260048587019081525f938452600e9091529482209351845551600184015592516002909201919091558054916200088c83620012d7565b909155505060408051606081018252600880548083526019602080850191825260048587019081525f938452600e909152948220935184555160018401559251600290920191909155805491620008e383620012d7565b9091555050604080516060810182526008548082526019602080840191825260048486019081525f938452600e90915293909120915182555160018201559051600290910155565b60098054905f6200093c83620012d7565b91905055506040518060c00160405280600954815260200160405180604001604052806006815260200165189029ba30b960d11b81525081526020016200098b61012c62000def60201b60201c565b81526020016200099d6103e862000def565b8152602001620009af6103e862000def565b8152602001620009bf5f62000def565b90526009545f908152600f6020908152604090912082518155908201516001820190620009ed908262001392565b5060408201516002820155606082015160038201556080820151600482015560a09091015160059091015560098054905f62000a2983620012d7565b91905055506040518060c00160405280600954815260200160405180604001604052806006815260200165191029ba30b960d11b815250815260200162000a786101f462000def60201b60201c565b815260200162000a8a61138862000def565b815260200162000a9c61138862000def565b815260200162000aac5f62000def565b90526009545f908152600f602090815260409091208251815590820151600182019062000ada908262001392565b5060408201516002820155606082015160038201556080820151600482015560a09091015160059091015560098054905f62000b1683620012d7565b91905055506040518060c00160405280600954815260200160405180604001604052806006815260200165199029ba30b960d11b815250815260200162000b656103e862000def60201b60201c565b815260200162000b7761271062000def565b815260200162000b8961271062000def565b815260200162000b995f62000def565b90526009545f908152600f602090815260409091208251815590820151600182019062000bc7908262001392565b5060408201516002820155606082015160038201556080820151600482015560a09091015160059091015560098054905f62000c0383620012d7565b91905055506040518060c001604052806009548152602001604051806040016040528060068152602001651a1029ba30b960d11b815250815260200162000c526107d062000def60201b60201c565b815260200162000c646161a862000def565b815260200162000c766161a862000def565b815260200162000c886109c462000def565b90526009545f908152600f602090815260409091208251815590820151600182019062000cb6908262001392565b5060408201516002820155606082015160038201556080820151600482015560a09091015160059091015560098054905f62000cf283620012d7565b91905055506040518060c001604052806009548152602001604051806040016040528060068152602001651a9029ba30b960d11b815250815260200162000d41610bb862000def60201b60201c565b815260200162000d54620124f862000def565b815260200162000d67620124f862000def565b815260200162000d7961138862000def565b90526009545f908152600f602090815260409091208251815590820151600182019062000da7908262001392565b5060408201516002820155606082015160038201556080820151600482015560a090910151600590910155565b6003546001600160a01b031662000dec815f62000e10565b50565b5f62000dfe6012600a62001553565b62000e0a908362001567565b92915050565b5f8054908062000e2083620012d7565b91905055505f6040518061018001604052805f548152602001846001600160a01b03168152602001836001600160a01b031681526020014281526020015f81526020015f81526020015f151581526020015f81526020015f81526020015f81526020015f151581526020015f151581525090505f6040518060c001604052805f81526020015f6001600160401b0381111562000ec05762000ec0620012f2565b60405190808252806020026020018201604052801562000eea578160200160208202803683370190505b5081526020015f81526020015f81526020015f81526020015f6001600160401b0381111562000f1d5762000f1d620012f2565b60405190808252806020026020018201604052801562000f47578160200160208202803683370190505b5081525090505f6040518060e001604052805f81526020015f81526020015f8152602001600854600162000f7c919062001581565b6001600160401b0381111562000f965762000f96620012f2565b60405190808252806020026020018201604052801562000fc0578160200160208202803683370190505b5081525f6020808301829052604080840183905260609384018390528051608080820183528482528184018590528183018590528186018590526001600160a01b038c81168652601085528386208b5181558b860151600180830180546001600160a01b03199081169386169390931790558d8701516002840180549093169416939093179055968b01516003880155908a0151600487015560a08a0151600587015560c08a015160068701805460ff191691151591909117905560e08a01516007870155610100808b015160088801556101208b015160098801556101408b0151600a90970180546101608d015161ffff1990911698151561ff001916989098179715159091029690961790955560128352922086518155868201518051959650929487949193620010f99392850192019062001209565b5060408201516002820155606082015160038201556080820151600482015560a082015180516200113591600584019160209091019062001209565b5050506001600160a01b0386165f9081526017602090815260409182902084518155818501516001820155918401516002830155606084015180518593926200118692600385019291019062001271565b506080820151600482015560a0820151600582015560c0909101516006909101555f8054815260116020908152604080832080546001600160a01b03909a166001600160a01b0319909a168a1790559782526019815290879020825181559082015160018201559581015160028701556060015160039095019490945550505050565b828054828255905f5260205f209081019282156200125f579160200282015b828111156200125f57825182546001600160a01b0319166001600160a01b0390911617825560209092019160019091019062001228565b506200126d929150620012ad565b5090565b828054828255905f5260205f209081019282156200125f579160200282015b828111156200125f57825182559160200191906001019062001290565b5b808211156200126d575f8155600101620012ae565b634e487b7160e01b5f52601160045260245ffd5b5f60018201620012eb57620012eb620012c3565b5060010190565b634e487b7160e01b5f52604160045260245ffd5b600181811c908216806200131b57607f821691505b6020821081036200133a57634e487b7160e01b5f52602260045260245ffd5b50919050565b601f8211156200138d575f81815260208120601f850160051c81016020861015620013685750805b601f850160051c820191505b81811015620013895782815560010162001374565b5050505b505050565b81516001600160401b03811115620013ae57620013ae620012f2565b620013c681620013bf845462001306565b8462001340565b602080601f831160018114620013fc575f8415620013e45750858301515b5f19600386901b1c1916600185901b17855562001389565b5f85815260208120601f198616915b828110156200142c578886015182559484019460019091019084016200140b565b50858210156200144a57878501515f19600388901b60f8161c191681555b5050505050600190811b01905550565b600181815b808511156200149a57815f19048211156200147e576200147e620012c3565b808516156200148c57918102915b93841c93908002906200145f565b509250929050565b5f82620014b25750600162000e0a565b81620014c057505f62000e0a565b8160018114620014d95760028114620014e45762001504565b600191505062000e0a565b60ff841115620014f857620014f8620012c3565b50506001821b62000e0a565b5060208310610133831016604e8410600b841016171562001529575081810a62000e0a565b6200153583836200145a565b805f19048211156200154b576200154b620012c3565b029392505050565b5f620015608383620014a2565b9392505050565b808202811582820484141762000e0a5762000e0a620012c3565b8082018082111562000e0a5762000e0a620012c3565b61538b80620015a55f395ff3fe608060405260043610610254575f3560e01c80636b1a70861161013f578063b66db385116100b3578063edbdc91411610078578063edbdc91414610a1b578063eecc1c9514610a4c578063eeda149c14610a7b578063f279e6a114610a8e578063fd0bb36c14610aad578063ff9b636414610aee575f80fd5b8063b66db385146108f6578063ba32f6f414610915578063c5f0096414610934578063dacbb37e14610974578063e315927b146109a0575f80fd5b8063a18a609a11610104578063a18a609a14610828578063a3af609b1461085c578063a4b6f5e11461086f578063a5f9452114610884578063ac3a4800146108a3578063b5d962b7146108d7575f80fd5b80636b1a708614610720578063705116a014610777578063759369d2146107b157806388cb410d146107dd5780638b2c295e146107fc575f80fd5b80633936e8b9116101d65780635a0155831161019b5780635a0155831461058b5780635b6b431d146105aa5780635be94e83146105c95780635cf75517146105f5578063641fba96146106ed57806368ec2fbe14610701575f80fd5b80633936e8b9146104de5780633daa551c146104fd5780634788312f1461051e5780634a40f2fe1461053357806354a03e381461055f575f80fd5b80632dedf15a1161021c5780632dedf15a146103c05780632e244fc7146104205780632e628e2e1461044c5780633341d2e614610478578063365152fa14610499575f80fd5b806307d94067146102585780631362e8e6146102af5780631bfe37ce146102f35780631cfa6e9b146103295780632a530a3614610360575b5f80fd5b348015610263575f80fd5b50610295610272366004614a55565b601460209081525f92835260408084209091529082529020805460019091015482565b604080519283526020830191909152015b60405180910390f35b3480156102ba575f80fd5b506102e56102c9366004614a55565b601860209081525f928352604080842090915290825290205481565b6040519081526020016102a6565b3480156102fe575f80fd5b506102e561030d366004614a55565b601560209081525f928352604080842090915290825290205481565b348015610334575f80fd5b50600354610348906001600160a01b031681565b6040516001600160a01b0390911681526020016102a6565b34801561036b575f80fd5b506103a061037a366004614a7d565b60126020525f908152604090208054600282015460038301546004909301549192909184565b6040805194855260208501939093529183015260608201526080016102a6565b3480156103cb575f80fd5b506104056103da366004614a55565b601660209081525f928352604080842090915290825290208054600182015460029092015490919083565b604080519384526020840192909252908201526060016102a6565b34801561042b575f80fd5b5061043f61043a366004614a96565b610b02565b6040516102a69190614ac6565b348015610457575f80fd5b5061046b610466366004614a96565b610c6d565b6040516102a69190614b27565b348015610483575f80fd5b50610497610492366004614a96565b610dce565b005b3480156104a4575f80fd5b506104056104b3366004614a55565b601360209081525f928352604080842090915290825290208054600182015460029092015490919083565b3480156104e9575f80fd5b50600654610348906001600160a01b031681565b348015610508575f80fd5b50610511610ff5565b6040516102a69190614bbf565b348015610529575f80fd5b506102e560025481565b34801561053e575f80fd5b5061055261054d366004614a7d565b6111ee565b6040516102a69190614c89565b34801561056a575f80fd5b5061057e610579366004614a7d565b611364565b6040516102a69190614d0c565b348015610596575f80fd5b506104976105a5366004614e03565b6117dd565b3480156105b5575f80fd5b506104976105c4366004614e3c565b61196d565b3480156105d4575f80fd5b506105e86105e3366004614a7d565b611c8d565b6040516102a69190614e53565b348015610600575f80fd5b5061068261060f366004614a7d565b60106020525f9081526040902080546001820154600283015460038401546004850154600586015460068701546007880154600889015460098a0154600a909a015498996001600160a01b0398891699979098169795969495939460ff938416949293919291818116916101009004168c565b604080519c8d526001600160a01b039b8c1660208e015299909a16988b019890985260608a0196909652608089019490945260a0880192909252151560c087015260e086015261010085015261012084015215156101408301521515610160820152610180016102a6565b3480156106f8575f80fd5b506102e55f5481565b34801561070c575f80fd5b5061049761071b366004614a7d565b611e97565b34801561072b575f80fd5b50610734611edd565b6040516102a691905f60a0820190508251825260208301516020830152604083015160408301526060830151606083015260808301511515608083015292915050565b348015610782575f80fd5b50610405610791366004614e3c565b600e6020525f908152604090208054600182015460029092015490919083565b3480156107bc575f80fd5b506107d06107cb366004614a96565b611f4b565b6040516102a69190614ebb565b3480156107e8575f80fd5b50600754610348906001600160a01b031681565b348015610807575f80fd5b5061081b610816366004614a7d565b612092565b6040516102a69190614efc565b348015610833575f80fd5b50610847610842366004614e3c565b61249a565b6040516102a699989796959493929190614fad565b61049761086a366004615001565b612572565b34801561087a575f80fd5b506102e560015481565b34801561088f575f80fd5b5061049761089e366004614a7d565b612580565b3480156108ae575f80fd5b506103486108bd366004614e3c565b60116020525f90815260409020546001600160a01b031681565b3480156108e2575f80fd5b50600454610348906001600160a01b031681565b348015610901575f80fd5b50600554610348906001600160a01b031681565b348015610920575f80fd5b5061049761092f366004614a7d565b6125c6565b34801561093f575f80fd5b506103a061094e366004614a7d565b60196020525f908152604090208054600182015460028301546003909301549192909184565b34801561097f575f80fd5b5061099361098e366004614a96565b61260c565b6040516102a69190615021565b3480156109ab575f80fd5b506109ee6109ba366004614a7d565b60176020525f9081526040902080546001820154600283015460048401546005850154600690950154939492939192909186565b604080519687526020870195909552938501929092526060840152608083015260a082015260c0016102a6565b348015610a26575f80fd5b50610a3a610a35366004614e3c565b612809565b6040516102a696959493929190615089565b348015610a57575f80fd5b50610a6b610a66366004614a7d565b6128c3565b60405190151581526020016102a6565b610497610a89366004614a7d565b6128fa565b348015610a99575f80fd5b50610497610aa8366004614a96565b612906565b348015610ab8575f80fd5b506102e5610ac7366004614a55565b6001600160a01b03919091165f908152601860209081526040808320938352929052205490565b348015610af9575f80fd5b50610a6b612b5e565b6001600160a01b0383165f9081526019602052604081206001015460609181610b2b85876150da565b11610b3f57610b3a84866150da565b610b41565b815b90505f84821015610b52575f610b5c565b610b5c85836150f1565b90505f610b6982846150f1565b67ffffffffffffffff811115610b8157610b81615104565b604051908082528060200260200182016040528015610bd357816020015b610bc060405180606001604052805f81526020015f81526020015f81525090565b815260200190600190039081610b9f5790505b509450825b82811115610c61576001600160a01b0389165f90815260166020908152604080832084845282529182902082516060810184528154815260018201549281019290925260020154918101919091528683610c3181615118565b945081518110610c4357610c43615130565b60200260200101819052508080610c5990615144565b915050610bd8565b50505050509392505050565b6001600160a01b0383165f9081526019602052604081205460609181610c9385876150da565b11610ca757610ca284866150da565b610ca9565b815b90505f84821015610cba575f610cc4565b610cc485836150f1565b90505f610cd182846150f1565b67ffffffffffffffff811115610ce957610ce9615104565b604051908082528060200260200182016040528015610d3b57816020015b610d2860405180606001604052805f81526020015f81526020015f81525090565b815260200190600190039081610d075790505b509450825b82811115610c61576001600160a01b0389165f90815260136020908152604080832084845282529182902082516060810184528154815260018201549281019290925260020154918101919091528651879084908110610da257610da2615130565b60200260200101819052508180610db890615118565b9250508080610dc690615144565b915050610d40565b33610dd881612bb9565b610e235760405162461bcd60e51b8152602060048201526017602482015276596f7520617265206e6f7420726567697374657265642160481b60448201526064015b60405180910390fd5b610e2c84612bb9565b610e785760405162461bcd60e51b815260206004820152601760248201527f496e76616c6964207573657220666f7220746f707570210000000000000000006044820152606401610e1a565b6001600160a01b0384165f90815260106020526040902060080154421015610eb25760405162461bcd60e51b8152600401610e1a90615159565b6001600160a01b0384165f908152601060205260409020600a0154610100900460ff1615610f385760405162461bcd60e51b815260206004820152602d60248201527f4f6e6c792066697273742074696d6520746f70757020697320616c6c6f77656460448201526c10333937b6903bb0b63632ba1760991b6064820152608401610e1a565b6001600160a01b0381165f90815260186020908152604080832060028452909152902054821115610fab5760405162461bcd60e51b815260206004820152601d60248201527f496e73756666696369656e742066756e647320696e2077616c6c6574210000006044820152606401610e1a565b610fb6848484612bd5565b506001600160a01b0381165f9081526018602090815260408083206002845290915281208054849290610fea9084906150f1565b909155505050505050565b60605f600b5467ffffffffffffffff81111561101357611013615104565b60405190808252806020026020018201604052801561109157816020015b61107e6040518061012001604052805f8152602001606081526020015f81526020015f151581526020015f151581526020015f81526020015f81526020015f81526020015f151581525090565b8152602001906001900390816110315790505b50905060015b600b5481116111e857600d5f8281526020019081526020015f20604051806101200160405290815f82015481526020016001820180546110d6906151a2565b80601f0160208091040260200160405190810160405280929190818152602001828054611102906151a2565b801561114d5780601f106111245761010080835404028352916020019161114d565b820191905f5260205f20905b81548152906001019060200180831161113057829003601f168201915b505050918352505060028201546020820152600382015460ff8082161515604084015261010090910481161515606083015260048301546080830152600583015460a0830152600683015460c0830152600790920154909116151560e090910152826111ba6001846150f1565b815181106111ca576111ca615130565b602002602001018190525080806111e090615118565b915050611097565b50919050565b606060085467ffffffffffffffff81111561120b5761120b615104565b60405190808252806020026020018201604052801561127757816020015b6112646040518060e001604052805f81526020015f81526020015f81526020015f81526020015f81526020015f81526020015f151581525090565b8152602001906001900390816112295790505b50905060015b60085481116111e8576040805160e0810182528281525f838152600e60209081528382206002810154828501526001600160a01b038816808452601083528584206009015485870152808452601583528584208785528352858420546060860152600190910154608085015282526017905291909120600301805460a0830191908490811061130e5761130e615130565b905f5260205f20015481526020016113268584612fe8565b15159052826113366001846150f1565b8151811061134657611346615130565b6020026020010181905250808061135c90615118565b91505061127d565b6113e16040518061024001604052805f81526020015f81526020015f81526020015f81526020015f81526020015f81526020015f81526020015f81526020015f81526020015f81526020015f81526020015f81526020015f81526020015f81526020015f81526020015f81526020015f8152602001606081525090565b6001600160a01b038083165f818152601060209081526040808320815161018081018352815481526001808301548816828601526002830154909716818401526003820154606082015260048201546080820152600582015460a0820152600682015460ff908116151560c080840191909152600784015460e08401526008840154610100808501919091526009850154610120850152600a9094015480831615156101408501529390930416151561016082015294845260128352818420825191820183528054825295860180548351818602810186019094528084529596949591949385810193929083018282801561150357602002820191905f5260205f20905b81546001600160a01b031681526001909101906020018083116114e5575b505050505081526020016002820154815260200160038201548152602001600482015481526020016005820180548060200260200160405190810160405280929190818152602001828054801561158157602002820191905f5260205f20905b81546001600160a01b03168152600190910190602001808311611563575b50505050508152505090505f60175f866001600160a01b03166001600160a01b031681526020019081526020015f206040518060e00160405290815f820154815260200160018201548152602001600282015481526020016003820180548060200260200160405190810160405280929190818152602001828054801561162557602002820191905f5260205f20905b815481526020019060010190808311611611575b5050505050815260200160048201548152602001600582015481526020016006820154815250509050604051806102400160405280846080015181526020018360200151518152602001835f015181526020018460a00151815260200183604001518152602001836060015181526020018360800151815260200182602001518152602001825f015181526020016116bc87613028565b8152602001826040015181526020016116d487613130565b8152602001826080015181526020018260a0015181526020016116f687613187565b815260200184610140015161170c57600361170f565b60045b60ff16856080015161172191906150da565b81526020018260c001518152602001600f5f86610120015181526020019081526020015f206001018054611754906151a2565b80601f0160208091040260200160405190810160405280929190818152602001828054611780906151a2565b80156117cb5780601f106117a2576101008083540402835291602001916117cb565b820191905f5260205f20905b8154815290600101906020018083116117ae57829003601f168201915b50505050508152509350505050919050565b6117e56131f5565b6117ed573392505b6117f6836128c3565b61183a5760405162461bcd60e51b8152602060048201526015602482015274496e76616c69642073656e64696e6720757365722160581b6044820152606401610e1a565b611843826128c3565b61188f5760405162461bcd60e51b815260206004820152601760248201527f496e76616c696420726563656976696e672075736572210000000000000000006044820152606401610e1a565b6001600160a01b0383165f908152601860209081526040808320600284529091529020548111156118f85760405162461bcd60e51b8152602060048201526013602482015272496e73756666696369656e742066756e64732160681b6044820152606401610e1a565b6001600160a01b0383165f908152601860209081526040808320600284529091528120805483929061192b9084906150f1565b90915550506001600160a01b0382165f90815260186020908152604080832060028452909152812080548392906119639084906151d4565b9091555050505050565b335f611977613222565b905061198282612bb9565b6119be5760405162461bcd60e51b815260206004820152600d60248201526c496e76616c696420757365722160981b6044820152606401610e1a565b6001600160a01b0382165f9081526010602052604090206006015460ff16156119f95760405162461bcd60e51b8152600401610e1a906151e7565b6001600160a01b0382165f90815260186020908152604080832060018452909152902054831115611a625760405162461bcd60e51b8152602060048201526013602482015272496e73756666696369656e742066756e64732160681b6044820152606401610e1a565b6001600160a01b0382165f90815260106020908152604080832060040154601790925290912060060154611a979085906151d4565b111580611aba5750600c5460ff168015611aba5750611ab66064613295565b8110155b611b2c5760405162461bcd60e51b815260206004820152603960248201527f5769746864726177616c206265796f6e64207072696e6369706c65206973207060448201527f726f686962697465642061742074686973206d6f6d656e7421000000000000006064820152608401610e1a565b6001600160a01b0382165f9081526018602090815260408083206001845290915281208054859290611b5f9084906150f1565b90915550506001600160a01b0382165f9081526017602052604081206006018054859290611b8e9084906151d4565b909155505f90506064611ba28560056150da565b611bac9190615215565b90505f611bb982866150f1565b604080518082018252878152426020808301919091526001600160a01b0388165f908152601482528381206019909252928320600201549394509092839290611c039060016151d4565b815260208082019290925260409081015f90812084518155938301516001909401939093556001600160a01b038816835260199091528120600201805491611c4a83615118565b9190505550858410611c7b57611c6085836132ac565b600754611c76906001600160a01b0316846132ac565b611c85565b611c85858361332e565b505050505050565b6001600160a01b0381165f9081526012602052604090206001015460609067ffffffffffffffff811115611cc357611cc3615104565b604051908082528060200260200182016040528015611d2457816020015b611d1160405180608001604052805f81526020015f6001600160a01b031681526020015f81526020015f81525090565b815260200190600190039081611ce15790505b5090505f5b6001600160a01b0383165f908152601260205260409020600101548110156111e8576040518060800160405280826001611d6391906151d4565b815260200160125f866001600160a01b03166001600160a01b031681526020019081526020015f206001018381548110611d9f57611d9f615130565b5f9182526020808320909101546001600160a01b03908116845287168252601281526040822060010180549390910192601092919086908110611de457611de4615130565b5f9182526020808320909101546001600160a01b0390811684528382019490945260409283018220600401548552928816815260128352908120600101805493909201926010929086908110611e3c57611e3c615130565b5f9182526020808320909101546001600160a01b0316835282019290925260400190206004015490528251839083908110611e7957611e79615130565b60200260200101819052508080611e8f90615118565b915050611d29565b611e9f6131f5565b611ebb5760405162461bcd60e51b8152600401610e1a906151e7565b600380546001600160a01b0319166001600160a01b0392909216919091179055565b611f0c6040518060a001604052805f81526020015f81526020015f81526020015f81526020015f151581525090565b6040518060a001604052805f54815260200160015481526020016002548152602001611f36613222565b8152600c5460ff161515602090910152919050565b6001600160a01b0383165f9081526019602052604081206002015460609181611f7485876150da565b11611f8857611f8384866150da565b611f8a565b815b90505f84821015611f9b575f611fa5565b611fa585836150f1565b90505f611fb282846150f1565b67ffffffffffffffff811115611fca57611fca615104565b60405190808252806020026020018201604052801561200e57816020015b604080518082019091525f8082526020820152815260200190600190039081611fe85790505b509450825b82811115610c61576001600160a01b0389165f9081526014602090815260408083208484528252918290208251808401909352805483526001015490820152865187908490811061206657612066615130565b6020026020010181905250818061207c90615118565b925050808061208a90615144565b915050612013565b606060095467ffffffffffffffff8111156120af576120af615104565b60405190808252806020026020018201604052801561212957816020015b6121166040518061012001604052805f8152602001606081526020015f81526020015f81526020015f81526020015f81526020015f81526020015f81526020015f151581525090565b8152602001906001900390816120cd5790505b506001600160a01b038084165f818152601060209081526040808320815161018081018352815481526001808301548816828601526002830154909716818401526003820154606082015260048201546080820152600582015460a0820152600682015460ff908116151560c080840191909152600784015460e08401526008840154610100808501919091526009850154610120850152600a90940154808316151561014085015293909304161515610160820152948452601283528184208251918201835280548252958601805483518186028101860190945280845297985094969395909490938584019383018282801561224e57602002820191905f5260205f20905b81546001600160a01b03168152600190910190602001808311612230575b50505050508152602001600282015481526020016003820154815260200160048201548152602001600582018054806020026020016040519081016040528092919081815260200182805480156122cc57602002820191905f5260205f20905b81546001600160a01b031681526001909101906020018083116122ae575b50505050508152505090505f600190505b6009548111612492575f600f5f8381526020019081526020015f206040518060c00160405290815f820154815260200160018201805461231c906151a2565b80601f0160208091040260200160405190810160405280929190818152602001828054612348906151a2565b80156123935780601f1061236a57610100808354040283529160200191612393565b820191905f5260205f20905b81548152906001019060200180831161237657829003601f168201915b5050505050815260200160028201548152602001600382015481526020016004820154815260200160058201548152505090505f81604001518560800151101580156123e757508160600151846040015110155b80156123fb57508160800151846060015110155b604080516101208101825284518152602080860151908201528482015181830152606080860151818301526080808701518184015289015160a08301529187015160c08201529086015160e0820152811515610100820152909150866124626001866150f1565b8151811061247257612472615130565b60200260200101819052505050808061248a90615118565b9150506122dd565b505050919050565b600d6020525f9081526040902080546001820180549192916124bb906151a2565b80601f01602080910402602001604051908101604052809291908181526020018280546124e7906151a2565b80156125325780601f1061250957610100808354040283529160200191612532565b820191905f5260205f20905b81548152906001019060200180831161251557829003601f168201915b50505050600283015460038401546004850154600586015460068701546007909701549596939560ff808516965061010090940484169492939192911689565b61257c82826133fd565b5050565b6125886131f5565b6125a45760405162461bcd60e51b8152600401610e1a906151e7565b600780546001600160a01b0319166001600160a01b0392909216919091179055565b6125ce6131f5565b6125ea5760405162461bcd60e51b8152600401610e1a906151e7565b600680546001600160a01b0319166001600160a01b0392909216919091179055565b6001600160a01b0383165f90815260126020908152604080832060050180548251818502810185019093528083526060949383018282801561267557602002820191905f5260205f20905b81546001600160a01b03168152600190910190602001808311612657575b505083519394505f925083915061268e905086886150da565b116126a25761269d85876150da565b6126a4565b815b90505f858210156126b5575f6126bf565b6126bf86836150f1565b90505f6126cc82846150f1565b90508067ffffffffffffffff8111156126e7576126e7615104565b60405190808252806020026020018201604052801561274857816020015b61273560405180608001604052805f81526020015f6001600160a01b031681526020015f81526020015f81525090565b8152602001906001900390816127055790505b5095505f835b838111156127fb575f876127636001846150f1565b8151811061277357612773615130565b602090810291909101810151604080516080810182528581526001600160a01b0383168185018190525f8181526010808752848220600401549484018590529190529093526060830152915089846127ca81615118565b9550815181106127dc576127dc615130565b60200260200101819052505080806127f390615144565b91505061274e565b505050505050509392505050565b600f6020525f90815260409020805460018201805491929161282a906151a2565b80601f0160208091040260200160405190810160405280929190818152602001828054612856906151a2565b80156128a15780601f10612878576101008083540402835291602001916128a1565b820191905f5260205f20905b81548152906001019060200180831161288457829003601f168201915b5050505050908060020154908060030154908060040154908060050154905086565b5f6128cd82612bb9565b80156128f457506001600160a01b0382165f9081526010602052604090206006015460ff16155b92915050565b6129038161352d565b50565b61290e6131f5565b6129505760405162461bcd60e51b8152602060048201526013602482015272165bdd48185c99481b9bdd08185b1b1bddd959606a1b6044820152606401610e1a565b80600203612987575060015f52600d6020527ffd54ff1ed53f34a900b24c5ba64f85761163b5d82d98a47b9bd80e45466993ca5550565b806003036129cd576001600160a01b0383165f90815260186020908152604080832060018452909152812080548492906129c29084906151d4565b90915550612a859050565b80600403612a08576001600160a01b0383165f90815260186020908152604080832060018452909152812080548492906129c29084906150f1565b80600503612a3a576001600160a01b0383165f908152601060205260409020600601805460ff19166001179055505050565b80600603612a675750506001600160a01b03165f908152601060205260409020600601805460ff19169055565b80600703612a8a57600354612a85906001600160a01b0316836132ac565b505050565b80600803612ac5576001600160a01b0383165f90815260186020908152604080832060028452909152812080548492906129c29084906151d4565b80600903612b00576001600160a01b0383165f90815260186020908152604080832060028452909152812080548492906129c29084906150f1565b80600a03612b1757600c805460ff19169055505050565b80600b03612b3157600c805460ff19166001179055505050565b80600c03612a8557600c8054610100600160a81b0319166101006001600160a01b03861602179055505050565b335f90815260106020526040812060080154421015612ba95760405162461bcd60e51b81526020600482015260076024820152664163746976652160c81b6044820152606401610e1a565b612bb433425f6135cc565b905090565b6001600160a01b03165f90815260106020526040902054151590565b5f828152600d602052604081206003015460ff168015612c7c57505f838152600d6020526040902060030154610100900460ff16158015612c2557505f838152600d602052604090206002015482145b80612c7c57505f838152600d6020526040902060030154610100900460ff168015612c6057505f838152600d60205260409020600401548210155b8015612c7c57505f838152600d60205260409020600501548211155b612cba5760405162461bcd60e51b815260206004820152600f60248201526e496e76616c696420616d6f756e742160881b6044820152606401610e1a565b6001600160a01b0384165f90815260136020908152604080832060198352818420548452909152902060010154821015612d5c5760405162461bcd60e51b815260206004820152603d60248201527f416d6f756e74206d75737420626520657175616c20746f206f72206d6f72652060448201527f7468616e2070726576696f7573206465706f73697420616d6f756e742e0000006064820152608401610e1a565b5f4290508260015f828254612d7191906151d4565b90915550506001600160a01b038581165f9081526010602052604090206002810154600a90910154911690610100900460ff16612e02576001600160a01b03811615612df8576001600160a01b038181165f9081526012602090815260408220600190810180549182018155835291200180546001600160a01b0319169188169190911790555b612e028187613678565b6001600160a01b0386165f9081526010602052604081206004018054869290612e2c9084906151d4565b90915550506001600160a01b0381165f9081526012602052604081208054869290612e589084906151d4565b90915550612e699050818786613706565b6040805160608101825286815260208101869052908101839052612e8e87865f61386e565b6001600160a01b0387165f9081526013602090815260408083206019909252822054839290612ebe9060016151d4565b815260208082019290925260409081015f90812084518155848401516001820155938201516002909401939093556001600160a01b038a16835260199091528120805491612f0b83615118565b9190505550612f1b8784876135cc565b506001600160a01b0387165f908152601060205260409020600a0154610100900460ff1680159450612fde576001600160a01b0387165f818152601060205260408120600701859055601a805460018101825591527f057c384a7d1c54f3a1b2e5e67b2617b8224fdfd1ea7234eea573a6ff665ff63e0180546001600160a01b0319169091179055612fad878661393b565b612fb685613a36565b6001600160a01b0387165f908152601060205260409020600a01805461ff0019166101001790555b5050509392505050565b5f818152600e60209081526040808320600201546001600160a01b0386168452601090925282206009015410613020575060016128f4565b505f92915050565b6001600160a01b0381165f908152601760209081526040808320815160e08101835281548152600182015481850152600282015481840152600382018054845181870281018701909552808552869586959394936060860193909290918301828280156130b257602002820191905f5260205f20905b81548152602001906001019080831161309e575b50505050508152602001600482015481526020016005820154815260200160068201548152505090505f5b816060015151811015613127578160600151818151811061310057613100615130565b60200260200101518361311391906151d4565b92508061311f81615118565b9150506130dd565b50909392505050565b6001600160a01b0381165f90815260106020526040812060048101546008909101548290421061318057606461316783600a6150da565b6131719190615215565b905061317d8482613eb0565b90505b9392505050565b5f61319182613028565b6001600160a01b0383165f908152601760205260409020600581015460018201546004830154600284015493549293919290916131cd916151d4565b6131d791906151d4565b6131e191906151d4565b6131eb91906151d4565b6128f491906151d4565b6003545f906001600160a01b0316331480612bb4575050600c5461010090046001600160a01b0316331490565b6040516370a0823160e01b81523060048201525f9073ac17996d3a9a3081f626cd56e904a70e9dadf892906370a0823190602401602060405180830381865afa158015613271573d5f803e3d5ffd5b505050506040513d601f19601f82011682018060405250810190612bb49190615234565b5f6132a26012600a61532b565b6128f490836150da565b60405163a9059cbb60e01b81526001600160a01b03831660048201526024810182905273ac17996d3a9a3081f626cd56e904a70e9dadf8929063a9059cbb906044016020604051808303815f875af115801561330a573d5f803e3d5ffd5b505050506040513d601f19601f82011682018060405250810190612a859190615336565b6007546001600160a01b03166133865760405162461bcd60e51b815260206004820152601e60248201527f53656375726974792066756e6420636f6e7472616374206e6f742073657400006044820152606401610e1a565b6007546040516358908a0f60e01b815273ac17996d3a9a3081f626cd56e904a70e9dadf89260048201526001600160a01b03848116602483015260448201849052909116906358908a0f906064015f604051808303815f87803b1580156133eb575f80fd5b505af1158015611c85573d5f803e3d5ffd5b3361340781612bb9565b61344d5760405162461bcd60e51b8152602060048201526017602482015276596f7520617265206e6f7420726567697374657265642160481b6044820152606401610e1a565b6001600160a01b0381165f908152601060205260409020600801544210156134875760405162461bcd60e51b8152600401610e1a90615159565b61349082613f54565b5f61349c828585612bd5565b6003549091506134cb906001600160a01b031660646134bc8660026150da565b6134c69190615215565b6132ac565b6004546134e8906001600160a01b031660646134bc8660016150da565b600654613505906001600160a01b031660646134bc8660056150da565b8061352757600554613527906001600160a01b031660646134bc8660026150da565b50505050565b33613537826128c3565b6135765760405162461bcd60e51b815260206004820152601060248201526f496e76616c69642073706f6e736f722160801b6044820152606401610e1a565b61357f81612bb9565b156135c25760405162461bcd60e51b8152602060048201526013602482015272416c726561647920726567697374657265642160681b6044820152606401610e1a565b61257c8183614036565b6001600160a01b0383165f9081526019602052604081206003015481906135f590600290615215565b61360090600a6151d4565b90505f61361082620151806150da565b61361a90866151d4565b6001600160a01b0387165f9081526010602090815260408083206008018490556019909152812060030180549293509061365383615118565b919050555061366386868661441c565b61366c86614528565b50600195945050505050565b6001600160a01b0382161561257c576001600160a01b0382165f9081526010602052604081206005018054916136ad83615118565b90915550506001600160a01b039182165f81815260126020908152604080832060050180546001810182559084528284200180546001600160a01b03191686881617905592825260109052206002015490911690613678565b61370f8261469a565b60015b6001600160a01b03841615613527576001600160a01b0384165f9081526012602052604090206002015482111561379c576001600160a01b0384165f908152601260205260408120600281015460039091018054919290916137759084906151d4565b90915550506001600160a01b0384165f9081526012602052604090206002018290556137cc565b6001600160a01b0384165f90815260126020526040812060030180548492906137c69084906151d4565b90915550505b6001600160a01b0384165f90815260126020526040812060040180548492906137f69084906151d4565b90915550506001600160a01b0384165f9081526015602090815260408083208484529091528120805484929061382d9084906151d4565b9091555061383c90508461469a565b6001600160a01b039384165f90815260106020526040902060020154909316928061386681615118565b915050613712565b6001600160a01b0383165f908152601060205260409020600a015460ff161580156138eb57506001600160a01b0383165f908152601060205260409020600a0154610100900460ff1615806138eb57506001600160a01b0383165f9081526010602052604090206007015442906138e890623b53806151d4565b10155b801561390c57506138fd6107d0613295565b8210158061390c575060018110155b15612a85576001600160a01b0383165f908152601060205260409020600a01805460ff19166001179055505050565b5f610bb882106139565761394f6028613295565b90506139a5565b6107d082106139695761394f601e613295565b6103e8821061397c5761394f6014613295565b6101f4821061398f5761394f600c613295565b61012c82106139a5576139a26007613295565b90505b5f811180156139cc57506001600160a01b0383165f90815260176020526040902060010154155b80156139f857506001600160a01b0383165f908152601060205260409020600a0154610100900460ff16155b15612a8557613a0783826148b3565b6001600160a01b0384165f908152601760205260408120600101805492935083929091906119639084906151d4565b5f613a4462015180426150f1565b601a549091505f9067ffffffffffffffff811115613a6457613a64615104565b604051908082528060200260200182016040528015613aa857816020015b604080518082019091525f8082526020820152815260200190600190039081613a825790505b50601a549091505f905b8015613c26575f601a613ac66001846150f1565b81548110613ad657613ad6615130565b5f9182526020808320909101546001600160a01b03168083526010909152604090912060070154909150851115613b0d5750613c26565b6001600160a01b038082165f908152601060205260409020600201541680613b36575050613c14565b5f805b85811015613bbf57826001600160a01b0316878281518110613b5d57613b5d615130565b60200260200101515f01516001600160a01b031603613bad57868181518110613b8857613b88615130565b60200260200101516020018051809190613ba190615118565b90525060019150613bbf565b80613bb781615118565b915050613b39565b5080613c10576040518060400160405280836001600160a01b031681526020016001815250868681518110613bf657613bf6615130565b60200260200101819052508480613c0c90615118565b9550505b5050505b80613c1e81615144565b915050613ab2565b50613c2f61496c565b613c3761496c565b5f5b83811015613db2575f858281518110613c5457613c54615130565b60200260200101515f015190505f868381518110613c7457613c74615130565b60200260200101516020015190505f5b6003811015613d9c57848160038110613c9f57613c9f615130565b6020020151821115613d8a5760025b81811115613d465785613cc26001836150f1565b60038110613cd257613cd2615130565b6020020151868260038110613ce957613ce9615130565b602002015286613cfa6001836150f1565b60038110613d0a57613d0a615130565b6020020151878260038110613d2157613d21615130565b6001600160a01b03909216602092909202015280613d3e81615144565b915050613cae565b5081858260038110613d5a57613d5a615130565b602002015282868260038110613d7257613d72615130565b6001600160a01b039092166020929092020152613d9c565b80613d9481615118565b915050613c84565b5050508080613daa90615118565b915050613c39565b505f6064613dc18860026150da565b613dcb9190615215565b90505f604051806060016040528060328152602001601e8152602001601481525090505f5b6003811015613ea5575f858260038110613e0c57613e0c615130565b602002015190506001600160a01b03811615613e92575f6064848460038110613e3757613e37615130565b6020020151613e4690876150da565b613e509190615215565b9050613e5c82826148b3565b6001600160a01b0383165f90815260176020526040812060050180549293508392909190613e8b9084906151d4565b9091555050505b5080613e9d81615118565b915050613df0565b505050505050505050565b5f81156111e8576001600160a01b0383165f908152601060205260409020600801544210613edf57505f6128f4565b5f613ee984613187565b6001600160a01b0385165f9081526010602052604081206004810154600a90910154929350909160ff16613f1e576003613f21565b60045b60ff16613f2e91906150da565b905080613f3b85846151d4565b111561249257613f4b82826150f1565b95945050505050565b5f613f5d613222565b6040516323b872dd60e01b81523360048201523060248201526044810184905290915073ac17996d3a9a3081f626cd56e904a70e9dadf892906323b872dd906064016020604051808303815f875af1158015613fbb573d5f803e3d5ffd5b505050506040513d601f19601f82011682018060405250810190613fdf9190615336565b505f613fe9613222565b905082613ff683836150f1565b1015612a855760405162461bcd60e51b815260206004820152600f60248201526e496e76616c696420616d6f756e742160881b6044820152606401610e1a565b5f8054908061404483615118565b91905055505f6040518061018001604052805f548152602001846001600160a01b03168152602001836001600160a01b031681526020014281526020015f81526020015f81526020015f151581526020015f81526020015f81526020015f81526020015f151581526020015f151581525090505f6040518060c001604052805f81526020015f67ffffffffffffffff8111156140e2576140e2615104565b60405190808252806020026020018201604052801561410b578160200160208202803683370190505b5081526020015f81526020015f81526020015f81526020015f67ffffffffffffffff81111561413c5761413c615104565b604051908082528060200260200182016040528015614165578160200160208202803683370190505b5081525090505f6040518060e001604052805f81526020015f81526020015f8152602001600854600161419891906151d4565b67ffffffffffffffff8111156141b0576141b0615104565b6040519080825280602002602001820160405280156141d9578160200160208202803683370190505b5081525f6020808301829052604080840183905260609384018390528051608080820183528482528184018590528183018590528186018590526001600160a01b038c81168652601085528386208b5181558b860151600180830180546001600160a01b03199081169386169390931790558d8701516002840180549093169416939093179055968b01516003880155908a0151600487015560a08a0151600587015560c08a015160068701805460ff191691151591909117905560e08a01516007870155610100808b015160088801556101208b015160098801556101408b0151600a90970180546101608d015161ffff1990911698151561ff0019169890981797151590910296909617909555601283529220865181558682015180519596509294879491936143109392850192019061498a565b5060408201516002820155606082015160038201556080820151600482015560a0820151805161434a91600584019160209091019061498a565b5050506001600160a01b0386165f9081526017602090815260409182902084518155818501516001820155918401516002830155606084015180518593926143999260038501929101906149ed565b506080820151600482015560a0820151600582015560c0909101516006909101555f8054815260116020908152604080832080546001600160a01b03909a166001600160a01b0319909a168a1790559782526019815290879020825181559082015160018201559581015160028701556060015160039095019490945550505050565b6001600160a01b0383165f908152601060205260408120600401546144429083906150f1565b90508015613527575f606461445883600a6150da565b6144629190615215565b905061446e85826148b3565b6001600160a01b0386165f9081526017602052604081206002018054929350839290919061449d9084906151d4565b90915550506001600160a01b0385165f9081526019602052604081206001018054916144c883615118565b90915550506040805160608101825292835260208084019586528382019283526001600160a01b03969096165f90815260168752818120601988528282206001908101548352975220915182559251938101939093555051600290910155565b6001600160a01b038181165f9081526010602052604081206002810154600a90910154921691610100900460ff16614561576001614564565b60025b6001600160a01b0384165f9081526010602052604090206004015461458c9160ff1690615215565b905060015f5b6001600160a01b038416158015906145ac57506008548211155b1561469357600a5460ff166145d1575f828152600e60205260409020600101546145fa565b5f828152600e60205260409020600101546103e8906145f090856150da565b6145fa9190615215565b90506146068583612fe8565b156146615761461584826148b3565b506001600160a01b0384165f90815260176020526040902060030180548291908490811061464557614645615130565b905f5260205f20015f82825461465b91906151d4565b90915550505b6001600160a01b039384165f90815260106020526040902060020154909316928161468b81615118565b925050614592565b5050505050565b6001600160a01b0381165f908152601060205260408120600901546146c09060016151d4565b90505b600954811161257c575f600f5f8381526020019081526020015f206040518060c00160405290815f8201548152602001600182018054614702906151a2565b80601f016020809104026020016040519081016040528092919081815260200182805461472e906151a2565b80156147795780601f1061475057610100808354040283529160200191614779565b820191905f5260205f20905b81548152906001019060200180831161475c57829003601f168201915b505050505081526020016002820154815260200160038201548152602001600482015481526020016005820154815250509050806040015160105f856001600160a01b03166001600160a01b031681526020019081526020015f206004015410158015614804575060608101516001600160a01b0384165f9081526012602052604090206002015410155b801561482e575060808101516001600160a01b0384165f9081526012602052604090206003015410155b15612a85575f614842848360a001516148b3565b6001600160a01b0385165f908152601760205260408120600401805492935083929091906148719084906151d4565b90915550506001600160a01b0384165f90815260106020526040812060090184905561489f9085908561386e565b826148a981615118565b93505050506146c3565b5f6148be8383613eb0565b915081156111e85760646148d383604b6150da565b6148dd9190615215565b6001600160a01b0384165f90815260186020908152604080832060018452909152812080549091906149109084906151d4565b90915550606490506149238360196150da565b61492d9190615215565b6001600160a01b0384165f90815260186020908152604080832060028452909152812080549091906149609084906151d4565b90915550919392505050565b60405180606001604052806003906020820280368337509192915050565b828054828255905f5260205f209081019282156149dd579160200282015b828111156149dd57825182546001600160a01b0319166001600160a01b039091161782556020909201916001909101906149a8565b506149e9929150614a26565b5090565b828054828255905f5260205f209081019282156149dd579160200282015b828111156149dd578251825591602001919060010190614a0b565b5b808211156149e9575f8155600101614a27565b80356001600160a01b0381168114614a50575f80fd5b919050565b5f8060408385031215614a66575f80fd5b614a6f83614a3a565b946020939093013593505050565b5f60208284031215614a8d575f80fd5b61318082614a3a565b5f805f60608486031215614aa8575f80fd5b614ab184614a3a565b95602085013595506040909401359392505050565b602080825282518282018190525f9190848201906040850190845b81811015614b1b57614b088385518051825260208082015190830152604090810151910152565b9284019260609290920191600101614ae1565b50909695505050505050565b602080825282518282018190525f9190848201906040850190845b81811015614b1b57614b698385518051825260208082015190830152604090810151910152565b9284019260609290920191600101614b42565b5f81518084525f5b81811015614ba057602081850181015186830182015201614b84565b505f602082860101526020601f19601f83011685010191505092915050565b5f6020808301818452808551808352604092508286019150828160051b8701018488015f5b83811015614c7b57603f1989840301855281516101208151855288820151818a870152614c1382870182614b7c565b9150508782015188860152606080830151614c318288018215159052565b505060808281015115159086015260a0808301519086015260c0808301519086015260e0808301519086015261010091820151151591909401529386019390860190600101614be4565b509098975050505050505050565b602080825282518282018190525f919060409081850190868401855b82811015614cff5781518051855286810151878601528581015186860152606080820151908601526080808201519086015260a0808201519086015260c09081015115159085015260e09093019290850190600101614ca5565b5091979650505050505050565b602080825282518282015282015160408083019190915282015160608083019190915282015160808083019190915282015160a08083019190915282015160c08083019190915282015160e08083019190915282015161010080830191909152820151610120808301919091528201516101408083019190915282015161016080830191909152820151610180808301919091528201516101a0808301919091528201516101c0808301919091528201516101e0808301919091528201516102008083019190915282015161022080830191909152820151610240808301525f90614dfb610260840182614b7c565b949350505050565b5f805f60608486031215614e15575f80fd5b614e1e84614a3a565b9250614e2c60208501614a3a565b9150604084013590509250925092565b5f60208284031215614e4c575f80fd5b5035919050565b602080825282518282018190525f9190848201906040850190845b81811015614b1b57614ea8838551805182526020808201516001600160a01b03169083015260408082015190830152606090810151910152565b9284019260809290920191600101614e6e565b602080825282518282018190525f919060409081850190868401855b82811015614cff57815180518552860151868501529284019290850190600101614ed7565b5f6020808301818452808551808352604092508286019150828160051b8701018488015f5b83811015614c7b57603f1989840301855281516101208151855288820151818a870152614f5082870182614b7c565b838a0151878b0152606080850151908801526080808501519088015260a0808501519088015260c0808501519088015260e08085015190880152610100938401511515939096019290925250509386019390860190600101614f21565b5f6101208b8352806020840152614fc68184018c614b7c565b604084019a909a5250509515156060870152931515608086015260a085019290925260c084015260e083015215156101009091015292915050565b5f8060408385031215615012575f80fd5b50508035926020909101359150565b602080825282518282018190525f9190848201906040850190845b81811015614b1b57615076838551805182526020808201516001600160a01b03169083015260408082015190830152606090810151910152565b928401926080929092019160010161503c565b86815260c060208201525f6150a160c0830188614b7c565b90508560408301528460608301528360808301528260a0830152979650505050505050565b634e487b7160e01b5f52601160045260245ffd5b80820281158282048414176128f4576128f46150c6565b818103818111156128f4576128f46150c6565b634e487b7160e01b5f52604160045260245ffd5b5f60018201615129576151296150c6565b5060010190565b634e487b7160e01b5f52603260045260245ffd5b5f81615152576151526150c6565b505f190190565b60208082526029908201527f4465706f73697420697320616c6c6f776564206f6e6c79206166746572207468604082015268329032bc3834b93c9760b91b606082015260800190565b600181811c908216806151b657607f821691505b6020821081036111e857634e487b7160e01b5f52602260045260245ffd5b808201808211156128f4576128f46150c6565b602080825260149082015273596f7520617265206e6f7420616c6c6f7765642160601b604082015260600190565b5f8261522f57634e487b7160e01b5f52601260045260245ffd5b500490565b5f60208284031215615244575f80fd5b5051919050565b600181815b8085111561528557815f190482111561526b5761526b6150c6565b8085161561527857918102915b93841c9390800290615250565b509250929050565b5f8261529b575060016128f4565b816152a757505f6128f4565b81600181146152bd57600281146152c7576152e3565b60019150506128f4565b60ff8411156152d8576152d86150c6565b50506001821b6128f4565b5060208310610133831016604e8410600b8410161715615306575081810a6128f4565b615310838361524b565b805f1904821115615323576153236150c6565b029392505050565b5f613180838361528d565b5f60208284031215615346575f80fd5b81518015158114613180575f80fdfea26469706673582212201e5216f8dcb39cddeb1863cac30cab53235dfd0676ed5caf6ccd07d215dd0fcf64736f6c63430008140033",
			"opcodes": "PUSH1 0x80 PUSH1 0x40 MSTORE PUSH0 DUP1 DUP1 SSTORE PUSH1 0x1 DUP2 DUP2 SSTORE PUSH1 0x2 DUP3 SWAP1 SSTORE PUSH1 0x3 DUP1 SLOAD PUSH1 0x1 PUSH1 0x1 PUSH1 0xA0 SHL SUB NOT SWAP1 DUP2 AND PUSH20 0xA1BF05780C2DE3002086695D212A743EAA6532AD OR SWAP1 SWAP2 SSTORE PUSH1 0x4 DUP1 SLOAD DUP3 AND PUSH20 0x4F6A1CFDF5E55DB0C2FF4575B0887FEA8A967088 OR SWAP1 SSTORE PUSH1 0x5 DUP1 SLOAD DUP3 AND PUSH20 0x985495C028F9B896DE454EC448B53FBA6450DA40 OR SWAP1 SSTORE PUSH1 0x6 DUP1 SLOAD DUP3 AND PUSH20 0x73D1AD5A474E1712D6CBE18D56B7281AAF190347 OR SWAP1 SSTORE PUSH1 0x7 DUP1 SLOAD SWAP1 SWAP2 AND SWAP1 SSTORE PUSH1 0x8 DUP3 SWAP1 SSTORE PUSH1 0x9 DUP3 SWAP1 SSTORE PUSH1 0xA DUP1 SLOAD PUSH1 0xFF NOT SWAP1 DUP2 AND DUP4 OR SWAP1 SWAP2 SSTORE PUSH1 0xB SWAP3 SWAP1 SWAP3 SSTORE PUSH1 0xC DUP1 SLOAD SWAP1 SWAP3 AND OR SWAP1 SSTORE CALLVALUE DUP1 ISZERO PUSH3 0xD3 JUMPI PUSH0 DUP1 REVERT JUMPDEST POP PUSH1 0xC DUP1 SLOAD PUSH2 0x100 PUSH1 0x1 PUSH1 0xA8 SHL SUB NOT AND CALLER PUSH2 0x100 MUL OR SWAP1 SSTORE PUSH3 0xF5 PUSH3 0xFB JUMP JUMPDEST PUSH3 0x1597 JUMP JUMPDEST PUSH3 0x105 PUSH3 0x125 JUMP JUMPDEST PUSH3 0x10F PUSH3 0x25C JUMP JUMPDEST PUSH3 0x119 PUSH3 0x92B JUMP JUMPDEST PUSH3 0x123 PUSH3 0xDD4 JUMP JUMPDEST JUMP JUMPDEST PUSH1 0xB DUP1 SLOAD SWAP1 PUSH0 PUSH3 0x136 DUP4 PUSH3 0x12D7 JUMP JUMPDEST SWAP2 SWAP1 POP SSTORE POP PUSH1 0x40 MLOAD DUP1 PUSH2 0x120 ADD PUSH1 0x40 MSTORE DUP1 PUSH1 0xB SLOAD DUP2 MSTORE PUSH1 0x20 ADD PUSH1 0x40 MLOAD DUP1 PUSH1 0x40 ADD PUSH1 0x40 MSTORE DUP1 PUSH1 0x7 DUP2 MSTORE PUSH1 0x20 ADD PUSH7 0x5061636B616765 PUSH1 0xC8 SHL DUP2 MSTORE POP DUP2 MSTORE PUSH1 0x20 ADD PUSH0 DUP2 MSTORE PUSH1 0x20 ADD PUSH1 0x1 ISZERO ISZERO DUP2 MSTORE PUSH1 0x20 ADD PUSH1 0x1 ISZERO ISZERO DUP2 MSTORE PUSH1 0x20 ADD PUSH3 0x19E PUSH1 0x1E PUSH3 0xDEF PUSH1 0x20 SHL PUSH1 0x20 SHR JUMP JUMPDEST DUP2 MSTORE PUSH1 0x20 ADD PUSH3 0x1B0 PUSH2 0xBB8 PUSH3 0xDEF JUMP JUMPDEST DUP2 MSTORE PUSH0 PUSH1 0x20 DUP1 DUP4 ADD DUP3 SWAP1 MSTORE PUSH1 0x1 PUSH1 0x40 SWAP4 DUP5 ADD DUP2 SWAP1 MSTORE PUSH1 0xB SLOAD DUP4 MSTORE PUSH1 0xD DUP3 MSTORE SWAP3 SWAP1 SWAP2 KECCAK256 DUP4 MLOAD DUP2 SSTORE SWAP1 DUP4 ADD MLOAD SWAP1 SWAP2 DUP3 ADD SWAP1 PUSH3 0x1EB SWAP1 DUP3 PUSH3 0x1392 JUMP JUMPDEST POP PUSH1 0x40 DUP3 ADD MLOAD PUSH1 0x2 DUP3 ADD SSTORE PUSH1 0x60 DUP3 ADD MLOAD PUSH1 0x3 DUP3 ADD DUP1 SLOAD PUSH1 0x80 DUP6 ADD MLOAD PUSH2 0xFFFF NOT SWAP1 SWAP2 AND SWAP3 ISZERO ISZERO PUSH2 0xFF00 NOT AND SWAP3 SWAP1 SWAP3 OR PUSH2 0x100 SWAP3 ISZERO ISZERO DUP4 MUL OR SWAP1 SSTORE PUSH1 0xA0 DUP4 ADD MLOAD PUSH1 0x4 DUP4 ADD SSTORE PUSH1 0xC0 DUP4 ADD MLOAD PUSH1 0x5 DUP4 ADD SSTORE PUSH1 0xE0 DUP4 ADD MLOAD PUSH1 0x6 DUP4 ADD SSTORE SWAP1 SWAP2 ADD MLOAD PUSH1 0x7 SWAP1 SWAP2 ADD DUP1 SLOAD PUSH1 0xFF NOT AND SWAP2 ISZERO ISZERO SWAP2 SWAP1 SWAP2 OR SWAP1 SSTORE JUMP JUMPDEST PUSH1 0x8 DUP1 SLOAD SWAP1 PUSH0 PUSH3 0x26D DUP4 PUSH3 0x12D7 JUMP JUMPDEST SWAP1 SWAP2 SSTORE POP POP PUSH1 0x40 DUP1 MLOAD PUSH1 0x60 DUP2 ADD DUP3 MSTORE PUSH1 0x8 DUP1 SLOAD DUP1 DUP4 MSTORE PUSH2 0x1F4 PUSH1 0x20 DUP1 DUP6 ADD SWAP2 DUP3 MSTORE PUSH0 DUP6 DUP8 ADD DUP2 DUP2 MSTORE SWAP4 DUP2 MSTORE PUSH1 0xE SWAP1 SWAP2 MSTORE SWAP5 DUP6 KECCAK256 SWAP4 MLOAD DUP5 SSTORE MLOAD PUSH1 0x1 DUP5 ADD SSTORE MLOAD PUSH1 0x2 SWAP1 SWAP3 ADD SWAP2 SWAP1 SWAP2 SSTORE DUP1 SLOAD SWAP2 PUSH3 0x2C2 DUP4 PUSH3 0x12D7 JUMP JUMPDEST SWAP1 SWAP2 SSTORE POP POP PUSH1 0x40 DUP1 MLOAD PUSH1 0x60 DUP2 ADD DUP3 MSTORE PUSH1 0x8 DUP1 SLOAD DUP1 DUP4 MSTORE PUSH2 0x12C PUSH1 0x20 DUP1 DUP6 ADD SWAP2 DUP3 MSTORE PUSH1 0x1 DUP6 DUP8 ADD DUP2 DUP2 MSTORE PUSH0 SWAP5 DUP6 MSTORE PUSH1 0xE SWAP1 SWAP3 MSTORE SWAP6 DUP4 KECCAK256 SWAP5 MLOAD DUP6 SSTORE SWAP1 MLOAD SWAP5 DUP5 ADD SWAP5 SWAP1 SWAP5 SSTORE SWAP3 MLOAD PUSH1 0x2 SWAP1 SWAP3 ADD SWAP2 SWAP1 SWAP2 SSTORE DUP1 SLOAD SWAP2 PUSH3 0x31D DUP4 PUSH3 0x12D7 JUMP JUMPDEST SWAP1 SWAP2 SSTORE POP POP PUSH1 0x40 DUP1 MLOAD PUSH1 0x60 DUP2 ADD DUP3 MSTORE PUSH1 0x8 DUP1 SLOAD DUP1 DUP4 MSTORE PUSH1 0xC8 PUSH1 0x20 DUP1 DUP6 ADD SWAP2 DUP3 MSTORE PUSH1 0x1 DUP6 DUP8 ADD DUP2 DUP2 MSTORE PUSH0 SWAP5 DUP6 MSTORE PUSH1 0xE SWAP1 SWAP3 MSTORE SWAP6 DUP4 KECCAK256 SWAP5 MLOAD DUP6 SSTORE SWAP1 MLOAD SWAP5 DUP5 ADD SWAP5 SWAP1 SWAP5 SSTORE SWAP3 MLOAD PUSH1 0x2 SWAP1 SWAP3 ADD SWAP2 SWAP1 SWAP2 SSTORE DUP1 SLOAD SWAP2 PUSH3 0x377 DUP4 PUSH3 0x12D7 JUMP JUMPDEST SWAP1 SWAP2 SSTORE POP POP PUSH1 0x40 DUP1 MLOAD PUSH1 0x60 DUP2 ADD DUP3 MSTORE PUSH1 0x8 DUP1 SLOAD DUP1 DUP4 MSTORE PUSH2 0x190 PUSH1 0x20 DUP1 DUP6 ADD SWAP2 DUP3 MSTORE PUSH1 0x2 DUP6 DUP8 ADD DUP2 DUP2 MSTORE PUSH0 SWAP5 DUP6 MSTORE PUSH1 0xE SWAP1 SWAP3 MSTORE SWAP6 DUP4 KECCAK256 SWAP5 MLOAD DUP6 SSTORE SWAP1 MLOAD PUSH1 0x1 DUP6 ADD SSTORE MLOAD SWAP3 SWAP1 SWAP4 ADD SWAP2 SWAP1 SWAP2 SSTORE DUP1 SLOAD SWAP2 PUSH3 0x3CE DUP4 PUSH3 0x12D7 JUMP JUMPDEST SWAP1 SWAP2 SSTORE POP POP PUSH1 0x40 DUP1 MLOAD PUSH1 0x60 DUP2 ADD DUP3 MSTORE PUSH1 0x8 DUP1 SLOAD DUP1 DUP4 MSTORE PUSH1 0xC8 PUSH1 0x20 DUP1 DUP6 ADD SWAP2 DUP3 MSTORE PUSH1 0x2 DUP6 DUP8 ADD DUP2 DUP2 MSTORE PUSH0 SWAP5 DUP6 MSTORE PUSH1 0xE SWAP1 SWAP3 MSTORE SWAP6 DUP4 KECCAK256 SWAP5 MLOAD DUP6 SSTORE SWAP1 MLOAD PUSH1 0x1 DUP6 ADD SSTORE MLOAD SWAP3 SWAP1 SWAP4 ADD SWAP2 SWAP1 SWAP2 SSTORE DUP1 SLOAD SWAP2 PUSH3 0x424 DUP4 PUSH3 0x12D7 JUMP JUMPDEST SWAP1 SWAP2 SSTORE POP POP PUSH1 0x40 DUP1 MLOAD PUSH1 0x60 DUP2 ADD DUP3 MSTORE PUSH1 0x8 DUP1 SLOAD DUP1 DUP4 MSTORE PUSH1 0xC8 PUSH1 0x20 DUP1 DUP6 ADD SWAP2 DUP3 MSTORE PUSH1 0x2 DUP6 DUP8 ADD DUP2 DUP2 MSTORE PUSH0 SWAP5 DUP6 MSTORE PUSH1 0xE SWAP1 SWAP3 MSTORE SWAP6 DUP4 KECCAK256 SWAP5 MLOAD DUP6 SSTORE SWAP1 MLOAD PUSH1 0x1 DUP6 ADD SSTORE MLOAD SWAP3 SWAP1 SWAP4 ADD SWAP2 SWAP1 SWAP2 SSTORE DUP1 SLOAD SWAP2 PUSH3 0x47A DUP4 PUSH3 0x12D7 JUMP JUMPDEST SWAP1 SWAP2 SSTORE POP POP PUSH1 0x40 DUP1 MLOAD PUSH1 0x60 DUP2 ADD DUP3 MSTORE PUSH1 0x8 DUP1 SLOAD DUP1 DUP4 MSTORE PUSH1 0x64 PUSH1 0x20 DUP1 DUP6 ADD SWAP2 DUP3 MSTORE PUSH1 0x2 DUP6 DUP8 ADD DUP2 DUP2 MSTORE PUSH0 SWAP5 DUP6 MSTORE PUSH1 0xE SWAP1 SWAP3 MSTORE SWAP6 DUP4 KECCAK256 SWAP5 MLOAD DUP6 SSTORE SWAP1 MLOAD PUSH1 0x1 DUP6 ADD SSTORE MLOAD SWAP3 SWAP1 SWAP4 ADD SWAP2 SWAP1 SWAP2 SSTORE DUP1 SLOAD SWAP2 PUSH3 0x4D0 DUP4 PUSH3 0x12D7 JUMP JUMPDEST SWAP1 SWAP2 SSTORE POP POP PUSH1 0x40 DUP1 MLOAD PUSH1 0x60 DUP2 ADD DUP3 MSTORE PUSH1 0x8 DUP1 SLOAD DUP1 DUP4 MSTORE PUSH1 0x64 PUSH1 0x20 DUP1 DUP6 ADD SWAP2 DUP3 MSTORE PUSH1 0x2 DUP6 DUP8 ADD DUP2 DUP2 MSTORE PUSH0 SWAP5 DUP6 MSTORE PUSH1 0xE SWAP1 SWAP3 MSTORE SWAP6 DUP4 KECCAK256 SWAP5 MLOAD DUP6 SSTORE SWAP1 MLOAD PUSH1 0x1 DUP6 ADD SSTORE MLOAD SWAP3 SWAP1 SWAP4 ADD SWAP2 SWAP1 SWAP2 SSTORE DUP1 SLOAD SWAP2 PUSH3 0x526 DUP4 PUSH3 0x12D7 JUMP JUMPDEST SWAP1 SWAP2 SSTORE POP POP PUSH1 0x40 DUP1 MLOAD PUSH1 0x60 DUP2 ADD DUP3 MSTORE PUSH1 0x8 DUP1 SLOAD DUP1 DUP4 MSTORE PUSH1 0xC8 PUSH1 0x20 DUP1 DUP6 ADD SWAP2 DUP3 MSTORE PUSH1 0x3 DUP6 DUP8 ADD SWAP1 DUP2 MSTORE PUSH0 SWAP4 DUP5 MSTORE PUSH1 0xE SWAP1 SWAP2 MSTORE SWAP5 DUP3 KECCAK256 SWAP4 MLOAD DUP5 SSTORE MLOAD PUSH1 0x1 DUP5 ADD SSTORE SWAP3 MLOAD PUSH1 0x2 SWAP1 SWAP3 ADD SWAP2 SWAP1 SWAP2 SSTORE DUP1 SLOAD SWAP2 PUSH3 0x57D DUP4 PUSH3 0x12D7 JUMP JUMPDEST SWAP1 SWAP2 SSTORE POP POP PUSH1 0x40 DUP1 MLOAD PUSH1 0x60 DUP2 ADD DUP3 MSTORE PUSH1 0x8 DUP1 SLOAD DUP1 DUP4 MSTORE PUSH1 0x64 PUSH1 0x20 DUP1 DUP6 ADD SWAP2 DUP3 MSTORE PUSH1 0x3 DUP6 DUP8 ADD SWAP1 DUP2 MSTORE PUSH0 SWAP4 DUP5 MSTORE PUSH1 0xE SWAP1 SWAP2 MSTORE SWAP5 DUP3 KECCAK256 SWAP4 MLOAD DUP5 SSTORE MLOAD PUSH1 0x1 DUP5 ADD SSTORE SWAP3 MLOAD PUSH1 0x2 SWAP1 SWAP3 ADD SWAP2 SWAP1 SWAP2 SSTORE DUP1 SLOAD SWAP2 PUSH3 0x5D4 DUP4 PUSH3 0x12D7 JUMP JUMPDEST SWAP1 SWAP2 SSTORE POP POP PUSH1 0x40 DUP1 MLOAD PUSH1 0x60 DUP2 ADD DUP3 MSTORE PUSH1 0x8 DUP1 SLOAD DUP1 DUP4 MSTORE PUSH1 0x32 PUSH1 0x20 DUP1 DUP6 ADD SWAP2 DUP3 MSTORE PUSH1 0x3 DUP6 DUP8 ADD SWAP1 DUP2 MSTORE PUSH0 SWAP4 DUP5 MSTORE PUSH1 0xE SWAP1 SWAP2 MSTORE SWAP5 DUP3 KECCAK256 SWAP4 MLOAD DUP5 SSTORE MLOAD PUSH1 0x1 DUP5 ADD SSTORE SWAP3 MLOAD PUSH1 0x2 SWAP1 SWAP3 ADD SWAP2 SWAP1 SWAP2 SSTORE DUP1 SLOAD SWAP2 PUSH3 0x62B DUP4 PUSH3 0x12D7 JUMP JUMPDEST SWAP1 SWAP2 SSTORE POP POP PUSH1 0x40 DUP1 MLOAD PUSH1 0x60 DUP2 ADD DUP3 MSTORE PUSH1 0x8 DUP1 SLOAD DUP1 DUP4 MSTORE PUSH1 0x32 PUSH1 0x20 DUP1 DUP6 ADD SWAP2 DUP3 MSTORE PUSH1 0x3 DUP6 DUP8 ADD SWAP1 DUP2 MSTORE PUSH0 SWAP4 DUP5 MSTORE PUSH1 0xE SWAP1 SWAP2 MSTORE SWAP5 DUP3 KECCAK256 SWAP4 MLOAD DUP5 SSTORE MLOAD PUSH1 0x1 DUP5 ADD SSTORE SWAP3 MLOAD PUSH1 0x2 SWAP1 SWAP3 ADD SWAP2 SWAP1 SWAP2 SSTORE DUP1 SLOAD SWAP2 PUSH3 0x682 DUP4 PUSH3 0x12D7 JUMP JUMPDEST SWAP1 SWAP2 SSTORE POP POP PUSH1 0x40 DUP1 MLOAD PUSH1 0x60 DUP2 ADD DUP3 MSTORE PUSH1 0x8 DUP1 SLOAD DUP1 DUP4 MSTORE PUSH1 0x32 PUSH1 0x20 DUP1 DUP6 ADD SWAP2 DUP3 MSTORE PUSH1 0x3 DUP6 DUP8 ADD SWAP1 DUP2 MSTORE PUSH0 SWAP4 DUP5 MSTORE PUSH1 0xE SWAP1 SWAP2 MSTORE SWAP5 DUP3 KECCAK256 SWAP4 MLOAD DUP5 SSTORE MLOAD PUSH1 0x1 DUP5 ADD SSTORE SWAP3 MLOAD PUSH1 0x2 SWAP1 SWAP3 ADD SWAP2 SWAP1 SWAP2 SSTORE DUP1 SLOAD SWAP2 PUSH3 0x6D9 DUP4 PUSH3 0x12D7 JUMP JUMPDEST SWAP1 SWAP2 SSTORE POP POP PUSH1 0x40 DUP1 MLOAD PUSH1 0x60 DUP2 ADD DUP3 MSTORE PUSH1 0x8 DUP1 SLOAD DUP1 DUP4 MSTORE PUSH1 0x64 PUSH1 0x20 DUP1 DUP6 ADD SWAP2 DUP3 MSTORE PUSH1 0x4 DUP6 DUP8 ADD SWAP1 DUP2 MSTORE PUSH0 SWAP4 DUP5 MSTORE PUSH1 0xE SWAP1 SWAP2 MSTORE SWAP5 DUP3 KECCAK256 SWAP4 MLOAD DUP5 SSTORE MLOAD PUSH1 0x1 DUP5 ADD SSTORE SWAP3 MLOAD PUSH1 0x2 SWAP1 SWAP3 ADD SWAP2 SWAP1 SWAP2 SSTORE DUP1 SLOAD SWAP2 PUSH3 0x730 DUP4 PUSH3 0x12D7 JUMP JUMPDEST SWAP1 SWAP2 SSTORE POP POP PUSH1 0x40 DUP1 MLOAD PUSH1 0x60 DUP2 ADD DUP3 MSTORE PUSH1 0x8 DUP1 SLOAD DUP1 DUP4 MSTORE PUSH1 0x32 PUSH1 0x20 DUP1 DUP6 ADD SWAP2 DUP3 MSTORE PUSH1 0x4 DUP6 DUP8 ADD SWAP1 DUP2 MSTORE PUSH0 SWAP4 DUP5 MSTORE PUSH1 0xE SWAP1 SWAP2 MSTORE SWAP5 DUP3 KECCAK256 SWAP4 MLOAD DUP5 SSTORE MLOAD PUSH1 0x1 DUP5 ADD SSTORE SWAP3 MLOAD PUSH1 0x2 SWAP1 SWAP3 ADD SWAP2 SWAP1 SWAP2 SSTORE DUP1 SLOAD SWAP2 PUSH3 0x787 DUP4 PUSH3 0x12D7 JUMP JUMPDEST SWAP1 SWAP2 SSTORE POP POP PUSH1 0x40 DUP1 MLOAD PUSH1 0x60 DUP2 ADD DUP3 MSTORE PUSH1 0x8 DUP1 SLOAD DUP1 DUP4 MSTORE PUSH1 0x19 PUSH1 0x20 DUP1 DUP6 ADD SWAP2 DUP3 MSTORE PUSH1 0x4 DUP6 DUP8 ADD SWAP1 DUP2 MSTORE PUSH0 SWAP4 DUP5 MSTORE PUSH1 0xE SWAP1 SWAP2 MSTORE SWAP5 DUP3 KECCAK256 SWAP4 MLOAD DUP5 SSTORE MLOAD PUSH1 0x1 DUP5 ADD SSTORE SWAP3 MLOAD PUSH1 0x2 SWAP1 SWAP3 ADD SWAP2 SWAP1 SWAP2 SSTORE DUP1 SLOAD SWAP2 PUSH3 0x7DE DUP4 PUSH3 0x12D7 JUMP JUMPDEST SWAP1 SWAP2 SSTORE POP POP PUSH1 0x40 DUP1 MLOAD PUSH1 0x60 DUP2 ADD DUP3 MSTORE PUSH1 0x8 DUP1 SLOAD DUP1 DUP4 MSTORE PUSH1 0x19 PUSH1 0x20 DUP1 DUP6 ADD SWAP2 DUP3 MSTORE PUSH1 0x4 DUP6 DUP8 ADD SWAP1 DUP2 MSTORE PUSH0 SWAP4 DUP5 MSTORE PUSH1 0xE SWAP1 SWAP2 MSTORE SWAP5 DUP3 KECCAK256 SWAP4 MLOAD DUP5 SSTORE MLOAD PUSH1 0x1 DUP5 ADD SSTORE SWAP3 MLOAD PUSH1 0x2 SWAP1 SWAP3 ADD SWAP2 SWAP1 SWAP2 SSTORE DUP1 SLOAD SWAP2 PUSH3 0x835 DUP4 PUSH3 0x12D7 JUMP JUMPDEST SWAP1 SWAP2 SSTORE POP POP PUSH1 0x40 DUP1 MLOAD PUSH1 0x60 DUP2 ADD DUP3 MSTORE PUSH1 0x8 DUP1 SLOAD DUP1 DUP4 MSTORE PUSH1 0x19 PUSH1 0x20 DUP1 DUP6 ADD SWAP2 DUP3 MSTORE PUSH1 0x4 DUP6 DUP8 ADD SWAP1 DUP2 MSTORE PUSH0 SWAP4 DUP5 MSTORE PUSH1 0xE SWAP1 SWAP2 MSTORE SWAP5 DUP3 KECCAK256 SWAP4 MLOAD DUP5 SSTORE MLOAD PUSH1 0x1 DUP5 ADD SSTORE SWAP3 MLOAD PUSH1 0x2 SWAP1 SWAP3 ADD SWAP2 SWAP1 SWAP2 SSTORE DUP1 SLOAD SWAP2 PUSH3 0x88C DUP4 PUSH3 0x12D7 JUMP JUMPDEST SWAP1 SWAP2 SSTORE POP POP PUSH1 0x40 DUP1 MLOAD PUSH1 0x60 DUP2 ADD DUP3 MSTORE PUSH1 0x8 DUP1 SLOAD DUP1 DUP4 MSTORE PUSH1 0x19 PUSH1 0x20 DUP1 DUP6 ADD SWAP2 DUP3 MSTORE PUSH1 0x4 DUP6 DUP8 ADD SWAP1 DUP2 MSTORE PUSH0 SWAP4 DUP5 MSTORE PUSH1 0xE SWAP1 SWAP2 MSTORE SWAP5 DUP3 KECCAK256 SWAP4 MLOAD DUP5 SSTORE MLOAD PUSH1 0x1 DUP5 ADD SSTORE SWAP3 MLOAD PUSH1 0x2 SWAP1 SWAP3 ADD SWAP2 SWAP1 SWAP2 SSTORE DUP1 SLOAD SWAP2 PUSH3 0x8E3 DUP4 PUSH3 0x12D7 JUMP JUMPDEST SWAP1 SWAP2 SSTORE POP POP PUSH1 0x40 DUP1 MLOAD PUSH1 0x60 DUP2 ADD DUP3 MSTORE PUSH1 0x8 SLOAD DUP1 DUP3 MSTORE PUSH1 0x19 PUSH1 0x20 DUP1 DUP5 ADD SWAP2 DUP3 MSTORE PUSH1 0x4 DUP5 DUP7 ADD SWAP1 DUP2 MSTORE PUSH0 SWAP4 DUP5 MSTORE PUSH1 0xE SWAP1 SWAP2 MSTORE SWAP4 SWAP1 SWAP2 KECCAK256 SWAP2 MLOAD DUP3 SSTORE MLOAD PUSH1 0x1 DUP3 ADD SSTORE SWAP1 MLOAD PUSH1 0x2 SWAP1 SWAP2 ADD SSTORE JUMP JUMPDEST PUSH1 0x9 DUP1 SLOAD SWAP1 PUSH0 PUSH3 0x93C DUP4 PUSH3 0x12D7 JUMP JUMPDEST SWAP2 SWAP1 POP SSTORE POP PUSH1 0x40 MLOAD DUP1 PUSH1 0xC0 ADD PUSH1 0x40 MSTORE DUP1 PUSH1 0x9 SLOAD DUP2 MSTORE PUSH1 0x20 ADD PUSH1 0x40 MLOAD DUP1 PUSH1 0x40 ADD PUSH1 0x40 MSTORE DUP1 PUSH1 0x6 DUP2 MSTORE PUSH1 0x20 ADD PUSH6 0x189029BA30B9 PUSH1 0xD1 SHL DUP2 MSTORE POP DUP2 MSTORE PUSH1 0x20 ADD PUSH3 0x98B PUSH2 0x12C PUSH3 0xDEF PUSH1 0x20 SHL PUSH1 0x20 SHR JUMP JUMPDEST DUP2 MSTORE PUSH1 0x20 ADD PUSH3 0x99D PUSH2 0x3E8 PUSH3 0xDEF JUMP JUMPDEST DUP2 MSTORE PUSH1 0x20 ADD PUSH3 0x9AF PUSH2 0x3E8 PUSH3 0xDEF JUMP JUMPDEST DUP2 MSTORE PUSH1 0x20 ADD PUSH3 0x9BF PUSH0 PUSH3 0xDEF JUMP JUMPDEST SWAP1 MSTORE PUSH1 0x9 SLOAD PUSH0 SWAP1 DUP2 MSTORE PUSH1 0xF PUSH1 0x20 SWAP1 DUP2 MSTORE PUSH1 0x40 SWAP1 SWAP2 KECCAK256 DUP3 MLOAD DUP2 SSTORE SWAP1 DUP3 ADD MLOAD PUSH1 0x1 DUP3 ADD SWAP1 PUSH3 0x9ED SWAP1 DUP3 PUSH3 0x1392 JUMP JUMPDEST POP PUSH1 0x40 DUP3 ADD MLOAD PUSH1 0x2 DUP3 ADD SSTORE PUSH1 0x60 DUP3 ADD MLOAD PUSH1 0x3 DUP3 ADD SSTORE PUSH1 0x80 DUP3 ADD MLOAD PUSH1 0x4 DUP3 ADD SSTORE PUSH1 0xA0 SWAP1 SWAP2 ADD MLOAD PUSH1 0x5 SWAP1 SWAP2 ADD SSTORE PUSH1 0x9 DUP1 SLOAD SWAP1 PUSH0 PUSH3 0xA29 DUP4 PUSH3 0x12D7 JUMP JUMPDEST SWAP2 SWAP1 POP SSTORE POP PUSH1 0x40 MLOAD DUP1 PUSH1 0xC0 ADD PUSH1 0x40 MSTORE DUP1 PUSH1 0x9 SLOAD DUP2 MSTORE PUSH1 0x20 ADD PUSH1 0x40 MLOAD DUP1 PUSH1 0x40 ADD PUSH1 0x40 MSTORE DUP1 PUSH1 0x6 DUP2 MSTORE PUSH1 0x20 ADD PUSH6 0x191029BA30B9 PUSH1 0xD1 SHL DUP2 MSTORE POP DUP2 MSTORE PUSH1 0x20 ADD PUSH3 0xA78 PUSH2 0x1F4 PUSH3 0xDEF PUSH1 0x20 SHL PUSH1 0x20 SHR JUMP JUMPDEST DUP2 MSTORE PUSH1 0x20 ADD PUSH3 0xA8A PUSH2 0x1388 PUSH3 0xDEF JUMP JUMPDEST DUP2 MSTORE PUSH1 0x20 ADD PUSH3 0xA9C PUSH2 0x1388 PUSH3 0xDEF JUMP JUMPDEST DUP2 MSTORE PUSH1 0x20 ADD PUSH3 0xAAC PUSH0 PUSH3 0xDEF JUMP JUMPDEST SWAP1 MSTORE PUSH1 0x9 SLOAD PUSH0 SWAP1 DUP2 MSTORE PUSH1 0xF PUSH1 0x20 SWAP1 DUP2 MSTORE PUSH1 0x40 SWAP1 SWAP2 KECCAK256 DUP3 MLOAD DUP2 SSTORE SWAP1 DUP3 ADD MLOAD PUSH1 0x1 DUP3 ADD SWAP1 PUSH3 0xADA SWAP1 DUP3 PUSH3 0x1392 JUMP JUMPDEST POP PUSH1 0x40 DUP3 ADD MLOAD PUSH1 0x2 DUP3 ADD SSTORE PUSH1 0x60 DUP3 ADD MLOAD PUSH1 0x3 DUP3 ADD SSTORE PUSH1 0x80 DUP3 ADD MLOAD PUSH1 0x4 DUP3 ADD SSTORE PUSH1 0xA0 SWAP1 SWAP2 ADD MLOAD PUSH1 0x5 SWAP1 SWAP2 ADD SSTORE PUSH1 0x9 DUP1 SLOAD SWAP1 PUSH0 PUSH3 0xB16 DUP4 PUSH3 0x12D7 JUMP JUMPDEST SWAP2 SWAP1 POP SSTORE POP PUSH1 0x40 MLOAD DUP1 PUSH1 0xC0 ADD PUSH1 0x40 MSTORE DUP1 PUSH1 0x9 SLOAD DUP2 MSTORE PUSH1 0x20 ADD PUSH1 0x40 MLOAD DUP1 PUSH1 0x40 ADD PUSH1 0x40 MSTORE DUP1 PUSH1 0x6 DUP2 MSTORE PUSH1 0x20 ADD PUSH6 0x199029BA30B9 PUSH1 0xD1 SHL DUP2 MSTORE POP DUP2 MSTORE PUSH1 0x20 ADD PUSH3 0xB65 PUSH2 0x3E8 PUSH3 0xDEF PUSH1 0x20 SHL PUSH1 0x20 SHR JUMP JUMPDEST DUP2 MSTORE PUSH1 0x20 ADD PUSH3 0xB77 PUSH2 0x2710 PUSH3 0xDEF JUMP JUMPDEST DUP2 MSTORE PUSH1 0x20 ADD PUSH3 0xB89 PUSH2 0x2710 PUSH3 0xDEF JUMP JUMPDEST DUP2 MSTORE PUSH1 0x20 ADD PUSH3 0xB99 PUSH0 PUSH3 0xDEF JUMP JUMPDEST SWAP1 MSTORE PUSH1 0x9 SLOAD PUSH0 SWAP1 DUP2 MSTORE PUSH1 0xF PUSH1 0x20 SWAP1 DUP2 MSTORE PUSH1 0x40 SWAP1 SWAP2 KECCAK256 DUP3 MLOAD DUP2 SSTORE SWAP1 DUP3 ADD MLOAD PUSH1 0x1 DUP3 ADD SWAP1 PUSH3 0xBC7 SWAP1 DUP3 PUSH3 0x1392 JUMP JUMPDEST POP PUSH1 0x40 DUP3 ADD MLOAD PUSH1 0x2 DUP3 ADD SSTORE PUSH1 0x60 DUP3 ADD MLOAD PUSH1 0x3 DUP3 ADD SSTORE PUSH1 0x80 DUP3 ADD MLOAD PUSH1 0x4 DUP3 ADD SSTORE PUSH1 0xA0 SWAP1 SWAP2 ADD MLOAD PUSH1 0x5 SWAP1 SWAP2 ADD SSTORE PUSH1 0x9 DUP1 SLOAD SWAP1 PUSH0 PUSH3 0xC03 DUP4 PUSH3 0x12D7 JUMP JUMPDEST SWAP2 SWAP1 POP SSTORE POP PUSH1 0x40 MLOAD DUP1 PUSH1 0xC0 ADD PUSH1 0x40 MSTORE DUP1 PUSH1 0x9 SLOAD DUP2 MSTORE PUSH1 0x20 ADD PUSH1 0x40 MLOAD DUP1 PUSH1 0x40 ADD PUSH1 0x40 MSTORE DUP1 PUSH1 0x6 DUP2 MSTORE PUSH1 0x20 ADD PUSH6 0x1A1029BA30B9 PUSH1 0xD1 SHL DUP2 MSTORE POP DUP2 MSTORE PUSH1 0x20 ADD PUSH3 0xC52 PUSH2 0x7D0 PUSH3 0xDEF PUSH1 0x20 SHL PUSH1 0x20 SHR JUMP JUMPDEST DUP2 MSTORE PUSH1 0x20 ADD PUSH3 0xC64 PUSH2 0x61A8 PUSH3 0xDEF JUMP JUMPDEST DUP2 MSTORE PUSH1 0x20 ADD PUSH3 0xC76 PUSH2 0x61A8 PUSH3 0xDEF JUMP JUMPDEST DUP2 MSTORE PUSH1 0x20 ADD PUSH3 0xC88 PUSH2 0x9C4 PUSH3 0xDEF JUMP JUMPDEST SWAP1 MSTORE PUSH1 0x9 SLOAD PUSH0 SWAP1 DUP2 MSTORE PUSH1 0xF PUSH1 0x20 SWAP1 DUP2 MSTORE PUSH1 0x40 SWAP1 SWAP2 KECCAK256 DUP3 MLOAD DUP2 SSTORE SWAP1 DUP3 ADD MLOAD PUSH1 0x1 DUP3 ADD SWAP1 PUSH3 0xCB6 SWAP1 DUP3 PUSH3 0x1392 JUMP JUMPDEST POP PUSH1 0x40 DUP3 ADD MLOAD PUSH1 0x2 DUP3 ADD SSTORE PUSH1 0x60 DUP3 ADD MLOAD PUSH1 0x3 DUP3 ADD SSTORE PUSH1 0x80 DUP3 ADD MLOAD PUSH1 0x4 DUP3 ADD SSTORE PUSH1 0xA0 SWAP1 SWAP2 ADD MLOAD PUSH1 0x5 SWAP1 SWAP2 ADD SSTORE PUSH1 0x9 DUP1 SLOAD SWAP1 PUSH0 PUSH3 0xCF2 DUP4 PUSH3 0x12D7 JUMP JUMPDEST SWAP2 SWAP1 POP SSTORE POP PUSH1 0x40 MLOAD DUP1 PUSH1 0xC0 ADD PUSH1 0x40 MSTORE DUP1 PUSH1 0x9 SLOAD DUP2 MSTORE PUSH1 0x20 ADD PUSH1 0x40 MLOAD DUP1 PUSH1 0x40 ADD PUSH1 0x40 MSTORE DUP1 PUSH1 0x6 DUP2 MSTORE PUSH1 0x20 ADD PUSH6 0x1A9029BA30B9 PUSH1 0xD1 SHL DUP2 MSTORE POP DUP2 MSTORE PUSH1 0x20 ADD PUSH3 0xD41 PUSH2 0xBB8 PUSH3 0xDEF PUSH1 0x20 SHL PUSH1 0x20 SHR JUMP JUMPDEST DUP2 MSTORE PUSH1 0x20 ADD PUSH3 0xD54 PUSH3 0x124F8 PUSH3 0xDEF JUMP JUMPDEST DUP2 MSTORE PUSH1 0x20 ADD PUSH3 0xD67 PUSH3 0x124F8 PUSH3 0xDEF JUMP JUMPDEST DUP2 MSTORE PUSH1 0x20 ADD PUSH3 0xD79 PUSH2 0x1388 PUSH3 0xDEF JUMP JUMPDEST SWAP1 MSTORE PUSH1 0x9 SLOAD PUSH0 SWAP1 DUP2 MSTORE PUSH1 0xF PUSH1 0x20 SWAP1 DUP2 MSTORE PUSH1 0x40 SWAP1 SWAP2 KECCAK256 DUP3 MLOAD DUP2 SSTORE SWAP1 DUP3 ADD MLOAD PUSH1 0x1 DUP3 ADD SWAP1 PUSH3 0xDA7 SWAP1 DUP3 PUSH3 0x1392 JUMP JUMPDEST POP PUSH1 0x40 DUP3 ADD MLOAD PUSH1 0x2 DUP3 ADD SSTORE PUSH1 0x60 DUP3 ADD MLOAD PUSH1 0x3 DUP3 ADD SSTORE PUSH1 0x80 DUP3 ADD MLOAD PUSH1 0x4 DUP3 ADD SSTORE PUSH1 0xA0 SWAP1 SWAP2 ADD MLOAD PUSH1 0x5 SWAP1 SWAP2 ADD SSTORE JUMP JUMPDEST PUSH1 0x3 SLOAD PUSH1 0x1 PUSH1 0x1 PUSH1 0xA0 SHL SUB AND PUSH3 0xDEC DUP2 PUSH0 PUSH3 0xE10 JUMP JUMPDEST POP JUMP JUMPDEST PUSH0 PUSH3 0xDFE PUSH1 0x12 PUSH1 0xA PUSH3 0x1553 JUMP JUMPDEST PUSH3 0xE0A SWAP1 DUP4 PUSH3 0x1567 JUMP JUMPDEST SWAP3 SWAP2 POP POP JUMP JUMPDEST PUSH0 DUP1 SLOAD SWAP1 DUP1 PUSH3 0xE20 DUP4 PUSH3 0x12D7 JUMP JUMPDEST SWAP2 SWAP1 POP SSTORE POP PUSH0 PUSH1 0x40 MLOAD DUP1 PUSH2 0x180 ADD PUSH1 0x40 MSTORE DUP1 PUSH0 SLOAD DUP2 MSTORE PUSH1 0x20 ADD DUP5 PUSH1 0x1 PUSH1 0x1 PUSH1 0xA0 SHL SUB AND DUP2 MSTORE PUSH1 0x20 ADD DUP4 PUSH1 0x1 PUSH1 0x1 PUSH1 0xA0 SHL SUB AND DUP2 MSTORE PUSH1 0x20 ADD TIMESTAMP DUP2 MSTORE PUSH1 0x20 ADD PUSH0 DUP2 MSTORE PUSH1 0x20 ADD PUSH0 DUP2 MSTORE PUSH1 0x20 ADD PUSH0 ISZERO ISZERO DUP2 MSTORE PUSH1 0x20 ADD PUSH0 DUP2 MSTORE PUSH1 0x20 ADD PUSH0 DUP2 MSTORE PUSH1 0x20 ADD PUSH0 DUP2 MSTORE PUSH1 0x20 ADD PUSH0 ISZERO ISZERO DUP2 MSTORE PUSH1 0x20 ADD PUSH0 ISZERO ISZERO DUP2 MSTORE POP SWAP1 POP PUSH0 PUSH1 0x40 MLOAD DUP1 PUSH1 0xC0 ADD PUSH1 0x40 MSTORE DUP1 PUSH0 DUP2 MSTORE PUSH1 0x20 ADD PUSH0 PUSH1 0x1 PUSH1 0x1 PUSH1 0x40 SHL SUB DUP2 GT ISZERO PUSH3 0xEC0 JUMPI PUSH3 0xEC0 PUSH3 0x12F2 JUMP JUMPDEST PUSH1 0x40 MLOAD SWAP1 DUP1 DUP3 MSTORE DUP1 PUSH1 0x20 MUL PUSH1 0x20 ADD DUP3 ADD PUSH1 0x40 MSTORE DUP1 ISZERO PUSH3 0xEEA JUMPI DUP2 PUSH1 0x20 ADD PUSH1 0x20 DUP3 MUL DUP1 CALLDATASIZE DUP4 CALLDATACOPY ADD SWAP1 POP JUMPDEST POP DUP2 MSTORE PUSH1 0x20 ADD PUSH0 DUP2 MSTORE PUSH1 0x20 ADD PUSH0 DUP2 MSTORE PUSH1 0x20 ADD PUSH0 DUP2 MSTORE PUSH1 0x20 ADD PUSH0 PUSH1 0x1 PUSH1 0x1 PUSH1 0x40 SHL SUB DUP2 GT ISZERO PUSH3 0xF1D JUMPI PUSH3 0xF1D PUSH3 0x12F2 JUMP JUMPDEST PUSH1 0x40 MLOAD SWAP1 DUP1 DUP3 MSTORE DUP1 PUSH1 0x20 MUL PUSH1 0x20 ADD DUP3 ADD PUSH1 0x40 MSTORE DUP1 ISZERO PUSH3 0xF47 JUMPI DUP2 PUSH1 0x20 ADD PUSH1 0x20 DUP3 MUL DUP1 CALLDATASIZE DUP4 CALLDATACOPY ADD SWAP1 POP JUMPDEST POP DUP2 MSTORE POP SWAP1 POP PUSH0 PUSH1 0x40 MLOAD DUP1 PUSH1 0xE0 ADD PUSH1 0x40 MSTORE DUP1 PUSH0 DUP2 MSTORE PUSH1 0x20 ADD PUSH0 DUP2 MSTORE PUSH1 0x20 ADD PUSH0 DUP2 MSTORE PUSH1 0x20 ADD PUSH1 0x8 SLOAD PUSH1 0x1 PUSH3 0xF7C SWAP2 SWAP1 PUSH3 0x1581 JUMP JUMPDEST PUSH1 0x1 PUSH1 0x1 PUSH1 0x40 SHL SUB DUP2 GT ISZERO PUSH3 0xF96 JUMPI PUSH3 0xF96 PUSH3 0x12F2 JUMP JUMPDEST PUSH1 0x40 MLOAD SWAP1 DUP1 DUP3 MSTORE DUP1 PUSH1 0x20 MUL PUSH1 0x20 ADD DUP3 ADD PUSH1 0x40 MSTORE DUP1 ISZERO PUSH3 0xFC0 JUMPI DUP2 PUSH1 0x20 ADD PUSH1 0x20 DUP3 MUL DUP1 CALLDATASIZE DUP4 CALLDATACOPY ADD SWAP1 POP JUMPDEST POP DUP2 MSTORE PUSH0 PUSH1 0x20 DUP1 DUP4 ADD DUP3 SWAP1 MSTORE PUSH1 0x40 DUP1 DUP5 ADD DUP4 SWAP1 MSTORE PUSH1 0x60 SWAP4 DUP5 ADD DUP4 SWAP1 MSTORE DUP1 MLOAD PUSH1 0x80 DUP1 DUP3 ADD DUP4 MSTORE DUP5 DUP3 MSTORE DUP2 DUP5 ADD DUP6 SWAP1 MSTORE DUP2 DUP4 ADD DUP6 SWAP1 MSTORE DUP2 DUP7 ADD DUP6 SWAP1 MSTORE PUSH1 0x1 PUSH1 0x1 PUSH1 0xA0 SHL SUB DUP13 DUP2 AND DUP7 MSTORE PUSH1 0x10 DUP6 MSTORE DUP4 DUP7 KECCAK256 DUP12 MLOAD DUP2 SSTORE DUP12 DUP7 ADD MLOAD PUSH1 0x1 DUP1 DUP4 ADD DUP1 SLOAD PUSH1 0x1 PUSH1 0x1 PUSH1 0xA0 SHL SUB NOT SWAP1 DUP2 AND SWAP4 DUP7 AND SWAP4 SWAP1 SWAP4 OR SWAP1 SSTORE DUP14 DUP8 ADD MLOAD PUSH1 0x2 DUP5 ADD DUP1 SLOAD SWAP1 SWAP4 AND SWAP5 AND SWAP4 SWAP1 SWAP4 OR SWAP1 SSTORE SWAP7 DUP12 ADD MLOAD PUSH1 0x3 DUP9 ADD SSTORE SWAP1 DUP11 ADD MLOAD PUSH1 0x4 DUP8 ADD SSTORE PUSH1 0xA0 DUP11 ADD MLOAD PUSH1 0x5 DUP8 ADD SSTORE PUSH1 0xC0 DUP11 ADD MLOAD PUSH1 0x6 DUP8 ADD DUP1 SLOAD PUSH1 0xFF NOT AND SWAP2 ISZERO ISZERO SWAP2 SWAP1 SWAP2 OR SWAP1 SSTORE PUSH1 0xE0 DUP11 ADD MLOAD PUSH1 0x7 DUP8 ADD SSTORE PUSH2 0x100 DUP1 DUP12 ADD MLOAD PUSH1 0x8 DUP9 ADD SSTORE PUSH2 0x120 DUP12 ADD MLOAD PUSH1 0x9 DUP9 ADD SSTORE PUSH2 0x140 DUP12 ADD MLOAD PUSH1 0xA SWAP1 SWAP8 ADD DUP1 SLOAD PUSH2 0x160 DUP14 ADD MLOAD PUSH2 0xFFFF NOT SWAP1 SWAP2 AND SWAP9 ISZERO ISZERO PUSH2 0xFF00 NOT AND SWAP9 SWAP1 SWAP9 OR SWAP8 ISZERO ISZERO SWAP1 SWAP2 MUL SWAP7 SWAP1 SWAP7 OR SWAP1 SWAP6 SSTORE PUSH1 0x12 DUP4 MSTORE SWAP3 KECCAK256 DUP7 MLOAD DUP2 SSTORE DUP7 DUP3 ADD MLOAD DUP1 MLOAD SWAP6 SWAP7 POP SWAP3 SWAP5 DUP8 SWAP5 SWAP2 SWAP4 PUSH3 0x10F9 SWAP4 SWAP3 DUP6 ADD SWAP3 ADD SWAP1 PUSH3 0x1209 JUMP JUMPDEST POP PUSH1 0x40 DUP3 ADD MLOAD PUSH1 0x2 DUP3 ADD SSTORE PUSH1 0x60 DUP3 ADD MLOAD PUSH1 0x3 DUP3 ADD SSTORE PUSH1 0x80 DUP3 ADD MLOAD PUSH1 0x4 DUP3 ADD SSTORE PUSH1 0xA0 DUP3 ADD MLOAD DUP1 MLOAD PUSH3 0x1135 SWAP2 PUSH1 0x5 DUP5 ADD SWAP2 PUSH1 0x20 SWAP1 SWAP2 ADD SWAP1 PUSH3 0x1209 JUMP JUMPDEST POP POP POP PUSH1 0x1 PUSH1 0x1 PUSH1 0xA0 SHL SUB DUP7 AND PUSH0 SWAP1 DUP2 MSTORE PUSH1 0x17 PUSH1 0x20 SWAP1 DUP2 MSTORE PUSH1 0x40 SWAP2 DUP3 SWAP1 KECCAK256 DUP5 MLOAD DUP2 SSTORE DUP2 DUP6 ADD MLOAD PUSH1 0x1 DUP3 ADD SSTORE SWAP2 DUP5 ADD MLOAD PUSH1 0x2 DUP4 ADD SSTORE PUSH1 0x60 DUP5 ADD MLOAD DUP1 MLOAD DUP6 SWAP4 SWAP3 PUSH3 0x1186 SWAP3 PUSH1 0x3 DUP6 ADD SWAP3 SWAP2 ADD SWAP1 PUSH3 0x1271 JUMP JUMPDEST POP PUSH1 0x80 DUP3 ADD MLOAD PUSH1 0x4 DUP3 ADD SSTORE PUSH1 0xA0 DUP3 ADD MLOAD PUSH1 0x5 DUP3 ADD SSTORE PUSH1 0xC0 SWAP1 SWAP2 ADD MLOAD PUSH1 0x6 SWAP1 SWAP2 ADD SSTORE PUSH0 DUP1 SLOAD DUP2 MSTORE PUSH1 0x11 PUSH1 0x20 SWAP1 DUP2 MSTORE PUSH1 0x40 DUP1 DUP4 KECCAK256 DUP1 SLOAD PUSH1 0x1 PUSH1 0x1 PUSH1 0xA0 SHL SUB SWAP1 SWAP11 AND PUSH1 0x1 PUSH1 0x1 PUSH1 0xA0 SHL SUB NOT SWAP1 SWAP11 AND DUP11 OR SWAP1 SSTORE SWAP8 DUP3 MSTORE PUSH1 0x19 DUP2 MSTORE SWAP1 DUP8 SWAP1 KECCAK256 DUP3 MLOAD DUP2 SSTORE SWAP1 DUP3 ADD MLOAD PUSH1 0x1 DUP3 ADD SSTORE SWAP6 DUP2 ADD MLOAD PUSH1 0x2 DUP8 ADD SSTORE PUSH1 0x60 ADD MLOAD PUSH1 0x3 SWAP1 SWAP6 ADD SWAP5 SWAP1 SWAP5 SSTORE POP POP POP POP JUMP JUMPDEST DUP3 DUP1 SLOAD DUP3 DUP3 SSTORE SWAP1 PUSH0 MSTORE PUSH1 0x20 PUSH0 KECCAK256 SWAP1 DUP2 ADD SWAP3 DUP3 ISZERO PUSH3 0x125F JUMPI SWAP2 PUSH1 0x20 MUL DUP3 ADD JUMPDEST DUP3 DUP2 GT ISZERO PUSH3 0x125F JUMPI DUP3 MLOAD DUP3 SLOAD PUSH1 0x1 PUSH1 0x1 PUSH1 0xA0 SHL SUB NOT AND PUSH1 0x1 PUSH1 0x1 PUSH1 0xA0 SHL SUB SWAP1 SWAP2 AND OR DUP3 SSTORE PUSH1 0x20 SWAP1 SWAP3 ADD SWAP2 PUSH1 0x1 SWAP1 SWAP2 ADD SWAP1 PUSH3 0x1228 JUMP JUMPDEST POP PUSH3 0x126D SWAP3 SWAP2 POP PUSH3 0x12AD JUMP JUMPDEST POP SWAP1 JUMP JUMPDEST DUP3 DUP1 SLOAD DUP3 DUP3 SSTORE SWAP1 PUSH0 MSTORE PUSH1 0x20 PUSH0 KECCAK256 SWAP1 DUP2 ADD SWAP3 DUP3 ISZERO PUSH3 0x125F JUMPI SWAP2 PUSH1 0x20 MUL DUP3 ADD JUMPDEST DUP3 DUP2 GT ISZERO PUSH3 0x125F JUMPI DUP3 MLOAD DUP3 SSTORE SWAP2 PUSH1 0x20 ADD SWAP2 SWAP1 PUSH1 0x1 ADD SWAP1 PUSH3 0x1290 JUMP JUMPDEST JUMPDEST DUP1 DUP3 GT ISZERO PUSH3 0x126D JUMPI PUSH0 DUP2 SSTORE PUSH1 0x1 ADD PUSH3 0x12AE JUMP JUMPDEST PUSH4 0x4E487B71 PUSH1 0xE0 SHL PUSH0 MSTORE PUSH1 0x11 PUSH1 0x4 MSTORE PUSH1 0x24 PUSH0 REVERT JUMPDEST PUSH0 PUSH1 0x1 DUP3 ADD PUSH3 0x12EB JUMPI PUSH3 0x12EB PUSH3 0x12C3 JUMP JUMPDEST POP PUSH1 0x1 ADD SWAP1 JUMP JUMPDEST PUSH4 0x4E487B71 PUSH1 0xE0 SHL PUSH0 MSTORE PUSH1 0x41 PUSH1 0x4 MSTORE PUSH1 0x24 PUSH0 REVERT JUMPDEST PUSH1 0x1 DUP2 DUP2 SHR SWAP1 DUP3 AND DUP1 PUSH3 0x131B JUMPI PUSH1 0x7F DUP3 AND SWAP2 POP JUMPDEST PUSH1 0x20 DUP3 LT DUP2 SUB PUSH3 0x133A JUMPI PUSH4 0x4E487B71 PUSH1 0xE0 SHL PUSH0 MSTORE PUSH1 0x22 PUSH1 0x4 MSTORE PUSH1 0x24 PUSH0 REVERT JUMPDEST POP SWAP2 SWAP1 POP JUMP JUMPDEST PUSH1 0x1F DUP3 GT ISZERO PUSH3 0x138D JUMPI PUSH0 DUP2 DUP2 MSTORE PUSH1 0x20 DUP2 KECCAK256 PUSH1 0x1F DUP6 ADD PUSH1 0x5 SHR DUP2 ADD PUSH1 0x20 DUP7 LT ISZERO PUSH3 0x1368 JUMPI POP DUP1 JUMPDEST PUSH1 0x1F DUP6 ADD PUSH1 0x5 SHR DUP3 ADD SWAP2 POP JUMPDEST DUP2 DUP2 LT ISZERO PUSH3 0x1389 JUMPI DUP3 DUP2 SSTORE PUSH1 0x1 ADD PUSH3 0x1374 JUMP JUMPDEST POP POP POP JUMPDEST POP POP POP JUMP JUMPDEST DUP2 MLOAD PUSH1 0x1 PUSH1 0x1 PUSH1 0x40 SHL SUB DUP2 GT ISZERO PUSH3 0x13AE JUMPI PUSH3 0x13AE PUSH3 0x12F2 JUMP JUMPDEST PUSH3 0x13C6 DUP2 PUSH3 0x13BF DUP5 SLOAD PUSH3 0x1306 JUMP JUMPDEST DUP5 PUSH3 0x1340 JUMP JUMPDEST PUSH1 0x20 DUP1 PUSH1 0x1F DUP4 GT PUSH1 0x1 DUP2 EQ PUSH3 0x13FC JUMPI PUSH0 DUP5 ISZERO PUSH3 0x13E4 JUMPI POP DUP6 DUP4 ADD MLOAD JUMPDEST PUSH0 NOT PUSH1 0x3 DUP7 SWAP1 SHL SHR NOT AND PUSH1 0x1 DUP6 SWAP1 SHL OR DUP6 SSTORE PUSH3 0x1389 JUMP JUMPDEST PUSH0 DUP6 DUP2 MSTORE PUSH1 0x20 DUP2 KECCAK256 PUSH1 0x1F NOT DUP7 AND SWAP2 JUMPDEST DUP3 DUP2 LT ISZERO PUSH3 0x142C JUMPI DUP9 DUP7 ADD MLOAD DUP3 SSTORE SWAP5 DUP5 ADD SWAP5 PUSH1 0x1 SWAP1 SWAP2 ADD SWAP1 DUP5 ADD PUSH3 0x140B JUMP JUMPDEST POP DUP6 DUP3 LT ISZERO PUSH3 0x144A JUMPI DUP8 DUP6 ADD MLOAD PUSH0 NOT PUSH1 0x3 DUP9 SWAP1 SHL PUSH1 0xF8 AND SHR NOT AND DUP2 SSTORE JUMPDEST POP POP POP POP POP PUSH1 0x1 SWAP1 DUP2 SHL ADD SWAP1 SSTORE POP JUMP JUMPDEST PUSH1 0x1 DUP2 DUP2 JUMPDEST DUP1 DUP6 GT ISZERO PUSH3 0x149A JUMPI DUP2 PUSH0 NOT DIV DUP3 GT ISZERO PUSH3 0x147E JUMPI PUSH3 0x147E PUSH3 0x12C3 JUMP JUMPDEST DUP1 DUP6 AND ISZERO PUSH3 0x148C JUMPI SWAP2 DUP2 MUL SWAP2 JUMPDEST SWAP4 DUP5 SHR SWAP4 SWAP1 DUP1 MUL SWAP1 PUSH3 0x145F JUMP JUMPDEST POP SWAP3 POP SWAP3 SWAP1 POP JUMP JUMPDEST PUSH0 DUP3 PUSH3 0x14B2 JUMPI POP PUSH1 0x1 PUSH3 0xE0A JUMP JUMPDEST DUP2 PUSH3 0x14C0 JUMPI POP PUSH0 PUSH3 0xE0A JUMP JUMPDEST DUP2 PUSH1 0x1 DUP2 EQ PUSH3 0x14D9 JUMPI PUSH1 0x2 DUP2 EQ PUSH3 0x14E4 JUMPI PUSH3 0x1504 JUMP JUMPDEST PUSH1 0x1 SWAP2 POP POP PUSH3 0xE0A JUMP JUMPDEST PUSH1 0xFF DUP5 GT ISZERO PUSH3 0x14F8 JUMPI PUSH3 0x14F8 PUSH3 0x12C3 JUMP JUMPDEST POP POP PUSH1 0x1 DUP3 SHL PUSH3 0xE0A JUMP JUMPDEST POP PUSH1 0x20 DUP4 LT PUSH2 0x133 DUP4 LT AND PUSH1 0x4E DUP5 LT PUSH1 0xB DUP5 LT AND OR ISZERO PUSH3 0x1529 JUMPI POP DUP2 DUP2 EXP PUSH3 0xE0A JUMP JUMPDEST PUSH3 0x1535 DUP4 DUP4 PUSH3 0x145A JUMP JUMPDEST DUP1 PUSH0 NOT DIV DUP3 GT ISZERO PUSH3 0x154B JUMPI PUSH3 0x154B PUSH3 0x12C3 JUMP JUMPDEST MUL SWAP4 SWAP3 POP POP POP JUMP JUMPDEST PUSH0 PUSH3 0x1560 DUP4 DUP4 PUSH3 0x14A2 JUMP JUMPDEST SWAP4 SWAP3 POP POP POP JUMP JUMPDEST DUP1 DUP3 MUL DUP2 ISZERO DUP3 DUP3 DIV DUP5 EQ OR PUSH3 0xE0A JUMPI PUSH3 0xE0A PUSH3 0x12C3 JUMP JUMPDEST DUP1 DUP3 ADD DUP1 DUP3 GT ISZERO PUSH3 0xE0A JUMPI PUSH3 0xE0A PUSH3 0x12C3 JUMP JUMPDEST PUSH2 0x538B DUP1 PUSH3 0x15A5 PUSH0 CODECOPY PUSH0 RETURN INVALID PUSH1 0x80 PUSH1 0x40 MSTORE PUSH1 0x4 CALLDATASIZE LT PUSH2 0x254 JUMPI PUSH0 CALLDATALOAD PUSH1 0xE0 SHR DUP1 PUSH4 0x6B1A7086 GT PUSH2 0x13F JUMPI DUP1 PUSH4 0xB66DB385 GT PUSH2 0xB3 JUMPI DUP1 PUSH4 0xEDBDC914 GT PUSH2 0x78 JUMPI DUP1 PUSH4 0xEDBDC914 EQ PUSH2 0xA1B JUMPI DUP1 PUSH4 0xEECC1C95 EQ PUSH2 0xA4C JUMPI DUP1 PUSH4 0xEEDA149C EQ PUSH2 0xA7B JUMPI DUP1 PUSH4 0xF279E6A1 EQ PUSH2 0xA8E JUMPI DUP1 PUSH4 0xFD0BB36C EQ PUSH2 0xAAD JUMPI DUP1 PUSH4 0xFF9B6364 EQ PUSH2 0xAEE JUMPI PUSH0 DUP1 REVERT JUMPDEST DUP1 PUSH4 0xB66DB385 EQ PUSH2 0x8F6 JUMPI DUP1 PUSH4 0xBA32F6F4 EQ PUSH2 0x915 JUMPI DUP1 PUSH4 0xC5F00964 EQ PUSH2 0x934 JUMPI DUP1 PUSH4 0xDACBB37E EQ PUSH2 0x974 JUMPI DUP1 PUSH4 0xE315927B EQ PUSH2 0x9A0 JUMPI PUSH0 DUP1 REVERT JUMPDEST DUP1 PUSH4 0xA18A609A GT PUSH2 0x104 JUMPI DUP1 PUSH4 0xA18A609A EQ PUSH2 0x828 JUMPI DUP1 PUSH4 0xA3AF609B EQ PUSH2 0x85C JUMPI DUP1 PUSH4 0xA4B6F5E1 EQ PUSH2 0x86F JUMPI DUP1 PUSH4 0xA5F94521 EQ PUSH2 0x884 JUMPI DUP1 PUSH4 0xAC3A4800 EQ PUSH2 0x8A3 JUMPI DUP1 PUSH4 0xB5D962B7 EQ PUSH2 0x8D7 JUMPI PUSH0 DUP1 REVERT JUMPDEST DUP1 PUSH4 0x6B1A7086 EQ PUSH2 0x720 JUMPI DUP1 PUSH4 0x705116A0 EQ PUSH2 0x777 JUMPI DUP1 PUSH4 0x759369D2 EQ PUSH2 0x7B1 JUMPI DUP1 PUSH4 0x88CB410D EQ PUSH2 0x7DD JUMPI DUP1 PUSH4 0x8B2C295E EQ PUSH2 0x7FC JUMPI PUSH0 DUP1 REVERT JUMPDEST DUP1 PUSH4 0x3936E8B9 GT PUSH2 0x1D6 JUMPI DUP1 PUSH4 0x5A015583 GT PUSH2 0x19B JUMPI DUP1 PUSH4 0x5A015583 EQ PUSH2 0x58B JUMPI DUP1 PUSH4 0x5B6B431D EQ PUSH2 0x5AA JUMPI DUP1 PUSH4 0x5BE94E83 EQ PUSH2 0x5C9 JUMPI DUP1 PUSH4 0x5CF75517 EQ PUSH2 0x5F5 JUMPI DUP1 PUSH4 0x641FBA96 EQ PUSH2 0x6ED JUMPI DUP1 PUSH4 0x68EC2FBE EQ PUSH2 0x701 JUMPI PUSH0 DUP1 REVERT JUMPDEST DUP1 PUSH4 0x3936E8B9 EQ PUSH2 0x4DE JUMPI DUP1 PUSH4 0x3DAA551C EQ PUSH2 0x4FD JUMPI DUP1 PUSH4 0x4788312F EQ PUSH2 0x51E JUMPI DUP1 PUSH4 0x4A40F2FE EQ PUSH2 0x533 JUMPI DUP1 PUSH4 0x54A03E38 EQ PUSH2 0x55F JUMPI PUSH0 DUP1 REVERT JUMPDEST DUP1 PUSH4 0x2DEDF15A GT PUSH2 0x21C JUMPI DUP1 PUSH4 0x2DEDF15A EQ PUSH2 0x3C0 JUMPI DUP1 PUSH4 0x2E244FC7 EQ PUSH2 0x420 JUMPI DUP1 PUSH4 0x2E628E2E EQ PUSH2 0x44C JUMPI DUP1 PUSH4 0x3341D2E6 EQ PUSH2 0x478 JUMPI DUP1 PUSH4 0x365152FA EQ PUSH2 0x499 JUMPI PUSH0 DUP1 REVERT JUMPDEST DUP1 PUSH4 0x7D94067 EQ PUSH2 0x258 JUMPI DUP1 PUSH4 0x1362E8E6 EQ PUSH2 0x2AF JUMPI DUP1 PUSH4 0x1BFE37CE EQ PUSH2 0x2F3 JUMPI DUP1 PUSH4 0x1CFA6E9B EQ PUSH2 0x329 JUMPI DUP1 PUSH4 0x2A530A36 EQ PUSH2 0x360 JUMPI JUMPDEST PUSH0 DUP1 REVERT JUMPDEST CALLVALUE DUP1 ISZERO PUSH2 0x263 JUMPI PUSH0 DUP1 REVERT JUMPDEST POP PUSH2 0x295 PUSH2 0x272 CALLDATASIZE PUSH1 0x4 PUSH2 0x4A55 JUMP JUMPDEST PUSH1 0x14 PUSH1 0x20 SWAP1 DUP2 MSTORE PUSH0 SWAP3 DUP4 MSTORE PUSH1 0x40 DUP1 DUP5 KECCAK256 SWAP1 SWAP2 MSTORE SWAP1 DUP3 MSTORE SWAP1 KECCAK256 DUP1 SLOAD PUSH1 0x1 SWAP1 SWAP2 ADD SLOAD DUP3 JUMP JUMPDEST PUSH1 0x40 DUP1 MLOAD SWAP3 DUP4 MSTORE PUSH1 0x20 DUP4 ADD SWAP2 SWAP1 SWAP2 MSTORE ADD JUMPDEST PUSH1 0x40 MLOAD DUP1 SWAP2 SUB SWAP1 RETURN JUMPDEST CALLVALUE DUP1 ISZERO PUSH2 0x2BA JUMPI PUSH0 DUP1 REVERT JUMPDEST POP PUSH2 0x2E5 PUSH2 0x2C9 CALLDATASIZE PUSH1 0x4 PUSH2 0x4A55 JUMP JUMPDEST PUSH1 0x18 PUSH1 0x20 SWAP1 DUP2 MSTORE PUSH0 SWAP3 DUP4 MSTORE PUSH1 0x40 DUP1 DUP5 KECCAK256 SWAP1 SWAP2 MSTORE SWAP1 DUP3 MSTORE SWAP1 KECCAK256 SLOAD DUP2 JUMP JUMPDEST PUSH1 0x40 MLOAD SWAP1 DUP2 MSTORE PUSH1 0x20 ADD PUSH2 0x2A6 JUMP JUMPDEST CALLVALUE DUP1 ISZERO PUSH2 0x2FE JUMPI PUSH0 DUP1 REVERT JUMPDEST POP PUSH2 0x2E5 PUSH2 0x30D CALLDATASIZE PUSH1 0x4 PUSH2 0x4A55 JUMP JUMPDEST PUSH1 0x15 PUSH1 0x20 SWAP1 DUP2 MSTORE PUSH0 SWAP3 DUP4 MSTORE PUSH1 0x40 DUP1 DUP5 KECCAK256 SWAP1 SWAP2 MSTORE SWAP1 DUP3 MSTORE SWAP1 KECCAK256 SLOAD DUP2 JUMP JUMPDEST CALLVALUE DUP1 ISZERO PUSH2 0x334 JUMPI PUSH0 DUP1 REVERT JUMPDEST POP PUSH1 0x3 SLOAD PUSH2 0x348 SWAP1 PUSH1 0x1 PUSH1 0x1 PUSH1 0xA0 SHL SUB AND DUP2 JUMP JUMPDEST PUSH1 0x40 MLOAD PUSH1 0x1 PUSH1 0x1 PUSH1 0xA0 SHL SUB SWAP1 SWAP2 AND DUP2 MSTORE PUSH1 0x20 ADD PUSH2 0x2A6 JUMP JUMPDEST CALLVALUE DUP1 ISZERO PUSH2 0x36B JUMPI PUSH0 DUP1 REVERT JUMPDEST POP PUSH2 0x3A0 PUSH2 0x37A CALLDATASIZE PUSH1 0x4 PUSH2 0x4A7D JUMP JUMPDEST PUSH1 0x12 PUSH1 0x20 MSTORE PUSH0 SWAP1 DUP2 MSTORE PUSH1 0x40 SWAP1 KECCAK256 DUP1 SLOAD PUSH1 0x2 DUP3 ADD SLOAD PUSH1 0x3 DUP4 ADD SLOAD PUSH1 0x4 SWAP1 SWAP4 ADD SLOAD SWAP2 SWAP3 SWAP1 SWAP2 DUP5 JUMP JUMPDEST PUSH1 0x40 DUP1 MLOAD SWAP5 DUP6 MSTORE PUSH1 0x20 DUP6 ADD SWAP4 SWAP1 SWAP4 MSTORE SWAP2 DUP4 ADD MSTORE PUSH1 0x60 DUP3 ADD MSTORE PUSH1 0x80 ADD PUSH2 0x2A6 JUMP JUMPDEST CALLVALUE DUP1 ISZERO PUSH2 0x3CB JUMPI PUSH0 DUP1 REVERT JUMPDEST POP PUSH2 0x405 PUSH2 0x3DA CALLDATASIZE PUSH1 0x4 PUSH2 0x4A55 JUMP JUMPDEST PUSH1 0x16 PUSH1 0x20 SWAP1 DUP2 MSTORE PUSH0 SWAP3 DUP4 MSTORE PUSH1 0x40 DUP1 DUP5 KECCAK256 SWAP1 SWAP2 MSTORE SWAP1 DUP3 MSTORE SWAP1 KECCAK256 DUP1 SLOAD PUSH1 0x1 DUP3 ADD SLOAD PUSH1 0x2 SWAP1 SWAP3 ADD SLOAD SWAP1 SWAP2 SWAP1 DUP4 JUMP JUMPDEST PUSH1 0x40 DUP1 MLOAD SWAP4 DUP5 MSTORE PUSH1 0x20 DUP5 ADD SWAP3 SWAP1 SWAP3 MSTORE SWAP1 DUP3 ADD MSTORE PUSH1 0x60 ADD PUSH2 0x2A6 JUMP JUMPDEST CALLVALUE DUP1 ISZERO PUSH2 0x42B JUMPI PUSH0 DUP1 REVERT JUMPDEST POP PUSH2 0x43F PUSH2 0x43A CALLDATASIZE PUSH1 0x4 PUSH2 0x4A96 JUMP JUMPDEST PUSH2 0xB02 JUMP JUMPDEST PUSH1 0x40 MLOAD PUSH2 0x2A6 SWAP2 SWAP1 PUSH2 0x4AC6 JUMP JUMPDEST CALLVALUE DUP1 ISZERO PUSH2 0x457 JUMPI PUSH0 DUP1 REVERT JUMPDEST POP PUSH2 0x46B PUSH2 0x466 CALLDATASIZE PUSH1 0x4 PUSH2 0x4A96 JUMP JUMPDEST PUSH2 0xC6D JUMP JUMPDEST PUSH1 0x40 MLOAD PUSH2 0x2A6 SWAP2 SWAP1 PUSH2 0x4B27 JUMP JUMPDEST CALLVALUE DUP1 ISZERO PUSH2 0x483 JUMPI PUSH0 DUP1 REVERT JUMPDEST POP PUSH2 0x497 PUSH2 0x492 CALLDATASIZE PUSH1 0x4 PUSH2 0x4A96 JUMP JUMPDEST PUSH2 0xDCE JUMP JUMPDEST STOP JUMPDEST CALLVALUE DUP1 ISZERO PUSH2 0x4A4 JUMPI PUSH0 DUP1 REVERT JUMPDEST POP PUSH2 0x405 PUSH2 0x4B3 CALLDATASIZE PUSH1 0x4 PUSH2 0x4A55 JUMP JUMPDEST PUSH1 0x13 PUSH1 0x20 SWAP1 DUP2 MSTORE PUSH0 SWAP3 DUP4 MSTORE PUSH1 0x40 DUP1 DUP5 KECCAK256 SWAP1 SWAP2 MSTORE SWAP1 DUP3 MSTORE SWAP1 KECCAK256 DUP1 SLOAD PUSH1 0x1 DUP3 ADD SLOAD PUSH1 0x2 SWAP1 SWAP3 ADD SLOAD SWAP1 SWAP2 SWAP1 DUP4 JUMP JUMPDEST CALLVALUE DUP1 ISZERO PUSH2 0x4E9 JUMPI PUSH0 DUP1 REVERT JUMPDEST POP PUSH1 0x6 SLOAD PUSH2 0x348 SWAP1 PUSH1 0x1 PUSH1 0x1 PUSH1 0xA0 SHL SUB AND DUP2 JUMP JUMPDEST CALLVALUE DUP1 ISZERO PUSH2 0x508 JUMPI PUSH0 DUP1 REVERT JUMPDEST POP PUSH2 0x511 PUSH2 0xFF5 JUMP JUMPDEST PUSH1 0x40 MLOAD PUSH2 0x2A6 SWAP2 SWAP1 PUSH2 0x4BBF JUMP JUMPDEST CALLVALUE DUP1 ISZERO PUSH2 0x529 JUMPI PUSH0 DUP1 REVERT JUMPDEST POP PUSH2 0x2E5 PUSH1 0x2 SLOAD DUP2 JUMP JUMPDEST CALLVALUE DUP1 ISZERO PUSH2 0x53E JUMPI PUSH0 DUP1 REVERT JUMPDEST POP PUSH2 0x552 PUSH2 0x54D CALLDATASIZE PUSH1 0x4 PUSH2 0x4A7D JUMP JUMPDEST PUSH2 0x11EE JUMP JUMPDEST PUSH1 0x40 MLOAD PUSH2 0x2A6 SWAP2 SWAP1 PUSH2 0x4C89 JUMP JUMPDEST CALLVALUE DUP1 ISZERO PUSH2 0x56A JUMPI PUSH0 DUP1 REVERT JUMPDEST POP PUSH2 0x57E PUSH2 0x579 CALLDATASIZE PUSH1 0x4 PUSH2 0x4A7D JUMP JUMPDEST PUSH2 0x1364 JUMP JUMPDEST PUSH1 0x40 MLOAD PUSH2 0x2A6 SWAP2 SWAP1 PUSH2 0x4D0C JUMP JUMPDEST CALLVALUE DUP1 ISZERO PUSH2 0x596 JUMPI PUSH0 DUP1 REVERT JUMPDEST POP PUSH2 0x497 PUSH2 0x5A5 CALLDATASIZE PUSH1 0x4 PUSH2 0x4E03 JUMP JUMPDEST PUSH2 0x17DD JUMP JUMPDEST CALLVALUE DUP1 ISZERO PUSH2 0x5B5 JUMPI PUSH0 DUP1 REVERT JUMPDEST POP PUSH2 0x497 PUSH2 0x5C4 CALLDATASIZE PUSH1 0x4 PUSH2 0x4E3C JUMP JUMPDEST PUSH2 0x196D JUMP JUMPDEST CALLVALUE DUP1 ISZERO PUSH2 0x5D4 JUMPI PUSH0 DUP1 REVERT JUMPDEST POP PUSH2 0x5E8 PUSH2 0x5E3 CALLDATASIZE PUSH1 0x4 PUSH2 0x4A7D JUMP JUMPDEST PUSH2 0x1C8D JUMP JUMPDEST PUSH1 0x40 MLOAD PUSH2 0x2A6 SWAP2 SWAP1 PUSH2 0x4E53 JUMP JUMPDEST CALLVALUE DUP1 ISZERO PUSH2 0x600 JUMPI PUSH0 DUP1 REVERT JUMPDEST POP PUSH2 0x682 PUSH2 0x60F CALLDATASIZE PUSH1 0x4 PUSH2 0x4A7D JUMP JUMPDEST PUSH1 0x10 PUSH1 0x20 MSTORE PUSH0 SWAP1 DUP2 MSTORE PUSH1 0x40 SWAP1 KECCAK256 DUP1 SLOAD PUSH1 0x1 DUP3 ADD SLOAD PUSH1 0x2 DUP4 ADD SLOAD PUSH1 0x3 DUP5 ADD SLOAD PUSH1 0x4 DUP6 ADD SLOAD PUSH1 0x5 DUP7 ADD SLOAD PUSH1 0x6 DUP8 ADD SLOAD PUSH1 0x7 DUP9 ADD SLOAD PUSH1 0x8 DUP10 ADD SLOAD PUSH1 0x9 DUP11 ADD SLOAD PUSH1 0xA SWAP1 SWAP11 ADD SLOAD SWAP9 SWAP10 PUSH1 0x1 PUSH1 0x1 PUSH1 0xA0 SHL SUB SWAP9 DUP10 AND SWAP10 SWAP8 SWAP1 SWAP9 AND SWAP8 SWAP6 SWAP7 SWAP5 SWAP6 SWAP4 SWAP5 PUSH1 0xFF SWAP4 DUP5 AND SWAP5 SWAP3 SWAP4 SWAP2 SWAP3 SWAP2 DUP2 DUP2 AND SWAP2 PUSH2 0x100 SWAP1 DIV AND DUP13 JUMP JUMPDEST PUSH1 0x40 DUP1 MLOAD SWAP13 DUP14 MSTORE PUSH1 0x1 PUSH1 0x1 PUSH1 0xA0 SHL SUB SWAP12 DUP13 AND PUSH1 0x20 DUP15 ADD MSTORE SWAP10 SWAP1 SWAP11 AND SWAP9 DUP12 ADD SWAP9 SWAP1 SWAP9 MSTORE PUSH1 0x60 DUP11 ADD SWAP7 SWAP1 SWAP7 MSTORE PUSH1 0x80 DUP10 ADD SWAP5 SWAP1 SWAP5 MSTORE PUSH1 0xA0 DUP9 ADD SWAP3 SWAP1 SWAP3 MSTORE ISZERO ISZERO PUSH1 0xC0 DUP8 ADD MSTORE PUSH1 0xE0 DUP7 ADD MSTORE PUSH2 0x100 DUP6 ADD MSTORE PUSH2 0x120 DUP5 ADD MSTORE ISZERO ISZERO PUSH2 0x140 DUP4 ADD MSTORE ISZERO ISZERO PUSH2 0x160 DUP3 ADD MSTORE PUSH2 0x180 ADD PUSH2 0x2A6 JUMP JUMPDEST CALLVALUE DUP1 ISZERO PUSH2 0x6F8 JUMPI PUSH0 DUP1 REVERT JUMPDEST POP PUSH2 0x2E5 PUSH0 SLOAD DUP2 JUMP JUMPDEST CALLVALUE DUP1 ISZERO PUSH2 0x70C JUMPI PUSH0 DUP1 REVERT JUMPDEST POP PUSH2 0x497 PUSH2 0x71B CALLDATASIZE PUSH1 0x4 PUSH2 0x4A7D JUMP JUMPDEST PUSH2 0x1E97 JUMP JUMPDEST CALLVALUE DUP1 ISZERO PUSH2 0x72B JUMPI PUSH0 DUP1 REVERT JUMPDEST POP PUSH2 0x734 PUSH2 0x1EDD JUMP JUMPDEST PUSH1 0x40 MLOAD PUSH2 0x2A6 SWAP2 SWAP1 PUSH0 PUSH1 0xA0 DUP3 ADD SWAP1 POP DUP3 MLOAD DUP3 MSTORE PUSH1 0x20 DUP4 ADD MLOAD PUSH1 0x20 DUP4 ADD MSTORE PUSH1 0x40 DUP4 ADD MLOAD PUSH1 0x40 DUP4 ADD MSTORE PUSH1 0x60 DUP4 ADD MLOAD PUSH1 0x60 DUP4 ADD MSTORE PUSH1 0x80 DUP4 ADD MLOAD ISZERO ISZERO PUSH1 0x80 DUP4 ADD MSTORE SWAP3 SWAP2 POP POP JUMP JUMPDEST CALLVALUE DUP1 ISZERO PUSH2 0x782 JUMPI PUSH0 DUP1 REVERT JUMPDEST POP PUSH2 0x405 PUSH2 0x791 CALLDATASIZE PUSH1 0x4 PUSH2 0x4E3C JUMP JUMPDEST PUSH1 0xE PUSH1 0x20 MSTORE PUSH0 SWAP1 DUP2 MSTORE PUSH1 0x40 SWAP1 KECCAK256 DUP1 SLOAD PUSH1 0x1 DUP3 ADD SLOAD PUSH1 0x2 SWAP1 SWAP3 ADD SLOAD SWAP1 SWAP2 SWAP1 DUP4 JUMP JUMPDEST CALLVALUE DUP1 ISZERO PUSH2 0x7BC JUMPI PUSH0 DUP1 REVERT JUMPDEST POP PUSH2 0x7D0 PUSH2 0x7CB CALLDATASIZE PUSH1 0x4 PUSH2 0x4A96 JUMP JUMPDEST PUSH2 0x1F4B JUMP JUMPDEST PUSH1 0x40 MLOAD PUSH2 0x2A6 SWAP2 SWAP1 PUSH2 0x4EBB JUMP JUMPDEST CALLVALUE DUP1 ISZERO PUSH2 0x7E8 JUMPI PUSH0 DUP1 REVERT JUMPDEST POP PUSH1 0x7 SLOAD PUSH2 0x348 SWAP1 PUSH1 0x1 PUSH1 0x1 PUSH1 0xA0 SHL SUB AND DUP2 JUMP JUMPDEST CALLVALUE DUP1 ISZERO PUSH2 0x807 JUMPI PUSH0 DUP1 REVERT JUMPDEST POP PUSH2 0x81B PUSH2 0x816 CALLDATASIZE PUSH1 0x4 PUSH2 0x4A7D JUMP JUMPDEST PUSH2 0x2092 JUMP JUMPDEST PUSH1 0x40 MLOAD PUSH2 0x2A6 SWAP2 SWAP1 PUSH2 0x4EFC JUMP JUMPDEST CALLVALUE DUP1 ISZERO PUSH2 0x833 JUMPI PUSH0 DUP1 REVERT JUMPDEST POP PUSH2 0x847 PUSH2 0x842 CALLDATASIZE PUSH1 0x4 PUSH2 0x4E3C JUMP JUMPDEST PUSH2 0x249A JUMP JUMPDEST PUSH1 0x40 MLOAD PUSH2 0x2A6 SWAP10 SWAP9 SWAP8 SWAP7 SWAP6 SWAP5 SWAP4 SWAP3 SWAP2 SWAP1 PUSH2 0x4FAD JUMP JUMPDEST PUSH2 0x497 PUSH2 0x86A CALLDATASIZE PUSH1 0x4 PUSH2 0x5001 JUMP JUMPDEST PUSH2 0x2572 JUMP JUMPDEST CALLVALUE DUP1 ISZERO PUSH2 0x87A JUMPI PUSH0 DUP1 REVERT JUMPDEST POP PUSH2 0x2E5 PUSH1 0x1 SLOAD DUP2 JUMP JUMPDEST CALLVALUE DUP1 ISZERO PUSH2 0x88F JUMPI PUSH0 DUP1 REVERT JUMPDEST POP PUSH2 0x497 PUSH2 0x89E CALLDATASIZE PUSH1 0x4 PUSH2 0x4A7D JUMP JUMPDEST PUSH2 0x2580 JUMP JUMPDEST CALLVALUE DUP1 ISZERO PUSH2 0x8AE JUMPI PUSH0 DUP1 REVERT JUMPDEST POP PUSH2 0x348 PUSH2 0x8BD CALLDATASIZE PUSH1 0x4 PUSH2 0x4E3C JUMP JUMPDEST PUSH1 0x11 PUSH1 0x20 MSTORE PUSH0 SWAP1 DUP2 MSTORE PUSH1 0x40 SWAP1 KECCAK256 SLOAD PUSH1 0x1 PUSH1 0x1 PUSH1 0xA0 SHL SUB AND DUP2 JUMP JUMPDEST CALLVALUE DUP1 ISZERO PUSH2 0x8E2 JUMPI PUSH0 DUP1 REVERT JUMPDEST POP PUSH1 0x4 SLOAD PUSH2 0x348 SWAP1 PUSH1 0x1 PUSH1 0x1 PUSH1 0xA0 SHL SUB AND DUP2 JUMP JUMPDEST CALLVALUE DUP1 ISZERO PUSH2 0x901 JUMPI PUSH0 DUP1 REVERT JUMPDEST POP PUSH1 0x5 SLOAD PUSH2 0x348 SWAP1 PUSH1 0x1 PUSH1 0x1 PUSH1 0xA0 SHL SUB AND DUP2 JUMP JUMPDEST CALLVALUE DUP1 ISZERO PUSH2 0x920 JUMPI PUSH0 DUP1 REVERT JUMPDEST POP PUSH2 0x497 PUSH2 0x92F CALLDATASIZE PUSH1 0x4 PUSH2 0x4A7D JUMP JUMPDEST PUSH2 0x25C6 JUMP JUMPDEST CALLVALUE DUP1 ISZERO PUSH2 0x93F JUMPI PUSH0 DUP1 REVERT JUMPDEST POP PUSH2 0x3A0 PUSH2 0x94E CALLDATASIZE PUSH1 0x4 PUSH2 0x4A7D JUMP JUMPDEST PUSH1 0x19 PUSH1 0x20 MSTORE PUSH0 SWAP1 DUP2 MSTORE PUSH1 0x40 SWAP1 KECCAK256 DUP1 SLOAD PUSH1 0x1 DUP3 ADD SLOAD PUSH1 0x2 DUP4 ADD SLOAD PUSH1 0x3 SWAP1 SWAP4 ADD SLOAD SWAP2 SWAP3 SWAP1 SWAP2 DUP5 JUMP JUMPDEST CALLVALUE DUP1 ISZERO PUSH2 0x97F JUMPI PUSH0 DUP1 REVERT JUMPDEST POP PUSH2 0x993 PUSH2 0x98E CALLDATASIZE PUSH1 0x4 PUSH2 0x4A96 JUMP JUMPDEST PUSH2 0x260C JUMP JUMPDEST PUSH1 0x40 MLOAD PUSH2 0x2A6 SWAP2 SWAP1 PUSH2 0x5021 JUMP JUMPDEST CALLVALUE DUP1 ISZERO PUSH2 0x9AB JUMPI PUSH0 DUP1 REVERT JUMPDEST POP PUSH2 0x9EE PUSH2 0x9BA CALLDATASIZE PUSH1 0x4 PUSH2 0x4A7D JUMP JUMPDEST PUSH1 0x17 PUSH1 0x20 MSTORE PUSH0 SWAP1 DUP2 MSTORE PUSH1 0x40 SWAP1 KECCAK256 DUP1 SLOAD PUSH1 0x1 DUP3 ADD SLOAD PUSH1 0x2 DUP4 ADD SLOAD PUSH1 0x4 DUP5 ADD SLOAD PUSH1 0x5 DUP6 ADD SLOAD PUSH1 0x6 SWAP1 SWAP6 ADD SLOAD SWAP4 SWAP5 SWAP3 SWAP4 SWAP2 SWAP3 SWAP1 SWAP2 DUP7 JUMP JUMPDEST PUSH1 0x40 DUP1 MLOAD SWAP7 DUP8 MSTORE PUSH1 0x20 DUP8 ADD SWAP6 SWAP1 SWAP6 MSTORE SWAP4 DUP6 ADD SWAP3 SWAP1 SWAP3 MSTORE PUSH1 0x60 DUP5 ADD MSTORE PUSH1 0x80 DUP4 ADD MSTORE PUSH1 0xA0 DUP3 ADD MSTORE PUSH1 0xC0 ADD PUSH2 0x2A6 JUMP JUMPDEST CALLVALUE DUP1 ISZERO PUSH2 0xA26 JUMPI PUSH0 DUP1 REVERT JUMPDEST POP PUSH2 0xA3A PUSH2 0xA35 CALLDATASIZE PUSH1 0x4 PUSH2 0x4E3C JUMP JUMPDEST PUSH2 0x2809 JUMP JUMPDEST PUSH1 0x40 MLOAD PUSH2 0x2A6 SWAP7 SWAP6 SWAP5 SWAP4 SWAP3 SWAP2 SWAP1 PUSH2 0x5089 JUMP JUMPDEST CALLVALUE DUP1 ISZERO PUSH2 0xA57 JUMPI PUSH0 DUP1 REVERT JUMPDEST POP PUSH2 0xA6B PUSH2 0xA66 CALLDATASIZE PUSH1 0x4 PUSH2 0x4A7D JUMP JUMPDEST PUSH2 0x28C3 JUMP JUMPDEST PUSH1 0x40 MLOAD SWAP1 ISZERO ISZERO DUP2 MSTORE PUSH1 0x20 ADD PUSH2 0x2A6 JUMP JUMPDEST PUSH2 0x497 PUSH2 0xA89 CALLDATASIZE PUSH1 0x4 PUSH2 0x4A7D JUMP JUMPDEST PUSH2 0x28FA JUMP JUMPDEST CALLVALUE DUP1 ISZERO PUSH2 0xA99 JUMPI PUSH0 DUP1 REVERT JUMPDEST POP PUSH2 0x497 PUSH2 0xAA8 CALLDATASIZE PUSH1 0x4 PUSH2 0x4A96 JUMP JUMPDEST PUSH2 0x2906 JUMP JUMPDEST CALLVALUE DUP1 ISZERO PUSH2 0xAB8 JUMPI PUSH0 DUP1 REVERT JUMPDEST POP PUSH2 0x2E5 PUSH2 0xAC7 CALLDATASIZE PUSH1 0x4 PUSH2 0x4A55 JUMP JUMPDEST PUSH1 0x1 PUSH1 0x1 PUSH1 0xA0 SHL SUB SWAP2 SWAP1 SWAP2 AND PUSH0 SWAP1 DUP2 MSTORE PUSH1 0x18 PUSH1 0x20 SWAP1 DUP2 MSTORE PUSH1 0x40 DUP1 DUP4 KECCAK256 SWAP4 DUP4 MSTORE SWAP3 SWAP1 MSTORE KECCAK256 SLOAD SWAP1 JUMP JUMPDEST CALLVALUE DUP1 ISZERO PUSH2 0xAF9 JUMPI PUSH0 DUP1 REVERT JUMPDEST POP PUSH2 0xA6B PUSH2 0x2B5E JUMP JUMPDEST PUSH1 0x1 PUSH1 0x1 PUSH1 0xA0 SHL SUB DUP4 AND PUSH0 SWAP1 DUP2 MSTORE PUSH1 0x19 PUSH1 0x20 MSTORE PUSH1 0x40 DUP2 KECCAK256 PUSH1 0x1 ADD SLOAD PUSH1 0x60 SWAP2 DUP2 PUSH2 0xB2B DUP6 DUP8 PUSH2 0x50DA JUMP JUMPDEST GT PUSH2 0xB3F JUMPI PUSH2 0xB3A DUP5 DUP7 PUSH2 0x50DA JUMP JUMPDEST PUSH2 0xB41 JUMP JUMPDEST DUP2 JUMPDEST SWAP1 POP PUSH0 DUP5 DUP3 LT ISZERO PUSH2 0xB52 JUMPI PUSH0 PUSH2 0xB5C JUMP JUMPDEST PUSH2 0xB5C DUP6 DUP4 PUSH2 0x50F1 JUMP JUMPDEST SWAP1 POP PUSH0 PUSH2 0xB69 DUP3 DUP5 PUSH2 0x50F1 JUMP JUMPDEST PUSH8 0xFFFFFFFFFFFFFFFF DUP2 GT ISZERO PUSH2 0xB81 JUMPI PUSH2 0xB81 PUSH2 0x5104 JUMP JUMPDEST PUSH1 0x40 MLOAD SWAP1 DUP1 DUP3 MSTORE DUP1 PUSH1 0x20 MUL PUSH1 0x20 ADD DUP3 ADD PUSH1 0x40 MSTORE DUP1 ISZERO PUSH2 0xBD3 JUMPI DUP2 PUSH1 0x20 ADD JUMPDEST PUSH2 0xBC0 PUSH1 0x40 MLOAD DUP1 PUSH1 0x60 ADD PUSH1 0x40 MSTORE DUP1 PUSH0 DUP2 MSTORE PUSH1 0x20 ADD PUSH0 DUP2 MSTORE PUSH1 0x20 ADD PUSH0 DUP2 MSTORE POP SWAP1 JUMP JUMPDEST DUP2 MSTORE PUSH1 0x20 ADD SWAP1 PUSH1 0x1 SWAP1 SUB SWAP1 DUP2 PUSH2 0xB9F JUMPI SWAP1 POP JUMPDEST POP SWAP5 POP DUP3 JUMPDEST DUP3 DUP2 GT ISZERO PUSH2 0xC61 JUMPI PUSH1 0x1 PUSH1 0x1 PUSH1 0xA0 SHL SUB DUP10 AND PUSH0 SWAP1 DUP2 MSTORE PUSH1 0x16 PUSH1 0x20 SWAP1 DUP2 MSTORE PUSH1 0x40 DUP1 DUP4 KECCAK256 DUP5 DUP5 MSTORE DUP3 MSTORE SWAP2 DUP3 SWAP1 KECCAK256 DUP3 MLOAD PUSH1 0x60 DUP2 ADD DUP5 MSTORE DUP2 SLOAD DUP2 MSTORE PUSH1 0x1 DUP3 ADD SLOAD SWAP3 DUP2 ADD SWAP3 SWAP1 SWAP3 MSTORE PUSH1 0x2 ADD SLOAD SWAP2 DUP2 ADD SWAP2 SWAP1 SWAP2 MSTORE DUP7 DUP4 PUSH2 0xC31 DUP2 PUSH2 0x5118 JUMP JUMPDEST SWAP5 POP DUP2 MLOAD DUP2 LT PUSH2 0xC43 JUMPI PUSH2 0xC43 PUSH2 0x5130 JUMP JUMPDEST PUSH1 0x20 MUL PUSH1 0x20 ADD ADD DUP2 SWAP1 MSTORE POP DUP1 DUP1 PUSH2 0xC59 SWAP1 PUSH2 0x5144 JUMP JUMPDEST SWAP2 POP POP PUSH2 0xBD8 JUMP JUMPDEST POP POP POP POP POP SWAP4 SWAP3 POP POP POP JUMP JUMPDEST PUSH1 0x1 PUSH1 0x1 PUSH1 0xA0 SHL SUB DUP4 AND PUSH0 SWAP1 DUP2 MSTORE PUSH1 0x19 PUSH1 0x20 MSTORE PUSH1 0x40 DUP2 KECCAK256 SLOAD PUSH1 0x60 SWAP2 DUP2 PUSH2 0xC93 DUP6 DUP8 PUSH2 0x50DA JUMP JUMPDEST GT PUSH2 0xCA7 JUMPI PUSH2 0xCA2 DUP5 DUP7 PUSH2 0x50DA JUMP JUMPDEST PUSH2 0xCA9 JUMP JUMPDEST DUP2 JUMPDEST SWAP1 POP PUSH0 DUP5 DUP3 LT ISZERO PUSH2 0xCBA JUMPI PUSH0 PUSH2 0xCC4 JUMP JUMPDEST PUSH2 0xCC4 DUP6 DUP4 PUSH2 0x50F1 JUMP JUMPDEST SWAP1 POP PUSH0 PUSH2 0xCD1 DUP3 DUP5 PUSH2 0x50F1 JUMP JUMPDEST PUSH8 0xFFFFFFFFFFFFFFFF DUP2 GT ISZERO PUSH2 0xCE9 JUMPI PUSH2 0xCE9 PUSH2 0x5104 JUMP JUMPDEST PUSH1 0x40 MLOAD SWAP1 DUP1 DUP3 MSTORE DUP1 PUSH1 0x20 MUL PUSH1 0x20 ADD DUP3 ADD PUSH1 0x40 MSTORE DUP1 ISZERO PUSH2 0xD3B JUMPI DUP2 PUSH1 0x20 ADD JUMPDEST PUSH2 0xD28 PUSH1 0x40 MLOAD DUP1 PUSH1 0x60 ADD PUSH1 0x40 MSTORE DUP1 PUSH0 DUP2 MSTORE PUSH1 0x20 ADD PUSH0 DUP2 MSTORE PUSH1 0x20 ADD PUSH0 DUP2 MSTORE POP SWAP1 JUMP JUMPDEST DUP2 MSTORE PUSH1 0x20 ADD SWAP1 PUSH1 0x1 SWAP1 SUB SWAP1 DUP2 PUSH2 0xD07 JUMPI SWAP1 POP JUMPDEST POP SWAP5 POP DUP3 JUMPDEST DUP3 DUP2 GT ISZERO PUSH2 0xC61 JUMPI PUSH1 0x1 PUSH1 0x1 PUSH1 0xA0 SHL SUB DUP10 AND PUSH0 SWAP1 DUP2 MSTORE PUSH1 0x13 PUSH1 0x20 SWAP1 DUP2 MSTORE PUSH1 0x40 DUP1 DUP4 KECCAK256 DUP5 DUP5 MSTORE DUP3 MSTORE SWAP2 DUP3 SWAP1 KECCAK256 DUP3 MLOAD PUSH1 0x60 DUP2 ADD DUP5 MSTORE DUP2 SLOAD DUP2 MSTORE PUSH1 0x1 DUP3 ADD SLOAD SWAP3 DUP2 ADD SWAP3 SWAP1 SWAP3 MSTORE PUSH1 0x2 ADD SLOAD SWAP2 DUP2 ADD SWAP2 SWAP1 SWAP2 MSTORE DUP7 MLOAD DUP8 SWAP1 DUP5 SWAP1 DUP2 LT PUSH2 0xDA2 JUMPI PUSH2 0xDA2 PUSH2 0x5130 JUMP JUMPDEST PUSH1 0x20 MUL PUSH1 0x20 ADD ADD DUP2 SWAP1 MSTORE POP DUP2 DUP1 PUSH2 0xDB8 SWAP1 PUSH2 0x5118 JUMP JUMPDEST SWAP3 POP POP DUP1 DUP1 PUSH2 0xDC6 SWAP1 PUSH2 0x5144 JUMP JUMPDEST SWAP2 POP POP PUSH2 0xD40 JUMP JUMPDEST CALLER PUSH2 0xDD8 DUP2 PUSH2 0x2BB9 JUMP JUMPDEST PUSH2 0xE23 JUMPI PUSH1 0x40 MLOAD PUSH3 0x461BCD PUSH1 0xE5 SHL DUP2 MSTORE PUSH1 0x20 PUSH1 0x4 DUP3 ADD MSTORE PUSH1 0x17 PUSH1 0x24 DUP3 ADD MSTORE PUSH23 0x596F7520617265206E6F74207265676973746572656421 PUSH1 0x48 SHL PUSH1 0x44 DUP3 ADD MSTORE PUSH1 0x64 ADD JUMPDEST PUSH1 0x40 MLOAD DUP1 SWAP2 SUB SWAP1 REVERT JUMPDEST PUSH2 0xE2C DUP5 PUSH2 0x2BB9 JUMP JUMPDEST PUSH2 0xE78 JUMPI PUSH1 0x40 MLOAD PUSH3 0x461BCD PUSH1 0xE5 SHL DUP2 MSTORE PUSH1 0x20 PUSH1 0x4 DUP3 ADD MSTORE PUSH1 0x17 PUSH1 0x24 DUP3 ADD MSTORE PUSH32 0x496E76616C6964207573657220666F7220746F70757021000000000000000000 PUSH1 0x44 DUP3 ADD MSTORE PUSH1 0x64 ADD PUSH2 0xE1A JUMP JUMPDEST PUSH1 0x1 PUSH1 0x1 PUSH1 0xA0 SHL SUB DUP5 AND PUSH0 SWAP1 DUP2 MSTORE PUSH1 0x10 PUSH1 0x20 MSTORE PUSH1 0x40 SWAP1 KECCAK256 PUSH1 0x8 ADD SLOAD TIMESTAMP LT ISZERO PUSH2 0xEB2 JUMPI PUSH1 0x40 MLOAD PUSH3 0x461BCD PUSH1 0xE5 SHL DUP2 MSTORE PUSH1 0x4 ADD PUSH2 0xE1A SWAP1 PUSH2 0x5159 JUMP JUMPDEST PUSH1 0x1 PUSH1 0x1 PUSH1 0xA0 SHL SUB DUP5 AND PUSH0 SWAP1 DUP2 MSTORE PUSH1 0x10 PUSH1 0x20 MSTORE PUSH1 0x40 SWAP1 KECCAK256 PUSH1 0xA ADD SLOAD PUSH2 0x100 SWAP1 DIV PUSH1 0xFF AND ISZERO PUSH2 0xF38 JUMPI PUSH1 0x40 MLOAD PUSH3 0x461BCD PUSH1 0xE5 SHL DUP2 MSTORE PUSH1 0x20 PUSH1 0x4 DUP3 ADD MSTORE PUSH1 0x2D PUSH1 0x24 DUP3 ADD MSTORE PUSH32 0x4F6E6C792066697273742074696D6520746F70757020697320616C6C6F776564 PUSH1 0x44 DUP3 ADD MSTORE PUSH13 0x10333937B6903BB0B63632BA17 PUSH1 0x99 SHL PUSH1 0x64 DUP3 ADD MSTORE PUSH1 0x84 ADD PUSH2 0xE1A JUMP JUMPDEST PUSH1 0x1 PUSH1 0x1 PUSH1 0xA0 SHL SUB DUP2 AND PUSH0 SWAP1 DUP2 MSTORE PUSH1 0x18 PUSH1 0x20 SWAP1 DUP2 MSTORE PUSH1 0x40 DUP1 DUP4 KECCAK256 PUSH1 0x2 DUP5 MSTORE SWAP1 SWAP2 MSTORE SWAP1 KECCAK256 SLOAD DUP3 GT ISZERO PUSH2 0xFAB JUMPI PUSH1 0x40 MLOAD PUSH3 0x461BCD PUSH1 0xE5 SHL DUP2 MSTORE PUSH1 0x20 PUSH1 0x4 DUP3 ADD MSTORE PUSH1 0x1D PUSH1 0x24 DUP3 ADD MSTORE PUSH32 0x496E73756666696369656E742066756E647320696E2077616C6C657421000000 PUSH1 0x44 DUP3 ADD MSTORE PUSH1 0x64 ADD PUSH2 0xE1A JUMP JUMPDEST PUSH2 0xFB6 DUP5 DUP5 DUP5 PUSH2 0x2BD5 JUMP JUMPDEST POP PUSH1 0x1 PUSH1 0x1 PUSH1 0xA0 SHL SUB DUP2 AND PUSH0 SWAP1 DUP2 MSTORE PUSH1 0x18 PUSH1 0x20 SWAP1 DUP2 MSTORE PUSH1 0x40 DUP1 DUP4 KECCAK256 PUSH1 0x2 DUP5 MSTORE SWAP1 SWAP2 MSTORE DUP2 KECCAK256 DUP1 SLOAD DUP5 SWAP3 SWAP1 PUSH2 0xFEA SWAP1 DUP5 SWAP1 PUSH2 0x50F1 JUMP JUMPDEST SWAP1 SWAP2 SSTORE POP POP POP POP POP POP JUMP JUMPDEST PUSH1 0x60 PUSH0 PUSH1 0xB SLOAD PUSH8 0xFFFFFFFFFFFFFFFF DUP2 GT ISZERO PUSH2 0x1013 JUMPI PUSH2 0x1013 PUSH2 0x5104 JUMP JUMPDEST PUSH1 0x40 MLOAD SWAP1 DUP1 DUP3 MSTORE DUP1 PUSH1 0x20 MUL PUSH1 0x20 ADD DUP3 ADD PUSH1 0x40 MSTORE DUP1 ISZERO PUSH2 0x1091 JUMPI DUP2 PUSH1 0x20 ADD JUMPDEST PUSH2 0x107E PUSH1 0x40 MLOAD DUP1 PUSH2 0x120 ADD PUSH1 0x40 MSTORE DUP1 PUSH0 DUP2 MSTORE PUSH1 0x20 ADD PUSH1 0x60 DUP2 MSTORE PUSH1 0x20 ADD PUSH0 DUP2 MSTORE PUSH1 0x20 ADD PUSH0 ISZERO ISZERO DUP2 MSTORE PUSH1 0x20 ADD PUSH0 ISZERO ISZERO DUP2 MSTORE PUSH1 0x20 ADD PUSH0 DUP2 MSTORE PUSH1 0x20 ADD PUSH0 DUP2 MSTORE PUSH1 0x20 ADD PUSH0 DUP2 MSTORE PUSH1 0x20 ADD PUSH0 ISZERO ISZERO DUP2 MSTORE POP SWAP1 JUMP JUMPDEST DUP2 MSTORE PUSH1 0x20 ADD SWAP1 PUSH1 0x1 SWAP1 SUB SWAP1 DUP2 PUSH2 0x1031 JUMPI SWAP1 POP JUMPDEST POP SWAP1 POP PUSH1 0x1 JUMPDEST PUSH1 0xB SLOAD DUP2 GT PUSH2 0x11E8 JUMPI PUSH1 0xD PUSH0 DUP3 DUP2 MSTORE PUSH1 0x20 ADD SWAP1 DUP2 MSTORE PUSH1 0x20 ADD PUSH0 KECCAK256 PUSH1 0x40 MLOAD DUP1 PUSH2 0x120 ADD PUSH1 0x40 MSTORE SWAP1 DUP2 PUSH0 DUP3 ADD SLOAD DUP2 MSTORE PUSH1 0x20 ADD PUSH1 0x1 DUP3 ADD DUP1 SLOAD PUSH2 0x10D6 SWAP1 PUSH2 0x51A2 JUMP JUMPDEST DUP1 PUSH1 0x1F ADD PUSH1 0x20 DUP1 SWAP2 DIV MUL PUSH1 0x20 ADD PUSH1 0x40 MLOAD SWAP1 DUP2 ADD PUSH1 0x40 MSTORE DUP1 SWAP3 SWAP2 SWAP1 DUP2 DUP2 MSTORE PUSH1 0x20 ADD DUP3 DUP1 SLOAD PUSH2 0x1102 SWAP1 PUSH2 0x51A2 JUMP JUMPDEST DUP1 ISZERO PUSH2 0x114D JUMPI DUP1 PUSH1 0x1F LT PUSH2 0x1124 JUMPI PUSH2 0x100 DUP1 DUP4 SLOAD DIV MUL DUP4 MSTORE SWAP2 PUSH1 0x20 ADD SWAP2 PUSH2 0x114D JUMP JUMPDEST DUP3 ADD SWAP2 SWAP1 PUSH0 MSTORE PUSH1 0x20 PUSH0 KECCAK256 SWAP1 JUMPDEST DUP2 SLOAD DUP2 MSTORE SWAP1 PUSH1 0x1 ADD SWAP1 PUSH1 0x20 ADD DUP1 DUP4 GT PUSH2 0x1130 JUMPI DUP3 SWAP1 SUB PUSH1 0x1F AND DUP3 ADD SWAP2 JUMPDEST POP POP POP SWAP2 DUP4 MSTORE POP POP PUSH1 0x2 DUP3 ADD SLOAD PUSH1 0x20 DUP3 ADD MSTORE PUSH1 0x3 DUP3 ADD SLOAD PUSH1 0xFF DUP1 DUP3 AND ISZERO ISZERO PUSH1 0x40 DUP5 ADD MSTORE PUSH2 0x100 SWAP1 SWAP2 DIV DUP2 AND ISZERO ISZERO PUSH1 0x60 DUP4 ADD MSTORE PUSH1 0x4 DUP4 ADD SLOAD PUSH1 0x80 DUP4 ADD MSTORE PUSH1 0x5 DUP4 ADD SLOAD PUSH1 0xA0 DUP4 ADD MSTORE PUSH1 0x6 DUP4 ADD SLOAD PUSH1 0xC0 DUP4 ADD MSTORE PUSH1 0x7 SWAP1 SWAP3 ADD SLOAD SWAP1 SWAP2 AND ISZERO ISZERO PUSH1 0xE0 SWAP1 SWAP2 ADD MSTORE DUP3 PUSH2 0x11BA PUSH1 0x1 DUP5 PUSH2 0x50F1 JUMP JUMPDEST DUP2 MLOAD DUP2 LT PUSH2 0x11CA JUMPI PUSH2 0x11CA PUSH2 0x5130 JUMP JUMPDEST PUSH1 0x20 MUL PUSH1 0x20 ADD ADD DUP2 SWAP1 MSTORE POP DUP1 DUP1 PUSH2 0x11E0 SWAP1 PUSH2 0x5118 JUMP JUMPDEST SWAP2 POP POP PUSH2 0x1097 JUMP JUMPDEST POP SWAP2 SWAP1 POP JUMP JUMPDEST PUSH1 0x60 PUSH1 0x8 SLOAD PUSH8 0xFFFFFFFFFFFFFFFF DUP2 GT ISZERO PUSH2 0x120B JUMPI PUSH2 0x120B PUSH2 0x5104 JUMP JUMPDEST PUSH1 0x40 MLOAD SWAP1 DUP1 DUP3 MSTORE DUP1 PUSH1 0x20 MUL PUSH1 0x20 ADD DUP3 ADD PUSH1 0x40 MSTORE DUP1 ISZERO PUSH2 0x1277 JUMPI DUP2 PUSH1 0x20 ADD JUMPDEST PUSH2 0x1264 PUSH1 0x40 MLOAD DUP1 PUSH1 0xE0 ADD PUSH1 0x40 MSTORE DUP1 PUSH0 DUP2 MSTORE PUSH1 0x20 ADD PUSH0 DUP2 MSTORE PUSH1 0x20 ADD PUSH0 DUP2 MSTORE PUSH1 0x20 ADD PUSH0 DUP2 MSTORE PUSH1 0x20 ADD PUSH0 DUP2 MSTORE PUSH1 0x20 ADD PUSH0 DUP2 MSTORE PUSH1 0x20 ADD PUSH0 ISZERO ISZERO DUP2 MSTORE POP SWAP1 JUMP JUMPDEST DUP2 MSTORE PUSH1 0x20 ADD SWAP1 PUSH1 0x1 SWAP1 SUB SWAP1 DUP2 PUSH2 0x1229 JUMPI SWAP1 POP JUMPDEST POP SWAP1 POP PUSH1 0x1 JUMPDEST PUSH1 0x8 SLOAD DUP2 GT PUSH2 0x11E8 JUMPI PUSH1 0x40 DUP1 MLOAD PUSH1 0xE0 DUP2 ADD DUP3 MSTORE DUP3 DUP2 MSTORE PUSH0 DUP4 DUP2 MSTORE PUSH1 0xE PUSH1 0x20 SWAP1 DUP2 MSTORE DUP4 DUP3 KECCAK256 PUSH1 0x2 DUP2 ADD SLOAD DUP3 DUP6 ADD MSTORE PUSH1 0x1 PUSH1 0x1 PUSH1 0xA0 SHL SUB DUP9 AND DUP1 DUP5 MSTORE PUSH1 0x10 DUP4 MSTORE DUP6 DUP5 KECCAK256 PUSH1 0x9 ADD SLOAD DUP6 DUP8 ADD MSTORE DUP1 DUP5 MSTORE PUSH1 0x15 DUP4 MSTORE DUP6 DUP5 KECCAK256 DUP8 DUP6 MSTORE DUP4 MSTORE DUP6 DUP5 KECCAK256 SLOAD PUSH1 0x60 DUP7 ADD MSTORE PUSH1 0x1 SWAP1 SWAP2 ADD SLOAD PUSH1 0x80 DUP6 ADD MSTORE DUP3 MSTORE PUSH1 0x17 SWAP1 MSTORE SWAP2 SWAP1 SWAP2 KECCAK256 PUSH1 0x3 ADD DUP1 SLOAD PUSH1 0xA0 DUP4 ADD SWAP2 SWAP1 DUP5 SWAP1 DUP2 LT PUSH2 0x130E JUMPI PUSH2 0x130E PUSH2 0x5130 JUMP JUMPDEST SWAP1 PUSH0 MSTORE PUSH1 0x20 PUSH0 KECCAK256 ADD SLOAD DUP2 MSTORE PUSH1 0x20 ADD PUSH2 0x1326 DUP6 DUP5 PUSH2 0x2FE8 JUMP JUMPDEST ISZERO ISZERO SWAP1 MSTORE DUP3 PUSH2 0x1336 PUSH1 0x1 DUP5 PUSH2 0x50F1 JUMP JUMPDEST DUP2 MLOAD DUP2 LT PUSH2 0x1346 JUMPI PUSH2 0x1346 PUSH2 0x5130 JUMP JUMPDEST PUSH1 0x20 MUL PUSH1 0x20 ADD ADD DUP2 SWAP1 MSTORE POP DUP1 DUP1 PUSH2 0x135C SWAP1 PUSH2 0x5118 JUMP JUMPDEST SWAP2 POP POP PUSH2 0x127D JUMP JUMPDEST PUSH2 0x13E1 PUSH1 0x40 MLOAD DUP1 PUSH2 0x240 ADD PUSH1 0x40 MSTORE DUP1 PUSH0 DUP2 MSTORE PUSH1 0x20 ADD PUSH0 DUP2 MSTORE PUSH1 0x20 ADD PUSH0 DUP2 MSTORE PUSH1 0x20 ADD PUSH0 DUP2 MSTORE PUSH1 0x20 ADD PUSH0 DUP2 MSTORE PUSH1 0x20 ADD PUSH0 DUP2 MSTORE PUSH1 0x20 ADD PUSH0 DUP2 MSTORE PUSH1 0x20 ADD PUSH0 DUP2 MSTORE PUSH1 0x20 ADD PUSH0 DUP2 MSTORE PUSH1 0x20 ADD PUSH0 DUP2 MSTORE PUSH1 0x20 ADD PUSH0 DUP2 MSTORE PUSH1 0x20 ADD PUSH0 DUP2 MSTORE PUSH1 0x20 ADD PUSH0 DUP2 MSTORE PUSH1 0x20 ADD PUSH0 DUP2 MSTORE PUSH1 0x20 ADD PUSH0 DUP2 MSTORE PUSH1 0x20 ADD PUSH0 DUP2 MSTORE PUSH1 0x20 ADD PUSH0 DUP2 MSTORE PUSH1 0x20 ADD PUSH1 0x60 DUP2 MSTORE POP SWAP1 JUMP JUMPDEST PUSH1 0x1 PUSH1 0x1 PUSH1 0xA0 SHL SUB DUP1 DUP4 AND PUSH0 DUP2 DUP2 MSTORE PUSH1 0x10 PUSH1 0x20 SWAP1 DUP2 MSTORE PUSH1 0x40 DUP1 DUP4 KECCAK256 DUP2 MLOAD PUSH2 0x180 DUP2 ADD DUP4 MSTORE DUP2 SLOAD DUP2 MSTORE PUSH1 0x1 DUP1 DUP4 ADD SLOAD DUP9 AND DUP3 DUP7 ADD MSTORE PUSH1 0x2 DUP4 ADD SLOAD SWAP1 SWAP8 AND DUP2 DUP5 ADD MSTORE PUSH1 0x3 DUP3 ADD SLOAD PUSH1 0x60 DUP3 ADD MSTORE PUSH1 0x4 DUP3 ADD SLOAD PUSH1 0x80 DUP3 ADD MSTORE PUSH1 0x5 DUP3 ADD SLOAD PUSH1 0xA0 DUP3 ADD MSTORE PUSH1 0x6 DUP3 ADD SLOAD PUSH1 0xFF SWAP1 DUP2 AND ISZERO ISZERO PUSH1 0xC0 DUP1 DUP5 ADD SWAP2 SWAP1 SWAP2 MSTORE PUSH1 0x7 DUP5 ADD SLOAD PUSH1 0xE0 DUP5 ADD MSTORE PUSH1 0x8 DUP5 ADD SLOAD PUSH2 0x100 DUP1 DUP6 ADD SWAP2 SWAP1 SWAP2 MSTORE PUSH1 0x9 DUP6 ADD SLOAD PUSH2 0x120 DUP6 ADD MSTORE PUSH1 0xA SWAP1 SWAP5 ADD SLOAD DUP1 DUP4 AND ISZERO ISZERO PUSH2 0x140 DUP6 ADD MSTORE SWAP4 SWAP1 SWAP4 DIV AND ISZERO ISZERO PUSH2 0x160 DUP3 ADD MSTORE SWAP5 DUP5 MSTORE PUSH1 0x12 DUP4 MSTORE DUP2 DUP5 KECCAK256 DUP3 MLOAD SWAP2 DUP3 ADD DUP4 MSTORE DUP1 SLOAD DUP3 MSTORE SWAP6 DUP7 ADD DUP1 SLOAD DUP4 MLOAD DUP2 DUP7 MUL DUP2 ADD DUP7 ADD SWAP1 SWAP5 MSTORE DUP1 DUP5 MSTORE SWAP6 SWAP7 SWAP5 SWAP6 SWAP2 SWAP5 SWAP4 DUP6 DUP2 ADD SWAP4 SWAP3 SWAP1 DUP4 ADD DUP3 DUP3 DUP1 ISZERO PUSH2 0x1503 JUMPI PUSH1 0x20 MUL DUP3 ADD SWAP2 SWAP1 PUSH0 MSTORE PUSH1 0x20 PUSH0 KECCAK256 SWAP1 JUMPDEST DUP2 SLOAD PUSH1 0x1 PUSH1 0x1 PUSH1 0xA0 SHL SUB AND DUP2 MSTORE PUSH1 0x1 SWAP1 SWAP2 ADD SWAP1 PUSH1 0x20 ADD DUP1 DUP4 GT PUSH2 0x14E5 JUMPI JUMPDEST POP POP POP POP POP DUP2 MSTORE PUSH1 0x20 ADD PUSH1 0x2 DUP3 ADD SLOAD DUP2 MSTORE PUSH1 0x20 ADD PUSH1 0x3 DUP3 ADD SLOAD DUP2 MSTORE PUSH1 0x20 ADD PUSH1 0x4 DUP3 ADD SLOAD DUP2 MSTORE PUSH1 0x20 ADD PUSH1 0x5 DUP3 ADD DUP1 SLOAD DUP1 PUSH1 0x20 MUL PUSH1 0x20 ADD PUSH1 0x40 MLOAD SWAP1 DUP2 ADD PUSH1 0x40 MSTORE DUP1 SWAP3 SWAP2 SWAP1 DUP2 DUP2 MSTORE PUSH1 0x20 ADD DUP3 DUP1 SLOAD DUP1 ISZERO PUSH2 0x1581 JUMPI PUSH1 0x20 MUL DUP3 ADD SWAP2 SWAP1 PUSH0 MSTORE PUSH1 0x20 PUSH0 KECCAK256 SWAP1 JUMPDEST DUP2 SLOAD PUSH1 0x1 PUSH1 0x1 PUSH1 0xA0 SHL SUB AND DUP2 MSTORE PUSH1 0x1 SWAP1 SWAP2 ADD SWAP1 PUSH1 0x20 ADD DUP1 DUP4 GT PUSH2 0x1563 JUMPI JUMPDEST POP POP POP POP POP DUP2 MSTORE POP POP SWAP1 POP PUSH0 PUSH1 0x17 PUSH0 DUP7 PUSH1 0x1 PUSH1 0x1 PUSH1 0xA0 SHL SUB AND PUSH1 0x1 PUSH1 0x1 PUSH1 0xA0 SHL SUB AND DUP2 MSTORE PUSH1 0x20 ADD SWAP1 DUP2 MSTORE PUSH1 0x20 ADD PUSH0 KECCAK256 PUSH1 0x40 MLOAD DUP1 PUSH1 0xE0 ADD PUSH1 0x40 MSTORE SWAP1 DUP2 PUSH0 DUP3 ADD SLOAD DUP2 MSTORE PUSH1 0x20 ADD PUSH1 0x1 DUP3 ADD SLOAD DUP2 MSTORE PUSH1 0x20 ADD PUSH1 0x2 DUP3 ADD SLOAD DUP2 MSTORE PUSH1 0x20 ADD PUSH1 0x3 DUP3 ADD DUP1 SLOAD DUP1 PUSH1 0x20 MUL PUSH1 0x20 ADD PUSH1 0x40 MLOAD SWAP1 DUP2 ADD PUSH1 0x40 MSTORE DUP1 SWAP3 SWAP2 SWAP1 DUP2 DUP2 MSTORE PUSH1 0x20 ADD DUP3 DUP1 SLOAD DUP1 ISZERO PUSH2 0x1625 JUMPI PUSH1 0x20 MUL DUP3 ADD SWAP2 SWAP1 PUSH0 MSTORE PUSH1 0x20 PUSH0 KECCAK256 SWAP1 JUMPDEST DUP2 SLOAD DUP2 MSTORE PUSH1 0x20 ADD SWAP1 PUSH1 0x1 ADD SWAP1 DUP1 DUP4 GT PUSH2 0x1611 JUMPI JUMPDEST POP POP POP POP POP DUP2 MSTORE PUSH1 0x20 ADD PUSH1 0x4 DUP3 ADD SLOAD DUP2 MSTORE PUSH1 0x20 ADD PUSH1 0x5 DUP3 ADD SLOAD DUP2 MSTORE PUSH1 0x20 ADD PUSH1 0x6 DUP3 ADD SLOAD DUP2 MSTORE POP POP SWAP1 POP PUSH1 0x40 MLOAD DUP1 PUSH2 0x240 ADD PUSH1 0x40 MSTORE DUP1 DUP5 PUSH1 0x80 ADD MLOAD DUP2 MSTORE PUSH1 0x20 ADD DUP4 PUSH1 0x20 ADD MLOAD MLOAD DUP2 MSTORE PUSH1 0x20 ADD DUP4 PUSH0 ADD MLOAD DUP2 MSTORE PUSH1 0x20 ADD DUP5 PUSH1 0xA0 ADD MLOAD DUP2 MSTORE PUSH1 0x20 ADD DUP4 PUSH1 0x40 ADD MLOAD DUP2 MSTORE PUSH1 0x20 ADD DUP4 PUSH1 0x60 ADD MLOAD DUP2 MSTORE PUSH1 0x20 ADD DUP4 PUSH1 0x80 ADD MLOAD DUP2 MSTORE PUSH1 0x20 ADD DUP3 PUSH1 0x20 ADD MLOAD DUP2 MSTORE PUSH1 0x20 ADD DUP3 PUSH0 ADD MLOAD DUP2 MSTORE PUSH1 0x20 ADD PUSH2 0x16BC DUP8 PUSH2 0x3028 JUMP JUMPDEST DUP2 MSTORE PUSH1 0x20 ADD DUP3 PUSH1 0x40 ADD MLOAD DUP2 MSTORE PUSH1 0x20 ADD PUSH2 0x16D4 DUP8 PUSH2 0x3130 JUMP JUMPDEST DUP2 MSTORE PUSH1 0x20 ADD DUP3 PUSH1 0x80 ADD MLOAD DUP2 MSTORE PUSH1 0x20 ADD DUP3 PUSH1 0xA0 ADD MLOAD DUP2 MSTORE PUSH1 0x20 ADD PUSH2 0x16F6 DUP8 PUSH2 0x3187 JUMP JUMPDEST DUP2 MSTORE PUSH1 0x20 ADD DUP5 PUSH2 0x140 ADD MLOAD PUSH2 0x170C JUMPI PUSH1 0x3 PUSH2 0x170F JUMP JUMPDEST PUSH1 0x4 JUMPDEST PUSH1 0xFF AND DUP6 PUSH1 0x80 ADD MLOAD PUSH2 0x1721 SWAP2 SWAP1 PUSH2 0x50DA JUMP JUMPDEST DUP2 MSTORE PUSH1 0x20 ADD DUP3 PUSH1 0xC0 ADD MLOAD DUP2 MSTORE PUSH1 0x20 ADD PUSH1 0xF PUSH0 DUP7 PUSH2 0x120 ADD MLOAD DUP2 MSTORE PUSH1 0x20 ADD SWAP1 DUP2 MSTORE PUSH1 0x20 ADD PUSH0 KECCAK256 PUSH1 0x1 ADD DUP1 SLOAD PUSH2 0x1754 SWAP1 PUSH2 0x51A2 JUMP JUMPDEST DUP1 PUSH1 0x1F ADD PUSH1 0x20 DUP1 SWAP2 DIV MUL PUSH1 0x20 ADD PUSH1 0x40 MLOAD SWAP1 DUP2 ADD PUSH1 0x40 MSTORE DUP1 SWAP3 SWAP2 SWAP1 DUP2 DUP2 MSTORE PUSH1 0x20 ADD DUP3 DUP1 SLOAD PUSH2 0x1780 SWAP1 PUSH2 0x51A2 JUMP JUMPDEST DUP1 ISZERO PUSH2 0x17CB JUMPI DUP1 PUSH1 0x1F LT PUSH2 0x17A2 JUMPI PUSH2 0x100 DUP1 DUP4 SLOAD DIV MUL DUP4 MSTORE SWAP2 PUSH1 0x20 ADD SWAP2 PUSH2 0x17CB JUMP JUMPDEST DUP3 ADD SWAP2 SWAP1 PUSH0 MSTORE PUSH1 0x20 PUSH0 KECCAK256 SWAP1 JUMPDEST DUP2 SLOAD DUP2 MSTORE SWAP1 PUSH1 0x1 ADD SWAP1 PUSH1 0x20 ADD DUP1 DUP4 GT PUSH2 0x17AE JUMPI DUP3 SWAP1 SUB PUSH1 0x1F AND DUP3 ADD SWAP2 JUMPDEST POP POP POP POP POP DUP2 MSTORE POP SWAP4 POP POP POP POP SWAP2 SWAP1 POP JUMP JUMPDEST PUSH2 0x17E5 PUSH2 0x31F5 JUMP JUMPDEST PUSH2 0x17ED JUMPI CALLER SWAP3 POP JUMPDEST PUSH2 0x17F6 DUP4 PUSH2 0x28C3 JUMP JUMPDEST PUSH2 0x183A JUMPI PUSH1 0x40 MLOAD PUSH3 0x461BCD PUSH1 0xE5 SHL DUP2 MSTORE PUSH1 0x20 PUSH1 0x4 DUP3 ADD MSTORE PUSH1 0x15 PUSH1 0x24 DUP3 ADD MSTORE PUSH21 0x496E76616C69642073656E64696E67207573657221 PUSH1 0x58 SHL PUSH1 0x44 DUP3 ADD MSTORE PUSH1 0x64 ADD PUSH2 0xE1A JUMP JUMPDEST PUSH2 0x1843 DUP3 PUSH2 0x28C3 JUMP JUMPDEST PUSH2 0x188F JUMPI PUSH1 0x40 MLOAD PUSH3 0x461BCD PUSH1 0xE5 SHL DUP2 MSTORE PUSH1 0x20 PUSH1 0x4 DUP3 ADD MSTORE PUSH1 0x17 PUSH1 0x24 DUP3 ADD MSTORE PUSH32 0x496E76616C696420726563656976696E67207573657221000000000000000000 PUSH1 0x44 DUP3 ADD MSTORE PUSH1 0x64 ADD PUSH2 0xE1A JUMP JUMPDEST PUSH1 0x1 PUSH1 0x1 PUSH1 0xA0 SHL SUB DUP4 AND PUSH0 SWAP1 DUP2 MSTORE PUSH1 0x18 PUSH1 0x20 SWAP1 DUP2 MSTORE PUSH1 0x40 DUP1 DUP4 KECCAK256 PUSH1 0x2 DUP5 MSTORE SWAP1 SWAP2 MSTORE SWAP1 KECCAK256 SLOAD DUP2 GT ISZERO PUSH2 0x18F8 JUMPI PUSH1 0x40 MLOAD PUSH3 0x461BCD PUSH1 0xE5 SHL DUP2 MSTORE PUSH1 0x20 PUSH1 0x4 DUP3 ADD MSTORE PUSH1 0x13 PUSH1 0x24 DUP3 ADD MSTORE PUSH19 0x496E73756666696369656E742066756E647321 PUSH1 0x68 SHL PUSH1 0x44 DUP3 ADD MSTORE PUSH1 0x64 ADD PUSH2 0xE1A JUMP JUMPDEST PUSH1 0x1 PUSH1 0x1 PUSH1 0xA0 SHL SUB DUP4 AND PUSH0 SWAP1 DUP2 MSTORE PUSH1 0x18 PUSH1 0x20 SWAP1 DUP2 MSTORE PUSH1 0x40 DUP1 DUP4 KECCAK256 PUSH1 0x2 DUP5 MSTORE SWAP1 SWAP2 MSTORE DUP2 KECCAK256 DUP1 SLOAD DUP4 SWAP3 SWAP1 PUSH2 0x192B SWAP1 DUP5 SWAP1 PUSH2 0x50F1 JUMP JUMPDEST SWAP1 SWAP2 SSTORE POP POP PUSH1 0x1 PUSH1 0x1 PUSH1 0xA0 SHL SUB DUP3 AND PUSH0 SWAP1 DUP2 MSTORE PUSH1 0x18 PUSH1 0x20 SWAP1 DUP2 MSTORE PUSH1 0x40 DUP1 DUP4 KECCAK256 PUSH1 0x2 DUP5 MSTORE SWAP1 SWAP2 MSTORE DUP2 KECCAK256 DUP1 SLOAD DUP4 SWAP3 SWAP1 PUSH2 0x1963 SWAP1 DUP5 SWAP1 PUSH2 0x51D4 JUMP JUMPDEST SWAP1 SWAP2 SSTORE POP POP POP POP POP JUMP JUMPDEST CALLER PUSH0 PUSH2 0x1977 PUSH2 0x3222 JUMP JUMPDEST SWAP1 POP PUSH2 0x1982 DUP3 PUSH2 0x2BB9 JUMP JUMPDEST PUSH2 0x19BE JUMPI PUSH1 0x40 MLOAD PUSH3 0x461BCD PUSH1 0xE5 SHL DUP2 MSTORE PUSH1 0x20 PUSH1 0x4 DUP3 ADD MSTORE PUSH1 0xD PUSH1 0x24 DUP3 ADD MSTORE PUSH13 0x496E76616C6964207573657221 PUSH1 0x98 SHL PUSH1 0x44 DUP3 ADD MSTORE PUSH1 0x64 ADD PUSH2 0xE1A JUMP JUMPDEST PUSH1 0x1 PUSH1 0x1 PUSH1 0xA0 SHL SUB DUP3 AND PUSH0 SWAP1 DUP2 MSTORE PUSH1 0x10 PUSH1 0x20 MSTORE PUSH1 0x40 SWAP1 KECCAK256 PUSH1 0x6 ADD SLOAD PUSH1 0xFF AND ISZERO PUSH2 0x19F9 JUMPI PUSH1 0x40 MLOAD PUSH3 0x461BCD PUSH1 0xE5 SHL DUP2 MSTORE PUSH1 0x4 ADD PUSH2 0xE1A SWAP1 PUSH2 0x51E7 JUMP JUMPDEST PUSH1 0x1 PUSH1 0x1 PUSH1 0xA0 SHL SUB DUP3 AND PUSH0 SWAP1 DUP2 MSTORE PUSH1 0x18 PUSH1 0x20 SWAP1 DUP2 MSTORE PUSH1 0x40 DUP1 DUP4 KECCAK256 PUSH1 0x1 DUP5 MSTORE SWAP1 SWAP2 MSTORE SWAP1 KECCAK256 SLOAD DUP4 GT ISZERO PUSH2 0x1A62 JUMPI PUSH1 0x40 MLOAD PUSH3 0x461BCD PUSH1 0xE5 SHL DUP2 MSTORE PUSH1 0x20 PUSH1 0x4 DUP3 ADD MSTORE PUSH1 0x13 PUSH1 0x24 DUP3 ADD MSTORE PUSH19 0x496E73756666696369656E742066756E647321 PUSH1 0x68 SHL PUSH1 0x44 DUP3 ADD MSTORE PUSH1 0x64 ADD PUSH2 0xE1A JUMP JUMPDEST PUSH1 0x1 PUSH1 0x1 PUSH1 0xA0 SHL SUB DUP3 AND PUSH0 SWAP1 DUP2 MSTORE PUSH1 0x10 PUSH1 0x20 SWAP1 DUP2 MSTORE PUSH1 0x40 DUP1 DUP4 KECCAK256 PUSH1 0x4 ADD SLOAD PUSH1 0x17 SWAP1 SWAP3 MSTORE SWAP1 SWAP2 KECCAK256 PUSH1 0x6 ADD SLOAD PUSH2 0x1A97 SWAP1 DUP6 SWAP1 PUSH2 0x51D4 JUMP JUMPDEST GT ISZERO DUP1 PUSH2 0x1ABA JUMPI POP PUSH1 0xC SLOAD PUSH1 0xFF AND DUP1 ISZERO PUSH2 0x1ABA JUMPI POP PUSH2 0x1AB6 PUSH1 0x64 PUSH2 0x3295 JUMP JUMPDEST DUP2 LT ISZERO JUMPDEST PUSH2 0x1B2C JUMPI PUSH1 0x40 MLOAD PUSH3 0x461BCD PUSH1 0xE5 SHL DUP2 MSTORE PUSH1 0x20 PUSH1 0x4 DUP3 ADD MSTORE PUSH1 0x39 PUSH1 0x24 DUP3 ADD MSTORE PUSH32 0x5769746864726177616C206265796F6E64207072696E6369706C652069732070 PUSH1 0x44 DUP3 ADD MSTORE PUSH32 0x726F686962697465642061742074686973206D6F6D656E742100000000000000 PUSH1 0x64 DUP3 ADD MSTORE PUSH1 0x84 ADD PUSH2 0xE1A JUMP JUMPDEST PUSH1 0x1 PUSH1 0x1 PUSH1 0xA0 SHL SUB DUP3 AND PUSH0 SWAP1 DUP2 MSTORE PUSH1 0x18 PUSH1 0x20 SWAP1 DUP2 MSTORE PUSH1 0x40 DUP1 DUP4 KECCAK256 PUSH1 0x1 DUP5 MSTORE SWAP1 SWAP2 MSTORE DUP2 KECCAK256 DUP1 SLOAD DUP6 SWAP3 SWAP1 PUSH2 0x1B5F SWAP1 DUP5 SWAP1 PUSH2 0x50F1 JUMP JUMPDEST SWAP1 SWAP2 SSTORE POP POP PUSH1 0x1 PUSH1 0x1 PUSH1 0xA0 SHL SUB DUP3 AND PUSH0 SWAP1 DUP2 MSTORE PUSH1 0x17 PUSH1 0x20 MSTORE PUSH1 0x40 DUP2 KECCAK256 PUSH1 0x6 ADD DUP1 SLOAD DUP6 SWAP3 SWAP1 PUSH2 0x1B8E SWAP1 DUP5 SWAP1 PUSH2 0x51D4 JUMP JUMPDEST SWAP1 SWAP2 SSTORE POP PUSH0 SWAP1 POP PUSH1 0x64 PUSH2 0x1BA2 DUP6 PUSH1 0x5 PUSH2 0x50DA JUMP JUMPDEST PUSH2 0x1BAC SWAP2 SWAP1 PUSH2 0x5215 JUMP JUMPDEST SWAP1 POP PUSH0 PUSH2 0x1BB9 DUP3 DUP7 PUSH2 0x50F1 JUMP JUMPDEST PUSH1 0x40 DUP1 MLOAD DUP1 DUP3 ADD DUP3 MSTORE DUP8 DUP2 MSTORE TIMESTAMP PUSH1 0x20 DUP1 DUP4 ADD SWAP2 SWAP1 SWAP2 MSTORE PUSH1 0x1 PUSH1 0x1 PUSH1 0xA0 SHL SUB DUP9 AND PUSH0 SWAP1 DUP2 MSTORE PUSH1 0x14 DUP3 MSTORE DUP4 DUP2 KECCAK256 PUSH1 0x19 SWAP1 SWAP3 MSTORE SWAP3 DUP4 KECCAK256 PUSH1 0x2 ADD SLOAD SWAP4 SWAP5 POP SWAP1 SWAP3 DUP4 SWAP3 SWAP1 PUSH2 0x1C03 SWAP1 PUSH1 0x1 PUSH2 0x51D4 JUMP JUMPDEST DUP2 MSTORE PUSH1 0x20 DUP1 DUP3 ADD SWAP3 SWAP1 SWAP3 MSTORE PUSH1 0x40 SWAP1 DUP2 ADD PUSH0 SWAP1 DUP2 KECCAK256 DUP5 MLOAD DUP2 SSTORE SWAP4 DUP4 ADD MLOAD PUSH1 0x1 SWAP1 SWAP5 ADD SWAP4 SWAP1 SWAP4 SSTORE PUSH1 0x1 PUSH1 0x1 PUSH1 0xA0 SHL SUB DUP9 AND DUP4 MSTORE PUSH1 0x19 SWAP1 SWAP2 MSTORE DUP2 KECCAK256 PUSH1 0x2 ADD DUP1 SLOAD SWAP2 PUSH2 0x1C4A DUP4 PUSH2 0x5118 JUMP JUMPDEST SWAP2 SWAP1 POP SSTORE POP DUP6 DUP5 LT PUSH2 0x1C7B JUMPI PUSH2 0x1C60 DUP6 DUP4 PUSH2 0x32AC JUMP JUMPDEST PUSH1 0x7 SLOAD PUSH2 0x1C76 SWAP1 PUSH1 0x1 PUSH1 0x1 PUSH1 0xA0 SHL SUB AND DUP5 PUSH2 0x32AC JUMP JUMPDEST PUSH2 0x1C85 JUMP JUMPDEST PUSH2 0x1C85 DUP6 DUP4 PUSH2 0x332E JUMP JUMPDEST POP POP POP POP POP POP JUMP JUMPDEST PUSH1 0x1 PUSH1 0x1 PUSH1 0xA0 SHL SUB DUP2 AND PUSH0 SWAP1 DUP2 MSTORE PUSH1 0x12 PUSH1 0x20 MSTORE PUSH1 0x40 SWAP1 KECCAK256 PUSH1 0x1 ADD SLOAD PUSH1 0x60 SWAP1 PUSH8 0xFFFFFFFFFFFFFFFF DUP2 GT ISZERO PUSH2 0x1CC3 JUMPI PUSH2 0x1CC3 PUSH2 0x5104 JUMP JUMPDEST PUSH1 0x40 MLOAD SWAP1 DUP1 DUP3 MSTORE DUP1 PUSH1 0x20 MUL PUSH1 0x20 ADD DUP3 ADD PUSH1 0x40 MSTORE DUP1 ISZERO PUSH2 0x1D24 JUMPI DUP2 PUSH1 0x20 ADD JUMPDEST PUSH2 0x1D11 PUSH1 0x40 MLOAD DUP1 PUSH1 0x80 ADD PUSH1 0x40 MSTORE DUP1 PUSH0 DUP2 MSTORE PUSH1 0x20 ADD PUSH0 PUSH1 0x1 PUSH1 0x1 PUSH1 0xA0 SHL SUB AND DUP2 MSTORE PUSH1 0x20 ADD PUSH0 DUP2 MSTORE PUSH1 0x20 ADD PUSH0 DUP2 MSTORE POP SWAP1 JUMP JUMPDEST DUP2 MSTORE PUSH1 0x20 ADD SWAP1 PUSH1 0x1 SWAP1 SUB SWAP1 DUP2 PUSH2 0x1CE1 JUMPI SWAP1 POP JUMPDEST POP SWAP1 POP PUSH0 JUMPDEST PUSH1 0x1 PUSH1 0x1 PUSH1 0xA0 SHL SUB DUP4 AND PUSH0 SWAP1 DUP2 MSTORE PUSH1 0x12 PUSH1 0x20 MSTORE PUSH1 0x40 SWAP1 KECCAK256 PUSH1 0x1 ADD SLOAD DUP2 LT ISZERO PUSH2 0x11E8 JUMPI PUSH1 0x40 MLOAD DUP1 PUSH1 0x80 ADD PUSH1 0x40 MSTORE DUP1 DUP3 PUSH1 0x1 PUSH2 0x1D63 SWAP2 SWAP1 PUSH2 0x51D4 JUMP JUMPDEST DUP2 MSTORE PUSH1 0x20 ADD PUSH1 0x12 PUSH0 DUP7 PUSH1 0x1 PUSH1 0x1 PUSH1 0xA0 SHL SUB AND PUSH1 0x1 PUSH1 0x1 PUSH1 0xA0 SHL SUB AND DUP2 MSTORE PUSH1 0x20 ADD SWAP1 DUP2 MSTORE PUSH1 0x20 ADD PUSH0 KECCAK256 PUSH1 0x1 ADD DUP4 DUP2 SLOAD DUP2 LT PUSH2 0x1D9F JUMPI PUSH2 0x1D9F PUSH2 0x5130 JUMP JUMPDEST PUSH0 SWAP2 DUP3 MSTORE PUSH1 0x20 DUP1 DUP4 KECCAK256 SWAP1 SWAP2 ADD SLOAD PUSH1 0x1 PUSH1 0x1 PUSH1 0xA0 SHL SUB SWAP1 DUP2 AND DUP5 MSTORE DUP8 AND DUP3 MSTORE PUSH1 0x12 DUP2 MSTORE PUSH1 0x40 DUP3 KECCAK256 PUSH1 0x1 ADD DUP1 SLOAD SWAP4 SWAP1 SWAP2 ADD SWAP3 PUSH1 0x10 SWAP3 SWAP2 SWAP1 DUP7 SWAP1 DUP2 LT PUSH2 0x1DE4 JUMPI PUSH2 0x1DE4 PUSH2 0x5130 JUMP JUMPDEST PUSH0 SWAP2 DUP3 MSTORE PUSH1 0x20 DUP1 DUP4 KECCAK256 SWAP1 SWAP2 ADD SLOAD PUSH1 0x1 PUSH1 0x1 PUSH1 0xA0 SHL SUB SWAP1 DUP2 AND DUP5 MSTORE DUP4 DUP3 ADD SWAP5 SWAP1 SWAP5 MSTORE PUSH1 0x40 SWAP3 DUP4 ADD DUP3 KECCAK256 PUSH1 0x4 ADD SLOAD DUP6 MSTORE SWAP3 DUP9 AND DUP2 MSTORE PUSH1 0x12 DUP4 MSTORE SWAP1 DUP2 KECCAK256 PUSH1 0x1 ADD DUP1 SLOAD SWAP4 SWAP1 SWAP3 ADD SWAP3 PUSH1 0x10 SWAP3 SWAP1 DUP7 SWAP1 DUP2 LT PUSH2 0x1E3C JUMPI PUSH2 0x1E3C PUSH2 0x5130 JUMP JUMPDEST PUSH0 SWAP2 DUP3 MSTORE PUSH1 0x20 DUP1 DUP4 KECCAK256 SWAP1 SWAP2 ADD SLOAD PUSH1 0x1 PUSH1 0x1 PUSH1 0xA0 SHL SUB AND DUP4 MSTORE DUP3 ADD SWAP3 SWAP1 SWAP3 MSTORE PUSH1 0x40 ADD SWAP1 KECCAK256 PUSH1 0x4 ADD SLOAD SWAP1 MSTORE DUP3 MLOAD DUP4 SWAP1 DUP4 SWAP1 DUP2 LT PUSH2 0x1E79 JUMPI PUSH2 0x1E79 PUSH2 0x5130 JUMP JUMPDEST PUSH1 0x20 MUL PUSH1 0x20 ADD ADD DUP2 SWAP1 MSTORE POP DUP1 DUP1 PUSH2 0x1E8F SWAP1 PUSH2 0x5118 JUMP JUMPDEST SWAP2 POP POP PUSH2 0x1D29 JUMP JUMPDEST PUSH2 0x1E9F PUSH2 0x31F5 JUMP JUMPDEST PUSH2 0x1EBB JUMPI PUSH1 0x40 MLOAD PUSH3 0x461BCD PUSH1 0xE5 SHL DUP2 MSTORE PUSH1 0x4 ADD PUSH2 0xE1A SWAP1 PUSH2 0x51E7 JUMP JUMPDEST PUSH1 0x3 DUP1 SLOAD PUSH1 0x1 PUSH1 0x1 PUSH1 0xA0 SHL SUB NOT AND PUSH1 0x1 PUSH1 0x1 PUSH1 0xA0 SHL SUB SWAP3 SWAP1 SWAP3 AND SWAP2 SWAP1 SWAP2 OR SWAP1 SSTORE JUMP JUMPDEST PUSH2 0x1F0C PUSH1 0x40 MLOAD DUP1 PUSH1 0xA0 ADD PUSH1 0x40 MSTORE DUP1 PUSH0 DUP2 MSTORE PUSH1 0x20 ADD PUSH0 DUP2 MSTORE PUSH1 0x20 ADD PUSH0 DUP2 MSTORE PUSH1 0x20 ADD PUSH0 DUP2 MSTORE PUSH1 0x20 ADD PUSH0 ISZERO ISZERO DUP2 MSTORE POP SWAP1 JUMP JUMPDEST PUSH1 0x40 MLOAD DUP1 PUSH1 0xA0 ADD PUSH1 0x40 MSTORE DUP1 PUSH0 SLOAD DUP2 MSTORE PUSH1 0x20 ADD PUSH1 0x1 SLOAD DUP2 MSTORE PUSH1 0x20 ADD PUSH1 0x2 SLOAD DUP2 MSTORE PUSH1 0x20 ADD PUSH2 0x1F36 PUSH2 0x3222 JUMP JUMPDEST DUP2 MSTORE PUSH1 0xC SLOAD PUSH1 0xFF AND ISZERO ISZERO PUSH1 0x20 SWAP1 SWAP2 ADD MSTORE SWAP2 SWAP1 POP JUMP JUMPDEST PUSH1 0x1 PUSH1 0x1 PUSH1 0xA0 SHL SUB DUP4 AND PUSH0 SWAP1 DUP2 MSTORE PUSH1 0x19 PUSH1 0x20 MSTORE PUSH1 0x40 DUP2 KECCAK256 PUSH1 0x2 ADD SLOAD PUSH1 0x60 SWAP2 DUP2 PUSH2 0x1F74 DUP6 DUP8 PUSH2 0x50DA JUMP JUMPDEST GT PUSH2 0x1F88 JUMPI PUSH2 0x1F83 DUP5 DUP7 PUSH2 0x50DA JUMP JUMPDEST PUSH2 0x1F8A JUMP JUMPDEST DUP2 JUMPDEST SWAP1 POP PUSH0 DUP5 DUP3 LT ISZERO PUSH2 0x1F9B JUMPI PUSH0 PUSH2 0x1FA5 JUMP JUMPDEST PUSH2 0x1FA5 DUP6 DUP4 PUSH2 0x50F1 JUMP JUMPDEST SWAP1 POP PUSH0 PUSH2 0x1FB2 DUP3 DUP5 PUSH2 0x50F1 JUMP JUMPDEST PUSH8 0xFFFFFFFFFFFFFFFF DUP2 GT ISZERO PUSH2 0x1FCA JUMPI PUSH2 0x1FCA PUSH2 0x5104 JUMP JUMPDEST PUSH1 0x40 MLOAD SWAP1 DUP1 DUP3 MSTORE DUP1 PUSH1 0x20 MUL PUSH1 0x20 ADD DUP3 ADD PUSH1 0x40 MSTORE DUP1 ISZERO PUSH2 0x200E JUMPI DUP2 PUSH1 0x20 ADD JUMPDEST PUSH1 0x40 DUP1 MLOAD DUP1 DUP3 ADD SWAP1 SWAP2 MSTORE PUSH0 DUP1 DUP3 MSTORE PUSH1 0x20 DUP3 ADD MSTORE DUP2 MSTORE PUSH1 0x20 ADD SWAP1 PUSH1 0x1 SWAP1 SUB SWAP1 DUP2 PUSH2 0x1FE8 JUMPI SWAP1 POP JUMPDEST POP SWAP5 POP DUP3 JUMPDEST DUP3 DUP2 GT ISZERO PUSH2 0xC61 JUMPI PUSH1 0x1 PUSH1 0x1 PUSH1 0xA0 SHL SUB DUP10 AND PUSH0 SWAP1 DUP2 MSTORE PUSH1 0x14 PUSH1 0x20 SWAP1 DUP2 MSTORE PUSH1 0x40 DUP1 DUP4 KECCAK256 DUP5 DUP5 MSTORE DUP3 MSTORE SWAP2 DUP3 SWAP1 KECCAK256 DUP3 MLOAD DUP1 DUP5 ADD SWAP1 SWAP4 MSTORE DUP1 SLOAD DUP4 MSTORE PUSH1 0x1 ADD SLOAD SWAP1 DUP3 ADD MSTORE DUP7 MLOAD DUP8 SWAP1 DUP5 SWAP1 DUP2 LT PUSH2 0x2066 JUMPI PUSH2 0x2066 PUSH2 0x5130 JUMP JUMPDEST PUSH1 0x20 MUL PUSH1 0x20 ADD ADD DUP2 SWAP1 MSTORE POP DUP2 DUP1 PUSH2 0x207C SWAP1 PUSH2 0x5118 JUMP JUMPDEST SWAP3 POP POP DUP1 DUP1 PUSH2 0x208A SWAP1 PUSH2 0x5144 JUMP JUMPDEST SWAP2 POP POP PUSH2 0x2013 JUMP JUMPDEST PUSH1 0x60 PUSH1 0x9 SLOAD PUSH8 0xFFFFFFFFFFFFFFFF DUP2 GT ISZERO PUSH2 0x20AF JUMPI PUSH2 0x20AF PUSH2 0x5104 JUMP JUMPDEST PUSH1 0x40 MLOAD SWAP1 DUP1 DUP3 MSTORE DUP1 PUSH1 0x20 MUL PUSH1 0x20 ADD DUP3 ADD PUSH1 0x40 MSTORE DUP1 ISZERO PUSH2 0x2129 JUMPI DUP2 PUSH1 0x20 ADD JUMPDEST PUSH2 0x2116 PUSH1 0x40 MLOAD DUP1 PUSH2 0x120 ADD PUSH1 0x40 MSTORE DUP1 PUSH0 DUP2 MSTORE PUSH1 0x20 ADD PUSH1 0x60 DUP2 MSTORE PUSH1 0x20 ADD PUSH0 DUP2 MSTORE PUSH1 0x20 ADD PUSH0 DUP2 MSTORE PUSH1 0x20 ADD PUSH0 DUP2 MSTORE PUSH1 0x20 ADD PUSH0 DUP2 MSTORE PUSH1 0x20 ADD PUSH0 DUP2 MSTORE PUSH1 0x20 ADD PUSH0 DUP2 MSTORE PUSH1 0x20 ADD PUSH0 ISZERO ISZERO DUP2 MSTORE POP SWAP1 JUMP JUMPDEST DUP2 MSTORE PUSH1 0x20 ADD SWAP1 PUSH1 0x1 SWAP1 SUB SWAP1 DUP2 PUSH2 0x20CD JUMPI SWAP1 POP JUMPDEST POP PUSH1 0x1 PUSH1 0x1 PUSH1 0xA0 SHL SUB DUP1 DUP5 AND PUSH0 DUP2 DUP2 MSTORE PUSH1 0x10 PUSH1 0x20 SWAP1 DUP2 MSTORE PUSH1 0x40 DUP1 DUP4 KECCAK256 DUP2 MLOAD PUSH2 0x180 DUP2 ADD DUP4 MSTORE DUP2 SLOAD DUP2 MSTORE PUSH1 0x1 DUP1 DUP4 ADD SLOAD DUP9 AND DUP3 DUP7 ADD MSTORE PUSH1 0x2 DUP4 ADD SLOAD SWAP1 SWAP8 AND DUP2 DUP5 ADD MSTORE PUSH1 0x3 DUP3 ADD SLOAD PUSH1 0x60 DUP3 ADD MSTORE PUSH1 0x4 DUP3 ADD SLOAD PUSH1 0x80 DUP3 ADD MSTORE PUSH1 0x5 DUP3 ADD SLOAD PUSH1 0xA0 DUP3 ADD MSTORE PUSH1 0x6 DUP3 ADD SLOAD PUSH1 0xFF SWAP1 DUP2 AND ISZERO ISZERO PUSH1 0xC0 DUP1 DUP5 ADD SWAP2 SWAP1 SWAP2 MSTORE PUSH1 0x7 DUP5 ADD SLOAD PUSH1 0xE0 DUP5 ADD MSTORE PUSH1 0x8 DUP5 ADD SLOAD PUSH2 0x100 DUP1 DUP6 ADD SWAP2 SWAP1 SWAP2 MSTORE PUSH1 0x9 DUP6 ADD SLOAD PUSH2 0x120 DUP6 ADD MSTORE PUSH1 0xA SWAP1 SWAP5 ADD SLOAD DUP1 DUP4 AND ISZERO ISZERO PUSH2 0x140 DUP6 ADD MSTORE SWAP4 SWAP1 SWAP4 DIV AND ISZERO ISZERO PUSH2 0x160 DUP3 ADD MSTORE SWAP5 DUP5 MSTORE PUSH1 0x12 DUP4 MSTORE DUP2 DUP5 KECCAK256 DUP3 MLOAD SWAP2 DUP3 ADD DUP4 MSTORE DUP1 SLOAD DUP3 MSTORE SWAP6 DUP7 ADD DUP1 SLOAD DUP4 MLOAD DUP2 DUP7 MUL DUP2 ADD DUP7 ADD SWAP1 SWAP5 MSTORE DUP1 DUP5 MSTORE SWAP8 SWAP9 POP SWAP5 SWAP7 SWAP4 SWAP6 SWAP1 SWAP5 SWAP1 SWAP4 DUP6 DUP5 ADD SWAP4 DUP4 ADD DUP3 DUP3 DUP1 ISZERO PUSH2 0x224E JUMPI PUSH1 0x20 MUL DUP3 ADD SWAP2 SWAP1 PUSH0 MSTORE PUSH1 0x20 PUSH0 KECCAK256 SWAP1 JUMPDEST DUP2 SLOAD PUSH1 0x1 PUSH1 0x1 PUSH1 0xA0 SHL SUB AND DUP2 MSTORE PUSH1 0x1 SWAP1 SWAP2 ADD SWAP1 PUSH1 0x20 ADD DUP1 DUP4 GT PUSH2 0x2230 JUMPI JUMPDEST POP POP POP POP POP DUP2 MSTORE PUSH1 0x20 ADD PUSH1 0x2 DUP3 ADD SLOAD DUP2 MSTORE PUSH1 0x20 ADD PUSH1 0x3 DUP3 ADD SLOAD DUP2 MSTORE PUSH1 0x20 ADD PUSH1 0x4 DUP3 ADD SLOAD DUP2 MSTORE PUSH1 0x20 ADD PUSH1 0x5 DUP3 ADD DUP1 SLOAD DUP1 PUSH1 0x20 MUL PUSH1 0x20 ADD PUSH1 0x40 MLOAD SWAP1 DUP2 ADD PUSH1 0x40 MSTORE DUP1 SWAP3 SWAP2 SWAP1 DUP2 DUP2 MSTORE PUSH1 0x20 ADD DUP3 DUP1 SLOAD DUP1 ISZERO PUSH2 0x22CC JUMPI PUSH1 0x20 MUL DUP3 ADD SWAP2 SWAP1 PUSH0 MSTORE PUSH1 0x20 PUSH0 KECCAK256 SWAP1 JUMPDEST DUP2 SLOAD PUSH1 0x1 PUSH1 0x1 PUSH1 0xA0 SHL SUB AND DUP2 MSTORE PUSH1 0x1 SWAP1 SWAP2 ADD SWAP1 PUSH1 0x20 ADD DUP1 DUP4 GT PUSH2 0x22AE JUMPI JUMPDEST POP POP POP POP POP DUP2 MSTORE POP POP SWAP1 POP PUSH0 PUSH1 0x1 SWAP1 POP JUMPDEST PUSH1 0x9 SLOAD DUP2 GT PUSH2 0x2492 JUMPI PUSH0 PUSH1 0xF PUSH0 DUP4 DUP2 MSTORE PUSH1 0x20 ADD SWAP1 DUP2 MSTORE PUSH1 0x20 ADD PUSH0 KECCAK256 PUSH1 0x40 MLOAD DUP1 PUSH1 0xC0 ADD PUSH1 0x40 MSTORE SWAP1 DUP2 PUSH0 DUP3 ADD SLOAD DUP2 MSTORE PUSH1 0x20 ADD PUSH1 0x1 DUP3 ADD DUP1 SLOAD PUSH2 0x231C SWAP1 PUSH2 0x51A2 JUMP JUMPDEST DUP1 PUSH1 0x1F ADD PUSH1 0x20 DUP1 SWAP2 DIV MUL PUSH1 0x20 ADD PUSH1 0x40 MLOAD SWAP1 DUP2 ADD PUSH1 0x40 MSTORE DUP1 SWAP3 SWAP2 SWAP1 DUP2 DUP2 MSTORE PUSH1 0x20 ADD DUP3 DUP1 SLOAD PUSH2 0x2348 SWAP1 PUSH2 0x51A2 JUMP JUMPDEST DUP1 ISZERO PUSH2 0x2393 JUMPI DUP1 PUSH1 0x1F LT PUSH2 0x236A JUMPI PUSH2 0x100 DUP1 DUP4 SLOAD DIV MUL DUP4 MSTORE SWAP2 PUSH1 0x20 ADD SWAP2 PUSH2 0x2393 JUMP JUMPDEST DUP3 ADD SWAP2 SWAP1 PUSH0 MSTORE PUSH1 0x20 PUSH0 KECCAK256 SWAP1 JUMPDEST DUP2 SLOAD DUP2 MSTORE SWAP1 PUSH1 0x1 ADD SWAP1 PUSH1 0x20 ADD DUP1 DUP4 GT PUSH2 0x2376 JUMPI DUP3 SWAP1 SUB PUSH1 0x1F AND DUP3 ADD SWAP2 JUMPDEST POP POP POP POP POP DUP2 MSTORE PUSH1 0x20 ADD PUSH1 0x2 DUP3 ADD SLOAD DUP2 MSTORE PUSH1 0x20 ADD PUSH1 0x3 DUP3 ADD SLOAD DUP2 MSTORE PUSH1 0x20 ADD PUSH1 0x4 DUP3 ADD SLOAD DUP2 MSTORE PUSH1 0x20 ADD PUSH1 0x5 DUP3 ADD SLOAD DUP2 MSTORE POP POP SWAP1 POP PUSH0 DUP2 PUSH1 0x40 ADD MLOAD DUP6 PUSH1 0x80 ADD MLOAD LT ISZERO DUP1 ISZERO PUSH2 0x23E7 JUMPI POP DUP2 PUSH1 0x60 ADD MLOAD DUP5 PUSH1 0x40 ADD MLOAD LT ISZERO JUMPDEST DUP1 ISZERO PUSH2 0x23FB JUMPI POP DUP2 PUSH1 0x80 ADD MLOAD DUP5 PUSH1 0x60 ADD MLOAD LT ISZERO JUMPDEST PUSH1 0x40 DUP1 MLOAD PUSH2 0x120 DUP2 ADD DUP3 MSTORE DUP5 MLOAD DUP2 MSTORE PUSH1 0x20 DUP1 DUP7 ADD MLOAD SWAP1 DUP3 ADD MSTORE DUP5 DUP3 ADD MLOAD DUP2 DUP4 ADD MSTORE PUSH1 0x60 DUP1 DUP7 ADD MLOAD DUP2 DUP4 ADD MSTORE PUSH1 0x80 DUP1 DUP8 ADD MLOAD DUP2 DUP5 ADD MSTORE DUP10 ADD MLOAD PUSH1 0xA0 DUP4 ADD MSTORE SWAP2 DUP8 ADD MLOAD PUSH1 0xC0 DUP3 ADD MSTORE SWAP1 DUP7 ADD MLOAD PUSH1 0xE0 DUP3 ADD MSTORE DUP2 ISZERO ISZERO PUSH2 0x100 DUP3 ADD MSTORE SWAP1 SWAP2 POP DUP7 PUSH2 0x2462 PUSH1 0x1 DUP7 PUSH2 0x50F1 JUMP JUMPDEST DUP2 MLOAD DUP2 LT PUSH2 0x2472 JUMPI PUSH2 0x2472 PUSH2 0x5130 JUMP JUMPDEST PUSH1 0x20 MUL PUSH1 0x20 ADD ADD DUP2 SWAP1 MSTORE POP POP POP DUP1 DUP1 PUSH2 0x248A SWAP1 PUSH2 0x5118 JUMP JUMPDEST SWAP2 POP POP PUSH2 0x22DD JUMP JUMPDEST POP POP POP SWAP2 SWAP1 POP JUMP JUMPDEST PUSH1 0xD PUSH1 0x20 MSTORE PUSH0 SWAP1 DUP2 MSTORE PUSH1 0x40 SWAP1 KECCAK256 DUP1 SLOAD PUSH1 0x1 DUP3 ADD DUP1 SLOAD SWAP2 SWAP3 SWAP2 PUSH2 0x24BB SWAP1 PUSH2 0x51A2 JUMP JUMPDEST DUP1 PUSH1 0x1F ADD PUSH1 0x20 DUP1 SWAP2 DIV MUL PUSH1 0x20 ADD PUSH1 0x40 MLOAD SWAP1 DUP2 ADD PUSH1 0x40 MSTORE DUP1 SWAP3 SWAP2 SWAP1 DUP2 DUP2 MSTORE PUSH1 0x20 ADD DUP3 DUP1 SLOAD PUSH2 0x24E7 SWAP1 PUSH2 0x51A2 JUMP JUMPDEST DUP1 ISZERO PUSH2 0x2532 JUMPI DUP1 PUSH1 0x1F LT PUSH2 0x2509 JUMPI PUSH2 0x100 DUP1 DUP4 SLOAD DIV MUL DUP4 MSTORE SWAP2 PUSH1 0x20 ADD SWAP2 PUSH2 0x2532 JUMP JUMPDEST DUP3 ADD SWAP2 SWAP1 PUSH0 MSTORE PUSH1 0x20 PUSH0 KECCAK256 SWAP1 JUMPDEST DUP2 SLOAD DUP2 MSTORE SWAP1 PUSH1 0x1 ADD SWAP1 PUSH1 0x20 ADD DUP1 DUP4 GT PUSH2 0x2515 JUMPI DUP3 SWAP1 SUB PUSH1 0x1F AND DUP3 ADD SWAP2 JUMPDEST POP POP POP POP PUSH1 0x2 DUP4 ADD SLOAD PUSH1 0x3 DUP5 ADD SLOAD PUSH1 0x4 DUP6 ADD SLOAD PUSH1 0x5 DUP7 ADD SLOAD PUSH1 0x6 DUP8 ADD SLOAD PUSH1 0x7 SWAP1 SWAP8 ADD SLOAD SWAP6 SWAP7 SWAP4 SWAP6 PUSH1 0xFF DUP1 DUP6 AND SWAP7 POP PUSH2 0x100 SWAP1 SWAP5 DIV DUP5 AND SWAP5 SWAP3 SWAP4 SWAP2 SWAP3 SWAP2 AND DUP10 JUMP JUMPDEST PUSH2 0x257C DUP3 DUP3 PUSH2 0x33FD JUMP JUMPDEST POP POP JUMP JUMPDEST PUSH2 0x2588 PUSH2 0x31F5 JUMP JUMPDEST PUSH2 0x25A4 JUMPI PUSH1 0x40 MLOAD PUSH3 0x461BCD PUSH1 0xE5 SHL DUP2 MSTORE PUSH1 0x4 ADD PUSH2 0xE1A SWAP1 PUSH2 0x51E7 JUMP JUMPDEST PUSH1 0x7 DUP1 SLOAD PUSH1 0x1 PUSH1 0x1 PUSH1 0xA0 SHL SUB NOT AND PUSH1 0x1 PUSH1 0x1 PUSH1 0xA0 SHL SUB SWAP3 SWAP1 SWAP3 AND SWAP2 SWAP1 SWAP2 OR SWAP1 SSTORE JUMP JUMPDEST PUSH2 0x25CE PUSH2 0x31F5 JUMP JUMPDEST PUSH2 0x25EA JUMPI PUSH1 0x40 MLOAD PUSH3 0x461BCD PUSH1 0xE5 SHL DUP2 MSTORE PUSH1 0x4 ADD PUSH2 0xE1A SWAP1 PUSH2 0x51E7 JUMP JUMPDEST PUSH1 0x6 DUP1 SLOAD PUSH1 0x1 PUSH1 0x1 PUSH1 0xA0 SHL SUB NOT AND PUSH1 0x1 PUSH1 0x1 PUSH1 0xA0 SHL SUB SWAP3 SWAP1 SWAP3 AND SWAP2 SWAP1 SWAP2 OR SWAP1 SSTORE JUMP JUMPDEST PUSH1 0x1 PUSH1 0x1 PUSH1 0xA0 SHL SUB DUP4 AND PUSH0 SWAP1 DUP2 MSTORE PUSH1 0x12 PUSH1 0x20 SWAP1 DUP2 MSTORE PUSH1 0x40 DUP1 DUP4 KECCAK256 PUSH1 0x5 ADD DUP1 SLOAD DUP3 MLOAD DUP2 DUP6 MUL DUP2 ADD DUP6 ADD SWAP1 SWAP4 MSTORE DUP1 DUP4 MSTORE PUSH1 0x60 SWAP5 SWAP4 DUP4 ADD DUP3 DUP3 DUP1 ISZERO PUSH2 0x2675 JUMPI PUSH1 0x20 MUL DUP3 ADD SWAP2 SWAP1 PUSH0 MSTORE PUSH1 0x20 PUSH0 KECCAK256 SWAP1 JUMPDEST DUP2 SLOAD PUSH1 0x1 PUSH1 0x1 PUSH1 0xA0 SHL SUB AND DUP2 MSTORE PUSH1 0x1 SWAP1 SWAP2 ADD SWAP1 PUSH1 0x20 ADD DUP1 DUP4 GT PUSH2 0x2657 JUMPI JUMPDEST POP POP DUP4 MLOAD SWAP4 SWAP5 POP PUSH0 SWAP3 POP DUP4 SWAP2 POP PUSH2 0x268E SWAP1 POP DUP7 DUP9 PUSH2 0x50DA JUMP JUMPDEST GT PUSH2 0x26A2 JUMPI PUSH2 0x269D DUP6 DUP8 PUSH2 0x50DA JUMP JUMPDEST PUSH2 0x26A4 JUMP JUMPDEST DUP2 JUMPDEST SWAP1 POP PUSH0 DUP6 DUP3 LT ISZERO PUSH2 0x26B5 JUMPI PUSH0 PUSH2 0x26BF JUMP JUMPDEST PUSH2 0x26BF DUP7 DUP4 PUSH2 0x50F1 JUMP JUMPDEST SWAP1 POP PUSH0 PUSH2 0x26CC DUP3 DUP5 PUSH2 0x50F1 JUMP JUMPDEST SWAP1 POP DUP1 PUSH8 0xFFFFFFFFFFFFFFFF DUP2 GT ISZERO PUSH2 0x26E7 JUMPI PUSH2 0x26E7 PUSH2 0x5104 JUMP JUMPDEST PUSH1 0x40 MLOAD SWAP1 DUP1 DUP3 MSTORE DUP1 PUSH1 0x20 MUL PUSH1 0x20 ADD DUP3 ADD PUSH1 0x40 MSTORE DUP1 ISZERO PUSH2 0x2748 JUMPI DUP2 PUSH1 0x20 ADD JUMPDEST PUSH2 0x2735 PUSH1 0x40 MLOAD DUP1 PUSH1 0x80 ADD PUSH1 0x40 MSTORE DUP1 PUSH0 DUP2 MSTORE PUSH1 0x20 ADD PUSH0 PUSH1 0x1 PUSH1 0x1 PUSH1 0xA0 SHL SUB AND DUP2 MSTORE PUSH1 0x20 ADD PUSH0 DUP2 MSTORE PUSH1 0x20 ADD PUSH0 DUP2 MSTORE POP SWAP1 JUMP JUMPDEST DUP2 MSTORE PUSH1 0x20 ADD SWAP1 PUSH1 0x1 SWAP1 SUB SWAP1 DUP2 PUSH2 0x2705 JUMPI SWAP1 POP JUMPDEST POP SWAP6 POP PUSH0 DUP4 JUMPDEST DUP4 DUP2 GT ISZERO PUSH2 0x27FB JUMPI PUSH0 DUP8 PUSH2 0x2763 PUSH1 0x1 DUP5 PUSH2 0x50F1 JUMP JUMPDEST DUP2 MLOAD DUP2 LT PUSH2 0x2773 JUMPI PUSH2 0x2773 PUSH2 0x5130 JUMP JUMPDEST PUSH1 0x20 SWAP1 DUP2 MUL SWAP2 SWAP1 SWAP2 ADD DUP2 ADD MLOAD PUSH1 0x40 DUP1 MLOAD PUSH1 0x80 DUP2 ADD DUP3 MSTORE DUP6 DUP2 MSTORE PUSH1 0x1 PUSH1 0x1 PUSH1 0xA0 SHL SUB DUP4 AND DUP2 DUP6 ADD DUP2 SWAP1 MSTORE PUSH0 DUP2 DUP2 MSTORE PUSH1 0x10 DUP1 DUP8 MSTORE DUP5 DUP3 KECCAK256 PUSH1 0x4 ADD SLOAD SWAP5 DUP5 ADD DUP6 SWAP1 MSTORE SWAP2 SWAP1 MSTORE SWAP1 SWAP4 MSTORE PUSH1 0x60 DUP4 ADD MSTORE SWAP2 POP DUP10 DUP5 PUSH2 0x27CA DUP2 PUSH2 0x5118 JUMP JUMPDEST SWAP6 POP DUP2 MLOAD DUP2 LT PUSH2 0x27DC JUMPI PUSH2 0x27DC PUSH2 0x5130 JUMP JUMPDEST PUSH1 0x20 MUL PUSH1 0x20 ADD ADD DUP2 SWAP1 MSTORE POP POP DUP1 DUP1 PUSH2 0x27F3 SWAP1 PUSH2 0x5144 JUMP JUMPDEST SWAP2 POP POP PUSH2 0x274E JUMP JUMPDEST POP POP POP POP POP POP POP SWAP4 SWAP3 POP POP POP JUMP JUMPDEST PUSH1 0xF PUSH1 0x20 MSTORE PUSH0 SWAP1 DUP2 MSTORE PUSH1 0x40 SWAP1 KECCAK256 DUP1 SLOAD PUSH1 0x1 DUP3 ADD DUP1 SLOAD SWAP2 SWAP3 SWAP2 PUSH2 0x282A SWAP1 PUSH2 0x51A2 JUMP JUMPDEST DUP1 PUSH1 0x1F ADD PUSH1 0x20 DUP1 SWAP2 DIV MUL PUSH1 0x20 ADD PUSH1 0x40 MLOAD SWAP1 DUP2 ADD PUSH1 0x40 MSTORE DUP1 SWAP3 SWAP2 SWAP1 DUP2 DUP2 MSTORE PUSH1 0x20 ADD DUP3 DUP1 SLOAD PUSH2 0x2856 SWAP1 PUSH2 0x51A2 JUMP JUMPDEST DUP1 ISZERO PUSH2 0x28A1 JUMPI DUP1 PUSH1 0x1F LT PUSH2 0x2878 JUMPI PUSH2 0x100 DUP1 DUP4 SLOAD DIV MUL DUP4 MSTORE SWAP2 PUSH1 0x20 ADD SWAP2 PUSH2 0x28A1 JUMP JUMPDEST DUP3 ADD SWAP2 SWAP1 PUSH0 MSTORE PUSH1 0x20 PUSH0 KECCAK256 SWAP1 JUMPDEST DUP2 SLOAD DUP2 MSTORE SWAP1 PUSH1 0x1 ADD SWAP1 PUSH1 0x20 ADD DUP1 DUP4 GT PUSH2 0x2884 JUMPI DUP3 SWAP1 SUB PUSH1 0x1F AND DUP3 ADD SWAP2 JUMPDEST POP POP POP POP POP SWAP1 DUP1 PUSH1 0x2 ADD SLOAD SWAP1 DUP1 PUSH1 0x3 ADD SLOAD SWAP1 DUP1 PUSH1 0x4 ADD SLOAD SWAP1 DUP1 PUSH1 0x5 ADD SLOAD SWAP1 POP DUP7 JUMP JUMPDEST PUSH0 PUSH2 0x28CD DUP3 PUSH2 0x2BB9 JUMP JUMPDEST DUP1 ISZERO PUSH2 0x28F4 JUMPI POP PUSH1 0x1 PUSH1 0x1 PUSH1 0xA0 SHL SUB DUP3 AND PUSH0 SWAP1 DUP2 MSTORE PUSH1 0x10 PUSH1 0x20 MSTORE PUSH1 0x40 SWAP1 KECCAK256 PUSH1 0x6 ADD SLOAD PUSH1 0xFF AND ISZERO JUMPDEST SWAP3 SWAP2 POP POP JUMP JUMPDEST PUSH2 0x2903 DUP2 PUSH2 0x352D JUMP JUMPDEST POP JUMP JUMPDEST PUSH2 0x290E PUSH2 0x31F5 JUMP JUMPDEST PUSH2 0x2950 JUMPI PUSH1 0x40 MLOAD PUSH3 0x461BCD PUSH1 0xE5 SHL DUP2 MSTORE PUSH1 0x20 PUSH1 0x4 DUP3 ADD MSTORE PUSH1 0x13 PUSH1 0x24 DUP3 ADD MSTORE PUSH19 0x165BDD48185C99481B9BDD08185B1B1BDDD959 PUSH1 0x6A SHL PUSH1 0x44 DUP3 ADD MSTORE PUSH1 0x64 ADD PUSH2 0xE1A JUMP JUMPDEST DUP1 PUSH1 0x2 SUB PUSH2 0x2987 JUMPI POP PUSH1 0x1 PUSH0 MSTORE PUSH1 0xD PUSH1 0x20 MSTORE PUSH32 0xFD54FF1ED53F34A900B24C5BA64F85761163B5D82D98A47B9BD80E45466993CA SSTORE POP JUMP JUMPDEST DUP1 PUSH1 0x3 SUB PUSH2 0x29CD JUMPI PUSH1 0x1 PUSH1 0x1 PUSH1 0xA0 SHL SUB DUP4 AND PUSH0 SWAP1 DUP2 MSTORE PUSH1 0x18 PUSH1 0x20 SWAP1 DUP2 MSTORE PUSH1 0x40 DUP1 DUP4 KECCAK256 PUSH1 0x1 DUP5 MSTORE SWAP1 SWAP2 MSTORE DUP2 KECCAK256 DUP1 SLOAD DUP5 SWAP3 SWAP1 PUSH2 0x29C2 SWAP1 DUP5 SWAP1 PUSH2 0x51D4 JUMP JUMPDEST SWAP1 SWAP2 SSTORE POP PUSH2 0x2A85 SWAP1 POP JUMP JUMPDEST DUP1 PUSH1 0x4 SUB PUSH2 0x2A08 JUMPI PUSH1 0x1 PUSH1 0x1 PUSH1 0xA0 SHL SUB DUP4 AND PUSH0 SWAP1 DUP2 MSTORE PUSH1 0x18 PUSH1 0x20 SWAP1 DUP2 MSTORE PUSH1 0x40 DUP1 DUP4 KECCAK256 PUSH1 0x1 DUP5 MSTORE SWAP1 SWAP2 MSTORE DUP2 KECCAK256 DUP1 SLOAD DUP5 SWAP3 SWAP1 PUSH2 0x29C2 SWAP1 DUP5 SWAP1 PUSH2 0x50F1 JUMP JUMPDEST DUP1 PUSH1 0x5 SUB PUSH2 0x2A3A JUMPI PUSH1 0x1 PUSH1 0x1 PUSH1 0xA0 SHL SUB DUP4 AND PUSH0 SWAP1 DUP2 MSTORE PUSH1 0x10 PUSH1 0x20 MSTORE PUSH1 0x40 SWAP1 KECCAK256 PUSH1 0x6 ADD DUP1 SLOAD PUSH1 0xFF NOT AND PUSH1 0x1 OR SWAP1 SSTORE POP POP POP JUMP JUMPDEST DUP1 PUSH1 0x6 SUB PUSH2 0x2A67 JUMPI POP POP PUSH1 0x1 PUSH1 0x1 PUSH1 0xA0 SHL SUB AND PUSH0 SWAP1 DUP2 MSTORE PUSH1 0x10 PUSH1 0x20 MSTORE PUSH1 0x40 SWAP1 KECCAK256 PUSH1 0x6 ADD DUP1 SLOAD PUSH1 0xFF NOT AND SWAP1 SSTORE JUMP JUMPDEST DUP1 PUSH1 0x7 SUB PUSH2 0x2A8A JUMPI PUSH1 0x3 SLOAD PUSH2 0x2A85 SWAP1 PUSH1 0x1 PUSH1 0x1 PUSH1 0xA0 SHL SUB AND DUP4 PUSH2 0x32AC JUMP JUMPDEST POP POP POP JUMP JUMPDEST DUP1 PUSH1 0x8 SUB PUSH2 0x2AC5 JUMPI PUSH1 0x1 PUSH1 0x1 PUSH1 0xA0 SHL SUB DUP4 AND PUSH0 SWAP1 DUP2 MSTORE PUSH1 0x18 PUSH1 0x20 SWAP1 DUP2 MSTORE PUSH1 0x40 DUP1 DUP4 KECCAK256 PUSH1 0x2 DUP5 MSTORE SWAP1 SWAP2 MSTORE DUP2 KECCAK256 DUP1 SLOAD DUP5 SWAP3 SWAP1 PUSH2 0x29C2 SWAP1 DUP5 SWAP1 PUSH2 0x51D4 JUMP JUMPDEST DUP1 PUSH1 0x9 SUB PUSH2 0x2B00 JUMPI PUSH1 0x1 PUSH1 0x1 PUSH1 0xA0 SHL SUB DUP4 AND PUSH0 SWAP1 DUP2 MSTORE PUSH1 0x18 PUSH1 0x20 SWAP1 DUP2 MSTORE PUSH1 0x40 DUP1 DUP4 KECCAK256 PUSH1 0x2 DUP5 MSTORE SWAP1 SWAP2 MSTORE DUP2 KECCAK256 DUP1 SLOAD DUP5 SWAP3 SWAP1 PUSH2 0x29C2 SWAP1 DUP5 SWAP1 PUSH2 0x50F1 JUMP JUMPDEST DUP1 PUSH1 0xA SUB PUSH2 0x2B17 JUMPI PUSH1 0xC DUP1 SLOAD PUSH1 0xFF NOT AND SWAP1 SSTORE POP POP POP JUMP JUMPDEST DUP1 PUSH1 0xB SUB PUSH2 0x2B31 JUMPI PUSH1 0xC DUP1 SLOAD PUSH1 0xFF NOT AND PUSH1 0x1 OR SWAP1 SSTORE POP POP POP JUMP JUMPDEST DUP1 PUSH1 0xC SUB PUSH2 0x2A85 JUMPI PUSH1 0xC DUP1 SLOAD PUSH2 0x100 PUSH1 0x1 PUSH1 0xA8 SHL SUB NOT AND PUSH2 0x100 PUSH1 0x1 PUSH1 0x1 PUSH1 0xA0 SHL SUB DUP7 AND MUL OR SWAP1 SSTORE POP POP POP JUMP JUMPDEST CALLER PUSH0 SWAP1 DUP2 MSTORE PUSH1 0x10 PUSH1 0x20 MSTORE PUSH1 0x40 DUP2 KECCAK256 PUSH1 0x8 ADD SLOAD TIMESTAMP LT ISZERO PUSH2 0x2BA9 JUMPI PUSH1 0x40 MLOAD PUSH3 0x461BCD PUSH1 0xE5 SHL DUP2 MSTORE PUSH1 0x20 PUSH1 0x4 DUP3 ADD MSTORE PUSH1 0x7 PUSH1 0x24 DUP3 ADD MSTORE PUSH7 0x41637469766521 PUSH1 0xC8 SHL PUSH1 0x44 DUP3 ADD MSTORE PUSH1 0x64 ADD PUSH2 0xE1A JUMP JUMPDEST PUSH2 0x2BB4 CALLER TIMESTAMP PUSH0 PUSH2 0x35CC JUMP JUMPDEST SWAP1 POP SWAP1 JUMP JUMPDEST PUSH1 0x1 PUSH1 0x1 PUSH1 0xA0 SHL SUB AND PUSH0 SWAP1 DUP2 MSTORE PUSH1 0x10 PUSH1 0x20 MSTORE PUSH1 0x40 SWAP1 KECCAK256 SLOAD ISZERO ISZERO SWAP1 JUMP JUMPDEST PUSH0 DUP3 DUP2 MSTORE PUSH1 0xD PUSH1 0x20 MSTORE PUSH1 0x40 DUP2 KECCAK256 PUSH1 0x3 ADD SLOAD PUSH1 0xFF AND DUP1 ISZERO PUSH2 0x2C7C JUMPI POP PUSH0 DUP4 DUP2 MSTORE PUSH1 0xD PUSH1 0x20 MSTORE PUSH1 0x40 SWAP1 KECCAK256 PUSH1 0x3 ADD SLOAD PUSH2 0x100 SWAP1 DIV PUSH1 0xFF AND ISZERO DUP1 ISZERO PUSH2 0x2C25 JUMPI POP PUSH0 DUP4 DUP2 MSTORE PUSH1 0xD PUSH1 0x20 MSTORE PUSH1 0x40 SWAP1 KECCAK256 PUSH1 0x2 ADD SLOAD DUP3 EQ JUMPDEST DUP1 PUSH2 0x2C7C JUMPI POP PUSH0 DUP4 DUP2 MSTORE PUSH1 0xD PUSH1 0x20 MSTORE PUSH1 0x40 SWAP1 KECCAK256 PUSH1 0x3 ADD SLOAD PUSH2 0x100 SWAP1 DIV PUSH1 0xFF AND DUP1 ISZERO PUSH2 0x2C60 JUMPI POP PUSH0 DUP4 DUP2 MSTORE PUSH1 0xD PUSH1 0x20 MSTORE PUSH1 0x40 SWAP1 KECCAK256 PUSH1 0x4 ADD SLOAD DUP3 LT ISZERO JUMPDEST DUP1 ISZERO PUSH2 0x2C7C JUMPI POP PUSH0 DUP4 DUP2 MSTORE PUSH1 0xD PUSH1 0x20 MSTORE PUSH1 0x40 SWAP1 KECCAK256 PUSH1 0x5 ADD SLOAD DUP3 GT ISZERO JUMPDEST PUSH2 0x2CBA JUMPI PUSH1 0x40 MLOAD PUSH3 0x461BCD PUSH1 0xE5 SHL DUP2 MSTORE PUSH1 0x20 PUSH1 0x4 DUP3 ADD MSTORE PUSH1 0xF PUSH1 0x24 DUP3 ADD MSTORE PUSH15 0x496E76616C696420616D6F756E7421 PUSH1 0x88 SHL PUSH1 0x44 DUP3 ADD MSTORE PUSH1 0x64 ADD PUSH2 0xE1A JUMP JUMPDEST PUSH1 0x1 PUSH1 0x1 PUSH1 0xA0 SHL SUB DUP5 AND PUSH0 SWAP1 DUP2 MSTORE PUSH1 0x13 PUSH1 0x20 SWAP1 DUP2 MSTORE PUSH1 0x40 DUP1 DUP4 KECCAK256 PUSH1 0x19 DUP4 MSTORE DUP2 DUP5 KECCAK256 SLOAD DUP5 MSTORE SWAP1 SWAP2 MSTORE SWAP1 KECCAK256 PUSH1 0x1 ADD SLOAD DUP3 LT ISZERO PUSH2 0x2D5C JUMPI PUSH1 0x40 MLOAD PUSH3 0x461BCD PUSH1 0xE5 SHL DUP2 MSTORE PUSH1 0x20 PUSH1 0x4 DUP3 ADD MSTORE PUSH1 0x3D PUSH1 0x24 DUP3 ADD MSTORE PUSH32 0x416D6F756E74206D75737420626520657175616C20746F206F72206D6F726520 PUSH1 0x44 DUP3 ADD MSTORE PUSH32 0x7468616E2070726576696F7573206465706F73697420616D6F756E742E000000 PUSH1 0x64 DUP3 ADD MSTORE PUSH1 0x84 ADD PUSH2 0xE1A JUMP JUMPDEST PUSH0 TIMESTAMP SWAP1 POP DUP3 PUSH1 0x1 PUSH0 DUP3 DUP3 SLOAD PUSH2 0x2D71 SWAP2 SWAP1 PUSH2 0x51D4 JUMP JUMPDEST SWAP1 SWAP2 SSTORE POP POP PUSH1 0x1 PUSH1 0x1 PUSH1 0xA0 SHL SUB DUP6 DUP2 AND PUSH0 SWAP1 DUP2 MSTORE PUSH1 0x10 PUSH1 0x20 MSTORE PUSH1 0x40 SWAP1 KECCAK256 PUSH1 0x2 DUP2 ADD SLOAD PUSH1 0xA SWAP1 SWAP2 ADD SLOAD SWAP2 AND SWAP1 PUSH2 0x100 SWAP1 DIV PUSH1 0xFF AND PUSH2 0x2E02 JUMPI PUSH1 0x1 PUSH1 0x1 PUSH1 0xA0 SHL SUB DUP2 AND ISZERO PUSH2 0x2DF8 JUMPI PUSH1 0x1 PUSH1 0x1 PUSH1 0xA0 SHL SUB DUP2 DUP2 AND PUSH0 SWAP1 DUP2 MSTORE PUSH1 0x12 PUSH1 0x20 SWAP1 DUP2 MSTORE PUSH1 0x40 DUP3 KECCAK256 PUSH1 0x1 SWAP1 DUP2 ADD DUP1 SLOAD SWAP2 DUP3 ADD DUP2 SSTORE DUP4 MSTORE SWAP2 KECCAK256 ADD DUP1 SLOAD PUSH1 0x1 PUSH1 0x1 PUSH1 0xA0 SHL SUB NOT AND SWAP2 DUP9 AND SWAP2 SWAP1 SWAP2 OR SWAP1 SSTORE JUMPDEST PUSH2 0x2E02 DUP2 DUP8 PUSH2 0x3678 JUMP JUMPDEST PUSH1 0x1 PUSH1 0x1 PUSH1 0xA0 SHL SUB DUP7 AND PUSH0 SWAP1 DUP2 MSTORE PUSH1 0x10 PUSH1 0x20 MSTORE PUSH1 0x40 DUP2 KECCAK256 PUSH1 0x4 ADD DUP1 SLOAD DUP7 SWAP3 SWAP1 PUSH2 0x2E2C SWAP1 DUP5 SWAP1 PUSH2 0x51D4 JUMP JUMPDEST SWAP1 SWAP2 SSTORE POP POP PUSH1 0x1 PUSH1 0x1 PUSH1 0xA0 SHL SUB DUP2 AND PUSH0 SWAP1 DUP2 MSTORE PUSH1 0x12 PUSH1 0x20 MSTORE PUSH1 0x40 DUP2 KECCAK256 DUP1 SLOAD DUP7 SWAP3 SWAP1 PUSH2 0x2E58 SWAP1 DUP5 SWAP1 PUSH2 0x51D4 JUMP JUMPDEST SWAP1 SWAP2 SSTORE POP PUSH2 0x2E69 SWAP1 POP DUP2 DUP8 DUP7 PUSH2 0x3706 JUMP JUMPDEST PUSH1 0x40 DUP1 MLOAD PUSH1 0x60 DUP2 ADD DUP3 MSTORE DUP7 DUP2 MSTORE PUSH1 0x20 DUP2 ADD DUP7 SWAP1 MSTORE SWAP1 DUP2 ADD DUP4 SWAP1 MSTORE PUSH2 0x2E8E DUP8 DUP7 PUSH0 PUSH2 0x386E JUMP JUMPDEST PUSH1 0x1 PUSH1 0x1 PUSH1 0xA0 SHL SUB DUP8 AND PUSH0 SWAP1 DUP2 MSTORE PUSH1 0x13 PUSH1 0x20 SWAP1 DUP2 MSTORE PUSH1 0x40 DUP1 DUP4 KECCAK256 PUSH1 0x19 SWAP1 SWAP3 MSTORE DUP3 KECCAK256 SLOAD DUP4 SWAP3 SWAP1 PUSH2 0x2EBE SWAP1 PUSH1 0x1 PUSH2 0x51D4 JUMP JUMPDEST DUP2 MSTORE PUSH1 0x20 DUP1 DUP3 ADD SWAP3 SWAP1 SWAP3 MSTORE PUSH1 0x40 SWAP1 DUP2 ADD PUSH0 SWAP1 DUP2 KECCAK256 DUP5 MLOAD DUP2 SSTORE DUP5 DUP5 ADD MLOAD PUSH1 0x1 DUP3 ADD SSTORE SWAP4 DUP3 ADD MLOAD PUSH1 0x2 SWAP1 SWAP5 ADD SWAP4 SWAP1 SWAP4 SSTORE PUSH1 0x1 PUSH1 0x1 PUSH1 0xA0 SHL SUB DUP11 AND DUP4 MSTORE PUSH1 0x19 SWAP1 SWAP2 MSTORE DUP2 KECCAK256 DUP1 SLOAD SWAP2 PUSH2 0x2F0B DUP4 PUSH2 0x5118 JUMP JUMPDEST SWAP2 SWAP1 POP SSTORE POP PUSH2 0x2F1B DUP8 DUP5 DUP8 PUSH2 0x35CC JUMP JUMPDEST POP PUSH1 0x1 PUSH1 0x1 PUSH1 0xA0 SHL SUB DUP8 AND PUSH0 SWAP1 DUP2 MSTORE PUSH1 0x10 PUSH1 0x20 MSTORE PUSH1 0x40 SWAP1 KECCAK256 PUSH1 0xA ADD SLOAD PUSH2 0x100 SWAP1 DIV PUSH1 0xFF AND DUP1 ISZERO SWAP5 POP PUSH2 0x2FDE JUMPI PUSH1 0x1 PUSH1 0x1 PUSH1 0xA0 SHL SUB DUP8 AND PUSH0 DUP2 DUP2 MSTORE PUSH1 0x10 PUSH1 0x20 MSTORE PUSH1 0x40 DUP2 KECCAK256 PUSH1 0x7 ADD DUP6 SWAP1 SSTORE PUSH1 0x1A DUP1 SLOAD PUSH1 0x1 DUP2 ADD DUP3 SSTORE SWAP2 MSTORE PUSH32 0x57C384A7D1C54F3A1B2E5E67B2617B8224FDFD1EA7234EEA573A6FF665FF63E ADD DUP1 SLOAD PUSH1 0x1 PUSH1 0x1 PUSH1 0xA0 SHL SUB NOT AND SWAP1 SWAP2 OR SWAP1 SSTORE PUSH2 0x2FAD DUP8 DUP7 PUSH2 0x393B JUMP JUMPDEST PUSH2 0x2FB6 DUP6 PUSH2 0x3A36 JUMP JUMPDEST PUSH1 0x1 PUSH1 0x1 PUSH1 0xA0 SHL SUB DUP8 AND PUSH0 SWAP1 DUP2 MSTORE PUSH1 0x10 PUSH1 0x20 MSTORE PUSH1 0x40 SWAP1 KECCAK256 PUSH1 0xA ADD DUP1 SLOAD PUSH2 0xFF00 NOT AND PUSH2 0x100 OR SWAP1 SSTORE JUMPDEST POP POP POP SWAP4 SWAP3 POP POP POP JUMP JUMPDEST PUSH0 DUP2 DUP2 MSTORE PUSH1 0xE PUSH1 0x20 SWAP1 DUP2 MSTORE PUSH1 0x40 DUP1 DUP4 KECCAK256 PUSH1 0x2 ADD SLOAD PUSH1 0x1 PUSH1 0x1 PUSH1 0xA0 SHL SUB DUP7 AND DUP5 MSTORE PUSH1 0x10 SWAP1 SWAP3 MSTORE DUP3 KECCAK256 PUSH1 0x9 ADD SLOAD LT PUSH2 0x3020 JUMPI POP PUSH1 0x1 PUSH2 0x28F4 JUMP JUMPDEST POP PUSH0 SWAP3 SWAP2 POP POP JUMP JUMPDEST PUSH1 0x1 PUSH1 0x1 PUSH1 0xA0 SHL SUB DUP2 AND PUSH0 SWAP1 DUP2 MSTORE PUSH1 0x17 PUSH1 0x20 SWAP1 DUP2 MSTORE PUSH1 0x40 DUP1 DUP4 KECCAK256 DUP2 MLOAD PUSH1 0xE0 DUP2 ADD DUP4 MSTORE DUP2 SLOAD DUP2 MSTORE PUSH1 0x1 DUP3 ADD SLOAD DUP2 DUP6 ADD MSTORE PUSH1 0x2 DUP3 ADD SLOAD DUP2 DUP5 ADD MSTORE PUSH1 0x3 DUP3 ADD DUP1 SLOAD DUP5 MLOAD DUP2 DUP8 MUL DUP2 ADD DUP8 ADD SWAP1 SWAP6 MSTORE DUP1 DUP6 MSTORE DUP7 SWAP6 DUP7 SWAP6 SWAP4 SWAP5 SWAP4 PUSH1 0x60 DUP7 ADD SWAP4 SWAP1 SWAP3 SWAP1 SWAP2 DUP4 ADD DUP3 DUP3 DUP1 ISZERO PUSH2 0x30B2 JUMPI PUSH1 0x20 MUL DUP3 ADD SWAP2 SWAP1 PUSH0 MSTORE PUSH1 0x20 PUSH0 KECCAK256 SWAP1 JUMPDEST DUP2 SLOAD DUP2 MSTORE PUSH1 0x20 ADD SWAP1 PUSH1 0x1 ADD SWAP1 DUP1 DUP4 GT PUSH2 0x309E JUMPI JUMPDEST POP POP POP POP POP DUP2 MSTORE PUSH1 0x20 ADD PUSH1 0x4 DUP3 ADD SLOAD DUP2 MSTORE PUSH1 0x20 ADD PUSH1 0x5 DUP3 ADD SLOAD DUP2 MSTORE PUSH1 0x20 ADD PUSH1 0x6 DUP3 ADD SLOAD DUP2 MSTORE POP POP SWAP1 POP PUSH0 JUMPDEST DUP2 PUSH1 0x60 ADD MLOAD MLOAD DUP2 LT ISZERO PUSH2 0x3127 JUMPI DUP2 PUSH1 0x60 ADD MLOAD DUP2 DUP2 MLOAD DUP2 LT PUSH2 0x3100 JUMPI PUSH2 0x3100 PUSH2 0x5130 JUMP JUMPDEST PUSH1 0x20 MUL PUSH1 0x20 ADD ADD MLOAD DUP4 PUSH2 0x3113 SWAP2 SWAP1 PUSH2 0x51D4 JUMP JUMPDEST SWAP3 POP DUP1 PUSH2 0x311F DUP2 PUSH2 0x5118 JUMP JUMPDEST SWAP2 POP POP PUSH2 0x30DD JUMP JUMPDEST POP SWAP1 SWAP4 SWAP3 POP POP POP JUMP JUMPDEST PUSH1 0x1 PUSH1 0x1 PUSH1 0xA0 SHL SUB DUP2 AND PUSH0 SWAP1 DUP2 MSTORE PUSH1 0x10 PUSH1 0x20 MSTORE PUSH1 0x40 DUP2 KECCAK256 PUSH1 0x4 DUP2 ADD SLOAD PUSH1 0x8 SWAP1 SWAP2 ADD SLOAD DUP3 SWAP1 TIMESTAMP LT PUSH2 0x3180 JUMPI PUSH1 0x64 PUSH2 0x3167 DUP4 PUSH1 0xA PUSH2 0x50DA JUMP JUMPDEST PUSH2 0x3171 SWAP2 SWAP1 PUSH2 0x5215 JUMP JUMPDEST SWAP1 POP PUSH2 0x317D DUP5 DUP3 PUSH2 0x3EB0 JUMP JUMPDEST SWAP1 POP JUMPDEST SWAP4 SWAP3 POP POP POP JUMP JUMPDEST PUSH0 PUSH2 0x3191 DUP3 PUSH2 0x3028 JUMP JUMPDEST PUSH1 0x1 PUSH1 0x1 PUSH1 0xA0 SHL SUB DUP4 AND PUSH0 SWAP1 DUP2 MSTORE PUSH1 0x17 PUSH1 0x20 MSTORE PUSH1 0x40 SWAP1 KECCAK256 PUSH1 0x5 DUP2 ADD SLOAD PUSH1 0x1 DUP3 ADD SLOAD PUSH1 0x4 DUP4 ADD SLOAD PUSH1 0x2 DUP5 ADD SLOAD SWAP4 SLOAD SWAP3 SWAP4 SWAP2 SWAP3 SWAP1 SWAP2 PUSH2 0x31CD SWAP2 PUSH2 0x51D4 JUMP JUMPDEST PUSH2 0x31D7 SWAP2 SWAP1 PUSH2 0x51D4 JUMP JUMPDEST PUSH2 0x31E1 SWAP2 SWAP1 PUSH2 0x51D4 JUMP JUMPDEST PUSH2 0x31EB SWAP2 SWAP1 PUSH2 0x51D4 JUMP JUMPDEST PUSH2 0x28F4 SWAP2 SWAP1 PUSH2 0x51D4 JUMP JUMPDEST PUSH1 0x3 SLOAD PUSH0 SWAP1 PUSH1 0x1 PUSH1 0x1 PUSH1 0xA0 SHL SUB AND CALLER EQ DUP1 PUSH2 0x2BB4 JUMPI POP POP PUSH1 0xC SLOAD PUSH2 0x100 SWAP1 DIV PUSH1 0x1 PUSH1 0x1 PUSH1 0xA0 SHL SUB AND CALLER EQ SWAP1 JUMP JUMPDEST PUSH1 0x40 MLOAD PUSH4 0x70A08231 PUSH1 0xE0 SHL DUP2 MSTORE ADDRESS PUSH1 0x4 DUP3 ADD MSTORE PUSH0 SWAP1 PUSH20 0xAC17996D3A9A3081F626CD56E904A70E9DADF892 SWAP1 PUSH4 0x70A08231 SWAP1 PUSH1 0x24 ADD PUSH1 0x20 PUSH1 0x40 MLOAD DUP1 DUP4 SUB DUP2 DUP7 GAS STATICCALL ISZERO DUP1 ISZERO PUSH2 0x3271 JUMPI RETURNDATASIZE PUSH0 DUP1 RETURNDATACOPY RETURNDATASIZE PUSH0 REVERT JUMPDEST POP POP POP POP PUSH1 0x40 MLOAD RETURNDATASIZE PUSH1 0x1F NOT PUSH1 0x1F DUP3 ADD AND DUP3 ADD DUP1 PUSH1 0x40 MSTORE POP DUP2 ADD SWAP1 PUSH2 0x2BB4 SWAP2 SWAP1 PUSH2 0x5234 JUMP JUMPDEST PUSH0 PUSH2 0x32A2 PUSH1 0x12 PUSH1 0xA PUSH2 0x532B JUMP JUMPDEST PUSH2 0x28F4 SWAP1 DUP4 PUSH2 0x50DA JUMP JUMPDEST PUSH1 0x40 MLOAD PUSH4 0xA9059CBB PUSH1 0xE0 SHL DUP2 MSTORE PUSH1 0x1 PUSH1 0x1 PUSH1 0xA0 SHL SUB DUP4 AND PUSH1 0x4 DUP3 ADD MSTORE PUSH1 0x24 DUP2 ADD DUP3 SWAP1 MSTORE PUSH20 0xAC17996D3A9A3081F626CD56E904A70E9DADF892 SWAP1 PUSH4 0xA9059CBB SWAP1 PUSH1 0x44 ADD PUSH1 0x20 PUSH1 0x40 MLOAD DUP1 DUP4 SUB DUP2 PUSH0 DUP8 GAS CALL ISZERO DUP1 ISZERO PUSH2 0x330A JUMPI RETURNDATASIZE PUSH0 DUP1 RETURNDATACOPY RETURNDATASIZE PUSH0 REVERT JUMPDEST POP POP POP POP PUSH1 0x40 MLOAD RETURNDATASIZE PUSH1 0x1F NOT PUSH1 0x1F DUP3 ADD AND DUP3 ADD DUP1 PUSH1 0x40 MSTORE POP DUP2 ADD SWAP1 PUSH2 0x2A85 SWAP2 SWAP1 PUSH2 0x5336 JUMP JUMPDEST PUSH1 0x7 SLOAD PUSH1 0x1 PUSH1 0x1 PUSH1 0xA0 SHL SUB AND PUSH2 0x3386 JUMPI PUSH1 0x40 MLOAD PUSH3 0x461BCD PUSH1 0xE5 SHL DUP2 MSTORE PUSH1 0x20 PUSH1 0x4 DUP3 ADD MSTORE PUSH1 0x1E PUSH1 0x24 DUP3 ADD MSTORE PUSH32 0x53656375726974792066756E6420636F6E7472616374206E6F74207365740000 PUSH1 0x44 DUP3 ADD MSTORE PUSH1 0x64 ADD PUSH2 0xE1A JUMP JUMPDEST PUSH1 0x7 SLOAD PUSH1 0x40 MLOAD PUSH4 0x58908A0F PUSH1 0xE0 SHL DUP2 MSTORE PUSH20 0xAC17996D3A9A3081F626CD56E904A70E9DADF892 PUSH1 0x4 DUP3 ADD MSTORE PUSH1 0x1 PUSH1 0x1 PUSH1 0xA0 SHL SUB DUP5 DUP2 AND PUSH1 0x24 DUP4 ADD MSTORE PUSH1 0x44 DUP3 ADD DUP5 SWAP1 MSTORE SWAP1 SWAP2 AND SWAP1 PUSH4 0x58908A0F SWAP1 PUSH1 0x64 ADD PUSH0 PUSH1 0x40 MLOAD DUP1 DUP4 SUB DUP2 PUSH0 DUP8 DUP1 EXTCODESIZE ISZERO DUP1 ISZERO PUSH2 0x33EB JUMPI PUSH0 DUP1 REVERT JUMPDEST POP GAS CALL ISZERO DUP1 ISZERO PUSH2 0x1C85 JUMPI RETURNDATASIZE PUSH0 DUP1 RETURNDATACOPY RETURNDATASIZE PUSH0 REVERT JUMPDEST CALLER PUSH2 0x3407 DUP2 PUSH2 0x2BB9 JUMP JUMPDEST PUSH2 0x344D JUMPI PUSH1 0x40 MLOAD PUSH3 0x461BCD PUSH1 0xE5 SHL DUP2 MSTORE PUSH1 0x20 PUSH1 0x4 DUP3 ADD MSTORE PUSH1 0x17 PUSH1 0x24 DUP3 ADD MSTORE PUSH23 0x596F7520617265206E6F74207265676973746572656421 PUSH1 0x48 SHL PUSH1 0x44 DUP3 ADD MSTORE PUSH1 0x64 ADD PUSH2 0xE1A JUMP JUMPDEST PUSH1 0x1 PUSH1 0x1 PUSH1 0xA0 SHL SUB DUP2 AND PUSH0 SWAP1 DUP2 MSTORE PUSH1 0x10 PUSH1 0x20 MSTORE PUSH1 0x40 SWAP1 KECCAK256 PUSH1 0x8 ADD SLOAD TIMESTAMP LT ISZERO PUSH2 0x3487 JUMPI PUSH1 0x40 MLOAD PUSH3 0x461BCD PUSH1 0xE5 SHL DUP2 MSTORE PUSH1 0x4 ADD PUSH2 0xE1A SWAP1 PUSH2 0x5159 JUMP JUMPDEST PUSH2 0x3490 DUP3 PUSH2 0x3F54 JUMP JUMPDEST PUSH0 PUSH2 0x349C DUP3 DUP6 DUP6 PUSH2 0x2BD5 JUMP JUMPDEST PUSH1 0x3 SLOAD SWAP1 SWAP2 POP PUSH2 0x34CB SWAP1 PUSH1 0x1 PUSH1 0x1 PUSH1 0xA0 SHL SUB AND PUSH1 0x64 PUSH2 0x34BC DUP7 PUSH1 0x2 PUSH2 0x50DA JUMP JUMPDEST PUSH2 0x34C6 SWAP2 SWAP1 PUSH2 0x5215 JUMP JUMPDEST PUSH2 0x32AC JUMP JUMPDEST PUSH1 0x4 SLOAD PUSH2 0x34E8 SWAP1 PUSH1 0x1 PUSH1 0x1 PUSH1 0xA0 SHL SUB AND PUSH1 0x64 PUSH2 0x34BC DUP7 PUSH1 0x1 PUSH2 0x50DA JUMP JUMPDEST PUSH1 0x6 SLOAD PUSH2 0x3505 SWAP1 PUSH1 0x1 PUSH1 0x1 PUSH1 0xA0 SHL SUB AND PUSH1 0x64 PUSH2 0x34BC DUP7 PUSH1 0x5 PUSH2 0x50DA JUMP JUMPDEST DUP1 PUSH2 0x3527 JUMPI PUSH1 0x5 SLOAD PUSH2 0x3527 SWAP1 PUSH1 0x1 PUSH1 0x1 PUSH1 0xA0 SHL SUB AND PUSH1 0x64 PUSH2 0x34BC DUP7 PUSH1 0x2 PUSH2 0x50DA JUMP JUMPDEST POP POP POP POP JUMP JUMPDEST CALLER PUSH2 0x3537 DUP3 PUSH2 0x28C3 JUMP JUMPDEST PUSH2 0x3576 JUMPI PUSH1 0x40 MLOAD PUSH3 0x461BCD PUSH1 0xE5 SHL DUP2 MSTORE PUSH1 0x20 PUSH1 0x4 DUP3 ADD MSTORE PUSH1 0x10 PUSH1 0x24 DUP3 ADD MSTORE PUSH16 0x496E76616C69642073706F6E736F7221 PUSH1 0x80 SHL PUSH1 0x44 DUP3 ADD MSTORE PUSH1 0x64 ADD PUSH2 0xE1A JUMP JUMPDEST PUSH2 0x357F DUP2 PUSH2 0x2BB9 JUMP JUMPDEST ISZERO PUSH2 0x35C2 JUMPI PUSH1 0x40 MLOAD PUSH3 0x461BCD PUSH1 0xE5 SHL DUP2 MSTORE PUSH1 0x20 PUSH1 0x4 DUP3 ADD MSTORE PUSH1 0x13 PUSH1 0x24 DUP3 ADD MSTORE PUSH19 0x416C7265616479207265676973746572656421 PUSH1 0x68 SHL PUSH1 0x44 DUP3 ADD MSTORE PUSH1 0x64 ADD PUSH2 0xE1A JUMP JUMPDEST PUSH2 0x257C DUP2 DUP4 PUSH2 0x4036 JUMP JUMPDEST PUSH1 0x1 PUSH1 0x1 PUSH1 0xA0 SHL SUB DUP4 AND PUSH0 SWAP1 DUP2 MSTORE PUSH1 0x19 PUSH1 0x20 MSTORE PUSH1 0x40 DUP2 KECCAK256 PUSH1 0x3 ADD SLOAD DUP2 SWAP1 PUSH2 0x35F5 SWAP1 PUSH1 0x2 SWAP1 PUSH2 0x5215 JUMP JUMPDEST PUSH2 0x3600 SWAP1 PUSH1 0xA PUSH2 0x51D4 JUMP JUMPDEST SWAP1 POP PUSH0 PUSH2 0x3610 DUP3 PUSH3 0x15180 PUSH2 0x50DA JUMP JUMPDEST PUSH2 0x361A SWAP1 DUP7 PUSH2 0x51D4 JUMP JUMPDEST PUSH1 0x1 PUSH1 0x1 PUSH1 0xA0 SHL SUB DUP8 AND PUSH0 SWAP1 DUP2 MSTORE PUSH1 0x10 PUSH1 0x20 SWAP1 DUP2 MSTORE PUSH1 0x40 DUP1 DUP4 KECCAK256 PUSH1 0x8 ADD DUP5 SWAP1 SSTORE PUSH1 0x19 SWAP1 SWAP2 MSTORE DUP2 KECCAK256 PUSH1 0x3 ADD DUP1 SLOAD SWAP3 SWAP4 POP SWAP1 PUSH2 0x3653 DUP4 PUSH2 0x5118 JUMP JUMPDEST SWAP2 SWAP1 POP SSTORE POP PUSH2 0x3663 DUP7 DUP7 DUP7 PUSH2 0x441C JUMP JUMPDEST PUSH2 0x366C DUP7 PUSH2 0x4528 JUMP JUMPDEST POP PUSH1 0x1 SWAP6 SWAP5 POP POP POP POP POP JUMP JUMPDEST PUSH1 0x1 PUSH1 0x1 PUSH1 0xA0 SHL SUB DUP3 AND ISZERO PUSH2 0x257C JUMPI PUSH1 0x1 PUSH1 0x1 PUSH1 0xA0 SHL SUB DUP3 AND PUSH0 SWAP1 DUP2 MSTORE PUSH1 0x10 PUSH1 0x20 MSTORE PUSH1 0x40 DUP2 KECCAK256 PUSH1 0x5 ADD DUP1 SLOAD SWAP2 PUSH2 0x36AD DUP4 PUSH2 0x5118 JUMP JUMPDEST SWAP1 SWAP2 SSTORE POP POP PUSH1 0x1 PUSH1 0x1 PUSH1 0xA0 SHL SUB SWAP2 DUP3 AND PUSH0 DUP2 DUP2 MSTORE PUSH1 0x12 PUSH1 0x20 SWAP1 DUP2 MSTORE PUSH1 0x40 DUP1 DUP4 KECCAK256 PUSH1 0x5 ADD DUP1 SLOAD PUSH1 0x1 DUP2 ADD DUP3 SSTORE SWAP1 DUP5 MSTORE DUP3 DUP5 KECCAK256 ADD DUP1 SLOAD PUSH1 0x1 PUSH1 0x1 PUSH1 0xA0 SHL SUB NOT AND DUP7 DUP9 AND OR SWAP1 SSTORE SWAP3 DUP3 MSTORE PUSH1 0x10 SWAP1 MSTORE KECCAK256 PUSH1 0x2 ADD SLOAD SWAP1 SWAP2 AND SWAP1 PUSH2 0x3678 JUMP JUMPDEST PUSH2 0x370F DUP3 PUSH2 0x469A JUMP JUMPDEST PUSH1 0x1 JUMPDEST PUSH1 0x1 PUSH1 0x1 PUSH1 0xA0 SHL SUB DUP5 AND ISZERO PUSH2 0x3527 JUMPI PUSH1 0x1 PUSH1 0x1 PUSH1 0xA0 SHL SUB DUP5 AND PUSH0 SWAP1 DUP2 MSTORE PUSH1 0x12 PUSH1 0x20 MSTORE PUSH1 0x40 SWAP1 KECCAK256 PUSH1 0x2 ADD SLOAD DUP3 GT ISZERO PUSH2 0x379C JUMPI PUSH1 0x1 PUSH1 0x1 PUSH1 0xA0 SHL SUB DUP5 AND PUSH0 SWAP1 DUP2 MSTORE PUSH1 0x12 PUSH1 0x20 MSTORE PUSH1 0x40 DUP2 KECCAK256 PUSH1 0x2 DUP2 ADD SLOAD PUSH1 0x3 SWAP1 SWAP2 ADD DUP1 SLOAD SWAP2 SWAP3 SWAP1 SWAP2 PUSH2 0x3775 SWAP1 DUP5 SWAP1 PUSH2 0x51D4 JUMP JUMPDEST SWAP1 SWAP2 SSTORE POP POP PUSH1 0x1 PUSH1 0x1 PUSH1 0xA0 SHL SUB DUP5 AND PUSH0 SWAP1 DUP2 MSTORE PUSH1 0x12 PUSH1 0x20 MSTORE PUSH1 0x40 SWAP1 KECCAK256 PUSH1 0x2 ADD DUP3 SWAP1 SSTORE PUSH2 0x37CC JUMP JUMPDEST PUSH1 0x1 PUSH1 0x1 PUSH1 0xA0 SHL SUB DUP5 AND PUSH0 SWAP1 DUP2 MSTORE PUSH1 0x12 PUSH1 0x20 MSTORE PUSH1 0x40 DUP2 KECCAK256 PUSH1 0x3 ADD DUP1 SLOAD DUP5 SWAP3 SWAP1 PUSH2 0x37C6 SWAP1 DUP5 SWAP1 PUSH2 0x51D4 JUMP JUMPDEST SWAP1 SWAP2 SSTORE POP POP JUMPDEST PUSH1 0x1 PUSH1 0x1 PUSH1 0xA0 SHL SUB DUP5 AND PUSH0 SWAP1 DUP2 MSTORE PUSH1 0x12 PUSH1 0x20 MSTORE PUSH1 0x40 DUP2 KECCAK256 PUSH1 0x4 ADD DUP1 SLOAD DUP5 SWAP3 SWAP1 PUSH2 0x37F6 SWAP1 DUP5 SWAP1 PUSH2 0x51D4 JUMP JUMPDEST SWAP1 SWAP2 SSTORE POP POP PUSH1 0x1 PUSH1 0x1 PUSH1 0xA0 SHL SUB DUP5 AND PUSH0 SWAP1 DUP2 MSTORE PUSH1 0x15 PUSH1 0x20 SWAP1 DUP2 MSTORE PUSH1 0x40 DUP1 DUP4 KECCAK256 DUP5 DUP5 MSTORE SWAP1 SWAP2 MSTORE DUP2 KECCAK256 DUP1 SLOAD DUP5 SWAP3 SWAP1 PUSH2 0x382D SWAP1 DUP5 SWAP1 PUSH2 0x51D4 JUMP JUMPDEST SWAP1 SWAP2 SSTORE POP PUSH2 0x383C SWAP1 POP DUP5 PUSH2 0x469A JUMP JUMPDEST PUSH1 0x1 PUSH1 0x1 PUSH1 0xA0 SHL SUB SWAP4 DUP5 AND PUSH0 SWAP1 DUP2 MSTORE PUSH1 0x10 PUSH1 0x20 MSTORE PUSH1 0x40 SWAP1 KECCAK256 PUSH1 0x2 ADD SLOAD SWAP1 SWAP4 AND SWAP3 DUP1 PUSH2 0x3866 DUP2 PUSH2 0x5118 JUMP JUMPDEST SWAP2 POP POP PUSH2 0x3712 JUMP JUMPDEST PUSH1 0x1 PUSH1 0x1 PUSH1 0xA0 SHL SUB DUP4 AND PUSH0 SWAP1 DUP2 MSTORE PUSH1 0x10 PUSH1 0x20 MSTORE PUSH1 0x40 SWAP1 KECCAK256 PUSH1 0xA ADD SLOAD PUSH1 0xFF AND ISZERO DUP1 ISZERO PUSH2 0x38EB JUMPI POP PUSH1 0x1 PUSH1 0x1 PUSH1 0xA0 SHL SUB DUP4 AND PUSH0 SWAP1 DUP2 MSTORE PUSH1 0x10 PUSH1 0x20 MSTORE PUSH1 0x40 SWAP1 KECCAK256 PUSH1 0xA ADD SLOAD PUSH2 0x100 SWAP1 DIV PUSH1 0xFF AND ISZERO DUP1 PUSH2 0x38EB JUMPI POP PUSH1 0x1 PUSH1 0x1 PUSH1 0xA0 SHL SUB DUP4 AND PUSH0 SWAP1 DUP2 MSTORE PUSH1 0x10 PUSH1 0x20 MSTORE PUSH1 0x40 SWAP1 KECCAK256 PUSH1 0x7 ADD SLOAD TIMESTAMP SWAP1 PUSH2 0x38E8 SWAP1 PUSH3 0x3B5380 PUSH2 0x51D4 JUMP JUMPDEST LT ISZERO JUMPDEST DUP1 ISZERO PUSH2 0x390C JUMPI POP PUSH2 0x38FD PUSH2 0x7D0 PUSH2 0x3295 JUMP JUMPDEST DUP3 LT ISZERO DUP1 PUSH2 0x390C JUMPI POP PUSH1 0x1 DUP2 LT ISZERO JUMPDEST ISZERO PUSH2 0x2A85 JUMPI PUSH1 0x1 PUSH1 0x1 PUSH1 0xA0 SHL SUB DUP4 AND PUSH0 SWAP1 DUP2 MSTORE PUSH1 0x10 PUSH1 0x20 MSTORE PUSH1 0x40 SWAP1 KECCAK256 PUSH1 0xA ADD DUP1 SLOAD PUSH1 0xFF NOT AND PUSH1 0x1 OR SWAP1 SSTORE POP POP POP JUMP JUMPDEST PUSH0 PUSH2 0xBB8 DUP3 LT PUSH2 0x3956 JUMPI PUSH2 0x394F PUSH1 0x28 PUSH2 0x3295 JUMP JUMPDEST SWAP1 POP PUSH2 0x39A5 JUMP JUMPDEST PUSH2 0x7D0 DUP3 LT PUSH2 0x3969 JUMPI PUSH2 0x394F PUSH1 0x1E PUSH2 0x3295 JUMP JUMPDEST PUSH2 0x3E8 DUP3 LT PUSH2 0x397C JUMPI PUSH2 0x394F PUSH1 0x14 PUSH2 0x3295 JUMP JUMPDEST PUSH2 0x1F4 DUP3 LT PUSH2 0x398F JUMPI PUSH2 0x394F PUSH1 0xC PUSH2 0x3295 JUMP JUMPDEST PUSH2 0x12C DUP3 LT PUSH2 0x39A5 JUMPI PUSH2 0x39A2 PUSH1 0x7 PUSH2 0x3295 JUMP JUMPDEST SWAP1 POP JUMPDEST PUSH0 DUP2 GT DUP1 ISZERO PUSH2 0x39CC JUMPI POP PUSH1 0x1 PUSH1 0x1 PUSH1 0xA0 SHL SUB DUP4 AND PUSH0 SWAP1 DUP2 MSTORE PUSH1 0x17 PUSH1 0x20 MSTORE PUSH1 0x40 SWAP1 KECCAK256 PUSH1 0x1 ADD SLOAD ISZERO JUMPDEST DUP1 ISZERO PUSH2 0x39F8 JUMPI POP PUSH1 0x1 PUSH1 0x1 PUSH1 0xA0 SHL SUB DUP4 AND PUSH0 SWAP1 DUP2 MSTORE PUSH1 0x10 PUSH1 0x20 MSTORE PUSH1 0x40 SWAP1 KECCAK256 PUSH1 0xA ADD SLOAD PUSH2 0x100 SWAP1 DIV PUSH1 0xFF AND ISZERO JUMPDEST ISZERO PUSH2 0x2A85 JUMPI PUSH2 0x3A07 DUP4 DUP3 PUSH2 0x48B3 JUMP JUMPDEST PUSH1 0x1 PUSH1 0x1 PUSH1 0xA0 SHL SUB DUP5 AND PUSH0 SWAP1 DUP2 MSTORE PUSH1 0x17 PUSH1 0x20 MSTORE PUSH1 0x40 DUP2 KECCAK256 PUSH1 0x1 ADD DUP1 SLOAD SWAP3 SWAP4 POP DUP4 SWAP3 SWAP1 SWAP2 SWAP1 PUSH2 0x1963 SWAP1 DUP5 SWAP1 PUSH2 0x51D4 JUMP JUMPDEST PUSH0 PUSH2 0x3A44 PUSH3 0x15180 TIMESTAMP PUSH2 0x50F1 JUMP JUMPDEST PUSH1 0x1A SLOAD SWAP1 SWAP2 POP PUSH0 SWAP1 PUSH8 0xFFFFFFFFFFFFFFFF DUP2 GT ISZERO PUSH2 0x3A64 JUMPI PUSH2 0x3A64 PUSH2 0x5104 JUMP JUMPDEST PUSH1 0x40 MLOAD SWAP1 DUP1 DUP3 MSTORE DUP1 PUSH1 0x20 MUL PUSH1 0x20 ADD DUP3 ADD PUSH1 0x40 MSTORE DUP1 ISZERO PUSH2 0x3AA8 JUMPI DUP2 PUSH1 0x20 ADD JUMPDEST PUSH1 0x40 DUP1 MLOAD DUP1 DUP3 ADD SWAP1 SWAP2 MSTORE PUSH0 DUP1 DUP3 MSTORE PUSH1 0x20 DUP3 ADD MSTORE DUP2 MSTORE PUSH1 0x20 ADD SWAP1 PUSH1 0x1 SWAP1 SUB SWAP1 DUP2 PUSH2 0x3A82 JUMPI SWAP1 POP JUMPDEST POP PUSH1 0x1A SLOAD SWAP1 SWAP2 POP PUSH0 SWAP1 JUMPDEST DUP1 ISZERO PUSH2 0x3C26 JUMPI PUSH0 PUSH1 0x1A PUSH2 0x3AC6 PUSH1 0x1 DUP5 PUSH2 0x50F1 JUMP JUMPDEST DUP2 SLOAD DUP2 LT PUSH2 0x3AD6 JUMPI PUSH2 0x3AD6 PUSH2 0x5130 JUMP JUMPDEST PUSH0 SWAP2 DUP3 MSTORE PUSH1 0x20 DUP1 DUP4 KECCAK256 SWAP1 SWAP2 ADD SLOAD PUSH1 0x1 PUSH1 0x1 PUSH1 0xA0 SHL SUB AND DUP1 DUP4 MSTORE PUSH1 0x10 SWAP1 SWAP2 MSTORE PUSH1 0x40 SWAP1 SWAP2 KECCAK256 PUSH1 0x7 ADD SLOAD SWAP1 SWAP2 POP DUP6 GT ISZERO PUSH2 0x3B0D JUMPI POP PUSH2 0x3C26 JUMP JUMPDEST PUSH1 0x1 PUSH1 0x1 PUSH1 0xA0 SHL SUB DUP1 DUP3 AND PUSH0 SWAP1 DUP2 MSTORE PUSH1 0x10 PUSH1 0x20 MSTORE PUSH1 0x40 SWAP1 KECCAK256 PUSH1 0x2 ADD SLOAD AND DUP1 PUSH2 0x3B36 JUMPI POP POP PUSH2 0x3C14 JUMP JUMPDEST PUSH0 DUP1 JUMPDEST DUP6 DUP2 LT ISZERO PUSH2 0x3BBF JUMPI DUP3 PUSH1 0x1 PUSH1 0x1 PUSH1 0xA0 SHL SUB AND DUP8 DUP3 DUP2 MLOAD DUP2 LT PUSH2 0x3B5D JUMPI PUSH2 0x3B5D PUSH2 0x5130 JUMP JUMPDEST PUSH1 0x20 MUL PUSH1 0x20 ADD ADD MLOAD PUSH0 ADD MLOAD PUSH1 0x1 PUSH1 0x1 PUSH1 0xA0 SHL SUB AND SUB PUSH2 0x3BAD JUMPI DUP7 DUP2 DUP2 MLOAD DUP2 LT PUSH2 0x3B88 JUMPI PUSH2 0x3B88 PUSH2 0x5130 JUMP JUMPDEST PUSH1 0x20 MUL PUSH1 0x20 ADD ADD MLOAD PUSH1 0x20 ADD DUP1 MLOAD DUP1 SWAP2 SWAP1 PUSH2 0x3BA1 SWAP1 PUSH2 0x5118 JUMP JUMPDEST SWAP1 MSTORE POP PUSH1 0x1 SWAP2 POP PUSH2 0x3BBF JUMP JUMPDEST DUP1 PUSH2 0x3BB7 DUP2 PUSH2 0x5118 JUMP JUMPDEST SWAP2 POP POP PUSH2 0x3B39 JUMP JUMPDEST POP DUP1 PUSH2 0x3C10 JUMPI PUSH1 0x40 MLOAD DUP1 PUSH1 0x40 ADD PUSH1 0x40 MSTORE DUP1 DUP4 PUSH1 0x1 PUSH1 0x1 PUSH1 0xA0 SHL SUB AND DUP2 MSTORE PUSH1 0x20 ADD PUSH1 0x1 DUP2 MSTORE POP DUP7 DUP7 DUP2 MLOAD DUP2 LT PUSH2 0x3BF6 JUMPI PUSH2 0x3BF6 PUSH2 0x5130 JUMP JUMPDEST PUSH1 0x20 MUL PUSH1 0x20 ADD ADD DUP2 SWAP1 MSTORE POP DUP5 DUP1 PUSH2 0x3C0C SWAP1 PUSH2 0x5118 JUMP JUMPDEST SWAP6 POP POP JUMPDEST POP POP POP JUMPDEST DUP1 PUSH2 0x3C1E DUP2 PUSH2 0x5144 JUMP JUMPDEST SWAP2 POP POP PUSH2 0x3AB2 JUMP JUMPDEST POP PUSH2 0x3C2F PUSH2 0x496C JUMP JUMPDEST PUSH2 0x3C37 PUSH2 0x496C JUMP JUMPDEST PUSH0 JUMPDEST DUP4 DUP2 LT ISZERO PUSH2 0x3DB2 JUMPI PUSH0 DUP6 DUP3 DUP2 MLOAD DUP2 LT PUSH2 0x3C54 JUMPI PUSH2 0x3C54 PUSH2 0x5130 JUMP JUMPDEST PUSH1 0x20 MUL PUSH1 0x20 ADD ADD MLOAD PUSH0 ADD MLOAD SWAP1 POP PUSH0 DUP7 DUP4 DUP2 MLOAD DUP2 LT PUSH2 0x3C74 JUMPI PUSH2 0x3C74 PUSH2 0x5130 JUMP JUMPDEST PUSH1 0x20 MUL PUSH1 0x20 ADD ADD MLOAD PUSH1 0x20 ADD MLOAD SWAP1 POP PUSH0 JUMPDEST PUSH1 0x3 DUP2 LT ISZERO PUSH2 0x3D9C JUMPI DUP5 DUP2 PUSH1 0x3 DUP2 LT PUSH2 0x3C9F JUMPI PUSH2 0x3C9F PUSH2 0x5130 JUMP JUMPDEST PUSH1 0x20 MUL ADD MLOAD DUP3 GT ISZERO PUSH2 0x3D8A JUMPI PUSH1 0x2 JUMPDEST DUP2 DUP2 GT ISZERO PUSH2 0x3D46 JUMPI DUP6 PUSH2 0x3CC2 PUSH1 0x1 DUP4 PUSH2 0x50F1 JUMP JUMPDEST PUSH1 0x3 DUP2 LT PUSH2 0x3CD2 JUMPI PUSH2 0x3CD2 PUSH2 0x5130 JUMP JUMPDEST PUSH1 0x20 MUL ADD MLOAD DUP7 DUP3 PUSH1 0x3 DUP2 LT PUSH2 0x3CE9 JUMPI PUSH2 0x3CE9 PUSH2 0x5130 JUMP JUMPDEST PUSH1 0x20 MUL ADD MSTORE DUP7 PUSH2 0x3CFA PUSH1 0x1 DUP4 PUSH2 0x50F1 JUMP JUMPDEST PUSH1 0x3 DUP2 LT PUSH2 0x3D0A JUMPI PUSH2 0x3D0A PUSH2 0x5130 JUMP JUMPDEST PUSH1 0x20 MUL ADD MLOAD DUP8 DUP3 PUSH1 0x3 DUP2 LT PUSH2 0x3D21 JUMPI PUSH2 0x3D21 PUSH2 0x5130 JUMP JUMPDEST PUSH1 0x1 PUSH1 0x1 PUSH1 0xA0 SHL SUB SWAP1 SWAP3 AND PUSH1 0x20 SWAP3 SWAP1 SWAP3 MUL ADD MSTORE DUP1 PUSH2 0x3D3E DUP2 PUSH2 0x5144 JUMP JUMPDEST SWAP2 POP POP PUSH2 0x3CAE JUMP JUMPDEST POP DUP2 DUP6 DUP3 PUSH1 0x3 DUP2 LT PUSH2 0x3D5A JUMPI PUSH2 0x3D5A PUSH2 0x5130 JUMP JUMPDEST PUSH1 0x20 MUL ADD MSTORE DUP3 DUP7 DUP3 PUSH1 0x3 DUP2 LT PUSH2 0x3D72 JUMPI PUSH2 0x3D72 PUSH2 0x5130 JUMP JUMPDEST PUSH1 0x1 PUSH1 0x1 PUSH1 0xA0 SHL SUB SWAP1 SWAP3 AND PUSH1 0x20 SWAP3 SWAP1 SWAP3 MUL ADD MSTORE PUSH2 0x3D9C JUMP JUMPDEST DUP1 PUSH2 0x3D94 DUP2 PUSH2 0x5118 JUMP JUMPDEST SWAP2 POP POP PUSH2 0x3C84 JUMP JUMPDEST POP POP POP DUP1 DUP1 PUSH2 0x3DAA SWAP1 PUSH2 0x5118 JUMP JUMPDEST SWAP2 POP POP PUSH2 0x3C39 JUMP JUMPDEST POP PUSH0 PUSH1 0x64 PUSH2 0x3DC1 DUP9 PUSH1 0x2 PUSH2 0x50DA JUMP JUMPDEST PUSH2 0x3DCB SWAP2 SWAP1 PUSH2 0x5215 JUMP JUMPDEST SWAP1 POP PUSH0 PUSH1 0x40 MLOAD DUP1 PUSH1 0x60 ADD PUSH1 0x40 MSTORE DUP1 PUSH1 0x32 DUP2 MSTORE PUSH1 0x20 ADD PUSH1 0x1E DUP2 MSTORE PUSH1 0x20 ADD PUSH1 0x14 DUP2 MSTORE POP SWAP1 POP PUSH0 JUMPDEST PUSH1 0x3 DUP2 LT ISZERO PUSH2 0x3EA5 JUMPI PUSH0 DUP6 DUP3 PUSH1 0x3 DUP2 LT PUSH2 0x3E0C JUMPI PUSH2 0x3E0C PUSH2 0x5130 JUMP JUMPDEST PUSH1 0x20 MUL ADD MLOAD SWAP1 POP PUSH1 0x1 PUSH1 0x1 PUSH1 0xA0 SHL SUB DUP2 AND ISZERO PUSH2 0x3E92 JUMPI PUSH0 PUSH1 0x64 DUP5 DUP5 PUSH1 0x3 DUP2 LT PUSH2 0x3E37 JUMPI PUSH2 0x3E37 PUSH2 0x5130 JUMP JUMPDEST PUSH1 0x20 MUL ADD MLOAD PUSH2 0x3E46 SWAP1 DUP8 PUSH2 0x50DA JUMP JUMPDEST PUSH2 0x3E50 SWAP2 SWAP1 PUSH2 0x5215 JUMP JUMPDEST SWAP1 POP PUSH2 0x3E5C DUP3 DUP3 PUSH2 0x48B3 JUMP JUMPDEST PUSH1 0x1 PUSH1 0x1 PUSH1 0xA0 SHL SUB DUP4 AND PUSH0 SWAP1 DUP2 MSTORE PUSH1 0x17 PUSH1 0x20 MSTORE PUSH1 0x40 DUP2 KECCAK256 PUSH1 0x5 ADD DUP1 SLOAD SWAP3 SWAP4 POP DUP4 SWAP3 SWAP1 SWAP2 SWAP1 PUSH2 0x3E8B SWAP1 DUP5 SWAP1 PUSH2 0x51D4 JUMP JUMPDEST SWAP1 SWAP2 SSTORE POP POP POP JUMPDEST POP DUP1 PUSH2 0x3E9D DUP2 PUSH2 0x5118 JUMP JUMPDEST SWAP2 POP POP PUSH2 0x3DF0 JUMP JUMPDEST POP POP POP POP POP POP POP POP POP JUMP JUMPDEST PUSH0 DUP2 ISZERO PUSH2 0x11E8 JUMPI PUSH1 0x1 PUSH1 0x1 PUSH1 0xA0 SHL SUB DUP4 AND PUSH0 SWAP1 DUP2 MSTORE PUSH1 0x10 PUSH1 0x20 MSTORE PUSH1 0x40 SWAP1 KECCAK256 PUSH1 0x8 ADD SLOAD TIMESTAMP LT PUSH2 0x3EDF JUMPI POP PUSH0 PUSH2 0x28F4 JUMP JUMPDEST PUSH0 PUSH2 0x3EE9 DUP5 PUSH2 0x3187 JUMP JUMPDEST PUSH1 0x1 PUSH1 0x1 PUSH1 0xA0 SHL SUB DUP6 AND PUSH0 SWAP1 DUP2 MSTORE PUSH1 0x10 PUSH1 0x20 MSTORE PUSH1 0x40 DUP2 KECCAK256 PUSH1 0x4 DUP2 ADD SLOAD PUSH1 0xA SWAP1 SWAP2 ADD SLOAD SWAP3 SWAP4 POP SWAP1 SWAP2 PUSH1 0xFF AND PUSH2 0x3F1E JUMPI PUSH1 0x3 PUSH2 0x3F21 JUMP JUMPDEST PUSH1 0x4 JUMPDEST PUSH1 0xFF AND PUSH2 0x3F2E SWAP2 SWAP1 PUSH2 0x50DA JUMP JUMPDEST SWAP1 POP DUP1 PUSH2 0x3F3B DUP6 DUP5 PUSH2 0x51D4 JUMP JUMPDEST GT ISZERO PUSH2 0x2492 JUMPI PUSH2 0x3F4B DUP3 DUP3 PUSH2 0x50F1 JUMP JUMPDEST SWAP6 SWAP5 POP POP POP POP POP JUMP JUMPDEST PUSH0 PUSH2 0x3F5D PUSH2 0x3222 JUMP JUMPDEST PUSH1 0x40 MLOAD PUSH4 0x23B872DD PUSH1 0xE0 SHL DUP2 MSTORE CALLER PUSH1 0x4 DUP3 ADD MSTORE ADDRESS PUSH1 0x24 DUP3 ADD MSTORE PUSH1 0x44 DUP2 ADD DUP5 SWAP1 MSTORE SWAP1 SWAP2 POP PUSH20 0xAC17996D3A9A3081F626CD56E904A70E9DADF892 SWAP1 PUSH4 0x23B872DD SWAP1 PUSH1 0x64 ADD PUSH1 0x20 PUSH1 0x40 MLOAD DUP1 DUP4 SUB DUP2 PUSH0 DUP8 GAS CALL ISZERO DUP1 ISZERO PUSH2 0x3FBB JUMPI RETURNDATASIZE PUSH0 DUP1 RETURNDATACOPY RETURNDATASIZE PUSH0 REVERT JUMPDEST POP POP POP POP PUSH1 0x40 MLOAD RETURNDATASIZE PUSH1 0x1F NOT PUSH1 0x1F DUP3 ADD AND DUP3 ADD DUP1 PUSH1 0x40 MSTORE POP DUP2 ADD SWAP1 PUSH2 0x3FDF SWAP2 SWAP1 PUSH2 0x5336 JUMP JUMPDEST POP PUSH0 PUSH2 0x3FE9 PUSH2 0x3222 JUMP JUMPDEST SWAP1 POP DUP3 PUSH2 0x3FF6 DUP4 DUP4 PUSH2 0x50F1 JUMP JUMPDEST LT ISZERO PUSH2 0x2A85 JUMPI PUSH1 0x40 MLOAD PUSH3 0x461BCD PUSH1 0xE5 SHL DUP2 MSTORE PUSH1 0x20 PUSH1 0x4 DUP3 ADD MSTORE PUSH1 0xF PUSH1 0x24 DUP3 ADD MSTORE PUSH15 0x496E76616C696420616D6F756E7421 PUSH1 0x88 SHL PUSH1 0x44 DUP3 ADD MSTORE PUSH1 0x64 ADD PUSH2 0xE1A JUMP JUMPDEST PUSH0 DUP1 SLOAD SWAP1 DUP1 PUSH2 0x4044 DUP4 PUSH2 0x5118 JUMP JUMPDEST SWAP2 SWAP1 POP SSTORE POP PUSH0 PUSH1 0x40 MLOAD DUP1 PUSH2 0x180 ADD PUSH1 0x40 MSTORE DUP1 PUSH0 SLOAD DUP2 MSTORE PUSH1 0x20 ADD DUP5 PUSH1 0x1 PUSH1 0x1 PUSH1 0xA0 SHL SUB AND DUP2 MSTORE PUSH1 0x20 ADD DUP4 PUSH1 0x1 PUSH1 0x1 PUSH1 0xA0 SHL SUB AND DUP2 MSTORE PUSH1 0x20 ADD TIMESTAMP DUP2 MSTORE PUSH1 0x20 ADD PUSH0 DUP2 MSTORE PUSH1 0x20 ADD PUSH0 DUP2 MSTORE PUSH1 0x20 ADD PUSH0 ISZERO ISZERO DUP2 MSTORE PUSH1 0x20 ADD PUSH0 DUP2 MSTORE PUSH1 0x20 ADD PUSH0 DUP2 MSTORE PUSH1 0x20 ADD PUSH0 DUP2 MSTORE PUSH1 0x20 ADD PUSH0 ISZERO ISZERO DUP2 MSTORE PUSH1 0x20 ADD PUSH0 ISZERO ISZERO DUP2 MSTORE POP SWAP1 POP PUSH0 PUSH1 0x40 MLOAD DUP1 PUSH1 0xC0 ADD PUSH1 0x40 MSTORE DUP1 PUSH0 DUP2 MSTORE PUSH1 0x20 ADD PUSH0 PUSH8 0xFFFFFFFFFFFFFFFF DUP2 GT ISZERO PUSH2 0x40E2 JUMPI PUSH2 0x40E2 PUSH2 0x5104 JUMP JUMPDEST PUSH1 0x40 MLOAD SWAP1 DUP1 DUP3 MSTORE DUP1 PUSH1 0x20 MUL PUSH1 0x20 ADD DUP3 ADD PUSH1 0x40 MSTORE DUP1 ISZERO PUSH2 0x410B JUMPI DUP2 PUSH1 0x20 ADD PUSH1 0x20 DUP3 MUL DUP1 CALLDATASIZE DUP4 CALLDATACOPY ADD SWAP1 POP JUMPDEST POP DUP2 MSTORE PUSH1 0x20 ADD PUSH0 DUP2 MSTORE PUSH1 0x20 ADD PUSH0 DUP2 MSTORE PUSH1 0x20 ADD PUSH0 DUP2 MSTORE PUSH1 0x20 ADD PUSH0 PUSH8 0xFFFFFFFFFFFFFFFF DUP2 GT ISZERO PUSH2 0x413C JUMPI PUSH2 0x413C PUSH2 0x5104 JUMP JUMPDEST PUSH1 0x40 MLOAD SWAP1 DUP1 DUP3 MSTORE DUP1 PUSH1 0x20 MUL PUSH1 0x20 ADD DUP3 ADD PUSH1 0x40 MSTORE DUP1 ISZERO PUSH2 0x4165 JUMPI DUP2 PUSH1 0x20 ADD PUSH1 0x20 DUP3 MUL DUP1 CALLDATASIZE DUP4 CALLDATACOPY ADD SWAP1 POP JUMPDEST POP DUP2 MSTORE POP SWAP1 POP PUSH0 PUSH1 0x40 MLOAD DUP1 PUSH1 0xE0 ADD PUSH1 0x40 MSTORE DUP1 PUSH0 DUP2 MSTORE PUSH1 0x20 ADD PUSH0 DUP2 MSTORE PUSH1 0x20 ADD PUSH0 DUP2 MSTORE PUSH1 0x20 ADD PUSH1 0x8 SLOAD PUSH1 0x1 PUSH2 0x4198 SWAP2 SWAP1 PUSH2 0x51D4 JUMP JUMPDEST PUSH8 0xFFFFFFFFFFFFFFFF DUP2 GT ISZERO PUSH2 0x41B0 JUMPI PUSH2 0x41B0 PUSH2 0x5104 JUMP JUMPDEST PUSH1 0x40 MLOAD SWAP1 DUP1 DUP3 MSTORE DUP1 PUSH1 0x20 MUL PUSH1 0x20 ADD DUP3 ADD PUSH1 0x40 MSTORE DUP1 ISZERO PUSH2 0x41D9 JUMPI DUP2 PUSH1 0x20 ADD PUSH1 0x20 DUP3 MUL DUP1 CALLDATASIZE DUP4 CALLDATACOPY ADD SWAP1 POP JUMPDEST POP DUP2 MSTORE PUSH0 PUSH1 0x20 DUP1 DUP4 ADD DUP3 SWAP1 MSTORE PUSH1 0x40 DUP1 DUP5 ADD DUP4 SWAP1 MSTORE PUSH1 0x60 SWAP4 DUP5 ADD DUP4 SWAP1 MSTORE DUP1 MLOAD PUSH1 0x80 DUP1 DUP3 ADD DUP4 MSTORE DUP5 DUP3 MSTORE DUP2 DUP5 ADD DUP6 SWAP1 MSTORE DUP2 DUP4 ADD DUP6 SWAP1 MSTORE DUP2 DUP7 ADD DUP6 SWAP1 MSTORE PUSH1 0x1 PUSH1 0x1 PUSH1 0xA0 SHL SUB DUP13 DUP2 AND DUP7 MSTORE PUSH1 0x10 DUP6 MSTORE DUP4 DUP7 KECCAK256 DUP12 MLOAD DUP2 SSTORE DUP12 DUP7 ADD MLOAD PUSH1 0x1 DUP1 DUP4 ADD DUP1 SLOAD PUSH1 0x1 PUSH1 0x1 PUSH1 0xA0 SHL SUB NOT SWAP1 DUP2 AND SWAP4 DUP7 AND SWAP4 SWAP1 SWAP4 OR SWAP1 SSTORE DUP14 DUP8 ADD MLOAD PUSH1 0x2 DUP5 ADD DUP1 SLOAD SWAP1 SWAP4 AND SWAP5 AND SWAP4 SWAP1 SWAP4 OR SWAP1 SSTORE SWAP7 DUP12 ADD MLOAD PUSH1 0x3 DUP9 ADD SSTORE SWAP1 DUP11 ADD MLOAD PUSH1 0x4 DUP8 ADD SSTORE PUSH1 0xA0 DUP11 ADD MLOAD PUSH1 0x5 DUP8 ADD SSTORE PUSH1 0xC0 DUP11 ADD MLOAD PUSH1 0x6 DUP8 ADD DUP1 SLOAD PUSH1 0xFF NOT AND SWAP2 ISZERO ISZERO SWAP2 SWAP1 SWAP2 OR SWAP1 SSTORE PUSH1 0xE0 DUP11 ADD MLOAD PUSH1 0x7 DUP8 ADD SSTORE PUSH2 0x100 DUP1 DUP12 ADD MLOAD PUSH1 0x8 DUP9 ADD SSTORE PUSH2 0x120 DUP12 ADD MLOAD PUSH1 0x9 DUP9 ADD SSTORE PUSH2 0x140 DUP12 ADD MLOAD PUSH1 0xA SWAP1 SWAP8 ADD DUP1 SLOAD PUSH2 0x160 DUP14 ADD MLOAD PUSH2 0xFFFF NOT SWAP1 SWAP2 AND SWAP9 ISZERO ISZERO PUSH2 0xFF00 NOT AND SWAP9 SWAP1 SWAP9 OR SWAP8 ISZERO ISZERO SWAP1 SWAP2 MUL SWAP7 SWAP1 SWAP7 OR SWAP1 SWAP6 SSTORE PUSH1 0x12 DUP4 MSTORE SWAP3 KECCAK256 DUP7 MLOAD DUP2 SSTORE DUP7 DUP3 ADD MLOAD DUP1 MLOAD SWAP6 SWAP7 POP SWAP3 SWAP5 DUP8 SWAP5 SWAP2 SWAP4 PUSH2 0x4310 SWAP4 SWAP3 DUP6 ADD SWAP3 ADD SWAP1 PUSH2 0x498A JUMP JUMPDEST POP PUSH1 0x40 DUP3 ADD MLOAD PUSH1 0x2 DUP3 ADD SSTORE PUSH1 0x60 DUP3 ADD MLOAD PUSH1 0x3 DUP3 ADD SSTORE PUSH1 0x80 DUP3 ADD MLOAD PUSH1 0x4 DUP3 ADD SSTORE PUSH1 0xA0 DUP3 ADD MLOAD DUP1 MLOAD PUSH2 0x434A SWAP2 PUSH1 0x5 DUP5 ADD SWAP2 PUSH1 0x20 SWAP1 SWAP2 ADD SWAP1 PUSH2 0x498A JUMP JUMPDEST POP POP POP PUSH1 0x1 PUSH1 0x1 PUSH1 0xA0 SHL SUB DUP7 AND PUSH0 SWAP1 DUP2 MSTORE PUSH1 0x17 PUSH1 0x20 SWAP1 DUP2 MSTORE PUSH1 0x40 SWAP2 DUP3 SWAP1 KECCAK256 DUP5 MLOAD DUP2 SSTORE DUP2 DUP6 ADD MLOAD PUSH1 0x1 DUP3 ADD SSTORE SWAP2 DUP5 ADD MLOAD PUSH1 0x2 DUP4 ADD SSTORE PUSH1 0x60 DUP5 ADD MLOAD DUP1 MLOAD DUP6 SWAP4 SWAP3 PUSH2 0x4399 SWAP3 PUSH1 0x3 DUP6 ADD SWAP3 SWAP2 ADD SWAP1 PUSH2 0x49ED JUMP JUMPDEST POP PUSH1 0x80 DUP3 ADD MLOAD PUSH1 0x4 DUP3 ADD SSTORE PUSH1 0xA0 DUP3 ADD MLOAD PUSH1 0x5 DUP3 ADD SSTORE PUSH1 0xC0 SWAP1 SWAP2 ADD MLOAD PUSH1 0x6 SWAP1 SWAP2 ADD SSTORE PUSH0 DUP1 SLOAD DUP2 MSTORE PUSH1 0x11 PUSH1 0x20 SWAP1 DUP2 MSTORE PUSH1 0x40 DUP1 DUP4 KECCAK256 DUP1 SLOAD PUSH1 0x1 PUSH1 0x1 PUSH1 0xA0 SHL SUB SWAP1 SWAP11 AND PUSH1 0x1 PUSH1 0x1 PUSH1 0xA0 SHL SUB NOT SWAP1 SWAP11 AND DUP11 OR SWAP1 SSTORE SWAP8 DUP3 MSTORE PUSH1 0x19 DUP2 MSTORE SWAP1 DUP8 SWAP1 KECCAK256 DUP3 MLOAD DUP2 SSTORE SWAP1 DUP3 ADD MLOAD PUSH1 0x1 DUP3 ADD SSTORE SWAP6 DUP2 ADD MLOAD PUSH1 0x2 DUP8 ADD SSTORE PUSH1 0x60 ADD MLOAD PUSH1 0x3 SWAP1 SWAP6 ADD SWAP5 SWAP1 SWAP5 SSTORE POP POP POP POP JUMP JUMPDEST PUSH1 0x1 PUSH1 0x1 PUSH1 0xA0 SHL SUB DUP4 AND PUSH0 SWAP1 DUP2 MSTORE PUSH1 0x10 PUSH1 0x20 MSTORE PUSH1 0x40 DUP2 KECCAK256 PUSH1 0x4 ADD SLOAD PUSH2 0x4442 SWAP1 DUP4 SWAP1 PUSH2 0x50F1 JUMP JUMPDEST SWAP1 POP DUP1 ISZERO PUSH2 0x3527 JUMPI PUSH0 PUSH1 0x64 PUSH2 0x4458 DUP4 PUSH1 0xA PUSH2 0x50DA JUMP JUMPDEST PUSH2 0x4462 SWAP2 SWAP1 PUSH2 0x5215 JUMP JUMPDEST SWAP1 POP PUSH2 0x446E DUP6 DUP3 PUSH2 0x48B3 JUMP JUMPDEST PUSH1 0x1 PUSH1 0x1 PUSH1 0xA0 SHL SUB DUP7 AND PUSH0 SWAP1 DUP2 MSTORE PUSH1 0x17 PUSH1 0x20 MSTORE PUSH1 0x40 DUP2 KECCAK256 PUSH1 0x2 ADD DUP1 SLOAD SWAP3 SWAP4 POP DUP4 SWAP3 SWAP1 SWAP2 SWAP1 PUSH2 0x449D SWAP1 DUP5 SWAP1 PUSH2 0x51D4 JUMP JUMPDEST SWAP1 SWAP2 SSTORE POP POP PUSH1 0x1 PUSH1 0x1 PUSH1 0xA0 SHL SUB DUP6 AND PUSH0 SWAP1 DUP2 MSTORE PUSH1 0x19 PUSH1 0x20 MSTORE PUSH1 0x40 DUP2 KECCAK256 PUSH1 0x1 ADD DUP1 SLOAD SWAP2 PUSH2 0x44C8 DUP4 PUSH2 0x5118 JUMP JUMPDEST SWAP1 SWAP2 SSTORE POP POP PUSH1 0x40 DUP1 MLOAD PUSH1 0x60 DUP2 ADD DUP3 MSTORE SWAP3 DUP4 MSTORE PUSH1 0x20 DUP1 DUP5 ADD SWAP6 DUP7 MSTORE DUP4 DUP3 ADD SWAP3 DUP4 MSTORE PUSH1 0x1 PUSH1 0x1 PUSH1 0xA0 SHL SUB SWAP7 SWAP1 SWAP7 AND PUSH0 SWAP1 DUP2 MSTORE PUSH1 0x16 DUP8 MSTORE DUP2 DUP2 KECCAK256 PUSH1 0x19 DUP9 MSTORE DUP3 DUP3 KECCAK256 PUSH1 0x1 SWAP1 DUP2 ADD SLOAD DUP4 MSTORE SWAP8 MSTORE KECCAK256 SWAP2 MLOAD DUP3 SSTORE SWAP3 MLOAD SWAP4 DUP2 ADD SWAP4 SWAP1 SWAP4 SSTORE POP MLOAD PUSH1 0x2 SWAP1 SWAP2 ADD SSTORE JUMP JUMPDEST PUSH1 0x1 PUSH1 0x1 PUSH1 0xA0 SHL SUB DUP2 DUP2 AND PUSH0 SWAP1 DUP2 MSTORE PUSH1 0x10 PUSH1 0x20 MSTORE PUSH1 0x40 DUP2 KECCAK256 PUSH1 0x2 DUP2 ADD SLOAD PUSH1 0xA SWAP1 SWAP2 ADD SLOAD SWAP3 AND SWAP2 PUSH2 0x100 SWAP1 DIV PUSH1 0xFF AND PUSH2 0x4561 JUMPI PUSH1 0x1 PUSH2 0x4564 JUMP JUMPDEST PUSH1 0x2 JUMPDEST PUSH1 0x1 PUSH1 0x1 PUSH1 0xA0 SHL SUB DUP5 AND PUSH0 SWAP1 DUP2 MSTORE PUSH1 0x10 PUSH1 0x20 MSTORE PUSH1 0x40 SWAP1 KECCAK256 PUSH1 0x4 ADD SLOAD PUSH2 0x458C SWAP2 PUSH1 0xFF AND SWAP1 PUSH2 0x5215 JUMP JUMPDEST SWAP1 POP PUSH1 0x1 PUSH0 JUMPDEST PUSH1 0x1 PUSH1 0x1 PUSH1 0xA0 SHL SUB DUP5 AND ISZERO DUP1 ISZERO SWAP1 PUSH2 0x45AC JUMPI POP PUSH1 0x8 SLOAD DUP3 GT ISZERO JUMPDEST ISZERO PUSH2 0x4693 JUMPI PUSH1 0xA SLOAD PUSH1 0xFF AND PUSH2 0x45D1 JUMPI PUSH0 DUP3 DUP2 MSTORE PUSH1 0xE PUSH1 0x20 MSTORE PUSH1 0x40 SWAP1 KECCAK256 PUSH1 0x1 ADD SLOAD PUSH2 0x45FA JUMP JUMPDEST PUSH0 DUP3 DUP2 MSTORE PUSH1 0xE PUSH1 0x20 MSTORE PUSH1 0x40 SWAP1 KECCAK256 PUSH1 0x1 ADD SLOAD PUSH2 0x3E8 SWAP1 PUSH2 0x45F0 SWAP1 DUP6 PUSH2 0x50DA JUMP JUMPDEST PUSH2 0x45FA SWAP2 SWAP1 PUSH2 0x5215 JUMP JUMPDEST SWAP1 POP PUSH2 0x4606 DUP6 DUP4 PUSH2 0x2FE8 JUMP JUMPDEST ISZERO PUSH2 0x4661 JUMPI PUSH2 0x4615 DUP5 DUP3 PUSH2 0x48B3 JUMP JUMPDEST POP PUSH1 0x1 PUSH1 0x1 PUSH1 0xA0 SHL SUB DUP5 AND PUSH0 SWAP1 DUP2 MSTORE PUSH1 0x17 PUSH1 0x20 MSTORE PUSH1 0x40 SWAP1 KECCAK256 PUSH1 0x3 ADD DUP1 SLOAD DUP3 SWAP2 SWAP1 DUP5 SWAP1 DUP2 LT PUSH2 0x4645 JUMPI PUSH2 0x4645 PUSH2 0x5130 JUMP JUMPDEST SWAP1 PUSH0 MSTORE PUSH1 0x20 PUSH0 KECCAK256 ADD PUSH0 DUP3 DUP3 SLOAD PUSH2 0x465B SWAP2 SWAP1 PUSH2 0x51D4 JUMP JUMPDEST SWAP1 SWAP2 SSTORE POP POP JUMPDEST PUSH1 0x1 PUSH1 0x1 PUSH1 0xA0 SHL SUB SWAP4 DUP5 AND PUSH0 SWAP1 DUP2 MSTORE PUSH1 0x10 PUSH1 0x20 MSTORE PUSH1 0x40 SWAP1 KECCAK256 PUSH1 0x2 ADD SLOAD SWAP1 SWAP4 AND SWAP3 DUP2 PUSH2 0x468B DUP2 PUSH2 0x5118 JUMP JUMPDEST SWAP3 POP POP PUSH2 0x4592 JUMP JUMPDEST POP POP POP POP POP JUMP JUMPDEST PUSH1 0x1 PUSH1 0x1 PUSH1 0xA0 SHL SUB DUP2 AND PUSH0 SWAP1 DUP2 MSTORE PUSH1 0x10 PUSH1 0x20 MSTORE PUSH1 0x40 DUP2 KECCAK256 PUSH1 0x9 ADD SLOAD PUSH2 0x46C0 SWAP1 PUSH1 0x1 PUSH2 0x51D4 JUMP JUMPDEST SWAP1 POP JUMPDEST PUSH1 0x9 SLOAD DUP2 GT PUSH2 0x257C JUMPI PUSH0 PUSH1 0xF PUSH0 DUP4 DUP2 MSTORE PUSH1 0x20 ADD SWAP1 DUP2 MSTORE PUSH1 0x20 ADD PUSH0 KECCAK256 PUSH1 0x40 MLOAD DUP1 PUSH1 0xC0 ADD PUSH1 0x40 MSTORE SWAP1 DUP2 PUSH0 DUP3 ADD SLOAD DUP2 MSTORE PUSH1 0x20 ADD PUSH1 0x1 DUP3 ADD DUP1 SLOAD PUSH2 0x4702 SWAP1 PUSH2 0x51A2 JUMP JUMPDEST DUP1 PUSH1 0x1F ADD PUSH1 0x20 DUP1 SWAP2 DIV MUL PUSH1 0x20 ADD PUSH1 0x40 MLOAD SWAP1 DUP2 ADD PUSH1 0x40 MSTORE DUP1 SWAP3 SWAP2 SWAP1 DUP2 DUP2 MSTORE PUSH1 0x20 ADD DUP3 DUP1 SLOAD PUSH2 0x472E SWAP1 PUSH2 0x51A2 JUMP JUMPDEST DUP1 ISZERO PUSH2 0x4779 JUMPI DUP1 PUSH1 0x1F LT PUSH2 0x4750 JUMPI PUSH2 0x100 DUP1 DUP4 SLOAD DIV MUL DUP4 MSTORE SWAP2 PUSH1 0x20 ADD SWAP2 PUSH2 0x4779 JUMP JUMPDEST DUP3 ADD SWAP2 SWAP1 PUSH0 MSTORE PUSH1 0x20 PUSH0 KECCAK256 SWAP1 JUMPDEST DUP2 SLOAD DUP2 MSTORE SWAP1 PUSH1 0x1 ADD SWAP1 PUSH1 0x20 ADD DUP1 DUP4 GT PUSH2 0x475C JUMPI DUP3 SWAP1 SUB PUSH1 0x1F AND DUP3 ADD SWAP2 JUMPDEST POP POP POP POP POP DUP2 MSTORE PUSH1 0x20 ADD PUSH1 0x2 DUP3 ADD SLOAD DUP2 MSTORE PUSH1 0x20 ADD PUSH1 0x3 DUP3 ADD SLOAD DUP2 MSTORE PUSH1 0x20 ADD PUSH1 0x4 DUP3 ADD SLOAD DUP2 MSTORE PUSH1 0x20 ADD PUSH1 0x5 DUP3 ADD SLOAD DUP2 MSTORE POP POP SWAP1 POP DUP1 PUSH1 0x40 ADD MLOAD PUSH1 0x10 PUSH0 DUP6 PUSH1 0x1 PUSH1 0x1 PUSH1 0xA0 SHL SUB AND PUSH1 0x1 PUSH1 0x1 PUSH1 0xA0 SHL SUB AND DUP2 MSTORE PUSH1 0x20 ADD SWAP1 DUP2 MSTORE PUSH1 0x20 ADD PUSH0 KECCAK256 PUSH1 0x4 ADD SLOAD LT ISZERO DUP1 ISZERO PUSH2 0x4804 JUMPI POP PUSH1 0x60 DUP2 ADD MLOAD PUSH1 0x1 PUSH1 0x1 PUSH1 0xA0 SHL SUB DUP5 AND PUSH0 SWAP1 DUP2 MSTORE PUSH1 0x12 PUSH1 0x20 MSTORE PUSH1 0x40 SWAP1 KECCAK256 PUSH1 0x2 ADD SLOAD LT ISZERO JUMPDEST DUP1 ISZERO PUSH2 0x482E JUMPI POP PUSH1 0x80 DUP2 ADD MLOAD PUSH1 0x1 PUSH1 0x1 PUSH1 0xA0 SHL SUB DUP5 AND PUSH0 SWAP1 DUP2 MSTORE PUSH1 0x12 PUSH1 0x20 MSTORE PUSH1 0x40 SWAP1 KECCAK256 PUSH1 0x3 ADD SLOAD LT ISZERO JUMPDEST ISZERO PUSH2 0x2A85 JUMPI PUSH0 PUSH2 0x4842 DUP5 DUP4 PUSH1 0xA0 ADD MLOAD PUSH2 0x48B3 JUMP JUMPDEST PUSH1 0x1 PUSH1 0x1 PUSH1 0xA0 SHL SUB DUP6 AND PUSH0 SWAP1 DUP2 MSTORE PUSH1 0x17 PUSH1 0x20 MSTORE PUSH1 0x40 DUP2 KECCAK256 PUSH1 0x4 ADD DUP1 SLOAD SWAP3 SWAP4 POP DUP4 SWAP3 SWAP1 SWAP2 SWAP1 PUSH2 0x4871 SWAP1 DUP5 SWAP1 PUSH2 0x51D4 JUMP JUMPDEST SWAP1 SWAP2 SSTORE POP POP PUSH1 0x1 PUSH1 0x1 PUSH1 0xA0 SHL SUB DUP5 AND PUSH0 SWAP1 DUP2 MSTORE PUSH1 0x10 PUSH1 0x20 MSTORE PUSH1 0x40 DUP2 KECCAK256 PUSH1 0x9 ADD DUP5 SWAP1 SSTORE PUSH2 0x489F SWAP1 DUP6 SWAP1 DUP6 PUSH2 0x386E JUMP JUMPDEST DUP3 PUSH2 0x48A9 DUP2 PUSH2 0x5118 JUMP JUMPDEST SWAP4 POP POP POP POP PUSH2 0x46C3 JUMP JUMPDEST PUSH0 PUSH2 0x48BE DUP4 DUP4 PUSH2 0x3EB0 JUMP JUMPDEST SWAP2 POP DUP2 ISZERO PUSH2 0x11E8 JUMPI PUSH1 0x64 PUSH2 0x48D3 DUP4 PUSH1 0x4B PUSH2 0x50DA JUMP JUMPDEST PUSH2 0x48DD SWAP2 SWAP1 PUSH2 0x5215 JUMP JUMPDEST PUSH1 0x1 PUSH1 0x1 PUSH1 0xA0 SHL SUB DUP5 AND PUSH0 SWAP1 DUP2 MSTORE PUSH1 0x18 PUSH1 0x20 SWAP1 DUP2 MSTORE PUSH1 0x40 DUP1 DUP4 KECCAK256 PUSH1 0x1 DUP5 MSTORE SWAP1 SWAP2 MSTORE DUP2 KECCAK256 DUP1 SLOAD SWAP1 SWAP2 SWAP1 PUSH2 0x4910 SWAP1 DUP5 SWAP1 PUSH2 0x51D4 JUMP JUMPDEST SWAP1 SWAP2 SSTORE POP PUSH1 0x64 SWAP1 POP PUSH2 0x4923 DUP4 PUSH1 0x19 PUSH2 0x50DA JUMP JUMPDEST PUSH2 0x492D SWAP2 SWAP1 PUSH2 0x5215 JUMP JUMPDEST PUSH1 0x1 PUSH1 0x1 PUSH1 0xA0 SHL SUB DUP5 AND PUSH0 SWAP1 DUP2 MSTORE PUSH1 0x18 PUSH1 0x20 SWAP1 DUP2 MSTORE PUSH1 0x40 DUP1 DUP4 KECCAK256 PUSH1 0x2 DUP5 MSTORE SWAP1 SWAP2 MSTORE DUP2 KECCAK256 DUP1 SLOAD SWAP1 SWAP2 SWAP1 PUSH2 0x4960 SWAP1 DUP5 SWAP1 PUSH2 0x51D4 JUMP JUMPDEST SWAP1 SWAP2 SSTORE POP SWAP2 SWAP4 SWAP3 POP POP POP JUMP JUMPDEST PUSH1 0x40 MLOAD DUP1 PUSH1 0x60 ADD PUSH1 0x40 MSTORE DUP1 PUSH1 0x3 SWAP1 PUSH1 0x20 DUP3 MUL DUP1 CALLDATASIZE DUP4 CALLDATACOPY POP SWAP2 SWAP3 SWAP2 POP POP JUMP JUMPDEST DUP3 DUP1 SLOAD DUP3 DUP3 SSTORE SWAP1 PUSH0 MSTORE PUSH1 0x20 PUSH0 KECCAK256 SWAP1 DUP2 ADD SWAP3 DUP3 ISZERO PUSH2 0x49DD JUMPI SWAP2 PUSH1 0x20 MUL DUP3 ADD JUMPDEST DUP3 DUP2 GT ISZERO PUSH2 0x49DD JUMPI DUP3 MLOAD DUP3 SLOAD PUSH1 0x1 PUSH1 0x1 PUSH1 0xA0 SHL SUB NOT AND PUSH1 0x1 PUSH1 0x1 PUSH1 0xA0 SHL SUB SWAP1 SWAP2 AND OR DUP3 SSTORE PUSH1 0x20 SWAP1 SWAP3 ADD SWAP2 PUSH1 0x1 SWAP1 SWAP2 ADD SWAP1 PUSH2 0x49A8 JUMP JUMPDEST POP PUSH2 0x49E9 SWAP3 SWAP2 POP PUSH2 0x4A26 JUMP JUMPDEST POP SWAP1 JUMP JUMPDEST DUP3 DUP1 SLOAD DUP3 DUP3 SSTORE SWAP1 PUSH0 MSTORE PUSH1 0x20 PUSH0 KECCAK256 SWAP1 DUP2 ADD SWAP3 DUP3 ISZERO PUSH2 0x49DD JUMPI SWAP2 PUSH1 0x20 MUL DUP3 ADD JUMPDEST DUP3 DUP2 GT ISZERO PUSH2 0x49DD JUMPI DUP3 MLOAD DUP3 SSTORE SWAP2 PUSH1 0x20 ADD SWAP2 SWAP1 PUSH1 0x1 ADD SWAP1 PUSH2 0x4A0B JUMP JUMPDEST JUMPDEST DUP1 DUP3 GT ISZERO PUSH2 0x49E9 JUMPI PUSH0 DUP2 SSTORE PUSH1 0x1 ADD PUSH2 0x4A27 JUMP JUMPDEST DUP1 CALLDATALOAD PUSH1 0x1 PUSH1 0x1 PUSH1 0xA0 SHL SUB DUP2 AND DUP2 EQ PUSH2 0x4A50 JUMPI PUSH0 DUP1 REVERT JUMPDEST SWAP2 SWAP1 POP JUMP JUMPDEST PUSH0 DUP1 PUSH1 0x40 DUP4 DUP6 SUB SLT ISZERO PUSH2 0x4A66 JUMPI PUSH0 DUP1 REVERT JUMPDEST PUSH2 0x4A6F DUP4 PUSH2 0x4A3A JUMP JUMPDEST SWAP5 PUSH1 0x20 SWAP4 SWAP1 SWAP4 ADD CALLDATALOAD SWAP4 POP POP POP JUMP JUMPDEST PUSH0 PUSH1 0x20 DUP3 DUP5 SUB SLT ISZERO PUSH2 0x4A8D JUMPI PUSH0 DUP1 REVERT JUMPDEST PUSH2 0x3180 DUP3 PUSH2 0x4A3A JUMP JUMPDEST PUSH0 DUP1 PUSH0 PUSH1 0x60 DUP5 DUP7 SUB SLT ISZERO PUSH2 0x4AA8 JUMPI PUSH0 DUP1 REVERT JUMPDEST PUSH2 0x4AB1 DUP5 PUSH2 0x4A3A JUMP JUMPDEST SWAP6 PUSH1 0x20 DUP6 ADD CALLDATALOAD SWAP6 POP PUSH1 0x40 SWAP1 SWAP5 ADD CALLDATALOAD SWAP4 SWAP3 POP POP POP JUMP JUMPDEST PUSH1 0x20 DUP1 DUP3 MSTORE DUP3 MLOAD DUP3 DUP3 ADD DUP2 SWAP1 MSTORE PUSH0 SWAP2 SWAP1 DUP5 DUP3 ADD SWAP1 PUSH1 0x40 DUP6 ADD SWAP1 DUP5 JUMPDEST DUP2 DUP2 LT ISZERO PUSH2 0x4B1B JUMPI PUSH2 0x4B08 DUP4 DUP6 MLOAD DUP1 MLOAD DUP3 MSTORE PUSH1 0x20 DUP1 DUP3 ADD MLOAD SWAP1 DUP4 ADD MSTORE PUSH1 0x40 SWAP1 DUP2 ADD MLOAD SWAP2 ADD MSTORE JUMP JUMPDEST SWAP3 DUP5 ADD SWAP3 PUSH1 0x60 SWAP3 SWAP1 SWAP3 ADD SWAP2 PUSH1 0x1 ADD PUSH2 0x4AE1 JUMP JUMPDEST POP SWAP1 SWAP7 SWAP6 POP POP POP POP POP POP JUMP JUMPDEST PUSH1 0x20 DUP1 DUP3 MSTORE DUP3 MLOAD DUP3 DUP3 ADD DUP2 SWAP1 MSTORE PUSH0 SWAP2 SWAP1 DUP5 DUP3 ADD SWAP1 PUSH1 0x40 DUP6 ADD SWAP1 DUP5 JUMPDEST DUP2 DUP2 LT ISZERO PUSH2 0x4B1B JUMPI PUSH2 0x4B69 DUP4 DUP6 MLOAD DUP1 MLOAD DUP3 MSTORE PUSH1 0x20 DUP1 DUP3 ADD MLOAD SWAP1 DUP4 ADD MSTORE PUSH1 0x40 SWAP1 DUP2 ADD MLOAD SWAP2 ADD MSTORE JUMP JUMPDEST SWAP3 DUP5 ADD SWAP3 PUSH1 0x60 SWAP3 SWAP1 SWAP3 ADD SWAP2 PUSH1 0x1 ADD PUSH2 0x4B42 JUMP JUMPDEST PUSH0 DUP2 MLOAD DUP1 DUP5 MSTORE PUSH0 JUMPDEST DUP2 DUP2 LT ISZERO PUSH2 0x4BA0 JUMPI PUSH1 0x20 DUP2 DUP6 ADD DUP2 ADD MLOAD DUP7 DUP4 ADD DUP3 ADD MSTORE ADD PUSH2 0x4B84 JUMP JUMPDEST POP PUSH0 PUSH1 0x20 DUP3 DUP7 ADD ADD MSTORE PUSH1 0x20 PUSH1 0x1F NOT PUSH1 0x1F DUP4 ADD AND DUP6 ADD ADD SWAP2 POP POP SWAP3 SWAP2 POP POP JUMP JUMPDEST PUSH0 PUSH1 0x20 DUP1 DUP4 ADD DUP2 DUP5 MSTORE DUP1 DUP6 MLOAD DUP1 DUP4 MSTORE PUSH1 0x40 SWAP3 POP DUP3 DUP7 ADD SWAP2 POP DUP3 DUP2 PUSH1 0x5 SHL DUP8 ADD ADD DUP5 DUP9 ADD PUSH0 JUMPDEST DUP4 DUP2 LT ISZERO PUSH2 0x4C7B JUMPI PUSH1 0x3F NOT DUP10 DUP5 SUB ADD DUP6 MSTORE DUP2 MLOAD PUSH2 0x120 DUP2 MLOAD DUP6 MSTORE DUP9 DUP3 ADD MLOAD DUP2 DUP11 DUP8 ADD MSTORE PUSH2 0x4C13 DUP3 DUP8 ADD DUP3 PUSH2 0x4B7C JUMP JUMPDEST SWAP2 POP POP DUP8 DUP3 ADD MLOAD DUP9 DUP7 ADD MSTORE PUSH1 0x60 DUP1 DUP4 ADD MLOAD PUSH2 0x4C31 DUP3 DUP9 ADD DUP3 ISZERO ISZERO SWAP1 MSTORE JUMP JUMPDEST POP POP PUSH1 0x80 DUP3 DUP2 ADD MLOAD ISZERO ISZERO SWAP1 DUP7 ADD MSTORE PUSH1 0xA0 DUP1 DUP4 ADD MLOAD SWAP1 DUP7 ADD MSTORE PUSH1 0xC0 DUP1 DUP4 ADD MLOAD SWAP1 DUP7 ADD MSTORE PUSH1 0xE0 DUP1 DUP4 ADD MLOAD SWAP1 DUP7 ADD MSTORE PUSH2 0x100 SWAP2 DUP3 ADD MLOAD ISZERO ISZERO SWAP2 SWAP1 SWAP5 ADD MSTORE SWAP4 DUP7 ADD SWAP4 SWAP1 DUP7 ADD SWAP1 PUSH1 0x1 ADD PUSH2 0x4BE4 JUMP JUMPDEST POP SWAP1 SWAP9 SWAP8 POP POP POP POP POP POP POP POP JUMP JUMPDEST PUSH1 0x20 DUP1 DUP3 MSTORE DUP3 MLOAD DUP3 DUP3 ADD DUP2 SWAP1 MSTORE PUSH0 SWAP2 SWAP1 PUSH1 0x40 SWAP1 DUP2 DUP6 ADD SWAP1 DUP7 DUP5 ADD DUP6 JUMPDEST DUP3 DUP2 LT ISZERO PUSH2 0x4CFF JUMPI DUP2 MLOAD DUP1 MLOAD DUP6 MSTORE DUP7 DUP2 ADD MLOAD DUP8 DUP7 ADD MSTORE DUP6 DUP2 ADD MLOAD DUP7 DUP7 ADD MSTORE PUSH1 0x60 DUP1 DUP3 ADD MLOAD SWAP1 DUP7 ADD MSTORE PUSH1 0x80 DUP1 DUP3 ADD MLOAD SWAP1 DUP7 ADD MSTORE PUSH1 0xA0 DUP1 DUP3 ADD MLOAD SWAP1 DUP7 ADD MSTORE PUSH1 0xC0 SWAP1 DUP2 ADD MLOAD ISZERO ISZERO SWAP1 DUP6 ADD MSTORE PUSH1 0xE0 SWAP1 SWAP4 ADD SWAP3 SWAP1 DUP6 ADD SWAP1 PUSH1 0x1 ADD PUSH2 0x4CA5 JUMP JUMPDEST POP SWAP2 SWAP8 SWAP7 POP POP POP POP POP POP POP JUMP JUMPDEST PUSH1 0x20 DUP1 DUP3 MSTORE DUP3 MLOAD DUP3 DUP3 ADD MSTORE DUP3 ADD MLOAD PUSH1 0x40 DUP1 DUP4 ADD SWAP2 SWAP1 SWAP2 MSTORE DUP3 ADD MLOAD PUSH1 0x60 DUP1 DUP4 ADD SWAP2 SWAP1 SWAP2 MSTORE DUP3 ADD MLOAD PUSH1 0x80 DUP1 DUP4 ADD SWAP2 SWAP1 SWAP2 MSTORE DUP3 ADD MLOAD PUSH1 0xA0 DUP1 DUP4 ADD SWAP2 SWAP1 SWAP2 MSTORE DUP3 ADD MLOAD PUSH1 0xC0 DUP1 DUP4 ADD SWAP2 SWAP1 SWAP2 MSTORE DUP3 ADD MLOAD PUSH1 0xE0 DUP1 DUP4 ADD SWAP2 SWAP1 SWAP2 MSTORE DUP3 ADD MLOAD PUSH2 0x100 DUP1 DUP4 ADD SWAP2 SWAP1 SWAP2 MSTORE DUP3 ADD MLOAD PUSH2 0x120 DUP1 DUP4 ADD SWAP2 SWAP1 SWAP2 MSTORE DUP3 ADD MLOAD PUSH2 0x140 DUP1 DUP4 ADD SWAP2 SWAP1 SWAP2 MSTORE DUP3 ADD MLOAD PUSH2 0x160 DUP1 DUP4 ADD SWAP2 SWAP1 SWAP2 MSTORE DUP3 ADD MLOAD PUSH2 0x180 DUP1 DUP4 ADD SWAP2 SWAP1 SWAP2 MSTORE DUP3 ADD MLOAD PUSH2 0x1A0 DUP1 DUP4 ADD SWAP2 SWAP1 SWAP2 MSTORE DUP3 ADD MLOAD PUSH2 0x1C0 DUP1 DUP4 ADD SWAP2 SWAP1 SWAP2 MSTORE DUP3 ADD MLOAD PUSH2 0x1E0 DUP1 DUP4 ADD SWAP2 SWAP1 SWAP2 MSTORE DUP3 ADD MLOAD PUSH2 0x200 DUP1 DUP4 ADD SWAP2 SWAP1 SWAP2 MSTORE DUP3 ADD MLOAD PUSH2 0x220 DUP1 DUP4 ADD SWAP2 SWAP1 SWAP2 MSTORE DUP3 ADD MLOAD PUSH2 0x240 DUP1 DUP4 ADD MSTORE PUSH0 SWAP1 PUSH2 0x4DFB PUSH2 0x260 DUP5 ADD DUP3 PUSH2 0x4B7C JUMP JUMPDEST SWAP5 SWAP4 POP POP POP POP JUMP JUMPDEST PUSH0 DUP1 PUSH0 PUSH1 0x60 DUP5 DUP7 SUB SLT ISZERO PUSH2 0x4E15 JUMPI PUSH0 DUP1 REVERT JUMPDEST PUSH2 0x4E1E DUP5 PUSH2 0x4A3A JUMP JUMPDEST SWAP3 POP PUSH2 0x4E2C PUSH1 0x20 DUP6 ADD PUSH2 0x4A3A JUMP JUMPDEST SWAP2 POP PUSH1 0x40 DUP5 ADD CALLDATALOAD SWAP1 POP SWAP3 POP SWAP3 POP SWAP3 JUMP JUMPDEST PUSH0 PUSH1 0x20 DUP3 DUP5 SUB SLT ISZERO PUSH2 0x4E4C JUMPI PUSH0 DUP1 REVERT JUMPDEST POP CALLDATALOAD SWAP2 SWAP1 POP JUMP JUMPDEST PUSH1 0x20 DUP1 DUP3 MSTORE DUP3 MLOAD DUP3 DUP3 ADD DUP2 SWAP1 MSTORE PUSH0 SWAP2 SWAP1 DUP5 DUP3 ADD SWAP1 PUSH1 0x40 DUP6 ADD SWAP1 DUP5 JUMPDEST DUP2 DUP2 LT ISZERO PUSH2 0x4B1B JUMPI PUSH2 0x4EA8 DUP4 DUP6 MLOAD DUP1 MLOAD DUP3 MSTORE PUSH1 0x20 DUP1 DUP3 ADD MLOAD PUSH1 0x1 PUSH1 0x1 PUSH1 0xA0 SHL SUB AND SWAP1 DUP4 ADD MSTORE PUSH1 0x40 DUP1 DUP3 ADD MLOAD SWAP1 DUP4 ADD MSTORE PUSH1 0x60 SWAP1 DUP2 ADD MLOAD SWAP2 ADD MSTORE JUMP JUMPDEST SWAP3 DUP5 ADD SWAP3 PUSH1 0x80 SWAP3 SWAP1 SWAP3 ADD SWAP2 PUSH1 0x1 ADD PUSH2 0x4E6E JUMP JUMPDEST PUSH1 0x20 DUP1 DUP3 MSTORE DUP3 MLOAD DUP3 DUP3 ADD DUP2 SWAP1 MSTORE PUSH0 SWAP2 SWAP1 PUSH1 0x40 SWAP1 DUP2 DUP6 ADD SWAP1 DUP7 DUP5 ADD DUP6 JUMPDEST DUP3 DUP2 LT ISZERO PUSH2 0x4CFF JUMPI DUP2 MLOAD DUP1 MLOAD DUP6 MSTORE DUP7 ADD MLOAD DUP7 DUP6 ADD MSTORE SWAP3 DUP5 ADD SWAP3 SWAP1 DUP6 ADD SWAP1 PUSH1 0x1 ADD PUSH2 0x4ED7 JUMP JUMPDEST PUSH0 PUSH1 0x20 DUP1 DUP4 ADD DUP2 DUP5 MSTORE DUP1 DUP6 MLOAD DUP1 DUP4 MSTORE PUSH1 0x40 SWAP3 POP DUP3 DUP7 ADD SWAP2 POP DUP3 DUP2 PUSH1 0x5 SHL DUP8 ADD ADD DUP5 DUP9 ADD PUSH0 JUMPDEST DUP4 DUP2 LT ISZERO PUSH2 0x4C7B JUMPI PUSH1 0x3F NOT DUP10 DUP5 SUB ADD DUP6 MSTORE DUP2 MLOAD PUSH2 0x120 DUP2 MLOAD DUP6 MSTORE DUP9 DUP3 ADD MLOAD DUP2 DUP11 DUP8 ADD MSTORE PUSH2 0x4F50 DUP3 DUP8 ADD DUP3 PUSH2 0x4B7C JUMP JUMPDEST DUP4 DUP11 ADD MLOAD DUP8 DUP12 ADD MSTORE PUSH1 0x60 DUP1 DUP6 ADD MLOAD SWAP1 DUP9 ADD MSTORE PUSH1 0x80 DUP1 DUP6 ADD MLOAD SWAP1 DUP9 ADD MSTORE PUSH1 0xA0 DUP1 DUP6 ADD MLOAD SWAP1 DUP9 ADD MSTORE PUSH1 0xC0 DUP1 DUP6 ADD MLOAD SWAP1 DUP9 ADD MSTORE PUSH1 0xE0 DUP1 DUP6 ADD MLOAD SWAP1 DUP9 ADD MSTORE PUSH2 0x100 SWAP4 DUP5 ADD MLOAD ISZERO ISZERO SWAP4 SWAP1 SWAP7 ADD SWAP3 SWAP1 SWAP3 MSTORE POP POP SWAP4 DUP7 ADD SWAP4 SWAP1 DUP7 ADD SWAP1 PUSH1 0x1 ADD PUSH2 0x4F21 JUMP JUMPDEST PUSH0 PUSH2 0x120 DUP12 DUP4 MSTORE DUP1 PUSH1 0x20 DUP5 ADD MSTORE PUSH2 0x4FC6 DUP2 DUP5 ADD DUP13 PUSH2 0x4B7C JUMP JUMPDEST PUSH1 0x40 DUP5 ADD SWAP11 SWAP1 SWAP11 MSTORE POP POP SWAP6 ISZERO ISZERO PUSH1 0x60 DUP8 ADD MSTORE SWAP4 ISZERO ISZERO PUSH1 0x80 DUP7 ADD MSTORE PUSH1 0xA0 DUP6 ADD SWAP3 SWAP1 SWAP3 MSTORE PUSH1 0xC0 DUP5 ADD MSTORE PUSH1 0xE0 DUP4 ADD MSTORE ISZERO ISZERO PUSH2 0x100 SWAP1 SWAP2 ADD MSTORE SWAP3 SWAP2 POP POP JUMP JUMPDEST PUSH0 DUP1 PUSH1 0x40 DUP4 DUP6 SUB SLT ISZERO PUSH2 0x5012 JUMPI PUSH0 DUP1 REVERT JUMPDEST POP POP DUP1 CALLDATALOAD SWAP3 PUSH1 0x20 SWAP1 SWAP2 ADD CALLDATALOAD SWAP2 POP JUMP JUMPDEST PUSH1 0x20 DUP1 DUP3 MSTORE DUP3 MLOAD DUP3 DUP3 ADD DUP2 SWAP1 MSTORE PUSH0 SWAP2 SWAP1 DUP5 DUP3 ADD SWAP1 PUSH1 0x40 DUP6 ADD SWAP1 DUP5 JUMPDEST DUP2 DUP2 LT ISZERO PUSH2 0x4B1B JUMPI PUSH2 0x5076 DUP4 DUP6 MLOAD DUP1 MLOAD DUP3 MSTORE PUSH1 0x20 DUP1 DUP3 ADD MLOAD PUSH1 0x1 PUSH1 0x1 PUSH1 0xA0 SHL SUB AND SWAP1 DUP4 ADD MSTORE PUSH1 0x40 DUP1 DUP3 ADD MLOAD SWAP1 DUP4 ADD MSTORE PUSH1 0x60 SWAP1 DUP2 ADD MLOAD SWAP2 ADD MSTORE JUMP JUMPDEST SWAP3 DUP5 ADD SWAP3 PUSH1 0x80 SWAP3 SWAP1 SWAP3 ADD SWAP2 PUSH1 0x1 ADD PUSH2 0x503C JUMP JUMPDEST DUP7 DUP2 MSTORE PUSH1 0xC0 PUSH1 0x20 DUP3 ADD MSTORE PUSH0 PUSH2 0x50A1 PUSH1 0xC0 DUP4 ADD DUP9 PUSH2 0x4B7C JUMP JUMPDEST SWAP1 POP DUP6 PUSH1 0x40 DUP4 ADD MSTORE DUP5 PUSH1 0x60 DUP4 ADD MSTORE DUP4 PUSH1 0x80 DUP4 ADD MSTORE DUP3 PUSH1 0xA0 DUP4 ADD MSTORE SWAP8 SWAP7 POP POP POP POP POP POP POP JUMP JUMPDEST PUSH4 0x4E487B71 PUSH1 0xE0 SHL PUSH0 MSTORE PUSH1 0x11 PUSH1 0x4 MSTORE PUSH1 0x24 PUSH0 REVERT JUMPDEST DUP1 DUP3 MUL DUP2 ISZERO DUP3 DUP3 DIV DUP5 EQ OR PUSH2 0x28F4 JUMPI PUSH2 0x28F4 PUSH2 0x50C6 JUMP JUMPDEST DUP2 DUP2 SUB DUP2 DUP2 GT ISZERO PUSH2 0x28F4 JUMPI PUSH2 0x28F4 PUSH2 0x50C6 JUMP JUMPDEST PUSH4 0x4E487B71 PUSH1 0xE0 SHL PUSH0 MSTORE PUSH1 0x41 PUSH1 0x4 MSTORE PUSH1 0x24 PUSH0 REVERT JUMPDEST PUSH0 PUSH1 0x1 DUP3 ADD PUSH2 0x5129 JUMPI PUSH2 0x5129 PUSH2 0x50C6 JUMP JUMPDEST POP PUSH1 0x1 ADD SWAP1 JUMP JUMPDEST PUSH4 0x4E487B71 PUSH1 0xE0 SHL PUSH0 MSTORE PUSH1 0x32 PUSH1 0x4 MSTORE PUSH1 0x24 PUSH0 REVERT JUMPDEST PUSH0 DUP2 PUSH2 0x5152 JUMPI PUSH2 0x5152 PUSH2 0x50C6 JUMP JUMPDEST POP PUSH0 NOT ADD SWAP1 JUMP JUMPDEST PUSH1 0x20 DUP1 DUP3 MSTORE PUSH1 0x29 SWAP1 DUP3 ADD MSTORE PUSH32 0x4465706F73697420697320616C6C6F776564206F6E6C79206166746572207468 PUSH1 0x40 DUP3 ADD MSTORE PUSH9 0x329032BC3834B93C97 PUSH1 0xB9 SHL PUSH1 0x60 DUP3 ADD MSTORE PUSH1 0x80 ADD SWAP1 JUMP JUMPDEST PUSH1 0x1 DUP2 DUP2 SHR SWAP1 DUP3 AND DUP1 PUSH2 0x51B6 JUMPI PUSH1 0x7F DUP3 AND SWAP2 POP JUMPDEST PUSH1 0x20 DUP3 LT DUP2 SUB PUSH2 0x11E8 JUMPI PUSH4 0x4E487B71 PUSH1 0xE0 SHL PUSH0 MSTORE PUSH1 0x22 PUSH1 0x4 MSTORE PUSH1 0x24 PUSH0 REVERT JUMPDEST DUP1 DUP3 ADD DUP1 DUP3 GT ISZERO PUSH2 0x28F4 JUMPI PUSH2 0x28F4 PUSH2 0x50C6 JUMP JUMPDEST PUSH1 0x20 DUP1 DUP3 MSTORE PUSH1 0x14 SWAP1 DUP3 ADD MSTORE PUSH20 0x596F7520617265206E6F7420616C6C6F77656421 PUSH1 0x60 SHL PUSH1 0x40 DUP3 ADD MSTORE PUSH1 0x60 ADD SWAP1 JUMP JUMPDEST PUSH0 DUP3 PUSH2 0x522F JUMPI PUSH4 0x4E487B71 PUSH1 0xE0 SHL PUSH0 MSTORE PUSH1 0x12 PUSH1 0x4 MSTORE PUSH1 0x24 PUSH0 REVERT JUMPDEST POP DIV SWAP1 JUMP JUMPDEST PUSH0 PUSH1 0x20 DUP3 DUP5 SUB SLT ISZERO PUSH2 0x5244 JUMPI PUSH0 DUP1 REVERT JUMPDEST POP MLOAD SWAP2 SWAP1 POP JUMP JUMPDEST PUSH1 0x1 DUP2 DUP2 JUMPDEST DUP1 DUP6 GT ISZERO PUSH2 0x5285 JUMPI DUP2 PUSH0 NOT DIV DUP3 GT ISZERO PUSH2 0x526B JUMPI PUSH2 0x526B PUSH2 0x50C6 JUMP JUMPDEST DUP1 DUP6 AND ISZERO PUSH2 0x5278 JUMPI SWAP2 DUP2 MUL SWAP2 JUMPDEST SWAP4 DUP5 SHR SWAP4 SWAP1 DUP1 MUL SWAP1 PUSH2 0x5250 JUMP JUMPDEST POP SWAP3 POP SWAP3 SWAP1 POP JUMP JUMPDEST PUSH0 DUP3 PUSH2 0x529B JUMPI POP PUSH1 0x1 PUSH2 0x28F4 JUMP JUMPDEST DUP2 PUSH2 0x52A7 JUMPI POP PUSH0 PUSH2 0x28F4 JUMP JUMPDEST DUP2 PUSH1 0x1 DUP2 EQ PUSH2 0x52BD JUMPI PUSH1 0x2 DUP2 EQ PUSH2 0x52C7 JUMPI PUSH2 0x52E3 JUMP JUMPDEST PUSH1 0x1 SWAP2 POP POP PUSH2 0x28F4 JUMP JUMPDEST PUSH1 0xFF DUP5 GT ISZERO PUSH2 0x52D8 JUMPI PUSH2 0x52D8 PUSH2 0x50C6 JUMP JUMPDEST POP POP PUSH1 0x1 DUP3 SHL PUSH2 0x28F4 JUMP JUMPDEST POP PUSH1 0x20 DUP4 LT PUSH2 0x133 DUP4 LT AND PUSH1 0x4E DUP5 LT PUSH1 0xB DUP5 LT AND OR ISZERO PUSH2 0x5306 JUMPI POP DUP2 DUP2 EXP PUSH2 0x28F4 JUMP JUMPDEST PUSH2 0x5310 DUP4 DUP4 PUSH2 0x524B JUMP JUMPDEST DUP1 PUSH0 NOT DIV DUP3 GT ISZERO PUSH2 0x5323 JUMPI PUSH2 0x5323 PUSH2 0x50C6 JUMP JUMPDEST MUL SWAP4 SWAP3 POP POP POP JUMP JUMPDEST PUSH0 PUSH2 0x3180 DUP4 DUP4 PUSH2 0x528D JUMP JUMPDEST PUSH0 PUSH1 0x20 DUP3 DUP5 SUB SLT ISZERO PUSH2 0x5346 JUMPI PUSH0 DUP1 REVERT JUMPDEST DUP2 MLOAD DUP1 ISZERO ISZERO DUP2 EQ PUSH2 0x3180 JUMPI PUSH0 DUP1 REVERT INVALID LOG2 PUSH5 0x6970667358 0x22 SLT KECCAK256 0x1E MSTORE AND 0xF8 0xDC 0xB3 SWAP13 0xDD 0xEB XOR PUSH4 0xCAC30CAB MSTORE8 0x23 0x5D REVERT MOD PUSH23 0xED5CAF6CCD07D215DD0FCF64736F6C6343000814003300 "
		},
		"gasEstimates": {
			"creation": {
				"codeDepositCost": "4277400",
				"executionCost": "infinite",
				"totalCost": "infinite"
			},
			"external": {
				"CreatorAddress()": "2449",
				"CreatorAddress_2()": "2491",
				"Deposit(uint256,uint256)": "infinite",
				"GetContractDetails()": "infinite",
				"GetDashboardDetails(address)": "infinite",
				"GetDepositHistory(address,uint256,uint256)": "infinite",
				"GetDirects(address)": "infinite",
				"GetIncomeWithdrawalHistory(address,uint256,uint256)": "infinite",
				"GetLevelIncomeInfo(address)": "infinite",
				"GetPackages()": "infinite",
				"GetROIIncomeHistory(address,uint256,uint256)": "infinite",
				"GetRankInfo(address)": "infinite",
				"GetTeamDetails(address,uint256,uint256)": "infinite",
				"GetWalletBalance(address,uint256)": "2765",
				"Login(address)": "4889",
				"ManagementFee()": "2381",
				"MarketingAddress()": "2382",
				"Reactivate()": "infinite",
				"Register(address)": "infinite",
				"SecurityFundContract()": "2448",
				"SetSecurityFundContract(address)": "29009",
				"TopupMemberFromWallet(address,uint256,uint256)": "infinite",
				"TotalInvestment()": "2383",
				"TotalUsers()": "2426",
				"TotalWithdrawn()": "2384",
				"TransferFunds(address,address,uint256)": "infinite",
				"UpdateCreatorAddress(address)": "29053",
				"UpdateMarketingAddress(address)": "28965",
				"Withdraw(address,uint256,uint256)": "infinite",
				"Withdraw(uint256)": "infinite",
				"map_LevelIncomeMaster(uint256)": "6778",
				"map_PackageMaster(uint256)": "infinite",
				"map_ROIIncomeHistory(address,uint256)": "6930",
				"map_RankMaster(uint256)": "infinite",
				"map_UserBusinessOnLevel(address,uint256)": "2700",
				"map_UserDeposits(address,uint256)": "7018",
				"map_UserIdToAddress(uint256)": "2607",
				"map_UserIncome(address)": "13320",
				"map_UserIncomeWithdrawalHistory(address,uint256)": "4784",
				"map_UserTeam(address)": "9053",
				"map_UserTransactionCount(address)": "9007",
				"map_UserWalletBalance(address,uint256)": "2678",
				"map_Users(address)": "24103"
			},
			"internal": {
				"CapAndCreditIncomeToWallet(address,uint256)": "infinite",
				"CapIncome(address,uint256)": "infinite",
				"ConvertToBase(uint256)": "infinite",
				"DepositInternal(uint256,uint256)": "infinite",
				"DistributeLevelIncome(address)": "infinite",
				"GetContractBalance()": "infinite",
				"GetPendingROIIncome(address)": "infinite",
				"GetTotalIncome(address)": "infinite",
				"GetTotalLevelIncome(address)": "infinite",
				"Init()": "infinite",
				"InitLevelIncomeMaster()": "infinite",
				"InitPackageMaster()": "infinite",
				"InitRankMaster()": "infinite",
				"InitTopUser()": "infinite",
				"IsOwner()": "4300",
				"IsQualifiedForLevelIncome(address,uint256)": "4431",
				"Process24HoursTopmostSponsorsIncome(uint256)": "infinite",
				"Process4X_CappingQualification(address,uint256,uint256)": "infinite",
				"ProcessNewRegistrationBonus(address,uint256)": "infinite",
				"ProcessROIIncome(address,uint256,uint256)": "infinite",
				"ProcessRankQualification(address)": "infinite",
				"ReactivateInternal(address,uint256,uint256)": "infinite",
				"ReceiveTokens(uint256)": "infinite",
				"RegisterInternal(address)": "infinite",
				"SaveDeposit(address,uint256,uint256)": "infinite",
				"SaveUser(address,address)": "infinite",
				"SendTokens(address,uint256)": "infinite",
				"SendTokensFromSecurityContract(address,uint256)": "infinite",
				"UpdateTeamCount(address,address)": "infinite",
				"UpdateTeamInvestment(address,address,uint256)": "infinite",
				"doesUserExist(address)": "2210",
				"isUserActive(address)": "infinite"
			}
		},
		"methodIdentifiers": {
			"CreatorAddress()": "1cfa6e9b",
			"CreatorAddress_2()": "b5d962b7",
			"Deposit(uint256,uint256)": "a3af609b",
			"GetContractDetails()": "6b1a7086",
			"GetDashboardDetails(address)": "54a03e38",
			"GetDepositHistory(address,uint256,uint256)": "2e628e2e",
			"GetDirects(address)": "5be94e83",
			"GetIncomeWithdrawalHistory(address,uint256,uint256)": "759369d2",
			"GetLevelIncomeInfo(address)": "4a40f2fe",
			"GetPackages()": "3daa551c",
			"GetROIIncomeHistory(address,uint256,uint256)": "2e244fc7",
			"GetRankInfo(address)": "8b2c295e",
			"GetTeamDetails(address,uint256,uint256)": "dacbb37e",
			"GetWalletBalance(address,uint256)": "fd0bb36c",
			"Login(address)": "eecc1c95",
			"ManagementFee()": "b66db385",
			"MarketingAddress()": "3936e8b9",
			"Reactivate()": "ff9b6364",
			"Register(address)": "eeda149c",
			"SecurityFundContract()": "88cb410d",
			"SetSecurityFundContract(address)": "a5f94521",
			"TopupMemberFromWallet(address,uint256,uint256)": "3341d2e6",
			"TotalInvestment()": "a4b6f5e1",
			"TotalUsers()": "641fba96",
			"TotalWithdrawn()": "4788312f",
			"TransferFunds(address,address,uint256)": "5a015583",
			"UpdateCreatorAddress(address)": "68ec2fbe",
			"UpdateMarketingAddress(address)": "ba32f6f4",
			"Withdraw(address,uint256,uint256)": "f279e6a1",
			"Withdraw(uint256)": "5b6b431d",
			"map_LevelIncomeMaster(uint256)": "705116a0",
			"map_PackageMaster(uint256)": "a18a609a",
			"map_ROIIncomeHistory(address,uint256)": "2dedf15a",
			"map_RankMaster(uint256)": "edbdc914",
			"map_UserBusinessOnLevel(address,uint256)": "1bfe37ce",
			"map_UserDeposits(address,uint256)": "365152fa",
			"map_UserIdToAddress(uint256)": "ac3a4800",
			"map_UserIncome(address)": "e315927b",
			"map_UserIncomeWithdrawalHistory(address,uint256)": "07d94067",
			"map_UserTeam(address)": "2a530a36",
			"map_UserTransactionCount(address)": "c5f00964",
			"map_UserWalletBalance(address,uint256)": "1362e8e6",
			"map_Users(address)": "5cf75517"
		}
	},
	"abi": [
		{
			"inputs": [],
			"stateMutability": "nonpayable",
			"type": "constructor"
		},
		{
			"anonymous": false,
			"inputs": [
				{
					"indexed": true,
					"internalType": "address",
					"name": "from",
					"type": "address"
				},
				{
					"indexed": true,
					"internalType": "address",
					"name": "to",
					"type": "address"
				},
				{
					"indexed": false,
					"internalType": "uint256",
					"name": "value",
					"type": "uint256"
				}
			],
			"name": "Transfer",
			"type": "event"
		},
		{
			"inputs": [],
			"name": "CreatorAddress",
			"outputs": [
				{
					"internalType": "address",
					"name": "",
					"type": "address"
				}
			],
			"stateMutability": "view",
			"type": "function"
		},
		{
			"inputs": [],
			"name": "CreatorAddress_2",
			"outputs": [
				{
					"internalType": "address",
					"name": "",
					"type": "address"
				}
			],
			"stateMutability": "view",
			"type": "function"
		},
		{
			"inputs": [
				{
					"internalType": "uint256",
					"name": "packageId",
					"type": "uint256"
				},
				{
					"internalType": "uint256",
					"name": "amount",
					"type": "uint256"
				}
			],
			"name": "Deposit",
			"outputs": [],
			"stateMutability": "payable",
			"type": "function"
		},
		{
			"inputs": [],
			"name": "GetContractDetails",
			"outputs": [
				{
					"components": [
						{
							"internalType": "uint256",
							"name": "TotalCommunity",
							"type": "uint256"
						},
						{
							"internalType": "uint256",
							"name": "CommunityInvestment",
							"type": "uint256"
						},
						{
							"internalType": "uint256",
							"name": "CommunityWithdrawal",
							"type": "uint256"
						},
						{
							"internalType": "uint256",
							"name": "ContractBalance",
							"type": "uint256"
						},
						{
							"internalType": "bool",
							"name": "IsWithdrawalAllowedAfterPrincipleAmount",
							"type": "bool"
						}
					],
					"internalType": "struct BBD.ContractInfo",
					"name": "info",
					"type": "tuple"
				}
			],
			"stateMutability": "view",
			"type": "function"
		},
		{
			"inputs": [
				{
					"internalType": "address",
					"name": "userAddress",
					"type": "address"
				}
			],
			"name": "GetDashboardDetails",
			"outputs": [
				{
					"components": [
						{
							"internalType": "uint256",
							"name": "Investment",
							"type": "uint256"
						},
						{
							"internalType": "uint256",
							"name": "DirectsCount",
							"type": "uint256"
						},
						{
							"internalType": "uint256",
							"name": "DirectsInvestment",
							"type": "uint256"
						},
						{
							"internalType": "uint256",
							"name": "TeamCount",
							"type": "uint256"
						},
						{
							"internalType": "uint256",
							"name": "TeamA_Business",
							"type": "uint256"
						},
						{
							"internalType": "uint256",
							"name": "TeamB_Business",
							"type": "uint256"
						},
						{
							"internalType": "uint256",
							"name": "TeamInvestment",
							"type": "uint256"
						},
						{
							"internalType": "uint256",
							"name": "NewRegistrationBonus",
							"type": "uint256"
						},
						{
							"internalType": "uint256",
							"name": "ReferralIncome",
							"type": "uint256"
						},
						{
							"internalType": "uint256",
							"name": "LevelIncome",
							"type": "uint256"
						},
						{
							"internalType": "uint256",
							"name": "ROIIncome",
							"type": "uint256"
						},
						{
							"internalType": "uint256",
							"name": "PendingROIIncome",
							"type": "uint256"
						},
						{
							"internalType": "uint256",
							"name": "RankIncome",
							"type": "uint256"
						},
						{
							"internalType": "uint256",
							"name": "TopmostSponsorsIncome",
							"type": "uint256"
						},
						{
							"internalType": "uint256",
							"name": "TotalIncome",
							"type": "uint256"
						},
						{
							"internalType": "uint256",
							"name": "Capping",
							"type": "uint256"
						},
						{
							"internalType": "uint256",
							"name": "AmountWithdrawn",
							"type": "uint256"
						},
						{
							"internalType": "string",
							"name": "RankName",
							"type": "string"
						}
					],
					"internalType": "struct BBD.UserDashboard",
					"name": "info",
					"type": "tuple"
				}
			],
			"stateMutability": "view",
			"type": "function"
		},
		{
			"inputs": [
				{
					"internalType": "address",
					"name": "userAddress",
					"type": "address"
				},
				{
					"internalType": "uint256",
					"name": "pageIndex",
					"type": "uint256"
				},
				{
					"internalType": "uint256",
					"name": "pageSize",
					"type": "uint256"
				}
			],
			"name": "GetDepositHistory",
			"outputs": [
				{
					"components": [
						{
							"internalType": "uint256",
							"name": "PackageId",
							"type": "uint256"
						},
						{
							"internalType": "uint256",
							"name": "Amount",
							"type": "uint256"
						},
						{
							"internalType": "uint256",
							"name": "Timestamp",
							"type": "uint256"
						}
					],
					"internalType": "struct BBD.UserDeposit[]",
					"name": "deposits",
					"type": "tuple[]"
				}
			],
			"stateMutability": "view",
			"type": "function"
		},
		{
			"inputs": [
				{
					"internalType": "address",
					"name": "userAddress",
					"type": "address"
				}
			],
			"name": "GetDirects",
			"outputs": [
				{
					"components": [
						{
							"internalType": "uint256",
							"name": "Srno",
							"type": "uint256"
						},
						{
							"internalType": "address",
							"name": "Address",
							"type": "address"
						},
						{
							"internalType": "uint256",
							"name": "Investment",
							"type": "uint256"
						},
						{
							"internalType": "uint256",
							"name": "Business",
							"type": "uint256"
						}
					],
					"internalType": "struct BBD.UserDirects[]",
					"name": "directs",
					"type": "tuple[]"
				}
			],
			"stateMutability": "view",
			"type": "function"
		},
		{
			"inputs": [
				{
					"internalType": "address",
					"name": "userAddress",
					"type": "address"
				},
				{
					"internalType": "uint256",
					"name": "pageIndex",
					"type": "uint256"
				},
				{
					"internalType": "uint256",
					"name": "pageSize",
					"type": "uint256"
				}
			],
			"name": "GetIncomeWithdrawalHistory",
			"outputs": [
				{
					"components": [
						{
							"internalType": "uint256",
							"name": "Amount",
							"type": "uint256"
						},
						{
							"internalType": "uint256",
							"name": "Timestamp",
							"type": "uint256"
						}
					],
					"internalType": "struct BBD.UserIncomeWithdrawalTransaction[]",
					"name": "history",
					"type": "tuple[]"
				}
			],
			"stateMutability": "view",
			"type": "function"
		},
		{
			"inputs": [
				{
					"internalType": "address",
					"name": "userAddress",
					"type": "address"
				}
			],
			"name": "GetLevelIncomeInfo",
			"outputs": [
				{
					"components": [
						{
							"internalType": "uint256",
							"name": "Level",
							"type": "uint256"
						},
						{
							"internalType": "uint256",
							"name": "RequiredMinRankId",
							"type": "uint256"
						},
						{
							"internalType": "uint256",
							"name": "RankId",
							"type": "uint256"
						},
						{
							"internalType": "uint256",
							"name": "OnAmount",
							"type": "uint256"
						},
						{
							"internalType": "uint256",
							"name": "Percentage",
							"type": "uint256"
						},
						{
							"internalType": "uint256",
							"name": "Income",
							"type": "uint256"
						},
						{
							"internalType": "bool",
							"name": "IsLevelAchieved",
							"type": "bool"
						}
					],
					"internalType": "struct BBD.LevelIncomeInfo[]",
					"name": "info",
					"type": "tuple[]"
				}
			],
			"stateMutability": "view",
			"type": "function"
		},
		{
			"inputs": [],
			"name": "GetPackages",
			"outputs": [
				{
					"components": [
						{
							"internalType": "uint256",
							"name": "PackageId",
							"type": "uint256"
						},
						{
							"internalType": "string",
							"name": "Name",
							"type": "string"
						},
						{
							"internalType": "uint256",
							"name": "Amount",
							"type": "uint256"
						},
						{
							"internalType": "bool",
							"name": "IsActive",
							"type": "bool"
						},
						{
							"internalType": "bool",
							"name": "HasRange",
							"type": "bool"
						},
						{
							"internalType": "uint256",
							"name": "MinAmount",
							"type": "uint256"
						},
						{
							"internalType": "uint256",
							"name": "MaxAmount",
							"type": "uint256"
						},
						{
							"internalType": "uint256",
							"name": "ReferralIncome",
							"type": "uint256"
						},
						{
							"internalType": "bool",
							"name": "IsReferralIncomePercentage",
							"type": "bool"
						}
					],
					"internalType": "struct BBD.PackageMaster[]",
					"name": "",
					"type": "tuple[]"
				}
			],
			"stateMutability": "view",
			"type": "function"
		},
		{
			"inputs": [
				{
					"internalType": "address",
					"name": "userAddress",
					"type": "address"
				},
				{
					"internalType": "uint256",
					"name": "pageIndex",
					"type": "uint256"
				},
				{
					"internalType": "uint256",
					"name": "pageSize",
					"type": "uint256"
				}
			],
			"name": "GetROIIncomeHistory",
			"outputs": [
				{
					"components": [
						{
							"internalType": "uint256",
							"name": "OnAmount",
							"type": "uint256"
						},
						{
							"internalType": "uint256",
							"name": "Timestamp",
							"type": "uint256"
						},
						{
							"internalType": "uint256",
							"name": "Income",
							"type": "uint256"
						}
					],
					"internalType": "struct BBD.ROIIncomeDetail[]",
					"name": "history",
					"type": "tuple[]"
				}
			],
			"stateMutability": "view",
			"type": "function"
		},
		{
			"inputs": [
				{
					"internalType": "address",
					"name": "userAddress",
					"type": "address"
				}
			],
			"name": "GetRankInfo",
			"outputs": [
				{
					"components": [
						{
							"internalType": "uint256",
							"name": "RankId",
							"type": "uint256"
						},
						{
							"internalType": "string",
							"name": "RankName",
							"type": "string"
						},
						{
							"internalType": "uint256",
							"name": "ReqSelfInvestment",
							"type": "uint256"
						},
						{
							"internalType": "uint256",
							"name": "ReqTeamA_Business",
							"type": "uint256"
						},
						{
							"internalType": "uint256",
							"name": "ReqTeamB_Business",
							"type": "uint256"
						},
						{
							"internalType": "uint256",
							"name": "UserSelfInvestment",
							"type": "uint256"
						},
						{
							"internalType": "uint256",
							"name": "UserTeamA_Business",
							"type": "uint256"
						},
						{
							"internalType": "uint256",
							"name": "UserTeamB_Business",
							"type": "uint256"
						},
						{
							"internalType": "bool",
							"name": "IsAchieved",
							"type": "bool"
						}
					],
					"internalType": "struct BBD.RankInfo[]",
					"name": "info",
					"type": "tuple[]"
				}
			],
			"stateMutability": "view",
			"type": "function"
		},
		{
			"inputs": [
				{
					"internalType": "address",
					"name": "userAddress",
					"type": "address"
				},
				{
					"internalType": "uint256",
					"name": "pageIndex",
					"type": "uint256"
				},
				{
					"internalType": "uint256",
					"name": "pageSize",
					"type": "uint256"
				}
			],
			"name": "GetTeamDetails",
			"outputs": [
				{
					"components": [
						{
							"internalType": "uint256",
							"name": "Srno",
							"type": "uint256"
						},
						{
							"internalType": "address",
							"name": "Address",
							"type": "address"
						},
						{
							"internalType": "uint256",
							"name": "Investment",
							"type": "uint256"
						},
						{
							"internalType": "uint256",
							"name": "Business",
							"type": "uint256"
						}
					],
					"internalType": "struct BBD.UserTeamMember[]",
					"name": "team",
					"type": "tuple[]"
				}
			],
			"stateMutability": "view",
			"type": "function"
		},
		{
			"inputs": [
				{
					"internalType": "address",
					"name": "userAddress",
					"type": "address"
				},
				{
					"internalType": "uint256",
					"name": "walletId",
					"type": "uint256"
				}
			],
			"name": "GetWalletBalance",
			"outputs": [
				{
					"internalType": "uint256",
					"name": "",
					"type": "uint256"
				}
			],
			"stateMutability": "view",
			"type": "function"
		},
		{
			"inputs": [
				{
					"internalType": "address",
					"name": "_address",
					"type": "address"
				}
			],
			"name": "Login",
			"outputs": [
				{
					"internalType": "bool",
					"name": "",
					"type": "bool"
				}
			],
			"stateMutability": "view",
			"type": "function"
		},
		{
			"inputs": [],
			"name": "ManagementFee",
			"outputs": [
				{
					"internalType": "address",
					"name": "",
					"type": "address"
				}
			],
			"stateMutability": "view",
			"type": "function"
		},
		{
			"inputs": [],
			"name": "MarketingAddress",
			"outputs": [
				{
					"internalType": "address",
					"name": "",
					"type": "address"
				}
			],
			"stateMutability": "view",
			"type": "function"
		},
		{
			"inputs": [],
			"name": "Reactivate",
			"outputs": [
				{
					"internalType": "bool",
					"name": "",
					"type": "bool"
				}
			],
			"stateMutability": "nonpayable",
			"type": "function"
		},
		{
			"inputs": [
				{
					"internalType": "address",
					"name": "sponsorAddress",
					"type": "address"
				}
			],
			"name": "Register",
			"outputs": [],
			"stateMutability": "payable",
			"type": "function"
		},
		{
			"inputs": [],
			"name": "SecurityFundContract",
			"outputs": [
				{
					"internalType": "address",
					"name": "",
					"type": "address"
				}
			],
			"stateMutability": "view",
			"type": "function"
		},
		{
			"inputs": [
				{
					"internalType": "address",
					"name": "_security",
					"type": "address"
				}
			],
			"name": "SetSecurityFundContract",
			"outputs": [],
			"stateMutability": "nonpayable",
			"type": "function"
		},
		{
			"inputs": [
				{
					"internalType": "address",
					"name": "userAddressToTopup",
					"type": "address"
				},
				{
					"internalType": "uint256",
					"name": "packageId",
					"type": "uint256"
				},
				{
					"internalType": "uint256",
					"name": "amount",
					"type": "uint256"
				}
			],
			"name": "TopupMemberFromWallet",
			"outputs": [],
			"stateMutability": "nonpayable",
			"type": "function"
		},
		{
			"inputs": [],
			"name": "TotalInvestment",
			"outputs": [
				{
					"internalType": "uint256",
					"name": "",
					"type": "uint256"
				}
			],
			"stateMutability": "view",
			"type": "function"
		},
		{
			"inputs": [],
			"name": "TotalUsers",
			"outputs": [
				{
					"internalType": "uint256",
					"name": "",
					"type": "uint256"
				}
			],
			"stateMutability": "view",
			"type": "function"
		},
		{
			"inputs": [],
			"name": "TotalWithdrawn",
			"outputs": [
				{
					"internalType": "uint256",
					"name": "",
					"type": "uint256"
				}
			],
			"stateMutability": "view",
			"type": "function"
		},
		{
			"inputs": [
				{
					"internalType": "address",
					"name": "from",
					"type": "address"
				},
				{
					"internalType": "address",
					"name": "to",
					"type": "address"
				},
				{
					"internalType": "uint256",
					"name": "value",
					"type": "uint256"
				}
			],
			"name": "TransferFunds",
			"outputs": [],
			"stateMutability": "nonpayable",
			"type": "function"
		},
		{
			"inputs": [
				{
					"internalType": "address",
					"name": "addr",
					"type": "address"
				}
			],
			"name": "UpdateCreatorAddress",
			"outputs": [],
			"stateMutability": "nonpayable",
			"type": "function"
		},
		{
			"inputs": [
				{
					"internalType": "address",
					"name": "addr",
					"type": "address"
				}
			],
			"name": "UpdateMarketingAddress",
			"outputs": [],
			"stateMutability": "nonpayable",
			"type": "function"
		},
		{
			"inputs": [
				{
					"internalType": "uint256",
					"name": "amount",
					"type": "uint256"
				}
			],
			"name": "Withdraw",
			"outputs": [],
			"stateMutability": "nonpayable",
			"type": "function"
		},
		{
			"inputs": [
				{
					"internalType": "address",
					"name": "userAddress",
					"type": "address"
				},
				{
					"internalType": "uint256",
					"name": "amount",
					"type": "uint256"
				},
				{
					"internalType": "uint256",
					"name": "_type",
					"type": "uint256"
				}
			],
			"name": "Withdraw",
			"outputs": [],
			"stateMutability": "nonpayable",
			"type": "function"
		},
		{
			"inputs": [
				{
					"internalType": "uint256",
					"name": "",
					"type": "uint256"
				}
			],
			"name": "map_LevelIncomeMaster",
			"outputs": [
				{
					"internalType": "uint256",
					"name": "Level",
					"type": "uint256"
				},
				{
					"internalType": "uint256",
					"name": "Percentage",
					"type": "uint256"
				},
				{
					"internalType": "uint256",
					"name": "RequiredMinRankId",
					"type": "uint256"
				}
			],
			"stateMutability": "view",
			"type": "function"
		},
		{
			"inputs": [
				{
					"internalType": "uint256",
					"name": "",
					"type": "uint256"
				}
			],
			"name": "map_PackageMaster",
			"outputs": [
				{
					"internalType": "uint256",
					"name": "PackageId",
					"type": "uint256"
				},
				{
					"internalType": "string",
					"name": "Name",
					"type": "string"
				},
				{
					"internalType": "uint256",
					"name": "Amount",
					"type": "uint256"
				},
				{
					"internalType": "bool",
					"name": "IsActive",
					"type": "bool"
				},
				{
					"internalType": "bool",
					"name": "HasRange",
					"type": "bool"
				},
				{
					"internalType": "uint256",
					"name": "MinAmount",
					"type": "uint256"
				},
				{
					"internalType": "uint256",
					"name": "MaxAmount",
					"type": "uint256"
				},
				{
					"internalType": "uint256",
					"name": "ReferralIncome",
					"type": "uint256"
				},
				{
					"internalType": "bool",
					"name": "IsReferralIncomePercentage",
					"type": "bool"
				}
			],
			"stateMutability": "view",
			"type": "function"
		},
		{
			"inputs": [
				{
					"internalType": "address",
					"name": "",
					"type": "address"
				},
				{
					"internalType": "uint256",
					"name": "",
					"type": "uint256"
				}
			],
			"name": "map_ROIIncomeHistory",
			"outputs": [
				{
					"internalType": "uint256",
					"name": "OnAmount",
					"type": "uint256"
				},
				{
					"internalType": "uint256",
					"name": "Timestamp",
					"type": "uint256"
				},
				{
					"internalType": "uint256",
					"name": "Income",
					"type": "uint256"
				}
			],
			"stateMutability": "view",
			"type": "function"
		},
		{
			"inputs": [
				{
					"internalType": "uint256",
					"name": "",
					"type": "uint256"
				}
			],
			"name": "map_RankMaster",
			"outputs": [
				{
					"internalType": "uint256",
					"name": "RankId",
					"type": "uint256"
				},
				{
					"internalType": "string",
					"name": "RankName",
					"type": "string"
				},
				{
					"internalType": "uint256",
					"name": "ReqSelfInvestment",
					"type": "uint256"
				},
				{
					"internalType": "uint256",
					"name": "ReqTeamA_Business",
					"type": "uint256"
				},
				{
					"internalType": "uint256",
					"name": "ReqTeamB_Business",
					"type": "uint256"
				},
				{
					"internalType": "uint256",
					"name": "RewardAmount",
					"type": "uint256"
				}
			],
			"stateMutability": "view",
			"type": "function"
		},
		{
			"inputs": [
				{
					"internalType": "address",
					"name": "",
					"type": "address"
				},
				{
					"internalType": "uint256",
					"name": "",
					"type": "uint256"
				}
			],
			"name": "map_UserBusinessOnLevel",
			"outputs": [
				{
					"internalType": "uint256",
					"name": "",
					"type": "uint256"
				}
			],
			"stateMutability": "view",
			"type": "function"
		},
		{
			"inputs": [
				{
					"internalType": "address",
					"name": "",
					"type": "address"
				},
				{
					"internalType": "uint256",
					"name": "",
					"type": "uint256"
				}
			],
			"name": "map_UserDeposits",
			"outputs": [
				{
					"internalType": "uint256",
					"name": "PackageId",
					"type": "uint256"
				},
				{
					"internalType": "uint256",
					"name": "Amount",
					"type": "uint256"
				},
				{
					"internalType": "uint256",
					"name": "Timestamp",
					"type": "uint256"
				}
			],
			"stateMutability": "view",
			"type": "function"
		},
		{
			"inputs": [
				{
					"internalType": "uint256",
					"name": "",
					"type": "uint256"
				}
			],
			"name": "map_UserIdToAddress",
			"outputs": [
				{
					"internalType": "address",
					"name": "",
					"type": "address"
				}
			],
			"stateMutability": "view",
			"type": "function"
		},
		{
			"inputs": [
				{
					"internalType": "address",
					"name": "",
					"type": "address"
				}
			],
			"name": "map_UserIncome",
			"outputs": [
				{
					"internalType": "uint256",
					"name": "ReferralIncome",
					"type": "uint256"
				},
				{
					"internalType": "uint256",
					"name": "NewRegistrationBonus",
					"type": "uint256"
				},
				{
					"internalType": "uint256",
					"name": "ROIIncome",
					"type": "uint256"
				},
				{
					"internalType": "uint256",
					"name": "RankIncome",
					"type": "uint256"
				},
				{
					"internalType": "uint256",
					"name": "TopmostSponsorsIncome",
					"type": "uint256"
				},
				{
					"internalType": "uint256",
					"name": "AmountWithdrawn",
					"type": "uint256"
				}
			],
			"stateMutability": "view",
			"type": "function"
		},
		{
			"inputs": [
				{
					"internalType": "address",
					"name": "",
					"type": "address"
				},
				{
					"internalType": "uint256",
					"name": "",
					"type": "uint256"
				}
			],
			"name": "map_UserIncomeWithdrawalHistory",
			"outputs": [
				{
					"internalType": "uint256",
					"name": "Amount",
					"type": "uint256"
				},
				{
					"internalType": "uint256",
					"name": "Timestamp",
					"type": "uint256"
				}
			],
			"stateMutability": "view",
			"type": "function"
		},
		{
			"inputs": [
				{
					"internalType": "address",
					"name": "",
					"type": "address"
				}
			],
			"name": "map_UserTeam",
			"outputs": [
				{
					"internalType": "uint256",
					"name": "DirectsInvestment",
					"type": "uint256"
				},
				{
					"internalType": "uint256",
					"name": "TeamABusiness",
					"type": "uint256"
				},
				{
					"internalType": "uint256",
					"name": "TeamBBusiness",
					"type": "uint256"
				},
				{
					"internalType": "uint256",
					"name": "TeamInvestment",
					"type": "uint256"
				}
			],
			"stateMutability": "view",
			"type": "function"
		},
		{
			"inputs": [
				{
					"internalType": "address",
					"name": "",
					"type": "address"
				}
			],
			"name": "map_UserTransactionCount",
			"outputs": [
				{
					"internalType": "uint256",
					"name": "DepositsCount",
					"type": "uint256"
				},
				{
					"internalType": "uint256",
					"name": "ROIIncomeCount",
					"type": "uint256"
				},
				{
					"internalType": "uint256",
					"name": "IncomeWithdrawalCount",
					"type": "uint256"
				},
				{
					"internalType": "uint256",
					"name": "ReactivationCount",
					"type": "uint256"
				}
			],
			"stateMutability": "view",
			"type": "function"
		},
		{
			"inputs": [
				{
					"internalType": "address",
					"name": "",
					"type": "address"
				},
				{
					"internalType": "uint256",
					"name": "",
					"type": "uint256"
				}
			],
			"name": "map_UserWalletBalance",
			"outputs": [
				{
					"internalType": "uint256",
					"name": "",
					"type": "uint256"
				}
			],
			"stateMutability": "view",
			"type": "function"
		},
		{
			"inputs": [
				{
					"internalType": "address",
					"name": "",
					"type": "address"
				}
			],
			"name": "map_Users",
			"outputs": [
				{
					"internalType": "uint256",
					"name": "Id",
					"type": "uint256"
				},
				{
					"internalType": "address",
					"name": "Address",
					"type": "address"
				},
				{
					"internalType": "address",
					"name": "SponsorAddress",
					"type": "address"
				},
				{
					"internalType": "uint256",
					"name": "JoiningTimestamp",
					"type": "uint256"
				},
				{
					"internalType": "uint256",
					"name": "Investment",
					"type": "uint256"
				},
				{
					"internalType": "uint256",
					"name": "TotalTeam",
					"type": "uint256"
				},
				{
					"internalType": "bool",
					"name": "IsBlocked",
					"type": "bool"
				},
				{
					"internalType": "uint256",
					"name": "FirstActivationTimestamp",
					"type": "uint256"
				},
				{
					"internalType": "uint256",
					"name": "ActivationExpiryTimestamp",
					"type": "uint256"
				},
				{
					"internalType": "uint256",
					"name": "RankId",
					"type": "uint256"
				},
				{
					"internalType": "bool",
					"name": "IsQualifiedFor4X",
					"type": "bool"
				},
				{
					"internalType": "bool",
					"name": "IsFirstActivationDone",
					"type": "bool"
				}
			],
			"stateMutability": "view",
			"type": "function"
		}
	]
}