{
	"data": {
		"bytecode": {
			"linkReferences": {},
			"object": "60806040525f80805560018181556002828155600380546001600160a01b031990811673a1bf05780c2de3002086695d212a743eaa6532ad17909155600480548216734f6a1cfdf5e55db0c2ff4575b0887fea8a96708817905560058054821673985495c028f9b896de454ec448b53fba6450da401790556006805482167373d1ad5a474e1712d6cbe18d56b7281aaf19034717905560078054909116905560088390556009839055600a805460ff191683179055600b92909255600d55600e55678ac7230489e800006020553480156100d7575f80fd5b50600c80546001600160a01b031916331790556100f26100f7565b6114c5565b6100ff610119565b6101076101fb565b61010f6108a2565b610117610d65565b565b600b8054905f6101288361123c565b91905055506040518060c00160405280600b548152602001604051806040016040528060078152602001665061636b61676560c81b81525081526020015f8152602001600115158152602001610184601e610d7e60201b60201c565b8152602001610194610bb8610d7e565b9052600b545f908152600f60209081526040909120825181559082015160018201906101c090826112ec565b5060408201516002820155606082015160038201805460ff19169115159190911790556080820151600482015560a090910151600590910155565b60088054905f61020a8361123c565b909155505060408051606081018252600880548083526101f460208085019182525f8587018181529381526010909152948520935184555160018401555160029092019190915580549161025d8361123c565b9091555050604080516060810182526008805480835261012c602080850191825260018587018181525f94855260109092529583209451855590519484019490945592516002909201919091558054916102b68361123c565b9091555050604080516060810182526008805480835260c8602080850191825260018587018181525f948552601090925295832094518555905194840194909455925160029092019190915580549161030e8361123c565b90915550506040805160608101825260088054808352610190602080850191825260028587018181525f948552601090925295832094518555905160018501555192909301919091558054916103638361123c565b9091555050604080516060810182526008805480835260c8602080850191825260028587018181525f948552601090925295832094518555905160018501555192909301919091558054916103b78361123c565b9091555050604080516060810182526008805480835260c8602080850191825260028587018181525f9485526010909252958320945185559051600185015551929093019190915580549161040b8361123c565b909155505060408051606081018252600880548083526064602080850191825260028587018181525f9485526010909252958320945185559051600185015551929093019190915580549161045f8361123c565b909155505060408051606081018252600880548083526064602080850191825260028587018181525f948552601090925295832094518555905160018501555192909301919091558054916104b38361123c565b9091555050604080516060810182526008805480835260c8602080850191825260038587019081525f93845260109091529482209351845551600184015592516002909201919091558054916105088361123c565b909155505060408051606081018252600880548083526064602080850191825260038587019081525f938452601090915294822093518455516001840155925160029092019190915580549161055d8361123c565b909155505060408051606081018252600880548083526032602080850191825260038587019081525f93845260109091529482209351845551600184015592516002909201919091558054916105b28361123c565b909155505060408051606081018252600880548083526032602080850191825260038587019081525f93845260109091529482209351845551600184015592516002909201919091558054916106078361123c565b909155505060408051606081018252600880548083526032602080850191825260038587019081525f938452601090915294822093518455516001840155925160029092019190915580549161065c8361123c565b909155505060408051606081018252600880548083526064602080850191825260048587019081525f93845260109091529482209351845551600184015592516002909201919091558054916106b18361123c565b909155505060408051606081018252600880548083526032602080850191825260048587019081525f93845260109091529482209351845551600184015592516002909201919091558054916107068361123c565b909155505060408051606081018252600880548083526019602080850191825260048587019081525f938452601090915294822093518455516001840155925160029092019190915580549161075b8361123c565b909155505060408051606081018252600880548083526019602080850191825260048587019081525f93845260109091529482209351845551600184015592516002909201919091558054916107b08361123c565b909155505060408051606081018252600880548083526019602080850191825260048587019081525f93845260109091529482209351845551600184015592516002909201919091558054916108058361123c565b909155505060408051606081018252600880548083526019602080850191825260048587019081525f938452601090915294822093518455516001840155925160029092019190915580549161085a8361123c565b9091555050604080516060810182526008548082526019602080840191825260048486019081525f938452601090915293909120915182555160018201559051600290910155565b60098054905f6108b18361123c565b91905055506040518060e00160405280600954815260200160405180604001604052806006815260200165189029ba30b960d11b81525081526020016108fe61012c610d7e60201b60201c565b8152601460208201526040016109156103e8610d7e565b81526020016109256103e8610d7e565b81526020016109335f610d7e565b90526009545f9081526011602090815260409091208251815590820151600182019061095f90826112ec565b5060408201516002820155606082015160038201556080820151600482015560a0820151600582015560c09091015160069091015560098054905f6109a38361123c565b91905055506040518060e00160405280600954815260200160405180604001604052806006815260200165191029ba30b960d11b81525081526020016109f06101f4610d7e60201b60201c565b815260326020820152604001610a07611388610d7e565b8152602001610a17611388610d7e565b8152602001610a255f610d7e565b90526009545f90815260116020908152604090912082518155908201516001820190610a5190826112ec565b5060408201516002820155606082015160038201556080820151600482015560a0820151600582015560c09091015160069091015560098054905f610a958361123c565b91905055506040518060e00160405280600954815260200160405180604001604052806006815260200165199029ba30b960d11b8152508152602001610ae26103e8610d7e60201b60201c565b815260646020820152604001610af9612710610d7e565b8152602001610b09612710610d7e565b8152602001610b175f610d7e565b90526009545f90815260116020908152604090912082518155908201516001820190610b4390826112ec565b5060408201516002820155606082015160038201556080820151600482015560a0820151600582015560c09091015160069091015560098054905f610b878361123c565b91905055506040518060e001604052806009548152602001604051806040016040528060068152602001651a1029ba30b960d11b8152508152602001610bd46107d0610d7e60201b60201c565b815260c86020820152604001610beb6161a8610d7e565b8152602001610bfb6161a8610d7e565b8152602001610c0b6109c4610d7e565b90526009545f90815260116020908152604090912082518155908201516001820190610c3790826112ec565b5060408201516002820155606082015160038201556080820151600482015560a0820151600582015560c09091015160069091015560098054905f610c7b8361123c565b91905055506040518060e001604052806009548152602001604051806040016040528060068152602001651a9029ba30b960d11b8152508152602001610cc8610bb8610d7e60201b60201c565b81526101f46020820152604001610ce1620124f8610d7e565b8152602001610cf2620124f8610d7e565b8152602001610d02611388610d7e565b90526009545f90815260116020908152604090912082518155908201516001820190610d2e90826112ec565b5060408201516002820155606082015160038201556080820151600482015560a0820151600582015560c090910151600690910155565b6003546001600160a01b0316610d7b815f610d9b565b50565b5f610d8b6012600a611489565b610d95908361149b565b92915050565b5f80549080610da98361123c565b91905055505f6040518061018001604052805f548152602001846001600160a01b03168152602001836001600160a01b031681526020014281526020015f81526020015f81526020015f81526020015f81526020015f81526020015f81526020015f151581526020015f151581525090505f6040518060c001604052805f81526020015f6001600160401b03811115610e4457610e44611254565b604051908082528060200260200182016040528015610e6d578160200160208202803683370190505b5081526020015f81526020015f81526020015f81526020015f6001600160401b03811115610e9d57610e9d611254565b604051908082528060200260200182016040528015610ec6578160200160208202803683370190505b5081525090505f6040518060c001604052805f81526020015f81526020016008546001610ef391906114b2565b6001600160401b03811115610f0a57610f0a611254565b604051908082528060200260200182016040528015610f33578160200160208202803683370190505b5081525f602080830182905260408084018390526060938401839052805160a0808201835284825281840185905281830185905281860185905260808083018690526001600160a01b038d81168752601286528487208c5181558c870151600180830180546001600160a01b03199081169386169390931790558e8801516002840180549093169416939093179055978c01516003890155908b01516004880155908a0151600587015560c08a0151600687015560e08a01516007870155610100808b015160088801556101208b015160098801556101408b0151600a90970180546101608d015161ffff1990911698151561ff00191698909817971515909102969096179095556014835292208651815586820151805195965092948794919361106393928501920190611178565b5060408201516002820155606082015160038201556080820151600482015560a0820151805161109d916005840191602090910190611178565b5050506001600160a01b0386165f90815260196020908152604091829020845181558185015160018201559184015180518593926110e29260028501929101906111db565b5060608281015160038084019190915560808085015160048086019190915560a0909501516005909401939093555f8054815260136020908152604080832080546001600160a01b03909e166001600160a01b0319909e168e1790559b8252601b8152908b9020865181559086015160018201559985015160028b01559084015190890155919091015195019490945550505050565b828054828255905f5260205f209081019282156111cb579160200282015b828111156111cb57825182546001600160a01b0319166001600160a01b03909116178255602090920191600190910190611196565b506111d7929150611214565b5090565b828054828255905f5260205f209081019282156111cb579160200282015b828111156111cb5782518255916020019190600101906111f9565b5b808211156111d7575f8155600101611215565b634e487b7160e01b5f52601160045260245ffd5b5f6001820161124d5761124d611228565b5060010190565b634e487b7160e01b5f52604160045260245ffd5b600181811c9082168061127c57607f821691505b60208210810361129a57634e487b7160e01b5f52602260045260245ffd5b50919050565b601f8211156112e757805f5260205f20601f840160051c810160208510156112c55750805b601f840160051c820191505b818110156112e4575f81556001016112d1565b50505b505050565b81516001600160401b0381111561130557611305611254565b611319816113138454611268565b846112a0565b6020601f82116001811461134b575f83156113345750848201515b5f19600385901b1c1916600184901b1784556112e4565b5f84815260208120601f198516915b8281101561137a578785015182556020948501946001909201910161135a565b508482101561139757868401515f19600387901b60f8161c191681555b50505050600190811b01905550565b6001815b60018411156113e1578085048111156113c5576113c5611228565b60018416156113d357908102905b60019390931c9280026113aa565b935093915050565b5f826113f757506001610d95565b8161140357505f610d95565b816001811461141957600281146114235761143f565b6001915050610d95565b60ff84111561143457611434611228565b50506001821b610d95565b5060208310610133831016604e8410600b8410161715611462575081810a610d95565b61146e5f1984846113a6565b805f190482111561148157611481611228565b029392505050565b5f61149483836113e9565b9392505050565b8082028115828204841417610d9557610d95611228565b80820180821115610d9557610d95611228565b615ee8806114d25f395ff3fe60806040526004361061028b575f3560e01c8063759369d211610155578063b5d962b7116100be578063dacbb37e11610078578063dacbb37e14610aca578063e315927b14610af6578063edbdc91414610b3e578063eecc1c9514610b70578063fd0bb36c14610b9f578063ff9b636414610bbe575f80fd5b8063b5d962b7146109e4578063b66db38514610a03578063c2d90b8114610a22578063c5f0096414610a41578063c6db4c3714610a89578063d9d7512c14610a9e575f80fd5b8063a3af609b1161010f578063a3af609b14610929578063a4b6f5e11461093c578063a5f9452114610951578063a9a4c9bf14610970578063ac3a48001461098f578063aecabf98146109c3575f80fd5b8063759369d2146108025780637e2594b81461082e5780637e9d158a1461086257806388cb410d146108ad5780638b2c295e146108cc578063a18a609a146108f8575f80fd5b80633daa551c116101f75780635b6b431d116101b15780635b6b431d146106555780635be94e83146106745780635cf75517146106a0578063641fba96146107935780636b1a7086146107a7578063705116a0146107c8575f80fd5b80633daa551c146105895780634788312f146105aa5780634a40f2fe146105bf57806354a03e38146105eb5780635a015583146106175780635b56c9ee14610636575f80fd5b80632a530a36116102485780632a530a36146103d75780632dedf15a146104375780632e244fc7146104975780632e628e2e146104c3578063365152fa146104ef5780633936e8b91461056a575f80fd5b806307d940671461028f5780631362e8e6146102e65780631417df701461032a5780631bfe37ce1461034b5780631cfa6e9b146103815780631d759fb2146103b8575b5f80fd5b34801561029a575f80fd5b506102cc6102a9366004615421565b601660209081525f92835260408084209091529082529020805460019091015482565b604080519283526020830191909152015b60405180910390f35b3480156102f1575f80fd5b5061031c610300366004615421565b601a60209081525f928352604080842090915290825290205481565b6040519081526020016102dd565b348015610335575f80fd5b50610349610344366004615449565b610bd2565b005b348015610356575f80fd5b5061031c610365366004615421565b601760209081525f928352604080842090915290825290205481565b34801561038c575f80fd5b506003546103a0906001600160a01b031681565b6040516001600160a01b0390911681526020016102dd565b3480156103c3575f80fd5b506103496103d2366004615469565b610e4d565b3480156103e2575f80fd5b506104176103f1366004615499565b60146020525f908152604090208054600282015460038301546004909301549192909184565b6040805194855260208501939093529183015260608201526080016102dd565b348015610442575f80fd5b5061047c610451366004615421565b601860209081525f928352604080842090915290825290208054600182015460029092015490919083565b604080519384526020840192909252908201526060016102dd565b3480156104a2575f80fd5b506104b66104b1366004615469565b610e6e565b6040516102dd91906154b9565b3480156104ce575f80fd5b506104e26104dd366004615469565b610fd8565b6040516102dd9190615517565b3480156104fa575f80fd5b50610542610509366004615421565b601560209081525f9283526040808420909152908252902080546001820154600283015460038401546004909401549293919290919085565b604080519586526020860194909452928401919091526060830152608082015260a0016102dd565b348015610575575f80fd5b506006546103a0906001600160a01b031681565b348015610594575f80fd5b5061059d61115a565b6040516102dd91906155ac565b3480156105b5575f80fd5b5061031c60025481565b3480156105ca575f80fd5b506105de6105d9366004615499565b611310565b6040516102dd9190615650565b3480156105f6575f80fd5b5061060a610605366004615499565b611487565b6040516102dd91906156cd565b348015610622575f80fd5b5061034961063136600461581b565b61196c565b348015610641575f80fd5b50601f546103a0906001600160a01b031681565b348015610660575f80fd5b5061034961066f366004615855565b611aad565b34801561067f575f80fd5b5061069361068e366004615499565b611c5a565b6040516102dd9190615898565b3480156106ab575f80fd5b5061072a6106ba366004615499565b60126020525f9081526040902080546001820154600283015460038401546004850154600586015460068701546007880154600889015460098a0154600a909a015498996001600160a01b0398891699989097169795969495939492939192909160ff808216916101009004168c565b604080519c8d526001600160a01b039b8c1660208e015299909a16988b019890985260608a0196909652608089019490945260a088019290925260c087015260e086015261010085015261012084015215156101408301521515610160820152610180016102dd565b34801561079e575f80fd5b5061031c5f5481565b3480156107b2575f80fd5b506107bb611e59565b6040516102dd91906158da565b3480156107d3575f80fd5b5061047c6107e2366004615855565b60106020525f908152604090208054600182015460029092015490919083565b34801561080d575f80fd5b5061082161081c366004615469565b611eb1565b6040516102dd9190615905565b348015610839575f80fd5b506103a0610848366004615499565b601c6020525f90815260409020546001600160a01b031681565b34801561086d575f80fd5b5061041761087c366004615421565b601d60209081525f928352604080842090915290825290208054600182015460028301546003909301549192909184565b3480156108b8575f80fd5b506007546103a0906001600160a01b031681565b3480156108d7575f80fd5b506108eb6108e6366004615499565b611ff7565b6040516102dd9190615948565b348015610903575f80fd5b50610917610912366004615855565b612433565b6040516102dd96959493929190615a45565b610349610937366004615449565b6124f2565b348015610947575f80fd5b5061031c60015481565b34801561095c575f80fd5b5061034961096b366004615499565b612500565b34801561097b575f80fd5b5061034961098a366004615449565b612546565b34801561099a575f80fd5b506103a06109a9366004615855565b60136020525f90815260409020546001600160a01b031681565b3480156109ce575f80fd5b506109d7612643565b6040516102dd9190615a82565b3480156109ef575f80fd5b506004546103a0906001600160a01b031681565b348015610a0e575f80fd5b506005546103a0906001600160a01b031681565b348015610a2d575f80fd5b50610349610a3c366004615499565b612658565b348015610a4c575f80fd5b50610542610a5b366004615499565b601b6020525f9081526040902080546001820154600283015460038401546004909401549293919290919085565b348015610a94575f80fd5b5061031c60205481565b348015610aa9575f80fd5b50610abd610ab8366004615469565b61269e565b6040516102dd9190615ac7565b348015610ad5575f80fd5b50610ae9610ae4366004615469565b61281f565b6040516102dd9190615b2a565b348015610b01575f80fd5b50610542610b10366004615499565b60196020525f9081526040902080546001820154600383015460048401546005909401549293919290919085565b348015610b49575f80fd5b50610b5d610b58366004615855565b612a88565b6040516102dd9796959493929190615b6c565b348015610b7b575f80fd5b50610b8f610b8a366004615499565b612b48565b60405190151581526020016102dd565b348015610baa575f80fd5b5061031c610bb9366004615421565b612b58565b348015610bc9575f80fd5b50610b8f612b7f565b33610bdc81612b48565b610c1d5760405162461bcd60e51b815260206004820152600d60248201526c496e76616c696420757365722160981b60448201526064015b60405180910390fd5b610c28818385612bd5565b5f670de0b6b3a764000060205485610c409190615bc2565b610c4a9190615bd9565b601f546040516370a0823160e01b815230600482015291925082916001600160a01b03909116906370a0823190602401602060405180830381865afa158015610c95573d5f803e3d5ffd5b505050506040513d601f19601f82011682018060405250810190610cb99190615bf8565b1015610d135760405162461bcd60e51b815260206004820152602360248201527f496e73756666696369656e742042424420746f6b656e7320696e20636f6e74726044820152621858dd60ea1b6064820152608401610c14565b6001600160a01b0382165f908152601a6020908152604080832086845290915281208054869290610d45908490615c0f565b9091555050601f5460405163a9059cbb60e01b81526001600160a01b038481166004830152602482018490529091169063a9059cbb906044016020604051808303815f875af1158015610d9a573d5f803e3d5ffd5b505050506040513d601f19601f82011682018060405250810190610dbe9190615c22565b506001600160a01b0382165f908152601b60205260408120600401805491610de583615c41565b909155505060408051608081018252948552602080860192835242868301908152606087019586526001600160a01b039094165f908152601d8252828120601b8352838220600401548252909152209351845551600184015551600283015551600390910155565b81600103610e6357610e5e83612c24565b505050565b610e5e838383612cc5565b6001600160a01b0383165f908152601b602052604081206001015460609181610e978587615bc2565b11610eab57610ea68486615bc2565b610ead565b815b90505f84821015610ebe575f610ec8565b610ec88583615c0f565b90505f610ed58284615c0f565b6001600160401b03811115610eec57610eec615c59565b604051908082528060200260200182016040528015610f3e57816020015b610f2b60405180606001604052805f81526020015f81526020015f81525090565b815260200190600190039081610f0a5790505b509450825b82811115610fcc576001600160a01b0389165f90815260186020908152604080832084845282529182902082516060810184528154815260018201549281019290925260020154918101919091528683610f9c81615c41565b945081518110610fae57610fae615c6d565b60200260200101819052508080610fc490615c81565b915050610f43565b50505050509392505050565b6001600160a01b0383165f908152601b602052604081205460609181610ffe8587615bc2565b116110125761100d8486615bc2565b611014565b815b90505f84821015611025575f61102f565b61102f8583615c0f565b90505f61103c8284615c0f565b6001600160401b0381111561105357611053615c59565b6040519080825280602002602001820160405280156110b157816020015b61109e6040518060a001604052805f81526020015f81526020015f81526020015f81526020015f81525090565b8152602001906001900390816110715790505b509450825b82811115610fcc576001600160a01b0389165f908152601560209081526040808320848452825291829020825160a08101845281548152600182015492810192909252600281015492820192909252600382015460608201526004909101546080820152865187908490811061112e5761112e615c6d565b6020026020010181905250818061114490615c41565b925050808061115290615c81565b9150506110b6565b60605f600b546001600160401b0381111561117757611177615c59565b6040519080825280602002602001820160405280156111de57816020015b6111cb6040518060c001604052805f8152602001606081526020015f81526020015f151581526020015f81526020015f81525090565b8152602001906001900390816111955790505b50905060015b600b54811161130a57600f5f8281526020019081526020015f206040518060c00160405290815f820154815260200160018201805461122290615c96565b80601f016020809104026020016040519081016040528092919081815260200182805461124e90615c96565b80156112995780601f1061127057610100808354040283529160200191611299565b820191905f5260205f20905b81548152906001019060200180831161127c57829003601f168201915b505050918352505060028201546020820152600382015460ff161515604082015260048201546060820152600590910154608090910152826112dc600184615c0f565b815181106112ec576112ec615c6d565b6020026020010181905250808061130290615c41565b9150506111e4565b50919050565b60606008546001600160401b0381111561132c5761132c615c59565b60405190808252806020026020018201604052801561139857816020015b6113856040518060e001604052805f81526020015f81526020015f81526020015f81526020015f81526020015f81526020015f151581525090565b81526020019060019003908161134a5790505b50905060015b600854811161130a576040805160e0810182528281525f83815260106020908152838220600280820154838601526001600160a01b03891680855260128452868520600901548688015280855260178452868520888652845286852054606087015260019092015460808601529083526019909152929020909101805460a0830191908490811061143157611431615c6d565b905f5260205f20015481526020016114498584612e50565b1515905282611459600184615c0f565b8151811061146957611469615c6d565b6020026020010181905250808061147f90615c41565b91505061139e565b6115376040518061030001604052805f6001600160a01b031681526020015f81526020015f81526020015f81526020015f81526020015f81526020015f81526020015f81526020015f81526020015f81526020015f81526020015f81526020015f81526020015f81526020015f81526020015f81526020015f81526020015f81526020015f8152602001606081526020015f81526020015f151581526020015f151581526020015f151581525090565b6001600160a01b038083165f818152601260209081526040808320815161018081018352815481526001808301548816828601526002830154909716818401526003820154606082015260048201546080820152600582015460a0820152600682015460c080830191909152600783015460e08301526008830154610100808401919091526009840154610120840152600a9093015460ff8082161515610140850152939004909216151561016082015294845260148352818420825191820183528054825295860180548351818602810186019094528084529596949591949385810193929083018282801561165557602002820191905f5260205f20905b81546001600160a01b03168152600190910190602001808311611637575b50505050508152602001600282015481526020016003820154815260200160048201548152602001600582018054806020026020016040519081016040528092919081815260200182805480156116d357602002820191905f5260205f20905b81546001600160a01b031681526001909101906020018083116116b5575b50505050508152505090505f60195f866001600160a01b03166001600160a01b031681526020019081526020015f206040518060c00160405290815f8201548152602001600182015481526020016002820180548060200260200160405190810160405280929190818152602001828054801561176d57602002820191905f5260205f20905b815481526020019060010190808311611759575b505050505081526020016003820154815260200160048201548152602001600582015481525050905060405180610300016040528084604001516001600160a01b03168152602001846080015181526020018360200151518152602001835f015181526020018460a001518152602001836040015181526020018360600151815260200183608001518152602001825f0151815260200161180d87612e90565b81526020018260200151815260200161182587612f81565b81526020018260600151815260200182608001518152602001611847876130e8565b815260200161185587613135565b81526020018260a00151815260200161187087600d54612b58565b815260200161188187600e54612b58565b815260200160115f86610120015181526020019081526020015f2060010180546118aa90615c96565b80601f01602080910402602001604051908101604052809291908181526020018280546118d690615c96565b80156119215780601f106118f857610100808354040283529160200191611921565b820191905f5260205f20905b81548152906001019060200180831161190457829003601f168201915b5050505050815260200161193487613175565b81526020016119428761319c565b15158152602001846101400151151581526020015f8560c001511115158152509350505050919050565b6119746131b6565b61197c573392505b611985836131de565b61198e82612b48565b6119d45760405162461bcd60e51b8152602060048201526017602482015276496e76616c696420726563656976696e6720757365722160481b6044820152606401610c14565b6119e183600e5483612bd5565b6119eb600561327b565b811015611a0a5760405162461bcd60e51b8152600401610c1490615cc8565b5f6064611a18836005615bc2565b611a229190615bd9565b90505f611a2f8284615cff565b6001600160a01b0386165f908152601a60209081526040808320600e548452909152812080549293508392909190611a68908490615c0f565b90915550506001600160a01b0384165f908152601a60209081526040808320600e54845290915281208054859290611aa1908490615cff565b90915550505050505050565b335f611ab7613292565b9050611ac2826131de565b611acc600561327b565b831015611aeb5760405162461bcd60e51b8152600401610c1490615cc8565b611af882600d5485612bd5565b6001600160a01b0382165f908152601a60209081526040808320600d54845290915281208054859290611b2c908490615c0f565b90915550506001600160a01b0382165f9081526019602052604081206005018054859290611b5b908490615cff565b909155505f90506064611b6f856005615bc2565b611b799190615bd9565b90505f611b868286615c0f565b604080518082018252878152426020808301919091526001600160a01b0388165f90815260168252838120601b909252928320600201549394509092839290611bd0906001615cff565b815260208082019290925260409081015f90812084518155938301516001909401939093556001600160a01b0388168352601b9091528120600201805491611c1783615c41565b9190505550858410611c4857611c2d8583613305565b600754611c43906001600160a01b031684613305565b611c52565b611c528583613387565b505050505050565b6001600160a01b0381165f908152601460205260409020600101546060906001600160401b03811115611c8f57611c8f615c59565b604051908082528060200260200182016040528015611cf057816020015b611cdd60405180608001604052805f81526020015f6001600160a01b031681526020015f81526020015f81525090565b815260200190600190039081611cad5790505b5090505f5b6001600160a01b0383165f9081526014602052604090206001015481101561130a576040518060800160405280826001611d2f9190615cff565b815260200160145f866001600160a01b03166001600160a01b031681526020019081526020015f206001018381548110611d6b57611d6b615c6d565b5f9182526020808320909101546001600160a01b03908116845287168252601481526040822060010180549390910192601292919086908110611db057611db0615c6d565b5f9182526020808320909101546001600160a01b039081168452838201949094526040928301822060040154855292881681526014808452918120600101805494909301939192909186908110611e0957611e09615c6d565b5f9182526020808320909101546001600160a01b0316835282019290925260400190206004015490528251839083908110611e4657611e46615c6d565b6020908102919091010152600101611cf5565b611e8060405180608001604052805f81526020015f81526020015f81526020015f81525090565b60405180608001604052805f54815260200160015481526020016002548152602001611eaa613292565b9052919050565b6001600160a01b0383165f908152601b602052604081206002015460609181611eda8587615bc2565b11611eee57611ee98486615bc2565b611ef0565b815b90505f84821015611f01575f611f0b565b611f0b8583615c0f565b90505f611f188284615c0f565b6001600160401b03811115611f2f57611f2f615c59565b604051908082528060200260200182016040528015611f7357816020015b604080518082019091525f8082526020820152815260200190600190039081611f4d5790505b509450825b82811115610fcc576001600160a01b0389165f90815260166020908152604080832084845282529182902082518084019093528054835260010154908201528651879084908110611fcb57611fcb615c6d565b60200260200101819052508180611fe190615c41565b9250508080611fef90615c81565b915050611f78565b60606009546001600160401b0381111561201357612013615c59565b6040519080825280602002602001820160405280156120a757816020015b612094604051806101a001604052805f8152602001606081526020015f81526020015f81526020015f81526020015f81526020015f81526020015f151581526020015f81526020015f81526020015f81526020015f81526020015f151581525090565b8152602001906001900390816120315790505b506001600160a01b038084165f818152601260209081526040808320815161018081018352815481526001808301548816828601526002830154909716818401526003820154606082015260048201546080820152600582015460a0820152600682015460c080830191909152600783015460e08301526008830154610100808401919091526009840154610120840152600a9093015460ff8082161515610140850152939004909216151561016082015294845260148352818420825191820183528054825295860180548351818602810186019094528084529798509496939590949093858401938301828280156121c857602002820191905f5260205f20905b81546001600160a01b031681526001909101906020018083116121aa575b505050505081526020016002820154815260200160038201548152602001600482015481526020016005820180548060200260200160405190810160405280929190818152602001828054801561224657602002820191905f5260205f20905b81546001600160a01b03168152600190910190602001808311612228575b50505050508152505090505f600190505b600954811161242b575f60115f8381526020019081526020015f206040518060e00160405290815f820154815260200160018201805461229690615c96565b80601f01602080910402602001604051908101604052809291908181526020018280546122c290615c96565b801561230d5780601f106122e45761010080835404028352916020019161230d565b820191905f5260205f20905b8154815290600101906020018083116122f057829003601f168201915b505050505081526020016002820154815260200160038201548152602001600482015481526020016005820154815260200160068201548152505090505f815f015185610120015110159050604051806101a00160405280835f015181526020018360200151815260200183604001518152602001836080015181526020018360a00151815260200183606001518152602001866080015181526020016123b8898560400151613456565b1515815260200185604001518152602001856060015181526020018660a0015181526020018360c001518152602001821515815250866001856123fb9190615c0f565b8151811061240b5761240b615c6d565b60200260200101819052505050808061242390615c41565b915050612257565b505050919050565b600f6020525f90815260409020805460018201805491929161245490615c96565b80601f016020809104026020016040519081016040528092919081815260200182805461248090615c96565b80156124cb5780601f106124a2576101008083540402835291602001916124cb565b820191905f5260205f20905b8154815290600101906020018083116124ae57829003601f168201915b505050506002830154600384015460048501546005909501549394919360ff909116925086565b6124fc82826134cb565b5050565b6125086131b6565b6125245760405162461bcd60e51b8152600401610c1490615d12565b600780546001600160a01b0319166001600160a01b0392909216919091179055565b3361255081612b48565b61256c5760405162461bcd60e51b8152600401610c1490615d40565b6001600160a01b0381165f908152601260205260409020600a0154610100900460ff16156125ed5760405162461bcd60e51b815260206004820152602860248201527f4f6e6c7920666972737420746f70757020697320616c6c6f7765642066726f6d604482015267103bb0b63632ba1760c11b6064820152608401610c14565b6125fa81600e5484612bd5565b6126058184846135da565b506001600160a01b0381165f908152601a602090815260408083206002845290915281208054849290612639908490615c0f565b9091555050505050565b61264b61531e565b6126536139ee565b905090565b6126606131b6565b61267c5760405162461bcd60e51b8152600401610c1490615d12565b601f80546001600160a01b0319166001600160a01b0392909216919091179055565b6001600160a01b0383165f908152601b6020526040812060040154606091816126c78587615bc2565b116126db576126d68486615bc2565b6126dd565b815b90505f848210156126ee575f6126f8565b6126f88583615c0f565b90505f6127058284615c0f565b9050806001600160401b0381111561271f5761271f615c59565b60405190808252806020026020018201604052801561277757816020015b61276460405180608001604052805f81526020015f81526020015f81526020015f81525090565b81526020019060019003908161273d5790505b5094505f835b83811115612812576001600160a01b038a165f908152601d60209081526040808320848452825291829020825160808101845281548152600182015492810192909252600281015492820192909252600390910154606082015287836127e281615c41565b9450815181106127f4576127f4615c6d565b6020026020010181905250808061280a90615c81565b91505061277d565b5050505050509392505050565b6001600160a01b0383165f90815260146020908152604080832060050180548251818502810185019093528083526060949383018282801561288857602002820191905f5260205f20905b81546001600160a01b0316815260019091019060200180831161286a575b505083519394505f92508391506128a190508688615bc2565b116128b5576128b08587615bc2565b6128b7565b815b90505f858210156128c8575f6128d2565b6128d28683615c0f565b90505f6128df8284615c0f565b9050806001600160401b038111156128f9576128f9615c59565b60405190808252806020026020018201604052801561295a57816020015b61294760405180608001604052805f81526020015f6001600160a01b031681526020015f81526020015f81525090565b8152602001906001900390816129175790505b5095505f835b83811115612a7a575f87612975600184615c0f565b8151811061298557612985615c6d565b602002602001015190506040518060800160405280838152602001826001600160a01b0316815260200160125f846001600160a01b03166001600160a01b031681526020019081526020015f2060040154815260200160145f60145f866001600160a01b03166001600160a01b031681526020019081526020015f206001018681548110612a1557612a15615c6d565b5f9182526020808320909101546001600160a01b0316835282019290925260400190206004015490528984612a4981615c41565b955081518110612a5b57612a5b615c6d565b6020026020010181905250508080612a7290615c81565b915050612960565b505050505050509392505050565b60116020525f908152604090208054600182018054919291612aa990615c96565b80601f0160208091040260200160405190810160405280929190818152602001828054612ad590615c96565b8015612b205780601f10612af757610100808354040283529160200191612b20565b820191905f5260205f20905b815481529060010190602001808311612b0357829003601f168201915b5050505050908060020154908060030154908060040154908060050154908060060154905087565b5f612b5282613d23565b92915050565b6001600160a01b03919091165f908152601a60209081526040808320938352929052205490565b335f90815260126020526040812060080154421015612bca5760405162461bcd60e51b81526020600482015260076024820152664163746976652160c81b6044820152606401610c14565b61265333425f613d3f565b80612be08484612b58565b1015610e5e5760405162461bcd60e51b8152602060048201526013602482015272496e73756666696369656e742066756e64732160681b6044820152606401610c14565b33612c2e82612b48565b8015612c5357506001600160a01b0382165f9081526012602052604090206004015415155b612c6f5760405162461bcd60e51b8152600401610c1490615d71565b612c7881613d23565b15612cbb5760405162461bcd60e51b8152602060048201526013602482015272416c726561647920726567697374657265642160681b6044820152606401610c14565b6124fc8183613dff565b612ccd6131b6565b612ce95760405162461bcd60e51b8152600401610c1490615d71565b816002819003612d1357600380546001600160a01b0319166001600160a01b038616179055612e4a565b80600303612d3b57600480546001600160a01b0319166001600160a01b038616179055612e4a565b80600403612d6357600680546001600160a01b0319166001600160a01b038616179055612e4a565b80600503612d9d5760015f52600f6020527f169f97de0d9a84d840042b17d3c6b9638b3d6fd9024c9eb0c7a306a17b49f894829055612e4a565b80600603612e10575f8211612e065760405162461bcd60e51b815260206004820152602960248201527f4465706f73697420616d6f756e74206d7573742062652067726561746572207460448201526868616e207a65726f2160b81b6064820152608401610c14565b6020829055612e4a565b80600703612e3857600c80546001600160a01b0319166001600160a01b038616179055612e4a565b80600803612e4a57612e4a8483613305565b50505050565b5f818152601060209081526040808320600201546001600160a01b0386168452601290925282206009015410612e8857506001612b52565b505f92915050565b6001600160a01b0381165f908152601960209081526040808320815160c08101835281548152600182015481850152600282018054845181870281018701865281815287968796949594860193919290830182828015612f0d57602002820191905f5260205f20905b815481526020019060010190808311612ef9575b50505050508152602001600382015481526020016004820154815260200160058201548152505090505f5b816040015151811015612f785781604001518181518110612f5b57612f5b615c6d565b602002602001015183612f6e9190615cff565b9250600101612f38565b50909392505050565b6001600160a01b0381165f908152601b60205260408120544290829060015b818111613034576001600160a01b0386165f908152601560209081526040808320848452825291829020825160a08101845281548152600182015492810192909252600281015492820192909252600382015460608201819052600490920154608082018190529091111561302157602081015161301e9085615cff565b93505b508061302c81615c41565b915050612fa0565b506001600160a01b0385165f908152601260205260409020600781015460089091015481851115806130665750818111155b1561307757505f9695505050505050565b5f82868311156130875786613089565b825b6130939190615c0f565b90505f6130a08484615c0f565b90505f6130ae826064615bc2565b836130ba89600a615bc2565b6130c49190615bc2565b6130ce9190615bd9565b90506130da8a826141dc565b9a9950505050505050505050565b5f6130f282612e90565b6001600160a01b0383165f90815260196020526040902060048101548154600190920154909161312191615cff565b61312b9190615cff565b612b529190615cff565b6001600160a01b0381165f9081526012602052604081206004810154600a9091015460ff16613165576003613168565b60045b60ff16612b529190615bc2565b6001600160a01b0381165f90815260126020526040812060060154612b5290610a8c615cff565b5f6131a682613135565b6131af836130e8565b1092915050565b6003545f906001600160a01b0316331480612653575050600c546001600160a01b0316331490565b6131e781612b48565b61322b5760405162461bcd60e51b8152602060048201526015602482015274496e76616c69642073656e64696e6720757365722160581b6044820152606401610c14565b6132348161430d565b156132785760405162461bcd60e51b81526020600482015260146024820152732cb7bab91024a21034b99034b730b1ba34bb329760611b6044820152606401610c14565b50565b5f6132886012600a615e7e565b612b529083615bc2565b6040516370a0823160e01b81523060048201525f90734622b46df102fd8648385bc96fd7a837111aec61906370a0823190602401602060405180830381865afa1580156132e1573d5f803e3d5ffd5b505050506040513d601f19601f820116820180604052508101906126539190615bf8565b60405163a9059cbb60e01b81526001600160a01b038316600482015260248101829052734622b46df102fd8648385bc96fd7a837111aec619063a9059cbb906044016020604051808303815f875af1158015613363573d5f803e3d5ffd5b505050506040513d601f19601f82011682018060405250810190610e5e9190615c22565b6007546001600160a01b03166133df5760405162461bcd60e51b815260206004820152601e60248201527f53656375726974792066756e6420636f6e7472616374206e6f742073657400006044820152606401610c14565b6007546040516358908a0f60e01b8152734622b46df102fd8648385bc96fd7a837111aec6160048201526001600160a01b03848116602483015260448201849052909116906358908a0f906064015f604051808303815f87803b158015613444575f80fd5b505af1158015611c52573d5f803e3d5ffd5b6001600160a01b0382165f908152601b602052604081205460015b8181116134c1576001600160a01b0385165f90815260156020908152604080832084845290915290206001015484116134af57600192505050612b52565b806134b981615c41565b915050613471565b505f949350505050565b336134d581613d23565b6134f15760405162461bcd60e51b8152600401610c1490615d40565b6134fa8161430d565b61353a5760405162461bcd60e51b81526020600482015260116024820152702bb0b4ba103a34b6361032bc3834b93c9760791b6044820152606401610c14565b61354382614341565b5f61354f8285856135da565b60035490915061357e906001600160a01b0316606461356f866002615bc2565b6135799190615bd9565b613305565b60045461359b906001600160a01b0316606461356f866001615bc2565b6006546135b8906001600160a01b0316606461356f866005615bc2565b80612e4a57600554612e4a906001600160a01b0316606461356f866002615bc2565b5f828152600f602052604081206003015460ff1615801561360a57505f838152600f602052604090206002015482145b8061365c57505f838152600f602052604090206003015460ff16801561364057505f838152600f60205260409020600401548210155b801561365c57505f838152600f60205260409020600501548211155b6136785760405162461bcd60e51b8152600401610c1490615e89565b6001600160a01b0384165f908152601560209081526040808320601b835281842054845290915290206001015482101561371a5760405162461bcd60e51b815260206004820152603d60248201527f416d6f756e74206d75737420626520657175616c20746f206f72206d6f72652060448201527f7468616e2070726576696f7573206465706f73697420616d6f756e742e0000006064820152608401610c14565b506001600160a01b0383165f908152601260205260408120600a01546001805461010090920460ff161592429285929190613756908490615cff565b90915550506001600160a01b038086165f908152601260205260408120600281015460049091018054919093169286929091613793908490615cff565b90915550506001600160a01b0381165f90815260146020526040812080548692906137bf908490615cff565b90915550508215613824576001600160a01b0381161561381a576001600160a01b038181165f9081526014602090815260408220600190810180549182018155835291200180546001600160a01b0319169188169190911790555b6138248187614401565b61382e868561448f565b6040805160a08101825286815260208082018790528183018590526001600160a01b0389165f9081526012909152918220600a01546060820190879060ff1661387857600361387b565b60045b60ff166138889190615bc2565b81525f60209182018190526001600160a01b038a168152601582526040808220601b90935281205492935083926138c0906001615cff565b815260208082019290925260409081015f90812084518155848401516001820155848301516002820155606085015160038201556080909401516004909401939093556001600160a01b038a168352601b909152812080549161392283615c41565b919050555061393087614778565b61393b87865f6147b2565b613946878487613d3f565b5083156139e4576001600160a01b0387165f818152601260205260408120600601859055601e805460018101825591527f50bb669a95c7b50b7e8a6f09454034b2b14cf2b85c730dca9a539ca82cb6e3500180546001600160a01b03191690911790556139b387866148e2565b6139bc856149ff565b6001600160a01b0387165f908152601260205260409020600a01805461ff0019166101001790555b5050509392505050565b6139f661531e565b5f613a046201518042615c0f565b601e549091505f906001600160401b03811115613a2357613a23615c59565b604051908082528060200260200182016040528015613a6757816020015b604080518082019091525f8082526020820152815260200190600190039081613a415790505b50601e549091505f905b8015613c00575f601e613a85600184615c0f565b81548110613a9557613a95615c6d565b5f9182526020808320909101546001600160a01b03168083526012909152604090912060060154909150851115613acc5750613c00565b6001600160a01b038082165f908152601260205260409020600201541680613af5575050613bee565b6001600160a01b0382165f908152601560209081526040808320600180855292528220015490805b86811015613b9957836001600160a01b0316888281518110613b4157613b41615c6d565b60200260200101515f01516001600160a01b031603613b915782888281518110613b6d57613b6d615c6d565b6020026020010151602001818151613b859190615cff565b90525060019150613b99565b600101613b1d565b5080613be9576040518060400160405280846001600160a01b0316815260200183815250878781518110613bcf57613bcf615c6d565b60200260200101819052508580613be590615c41565b9650505b505050505b80613bf881615c81565b915050613a71565b505f5b81811015613d1c575f838281518110613c1e57613c1e615c6d565b60200260200101515f015190505f848381518110613c3e57613c3e615c6d565b60200260200101516020015190505f5b6003811015613d1157878160038110613c6957613c69615c6d565b602002015160200151821115613d095760025b81811115613cce5788613c90600183615c0f565b60038110613ca057613ca0615c6d565b6020020151898260038110613cb757613cb7615c6d565b602002015280613cc681615c81565b915050613c7c565b506040518060400160405280846001600160a01b0316815260200183815250888260038110613cff57613cff615c6d565b6020020152613d11565b600101613c4e565b505050600101613c03565b5050505090565b6001600160a01b03165f90815260126020526040902054151590565b6001600160a01b0383165f908152601b60205260408120600301548190613d6890600290615bd9565b613d7390600a615cff565b90505f613d8182603c615bc2565b613d8b9086615cff565b6001600160a01b0387165f90815260126020908152604080832060078101805460089092018054918c9055869055601b909352908320600301805494955090939192613dd683615c41565b9190505550613de8888884848a614af3565b613df188614cfd565b506001979650505050505050565b5f80549080613e0d83615c41565b91905055505f6040518061018001604052805f548152602001846001600160a01b03168152602001836001600160a01b031681526020014281526020015f81526020015f81526020015f81526020015f81526020015f81526020015f81526020015f151581526020015f151581525090505f6040518060c001604052805f81526020015f6001600160401b03811115613ea857613ea8615c59565b604051908082528060200260200182016040528015613ed1578160200160208202803683370190505b5081526020015f81526020015f81526020015f81526020015f6001600160401b03811115613f0157613f01615c59565b604051908082528060200260200182016040528015613f2a578160200160208202803683370190505b5081525090505f6040518060c001604052805f81526020015f81526020016008546001613f579190615cff565b6001600160401b03811115613f6e57613f6e615c59565b604051908082528060200260200182016040528015613f97578160200160208202803683370190505b5081525f602080830182905260408084018390526060938401839052805160a0808201835284825281840185905281830185905281860185905260808083018690526001600160a01b038d81168752601286528487208c5181558c870151600180830180546001600160a01b03199081169386169390931790558e8801516002840180549093169416939093179055978c01516003890155908b01516004880155908a0151600587015560c08a0151600687015560e08a01516007870155610100808b015160088801556101208b015160098801556101408b0151600a90970180546101608d015161ffff1990911698151561ff0019169890981797151590910296909617909555601483529220865181558682015180519596509294879491936140c793928501920190615356565b5060408201516002820155606082015160038201556080820151600482015560a08201518051614101916005840191602090910190615356565b5050506001600160a01b0386165f90815260196020908152604091829020845181558185015160018201559184015180518593926141469260028501929101906153b9565b5060608281015160038084019190915560808085015160048086019190915560a0909501516005909401939093555f8054815260136020908152604080832080546001600160a01b03909e166001600160a01b0319909e168e1790559b8252601b8152908b9020865181559086015160018201559985015160028b01559084015190890155919091015195019490945550505050565b6001600160a01b0382165f90815260126020526040812060080154421061420457505f612b52565b6001600160a01b0383165f908152601b602052604081205490839060015b838111614303576001600160a01b0387165f9081526015602090815260408083208484528252808320815160a081018352815481526001820154938101939093526002810154918301919091526003810154606083018190526004909101546080830181905291929110614296575f6142aa565b816080015182606001516142aa9190615c0f565b905080156142ee575f818611156142c157816142c3565b855b90506142cf8186615cff565b94506142db8187615c0f565b9550855f036142ec57505050614303565b505b505080806142fb90615c41565b915050614222565b5095945050505050565b6001600160a01b0381165f9081526012602052604081206008015442101580612b52575061433a8261319c565b1592915050565b5f61434a613292565b6040516323b872dd60e01b815233600482015230602482015260448101849052909150734622b46df102fd8648385bc96fd7a837111aec61906323b872dd906064016020604051808303815f875af11580156143a8573d5f803e3d5ffd5b505050506040513d601f19601f820116820180604052508101906143cc9190615c22565b505f6143d6613292565b9050826143e38383615c0f565b1015610e5e5760405162461bcd60e51b8152600401610c1490615e89565b6001600160a01b038216156124fc576001600160a01b0382165f90815260126020526040812060050180549161443683615c41565b90915550506001600160a01b039182165f81815260146020908152604080832060050180546001810182559084528284200180546001600160a01b03191686881617905592825260129052206002015490911690614401565b6001600160a01b038083165f90815260126020526040902060020154600191165b6001600160a01b03811615612e4a576001600160a01b0381165f90815260146020526040812060040180548592906144e9908490615cff565b90915550506001600160a01b0381165f90815260176020908152604080832085845290915281208054859290614520908490615cff565b90915550506001600160a01b038082165f908152601c602090815260408083205488851684526014835281842060049081015460129094529184209091015493169261456c9190615cff565b90506001600160a01b0382166145bd576001600160a01b038381165f908152601c6020908152604080832080546001600160a01b031916948b16949094179093556014905220600201819055614740565b816001600160a01b0316866001600160a01b03160361460b576001600160a01b0383165f9081526014602052604081206002018054879290614600908490615cff565b909155506147409050565b6001600160a01b0383165f908152601460205260409020600201548082111561470e576001600160a01b0387165f9081526014602090815260408083206004908101546012909352922090910154879161466491615cff565b61466e9190615c0f565b6001600160a01b0385165f9081526014602052604081206003018054909190614698908490615c0f565b90915550506001600160a01b0384165f90815260146020526040812060030180548392906146c7908490615cff565b90915550506001600160a01b038481165f908152601460209081526040808320600201869055601c909152902080546001600160a01b03191691891691909117905561473e565b6001600160a01b0384165f9081526014602052604081206003018054889290614738908490615cff565b90915550505b505b6001600160a01b038084165f9081526012602052604090206002015493965092909216918361476e81615c41565b94505050506144b0565b6001600160a01b038116156132785761479081614e69565b6001600160a01b039081165f9081526012602052604090206002015416614778565b6001600160a01b0383165f908152601260205260409020600a015460ff1615801561480f57506001600160a01b0383165f908152601260205260409020600a0154610100900460ff16158061480f57504261480c84613175565b10155b801561483057506148216107d061327b565b82101580614830575060018110155b15610e5e576001600160a01b0383165f908152601260209081526040808320600a01805460ff19166001908117909155601b90925290912054905b8181116148db576001600160a01b0385165f9081526015602090815260408083208484529091529020600101546148a3906004615bc2565b6001600160a01b0386165f908152601560209081526040808320858452909152902060030155806148d381615c41565b91505061486b565b5050505050565b5f6148ee610bb861327b565b8210614905576148fe602861327b565b9050614974565b6149106107d061327b565b8210614920576148fe601e61327b565b61492b6103e861327b565b821061493b576148fe601461327b565b6149466101f461327b565b8210614956576148fe600c61327b565b61496161012c61327b565b821061497457614971600761327b565b90505b5f8111801561499857506001600160a01b0383165f90815260196020526040902054155b80156149c457506001600160a01b0383165f908152601260205260409020600a0154610100900460ff16155b15610e5e576149d38382615087565b6001600160a01b0384165f90815260196020526040812080549293508392909190612639908490615cff565b5f614a086139ee565b90505f6064614a18846002615bc2565b614a229190615bd9565b90505f604051806060016040528060328152602001601e8152602001601481525090505f5b60038110156148db575f848260038110614a6357614a63615c6d565b60200201515190506001600160a01b03811615614aea575f6064848460038110614a8f57614a8f615c6d565b6020020151614a9e9087615bc2565b614aa89190615bd9565b9050614ab48282615087565b6001600160a01b0383165f90815260196020526040812060040180549293508392909190614ae3908490615cff565b9091555050505b50600101614a47565b6001600160a01b0385165f908152601b602052604081205490614b168585615c0f565b90505f8587861115614b285787614b2a565b855b614b349190615c0f565b90505f60015b848111614bec576001600160a01b038a165f908152601560209081526040808320848452825291829020825160a0810184528154815260018201549281018390526002820154938101939093526003810154606084015260040154608083015287148015614bab5750898160400151145b15614bb65750614bda565b806060015181608001511015614bd8576020810151614bd59084615cff565b92505b505b80614be481615c41565b915050614b3a565b505f81118015614bfb57505f83115b15614cf2575f614c0c846064615bc2565b83614c1884600a615bc2565b614c229190615bc2565b614c2c9190615bd9565b9050614c388a82615087565b6001600160a01b038b165f90815260196020526040812060010180549293508392909190614c67908490615cff565b90915550506001600160a01b038a165f908152601b60205260408120600101805491614c9283615c41565b90915550506040805160608101825283815260208082018c81528284019485526001600160a01b038e165f90815260188352848120601b845285822060019081015483529352939093209151825591519181019190915590516002909101555b505050505050505050565b6001600160a01b038181165f9081526012602052604081206002810154600a90910154921691610100900460ff16614d36576001614d39565b60025b6001600160a01b0384165f90815260126020526040902060040154614d619160ff1690615bd9565b905060015f5b6001600160a01b03841615801590614d8157506008548211155b156148db57600a5460ff16614da6575f82815260106020526040902060010154614dcf565b5f8281526010602052604090206001015461271090614dc59085615bc2565b614dcf9190615bd9565b9050614ddb8483612e50565b15614e3757614dea8482615087565b6001600160a01b0385165f9081526019602052604090206002018054919250829184908110614e1b57614e1b615c6d565b905f5260205f20015f828254614e319190615cff565b90915550505b6001600160a01b039384165f908152601260205260409020600201549093169281614e6181615c41565b925050614d67565b6001600160a01b0381165f90815260126020526040812060090154614e8f906001615cff565b90505b60095481116124fc575f60115f8381526020019081526020015f206040518060e00160405290815f8201548152602001600182018054614ed190615c96565b80601f0160208091040260200160405190810160405280929190818152602001828054614efd90615c96565b8015614f485780601f10614f1f57610100808354040283529160200191614f48565b820191905f5260205f20905b815481529060010190602001808311614f2b57829003601f168201915b50505050508152602001600282015481526020016003820154815260200160048201548152602001600582015481526020016006820154815250509050614f93838260400151613456565b8015614fbd575060808101516001600160a01b0384165f9081526014602052604090206002015410155b8015614fe7575060a08101516001600160a01b0384165f9081526014602052604090206003015410155b8015615011575060608101516001600160a01b0384165f9081526012602052604090206005015410155b15610e5e5760c08101516001600160a01b0384165f9081526019602052604081206003018054839290615045908490615cff565b90915550506001600160a01b0384165f908152601260205260408120600901849055615073908590856147b2565b8261507d81615c41565b9350505050614e92565b5f615092838361520b565b9150811561130a576001600160a01b0383165f90815260126020526040902060090154600411156151645760646150ca83604b615bc2565b6150d49190615bd9565b6001600160a01b0384165f908152601a60209081526040808320600d54845290915281208054909190615108908490615cff565b909155506064905061511b836019615bc2565b6151259190615bd9565b6001600160a01b0384165f908152601a60209081526040808320600e54845290915281208054909190615159908490615cff565b9091555061130a9050565b6064615171836032615bc2565b61517b9190615bd9565b6001600160a01b0384165f908152601a60209081526040808320600d548452909152812080549091906151af908490615cff565b90915550606490506151c2836032615bc2565b6151cc9190615bd9565b6001600160a01b0384165f908152601a60209081526040808320600e54845290915281208054909190615200908490615cff565b909155505050919050565b6001600160a01b0382165f90815260126020526040812060080154421061523357505f612b52565b6001600160a01b0383165f908152601b60205260409020548260015b82811161530a576001600160a01b0386165f90815260156020908152604080832084845290915281206004810154600382015491929111615290575f6152a4565b816004015482600301546152a49190615c0f565b905080156152f5575f818511156152bb57816152bd565b845b905080836004015f8282546152d29190615cff565b909155506152e290508186615c0f565b9450845f036152f35750505061530a565b505b5050808061530290615c41565b91505061524f565b506153158185615c0f565b95945050505050565b60405180606001604052806003905b604080518082019091525f808252602082015281526020019060019003908161532d5790505090565b828054828255905f5260205f209081019282156153a9579160200282015b828111156153a957825182546001600160a01b0319166001600160a01b03909116178255602090920191600190910190615374565b506153b59291506153f2565b5090565b828054828255905f5260205f209081019282156153a9579160200282015b828111156153a95782518255916020019190600101906153d7565b5b808211156153b5575f81556001016153f3565b80356001600160a01b038116811461541c575f80fd5b919050565b5f8060408385031215615432575f80fd5b61543b83615406565b946020939093013593505050565b5f806040838503121561545a575f80fd5b50508035926020909101359150565b5f805f6060848603121561547b575f80fd5b61548484615406565b95602085013595506040909401359392505050565b5f602082840312156154a9575f80fd5b6154b282615406565b9392505050565b602080825282518282018190525f918401906040840190835b8181101561550c578351805184526020810151602085015260408101516040850152506060830192506020840193506001810190506154d2565b509095945050505050565b602080825282518282018190525f918401906040840190835b8181101561550c57835180518452602081015160208501526040810151604085015260608101516060850152608081015160808501525060a083019250602084019350600181019050615530565b5f81518084528060208401602086015e5f602082860101526020601f19601f83011685010191505092915050565b5f602082016020835280845180835260408501915060408160051b8601019250602086015f5b8281101561564457603f19878603018452815180518652602081015160c0602088015261560260c088018261557e565b604083810151908901526060808401511515908901526080808401519089015260a09283015192909701919091525060209384019391909101906001016155d2565b50929695505050505050565b602080825282518282018190525f918401906040840190835b8181101561550c578351805184526020810151602085015260408101516040850152606081015160608501526080810151608085015260a081015160a085015260c0810151151560c08501525060e083019250602084019350600181019050615669565b602081526156e76020820183516001600160a01b03169052565b602082015160408201526040820151606082015260608201516080820152608082015160a082015260a082015160c082015260c082015160e082015260e08201516101008201526101008201516101208201526101208201516101408201526101408201516101608201526101608201516101808201526101808201516101a08201526101a08201516101c08201526101c08201516101e08201526101e08201516102008201526102008201516102208201526102208201516102408201526102408201516102608201525f6102608301516103006102808401526157d061032084018261557e565b90506102808401516102a08401526102a08401516157f36102c085018215159052565b506102c08401518015156102e0850152506102e0840151801515610300850152509392505050565b5f805f6060848603121561582d575f80fd5b61583684615406565b925061584460208501615406565b929592945050506040919091013590565b5f60208284031215615865575f80fd5b5035919050565b805182526020808201516001600160a01b03169083015260408082015190830152606090810151910152565b602080825282518282018190525f918401906040840190835b8181101561550c576158c483855161586c565b60209390930192608092909201916001016158b1565b8151815260208083015190820152604080830151908201526060808301519082015260808101612b52565b602080825282518282018190525f918401906040840190835b8181101561550c57835180518452602090810151818501529093019260409092019160010161591e565b5f602082016020835280845180835260408501915060408160051b8601019250602086015f5b8281101561564457603f1987860301845281518051865260208101516101a060208801526159a06101a088018261557e565b905060408201516040880152606082015160608801526080820151608088015260a082015160a088015260c082015160c088015260e08201516159e760e089018215159052565b506101008201516101008801526101208201516101208801526101408201516101408801526101608201516101608801526101808201519150615a2f61018088018315159052565b955050602093840193919091019060010161596e565b86815260c060208201525f615a5d60c083018861557e565b6040830196909652509215156060840152608083019190915260a09091015292915050565b60c0810181835f5b6003811015615abe57815180516001600160a01b031684526020908101518185015260409093019290910190600101615a8a565b50505092915050565b602080825282518282018190525f918401906040840190835b8181101561550c57615b14838551805182526020810151602083015260408101516040830152606081015160608301525050565b6020939093019260809290920191600101615ae0565b602080825282518282018190525f918401906040840190835b8181101561550c57615b5683855161586c565b6020939093019260809290920191600101615b43565b87815260e060208201525f615b8460e083018961557e565b6040830197909752506060810194909452608084019290925260a083015260c09091015292915050565b634e487b7160e01b5f52601160045260245ffd5b8082028115828204841417612b5257612b52615bae565b5f82615bf357634e487b7160e01b5f52601260045260245ffd5b500490565b5f60208284031215615c08575f80fd5b5051919050565b81810381811115612b5257612b52615bae565b5f60208284031215615c32575f80fd5b815180151581146154b2575f80fd5b5f60018201615c5257615c52615bae565b5060010190565b634e487b7160e01b5f52604160045260245ffd5b634e487b7160e01b5f52603260045260245ffd5b5f81615c8f57615c8f615bae565b505f190190565b600181811c90821680615caa57607f821691505b60208210810361130a57634e487b7160e01b5f52602260045260245ffd5b60208082526019908201527f4d696e696d756d20616d6f756e74206973203520555344542100000000000000604082015260600190565b80820180821115612b5257612b52615bae565b602080825260149082015273596f7520617265206e6f7420616c6c6f7765642160601b604082015260600190565b602080825260179082015276596f7520617265206e6f7420726567697374657265642160481b604082015260600190565b60208082526010908201526f496e76616c69642073706f6e736f722160801b604082015260600190565b6001815b6001841115615dd657808504811115615dba57615dba615bae565b6001841615615dc857908102905b60019390931c928002615d9f565b935093915050565b5f82615dec57506001612b52565b81615df857505f612b52565b8160018114615e0e5760028114615e1857615e34565b6001915050612b52565b60ff841115615e2957615e29615bae565b50506001821b612b52565b5060208310610133831016604e8410600b8410161715615e57575081810a612b52565b615e635f198484615d9b565b805f1904821115615e7657615e76615bae565b029392505050565b5f6154b28383615dde565b6020808252600f908201526e496e76616c696420616d6f756e742160881b60408201526060019056fea26469706673582212208242d013f6a01a231a3e29ee1d453ce8a0b378ec8d7b004d0c20f5167145207264736f6c634300081a0033",
			"opcodes": "PUSH1 0x80 PUSH1 0x40 MSTORE PUSH0 DUP1 DUP1 SSTORE PUSH1 0x1 DUP2 DUP2 SSTORE PUSH1 0x2 DUP3 DUP2 SSTORE PUSH1 0x3 DUP1 SLOAD PUSH1 0x1 PUSH1 0x1 PUSH1 0xA0 SHL SUB NOT SWAP1 DUP2 AND PUSH20 0xA1BF05780C2DE3002086695D212A743EAA6532AD OR SWAP1 SWAP2 SSTORE PUSH1 0x4 DUP1 SLOAD DUP3 AND PUSH20 0x4F6A1CFDF5E55DB0C2FF4575B0887FEA8A967088 OR SWAP1 SSTORE PUSH1 0x5 DUP1 SLOAD DUP3 AND PUSH20 0x985495C028F9B896DE454EC448B53FBA6450DA40 OR SWAP1 SSTORE PUSH1 0x6 DUP1 SLOAD DUP3 AND PUSH20 0x73D1AD5A474E1712D6CBE18D56B7281AAF190347 OR SWAP1 SSTORE PUSH1 0x7 DUP1 SLOAD SWAP1 SWAP2 AND SWAP1 SSTORE PUSH1 0x8 DUP4 SWAP1 SSTORE PUSH1 0x9 DUP4 SWAP1 SSTORE PUSH1 0xA DUP1 SLOAD PUSH1 0xFF NOT AND DUP4 OR SWAP1 SSTORE PUSH1 0xB SWAP3 SWAP1 SWAP3 SSTORE PUSH1 0xD SSTORE PUSH1 0xE SSTORE PUSH8 0x8AC7230489E80000 PUSH1 0x20 SSTORE CALLVALUE DUP1 ISZERO PUSH2 0xD7 JUMPI PUSH0 DUP1 REVERT JUMPDEST POP PUSH1 0xC DUP1 SLOAD PUSH1 0x1 PUSH1 0x1 PUSH1 0xA0 SHL SUB NOT AND CALLER OR SWAP1 SSTORE PUSH2 0xF2 PUSH2 0xF7 JUMP JUMPDEST PUSH2 0x14C5 JUMP JUMPDEST PUSH2 0xFF PUSH2 0x119 JUMP JUMPDEST PUSH2 0x107 PUSH2 0x1FB JUMP JUMPDEST PUSH2 0x10F PUSH2 0x8A2 JUMP JUMPDEST PUSH2 0x117 PUSH2 0xD65 JUMP JUMPDEST JUMP JUMPDEST PUSH1 0xB DUP1 SLOAD SWAP1 PUSH0 PUSH2 0x128 DUP4 PUSH2 0x123C JUMP JUMPDEST SWAP2 SWAP1 POP SSTORE POP PUSH1 0x40 MLOAD DUP1 PUSH1 0xC0 ADD PUSH1 0x40 MSTORE DUP1 PUSH1 0xB SLOAD DUP2 MSTORE PUSH1 0x20 ADD PUSH1 0x40 MLOAD DUP1 PUSH1 0x40 ADD PUSH1 0x40 MSTORE DUP1 PUSH1 0x7 DUP2 MSTORE PUSH1 0x20 ADD PUSH7 0x5061636B616765 PUSH1 0xC8 SHL DUP2 MSTORE POP DUP2 MSTORE PUSH1 0x20 ADD PUSH0 DUP2 MSTORE PUSH1 0x20 ADD PUSH1 0x1 ISZERO ISZERO DUP2 MSTORE PUSH1 0x20 ADD PUSH2 0x184 PUSH1 0x1E PUSH2 0xD7E PUSH1 0x20 SHL PUSH1 0x20 SHR JUMP JUMPDEST DUP2 MSTORE PUSH1 0x20 ADD PUSH2 0x194 PUSH2 0xBB8 PUSH2 0xD7E JUMP JUMPDEST SWAP1 MSTORE PUSH1 0xB SLOAD PUSH0 SWAP1 DUP2 MSTORE PUSH1 0xF PUSH1 0x20 SWAP1 DUP2 MSTORE PUSH1 0x40 SWAP1 SWAP2 KECCAK256 DUP3 MLOAD DUP2 SSTORE SWAP1 DUP3 ADD MLOAD PUSH1 0x1 DUP3 ADD SWAP1 PUSH2 0x1C0 SWAP1 DUP3 PUSH2 0x12EC JUMP JUMPDEST POP PUSH1 0x40 DUP3 ADD MLOAD PUSH1 0x2 DUP3 ADD SSTORE PUSH1 0x60 DUP3 ADD MLOAD PUSH1 0x3 DUP3 ADD DUP1 SLOAD PUSH1 0xFF NOT AND SWAP2 ISZERO ISZERO SWAP2 SWAP1 SWAP2 OR SWAP1 SSTORE PUSH1 0x80 DUP3 ADD MLOAD PUSH1 0x4 DUP3 ADD SSTORE PUSH1 0xA0 SWAP1 SWAP2 ADD MLOAD PUSH1 0x5 SWAP1 SWAP2 ADD SSTORE JUMP JUMPDEST PUSH1 0x8 DUP1 SLOAD SWAP1 PUSH0 PUSH2 0x20A DUP4 PUSH2 0x123C JUMP JUMPDEST SWAP1 SWAP2 SSTORE POP POP PUSH1 0x40 DUP1 MLOAD PUSH1 0x60 DUP2 ADD DUP3 MSTORE PUSH1 0x8 DUP1 SLOAD DUP1 DUP4 MSTORE PUSH2 0x1F4 PUSH1 0x20 DUP1 DUP6 ADD SWAP2 DUP3 MSTORE PUSH0 DUP6 DUP8 ADD DUP2 DUP2 MSTORE SWAP4 DUP2 MSTORE PUSH1 0x10 SWAP1 SWAP2 MSTORE SWAP5 DUP6 KECCAK256 SWAP4 MLOAD DUP5 SSTORE MLOAD PUSH1 0x1 DUP5 ADD SSTORE MLOAD PUSH1 0x2 SWAP1 SWAP3 ADD SWAP2 SWAP1 SWAP2 SSTORE DUP1 SLOAD SWAP2 PUSH2 0x25D DUP4 PUSH2 0x123C JUMP JUMPDEST SWAP1 SWAP2 SSTORE POP POP PUSH1 0x40 DUP1 MLOAD PUSH1 0x60 DUP2 ADD DUP3 MSTORE PUSH1 0x8 DUP1 SLOAD DUP1 DUP4 MSTORE PUSH2 0x12C PUSH1 0x20 DUP1 DUP6 ADD SWAP2 DUP3 MSTORE PUSH1 0x1 DUP6 DUP8 ADD DUP2 DUP2 MSTORE PUSH0 SWAP5 DUP6 MSTORE PUSH1 0x10 SWAP1 SWAP3 MSTORE SWAP6 DUP4 KECCAK256 SWAP5 MLOAD DUP6 SSTORE SWAP1 MLOAD SWAP5 DUP5 ADD SWAP5 SWAP1 SWAP5 SSTORE SWAP3 MLOAD PUSH1 0x2 SWAP1 SWAP3 ADD SWAP2 SWAP1 SWAP2 SSTORE DUP1 SLOAD SWAP2 PUSH2 0x2B6 DUP4 PUSH2 0x123C JUMP JUMPDEST SWAP1 SWAP2 SSTORE POP POP PUSH1 0x40 DUP1 MLOAD PUSH1 0x60 DUP2 ADD DUP3 MSTORE PUSH1 0x8 DUP1 SLOAD DUP1 DUP4 MSTORE PUSH1 0xC8 PUSH1 0x20 DUP1 DUP6 ADD SWAP2 DUP3 MSTORE PUSH1 0x1 DUP6 DUP8 ADD DUP2 DUP2 MSTORE PUSH0 SWAP5 DUP6 MSTORE PUSH1 0x10 SWAP1 SWAP3 MSTORE SWAP6 DUP4 KECCAK256 SWAP5 MLOAD DUP6 SSTORE SWAP1 MLOAD SWAP5 DUP5 ADD SWAP5 SWAP1 SWAP5 SSTORE SWAP3 MLOAD PUSH1 0x2 SWAP1 SWAP3 ADD SWAP2 SWAP1 SWAP2 SSTORE DUP1 SLOAD SWAP2 PUSH2 0x30E DUP4 PUSH2 0x123C JUMP JUMPDEST SWAP1 SWAP2 SSTORE POP POP PUSH1 0x40 DUP1 MLOAD PUSH1 0x60 DUP2 ADD DUP3 MSTORE PUSH1 0x8 DUP1 SLOAD DUP1 DUP4 MSTORE PUSH2 0x190 PUSH1 0x20 DUP1 DUP6 ADD SWAP2 DUP3 MSTORE PUSH1 0x2 DUP6 DUP8 ADD DUP2 DUP2 MSTORE PUSH0 SWAP5 DUP6 MSTORE PUSH1 0x10 SWAP1 SWAP3 MSTORE SWAP6 DUP4 KECCAK256 SWAP5 MLOAD DUP6 SSTORE SWAP1 MLOAD PUSH1 0x1 DUP6 ADD SSTORE MLOAD SWAP3 SWAP1 SWAP4 ADD SWAP2 SWAP1 SWAP2 SSTORE DUP1 SLOAD SWAP2 PUSH2 0x363 DUP4 PUSH2 0x123C JUMP JUMPDEST SWAP1 SWAP2 SSTORE POP POP PUSH1 0x40 DUP1 MLOAD PUSH1 0x60 DUP2 ADD DUP3 MSTORE PUSH1 0x8 DUP1 SLOAD DUP1 DUP4 MSTORE PUSH1 0xC8 PUSH1 0x20 DUP1 DUP6 ADD SWAP2 DUP3 MSTORE PUSH1 0x2 DUP6 DUP8 ADD DUP2 DUP2 MSTORE PUSH0 SWAP5 DUP6 MSTORE PUSH1 0x10 SWAP1 SWAP3 MSTORE SWAP6 DUP4 KECCAK256 SWAP5 MLOAD DUP6 SSTORE SWAP1 MLOAD PUSH1 0x1 DUP6 ADD SSTORE MLOAD SWAP3 SWAP1 SWAP4 ADD SWAP2 SWAP1 SWAP2 SSTORE DUP1 SLOAD SWAP2 PUSH2 0x3B7 DUP4 PUSH2 0x123C JUMP JUMPDEST SWAP1 SWAP2 SSTORE POP POP PUSH1 0x40 DUP1 MLOAD PUSH1 0x60 DUP2 ADD DUP3 MSTORE PUSH1 0x8 DUP1 SLOAD DUP1 DUP4 MSTORE PUSH1 0xC8 PUSH1 0x20 DUP1 DUP6 ADD SWAP2 DUP3 MSTORE PUSH1 0x2 DUP6 DUP8 ADD DUP2 DUP2 MSTORE PUSH0 SWAP5 DUP6 MSTORE PUSH1 0x10 SWAP1 SWAP3 MSTORE SWAP6 DUP4 KECCAK256 SWAP5 MLOAD DUP6 SSTORE SWAP1 MLOAD PUSH1 0x1 DUP6 ADD SSTORE MLOAD SWAP3 SWAP1 SWAP4 ADD SWAP2 SWAP1 SWAP2 SSTORE DUP1 SLOAD SWAP2 PUSH2 0x40B DUP4 PUSH2 0x123C JUMP JUMPDEST SWAP1 SWAP2 SSTORE POP POP PUSH1 0x40 DUP1 MLOAD PUSH1 0x60 DUP2 ADD DUP3 MSTORE PUSH1 0x8 DUP1 SLOAD DUP1 DUP4 MSTORE PUSH1 0x64 PUSH1 0x20 DUP1 DUP6 ADD SWAP2 DUP3 MSTORE PUSH1 0x2 DUP6 DUP8 ADD DUP2 DUP2 MSTORE PUSH0 SWAP5 DUP6 MSTORE PUSH1 0x10 SWAP1 SWAP3 MSTORE SWAP6 DUP4 KECCAK256 SWAP5 MLOAD DUP6 SSTORE SWAP1 MLOAD PUSH1 0x1 DUP6 ADD SSTORE MLOAD SWAP3 SWAP1 SWAP4 ADD SWAP2 SWAP1 SWAP2 SSTORE DUP1 SLOAD SWAP2 PUSH2 0x45F DUP4 PUSH2 0x123C JUMP JUMPDEST SWAP1 SWAP2 SSTORE POP POP PUSH1 0x40 DUP1 MLOAD PUSH1 0x60 DUP2 ADD DUP3 MSTORE PUSH1 0x8 DUP1 SLOAD DUP1 DUP4 MSTORE PUSH1 0x64 PUSH1 0x20 DUP1 DUP6 ADD SWAP2 DUP3 MSTORE PUSH1 0x2 DUP6 DUP8 ADD DUP2 DUP2 MSTORE PUSH0 SWAP5 DUP6 MSTORE PUSH1 0x10 SWAP1 SWAP3 MSTORE SWAP6 DUP4 KECCAK256 SWAP5 MLOAD DUP6 SSTORE SWAP1 MLOAD PUSH1 0x1 DUP6 ADD SSTORE MLOAD SWAP3 SWAP1 SWAP4 ADD SWAP2 SWAP1 SWAP2 SSTORE DUP1 SLOAD SWAP2 PUSH2 0x4B3 DUP4 PUSH2 0x123C JUMP JUMPDEST SWAP1 SWAP2 SSTORE POP POP PUSH1 0x40 DUP1 MLOAD PUSH1 0x60 DUP2 ADD DUP3 MSTORE PUSH1 0x8 DUP1 SLOAD DUP1 DUP4 MSTORE PUSH1 0xC8 PUSH1 0x20 DUP1 DUP6 ADD SWAP2 DUP3 MSTORE PUSH1 0x3 DUP6 DUP8 ADD SWAP1 DUP2 MSTORE PUSH0 SWAP4 DUP5 MSTORE PUSH1 0x10 SWAP1 SWAP2 MSTORE SWAP5 DUP3 KECCAK256 SWAP4 MLOAD DUP5 SSTORE MLOAD PUSH1 0x1 DUP5 ADD SSTORE SWAP3 MLOAD PUSH1 0x2 SWAP1 SWAP3 ADD SWAP2 SWAP1 SWAP2 SSTORE DUP1 SLOAD SWAP2 PUSH2 0x508 DUP4 PUSH2 0x123C JUMP JUMPDEST SWAP1 SWAP2 SSTORE POP POP PUSH1 0x40 DUP1 MLOAD PUSH1 0x60 DUP2 ADD DUP3 MSTORE PUSH1 0x8 DUP1 SLOAD DUP1 DUP4 MSTORE PUSH1 0x64 PUSH1 0x20 DUP1 DUP6 ADD SWAP2 DUP3 MSTORE PUSH1 0x3 DUP6 DUP8 ADD SWAP1 DUP2 MSTORE PUSH0 SWAP4 DUP5 MSTORE PUSH1 0x10 SWAP1 SWAP2 MSTORE SWAP5 DUP3 KECCAK256 SWAP4 MLOAD DUP5 SSTORE MLOAD PUSH1 0x1 DUP5 ADD SSTORE SWAP3 MLOAD PUSH1 0x2 SWAP1 SWAP3 ADD SWAP2 SWAP1 SWAP2 SSTORE DUP1 SLOAD SWAP2 PUSH2 0x55D DUP4 PUSH2 0x123C JUMP JUMPDEST SWAP1 SWAP2 SSTORE POP POP PUSH1 0x40 DUP1 MLOAD PUSH1 0x60 DUP2 ADD DUP3 MSTORE PUSH1 0x8 DUP1 SLOAD DUP1 DUP4 MSTORE PUSH1 0x32 PUSH1 0x20 DUP1 DUP6 ADD SWAP2 DUP3 MSTORE PUSH1 0x3 DUP6 DUP8 ADD SWAP1 DUP2 MSTORE PUSH0 SWAP4 DUP5 MSTORE PUSH1 0x10 SWAP1 SWAP2 MSTORE SWAP5 DUP3 KECCAK256 SWAP4 MLOAD DUP5 SSTORE MLOAD PUSH1 0x1 DUP5 ADD SSTORE SWAP3 MLOAD PUSH1 0x2 SWAP1 SWAP3 ADD SWAP2 SWAP1 SWAP2 SSTORE DUP1 SLOAD SWAP2 PUSH2 0x5B2 DUP4 PUSH2 0x123C JUMP JUMPDEST SWAP1 SWAP2 SSTORE POP POP PUSH1 0x40 DUP1 MLOAD PUSH1 0x60 DUP2 ADD DUP3 MSTORE PUSH1 0x8 DUP1 SLOAD DUP1 DUP4 MSTORE PUSH1 0x32 PUSH1 0x20 DUP1 DUP6 ADD SWAP2 DUP3 MSTORE PUSH1 0x3 DUP6 DUP8 ADD SWAP1 DUP2 MSTORE PUSH0 SWAP4 DUP5 MSTORE PUSH1 0x10 SWAP1 SWAP2 MSTORE SWAP5 DUP3 KECCAK256 SWAP4 MLOAD DUP5 SSTORE MLOAD PUSH1 0x1 DUP5 ADD SSTORE SWAP3 MLOAD PUSH1 0x2 SWAP1 SWAP3 ADD SWAP2 SWAP1 SWAP2 SSTORE DUP1 SLOAD SWAP2 PUSH2 0x607 DUP4 PUSH2 0x123C JUMP JUMPDEST SWAP1 SWAP2 SSTORE POP POP PUSH1 0x40 DUP1 MLOAD PUSH1 0x60 DUP2 ADD DUP3 MSTORE PUSH1 0x8 DUP1 SLOAD DUP1 DUP4 MSTORE PUSH1 0x32 PUSH1 0x20 DUP1 DUP6 ADD SWAP2 DUP3 MSTORE PUSH1 0x3 DUP6 DUP8 ADD SWAP1 DUP2 MSTORE PUSH0 SWAP4 DUP5 MSTORE PUSH1 0x10 SWAP1 SWAP2 MSTORE SWAP5 DUP3 KECCAK256 SWAP4 MLOAD DUP5 SSTORE MLOAD PUSH1 0x1 DUP5 ADD SSTORE SWAP3 MLOAD PUSH1 0x2 SWAP1 SWAP3 ADD SWAP2 SWAP1 SWAP2 SSTORE DUP1 SLOAD SWAP2 PUSH2 0x65C DUP4 PUSH2 0x123C JUMP JUMPDEST SWAP1 SWAP2 SSTORE POP POP PUSH1 0x40 DUP1 MLOAD PUSH1 0x60 DUP2 ADD DUP3 MSTORE PUSH1 0x8 DUP1 SLOAD DUP1 DUP4 MSTORE PUSH1 0x64 PUSH1 0x20 DUP1 DUP6 ADD SWAP2 DUP3 MSTORE PUSH1 0x4 DUP6 DUP8 ADD SWAP1 DUP2 MSTORE PUSH0 SWAP4 DUP5 MSTORE PUSH1 0x10 SWAP1 SWAP2 MSTORE SWAP5 DUP3 KECCAK256 SWAP4 MLOAD DUP5 SSTORE MLOAD PUSH1 0x1 DUP5 ADD SSTORE SWAP3 MLOAD PUSH1 0x2 SWAP1 SWAP3 ADD SWAP2 SWAP1 SWAP2 SSTORE DUP1 SLOAD SWAP2 PUSH2 0x6B1 DUP4 PUSH2 0x123C JUMP JUMPDEST SWAP1 SWAP2 SSTORE POP POP PUSH1 0x40 DUP1 MLOAD PUSH1 0x60 DUP2 ADD DUP3 MSTORE PUSH1 0x8 DUP1 SLOAD DUP1 DUP4 MSTORE PUSH1 0x32 PUSH1 0x20 DUP1 DUP6 ADD SWAP2 DUP3 MSTORE PUSH1 0x4 DUP6 DUP8 ADD SWAP1 DUP2 MSTORE PUSH0 SWAP4 DUP5 MSTORE PUSH1 0x10 SWAP1 SWAP2 MSTORE SWAP5 DUP3 KECCAK256 SWAP4 MLOAD DUP5 SSTORE MLOAD PUSH1 0x1 DUP5 ADD SSTORE SWAP3 MLOAD PUSH1 0x2 SWAP1 SWAP3 ADD SWAP2 SWAP1 SWAP2 SSTORE DUP1 SLOAD SWAP2 PUSH2 0x706 DUP4 PUSH2 0x123C JUMP JUMPDEST SWAP1 SWAP2 SSTORE POP POP PUSH1 0x40 DUP1 MLOAD PUSH1 0x60 DUP2 ADD DUP3 MSTORE PUSH1 0x8 DUP1 SLOAD DUP1 DUP4 MSTORE PUSH1 0x19 PUSH1 0x20 DUP1 DUP6 ADD SWAP2 DUP3 MSTORE PUSH1 0x4 DUP6 DUP8 ADD SWAP1 DUP2 MSTORE PUSH0 SWAP4 DUP5 MSTORE PUSH1 0x10 SWAP1 SWAP2 MSTORE SWAP5 DUP3 KECCAK256 SWAP4 MLOAD DUP5 SSTORE MLOAD PUSH1 0x1 DUP5 ADD SSTORE SWAP3 MLOAD PUSH1 0x2 SWAP1 SWAP3 ADD SWAP2 SWAP1 SWAP2 SSTORE DUP1 SLOAD SWAP2 PUSH2 0x75B DUP4 PUSH2 0x123C JUMP JUMPDEST SWAP1 SWAP2 SSTORE POP POP PUSH1 0x40 DUP1 MLOAD PUSH1 0x60 DUP2 ADD DUP3 MSTORE PUSH1 0x8 DUP1 SLOAD DUP1 DUP4 MSTORE PUSH1 0x19 PUSH1 0x20 DUP1 DUP6 ADD SWAP2 DUP3 MSTORE PUSH1 0x4 DUP6 DUP8 ADD SWAP1 DUP2 MSTORE PUSH0 SWAP4 DUP5 MSTORE PUSH1 0x10 SWAP1 SWAP2 MSTORE SWAP5 DUP3 KECCAK256 SWAP4 MLOAD DUP5 SSTORE MLOAD PUSH1 0x1 DUP5 ADD SSTORE SWAP3 MLOAD PUSH1 0x2 SWAP1 SWAP3 ADD SWAP2 SWAP1 SWAP2 SSTORE DUP1 SLOAD SWAP2 PUSH2 0x7B0 DUP4 PUSH2 0x123C JUMP JUMPDEST SWAP1 SWAP2 SSTORE POP POP PUSH1 0x40 DUP1 MLOAD PUSH1 0x60 DUP2 ADD DUP3 MSTORE PUSH1 0x8 DUP1 SLOAD DUP1 DUP4 MSTORE PUSH1 0x19 PUSH1 0x20 DUP1 DUP6 ADD SWAP2 DUP3 MSTORE PUSH1 0x4 DUP6 DUP8 ADD SWAP1 DUP2 MSTORE PUSH0 SWAP4 DUP5 MSTORE PUSH1 0x10 SWAP1 SWAP2 MSTORE SWAP5 DUP3 KECCAK256 SWAP4 MLOAD DUP5 SSTORE MLOAD PUSH1 0x1 DUP5 ADD SSTORE SWAP3 MLOAD PUSH1 0x2 SWAP1 SWAP3 ADD SWAP2 SWAP1 SWAP2 SSTORE DUP1 SLOAD SWAP2 PUSH2 0x805 DUP4 PUSH2 0x123C JUMP JUMPDEST SWAP1 SWAP2 SSTORE POP POP PUSH1 0x40 DUP1 MLOAD PUSH1 0x60 DUP2 ADD DUP3 MSTORE PUSH1 0x8 DUP1 SLOAD DUP1 DUP4 MSTORE PUSH1 0x19 PUSH1 0x20 DUP1 DUP6 ADD SWAP2 DUP3 MSTORE PUSH1 0x4 DUP6 DUP8 ADD SWAP1 DUP2 MSTORE PUSH0 SWAP4 DUP5 MSTORE PUSH1 0x10 SWAP1 SWAP2 MSTORE SWAP5 DUP3 KECCAK256 SWAP4 MLOAD DUP5 SSTORE MLOAD PUSH1 0x1 DUP5 ADD SSTORE SWAP3 MLOAD PUSH1 0x2 SWAP1 SWAP3 ADD SWAP2 SWAP1 SWAP2 SSTORE DUP1 SLOAD SWAP2 PUSH2 0x85A DUP4 PUSH2 0x123C JUMP JUMPDEST SWAP1 SWAP2 SSTORE POP POP PUSH1 0x40 DUP1 MLOAD PUSH1 0x60 DUP2 ADD DUP3 MSTORE PUSH1 0x8 SLOAD DUP1 DUP3 MSTORE PUSH1 0x19 PUSH1 0x20 DUP1 DUP5 ADD SWAP2 DUP3 MSTORE PUSH1 0x4 DUP5 DUP7 ADD SWAP1 DUP2 MSTORE PUSH0 SWAP4 DUP5 MSTORE PUSH1 0x10 SWAP1 SWAP2 MSTORE SWAP4 SWAP1 SWAP2 KECCAK256 SWAP2 MLOAD DUP3 SSTORE MLOAD PUSH1 0x1 DUP3 ADD SSTORE SWAP1 MLOAD PUSH1 0x2 SWAP1 SWAP2 ADD SSTORE JUMP JUMPDEST PUSH1 0x9 DUP1 SLOAD SWAP1 PUSH0 PUSH2 0x8B1 DUP4 PUSH2 0x123C JUMP JUMPDEST SWAP2 SWAP1 POP SSTORE POP PUSH1 0x40 MLOAD DUP1 PUSH1 0xE0 ADD PUSH1 0x40 MSTORE DUP1 PUSH1 0x9 SLOAD DUP2 MSTORE PUSH1 0x20 ADD PUSH1 0x40 MLOAD DUP1 PUSH1 0x40 ADD PUSH1 0x40 MSTORE DUP1 PUSH1 0x6 DUP2 MSTORE PUSH1 0x20 ADD PUSH6 0x189029BA30B9 PUSH1 0xD1 SHL DUP2 MSTORE POP DUP2 MSTORE PUSH1 0x20 ADD PUSH2 0x8FE PUSH2 0x12C PUSH2 0xD7E PUSH1 0x20 SHL PUSH1 0x20 SHR JUMP JUMPDEST DUP2 MSTORE PUSH1 0x14 PUSH1 0x20 DUP3 ADD MSTORE PUSH1 0x40 ADD PUSH2 0x915 PUSH2 0x3E8 PUSH2 0xD7E JUMP JUMPDEST DUP2 MSTORE PUSH1 0x20 ADD PUSH2 0x925 PUSH2 0x3E8 PUSH2 0xD7E JUMP JUMPDEST DUP2 MSTORE PUSH1 0x20 ADD PUSH2 0x933 PUSH0 PUSH2 0xD7E JUMP JUMPDEST SWAP1 MSTORE PUSH1 0x9 SLOAD PUSH0 SWAP1 DUP2 MSTORE PUSH1 0x11 PUSH1 0x20 SWAP1 DUP2 MSTORE PUSH1 0x40 SWAP1 SWAP2 KECCAK256 DUP3 MLOAD DUP2 SSTORE SWAP1 DUP3 ADD MLOAD PUSH1 0x1 DUP3 ADD SWAP1 PUSH2 0x95F SWAP1 DUP3 PUSH2 0x12EC JUMP JUMPDEST POP PUSH1 0x40 DUP3 ADD MLOAD PUSH1 0x2 DUP3 ADD SSTORE PUSH1 0x60 DUP3 ADD MLOAD PUSH1 0x3 DUP3 ADD SSTORE PUSH1 0x80 DUP3 ADD MLOAD PUSH1 0x4 DUP3 ADD SSTORE PUSH1 0xA0 DUP3 ADD MLOAD PUSH1 0x5 DUP3 ADD SSTORE PUSH1 0xC0 SWAP1 SWAP2 ADD MLOAD PUSH1 0x6 SWAP1 SWAP2 ADD SSTORE PUSH1 0x9 DUP1 SLOAD SWAP1 PUSH0 PUSH2 0x9A3 DUP4 PUSH2 0x123C JUMP JUMPDEST SWAP2 SWAP1 POP SSTORE POP PUSH1 0x40 MLOAD DUP1 PUSH1 0xE0 ADD PUSH1 0x40 MSTORE DUP1 PUSH1 0x9 SLOAD DUP2 MSTORE PUSH1 0x20 ADD PUSH1 0x40 MLOAD DUP1 PUSH1 0x40 ADD PUSH1 0x40 MSTORE DUP1 PUSH1 0x6 DUP2 MSTORE PUSH1 0x20 ADD PUSH6 0x191029BA30B9 PUSH1 0xD1 SHL DUP2 MSTORE POP DUP2 MSTORE PUSH1 0x20 ADD PUSH2 0x9F0 PUSH2 0x1F4 PUSH2 0xD7E PUSH1 0x20 SHL PUSH1 0x20 SHR JUMP JUMPDEST DUP2 MSTORE PUSH1 0x32 PUSH1 0x20 DUP3 ADD MSTORE PUSH1 0x40 ADD PUSH2 0xA07 PUSH2 0x1388 PUSH2 0xD7E JUMP JUMPDEST DUP2 MSTORE PUSH1 0x20 ADD PUSH2 0xA17 PUSH2 0x1388 PUSH2 0xD7E JUMP JUMPDEST DUP2 MSTORE PUSH1 0x20 ADD PUSH2 0xA25 PUSH0 PUSH2 0xD7E JUMP JUMPDEST SWAP1 MSTORE PUSH1 0x9 SLOAD PUSH0 SWAP1 DUP2 MSTORE PUSH1 0x11 PUSH1 0x20 SWAP1 DUP2 MSTORE PUSH1 0x40 SWAP1 SWAP2 KECCAK256 DUP3 MLOAD DUP2 SSTORE SWAP1 DUP3 ADD MLOAD PUSH1 0x1 DUP3 ADD SWAP1 PUSH2 0xA51 SWAP1 DUP3 PUSH2 0x12EC JUMP JUMPDEST POP PUSH1 0x40 DUP3 ADD MLOAD PUSH1 0x2 DUP3 ADD SSTORE PUSH1 0x60 DUP3 ADD MLOAD PUSH1 0x3 DUP3 ADD SSTORE PUSH1 0x80 DUP3 ADD MLOAD PUSH1 0x4 DUP3 ADD SSTORE PUSH1 0xA0 DUP3 ADD MLOAD PUSH1 0x5 DUP3 ADD SSTORE PUSH1 0xC0 SWAP1 SWAP2 ADD MLOAD PUSH1 0x6 SWAP1 SWAP2 ADD SSTORE PUSH1 0x9 DUP1 SLOAD SWAP1 PUSH0 PUSH2 0xA95 DUP4 PUSH2 0x123C JUMP JUMPDEST SWAP2 SWAP1 POP SSTORE POP PUSH1 0x40 MLOAD DUP1 PUSH1 0xE0 ADD PUSH1 0x40 MSTORE DUP1 PUSH1 0x9 SLOAD DUP2 MSTORE PUSH1 0x20 ADD PUSH1 0x40 MLOAD DUP1 PUSH1 0x40 ADD PUSH1 0x40 MSTORE DUP1 PUSH1 0x6 DUP2 MSTORE PUSH1 0x20 ADD PUSH6 0x199029BA30B9 PUSH1 0xD1 SHL DUP2 MSTORE POP DUP2 MSTORE PUSH1 0x20 ADD PUSH2 0xAE2 PUSH2 0x3E8 PUSH2 0xD7E PUSH1 0x20 SHL PUSH1 0x20 SHR JUMP JUMPDEST DUP2 MSTORE PUSH1 0x64 PUSH1 0x20 DUP3 ADD MSTORE PUSH1 0x40 ADD PUSH2 0xAF9 PUSH2 0x2710 PUSH2 0xD7E JUMP JUMPDEST DUP2 MSTORE PUSH1 0x20 ADD PUSH2 0xB09 PUSH2 0x2710 PUSH2 0xD7E JUMP JUMPDEST DUP2 MSTORE PUSH1 0x20 ADD PUSH2 0xB17 PUSH0 PUSH2 0xD7E JUMP JUMPDEST SWAP1 MSTORE PUSH1 0x9 SLOAD PUSH0 SWAP1 DUP2 MSTORE PUSH1 0x11 PUSH1 0x20 SWAP1 DUP2 MSTORE PUSH1 0x40 SWAP1 SWAP2 KECCAK256 DUP3 MLOAD DUP2 SSTORE SWAP1 DUP3 ADD MLOAD PUSH1 0x1 DUP3 ADD SWAP1 PUSH2 0xB43 SWAP1 DUP3 PUSH2 0x12EC JUMP JUMPDEST POP PUSH1 0x40 DUP3 ADD MLOAD PUSH1 0x2 DUP3 ADD SSTORE PUSH1 0x60 DUP3 ADD MLOAD PUSH1 0x3 DUP3 ADD SSTORE PUSH1 0x80 DUP3 ADD MLOAD PUSH1 0x4 DUP3 ADD SSTORE PUSH1 0xA0 DUP3 ADD MLOAD PUSH1 0x5 DUP3 ADD SSTORE PUSH1 0xC0 SWAP1 SWAP2 ADD MLOAD PUSH1 0x6 SWAP1 SWAP2 ADD SSTORE PUSH1 0x9 DUP1 SLOAD SWAP1 PUSH0 PUSH2 0xB87 DUP4 PUSH2 0x123C JUMP JUMPDEST SWAP2 SWAP1 POP SSTORE POP PUSH1 0x40 MLOAD DUP1 PUSH1 0xE0 ADD PUSH1 0x40 MSTORE DUP1 PUSH1 0x9 SLOAD DUP2 MSTORE PUSH1 0x20 ADD PUSH1 0x40 MLOAD DUP1 PUSH1 0x40 ADD PUSH1 0x40 MSTORE DUP1 PUSH1 0x6 DUP2 MSTORE PUSH1 0x20 ADD PUSH6 0x1A1029BA30B9 PUSH1 0xD1 SHL DUP2 MSTORE POP DUP2 MSTORE PUSH1 0x20 ADD PUSH2 0xBD4 PUSH2 0x7D0 PUSH2 0xD7E PUSH1 0x20 SHL PUSH1 0x20 SHR JUMP JUMPDEST DUP2 MSTORE PUSH1 0xC8 PUSH1 0x20 DUP3 ADD MSTORE PUSH1 0x40 ADD PUSH2 0xBEB PUSH2 0x61A8 PUSH2 0xD7E JUMP JUMPDEST DUP2 MSTORE PUSH1 0x20 ADD PUSH2 0xBFB PUSH2 0x61A8 PUSH2 0xD7E JUMP JUMPDEST DUP2 MSTORE PUSH1 0x20 ADD PUSH2 0xC0B PUSH2 0x9C4 PUSH2 0xD7E JUMP JUMPDEST SWAP1 MSTORE PUSH1 0x9 SLOAD PUSH0 SWAP1 DUP2 MSTORE PUSH1 0x11 PUSH1 0x20 SWAP1 DUP2 MSTORE PUSH1 0x40 SWAP1 SWAP2 KECCAK256 DUP3 MLOAD DUP2 SSTORE SWAP1 DUP3 ADD MLOAD PUSH1 0x1 DUP3 ADD SWAP1 PUSH2 0xC37 SWAP1 DUP3 PUSH2 0x12EC JUMP JUMPDEST POP PUSH1 0x40 DUP3 ADD MLOAD PUSH1 0x2 DUP3 ADD SSTORE PUSH1 0x60 DUP3 ADD MLOAD PUSH1 0x3 DUP3 ADD SSTORE PUSH1 0x80 DUP3 ADD MLOAD PUSH1 0x4 DUP3 ADD SSTORE PUSH1 0xA0 DUP3 ADD MLOAD PUSH1 0x5 DUP3 ADD SSTORE PUSH1 0xC0 SWAP1 SWAP2 ADD MLOAD PUSH1 0x6 SWAP1 SWAP2 ADD SSTORE PUSH1 0x9 DUP1 SLOAD SWAP1 PUSH0 PUSH2 0xC7B DUP4 PUSH2 0x123C JUMP JUMPDEST SWAP2 SWAP1 POP SSTORE POP PUSH1 0x40 MLOAD DUP1 PUSH1 0xE0 ADD PUSH1 0x40 MSTORE DUP1 PUSH1 0x9 SLOAD DUP2 MSTORE PUSH1 0x20 ADD PUSH1 0x40 MLOAD DUP1 PUSH1 0x40 ADD PUSH1 0x40 MSTORE DUP1 PUSH1 0x6 DUP2 MSTORE PUSH1 0x20 ADD PUSH6 0x1A9029BA30B9 PUSH1 0xD1 SHL DUP2 MSTORE POP DUP2 MSTORE PUSH1 0x20 ADD PUSH2 0xCC8 PUSH2 0xBB8 PUSH2 0xD7E PUSH1 0x20 SHL PUSH1 0x20 SHR JUMP JUMPDEST DUP2 MSTORE PUSH2 0x1F4 PUSH1 0x20 DUP3 ADD MSTORE PUSH1 0x40 ADD PUSH2 0xCE1 PUSH3 0x124F8 PUSH2 0xD7E JUMP JUMPDEST DUP2 MSTORE PUSH1 0x20 ADD PUSH2 0xCF2 PUSH3 0x124F8 PUSH2 0xD7E JUMP JUMPDEST DUP2 MSTORE PUSH1 0x20 ADD PUSH2 0xD02 PUSH2 0x1388 PUSH2 0xD7E JUMP JUMPDEST SWAP1 MSTORE PUSH1 0x9 SLOAD PUSH0 SWAP1 DUP2 MSTORE PUSH1 0x11 PUSH1 0x20 SWAP1 DUP2 MSTORE PUSH1 0x40 SWAP1 SWAP2 KECCAK256 DUP3 MLOAD DUP2 SSTORE SWAP1 DUP3 ADD MLOAD PUSH1 0x1 DUP3 ADD SWAP1 PUSH2 0xD2E SWAP1 DUP3 PUSH2 0x12EC JUMP JUMPDEST POP PUSH1 0x40 DUP3 ADD MLOAD PUSH1 0x2 DUP3 ADD SSTORE PUSH1 0x60 DUP3 ADD MLOAD PUSH1 0x3 DUP3 ADD SSTORE PUSH1 0x80 DUP3 ADD MLOAD PUSH1 0x4 DUP3 ADD SSTORE PUSH1 0xA0 DUP3 ADD MLOAD PUSH1 0x5 DUP3 ADD SSTORE PUSH1 0xC0 SWAP1 SWAP2 ADD MLOAD PUSH1 0x6 SWAP1 SWAP2 ADD SSTORE JUMP JUMPDEST PUSH1 0x3 SLOAD PUSH1 0x1 PUSH1 0x1 PUSH1 0xA0 SHL SUB AND PUSH2 0xD7B DUP2 PUSH0 PUSH2 0xD9B JUMP JUMPDEST POP JUMP JUMPDEST PUSH0 PUSH2 0xD8B PUSH1 0x12 PUSH1 0xA PUSH2 0x1489 JUMP JUMPDEST PUSH2 0xD95 SWAP1 DUP4 PUSH2 0x149B JUMP JUMPDEST SWAP3 SWAP2 POP POP JUMP JUMPDEST PUSH0 DUP1 SLOAD SWAP1 DUP1 PUSH2 0xDA9 DUP4 PUSH2 0x123C JUMP JUMPDEST SWAP2 SWAP1 POP SSTORE POP PUSH0 PUSH1 0x40 MLOAD DUP1 PUSH2 0x180 ADD PUSH1 0x40 MSTORE DUP1 PUSH0 SLOAD DUP2 MSTORE PUSH1 0x20 ADD DUP5 PUSH1 0x1 PUSH1 0x1 PUSH1 0xA0 SHL SUB AND DUP2 MSTORE PUSH1 0x20 ADD DUP4 PUSH1 0x1 PUSH1 0x1 PUSH1 0xA0 SHL SUB AND DUP2 MSTORE PUSH1 0x20 ADD TIMESTAMP DUP2 MSTORE PUSH1 0x20 ADD PUSH0 DUP2 MSTORE PUSH1 0x20 ADD PUSH0 DUP2 MSTORE PUSH1 0x20 ADD PUSH0 DUP2 MSTORE PUSH1 0x20 ADD PUSH0 DUP2 MSTORE PUSH1 0x20 ADD PUSH0 DUP2 MSTORE PUSH1 0x20 ADD PUSH0 DUP2 MSTORE PUSH1 0x20 ADD PUSH0 ISZERO ISZERO DUP2 MSTORE PUSH1 0x20 ADD PUSH0 ISZERO ISZERO DUP2 MSTORE POP SWAP1 POP PUSH0 PUSH1 0x40 MLOAD DUP1 PUSH1 0xC0 ADD PUSH1 0x40 MSTORE DUP1 PUSH0 DUP2 MSTORE PUSH1 0x20 ADD PUSH0 PUSH1 0x1 PUSH1 0x1 PUSH1 0x40 SHL SUB DUP2 GT ISZERO PUSH2 0xE44 JUMPI PUSH2 0xE44 PUSH2 0x1254 JUMP JUMPDEST PUSH1 0x40 MLOAD SWAP1 DUP1 DUP3 MSTORE DUP1 PUSH1 0x20 MUL PUSH1 0x20 ADD DUP3 ADD PUSH1 0x40 MSTORE DUP1 ISZERO PUSH2 0xE6D JUMPI DUP2 PUSH1 0x20 ADD PUSH1 0x20 DUP3 MUL DUP1 CALLDATASIZE DUP4 CALLDATACOPY ADD SWAP1 POP JUMPDEST POP DUP2 MSTORE PUSH1 0x20 ADD PUSH0 DUP2 MSTORE PUSH1 0x20 ADD PUSH0 DUP2 MSTORE PUSH1 0x20 ADD PUSH0 DUP2 MSTORE PUSH1 0x20 ADD PUSH0 PUSH1 0x1 PUSH1 0x1 PUSH1 0x40 SHL SUB DUP2 GT ISZERO PUSH2 0xE9D JUMPI PUSH2 0xE9D PUSH2 0x1254 JUMP JUMPDEST PUSH1 0x40 MLOAD SWAP1 DUP1 DUP3 MSTORE DUP1 PUSH1 0x20 MUL PUSH1 0x20 ADD DUP3 ADD PUSH1 0x40 MSTORE DUP1 ISZERO PUSH2 0xEC6 JUMPI DUP2 PUSH1 0x20 ADD PUSH1 0x20 DUP3 MUL DUP1 CALLDATASIZE DUP4 CALLDATACOPY ADD SWAP1 POP JUMPDEST POP DUP2 MSTORE POP SWAP1 POP PUSH0 PUSH1 0x40 MLOAD DUP1 PUSH1 0xC0 ADD PUSH1 0x40 MSTORE DUP1 PUSH0 DUP2 MSTORE PUSH1 0x20 ADD PUSH0 DUP2 MSTORE PUSH1 0x20 ADD PUSH1 0x8 SLOAD PUSH1 0x1 PUSH2 0xEF3 SWAP2 SWAP1 PUSH2 0x14B2 JUMP JUMPDEST PUSH1 0x1 PUSH1 0x1 PUSH1 0x40 SHL SUB DUP2 GT ISZERO PUSH2 0xF0A JUMPI PUSH2 0xF0A PUSH2 0x1254 JUMP JUMPDEST PUSH1 0x40 MLOAD SWAP1 DUP1 DUP3 MSTORE DUP1 PUSH1 0x20 MUL PUSH1 0x20 ADD DUP3 ADD PUSH1 0x40 MSTORE DUP1 ISZERO PUSH2 0xF33 JUMPI DUP2 PUSH1 0x20 ADD PUSH1 0x20 DUP3 MUL DUP1 CALLDATASIZE DUP4 CALLDATACOPY ADD SWAP1 POP JUMPDEST POP DUP2 MSTORE PUSH0 PUSH1 0x20 DUP1 DUP4 ADD DUP3 SWAP1 MSTORE PUSH1 0x40 DUP1 DUP5 ADD DUP4 SWAP1 MSTORE PUSH1 0x60 SWAP4 DUP5 ADD DUP4 SWAP1 MSTORE DUP1 MLOAD PUSH1 0xA0 DUP1 DUP3 ADD DUP4 MSTORE DUP5 DUP3 MSTORE DUP2 DUP5 ADD DUP6 SWAP1 MSTORE DUP2 DUP4 ADD DUP6 SWAP1 MSTORE DUP2 DUP7 ADD DUP6 SWAP1 MSTORE PUSH1 0x80 DUP1 DUP4 ADD DUP7 SWAP1 MSTORE PUSH1 0x1 PUSH1 0x1 PUSH1 0xA0 SHL SUB DUP14 DUP2 AND DUP8 MSTORE PUSH1 0x12 DUP7 MSTORE DUP5 DUP8 KECCAK256 DUP13 MLOAD DUP2 SSTORE DUP13 DUP8 ADD MLOAD PUSH1 0x1 DUP1 DUP4 ADD DUP1 SLOAD PUSH1 0x1 PUSH1 0x1 PUSH1 0xA0 SHL SUB NOT SWAP1 DUP2 AND SWAP4 DUP7 AND SWAP4 SWAP1 SWAP4 OR SWAP1 SSTORE DUP15 DUP9 ADD MLOAD PUSH1 0x2 DUP5 ADD DUP1 SLOAD SWAP1 SWAP4 AND SWAP5 AND SWAP4 SWAP1 SWAP4 OR SWAP1 SSTORE SWAP8 DUP13 ADD MLOAD PUSH1 0x3 DUP10 ADD SSTORE SWAP1 DUP12 ADD MLOAD PUSH1 0x4 DUP9 ADD SSTORE SWAP1 DUP11 ADD MLOAD PUSH1 0x5 DUP8 ADD SSTORE PUSH1 0xC0 DUP11 ADD MLOAD PUSH1 0x6 DUP8 ADD SSTORE PUSH1 0xE0 DUP11 ADD MLOAD PUSH1 0x7 DUP8 ADD SSTORE PUSH2 0x100 DUP1 DUP12 ADD MLOAD PUSH1 0x8 DUP9 ADD SSTORE PUSH2 0x120 DUP12 ADD MLOAD PUSH1 0x9 DUP9 ADD SSTORE PUSH2 0x140 DUP12 ADD MLOAD PUSH1 0xA SWAP1 SWAP8 ADD DUP1 SLOAD PUSH2 0x160 DUP14 ADD MLOAD PUSH2 0xFFFF NOT SWAP1 SWAP2 AND SWAP9 ISZERO ISZERO PUSH2 0xFF00 NOT AND SWAP9 SWAP1 SWAP9 OR SWAP8 ISZERO ISZERO SWAP1 SWAP2 MUL SWAP7 SWAP1 SWAP7 OR SWAP1 SWAP6 SSTORE PUSH1 0x14 DUP4 MSTORE SWAP3 KECCAK256 DUP7 MLOAD DUP2 SSTORE DUP7 DUP3 ADD MLOAD DUP1 MLOAD SWAP6 SWAP7 POP SWAP3 SWAP5 DUP8 SWAP5 SWAP2 SWAP4 PUSH2 0x1063 SWAP4 SWAP3 DUP6 ADD SWAP3 ADD SWAP1 PUSH2 0x1178 JUMP JUMPDEST POP PUSH1 0x40 DUP3 ADD MLOAD PUSH1 0x2 DUP3 ADD SSTORE PUSH1 0x60 DUP3 ADD MLOAD PUSH1 0x3 DUP3 ADD SSTORE PUSH1 0x80 DUP3 ADD MLOAD PUSH1 0x4 DUP3 ADD SSTORE PUSH1 0xA0 DUP3 ADD MLOAD DUP1 MLOAD PUSH2 0x109D SWAP2 PUSH1 0x5 DUP5 ADD SWAP2 PUSH1 0x20 SWAP1 SWAP2 ADD SWAP1 PUSH2 0x1178 JUMP JUMPDEST POP POP POP PUSH1 0x1 PUSH1 0x1 PUSH1 0xA0 SHL SUB DUP7 AND PUSH0 SWAP1 DUP2 MSTORE PUSH1 0x19 PUSH1 0x20 SWAP1 DUP2 MSTORE PUSH1 0x40 SWAP2 DUP3 SWAP1 KECCAK256 DUP5 MLOAD DUP2 SSTORE DUP2 DUP6 ADD MLOAD PUSH1 0x1 DUP3 ADD SSTORE SWAP2 DUP5 ADD MLOAD DUP1 MLOAD DUP6 SWAP4 SWAP3 PUSH2 0x10E2 SWAP3 PUSH1 0x2 DUP6 ADD SWAP3 SWAP2 ADD SWAP1 PUSH2 0x11DB JUMP JUMPDEST POP PUSH1 0x60 DUP3 DUP2 ADD MLOAD PUSH1 0x3 DUP1 DUP5 ADD SWAP2 SWAP1 SWAP2 SSTORE PUSH1 0x80 DUP1 DUP6 ADD MLOAD PUSH1 0x4 DUP1 DUP7 ADD SWAP2 SWAP1 SWAP2 SSTORE PUSH1 0xA0 SWAP1 SWAP6 ADD MLOAD PUSH1 0x5 SWAP1 SWAP5 ADD SWAP4 SWAP1 SWAP4 SSTORE PUSH0 DUP1 SLOAD DUP2 MSTORE PUSH1 0x13 PUSH1 0x20 SWAP1 DUP2 MSTORE PUSH1 0x40 DUP1 DUP4 KECCAK256 DUP1 SLOAD PUSH1 0x1 PUSH1 0x1 PUSH1 0xA0 SHL SUB SWAP1 SWAP15 AND PUSH1 0x1 PUSH1 0x1 PUSH1 0xA0 SHL SUB NOT SWAP1 SWAP15 AND DUP15 OR SWAP1 SSTORE SWAP12 DUP3 MSTORE PUSH1 0x1B DUP2 MSTORE SWAP1 DUP12 SWAP1 KECCAK256 DUP7 MLOAD DUP2 SSTORE SWAP1 DUP7 ADD MLOAD PUSH1 0x1 DUP3 ADD SSTORE SWAP10 DUP6 ADD MLOAD PUSH1 0x2 DUP12 ADD SSTORE SWAP1 DUP5 ADD MLOAD SWAP1 DUP10 ADD SSTORE SWAP2 SWAP1 SWAP2 ADD MLOAD SWAP6 ADD SWAP5 SWAP1 SWAP5 SSTORE POP POP POP POP JUMP JUMPDEST DUP3 DUP1 SLOAD DUP3 DUP3 SSTORE SWAP1 PUSH0 MSTORE PUSH1 0x20 PUSH0 KECCAK256 SWAP1 DUP2 ADD SWAP3 DUP3 ISZERO PUSH2 0x11CB JUMPI SWAP2 PUSH1 0x20 MUL DUP3 ADD JUMPDEST DUP3 DUP2 GT ISZERO PUSH2 0x11CB JUMPI DUP3 MLOAD DUP3 SLOAD PUSH1 0x1 PUSH1 0x1 PUSH1 0xA0 SHL SUB NOT AND PUSH1 0x1 PUSH1 0x1 PUSH1 0xA0 SHL SUB SWAP1 SWAP2 AND OR DUP3 SSTORE PUSH1 0x20 SWAP1 SWAP3 ADD SWAP2 PUSH1 0x1 SWAP1 SWAP2 ADD SWAP1 PUSH2 0x1196 JUMP JUMPDEST POP PUSH2 0x11D7 SWAP3 SWAP2 POP PUSH2 0x1214 JUMP JUMPDEST POP SWAP1 JUMP JUMPDEST DUP3 DUP1 SLOAD DUP3 DUP3 SSTORE SWAP1 PUSH0 MSTORE PUSH1 0x20 PUSH0 KECCAK256 SWAP1 DUP2 ADD SWAP3 DUP3 ISZERO PUSH2 0x11CB JUMPI SWAP2 PUSH1 0x20 MUL DUP3 ADD JUMPDEST DUP3 DUP2 GT ISZERO PUSH2 0x11CB JUMPI DUP3 MLOAD DUP3 SSTORE SWAP2 PUSH1 0x20 ADD SWAP2 SWAP1 PUSH1 0x1 ADD SWAP1 PUSH2 0x11F9 JUMP JUMPDEST JUMPDEST DUP1 DUP3 GT ISZERO PUSH2 0x11D7 JUMPI PUSH0 DUP2 SSTORE PUSH1 0x1 ADD PUSH2 0x1215 JUMP JUMPDEST PUSH4 0x4E487B71 PUSH1 0xE0 SHL PUSH0 MSTORE PUSH1 0x11 PUSH1 0x4 MSTORE PUSH1 0x24 PUSH0 REVERT JUMPDEST PUSH0 PUSH1 0x1 DUP3 ADD PUSH2 0x124D JUMPI PUSH2 0x124D PUSH2 0x1228 JUMP JUMPDEST POP PUSH1 0x1 ADD SWAP1 JUMP JUMPDEST PUSH4 0x4E487B71 PUSH1 0xE0 SHL PUSH0 MSTORE PUSH1 0x41 PUSH1 0x4 MSTORE PUSH1 0x24 PUSH0 REVERT JUMPDEST PUSH1 0x1 DUP2 DUP2 SHR SWAP1 DUP3 AND DUP1 PUSH2 0x127C JUMPI PUSH1 0x7F DUP3 AND SWAP2 POP JUMPDEST PUSH1 0x20 DUP3 LT DUP2 SUB PUSH2 0x129A JUMPI PUSH4 0x4E487B71 PUSH1 0xE0 SHL PUSH0 MSTORE PUSH1 0x22 PUSH1 0x4 MSTORE PUSH1 0x24 PUSH0 REVERT JUMPDEST POP SWAP2 SWAP1 POP JUMP JUMPDEST PUSH1 0x1F DUP3 GT ISZERO PUSH2 0x12E7 JUMPI DUP1 PUSH0 MSTORE PUSH1 0x20 PUSH0 KECCAK256 PUSH1 0x1F DUP5 ADD PUSH1 0x5 SHR DUP2 ADD PUSH1 0x20 DUP6 LT ISZERO PUSH2 0x12C5 JUMPI POP DUP1 JUMPDEST PUSH1 0x1F DUP5 ADD PUSH1 0x5 SHR DUP3 ADD SWAP2 POP JUMPDEST DUP2 DUP2 LT ISZERO PUSH2 0x12E4 JUMPI PUSH0 DUP2 SSTORE PUSH1 0x1 ADD PUSH2 0x12D1 JUMP JUMPDEST POP POP JUMPDEST POP POP POP JUMP JUMPDEST DUP2 MLOAD PUSH1 0x1 PUSH1 0x1 PUSH1 0x40 SHL SUB DUP2 GT ISZERO PUSH2 0x1305 JUMPI PUSH2 0x1305 PUSH2 0x1254 JUMP JUMPDEST PUSH2 0x1319 DUP2 PUSH2 0x1313 DUP5 SLOAD PUSH2 0x1268 JUMP JUMPDEST DUP5 PUSH2 0x12A0 JUMP JUMPDEST PUSH1 0x20 PUSH1 0x1F DUP3 GT PUSH1 0x1 DUP2 EQ PUSH2 0x134B JUMPI PUSH0 DUP4 ISZERO PUSH2 0x1334 JUMPI POP DUP5 DUP3 ADD MLOAD JUMPDEST PUSH0 NOT PUSH1 0x3 DUP6 SWAP1 SHL SHR NOT AND PUSH1 0x1 DUP5 SWAP1 SHL OR DUP5 SSTORE PUSH2 0x12E4 JUMP JUMPDEST PUSH0 DUP5 DUP2 MSTORE PUSH1 0x20 DUP2 KECCAK256 PUSH1 0x1F NOT DUP6 AND SWAP2 JUMPDEST DUP3 DUP2 LT ISZERO PUSH2 0x137A JUMPI DUP8 DUP6 ADD MLOAD DUP3 SSTORE PUSH1 0x20 SWAP5 DUP6 ADD SWAP5 PUSH1 0x1 SWAP1 SWAP3 ADD SWAP2 ADD PUSH2 0x135A JUMP JUMPDEST POP DUP5 DUP3 LT ISZERO PUSH2 0x1397 JUMPI DUP7 DUP5 ADD MLOAD PUSH0 NOT PUSH1 0x3 DUP8 SWAP1 SHL PUSH1 0xF8 AND SHR NOT AND DUP2 SSTORE JUMPDEST POP POP POP POP PUSH1 0x1 SWAP1 DUP2 SHL ADD SWAP1 SSTORE POP JUMP JUMPDEST PUSH1 0x1 DUP2 JUMPDEST PUSH1 0x1 DUP5 GT ISZERO PUSH2 0x13E1 JUMPI DUP1 DUP6 DIV DUP2 GT ISZERO PUSH2 0x13C5 JUMPI PUSH2 0x13C5 PUSH2 0x1228 JUMP JUMPDEST PUSH1 0x1 DUP5 AND ISZERO PUSH2 0x13D3 JUMPI SWAP1 DUP2 MUL SWAP1 JUMPDEST PUSH1 0x1 SWAP4 SWAP1 SWAP4 SHR SWAP3 DUP1 MUL PUSH2 0x13AA JUMP JUMPDEST SWAP4 POP SWAP4 SWAP2 POP POP JUMP JUMPDEST PUSH0 DUP3 PUSH2 0x13F7 JUMPI POP PUSH1 0x1 PUSH2 0xD95 JUMP JUMPDEST DUP2 PUSH2 0x1403 JUMPI POP PUSH0 PUSH2 0xD95 JUMP JUMPDEST DUP2 PUSH1 0x1 DUP2 EQ PUSH2 0x1419 JUMPI PUSH1 0x2 DUP2 EQ PUSH2 0x1423 JUMPI PUSH2 0x143F JUMP JUMPDEST PUSH1 0x1 SWAP2 POP POP PUSH2 0xD95 JUMP JUMPDEST PUSH1 0xFF DUP5 GT ISZERO PUSH2 0x1434 JUMPI PUSH2 0x1434 PUSH2 0x1228 JUMP JUMPDEST POP POP PUSH1 0x1 DUP3 SHL PUSH2 0xD95 JUMP JUMPDEST POP PUSH1 0x20 DUP4 LT PUSH2 0x133 DUP4 LT AND PUSH1 0x4E DUP5 LT PUSH1 0xB DUP5 LT AND OR ISZERO PUSH2 0x1462 JUMPI POP DUP2 DUP2 EXP PUSH2 0xD95 JUMP JUMPDEST PUSH2 0x146E PUSH0 NOT DUP5 DUP5 PUSH2 0x13A6 JUMP JUMPDEST DUP1 PUSH0 NOT DIV DUP3 GT ISZERO PUSH2 0x1481 JUMPI PUSH2 0x1481 PUSH2 0x1228 JUMP JUMPDEST MUL SWAP4 SWAP3 POP POP POP JUMP JUMPDEST PUSH0 PUSH2 0x1494 DUP4 DUP4 PUSH2 0x13E9 JUMP JUMPDEST SWAP4 SWAP3 POP POP POP JUMP JUMPDEST DUP1 DUP3 MUL DUP2 ISZERO DUP3 DUP3 DIV DUP5 EQ OR PUSH2 0xD95 JUMPI PUSH2 0xD95 PUSH2 0x1228 JUMP JUMPDEST DUP1 DUP3 ADD DUP1 DUP3 GT ISZERO PUSH2 0xD95 JUMPI PUSH2 0xD95 PUSH2 0x1228 JUMP JUMPDEST PUSH2 0x5EE8 DUP1 PUSH2 0x14D2 PUSH0 CODECOPY PUSH0 RETURN INVALID PUSH1 0x80 PUSH1 0x40 MSTORE PUSH1 0x4 CALLDATASIZE LT PUSH2 0x28B JUMPI PUSH0 CALLDATALOAD PUSH1 0xE0 SHR DUP1 PUSH4 0x759369D2 GT PUSH2 0x155 JUMPI DUP1 PUSH4 0xB5D962B7 GT PUSH2 0xBE JUMPI DUP1 PUSH4 0xDACBB37E GT PUSH2 0x78 JUMPI DUP1 PUSH4 0xDACBB37E EQ PUSH2 0xACA JUMPI DUP1 PUSH4 0xE315927B EQ PUSH2 0xAF6 JUMPI DUP1 PUSH4 0xEDBDC914 EQ PUSH2 0xB3E JUMPI DUP1 PUSH4 0xEECC1C95 EQ PUSH2 0xB70 JUMPI DUP1 PUSH4 0xFD0BB36C EQ PUSH2 0xB9F JUMPI DUP1 PUSH4 0xFF9B6364 EQ PUSH2 0xBBE JUMPI PUSH0 DUP1 REVERT JUMPDEST DUP1 PUSH4 0xB5D962B7 EQ PUSH2 0x9E4 JUMPI DUP1 PUSH4 0xB66DB385 EQ PUSH2 0xA03 JUMPI DUP1 PUSH4 0xC2D90B81 EQ PUSH2 0xA22 JUMPI DUP1 PUSH4 0xC5F00964 EQ PUSH2 0xA41 JUMPI DUP1 PUSH4 0xC6DB4C37 EQ PUSH2 0xA89 JUMPI DUP1 PUSH4 0xD9D7512C EQ PUSH2 0xA9E JUMPI PUSH0 DUP1 REVERT JUMPDEST DUP1 PUSH4 0xA3AF609B GT PUSH2 0x10F JUMPI DUP1 PUSH4 0xA3AF609B EQ PUSH2 0x929 JUMPI DUP1 PUSH4 0xA4B6F5E1 EQ PUSH2 0x93C JUMPI DUP1 PUSH4 0xA5F94521 EQ PUSH2 0x951 JUMPI DUP1 PUSH4 0xA9A4C9BF EQ PUSH2 0x970 JUMPI DUP1 PUSH4 0xAC3A4800 EQ PUSH2 0x98F JUMPI DUP1 PUSH4 0xAECABF98 EQ PUSH2 0x9C3 JUMPI PUSH0 DUP1 REVERT JUMPDEST DUP1 PUSH4 0x759369D2 EQ PUSH2 0x802 JUMPI DUP1 PUSH4 0x7E2594B8 EQ PUSH2 0x82E JUMPI DUP1 PUSH4 0x7E9D158A EQ PUSH2 0x862 JUMPI DUP1 PUSH4 0x88CB410D EQ PUSH2 0x8AD JUMPI DUP1 PUSH4 0x8B2C295E EQ PUSH2 0x8CC JUMPI DUP1 PUSH4 0xA18A609A EQ PUSH2 0x8F8 JUMPI PUSH0 DUP1 REVERT JUMPDEST DUP1 PUSH4 0x3DAA551C GT PUSH2 0x1F7 JUMPI DUP1 PUSH4 0x5B6B431D GT PUSH2 0x1B1 JUMPI DUP1 PUSH4 0x5B6B431D EQ PUSH2 0x655 JUMPI DUP1 PUSH4 0x5BE94E83 EQ PUSH2 0x674 JUMPI DUP1 PUSH4 0x5CF75517 EQ PUSH2 0x6A0 JUMPI DUP1 PUSH4 0x641FBA96 EQ PUSH2 0x793 JUMPI DUP1 PUSH4 0x6B1A7086 EQ PUSH2 0x7A7 JUMPI DUP1 PUSH4 0x705116A0 EQ PUSH2 0x7C8 JUMPI PUSH0 DUP1 REVERT JUMPDEST DUP1 PUSH4 0x3DAA551C EQ PUSH2 0x589 JUMPI DUP1 PUSH4 0x4788312F EQ PUSH2 0x5AA JUMPI DUP1 PUSH4 0x4A40F2FE EQ PUSH2 0x5BF JUMPI DUP1 PUSH4 0x54A03E38 EQ PUSH2 0x5EB JUMPI DUP1 PUSH4 0x5A015583 EQ PUSH2 0x617 JUMPI DUP1 PUSH4 0x5B56C9EE EQ PUSH2 0x636 JUMPI PUSH0 DUP1 REVERT JUMPDEST DUP1 PUSH4 0x2A530A36 GT PUSH2 0x248 JUMPI DUP1 PUSH4 0x2A530A36 EQ PUSH2 0x3D7 JUMPI DUP1 PUSH4 0x2DEDF15A EQ PUSH2 0x437 JUMPI DUP1 PUSH4 0x2E244FC7 EQ PUSH2 0x497 JUMPI DUP1 PUSH4 0x2E628E2E EQ PUSH2 0x4C3 JUMPI DUP1 PUSH4 0x365152FA EQ PUSH2 0x4EF JUMPI DUP1 PUSH4 0x3936E8B9 EQ PUSH2 0x56A JUMPI PUSH0 DUP1 REVERT JUMPDEST DUP1 PUSH4 0x7D94067 EQ PUSH2 0x28F JUMPI DUP1 PUSH4 0x1362E8E6 EQ PUSH2 0x2E6 JUMPI DUP1 PUSH4 0x1417DF70 EQ PUSH2 0x32A JUMPI DUP1 PUSH4 0x1BFE37CE EQ PUSH2 0x34B JUMPI DUP1 PUSH4 0x1CFA6E9B EQ PUSH2 0x381 JUMPI DUP1 PUSH4 0x1D759FB2 EQ PUSH2 0x3B8 JUMPI JUMPDEST PUSH0 DUP1 REVERT JUMPDEST CALLVALUE DUP1 ISZERO PUSH2 0x29A JUMPI PUSH0 DUP1 REVERT JUMPDEST POP PUSH2 0x2CC PUSH2 0x2A9 CALLDATASIZE PUSH1 0x4 PUSH2 0x5421 JUMP JUMPDEST PUSH1 0x16 PUSH1 0x20 SWAP1 DUP2 MSTORE PUSH0 SWAP3 DUP4 MSTORE PUSH1 0x40 DUP1 DUP5 KECCAK256 SWAP1 SWAP2 MSTORE SWAP1 DUP3 MSTORE SWAP1 KECCAK256 DUP1 SLOAD PUSH1 0x1 SWAP1 SWAP2 ADD SLOAD DUP3 JUMP JUMPDEST PUSH1 0x40 DUP1 MLOAD SWAP3 DUP4 MSTORE PUSH1 0x20 DUP4 ADD SWAP2 SWAP1 SWAP2 MSTORE ADD JUMPDEST PUSH1 0x40 MLOAD DUP1 SWAP2 SUB SWAP1 RETURN JUMPDEST CALLVALUE DUP1 ISZERO PUSH2 0x2F1 JUMPI PUSH0 DUP1 REVERT JUMPDEST POP PUSH2 0x31C PUSH2 0x300 CALLDATASIZE PUSH1 0x4 PUSH2 0x5421 JUMP JUMPDEST PUSH1 0x1A PUSH1 0x20 SWAP1 DUP2 MSTORE PUSH0 SWAP3 DUP4 MSTORE PUSH1 0x40 DUP1 DUP5 KECCAK256 SWAP1 SWAP2 MSTORE SWAP1 DUP3 MSTORE SWAP1 KECCAK256 SLOAD DUP2 JUMP JUMPDEST PUSH1 0x40 MLOAD SWAP1 DUP2 MSTORE PUSH1 0x20 ADD PUSH2 0x2DD JUMP JUMPDEST CALLVALUE DUP1 ISZERO PUSH2 0x335 JUMPI PUSH0 DUP1 REVERT JUMPDEST POP PUSH2 0x349 PUSH2 0x344 CALLDATASIZE PUSH1 0x4 PUSH2 0x5449 JUMP JUMPDEST PUSH2 0xBD2 JUMP JUMPDEST STOP JUMPDEST CALLVALUE DUP1 ISZERO PUSH2 0x356 JUMPI PUSH0 DUP1 REVERT JUMPDEST POP PUSH2 0x31C PUSH2 0x365 CALLDATASIZE PUSH1 0x4 PUSH2 0x5421 JUMP JUMPDEST PUSH1 0x17 PUSH1 0x20 SWAP1 DUP2 MSTORE PUSH0 SWAP3 DUP4 MSTORE PUSH1 0x40 DUP1 DUP5 KECCAK256 SWAP1 SWAP2 MSTORE SWAP1 DUP3 MSTORE SWAP1 KECCAK256 SLOAD DUP2 JUMP JUMPDEST CALLVALUE DUP1 ISZERO PUSH2 0x38C JUMPI PUSH0 DUP1 REVERT JUMPDEST POP PUSH1 0x3 SLOAD PUSH2 0x3A0 SWAP1 PUSH1 0x1 PUSH1 0x1 PUSH1 0xA0 SHL SUB AND DUP2 JUMP JUMPDEST PUSH1 0x40 MLOAD PUSH1 0x1 PUSH1 0x1 PUSH1 0xA0 SHL SUB SWAP1 SWAP2 AND DUP2 MSTORE PUSH1 0x20 ADD PUSH2 0x2DD JUMP JUMPDEST CALLVALUE DUP1 ISZERO PUSH2 0x3C3 JUMPI PUSH0 DUP1 REVERT JUMPDEST POP PUSH2 0x349 PUSH2 0x3D2 CALLDATASIZE PUSH1 0x4 PUSH2 0x5469 JUMP JUMPDEST PUSH2 0xE4D JUMP JUMPDEST CALLVALUE DUP1 ISZERO PUSH2 0x3E2 JUMPI PUSH0 DUP1 REVERT JUMPDEST POP PUSH2 0x417 PUSH2 0x3F1 CALLDATASIZE PUSH1 0x4 PUSH2 0x5499 JUMP JUMPDEST PUSH1 0x14 PUSH1 0x20 MSTORE PUSH0 SWAP1 DUP2 MSTORE PUSH1 0x40 SWAP1 KECCAK256 DUP1 SLOAD PUSH1 0x2 DUP3 ADD SLOAD PUSH1 0x3 DUP4 ADD SLOAD PUSH1 0x4 SWAP1 SWAP4 ADD SLOAD SWAP2 SWAP3 SWAP1 SWAP2 DUP5 JUMP JUMPDEST PUSH1 0x40 DUP1 MLOAD SWAP5 DUP6 MSTORE PUSH1 0x20 DUP6 ADD SWAP4 SWAP1 SWAP4 MSTORE SWAP2 DUP4 ADD MSTORE PUSH1 0x60 DUP3 ADD MSTORE PUSH1 0x80 ADD PUSH2 0x2DD JUMP JUMPDEST CALLVALUE DUP1 ISZERO PUSH2 0x442 JUMPI PUSH0 DUP1 REVERT JUMPDEST POP PUSH2 0x47C PUSH2 0x451 CALLDATASIZE PUSH1 0x4 PUSH2 0x5421 JUMP JUMPDEST PUSH1 0x18 PUSH1 0x20 SWAP1 DUP2 MSTORE PUSH0 SWAP3 DUP4 MSTORE PUSH1 0x40 DUP1 DUP5 KECCAK256 SWAP1 SWAP2 MSTORE SWAP1 DUP3 MSTORE SWAP1 KECCAK256 DUP1 SLOAD PUSH1 0x1 DUP3 ADD SLOAD PUSH1 0x2 SWAP1 SWAP3 ADD SLOAD SWAP1 SWAP2 SWAP1 DUP4 JUMP JUMPDEST PUSH1 0x40 DUP1 MLOAD SWAP4 DUP5 MSTORE PUSH1 0x20 DUP5 ADD SWAP3 SWAP1 SWAP3 MSTORE SWAP1 DUP3 ADD MSTORE PUSH1 0x60 ADD PUSH2 0x2DD JUMP JUMPDEST CALLVALUE DUP1 ISZERO PUSH2 0x4A2 JUMPI PUSH0 DUP1 REVERT JUMPDEST POP PUSH2 0x4B6 PUSH2 0x4B1 CALLDATASIZE PUSH1 0x4 PUSH2 0x5469 JUMP JUMPDEST PUSH2 0xE6E JUMP JUMPDEST PUSH1 0x40 MLOAD PUSH2 0x2DD SWAP2 SWAP1 PUSH2 0x54B9 JUMP JUMPDEST CALLVALUE DUP1 ISZERO PUSH2 0x4CE JUMPI PUSH0 DUP1 REVERT JUMPDEST POP PUSH2 0x4E2 PUSH2 0x4DD CALLDATASIZE PUSH1 0x4 PUSH2 0x5469 JUMP JUMPDEST PUSH2 0xFD8 JUMP JUMPDEST PUSH1 0x40 MLOAD PUSH2 0x2DD SWAP2 SWAP1 PUSH2 0x5517 JUMP JUMPDEST CALLVALUE DUP1 ISZERO PUSH2 0x4FA JUMPI PUSH0 DUP1 REVERT JUMPDEST POP PUSH2 0x542 PUSH2 0x509 CALLDATASIZE PUSH1 0x4 PUSH2 0x5421 JUMP JUMPDEST PUSH1 0x15 PUSH1 0x20 SWAP1 DUP2 MSTORE PUSH0 SWAP3 DUP4 MSTORE PUSH1 0x40 DUP1 DUP5 KECCAK256 SWAP1 SWAP2 MSTORE SWAP1 DUP3 MSTORE SWAP1 KECCAK256 DUP1 SLOAD PUSH1 0x1 DUP3 ADD SLOAD PUSH1 0x2 DUP4 ADD SLOAD PUSH1 0x3 DUP5 ADD SLOAD PUSH1 0x4 SWAP1 SWAP5 ADD SLOAD SWAP3 SWAP4 SWAP2 SWAP3 SWAP1 SWAP2 SWAP1 DUP6 JUMP JUMPDEST PUSH1 0x40 DUP1 MLOAD SWAP6 DUP7 MSTORE PUSH1 0x20 DUP7 ADD SWAP5 SWAP1 SWAP5 MSTORE SWAP3 DUP5 ADD SWAP2 SWAP1 SWAP2 MSTORE PUSH1 0x60 DUP4 ADD MSTORE PUSH1 0x80 DUP3 ADD MSTORE PUSH1 0xA0 ADD PUSH2 0x2DD JUMP JUMPDEST CALLVALUE DUP1 ISZERO PUSH2 0x575 JUMPI PUSH0 DUP1 REVERT JUMPDEST POP PUSH1 0x6 SLOAD PUSH2 0x3A0 SWAP1 PUSH1 0x1 PUSH1 0x1 PUSH1 0xA0 SHL SUB AND DUP2 JUMP JUMPDEST CALLVALUE DUP1 ISZERO PUSH2 0x594 JUMPI PUSH0 DUP1 REVERT JUMPDEST POP PUSH2 0x59D PUSH2 0x115A JUMP JUMPDEST PUSH1 0x40 MLOAD PUSH2 0x2DD SWAP2 SWAP1 PUSH2 0x55AC JUMP JUMPDEST CALLVALUE DUP1 ISZERO PUSH2 0x5B5 JUMPI PUSH0 DUP1 REVERT JUMPDEST POP PUSH2 0x31C PUSH1 0x2 SLOAD DUP2 JUMP JUMPDEST CALLVALUE DUP1 ISZERO PUSH2 0x5CA JUMPI PUSH0 DUP1 REVERT JUMPDEST POP PUSH2 0x5DE PUSH2 0x5D9 CALLDATASIZE PUSH1 0x4 PUSH2 0x5499 JUMP JUMPDEST PUSH2 0x1310 JUMP JUMPDEST PUSH1 0x40 MLOAD PUSH2 0x2DD SWAP2 SWAP1 PUSH2 0x5650 JUMP JUMPDEST CALLVALUE DUP1 ISZERO PUSH2 0x5F6 JUMPI PUSH0 DUP1 REVERT JUMPDEST POP PUSH2 0x60A PUSH2 0x605 CALLDATASIZE PUSH1 0x4 PUSH2 0x5499 JUMP JUMPDEST PUSH2 0x1487 JUMP JUMPDEST PUSH1 0x40 MLOAD PUSH2 0x2DD SWAP2 SWAP1 PUSH2 0x56CD JUMP JUMPDEST CALLVALUE DUP1 ISZERO PUSH2 0x622 JUMPI PUSH0 DUP1 REVERT JUMPDEST POP PUSH2 0x349 PUSH2 0x631 CALLDATASIZE PUSH1 0x4 PUSH2 0x581B JUMP JUMPDEST PUSH2 0x196C JUMP JUMPDEST CALLVALUE DUP1 ISZERO PUSH2 0x641 JUMPI PUSH0 DUP1 REVERT JUMPDEST POP PUSH1 0x1F SLOAD PUSH2 0x3A0 SWAP1 PUSH1 0x1 PUSH1 0x1 PUSH1 0xA0 SHL SUB AND DUP2 JUMP JUMPDEST CALLVALUE DUP1 ISZERO PUSH2 0x660 JUMPI PUSH0 DUP1 REVERT JUMPDEST POP PUSH2 0x349 PUSH2 0x66F CALLDATASIZE PUSH1 0x4 PUSH2 0x5855 JUMP JUMPDEST PUSH2 0x1AAD JUMP JUMPDEST CALLVALUE DUP1 ISZERO PUSH2 0x67F JUMPI PUSH0 DUP1 REVERT JUMPDEST POP PUSH2 0x693 PUSH2 0x68E CALLDATASIZE PUSH1 0x4 PUSH2 0x5499 JUMP JUMPDEST PUSH2 0x1C5A JUMP JUMPDEST PUSH1 0x40 MLOAD PUSH2 0x2DD SWAP2 SWAP1 PUSH2 0x5898 JUMP JUMPDEST CALLVALUE DUP1 ISZERO PUSH2 0x6AB JUMPI PUSH0 DUP1 REVERT JUMPDEST POP PUSH2 0x72A PUSH2 0x6BA CALLDATASIZE PUSH1 0x4 PUSH2 0x5499 JUMP JUMPDEST PUSH1 0x12 PUSH1 0x20 MSTORE PUSH0 SWAP1 DUP2 MSTORE PUSH1 0x40 SWAP1 KECCAK256 DUP1 SLOAD PUSH1 0x1 DUP3 ADD SLOAD PUSH1 0x2 DUP4 ADD SLOAD PUSH1 0x3 DUP5 ADD SLOAD PUSH1 0x4 DUP6 ADD SLOAD PUSH1 0x5 DUP7 ADD SLOAD PUSH1 0x6 DUP8 ADD SLOAD PUSH1 0x7 DUP9 ADD SLOAD PUSH1 0x8 DUP10 ADD SLOAD PUSH1 0x9 DUP11 ADD SLOAD PUSH1 0xA SWAP1 SWAP11 ADD SLOAD SWAP9 SWAP10 PUSH1 0x1 PUSH1 0x1 PUSH1 0xA0 SHL SUB SWAP9 DUP10 AND SWAP10 SWAP9 SWAP1 SWAP8 AND SWAP8 SWAP6 SWAP7 SWAP5 SWAP6 SWAP4 SWAP5 SWAP3 SWAP4 SWAP2 SWAP3 SWAP1 SWAP2 PUSH1 0xFF DUP1 DUP3 AND SWAP2 PUSH2 0x100 SWAP1 DIV AND DUP13 JUMP JUMPDEST PUSH1 0x40 DUP1 MLOAD SWAP13 DUP14 MSTORE PUSH1 0x1 PUSH1 0x1 PUSH1 0xA0 SHL SUB SWAP12 DUP13 AND PUSH1 0x20 DUP15 ADD MSTORE SWAP10 SWAP1 SWAP11 AND SWAP9 DUP12 ADD SWAP9 SWAP1 SWAP9 MSTORE PUSH1 0x60 DUP11 ADD SWAP7 SWAP1 SWAP7 MSTORE PUSH1 0x80 DUP10 ADD SWAP5 SWAP1 SWAP5 MSTORE PUSH1 0xA0 DUP9 ADD SWAP3 SWAP1 SWAP3 MSTORE PUSH1 0xC0 DUP8 ADD MSTORE PUSH1 0xE0 DUP7 ADD MSTORE PUSH2 0x100 DUP6 ADD MSTORE PUSH2 0x120 DUP5 ADD MSTORE ISZERO ISZERO PUSH2 0x140 DUP4 ADD MSTORE ISZERO ISZERO PUSH2 0x160 DUP3 ADD MSTORE PUSH2 0x180 ADD PUSH2 0x2DD JUMP JUMPDEST CALLVALUE DUP1 ISZERO PUSH2 0x79E JUMPI PUSH0 DUP1 REVERT JUMPDEST POP PUSH2 0x31C PUSH0 SLOAD DUP2 JUMP JUMPDEST CALLVALUE DUP1 ISZERO PUSH2 0x7B2 JUMPI PUSH0 DUP1 REVERT JUMPDEST POP PUSH2 0x7BB PUSH2 0x1E59 JUMP JUMPDEST PUSH1 0x40 MLOAD PUSH2 0x2DD SWAP2 SWAP1 PUSH2 0x58DA JUMP JUMPDEST CALLVALUE DUP1 ISZERO PUSH2 0x7D3 JUMPI PUSH0 DUP1 REVERT JUMPDEST POP PUSH2 0x47C PUSH2 0x7E2 CALLDATASIZE PUSH1 0x4 PUSH2 0x5855 JUMP JUMPDEST PUSH1 0x10 PUSH1 0x20 MSTORE PUSH0 SWAP1 DUP2 MSTORE PUSH1 0x40 SWAP1 KECCAK256 DUP1 SLOAD PUSH1 0x1 DUP3 ADD SLOAD PUSH1 0x2 SWAP1 SWAP3 ADD SLOAD SWAP1 SWAP2 SWAP1 DUP4 JUMP JUMPDEST CALLVALUE DUP1 ISZERO PUSH2 0x80D JUMPI PUSH0 DUP1 REVERT JUMPDEST POP PUSH2 0x821 PUSH2 0x81C CALLDATASIZE PUSH1 0x4 PUSH2 0x5469 JUMP JUMPDEST PUSH2 0x1EB1 JUMP JUMPDEST PUSH1 0x40 MLOAD PUSH2 0x2DD SWAP2 SWAP1 PUSH2 0x5905 JUMP JUMPDEST CALLVALUE DUP1 ISZERO PUSH2 0x839 JUMPI PUSH0 DUP1 REVERT JUMPDEST POP PUSH2 0x3A0 PUSH2 0x848 CALLDATASIZE PUSH1 0x4 PUSH2 0x5499 JUMP JUMPDEST PUSH1 0x1C PUSH1 0x20 MSTORE PUSH0 SWAP1 DUP2 MSTORE PUSH1 0x40 SWAP1 KECCAK256 SLOAD PUSH1 0x1 PUSH1 0x1 PUSH1 0xA0 SHL SUB AND DUP2 JUMP JUMPDEST CALLVALUE DUP1 ISZERO PUSH2 0x86D JUMPI PUSH0 DUP1 REVERT JUMPDEST POP PUSH2 0x417 PUSH2 0x87C CALLDATASIZE PUSH1 0x4 PUSH2 0x5421 JUMP JUMPDEST PUSH1 0x1D PUSH1 0x20 SWAP1 DUP2 MSTORE PUSH0 SWAP3 DUP4 MSTORE PUSH1 0x40 DUP1 DUP5 KECCAK256 SWAP1 SWAP2 MSTORE SWAP1 DUP3 MSTORE SWAP1 KECCAK256 DUP1 SLOAD PUSH1 0x1 DUP3 ADD SLOAD PUSH1 0x2 DUP4 ADD SLOAD PUSH1 0x3 SWAP1 SWAP4 ADD SLOAD SWAP2 SWAP3 SWAP1 SWAP2 DUP5 JUMP JUMPDEST CALLVALUE DUP1 ISZERO PUSH2 0x8B8 JUMPI PUSH0 DUP1 REVERT JUMPDEST POP PUSH1 0x7 SLOAD PUSH2 0x3A0 SWAP1 PUSH1 0x1 PUSH1 0x1 PUSH1 0xA0 SHL SUB AND DUP2 JUMP JUMPDEST CALLVALUE DUP1 ISZERO PUSH2 0x8D7 JUMPI PUSH0 DUP1 REVERT JUMPDEST POP PUSH2 0x8EB PUSH2 0x8E6 CALLDATASIZE PUSH1 0x4 PUSH2 0x5499 JUMP JUMPDEST PUSH2 0x1FF7 JUMP JUMPDEST PUSH1 0x40 MLOAD PUSH2 0x2DD SWAP2 SWAP1 PUSH2 0x5948 JUMP JUMPDEST CALLVALUE DUP1 ISZERO PUSH2 0x903 JUMPI PUSH0 DUP1 REVERT JUMPDEST POP PUSH2 0x917 PUSH2 0x912 CALLDATASIZE PUSH1 0x4 PUSH2 0x5855 JUMP JUMPDEST PUSH2 0x2433 JUMP JUMPDEST PUSH1 0x40 MLOAD PUSH2 0x2DD SWAP7 SWAP6 SWAP5 SWAP4 SWAP3 SWAP2 SWAP1 PUSH2 0x5A45 JUMP JUMPDEST PUSH2 0x349 PUSH2 0x937 CALLDATASIZE PUSH1 0x4 PUSH2 0x5449 JUMP JUMPDEST PUSH2 0x24F2 JUMP JUMPDEST CALLVALUE DUP1 ISZERO PUSH2 0x947 JUMPI PUSH0 DUP1 REVERT JUMPDEST POP PUSH2 0x31C PUSH1 0x1 SLOAD DUP2 JUMP JUMPDEST CALLVALUE DUP1 ISZERO PUSH2 0x95C JUMPI PUSH0 DUP1 REVERT JUMPDEST POP PUSH2 0x349 PUSH2 0x96B CALLDATASIZE PUSH1 0x4 PUSH2 0x5499 JUMP JUMPDEST PUSH2 0x2500 JUMP JUMPDEST CALLVALUE DUP1 ISZERO PUSH2 0x97B JUMPI PUSH0 DUP1 REVERT JUMPDEST POP PUSH2 0x349 PUSH2 0x98A CALLDATASIZE PUSH1 0x4 PUSH2 0x5449 JUMP JUMPDEST PUSH2 0x2546 JUMP JUMPDEST CALLVALUE DUP1 ISZERO PUSH2 0x99A JUMPI PUSH0 DUP1 REVERT JUMPDEST POP PUSH2 0x3A0 PUSH2 0x9A9 CALLDATASIZE PUSH1 0x4 PUSH2 0x5855 JUMP JUMPDEST PUSH1 0x13 PUSH1 0x20 MSTORE PUSH0 SWAP1 DUP2 MSTORE PUSH1 0x40 SWAP1 KECCAK256 SLOAD PUSH1 0x1 PUSH1 0x1 PUSH1 0xA0 SHL SUB AND DUP2 JUMP JUMPDEST CALLVALUE DUP1 ISZERO PUSH2 0x9CE JUMPI PUSH0 DUP1 REVERT JUMPDEST POP PUSH2 0x9D7 PUSH2 0x2643 JUMP JUMPDEST PUSH1 0x40 MLOAD PUSH2 0x2DD SWAP2 SWAP1 PUSH2 0x5A82 JUMP JUMPDEST CALLVALUE DUP1 ISZERO PUSH2 0x9EF JUMPI PUSH0 DUP1 REVERT JUMPDEST POP PUSH1 0x4 SLOAD PUSH2 0x3A0 SWAP1 PUSH1 0x1 PUSH1 0x1 PUSH1 0xA0 SHL SUB AND DUP2 JUMP JUMPDEST CALLVALUE DUP1 ISZERO PUSH2 0xA0E JUMPI PUSH0 DUP1 REVERT JUMPDEST POP PUSH1 0x5 SLOAD PUSH2 0x3A0 SWAP1 PUSH1 0x1 PUSH1 0x1 PUSH1 0xA0 SHL SUB AND DUP2 JUMP JUMPDEST CALLVALUE DUP1 ISZERO PUSH2 0xA2D JUMPI PUSH0 DUP1 REVERT JUMPDEST POP PUSH2 0x349 PUSH2 0xA3C CALLDATASIZE PUSH1 0x4 PUSH2 0x5499 JUMP JUMPDEST PUSH2 0x2658 JUMP JUMPDEST CALLVALUE DUP1 ISZERO PUSH2 0xA4C JUMPI PUSH0 DUP1 REVERT JUMPDEST POP PUSH2 0x542 PUSH2 0xA5B CALLDATASIZE PUSH1 0x4 PUSH2 0x5499 JUMP JUMPDEST PUSH1 0x1B PUSH1 0x20 MSTORE PUSH0 SWAP1 DUP2 MSTORE PUSH1 0x40 SWAP1 KECCAK256 DUP1 SLOAD PUSH1 0x1 DUP3 ADD SLOAD PUSH1 0x2 DUP4 ADD SLOAD PUSH1 0x3 DUP5 ADD SLOAD PUSH1 0x4 SWAP1 SWAP5 ADD SLOAD SWAP3 SWAP4 SWAP2 SWAP3 SWAP1 SWAP2 SWAP1 DUP6 JUMP JUMPDEST CALLVALUE DUP1 ISZERO PUSH2 0xA94 JUMPI PUSH0 DUP1 REVERT JUMPDEST POP PUSH2 0x31C PUSH1 0x20 SLOAD DUP2 JUMP JUMPDEST CALLVALUE DUP1 ISZERO PUSH2 0xAA9 JUMPI PUSH0 DUP1 REVERT JUMPDEST POP PUSH2 0xABD PUSH2 0xAB8 CALLDATASIZE PUSH1 0x4 PUSH2 0x5469 JUMP JUMPDEST PUSH2 0x269E JUMP JUMPDEST PUSH1 0x40 MLOAD PUSH2 0x2DD SWAP2 SWAP1 PUSH2 0x5AC7 JUMP JUMPDEST CALLVALUE DUP1 ISZERO PUSH2 0xAD5 JUMPI PUSH0 DUP1 REVERT JUMPDEST POP PUSH2 0xAE9 PUSH2 0xAE4 CALLDATASIZE PUSH1 0x4 PUSH2 0x5469 JUMP JUMPDEST PUSH2 0x281F JUMP JUMPDEST PUSH1 0x40 MLOAD PUSH2 0x2DD SWAP2 SWAP1 PUSH2 0x5B2A JUMP JUMPDEST CALLVALUE DUP1 ISZERO PUSH2 0xB01 JUMPI PUSH0 DUP1 REVERT JUMPDEST POP PUSH2 0x542 PUSH2 0xB10 CALLDATASIZE PUSH1 0x4 PUSH2 0x5499 JUMP JUMPDEST PUSH1 0x19 PUSH1 0x20 MSTORE PUSH0 SWAP1 DUP2 MSTORE PUSH1 0x40 SWAP1 KECCAK256 DUP1 SLOAD PUSH1 0x1 DUP3 ADD SLOAD PUSH1 0x3 DUP4 ADD SLOAD PUSH1 0x4 DUP5 ADD SLOAD PUSH1 0x5 SWAP1 SWAP5 ADD SLOAD SWAP3 SWAP4 SWAP2 SWAP3 SWAP1 SWAP2 SWAP1 DUP6 JUMP JUMPDEST CALLVALUE DUP1 ISZERO PUSH2 0xB49 JUMPI PUSH0 DUP1 REVERT JUMPDEST POP PUSH2 0xB5D PUSH2 0xB58 CALLDATASIZE PUSH1 0x4 PUSH2 0x5855 JUMP JUMPDEST PUSH2 0x2A88 JUMP JUMPDEST PUSH1 0x40 MLOAD PUSH2 0x2DD SWAP8 SWAP7 SWAP6 SWAP5 SWAP4 SWAP3 SWAP2 SWAP1 PUSH2 0x5B6C JUMP JUMPDEST CALLVALUE DUP1 ISZERO PUSH2 0xB7B JUMPI PUSH0 DUP1 REVERT JUMPDEST POP PUSH2 0xB8F PUSH2 0xB8A CALLDATASIZE PUSH1 0x4 PUSH2 0x5499 JUMP JUMPDEST PUSH2 0x2B48 JUMP JUMPDEST PUSH1 0x40 MLOAD SWAP1 ISZERO ISZERO DUP2 MSTORE PUSH1 0x20 ADD PUSH2 0x2DD JUMP JUMPDEST CALLVALUE DUP1 ISZERO PUSH2 0xBAA JUMPI PUSH0 DUP1 REVERT JUMPDEST POP PUSH2 0x31C PUSH2 0xBB9 CALLDATASIZE PUSH1 0x4 PUSH2 0x5421 JUMP JUMPDEST PUSH2 0x2B58 JUMP JUMPDEST CALLVALUE DUP1 ISZERO PUSH2 0xBC9 JUMPI PUSH0 DUP1 REVERT JUMPDEST POP PUSH2 0xB8F PUSH2 0x2B7F JUMP JUMPDEST CALLER PUSH2 0xBDC DUP2 PUSH2 0x2B48 JUMP JUMPDEST PUSH2 0xC1D JUMPI PUSH1 0x40 MLOAD PUSH3 0x461BCD PUSH1 0xE5 SHL DUP2 MSTORE PUSH1 0x20 PUSH1 0x4 DUP3 ADD MSTORE PUSH1 0xD PUSH1 0x24 DUP3 ADD MSTORE PUSH13 0x496E76616C6964207573657221 PUSH1 0x98 SHL PUSH1 0x44 DUP3 ADD MSTORE PUSH1 0x64 ADD JUMPDEST PUSH1 0x40 MLOAD DUP1 SWAP2 SUB SWAP1 REVERT JUMPDEST PUSH2 0xC28 DUP2 DUP4 DUP6 PUSH2 0x2BD5 JUMP JUMPDEST PUSH0 PUSH8 0xDE0B6B3A7640000 PUSH1 0x20 SLOAD DUP6 PUSH2 0xC40 SWAP2 SWAP1 PUSH2 0x5BC2 JUMP JUMPDEST PUSH2 0xC4A SWAP2 SWAP1 PUSH2 0x5BD9 JUMP JUMPDEST PUSH1 0x1F SLOAD PUSH1 0x40 MLOAD PUSH4 0x70A08231 PUSH1 0xE0 SHL DUP2 MSTORE ADDRESS PUSH1 0x4 DUP3 ADD MSTORE SWAP2 SWAP3 POP DUP3 SWAP2 PUSH1 0x1 PUSH1 0x1 PUSH1 0xA0 SHL SUB SWAP1 SWAP2 AND SWAP1 PUSH4 0x70A08231 SWAP1 PUSH1 0x24 ADD PUSH1 0x20 PUSH1 0x40 MLOAD DUP1 DUP4 SUB DUP2 DUP7 GAS STATICCALL ISZERO DUP1 ISZERO PUSH2 0xC95 JUMPI RETURNDATASIZE PUSH0 DUP1 RETURNDATACOPY RETURNDATASIZE PUSH0 REVERT JUMPDEST POP POP POP POP PUSH1 0x40 MLOAD RETURNDATASIZE PUSH1 0x1F NOT PUSH1 0x1F DUP3 ADD AND DUP3 ADD DUP1 PUSH1 0x40 MSTORE POP DUP2 ADD SWAP1 PUSH2 0xCB9 SWAP2 SWAP1 PUSH2 0x5BF8 JUMP JUMPDEST LT ISZERO PUSH2 0xD13 JUMPI PUSH1 0x40 MLOAD PUSH3 0x461BCD PUSH1 0xE5 SHL DUP2 MSTORE PUSH1 0x20 PUSH1 0x4 DUP3 ADD MSTORE PUSH1 0x23 PUSH1 0x24 DUP3 ADD MSTORE PUSH32 0x496E73756666696369656E742042424420746F6B656E7320696E20636F6E7472 PUSH1 0x44 DUP3 ADD MSTORE PUSH3 0x1858DD PUSH1 0xEA SHL PUSH1 0x64 DUP3 ADD MSTORE PUSH1 0x84 ADD PUSH2 0xC14 JUMP JUMPDEST PUSH1 0x1 PUSH1 0x1 PUSH1 0xA0 SHL SUB DUP3 AND PUSH0 SWAP1 DUP2 MSTORE PUSH1 0x1A PUSH1 0x20 SWAP1 DUP2 MSTORE PUSH1 0x40 DUP1 DUP4 KECCAK256 DUP7 DUP5 MSTORE SWAP1 SWAP2 MSTORE DUP2 KECCAK256 DUP1 SLOAD DUP7 SWAP3 SWAP1 PUSH2 0xD45 SWAP1 DUP5 SWAP1 PUSH2 0x5C0F JUMP JUMPDEST SWAP1 SWAP2 SSTORE POP POP PUSH1 0x1F SLOAD PUSH1 0x40 MLOAD PUSH4 0xA9059CBB PUSH1 0xE0 SHL DUP2 MSTORE PUSH1 0x1 PUSH1 0x1 PUSH1 0xA0 SHL SUB DUP5 DUP2 AND PUSH1 0x4 DUP4 ADD MSTORE PUSH1 0x24 DUP3 ADD DUP5 SWAP1 MSTORE SWAP1 SWAP2 AND SWAP1 PUSH4 0xA9059CBB SWAP1 PUSH1 0x44 ADD PUSH1 0x20 PUSH1 0x40 MLOAD DUP1 DUP4 SUB DUP2 PUSH0 DUP8 GAS CALL ISZERO DUP1 ISZERO PUSH2 0xD9A JUMPI RETURNDATASIZE PUSH0 DUP1 RETURNDATACOPY RETURNDATASIZE PUSH0 REVERT JUMPDEST POP POP POP POP PUSH1 0x40 MLOAD RETURNDATASIZE PUSH1 0x1F NOT PUSH1 0x1F DUP3 ADD AND DUP3 ADD DUP1 PUSH1 0x40 MSTORE POP DUP2 ADD SWAP1 PUSH2 0xDBE SWAP2 SWAP1 PUSH2 0x5C22 JUMP JUMPDEST POP PUSH1 0x1 PUSH1 0x1 PUSH1 0xA0 SHL SUB DUP3 AND PUSH0 SWAP1 DUP2 MSTORE PUSH1 0x1B PUSH1 0x20 MSTORE PUSH1 0x40 DUP2 KECCAK256 PUSH1 0x4 ADD DUP1 SLOAD SWAP2 PUSH2 0xDE5 DUP4 PUSH2 0x5C41 JUMP JUMPDEST SWAP1 SWAP2 SSTORE POP POP PUSH1 0x40 DUP1 MLOAD PUSH1 0x80 DUP2 ADD DUP3 MSTORE SWAP5 DUP6 MSTORE PUSH1 0x20 DUP1 DUP7 ADD SWAP3 DUP4 MSTORE TIMESTAMP DUP7 DUP4 ADD SWAP1 DUP2 MSTORE PUSH1 0x60 DUP8 ADD SWAP6 DUP7 MSTORE PUSH1 0x1 PUSH1 0x1 PUSH1 0xA0 SHL SUB SWAP1 SWAP5 AND PUSH0 SWAP1 DUP2 MSTORE PUSH1 0x1D DUP3 MSTORE DUP3 DUP2 KECCAK256 PUSH1 0x1B DUP4 MSTORE DUP4 DUP3 KECCAK256 PUSH1 0x4 ADD SLOAD DUP3 MSTORE SWAP1 SWAP2 MSTORE KECCAK256 SWAP4 MLOAD DUP5 SSTORE MLOAD PUSH1 0x1 DUP5 ADD SSTORE MLOAD PUSH1 0x2 DUP4 ADD SSTORE MLOAD PUSH1 0x3 SWAP1 SWAP2 ADD SSTORE JUMP JUMPDEST DUP2 PUSH1 0x1 SUB PUSH2 0xE63 JUMPI PUSH2 0xE5E DUP4 PUSH2 0x2C24 JUMP JUMPDEST POP POP POP JUMP JUMPDEST PUSH2 0xE5E DUP4 DUP4 DUP4 PUSH2 0x2CC5 JUMP JUMPDEST PUSH1 0x1 PUSH1 0x1 PUSH1 0xA0 SHL SUB DUP4 AND PUSH0 SWAP1 DUP2 MSTORE PUSH1 0x1B PUSH1 0x20 MSTORE PUSH1 0x40 DUP2 KECCAK256 PUSH1 0x1 ADD SLOAD PUSH1 0x60 SWAP2 DUP2 PUSH2 0xE97 DUP6 DUP8 PUSH2 0x5BC2 JUMP JUMPDEST GT PUSH2 0xEAB JUMPI PUSH2 0xEA6 DUP5 DUP7 PUSH2 0x5BC2 JUMP JUMPDEST PUSH2 0xEAD JUMP JUMPDEST DUP2 JUMPDEST SWAP1 POP PUSH0 DUP5 DUP3 LT ISZERO PUSH2 0xEBE JUMPI PUSH0 PUSH2 0xEC8 JUMP JUMPDEST PUSH2 0xEC8 DUP6 DUP4 PUSH2 0x5C0F JUMP JUMPDEST SWAP1 POP PUSH0 PUSH2 0xED5 DUP3 DUP5 PUSH2 0x5C0F JUMP JUMPDEST PUSH1 0x1 PUSH1 0x1 PUSH1 0x40 SHL SUB DUP2 GT ISZERO PUSH2 0xEEC JUMPI PUSH2 0xEEC PUSH2 0x5C59 JUMP JUMPDEST PUSH1 0x40 MLOAD SWAP1 DUP1 DUP3 MSTORE DUP1 PUSH1 0x20 MUL PUSH1 0x20 ADD DUP3 ADD PUSH1 0x40 MSTORE DUP1 ISZERO PUSH2 0xF3E JUMPI DUP2 PUSH1 0x20 ADD JUMPDEST PUSH2 0xF2B PUSH1 0x40 MLOAD DUP1 PUSH1 0x60 ADD PUSH1 0x40 MSTORE DUP1 PUSH0 DUP2 MSTORE PUSH1 0x20 ADD PUSH0 DUP2 MSTORE PUSH1 0x20 ADD PUSH0 DUP2 MSTORE POP SWAP1 JUMP JUMPDEST DUP2 MSTORE PUSH1 0x20 ADD SWAP1 PUSH1 0x1 SWAP1 SUB SWAP1 DUP2 PUSH2 0xF0A JUMPI SWAP1 POP JUMPDEST POP SWAP5 POP DUP3 JUMPDEST DUP3 DUP2 GT ISZERO PUSH2 0xFCC JUMPI PUSH1 0x1 PUSH1 0x1 PUSH1 0xA0 SHL SUB DUP10 AND PUSH0 SWAP1 DUP2 MSTORE PUSH1 0x18 PUSH1 0x20 SWAP1 DUP2 MSTORE PUSH1 0x40 DUP1 DUP4 KECCAK256 DUP5 DUP5 MSTORE DUP3 MSTORE SWAP2 DUP3 SWAP1 KECCAK256 DUP3 MLOAD PUSH1 0x60 DUP2 ADD DUP5 MSTORE DUP2 SLOAD DUP2 MSTORE PUSH1 0x1 DUP3 ADD SLOAD SWAP3 DUP2 ADD SWAP3 SWAP1 SWAP3 MSTORE PUSH1 0x2 ADD SLOAD SWAP2 DUP2 ADD SWAP2 SWAP1 SWAP2 MSTORE DUP7 DUP4 PUSH2 0xF9C DUP2 PUSH2 0x5C41 JUMP JUMPDEST SWAP5 POP DUP2 MLOAD DUP2 LT PUSH2 0xFAE JUMPI PUSH2 0xFAE PUSH2 0x5C6D JUMP JUMPDEST PUSH1 0x20 MUL PUSH1 0x20 ADD ADD DUP2 SWAP1 MSTORE POP DUP1 DUP1 PUSH2 0xFC4 SWAP1 PUSH2 0x5C81 JUMP JUMPDEST SWAP2 POP POP PUSH2 0xF43 JUMP JUMPDEST POP POP POP POP POP SWAP4 SWAP3 POP POP POP JUMP JUMPDEST PUSH1 0x1 PUSH1 0x1 PUSH1 0xA0 SHL SUB DUP4 AND PUSH0 SWAP1 DUP2 MSTORE PUSH1 0x1B PUSH1 0x20 MSTORE PUSH1 0x40 DUP2 KECCAK256 SLOAD PUSH1 0x60 SWAP2 DUP2 PUSH2 0xFFE DUP6 DUP8 PUSH2 0x5BC2 JUMP JUMPDEST GT PUSH2 0x1012 JUMPI PUSH2 0x100D DUP5 DUP7 PUSH2 0x5BC2 JUMP JUMPDEST PUSH2 0x1014 JUMP JUMPDEST DUP2 JUMPDEST SWAP1 POP PUSH0 DUP5 DUP3 LT ISZERO PUSH2 0x1025 JUMPI PUSH0 PUSH2 0x102F JUMP JUMPDEST PUSH2 0x102F DUP6 DUP4 PUSH2 0x5C0F JUMP JUMPDEST SWAP1 POP PUSH0 PUSH2 0x103C DUP3 DUP5 PUSH2 0x5C0F JUMP JUMPDEST PUSH1 0x1 PUSH1 0x1 PUSH1 0x40 SHL SUB DUP2 GT ISZERO PUSH2 0x1053 JUMPI PUSH2 0x1053 PUSH2 0x5C59 JUMP JUMPDEST PUSH1 0x40 MLOAD SWAP1 DUP1 DUP3 MSTORE DUP1 PUSH1 0x20 MUL PUSH1 0x20 ADD DUP3 ADD PUSH1 0x40 MSTORE DUP1 ISZERO PUSH2 0x10B1 JUMPI DUP2 PUSH1 0x20 ADD JUMPDEST PUSH2 0x109E PUSH1 0x40 MLOAD DUP1 PUSH1 0xA0 ADD PUSH1 0x40 MSTORE DUP1 PUSH0 DUP2 MSTORE PUSH1 0x20 ADD PUSH0 DUP2 MSTORE PUSH1 0x20 ADD PUSH0 DUP2 MSTORE PUSH1 0x20 ADD PUSH0 DUP2 MSTORE PUSH1 0x20 ADD PUSH0 DUP2 MSTORE POP SWAP1 JUMP JUMPDEST DUP2 MSTORE PUSH1 0x20 ADD SWAP1 PUSH1 0x1 SWAP1 SUB SWAP1 DUP2 PUSH2 0x1071 JUMPI SWAP1 POP JUMPDEST POP SWAP5 POP DUP3 JUMPDEST DUP3 DUP2 GT ISZERO PUSH2 0xFCC JUMPI PUSH1 0x1 PUSH1 0x1 PUSH1 0xA0 SHL SUB DUP10 AND PUSH0 SWAP1 DUP2 MSTORE PUSH1 0x15 PUSH1 0x20 SWAP1 DUP2 MSTORE PUSH1 0x40 DUP1 DUP4 KECCAK256 DUP5 DUP5 MSTORE DUP3 MSTORE SWAP2 DUP3 SWAP1 KECCAK256 DUP3 MLOAD PUSH1 0xA0 DUP2 ADD DUP5 MSTORE DUP2 SLOAD DUP2 MSTORE PUSH1 0x1 DUP3 ADD SLOAD SWAP3 DUP2 ADD SWAP3 SWAP1 SWAP3 MSTORE PUSH1 0x2 DUP2 ADD SLOAD SWAP3 DUP3 ADD SWAP3 SWAP1 SWAP3 MSTORE PUSH1 0x3 DUP3 ADD SLOAD PUSH1 0x60 DUP3 ADD MSTORE PUSH1 0x4 SWAP1 SWAP2 ADD SLOAD PUSH1 0x80 DUP3 ADD MSTORE DUP7 MLOAD DUP8 SWAP1 DUP5 SWAP1 DUP2 LT PUSH2 0x112E JUMPI PUSH2 0x112E PUSH2 0x5C6D JUMP JUMPDEST PUSH1 0x20 MUL PUSH1 0x20 ADD ADD DUP2 SWAP1 MSTORE POP DUP2 DUP1 PUSH2 0x1144 SWAP1 PUSH2 0x5C41 JUMP JUMPDEST SWAP3 POP POP DUP1 DUP1 PUSH2 0x1152 SWAP1 PUSH2 0x5C81 JUMP JUMPDEST SWAP2 POP POP PUSH2 0x10B6 JUMP JUMPDEST PUSH1 0x60 PUSH0 PUSH1 0xB SLOAD PUSH1 0x1 PUSH1 0x1 PUSH1 0x40 SHL SUB DUP2 GT ISZERO PUSH2 0x1177 JUMPI PUSH2 0x1177 PUSH2 0x5C59 JUMP JUMPDEST PUSH1 0x40 MLOAD SWAP1 DUP1 DUP3 MSTORE DUP1 PUSH1 0x20 MUL PUSH1 0x20 ADD DUP3 ADD PUSH1 0x40 MSTORE DUP1 ISZERO PUSH2 0x11DE JUMPI DUP2 PUSH1 0x20 ADD JUMPDEST PUSH2 0x11CB PUSH1 0x40 MLOAD DUP1 PUSH1 0xC0 ADD PUSH1 0x40 MSTORE DUP1 PUSH0 DUP2 MSTORE PUSH1 0x20 ADD PUSH1 0x60 DUP2 MSTORE PUSH1 0x20 ADD PUSH0 DUP2 MSTORE PUSH1 0x20 ADD PUSH0 ISZERO ISZERO DUP2 MSTORE PUSH1 0x20 ADD PUSH0 DUP2 MSTORE PUSH1 0x20 ADD PUSH0 DUP2 MSTORE POP SWAP1 JUMP JUMPDEST DUP2 MSTORE PUSH1 0x20 ADD SWAP1 PUSH1 0x1 SWAP1 SUB SWAP1 DUP2 PUSH2 0x1195 JUMPI SWAP1 POP JUMPDEST POP SWAP1 POP PUSH1 0x1 JUMPDEST PUSH1 0xB SLOAD DUP2 GT PUSH2 0x130A JUMPI PUSH1 0xF PUSH0 DUP3 DUP2 MSTORE PUSH1 0x20 ADD SWAP1 DUP2 MSTORE PUSH1 0x20 ADD PUSH0 KECCAK256 PUSH1 0x40 MLOAD DUP1 PUSH1 0xC0 ADD PUSH1 0x40 MSTORE SWAP1 DUP2 PUSH0 DUP3 ADD SLOAD DUP2 MSTORE PUSH1 0x20 ADD PUSH1 0x1 DUP3 ADD DUP1 SLOAD PUSH2 0x1222 SWAP1 PUSH2 0x5C96 JUMP JUMPDEST DUP1 PUSH1 0x1F ADD PUSH1 0x20 DUP1 SWAP2 DIV MUL PUSH1 0x20 ADD PUSH1 0x40 MLOAD SWAP1 DUP2 ADD PUSH1 0x40 MSTORE DUP1 SWAP3 SWAP2 SWAP1 DUP2 DUP2 MSTORE PUSH1 0x20 ADD DUP3 DUP1 SLOAD PUSH2 0x124E SWAP1 PUSH2 0x5C96 JUMP JUMPDEST DUP1 ISZERO PUSH2 0x1299 JUMPI DUP1 PUSH1 0x1F LT PUSH2 0x1270 JUMPI PUSH2 0x100 DUP1 DUP4 SLOAD DIV MUL DUP4 MSTORE SWAP2 PUSH1 0x20 ADD SWAP2 PUSH2 0x1299 JUMP JUMPDEST DUP3 ADD SWAP2 SWAP1 PUSH0 MSTORE PUSH1 0x20 PUSH0 KECCAK256 SWAP1 JUMPDEST DUP2 SLOAD DUP2 MSTORE SWAP1 PUSH1 0x1 ADD SWAP1 PUSH1 0x20 ADD DUP1 DUP4 GT PUSH2 0x127C JUMPI DUP3 SWAP1 SUB PUSH1 0x1F AND DUP3 ADD SWAP2 JUMPDEST POP POP POP SWAP2 DUP4 MSTORE POP POP PUSH1 0x2 DUP3 ADD SLOAD PUSH1 0x20 DUP3 ADD MSTORE PUSH1 0x3 DUP3 ADD SLOAD PUSH1 0xFF AND ISZERO ISZERO PUSH1 0x40 DUP3 ADD MSTORE PUSH1 0x4 DUP3 ADD SLOAD PUSH1 0x60 DUP3 ADD MSTORE PUSH1 0x5 SWAP1 SWAP2 ADD SLOAD PUSH1 0x80 SWAP1 SWAP2 ADD MSTORE DUP3 PUSH2 0x12DC PUSH1 0x1 DUP5 PUSH2 0x5C0F JUMP JUMPDEST DUP2 MLOAD DUP2 LT PUSH2 0x12EC JUMPI PUSH2 0x12EC PUSH2 0x5C6D JUMP JUMPDEST PUSH1 0x20 MUL PUSH1 0x20 ADD ADD DUP2 SWAP1 MSTORE POP DUP1 DUP1 PUSH2 0x1302 SWAP1 PUSH2 0x5C41 JUMP JUMPDEST SWAP2 POP POP PUSH2 0x11E4 JUMP JUMPDEST POP SWAP2 SWAP1 POP JUMP JUMPDEST PUSH1 0x60 PUSH1 0x8 SLOAD PUSH1 0x1 PUSH1 0x1 PUSH1 0x40 SHL SUB DUP2 GT ISZERO PUSH2 0x132C JUMPI PUSH2 0x132C PUSH2 0x5C59 JUMP JUMPDEST PUSH1 0x40 MLOAD SWAP1 DUP1 DUP3 MSTORE DUP1 PUSH1 0x20 MUL PUSH1 0x20 ADD DUP3 ADD PUSH1 0x40 MSTORE DUP1 ISZERO PUSH2 0x1398 JUMPI DUP2 PUSH1 0x20 ADD JUMPDEST PUSH2 0x1385 PUSH1 0x40 MLOAD DUP1 PUSH1 0xE0 ADD PUSH1 0x40 MSTORE DUP1 PUSH0 DUP2 MSTORE PUSH1 0x20 ADD PUSH0 DUP2 MSTORE PUSH1 0x20 ADD PUSH0 DUP2 MSTORE PUSH1 0x20 ADD PUSH0 DUP2 MSTORE PUSH1 0x20 ADD PUSH0 DUP2 MSTORE PUSH1 0x20 ADD PUSH0 DUP2 MSTORE PUSH1 0x20 ADD PUSH0 ISZERO ISZERO DUP2 MSTORE POP SWAP1 JUMP JUMPDEST DUP2 MSTORE PUSH1 0x20 ADD SWAP1 PUSH1 0x1 SWAP1 SUB SWAP1 DUP2 PUSH2 0x134A JUMPI SWAP1 POP JUMPDEST POP SWAP1 POP PUSH1 0x1 JUMPDEST PUSH1 0x8 SLOAD DUP2 GT PUSH2 0x130A JUMPI PUSH1 0x40 DUP1 MLOAD PUSH1 0xE0 DUP2 ADD DUP3 MSTORE DUP3 DUP2 MSTORE PUSH0 DUP4 DUP2 MSTORE PUSH1 0x10 PUSH1 0x20 SWAP1 DUP2 MSTORE DUP4 DUP3 KECCAK256 PUSH1 0x2 DUP1 DUP3 ADD SLOAD DUP4 DUP7 ADD MSTORE PUSH1 0x1 PUSH1 0x1 PUSH1 0xA0 SHL SUB DUP10 AND DUP1 DUP6 MSTORE PUSH1 0x12 DUP5 MSTORE DUP7 DUP6 KECCAK256 PUSH1 0x9 ADD SLOAD DUP7 DUP9 ADD MSTORE DUP1 DUP6 MSTORE PUSH1 0x17 DUP5 MSTORE DUP7 DUP6 KECCAK256 DUP9 DUP7 MSTORE DUP5 MSTORE DUP7 DUP6 KECCAK256 SLOAD PUSH1 0x60 DUP8 ADD MSTORE PUSH1 0x1 SWAP1 SWAP3 ADD SLOAD PUSH1 0x80 DUP7 ADD MSTORE SWAP1 DUP4 MSTORE PUSH1 0x19 SWAP1 SWAP2 MSTORE SWAP3 SWAP1 KECCAK256 SWAP1 SWAP2 ADD DUP1 SLOAD PUSH1 0xA0 DUP4 ADD SWAP2 SWAP1 DUP5 SWAP1 DUP2 LT PUSH2 0x1431 JUMPI PUSH2 0x1431 PUSH2 0x5C6D JUMP JUMPDEST SWAP1 PUSH0 MSTORE PUSH1 0x20 PUSH0 KECCAK256 ADD SLOAD DUP2 MSTORE PUSH1 0x20 ADD PUSH2 0x1449 DUP6 DUP5 PUSH2 0x2E50 JUMP JUMPDEST ISZERO ISZERO SWAP1 MSTORE DUP3 PUSH2 0x1459 PUSH1 0x1 DUP5 PUSH2 0x5C0F JUMP JUMPDEST DUP2 MLOAD DUP2 LT PUSH2 0x1469 JUMPI PUSH2 0x1469 PUSH2 0x5C6D JUMP JUMPDEST PUSH1 0x20 MUL PUSH1 0x20 ADD ADD DUP2 SWAP1 MSTORE POP DUP1 DUP1 PUSH2 0x147F SWAP1 PUSH2 0x5C41 JUMP JUMPDEST SWAP2 POP POP PUSH2 0x139E JUMP JUMPDEST PUSH2 0x1537 PUSH1 0x40 MLOAD DUP1 PUSH2 0x300 ADD PUSH1 0x40 MSTORE DUP1 PUSH0 PUSH1 0x1 PUSH1 0x1 PUSH1 0xA0 SHL SUB AND DUP2 MSTORE PUSH1 0x20 ADD PUSH0 DUP2 MSTORE PUSH1 0x20 ADD PUSH0 DUP2 MSTORE PUSH1 0x20 ADD PUSH0 DUP2 MSTORE PUSH1 0x20 ADD PUSH0 DUP2 MSTORE PUSH1 0x20 ADD PUSH0 DUP2 MSTORE PUSH1 0x20 ADD PUSH0 DUP2 MSTORE PUSH1 0x20 ADD PUSH0 DUP2 MSTORE PUSH1 0x20 ADD PUSH0 DUP2 MSTORE PUSH1 0x20 ADD PUSH0 DUP2 MSTORE PUSH1 0x20 ADD PUSH0 DUP2 MSTORE PUSH1 0x20 ADD PUSH0 DUP2 MSTORE PUSH1 0x20 ADD PUSH0 DUP2 MSTORE PUSH1 0x20 ADD PUSH0 DUP2 MSTORE PUSH1 0x20 ADD PUSH0 DUP2 MSTORE PUSH1 0x20 ADD PUSH0 DUP2 MSTORE PUSH1 0x20 ADD PUSH0 DUP2 MSTORE PUSH1 0x20 ADD PUSH0 DUP2 MSTORE PUSH1 0x20 ADD PUSH0 DUP2 MSTORE PUSH1 0x20 ADD PUSH1 0x60 DUP2 MSTORE PUSH1 0x20 ADD PUSH0 DUP2 MSTORE PUSH1 0x20 ADD PUSH0 ISZERO ISZERO DUP2 MSTORE PUSH1 0x20 ADD PUSH0 ISZERO ISZERO DUP2 MSTORE PUSH1 0x20 ADD PUSH0 ISZERO ISZERO DUP2 MSTORE POP SWAP1 JUMP JUMPDEST PUSH1 0x1 PUSH1 0x1 PUSH1 0xA0 SHL SUB DUP1 DUP4 AND PUSH0 DUP2 DUP2 MSTORE PUSH1 0x12 PUSH1 0x20 SWAP1 DUP2 MSTORE PUSH1 0x40 DUP1 DUP4 KECCAK256 DUP2 MLOAD PUSH2 0x180 DUP2 ADD DUP4 MSTORE DUP2 SLOAD DUP2 MSTORE PUSH1 0x1 DUP1 DUP4 ADD SLOAD DUP9 AND DUP3 DUP7 ADD MSTORE PUSH1 0x2 DUP4 ADD SLOAD SWAP1 SWAP8 AND DUP2 DUP5 ADD MSTORE PUSH1 0x3 DUP3 ADD SLOAD PUSH1 0x60 DUP3 ADD MSTORE PUSH1 0x4 DUP3 ADD SLOAD PUSH1 0x80 DUP3 ADD MSTORE PUSH1 0x5 DUP3 ADD SLOAD PUSH1 0xA0 DUP3 ADD MSTORE PUSH1 0x6 DUP3 ADD SLOAD PUSH1 0xC0 DUP1 DUP4 ADD SWAP2 SWAP1 SWAP2 MSTORE PUSH1 0x7 DUP4 ADD SLOAD PUSH1 0xE0 DUP4 ADD MSTORE PUSH1 0x8 DUP4 ADD SLOAD PUSH2 0x100 DUP1 DUP5 ADD SWAP2 SWAP1 SWAP2 MSTORE PUSH1 0x9 DUP5 ADD SLOAD PUSH2 0x120 DUP5 ADD MSTORE PUSH1 0xA SWAP1 SWAP4 ADD SLOAD PUSH1 0xFF DUP1 DUP3 AND ISZERO ISZERO PUSH2 0x140 DUP6 ADD MSTORE SWAP4 SWAP1 DIV SWAP1 SWAP3 AND ISZERO ISZERO PUSH2 0x160 DUP3 ADD MSTORE SWAP5 DUP5 MSTORE PUSH1 0x14 DUP4 MSTORE DUP2 DUP5 KECCAK256 DUP3 MLOAD SWAP2 DUP3 ADD DUP4 MSTORE DUP1 SLOAD DUP3 MSTORE SWAP6 DUP7 ADD DUP1 SLOAD DUP4 MLOAD DUP2 DUP7 MUL DUP2 ADD DUP7 ADD SWAP1 SWAP5 MSTORE DUP1 DUP5 MSTORE SWAP6 SWAP7 SWAP5 SWAP6 SWAP2 SWAP5 SWAP4 DUP6 DUP2 ADD SWAP4 SWAP3 SWAP1 DUP4 ADD DUP3 DUP3 DUP1 ISZERO PUSH2 0x1655 JUMPI PUSH1 0x20 MUL DUP3 ADD SWAP2 SWAP1 PUSH0 MSTORE PUSH1 0x20 PUSH0 KECCAK256 SWAP1 JUMPDEST DUP2 SLOAD PUSH1 0x1 PUSH1 0x1 PUSH1 0xA0 SHL SUB AND DUP2 MSTORE PUSH1 0x1 SWAP1 SWAP2 ADD SWAP1 PUSH1 0x20 ADD DUP1 DUP4 GT PUSH2 0x1637 JUMPI JUMPDEST POP POP POP POP POP DUP2 MSTORE PUSH1 0x20 ADD PUSH1 0x2 DUP3 ADD SLOAD DUP2 MSTORE PUSH1 0x20 ADD PUSH1 0x3 DUP3 ADD SLOAD DUP2 MSTORE PUSH1 0x20 ADD PUSH1 0x4 DUP3 ADD SLOAD DUP2 MSTORE PUSH1 0x20 ADD PUSH1 0x5 DUP3 ADD DUP1 SLOAD DUP1 PUSH1 0x20 MUL PUSH1 0x20 ADD PUSH1 0x40 MLOAD SWAP1 DUP2 ADD PUSH1 0x40 MSTORE DUP1 SWAP3 SWAP2 SWAP1 DUP2 DUP2 MSTORE PUSH1 0x20 ADD DUP3 DUP1 SLOAD DUP1 ISZERO PUSH2 0x16D3 JUMPI PUSH1 0x20 MUL DUP3 ADD SWAP2 SWAP1 PUSH0 MSTORE PUSH1 0x20 PUSH0 KECCAK256 SWAP1 JUMPDEST DUP2 SLOAD PUSH1 0x1 PUSH1 0x1 PUSH1 0xA0 SHL SUB AND DUP2 MSTORE PUSH1 0x1 SWAP1 SWAP2 ADD SWAP1 PUSH1 0x20 ADD DUP1 DUP4 GT PUSH2 0x16B5 JUMPI JUMPDEST POP POP POP POP POP DUP2 MSTORE POP POP SWAP1 POP PUSH0 PUSH1 0x19 PUSH0 DUP7 PUSH1 0x1 PUSH1 0x1 PUSH1 0xA0 SHL SUB AND PUSH1 0x1 PUSH1 0x1 PUSH1 0xA0 SHL SUB AND DUP2 MSTORE PUSH1 0x20 ADD SWAP1 DUP2 MSTORE PUSH1 0x20 ADD PUSH0 KECCAK256 PUSH1 0x40 MLOAD DUP1 PUSH1 0xC0 ADD PUSH1 0x40 MSTORE SWAP1 DUP2 PUSH0 DUP3 ADD SLOAD DUP2 MSTORE PUSH1 0x20 ADD PUSH1 0x1 DUP3 ADD SLOAD DUP2 MSTORE PUSH1 0x20 ADD PUSH1 0x2 DUP3 ADD DUP1 SLOAD DUP1 PUSH1 0x20 MUL PUSH1 0x20 ADD PUSH1 0x40 MLOAD SWAP1 DUP2 ADD PUSH1 0x40 MSTORE DUP1 SWAP3 SWAP2 SWAP1 DUP2 DUP2 MSTORE PUSH1 0x20 ADD DUP3 DUP1 SLOAD DUP1 ISZERO PUSH2 0x176D JUMPI PUSH1 0x20 MUL DUP3 ADD SWAP2 SWAP1 PUSH0 MSTORE PUSH1 0x20 PUSH0 KECCAK256 SWAP1 JUMPDEST DUP2 SLOAD DUP2 MSTORE PUSH1 0x20 ADD SWAP1 PUSH1 0x1 ADD SWAP1 DUP1 DUP4 GT PUSH2 0x1759 JUMPI JUMPDEST POP POP POP POP POP DUP2 MSTORE PUSH1 0x20 ADD PUSH1 0x3 DUP3 ADD SLOAD DUP2 MSTORE PUSH1 0x20 ADD PUSH1 0x4 DUP3 ADD SLOAD DUP2 MSTORE PUSH1 0x20 ADD PUSH1 0x5 DUP3 ADD SLOAD DUP2 MSTORE POP POP SWAP1 POP PUSH1 0x40 MLOAD DUP1 PUSH2 0x300 ADD PUSH1 0x40 MSTORE DUP1 DUP5 PUSH1 0x40 ADD MLOAD PUSH1 0x1 PUSH1 0x1 PUSH1 0xA0 SHL SUB AND DUP2 MSTORE PUSH1 0x20 ADD DUP5 PUSH1 0x80 ADD MLOAD DUP2 MSTORE PUSH1 0x20 ADD DUP4 PUSH1 0x20 ADD MLOAD MLOAD DUP2 MSTORE PUSH1 0x20 ADD DUP4 PUSH0 ADD MLOAD DUP2 MSTORE PUSH1 0x20 ADD DUP5 PUSH1 0xA0 ADD MLOAD DUP2 MSTORE PUSH1 0x20 ADD DUP4 PUSH1 0x40 ADD MLOAD DUP2 MSTORE PUSH1 0x20 ADD DUP4 PUSH1 0x60 ADD MLOAD DUP2 MSTORE PUSH1 0x20 ADD DUP4 PUSH1 0x80 ADD MLOAD DUP2 MSTORE PUSH1 0x20 ADD DUP3 PUSH0 ADD MLOAD DUP2 MSTORE PUSH1 0x20 ADD PUSH2 0x180D DUP8 PUSH2 0x2E90 JUMP JUMPDEST DUP2 MSTORE PUSH1 0x20 ADD DUP3 PUSH1 0x20 ADD MLOAD DUP2 MSTORE PUSH1 0x20 ADD PUSH2 0x1825 DUP8 PUSH2 0x2F81 JUMP JUMPDEST DUP2 MSTORE PUSH1 0x20 ADD DUP3 PUSH1 0x60 ADD MLOAD DUP2 MSTORE PUSH1 0x20 ADD DUP3 PUSH1 0x80 ADD MLOAD DUP2 MSTORE PUSH1 0x20 ADD PUSH2 0x1847 DUP8 PUSH2 0x30E8 JUMP JUMPDEST DUP2 MSTORE PUSH1 0x20 ADD PUSH2 0x1855 DUP8 PUSH2 0x3135 JUMP JUMPDEST DUP2 MSTORE PUSH1 0x20 ADD DUP3 PUSH1 0xA0 ADD MLOAD DUP2 MSTORE PUSH1 0x20 ADD PUSH2 0x1870 DUP8 PUSH1 0xD SLOAD PUSH2 0x2B58 JUMP JUMPDEST DUP2 MSTORE PUSH1 0x20 ADD PUSH2 0x1881 DUP8 PUSH1 0xE SLOAD PUSH2 0x2B58 JUMP JUMPDEST DUP2 MSTORE PUSH1 0x20 ADD PUSH1 0x11 PUSH0 DUP7 PUSH2 0x120 ADD MLOAD DUP2 MSTORE PUSH1 0x20 ADD SWAP1 DUP2 MSTORE PUSH1 0x20 ADD PUSH0 KECCAK256 PUSH1 0x1 ADD DUP1 SLOAD PUSH2 0x18AA SWAP1 PUSH2 0x5C96 JUMP JUMPDEST DUP1 PUSH1 0x1F ADD PUSH1 0x20 DUP1 SWAP2 DIV MUL PUSH1 0x20 ADD PUSH1 0x40 MLOAD SWAP1 DUP2 ADD PUSH1 0x40 MSTORE DUP1 SWAP3 SWAP2 SWAP1 DUP2 DUP2 MSTORE PUSH1 0x20 ADD DUP3 DUP1 SLOAD PUSH2 0x18D6 SWAP1 PUSH2 0x5C96 JUMP JUMPDEST DUP1 ISZERO PUSH2 0x1921 JUMPI DUP1 PUSH1 0x1F LT PUSH2 0x18F8 JUMPI PUSH2 0x100 DUP1 DUP4 SLOAD DIV MUL DUP4 MSTORE SWAP2 PUSH1 0x20 ADD SWAP2 PUSH2 0x1921 JUMP JUMPDEST DUP3 ADD SWAP2 SWAP1 PUSH0 MSTORE PUSH1 0x20 PUSH0 KECCAK256 SWAP1 JUMPDEST DUP2 SLOAD DUP2 MSTORE SWAP1 PUSH1 0x1 ADD SWAP1 PUSH1 0x20 ADD DUP1 DUP4 GT PUSH2 0x1904 JUMPI DUP3 SWAP1 SUB PUSH1 0x1F AND DUP3 ADD SWAP2 JUMPDEST POP POP POP POP POP DUP2 MSTORE PUSH1 0x20 ADD PUSH2 0x1934 DUP8 PUSH2 0x3175 JUMP JUMPDEST DUP2 MSTORE PUSH1 0x20 ADD PUSH2 0x1942 DUP8 PUSH2 0x319C JUMP JUMPDEST ISZERO ISZERO DUP2 MSTORE PUSH1 0x20 ADD DUP5 PUSH2 0x140 ADD MLOAD ISZERO ISZERO DUP2 MSTORE PUSH1 0x20 ADD PUSH0 DUP6 PUSH1 0xC0 ADD MLOAD GT ISZERO ISZERO DUP2 MSTORE POP SWAP4 POP POP POP POP SWAP2 SWAP1 POP JUMP JUMPDEST PUSH2 0x1974 PUSH2 0x31B6 JUMP JUMPDEST PUSH2 0x197C JUMPI CALLER SWAP3 POP JUMPDEST PUSH2 0x1985 DUP4 PUSH2 0x31DE JUMP JUMPDEST PUSH2 0x198E DUP3 PUSH2 0x2B48 JUMP JUMPDEST PUSH2 0x19D4 JUMPI PUSH1 0x40 MLOAD PUSH3 0x461BCD PUSH1 0xE5 SHL DUP2 MSTORE PUSH1 0x20 PUSH1 0x4 DUP3 ADD MSTORE PUSH1 0x17 PUSH1 0x24 DUP3 ADD MSTORE PUSH23 0x496E76616C696420726563656976696E67207573657221 PUSH1 0x48 SHL PUSH1 0x44 DUP3 ADD MSTORE PUSH1 0x64 ADD PUSH2 0xC14 JUMP JUMPDEST PUSH2 0x19E1 DUP4 PUSH1 0xE SLOAD DUP4 PUSH2 0x2BD5 JUMP JUMPDEST PUSH2 0x19EB PUSH1 0x5 PUSH2 0x327B JUMP JUMPDEST DUP2 LT ISZERO PUSH2 0x1A0A JUMPI PUSH1 0x40 MLOAD PUSH3 0x461BCD PUSH1 0xE5 SHL DUP2 MSTORE PUSH1 0x4 ADD PUSH2 0xC14 SWAP1 PUSH2 0x5CC8 JUMP JUMPDEST PUSH0 PUSH1 0x64 PUSH2 0x1A18 DUP4 PUSH1 0x5 PUSH2 0x5BC2 JUMP JUMPDEST PUSH2 0x1A22 SWAP2 SWAP1 PUSH2 0x5BD9 JUMP JUMPDEST SWAP1 POP PUSH0 PUSH2 0x1A2F DUP3 DUP5 PUSH2 0x5CFF JUMP JUMPDEST PUSH1 0x1 PUSH1 0x1 PUSH1 0xA0 SHL SUB DUP7 AND PUSH0 SWAP1 DUP2 MSTORE PUSH1 0x1A PUSH1 0x20 SWAP1 DUP2 MSTORE PUSH1 0x40 DUP1 DUP4 KECCAK256 PUSH1 0xE SLOAD DUP5 MSTORE SWAP1 SWAP2 MSTORE DUP2 KECCAK256 DUP1 SLOAD SWAP3 SWAP4 POP DUP4 SWAP3 SWAP1 SWAP2 SWAP1 PUSH2 0x1A68 SWAP1 DUP5 SWAP1 PUSH2 0x5C0F JUMP JUMPDEST SWAP1 SWAP2 SSTORE POP POP PUSH1 0x1 PUSH1 0x1 PUSH1 0xA0 SHL SUB DUP5 AND PUSH0 SWAP1 DUP2 MSTORE PUSH1 0x1A PUSH1 0x20 SWAP1 DUP2 MSTORE PUSH1 0x40 DUP1 DUP4 KECCAK256 PUSH1 0xE SLOAD DUP5 MSTORE SWAP1 SWAP2 MSTORE DUP2 KECCAK256 DUP1 SLOAD DUP6 SWAP3 SWAP1 PUSH2 0x1AA1 SWAP1 DUP5 SWAP1 PUSH2 0x5CFF JUMP JUMPDEST SWAP1 SWAP2 SSTORE POP POP POP POP POP POP POP JUMP JUMPDEST CALLER PUSH0 PUSH2 0x1AB7 PUSH2 0x3292 JUMP JUMPDEST SWAP1 POP PUSH2 0x1AC2 DUP3 PUSH2 0x31DE JUMP JUMPDEST PUSH2 0x1ACC PUSH1 0x5 PUSH2 0x327B JUMP JUMPDEST DUP4 LT ISZERO PUSH2 0x1AEB JUMPI PUSH1 0x40 MLOAD PUSH3 0x461BCD PUSH1 0xE5 SHL DUP2 MSTORE PUSH1 0x4 ADD PUSH2 0xC14 SWAP1 PUSH2 0x5CC8 JUMP JUMPDEST PUSH2 0x1AF8 DUP3 PUSH1 0xD SLOAD DUP6 PUSH2 0x2BD5 JUMP JUMPDEST PUSH1 0x1 PUSH1 0x1 PUSH1 0xA0 SHL SUB DUP3 AND PUSH0 SWAP1 DUP2 MSTORE PUSH1 0x1A PUSH1 0x20 SWAP1 DUP2 MSTORE PUSH1 0x40 DUP1 DUP4 KECCAK256 PUSH1 0xD SLOAD DUP5 MSTORE SWAP1 SWAP2 MSTORE DUP2 KECCAK256 DUP1 SLOAD DUP6 SWAP3 SWAP1 PUSH2 0x1B2C SWAP1 DUP5 SWAP1 PUSH2 0x5C0F JUMP JUMPDEST SWAP1 SWAP2 SSTORE POP POP PUSH1 0x1 PUSH1 0x1 PUSH1 0xA0 SHL SUB DUP3 AND PUSH0 SWAP1 DUP2 MSTORE PUSH1 0x19 PUSH1 0x20 MSTORE PUSH1 0x40 DUP2 KECCAK256 PUSH1 0x5 ADD DUP1 SLOAD DUP6 SWAP3 SWAP1 PUSH2 0x1B5B SWAP1 DUP5 SWAP1 PUSH2 0x5CFF JUMP JUMPDEST SWAP1 SWAP2 SSTORE POP PUSH0 SWAP1 POP PUSH1 0x64 PUSH2 0x1B6F DUP6 PUSH1 0x5 PUSH2 0x5BC2 JUMP JUMPDEST PUSH2 0x1B79 SWAP2 SWAP1 PUSH2 0x5BD9 JUMP JUMPDEST SWAP1 POP PUSH0 PUSH2 0x1B86 DUP3 DUP7 PUSH2 0x5C0F JUMP JUMPDEST PUSH1 0x40 DUP1 MLOAD DUP1 DUP3 ADD DUP3 MSTORE DUP8 DUP2 MSTORE TIMESTAMP PUSH1 0x20 DUP1 DUP4 ADD SWAP2 SWAP1 SWAP2 MSTORE PUSH1 0x1 PUSH1 0x1 PUSH1 0xA0 SHL SUB DUP9 AND PUSH0 SWAP1 DUP2 MSTORE PUSH1 0x16 DUP3 MSTORE DUP4 DUP2 KECCAK256 PUSH1 0x1B SWAP1 SWAP3 MSTORE SWAP3 DUP4 KECCAK256 PUSH1 0x2 ADD SLOAD SWAP4 SWAP5 POP SWAP1 SWAP3 DUP4 SWAP3 SWAP1 PUSH2 0x1BD0 SWAP1 PUSH1 0x1 PUSH2 0x5CFF JUMP JUMPDEST DUP2 MSTORE PUSH1 0x20 DUP1 DUP3 ADD SWAP3 SWAP1 SWAP3 MSTORE PUSH1 0x40 SWAP1 DUP2 ADD PUSH0 SWAP1 DUP2 KECCAK256 DUP5 MLOAD DUP2 SSTORE SWAP4 DUP4 ADD MLOAD PUSH1 0x1 SWAP1 SWAP5 ADD SWAP4 SWAP1 SWAP4 SSTORE PUSH1 0x1 PUSH1 0x1 PUSH1 0xA0 SHL SUB DUP9 AND DUP4 MSTORE PUSH1 0x1B SWAP1 SWAP2 MSTORE DUP2 KECCAK256 PUSH1 0x2 ADD DUP1 SLOAD SWAP2 PUSH2 0x1C17 DUP4 PUSH2 0x5C41 JUMP JUMPDEST SWAP2 SWAP1 POP SSTORE POP DUP6 DUP5 LT PUSH2 0x1C48 JUMPI PUSH2 0x1C2D DUP6 DUP4 PUSH2 0x3305 JUMP JUMPDEST PUSH1 0x7 SLOAD PUSH2 0x1C43 SWAP1 PUSH1 0x1 PUSH1 0x1 PUSH1 0xA0 SHL SUB AND DUP5 PUSH2 0x3305 JUMP JUMPDEST PUSH2 0x1C52 JUMP JUMPDEST PUSH2 0x1C52 DUP6 DUP4 PUSH2 0x3387 JUMP JUMPDEST POP POP POP POP POP POP JUMP JUMPDEST PUSH1 0x1 PUSH1 0x1 PUSH1 0xA0 SHL SUB DUP2 AND PUSH0 SWAP1 DUP2 MSTORE PUSH1 0x14 PUSH1 0x20 MSTORE PUSH1 0x40 SWAP1 KECCAK256 PUSH1 0x1 ADD SLOAD PUSH1 0x60 SWAP1 PUSH1 0x1 PUSH1 0x1 PUSH1 0x40 SHL SUB DUP2 GT ISZERO PUSH2 0x1C8F JUMPI PUSH2 0x1C8F PUSH2 0x5C59 JUMP JUMPDEST PUSH1 0x40 MLOAD SWAP1 DUP1 DUP3 MSTORE DUP1 PUSH1 0x20 MUL PUSH1 0x20 ADD DUP3 ADD PUSH1 0x40 MSTORE DUP1 ISZERO PUSH2 0x1CF0 JUMPI DUP2 PUSH1 0x20 ADD JUMPDEST PUSH2 0x1CDD PUSH1 0x40 MLOAD DUP1 PUSH1 0x80 ADD PUSH1 0x40 MSTORE DUP1 PUSH0 DUP2 MSTORE PUSH1 0x20 ADD PUSH0 PUSH1 0x1 PUSH1 0x1 PUSH1 0xA0 SHL SUB AND DUP2 MSTORE PUSH1 0x20 ADD PUSH0 DUP2 MSTORE PUSH1 0x20 ADD PUSH0 DUP2 MSTORE POP SWAP1 JUMP JUMPDEST DUP2 MSTORE PUSH1 0x20 ADD SWAP1 PUSH1 0x1 SWAP1 SUB SWAP1 DUP2 PUSH2 0x1CAD JUMPI SWAP1 POP JUMPDEST POP SWAP1 POP PUSH0 JUMPDEST PUSH1 0x1 PUSH1 0x1 PUSH1 0xA0 SHL SUB DUP4 AND PUSH0 SWAP1 DUP2 MSTORE PUSH1 0x14 PUSH1 0x20 MSTORE PUSH1 0x40 SWAP1 KECCAK256 PUSH1 0x1 ADD SLOAD DUP2 LT ISZERO PUSH2 0x130A JUMPI PUSH1 0x40 MLOAD DUP1 PUSH1 0x80 ADD PUSH1 0x40 MSTORE DUP1 DUP3 PUSH1 0x1 PUSH2 0x1D2F SWAP2 SWAP1 PUSH2 0x5CFF JUMP JUMPDEST DUP2 MSTORE PUSH1 0x20 ADD PUSH1 0x14 PUSH0 DUP7 PUSH1 0x1 PUSH1 0x1 PUSH1 0xA0 SHL SUB AND PUSH1 0x1 PUSH1 0x1 PUSH1 0xA0 SHL SUB AND DUP2 MSTORE PUSH1 0x20 ADD SWAP1 DUP2 MSTORE PUSH1 0x20 ADD PUSH0 KECCAK256 PUSH1 0x1 ADD DUP4 DUP2 SLOAD DUP2 LT PUSH2 0x1D6B JUMPI PUSH2 0x1D6B PUSH2 0x5C6D JUMP JUMPDEST PUSH0 SWAP2 DUP3 MSTORE PUSH1 0x20 DUP1 DUP4 KECCAK256 SWAP1 SWAP2 ADD SLOAD PUSH1 0x1 PUSH1 0x1 PUSH1 0xA0 SHL SUB SWAP1 DUP2 AND DUP5 MSTORE DUP8 AND DUP3 MSTORE PUSH1 0x14 DUP2 MSTORE PUSH1 0x40 DUP3 KECCAK256 PUSH1 0x1 ADD DUP1 SLOAD SWAP4 SWAP1 SWAP2 ADD SWAP3 PUSH1 0x12 SWAP3 SWAP2 SWAP1 DUP7 SWAP1 DUP2 LT PUSH2 0x1DB0 JUMPI PUSH2 0x1DB0 PUSH2 0x5C6D JUMP JUMPDEST PUSH0 SWAP2 DUP3 MSTORE PUSH1 0x20 DUP1 DUP4 KECCAK256 SWAP1 SWAP2 ADD SLOAD PUSH1 0x1 PUSH1 0x1 PUSH1 0xA0 SHL SUB SWAP1 DUP2 AND DUP5 MSTORE DUP4 DUP3 ADD SWAP5 SWAP1 SWAP5 MSTORE PUSH1 0x40 SWAP3 DUP4 ADD DUP3 KECCAK256 PUSH1 0x4 ADD SLOAD DUP6 MSTORE SWAP3 DUP9 AND DUP2 MSTORE PUSH1 0x14 DUP1 DUP5 MSTORE SWAP2 DUP2 KECCAK256 PUSH1 0x1 ADD DUP1 SLOAD SWAP5 SWAP1 SWAP4 ADD SWAP4 SWAP2 SWAP3 SWAP1 SWAP2 DUP7 SWAP1 DUP2 LT PUSH2 0x1E09 JUMPI PUSH2 0x1E09 PUSH2 0x5C6D JUMP JUMPDEST PUSH0 SWAP2 DUP3 MSTORE PUSH1 0x20 DUP1 DUP4 KECCAK256 SWAP1 SWAP2 ADD SLOAD PUSH1 0x1 PUSH1 0x1 PUSH1 0xA0 SHL SUB AND DUP4 MSTORE DUP3 ADD SWAP3 SWAP1 SWAP3 MSTORE PUSH1 0x40 ADD SWAP1 KECCAK256 PUSH1 0x4 ADD SLOAD SWAP1 MSTORE DUP3 MLOAD DUP4 SWAP1 DUP4 SWAP1 DUP2 LT PUSH2 0x1E46 JUMPI PUSH2 0x1E46 PUSH2 0x5C6D JUMP JUMPDEST PUSH1 0x20 SWAP1 DUP2 MUL SWAP2 SWAP1 SWAP2 ADD ADD MSTORE PUSH1 0x1 ADD PUSH2 0x1CF5 JUMP JUMPDEST PUSH2 0x1E80 PUSH1 0x40 MLOAD DUP1 PUSH1 0x80 ADD PUSH1 0x40 MSTORE DUP1 PUSH0 DUP2 MSTORE PUSH1 0x20 ADD PUSH0 DUP2 MSTORE PUSH1 0x20 ADD PUSH0 DUP2 MSTORE PUSH1 0x20 ADD PUSH0 DUP2 MSTORE POP SWAP1 JUMP JUMPDEST PUSH1 0x40 MLOAD DUP1 PUSH1 0x80 ADD PUSH1 0x40 MSTORE DUP1 PUSH0 SLOAD DUP2 MSTORE PUSH1 0x20 ADD PUSH1 0x1 SLOAD DUP2 MSTORE PUSH1 0x20 ADD PUSH1 0x2 SLOAD DUP2 MSTORE PUSH1 0x20 ADD PUSH2 0x1EAA PUSH2 0x3292 JUMP JUMPDEST SWAP1 MSTORE SWAP2 SWAP1 POP JUMP JUMPDEST PUSH1 0x1 PUSH1 0x1 PUSH1 0xA0 SHL SUB DUP4 AND PUSH0 SWAP1 DUP2 MSTORE PUSH1 0x1B PUSH1 0x20 MSTORE PUSH1 0x40 DUP2 KECCAK256 PUSH1 0x2 ADD SLOAD PUSH1 0x60 SWAP2 DUP2 PUSH2 0x1EDA DUP6 DUP8 PUSH2 0x5BC2 JUMP JUMPDEST GT PUSH2 0x1EEE JUMPI PUSH2 0x1EE9 DUP5 DUP7 PUSH2 0x5BC2 JUMP JUMPDEST PUSH2 0x1EF0 JUMP JUMPDEST DUP2 JUMPDEST SWAP1 POP PUSH0 DUP5 DUP3 LT ISZERO PUSH2 0x1F01 JUMPI PUSH0 PUSH2 0x1F0B JUMP JUMPDEST PUSH2 0x1F0B DUP6 DUP4 PUSH2 0x5C0F JUMP JUMPDEST SWAP1 POP PUSH0 PUSH2 0x1F18 DUP3 DUP5 PUSH2 0x5C0F JUMP JUMPDEST PUSH1 0x1 PUSH1 0x1 PUSH1 0x40 SHL SUB DUP2 GT ISZERO PUSH2 0x1F2F JUMPI PUSH2 0x1F2F PUSH2 0x5C59 JUMP JUMPDEST PUSH1 0x40 MLOAD SWAP1 DUP1 DUP3 MSTORE DUP1 PUSH1 0x20 MUL PUSH1 0x20 ADD DUP3 ADD PUSH1 0x40 MSTORE DUP1 ISZERO PUSH2 0x1F73 JUMPI DUP2 PUSH1 0x20 ADD JUMPDEST PUSH1 0x40 DUP1 MLOAD DUP1 DUP3 ADD SWAP1 SWAP2 MSTORE PUSH0 DUP1 DUP3 MSTORE PUSH1 0x20 DUP3 ADD MSTORE DUP2 MSTORE PUSH1 0x20 ADD SWAP1 PUSH1 0x1 SWAP1 SUB SWAP1 DUP2 PUSH2 0x1F4D JUMPI SWAP1 POP JUMPDEST POP SWAP5 POP DUP3 JUMPDEST DUP3 DUP2 GT ISZERO PUSH2 0xFCC JUMPI PUSH1 0x1 PUSH1 0x1 PUSH1 0xA0 SHL SUB DUP10 AND PUSH0 SWAP1 DUP2 MSTORE PUSH1 0x16 PUSH1 0x20 SWAP1 DUP2 MSTORE PUSH1 0x40 DUP1 DUP4 KECCAK256 DUP5 DUP5 MSTORE DUP3 MSTORE SWAP2 DUP3 SWAP1 KECCAK256 DUP3 MLOAD DUP1 DUP5 ADD SWAP1 SWAP4 MSTORE DUP1 SLOAD DUP4 MSTORE PUSH1 0x1 ADD SLOAD SWAP1 DUP3 ADD MSTORE DUP7 MLOAD DUP8 SWAP1 DUP5 SWAP1 DUP2 LT PUSH2 0x1FCB JUMPI PUSH2 0x1FCB PUSH2 0x5C6D JUMP JUMPDEST PUSH1 0x20 MUL PUSH1 0x20 ADD ADD DUP2 SWAP1 MSTORE POP DUP2 DUP1 PUSH2 0x1FE1 SWAP1 PUSH2 0x5C41 JUMP JUMPDEST SWAP3 POP POP DUP1 DUP1 PUSH2 0x1FEF SWAP1 PUSH2 0x5C81 JUMP JUMPDEST SWAP2 POP POP PUSH2 0x1F78 JUMP JUMPDEST PUSH1 0x60 PUSH1 0x9 SLOAD PUSH1 0x1 PUSH1 0x1 PUSH1 0x40 SHL SUB DUP2 GT ISZERO PUSH2 0x2013 JUMPI PUSH2 0x2013 PUSH2 0x5C59 JUMP JUMPDEST PUSH1 0x40 MLOAD SWAP1 DUP1 DUP3 MSTORE DUP1 PUSH1 0x20 MUL PUSH1 0x20 ADD DUP3 ADD PUSH1 0x40 MSTORE DUP1 ISZERO PUSH2 0x20A7 JUMPI DUP2 PUSH1 0x20 ADD JUMPDEST PUSH2 0x2094 PUSH1 0x40 MLOAD DUP1 PUSH2 0x1A0 ADD PUSH1 0x40 MSTORE DUP1 PUSH0 DUP2 MSTORE PUSH1 0x20 ADD PUSH1 0x60 DUP2 MSTORE PUSH1 0x20 ADD PUSH0 DUP2 MSTORE PUSH1 0x20 ADD PUSH0 DUP2 MSTORE PUSH1 0x20 ADD PUSH0 DUP2 MSTORE PUSH1 0x20 ADD PUSH0 DUP2 MSTORE PUSH1 0x20 ADD PUSH0 DUP2 MSTORE PUSH1 0x20 ADD PUSH0 ISZERO ISZERO DUP2 MSTORE PUSH1 0x20 ADD PUSH0 DUP2 MSTORE PUSH1 0x20 ADD PUSH0 DUP2 MSTORE PUSH1 0x20 ADD PUSH0 DUP2 MSTORE PUSH1 0x20 ADD PUSH0 DUP2 MSTORE PUSH1 0x20 ADD PUSH0 ISZERO ISZERO DUP2 MSTORE POP SWAP1 JUMP JUMPDEST DUP2 MSTORE PUSH1 0x20 ADD SWAP1 PUSH1 0x1 SWAP1 SUB SWAP1 DUP2 PUSH2 0x2031 JUMPI SWAP1 POP JUMPDEST POP PUSH1 0x1 PUSH1 0x1 PUSH1 0xA0 SHL SUB DUP1 DUP5 AND PUSH0 DUP2 DUP2 MSTORE PUSH1 0x12 PUSH1 0x20 SWAP1 DUP2 MSTORE PUSH1 0x40 DUP1 DUP4 KECCAK256 DUP2 MLOAD PUSH2 0x180 DUP2 ADD DUP4 MSTORE DUP2 SLOAD DUP2 MSTORE PUSH1 0x1 DUP1 DUP4 ADD SLOAD DUP9 AND DUP3 DUP7 ADD MSTORE PUSH1 0x2 DUP4 ADD SLOAD SWAP1 SWAP8 AND DUP2 DUP5 ADD MSTORE PUSH1 0x3 DUP3 ADD SLOAD PUSH1 0x60 DUP3 ADD MSTORE PUSH1 0x4 DUP3 ADD SLOAD PUSH1 0x80 DUP3 ADD MSTORE PUSH1 0x5 DUP3 ADD SLOAD PUSH1 0xA0 DUP3 ADD MSTORE PUSH1 0x6 DUP3 ADD SLOAD PUSH1 0xC0 DUP1 DUP4 ADD SWAP2 SWAP1 SWAP2 MSTORE PUSH1 0x7 DUP4 ADD SLOAD PUSH1 0xE0 DUP4 ADD MSTORE PUSH1 0x8 DUP4 ADD SLOAD PUSH2 0x100 DUP1 DUP5 ADD SWAP2 SWAP1 SWAP2 MSTORE PUSH1 0x9 DUP5 ADD SLOAD PUSH2 0x120 DUP5 ADD MSTORE PUSH1 0xA SWAP1 SWAP4 ADD SLOAD PUSH1 0xFF DUP1 DUP3 AND ISZERO ISZERO PUSH2 0x140 DUP6 ADD MSTORE SWAP4 SWAP1 DIV SWAP1 SWAP3 AND ISZERO ISZERO PUSH2 0x160 DUP3 ADD MSTORE SWAP5 DUP5 MSTORE PUSH1 0x14 DUP4 MSTORE DUP2 DUP5 KECCAK256 DUP3 MLOAD SWAP2 DUP3 ADD DUP4 MSTORE DUP1 SLOAD DUP3 MSTORE SWAP6 DUP7 ADD DUP1 SLOAD DUP4 MLOAD DUP2 DUP7 MUL DUP2 ADD DUP7 ADD SWAP1 SWAP5 MSTORE DUP1 DUP5 MSTORE SWAP8 SWAP9 POP SWAP5 SWAP7 SWAP4 SWAP6 SWAP1 SWAP5 SWAP1 SWAP4 DUP6 DUP5 ADD SWAP4 DUP4 ADD DUP3 DUP3 DUP1 ISZERO PUSH2 0x21C8 JUMPI PUSH1 0x20 MUL DUP3 ADD SWAP2 SWAP1 PUSH0 MSTORE PUSH1 0x20 PUSH0 KECCAK256 SWAP1 JUMPDEST DUP2 SLOAD PUSH1 0x1 PUSH1 0x1 PUSH1 0xA0 SHL SUB AND DUP2 MSTORE PUSH1 0x1 SWAP1 SWAP2 ADD SWAP1 PUSH1 0x20 ADD DUP1 DUP4 GT PUSH2 0x21AA JUMPI JUMPDEST POP POP POP POP POP DUP2 MSTORE PUSH1 0x20 ADD PUSH1 0x2 DUP3 ADD SLOAD DUP2 MSTORE PUSH1 0x20 ADD PUSH1 0x3 DUP3 ADD SLOAD DUP2 MSTORE PUSH1 0x20 ADD PUSH1 0x4 DUP3 ADD SLOAD DUP2 MSTORE PUSH1 0x20 ADD PUSH1 0x5 DUP3 ADD DUP1 SLOAD DUP1 PUSH1 0x20 MUL PUSH1 0x20 ADD PUSH1 0x40 MLOAD SWAP1 DUP2 ADD PUSH1 0x40 MSTORE DUP1 SWAP3 SWAP2 SWAP1 DUP2 DUP2 MSTORE PUSH1 0x20 ADD DUP3 DUP1 SLOAD DUP1 ISZERO PUSH2 0x2246 JUMPI PUSH1 0x20 MUL DUP3 ADD SWAP2 SWAP1 PUSH0 MSTORE PUSH1 0x20 PUSH0 KECCAK256 SWAP1 JUMPDEST DUP2 SLOAD PUSH1 0x1 PUSH1 0x1 PUSH1 0xA0 SHL SUB AND DUP2 MSTORE PUSH1 0x1 SWAP1 SWAP2 ADD SWAP1 PUSH1 0x20 ADD DUP1 DUP4 GT PUSH2 0x2228 JUMPI JUMPDEST POP POP POP POP POP DUP2 MSTORE POP POP SWAP1 POP PUSH0 PUSH1 0x1 SWAP1 POP JUMPDEST PUSH1 0x9 SLOAD DUP2 GT PUSH2 0x242B JUMPI PUSH0 PUSH1 0x11 PUSH0 DUP4 DUP2 MSTORE PUSH1 0x20 ADD SWAP1 DUP2 MSTORE PUSH1 0x20 ADD PUSH0 KECCAK256 PUSH1 0x40 MLOAD DUP1 PUSH1 0xE0 ADD PUSH1 0x40 MSTORE SWAP1 DUP2 PUSH0 DUP3 ADD SLOAD DUP2 MSTORE PUSH1 0x20 ADD PUSH1 0x1 DUP3 ADD DUP1 SLOAD PUSH2 0x2296 SWAP1 PUSH2 0x5C96 JUMP JUMPDEST DUP1 PUSH1 0x1F ADD PUSH1 0x20 DUP1 SWAP2 DIV MUL PUSH1 0x20 ADD PUSH1 0x40 MLOAD SWAP1 DUP2 ADD PUSH1 0x40 MSTORE DUP1 SWAP3 SWAP2 SWAP1 DUP2 DUP2 MSTORE PUSH1 0x20 ADD DUP3 DUP1 SLOAD PUSH2 0x22C2 SWAP1 PUSH2 0x5C96 JUMP JUMPDEST DUP1 ISZERO PUSH2 0x230D JUMPI DUP1 PUSH1 0x1F LT PUSH2 0x22E4 JUMPI PUSH2 0x100 DUP1 DUP4 SLOAD DIV MUL DUP4 MSTORE SWAP2 PUSH1 0x20 ADD SWAP2 PUSH2 0x230D JUMP JUMPDEST DUP3 ADD SWAP2 SWAP1 PUSH0 MSTORE PUSH1 0x20 PUSH0 KECCAK256 SWAP1 JUMPDEST DUP2 SLOAD DUP2 MSTORE SWAP1 PUSH1 0x1 ADD SWAP1 PUSH1 0x20 ADD DUP1 DUP4 GT PUSH2 0x22F0 JUMPI DUP3 SWAP1 SUB PUSH1 0x1F AND DUP3 ADD SWAP2 JUMPDEST POP POP POP POP POP DUP2 MSTORE PUSH1 0x20 ADD PUSH1 0x2 DUP3 ADD SLOAD DUP2 MSTORE PUSH1 0x20 ADD PUSH1 0x3 DUP3 ADD SLOAD DUP2 MSTORE PUSH1 0x20 ADD PUSH1 0x4 DUP3 ADD SLOAD DUP2 MSTORE PUSH1 0x20 ADD PUSH1 0x5 DUP3 ADD SLOAD DUP2 MSTORE PUSH1 0x20 ADD PUSH1 0x6 DUP3 ADD SLOAD DUP2 MSTORE POP POP SWAP1 POP PUSH0 DUP2 PUSH0 ADD MLOAD DUP6 PUSH2 0x120 ADD MLOAD LT ISZERO SWAP1 POP PUSH1 0x40 MLOAD DUP1 PUSH2 0x1A0 ADD PUSH1 0x40 MSTORE DUP1 DUP4 PUSH0 ADD MLOAD DUP2 MSTORE PUSH1 0x20 ADD DUP4 PUSH1 0x20 ADD MLOAD DUP2 MSTORE PUSH1 0x20 ADD DUP4 PUSH1 0x40 ADD MLOAD DUP2 MSTORE PUSH1 0x20 ADD DUP4 PUSH1 0x80 ADD MLOAD DUP2 MSTORE PUSH1 0x20 ADD DUP4 PUSH1 0xA0 ADD MLOAD DUP2 MSTORE PUSH1 0x20 ADD DUP4 PUSH1 0x60 ADD MLOAD DUP2 MSTORE PUSH1 0x20 ADD DUP7 PUSH1 0x80 ADD MLOAD DUP2 MSTORE PUSH1 0x20 ADD PUSH2 0x23B8 DUP10 DUP6 PUSH1 0x40 ADD MLOAD PUSH2 0x3456 JUMP JUMPDEST ISZERO ISZERO DUP2 MSTORE PUSH1 0x20 ADD DUP6 PUSH1 0x40 ADD MLOAD DUP2 MSTORE PUSH1 0x20 ADD DUP6 PUSH1 0x60 ADD MLOAD DUP2 MSTORE PUSH1 0x20 ADD DUP7 PUSH1 0xA0 ADD MLOAD DUP2 MSTORE PUSH1 0x20 ADD DUP4 PUSH1 0xC0 ADD MLOAD DUP2 MSTORE PUSH1 0x20 ADD DUP3 ISZERO ISZERO DUP2 MSTORE POP DUP7 PUSH1 0x1 DUP6 PUSH2 0x23FB SWAP2 SWAP1 PUSH2 0x5C0F JUMP JUMPDEST DUP2 MLOAD DUP2 LT PUSH2 0x240B JUMPI PUSH2 0x240B PUSH2 0x5C6D JUMP JUMPDEST PUSH1 0x20 MUL PUSH1 0x20 ADD ADD DUP2 SWAP1 MSTORE POP POP POP DUP1 DUP1 PUSH2 0x2423 SWAP1 PUSH2 0x5C41 JUMP JUMPDEST SWAP2 POP POP PUSH2 0x2257 JUMP JUMPDEST POP POP POP SWAP2 SWAP1 POP JUMP JUMPDEST PUSH1 0xF PUSH1 0x20 MSTORE PUSH0 SWAP1 DUP2 MSTORE PUSH1 0x40 SWAP1 KECCAK256 DUP1 SLOAD PUSH1 0x1 DUP3 ADD DUP1 SLOAD SWAP2 SWAP3 SWAP2 PUSH2 0x2454 SWAP1 PUSH2 0x5C96 JUMP JUMPDEST DUP1 PUSH1 0x1F ADD PUSH1 0x20 DUP1 SWAP2 DIV MUL PUSH1 0x20 ADD PUSH1 0x40 MLOAD SWAP1 DUP2 ADD PUSH1 0x40 MSTORE DUP1 SWAP3 SWAP2 SWAP1 DUP2 DUP2 MSTORE PUSH1 0x20 ADD DUP3 DUP1 SLOAD PUSH2 0x2480 SWAP1 PUSH2 0x5C96 JUMP JUMPDEST DUP1 ISZERO PUSH2 0x24CB JUMPI DUP1 PUSH1 0x1F LT PUSH2 0x24A2 JUMPI PUSH2 0x100 DUP1 DUP4 SLOAD DIV MUL DUP4 MSTORE SWAP2 PUSH1 0x20 ADD SWAP2 PUSH2 0x24CB JUMP JUMPDEST DUP3 ADD SWAP2 SWAP1 PUSH0 MSTORE PUSH1 0x20 PUSH0 KECCAK256 SWAP1 JUMPDEST DUP2 SLOAD DUP2 MSTORE SWAP1 PUSH1 0x1 ADD SWAP1 PUSH1 0x20 ADD DUP1 DUP4 GT PUSH2 0x24AE JUMPI DUP3 SWAP1 SUB PUSH1 0x1F AND DUP3 ADD SWAP2 JUMPDEST POP POP POP POP PUSH1 0x2 DUP4 ADD SLOAD PUSH1 0x3 DUP5 ADD SLOAD PUSH1 0x4 DUP6 ADD SLOAD PUSH1 0x5 SWAP1 SWAP6 ADD SLOAD SWAP4 SWAP5 SWAP2 SWAP4 PUSH1 0xFF SWAP1 SWAP2 AND SWAP3 POP DUP7 JUMP JUMPDEST PUSH2 0x24FC DUP3 DUP3 PUSH2 0x34CB JUMP JUMPDEST POP POP JUMP JUMPDEST PUSH2 0x2508 PUSH2 0x31B6 JUMP JUMPDEST PUSH2 0x2524 JUMPI PUSH1 0x40 MLOAD PUSH3 0x461BCD PUSH1 0xE5 SHL DUP2 MSTORE PUSH1 0x4 ADD PUSH2 0xC14 SWAP1 PUSH2 0x5D12 JUMP JUMPDEST PUSH1 0x7 DUP1 SLOAD PUSH1 0x1 PUSH1 0x1 PUSH1 0xA0 SHL SUB NOT AND PUSH1 0x1 PUSH1 0x1 PUSH1 0xA0 SHL SUB SWAP3 SWAP1 SWAP3 AND SWAP2 SWAP1 SWAP2 OR SWAP1 SSTORE JUMP JUMPDEST CALLER PUSH2 0x2550 DUP2 PUSH2 0x2B48 JUMP JUMPDEST PUSH2 0x256C JUMPI PUSH1 0x40 MLOAD PUSH3 0x461BCD PUSH1 0xE5 SHL DUP2 MSTORE PUSH1 0x4 ADD PUSH2 0xC14 SWAP1 PUSH2 0x5D40 JUMP JUMPDEST PUSH1 0x1 PUSH1 0x1 PUSH1 0xA0 SHL SUB DUP2 AND PUSH0 SWAP1 DUP2 MSTORE PUSH1 0x12 PUSH1 0x20 MSTORE PUSH1 0x40 SWAP1 KECCAK256 PUSH1 0xA ADD SLOAD PUSH2 0x100 SWAP1 DIV PUSH1 0xFF AND ISZERO PUSH2 0x25ED JUMPI PUSH1 0x40 MLOAD PUSH3 0x461BCD PUSH1 0xE5 SHL DUP2 MSTORE PUSH1 0x20 PUSH1 0x4 DUP3 ADD MSTORE PUSH1 0x28 PUSH1 0x24 DUP3 ADD MSTORE PUSH32 0x4F6E6C7920666972737420746F70757020697320616C6C6F7765642066726F6D PUSH1 0x44 DUP3 ADD MSTORE PUSH8 0x103BB0B63632BA17 PUSH1 0xC1 SHL PUSH1 0x64 DUP3 ADD MSTORE PUSH1 0x84 ADD PUSH2 0xC14 JUMP JUMPDEST PUSH2 0x25FA DUP2 PUSH1 0xE SLOAD DUP5 PUSH2 0x2BD5 JUMP JUMPDEST PUSH2 0x2605 DUP2 DUP5 DUP5 PUSH2 0x35DA JUMP JUMPDEST POP PUSH1 0x1 PUSH1 0x1 PUSH1 0xA0 SHL SUB DUP2 AND PUSH0 SWAP1 DUP2 MSTORE PUSH1 0x1A PUSH1 0x20 SWAP1 DUP2 MSTORE PUSH1 0x40 DUP1 DUP4 KECCAK256 PUSH1 0x2 DUP5 MSTORE SWAP1 SWAP2 MSTORE DUP2 KECCAK256 DUP1 SLOAD DUP5 SWAP3 SWAP1 PUSH2 0x2639 SWAP1 DUP5 SWAP1 PUSH2 0x5C0F JUMP JUMPDEST SWAP1 SWAP2 SSTORE POP POP POP POP POP JUMP JUMPDEST PUSH2 0x264B PUSH2 0x531E JUMP JUMPDEST PUSH2 0x2653 PUSH2 0x39EE JUMP JUMPDEST SWAP1 POP SWAP1 JUMP JUMPDEST PUSH2 0x2660 PUSH2 0x31B6 JUMP JUMPDEST PUSH2 0x267C JUMPI PUSH1 0x40 MLOAD PUSH3 0x461BCD PUSH1 0xE5 SHL DUP2 MSTORE PUSH1 0x4 ADD PUSH2 0xC14 SWAP1 PUSH2 0x5D12 JUMP JUMPDEST PUSH1 0x1F DUP1 SLOAD PUSH1 0x1 PUSH1 0x1 PUSH1 0xA0 SHL SUB NOT AND PUSH1 0x1 PUSH1 0x1 PUSH1 0xA0 SHL SUB SWAP3 SWAP1 SWAP3 AND SWAP2 SWAP1 SWAP2 OR SWAP1 SSTORE JUMP JUMPDEST PUSH1 0x1 PUSH1 0x1 PUSH1 0xA0 SHL SUB DUP4 AND PUSH0 SWAP1 DUP2 MSTORE PUSH1 0x1B PUSH1 0x20 MSTORE PUSH1 0x40 DUP2 KECCAK256 PUSH1 0x4 ADD SLOAD PUSH1 0x60 SWAP2 DUP2 PUSH2 0x26C7 DUP6 DUP8 PUSH2 0x5BC2 JUMP JUMPDEST GT PUSH2 0x26DB JUMPI PUSH2 0x26D6 DUP5 DUP7 PUSH2 0x5BC2 JUMP JUMPDEST PUSH2 0x26DD JUMP JUMPDEST DUP2 JUMPDEST SWAP1 POP PUSH0 DUP5 DUP3 LT ISZERO PUSH2 0x26EE JUMPI PUSH0 PUSH2 0x26F8 JUMP JUMPDEST PUSH2 0x26F8 DUP6 DUP4 PUSH2 0x5C0F JUMP JUMPDEST SWAP1 POP PUSH0 PUSH2 0x2705 DUP3 DUP5 PUSH2 0x5C0F JUMP JUMPDEST SWAP1 POP DUP1 PUSH1 0x1 PUSH1 0x1 PUSH1 0x40 SHL SUB DUP2 GT ISZERO PUSH2 0x271F JUMPI PUSH2 0x271F PUSH2 0x5C59 JUMP JUMPDEST PUSH1 0x40 MLOAD SWAP1 DUP1 DUP3 MSTORE DUP1 PUSH1 0x20 MUL PUSH1 0x20 ADD DUP3 ADD PUSH1 0x40 MSTORE DUP1 ISZERO PUSH2 0x2777 JUMPI DUP2 PUSH1 0x20 ADD JUMPDEST PUSH2 0x2764 PUSH1 0x40 MLOAD DUP1 PUSH1 0x80 ADD PUSH1 0x40 MSTORE DUP1 PUSH0 DUP2 MSTORE PUSH1 0x20 ADD PUSH0 DUP2 MSTORE PUSH1 0x20 ADD PUSH0 DUP2 MSTORE PUSH1 0x20 ADD PUSH0 DUP2 MSTORE POP SWAP1 JUMP JUMPDEST DUP2 MSTORE PUSH1 0x20 ADD SWAP1 PUSH1 0x1 SWAP1 SUB SWAP1 DUP2 PUSH2 0x273D JUMPI SWAP1 POP JUMPDEST POP SWAP5 POP PUSH0 DUP4 JUMPDEST DUP4 DUP2 GT ISZERO PUSH2 0x2812 JUMPI PUSH1 0x1 PUSH1 0x1 PUSH1 0xA0 SHL SUB DUP11 AND PUSH0 SWAP1 DUP2 MSTORE PUSH1 0x1D PUSH1 0x20 SWAP1 DUP2 MSTORE PUSH1 0x40 DUP1 DUP4 KECCAK256 DUP5 DUP5 MSTORE DUP3 MSTORE SWAP2 DUP3 SWAP1 KECCAK256 DUP3 MLOAD PUSH1 0x80 DUP2 ADD DUP5 MSTORE DUP2 SLOAD DUP2 MSTORE PUSH1 0x1 DUP3 ADD SLOAD SWAP3 DUP2 ADD SWAP3 SWAP1 SWAP3 MSTORE PUSH1 0x2 DUP2 ADD SLOAD SWAP3 DUP3 ADD SWAP3 SWAP1 SWAP3 MSTORE PUSH1 0x3 SWAP1 SWAP2 ADD SLOAD PUSH1 0x60 DUP3 ADD MSTORE DUP8 DUP4 PUSH2 0x27E2 DUP2 PUSH2 0x5C41 JUMP JUMPDEST SWAP5 POP DUP2 MLOAD DUP2 LT PUSH2 0x27F4 JUMPI PUSH2 0x27F4 PUSH2 0x5C6D JUMP JUMPDEST PUSH1 0x20 MUL PUSH1 0x20 ADD ADD DUP2 SWAP1 MSTORE POP DUP1 DUP1 PUSH2 0x280A SWAP1 PUSH2 0x5C81 JUMP JUMPDEST SWAP2 POP POP PUSH2 0x277D JUMP JUMPDEST POP POP POP POP POP POP SWAP4 SWAP3 POP POP POP JUMP JUMPDEST PUSH1 0x1 PUSH1 0x1 PUSH1 0xA0 SHL SUB DUP4 AND PUSH0 SWAP1 DUP2 MSTORE PUSH1 0x14 PUSH1 0x20 SWAP1 DUP2 MSTORE PUSH1 0x40 DUP1 DUP4 KECCAK256 PUSH1 0x5 ADD DUP1 SLOAD DUP3 MLOAD DUP2 DUP6 MUL DUP2 ADD DUP6 ADD SWAP1 SWAP4 MSTORE DUP1 DUP4 MSTORE PUSH1 0x60 SWAP5 SWAP4 DUP4 ADD DUP3 DUP3 DUP1 ISZERO PUSH2 0x2888 JUMPI PUSH1 0x20 MUL DUP3 ADD SWAP2 SWAP1 PUSH0 MSTORE PUSH1 0x20 PUSH0 KECCAK256 SWAP1 JUMPDEST DUP2 SLOAD PUSH1 0x1 PUSH1 0x1 PUSH1 0xA0 SHL SUB AND DUP2 MSTORE PUSH1 0x1 SWAP1 SWAP2 ADD SWAP1 PUSH1 0x20 ADD DUP1 DUP4 GT PUSH2 0x286A JUMPI JUMPDEST POP POP DUP4 MLOAD SWAP4 SWAP5 POP PUSH0 SWAP3 POP DUP4 SWAP2 POP PUSH2 0x28A1 SWAP1 POP DUP7 DUP9 PUSH2 0x5BC2 JUMP JUMPDEST GT PUSH2 0x28B5 JUMPI PUSH2 0x28B0 DUP6 DUP8 PUSH2 0x5BC2 JUMP JUMPDEST PUSH2 0x28B7 JUMP JUMPDEST DUP2 JUMPDEST SWAP1 POP PUSH0 DUP6 DUP3 LT ISZERO PUSH2 0x28C8 JUMPI PUSH0 PUSH2 0x28D2 JUMP JUMPDEST PUSH2 0x28D2 DUP7 DUP4 PUSH2 0x5C0F JUMP JUMPDEST SWAP1 POP PUSH0 PUSH2 0x28DF DUP3 DUP5 PUSH2 0x5C0F JUMP JUMPDEST SWAP1 POP DUP1 PUSH1 0x1 PUSH1 0x1 PUSH1 0x40 SHL SUB DUP2 GT ISZERO PUSH2 0x28F9 JUMPI PUSH2 0x28F9 PUSH2 0x5C59 JUMP JUMPDEST PUSH1 0x40 MLOAD SWAP1 DUP1 DUP3 MSTORE DUP1 PUSH1 0x20 MUL PUSH1 0x20 ADD DUP3 ADD PUSH1 0x40 MSTORE DUP1 ISZERO PUSH2 0x295A JUMPI DUP2 PUSH1 0x20 ADD JUMPDEST PUSH2 0x2947 PUSH1 0x40 MLOAD DUP1 PUSH1 0x80 ADD PUSH1 0x40 MSTORE DUP1 PUSH0 DUP2 MSTORE PUSH1 0x20 ADD PUSH0 PUSH1 0x1 PUSH1 0x1 PUSH1 0xA0 SHL SUB AND DUP2 MSTORE PUSH1 0x20 ADD PUSH0 DUP2 MSTORE PUSH1 0x20 ADD PUSH0 DUP2 MSTORE POP SWAP1 JUMP JUMPDEST DUP2 MSTORE PUSH1 0x20 ADD SWAP1 PUSH1 0x1 SWAP1 SUB SWAP1 DUP2 PUSH2 0x2917 JUMPI SWAP1 POP JUMPDEST POP SWAP6 POP PUSH0 DUP4 JUMPDEST DUP4 DUP2 GT ISZERO PUSH2 0x2A7A JUMPI PUSH0 DUP8 PUSH2 0x2975 PUSH1 0x1 DUP5 PUSH2 0x5C0F JUMP JUMPDEST DUP2 MLOAD DUP2 LT PUSH2 0x2985 JUMPI PUSH2 0x2985 PUSH2 0x5C6D JUMP JUMPDEST PUSH1 0x20 MUL PUSH1 0x20 ADD ADD MLOAD SWAP1 POP PUSH1 0x40 MLOAD DUP1 PUSH1 0x80 ADD PUSH1 0x40 MSTORE DUP1 DUP4 DUP2 MSTORE PUSH1 0x20 ADD DUP3 PUSH1 0x1 PUSH1 0x1 PUSH1 0xA0 SHL SUB AND DUP2 MSTORE PUSH1 0x20 ADD PUSH1 0x12 PUSH0 DUP5 PUSH1 0x1 PUSH1 0x1 PUSH1 0xA0 SHL SUB AND PUSH1 0x1 PUSH1 0x1 PUSH1 0xA0 SHL SUB AND DUP2 MSTORE PUSH1 0x20 ADD SWAP1 DUP2 MSTORE PUSH1 0x20 ADD PUSH0 KECCAK256 PUSH1 0x4 ADD SLOAD DUP2 MSTORE PUSH1 0x20 ADD PUSH1 0x14 PUSH0 PUSH1 0x14 PUSH0 DUP7 PUSH1 0x1 PUSH1 0x1 PUSH1 0xA0 SHL SUB AND PUSH1 0x1 PUSH1 0x1 PUSH1 0xA0 SHL SUB AND DUP2 MSTORE PUSH1 0x20 ADD SWAP1 DUP2 MSTORE PUSH1 0x20 ADD PUSH0 KECCAK256 PUSH1 0x1 ADD DUP7 DUP2 SLOAD DUP2 LT PUSH2 0x2A15 JUMPI PUSH2 0x2A15 PUSH2 0x5C6D JUMP JUMPDEST PUSH0 SWAP2 DUP3 MSTORE PUSH1 0x20 DUP1 DUP4 KECCAK256 SWAP1 SWAP2 ADD SLOAD PUSH1 0x1 PUSH1 0x1 PUSH1 0xA0 SHL SUB AND DUP4 MSTORE DUP3 ADD SWAP3 SWAP1 SWAP3 MSTORE PUSH1 0x40 ADD SWAP1 KECCAK256 PUSH1 0x4 ADD SLOAD SWAP1 MSTORE DUP10 DUP5 PUSH2 0x2A49 DUP2 PUSH2 0x5C41 JUMP JUMPDEST SWAP6 POP DUP2 MLOAD DUP2 LT PUSH2 0x2A5B JUMPI PUSH2 0x2A5B PUSH2 0x5C6D JUMP JUMPDEST PUSH1 0x20 MUL PUSH1 0x20 ADD ADD DUP2 SWAP1 MSTORE POP POP DUP1 DUP1 PUSH2 0x2A72 SWAP1 PUSH2 0x5C81 JUMP JUMPDEST SWAP2 POP POP PUSH2 0x2960 JUMP JUMPDEST POP POP POP POP POP POP POP SWAP4 SWAP3 POP POP POP JUMP JUMPDEST PUSH1 0x11 PUSH1 0x20 MSTORE PUSH0 SWAP1 DUP2 MSTORE PUSH1 0x40 SWAP1 KECCAK256 DUP1 SLOAD PUSH1 0x1 DUP3 ADD DUP1 SLOAD SWAP2 SWAP3 SWAP2 PUSH2 0x2AA9 SWAP1 PUSH2 0x5C96 JUMP JUMPDEST DUP1 PUSH1 0x1F ADD PUSH1 0x20 DUP1 SWAP2 DIV MUL PUSH1 0x20 ADD PUSH1 0x40 MLOAD SWAP1 DUP2 ADD PUSH1 0x40 MSTORE DUP1 SWAP3 SWAP2 SWAP1 DUP2 DUP2 MSTORE PUSH1 0x20 ADD DUP3 DUP1 SLOAD PUSH2 0x2AD5 SWAP1 PUSH2 0x5C96 JUMP JUMPDEST DUP1 ISZERO PUSH2 0x2B20 JUMPI DUP1 PUSH1 0x1F LT PUSH2 0x2AF7 JUMPI PUSH2 0x100 DUP1 DUP4 SLOAD DIV MUL DUP4 MSTORE SWAP2 PUSH1 0x20 ADD SWAP2 PUSH2 0x2B20 JUMP JUMPDEST DUP3 ADD SWAP2 SWAP1 PUSH0 MSTORE PUSH1 0x20 PUSH0 KECCAK256 SWAP1 JUMPDEST DUP2 SLOAD DUP2 MSTORE SWAP1 PUSH1 0x1 ADD SWAP1 PUSH1 0x20 ADD DUP1 DUP4 GT PUSH2 0x2B03 JUMPI DUP3 SWAP1 SUB PUSH1 0x1F AND DUP3 ADD SWAP2 JUMPDEST POP POP POP POP POP SWAP1 DUP1 PUSH1 0x2 ADD SLOAD SWAP1 DUP1 PUSH1 0x3 ADD SLOAD SWAP1 DUP1 PUSH1 0x4 ADD SLOAD SWAP1 DUP1 PUSH1 0x5 ADD SLOAD SWAP1 DUP1 PUSH1 0x6 ADD SLOAD SWAP1 POP DUP8 JUMP JUMPDEST PUSH0 PUSH2 0x2B52 DUP3 PUSH2 0x3D23 JUMP JUMPDEST SWAP3 SWAP2 POP POP JUMP JUMPDEST PUSH1 0x1 PUSH1 0x1 PUSH1 0xA0 SHL SUB SWAP2 SWAP1 SWAP2 AND PUSH0 SWAP1 DUP2 MSTORE PUSH1 0x1A PUSH1 0x20 SWAP1 DUP2 MSTORE PUSH1 0x40 DUP1 DUP4 KECCAK256 SWAP4 DUP4 MSTORE SWAP3 SWAP1 MSTORE KECCAK256 SLOAD SWAP1 JUMP JUMPDEST CALLER PUSH0 SWAP1 DUP2 MSTORE PUSH1 0x12 PUSH1 0x20 MSTORE PUSH1 0x40 DUP2 KECCAK256 PUSH1 0x8 ADD SLOAD TIMESTAMP LT ISZERO PUSH2 0x2BCA JUMPI PUSH1 0x40 MLOAD PUSH3 0x461BCD PUSH1 0xE5 SHL DUP2 MSTORE PUSH1 0x20 PUSH1 0x4 DUP3 ADD MSTORE PUSH1 0x7 PUSH1 0x24 DUP3 ADD MSTORE PUSH7 0x41637469766521 PUSH1 0xC8 SHL PUSH1 0x44 DUP3 ADD MSTORE PUSH1 0x64 ADD PUSH2 0xC14 JUMP JUMPDEST PUSH2 0x2653 CALLER TIMESTAMP PUSH0 PUSH2 0x3D3F JUMP JUMPDEST DUP1 PUSH2 0x2BE0 DUP5 DUP5 PUSH2 0x2B58 JUMP JUMPDEST LT ISZERO PUSH2 0xE5E JUMPI PUSH1 0x40 MLOAD PUSH3 0x461BCD PUSH1 0xE5 SHL DUP2 MSTORE PUSH1 0x20 PUSH1 0x4 DUP3 ADD MSTORE PUSH1 0x13 PUSH1 0x24 DUP3 ADD MSTORE PUSH19 0x496E73756666696369656E742066756E647321 PUSH1 0x68 SHL PUSH1 0x44 DUP3 ADD MSTORE PUSH1 0x64 ADD PUSH2 0xC14 JUMP JUMPDEST CALLER PUSH2 0x2C2E DUP3 PUSH2 0x2B48 JUMP JUMPDEST DUP1 ISZERO PUSH2 0x2C53 JUMPI POP PUSH1 0x1 PUSH1 0x1 PUSH1 0xA0 SHL SUB DUP3 AND PUSH0 SWAP1 DUP2 MSTORE PUSH1 0x12 PUSH1 0x20 MSTORE PUSH1 0x40 SWAP1 KECCAK256 PUSH1 0x4 ADD SLOAD ISZERO ISZERO JUMPDEST PUSH2 0x2C6F JUMPI PUSH1 0x40 MLOAD PUSH3 0x461BCD PUSH1 0xE5 SHL DUP2 MSTORE PUSH1 0x4 ADD PUSH2 0xC14 SWAP1 PUSH2 0x5D71 JUMP JUMPDEST PUSH2 0x2C78 DUP2 PUSH2 0x3D23 JUMP JUMPDEST ISZERO PUSH2 0x2CBB JUMPI PUSH1 0x40 MLOAD PUSH3 0x461BCD PUSH1 0xE5 SHL DUP2 MSTORE PUSH1 0x20 PUSH1 0x4 DUP3 ADD MSTORE PUSH1 0x13 PUSH1 0x24 DUP3 ADD MSTORE PUSH19 0x416C7265616479207265676973746572656421 PUSH1 0x68 SHL PUSH1 0x44 DUP3 ADD MSTORE PUSH1 0x64 ADD PUSH2 0xC14 JUMP JUMPDEST PUSH2 0x24FC DUP2 DUP4 PUSH2 0x3DFF JUMP JUMPDEST PUSH2 0x2CCD PUSH2 0x31B6 JUMP JUMPDEST PUSH2 0x2CE9 JUMPI PUSH1 0x40 MLOAD PUSH3 0x461BCD PUSH1 0xE5 SHL DUP2 MSTORE PUSH1 0x4 ADD PUSH2 0xC14 SWAP1 PUSH2 0x5D71 JUMP JUMPDEST DUP2 PUSH1 0x2 DUP2 SWAP1 SUB PUSH2 0x2D13 JUMPI PUSH1 0x3 DUP1 SLOAD PUSH1 0x1 PUSH1 0x1 PUSH1 0xA0 SHL SUB NOT AND PUSH1 0x1 PUSH1 0x1 PUSH1 0xA0 SHL SUB DUP7 AND OR SWAP1 SSTORE PUSH2 0x2E4A JUMP JUMPDEST DUP1 PUSH1 0x3 SUB PUSH2 0x2D3B JUMPI PUSH1 0x4 DUP1 SLOAD PUSH1 0x1 PUSH1 0x1 PUSH1 0xA0 SHL SUB NOT AND PUSH1 0x1 PUSH1 0x1 PUSH1 0xA0 SHL SUB DUP7 AND OR SWAP1 SSTORE PUSH2 0x2E4A JUMP JUMPDEST DUP1 PUSH1 0x4 SUB PUSH2 0x2D63 JUMPI PUSH1 0x6 DUP1 SLOAD PUSH1 0x1 PUSH1 0x1 PUSH1 0xA0 SHL SUB NOT AND PUSH1 0x1 PUSH1 0x1 PUSH1 0xA0 SHL SUB DUP7 AND OR SWAP1 SSTORE PUSH2 0x2E4A JUMP JUMPDEST DUP1 PUSH1 0x5 SUB PUSH2 0x2D9D JUMPI PUSH1 0x1 PUSH0 MSTORE PUSH1 0xF PUSH1 0x20 MSTORE PUSH32 0x169F97DE0D9A84D840042B17D3C6B9638B3D6FD9024C9EB0C7A306A17B49F894 DUP3 SWAP1 SSTORE PUSH2 0x2E4A JUMP JUMPDEST DUP1 PUSH1 0x6 SUB PUSH2 0x2E10 JUMPI PUSH0 DUP3 GT PUSH2 0x2E06 JUMPI PUSH1 0x40 MLOAD PUSH3 0x461BCD PUSH1 0xE5 SHL DUP2 MSTORE PUSH1 0x20 PUSH1 0x4 DUP3 ADD MSTORE PUSH1 0x29 PUSH1 0x24 DUP3 ADD MSTORE PUSH32 0x4465706F73697420616D6F756E74206D75737420626520677265617465722074 PUSH1 0x44 DUP3 ADD MSTORE PUSH9 0x68616E207A65726F21 PUSH1 0xB8 SHL PUSH1 0x64 DUP3 ADD MSTORE PUSH1 0x84 ADD PUSH2 0xC14 JUMP JUMPDEST PUSH1 0x20 DUP3 SWAP1 SSTORE PUSH2 0x2E4A JUMP JUMPDEST DUP1 PUSH1 0x7 SUB PUSH2 0x2E38 JUMPI PUSH1 0xC DUP1 SLOAD PUSH1 0x1 PUSH1 0x1 PUSH1 0xA0 SHL SUB NOT AND PUSH1 0x1 PUSH1 0x1 PUSH1 0xA0 SHL SUB DUP7 AND OR SWAP1 SSTORE PUSH2 0x2E4A JUMP JUMPDEST DUP1 PUSH1 0x8 SUB PUSH2 0x2E4A JUMPI PUSH2 0x2E4A DUP5 DUP4 PUSH2 0x3305 JUMP JUMPDEST POP POP POP POP JUMP JUMPDEST PUSH0 DUP2 DUP2 MSTORE PUSH1 0x10 PUSH1 0x20 SWAP1 DUP2 MSTORE PUSH1 0x40 DUP1 DUP4 KECCAK256 PUSH1 0x2 ADD SLOAD PUSH1 0x1 PUSH1 0x1 PUSH1 0xA0 SHL SUB DUP7 AND DUP5 MSTORE PUSH1 0x12 SWAP1 SWAP3 MSTORE DUP3 KECCAK256 PUSH1 0x9 ADD SLOAD LT PUSH2 0x2E88 JUMPI POP PUSH1 0x1 PUSH2 0x2B52 JUMP JUMPDEST POP PUSH0 SWAP3 SWAP2 POP POP JUMP JUMPDEST PUSH1 0x1 PUSH1 0x1 PUSH1 0xA0 SHL SUB DUP2 AND PUSH0 SWAP1 DUP2 MSTORE PUSH1 0x19 PUSH1 0x20 SWAP1 DUP2 MSTORE PUSH1 0x40 DUP1 DUP4 KECCAK256 DUP2 MLOAD PUSH1 0xC0 DUP2 ADD DUP4 MSTORE DUP2 SLOAD DUP2 MSTORE PUSH1 0x1 DUP3 ADD SLOAD DUP2 DUP6 ADD MSTORE PUSH1 0x2 DUP3 ADD DUP1 SLOAD DUP5 MLOAD DUP2 DUP8 MUL DUP2 ADD DUP8 ADD DUP7 MSTORE DUP2 DUP2 MSTORE DUP8 SWAP7 DUP8 SWAP7 SWAP5 SWAP6 SWAP5 DUP7 ADD SWAP4 SWAP2 SWAP3 SWAP1 DUP4 ADD DUP3 DUP3 DUP1 ISZERO PUSH2 0x2F0D JUMPI PUSH1 0x20 MUL DUP3 ADD SWAP2 SWAP1 PUSH0 MSTORE PUSH1 0x20 PUSH0 KECCAK256 SWAP1 JUMPDEST DUP2 SLOAD DUP2 MSTORE PUSH1 0x20 ADD SWAP1 PUSH1 0x1 ADD SWAP1 DUP1 DUP4 GT PUSH2 0x2EF9 JUMPI JUMPDEST POP POP POP POP POP DUP2 MSTORE PUSH1 0x20 ADD PUSH1 0x3 DUP3 ADD SLOAD DUP2 MSTORE PUSH1 0x20 ADD PUSH1 0x4 DUP3 ADD SLOAD DUP2 MSTORE PUSH1 0x20 ADD PUSH1 0x5 DUP3 ADD SLOAD DUP2 MSTORE POP POP SWAP1 POP PUSH0 JUMPDEST DUP2 PUSH1 0x40 ADD MLOAD MLOAD DUP2 LT ISZERO PUSH2 0x2F78 JUMPI DUP2 PUSH1 0x40 ADD MLOAD DUP2 DUP2 MLOAD DUP2 LT PUSH2 0x2F5B JUMPI PUSH2 0x2F5B PUSH2 0x5C6D JUMP JUMPDEST PUSH1 0x20 MUL PUSH1 0x20 ADD ADD MLOAD DUP4 PUSH2 0x2F6E SWAP2 SWAP1 PUSH2 0x5CFF JUMP JUMPDEST SWAP3 POP PUSH1 0x1 ADD PUSH2 0x2F38 JUMP JUMPDEST POP SWAP1 SWAP4 SWAP3 POP POP POP JUMP JUMPDEST PUSH1 0x1 PUSH1 0x1 PUSH1 0xA0 SHL SUB DUP2 AND PUSH0 SWAP1 DUP2 MSTORE PUSH1 0x1B PUSH1 0x20 MSTORE PUSH1 0x40 DUP2 KECCAK256 SLOAD TIMESTAMP SWAP1 DUP3 SWAP1 PUSH1 0x1 JUMPDEST DUP2 DUP2 GT PUSH2 0x3034 JUMPI PUSH1 0x1 PUSH1 0x1 PUSH1 0xA0 SHL SUB DUP7 AND PUSH0 SWAP1 DUP2 MSTORE PUSH1 0x15 PUSH1 0x20 SWAP1 DUP2 MSTORE PUSH1 0x40 DUP1 DUP4 KECCAK256 DUP5 DUP5 MSTORE DUP3 MSTORE SWAP2 DUP3 SWAP1 KECCAK256 DUP3 MLOAD PUSH1 0xA0 DUP2 ADD DUP5 MSTORE DUP2 SLOAD DUP2 MSTORE PUSH1 0x1 DUP3 ADD SLOAD SWAP3 DUP2 ADD SWAP3 SWAP1 SWAP3 MSTORE PUSH1 0x2 DUP2 ADD SLOAD SWAP3 DUP3 ADD SWAP3 SWAP1 SWAP3 MSTORE PUSH1 0x3 DUP3 ADD SLOAD PUSH1 0x60 DUP3 ADD DUP2 SWAP1 MSTORE PUSH1 0x4 SWAP1 SWAP3 ADD SLOAD PUSH1 0x80 DUP3 ADD DUP2 SWAP1 MSTORE SWAP1 SWAP2 GT ISZERO PUSH2 0x3021 JUMPI PUSH1 0x20 DUP2 ADD MLOAD PUSH2 0x301E SWAP1 DUP6 PUSH2 0x5CFF JUMP JUMPDEST SWAP4 POP JUMPDEST POP DUP1 PUSH2 0x302C DUP2 PUSH2 0x5C41 JUMP JUMPDEST SWAP2 POP POP PUSH2 0x2FA0 JUMP JUMPDEST POP PUSH1 0x1 PUSH1 0x1 PUSH1 0xA0 SHL SUB DUP6 AND PUSH0 SWAP1 DUP2 MSTORE PUSH1 0x12 PUSH1 0x20 MSTORE PUSH1 0x40 SWAP1 KECCAK256 PUSH1 0x7 DUP2 ADD SLOAD PUSH1 0x8 SWAP1 SWAP2 ADD SLOAD DUP2 DUP6 GT ISZERO DUP1 PUSH2 0x3066 JUMPI POP DUP2 DUP2 GT ISZERO JUMPDEST ISZERO PUSH2 0x3077 JUMPI POP PUSH0 SWAP7 SWAP6 POP POP POP POP POP POP JUMP JUMPDEST PUSH0 DUP3 DUP7 DUP4 GT ISZERO PUSH2 0x3087 JUMPI DUP7 PUSH2 0x3089 JUMP JUMPDEST DUP3 JUMPDEST PUSH2 0x3093 SWAP2 SWAP1 PUSH2 0x5C0F JUMP JUMPDEST SWAP1 POP PUSH0 PUSH2 0x30A0 DUP5 DUP5 PUSH2 0x5C0F JUMP JUMPDEST SWAP1 POP PUSH0 PUSH2 0x30AE DUP3 PUSH1 0x64 PUSH2 0x5BC2 JUMP JUMPDEST DUP4 PUSH2 0x30BA DUP10 PUSH1 0xA PUSH2 0x5BC2 JUMP JUMPDEST PUSH2 0x30C4 SWAP2 SWAP1 PUSH2 0x5BC2 JUMP JUMPDEST PUSH2 0x30CE SWAP2 SWAP1 PUSH2 0x5BD9 JUMP JUMPDEST SWAP1 POP PUSH2 0x30DA DUP11 DUP3 PUSH2 0x41DC JUMP JUMPDEST SWAP11 SWAP10 POP POP POP POP POP POP POP POP POP POP JUMP JUMPDEST PUSH0 PUSH2 0x30F2 DUP3 PUSH2 0x2E90 JUMP JUMPDEST PUSH1 0x1 PUSH1 0x1 PUSH1 0xA0 SHL SUB DUP4 AND PUSH0 SWAP1 DUP2 MSTORE PUSH1 0x19 PUSH1 0x20 MSTORE PUSH1 0x40 SWAP1 KECCAK256 PUSH1 0x4 DUP2 ADD SLOAD DUP2 SLOAD PUSH1 0x1 SWAP1 SWAP3 ADD SLOAD SWAP1 SWAP2 PUSH2 0x3121 SWAP2 PUSH2 0x5CFF JUMP JUMPDEST PUSH2 0x312B SWAP2 SWAP1 PUSH2 0x5CFF JUMP JUMPDEST PUSH2 0x2B52 SWAP2 SWAP1 PUSH2 0x5CFF JUMP JUMPDEST PUSH1 0x1 PUSH1 0x1 PUSH1 0xA0 SHL SUB DUP2 AND PUSH0 SWAP1 DUP2 MSTORE PUSH1 0x12 PUSH1 0x20 MSTORE PUSH1 0x40 DUP2 KECCAK256 PUSH1 0x4 DUP2 ADD SLOAD PUSH1 0xA SWAP1 SWAP2 ADD SLOAD PUSH1 0xFF AND PUSH2 0x3165 JUMPI PUSH1 0x3 PUSH2 0x3168 JUMP JUMPDEST PUSH1 0x4 JUMPDEST PUSH1 0xFF AND PUSH2 0x2B52 SWAP2 SWAP1 PUSH2 0x5BC2 JUMP JUMPDEST PUSH1 0x1 PUSH1 0x1 PUSH1 0xA0 SHL SUB DUP2 AND PUSH0 SWAP1 DUP2 MSTORE PUSH1 0x12 PUSH1 0x20 MSTORE PUSH1 0x40 DUP2 KECCAK256 PUSH1 0x6 ADD SLOAD PUSH2 0x2B52 SWAP1 PUSH2 0xA8C PUSH2 0x5CFF JUMP JUMPDEST PUSH0 PUSH2 0x31A6 DUP3 PUSH2 0x3135 JUMP JUMPDEST PUSH2 0x31AF DUP4 PUSH2 0x30E8 JUMP JUMPDEST LT SWAP3 SWAP2 POP POP JUMP JUMPDEST PUSH1 0x3 SLOAD PUSH0 SWAP1 PUSH1 0x1 PUSH1 0x1 PUSH1 0xA0 SHL SUB AND CALLER EQ DUP1 PUSH2 0x2653 JUMPI POP POP PUSH1 0xC SLOAD PUSH1 0x1 PUSH1 0x1 PUSH1 0xA0 SHL SUB AND CALLER EQ SWAP1 JUMP JUMPDEST PUSH2 0x31E7 DUP2 PUSH2 0x2B48 JUMP JUMPDEST PUSH2 0x322B JUMPI PUSH1 0x40 MLOAD PUSH3 0x461BCD PUSH1 0xE5 SHL DUP2 MSTORE PUSH1 0x20 PUSH1 0x4 DUP3 ADD MSTORE PUSH1 0x15 PUSH1 0x24 DUP3 ADD MSTORE PUSH21 0x496E76616C69642073656E64696E67207573657221 PUSH1 0x58 SHL PUSH1 0x44 DUP3 ADD MSTORE PUSH1 0x64 ADD PUSH2 0xC14 JUMP JUMPDEST PUSH2 0x3234 DUP2 PUSH2 0x430D JUMP JUMPDEST ISZERO PUSH2 0x3278 JUMPI PUSH1 0x40 MLOAD PUSH3 0x461BCD PUSH1 0xE5 SHL DUP2 MSTORE PUSH1 0x20 PUSH1 0x4 DUP3 ADD MSTORE PUSH1 0x14 PUSH1 0x24 DUP3 ADD MSTORE PUSH20 0x2CB7BAB91024A21034B99034B730B1BA34BB3297 PUSH1 0x61 SHL PUSH1 0x44 DUP3 ADD MSTORE PUSH1 0x64 ADD PUSH2 0xC14 JUMP JUMPDEST POP JUMP JUMPDEST PUSH0 PUSH2 0x3288 PUSH1 0x12 PUSH1 0xA PUSH2 0x5E7E JUMP JUMPDEST PUSH2 0x2B52 SWAP1 DUP4 PUSH2 0x5BC2 JUMP JUMPDEST PUSH1 0x40 MLOAD PUSH4 0x70A08231 PUSH1 0xE0 SHL DUP2 MSTORE ADDRESS PUSH1 0x4 DUP3 ADD MSTORE PUSH0 SWAP1 PUSH20 0x4622B46DF102FD8648385BC96FD7A837111AEC61 SWAP1 PUSH4 0x70A08231 SWAP1 PUSH1 0x24 ADD PUSH1 0x20 PUSH1 0x40 MLOAD DUP1 DUP4 SUB DUP2 DUP7 GAS STATICCALL ISZERO DUP1 ISZERO PUSH2 0x32E1 JUMPI RETURNDATASIZE PUSH0 DUP1 RETURNDATACOPY RETURNDATASIZE PUSH0 REVERT JUMPDEST POP POP POP POP PUSH1 0x40 MLOAD RETURNDATASIZE PUSH1 0x1F NOT PUSH1 0x1F DUP3 ADD AND DUP3 ADD DUP1 PUSH1 0x40 MSTORE POP DUP2 ADD SWAP1 PUSH2 0x2653 SWAP2 SWAP1 PUSH2 0x5BF8 JUMP JUMPDEST PUSH1 0x40 MLOAD PUSH4 0xA9059CBB PUSH1 0xE0 SHL DUP2 MSTORE PUSH1 0x1 PUSH1 0x1 PUSH1 0xA0 SHL SUB DUP4 AND PUSH1 0x4 DUP3 ADD MSTORE PUSH1 0x24 DUP2 ADD DUP3 SWAP1 MSTORE PUSH20 0x4622B46DF102FD8648385BC96FD7A837111AEC61 SWAP1 PUSH4 0xA9059CBB SWAP1 PUSH1 0x44 ADD PUSH1 0x20 PUSH1 0x40 MLOAD DUP1 DUP4 SUB DUP2 PUSH0 DUP8 GAS CALL ISZERO DUP1 ISZERO PUSH2 0x3363 JUMPI RETURNDATASIZE PUSH0 DUP1 RETURNDATACOPY RETURNDATASIZE PUSH0 REVERT JUMPDEST POP POP POP POP PUSH1 0x40 MLOAD RETURNDATASIZE PUSH1 0x1F NOT PUSH1 0x1F DUP3 ADD AND DUP3 ADD DUP1 PUSH1 0x40 MSTORE POP DUP2 ADD SWAP1 PUSH2 0xE5E SWAP2 SWAP1 PUSH2 0x5C22 JUMP JUMPDEST PUSH1 0x7 SLOAD PUSH1 0x1 PUSH1 0x1 PUSH1 0xA0 SHL SUB AND PUSH2 0x33DF JUMPI PUSH1 0x40 MLOAD PUSH3 0x461BCD PUSH1 0xE5 SHL DUP2 MSTORE PUSH1 0x20 PUSH1 0x4 DUP3 ADD MSTORE PUSH1 0x1E PUSH1 0x24 DUP3 ADD MSTORE PUSH32 0x53656375726974792066756E6420636F6E7472616374206E6F74207365740000 PUSH1 0x44 DUP3 ADD MSTORE PUSH1 0x64 ADD PUSH2 0xC14 JUMP JUMPDEST PUSH1 0x7 SLOAD PUSH1 0x40 MLOAD PUSH4 0x58908A0F PUSH1 0xE0 SHL DUP2 MSTORE PUSH20 0x4622B46DF102FD8648385BC96FD7A837111AEC61 PUSH1 0x4 DUP3 ADD MSTORE PUSH1 0x1 PUSH1 0x1 PUSH1 0xA0 SHL SUB DUP5 DUP2 AND PUSH1 0x24 DUP4 ADD MSTORE PUSH1 0x44 DUP3 ADD DUP5 SWAP1 MSTORE SWAP1 SWAP2 AND SWAP1 PUSH4 0x58908A0F SWAP1 PUSH1 0x64 ADD PUSH0 PUSH1 0x40 MLOAD DUP1 DUP4 SUB DUP2 PUSH0 DUP8 DUP1 EXTCODESIZE ISZERO DUP1 ISZERO PUSH2 0x3444 JUMPI PUSH0 DUP1 REVERT JUMPDEST POP GAS CALL ISZERO DUP1 ISZERO PUSH2 0x1C52 JUMPI RETURNDATASIZE PUSH0 DUP1 RETURNDATACOPY RETURNDATASIZE PUSH0 REVERT JUMPDEST PUSH1 0x1 PUSH1 0x1 PUSH1 0xA0 SHL SUB DUP3 AND PUSH0 SWAP1 DUP2 MSTORE PUSH1 0x1B PUSH1 0x20 MSTORE PUSH1 0x40 DUP2 KECCAK256 SLOAD PUSH1 0x1 JUMPDEST DUP2 DUP2 GT PUSH2 0x34C1 JUMPI PUSH1 0x1 PUSH1 0x1 PUSH1 0xA0 SHL SUB DUP6 AND PUSH0 SWAP1 DUP2 MSTORE PUSH1 0x15 PUSH1 0x20 SWAP1 DUP2 MSTORE PUSH1 0x40 DUP1 DUP4 KECCAK256 DUP5 DUP5 MSTORE SWAP1 SWAP2 MSTORE SWAP1 KECCAK256 PUSH1 0x1 ADD SLOAD DUP5 GT PUSH2 0x34AF JUMPI PUSH1 0x1 SWAP3 POP POP POP PUSH2 0x2B52 JUMP JUMPDEST DUP1 PUSH2 0x34B9 DUP2 PUSH2 0x5C41 JUMP JUMPDEST SWAP2 POP POP PUSH2 0x3471 JUMP JUMPDEST POP PUSH0 SWAP5 SWAP4 POP POP POP POP JUMP JUMPDEST CALLER PUSH2 0x34D5 DUP2 PUSH2 0x3D23 JUMP JUMPDEST PUSH2 0x34F1 JUMPI PUSH1 0x40 MLOAD PUSH3 0x461BCD PUSH1 0xE5 SHL DUP2 MSTORE PUSH1 0x4 ADD PUSH2 0xC14 SWAP1 PUSH2 0x5D40 JUMP JUMPDEST PUSH2 0x34FA DUP2 PUSH2 0x430D JUMP JUMPDEST PUSH2 0x353A JUMPI PUSH1 0x40 MLOAD PUSH3 0x461BCD PUSH1 0xE5 SHL DUP2 MSTORE PUSH1 0x20 PUSH1 0x4 DUP3 ADD MSTORE PUSH1 0x11 PUSH1 0x24 DUP3 ADD MSTORE PUSH17 0x2BB0B4BA103A34B6361032BC3834B93C97 PUSH1 0x79 SHL PUSH1 0x44 DUP3 ADD MSTORE PUSH1 0x64 ADD PUSH2 0xC14 JUMP JUMPDEST PUSH2 0x3543 DUP3 PUSH2 0x4341 JUMP JUMPDEST PUSH0 PUSH2 0x354F DUP3 DUP6 DUP6 PUSH2 0x35DA JUMP JUMPDEST PUSH1 0x3 SLOAD SWAP1 SWAP2 POP PUSH2 0x357E SWAP1 PUSH1 0x1 PUSH1 0x1 PUSH1 0xA0 SHL SUB AND PUSH1 0x64 PUSH2 0x356F DUP7 PUSH1 0x2 PUSH2 0x5BC2 JUMP JUMPDEST PUSH2 0x3579 SWAP2 SWAP1 PUSH2 0x5BD9 JUMP JUMPDEST PUSH2 0x3305 JUMP JUMPDEST PUSH1 0x4 SLOAD PUSH2 0x359B SWAP1 PUSH1 0x1 PUSH1 0x1 PUSH1 0xA0 SHL SUB AND PUSH1 0x64 PUSH2 0x356F DUP7 PUSH1 0x1 PUSH2 0x5BC2 JUMP JUMPDEST PUSH1 0x6 SLOAD PUSH2 0x35B8 SWAP1 PUSH1 0x1 PUSH1 0x1 PUSH1 0xA0 SHL SUB AND PUSH1 0x64 PUSH2 0x356F DUP7 PUSH1 0x5 PUSH2 0x5BC2 JUMP JUMPDEST DUP1 PUSH2 0x2E4A JUMPI PUSH1 0x5 SLOAD PUSH2 0x2E4A SWAP1 PUSH1 0x1 PUSH1 0x1 PUSH1 0xA0 SHL SUB AND PUSH1 0x64 PUSH2 0x356F DUP7 PUSH1 0x2 PUSH2 0x5BC2 JUMP JUMPDEST PUSH0 DUP3 DUP2 MSTORE PUSH1 0xF PUSH1 0x20 MSTORE PUSH1 0x40 DUP2 KECCAK256 PUSH1 0x3 ADD SLOAD PUSH1 0xFF AND ISZERO DUP1 ISZERO PUSH2 0x360A JUMPI POP PUSH0 DUP4 DUP2 MSTORE PUSH1 0xF PUSH1 0x20 MSTORE PUSH1 0x40 SWAP1 KECCAK256 PUSH1 0x2 ADD SLOAD DUP3 EQ JUMPDEST DUP1 PUSH2 0x365C JUMPI POP PUSH0 DUP4 DUP2 MSTORE PUSH1 0xF PUSH1 0x20 MSTORE PUSH1 0x40 SWAP1 KECCAK256 PUSH1 0x3 ADD SLOAD PUSH1 0xFF AND DUP1 ISZERO PUSH2 0x3640 JUMPI POP PUSH0 DUP4 DUP2 MSTORE PUSH1 0xF PUSH1 0x20 MSTORE PUSH1 0x40 SWAP1 KECCAK256 PUSH1 0x4 ADD SLOAD DUP3 LT ISZERO JUMPDEST DUP1 ISZERO PUSH2 0x365C JUMPI POP PUSH0 DUP4 DUP2 MSTORE PUSH1 0xF PUSH1 0x20 MSTORE PUSH1 0x40 SWAP1 KECCAK256 PUSH1 0x5 ADD SLOAD DUP3 GT ISZERO JUMPDEST PUSH2 0x3678 JUMPI PUSH1 0x40 MLOAD PUSH3 0x461BCD PUSH1 0xE5 SHL DUP2 MSTORE PUSH1 0x4 ADD PUSH2 0xC14 SWAP1 PUSH2 0x5E89 JUMP JUMPDEST PUSH1 0x1 PUSH1 0x1 PUSH1 0xA0 SHL SUB DUP5 AND PUSH0 SWAP1 DUP2 MSTORE PUSH1 0x15 PUSH1 0x20 SWAP1 DUP2 MSTORE PUSH1 0x40 DUP1 DUP4 KECCAK256 PUSH1 0x1B DUP4 MSTORE DUP2 DUP5 KECCAK256 SLOAD DUP5 MSTORE SWAP1 SWAP2 MSTORE SWAP1 KECCAK256 PUSH1 0x1 ADD SLOAD DUP3 LT ISZERO PUSH2 0x371A JUMPI PUSH1 0x40 MLOAD PUSH3 0x461BCD PUSH1 0xE5 SHL DUP2 MSTORE PUSH1 0x20 PUSH1 0x4 DUP3 ADD MSTORE PUSH1 0x3D PUSH1 0x24 DUP3 ADD MSTORE PUSH32 0x416D6F756E74206D75737420626520657175616C20746F206F72206D6F726520 PUSH1 0x44 DUP3 ADD MSTORE PUSH32 0x7468616E2070726576696F7573206465706F73697420616D6F756E742E000000 PUSH1 0x64 DUP3 ADD MSTORE PUSH1 0x84 ADD PUSH2 0xC14 JUMP JUMPDEST POP PUSH1 0x1 PUSH1 0x1 PUSH1 0xA0 SHL SUB DUP4 AND PUSH0 SWAP1 DUP2 MSTORE PUSH1 0x12 PUSH1 0x20 MSTORE PUSH1 0x40 DUP2 KECCAK256 PUSH1 0xA ADD SLOAD PUSH1 0x1 DUP1 SLOAD PUSH2 0x100 SWAP1 SWAP3 DIV PUSH1 0xFF AND ISZERO SWAP3 TIMESTAMP SWAP3 DUP6 SWAP3 SWAP2 SWAP1 PUSH2 0x3756 SWAP1 DUP5 SWAP1 PUSH2 0x5CFF JUMP JUMPDEST SWAP1 SWAP2 SSTORE POP POP PUSH1 0x1 PUSH1 0x1 PUSH1 0xA0 SHL SUB DUP1 DUP7 AND PUSH0 SWAP1 DUP2 MSTORE PUSH1 0x12 PUSH1 0x20 MSTORE PUSH1 0x40 DUP2 KECCAK256 PUSH1 0x2 DUP2 ADD SLOAD PUSH1 0x4 SWAP1 SWAP2 ADD DUP1 SLOAD SWAP2 SWAP1 SWAP4 AND SWAP3 DUP7 SWAP3 SWAP1 SWAP2 PUSH2 0x3793 SWAP1 DUP5 SWAP1 PUSH2 0x5CFF JUMP JUMPDEST SWAP1 SWAP2 SSTORE POP POP PUSH1 0x1 PUSH1 0x1 PUSH1 0xA0 SHL SUB DUP2 AND PUSH0 SWAP1 DUP2 MSTORE PUSH1 0x14 PUSH1 0x20 MSTORE PUSH1 0x40 DUP2 KECCAK256 DUP1 SLOAD DUP7 SWAP3 SWAP1 PUSH2 0x37BF SWAP1 DUP5 SWAP1 PUSH2 0x5CFF JUMP JUMPDEST SWAP1 SWAP2 SSTORE POP POP DUP3 ISZERO PUSH2 0x3824 JUMPI PUSH1 0x1 PUSH1 0x1 PUSH1 0xA0 SHL SUB DUP2 AND ISZERO PUSH2 0x381A JUMPI PUSH1 0x1 PUSH1 0x1 PUSH1 0xA0 SHL SUB DUP2 DUP2 AND PUSH0 SWAP1 DUP2 MSTORE PUSH1 0x14 PUSH1 0x20 SWAP1 DUP2 MSTORE PUSH1 0x40 DUP3 KECCAK256 PUSH1 0x1 SWAP1 DUP2 ADD DUP1 SLOAD SWAP2 DUP3 ADD DUP2 SSTORE DUP4 MSTORE SWAP2 KECCAK256 ADD DUP1 SLOAD PUSH1 0x1 PUSH1 0x1 PUSH1 0xA0 SHL SUB NOT AND SWAP2 DUP9 AND SWAP2 SWAP1 SWAP2 OR SWAP1 SSTORE JUMPDEST PUSH2 0x3824 DUP2 DUP8 PUSH2 0x4401 JUMP JUMPDEST PUSH2 0x382E DUP7 DUP6 PUSH2 0x448F JUMP JUMPDEST PUSH1 0x40 DUP1 MLOAD PUSH1 0xA0 DUP2 ADD DUP3 MSTORE DUP7 DUP2 MSTORE PUSH1 0x20 DUP1 DUP3 ADD DUP8 SWAP1 MSTORE DUP2 DUP4 ADD DUP6 SWAP1 MSTORE PUSH1 0x1 PUSH1 0x1 PUSH1 0xA0 SHL SUB DUP10 AND PUSH0 SWAP1 DUP2 MSTORE PUSH1 0x12 SWAP1 SWAP2 MSTORE SWAP2 DUP3 KECCAK256 PUSH1 0xA ADD SLOAD PUSH1 0x60 DUP3 ADD SWAP1 DUP8 SWAP1 PUSH1 0xFF AND PUSH2 0x3878 JUMPI PUSH1 0x3 PUSH2 0x387B JUMP JUMPDEST PUSH1 0x4 JUMPDEST PUSH1 0xFF AND PUSH2 0x3888 SWAP2 SWAP1 PUSH2 0x5BC2 JUMP JUMPDEST DUP2 MSTORE PUSH0 PUSH1 0x20 SWAP2 DUP3 ADD DUP2 SWAP1 MSTORE PUSH1 0x1 PUSH1 0x1 PUSH1 0xA0 SHL SUB DUP11 AND DUP2 MSTORE PUSH1 0x15 DUP3 MSTORE PUSH1 0x40 DUP1 DUP3 KECCAK256 PUSH1 0x1B SWAP1 SWAP4 MSTORE DUP2 KECCAK256 SLOAD SWAP3 SWAP4 POP DUP4 SWAP3 PUSH2 0x38C0 SWAP1 PUSH1 0x1 PUSH2 0x5CFF JUMP JUMPDEST DUP2 MSTORE PUSH1 0x20 DUP1 DUP3 ADD SWAP3 SWAP1 SWAP3 MSTORE PUSH1 0x40 SWAP1 DUP2 ADD PUSH0 SWAP1 DUP2 KECCAK256 DUP5 MLOAD DUP2 SSTORE DUP5 DUP5 ADD MLOAD PUSH1 0x1 DUP3 ADD SSTORE DUP5 DUP4 ADD MLOAD PUSH1 0x2 DUP3 ADD SSTORE PUSH1 0x60 DUP6 ADD MLOAD PUSH1 0x3 DUP3 ADD SSTORE PUSH1 0x80 SWAP1 SWAP5 ADD MLOAD PUSH1 0x4 SWAP1 SWAP5 ADD SWAP4 SWAP1 SWAP4 SSTORE PUSH1 0x1 PUSH1 0x1 PUSH1 0xA0 SHL SUB DUP11 AND DUP4 MSTORE PUSH1 0x1B SWAP1 SWAP2 MSTORE DUP2 KECCAK256 DUP1 SLOAD SWAP2 PUSH2 0x3922 DUP4 PUSH2 0x5C41 JUMP JUMPDEST SWAP2 SWAP1 POP SSTORE POP PUSH2 0x3930 DUP8 PUSH2 0x4778 JUMP JUMPDEST PUSH2 0x393B DUP8 DUP7 PUSH0 PUSH2 0x47B2 JUMP JUMPDEST PUSH2 0x3946 DUP8 DUP5 DUP8 PUSH2 0x3D3F JUMP JUMPDEST POP DUP4 ISZERO PUSH2 0x39E4 JUMPI PUSH1 0x1 PUSH1 0x1 PUSH1 0xA0 SHL SUB DUP8 AND PUSH0 DUP2 DUP2 MSTORE PUSH1 0x12 PUSH1 0x20 MSTORE PUSH1 0x40 DUP2 KECCAK256 PUSH1 0x6 ADD DUP6 SWAP1 SSTORE PUSH1 0x1E DUP1 SLOAD PUSH1 0x1 DUP2 ADD DUP3 SSTORE SWAP2 MSTORE PUSH32 0x50BB669A95C7B50B7E8A6F09454034B2B14CF2B85C730DCA9A539CA82CB6E350 ADD DUP1 SLOAD PUSH1 0x1 PUSH1 0x1 PUSH1 0xA0 SHL SUB NOT AND SWAP1 SWAP2 OR SWAP1 SSTORE PUSH2 0x39B3 DUP8 DUP7 PUSH2 0x48E2 JUMP JUMPDEST PUSH2 0x39BC DUP6 PUSH2 0x49FF JUMP JUMPDEST PUSH1 0x1 PUSH1 0x1 PUSH1 0xA0 SHL SUB DUP8 AND PUSH0 SWAP1 DUP2 MSTORE PUSH1 0x12 PUSH1 0x20 MSTORE PUSH1 0x40 SWAP1 KECCAK256 PUSH1 0xA ADD DUP1 SLOAD PUSH2 0xFF00 NOT AND PUSH2 0x100 OR SWAP1 SSTORE JUMPDEST POP POP POP SWAP4 SWAP3 POP POP POP JUMP JUMPDEST PUSH2 0x39F6 PUSH2 0x531E JUMP JUMPDEST PUSH0 PUSH2 0x3A04 PUSH3 0x15180 TIMESTAMP PUSH2 0x5C0F JUMP JUMPDEST PUSH1 0x1E SLOAD SWAP1 SWAP2 POP PUSH0 SWAP1 PUSH1 0x1 PUSH1 0x1 PUSH1 0x40 SHL SUB DUP2 GT ISZERO PUSH2 0x3A23 JUMPI PUSH2 0x3A23 PUSH2 0x5C59 JUMP JUMPDEST PUSH1 0x40 MLOAD SWAP1 DUP1 DUP3 MSTORE DUP1 PUSH1 0x20 MUL PUSH1 0x20 ADD DUP3 ADD PUSH1 0x40 MSTORE DUP1 ISZERO PUSH2 0x3A67 JUMPI DUP2 PUSH1 0x20 ADD JUMPDEST PUSH1 0x40 DUP1 MLOAD DUP1 DUP3 ADD SWAP1 SWAP2 MSTORE PUSH0 DUP1 DUP3 MSTORE PUSH1 0x20 DUP3 ADD MSTORE DUP2 MSTORE PUSH1 0x20 ADD SWAP1 PUSH1 0x1 SWAP1 SUB SWAP1 DUP2 PUSH2 0x3A41 JUMPI SWAP1 POP JUMPDEST POP PUSH1 0x1E SLOAD SWAP1 SWAP2 POP PUSH0 SWAP1 JUMPDEST DUP1 ISZERO PUSH2 0x3C00 JUMPI PUSH0 PUSH1 0x1E PUSH2 0x3A85 PUSH1 0x1 DUP5 PUSH2 0x5C0F JUMP JUMPDEST DUP2 SLOAD DUP2 LT PUSH2 0x3A95 JUMPI PUSH2 0x3A95 PUSH2 0x5C6D JUMP JUMPDEST PUSH0 SWAP2 DUP3 MSTORE PUSH1 0x20 DUP1 DUP4 KECCAK256 SWAP1 SWAP2 ADD SLOAD PUSH1 0x1 PUSH1 0x1 PUSH1 0xA0 SHL SUB AND DUP1 DUP4 MSTORE PUSH1 0x12 SWAP1 SWAP2 MSTORE PUSH1 0x40 SWAP1 SWAP2 KECCAK256 PUSH1 0x6 ADD SLOAD SWAP1 SWAP2 POP DUP6 GT ISZERO PUSH2 0x3ACC JUMPI POP PUSH2 0x3C00 JUMP JUMPDEST PUSH1 0x1 PUSH1 0x1 PUSH1 0xA0 SHL SUB DUP1 DUP3 AND PUSH0 SWAP1 DUP2 MSTORE PUSH1 0x12 PUSH1 0x20 MSTORE PUSH1 0x40 SWAP1 KECCAK256 PUSH1 0x2 ADD SLOAD AND DUP1 PUSH2 0x3AF5 JUMPI POP POP PUSH2 0x3BEE JUMP JUMPDEST PUSH1 0x1 PUSH1 0x1 PUSH1 0xA0 SHL SUB DUP3 AND PUSH0 SWAP1 DUP2 MSTORE PUSH1 0x15 PUSH1 0x20 SWAP1 DUP2 MSTORE PUSH1 0x40 DUP1 DUP4 KECCAK256 PUSH1 0x1 DUP1 DUP6 MSTORE SWAP3 MSTORE DUP3 KECCAK256 ADD SLOAD SWAP1 DUP1 JUMPDEST DUP7 DUP2 LT ISZERO PUSH2 0x3B99 JUMPI DUP4 PUSH1 0x1 PUSH1 0x1 PUSH1 0xA0 SHL SUB AND DUP9 DUP3 DUP2 MLOAD DUP2 LT PUSH2 0x3B41 JUMPI PUSH2 0x3B41 PUSH2 0x5C6D JUMP JUMPDEST PUSH1 0x20 MUL PUSH1 0x20 ADD ADD MLOAD PUSH0 ADD MLOAD PUSH1 0x1 PUSH1 0x1 PUSH1 0xA0 SHL SUB AND SUB PUSH2 0x3B91 JUMPI DUP3 DUP9 DUP3 DUP2 MLOAD DUP2 LT PUSH2 0x3B6D JUMPI PUSH2 0x3B6D PUSH2 0x5C6D JUMP JUMPDEST PUSH1 0x20 MUL PUSH1 0x20 ADD ADD MLOAD PUSH1 0x20 ADD DUP2 DUP2 MLOAD PUSH2 0x3B85 SWAP2 SWAP1 PUSH2 0x5CFF JUMP JUMPDEST SWAP1 MSTORE POP PUSH1 0x1 SWAP2 POP PUSH2 0x3B99 JUMP JUMPDEST PUSH1 0x1 ADD PUSH2 0x3B1D JUMP JUMPDEST POP DUP1 PUSH2 0x3BE9 JUMPI PUSH1 0x40 MLOAD DUP1 PUSH1 0x40 ADD PUSH1 0x40 MSTORE DUP1 DUP5 PUSH1 0x1 PUSH1 0x1 PUSH1 0xA0 SHL SUB AND DUP2 MSTORE PUSH1 0x20 ADD DUP4 DUP2 MSTORE POP DUP8 DUP8 DUP2 MLOAD DUP2 LT PUSH2 0x3BCF JUMPI PUSH2 0x3BCF PUSH2 0x5C6D JUMP JUMPDEST PUSH1 0x20 MUL PUSH1 0x20 ADD ADD DUP2 SWAP1 MSTORE POP DUP6 DUP1 PUSH2 0x3BE5 SWAP1 PUSH2 0x5C41 JUMP JUMPDEST SWAP7 POP POP JUMPDEST POP POP POP POP JUMPDEST DUP1 PUSH2 0x3BF8 DUP2 PUSH2 0x5C81 JUMP JUMPDEST SWAP2 POP POP PUSH2 0x3A71 JUMP JUMPDEST POP PUSH0 JUMPDEST DUP2 DUP2 LT ISZERO PUSH2 0x3D1C JUMPI PUSH0 DUP4 DUP3 DUP2 MLOAD DUP2 LT PUSH2 0x3C1E JUMPI PUSH2 0x3C1E PUSH2 0x5C6D JUMP JUMPDEST PUSH1 0x20 MUL PUSH1 0x20 ADD ADD MLOAD PUSH0 ADD MLOAD SWAP1 POP PUSH0 DUP5 DUP4 DUP2 MLOAD DUP2 LT PUSH2 0x3C3E JUMPI PUSH2 0x3C3E PUSH2 0x5C6D JUMP JUMPDEST PUSH1 0x20 MUL PUSH1 0x20 ADD ADD MLOAD PUSH1 0x20 ADD MLOAD SWAP1 POP PUSH0 JUMPDEST PUSH1 0x3 DUP2 LT ISZERO PUSH2 0x3D11 JUMPI DUP8 DUP2 PUSH1 0x3 DUP2 LT PUSH2 0x3C69 JUMPI PUSH2 0x3C69 PUSH2 0x5C6D JUMP JUMPDEST PUSH1 0x20 MUL ADD MLOAD PUSH1 0x20 ADD MLOAD DUP3 GT ISZERO PUSH2 0x3D09 JUMPI PUSH1 0x2 JUMPDEST DUP2 DUP2 GT ISZERO PUSH2 0x3CCE JUMPI DUP9 PUSH2 0x3C90 PUSH1 0x1 DUP4 PUSH2 0x5C0F JUMP JUMPDEST PUSH1 0x3 DUP2 LT PUSH2 0x3CA0 JUMPI PUSH2 0x3CA0 PUSH2 0x5C6D JUMP JUMPDEST PUSH1 0x20 MUL ADD MLOAD DUP10 DUP3 PUSH1 0x3 DUP2 LT PUSH2 0x3CB7 JUMPI PUSH2 0x3CB7 PUSH2 0x5C6D JUMP JUMPDEST PUSH1 0x20 MUL ADD MSTORE DUP1 PUSH2 0x3CC6 DUP2 PUSH2 0x5C81 JUMP JUMPDEST SWAP2 POP POP PUSH2 0x3C7C JUMP JUMPDEST POP PUSH1 0x40 MLOAD DUP1 PUSH1 0x40 ADD PUSH1 0x40 MSTORE DUP1 DUP5 PUSH1 0x1 PUSH1 0x1 PUSH1 0xA0 SHL SUB AND DUP2 MSTORE PUSH1 0x20 ADD DUP4 DUP2 MSTORE POP DUP9 DUP3 PUSH1 0x3 DUP2 LT PUSH2 0x3CFF JUMPI PUSH2 0x3CFF PUSH2 0x5C6D JUMP JUMPDEST PUSH1 0x20 MUL ADD MSTORE PUSH2 0x3D11 JUMP JUMPDEST PUSH1 0x1 ADD PUSH2 0x3C4E JUMP JUMPDEST POP POP POP PUSH1 0x1 ADD PUSH2 0x3C03 JUMP JUMPDEST POP POP POP POP SWAP1 JUMP JUMPDEST PUSH1 0x1 PUSH1 0x1 PUSH1 0xA0 SHL SUB AND PUSH0 SWAP1 DUP2 MSTORE PUSH1 0x12 PUSH1 0x20 MSTORE PUSH1 0x40 SWAP1 KECCAK256 SLOAD ISZERO ISZERO SWAP1 JUMP JUMPDEST PUSH1 0x1 PUSH1 0x1 PUSH1 0xA0 SHL SUB DUP4 AND PUSH0 SWAP1 DUP2 MSTORE PUSH1 0x1B PUSH1 0x20 MSTORE PUSH1 0x40 DUP2 KECCAK256 PUSH1 0x3 ADD SLOAD DUP2 SWAP1 PUSH2 0x3D68 SWAP1 PUSH1 0x2 SWAP1 PUSH2 0x5BD9 JUMP JUMPDEST PUSH2 0x3D73 SWAP1 PUSH1 0xA PUSH2 0x5CFF JUMP JUMPDEST SWAP1 POP PUSH0 PUSH2 0x3D81 DUP3 PUSH1 0x3C PUSH2 0x5BC2 JUMP JUMPDEST PUSH2 0x3D8B SWAP1 DUP7 PUSH2 0x5CFF JUMP JUMPDEST PUSH1 0x1 PUSH1 0x1 PUSH1 0xA0 SHL SUB DUP8 AND PUSH0 SWAP1 DUP2 MSTORE PUSH1 0x12 PUSH1 0x20 SWAP1 DUP2 MSTORE PUSH1 0x40 DUP1 DUP4 KECCAK256 PUSH1 0x7 DUP2 ADD DUP1 SLOAD PUSH1 0x8 SWAP1 SWAP3 ADD DUP1 SLOAD SWAP2 DUP13 SWAP1 SSTORE DUP7 SWAP1 SSTORE PUSH1 0x1B SWAP1 SWAP4 MSTORE SWAP1 DUP4 KECCAK256 PUSH1 0x3 ADD DUP1 SLOAD SWAP5 SWAP6 POP SWAP1 SWAP4 SWAP2 SWAP3 PUSH2 0x3DD6 DUP4 PUSH2 0x5C41 JUMP JUMPDEST SWAP2 SWAP1 POP SSTORE POP PUSH2 0x3DE8 DUP9 DUP9 DUP5 DUP5 DUP11 PUSH2 0x4AF3 JUMP JUMPDEST PUSH2 0x3DF1 DUP9 PUSH2 0x4CFD JUMP JUMPDEST POP PUSH1 0x1 SWAP8 SWAP7 POP POP POP POP POP POP POP JUMP JUMPDEST PUSH0 DUP1 SLOAD SWAP1 DUP1 PUSH2 0x3E0D DUP4 PUSH2 0x5C41 JUMP JUMPDEST SWAP2 SWAP1 POP SSTORE POP PUSH0 PUSH1 0x40 MLOAD DUP1 PUSH2 0x180 ADD PUSH1 0x40 MSTORE DUP1 PUSH0 SLOAD DUP2 MSTORE PUSH1 0x20 ADD DUP5 PUSH1 0x1 PUSH1 0x1 PUSH1 0xA0 SHL SUB AND DUP2 MSTORE PUSH1 0x20 ADD DUP4 PUSH1 0x1 PUSH1 0x1 PUSH1 0xA0 SHL SUB AND DUP2 MSTORE PUSH1 0x20 ADD TIMESTAMP DUP2 MSTORE PUSH1 0x20 ADD PUSH0 DUP2 MSTORE PUSH1 0x20 ADD PUSH0 DUP2 MSTORE PUSH1 0x20 ADD PUSH0 DUP2 MSTORE PUSH1 0x20 ADD PUSH0 DUP2 MSTORE PUSH1 0x20 ADD PUSH0 DUP2 MSTORE PUSH1 0x20 ADD PUSH0 DUP2 MSTORE PUSH1 0x20 ADD PUSH0 ISZERO ISZERO DUP2 MSTORE PUSH1 0x20 ADD PUSH0 ISZERO ISZERO DUP2 MSTORE POP SWAP1 POP PUSH0 PUSH1 0x40 MLOAD DUP1 PUSH1 0xC0 ADD PUSH1 0x40 MSTORE DUP1 PUSH0 DUP2 MSTORE PUSH1 0x20 ADD PUSH0 PUSH1 0x1 PUSH1 0x1 PUSH1 0x40 SHL SUB DUP2 GT ISZERO PUSH2 0x3EA8 JUMPI PUSH2 0x3EA8 PUSH2 0x5C59 JUMP JUMPDEST PUSH1 0x40 MLOAD SWAP1 DUP1 DUP3 MSTORE DUP1 PUSH1 0x20 MUL PUSH1 0x20 ADD DUP3 ADD PUSH1 0x40 MSTORE DUP1 ISZERO PUSH2 0x3ED1 JUMPI DUP2 PUSH1 0x20 ADD PUSH1 0x20 DUP3 MUL DUP1 CALLDATASIZE DUP4 CALLDATACOPY ADD SWAP1 POP JUMPDEST POP DUP2 MSTORE PUSH1 0x20 ADD PUSH0 DUP2 MSTORE PUSH1 0x20 ADD PUSH0 DUP2 MSTORE PUSH1 0x20 ADD PUSH0 DUP2 MSTORE PUSH1 0x20 ADD PUSH0 PUSH1 0x1 PUSH1 0x1 PUSH1 0x40 SHL SUB DUP2 GT ISZERO PUSH2 0x3F01 JUMPI PUSH2 0x3F01 PUSH2 0x5C59 JUMP JUMPDEST PUSH1 0x40 MLOAD SWAP1 DUP1 DUP3 MSTORE DUP1 PUSH1 0x20 MUL PUSH1 0x20 ADD DUP3 ADD PUSH1 0x40 MSTORE DUP1 ISZERO PUSH2 0x3F2A JUMPI DUP2 PUSH1 0x20 ADD PUSH1 0x20 DUP3 MUL DUP1 CALLDATASIZE DUP4 CALLDATACOPY ADD SWAP1 POP JUMPDEST POP DUP2 MSTORE POP SWAP1 POP PUSH0 PUSH1 0x40 MLOAD DUP1 PUSH1 0xC0 ADD PUSH1 0x40 MSTORE DUP1 PUSH0 DUP2 MSTORE PUSH1 0x20 ADD PUSH0 DUP2 MSTORE PUSH1 0x20 ADD PUSH1 0x8 SLOAD PUSH1 0x1 PUSH2 0x3F57 SWAP2 SWAP1 PUSH2 0x5CFF JUMP JUMPDEST PUSH1 0x1 PUSH1 0x1 PUSH1 0x40 SHL SUB DUP2 GT ISZERO PUSH2 0x3F6E JUMPI PUSH2 0x3F6E PUSH2 0x5C59 JUMP JUMPDEST PUSH1 0x40 MLOAD SWAP1 DUP1 DUP3 MSTORE DUP1 PUSH1 0x20 MUL PUSH1 0x20 ADD DUP3 ADD PUSH1 0x40 MSTORE DUP1 ISZERO PUSH2 0x3F97 JUMPI DUP2 PUSH1 0x20 ADD PUSH1 0x20 DUP3 MUL DUP1 CALLDATASIZE DUP4 CALLDATACOPY ADD SWAP1 POP JUMPDEST POP DUP2 MSTORE PUSH0 PUSH1 0x20 DUP1 DUP4 ADD DUP3 SWAP1 MSTORE PUSH1 0x40 DUP1 DUP5 ADD DUP4 SWAP1 MSTORE PUSH1 0x60 SWAP4 DUP5 ADD DUP4 SWAP1 MSTORE DUP1 MLOAD PUSH1 0xA0 DUP1 DUP3 ADD DUP4 MSTORE DUP5 DUP3 MSTORE DUP2 DUP5 ADD DUP6 SWAP1 MSTORE DUP2 DUP4 ADD DUP6 SWAP1 MSTORE DUP2 DUP7 ADD DUP6 SWAP1 MSTORE PUSH1 0x80 DUP1 DUP4 ADD DUP7 SWAP1 MSTORE PUSH1 0x1 PUSH1 0x1 PUSH1 0xA0 SHL SUB DUP14 DUP2 AND DUP8 MSTORE PUSH1 0x12 DUP7 MSTORE DUP5 DUP8 KECCAK256 DUP13 MLOAD DUP2 SSTORE DUP13 DUP8 ADD MLOAD PUSH1 0x1 DUP1 DUP4 ADD DUP1 SLOAD PUSH1 0x1 PUSH1 0x1 PUSH1 0xA0 SHL SUB NOT SWAP1 DUP2 AND SWAP4 DUP7 AND SWAP4 SWAP1 SWAP4 OR SWAP1 SSTORE DUP15 DUP9 ADD MLOAD PUSH1 0x2 DUP5 ADD DUP1 SLOAD SWAP1 SWAP4 AND SWAP5 AND SWAP4 SWAP1 SWAP4 OR SWAP1 SSTORE SWAP8 DUP13 ADD MLOAD PUSH1 0x3 DUP10 ADD SSTORE SWAP1 DUP12 ADD MLOAD PUSH1 0x4 DUP9 ADD SSTORE SWAP1 DUP11 ADD MLOAD PUSH1 0x5 DUP8 ADD SSTORE PUSH1 0xC0 DUP11 ADD MLOAD PUSH1 0x6 DUP8 ADD SSTORE PUSH1 0xE0 DUP11 ADD MLOAD PUSH1 0x7 DUP8 ADD SSTORE PUSH2 0x100 DUP1 DUP12 ADD MLOAD PUSH1 0x8 DUP9 ADD SSTORE PUSH2 0x120 DUP12 ADD MLOAD PUSH1 0x9 DUP9 ADD SSTORE PUSH2 0x140 DUP12 ADD MLOAD PUSH1 0xA SWAP1 SWAP8 ADD DUP1 SLOAD PUSH2 0x160 DUP14 ADD MLOAD PUSH2 0xFFFF NOT SWAP1 SWAP2 AND SWAP9 ISZERO ISZERO PUSH2 0xFF00 NOT AND SWAP9 SWAP1 SWAP9 OR SWAP8 ISZERO ISZERO SWAP1 SWAP2 MUL SWAP7 SWAP1 SWAP7 OR SWAP1 SWAP6 SSTORE PUSH1 0x14 DUP4 MSTORE SWAP3 KECCAK256 DUP7 MLOAD DUP2 SSTORE DUP7 DUP3 ADD MLOAD DUP1 MLOAD SWAP6 SWAP7 POP SWAP3 SWAP5 DUP8 SWAP5 SWAP2 SWAP4 PUSH2 0x40C7 SWAP4 SWAP3 DUP6 ADD SWAP3 ADD SWAP1 PUSH2 0x5356 JUMP JUMPDEST POP PUSH1 0x40 DUP3 ADD MLOAD PUSH1 0x2 DUP3 ADD SSTORE PUSH1 0x60 DUP3 ADD MLOAD PUSH1 0x3 DUP3 ADD SSTORE PUSH1 0x80 DUP3 ADD MLOAD PUSH1 0x4 DUP3 ADD SSTORE PUSH1 0xA0 DUP3 ADD MLOAD DUP1 MLOAD PUSH2 0x4101 SWAP2 PUSH1 0x5 DUP5 ADD SWAP2 PUSH1 0x20 SWAP1 SWAP2 ADD SWAP1 PUSH2 0x5356 JUMP JUMPDEST POP POP POP PUSH1 0x1 PUSH1 0x1 PUSH1 0xA0 SHL SUB DUP7 AND PUSH0 SWAP1 DUP2 MSTORE PUSH1 0x19 PUSH1 0x20 SWAP1 DUP2 MSTORE PUSH1 0x40 SWAP2 DUP3 SWAP1 KECCAK256 DUP5 MLOAD DUP2 SSTORE DUP2 DUP6 ADD MLOAD PUSH1 0x1 DUP3 ADD SSTORE SWAP2 DUP5 ADD MLOAD DUP1 MLOAD DUP6 SWAP4 SWAP3 PUSH2 0x4146 SWAP3 PUSH1 0x2 DUP6 ADD SWAP3 SWAP2 ADD SWAP1 PUSH2 0x53B9 JUMP JUMPDEST POP PUSH1 0x60 DUP3 DUP2 ADD MLOAD PUSH1 0x3 DUP1 DUP5 ADD SWAP2 SWAP1 SWAP2 SSTORE PUSH1 0x80 DUP1 DUP6 ADD MLOAD PUSH1 0x4 DUP1 DUP7 ADD SWAP2 SWAP1 SWAP2 SSTORE PUSH1 0xA0 SWAP1 SWAP6 ADD MLOAD PUSH1 0x5 SWAP1 SWAP5 ADD SWAP4 SWAP1 SWAP4 SSTORE PUSH0 DUP1 SLOAD DUP2 MSTORE PUSH1 0x13 PUSH1 0x20 SWAP1 DUP2 MSTORE PUSH1 0x40 DUP1 DUP4 KECCAK256 DUP1 SLOAD PUSH1 0x1 PUSH1 0x1 PUSH1 0xA0 SHL SUB SWAP1 SWAP15 AND PUSH1 0x1 PUSH1 0x1 PUSH1 0xA0 SHL SUB NOT SWAP1 SWAP15 AND DUP15 OR SWAP1 SSTORE SWAP12 DUP3 MSTORE PUSH1 0x1B DUP2 MSTORE SWAP1 DUP12 SWAP1 KECCAK256 DUP7 MLOAD DUP2 SSTORE SWAP1 DUP7 ADD MLOAD PUSH1 0x1 DUP3 ADD SSTORE SWAP10 DUP6 ADD MLOAD PUSH1 0x2 DUP12 ADD SSTORE SWAP1 DUP5 ADD MLOAD SWAP1 DUP10 ADD SSTORE SWAP2 SWAP1 SWAP2 ADD MLOAD SWAP6 ADD SWAP5 SWAP1 SWAP5 SSTORE POP POP POP POP JUMP JUMPDEST PUSH1 0x1 PUSH1 0x1 PUSH1 0xA0 SHL SUB DUP3 AND PUSH0 SWAP1 DUP2 MSTORE PUSH1 0x12 PUSH1 0x20 MSTORE PUSH1 0x40 DUP2 KECCAK256 PUSH1 0x8 ADD SLOAD TIMESTAMP LT PUSH2 0x4204 JUMPI POP PUSH0 PUSH2 0x2B52 JUMP JUMPDEST PUSH1 0x1 PUSH1 0x1 PUSH1 0xA0 SHL SUB DUP4 AND PUSH0 SWAP1 DUP2 MSTORE PUSH1 0x1B PUSH1 0x20 MSTORE PUSH1 0x40 DUP2 KECCAK256 SLOAD SWAP1 DUP4 SWAP1 PUSH1 0x1 JUMPDEST DUP4 DUP2 GT PUSH2 0x4303 JUMPI PUSH1 0x1 PUSH1 0x1 PUSH1 0xA0 SHL SUB DUP8 AND PUSH0 SWAP1 DUP2 MSTORE PUSH1 0x15 PUSH1 0x20 SWAP1 DUP2 MSTORE PUSH1 0x40 DUP1 DUP4 KECCAK256 DUP5 DUP5 MSTORE DUP3 MSTORE DUP1 DUP4 KECCAK256 DUP2 MLOAD PUSH1 0xA0 DUP2 ADD DUP4 MSTORE DUP2 SLOAD DUP2 MSTORE PUSH1 0x1 DUP3 ADD SLOAD SWAP4 DUP2 ADD SWAP4 SWAP1 SWAP4 MSTORE PUSH1 0x2 DUP2 ADD SLOAD SWAP2 DUP4 ADD SWAP2 SWAP1 SWAP2 MSTORE PUSH1 0x3 DUP2 ADD SLOAD PUSH1 0x60 DUP4 ADD DUP2 SWAP1 MSTORE PUSH1 0x4 SWAP1 SWAP2 ADD SLOAD PUSH1 0x80 DUP4 ADD DUP2 SWAP1 MSTORE SWAP2 SWAP3 SWAP2 LT PUSH2 0x4296 JUMPI PUSH0 PUSH2 0x42AA JUMP JUMPDEST DUP2 PUSH1 0x80 ADD MLOAD DUP3 PUSH1 0x60 ADD MLOAD PUSH2 0x42AA SWAP2 SWAP1 PUSH2 0x5C0F JUMP JUMPDEST SWAP1 POP DUP1 ISZERO PUSH2 0x42EE JUMPI PUSH0 DUP2 DUP7 GT ISZERO PUSH2 0x42C1 JUMPI DUP2 PUSH2 0x42C3 JUMP JUMPDEST DUP6 JUMPDEST SWAP1 POP PUSH2 0x42CF DUP2 DUP7 PUSH2 0x5CFF JUMP JUMPDEST SWAP5 POP PUSH2 0x42DB DUP2 DUP8 PUSH2 0x5C0F JUMP JUMPDEST SWAP6 POP DUP6 PUSH0 SUB PUSH2 0x42EC JUMPI POP POP POP PUSH2 0x4303 JUMP JUMPDEST POP JUMPDEST POP POP DUP1 DUP1 PUSH2 0x42FB SWAP1 PUSH2 0x5C41 JUMP JUMPDEST SWAP2 POP POP PUSH2 0x4222 JUMP JUMPDEST POP SWAP6 SWAP5 POP POP POP POP POP JUMP JUMPDEST PUSH1 0x1 PUSH1 0x1 PUSH1 0xA0 SHL SUB DUP2 AND PUSH0 SWAP1 DUP2 MSTORE PUSH1 0x12 PUSH1 0x20 MSTORE PUSH1 0x40 DUP2 KECCAK256 PUSH1 0x8 ADD SLOAD TIMESTAMP LT ISZERO DUP1 PUSH2 0x2B52 JUMPI POP PUSH2 0x433A DUP3 PUSH2 0x319C JUMP JUMPDEST ISZERO SWAP3 SWAP2 POP POP JUMP JUMPDEST PUSH0 PUSH2 0x434A PUSH2 0x3292 JUMP JUMPDEST PUSH1 0x40 MLOAD PUSH4 0x23B872DD PUSH1 0xE0 SHL DUP2 MSTORE CALLER PUSH1 0x4 DUP3 ADD MSTORE ADDRESS PUSH1 0x24 DUP3 ADD MSTORE PUSH1 0x44 DUP2 ADD DUP5 SWAP1 MSTORE SWAP1 SWAP2 POP PUSH20 0x4622B46DF102FD8648385BC96FD7A837111AEC61 SWAP1 PUSH4 0x23B872DD SWAP1 PUSH1 0x64 ADD PUSH1 0x20 PUSH1 0x40 MLOAD DUP1 DUP4 SUB DUP2 PUSH0 DUP8 GAS CALL ISZERO DUP1 ISZERO PUSH2 0x43A8 JUMPI RETURNDATASIZE PUSH0 DUP1 RETURNDATACOPY RETURNDATASIZE PUSH0 REVERT JUMPDEST POP POP POP POP PUSH1 0x40 MLOAD RETURNDATASIZE PUSH1 0x1F NOT PUSH1 0x1F DUP3 ADD AND DUP3 ADD DUP1 PUSH1 0x40 MSTORE POP DUP2 ADD SWAP1 PUSH2 0x43CC SWAP2 SWAP1 PUSH2 0x5C22 JUMP JUMPDEST POP PUSH0 PUSH2 0x43D6 PUSH2 0x3292 JUMP JUMPDEST SWAP1 POP DUP3 PUSH2 0x43E3 DUP4 DUP4 PUSH2 0x5C0F JUMP JUMPDEST LT ISZERO PUSH2 0xE5E JUMPI PUSH1 0x40 MLOAD PUSH3 0x461BCD PUSH1 0xE5 SHL DUP2 MSTORE PUSH1 0x4 ADD PUSH2 0xC14 SWAP1 PUSH2 0x5E89 JUMP JUMPDEST PUSH1 0x1 PUSH1 0x1 PUSH1 0xA0 SHL SUB DUP3 AND ISZERO PUSH2 0x24FC JUMPI PUSH1 0x1 PUSH1 0x1 PUSH1 0xA0 SHL SUB DUP3 AND PUSH0 SWAP1 DUP2 MSTORE PUSH1 0x12 PUSH1 0x20 MSTORE PUSH1 0x40 DUP2 KECCAK256 PUSH1 0x5 ADD DUP1 SLOAD SWAP2 PUSH2 0x4436 DUP4 PUSH2 0x5C41 JUMP JUMPDEST SWAP1 SWAP2 SSTORE POP POP PUSH1 0x1 PUSH1 0x1 PUSH1 0xA0 SHL SUB SWAP2 DUP3 AND PUSH0 DUP2 DUP2 MSTORE PUSH1 0x14 PUSH1 0x20 SWAP1 DUP2 MSTORE PUSH1 0x40 DUP1 DUP4 KECCAK256 PUSH1 0x5 ADD DUP1 SLOAD PUSH1 0x1 DUP2 ADD DUP3 SSTORE SWAP1 DUP5 MSTORE DUP3 DUP5 KECCAK256 ADD DUP1 SLOAD PUSH1 0x1 PUSH1 0x1 PUSH1 0xA0 SHL SUB NOT AND DUP7 DUP9 AND OR SWAP1 SSTORE SWAP3 DUP3 MSTORE PUSH1 0x12 SWAP1 MSTORE KECCAK256 PUSH1 0x2 ADD SLOAD SWAP1 SWAP2 AND SWAP1 PUSH2 0x4401 JUMP JUMPDEST PUSH1 0x1 PUSH1 0x1 PUSH1 0xA0 SHL SUB DUP1 DUP4 AND PUSH0 SWAP1 DUP2 MSTORE PUSH1 0x12 PUSH1 0x20 MSTORE PUSH1 0x40 SWAP1 KECCAK256 PUSH1 0x2 ADD SLOAD PUSH1 0x1 SWAP2 AND JUMPDEST PUSH1 0x1 PUSH1 0x1 PUSH1 0xA0 SHL SUB DUP2 AND ISZERO PUSH2 0x2E4A JUMPI PUSH1 0x1 PUSH1 0x1 PUSH1 0xA0 SHL SUB DUP2 AND PUSH0 SWAP1 DUP2 MSTORE PUSH1 0x14 PUSH1 0x20 MSTORE PUSH1 0x40 DUP2 KECCAK256 PUSH1 0x4 ADD DUP1 SLOAD DUP6 SWAP3 SWAP1 PUSH2 0x44E9 SWAP1 DUP5 SWAP1 PUSH2 0x5CFF JUMP JUMPDEST SWAP1 SWAP2 SSTORE POP POP PUSH1 0x1 PUSH1 0x1 PUSH1 0xA0 SHL SUB DUP2 AND PUSH0 SWAP1 DUP2 MSTORE PUSH1 0x17 PUSH1 0x20 SWAP1 DUP2 MSTORE PUSH1 0x40 DUP1 DUP4 KECCAK256 DUP6 DUP5 MSTORE SWAP1 SWAP2 MSTORE DUP2 KECCAK256 DUP1 SLOAD DUP6 SWAP3 SWAP1 PUSH2 0x4520 SWAP1 DUP5 SWAP1 PUSH2 0x5CFF JUMP JUMPDEST SWAP1 SWAP2 SSTORE POP POP PUSH1 0x1 PUSH1 0x1 PUSH1 0xA0 SHL SUB DUP1 DUP3 AND PUSH0 SWAP1 DUP2 MSTORE PUSH1 0x1C PUSH1 0x20 SWAP1 DUP2 MSTORE PUSH1 0x40 DUP1 DUP4 KECCAK256 SLOAD DUP9 DUP6 AND DUP5 MSTORE PUSH1 0x14 DUP4 MSTORE DUP2 DUP5 KECCAK256 PUSH1 0x4 SWAP1 DUP2 ADD SLOAD PUSH1 0x12 SWAP1 SWAP5 MSTORE SWAP2 DUP5 KECCAK256 SWAP1 SWAP2 ADD SLOAD SWAP4 AND SWAP3 PUSH2 0x456C SWAP2 SWAP1 PUSH2 0x5CFF JUMP JUMPDEST SWAP1 POP PUSH1 0x1 PUSH1 0x1 PUSH1 0xA0 SHL SUB DUP3 AND PUSH2 0x45BD JUMPI PUSH1 0x1 PUSH1 0x1 PUSH1 0xA0 SHL SUB DUP4 DUP2 AND PUSH0 SWAP1 DUP2 MSTORE PUSH1 0x1C PUSH1 0x20 SWAP1 DUP2 MSTORE PUSH1 0x40 DUP1 DUP4 KECCAK256 DUP1 SLOAD PUSH1 0x1 PUSH1 0x1 PUSH1 0xA0 SHL SUB NOT AND SWAP5 DUP12 AND SWAP5 SWAP1 SWAP5 OR SWAP1 SWAP4 SSTORE PUSH1 0x14 SWAP1 MSTORE KECCAK256 PUSH1 0x2 ADD DUP2 SWAP1 SSTORE PUSH2 0x4740 JUMP JUMPDEST DUP2 PUSH1 0x1 PUSH1 0x1 PUSH1 0xA0 SHL SUB AND DUP7 PUSH1 0x1 PUSH1 0x1 PUSH1 0xA0 SHL SUB AND SUB PUSH2 0x460B JUMPI PUSH1 0x1 PUSH1 0x1 PUSH1 0xA0 SHL SUB DUP4 AND PUSH0 SWAP1 DUP2 MSTORE PUSH1 0x14 PUSH1 0x20 MSTORE PUSH1 0x40 DUP2 KECCAK256 PUSH1 0x2 ADD DUP1 SLOAD DUP8 SWAP3 SWAP1 PUSH2 0x4600 SWAP1 DUP5 SWAP1 PUSH2 0x5CFF JUMP JUMPDEST SWAP1 SWAP2 SSTORE POP PUSH2 0x4740 SWAP1 POP JUMP JUMPDEST PUSH1 0x1 PUSH1 0x1 PUSH1 0xA0 SHL SUB DUP4 AND PUSH0 SWAP1 DUP2 MSTORE PUSH1 0x14 PUSH1 0x20 MSTORE PUSH1 0x40 SWAP1 KECCAK256 PUSH1 0x2 ADD SLOAD DUP1 DUP3 GT ISZERO PUSH2 0x470E JUMPI PUSH1 0x1 PUSH1 0x1 PUSH1 0xA0 SHL SUB DUP8 AND PUSH0 SWAP1 DUP2 MSTORE PUSH1 0x14 PUSH1 0x20 SWAP1 DUP2 MSTORE PUSH1 0x40 DUP1 DUP4 KECCAK256 PUSH1 0x4 SWAP1 DUP2 ADD SLOAD PUSH1 0x12 SWAP1 SWAP4 MSTORE SWAP3 KECCAK256 SWAP1 SWAP2 ADD SLOAD DUP8 SWAP2 PUSH2 0x4664 SWAP2 PUSH2 0x5CFF JUMP JUMPDEST PUSH2 0x466E SWAP2 SWAP1 PUSH2 0x5C0F JUMP JUMPDEST PUSH1 0x1 PUSH1 0x1 PUSH1 0xA0 SHL SUB DUP6 AND PUSH0 SWAP1 DUP2 MSTORE PUSH1 0x14 PUSH1 0x20 MSTORE PUSH1 0x40 DUP2 KECCAK256 PUSH1 0x3 ADD DUP1 SLOAD SWAP1 SWAP2 SWAP1 PUSH2 0x4698 SWAP1 DUP5 SWAP1 PUSH2 0x5C0F JUMP JUMPDEST SWAP1 SWAP2 SSTORE POP POP PUSH1 0x1 PUSH1 0x1 PUSH1 0xA0 SHL SUB DUP5 AND PUSH0 SWAP1 DUP2 MSTORE PUSH1 0x14 PUSH1 0x20 MSTORE PUSH1 0x40 DUP2 KECCAK256 PUSH1 0x3 ADD DUP1 SLOAD DUP4 SWAP3 SWAP1 PUSH2 0x46C7 SWAP1 DUP5 SWAP1 PUSH2 0x5CFF JUMP JUMPDEST SWAP1 SWAP2 SSTORE POP POP PUSH1 0x1 PUSH1 0x1 PUSH1 0xA0 SHL SUB DUP5 DUP2 AND PUSH0 SWAP1 DUP2 MSTORE PUSH1 0x14 PUSH1 0x20 SWAP1 DUP2 MSTORE PUSH1 0x40 DUP1 DUP4 KECCAK256 PUSH1 0x2 ADD DUP7 SWAP1 SSTORE PUSH1 0x1C SWAP1 SWAP2 MSTORE SWAP1 KECCAK256 DUP1 SLOAD PUSH1 0x1 PUSH1 0x1 PUSH1 0xA0 SHL SUB NOT AND SWAP2 DUP10 AND SWAP2 SWAP1 SWAP2 OR SWAP1 SSTORE PUSH2 0x473E JUMP JUMPDEST PUSH1 0x1 PUSH1 0x1 PUSH1 0xA0 SHL SUB DUP5 AND PUSH0 SWAP1 DUP2 MSTORE PUSH1 0x14 PUSH1 0x20 MSTORE PUSH1 0x40 DUP2 KECCAK256 PUSH1 0x3 ADD DUP1 SLOAD DUP9 SWAP3 SWAP1 PUSH2 0x4738 SWAP1 DUP5 SWAP1 PUSH2 0x5CFF JUMP JUMPDEST SWAP1 SWAP2 SSTORE POP POP JUMPDEST POP JUMPDEST PUSH1 0x1 PUSH1 0x1 PUSH1 0xA0 SHL SUB DUP1 DUP5 AND PUSH0 SWAP1 DUP2 MSTORE PUSH1 0x12 PUSH1 0x20 MSTORE PUSH1 0x40 SWAP1 KECCAK256 PUSH1 0x2 ADD SLOAD SWAP4 SWAP7 POP SWAP3 SWAP1 SWAP3 AND SWAP2 DUP4 PUSH2 0x476E DUP2 PUSH2 0x5C41 JUMP JUMPDEST SWAP5 POP POP POP POP PUSH2 0x44B0 JUMP JUMPDEST PUSH1 0x1 PUSH1 0x1 PUSH1 0xA0 SHL SUB DUP2 AND ISZERO PUSH2 0x3278 JUMPI PUSH2 0x4790 DUP2 PUSH2 0x4E69 JUMP JUMPDEST PUSH1 0x1 PUSH1 0x1 PUSH1 0xA0 SHL SUB SWAP1 DUP2 AND PUSH0 SWAP1 DUP2 MSTORE PUSH1 0x12 PUSH1 0x20 MSTORE PUSH1 0x40 SWAP1 KECCAK256 PUSH1 0x2 ADD SLOAD AND PUSH2 0x4778 JUMP JUMPDEST PUSH1 0x1 PUSH1 0x1 PUSH1 0xA0 SHL SUB DUP4 AND PUSH0 SWAP1 DUP2 MSTORE PUSH1 0x12 PUSH1 0x20 MSTORE PUSH1 0x40 SWAP1 KECCAK256 PUSH1 0xA ADD SLOAD PUSH1 0xFF AND ISZERO DUP1 ISZERO PUSH2 0x480F JUMPI POP PUSH1 0x1 PUSH1 0x1 PUSH1 0xA0 SHL SUB DUP4 AND PUSH0 SWAP1 DUP2 MSTORE PUSH1 0x12 PUSH1 0x20 MSTORE PUSH1 0x40 SWAP1 KECCAK256 PUSH1 0xA ADD SLOAD PUSH2 0x100 SWAP1 DIV PUSH1 0xFF AND ISZERO DUP1 PUSH2 0x480F JUMPI POP TIMESTAMP PUSH2 0x480C DUP5 PUSH2 0x3175 JUMP JUMPDEST LT ISZERO JUMPDEST DUP1 ISZERO PUSH2 0x4830 JUMPI POP PUSH2 0x4821 PUSH2 0x7D0 PUSH2 0x327B JUMP JUMPDEST DUP3 LT ISZERO DUP1 PUSH2 0x4830 JUMPI POP PUSH1 0x1 DUP2 LT ISZERO JUMPDEST ISZERO PUSH2 0xE5E JUMPI PUSH1 0x1 PUSH1 0x1 PUSH1 0xA0 SHL SUB DUP4 AND PUSH0 SWAP1 DUP2 MSTORE PUSH1 0x12 PUSH1 0x20 SWAP1 DUP2 MSTORE PUSH1 0x40 DUP1 DUP4 KECCAK256 PUSH1 0xA ADD DUP1 SLOAD PUSH1 0xFF NOT AND PUSH1 0x1 SWAP1 DUP2 OR SWAP1 SWAP2 SSTORE PUSH1 0x1B SWAP1 SWAP3 MSTORE SWAP1 SWAP2 KECCAK256 SLOAD SWAP1 JUMPDEST DUP2 DUP2 GT PUSH2 0x48DB JUMPI PUSH1 0x1 PUSH1 0x1 PUSH1 0xA0 SHL SUB DUP6 AND PUSH0 SWAP1 DUP2 MSTORE PUSH1 0x15 PUSH1 0x20 SWAP1 DUP2 MSTORE PUSH1 0x40 DUP1 DUP4 KECCAK256 DUP5 DUP5 MSTORE SWAP1 SWAP2 MSTORE SWAP1 KECCAK256 PUSH1 0x1 ADD SLOAD PUSH2 0x48A3 SWAP1 PUSH1 0x4 PUSH2 0x5BC2 JUMP JUMPDEST PUSH1 0x1 PUSH1 0x1 PUSH1 0xA0 SHL SUB DUP7 AND PUSH0 SWAP1 DUP2 MSTORE PUSH1 0x15 PUSH1 0x20 SWAP1 DUP2 MSTORE PUSH1 0x40 DUP1 DUP4 KECCAK256 DUP6 DUP5 MSTORE SWAP1 SWAP2 MSTORE SWAP1 KECCAK256 PUSH1 0x3 ADD SSTORE DUP1 PUSH2 0x48D3 DUP2 PUSH2 0x5C41 JUMP JUMPDEST SWAP2 POP POP PUSH2 0x486B JUMP JUMPDEST POP POP POP POP POP JUMP JUMPDEST PUSH0 PUSH2 0x48EE PUSH2 0xBB8 PUSH2 0x327B JUMP JUMPDEST DUP3 LT PUSH2 0x4905 JUMPI PUSH2 0x48FE PUSH1 0x28 PUSH2 0x327B JUMP JUMPDEST SWAP1 POP PUSH2 0x4974 JUMP JUMPDEST PUSH2 0x4910 PUSH2 0x7D0 PUSH2 0x327B JUMP JUMPDEST DUP3 LT PUSH2 0x4920 JUMPI PUSH2 0x48FE PUSH1 0x1E PUSH2 0x327B JUMP JUMPDEST PUSH2 0x492B PUSH2 0x3E8 PUSH2 0x327B JUMP JUMPDEST DUP3 LT PUSH2 0x493B JUMPI PUSH2 0x48FE PUSH1 0x14 PUSH2 0x327B JUMP JUMPDEST PUSH2 0x4946 PUSH2 0x1F4 PUSH2 0x327B JUMP JUMPDEST DUP3 LT PUSH2 0x4956 JUMPI PUSH2 0x48FE PUSH1 0xC PUSH2 0x327B JUMP JUMPDEST PUSH2 0x4961 PUSH2 0x12C PUSH2 0x327B JUMP JUMPDEST DUP3 LT PUSH2 0x4974 JUMPI PUSH2 0x4971 PUSH1 0x7 PUSH2 0x327B JUMP JUMPDEST SWAP1 POP JUMPDEST PUSH0 DUP2 GT DUP1 ISZERO PUSH2 0x4998 JUMPI POP PUSH1 0x1 PUSH1 0x1 PUSH1 0xA0 SHL SUB DUP4 AND PUSH0 SWAP1 DUP2 MSTORE PUSH1 0x19 PUSH1 0x20 MSTORE PUSH1 0x40 SWAP1 KECCAK256 SLOAD ISZERO JUMPDEST DUP1 ISZERO PUSH2 0x49C4 JUMPI POP PUSH1 0x1 PUSH1 0x1 PUSH1 0xA0 SHL SUB DUP4 AND PUSH0 SWAP1 DUP2 MSTORE PUSH1 0x12 PUSH1 0x20 MSTORE PUSH1 0x40 SWAP1 KECCAK256 PUSH1 0xA ADD SLOAD PUSH2 0x100 SWAP1 DIV PUSH1 0xFF AND ISZERO JUMPDEST ISZERO PUSH2 0xE5E JUMPI PUSH2 0x49D3 DUP4 DUP3 PUSH2 0x5087 JUMP JUMPDEST PUSH1 0x1 PUSH1 0x1 PUSH1 0xA0 SHL SUB DUP5 AND PUSH0 SWAP1 DUP2 MSTORE PUSH1 0x19 PUSH1 0x20 MSTORE PUSH1 0x40 DUP2 KECCAK256 DUP1 SLOAD SWAP3 SWAP4 POP DUP4 SWAP3 SWAP1 SWAP2 SWAP1 PUSH2 0x2639 SWAP1 DUP5 SWAP1 PUSH2 0x5CFF JUMP JUMPDEST PUSH0 PUSH2 0x4A08 PUSH2 0x39EE JUMP JUMPDEST SWAP1 POP PUSH0 PUSH1 0x64 PUSH2 0x4A18 DUP5 PUSH1 0x2 PUSH2 0x5BC2 JUMP JUMPDEST PUSH2 0x4A22 SWAP2 SWAP1 PUSH2 0x5BD9 JUMP JUMPDEST SWAP1 POP PUSH0 PUSH1 0x40 MLOAD DUP1 PUSH1 0x60 ADD PUSH1 0x40 MSTORE DUP1 PUSH1 0x32 DUP2 MSTORE PUSH1 0x20 ADD PUSH1 0x1E DUP2 MSTORE PUSH1 0x20 ADD PUSH1 0x14 DUP2 MSTORE POP SWAP1 POP PUSH0 JUMPDEST PUSH1 0x3 DUP2 LT ISZERO PUSH2 0x48DB JUMPI PUSH0 DUP5 DUP3 PUSH1 0x3 DUP2 LT PUSH2 0x4A63 JUMPI PUSH2 0x4A63 PUSH2 0x5C6D JUMP JUMPDEST PUSH1 0x20 MUL ADD MLOAD MLOAD SWAP1 POP PUSH1 0x1 PUSH1 0x1 PUSH1 0xA0 SHL SUB DUP2 AND ISZERO PUSH2 0x4AEA JUMPI PUSH0 PUSH1 0x64 DUP5 DUP5 PUSH1 0x3 DUP2 LT PUSH2 0x4A8F JUMPI PUSH2 0x4A8F PUSH2 0x5C6D JUMP JUMPDEST PUSH1 0x20 MUL ADD MLOAD PUSH2 0x4A9E SWAP1 DUP8 PUSH2 0x5BC2 JUMP JUMPDEST PUSH2 0x4AA8 SWAP2 SWAP1 PUSH2 0x5BD9 JUMP JUMPDEST SWAP1 POP PUSH2 0x4AB4 DUP3 DUP3 PUSH2 0x5087 JUMP JUMPDEST PUSH1 0x1 PUSH1 0x1 PUSH1 0xA0 SHL SUB DUP4 AND PUSH0 SWAP1 DUP2 MSTORE PUSH1 0x19 PUSH1 0x20 MSTORE PUSH1 0x40 DUP2 KECCAK256 PUSH1 0x4 ADD DUP1 SLOAD SWAP3 SWAP4 POP DUP4 SWAP3 SWAP1 SWAP2 SWAP1 PUSH2 0x4AE3 SWAP1 DUP5 SWAP1 PUSH2 0x5CFF JUMP JUMPDEST SWAP1 SWAP2 SSTORE POP POP POP JUMPDEST POP PUSH1 0x1 ADD PUSH2 0x4A47 JUMP JUMPDEST PUSH1 0x1 PUSH1 0x1 PUSH1 0xA0 SHL SUB DUP6 AND PUSH0 SWAP1 DUP2 MSTORE PUSH1 0x1B PUSH1 0x20 MSTORE PUSH1 0x40 DUP2 KECCAK256 SLOAD SWAP1 PUSH2 0x4B16 DUP6 DUP6 PUSH2 0x5C0F JUMP JUMPDEST SWAP1 POP PUSH0 DUP6 DUP8 DUP7 GT ISZERO PUSH2 0x4B28 JUMPI DUP8 PUSH2 0x4B2A JUMP JUMPDEST DUP6 JUMPDEST PUSH2 0x4B34 SWAP2 SWAP1 PUSH2 0x5C0F JUMP JUMPDEST SWAP1 POP PUSH0 PUSH1 0x1 JUMPDEST DUP5 DUP2 GT PUSH2 0x4BEC JUMPI PUSH1 0x1 PUSH1 0x1 PUSH1 0xA0 SHL SUB DUP11 AND PUSH0 SWAP1 DUP2 MSTORE PUSH1 0x15 PUSH1 0x20 SWAP1 DUP2 MSTORE PUSH1 0x40 DUP1 DUP4 KECCAK256 DUP5 DUP5 MSTORE DUP3 MSTORE SWAP2 DUP3 SWAP1 KECCAK256 DUP3 MLOAD PUSH1 0xA0 DUP2 ADD DUP5 MSTORE DUP2 SLOAD DUP2 MSTORE PUSH1 0x1 DUP3 ADD SLOAD SWAP3 DUP2 ADD DUP4 SWAP1 MSTORE PUSH1 0x2 DUP3 ADD SLOAD SWAP4 DUP2 ADD SWAP4 SWAP1 SWAP4 MSTORE PUSH1 0x3 DUP2 ADD SLOAD PUSH1 0x60 DUP5 ADD MSTORE PUSH1 0x4 ADD SLOAD PUSH1 0x80 DUP4 ADD MSTORE DUP8 EQ DUP1 ISZERO PUSH2 0x4BAB JUMPI POP DUP10 DUP2 PUSH1 0x40 ADD MLOAD EQ JUMPDEST ISZERO PUSH2 0x4BB6 JUMPI POP PUSH2 0x4BDA JUMP JUMPDEST DUP1 PUSH1 0x60 ADD MLOAD DUP2 PUSH1 0x80 ADD MLOAD LT ISZERO PUSH2 0x4BD8 JUMPI PUSH1 0x20 DUP2 ADD MLOAD PUSH2 0x4BD5 SWAP1 DUP5 PUSH2 0x5CFF JUMP JUMPDEST SWAP3 POP JUMPDEST POP JUMPDEST DUP1 PUSH2 0x4BE4 DUP2 PUSH2 0x5C41 JUMP JUMPDEST SWAP2 POP POP PUSH2 0x4B3A JUMP JUMPDEST POP PUSH0 DUP2 GT DUP1 ISZERO PUSH2 0x4BFB JUMPI POP PUSH0 DUP4 GT JUMPDEST ISZERO PUSH2 0x4CF2 JUMPI PUSH0 PUSH2 0x4C0C DUP5 PUSH1 0x64 PUSH2 0x5BC2 JUMP JUMPDEST DUP4 PUSH2 0x4C18 DUP5 PUSH1 0xA PUSH2 0x5BC2 JUMP JUMPDEST PUSH2 0x4C22 SWAP2 SWAP1 PUSH2 0x5BC2 JUMP JUMPDEST PUSH2 0x4C2C SWAP2 SWAP1 PUSH2 0x5BD9 JUMP JUMPDEST SWAP1 POP PUSH2 0x4C38 DUP11 DUP3 PUSH2 0x5087 JUMP JUMPDEST PUSH1 0x1 PUSH1 0x1 PUSH1 0xA0 SHL SUB DUP12 AND PUSH0 SWAP1 DUP2 MSTORE PUSH1 0x19 PUSH1 0x20 MSTORE PUSH1 0x40 DUP2 KECCAK256 PUSH1 0x1 ADD DUP1 SLOAD SWAP3 SWAP4 POP DUP4 SWAP3 SWAP1 SWAP2 SWAP1 PUSH2 0x4C67 SWAP1 DUP5 SWAP1 PUSH2 0x5CFF JUMP JUMPDEST SWAP1 SWAP2 SSTORE POP POP PUSH1 0x1 PUSH1 0x1 PUSH1 0xA0 SHL SUB DUP11 AND PUSH0 SWAP1 DUP2 MSTORE PUSH1 0x1B PUSH1 0x20 MSTORE PUSH1 0x40 DUP2 KECCAK256 PUSH1 0x1 ADD DUP1 SLOAD SWAP2 PUSH2 0x4C92 DUP4 PUSH2 0x5C41 JUMP JUMPDEST SWAP1 SWAP2 SSTORE POP POP PUSH1 0x40 DUP1 MLOAD PUSH1 0x60 DUP2 ADD DUP3 MSTORE DUP4 DUP2 MSTORE PUSH1 0x20 DUP1 DUP3 ADD DUP13 DUP2 MSTORE DUP3 DUP5 ADD SWAP5 DUP6 MSTORE PUSH1 0x1 PUSH1 0x1 PUSH1 0xA0 SHL SUB DUP15 AND PUSH0 SWAP1 DUP2 MSTORE PUSH1 0x18 DUP4 MSTORE DUP5 DUP2 KECCAK256 PUSH1 0x1B DUP5 MSTORE DUP6 DUP3 KECCAK256 PUSH1 0x1 SWAP1 DUP2 ADD SLOAD DUP4 MSTORE SWAP4 MSTORE SWAP4 SWAP1 SWAP4 KECCAK256 SWAP2 MLOAD DUP3 SSTORE SWAP2 MLOAD SWAP2 DUP2 ADD SWAP2 SWAP1 SWAP2 SSTORE SWAP1 MLOAD PUSH1 0x2 SWAP1 SWAP2 ADD SSTORE JUMPDEST POP POP POP POP POP POP POP POP POP JUMP JUMPDEST PUSH1 0x1 PUSH1 0x1 PUSH1 0xA0 SHL SUB DUP2 DUP2 AND PUSH0 SWAP1 DUP2 MSTORE PUSH1 0x12 PUSH1 0x20 MSTORE PUSH1 0x40 DUP2 KECCAK256 PUSH1 0x2 DUP2 ADD SLOAD PUSH1 0xA SWAP1 SWAP2 ADD SLOAD SWAP3 AND SWAP2 PUSH2 0x100 SWAP1 DIV PUSH1 0xFF AND PUSH2 0x4D36 JUMPI PUSH1 0x1 PUSH2 0x4D39 JUMP JUMPDEST PUSH1 0x2 JUMPDEST PUSH1 0x1 PUSH1 0x1 PUSH1 0xA0 SHL SUB DUP5 AND PUSH0 SWAP1 DUP2 MSTORE PUSH1 0x12 PUSH1 0x20 MSTORE PUSH1 0x40 SWAP1 KECCAK256 PUSH1 0x4 ADD SLOAD PUSH2 0x4D61 SWAP2 PUSH1 0xFF AND SWAP1 PUSH2 0x5BD9 JUMP JUMPDEST SWAP1 POP PUSH1 0x1 PUSH0 JUMPDEST PUSH1 0x1 PUSH1 0x1 PUSH1 0xA0 SHL SUB DUP5 AND ISZERO DUP1 ISZERO SWAP1 PUSH2 0x4D81 JUMPI POP PUSH1 0x8 SLOAD DUP3 GT ISZERO JUMPDEST ISZERO PUSH2 0x48DB JUMPI PUSH1 0xA SLOAD PUSH1 0xFF AND PUSH2 0x4DA6 JUMPI PUSH0 DUP3 DUP2 MSTORE PUSH1 0x10 PUSH1 0x20 MSTORE PUSH1 0x40 SWAP1 KECCAK256 PUSH1 0x1 ADD SLOAD PUSH2 0x4DCF JUMP JUMPDEST PUSH0 DUP3 DUP2 MSTORE PUSH1 0x10 PUSH1 0x20 MSTORE PUSH1 0x40 SWAP1 KECCAK256 PUSH1 0x1 ADD SLOAD PUSH2 0x2710 SWAP1 PUSH2 0x4DC5 SWAP1 DUP6 PUSH2 0x5BC2 JUMP JUMPDEST PUSH2 0x4DCF SWAP2 SWAP1 PUSH2 0x5BD9 JUMP JUMPDEST SWAP1 POP PUSH2 0x4DDB DUP5 DUP4 PUSH2 0x2E50 JUMP JUMPDEST ISZERO PUSH2 0x4E37 JUMPI PUSH2 0x4DEA DUP5 DUP3 PUSH2 0x5087 JUMP JUMPDEST PUSH1 0x1 PUSH1 0x1 PUSH1 0xA0 SHL SUB DUP6 AND PUSH0 SWAP1 DUP2 MSTORE PUSH1 0x19 PUSH1 0x20 MSTORE PUSH1 0x40 SWAP1 KECCAK256 PUSH1 0x2 ADD DUP1 SLOAD SWAP2 SWAP3 POP DUP3 SWAP2 DUP5 SWAP1 DUP2 LT PUSH2 0x4E1B JUMPI PUSH2 0x4E1B PUSH2 0x5C6D JUMP JUMPDEST SWAP1 PUSH0 MSTORE PUSH1 0x20 PUSH0 KECCAK256 ADD PUSH0 DUP3 DUP3 SLOAD PUSH2 0x4E31 SWAP2 SWAP1 PUSH2 0x5CFF JUMP JUMPDEST SWAP1 SWAP2 SSTORE POP POP JUMPDEST PUSH1 0x1 PUSH1 0x1 PUSH1 0xA0 SHL SUB SWAP4 DUP5 AND PUSH0 SWAP1 DUP2 MSTORE PUSH1 0x12 PUSH1 0x20 MSTORE PUSH1 0x40 SWAP1 KECCAK256 PUSH1 0x2 ADD SLOAD SWAP1 SWAP4 AND SWAP3 DUP2 PUSH2 0x4E61 DUP2 PUSH2 0x5C41 JUMP JUMPDEST SWAP3 POP POP PUSH2 0x4D67 JUMP JUMPDEST PUSH1 0x1 PUSH1 0x1 PUSH1 0xA0 SHL SUB DUP2 AND PUSH0 SWAP1 DUP2 MSTORE PUSH1 0x12 PUSH1 0x20 MSTORE PUSH1 0x40 DUP2 KECCAK256 PUSH1 0x9 ADD SLOAD PUSH2 0x4E8F SWAP1 PUSH1 0x1 PUSH2 0x5CFF JUMP JUMPDEST SWAP1 POP JUMPDEST PUSH1 0x9 SLOAD DUP2 GT PUSH2 0x24FC JUMPI PUSH0 PUSH1 0x11 PUSH0 DUP4 DUP2 MSTORE PUSH1 0x20 ADD SWAP1 DUP2 MSTORE PUSH1 0x20 ADD PUSH0 KECCAK256 PUSH1 0x40 MLOAD DUP1 PUSH1 0xE0 ADD PUSH1 0x40 MSTORE SWAP1 DUP2 PUSH0 DUP3 ADD SLOAD DUP2 MSTORE PUSH1 0x20 ADD PUSH1 0x1 DUP3 ADD DUP1 SLOAD PUSH2 0x4ED1 SWAP1 PUSH2 0x5C96 JUMP JUMPDEST DUP1 PUSH1 0x1F ADD PUSH1 0x20 DUP1 SWAP2 DIV MUL PUSH1 0x20 ADD PUSH1 0x40 MLOAD SWAP1 DUP2 ADD PUSH1 0x40 MSTORE DUP1 SWAP3 SWAP2 SWAP1 DUP2 DUP2 MSTORE PUSH1 0x20 ADD DUP3 DUP1 SLOAD PUSH2 0x4EFD SWAP1 PUSH2 0x5C96 JUMP JUMPDEST DUP1 ISZERO PUSH2 0x4F48 JUMPI DUP1 PUSH1 0x1F LT PUSH2 0x4F1F JUMPI PUSH2 0x100 DUP1 DUP4 SLOAD DIV MUL DUP4 MSTORE SWAP2 PUSH1 0x20 ADD SWAP2 PUSH2 0x4F48 JUMP JUMPDEST DUP3 ADD SWAP2 SWAP1 PUSH0 MSTORE PUSH1 0x20 PUSH0 KECCAK256 SWAP1 JUMPDEST DUP2 SLOAD DUP2 MSTORE SWAP1 PUSH1 0x1 ADD SWAP1 PUSH1 0x20 ADD DUP1 DUP4 GT PUSH2 0x4F2B JUMPI DUP3 SWAP1 SUB PUSH1 0x1F AND DUP3 ADD SWAP2 JUMPDEST POP POP POP POP POP DUP2 MSTORE PUSH1 0x20 ADD PUSH1 0x2 DUP3 ADD SLOAD DUP2 MSTORE PUSH1 0x20 ADD PUSH1 0x3 DUP3 ADD SLOAD DUP2 MSTORE PUSH1 0x20 ADD PUSH1 0x4 DUP3 ADD SLOAD DUP2 MSTORE PUSH1 0x20 ADD PUSH1 0x5 DUP3 ADD SLOAD DUP2 MSTORE PUSH1 0x20 ADD PUSH1 0x6 DUP3 ADD SLOAD DUP2 MSTORE POP POP SWAP1 POP PUSH2 0x4F93 DUP4 DUP3 PUSH1 0x40 ADD MLOAD PUSH2 0x3456 JUMP JUMPDEST DUP1 ISZERO PUSH2 0x4FBD JUMPI POP PUSH1 0x80 DUP2 ADD MLOAD PUSH1 0x1 PUSH1 0x1 PUSH1 0xA0 SHL SUB DUP5 AND PUSH0 SWAP1 DUP2 MSTORE PUSH1 0x14 PUSH1 0x20 MSTORE PUSH1 0x40 SWAP1 KECCAK256 PUSH1 0x2 ADD SLOAD LT ISZERO JUMPDEST DUP1 ISZERO PUSH2 0x4FE7 JUMPI POP PUSH1 0xA0 DUP2 ADD MLOAD PUSH1 0x1 PUSH1 0x1 PUSH1 0xA0 SHL SUB DUP5 AND PUSH0 SWAP1 DUP2 MSTORE PUSH1 0x14 PUSH1 0x20 MSTORE PUSH1 0x40 SWAP1 KECCAK256 PUSH1 0x3 ADD SLOAD LT ISZERO JUMPDEST DUP1 ISZERO PUSH2 0x5011 JUMPI POP PUSH1 0x60 DUP2 ADD MLOAD PUSH1 0x1 PUSH1 0x1 PUSH1 0xA0 SHL SUB DUP5 AND PUSH0 SWAP1 DUP2 MSTORE PUSH1 0x12 PUSH1 0x20 MSTORE PUSH1 0x40 SWAP1 KECCAK256 PUSH1 0x5 ADD SLOAD LT ISZERO JUMPDEST ISZERO PUSH2 0xE5E JUMPI PUSH1 0xC0 DUP2 ADD MLOAD PUSH1 0x1 PUSH1 0x1 PUSH1 0xA0 SHL SUB DUP5 AND PUSH0 SWAP1 DUP2 MSTORE PUSH1 0x19 PUSH1 0x20 MSTORE PUSH1 0x40 DUP2 KECCAK256 PUSH1 0x3 ADD DUP1 SLOAD DUP4 SWAP3 SWAP1 PUSH2 0x5045 SWAP1 DUP5 SWAP1 PUSH2 0x5CFF JUMP JUMPDEST SWAP1 SWAP2 SSTORE POP POP PUSH1 0x1 PUSH1 0x1 PUSH1 0xA0 SHL SUB DUP5 AND PUSH0 SWAP1 DUP2 MSTORE PUSH1 0x12 PUSH1 0x20 MSTORE PUSH1 0x40 DUP2 KECCAK256 PUSH1 0x9 ADD DUP5 SWAP1 SSTORE PUSH2 0x5073 SWAP1 DUP6 SWAP1 DUP6 PUSH2 0x47B2 JUMP JUMPDEST DUP3 PUSH2 0x507D DUP2 PUSH2 0x5C41 JUMP JUMPDEST SWAP4 POP POP POP POP PUSH2 0x4E92 JUMP JUMPDEST PUSH0 PUSH2 0x5092 DUP4 DUP4 PUSH2 0x520B JUMP JUMPDEST SWAP2 POP DUP2 ISZERO PUSH2 0x130A JUMPI PUSH1 0x1 PUSH1 0x1 PUSH1 0xA0 SHL SUB DUP4 AND PUSH0 SWAP1 DUP2 MSTORE PUSH1 0x12 PUSH1 0x20 MSTORE PUSH1 0x40 SWAP1 KECCAK256 PUSH1 0x9 ADD SLOAD PUSH1 0x4 GT ISZERO PUSH2 0x5164 JUMPI PUSH1 0x64 PUSH2 0x50CA DUP4 PUSH1 0x4B PUSH2 0x5BC2 JUMP JUMPDEST PUSH2 0x50D4 SWAP2 SWAP1 PUSH2 0x5BD9 JUMP JUMPDEST PUSH1 0x1 PUSH1 0x1 PUSH1 0xA0 SHL SUB DUP5 AND PUSH0 SWAP1 DUP2 MSTORE PUSH1 0x1A PUSH1 0x20 SWAP1 DUP2 MSTORE PUSH1 0x40 DUP1 DUP4 KECCAK256 PUSH1 0xD SLOAD DUP5 MSTORE SWAP1 SWAP2 MSTORE DUP2 KECCAK256 DUP1 SLOAD SWAP1 SWAP2 SWAP1 PUSH2 0x5108 SWAP1 DUP5 SWAP1 PUSH2 0x5CFF JUMP JUMPDEST SWAP1 SWAP2 SSTORE POP PUSH1 0x64 SWAP1 POP PUSH2 0x511B DUP4 PUSH1 0x19 PUSH2 0x5BC2 JUMP JUMPDEST PUSH2 0x5125 SWAP2 SWAP1 PUSH2 0x5BD9 JUMP JUMPDEST PUSH1 0x1 PUSH1 0x1 PUSH1 0xA0 SHL SUB DUP5 AND PUSH0 SWAP1 DUP2 MSTORE PUSH1 0x1A PUSH1 0x20 SWAP1 DUP2 MSTORE PUSH1 0x40 DUP1 DUP4 KECCAK256 PUSH1 0xE SLOAD DUP5 MSTORE SWAP1 SWAP2 MSTORE DUP2 KECCAK256 DUP1 SLOAD SWAP1 SWAP2 SWAP1 PUSH2 0x5159 SWAP1 DUP5 SWAP1 PUSH2 0x5CFF JUMP JUMPDEST SWAP1 SWAP2 SSTORE POP PUSH2 0x130A SWAP1 POP JUMP JUMPDEST PUSH1 0x64 PUSH2 0x5171 DUP4 PUSH1 0x32 PUSH2 0x5BC2 JUMP JUMPDEST PUSH2 0x517B SWAP2 SWAP1 PUSH2 0x5BD9 JUMP JUMPDEST PUSH1 0x1 PUSH1 0x1 PUSH1 0xA0 SHL SUB DUP5 AND PUSH0 SWAP1 DUP2 MSTORE PUSH1 0x1A PUSH1 0x20 SWAP1 DUP2 MSTORE PUSH1 0x40 DUP1 DUP4 KECCAK256 PUSH1 0xD SLOAD DUP5 MSTORE SWAP1 SWAP2 MSTORE DUP2 KECCAK256 DUP1 SLOAD SWAP1 SWAP2 SWAP1 PUSH2 0x51AF SWAP1 DUP5 SWAP1 PUSH2 0x5CFF JUMP JUMPDEST SWAP1 SWAP2 SSTORE POP PUSH1 0x64 SWAP1 POP PUSH2 0x51C2 DUP4 PUSH1 0x32 PUSH2 0x5BC2 JUMP JUMPDEST PUSH2 0x51CC SWAP2 SWAP1 PUSH2 0x5BD9 JUMP JUMPDEST PUSH1 0x1 PUSH1 0x1 PUSH1 0xA0 SHL SUB DUP5 AND PUSH0 SWAP1 DUP2 MSTORE PUSH1 0x1A PUSH1 0x20 SWAP1 DUP2 MSTORE PUSH1 0x40 DUP1 DUP4 KECCAK256 PUSH1 0xE SLOAD DUP5 MSTORE SWAP1 SWAP2 MSTORE DUP2 KECCAK256 DUP1 SLOAD SWAP1 SWAP2 SWAP1 PUSH2 0x5200 SWAP1 DUP5 SWAP1 PUSH2 0x5CFF JUMP JUMPDEST SWAP1 SWAP2 SSTORE POP POP POP SWAP2 SWAP1 POP JUMP JUMPDEST PUSH1 0x1 PUSH1 0x1 PUSH1 0xA0 SHL SUB DUP3 AND PUSH0 SWAP1 DUP2 MSTORE PUSH1 0x12 PUSH1 0x20 MSTORE PUSH1 0x40 DUP2 KECCAK256 PUSH1 0x8 ADD SLOAD TIMESTAMP LT PUSH2 0x5233 JUMPI POP PUSH0 PUSH2 0x2B52 JUMP JUMPDEST PUSH1 0x1 PUSH1 0x1 PUSH1 0xA0 SHL SUB DUP4 AND PUSH0 SWAP1 DUP2 MSTORE PUSH1 0x1B PUSH1 0x20 MSTORE PUSH1 0x40 SWAP1 KECCAK256 SLOAD DUP3 PUSH1 0x1 JUMPDEST DUP3 DUP2 GT PUSH2 0x530A JUMPI PUSH1 0x1 PUSH1 0x1 PUSH1 0xA0 SHL SUB DUP7 AND PUSH0 SWAP1 DUP2 MSTORE PUSH1 0x15 PUSH1 0x20 SWAP1 DUP2 MSTORE PUSH1 0x40 DUP1 DUP4 KECCAK256 DUP5 DUP5 MSTORE SWAP1 SWAP2 MSTORE DUP2 KECCAK256 PUSH1 0x4 DUP2 ADD SLOAD PUSH1 0x3 DUP3 ADD SLOAD SWAP2 SWAP3 SWAP2 GT PUSH2 0x5290 JUMPI PUSH0 PUSH2 0x52A4 JUMP JUMPDEST DUP2 PUSH1 0x4 ADD SLOAD DUP3 PUSH1 0x3 ADD SLOAD PUSH2 0x52A4 SWAP2 SWAP1 PUSH2 0x5C0F JUMP JUMPDEST SWAP1 POP DUP1 ISZERO PUSH2 0x52F5 JUMPI PUSH0 DUP2 DUP6 GT ISZERO PUSH2 0x52BB JUMPI DUP2 PUSH2 0x52BD JUMP JUMPDEST DUP5 JUMPDEST SWAP1 POP DUP1 DUP4 PUSH1 0x4 ADD PUSH0 DUP3 DUP3 SLOAD PUSH2 0x52D2 SWAP2 SWAP1 PUSH2 0x5CFF JUMP JUMPDEST SWAP1 SWAP2 SSTORE POP PUSH2 0x52E2 SWAP1 POP DUP2 DUP7 PUSH2 0x5C0F JUMP JUMPDEST SWAP5 POP DUP5 PUSH0 SUB PUSH2 0x52F3 JUMPI POP POP POP PUSH2 0x530A JUMP JUMPDEST POP JUMPDEST POP POP DUP1 DUP1 PUSH2 0x5302 SWAP1 PUSH2 0x5C41 JUMP JUMPDEST SWAP2 POP POP PUSH2 0x524F JUMP JUMPDEST POP PUSH2 0x5315 DUP2 DUP6 PUSH2 0x5C0F JUMP JUMPDEST SWAP6 SWAP5 POP POP POP POP POP JUMP JUMPDEST PUSH1 0x40 MLOAD DUP1 PUSH1 0x60 ADD PUSH1 0x40 MSTORE DUP1 PUSH1 0x3 SWAP1 JUMPDEST PUSH1 0x40 DUP1 MLOAD DUP1 DUP3 ADD SWAP1 SWAP2 MSTORE PUSH0 DUP1 DUP3 MSTORE PUSH1 0x20 DUP3 ADD MSTORE DUP2 MSTORE PUSH1 0x20 ADD SWAP1 PUSH1 0x1 SWAP1 SUB SWAP1 DUP2 PUSH2 0x532D JUMPI SWAP1 POP POP SWAP1 JUMP JUMPDEST DUP3 DUP1 SLOAD DUP3 DUP3 SSTORE SWAP1 PUSH0 MSTORE PUSH1 0x20 PUSH0 KECCAK256 SWAP1 DUP2 ADD SWAP3 DUP3 ISZERO PUSH2 0x53A9 JUMPI SWAP2 PUSH1 0x20 MUL DUP3 ADD JUMPDEST DUP3 DUP2 GT ISZERO PUSH2 0x53A9 JUMPI DUP3 MLOAD DUP3 SLOAD PUSH1 0x1 PUSH1 0x1 PUSH1 0xA0 SHL SUB NOT AND PUSH1 0x1 PUSH1 0x1 PUSH1 0xA0 SHL SUB SWAP1 SWAP2 AND OR DUP3 SSTORE PUSH1 0x20 SWAP1 SWAP3 ADD SWAP2 PUSH1 0x1 SWAP1 SWAP2 ADD SWAP1 PUSH2 0x5374 JUMP JUMPDEST POP PUSH2 0x53B5 SWAP3 SWAP2 POP PUSH2 0x53F2 JUMP JUMPDEST POP SWAP1 JUMP JUMPDEST DUP3 DUP1 SLOAD DUP3 DUP3 SSTORE SWAP1 PUSH0 MSTORE PUSH1 0x20 PUSH0 KECCAK256 SWAP1 DUP2 ADD SWAP3 DUP3 ISZERO PUSH2 0x53A9 JUMPI SWAP2 PUSH1 0x20 MUL DUP3 ADD JUMPDEST DUP3 DUP2 GT ISZERO PUSH2 0x53A9 JUMPI DUP3 MLOAD DUP3 SSTORE SWAP2 PUSH1 0x20 ADD SWAP2 SWAP1 PUSH1 0x1 ADD SWAP1 PUSH2 0x53D7 JUMP JUMPDEST JUMPDEST DUP1 DUP3 GT ISZERO PUSH2 0x53B5 JUMPI PUSH0 DUP2 SSTORE PUSH1 0x1 ADD PUSH2 0x53F3 JUMP JUMPDEST DUP1 CALLDATALOAD PUSH1 0x1 PUSH1 0x1 PUSH1 0xA0 SHL SUB DUP2 AND DUP2 EQ PUSH2 0x541C JUMPI PUSH0 DUP1 REVERT JUMPDEST SWAP2 SWAP1 POP JUMP JUMPDEST PUSH0 DUP1 PUSH1 0x40 DUP4 DUP6 SUB SLT ISZERO PUSH2 0x5432 JUMPI PUSH0 DUP1 REVERT JUMPDEST PUSH2 0x543B DUP4 PUSH2 0x5406 JUMP JUMPDEST SWAP5 PUSH1 0x20 SWAP4 SWAP1 SWAP4 ADD CALLDATALOAD SWAP4 POP POP POP JUMP JUMPDEST PUSH0 DUP1 PUSH1 0x40 DUP4 DUP6 SUB SLT ISZERO PUSH2 0x545A JUMPI PUSH0 DUP1 REVERT JUMPDEST POP POP DUP1 CALLDATALOAD SWAP3 PUSH1 0x20 SWAP1 SWAP2 ADD CALLDATALOAD SWAP2 POP JUMP JUMPDEST PUSH0 DUP1 PUSH0 PUSH1 0x60 DUP5 DUP7 SUB SLT ISZERO PUSH2 0x547B JUMPI PUSH0 DUP1 REVERT JUMPDEST PUSH2 0x5484 DUP5 PUSH2 0x5406 JUMP JUMPDEST SWAP6 PUSH1 0x20 DUP6 ADD CALLDATALOAD SWAP6 POP PUSH1 0x40 SWAP1 SWAP5 ADD CALLDATALOAD SWAP4 SWAP3 POP POP POP JUMP JUMPDEST PUSH0 PUSH1 0x20 DUP3 DUP5 SUB SLT ISZERO PUSH2 0x54A9 JUMPI PUSH0 DUP1 REVERT JUMPDEST PUSH2 0x54B2 DUP3 PUSH2 0x5406 JUMP JUMPDEST SWAP4 SWAP3 POP POP POP JUMP JUMPDEST PUSH1 0x20 DUP1 DUP3 MSTORE DUP3 MLOAD DUP3 DUP3 ADD DUP2 SWAP1 MSTORE PUSH0 SWAP2 DUP5 ADD SWAP1 PUSH1 0x40 DUP5 ADD SWAP1 DUP4 JUMPDEST DUP2 DUP2 LT ISZERO PUSH2 0x550C JUMPI DUP4 MLOAD DUP1 MLOAD DUP5 MSTORE PUSH1 0x20 DUP2 ADD MLOAD PUSH1 0x20 DUP6 ADD MSTORE PUSH1 0x40 DUP2 ADD MLOAD PUSH1 0x40 DUP6 ADD MSTORE POP PUSH1 0x60 DUP4 ADD SWAP3 POP PUSH1 0x20 DUP5 ADD SWAP4 POP PUSH1 0x1 DUP2 ADD SWAP1 POP PUSH2 0x54D2 JUMP JUMPDEST POP SWAP1 SWAP6 SWAP5 POP POP POP POP POP JUMP JUMPDEST PUSH1 0x20 DUP1 DUP3 MSTORE DUP3 MLOAD DUP3 DUP3 ADD DUP2 SWAP1 MSTORE PUSH0 SWAP2 DUP5 ADD SWAP1 PUSH1 0x40 DUP5 ADD SWAP1 DUP4 JUMPDEST DUP2 DUP2 LT ISZERO PUSH2 0x550C JUMPI DUP4 MLOAD DUP1 MLOAD DUP5 MSTORE PUSH1 0x20 DUP2 ADD MLOAD PUSH1 0x20 DUP6 ADD MSTORE PUSH1 0x40 DUP2 ADD MLOAD PUSH1 0x40 DUP6 ADD MSTORE PUSH1 0x60 DUP2 ADD MLOAD PUSH1 0x60 DUP6 ADD MSTORE PUSH1 0x80 DUP2 ADD MLOAD PUSH1 0x80 DUP6 ADD MSTORE POP PUSH1 0xA0 DUP4 ADD SWAP3 POP PUSH1 0x20 DUP5 ADD SWAP4 POP PUSH1 0x1 DUP2 ADD SWAP1 POP PUSH2 0x5530 JUMP JUMPDEST PUSH0 DUP2 MLOAD DUP1 DUP5 MSTORE DUP1 PUSH1 0x20 DUP5 ADD PUSH1 0x20 DUP7 ADD MCOPY PUSH0 PUSH1 0x20 DUP3 DUP7 ADD ADD MSTORE PUSH1 0x20 PUSH1 0x1F NOT PUSH1 0x1F DUP4 ADD AND DUP6 ADD ADD SWAP2 POP POP SWAP3 SWAP2 POP POP JUMP JUMPDEST PUSH0 PUSH1 0x20 DUP3 ADD PUSH1 0x20 DUP4 MSTORE DUP1 DUP5 MLOAD DUP1 DUP4 MSTORE PUSH1 0x40 DUP6 ADD SWAP2 POP PUSH1 0x40 DUP2 PUSH1 0x5 SHL DUP7 ADD ADD SWAP3 POP PUSH1 0x20 DUP7 ADD PUSH0 JUMPDEST DUP3 DUP2 LT ISZERO PUSH2 0x5644 JUMPI PUSH1 0x3F NOT DUP8 DUP7 SUB ADD DUP5 MSTORE DUP2 MLOAD DUP1 MLOAD DUP7 MSTORE PUSH1 0x20 DUP2 ADD MLOAD PUSH1 0xC0 PUSH1 0x20 DUP9 ADD MSTORE PUSH2 0x5602 PUSH1 0xC0 DUP9 ADD DUP3 PUSH2 0x557E JUMP JUMPDEST PUSH1 0x40 DUP4 DUP2 ADD MLOAD SWAP1 DUP10 ADD MSTORE PUSH1 0x60 DUP1 DUP5 ADD MLOAD ISZERO ISZERO SWAP1 DUP10 ADD MSTORE PUSH1 0x80 DUP1 DUP5 ADD MLOAD SWAP1 DUP10 ADD MSTORE PUSH1 0xA0 SWAP3 DUP4 ADD MLOAD SWAP3 SWAP1 SWAP8 ADD SWAP2 SWAP1 SWAP2 MSTORE POP PUSH1 0x20 SWAP4 DUP5 ADD SWAP4 SWAP2 SWAP1 SWAP2 ADD SWAP1 PUSH1 0x1 ADD PUSH2 0x55D2 JUMP JUMPDEST POP SWAP3 SWAP7 SWAP6 POP POP POP POP POP POP JUMP JUMPDEST PUSH1 0x20 DUP1 DUP3 MSTORE DUP3 MLOAD DUP3 DUP3 ADD DUP2 SWAP1 MSTORE PUSH0 SWAP2 DUP5 ADD SWAP1 PUSH1 0x40 DUP5 ADD SWAP1 DUP4 JUMPDEST DUP2 DUP2 LT ISZERO PUSH2 0x550C JUMPI DUP4 MLOAD DUP1 MLOAD DUP5 MSTORE PUSH1 0x20 DUP2 ADD MLOAD PUSH1 0x20 DUP6 ADD MSTORE PUSH1 0x40 DUP2 ADD MLOAD PUSH1 0x40 DUP6 ADD MSTORE PUSH1 0x60 DUP2 ADD MLOAD PUSH1 0x60 DUP6 ADD MSTORE PUSH1 0x80 DUP2 ADD MLOAD PUSH1 0x80 DUP6 ADD MSTORE PUSH1 0xA0 DUP2 ADD MLOAD PUSH1 0xA0 DUP6 ADD MSTORE PUSH1 0xC0 DUP2 ADD MLOAD ISZERO ISZERO PUSH1 0xC0 DUP6 ADD MSTORE POP PUSH1 0xE0 DUP4 ADD SWAP3 POP PUSH1 0x20 DUP5 ADD SWAP4 POP PUSH1 0x1 DUP2 ADD SWAP1 POP PUSH2 0x5669 JUMP JUMPDEST PUSH1 0x20 DUP2 MSTORE PUSH2 0x56E7 PUSH1 0x20 DUP3 ADD DUP4 MLOAD PUSH1 0x1 PUSH1 0x1 PUSH1 0xA0 SHL SUB AND SWAP1 MSTORE JUMP JUMPDEST PUSH1 0x20 DUP3 ADD MLOAD PUSH1 0x40 DUP3 ADD MSTORE PUSH1 0x40 DUP3 ADD MLOAD PUSH1 0x60 DUP3 ADD MSTORE PUSH1 0x60 DUP3 ADD MLOAD PUSH1 0x80 DUP3 ADD MSTORE PUSH1 0x80 DUP3 ADD MLOAD PUSH1 0xA0 DUP3 ADD MSTORE PUSH1 0xA0 DUP3 ADD MLOAD PUSH1 0xC0 DUP3 ADD MSTORE PUSH1 0xC0 DUP3 ADD MLOAD PUSH1 0xE0 DUP3 ADD MSTORE PUSH1 0xE0 DUP3 ADD MLOAD PUSH2 0x100 DUP3 ADD MSTORE PUSH2 0x100 DUP3 ADD MLOAD PUSH2 0x120 DUP3 ADD MSTORE PUSH2 0x120 DUP3 ADD MLOAD PUSH2 0x140 DUP3 ADD MSTORE PUSH2 0x140 DUP3 ADD MLOAD PUSH2 0x160 DUP3 ADD MSTORE PUSH2 0x160 DUP3 ADD MLOAD PUSH2 0x180 DUP3 ADD MSTORE PUSH2 0x180 DUP3 ADD MLOAD PUSH2 0x1A0 DUP3 ADD MSTORE PUSH2 0x1A0 DUP3 ADD MLOAD PUSH2 0x1C0 DUP3 ADD MSTORE PUSH2 0x1C0 DUP3 ADD MLOAD PUSH2 0x1E0 DUP3 ADD MSTORE PUSH2 0x1E0 DUP3 ADD MLOAD PUSH2 0x200 DUP3 ADD MSTORE PUSH2 0x200 DUP3 ADD MLOAD PUSH2 0x220 DUP3 ADD MSTORE PUSH2 0x220 DUP3 ADD MLOAD PUSH2 0x240 DUP3 ADD MSTORE PUSH2 0x240 DUP3 ADD MLOAD PUSH2 0x260 DUP3 ADD MSTORE PUSH0 PUSH2 0x260 DUP4 ADD MLOAD PUSH2 0x300 PUSH2 0x280 DUP5 ADD MSTORE PUSH2 0x57D0 PUSH2 0x320 DUP5 ADD DUP3 PUSH2 0x557E JUMP JUMPDEST SWAP1 POP PUSH2 0x280 DUP5 ADD MLOAD PUSH2 0x2A0 DUP5 ADD MSTORE PUSH2 0x2A0 DUP5 ADD MLOAD PUSH2 0x57F3 PUSH2 0x2C0 DUP6 ADD DUP3 ISZERO ISZERO SWAP1 MSTORE JUMP JUMPDEST POP PUSH2 0x2C0 DUP5 ADD MLOAD DUP1 ISZERO ISZERO PUSH2 0x2E0 DUP6 ADD MSTORE POP PUSH2 0x2E0 DUP5 ADD MLOAD DUP1 ISZERO ISZERO PUSH2 0x300 DUP6 ADD MSTORE POP SWAP4 SWAP3 POP POP POP JUMP JUMPDEST PUSH0 DUP1 PUSH0 PUSH1 0x60 DUP5 DUP7 SUB SLT ISZERO PUSH2 0x582D JUMPI PUSH0 DUP1 REVERT JUMPDEST PUSH2 0x5836 DUP5 PUSH2 0x5406 JUMP JUMPDEST SWAP3 POP PUSH2 0x5844 PUSH1 0x20 DUP6 ADD PUSH2 0x5406 JUMP JUMPDEST SWAP3 SWAP6 SWAP3 SWAP5 POP POP POP PUSH1 0x40 SWAP2 SWAP1 SWAP2 ADD CALLDATALOAD SWAP1 JUMP JUMPDEST PUSH0 PUSH1 0x20 DUP3 DUP5 SUB SLT ISZERO PUSH2 0x5865 JUMPI PUSH0 DUP1 REVERT JUMPDEST POP CALLDATALOAD SWAP2 SWAP1 POP JUMP JUMPDEST DUP1 MLOAD DUP3 MSTORE PUSH1 0x20 DUP1 DUP3 ADD MLOAD PUSH1 0x1 PUSH1 0x1 PUSH1 0xA0 SHL SUB AND SWAP1 DUP4 ADD MSTORE PUSH1 0x40 DUP1 DUP3 ADD MLOAD SWAP1 DUP4 ADD MSTORE PUSH1 0x60 SWAP1 DUP2 ADD MLOAD SWAP2 ADD MSTORE JUMP JUMPDEST PUSH1 0x20 DUP1 DUP3 MSTORE DUP3 MLOAD DUP3 DUP3 ADD DUP2 SWAP1 MSTORE PUSH0 SWAP2 DUP5 ADD SWAP1 PUSH1 0x40 DUP5 ADD SWAP1 DUP4 JUMPDEST DUP2 DUP2 LT ISZERO PUSH2 0x550C JUMPI PUSH2 0x58C4 DUP4 DUP6 MLOAD PUSH2 0x586C JUMP JUMPDEST PUSH1 0x20 SWAP4 SWAP1 SWAP4 ADD SWAP3 PUSH1 0x80 SWAP3 SWAP1 SWAP3 ADD SWAP2 PUSH1 0x1 ADD PUSH2 0x58B1 JUMP JUMPDEST DUP2 MLOAD DUP2 MSTORE PUSH1 0x20 DUP1 DUP4 ADD MLOAD SWAP1 DUP3 ADD MSTORE PUSH1 0x40 DUP1 DUP4 ADD MLOAD SWAP1 DUP3 ADD MSTORE PUSH1 0x60 DUP1 DUP4 ADD MLOAD SWAP1 DUP3 ADD MSTORE PUSH1 0x80 DUP2 ADD PUSH2 0x2B52 JUMP JUMPDEST PUSH1 0x20 DUP1 DUP3 MSTORE DUP3 MLOAD DUP3 DUP3 ADD DUP2 SWAP1 MSTORE PUSH0 SWAP2 DUP5 ADD SWAP1 PUSH1 0x40 DUP5 ADD SWAP1 DUP4 JUMPDEST DUP2 DUP2 LT ISZERO PUSH2 0x550C JUMPI DUP4 MLOAD DUP1 MLOAD DUP5 MSTORE PUSH1 0x20 SWAP1 DUP2 ADD MLOAD DUP2 DUP6 ADD MSTORE SWAP1 SWAP4 ADD SWAP3 PUSH1 0x40 SWAP1 SWAP3 ADD SWAP2 PUSH1 0x1 ADD PUSH2 0x591E JUMP JUMPDEST PUSH0 PUSH1 0x20 DUP3 ADD PUSH1 0x20 DUP4 MSTORE DUP1 DUP5 MLOAD DUP1 DUP4 MSTORE PUSH1 0x40 DUP6 ADD SWAP2 POP PUSH1 0x40 DUP2 PUSH1 0x5 SHL DUP7 ADD ADD SWAP3 POP PUSH1 0x20 DUP7 ADD PUSH0 JUMPDEST DUP3 DUP2 LT ISZERO PUSH2 0x5644 JUMPI PUSH1 0x3F NOT DUP8 DUP7 SUB ADD DUP5 MSTORE DUP2 MLOAD DUP1 MLOAD DUP7 MSTORE PUSH1 0x20 DUP2 ADD MLOAD PUSH2 0x1A0 PUSH1 0x20 DUP9 ADD MSTORE PUSH2 0x59A0 PUSH2 0x1A0 DUP9 ADD DUP3 PUSH2 0x557E JUMP JUMPDEST SWAP1 POP PUSH1 0x40 DUP3 ADD MLOAD PUSH1 0x40 DUP9 ADD MSTORE PUSH1 0x60 DUP3 ADD MLOAD PUSH1 0x60 DUP9 ADD MSTORE PUSH1 0x80 DUP3 ADD MLOAD PUSH1 0x80 DUP9 ADD MSTORE PUSH1 0xA0 DUP3 ADD MLOAD PUSH1 0xA0 DUP9 ADD MSTORE PUSH1 0xC0 DUP3 ADD MLOAD PUSH1 0xC0 DUP9 ADD MSTORE PUSH1 0xE0 DUP3 ADD MLOAD PUSH2 0x59E7 PUSH1 0xE0 DUP10 ADD DUP3 ISZERO ISZERO SWAP1 MSTORE JUMP JUMPDEST POP PUSH2 0x100 DUP3 ADD MLOAD PUSH2 0x100 DUP9 ADD MSTORE PUSH2 0x120 DUP3 ADD MLOAD PUSH2 0x120 DUP9 ADD MSTORE PUSH2 0x140 DUP3 ADD MLOAD PUSH2 0x140 DUP9 ADD MSTORE PUSH2 0x160 DUP3 ADD MLOAD PUSH2 0x160 DUP9 ADD MSTORE PUSH2 0x180 DUP3 ADD MLOAD SWAP2 POP PUSH2 0x5A2F PUSH2 0x180 DUP9 ADD DUP4 ISZERO ISZERO SWAP1 MSTORE JUMP JUMPDEST SWAP6 POP POP PUSH1 0x20 SWAP4 DUP5 ADD SWAP4 SWAP2 SWAP1 SWAP2 ADD SWAP1 PUSH1 0x1 ADD PUSH2 0x596E JUMP JUMPDEST DUP7 DUP2 MSTORE PUSH1 0xC0 PUSH1 0x20 DUP3 ADD MSTORE PUSH0 PUSH2 0x5A5D PUSH1 0xC0 DUP4 ADD DUP9 PUSH2 0x557E JUMP JUMPDEST PUSH1 0x40 DUP4 ADD SWAP7 SWAP1 SWAP7 MSTORE POP SWAP3 ISZERO ISZERO PUSH1 0x60 DUP5 ADD MSTORE PUSH1 0x80 DUP4 ADD SWAP2 SWAP1 SWAP2 MSTORE PUSH1 0xA0 SWAP1 SWAP2 ADD MSTORE SWAP3 SWAP2 POP POP JUMP JUMPDEST PUSH1 0xC0 DUP2 ADD DUP2 DUP4 PUSH0 JUMPDEST PUSH1 0x3 DUP2 LT ISZERO PUSH2 0x5ABE JUMPI DUP2 MLOAD DUP1 MLOAD PUSH1 0x1 PUSH1 0x1 PUSH1 0xA0 SHL SUB AND DUP5 MSTORE PUSH1 0x20 SWAP1 DUP2 ADD MLOAD DUP2 DUP6 ADD MSTORE PUSH1 0x40 SWAP1 SWAP4 ADD SWAP3 SWAP1 SWAP2 ADD SWAP1 PUSH1 0x1 ADD PUSH2 0x5A8A JUMP JUMPDEST POP POP POP SWAP3 SWAP2 POP POP JUMP JUMPDEST PUSH1 0x20 DUP1 DUP3 MSTORE DUP3 MLOAD DUP3 DUP3 ADD DUP2 SWAP1 MSTORE PUSH0 SWAP2 DUP5 ADD SWAP1 PUSH1 0x40 DUP5 ADD SWAP1 DUP4 JUMPDEST DUP2 DUP2 LT ISZERO PUSH2 0x550C JUMPI PUSH2 0x5B14 DUP4 DUP6 MLOAD DUP1 MLOAD DUP3 MSTORE PUSH1 0x20 DUP2 ADD MLOAD PUSH1 0x20 DUP4 ADD MSTORE PUSH1 0x40 DUP2 ADD MLOAD PUSH1 0x40 DUP4 ADD MSTORE PUSH1 0x60 DUP2 ADD MLOAD PUSH1 0x60 DUP4 ADD MSTORE POP POP JUMP JUMPDEST PUSH1 0x20 SWAP4 SWAP1 SWAP4 ADD SWAP3 PUSH1 0x80 SWAP3 SWAP1 SWAP3 ADD SWAP2 PUSH1 0x1 ADD PUSH2 0x5AE0 JUMP JUMPDEST PUSH1 0x20 DUP1 DUP3 MSTORE DUP3 MLOAD DUP3 DUP3 ADD DUP2 SWAP1 MSTORE PUSH0 SWAP2 DUP5 ADD SWAP1 PUSH1 0x40 DUP5 ADD SWAP1 DUP4 JUMPDEST DUP2 DUP2 LT ISZERO PUSH2 0x550C JUMPI PUSH2 0x5B56 DUP4 DUP6 MLOAD PUSH2 0x586C JUMP JUMPDEST PUSH1 0x20 SWAP4 SWAP1 SWAP4 ADD SWAP3 PUSH1 0x80 SWAP3 SWAP1 SWAP3 ADD SWAP2 PUSH1 0x1 ADD PUSH2 0x5B43 JUMP JUMPDEST DUP8 DUP2 MSTORE PUSH1 0xE0 PUSH1 0x20 DUP3 ADD MSTORE PUSH0 PUSH2 0x5B84 PUSH1 0xE0 DUP4 ADD DUP10 PUSH2 0x557E JUMP JUMPDEST PUSH1 0x40 DUP4 ADD SWAP8 SWAP1 SWAP8 MSTORE POP PUSH1 0x60 DUP2 ADD SWAP5 SWAP1 SWAP5 MSTORE PUSH1 0x80 DUP5 ADD SWAP3 SWAP1 SWAP3 MSTORE PUSH1 0xA0 DUP4 ADD MSTORE PUSH1 0xC0 SWAP1 SWAP2 ADD MSTORE SWAP3 SWAP2 POP POP JUMP JUMPDEST PUSH4 0x4E487B71 PUSH1 0xE0 SHL PUSH0 MSTORE PUSH1 0x11 PUSH1 0x4 MSTORE PUSH1 0x24 PUSH0 REVERT JUMPDEST DUP1 DUP3 MUL DUP2 ISZERO DUP3 DUP3 DIV DUP5 EQ OR PUSH2 0x2B52 JUMPI PUSH2 0x2B52 PUSH2 0x5BAE JUMP JUMPDEST PUSH0 DUP3 PUSH2 0x5BF3 JUMPI PUSH4 0x4E487B71 PUSH1 0xE0 SHL PUSH0 MSTORE PUSH1 0x12 PUSH1 0x4 MSTORE PUSH1 0x24 PUSH0 REVERT JUMPDEST POP DIV SWAP1 JUMP JUMPDEST PUSH0 PUSH1 0x20 DUP3 DUP5 SUB SLT ISZERO PUSH2 0x5C08 JUMPI PUSH0 DUP1 REVERT JUMPDEST POP MLOAD SWAP2 SWAP1 POP JUMP JUMPDEST DUP2 DUP2 SUB DUP2 DUP2 GT ISZERO PUSH2 0x2B52 JUMPI PUSH2 0x2B52 PUSH2 0x5BAE JUMP JUMPDEST PUSH0 PUSH1 0x20 DUP3 DUP5 SUB SLT ISZERO PUSH2 0x5C32 JUMPI PUSH0 DUP1 REVERT JUMPDEST DUP2 MLOAD DUP1 ISZERO ISZERO DUP2 EQ PUSH2 0x54B2 JUMPI PUSH0 DUP1 REVERT JUMPDEST PUSH0 PUSH1 0x1 DUP3 ADD PUSH2 0x5C52 JUMPI PUSH2 0x5C52 PUSH2 0x5BAE JUMP JUMPDEST POP PUSH1 0x1 ADD SWAP1 JUMP JUMPDEST PUSH4 0x4E487B71 PUSH1 0xE0 SHL PUSH0 MSTORE PUSH1 0x41 PUSH1 0x4 MSTORE PUSH1 0x24 PUSH0 REVERT JUMPDEST PUSH4 0x4E487B71 PUSH1 0xE0 SHL PUSH0 MSTORE PUSH1 0x32 PUSH1 0x4 MSTORE PUSH1 0x24 PUSH0 REVERT JUMPDEST PUSH0 DUP2 PUSH2 0x5C8F JUMPI PUSH2 0x5C8F PUSH2 0x5BAE JUMP JUMPDEST POP PUSH0 NOT ADD SWAP1 JUMP JUMPDEST PUSH1 0x1 DUP2 DUP2 SHR SWAP1 DUP3 AND DUP1 PUSH2 0x5CAA JUMPI PUSH1 0x7F DUP3 AND SWAP2 POP JUMPDEST PUSH1 0x20 DUP3 LT DUP2 SUB PUSH2 0x130A JUMPI PUSH4 0x4E487B71 PUSH1 0xE0 SHL PUSH0 MSTORE PUSH1 0x22 PUSH1 0x4 MSTORE PUSH1 0x24 PUSH0 REVERT JUMPDEST PUSH1 0x20 DUP1 DUP3 MSTORE PUSH1 0x19 SWAP1 DUP3 ADD MSTORE PUSH32 0x4D696E696D756D20616D6F756E74206973203520555344542100000000000000 PUSH1 0x40 DUP3 ADD MSTORE PUSH1 0x60 ADD SWAP1 JUMP JUMPDEST DUP1 DUP3 ADD DUP1 DUP3 GT ISZERO PUSH2 0x2B52 JUMPI PUSH2 0x2B52 PUSH2 0x5BAE JUMP JUMPDEST PUSH1 0x20 DUP1 DUP3 MSTORE PUSH1 0x14 SWAP1 DUP3 ADD MSTORE PUSH20 0x596F7520617265206E6F7420616C6C6F77656421 PUSH1 0x60 SHL PUSH1 0x40 DUP3 ADD MSTORE PUSH1 0x60 ADD SWAP1 JUMP JUMPDEST PUSH1 0x20 DUP1 DUP3 MSTORE PUSH1 0x17 SWAP1 DUP3 ADD MSTORE PUSH23 0x596F7520617265206E6F74207265676973746572656421 PUSH1 0x48 SHL PUSH1 0x40 DUP3 ADD MSTORE PUSH1 0x60 ADD SWAP1 JUMP JUMPDEST PUSH1 0x20 DUP1 DUP3 MSTORE PUSH1 0x10 SWAP1 DUP3 ADD MSTORE PUSH16 0x496E76616C69642073706F6E736F7221 PUSH1 0x80 SHL PUSH1 0x40 DUP3 ADD MSTORE PUSH1 0x60 ADD SWAP1 JUMP JUMPDEST PUSH1 0x1 DUP2 JUMPDEST PUSH1 0x1 DUP5 GT ISZERO PUSH2 0x5DD6 JUMPI DUP1 DUP6 DIV DUP2 GT ISZERO PUSH2 0x5DBA JUMPI PUSH2 0x5DBA PUSH2 0x5BAE JUMP JUMPDEST PUSH1 0x1 DUP5 AND ISZERO PUSH2 0x5DC8 JUMPI SWAP1 DUP2 MUL SWAP1 JUMPDEST PUSH1 0x1 SWAP4 SWAP1 SWAP4 SHR SWAP3 DUP1 MUL PUSH2 0x5D9F JUMP JUMPDEST SWAP4 POP SWAP4 SWAP2 POP POP JUMP JUMPDEST PUSH0 DUP3 PUSH2 0x5DEC JUMPI POP PUSH1 0x1 PUSH2 0x2B52 JUMP JUMPDEST DUP2 PUSH2 0x5DF8 JUMPI POP PUSH0 PUSH2 0x2B52 JUMP JUMPDEST DUP2 PUSH1 0x1 DUP2 EQ PUSH2 0x5E0E JUMPI PUSH1 0x2 DUP2 EQ PUSH2 0x5E18 JUMPI PUSH2 0x5E34 JUMP JUMPDEST PUSH1 0x1 SWAP2 POP POP PUSH2 0x2B52 JUMP JUMPDEST PUSH1 0xFF DUP5 GT ISZERO PUSH2 0x5E29 JUMPI PUSH2 0x5E29 PUSH2 0x5BAE JUMP JUMPDEST POP POP PUSH1 0x1 DUP3 SHL PUSH2 0x2B52 JUMP JUMPDEST POP PUSH1 0x20 DUP4 LT PUSH2 0x133 DUP4 LT AND PUSH1 0x4E DUP5 LT PUSH1 0xB DUP5 LT AND OR ISZERO PUSH2 0x5E57 JUMPI POP DUP2 DUP2 EXP PUSH2 0x2B52 JUMP JUMPDEST PUSH2 0x5E63 PUSH0 NOT DUP5 DUP5 PUSH2 0x5D9B JUMP JUMPDEST DUP1 PUSH0 NOT DIV DUP3 GT ISZERO PUSH2 0x5E76 JUMPI PUSH2 0x5E76 PUSH2 0x5BAE JUMP JUMPDEST MUL SWAP4 SWAP3 POP POP POP JUMP JUMPDEST PUSH0 PUSH2 0x54B2 DUP4 DUP4 PUSH2 0x5DDE JUMP JUMPDEST PUSH1 0x20 DUP1 DUP3 MSTORE PUSH1 0xF SWAP1 DUP3 ADD MSTORE PUSH15 0x496E76616C696420616D6F756E7421 PUSH1 0x88 SHL PUSH1 0x40 DUP3 ADD MSTORE PUSH1 0x60 ADD SWAP1 JUMP INVALID LOG2 PUSH5 0x6970667358 0x22 SLT KECCAK256 DUP3 TIMESTAMP 0xD0 SGT 0xF6 LOG0 BYTE 0x23 BYTE RETURNDATACOPY 0x29 0xEE SAR GASLIMIT EXTCODECOPY 0xE8 LOG0 0xB3 PUSH25 0xEC8D7B004D0C20F5167145207264736F6C634300081A003300 "
		},
		"gasEstimates": {
			"creation": {
				"codeDepositCost": "4859200",
				"executionCost": "infinite",
				"totalCost": "infinite"
			},
			"external": {
				"BBDTokenContract()": "2492",
				"BBDTokenRate()": "2427",
				"BuyBBDFromWallet(uint256,uint256)": "infinite",
				"CreatorAddress()": "2471",
				"CreatorAddress_2()": "2381",
				"Deposit(uint256,uint256)": "infinite",
				"GetBBDPurchaseHistory(address,uint256,uint256)": "infinite",
				"GetContractDetails()": "infinite",
				"GetDashboardDetails(address)": "infinite",
				"GetDepositHistory(address,uint256,uint256)": "infinite",
				"GetDirects(address)": "infinite",
				"GetIncomeWithdrawalHistory(address,uint256,uint256)": "infinite",
				"GetLevelIncomeInfo(address)": "infinite",
				"GetPackages()": "infinite",
				"GetROIIncomeHistory(address,uint256,uint256)": "infinite",
				"GetRankInfo(address)": "infinite",
				"GetTeamDetails(address,uint256,uint256)": "infinite",
				"GetTopSponsorsReport()": "infinite",
				"GetWalletBalance(address,uint256)": "2777",
				"Login(address)": "2707",
				"ManagementFee()": "2403",
				"MarketingAddress()": "2492",
				"Reactivate()": "infinite",
				"Register(address,uint256,uint256)": "infinite",
				"SecurityFundContract()": "2448",
				"SetBBDTokenContract(address)": "28976",
				"SetSecurityFundContract(address)": "28976",
				"TopupMemberFromWallet(uint256,uint256)": "infinite",
				"TotalInvestment()": "2361",
				"TotalUsers()": "2404",
				"TotalWithdrawn()": "2362",
				"TransferFunds(address,address,uint256)": "infinite",
				"Withdraw(uint256)": "infinite",
				"map_BBDPurchaseHistory(address,uint256)": "9101",
				"map_LevelIncomeMaster(uint256)": "6865",
				"map_PackageMaster(uint256)": "infinite",
				"map_ROIIncomeHistory(address,uint256)": "6952",
				"map_RankMaster(uint256)": "infinite",
				"map_TeamALegAddress(address)": "2623",
				"map_UserBusinessOnLevel(address,uint256)": "2722",
				"map_UserDeposits(address,uint256)": "11287",
				"map_UserIdToAddress(uint256)": "2607",
				"map_UserIncome(address)": "11126",
				"map_UserIncomeWithdrawalHistory(address,uint256)": "4784",
				"map_UserTeam(address)": "8964",
				"map_UserTransactionCount(address)": "11171",
				"map_UserWalletBalance(address,uint256)": "2678",
				"map_Users(address)": "24066"
			},
			"internal": {
				"CapAndCreditIncomeToWallet(address,uint256)": "infinite",
				"CapIncome(address,uint256)": "infinite",
				"CapIncomeView(address,uint256)": "infinite",
				"CheckForWalletBalance(address,uint256,uint256)": "infinite",
				"CheckUserExistsAndActivationNotExpired(address)": "infinite",
				"ConvertToBase(uint256)": "infinite",
				"DepositInternal(uint256,uint256)": "infinite",
				"DistributeLevelIncome(address)": "infinite",
				"GetCapping4X_QualificationEndTimestamp(address)": "infinite",
				"GetContractBalance()": "infinite",
				"GetPendingROIIncome(address)": "infinite",
				"GetTopSponsorsByDirectInvestment()": "infinite",
				"GetTotalIncome(address)": "infinite",
				"GetTotalLevelIncome(address)": "infinite",
				"GetUserCappingAmount(address)": "infinite",
				"HasOneTimeInvestment(address,uint256)": "infinite",
				"HasUserActivationExpired(address)": "infinite",
				"Init()": "infinite",
				"InitLevelIncomeMaster()": "infinite",
				"InitPackageMaster()": "infinite",
				"InitRankMaster()": "infinite",
				"InitTopUser()": "infinite",
				"IsCappingRemaining(address)": "infinite",
				"IsOwner()": "4289",
				"IsQualifiedForLevelIncome(address,uint256)": "4431",
				"Process24HoursTopmostSponsorsIncome(uint256)": "infinite",
				"Process4X_CappingQualification(address,uint256,uint256)": "infinite",
				"ProcessNewRegistrationBonus(address,uint256)": "infinite",
				"ProcessROIIncome(address,uint256,uint256,uint256,uint256)": "infinite",
				"ProcessRankQualification(address)": "infinite",
				"ProcessRanks(address)": "infinite",
				"ReactivateInternal(address,uint256,uint256)": "infinite",
				"ReceiveTokens(uint256)": "infinite",
				"RegisterInternal(address)": "infinite",
				"RegisterInternal(address,uint256,uint256)": "infinite",
				"SaveDeposit(address,uint256,uint256)": "infinite",
				"SaveUser(address,address)": "infinite",
				"SendTokens(address,uint256)": "infinite",
				"SendTokensFromSecurityContract(address,uint256)": "infinite",
				"UpdateTeamCount(address,address)": "infinite",
				"UpdateTeamInvestment(address,uint256)": "infinite",
				"doesUserExist(address)": "2210"
			}
		},
		"methodIdentifiers": {
			"BBDTokenContract()": "5b56c9ee",
			"BBDTokenRate()": "c6db4c37",
			"BuyBBDFromWallet(uint256,uint256)": "1417df70",
			"CreatorAddress()": "1cfa6e9b",
			"CreatorAddress_2()": "b5d962b7",
			"Deposit(uint256,uint256)": "a3af609b",
			"GetBBDPurchaseHistory(address,uint256,uint256)": "d9d7512c",
			"GetContractDetails()": "6b1a7086",
			"GetDashboardDetails(address)": "54a03e38",
			"GetDepositHistory(address,uint256,uint256)": "2e628e2e",
			"GetDirects(address)": "5be94e83",
			"GetIncomeWithdrawalHistory(address,uint256,uint256)": "759369d2",
			"GetLevelIncomeInfo(address)": "4a40f2fe",
			"GetPackages()": "3daa551c",
			"GetROIIncomeHistory(address,uint256,uint256)": "2e244fc7",
			"GetRankInfo(address)": "8b2c295e",
			"GetTeamDetails(address,uint256,uint256)": "dacbb37e",
			"GetTopSponsorsReport()": "aecabf98",
			"GetWalletBalance(address,uint256)": "fd0bb36c",
			"Login(address)": "eecc1c95",
			"ManagementFee()": "b66db385",
			"MarketingAddress()": "3936e8b9",
			"Reactivate()": "ff9b6364",
			"Register(address,uint256,uint256)": "1d759fb2",
			"SecurityFundContract()": "88cb410d",
			"SetBBDTokenContract(address)": "c2d90b81",
			"SetSecurityFundContract(address)": "a5f94521",
			"TopupMemberFromWallet(uint256,uint256)": "a9a4c9bf",
			"TotalInvestment()": "a4b6f5e1",
			"TotalUsers()": "641fba96",
			"TotalWithdrawn()": "4788312f",
			"TransferFunds(address,address,uint256)": "5a015583",
			"Withdraw(uint256)": "5b6b431d",
			"map_BBDPurchaseHistory(address,uint256)": "7e9d158a",
			"map_LevelIncomeMaster(uint256)": "705116a0",
			"map_PackageMaster(uint256)": "a18a609a",
			"map_ROIIncomeHistory(address,uint256)": "2dedf15a",
			"map_RankMaster(uint256)": "edbdc914",
			"map_TeamALegAddress(address)": "7e2594b8",
			"map_UserBusinessOnLevel(address,uint256)": "1bfe37ce",
			"map_UserDeposits(address,uint256)": "365152fa",
			"map_UserIdToAddress(uint256)": "ac3a4800",
			"map_UserIncome(address)": "e315927b",
			"map_UserIncomeWithdrawalHistory(address,uint256)": "07d94067",
			"map_UserTeam(address)": "2a530a36",
			"map_UserTransactionCount(address)": "c5f00964",
			"map_UserWalletBalance(address,uint256)": "1362e8e6",
			"map_Users(address)": "5cf75517"
		}
	},
	"abi": [
		{
			"inputs": [],
			"stateMutability": "nonpayable",
			"type": "constructor"
		},
		{
			"inputs": [],
			"name": "BBDTokenContract",
			"outputs": [
				{
					"internalType": "contract IBEP20",
					"name": "",
					"type": "address"
				}
			],
			"stateMutability": "view",
			"type": "function"
		},
		{
			"inputs": [],
			"name": "BBDTokenRate",
			"outputs": [
				{
					"internalType": "uint256",
					"name": "",
					"type": "uint256"
				}
			],
			"stateMutability": "view",
			"type": "function"
		},
		{
			"inputs": [
				{
					"internalType": "uint256",
					"name": "amount",
					"type": "uint256"
				},
				{
					"internalType": "uint256",
					"name": "walletId",
					"type": "uint256"
				}
			],
			"name": "BuyBBDFromWallet",
			"outputs": [],
			"stateMutability": "nonpayable",
			"type": "function"
		},
		{
			"inputs": [],
			"name": "CreatorAddress",
			"outputs": [
				{
					"internalType": "address",
					"name": "",
					"type": "address"
				}
			],
			"stateMutability": "view",
			"type": "function"
		},
		{
			"inputs": [],
			"name": "CreatorAddress_2",
			"outputs": [
				{
					"internalType": "address",
					"name": "",
					"type": "address"
				}
			],
			"stateMutability": "view",
			"type": "function"
		},
		{
			"inputs": [
				{
					"internalType": "uint256",
					"name": "packageId",
					"type": "uint256"
				},
				{
					"internalType": "uint256",
					"name": "amount",
					"type": "uint256"
				}
			],
			"name": "Deposit",
			"outputs": [],
			"stateMutability": "payable",
			"type": "function"
		},
		{
			"inputs": [
				{
					"internalType": "address",
					"name": "userAddress",
					"type": "address"
				},
				{
					"internalType": "uint256",
					"name": "pageIndex",
					"type": "uint256"
				},
				{
					"internalType": "uint256",
					"name": "pageSize",
					"type": "uint256"
				}
			],
			"name": "GetBBDPurchaseHistory",
			"outputs": [
				{
					"components": [
						{
							"internalType": "uint256",
							"name": "AmountSpent",
							"type": "uint256"
						},
						{
							"internalType": "uint256",
							"name": "BBDAmountReceived",
							"type": "uint256"
						},
						{
							"internalType": "uint256",
							"name": "Timestamp",
							"type": "uint256"
						},
						{
							"internalType": "uint256",
							"name": "WalletId",
							"type": "uint256"
						}
					],
					"internalType": "struct BBD.BBDPurchase[]",
					"name": "history",
					"type": "tuple[]"
				}
			],
			"stateMutability": "view",
			"type": "function"
		},
		{
			"inputs": [],
			"name": "GetContractDetails",
			"outputs": [
				{
					"components": [
						{
							"internalType": "uint256",
							"name": "TotalCommunity",
							"type": "uint256"
						},
						{
							"internalType": "uint256",
							"name": "CommunityInvestment",
							"type": "uint256"
						},
						{
							"internalType": "uint256",
							"name": "CommunityWithdrawal",
							"type": "uint256"
						},
						{
							"internalType": "uint256",
							"name": "ContractBalance",
							"type": "uint256"
						}
					],
					"internalType": "struct BBD.ContractInfo",
					"name": "info",
					"type": "tuple"
				}
			],
			"stateMutability": "view",
			"type": "function"
		},
		{
			"inputs": [
				{
					"internalType": "address",
					"name": "userAddress",
					"type": "address"
				}
			],
			"name": "GetDashboardDetails",
			"outputs": [
				{
					"components": [
						{
							"internalType": "address",
							"name": "SponsorAddress",
							"type": "address"
						},
						{
							"internalType": "uint256",
							"name": "Investment",
							"type": "uint256"
						},
						{
							"internalType": "uint256",
							"name": "DirectsCount",
							"type": "uint256"
						},
						{
							"internalType": "uint256",
							"name": "DirectsInvestment",
							"type": "uint256"
						},
						{
							"internalType": "uint256",
							"name": "TeamCount",
							"type": "uint256"
						},
						{
							"internalType": "uint256",
							"name": "TeamA_Business",
							"type": "uint256"
						},
						{
							"internalType": "uint256",
							"name": "TeamB_Business",
							"type": "uint256"
						},
						{
							"internalType": "uint256",
							"name": "TeamInvestment",
							"type": "uint256"
						},
						{
							"internalType": "uint256",
							"name": "NewRegistrationBonus",
							"type": "uint256"
						},
						{
							"internalType": "uint256",
							"name": "LevelIncome",
							"type": "uint256"
						},
						{
							"internalType": "uint256",
							"name": "ROIIncome",
							"type": "uint256"
						},
						{
							"internalType": "uint256",
							"name": "PendingROIIncome",
							"type": "uint256"
						},
						{
							"internalType": "uint256",
							"name": "RankIncome",
							"type": "uint256"
						},
						{
							"internalType": "uint256",
							"name": "TopmostSponsorsIncome",
							"type": "uint256"
						},
						{
							"internalType": "uint256",
							"name": "TotalIncome",
							"type": "uint256"
						},
						{
							"internalType": "uint256",
							"name": "Capping",
							"type": "uint256"
						},
						{
							"internalType": "uint256",
							"name": "AmountWithdrawn",
							"type": "uint256"
						},
						{
							"internalType": "uint256",
							"name": "WithdrawalWalletBalance",
							"type": "uint256"
						},
						{
							"internalType": "uint256",
							"name": "TopupWalletBalance",
							"type": "uint256"
						},
						{
							"internalType": "string",
							"name": "RankName",
							"type": "string"
						},
						{
							"internalType": "uint256",
							"name": "Capping4X_QualificationEndTimestamp",
							"type": "uint256"
						},
						{
							"internalType": "bool",
							"name": "IsCappingRemaining",
							"type": "bool"
						},
						{
							"internalType": "bool",
							"name": "IsQualifiedFor4X",
							"type": "bool"
						},
						{
							"internalType": "bool",
							"name": "IsFirstActivationDone",
							"type": "bool"
						}
					],
					"internalType": "struct BBD.UserDashboard",
					"name": "info",
					"type": "tuple"
				}
			],
			"stateMutability": "view",
			"type": "function"
		},
		{
			"inputs": [
				{
					"internalType": "address",
					"name": "userAddress",
					"type": "address"
				},
				{
					"internalType": "uint256",
					"name": "pageIndex",
					"type": "uint256"
				},
				{
					"internalType": "uint256",
					"name": "pageSize",
					"type": "uint256"
				}
			],
			"name": "GetDepositHistory",
			"outputs": [
				{
					"components": [
						{
							"internalType": "uint256",
							"name": "PackageId",
							"type": "uint256"
						},
						{
							"internalType": "uint256",
							"name": "Amount",
							"type": "uint256"
						},
						{
							"internalType": "uint256",
							"name": "Timestamp",
							"type": "uint256"
						},
						{
							"internalType": "uint256",
							"name": "Capping",
							"type": "uint256"
						},
						{
							"internalType": "uint256",
							"name": "IncomePaid",
							"type": "uint256"
						}
					],
					"internalType": "struct BBD.UserDeposit[]",
					"name": "deposits",
					"type": "tuple[]"
				}
			],
			"stateMutability": "view",
			"type": "function"
		},
		{
			"inputs": [
				{
					"internalType": "address",
					"name": "userAddress",
					"type": "address"
				}
			],
			"name": "GetDirects",
			"outputs": [
				{
					"components": [
						{
							"internalType": "uint256",
							"name": "Srno",
							"type": "uint256"
						},
						{
							"internalType": "address",
							"name": "Address",
							"type": "address"
						},
						{
							"internalType": "uint256",
							"name": "Investment",
							"type": "uint256"
						},
						{
							"internalType": "uint256",
							"name": "Business",
							"type": "uint256"
						}
					],
					"internalType": "struct BBD.UserDirects[]",
					"name": "directs",
					"type": "tuple[]"
				}
			],
			"stateMutability": "view",
			"type": "function"
		},
		{
			"inputs": [
				{
					"internalType": "address",
					"name": "userAddress",
					"type": "address"
				},
				{
					"internalType": "uint256",
					"name": "pageIndex",
					"type": "uint256"
				},
				{
					"internalType": "uint256",
					"name": "pageSize",
					"type": "uint256"
				}
			],
			"name": "GetIncomeWithdrawalHistory",
			"outputs": [
				{
					"components": [
						{
							"internalType": "uint256",
							"name": "Amount",
							"type": "uint256"
						},
						{
							"internalType": "uint256",
							"name": "Timestamp",
							"type": "uint256"
						}
					],
					"internalType": "struct BBD.UserIncomeWithdrawalTransaction[]",
					"name": "history",
					"type": "tuple[]"
				}
			],
			"stateMutability": "view",
			"type": "function"
		},
		{
			"inputs": [
				{
					"internalType": "address",
					"name": "userAddress",
					"type": "address"
				}
			],
			"name": "GetLevelIncomeInfo",
			"outputs": [
				{
					"components": [
						{
							"internalType": "uint256",
							"name": "Level",
							"type": "uint256"
						},
						{
							"internalType": "uint256",
							"name": "RequiredMinRankId",
							"type": "uint256"
						},
						{
							"internalType": "uint256",
							"name": "RankId",
							"type": "uint256"
						},
						{
							"internalType": "uint256",
							"name": "OnAmount",
							"type": "uint256"
						},
						{
							"internalType": "uint256",
							"name": "Percentage",
							"type": "uint256"
						},
						{
							"internalType": "uint256",
							"name": "Income",
							"type": "uint256"
						},
						{
							"internalType": "bool",
							"name": "IsLevelAchieved",
							"type": "bool"
						}
					],
					"internalType": "struct BBD.LevelIncomeInfo[]",
					"name": "info",
					"type": "tuple[]"
				}
			],
			"stateMutability": "view",
			"type": "function"
		},
		{
			"inputs": [],
			"name": "GetPackages",
			"outputs": [
				{
					"components": [
						{
							"internalType": "uint256",
							"name": "PackageId",
							"type": "uint256"
						},
						{
							"internalType": "string",
							"name": "Name",
							"type": "string"
						},
						{
							"internalType": "uint256",
							"name": "Amount",
							"type": "uint256"
						},
						{
							"internalType": "bool",
							"name": "HasRange",
							"type": "bool"
						},
						{
							"internalType": "uint256",
							"name": "MinAmount",
							"type": "uint256"
						},
						{
							"internalType": "uint256",
							"name": "MaxAmount",
							"type": "uint256"
						}
					],
					"internalType": "struct BBD.PackageMaster[]",
					"name": "",
					"type": "tuple[]"
				}
			],
			"stateMutability": "view",
			"type": "function"
		},
		{
			"inputs": [
				{
					"internalType": "address",
					"name": "userAddress",
					"type": "address"
				},
				{
					"internalType": "uint256",
					"name": "pageIndex",
					"type": "uint256"
				},
				{
					"internalType": "uint256",
					"name": "pageSize",
					"type": "uint256"
				}
			],
			"name": "GetROIIncomeHistory",
			"outputs": [
				{
					"components": [
						{
							"internalType": "uint256",
							"name": "OnAmount",
							"type": "uint256"
						},
						{
							"internalType": "uint256",
							"name": "Timestamp",
							"type": "uint256"
						},
						{
							"internalType": "uint256",
							"name": "Income",
							"type": "uint256"
						}
					],
					"internalType": "struct BBD.ROIIncomeDetail[]",
					"name": "history",
					"type": "tuple[]"
				}
			],
			"stateMutability": "view",
			"type": "function"
		},
		{
			"inputs": [
				{
					"internalType": "address",
					"name": "userAddress",
					"type": "address"
				}
			],
			"name": "GetRankInfo",
			"outputs": [
				{
					"components": [
						{
							"internalType": "uint256",
							"name": "RankId",
							"type": "uint256"
						},
						{
							"internalType": "string",
							"name": "RankName",
							"type": "string"
						},
						{
							"internalType": "uint256",
							"name": "ReqSelfInvestment",
							"type": "uint256"
						},
						{
							"internalType": "uint256",
							"name": "ReqTeamA_Business",
							"type": "uint256"
						},
						{
							"internalType": "uint256",
							"name": "ReqTeamB_Business",
							"type": "uint256"
						},
						{
							"internalType": "uint256",
							"name": "ReqTeamCount",
							"type": "uint256"
						},
						{
							"internalType": "uint256",
							"name": "UserSelfInvestment",
							"type": "uint256"
						},
						{
							"internalType": "bool",
							"name": "HasOneTimeSelfInvestment",
							"type": "bool"
						},
						{
							"internalType": "uint256",
							"name": "UserTeamA_Business",
							"type": "uint256"
						},
						{
							"internalType": "uint256",
							"name": "UserTeamB_Business",
							"type": "uint256"
						},
						{
							"internalType": "uint256",
							"name": "UserTeamCount",
							"type": "uint256"
						},
						{
							"internalType": "uint256",
							"name": "RewardAmount",
							"type": "uint256"
						},
						{
							"internalType": "bool",
							"name": "IsAchieved",
							"type": "bool"
						}
					],
					"internalType": "struct BBD.RankInfo[]",
					"name": "info",
					"type": "tuple[]"
				}
			],
			"stateMutability": "view",
			"type": "function"
		},
		{
			"inputs": [
				{
					"internalType": "address",
					"name": "userAddress",
					"type": "address"
				},
				{
					"internalType": "uint256",
					"name": "pageIndex",
					"type": "uint256"
				},
				{
					"internalType": "uint256",
					"name": "pageSize",
					"type": "uint256"
				}
			],
			"name": "GetTeamDetails",
			"outputs": [
				{
					"components": [
						{
							"internalType": "uint256",
							"name": "Srno",
							"type": "uint256"
						},
						{
							"internalType": "address",
							"name": "Address",
							"type": "address"
						},
						{
							"internalType": "uint256",
							"name": "Investment",
							"type": "uint256"
						},
						{
							"internalType": "uint256",
							"name": "Business",
							"type": "uint256"
						}
					],
					"internalType": "struct BBD.UserTeamMember[]",
					"name": "team",
					"type": "tuple[]"
				}
			],
			"stateMutability": "view",
			"type": "function"
		},
		{
			"inputs": [],
			"name": "GetTopSponsorsReport",
			"outputs": [
				{
					"components": [
						{
							"internalType": "address",
							"name": "sponsor",
							"type": "address"
						},
						{
							"internalType": "uint256",
							"name": "directInvestment",
							"type": "uint256"
						}
					],
					"internalType": "struct BBD.TopSponsors[3]",
					"name": "",
					"type": "tuple[3]"
				}
			],
			"stateMutability": "view",
			"type": "function"
		},
		{
			"inputs": [
				{
					"internalType": "address",
					"name": "userAddress",
					"type": "address"
				},
				{
					"internalType": "uint256",
					"name": "walletId",
					"type": "uint256"
				}
			],
			"name": "GetWalletBalance",
			"outputs": [
				{
					"internalType": "uint256",
					"name": "",
					"type": "uint256"
				}
			],
			"stateMutability": "view",
			"type": "function"
		},
		{
			"inputs": [
				{
					"internalType": "address",
					"name": "_address",
					"type": "address"
				}
			],
			"name": "Login",
			"outputs": [
				{
					"internalType": "bool",
					"name": "",
					"type": "bool"
				}
			],
			"stateMutability": "view",
			"type": "function"
		},
		{
			"inputs": [],
			"name": "ManagementFee",
			"outputs": [
				{
					"internalType": "address",
					"name": "",
					"type": "address"
				}
			],
			"stateMutability": "view",
			"type": "function"
		},
		{
			"inputs": [],
			"name": "MarketingAddress",
			"outputs": [
				{
					"internalType": "address",
					"name": "",
					"type": "address"
				}
			],
			"stateMutability": "view",
			"type": "function"
		},
		{
			"inputs": [],
			"name": "Reactivate",
			"outputs": [
				{
					"internalType": "bool",
					"name": "",
					"type": "bool"
				}
			],
			"stateMutability": "nonpayable",
			"type": "function"
		},
		{
			"inputs": [
				{
					"internalType": "address",
					"name": "sponsorAddress",
					"type": "address"
				},
				{
					"internalType": "uint256",
					"name": "packageId",
					"type": "uint256"
				},
				{
					"internalType": "uint256",
					"name": "amount",
					"type": "uint256"
				}
			],
			"name": "Register",
			"outputs": [],
			"stateMutability": "nonpayable",
			"type": "function"
		},
		{
			"inputs": [],
			"name": "SecurityFundContract",
			"outputs": [
				{
					"internalType": "address",
					"name": "",
					"type": "address"
				}
			],
			"stateMutability": "view",
			"type": "function"
		},
		{
			"inputs": [
				{
					"internalType": "address",
					"name": "tokenAddress",
					"type": "address"
				}
			],
			"name": "SetBBDTokenContract",
			"outputs": [],
			"stateMutability": "nonpayable",
			"type": "function"
		},
		{
			"inputs": [
				{
					"internalType": "address",
					"name": "_security",
					"type": "address"
				}
			],
			"name": "SetSecurityFundContract",
			"outputs": [],
			"stateMutability": "nonpayable",
			"type": "function"
		},
		{
			"inputs": [
				{
					"internalType": "uint256",
					"name": "packageId",
					"type": "uint256"
				},
				{
					"internalType": "uint256",
					"name": "amount",
					"type": "uint256"
				}
			],
			"name": "TopupMemberFromWallet",
			"outputs": [],
			"stateMutability": "nonpayable",
			"type": "function"
		},
		{
			"inputs": [],
			"name": "TotalInvestment",
			"outputs": [
				{
					"internalType": "uint256",
					"name": "",
					"type": "uint256"
				}
			],
			"stateMutability": "view",
			"type": "function"
		},
		{
			"inputs": [],
			"name": "TotalUsers",
			"outputs": [
				{
					"internalType": "uint256",
					"name": "",
					"type": "uint256"
				}
			],
			"stateMutability": "view",
			"type": "function"
		},
		{
			"inputs": [],
			"name": "TotalWithdrawn",
			"outputs": [
				{
					"internalType": "uint256",
					"name": "",
					"type": "uint256"
				}
			],
			"stateMutability": "view",
			"type": "function"
		},
		{
			"inputs": [
				{
					"internalType": "address",
					"name": "from",
					"type": "address"
				},
				{
					"internalType": "address",
					"name": "to",
					"type": "address"
				},
				{
					"internalType": "uint256",
					"name": "value",
					"type": "uint256"
				}
			],
			"name": "TransferFunds",
			"outputs": [],
			"stateMutability": "nonpayable",
			"type": "function"
		},
		{
			"inputs": [
				{
					"internalType": "uint256",
					"name": "amount",
					"type": "uint256"
				}
			],
			"name": "Withdraw",
			"outputs": [],
			"stateMutability": "nonpayable",
			"type": "function"
		},
		{
			"inputs": [
				{
					"internalType": "address",
					"name": "",
					"type": "address"
				},
				{
					"internalType": "uint256",
					"name": "",
					"type": "uint256"
				}
			],
			"name": "map_BBDPurchaseHistory",
			"outputs": [
				{
					"internalType": "uint256",
					"name": "AmountSpent",
					"type": "uint256"
				},
				{
					"internalType": "uint256",
					"name": "BBDAmountReceived",
					"type": "uint256"
				},
				{
					"internalType": "uint256",
					"name": "Timestamp",
					"type": "uint256"
				},
				{
					"internalType": "uint256",
					"name": "WalletId",
					"type": "uint256"
				}
			],
			"stateMutability": "view",
			"type": "function"
		},
		{
			"inputs": [
				{
					"internalType": "uint256",
					"name": "",
					"type": "uint256"
				}
			],
			"name": "map_LevelIncomeMaster",
			"outputs": [
				{
					"internalType": "uint256",
					"name": "Level",
					"type": "uint256"
				},
				{
					"internalType": "uint256",
					"name": "Percentage",
					"type": "uint256"
				},
				{
					"internalType": "uint256",
					"name": "RequiredMinRankId",
					"type": "uint256"
				}
			],
			"stateMutability": "view",
			"type": "function"
		},
		{
			"inputs": [
				{
					"internalType": "uint256",
					"name": "",
					"type": "uint256"
				}
			],
			"name": "map_PackageMaster",
			"outputs": [
				{
					"internalType": "uint256",
					"name": "PackageId",
					"type": "uint256"
				},
				{
					"internalType": "string",
					"name": "Name",
					"type": "string"
				},
				{
					"internalType": "uint256",
					"name": "Amount",
					"type": "uint256"
				},
				{
					"internalType": "bool",
					"name": "HasRange",
					"type": "bool"
				},
				{
					"internalType": "uint256",
					"name": "MinAmount",
					"type": "uint256"
				},
				{
					"internalType": "uint256",
					"name": "MaxAmount",
					"type": "uint256"
				}
			],
			"stateMutability": "view",
			"type": "function"
		},
		{
			"inputs": [
				{
					"internalType": "address",
					"name": "",
					"type": "address"
				},
				{
					"internalType": "uint256",
					"name": "",
					"type": "uint256"
				}
			],
			"name": "map_ROIIncomeHistory",
			"outputs": [
				{
					"internalType": "uint256",
					"name": "OnAmount",
					"type": "uint256"
				},
				{
					"internalType": "uint256",
					"name": "Timestamp",
					"type": "uint256"
				},
				{
					"internalType": "uint256",
					"name": "Income",
					"type": "uint256"
				}
			],
			"stateMutability": "view",
			"type": "function"
		},
		{
			"inputs": [
				{
					"internalType": "uint256",
					"name": "",
					"type": "uint256"
				}
			],
			"name": "map_RankMaster",
			"outputs": [
				{
					"internalType": "uint256",
					"name": "RankId",
					"type": "uint256"
				},
				{
					"internalType": "string",
					"name": "RankName",
					"type": "string"
				},
				{
					"internalType": "uint256",
					"name": "ReqSelfInvestment",
					"type": "uint256"
				},
				{
					"internalType": "uint256",
					"name": "ReqTeamCount",
					"type": "uint256"
				},
				{
					"internalType": "uint256",
					"name": "ReqTeamA_Business",
					"type": "uint256"
				},
				{
					"internalType": "uint256",
					"name": "ReqTeamB_Business",
					"type": "uint256"
				},
				{
					"internalType": "uint256",
					"name": "RewardAmount",
					"type": "uint256"
				}
			],
			"stateMutability": "view",
			"type": "function"
		},
		{
			"inputs": [
				{
					"internalType": "address",
					"name": "",
					"type": "address"
				}
			],
			"name": "map_TeamALegAddress",
			"outputs": [
				{
					"internalType": "address",
					"name": "",
					"type": "address"
				}
			],
			"stateMutability": "view",
			"type": "function"
		},
		{
			"inputs": [
				{
					"internalType": "address",
					"name": "",
					"type": "address"
				},
				{
					"internalType": "uint256",
					"name": "",
					"type": "uint256"
				}
			],
			"name": "map_UserBusinessOnLevel",
			"outputs": [
				{
					"internalType": "uint256",
					"name": "",
					"type": "uint256"
				}
			],
			"stateMutability": "view",
			"type": "function"
		},
		{
			"inputs": [
				{
					"internalType": "address",
					"name": "",
					"type": "address"
				},
				{
					"internalType": "uint256",
					"name": "",
					"type": "uint256"
				}
			],
			"name": "map_UserDeposits",
			"outputs": [
				{
					"internalType": "uint256",
					"name": "PackageId",
					"type": "uint256"
				},
				{
					"internalType": "uint256",
					"name": "Amount",
					"type": "uint256"
				},
				{
					"internalType": "uint256",
					"name": "Timestamp",
					"type": "uint256"
				},
				{
					"internalType": "uint256",
					"name": "Capping",
					"type": "uint256"
				},
				{
					"internalType": "uint256",
					"name": "IncomePaid",
					"type": "uint256"
				}
			],
			"stateMutability": "view",
			"type": "function"
		},
		{
			"inputs": [
				{
					"internalType": "uint256",
					"name": "",
					"type": "uint256"
				}
			],
			"name": "map_UserIdToAddress",
			"outputs": [
				{
					"internalType": "address",
					"name": "",
					"type": "address"
				}
			],
			"stateMutability": "view",
			"type": "function"
		},
		{
			"inputs": [
				{
					"internalType": "address",
					"name": "",
					"type": "address"
				}
			],
			"name": "map_UserIncome",
			"outputs": [
				{
					"internalType": "uint256",
					"name": "NewRegistrationBonus",
					"type": "uint256"
				},
				{
					"internalType": "uint256",
					"name": "ROIIncome",
					"type": "uint256"
				},
				{
					"internalType": "uint256",
					"name": "RankIncome",
					"type": "uint256"
				},
				{
					"internalType": "uint256",
					"name": "TopmostSponsorsIncome",
					"type": "uint256"
				},
				{
					"internalType": "uint256",
					"name": "AmountWithdrawn",
					"type": "uint256"
				}
			],
			"stateMutability": "view",
			"type": "function"
		},
		{
			"inputs": [
				{
					"internalType": "address",
					"name": "",
					"type": "address"
				},
				{
					"internalType": "uint256",
					"name": "",
					"type": "uint256"
				}
			],
			"name": "map_UserIncomeWithdrawalHistory",
			"outputs": [
				{
					"internalType": "uint256",
					"name": "Amount",
					"type": "uint256"
				},
				{
					"internalType": "uint256",
					"name": "Timestamp",
					"type": "uint256"
				}
			],
			"stateMutability": "view",
			"type": "function"
		},
		{
			"inputs": [
				{
					"internalType": "address",
					"name": "",
					"type": "address"
				}
			],
			"name": "map_UserTeam",
			"outputs": [
				{
					"internalType": "uint256",
					"name": "DirectsInvestment",
					"type": "uint256"
				},
				{
					"internalType": "uint256",
					"name": "TeamABusiness",
					"type": "uint256"
				},
				{
					"internalType": "uint256",
					"name": "TeamBBusiness",
					"type": "uint256"
				},
				{
					"internalType": "uint256",
					"name": "TeamInvestment",
					"type": "uint256"
				}
			],
			"stateMutability": "view",
			"type": "function"
		},
		{
			"inputs": [
				{
					"internalType": "address",
					"name": "",
					"type": "address"
				}
			],
			"name": "map_UserTransactionCount",
			"outputs": [
				{
					"internalType": "uint256",
					"name": "DepositsCount",
					"type": "uint256"
				},
				{
					"internalType": "uint256",
					"name": "ROIIncomeCount",
					"type": "uint256"
				},
				{
					"internalType": "uint256",
					"name": "IncomeWithdrawalCount",
					"type": "uint256"
				},
				{
					"internalType": "uint256",
					"name": "ReactivationCount",
					"type": "uint256"
				},
				{
					"internalType": "uint256",
					"name": "BBD_TokenBuyCount",
					"type": "uint256"
				}
			],
			"stateMutability": "view",
			"type": "function"
		},
		{
			"inputs": [
				{
					"internalType": "address",
					"name": "",
					"type": "address"
				},
				{
					"internalType": "uint256",
					"name": "",
					"type": "uint256"
				}
			],
			"name": "map_UserWalletBalance",
			"outputs": [
				{
					"internalType": "uint256",
					"name": "",
					"type": "uint256"
				}
			],
			"stateMutability": "view",
			"type": "function"
		},
		{
			"inputs": [
				{
					"internalType": "address",
					"name": "",
					"type": "address"
				}
			],
			"name": "map_Users",
			"outputs": [
				{
					"internalType": "uint256",
					"name": "Id",
					"type": "uint256"
				},
				{
					"internalType": "address",
					"name": "Address",
					"type": "address"
				},
				{
					"internalType": "address",
					"name": "SponsorAddress",
					"type": "address"
				},
				{
					"internalType": "uint256",
					"name": "JoiningTimestamp",
					"type": "uint256"
				},
				{
					"internalType": "uint256",
					"name": "Investment",
					"type": "uint256"
				},
				{
					"internalType": "uint256",
					"name": "TotalTeam",
					"type": "uint256"
				},
				{
					"internalType": "uint256",
					"name": "FirstActivationTimestamp",
					"type": "uint256"
				},
				{
					"internalType": "uint256",
					"name": "LastActivationTimestamp",
					"type": "uint256"
				},
				{
					"internalType": "uint256",
					"name": "ActivationExpiryTimestamp",
					"type": "uint256"
				},
				{
					"internalType": "uint256",
					"name": "RankId",
					"type": "uint256"
				},
				{
					"internalType": "bool",
					"name": "IsQualifiedFor4X",
					"type": "bool"
				},
				{
					"internalType": "bool",
					"name": "IsFirstActivationDone",
					"type": "bool"
				}
			],
			"stateMutability": "view",
			"type": "function"
		}
	]
}