{
	"data": {
		"bytecode": {
			"linkReferences": {},
			"object": "60a0604052600780546001600160a01b0319908116737ec13697d98925ba1dc2bcc705c071bd168b10c217909155600880548216738de119e98707ac240aba2cb77e83b29882a343571790556009805482167303499c18f7265be9afda16504a34cd1892f278ae179055600a8054821673cc234a1d3e32148461b7eacb5a8bf4d0c4b6be74179055600b805490911673ceea0e87b553bc445c5eb2242b5f28cd81b4acaa179055600c80547501017e23e2781a1da5dace87b4f0e7bf68191263fc326001600160b01b03199091161790553480156100db575f80fd5b5060405180604001604052806009815260200168212122102a37b5b2b760b91b8152506040518060400160405280600381526020016210909160ea1b81525081600390816101299190610509565b5060046101368282610509565b5050600d80546001600160a01b0319163390811790915561016491506b033b2e3c9fd0803ce800000061019c565b61018f3061018a6b033b2e3c9fd0803ce80000006b204fce5e3e250261100000006105d7565b61019c565b426080525f600555610603565b6001600160a01b0382166101ca5760405163ec442f0560e01b81525f60048201526024015b60405180910390fd5b6101d55f83836101d9565b5050565b6101e483838361030a565b6001600160a01b03831661020e578060025f82825461020391906105f0565b9091555061027e9050565b6001600160a01b0383165f90815260208190526040902054818110156102605760405163391434e360e21b81526001600160a01b038516600482015260248101829052604481018390526064016101c1565b6001600160a01b0384165f9081526020819052604090209082900390555b6001600160a01b03821661029a576002805482900390556102b8565b6001600160a01b0382165f9081526020819052604090208054820190555b816001600160a01b0316836001600160a01b03167fddf252ad1be2c89b69c2b068fc378daa952ba7f163c4a11628f55a4df523b3ef836040516102fd91815260200190565b60405180910390a3505050565b6001600160a01b0383165f908152600e60205260409020548390839060ff16801561033f5750600c54600160a01b900460ff16155b156103b857600d546001600160a01b038281169116148061037757506001600160a01b0381165f908152600f602052604090205460ff165b6103b85760405162461bcd60e51b8152602060048201526012602482015271109d5e5a5b99c81a5cc8191a5cd8589b195960721b60448201526064016101c1565b6001600160a01b0381165f908152600e602052604090205460ff1680156103e95750600c54600160a81b900460ff16155b1561046d57600d546001600160a01b038381169116148061042157506001600160a01b0382165f908152600f602052604090205460ff165b61046d5760405162461bcd60e51b815260206004820152601360248201527f53656c6c696e672069732064697361626c65640000000000000000000000000060448201526064016101c1565b5050505050565b505050565b634e487b7160e01b5f52604160045260245ffd5b600181811c908216806104a157607f821691505b6020821081036104bf57634e487b7160e01b5f52602260045260245ffd5b50919050565b601f82111561047457805f5260205f20601f840160051c810160208510156104ea5750805b601f840160051c820191505b8181101561046d575f81556001016104f6565b81516001600160401b0381111561052257610522610479565b61053681610530845461048d565b846104c5565b6020601f821160018114610568575f83156105515750848201515b5f19600385901b1c1916600184901b17845561046d565b5f84815260208120601f198516915b828110156105975787850151825560209485019460019092019101610577565b50848210156105b457868401515f19600387901b60f8161c191681555b50505050600190811b01905550565b634e487b7160e01b5f52601160045260245ffd5b818103818111156105ea576105ea6105c3565b92915050565b808201808211156105ea576105ea6105c3565b6080516114ce6106225f395f81816104570152610a9601526114ce5ff3fe608060405234801561000f575f80fd5b50600436106101e7575f3560e01c8063902d55a511610109578063ce7842f51161009e578063e8be9a441161006e578063e8be9a4414610479578063f771cb6514610481578063f968f49314610495578063fdff9b4d1461049d575f80fd5b8063ce7842f5146103f4578063d2f9efab14610407578063dd62ed3e1461041a578063e6fd48bc14610452575f80fd5b8063a9059cbb116100d9578063a9059cbb14610398578063b16d78cf146103ab578063b361412a146103be578063be381b85146103d1575f80fd5b8063902d55a51461036157806395d89b4114610374578063a5e90eee1461037c578063a779d0801461038f575f80fd5b80633c11e12a1161017f5780638310a74d1161014f5780638310a74d1461031f5780638342083a146103285780638ddedb331461033a5780638ed2fe911461034d575f80fd5b80633c11e12a146102af57806367859b6e146102d157806370a08231146102e45780637cdf6fb11461030c575f80fd5b806323b872dd116101ba57806323b872dd146102655780632be8781f146102785780632d3e474a1461028d578063313ce567146102a0575f80fd5b8063042249bb146101eb57806306fdde031461021b578063095ea7b31461023057806318160ddd14610253575b5f80fd5b600a546101fe906001600160a01b031681565b6040516001600160a01b0390911681526020015b60405180910390f35b6102236104bf565b604051610212919061123e565b61024361023e36600461128e565b61054f565b6040519015158152602001610212565b6002545b604051908152602001610212565b6102436102733660046112b6565b610568565b61028b6102863660046112f0565b61058b565b005b6009546101fe906001600160a01b031681565b60405160128152602001610212565b6102436102bd36600461131a565b600e6020525f908152604090205460ff1681565b6007546101fe906001600160a01b031681565b6102576102f236600461131a565b6001600160a01b03165f9081526020819052604090205490565b61028b61031a366004611349565b6106f7565b61025760055481565b610257676765c793fa10079d601b1b81565b61028b610348366004611371565b61074b565b600c5461024390600160a01b900460ff1681565b6102576b204fce5e3e2502611000000081565b610223610793565b61028b61038a366004611349565b6107a2565b61025760065481565b6102436103a636600461128e565b6107f6565b61028b6103b9366004611371565b610803565b600c546101fe906001600160a01b031681565b6103d961084b565b60408051938452602084019290925290820152606001610212565b600b546101fe906001600160a01b031681565b6008546101fe906001600160a01b031681565b61025761042836600461138a565b6001600160a01b039182165f90815260016020908152604080832093909416825291909152205490565b6102577f000000000000000000000000000000000000000000000000000000000000000081565b6102576109cd565b600c5461024390600160a81b900460ff1681565b61028b6109f1565b6102436104ab36600461131a565b600f6020525f908152604090205460ff1681565b6060600380546104ce906113b2565b80601f01602080910402602001604051908101604052809291908181526020018280546104fa906113b2565b80156105455780601f1061051c57610100808354040283529160200191610545565b820191905f5260205f20905b81548152906001019060200180831161052857829003601f168201915b5050505050905090565b5f3361055c818585610df0565b60019150505b92915050565b5f33610575858285610e02565b610580858585610e7e565b506001949350505050565b600d546001600160a01b031633146105be5760405162461bcd60e51b81526004016105b5906113ea565b60405180910390fd5b600182101580156105d0575060068211155b61060c5760405162461bcd60e51b815260206004820152600d60248201526c092dcecc2d8d2c840d2dcc8caf609b1b60448201526064016105b5565b8160010361063357600780546001600160a01b0319166001600160a01b0383161790555050565b8160020361065a57600880546001600160a01b0319166001600160a01b0383161790555050565b8160030361068157600980546001600160a01b0319166001600160a01b0383161790555050565b816004036106a857600a80546001600160a01b0319166001600160a01b0383161790555050565b816005036106cf57600b80546001600160a01b0319166001600160a01b0383161790555050565b816006036106f357600c80546001600160a01b0319166001600160a01b0383161790555b5050565b600d546001600160a01b031633146107215760405162461bcd60e51b81526004016105b5906113ea565b6001600160a01b03919091165f908152600e60205260409020805460ff1916911515919091179055565b600d546001600160a01b031633146107755760405162461bcd60e51b81526004016105b5906113ea565b600c8054911515600160a01b0260ff60a01b19909216919091179055565b6060600480546104ce906113b2565b600d546001600160a01b031633146107cc5760405162461bcd60e51b81526004016105b5906113ea565b6001600160a01b03919091165f908152600f60205260409020805460ff1916911515919091179055565b5f3361055c818585610e7e565b600d546001600160a01b0316331461082d5760405162461bcd60e51b81526004016105b5906113ea565b600c8054911515600160a81b0260ff60a81b19909216919091179055565b5f805f80600554600161085e9190611424565b9050600381116108a8576103e861088c676765c793fa10079d601b1b6b204fce5e3e25026110000000611437565b61089790600561144a565b6108a19190611461565b925061094f565b600681116108de5760646108d3676765c793fa10079d601b1b6b204fce5e3e25026110000000611437565b61089790600161144a565b60098111610914576064610909676765c793fa10079d601b1b6b204fce5e3e25026110000000611437565b61089790600261144a565b6064610937676765c793fa10079d601b1b6b204fce5e3e25026110000000611437565b61094290600361144a565b61094c9190611461565b92505b610970676765c793fa10079d601b1b6b204fce5e3e25026110000000611437565b60065461097d9085611424565b11156109b4576006546109a7676765c793fa10079d601b1b6b204fce5e3e25026110000000611437565b6109b19190611437565b92505b80836109c1600682611461565b93509350935050909192565b6109ee676765c793fa10079d601b1b6b204fce5e3e25026110000000611437565b81565b600d546001600160a01b03163314610a1b5760405162461bcd60e51b81526004016105b5906113ea565b610a3c676765c793fa10079d601b1b6b204fce5e3e25026110000000611437565b60065410610a8c5760405162461bcd60e51b815260206004820152601b60248201527f416c6c20746f6b656e7320616c726561647920756e6c6f636b6564000000000060448201526064016105b5565b5f62278d00610abb7f000000000000000000000000000000000000000000000000000000000000000042611437565b610ac59190611461565b90506005548111610b115760405162461bcd60e51b81526020600482015260166024820152754e6f206e6577206d6f6e746820746f20756e6c6f636b60501b60448201526064016105b5565b5f806005546001610b229190611424565b90505b828111610c415760038111610b7e576103e8610b58676765c793fa10079d601b1b6b204fce5e3e25026110000000611437565b610b6390600561144a565b610b6d9190611461565b610b779083611424565b9150610c2f565b60068111610bb4576064610ba9676765c793fa10079d601b1b6b204fce5e3e25026110000000611437565b610b6390600161144a565b60098111610bea576064610bdf676765c793fa10079d601b1b6b204fce5e3e25026110000000611437565b610b6390600261144a565b6064610c0d676765c793fa10079d601b1b6b204fce5e3e25026110000000611437565b610c1890600361144a565b610c229190611461565b610c2c9083611424565b91505b80610c3981611480565b915050610b25565b50610c63676765c793fa10079d601b1b6b204fce5e3e25026110000000611437565b600654610c709083611424565b1115610ca757600654610c9a676765c793fa10079d601b1b6b204fce5e3e25026110000000611437565b610ca49190611437565b90505b5f8111610cea5760405162461bcd60e51b81526020600482015260116024820152704e6f7468696e6720746f20756e6c6f636b60781b60448201526064016105b5565b816005819055508060065f828254610d029190611424565b909155505f9050610d14600683611461565b600754909150610d2f9030906001600160a01b031683610e7e565b600854610d479030906001600160a01b031683610e7e565b600954610d5f9030906001600160a01b031683610e7e565b600a54610d779030906001600160a01b031683610e7e565b600b54610d8f9030906001600160a01b031683610e7e565b600c54610da79030906001600160a01b031683610e7e565b60055460065460408051928352602083018490528201527fd5c1e53febf89038959691e212f7a18f34f9ac92dd9965a138ccfc695e9774ac9060600160405180910390a1505050565b610dfd8383836001610edb565b505050565b6001600160a01b038381165f908152600160209081526040808320938616835292905220545f19811015610e785781811015610e6a57604051637dc7a0d960e11b81526001600160a01b038416600482015260248101829052604481018390526064016105b5565b610e7884848484035f610edb565b50505050565b6001600160a01b038316610ea757604051634b637e8f60e11b81525f60048201526024016105b5565b6001600160a01b038216610ed05760405163ec442f0560e01b81525f60048201526024016105b5565b610dfd838383610fad565b6001600160a01b038416610f045760405163e602df0560e01b81525f60048201526024016105b5565b6001600160a01b038316610f2d57604051634a1406b160e11b81525f60048201526024016105b5565b6001600160a01b038085165f9081526001602090815260408083209387168352929052208290558015610e7857826001600160a01b0316846001600160a01b03167f8c5be1e5ebec7d5bd14f71427d1e84f3dd0314c0f7b2291e5b200ac8c7c3b92584604051610f9f91815260200190565b60405180910390a350505050565b610fb88383836110de565b6001600160a01b038316610fe2578060025f828254610fd79190611424565b909155506110529050565b6001600160a01b0383165f90815260208190526040902054818110156110345760405163391434e360e21b81526001600160a01b038516600482015260248101829052604481018390526064016105b5565b6001600160a01b0384165f9081526020819052604090209082900390555b6001600160a01b03821661106e5760028054829003905561108c565b6001600160a01b0382165f9081526020819052604090208054820190555b816001600160a01b0316836001600160a01b03167fddf252ad1be2c89b69c2b068fc378daa952ba7f163c4a11628f55a4df523b3ef836040516110d191815260200190565b60405180910390a3505050565b6001600160a01b0383165f908152600e60205260409020548390839060ff1680156111135750600c54600160a01b900460ff16155b1561118c57600d546001600160a01b038281169116148061114b57506001600160a01b0381165f908152600f602052604090205460ff165b61118c5760405162461bcd60e51b8152602060048201526012602482015271109d5e5a5b99c81a5cc8191a5cd8589b195960721b60448201526064016105b5565b6001600160a01b0381165f908152600e602052604090205460ff1680156111bd5750600c54600160a81b900460ff16155b1561123757600d546001600160a01b03838116911614806111f557506001600160a01b0382165f908152600f602052604090205460ff165b6112375760405162461bcd60e51b815260206004820152601360248201527214d95b1b1a5b99c81a5cc8191a5cd8589b1959606a1b60448201526064016105b5565b5050505050565b602081525f82518060208401528060208501604085015e5f604082850101526040601f19601f83011684010191505092915050565b80356001600160a01b0381168114611289575f80fd5b919050565b5f806040838503121561129f575f80fd5b6112a883611273565b946020939093013593505050565b5f805f606084860312156112c8575f80fd5b6112d184611273565b92506112df60208501611273565b929592945050506040919091013590565b5f8060408385031215611301575f80fd5b8235915061131160208401611273565b90509250929050565b5f6020828403121561132a575f80fd5b61133382611273565b9392505050565b80358015158114611289575f80fd5b5f806040838503121561135a575f80fd5b61136383611273565b91506113116020840161133a565b5f60208284031215611381575f80fd5b6113338261133a565b5f806040838503121561139b575f80fd5b6113a483611273565b915061131160208401611273565b600181811c908216806113c657607f821691505b6020821081036113e457634e487b7160e01b5f52602260045260245ffd5b50919050565b6020808252600c908201526b4e6f7420616c6c6f7765642160a01b604082015260600190565b634e487b7160e01b5f52601160045260245ffd5b8082018082111561056257610562611410565b8181038181111561056257610562611410565b808202811582820484141761056257610562611410565b5f8261147b57634e487b7160e01b5f52601260045260245ffd5b500490565b5f6001820161149157611491611410565b506001019056fea2646970667358221220e48139f6ec74dd2f2cd832075023aa86de42945a39e6a247f89762f6c0a3da2b64736f6c634300081a0033",
			"opcodes": "PUSH1 0xA0 PUSH1 0x40 MSTORE PUSH1 0x7 DUP1 SLOAD PUSH1 0x1 PUSH1 0x1 PUSH1 0xA0 SHL SUB NOT SWAP1 DUP2 AND PUSH20 0x7EC13697D98925BA1DC2BCC705C071BD168B10C2 OR SWAP1 SWAP2 SSTORE PUSH1 0x8 DUP1 SLOAD DUP3 AND PUSH20 0x8DE119E98707AC240ABA2CB77E83B29882A34357 OR SWAP1 SSTORE PUSH1 0x9 DUP1 SLOAD DUP3 AND PUSH20 0x3499C18F7265BE9AFDA16504A34CD1892F278AE OR SWAP1 SSTORE PUSH1 0xA DUP1 SLOAD DUP3 AND PUSH20 0xCC234A1D3E32148461B7EACB5A8BF4D0C4B6BE74 OR SWAP1 SSTORE PUSH1 0xB DUP1 SLOAD SWAP1 SWAP2 AND PUSH20 0xCEEA0E87B553BC445C5EB2242B5F28CD81B4ACAA OR SWAP1 SSTORE PUSH1 0xC DUP1 SLOAD PUSH22 0x1017E23E2781A1DA5DACE87B4F0E7BF68191263FC32 PUSH1 0x1 PUSH1 0x1 PUSH1 0xB0 SHL SUB NOT SWAP1 SWAP2 AND OR SWAP1 SSTORE CALLVALUE DUP1 ISZERO PUSH2 0xDB JUMPI PUSH0 DUP1 REVERT JUMPDEST POP PUSH1 0x40 MLOAD DUP1 PUSH1 0x40 ADD PUSH1 0x40 MSTORE DUP1 PUSH1 0x9 DUP2 MSTORE PUSH1 0x20 ADD PUSH9 0x212122102A37B5B2B7 PUSH1 0xB9 SHL DUP2 MSTORE POP PUSH1 0x40 MLOAD DUP1 PUSH1 0x40 ADD PUSH1 0x40 MSTORE DUP1 PUSH1 0x3 DUP2 MSTORE PUSH1 0x20 ADD PUSH3 0x109091 PUSH1 0xEA SHL DUP2 MSTORE POP DUP2 PUSH1 0x3 SWAP1 DUP2 PUSH2 0x129 SWAP2 SWAP1 PUSH2 0x509 JUMP JUMPDEST POP PUSH1 0x4 PUSH2 0x136 DUP3 DUP3 PUSH2 0x509 JUMP JUMPDEST POP POP PUSH1 0xD DUP1 SLOAD PUSH1 0x1 PUSH1 0x1 PUSH1 0xA0 SHL SUB NOT AND CALLER SWAP1 DUP2 OR SWAP1 SWAP2 SSTORE PUSH2 0x164 SWAP2 POP PUSH12 0x33B2E3C9FD0803CE8000000 PUSH2 0x19C JUMP JUMPDEST PUSH2 0x18F ADDRESS PUSH2 0x18A PUSH12 0x33B2E3C9FD0803CE8000000 PUSH12 0x204FCE5E3E25026110000000 PUSH2 0x5D7 JUMP JUMPDEST PUSH2 0x19C JUMP JUMPDEST TIMESTAMP PUSH1 0x80 MSTORE PUSH0 PUSH1 0x5 SSTORE PUSH2 0x603 JUMP JUMPDEST PUSH1 0x1 PUSH1 0x1 PUSH1 0xA0 SHL SUB DUP3 AND PUSH2 0x1CA JUMPI PUSH1 0x40 MLOAD PUSH4 0xEC442F05 PUSH1 0xE0 SHL DUP2 MSTORE PUSH0 PUSH1 0x4 DUP3 ADD MSTORE PUSH1 0x24 ADD JUMPDEST PUSH1 0x40 MLOAD DUP1 SWAP2 SUB SWAP1 REVERT JUMPDEST PUSH2 0x1D5 PUSH0 DUP4 DUP4 PUSH2 0x1D9 JUMP JUMPDEST POP POP JUMP JUMPDEST PUSH2 0x1E4 DUP4 DUP4 DUP4 PUSH2 0x30A JUMP JUMPDEST PUSH1 0x1 PUSH1 0x1 PUSH1 0xA0 SHL SUB DUP4 AND PUSH2 0x20E JUMPI DUP1 PUSH1 0x2 PUSH0 DUP3 DUP3 SLOAD PUSH2 0x203 SWAP2 SWAP1 PUSH2 0x5F0 JUMP JUMPDEST SWAP1 SWAP2 SSTORE POP PUSH2 0x27E SWAP1 POP JUMP JUMPDEST PUSH1 0x1 PUSH1 0x1 PUSH1 0xA0 SHL SUB DUP4 AND PUSH0 SWAP1 DUP2 MSTORE PUSH1 0x20 DUP2 SWAP1 MSTORE PUSH1 0x40 SWAP1 KECCAK256 SLOAD DUP2 DUP2 LT ISZERO PUSH2 0x260 JUMPI PUSH1 0x40 MLOAD PUSH4 0x391434E3 PUSH1 0xE2 SHL DUP2 MSTORE PUSH1 0x1 PUSH1 0x1 PUSH1 0xA0 SHL SUB DUP6 AND PUSH1 0x4 DUP3 ADD MSTORE PUSH1 0x24 DUP2 ADD DUP3 SWAP1 MSTORE PUSH1 0x44 DUP2 ADD DUP4 SWAP1 MSTORE PUSH1 0x64 ADD PUSH2 0x1C1 JUMP JUMPDEST PUSH1 0x1 PUSH1 0x1 PUSH1 0xA0 SHL SUB DUP5 AND PUSH0 SWAP1 DUP2 MSTORE PUSH1 0x20 DUP2 SWAP1 MSTORE PUSH1 0x40 SWAP1 KECCAK256 SWAP1 DUP3 SWAP1 SUB SWAP1 SSTORE JUMPDEST PUSH1 0x1 PUSH1 0x1 PUSH1 0xA0 SHL SUB DUP3 AND PUSH2 0x29A JUMPI PUSH1 0x2 DUP1 SLOAD DUP3 SWAP1 SUB SWAP1 SSTORE PUSH2 0x2B8 JUMP JUMPDEST PUSH1 0x1 PUSH1 0x1 PUSH1 0xA0 SHL SUB DUP3 AND PUSH0 SWAP1 DUP2 MSTORE PUSH1 0x20 DUP2 SWAP1 MSTORE PUSH1 0x40 SWAP1 KECCAK256 DUP1 SLOAD DUP3 ADD SWAP1 SSTORE JUMPDEST DUP2 PUSH1 0x1 PUSH1 0x1 PUSH1 0xA0 SHL SUB AND DUP4 PUSH1 0x1 PUSH1 0x1 PUSH1 0xA0 SHL SUB AND PUSH32 0xDDF252AD1BE2C89B69C2B068FC378DAA952BA7F163C4A11628F55A4DF523B3EF DUP4 PUSH1 0x40 MLOAD PUSH2 0x2FD SWAP2 DUP2 MSTORE PUSH1 0x20 ADD SWAP1 JUMP JUMPDEST PUSH1 0x40 MLOAD DUP1 SWAP2 SUB SWAP1 LOG3 POP POP POP JUMP JUMPDEST PUSH1 0x1 PUSH1 0x1 PUSH1 0xA0 SHL SUB DUP4 AND PUSH0 SWAP1 DUP2 MSTORE PUSH1 0xE PUSH1 0x20 MSTORE PUSH1 0x40 SWAP1 KECCAK256 SLOAD DUP4 SWAP1 DUP4 SWAP1 PUSH1 0xFF AND DUP1 ISZERO PUSH2 0x33F JUMPI POP PUSH1 0xC SLOAD PUSH1 0x1 PUSH1 0xA0 SHL SWAP1 DIV PUSH1 0xFF AND ISZERO JUMPDEST ISZERO PUSH2 0x3B8 JUMPI PUSH1 0xD SLOAD PUSH1 0x1 PUSH1 0x1 PUSH1 0xA0 SHL SUB DUP3 DUP2 AND SWAP2 AND EQ DUP1 PUSH2 0x377 JUMPI POP PUSH1 0x1 PUSH1 0x1 PUSH1 0xA0 SHL SUB DUP2 AND PUSH0 SWAP1 DUP2 MSTORE PUSH1 0xF PUSH1 0x20 MSTORE PUSH1 0x40 SWAP1 KECCAK256 SLOAD PUSH1 0xFF AND JUMPDEST PUSH2 0x3B8 JUMPI PUSH1 0x40 MLOAD PUSH3 0x461BCD PUSH1 0xE5 SHL DUP2 MSTORE PUSH1 0x20 PUSH1 0x4 DUP3 ADD MSTORE PUSH1 0x12 PUSH1 0x24 DUP3 ADD MSTORE PUSH18 0x109D5E5A5B99C81A5CC8191A5CD8589B1959 PUSH1 0x72 SHL PUSH1 0x44 DUP3 ADD MSTORE PUSH1 0x64 ADD PUSH2 0x1C1 JUMP JUMPDEST PUSH1 0x1 PUSH1 0x1 PUSH1 0xA0 SHL SUB DUP2 AND PUSH0 SWAP1 DUP2 MSTORE PUSH1 0xE PUSH1 0x20 MSTORE PUSH1 0x40 SWAP1 KECCAK256 SLOAD PUSH1 0xFF AND DUP1 ISZERO PUSH2 0x3E9 JUMPI POP PUSH1 0xC SLOAD PUSH1 0x1 PUSH1 0xA8 SHL SWAP1 DIV PUSH1 0xFF AND ISZERO JUMPDEST ISZERO PUSH2 0x46D JUMPI PUSH1 0xD SLOAD PUSH1 0x1 PUSH1 0x1 PUSH1 0xA0 SHL SUB DUP4 DUP2 AND SWAP2 AND EQ DUP1 PUSH2 0x421 JUMPI POP PUSH1 0x1 PUSH1 0x1 PUSH1 0xA0 SHL SUB DUP3 AND PUSH0 SWAP1 DUP2 MSTORE PUSH1 0xF PUSH1 0x20 MSTORE PUSH1 0x40 SWAP1 KECCAK256 SLOAD PUSH1 0xFF AND JUMPDEST PUSH2 0x46D JUMPI PUSH1 0x40 MLOAD PUSH3 0x461BCD PUSH1 0xE5 SHL DUP2 MSTORE PUSH1 0x20 PUSH1 0x4 DUP3 ADD MSTORE PUSH1 0x13 PUSH1 0x24 DUP3 ADD MSTORE PUSH32 0x53656C6C696E672069732064697361626C656400000000000000000000000000 PUSH1 0x44 DUP3 ADD MSTORE PUSH1 0x64 ADD PUSH2 0x1C1 JUMP JUMPDEST POP POP POP POP POP JUMP JUMPDEST POP POP POP JUMP JUMPDEST PUSH4 0x4E487B71 PUSH1 0xE0 SHL PUSH0 MSTORE PUSH1 0x41 PUSH1 0x4 MSTORE PUSH1 0x24 PUSH0 REVERT JUMPDEST PUSH1 0x1 DUP2 DUP2 SHR SWAP1 DUP3 AND DUP1 PUSH2 0x4A1 JUMPI PUSH1 0x7F DUP3 AND SWAP2 POP JUMPDEST PUSH1 0x20 DUP3 LT DUP2 SUB PUSH2 0x4BF JUMPI PUSH4 0x4E487B71 PUSH1 0xE0 SHL PUSH0 MSTORE PUSH1 0x22 PUSH1 0x4 MSTORE PUSH1 0x24 PUSH0 REVERT JUMPDEST POP SWAP2 SWAP1 POP JUMP JUMPDEST PUSH1 0x1F DUP3 GT ISZERO PUSH2 0x474 JUMPI DUP1 PUSH0 MSTORE PUSH1 0x20 PUSH0 KECCAK256 PUSH1 0x1F DUP5 ADD PUSH1 0x5 SHR DUP2 ADD PUSH1 0x20 DUP6 LT ISZERO PUSH2 0x4EA JUMPI POP DUP1 JUMPDEST PUSH1 0x1F DUP5 ADD PUSH1 0x5 SHR DUP3 ADD SWAP2 POP JUMPDEST DUP2 DUP2 LT ISZERO PUSH2 0x46D JUMPI PUSH0 DUP2 SSTORE PUSH1 0x1 ADD PUSH2 0x4F6 JUMP JUMPDEST DUP2 MLOAD PUSH1 0x1 PUSH1 0x1 PUSH1 0x40 SHL SUB DUP2 GT ISZERO PUSH2 0x522 JUMPI PUSH2 0x522 PUSH2 0x479 JUMP JUMPDEST PUSH2 0x536 DUP2 PUSH2 0x530 DUP5 SLOAD PUSH2 0x48D JUMP JUMPDEST DUP5 PUSH2 0x4C5 JUMP JUMPDEST PUSH1 0x20 PUSH1 0x1F DUP3 GT PUSH1 0x1 DUP2 EQ PUSH2 0x568 JUMPI PUSH0 DUP4 ISZERO PUSH2 0x551 JUMPI POP DUP5 DUP3 ADD MLOAD JUMPDEST PUSH0 NOT PUSH1 0x3 DUP6 SWAP1 SHL SHR NOT AND PUSH1 0x1 DUP5 SWAP1 SHL OR DUP5 SSTORE PUSH2 0x46D JUMP JUMPDEST PUSH0 DUP5 DUP2 MSTORE PUSH1 0x20 DUP2 KECCAK256 PUSH1 0x1F NOT DUP6 AND SWAP2 JUMPDEST DUP3 DUP2 LT ISZERO PUSH2 0x597 JUMPI DUP8 DUP6 ADD MLOAD DUP3 SSTORE PUSH1 0x20 SWAP5 DUP6 ADD SWAP5 PUSH1 0x1 SWAP1 SWAP3 ADD SWAP2 ADD PUSH2 0x577 JUMP JUMPDEST POP DUP5 DUP3 LT ISZERO PUSH2 0x5B4 JUMPI DUP7 DUP5 ADD MLOAD PUSH0 NOT PUSH1 0x3 DUP8 SWAP1 SHL PUSH1 0xF8 AND SHR NOT AND DUP2 SSTORE JUMPDEST POP POP POP POP PUSH1 0x1 SWAP1 DUP2 SHL ADD SWAP1 SSTORE POP JUMP JUMPDEST PUSH4 0x4E487B71 PUSH1 0xE0 SHL PUSH0 MSTORE PUSH1 0x11 PUSH1 0x4 MSTORE PUSH1 0x24 PUSH0 REVERT JUMPDEST DUP2 DUP2 SUB DUP2 DUP2 GT ISZERO PUSH2 0x5EA JUMPI PUSH2 0x5EA PUSH2 0x5C3 JUMP JUMPDEST SWAP3 SWAP2 POP POP JUMP JUMPDEST DUP1 DUP3 ADD DUP1 DUP3 GT ISZERO PUSH2 0x5EA JUMPI PUSH2 0x5EA PUSH2 0x5C3 JUMP JUMPDEST PUSH1 0x80 MLOAD PUSH2 0x14CE PUSH2 0x622 PUSH0 CODECOPY PUSH0 DUP2 DUP2 PUSH2 0x457 ADD MSTORE PUSH2 0xA96 ADD MSTORE PUSH2 0x14CE PUSH0 RETURN INVALID PUSH1 0x80 PUSH1 0x40 MSTORE CALLVALUE DUP1 ISZERO PUSH2 0xF JUMPI PUSH0 DUP1 REVERT JUMPDEST POP PUSH1 0x4 CALLDATASIZE LT PUSH2 0x1E7 JUMPI PUSH0 CALLDATALOAD PUSH1 0xE0 SHR DUP1 PUSH4 0x902D55A5 GT PUSH2 0x109 JUMPI DUP1 PUSH4 0xCE7842F5 GT PUSH2 0x9E JUMPI DUP1 PUSH4 0xE8BE9A44 GT PUSH2 0x6E JUMPI DUP1 PUSH4 0xE8BE9A44 EQ PUSH2 0x479 JUMPI DUP1 PUSH4 0xF771CB65 EQ PUSH2 0x481 JUMPI DUP1 PUSH4 0xF968F493 EQ PUSH2 0x495 JUMPI DUP1 PUSH4 0xFDFF9B4D EQ PUSH2 0x49D JUMPI PUSH0 DUP1 REVERT JUMPDEST DUP1 PUSH4 0xCE7842F5 EQ PUSH2 0x3F4 JUMPI DUP1 PUSH4 0xD2F9EFAB EQ PUSH2 0x407 JUMPI DUP1 PUSH4 0xDD62ED3E EQ PUSH2 0x41A JUMPI DUP1 PUSH4 0xE6FD48BC EQ PUSH2 0x452 JUMPI PUSH0 DUP1 REVERT JUMPDEST DUP1 PUSH4 0xA9059CBB GT PUSH2 0xD9 JUMPI DUP1 PUSH4 0xA9059CBB EQ PUSH2 0x398 JUMPI DUP1 PUSH4 0xB16D78CF EQ PUSH2 0x3AB JUMPI DUP1 PUSH4 0xB361412A EQ PUSH2 0x3BE JUMPI DUP1 PUSH4 0xBE381B85 EQ PUSH2 0x3D1 JUMPI PUSH0 DUP1 REVERT JUMPDEST DUP1 PUSH4 0x902D55A5 EQ PUSH2 0x361 JUMPI DUP1 PUSH4 0x95D89B41 EQ PUSH2 0x374 JUMPI DUP1 PUSH4 0xA5E90EEE EQ PUSH2 0x37C JUMPI DUP1 PUSH4 0xA779D080 EQ PUSH2 0x38F JUMPI PUSH0 DUP1 REVERT JUMPDEST DUP1 PUSH4 0x3C11E12A GT PUSH2 0x17F JUMPI DUP1 PUSH4 0x8310A74D GT PUSH2 0x14F JUMPI DUP1 PUSH4 0x8310A74D EQ PUSH2 0x31F JUMPI DUP1 PUSH4 0x8342083A EQ PUSH2 0x328 JUMPI DUP1 PUSH4 0x8DDEDB33 EQ PUSH2 0x33A JUMPI DUP1 PUSH4 0x8ED2FE91 EQ PUSH2 0x34D JUMPI PUSH0 DUP1 REVERT JUMPDEST DUP1 PUSH4 0x3C11E12A EQ PUSH2 0x2AF JUMPI DUP1 PUSH4 0x67859B6E EQ PUSH2 0x2D1 JUMPI DUP1 PUSH4 0x70A08231 EQ PUSH2 0x2E4 JUMPI DUP1 PUSH4 0x7CDF6FB1 EQ PUSH2 0x30C JUMPI PUSH0 DUP1 REVERT JUMPDEST DUP1 PUSH4 0x23B872DD GT PUSH2 0x1BA JUMPI DUP1 PUSH4 0x23B872DD EQ PUSH2 0x265 JUMPI DUP1 PUSH4 0x2BE8781F EQ PUSH2 0x278 JUMPI DUP1 PUSH4 0x2D3E474A EQ PUSH2 0x28D JUMPI DUP1 PUSH4 0x313CE567 EQ PUSH2 0x2A0 JUMPI PUSH0 DUP1 REVERT JUMPDEST DUP1 PUSH4 0x42249BB EQ PUSH2 0x1EB JUMPI DUP1 PUSH4 0x6FDDE03 EQ PUSH2 0x21B JUMPI DUP1 PUSH4 0x95EA7B3 EQ PUSH2 0x230 JUMPI DUP1 PUSH4 0x18160DDD EQ PUSH2 0x253 JUMPI JUMPDEST PUSH0 DUP1 REVERT JUMPDEST PUSH1 0xA SLOAD PUSH2 0x1FE SWAP1 PUSH1 0x1 PUSH1 0x1 PUSH1 0xA0 SHL SUB AND DUP2 JUMP JUMPDEST PUSH1 0x40 MLOAD PUSH1 0x1 PUSH1 0x1 PUSH1 0xA0 SHL SUB SWAP1 SWAP2 AND DUP2 MSTORE PUSH1 0x20 ADD JUMPDEST PUSH1 0x40 MLOAD DUP1 SWAP2 SUB SWAP1 RETURN JUMPDEST PUSH2 0x223 PUSH2 0x4BF JUMP JUMPDEST PUSH1 0x40 MLOAD PUSH2 0x212 SWAP2 SWAP1 PUSH2 0x123E JUMP JUMPDEST PUSH2 0x243 PUSH2 0x23E CALLDATASIZE PUSH1 0x4 PUSH2 0x128E JUMP JUMPDEST PUSH2 0x54F JUMP JUMPDEST PUSH1 0x40 MLOAD SWAP1 ISZERO ISZERO DUP2 MSTORE PUSH1 0x20 ADD PUSH2 0x212 JUMP JUMPDEST PUSH1 0x2 SLOAD JUMPDEST PUSH1 0x40 MLOAD SWAP1 DUP2 MSTORE PUSH1 0x20 ADD PUSH2 0x212 JUMP JUMPDEST PUSH2 0x243 PUSH2 0x273 CALLDATASIZE PUSH1 0x4 PUSH2 0x12B6 JUMP JUMPDEST PUSH2 0x568 JUMP JUMPDEST PUSH2 0x28B PUSH2 0x286 CALLDATASIZE PUSH1 0x4 PUSH2 0x12F0 JUMP JUMPDEST PUSH2 0x58B JUMP JUMPDEST STOP JUMPDEST PUSH1 0x9 SLOAD PUSH2 0x1FE SWAP1 PUSH1 0x1 PUSH1 0x1 PUSH1 0xA0 SHL SUB AND DUP2 JUMP JUMPDEST PUSH1 0x40 MLOAD PUSH1 0x12 DUP2 MSTORE PUSH1 0x20 ADD PUSH2 0x212 JUMP JUMPDEST PUSH2 0x243 PUSH2 0x2BD CALLDATASIZE PUSH1 0x4 PUSH2 0x131A JUMP JUMPDEST PUSH1 0xE PUSH1 0x20 MSTORE PUSH0 SWAP1 DUP2 MSTORE PUSH1 0x40 SWAP1 KECCAK256 SLOAD PUSH1 0xFF AND DUP2 JUMP JUMPDEST PUSH1 0x7 SLOAD PUSH2 0x1FE SWAP1 PUSH1 0x1 PUSH1 0x1 PUSH1 0xA0 SHL SUB AND DUP2 JUMP JUMPDEST PUSH2 0x257 PUSH2 0x2F2 CALLDATASIZE PUSH1 0x4 PUSH2 0x131A JUMP JUMPDEST PUSH1 0x1 PUSH1 0x1 PUSH1 0xA0 SHL SUB AND PUSH0 SWAP1 DUP2 MSTORE PUSH1 0x20 DUP2 SWAP1 MSTORE PUSH1 0x40 SWAP1 KECCAK256 SLOAD SWAP1 JUMP JUMPDEST PUSH2 0x28B PUSH2 0x31A CALLDATASIZE PUSH1 0x4 PUSH2 0x1349 JUMP JUMPDEST PUSH2 0x6F7 JUMP JUMPDEST PUSH2 0x257 PUSH1 0x5 SLOAD DUP2 JUMP JUMPDEST PUSH2 0x257 PUSH8 0x6765C793FA10079D PUSH1 0x1B SHL DUP2 JUMP JUMPDEST PUSH2 0x28B PUSH2 0x348 CALLDATASIZE PUSH1 0x4 PUSH2 0x1371 JUMP JUMPDEST PUSH2 0x74B JUMP JUMPDEST PUSH1 0xC SLOAD PUSH2 0x243 SWAP1 PUSH1 0x1 PUSH1 0xA0 SHL SWAP1 DIV PUSH1 0xFF AND DUP2 JUMP JUMPDEST PUSH2 0x257 PUSH12 0x204FCE5E3E25026110000000 DUP2 JUMP JUMPDEST PUSH2 0x223 PUSH2 0x793 JUMP JUMPDEST PUSH2 0x28B PUSH2 0x38A CALLDATASIZE PUSH1 0x4 PUSH2 0x1349 JUMP JUMPDEST PUSH2 0x7A2 JUMP JUMPDEST PUSH2 0x257 PUSH1 0x6 SLOAD DUP2 JUMP JUMPDEST PUSH2 0x243 PUSH2 0x3A6 CALLDATASIZE PUSH1 0x4 PUSH2 0x128E JUMP JUMPDEST PUSH2 0x7F6 JUMP JUMPDEST PUSH2 0x28B PUSH2 0x3B9 CALLDATASIZE PUSH1 0x4 PUSH2 0x1371 JUMP JUMPDEST PUSH2 0x803 JUMP JUMPDEST PUSH1 0xC SLOAD PUSH2 0x1FE SWAP1 PUSH1 0x1 PUSH1 0x1 PUSH1 0xA0 SHL SUB AND DUP2 JUMP JUMPDEST PUSH2 0x3D9 PUSH2 0x84B JUMP JUMPDEST PUSH1 0x40 DUP1 MLOAD SWAP4 DUP5 MSTORE PUSH1 0x20 DUP5 ADD SWAP3 SWAP1 SWAP3 MSTORE SWAP1 DUP3 ADD MSTORE PUSH1 0x60 ADD PUSH2 0x212 JUMP JUMPDEST PUSH1 0xB SLOAD PUSH2 0x1FE SWAP1 PUSH1 0x1 PUSH1 0x1 PUSH1 0xA0 SHL SUB AND DUP2 JUMP JUMPDEST PUSH1 0x8 SLOAD PUSH2 0x1FE SWAP1 PUSH1 0x1 PUSH1 0x1 PUSH1 0xA0 SHL SUB AND DUP2 JUMP JUMPDEST PUSH2 0x257 PUSH2 0x428 CALLDATASIZE PUSH1 0x4 PUSH2 0x138A JUMP JUMPDEST PUSH1 0x1 PUSH1 0x1 PUSH1 0xA0 SHL SUB SWAP2 DUP3 AND PUSH0 SWAP1 DUP2 MSTORE PUSH1 0x1 PUSH1 0x20 SWAP1 DUP2 MSTORE PUSH1 0x40 DUP1 DUP4 KECCAK256 SWAP4 SWAP1 SWAP5 AND DUP3 MSTORE SWAP2 SWAP1 SWAP2 MSTORE KECCAK256 SLOAD SWAP1 JUMP JUMPDEST PUSH2 0x257 PUSH32 0x0 DUP2 JUMP JUMPDEST PUSH2 0x257 PUSH2 0x9CD JUMP JUMPDEST PUSH1 0xC SLOAD PUSH2 0x243 SWAP1 PUSH1 0x1 PUSH1 0xA8 SHL SWAP1 DIV PUSH1 0xFF AND DUP2 JUMP JUMPDEST PUSH2 0x28B PUSH2 0x9F1 JUMP JUMPDEST PUSH2 0x243 PUSH2 0x4AB CALLDATASIZE PUSH1 0x4 PUSH2 0x131A JUMP JUMPDEST PUSH1 0xF PUSH1 0x20 MSTORE PUSH0 SWAP1 DUP2 MSTORE PUSH1 0x40 SWAP1 KECCAK256 SLOAD PUSH1 0xFF AND DUP2 JUMP JUMPDEST PUSH1 0x60 PUSH1 0x3 DUP1 SLOAD PUSH2 0x4CE SWAP1 PUSH2 0x13B2 JUMP JUMPDEST DUP1 PUSH1 0x1F ADD PUSH1 0x20 DUP1 SWAP2 DIV MUL PUSH1 0x20 ADD PUSH1 0x40 MLOAD SWAP1 DUP2 ADD PUSH1 0x40 MSTORE DUP1 SWAP3 SWAP2 SWAP1 DUP2 DUP2 MSTORE PUSH1 0x20 ADD DUP3 DUP1 SLOAD PUSH2 0x4FA SWAP1 PUSH2 0x13B2 JUMP JUMPDEST DUP1 ISZERO PUSH2 0x545 JUMPI DUP1 PUSH1 0x1F LT PUSH2 0x51C JUMPI PUSH2 0x100 DUP1 DUP4 SLOAD DIV MUL DUP4 MSTORE SWAP2 PUSH1 0x20 ADD SWAP2 PUSH2 0x545 JUMP JUMPDEST DUP3 ADD SWAP2 SWAP1 PUSH0 MSTORE PUSH1 0x20 PUSH0 KECCAK256 SWAP1 JUMPDEST DUP2 SLOAD DUP2 MSTORE SWAP1 PUSH1 0x1 ADD SWAP1 PUSH1 0x20 ADD DUP1 DUP4 GT PUSH2 0x528 JUMPI DUP3 SWAP1 SUB PUSH1 0x1F AND DUP3 ADD SWAP2 JUMPDEST POP POP POP POP POP SWAP1 POP SWAP1 JUMP JUMPDEST PUSH0 CALLER PUSH2 0x55C DUP2 DUP6 DUP6 PUSH2 0xDF0 JUMP JUMPDEST PUSH1 0x1 SWAP2 POP POP JUMPDEST SWAP3 SWAP2 POP POP JUMP JUMPDEST PUSH0 CALLER PUSH2 0x575 DUP6 DUP3 DUP6 PUSH2 0xE02 JUMP JUMPDEST PUSH2 0x580 DUP6 DUP6 DUP6 PUSH2 0xE7E JUMP JUMPDEST POP PUSH1 0x1 SWAP5 SWAP4 POP POP POP POP JUMP JUMPDEST PUSH1 0xD SLOAD PUSH1 0x1 PUSH1 0x1 PUSH1 0xA0 SHL SUB AND CALLER EQ PUSH2 0x5BE JUMPI PUSH1 0x40 MLOAD PUSH3 0x461BCD PUSH1 0xE5 SHL DUP2 MSTORE PUSH1 0x4 ADD PUSH2 0x5B5 SWAP1 PUSH2 0x13EA JUMP JUMPDEST PUSH1 0x40 MLOAD DUP1 SWAP2 SUB SWAP1 REVERT JUMPDEST PUSH1 0x1 DUP3 LT ISZERO DUP1 ISZERO PUSH2 0x5D0 JUMPI POP PUSH1 0x6 DUP3 GT ISZERO JUMPDEST PUSH2 0x60C JUMPI PUSH1 0x40 MLOAD PUSH3 0x461BCD PUSH1 0xE5 SHL DUP2 MSTORE PUSH1 0x20 PUSH1 0x4 DUP3 ADD MSTORE PUSH1 0xD PUSH1 0x24 DUP3 ADD MSTORE PUSH13 0x92DCECC2D8D2C840D2DCC8CAF PUSH1 0x9B SHL PUSH1 0x44 DUP3 ADD MSTORE PUSH1 0x64 ADD PUSH2 0x5B5 JUMP JUMPDEST DUP2 PUSH1 0x1 SUB PUSH2 0x633 JUMPI PUSH1 0x7 DUP1 SLOAD PUSH1 0x1 PUSH1 0x1 PUSH1 0xA0 SHL SUB NOT AND PUSH1 0x1 PUSH1 0x1 PUSH1 0xA0 SHL SUB DUP4 AND OR SWAP1 SSTORE POP POP JUMP JUMPDEST DUP2 PUSH1 0x2 SUB PUSH2 0x65A JUMPI PUSH1 0x8 DUP1 SLOAD PUSH1 0x1 PUSH1 0x1 PUSH1 0xA0 SHL SUB NOT AND PUSH1 0x1 PUSH1 0x1 PUSH1 0xA0 SHL SUB DUP4 AND OR SWAP1 SSTORE POP POP JUMP JUMPDEST DUP2 PUSH1 0x3 SUB PUSH2 0x681 JUMPI PUSH1 0x9 DUP1 SLOAD PUSH1 0x1 PUSH1 0x1 PUSH1 0xA0 SHL SUB NOT AND PUSH1 0x1 PUSH1 0x1 PUSH1 0xA0 SHL SUB DUP4 AND OR SWAP1 SSTORE POP POP JUMP JUMPDEST DUP2 PUSH1 0x4 SUB PUSH2 0x6A8 JUMPI PUSH1 0xA DUP1 SLOAD PUSH1 0x1 PUSH1 0x1 PUSH1 0xA0 SHL SUB NOT AND PUSH1 0x1 PUSH1 0x1 PUSH1 0xA0 SHL SUB DUP4 AND OR SWAP1 SSTORE POP POP JUMP JUMPDEST DUP2 PUSH1 0x5 SUB PUSH2 0x6CF JUMPI PUSH1 0xB DUP1 SLOAD PUSH1 0x1 PUSH1 0x1 PUSH1 0xA0 SHL SUB NOT AND PUSH1 0x1 PUSH1 0x1 PUSH1 0xA0 SHL SUB DUP4 AND OR SWAP1 SSTORE POP POP JUMP JUMPDEST DUP2 PUSH1 0x6 SUB PUSH2 0x6F3 JUMPI PUSH1 0xC DUP1 SLOAD PUSH1 0x1 PUSH1 0x1 PUSH1 0xA0 SHL SUB NOT AND PUSH1 0x1 PUSH1 0x1 PUSH1 0xA0 SHL SUB DUP4 AND OR SWAP1 SSTORE JUMPDEST POP POP JUMP JUMPDEST PUSH1 0xD SLOAD PUSH1 0x1 PUSH1 0x1 PUSH1 0xA0 SHL SUB AND CALLER EQ PUSH2 0x721 JUMPI PUSH1 0x40 MLOAD PUSH3 0x461BCD PUSH1 0xE5 SHL DUP2 MSTORE PUSH1 0x4 ADD PUSH2 0x5B5 SWAP1 PUSH2 0x13EA JUMP JUMPDEST PUSH1 0x1 PUSH1 0x1 PUSH1 0xA0 SHL SUB SWAP2 SWAP1 SWAP2 AND PUSH0 SWAP1 DUP2 MSTORE PUSH1 0xE PUSH1 0x20 MSTORE PUSH1 0x40 SWAP1 KECCAK256 DUP1 SLOAD PUSH1 0xFF NOT AND SWAP2 ISZERO ISZERO SWAP2 SWAP1 SWAP2 OR SWAP1 SSTORE JUMP JUMPDEST PUSH1 0xD SLOAD PUSH1 0x1 PUSH1 0x1 PUSH1 0xA0 SHL SUB AND CALLER EQ PUSH2 0x775 JUMPI PUSH1 0x40 MLOAD PUSH3 0x461BCD PUSH1 0xE5 SHL DUP2 MSTORE PUSH1 0x4 ADD PUSH2 0x5B5 SWAP1 PUSH2 0x13EA JUMP JUMPDEST PUSH1 0xC DUP1 SLOAD SWAP2 ISZERO ISZERO PUSH1 0x1 PUSH1 0xA0 SHL MUL PUSH1 0xFF PUSH1 0xA0 SHL NOT SWAP1 SWAP3 AND SWAP2 SWAP1 SWAP2 OR SWAP1 SSTORE JUMP JUMPDEST PUSH1 0x60 PUSH1 0x4 DUP1 SLOAD PUSH2 0x4CE SWAP1 PUSH2 0x13B2 JUMP JUMPDEST PUSH1 0xD SLOAD PUSH1 0x1 PUSH1 0x1 PUSH1 0xA0 SHL SUB AND CALLER EQ PUSH2 0x7CC JUMPI PUSH1 0x40 MLOAD PUSH3 0x461BCD PUSH1 0xE5 SHL DUP2 MSTORE PUSH1 0x4 ADD PUSH2 0x5B5 SWAP1 PUSH2 0x13EA JUMP JUMPDEST PUSH1 0x1 PUSH1 0x1 PUSH1 0xA0 SHL SUB SWAP2 SWAP1 SWAP2 AND PUSH0 SWAP1 DUP2 MSTORE PUSH1 0xF PUSH1 0x20 MSTORE PUSH1 0x40 SWAP1 KECCAK256 DUP1 SLOAD PUSH1 0xFF NOT AND SWAP2 ISZERO ISZERO SWAP2 SWAP1 SWAP2 OR SWAP1 SSTORE JUMP JUMPDEST PUSH0 CALLER PUSH2 0x55C DUP2 DUP6 DUP6 PUSH2 0xE7E JUMP JUMPDEST PUSH1 0xD SLOAD PUSH1 0x1 PUSH1 0x1 PUSH1 0xA0 SHL SUB AND CALLER EQ PUSH2 0x82D JUMPI PUSH1 0x40 MLOAD PUSH3 0x461BCD PUSH1 0xE5 SHL DUP2 MSTORE PUSH1 0x4 ADD PUSH2 0x5B5 SWAP1 PUSH2 0x13EA JUMP JUMPDEST PUSH1 0xC DUP1 SLOAD SWAP2 ISZERO ISZERO PUSH1 0x1 PUSH1 0xA8 SHL MUL PUSH1 0xFF PUSH1 0xA8 SHL NOT SWAP1 SWAP3 AND SWAP2 SWAP1 SWAP2 OR SWAP1 SSTORE JUMP JUMPDEST PUSH0 DUP1 PUSH0 DUP1 PUSH1 0x5 SLOAD PUSH1 0x1 PUSH2 0x85E SWAP2 SWAP1 PUSH2 0x1424 JUMP JUMPDEST SWAP1 POP PUSH1 0x3 DUP2 GT PUSH2 0x8A8 JUMPI PUSH2 0x3E8 PUSH2 0x88C PUSH8 0x6765C793FA10079D PUSH1 0x1B SHL PUSH12 0x204FCE5E3E25026110000000 PUSH2 0x1437 JUMP JUMPDEST PUSH2 0x897 SWAP1 PUSH1 0x5 PUSH2 0x144A JUMP JUMPDEST PUSH2 0x8A1 SWAP2 SWAP1 PUSH2 0x1461 JUMP JUMPDEST SWAP3 POP PUSH2 0x94F JUMP JUMPDEST PUSH1 0x6 DUP2 GT PUSH2 0x8DE JUMPI PUSH1 0x64 PUSH2 0x8D3 PUSH8 0x6765C793FA10079D PUSH1 0x1B SHL PUSH12 0x204FCE5E3E25026110000000 PUSH2 0x1437 JUMP JUMPDEST PUSH2 0x897 SWAP1 PUSH1 0x1 PUSH2 0x144A JUMP JUMPDEST PUSH1 0x9 DUP2 GT PUSH2 0x914 JUMPI PUSH1 0x64 PUSH2 0x909 PUSH8 0x6765C793FA10079D PUSH1 0x1B SHL PUSH12 0x204FCE5E3E25026110000000 PUSH2 0x1437 JUMP JUMPDEST PUSH2 0x897 SWAP1 PUSH1 0x2 PUSH2 0x144A JUMP JUMPDEST PUSH1 0x64 PUSH2 0x937 PUSH8 0x6765C793FA10079D PUSH1 0x1B SHL PUSH12 0x204FCE5E3E25026110000000 PUSH2 0x1437 JUMP JUMPDEST PUSH2 0x942 SWAP1 PUSH1 0x3 PUSH2 0x144A JUMP JUMPDEST PUSH2 0x94C SWAP2 SWAP1 PUSH2 0x1461 JUMP JUMPDEST SWAP3 POP JUMPDEST PUSH2 0x970 PUSH8 0x6765C793FA10079D PUSH1 0x1B SHL PUSH12 0x204FCE5E3E25026110000000 PUSH2 0x1437 JUMP JUMPDEST PUSH1 0x6 SLOAD PUSH2 0x97D SWAP1 DUP6 PUSH2 0x1424 JUMP JUMPDEST GT ISZERO PUSH2 0x9B4 JUMPI PUSH1 0x6 SLOAD PUSH2 0x9A7 PUSH8 0x6765C793FA10079D PUSH1 0x1B SHL PUSH12 0x204FCE5E3E25026110000000 PUSH2 0x1437 JUMP JUMPDEST PUSH2 0x9B1 SWAP2 SWAP1 PUSH2 0x1437 JUMP JUMPDEST SWAP3 POP JUMPDEST DUP1 DUP4 PUSH2 0x9C1 PUSH1 0x6 DUP3 PUSH2 0x1461 JUMP JUMPDEST SWAP4 POP SWAP4 POP SWAP4 POP POP SWAP1 SWAP2 SWAP3 JUMP JUMPDEST PUSH2 0x9EE PUSH8 0x6765C793FA10079D PUSH1 0x1B SHL PUSH12 0x204FCE5E3E25026110000000 PUSH2 0x1437 JUMP JUMPDEST DUP2 JUMP JUMPDEST PUSH1 0xD SLOAD PUSH1 0x1 PUSH1 0x1 PUSH1 0xA0 SHL SUB AND CALLER EQ PUSH2 0xA1B JUMPI PUSH1 0x40 MLOAD PUSH3 0x461BCD PUSH1 0xE5 SHL DUP2 MSTORE PUSH1 0x4 ADD PUSH2 0x5B5 SWAP1 PUSH2 0x13EA JUMP JUMPDEST PUSH2 0xA3C PUSH8 0x6765C793FA10079D PUSH1 0x1B SHL PUSH12 0x204FCE5E3E25026110000000 PUSH2 0x1437 JUMP JUMPDEST PUSH1 0x6 SLOAD LT PUSH2 0xA8C JUMPI PUSH1 0x40 MLOAD PUSH3 0x461BCD PUSH1 0xE5 SHL DUP2 MSTORE PUSH1 0x20 PUSH1 0x4 DUP3 ADD MSTORE PUSH1 0x1B PUSH1 0x24 DUP3 ADD MSTORE PUSH32 0x416C6C20746F6B656E7320616C726561647920756E6C6F636B65640000000000 PUSH1 0x44 DUP3 ADD MSTORE PUSH1 0x64 ADD PUSH2 0x5B5 JUMP JUMPDEST PUSH0 PUSH3 0x278D00 PUSH2 0xABB PUSH32 0x0 TIMESTAMP PUSH2 0x1437 JUMP JUMPDEST PUSH2 0xAC5 SWAP2 SWAP1 PUSH2 0x1461 JUMP JUMPDEST SWAP1 POP PUSH1 0x5 SLOAD DUP2 GT PUSH2 0xB11 JUMPI PUSH1 0x40 MLOAD PUSH3 0x461BCD PUSH1 0xE5 SHL DUP2 MSTORE PUSH1 0x20 PUSH1 0x4 DUP3 ADD MSTORE PUSH1 0x16 PUSH1 0x24 DUP3 ADD MSTORE PUSH22 0x4E6F206E6577206D6F6E746820746F20756E6C6F636B PUSH1 0x50 SHL PUSH1 0x44 DUP3 ADD MSTORE PUSH1 0x64 ADD PUSH2 0x5B5 JUMP JUMPDEST PUSH0 DUP1 PUSH1 0x5 SLOAD PUSH1 0x1 PUSH2 0xB22 SWAP2 SWAP1 PUSH2 0x1424 JUMP JUMPDEST SWAP1 POP JUMPDEST DUP3 DUP2 GT PUSH2 0xC41 JUMPI PUSH1 0x3 DUP2 GT PUSH2 0xB7E JUMPI PUSH2 0x3E8 PUSH2 0xB58 PUSH8 0x6765C793FA10079D PUSH1 0x1B SHL PUSH12 0x204FCE5E3E25026110000000 PUSH2 0x1437 JUMP JUMPDEST PUSH2 0xB63 SWAP1 PUSH1 0x5 PUSH2 0x144A JUMP JUMPDEST PUSH2 0xB6D SWAP2 SWAP1 PUSH2 0x1461 JUMP JUMPDEST PUSH2 0xB77 SWAP1 DUP4 PUSH2 0x1424 JUMP JUMPDEST SWAP2 POP PUSH2 0xC2F JUMP JUMPDEST PUSH1 0x6 DUP2 GT PUSH2 0xBB4 JUMPI PUSH1 0x64 PUSH2 0xBA9 PUSH8 0x6765C793FA10079D PUSH1 0x1B SHL PUSH12 0x204FCE5E3E25026110000000 PUSH2 0x1437 JUMP JUMPDEST PUSH2 0xB63 SWAP1 PUSH1 0x1 PUSH2 0x144A JUMP JUMPDEST PUSH1 0x9 DUP2 GT PUSH2 0xBEA JUMPI PUSH1 0x64 PUSH2 0xBDF PUSH8 0x6765C793FA10079D PUSH1 0x1B SHL PUSH12 0x204FCE5E3E25026110000000 PUSH2 0x1437 JUMP JUMPDEST PUSH2 0xB63 SWAP1 PUSH1 0x2 PUSH2 0x144A JUMP JUMPDEST PUSH1 0x64 PUSH2 0xC0D PUSH8 0x6765C793FA10079D PUSH1 0x1B SHL PUSH12 0x204FCE5E3E25026110000000 PUSH2 0x1437 JUMP JUMPDEST PUSH2 0xC18 SWAP1 PUSH1 0x3 PUSH2 0x144A JUMP JUMPDEST PUSH2 0xC22 SWAP2 SWAP1 PUSH2 0x1461 JUMP JUMPDEST PUSH2 0xC2C SWAP1 DUP4 PUSH2 0x1424 JUMP JUMPDEST SWAP2 POP JUMPDEST DUP1 PUSH2 0xC39 DUP2 PUSH2 0x1480 JUMP JUMPDEST SWAP2 POP POP PUSH2 0xB25 JUMP JUMPDEST POP PUSH2 0xC63 PUSH8 0x6765C793FA10079D PUSH1 0x1B SHL PUSH12 0x204FCE5E3E25026110000000 PUSH2 0x1437 JUMP JUMPDEST PUSH1 0x6 SLOAD PUSH2 0xC70 SWAP1 DUP4 PUSH2 0x1424 JUMP JUMPDEST GT ISZERO PUSH2 0xCA7 JUMPI PUSH1 0x6 SLOAD PUSH2 0xC9A PUSH8 0x6765C793FA10079D PUSH1 0x1B SHL PUSH12 0x204FCE5E3E25026110000000 PUSH2 0x1437 JUMP JUMPDEST PUSH2 0xCA4 SWAP2 SWAP1 PUSH2 0x1437 JUMP JUMPDEST SWAP1 POP JUMPDEST PUSH0 DUP2 GT PUSH2 0xCEA JUMPI PUSH1 0x40 MLOAD PUSH3 0x461BCD PUSH1 0xE5 SHL DUP2 MSTORE PUSH1 0x20 PUSH1 0x4 DUP3 ADD MSTORE PUSH1 0x11 PUSH1 0x24 DUP3 ADD MSTORE PUSH17 0x4E6F7468696E6720746F20756E6C6F636B PUSH1 0x78 SHL PUSH1 0x44 DUP3 ADD MSTORE PUSH1 0x64 ADD PUSH2 0x5B5 JUMP JUMPDEST DUP2 PUSH1 0x5 DUP2 SWAP1 SSTORE POP DUP1 PUSH1 0x6 PUSH0 DUP3 DUP3 SLOAD PUSH2 0xD02 SWAP2 SWAP1 PUSH2 0x1424 JUMP JUMPDEST SWAP1 SWAP2 SSTORE POP PUSH0 SWAP1 POP PUSH2 0xD14 PUSH1 0x6 DUP4 PUSH2 0x1461 JUMP JUMPDEST PUSH1 0x7 SLOAD SWAP1 SWAP2 POP PUSH2 0xD2F SWAP1 ADDRESS SWAP1 PUSH1 0x1 PUSH1 0x1 PUSH1 0xA0 SHL SUB AND DUP4 PUSH2 0xE7E JUMP JUMPDEST PUSH1 0x8 SLOAD PUSH2 0xD47 SWAP1 ADDRESS SWAP1 PUSH1 0x1 PUSH1 0x1 PUSH1 0xA0 SHL SUB AND DUP4 PUSH2 0xE7E JUMP JUMPDEST PUSH1 0x9 SLOAD PUSH2 0xD5F SWAP1 ADDRESS SWAP1 PUSH1 0x1 PUSH1 0x1 PUSH1 0xA0 SHL SUB AND DUP4 PUSH2 0xE7E JUMP JUMPDEST PUSH1 0xA SLOAD PUSH2 0xD77 SWAP1 ADDRESS SWAP1 PUSH1 0x1 PUSH1 0x1 PUSH1 0xA0 SHL SUB AND DUP4 PUSH2 0xE7E JUMP JUMPDEST PUSH1 0xB SLOAD PUSH2 0xD8F SWAP1 ADDRESS SWAP1 PUSH1 0x1 PUSH1 0x1 PUSH1 0xA0 SHL SUB AND DUP4 PUSH2 0xE7E JUMP JUMPDEST PUSH1 0xC SLOAD PUSH2 0xDA7 SWAP1 ADDRESS SWAP1 PUSH1 0x1 PUSH1 0x1 PUSH1 0xA0 SHL SUB AND DUP4 PUSH2 0xE7E JUMP JUMPDEST PUSH1 0x5 SLOAD PUSH1 0x6 SLOAD PUSH1 0x40 DUP1 MLOAD SWAP3 DUP4 MSTORE PUSH1 0x20 DUP4 ADD DUP5 SWAP1 MSTORE DUP3 ADD MSTORE PUSH32 0xD5C1E53FEBF89038959691E212F7A18F34F9AC92DD9965A138CCFC695E9774AC SWAP1 PUSH1 0x60 ADD PUSH1 0x40 MLOAD DUP1 SWAP2 SUB SWAP1 LOG1 POP POP POP JUMP JUMPDEST PUSH2 0xDFD DUP4 DUP4 DUP4 PUSH1 0x1 PUSH2 0xEDB JUMP JUMPDEST POP POP POP JUMP JUMPDEST PUSH1 0x1 PUSH1 0x1 PUSH1 0xA0 SHL SUB DUP4 DUP2 AND PUSH0 SWAP1 DUP2 MSTORE PUSH1 0x1 PUSH1 0x20 SWAP1 DUP2 MSTORE PUSH1 0x40 DUP1 DUP4 KECCAK256 SWAP4 DUP7 AND DUP4 MSTORE SWAP3 SWAP1 MSTORE KECCAK256 SLOAD PUSH0 NOT DUP2 LT ISZERO PUSH2 0xE78 JUMPI DUP2 DUP2 LT ISZERO PUSH2 0xE6A JUMPI PUSH1 0x40 MLOAD PUSH4 0x7DC7A0D9 PUSH1 0xE1 SHL DUP2 MSTORE PUSH1 0x1 PUSH1 0x1 PUSH1 0xA0 SHL SUB DUP5 AND PUSH1 0x4 DUP3 ADD MSTORE PUSH1 0x24 DUP2 ADD DUP3 SWAP1 MSTORE PUSH1 0x44 DUP2 ADD DUP4 SWAP1 MSTORE PUSH1 0x64 ADD PUSH2 0x5B5 JUMP JUMPDEST PUSH2 0xE78 DUP5 DUP5 DUP5 DUP5 SUB PUSH0 PUSH2 0xEDB JUMP JUMPDEST POP POP POP POP JUMP JUMPDEST PUSH1 0x1 PUSH1 0x1 PUSH1 0xA0 SHL SUB DUP4 AND PUSH2 0xEA7 JUMPI PUSH1 0x40 MLOAD PUSH4 0x4B637E8F PUSH1 0xE1 SHL DUP2 MSTORE PUSH0 PUSH1 0x4 DUP3 ADD MSTORE PUSH1 0x24 ADD PUSH2 0x5B5 JUMP JUMPDEST PUSH1 0x1 PUSH1 0x1 PUSH1 0xA0 SHL SUB DUP3 AND PUSH2 0xED0 JUMPI PUSH1 0x40 MLOAD PUSH4 0xEC442F05 PUSH1 0xE0 SHL DUP2 MSTORE PUSH0 PUSH1 0x4 DUP3 ADD MSTORE PUSH1 0x24 ADD PUSH2 0x5B5 JUMP JUMPDEST PUSH2 0xDFD DUP4 DUP4 DUP4 PUSH2 0xFAD JUMP JUMPDEST PUSH1 0x1 PUSH1 0x1 PUSH1 0xA0 SHL SUB DUP5 AND PUSH2 0xF04 JUMPI PUSH1 0x40 MLOAD PUSH4 0xE602DF05 PUSH1 0xE0 SHL DUP2 MSTORE PUSH0 PUSH1 0x4 DUP3 ADD MSTORE PUSH1 0x24 ADD PUSH2 0x5B5 JUMP JUMPDEST PUSH1 0x1 PUSH1 0x1 PUSH1 0xA0 SHL SUB DUP4 AND PUSH2 0xF2D JUMPI PUSH1 0x40 MLOAD PUSH4 0x4A1406B1 PUSH1 0xE1 SHL DUP2 MSTORE PUSH0 PUSH1 0x4 DUP3 ADD MSTORE PUSH1 0x24 ADD PUSH2 0x5B5 JUMP JUMPDEST PUSH1 0x1 PUSH1 0x1 PUSH1 0xA0 SHL SUB DUP1 DUP6 AND PUSH0 SWAP1 DUP2 MSTORE PUSH1 0x1 PUSH1 0x20 SWAP1 DUP2 MSTORE PUSH1 0x40 DUP1 DUP4 KECCAK256 SWAP4 DUP8 AND DUP4 MSTORE SWAP3 SWAP1 MSTORE KECCAK256 DUP3 SWAP1 SSTORE DUP1 ISZERO PUSH2 0xE78 JUMPI DUP3 PUSH1 0x1 PUSH1 0x1 PUSH1 0xA0 SHL SUB AND DUP5 PUSH1 0x1 PUSH1 0x1 PUSH1 0xA0 SHL SUB AND PUSH32 0x8C5BE1E5EBEC7D5BD14F71427D1E84F3DD0314C0F7B2291E5B200AC8C7C3B925 DUP5 PUSH1 0x40 MLOAD PUSH2 0xF9F SWAP2 DUP2 MSTORE PUSH1 0x20 ADD SWAP1 JUMP JUMPDEST PUSH1 0x40 MLOAD DUP1 SWAP2 SUB SWAP1 LOG3 POP POP POP POP JUMP JUMPDEST PUSH2 0xFB8 DUP4 DUP4 DUP4 PUSH2 0x10DE JUMP JUMPDEST PUSH1 0x1 PUSH1 0x1 PUSH1 0xA0 SHL SUB DUP4 AND PUSH2 0xFE2 JUMPI DUP1 PUSH1 0x2 PUSH0 DUP3 DUP3 SLOAD PUSH2 0xFD7 SWAP2 SWAP1 PUSH2 0x1424 JUMP JUMPDEST SWAP1 SWAP2 SSTORE POP PUSH2 0x1052 SWAP1 POP JUMP JUMPDEST PUSH1 0x1 PUSH1 0x1 PUSH1 0xA0 SHL SUB DUP4 AND PUSH0 SWAP1 DUP2 MSTORE PUSH1 0x20 DUP2 SWAP1 MSTORE PUSH1 0x40 SWAP1 KECCAK256 SLOAD DUP2 DUP2 LT ISZERO PUSH2 0x1034 JUMPI PUSH1 0x40 MLOAD PUSH4 0x391434E3 PUSH1 0xE2 SHL DUP2 MSTORE PUSH1 0x1 PUSH1 0x1 PUSH1 0xA0 SHL SUB DUP6 AND PUSH1 0x4 DUP3 ADD MSTORE PUSH1 0x24 DUP2 ADD DUP3 SWAP1 MSTORE PUSH1 0x44 DUP2 ADD DUP4 SWAP1 MSTORE PUSH1 0x64 ADD PUSH2 0x5B5 JUMP JUMPDEST PUSH1 0x1 PUSH1 0x1 PUSH1 0xA0 SHL SUB DUP5 AND PUSH0 SWAP1 DUP2 MSTORE PUSH1 0x20 DUP2 SWAP1 MSTORE PUSH1 0x40 SWAP1 KECCAK256 SWAP1 DUP3 SWAP1 SUB SWAP1 SSTORE JUMPDEST PUSH1 0x1 PUSH1 0x1 PUSH1 0xA0 SHL SUB DUP3 AND PUSH2 0x106E JUMPI PUSH1 0x2 DUP1 SLOAD DUP3 SWAP1 SUB SWAP1 SSTORE PUSH2 0x108C JUMP JUMPDEST PUSH1 0x1 PUSH1 0x1 PUSH1 0xA0 SHL SUB DUP3 AND PUSH0 SWAP1 DUP2 MSTORE PUSH1 0x20 DUP2 SWAP1 MSTORE PUSH1 0x40 SWAP1 KECCAK256 DUP1 SLOAD DUP3 ADD SWAP1 SSTORE JUMPDEST DUP2 PUSH1 0x1 PUSH1 0x1 PUSH1 0xA0 SHL SUB AND DUP4 PUSH1 0x1 PUSH1 0x1 PUSH1 0xA0 SHL SUB AND PUSH32 0xDDF252AD1BE2C89B69C2B068FC378DAA952BA7F163C4A11628F55A4DF523B3EF DUP4 PUSH1 0x40 MLOAD PUSH2 0x10D1 SWAP2 DUP2 MSTORE PUSH1 0x20 ADD SWAP1 JUMP JUMPDEST PUSH1 0x40 MLOAD DUP1 SWAP2 SUB SWAP1 LOG3 POP POP POP JUMP JUMPDEST PUSH1 0x1 PUSH1 0x1 PUSH1 0xA0 SHL SUB DUP4 AND PUSH0 SWAP1 DUP2 MSTORE PUSH1 0xE PUSH1 0x20 MSTORE PUSH1 0x40 SWAP1 KECCAK256 SLOAD DUP4 SWAP1 DUP4 SWAP1 PUSH1 0xFF AND DUP1 ISZERO PUSH2 0x1113 JUMPI POP PUSH1 0xC SLOAD PUSH1 0x1 PUSH1 0xA0 SHL SWAP1 DIV PUSH1 0xFF AND ISZERO JUMPDEST ISZERO PUSH2 0x118C JUMPI PUSH1 0xD SLOAD PUSH1 0x1 PUSH1 0x1 PUSH1 0xA0 SHL SUB DUP3 DUP2 AND SWAP2 AND EQ DUP1 PUSH2 0x114B JUMPI POP PUSH1 0x1 PUSH1 0x1 PUSH1 0xA0 SHL SUB DUP2 AND PUSH0 SWAP1 DUP2 MSTORE PUSH1 0xF PUSH1 0x20 MSTORE PUSH1 0x40 SWAP1 KECCAK256 SLOAD PUSH1 0xFF AND JUMPDEST PUSH2 0x118C JUMPI PUSH1 0x40 MLOAD PUSH3 0x461BCD PUSH1 0xE5 SHL DUP2 MSTORE PUSH1 0x20 PUSH1 0x4 DUP3 ADD MSTORE PUSH1 0x12 PUSH1 0x24 DUP3 ADD MSTORE PUSH18 0x109D5E5A5B99C81A5CC8191A5CD8589B1959 PUSH1 0x72 SHL PUSH1 0x44 DUP3 ADD MSTORE PUSH1 0x64 ADD PUSH2 0x5B5 JUMP JUMPDEST PUSH1 0x1 PUSH1 0x1 PUSH1 0xA0 SHL SUB DUP2 AND PUSH0 SWAP1 DUP2 MSTORE PUSH1 0xE PUSH1 0x20 MSTORE PUSH1 0x40 SWAP1 KECCAK256 SLOAD PUSH1 0xFF AND DUP1 ISZERO PUSH2 0x11BD JUMPI POP PUSH1 0xC SLOAD PUSH1 0x1 PUSH1 0xA8 SHL SWAP1 DIV PUSH1 0xFF AND ISZERO JUMPDEST ISZERO PUSH2 0x1237 JUMPI PUSH1 0xD SLOAD PUSH1 0x1 PUSH1 0x1 PUSH1 0xA0 SHL SUB DUP4 DUP2 AND SWAP2 AND EQ DUP1 PUSH2 0x11F5 JUMPI POP PUSH1 0x1 PUSH1 0x1 PUSH1 0xA0 SHL SUB DUP3 AND PUSH0 SWAP1 DUP2 MSTORE PUSH1 0xF PUSH1 0x20 MSTORE PUSH1 0x40 SWAP1 KECCAK256 SLOAD PUSH1 0xFF AND JUMPDEST PUSH2 0x1237 JUMPI PUSH1 0x40 MLOAD PUSH3 0x461BCD PUSH1 0xE5 SHL DUP2 MSTORE PUSH1 0x20 PUSH1 0x4 DUP3 ADD MSTORE PUSH1 0x13 PUSH1 0x24 DUP3 ADD MSTORE PUSH19 0x14D95B1B1A5B99C81A5CC8191A5CD8589B1959 PUSH1 0x6A SHL PUSH1 0x44 DUP3 ADD MSTORE PUSH1 0x64 ADD PUSH2 0x5B5 JUMP JUMPDEST POP POP POP POP POP JUMP JUMPDEST PUSH1 0x20 DUP2 MSTORE PUSH0 DUP3 MLOAD DUP1 PUSH1 0x20 DUP5 ADD MSTORE DUP1 PUSH1 0x20 DUP6 ADD PUSH1 0x40 DUP6 ADD MCOPY PUSH0 PUSH1 0x40 DUP3 DUP6 ADD ADD MSTORE PUSH1 0x40 PUSH1 0x1F NOT PUSH1 0x1F DUP4 ADD AND DUP5 ADD ADD SWAP2 POP POP SWAP3 SWAP2 POP POP JUMP JUMPDEST DUP1 CALLDATALOAD PUSH1 0x1 PUSH1 0x1 PUSH1 0xA0 SHL SUB DUP2 AND DUP2 EQ PUSH2 0x1289 JUMPI PUSH0 DUP1 REVERT JUMPDEST SWAP2 SWAP1 POP JUMP JUMPDEST PUSH0 DUP1 PUSH1 0x40 DUP4 DUP6 SUB SLT ISZERO PUSH2 0x129F JUMPI PUSH0 DUP1 REVERT JUMPDEST PUSH2 0x12A8 DUP4 PUSH2 0x1273 JUMP JUMPDEST SWAP5 PUSH1 0x20 SWAP4 SWAP1 SWAP4 ADD CALLDATALOAD SWAP4 POP POP POP JUMP JUMPDEST PUSH0 DUP1 PUSH0 PUSH1 0x60 DUP5 DUP7 SUB SLT ISZERO PUSH2 0x12C8 JUMPI PUSH0 DUP1 REVERT JUMPDEST PUSH2 0x12D1 DUP5 PUSH2 0x1273 JUMP JUMPDEST SWAP3 POP PUSH2 0x12DF PUSH1 0x20 DUP6 ADD PUSH2 0x1273 JUMP JUMPDEST SWAP3 SWAP6 SWAP3 SWAP5 POP POP POP PUSH1 0x40 SWAP2 SWAP1 SWAP2 ADD CALLDATALOAD SWAP1 JUMP JUMPDEST PUSH0 DUP1 PUSH1 0x40 DUP4 DUP6 SUB SLT ISZERO PUSH2 0x1301 JUMPI PUSH0 DUP1 REVERT JUMPDEST DUP3 CALLDATALOAD SWAP2 POP PUSH2 0x1311 PUSH1 0x20 DUP5 ADD PUSH2 0x1273 JUMP JUMPDEST SWAP1 POP SWAP3 POP SWAP3 SWAP1 POP JUMP JUMPDEST PUSH0 PUSH1 0x20 DUP3 DUP5 SUB SLT ISZERO PUSH2 0x132A JUMPI PUSH0 DUP1 REVERT JUMPDEST PUSH2 0x1333 DUP3 PUSH2 0x1273 JUMP JUMPDEST SWAP4 SWAP3 POP POP POP JUMP JUMPDEST DUP1 CALLDATALOAD DUP1 ISZERO ISZERO DUP2 EQ PUSH2 0x1289 JUMPI PUSH0 DUP1 REVERT JUMPDEST PUSH0 DUP1 PUSH1 0x40 DUP4 DUP6 SUB SLT ISZERO PUSH2 0x135A JUMPI PUSH0 DUP1 REVERT JUMPDEST PUSH2 0x1363 DUP4 PUSH2 0x1273 JUMP JUMPDEST SWAP2 POP PUSH2 0x1311 PUSH1 0x20 DUP5 ADD PUSH2 0x133A JUMP JUMPDEST PUSH0 PUSH1 0x20 DUP3 DUP5 SUB SLT ISZERO PUSH2 0x1381 JUMPI PUSH0 DUP1 REVERT JUMPDEST PUSH2 0x1333 DUP3 PUSH2 0x133A JUMP JUMPDEST PUSH0 DUP1 PUSH1 0x40 DUP4 DUP6 SUB SLT ISZERO PUSH2 0x139B JUMPI PUSH0 DUP1 REVERT JUMPDEST PUSH2 0x13A4 DUP4 PUSH2 0x1273 JUMP JUMPDEST SWAP2 POP PUSH2 0x1311 PUSH1 0x20 DUP5 ADD PUSH2 0x1273 JUMP JUMPDEST PUSH1 0x1 DUP2 DUP2 SHR SWAP1 DUP3 AND DUP1 PUSH2 0x13C6 JUMPI PUSH1 0x7F DUP3 AND SWAP2 POP JUMPDEST PUSH1 0x20 DUP3 LT DUP2 SUB PUSH2 0x13E4 JUMPI PUSH4 0x4E487B71 PUSH1 0xE0 SHL PUSH0 MSTORE PUSH1 0x22 PUSH1 0x4 MSTORE PUSH1 0x24 PUSH0 REVERT JUMPDEST POP SWAP2 SWAP1 POP JUMP JUMPDEST PUSH1 0x20 DUP1 DUP3 MSTORE PUSH1 0xC SWAP1 DUP3 ADD MSTORE PUSH12 0x4E6F7420616C6C6F77656421 PUSH1 0xA0 SHL PUSH1 0x40 DUP3 ADD MSTORE PUSH1 0x60 ADD SWAP1 JUMP JUMPDEST PUSH4 0x4E487B71 PUSH1 0xE0 SHL PUSH0 MSTORE PUSH1 0x11 PUSH1 0x4 MSTORE PUSH1 0x24 PUSH0 REVERT JUMPDEST DUP1 DUP3 ADD DUP1 DUP3 GT ISZERO PUSH2 0x562 JUMPI PUSH2 0x562 PUSH2 0x1410 JUMP JUMPDEST DUP2 DUP2 SUB DUP2 DUP2 GT ISZERO PUSH2 0x562 JUMPI PUSH2 0x562 PUSH2 0x1410 JUMP JUMPDEST DUP1 DUP3 MUL DUP2 ISZERO DUP3 DUP3 DIV DUP5 EQ OR PUSH2 0x562 JUMPI PUSH2 0x562 PUSH2 0x1410 JUMP JUMPDEST PUSH0 DUP3 PUSH2 0x147B JUMPI PUSH4 0x4E487B71 PUSH1 0xE0 SHL PUSH0 MSTORE PUSH1 0x12 PUSH1 0x4 MSTORE PUSH1 0x24 PUSH0 REVERT JUMPDEST POP DIV SWAP1 JUMP JUMPDEST PUSH0 PUSH1 0x1 DUP3 ADD PUSH2 0x1491 JUMPI PUSH2 0x1491 PUSH2 0x1410 JUMP JUMPDEST POP PUSH1 0x1 ADD SWAP1 JUMP INVALID LOG2 PUSH5 0x6970667358 0x22 SLT KECCAK256 0xE4 DUP2 CODECOPY 0xF6 0xEC PUSH21 0xDD2F2CD832075023AA86DE42945A39E6A247F89762 0xF6 0xC0 LOG3 0xDA 0x2B PUSH5 0x736F6C6343 STOP ADDMOD BYTE STOP CALLER "
		},
		"gasEstimates": {
			"creation": {
				"codeDepositCost": "1065200",
				"executionCost": "infinite",
				"totalCost": "infinite"
			},
			"external": {
				"LOCKED_SUPPLY()": "328",
				"PUBLIC_SUPPLY()": "267",
				"TOTAL_SUPPLY()": "240",
				"allowance(address,address)": "infinite",
				"approve(address,uint256)": "24803",
				"awardBonus()": "2414",
				"balanceOf(address)": "2627",
				"buyingEnabled()": "2437",
				"decimals()": "288",
				"gameTreasury()": "2392",
				"getNextUnlockInfo()": "infinite",
				"isDex(address)": "2574",
				"lastUnlockMonth()": "2339",
				"liquidityListing()": "2393",
				"managers(address)": "2638",
				"marketing()": "2415",
				"name()": "infinite",
				"referralBonus()": "2370",
				"sellingEnabled()": "2392",
				"setBuyingEnabled(bool)": "26782",
				"setDexAddress(address,bool)": "infinite",
				"setManager(address,bool)": "infinite",
				"setSellingEnabled(bool)": "26760",
				"stakingReward()": "2372",
				"startTimestamp()": "infinite",
				"symbol()": "infinite",
				"totalSupply()": "2393",
				"totalUnlocked()": "2406",
				"transfer(address,uint256)": "68768",
				"transferFrom(address,address,uint256)": "infinite",
				"unlockTokens()": "infinite",
				"updateDistributionAddress(uint256,address)": "26990"
			},
			"internal": {
				"_beforeTokenTransfer(address,address,uint256)": "infinite"
			}
		},
		"methodIdentifiers": {
			"LOCKED_SUPPLY()": "e8be9a44",
			"PUBLIC_SUPPLY()": "8342083a",
			"TOTAL_SUPPLY()": "902d55a5",
			"allowance(address,address)": "dd62ed3e",
			"approve(address,uint256)": "095ea7b3",
			"awardBonus()": "b361412a",
			"balanceOf(address)": "70a08231",
			"buyingEnabled()": "8ed2fe91",
			"decimals()": "313ce567",
			"gameTreasury()": "d2f9efab",
			"getNextUnlockInfo()": "be381b85",
			"isDex(address)": "3c11e12a",
			"lastUnlockMonth()": "8310a74d",
			"liquidityListing()": "67859b6e",
			"managers(address)": "fdff9b4d",
			"marketing()": "2d3e474a",
			"name()": "06fdde03",
			"referralBonus()": "ce7842f5",
			"sellingEnabled()": "f771cb65",
			"setBuyingEnabled(bool)": "8ddedb33",
			"setDexAddress(address,bool)": "7cdf6fb1",
			"setManager(address,bool)": "a5e90eee",
			"setSellingEnabled(bool)": "b16d78cf",
			"stakingReward()": "042249bb",
			"startTimestamp()": "e6fd48bc",
			"symbol()": "95d89b41",
			"totalSupply()": "18160ddd",
			"totalUnlocked()": "a779d080",
			"transfer(address,uint256)": "a9059cbb",
			"transferFrom(address,address,uint256)": "23b872dd",
			"unlockTokens()": "f968f493",
			"updateDistributionAddress(uint256,address)": "2be8781f"
		}
	},
	"abi": [
		{
			"inputs": [],
			"stateMutability": "nonpayable",
			"type": "constructor"
		},
		{
			"inputs": [
				{
					"internalType": "address",
					"name": "spender",
					"type": "address"
				},
				{
					"internalType": "uint256",
					"name": "allowance",
					"type": "uint256"
				},
				{
					"internalType": "uint256",
					"name": "needed",
					"type": "uint256"
				}
			],
			"name": "ERC20InsufficientAllowance",
			"type": "error"
		},
		{
			"inputs": [
				{
					"internalType": "address",
					"name": "sender",
					"type": "address"
				},
				{
					"internalType": "uint256",
					"name": "balance",
					"type": "uint256"
				},
				{
					"internalType": "uint256",
					"name": "needed",
					"type": "uint256"
				}
			],
			"name": "ERC20InsufficientBalance",
			"type": "error"
		},
		{
			"inputs": [
				{
					"internalType": "address",
					"name": "approver",
					"type": "address"
				}
			],
			"name": "ERC20InvalidApprover",
			"type": "error"
		},
		{
			"inputs": [
				{
					"internalType": "address",
					"name": "receiver",
					"type": "address"
				}
			],
			"name": "ERC20InvalidReceiver",
			"type": "error"
		},
		{
			"inputs": [
				{
					"internalType": "address",
					"name": "sender",
					"type": "address"
				}
			],
			"name": "ERC20InvalidSender",
			"type": "error"
		},
		{
			"inputs": [
				{
					"internalType": "address",
					"name": "spender",
					"type": "address"
				}
			],
			"name": "ERC20InvalidSpender",
			"type": "error"
		},
		{
			"anonymous": false,
			"inputs": [
				{
					"indexed": true,
					"internalType": "address",
					"name": "owner",
					"type": "address"
				},
				{
					"indexed": true,
					"internalType": "address",
					"name": "spender",
					"type": "address"
				},
				{
					"indexed": false,
					"internalType": "uint256",
					"name": "value",
					"type": "uint256"
				}
			],
			"name": "Approval",
			"type": "event"
		},
		{
			"anonymous": false,
			"inputs": [
				{
					"indexed": false,
					"internalType": "uint256",
					"name": "month",
					"type": "uint256"
				},
				{
					"indexed": false,
					"internalType": "uint256",
					"name": "amountPerWallet",
					"type": "uint256"
				},
				{
					"indexed": false,
					"internalType": "uint256",
					"name": "totalUnlocked",
					"type": "uint256"
				}
			],
			"name": "TokensUnlocked",
			"type": "event"
		},
		{
			"anonymous": false,
			"inputs": [
				{
					"indexed": true,
					"internalType": "address",
					"name": "from",
					"type": "address"
				},
				{
					"indexed": true,
					"internalType": "address",
					"name": "to",
					"type": "address"
				},
				{
					"indexed": false,
					"internalType": "uint256",
					"name": "value",
					"type": "uint256"
				}
			],
			"name": "Transfer",
			"type": "event"
		},
		{
			"inputs": [],
			"name": "LOCKED_SUPPLY",
			"outputs": [
				{
					"internalType": "uint256",
					"name": "",
					"type": "uint256"
				}
			],
			"stateMutability": "view",
			"type": "function"
		},
		{
			"inputs": [],
			"name": "PUBLIC_SUPPLY",
			"outputs": [
				{
					"internalType": "uint256",
					"name": "",
					"type": "uint256"
				}
			],
			"stateMutability": "view",
			"type": "function"
		},
		{
			"inputs": [],
			"name": "TOTAL_SUPPLY",
			"outputs": [
				{
					"internalType": "uint256",
					"name": "",
					"type": "uint256"
				}
			],
			"stateMutability": "view",
			"type": "function"
		},
		{
			"inputs": [
				{
					"internalType": "address",
					"name": "owner",
					"type": "address"
				},
				{
					"internalType": "address",
					"name": "spender",
					"type": "address"
				}
			],
			"name": "allowance",
			"outputs": [
				{
					"internalType": "uint256",
					"name": "",
					"type": "uint256"
				}
			],
			"stateMutability": "view",
			"type": "function"
		},
		{
			"inputs": [
				{
					"internalType": "address",
					"name": "spender",
					"type": "address"
				},
				{
					"internalType": "uint256",
					"name": "value",
					"type": "uint256"
				}
			],
			"name": "approve",
			"outputs": [
				{
					"internalType": "bool",
					"name": "",
					"type": "bool"
				}
			],
			"stateMutability": "nonpayable",
			"type": "function"
		},
		{
			"inputs": [],
			"name": "awardBonus",
			"outputs": [
				{
					"internalType": "address",
					"name": "",
					"type": "address"
				}
			],
			"stateMutability": "view",
			"type": "function"
		},
		{
			"inputs": [
				{
					"internalType": "address",
					"name": "account",
					"type": "address"
				}
			],
			"name": "balanceOf",
			"outputs": [
				{
					"internalType": "uint256",
					"name": "",
					"type": "uint256"
				}
			],
			"stateMutability": "view",
			"type": "function"
		},
		{
			"inputs": [],
			"name": "buyingEnabled",
			"outputs": [
				{
					"internalType": "bool",
					"name": "",
					"type": "bool"
				}
			],
			"stateMutability": "view",
			"type": "function"
		},
		{
			"inputs": [],
			"name": "decimals",
			"outputs": [
				{
					"internalType": "uint8",
					"name": "",
					"type": "uint8"
				}
			],
			"stateMutability": "view",
			"type": "function"
		},
		{
			"inputs": [],
			"name": "gameTreasury",
			"outputs": [
				{
					"internalType": "address",
					"name": "",
					"type": "address"
				}
			],
			"stateMutability": "view",
			"type": "function"
		},
		{
			"inputs": [],
			"name": "getNextUnlockInfo",
			"outputs": [
				{
					"internalType": "uint256",
					"name": "month",
					"type": "uint256"
				},
				{
					"internalType": "uint256",
					"name": "amountTotal",
					"type": "uint256"
				},
				{
					"internalType": "uint256",
					"name": "perWallet",
					"type": "uint256"
				}
			],
			"stateMutability": "view",
			"type": "function"
		},
		{
			"inputs": [
				{
					"internalType": "address",
					"name": "",
					"type": "address"
				}
			],
			"name": "isDex",
			"outputs": [
				{
					"internalType": "bool",
					"name": "",
					"type": "bool"
				}
			],
			"stateMutability": "view",
			"type": "function"
		},
		{
			"inputs": [],
			"name": "lastUnlockMonth",
			"outputs": [
				{
					"internalType": "uint256",
					"name": "",
					"type": "uint256"
				}
			],
			"stateMutability": "view",
			"type": "function"
		},
		{
			"inputs": [],
			"name": "liquidityListing",
			"outputs": [
				{
					"internalType": "address",
					"name": "",
					"type": "address"
				}
			],
			"stateMutability": "view",
			"type": "function"
		},
		{
			"inputs": [
				{
					"internalType": "address",
					"name": "",
					"type": "address"
				}
			],
			"name": "managers",
			"outputs": [
				{
					"internalType": "bool",
					"name": "",
					"type": "bool"
				}
			],
			"stateMutability": "view",
			"type": "function"
		},
		{
			"inputs": [],
			"name": "marketing",
			"outputs": [
				{
					"internalType": "address",
					"name": "",
					"type": "address"
				}
			],
			"stateMutability": "view",
			"type": "function"
		},
		{
			"inputs": [],
			"name": "name",
			"outputs": [
				{
					"internalType": "string",
					"name": "",
					"type": "string"
				}
			],
			"stateMutability": "view",
			"type": "function"
		},
		{
			"inputs": [],
			"name": "referralBonus",
			"outputs": [
				{
					"internalType": "address",
					"name": "",
					"type": "address"
				}
			],
			"stateMutability": "view",
			"type": "function"
		},
		{
			"inputs": [],
			"name": "sellingEnabled",
			"outputs": [
				{
					"internalType": "bool",
					"name": "",
					"type": "bool"
				}
			],
			"stateMutability": "view",
			"type": "function"
		},
		{
			"inputs": [
				{
					"internalType": "bool",
					"name": "_enabled",
					"type": "bool"
				}
			],
			"name": "setBuyingEnabled",
			"outputs": [],
			"stateMutability": "nonpayable",
			"type": "function"
		},
		{
			"inputs": [
				{
					"internalType": "address",
					"name": "dexAddress",
					"type": "address"
				},
				{
					"internalType": "bool",
					"name": "status",
					"type": "bool"
				}
			],
			"name": "setDexAddress",
			"outputs": [],
			"stateMutability": "nonpayable",
			"type": "function"
		},
		{
			"inputs": [
				{
					"internalType": "address",
					"name": "manager",
					"type": "address"
				},
				{
					"internalType": "bool",
					"name": "status",
					"type": "bool"
				}
			],
			"name": "setManager",
			"outputs": [],
			"stateMutability": "nonpayable",
			"type": "function"
		},
		{
			"inputs": [
				{
					"internalType": "bool",
					"name": "_enabled",
					"type": "bool"
				}
			],
			"name": "setSellingEnabled",
			"outputs": [],
			"stateMutability": "nonpayable",
			"type": "function"
		},
		{
			"inputs": [],
			"name": "stakingReward",
			"outputs": [
				{
					"internalType": "address",
					"name": "",
					"type": "address"
				}
			],
			"stateMutability": "view",
			"type": "function"
		},
		{
			"inputs": [],
			"name": "startTimestamp",
			"outputs": [
				{
					"internalType": "uint256",
					"name": "",
					"type": "uint256"
				}
			],
			"stateMutability": "view",
			"type": "function"
		},
		{
			"inputs": [],
			"name": "symbol",
			"outputs": [
				{
					"internalType": "string",
					"name": "",
					"type": "string"
				}
			],
			"stateMutability": "view",
			"type": "function"
		},
		{
			"inputs": [],
			"name": "totalSupply",
			"outputs": [
				{
					"internalType": "uint256",
					"name": "",
					"type": "uint256"
				}
			],
			"stateMutability": "view",
			"type": "function"
		},
		{
			"inputs": [],
			"name": "totalUnlocked",
			"outputs": [
				{
					"internalType": "uint256",
					"name": "",
					"type": "uint256"
				}
			],
			"stateMutability": "view",
			"type": "function"
		},
		{
			"inputs": [
				{
					"internalType": "address",
					"name": "to",
					"type": "address"
				},
				{
					"internalType": "uint256",
					"name": "value",
					"type": "uint256"
				}
			],
			"name": "transfer",
			"outputs": [
				{
					"internalType": "bool",
					"name": "",
					"type": "bool"
				}
			],
			"stateMutability": "nonpayable",
			"type": "function"
		},
		{
			"inputs": [
				{
					"internalType": "address",
					"name": "from",
					"type": "address"
				},
				{
					"internalType": "address",
					"name": "to",
					"type": "address"
				},
				{
					"internalType": "uint256",
					"name": "value",
					"type": "uint256"
				}
			],
			"name": "transferFrom",
			"outputs": [
				{
					"internalType": "bool",
					"name": "",
					"type": "bool"
				}
			],
			"stateMutability": "nonpayable",
			"type": "function"
		},
		{
			"inputs": [],
			"name": "unlockTokens",
			"outputs": [],
			"stateMutability": "nonpayable",
			"type": "function"
		},
		{
			"inputs": [
				{
					"internalType": "uint256",
					"name": "index",
					"type": "uint256"
				},
				{
					"internalType": "address",
					"name": "newAddress",
					"type": "address"
				}
			],
			"name": "updateDistributionAddress",
			"outputs": [],
			"stateMutability": "nonpayable",
			"type": "function"
		}
	]
}