{
	"data": {
		"bytecode": {
			"linkReferences": {},
			"object": "60a0604052600880546001600160a01b0319908116737ec13697d98925ba1dc2bcc705c071bd168b10c217909155600980548216738de119e98707ac240aba2cb77e83b29882a34357179055600a805482167303499c18f7265be9afda16504a34cd1892f278ae179055600b8054821673cc234a1d3e32148461b7eacb5a8bf4d0c4b6be74179055600c8054821673ceea0e87b553bc445c5eb2242b5f28cd81b4acaa179055600d8054909116737e23e2781a1da5dace87b4f0e7bf68191263fc321790553480156100cf575f80fd5b506040516116c93803806116c98339810160408190526100ee91610382565b8060405180604001604052806009815260200168212122102a37b5b2b760b91b8152506040518060400160405280600381526020016210909160ea1b815250816003908161013c9190610447565b5060046101498282610447565b5050506001600160a01b03811661017a57604051631e4fbdf760e01b81525f60048201526024015b60405180910390fd5b610183816101d3565b5061019a816b033b2e3c9fd0803ce8000000610224565b6101c5306101c06b033b2e3c9fd0803ce80000006b204fce5e3e25026110000000610515565b610224565b50426080525f600655610541565b600580546001600160a01b038381166001600160a01b0319831681179093556040519116919082907f8be0079c531659141344cd1fd0a4f28419497f9722a3daafe3b4186f6b6457e0905f90a35050565b6001600160a01b03821661024d5760405163ec442f0560e01b81525f6004820152602401610171565b6102585f838361025c565b5050565b6001600160a01b038316610286578060025f82825461027b919061052e565b909155506102f69050565b6001600160a01b0383165f90815260208190526040902054818110156102d85760405163391434e360e21b81526001600160a01b03851660048201526024810182905260448101839052606401610171565b6001600160a01b0384165f9081526020819052604090209082900390555b6001600160a01b03821661031257600280548290039055610330565b6001600160a01b0382165f9081526020819052604090208054820190555b816001600160a01b0316836001600160a01b03167fddf252ad1be2c89b69c2b068fc378daa952ba7f163c4a11628f55a4df523b3ef8360405161037591815260200190565b60405180910390a3505050565b5f60208284031215610392575f80fd5b81516001600160a01b03811681146103a8575f80fd5b9392505050565b634e487b7160e01b5f52604160045260245ffd5b600181811c908216806103d757607f821691505b6020821081036103f557634e487b7160e01b5f52602260045260245ffd5b50919050565b601f82111561044257805f5260205f20601f840160051c810160208510156104205750805b601f840160051c820191505b8181101561043f575f815560010161042c565b50505b505050565b81516001600160401b03811115610460576104606103af565b6104748161046e84546103c3565b846103fb565b6020601f8211600181146104a6575f831561048f5750848201515b5f19600385901b1c1916600184901b17845561043f565b5f84815260208120601f198516915b828110156104d557878501518255602094850194600190920191016104b5565b50848210156104f257868401515f19600387901b60f8161c191681555b50505050600190811b01905550565b634e487b7160e01b5f52601160045260245ffd5b8181038181111561052857610528610501565b92915050565b8082018082111561052857610528610501565b6080516111696105605f395f81816103a8015261089401526111695ff3fe608060405234801561000f575f80fd5b50600436106101a1575f3560e01c80638da5cb5b116100f3578063ce7842f511610093578063e6fd48bc1161006e578063e6fd48bc146103a3578063e8be9a44146103ca578063f2fde38b146103d2578063f968f493146103e5575f80fd5b8063ce7842f514610345578063d2f9efab14610358578063dd62ed3e1461036b575f80fd5b8063a779d080116100ce578063a779d080146102f3578063a9059cbb146102fc578063b361412a1461030f578063be381b8514610322575f80fd5b80638da5cb5b146102c7578063902d55a5146102d857806395d89b41146102eb575f80fd5b80632d3e474a1161015e57806370a082311161013957806370a082311461027c578063715018a6146102a45780638310a74d146102ac5780638342083a146102b5575f80fd5b80632d3e474a14610247578063313ce5671461025a57806367859b6e14610269575f80fd5b8063042249bb146101a557806306fdde03146101d5578063095ea7b3146101ea57806318160ddd1461020d57806323b872dd1461021f5780632be8781f14610232575b5f80fd5b600b546101b8906001600160a01b031681565b6040516001600160a01b0390911681526020015b60405180910390f35b6101dd6103ed565b6040516101cc9190610f4f565b6101fd6101f8366004610f9f565b61047d565b60405190151581526020016101cc565b6002545b6040519081526020016101cc565b6101fd61022d366004610fc7565b610496565b610245610240366004611001565b6104b9565b005b600a546101b8906001600160a01b031681565b604051601281526020016101cc565b6008546101b8906001600160a01b031681565b61021161028a36600461102b565b6001600160a01b03165f9081526020819052604090205490565b6102456105ff565b61021160065481565b610211676765c793fa10079d601b1b81565b6005546001600160a01b03166101b8565b6102116b204fce5e3e2502611000000081565b6101dd610612565b61021160075481565b6101fd61030a366004610f9f565b610621565b600d546101b8906001600160a01b031681565b61032a61062e565b604080519384526020840192909252908201526060016101cc565b600c546101b8906001600160a01b031681565b6009546101b8906001600160a01b031681565b61021161037936600461104b565b6001600160a01b039182165f90815260016020908152604080832093909416825291909152205490565b6102117f000000000000000000000000000000000000000000000000000000000000000081565b6102116107b0565b6102456103e036600461102b565b6107d4565b610245610811565b6060600380546103fc90611073565b80601f016020809104026020016040519081016040528092919081815260200182805461042890611073565b80156104735780601f1061044a57610100808354040283529160200191610473565b820191905f5260205f20905b81548152906001019060200180831161045657829003601f168201915b5050505050905090565b5f3361048a818585610bee565b60019150505b92915050565b5f336104a3858285610c00565b6104ae858585610c7c565b506001949350505050565b6104c1610cd9565b600182101580156104d3575060068211155b6105145760405162461bcd60e51b815260206004820152600d60248201526c092dcecc2d8d2c840d2dcc8caf609b1b60448201526064015b60405180910390fd5b8160010361053b57600880546001600160a01b0319166001600160a01b0383161790555050565b8160020361056257600980546001600160a01b0319166001600160a01b0383161790555050565b8160030361058957600a80546001600160a01b0319166001600160a01b0383161790555050565b816004036105b057600b80546001600160a01b0319166001600160a01b0383161790555050565b816005036105d757600c80546001600160a01b0319166001600160a01b0383161790555050565b816006036105fb57600d80546001600160a01b0319166001600160a01b0383161790555b5050565b610607610cd9565b6106105f610d06565b565b6060600480546103fc90611073565b5f3361048a818585610c7c565b5f805f80600654600161064191906110bf565b90506003811161068b576103e861066f676765c793fa10079d601b1b6b204fce5e3e250261100000006110d2565b61067a9060056110e5565b61068491906110fc565b9250610732565b600681116106c15760646106b6676765c793fa10079d601b1b6b204fce5e3e250261100000006110d2565b61067a9060016110e5565b600981116106f75760646106ec676765c793fa10079d601b1b6b204fce5e3e250261100000006110d2565b61067a9060026110e5565b606461071a676765c793fa10079d601b1b6b204fce5e3e250261100000006110d2565b6107259060036110e5565b61072f91906110fc565b92505b610753676765c793fa10079d601b1b6b204fce5e3e250261100000006110d2565b60075461076090856110bf565b11156107975760075461078a676765c793fa10079d601b1b6b204fce5e3e250261100000006110d2565b61079491906110d2565b92505b80836107a46006826110fc565b93509350935050909192565b6107d1676765c793fa10079d601b1b6b204fce5e3e250261100000006110d2565b81565b6107dc610cd9565b6001600160a01b03811661080557604051631e4fbdf760e01b81525f600482015260240161050b565b61080e81610d06565b50565b610819610cd9565b61083a676765c793fa10079d601b1b6b204fce5e3e250261100000006110d2565b6007541061088a5760405162461bcd60e51b815260206004820152601b60248201527f416c6c20746f6b656e7320616c726561647920756e6c6f636b65640000000000604482015260640161050b565b5f62278d006108b97f0000000000000000000000000000000000000000000000000000000000000000426110d2565b6108c391906110fc565b9050600654811161090f5760405162461bcd60e51b81526020600482015260166024820152754e6f206e6577206d6f6e746820746f20756e6c6f636b60501b604482015260640161050b565b5f80600654600161092091906110bf565b90505b828111610a3f576003811161097c576103e8610956676765c793fa10079d601b1b6b204fce5e3e250261100000006110d2565b6109619060056110e5565b61096b91906110fc565b61097590836110bf565b9150610a2d565b600681116109b25760646109a7676765c793fa10079d601b1b6b204fce5e3e250261100000006110d2565b6109619060016110e5565b600981116109e85760646109dd676765c793fa10079d601b1b6b204fce5e3e250261100000006110d2565b6109619060026110e5565b6064610a0b676765c793fa10079d601b1b6b204fce5e3e250261100000006110d2565b610a169060036110e5565b610a2091906110fc565b610a2a90836110bf565b91505b80610a378161111b565b915050610923565b50610a61676765c793fa10079d601b1b6b204fce5e3e250261100000006110d2565b600754610a6e90836110bf565b1115610aa557600754610a98676765c793fa10079d601b1b6b204fce5e3e250261100000006110d2565b610aa291906110d2565b90505b5f8111610ae85760405162461bcd60e51b81526020600482015260116024820152704e6f7468696e6720746f20756e6c6f636b60781b604482015260640161050b565b816006819055508060075f828254610b0091906110bf565b909155505f9050610b126006836110fc565b600854909150610b2d9030906001600160a01b031683610c7c565b600954610b459030906001600160a01b031683610c7c565b600a54610b5d9030906001600160a01b031683610c7c565b600b54610b759030906001600160a01b031683610c7c565b600c54610b8d9030906001600160a01b031683610c7c565b600d54610ba59030906001600160a01b031683610c7c565b60065460075460408051928352602083018490528201527fd5c1e53febf89038959691e212f7a18f34f9ac92dd9965a138ccfc695e9774ac9060600160405180910390a1505050565b610bfb8383836001610d57565b505050565b6001600160a01b038381165f908152600160209081526040808320938616835292905220545f19811015610c765781811015610c6857604051637dc7a0d960e11b81526001600160a01b0384166004820152602481018290526044810183905260640161050b565b610c7684848484035f610d57565b50505050565b6001600160a01b038316610ca557604051634b637e8f60e11b81525f600482015260240161050b565b6001600160a01b038216610cce5760405163ec442f0560e01b81525f600482015260240161050b565b610bfb838383610e29565b6005546001600160a01b031633146106105760405163118cdaa760e01b815233600482015260240161050b565b600580546001600160a01b038381166001600160a01b0319831681179093556040519116919082907f8be0079c531659141344cd1fd0a4f28419497f9722a3daafe3b4186f6b6457e0905f90a35050565b6001600160a01b038416610d805760405163e602df0560e01b81525f600482015260240161050b565b6001600160a01b038316610da957604051634a1406b160e11b81525f600482015260240161050b565b6001600160a01b038085165f9081526001602090815260408083209387168352929052208290558015610c7657826001600160a01b0316846001600160a01b03167f8c5be1e5ebec7d5bd14f71427d1e84f3dd0314c0f7b2291e5b200ac8c7c3b92584604051610e1b91815260200190565b60405180910390a350505050565b6001600160a01b038316610e53578060025f828254610e4891906110bf565b90915550610ec39050565b6001600160a01b0383165f9081526020819052604090205481811015610ea55760405163391434e360e21b81526001600160a01b0385166004820152602481018290526044810183905260640161050b565b6001600160a01b0384165f9081526020819052604090209082900390555b6001600160a01b038216610edf57600280548290039055610efd565b6001600160a01b0382165f9081526020819052604090208054820190555b816001600160a01b0316836001600160a01b03167fddf252ad1be2c89b69c2b068fc378daa952ba7f163c4a11628f55a4df523b3ef83604051610f4291815260200190565b60405180910390a3505050565b602081525f82518060208401528060208501604085015e5f604082850101526040601f19601f83011684010191505092915050565b80356001600160a01b0381168114610f9a575f80fd5b919050565b5f8060408385031215610fb0575f80fd5b610fb983610f84565b946020939093013593505050565b5f805f60608486031215610fd9575f80fd5b610fe284610f84565b9250610ff060208501610f84565b929592945050506040919091013590565b5f8060408385031215611012575f80fd5b8235915061102260208401610f84565b90509250929050565b5f6020828403121561103b575f80fd5b61104482610f84565b9392505050565b5f806040838503121561105c575f80fd5b61106583610f84565b915061102260208401610f84565b600181811c9082168061108757607f821691505b6020821081036110a557634e487b7160e01b5f52602260045260245ffd5b50919050565b634e487b7160e01b5f52601160045260245ffd5b80820180821115610490576104906110ab565b81810381811115610490576104906110ab565b8082028115828204841417610490576104906110ab565b5f8261111657634e487b7160e01b5f52601260045260245ffd5b500490565b5f6001820161112c5761112c6110ab565b506001019056fea26469706673582212204f50d3555b15df4cd371fd98e7f80921811010daed5a59b573c3b0864e9abca364736f6c634300081a0033",
			"opcodes": "PUSH1 0xA0 PUSH1 0x40 MSTORE PUSH1 0x8 DUP1 SLOAD PUSH1 0x1 PUSH1 0x1 PUSH1 0xA0 SHL SUB NOT SWAP1 DUP2 AND PUSH20 0x7EC13697D98925BA1DC2BCC705C071BD168B10C2 OR SWAP1 SWAP2 SSTORE PUSH1 0x9 DUP1 SLOAD DUP3 AND PUSH20 0x8DE119E98707AC240ABA2CB77E83B29882A34357 OR SWAP1 SSTORE PUSH1 0xA DUP1 SLOAD DUP3 AND PUSH20 0x3499C18F7265BE9AFDA16504A34CD1892F278AE OR SWAP1 SSTORE PUSH1 0xB DUP1 SLOAD DUP3 AND PUSH20 0xCC234A1D3E32148461B7EACB5A8BF4D0C4B6BE74 OR SWAP1 SSTORE PUSH1 0xC DUP1 SLOAD DUP3 AND PUSH20 0xCEEA0E87B553BC445C5EB2242B5F28CD81B4ACAA OR SWAP1 SSTORE PUSH1 0xD DUP1 SLOAD SWAP1 SWAP2 AND PUSH20 0x7E23E2781A1DA5DACE87B4F0E7BF68191263FC32 OR SWAP1 SSTORE CALLVALUE DUP1 ISZERO PUSH2 0xCF JUMPI PUSH0 DUP1 REVERT JUMPDEST POP PUSH1 0x40 MLOAD PUSH2 0x16C9 CODESIZE SUB DUP1 PUSH2 0x16C9 DUP4 CODECOPY DUP2 ADD PUSH1 0x40 DUP2 SWAP1 MSTORE PUSH2 0xEE SWAP2 PUSH2 0x382 JUMP JUMPDEST DUP1 PUSH1 0x40 MLOAD DUP1 PUSH1 0x40 ADD PUSH1 0x40 MSTORE DUP1 PUSH1 0x9 DUP2 MSTORE PUSH1 0x20 ADD PUSH9 0x212122102A37B5B2B7 PUSH1 0xB9 SHL DUP2 MSTORE POP PUSH1 0x40 MLOAD DUP1 PUSH1 0x40 ADD PUSH1 0x40 MSTORE DUP1 PUSH1 0x3 DUP2 MSTORE PUSH1 0x20 ADD PUSH3 0x109091 PUSH1 0xEA SHL DUP2 MSTORE POP DUP2 PUSH1 0x3 SWAP1 DUP2 PUSH2 0x13C SWAP2 SWAP1 PUSH2 0x447 JUMP JUMPDEST POP PUSH1 0x4 PUSH2 0x149 DUP3 DUP3 PUSH2 0x447 JUMP JUMPDEST POP POP POP PUSH1 0x1 PUSH1 0x1 PUSH1 0xA0 SHL SUB DUP2 AND PUSH2 0x17A JUMPI PUSH1 0x40 MLOAD PUSH4 0x1E4FBDF7 PUSH1 0xE0 SHL DUP2 MSTORE PUSH0 PUSH1 0x4 DUP3 ADD MSTORE PUSH1 0x24 ADD JUMPDEST PUSH1 0x40 MLOAD DUP1 SWAP2 SUB SWAP1 REVERT JUMPDEST PUSH2 0x183 DUP2 PUSH2 0x1D3 JUMP JUMPDEST POP PUSH2 0x19A DUP2 PUSH12 0x33B2E3C9FD0803CE8000000 PUSH2 0x224 JUMP JUMPDEST PUSH2 0x1C5 ADDRESS PUSH2 0x1C0 PUSH12 0x33B2E3C9FD0803CE8000000 PUSH12 0x204FCE5E3E25026110000000 PUSH2 0x515 JUMP JUMPDEST PUSH2 0x224 JUMP JUMPDEST POP TIMESTAMP PUSH1 0x80 MSTORE PUSH0 PUSH1 0x6 SSTORE PUSH2 0x541 JUMP JUMPDEST PUSH1 0x5 DUP1 SLOAD PUSH1 0x1 PUSH1 0x1 PUSH1 0xA0 SHL SUB DUP4 DUP2 AND PUSH1 0x1 PUSH1 0x1 PUSH1 0xA0 SHL SUB NOT DUP4 AND DUP2 OR SWAP1 SWAP4 SSTORE PUSH1 0x40 MLOAD SWAP2 AND SWAP2 SWAP1 DUP3 SWAP1 PUSH32 0x8BE0079C531659141344CD1FD0A4F28419497F9722A3DAAFE3B4186F6B6457E0 SWAP1 PUSH0 SWAP1 LOG3 POP POP JUMP JUMPDEST PUSH1 0x1 PUSH1 0x1 PUSH1 0xA0 SHL SUB DUP3 AND PUSH2 0x24D JUMPI PUSH1 0x40 MLOAD PUSH4 0xEC442F05 PUSH1 0xE0 SHL DUP2 MSTORE PUSH0 PUSH1 0x4 DUP3 ADD MSTORE PUSH1 0x24 ADD PUSH2 0x171 JUMP JUMPDEST PUSH2 0x258 PUSH0 DUP4 DUP4 PUSH2 0x25C JUMP JUMPDEST POP POP JUMP JUMPDEST PUSH1 0x1 PUSH1 0x1 PUSH1 0xA0 SHL SUB DUP4 AND PUSH2 0x286 JUMPI DUP1 PUSH1 0x2 PUSH0 DUP3 DUP3 SLOAD PUSH2 0x27B SWAP2 SWAP1 PUSH2 0x52E JUMP JUMPDEST SWAP1 SWAP2 SSTORE POP PUSH2 0x2F6 SWAP1 POP JUMP JUMPDEST PUSH1 0x1 PUSH1 0x1 PUSH1 0xA0 SHL SUB DUP4 AND PUSH0 SWAP1 DUP2 MSTORE PUSH1 0x20 DUP2 SWAP1 MSTORE PUSH1 0x40 SWAP1 KECCAK256 SLOAD DUP2 DUP2 LT ISZERO PUSH2 0x2D8 JUMPI PUSH1 0x40 MLOAD PUSH4 0x391434E3 PUSH1 0xE2 SHL DUP2 MSTORE PUSH1 0x1 PUSH1 0x1 PUSH1 0xA0 SHL SUB DUP6 AND PUSH1 0x4 DUP3 ADD MSTORE PUSH1 0x24 DUP2 ADD DUP3 SWAP1 MSTORE PUSH1 0x44 DUP2 ADD DUP4 SWAP1 MSTORE PUSH1 0x64 ADD PUSH2 0x171 JUMP JUMPDEST PUSH1 0x1 PUSH1 0x1 PUSH1 0xA0 SHL SUB DUP5 AND PUSH0 SWAP1 DUP2 MSTORE PUSH1 0x20 DUP2 SWAP1 MSTORE PUSH1 0x40 SWAP1 KECCAK256 SWAP1 DUP3 SWAP1 SUB SWAP1 SSTORE JUMPDEST PUSH1 0x1 PUSH1 0x1 PUSH1 0xA0 SHL SUB DUP3 AND PUSH2 0x312 JUMPI PUSH1 0x2 DUP1 SLOAD DUP3 SWAP1 SUB SWAP1 SSTORE PUSH2 0x330 JUMP JUMPDEST PUSH1 0x1 PUSH1 0x1 PUSH1 0xA0 SHL SUB DUP3 AND PUSH0 SWAP1 DUP2 MSTORE PUSH1 0x20 DUP2 SWAP1 MSTORE PUSH1 0x40 SWAP1 KECCAK256 DUP1 SLOAD DUP3 ADD SWAP1 SSTORE JUMPDEST DUP2 PUSH1 0x1 PUSH1 0x1 PUSH1 0xA0 SHL SUB AND DUP4 PUSH1 0x1 PUSH1 0x1 PUSH1 0xA0 SHL SUB AND PUSH32 0xDDF252AD1BE2C89B69C2B068FC378DAA952BA7F163C4A11628F55A4DF523B3EF DUP4 PUSH1 0x40 MLOAD PUSH2 0x375 SWAP2 DUP2 MSTORE PUSH1 0x20 ADD SWAP1 JUMP JUMPDEST PUSH1 0x40 MLOAD DUP1 SWAP2 SUB SWAP1 LOG3 POP POP POP JUMP JUMPDEST PUSH0 PUSH1 0x20 DUP3 DUP5 SUB SLT ISZERO PUSH2 0x392 JUMPI PUSH0 DUP1 REVERT JUMPDEST DUP2 MLOAD PUSH1 0x1 PUSH1 0x1 PUSH1 0xA0 SHL SUB DUP2 AND DUP2 EQ PUSH2 0x3A8 JUMPI PUSH0 DUP1 REVERT JUMPDEST SWAP4 SWAP3 POP POP POP JUMP JUMPDEST PUSH4 0x4E487B71 PUSH1 0xE0 SHL PUSH0 MSTORE PUSH1 0x41 PUSH1 0x4 MSTORE PUSH1 0x24 PUSH0 REVERT JUMPDEST PUSH1 0x1 DUP2 DUP2 SHR SWAP1 DUP3 AND DUP1 PUSH2 0x3D7 JUMPI PUSH1 0x7F DUP3 AND SWAP2 POP JUMPDEST PUSH1 0x20 DUP3 LT DUP2 SUB PUSH2 0x3F5 JUMPI PUSH4 0x4E487B71 PUSH1 0xE0 SHL PUSH0 MSTORE PUSH1 0x22 PUSH1 0x4 MSTORE PUSH1 0x24 PUSH0 REVERT JUMPDEST POP SWAP2 SWAP1 POP JUMP JUMPDEST PUSH1 0x1F DUP3 GT ISZERO PUSH2 0x442 JUMPI DUP1 PUSH0 MSTORE PUSH1 0x20 PUSH0 KECCAK256 PUSH1 0x1F DUP5 ADD PUSH1 0x5 SHR DUP2 ADD PUSH1 0x20 DUP6 LT ISZERO PUSH2 0x420 JUMPI POP DUP1 JUMPDEST PUSH1 0x1F DUP5 ADD PUSH1 0x5 SHR DUP3 ADD SWAP2 POP JUMPDEST DUP2 DUP2 LT ISZERO PUSH2 0x43F JUMPI PUSH0 DUP2 SSTORE PUSH1 0x1 ADD PUSH2 0x42C JUMP JUMPDEST POP POP JUMPDEST POP POP POP JUMP JUMPDEST DUP2 MLOAD PUSH1 0x1 PUSH1 0x1 PUSH1 0x40 SHL SUB DUP2 GT ISZERO PUSH2 0x460 JUMPI PUSH2 0x460 PUSH2 0x3AF JUMP JUMPDEST PUSH2 0x474 DUP2 PUSH2 0x46E DUP5 SLOAD PUSH2 0x3C3 JUMP JUMPDEST DUP5 PUSH2 0x3FB JUMP JUMPDEST PUSH1 0x20 PUSH1 0x1F DUP3 GT PUSH1 0x1 DUP2 EQ PUSH2 0x4A6 JUMPI PUSH0 DUP4 ISZERO PUSH2 0x48F JUMPI POP DUP5 DUP3 ADD MLOAD JUMPDEST PUSH0 NOT PUSH1 0x3 DUP6 SWAP1 SHL SHR NOT AND PUSH1 0x1 DUP5 SWAP1 SHL OR DUP5 SSTORE PUSH2 0x43F JUMP JUMPDEST PUSH0 DUP5 DUP2 MSTORE PUSH1 0x20 DUP2 KECCAK256 PUSH1 0x1F NOT DUP6 AND SWAP2 JUMPDEST DUP3 DUP2 LT ISZERO PUSH2 0x4D5 JUMPI DUP8 DUP6 ADD MLOAD DUP3 SSTORE PUSH1 0x20 SWAP5 DUP6 ADD SWAP5 PUSH1 0x1 SWAP1 SWAP3 ADD SWAP2 ADD PUSH2 0x4B5 JUMP JUMPDEST POP DUP5 DUP3 LT ISZERO PUSH2 0x4F2 JUMPI DUP7 DUP5 ADD MLOAD PUSH0 NOT PUSH1 0x3 DUP8 SWAP1 SHL PUSH1 0xF8 AND SHR NOT AND DUP2 SSTORE JUMPDEST POP POP POP POP PUSH1 0x1 SWAP1 DUP2 SHL ADD SWAP1 SSTORE POP JUMP JUMPDEST PUSH4 0x4E487B71 PUSH1 0xE0 SHL PUSH0 MSTORE PUSH1 0x11 PUSH1 0x4 MSTORE PUSH1 0x24 PUSH0 REVERT JUMPDEST DUP2 DUP2 SUB DUP2 DUP2 GT ISZERO PUSH2 0x528 JUMPI PUSH2 0x528 PUSH2 0x501 JUMP JUMPDEST SWAP3 SWAP2 POP POP JUMP JUMPDEST DUP1 DUP3 ADD DUP1 DUP3 GT ISZERO PUSH2 0x528 JUMPI PUSH2 0x528 PUSH2 0x501 JUMP JUMPDEST PUSH1 0x80 MLOAD PUSH2 0x1169 PUSH2 0x560 PUSH0 CODECOPY PUSH0 DUP2 DUP2 PUSH2 0x3A8 ADD MSTORE PUSH2 0x894 ADD MSTORE PUSH2 0x1169 PUSH0 RETURN INVALID PUSH1 0x80 PUSH1 0x40 MSTORE CALLVALUE DUP1 ISZERO PUSH2 0xF JUMPI PUSH0 DUP1 REVERT JUMPDEST POP PUSH1 0x4 CALLDATASIZE LT PUSH2 0x1A1 JUMPI PUSH0 CALLDATALOAD PUSH1 0xE0 SHR DUP1 PUSH4 0x8DA5CB5B GT PUSH2 0xF3 JUMPI DUP1 PUSH4 0xCE7842F5 GT PUSH2 0x93 JUMPI DUP1 PUSH4 0xE6FD48BC GT PUSH2 0x6E JUMPI DUP1 PUSH4 0xE6FD48BC EQ PUSH2 0x3A3 JUMPI DUP1 PUSH4 0xE8BE9A44 EQ PUSH2 0x3CA JUMPI DUP1 PUSH4 0xF2FDE38B EQ PUSH2 0x3D2 JUMPI DUP1 PUSH4 0xF968F493 EQ PUSH2 0x3E5 JUMPI PUSH0 DUP1 REVERT JUMPDEST DUP1 PUSH4 0xCE7842F5 EQ PUSH2 0x345 JUMPI DUP1 PUSH4 0xD2F9EFAB EQ PUSH2 0x358 JUMPI DUP1 PUSH4 0xDD62ED3E EQ PUSH2 0x36B JUMPI PUSH0 DUP1 REVERT JUMPDEST DUP1 PUSH4 0xA779D080 GT PUSH2 0xCE JUMPI DUP1 PUSH4 0xA779D080 EQ PUSH2 0x2F3 JUMPI DUP1 PUSH4 0xA9059CBB EQ PUSH2 0x2FC JUMPI DUP1 PUSH4 0xB361412A EQ PUSH2 0x30F JUMPI DUP1 PUSH4 0xBE381B85 EQ PUSH2 0x322 JUMPI PUSH0 DUP1 REVERT JUMPDEST DUP1 PUSH4 0x8DA5CB5B EQ PUSH2 0x2C7 JUMPI DUP1 PUSH4 0x902D55A5 EQ PUSH2 0x2D8 JUMPI DUP1 PUSH4 0x95D89B41 EQ PUSH2 0x2EB JUMPI PUSH0 DUP1 REVERT JUMPDEST DUP1 PUSH4 0x2D3E474A GT PUSH2 0x15E JUMPI DUP1 PUSH4 0x70A08231 GT PUSH2 0x139 JUMPI DUP1 PUSH4 0x70A08231 EQ PUSH2 0x27C JUMPI DUP1 PUSH4 0x715018A6 EQ PUSH2 0x2A4 JUMPI DUP1 PUSH4 0x8310A74D EQ PUSH2 0x2AC JUMPI DUP1 PUSH4 0x8342083A EQ PUSH2 0x2B5 JUMPI PUSH0 DUP1 REVERT JUMPDEST DUP1 PUSH4 0x2D3E474A EQ PUSH2 0x247 JUMPI DUP1 PUSH4 0x313CE567 EQ PUSH2 0x25A JUMPI DUP1 PUSH4 0x67859B6E EQ PUSH2 0x269 JUMPI PUSH0 DUP1 REVERT JUMPDEST DUP1 PUSH4 0x42249BB EQ PUSH2 0x1A5 JUMPI DUP1 PUSH4 0x6FDDE03 EQ PUSH2 0x1D5 JUMPI DUP1 PUSH4 0x95EA7B3 EQ PUSH2 0x1EA JUMPI DUP1 PUSH4 0x18160DDD EQ PUSH2 0x20D JUMPI DUP1 PUSH4 0x23B872DD EQ PUSH2 0x21F JUMPI DUP1 PUSH4 0x2BE8781F EQ PUSH2 0x232 JUMPI JUMPDEST PUSH0 DUP1 REVERT JUMPDEST PUSH1 0xB SLOAD PUSH2 0x1B8 SWAP1 PUSH1 0x1 PUSH1 0x1 PUSH1 0xA0 SHL SUB AND DUP2 JUMP JUMPDEST PUSH1 0x40 MLOAD PUSH1 0x1 PUSH1 0x1 PUSH1 0xA0 SHL SUB SWAP1 SWAP2 AND DUP2 MSTORE PUSH1 0x20 ADD JUMPDEST PUSH1 0x40 MLOAD DUP1 SWAP2 SUB SWAP1 RETURN JUMPDEST PUSH2 0x1DD PUSH2 0x3ED JUMP JUMPDEST PUSH1 0x40 MLOAD PUSH2 0x1CC SWAP2 SWAP1 PUSH2 0xF4F JUMP JUMPDEST PUSH2 0x1FD PUSH2 0x1F8 CALLDATASIZE PUSH1 0x4 PUSH2 0xF9F JUMP JUMPDEST PUSH2 0x47D JUMP JUMPDEST PUSH1 0x40 MLOAD SWAP1 ISZERO ISZERO DUP2 MSTORE PUSH1 0x20 ADD PUSH2 0x1CC JUMP JUMPDEST PUSH1 0x2 SLOAD JUMPDEST PUSH1 0x40 MLOAD SWAP1 DUP2 MSTORE PUSH1 0x20 ADD PUSH2 0x1CC JUMP JUMPDEST PUSH2 0x1FD PUSH2 0x22D CALLDATASIZE PUSH1 0x4 PUSH2 0xFC7 JUMP JUMPDEST PUSH2 0x496 JUMP JUMPDEST PUSH2 0x245 PUSH2 0x240 CALLDATASIZE PUSH1 0x4 PUSH2 0x1001 JUMP JUMPDEST PUSH2 0x4B9 JUMP JUMPDEST STOP JUMPDEST PUSH1 0xA SLOAD PUSH2 0x1B8 SWAP1 PUSH1 0x1 PUSH1 0x1 PUSH1 0xA0 SHL SUB AND DUP2 JUMP JUMPDEST PUSH1 0x40 MLOAD PUSH1 0x12 DUP2 MSTORE PUSH1 0x20 ADD PUSH2 0x1CC JUMP JUMPDEST PUSH1 0x8 SLOAD PUSH2 0x1B8 SWAP1 PUSH1 0x1 PUSH1 0x1 PUSH1 0xA0 SHL SUB AND DUP2 JUMP JUMPDEST PUSH2 0x211 PUSH2 0x28A CALLDATASIZE PUSH1 0x4 PUSH2 0x102B JUMP JUMPDEST PUSH1 0x1 PUSH1 0x1 PUSH1 0xA0 SHL SUB AND PUSH0 SWAP1 DUP2 MSTORE PUSH1 0x20 DUP2 SWAP1 MSTORE PUSH1 0x40 SWAP1 KECCAK256 SLOAD SWAP1 JUMP JUMPDEST PUSH2 0x245 PUSH2 0x5FF JUMP JUMPDEST PUSH2 0x211 PUSH1 0x6 SLOAD DUP2 JUMP JUMPDEST PUSH2 0x211 PUSH8 0x6765C793FA10079D PUSH1 0x1B SHL DUP2 JUMP JUMPDEST PUSH1 0x5 SLOAD PUSH1 0x1 PUSH1 0x1 PUSH1 0xA0 SHL SUB AND PUSH2 0x1B8 JUMP JUMPDEST PUSH2 0x211 PUSH12 0x204FCE5E3E25026110000000 DUP2 JUMP JUMPDEST PUSH2 0x1DD PUSH2 0x612 JUMP JUMPDEST PUSH2 0x211 PUSH1 0x7 SLOAD DUP2 JUMP JUMPDEST PUSH2 0x1FD PUSH2 0x30A CALLDATASIZE PUSH1 0x4 PUSH2 0xF9F JUMP JUMPDEST PUSH2 0x621 JUMP JUMPDEST PUSH1 0xD SLOAD PUSH2 0x1B8 SWAP1 PUSH1 0x1 PUSH1 0x1 PUSH1 0xA0 SHL SUB AND DUP2 JUMP JUMPDEST PUSH2 0x32A PUSH2 0x62E JUMP JUMPDEST PUSH1 0x40 DUP1 MLOAD SWAP4 DUP5 MSTORE PUSH1 0x20 DUP5 ADD SWAP3 SWAP1 SWAP3 MSTORE SWAP1 DUP3 ADD MSTORE PUSH1 0x60 ADD PUSH2 0x1CC JUMP JUMPDEST PUSH1 0xC SLOAD PUSH2 0x1B8 SWAP1 PUSH1 0x1 PUSH1 0x1 PUSH1 0xA0 SHL SUB AND DUP2 JUMP JUMPDEST PUSH1 0x9 SLOAD PUSH2 0x1B8 SWAP1 PUSH1 0x1 PUSH1 0x1 PUSH1 0xA0 SHL SUB AND DUP2 JUMP JUMPDEST PUSH2 0x211 PUSH2 0x379 CALLDATASIZE PUSH1 0x4 PUSH2 0x104B JUMP JUMPDEST PUSH1 0x1 PUSH1 0x1 PUSH1 0xA0 SHL SUB SWAP2 DUP3 AND PUSH0 SWAP1 DUP2 MSTORE PUSH1 0x1 PUSH1 0x20 SWAP1 DUP2 MSTORE PUSH1 0x40 DUP1 DUP4 KECCAK256 SWAP4 SWAP1 SWAP5 AND DUP3 MSTORE SWAP2 SWAP1 SWAP2 MSTORE KECCAK256 SLOAD SWAP1 JUMP JUMPDEST PUSH2 0x211 PUSH32 0x0 DUP2 JUMP JUMPDEST PUSH2 0x211 PUSH2 0x7B0 JUMP JUMPDEST PUSH2 0x245 PUSH2 0x3E0 CALLDATASIZE PUSH1 0x4 PUSH2 0x102B JUMP JUMPDEST PUSH2 0x7D4 JUMP JUMPDEST PUSH2 0x245 PUSH2 0x811 JUMP JUMPDEST PUSH1 0x60 PUSH1 0x3 DUP1 SLOAD PUSH2 0x3FC SWAP1 PUSH2 0x1073 JUMP JUMPDEST DUP1 PUSH1 0x1F ADD PUSH1 0x20 DUP1 SWAP2 DIV MUL PUSH1 0x20 ADD PUSH1 0x40 MLOAD SWAP1 DUP2 ADD PUSH1 0x40 MSTORE DUP1 SWAP3 SWAP2 SWAP1 DUP2 DUP2 MSTORE PUSH1 0x20 ADD DUP3 DUP1 SLOAD PUSH2 0x428 SWAP1 PUSH2 0x1073 JUMP JUMPDEST DUP1 ISZERO PUSH2 0x473 JUMPI DUP1 PUSH1 0x1F LT PUSH2 0x44A JUMPI PUSH2 0x100 DUP1 DUP4 SLOAD DIV MUL DUP4 MSTORE SWAP2 PUSH1 0x20 ADD SWAP2 PUSH2 0x473 JUMP JUMPDEST DUP3 ADD SWAP2 SWAP1 PUSH0 MSTORE PUSH1 0x20 PUSH0 KECCAK256 SWAP1 JUMPDEST DUP2 SLOAD DUP2 MSTORE SWAP1 PUSH1 0x1 ADD SWAP1 PUSH1 0x20 ADD DUP1 DUP4 GT PUSH2 0x456 JUMPI DUP3 SWAP1 SUB PUSH1 0x1F AND DUP3 ADD SWAP2 JUMPDEST POP POP POP POP POP SWAP1 POP SWAP1 JUMP JUMPDEST PUSH0 CALLER PUSH2 0x48A DUP2 DUP6 DUP6 PUSH2 0xBEE JUMP JUMPDEST PUSH1 0x1 SWAP2 POP POP JUMPDEST SWAP3 SWAP2 POP POP JUMP JUMPDEST PUSH0 CALLER PUSH2 0x4A3 DUP6 DUP3 DUP6 PUSH2 0xC00 JUMP JUMPDEST PUSH2 0x4AE DUP6 DUP6 DUP6 PUSH2 0xC7C JUMP JUMPDEST POP PUSH1 0x1 SWAP5 SWAP4 POP POP POP POP JUMP JUMPDEST PUSH2 0x4C1 PUSH2 0xCD9 JUMP JUMPDEST PUSH1 0x1 DUP3 LT ISZERO DUP1 ISZERO PUSH2 0x4D3 JUMPI POP PUSH1 0x6 DUP3 GT ISZERO JUMPDEST PUSH2 0x514 JUMPI PUSH1 0x40 MLOAD PUSH3 0x461BCD PUSH1 0xE5 SHL DUP2 MSTORE PUSH1 0x20 PUSH1 0x4 DUP3 ADD MSTORE PUSH1 0xD PUSH1 0x24 DUP3 ADD MSTORE PUSH13 0x92DCECC2D8D2C840D2DCC8CAF PUSH1 0x9B SHL PUSH1 0x44 DUP3 ADD MSTORE PUSH1 0x64 ADD JUMPDEST PUSH1 0x40 MLOAD DUP1 SWAP2 SUB SWAP1 REVERT JUMPDEST DUP2 PUSH1 0x1 SUB PUSH2 0x53B JUMPI PUSH1 0x8 DUP1 SLOAD PUSH1 0x1 PUSH1 0x1 PUSH1 0xA0 SHL SUB NOT AND PUSH1 0x1 PUSH1 0x1 PUSH1 0xA0 SHL SUB DUP4 AND OR SWAP1 SSTORE POP POP JUMP JUMPDEST DUP2 PUSH1 0x2 SUB PUSH2 0x562 JUMPI PUSH1 0x9 DUP1 SLOAD PUSH1 0x1 PUSH1 0x1 PUSH1 0xA0 SHL SUB NOT AND PUSH1 0x1 PUSH1 0x1 PUSH1 0xA0 SHL SUB DUP4 AND OR SWAP1 SSTORE POP POP JUMP JUMPDEST DUP2 PUSH1 0x3 SUB PUSH2 0x589 JUMPI PUSH1 0xA DUP1 SLOAD PUSH1 0x1 PUSH1 0x1 PUSH1 0xA0 SHL SUB NOT AND PUSH1 0x1 PUSH1 0x1 PUSH1 0xA0 SHL SUB DUP4 AND OR SWAP1 SSTORE POP POP JUMP JUMPDEST DUP2 PUSH1 0x4 SUB PUSH2 0x5B0 JUMPI PUSH1 0xB DUP1 SLOAD PUSH1 0x1 PUSH1 0x1 PUSH1 0xA0 SHL SUB NOT AND PUSH1 0x1 PUSH1 0x1 PUSH1 0xA0 SHL SUB DUP4 AND OR SWAP1 SSTORE POP POP JUMP JUMPDEST DUP2 PUSH1 0x5 SUB PUSH2 0x5D7 JUMPI PUSH1 0xC DUP1 SLOAD PUSH1 0x1 PUSH1 0x1 PUSH1 0xA0 SHL SUB NOT AND PUSH1 0x1 PUSH1 0x1 PUSH1 0xA0 SHL SUB DUP4 AND OR SWAP1 SSTORE POP POP JUMP JUMPDEST DUP2 PUSH1 0x6 SUB PUSH2 0x5FB JUMPI PUSH1 0xD DUP1 SLOAD PUSH1 0x1 PUSH1 0x1 PUSH1 0xA0 SHL SUB NOT AND PUSH1 0x1 PUSH1 0x1 PUSH1 0xA0 SHL SUB DUP4 AND OR SWAP1 SSTORE JUMPDEST POP POP JUMP JUMPDEST PUSH2 0x607 PUSH2 0xCD9 JUMP JUMPDEST PUSH2 0x610 PUSH0 PUSH2 0xD06 JUMP JUMPDEST JUMP JUMPDEST PUSH1 0x60 PUSH1 0x4 DUP1 SLOAD PUSH2 0x3FC SWAP1 PUSH2 0x1073 JUMP JUMPDEST PUSH0 CALLER PUSH2 0x48A DUP2 DUP6 DUP6 PUSH2 0xC7C JUMP JUMPDEST PUSH0 DUP1 PUSH0 DUP1 PUSH1 0x6 SLOAD PUSH1 0x1 PUSH2 0x641 SWAP2 SWAP1 PUSH2 0x10BF JUMP JUMPDEST SWAP1 POP PUSH1 0x3 DUP2 GT PUSH2 0x68B JUMPI PUSH2 0x3E8 PUSH2 0x66F PUSH8 0x6765C793FA10079D PUSH1 0x1B SHL PUSH12 0x204FCE5E3E25026110000000 PUSH2 0x10D2 JUMP JUMPDEST PUSH2 0x67A SWAP1 PUSH1 0x5 PUSH2 0x10E5 JUMP JUMPDEST PUSH2 0x684 SWAP2 SWAP1 PUSH2 0x10FC JUMP JUMPDEST SWAP3 POP PUSH2 0x732 JUMP JUMPDEST PUSH1 0x6 DUP2 GT PUSH2 0x6C1 JUMPI PUSH1 0x64 PUSH2 0x6B6 PUSH8 0x6765C793FA10079D PUSH1 0x1B SHL PUSH12 0x204FCE5E3E25026110000000 PUSH2 0x10D2 JUMP JUMPDEST PUSH2 0x67A SWAP1 PUSH1 0x1 PUSH2 0x10E5 JUMP JUMPDEST PUSH1 0x9 DUP2 GT PUSH2 0x6F7 JUMPI PUSH1 0x64 PUSH2 0x6EC PUSH8 0x6765C793FA10079D PUSH1 0x1B SHL PUSH12 0x204FCE5E3E25026110000000 PUSH2 0x10D2 JUMP JUMPDEST PUSH2 0x67A SWAP1 PUSH1 0x2 PUSH2 0x10E5 JUMP JUMPDEST PUSH1 0x64 PUSH2 0x71A PUSH8 0x6765C793FA10079D PUSH1 0x1B SHL PUSH12 0x204FCE5E3E25026110000000 PUSH2 0x10D2 JUMP JUMPDEST PUSH2 0x725 SWAP1 PUSH1 0x3 PUSH2 0x10E5 JUMP JUMPDEST PUSH2 0x72F SWAP2 SWAP1 PUSH2 0x10FC JUMP JUMPDEST SWAP3 POP JUMPDEST PUSH2 0x753 PUSH8 0x6765C793FA10079D PUSH1 0x1B SHL PUSH12 0x204FCE5E3E25026110000000 PUSH2 0x10D2 JUMP JUMPDEST PUSH1 0x7 SLOAD PUSH2 0x760 SWAP1 DUP6 PUSH2 0x10BF JUMP JUMPDEST GT ISZERO PUSH2 0x797 JUMPI PUSH1 0x7 SLOAD PUSH2 0x78A PUSH8 0x6765C793FA10079D PUSH1 0x1B SHL PUSH12 0x204FCE5E3E25026110000000 PUSH2 0x10D2 JUMP JUMPDEST PUSH2 0x794 SWAP2 SWAP1 PUSH2 0x10D2 JUMP JUMPDEST SWAP3 POP JUMPDEST DUP1 DUP4 PUSH2 0x7A4 PUSH1 0x6 DUP3 PUSH2 0x10FC JUMP JUMPDEST SWAP4 POP SWAP4 POP SWAP4 POP POP SWAP1 SWAP2 SWAP3 JUMP JUMPDEST PUSH2 0x7D1 PUSH8 0x6765C793FA10079D PUSH1 0x1B SHL PUSH12 0x204FCE5E3E25026110000000 PUSH2 0x10D2 JUMP JUMPDEST DUP2 JUMP JUMPDEST PUSH2 0x7DC PUSH2 0xCD9 JUMP JUMPDEST PUSH1 0x1 PUSH1 0x1 PUSH1 0xA0 SHL SUB DUP2 AND PUSH2 0x805 JUMPI PUSH1 0x40 MLOAD PUSH4 0x1E4FBDF7 PUSH1 0xE0 SHL DUP2 MSTORE PUSH0 PUSH1 0x4 DUP3 ADD MSTORE PUSH1 0x24 ADD PUSH2 0x50B JUMP JUMPDEST PUSH2 0x80E DUP2 PUSH2 0xD06 JUMP JUMPDEST POP JUMP JUMPDEST PUSH2 0x819 PUSH2 0xCD9 JUMP JUMPDEST PUSH2 0x83A PUSH8 0x6765C793FA10079D PUSH1 0x1B SHL PUSH12 0x204FCE5E3E25026110000000 PUSH2 0x10D2 JUMP JUMPDEST PUSH1 0x7 SLOAD LT PUSH2 0x88A JUMPI PUSH1 0x40 MLOAD PUSH3 0x461BCD PUSH1 0xE5 SHL DUP2 MSTORE PUSH1 0x20 PUSH1 0x4 DUP3 ADD MSTORE PUSH1 0x1B PUSH1 0x24 DUP3 ADD MSTORE PUSH32 0x416C6C20746F6B656E7320616C726561647920756E6C6F636B65640000000000 PUSH1 0x44 DUP3 ADD MSTORE PUSH1 0x64 ADD PUSH2 0x50B JUMP JUMPDEST PUSH0 PUSH3 0x278D00 PUSH2 0x8B9 PUSH32 0x0 TIMESTAMP PUSH2 0x10D2 JUMP JUMPDEST PUSH2 0x8C3 SWAP2 SWAP1 PUSH2 0x10FC JUMP JUMPDEST SWAP1 POP PUSH1 0x6 SLOAD DUP2 GT PUSH2 0x90F JUMPI PUSH1 0x40 MLOAD PUSH3 0x461BCD PUSH1 0xE5 SHL DUP2 MSTORE PUSH1 0x20 PUSH1 0x4 DUP3 ADD MSTORE PUSH1 0x16 PUSH1 0x24 DUP3 ADD MSTORE PUSH22 0x4E6F206E6577206D6F6E746820746F20756E6C6F636B PUSH1 0x50 SHL PUSH1 0x44 DUP3 ADD MSTORE PUSH1 0x64 ADD PUSH2 0x50B JUMP JUMPDEST PUSH0 DUP1 PUSH1 0x6 SLOAD PUSH1 0x1 PUSH2 0x920 SWAP2 SWAP1 PUSH2 0x10BF JUMP JUMPDEST SWAP1 POP JUMPDEST DUP3 DUP2 GT PUSH2 0xA3F JUMPI PUSH1 0x3 DUP2 GT PUSH2 0x97C JUMPI PUSH2 0x3E8 PUSH2 0x956 PUSH8 0x6765C793FA10079D PUSH1 0x1B SHL PUSH12 0x204FCE5E3E25026110000000 PUSH2 0x10D2 JUMP JUMPDEST PUSH2 0x961 SWAP1 PUSH1 0x5 PUSH2 0x10E5 JUMP JUMPDEST PUSH2 0x96B SWAP2 SWAP1 PUSH2 0x10FC JUMP JUMPDEST PUSH2 0x975 SWAP1 DUP4 PUSH2 0x10BF JUMP JUMPDEST SWAP2 POP PUSH2 0xA2D JUMP JUMPDEST PUSH1 0x6 DUP2 GT PUSH2 0x9B2 JUMPI PUSH1 0x64 PUSH2 0x9A7 PUSH8 0x6765C793FA10079D PUSH1 0x1B SHL PUSH12 0x204FCE5E3E25026110000000 PUSH2 0x10D2 JUMP JUMPDEST PUSH2 0x961 SWAP1 PUSH1 0x1 PUSH2 0x10E5 JUMP JUMPDEST PUSH1 0x9 DUP2 GT PUSH2 0x9E8 JUMPI PUSH1 0x64 PUSH2 0x9DD PUSH8 0x6765C793FA10079D PUSH1 0x1B SHL PUSH12 0x204FCE5E3E25026110000000 PUSH2 0x10D2 JUMP JUMPDEST PUSH2 0x961 SWAP1 PUSH1 0x2 PUSH2 0x10E5 JUMP JUMPDEST PUSH1 0x64 PUSH2 0xA0B PUSH8 0x6765C793FA10079D PUSH1 0x1B SHL PUSH12 0x204FCE5E3E25026110000000 PUSH2 0x10D2 JUMP JUMPDEST PUSH2 0xA16 SWAP1 PUSH1 0x3 PUSH2 0x10E5 JUMP JUMPDEST PUSH2 0xA20 SWAP2 SWAP1 PUSH2 0x10FC JUMP JUMPDEST PUSH2 0xA2A SWAP1 DUP4 PUSH2 0x10BF JUMP JUMPDEST SWAP2 POP JUMPDEST DUP1 PUSH2 0xA37 DUP2 PUSH2 0x111B JUMP JUMPDEST SWAP2 POP POP PUSH2 0x923 JUMP JUMPDEST POP PUSH2 0xA61 PUSH8 0x6765C793FA10079D PUSH1 0x1B SHL PUSH12 0x204FCE5E3E25026110000000 PUSH2 0x10D2 JUMP JUMPDEST PUSH1 0x7 SLOAD PUSH2 0xA6E SWAP1 DUP4 PUSH2 0x10BF JUMP JUMPDEST GT ISZERO PUSH2 0xAA5 JUMPI PUSH1 0x7 SLOAD PUSH2 0xA98 PUSH8 0x6765C793FA10079D PUSH1 0x1B SHL PUSH12 0x204FCE5E3E25026110000000 PUSH2 0x10D2 JUMP JUMPDEST PUSH2 0xAA2 SWAP2 SWAP1 PUSH2 0x10D2 JUMP JUMPDEST SWAP1 POP JUMPDEST PUSH0 DUP2 GT PUSH2 0xAE8 JUMPI PUSH1 0x40 MLOAD PUSH3 0x461BCD PUSH1 0xE5 SHL DUP2 MSTORE PUSH1 0x20 PUSH1 0x4 DUP3 ADD MSTORE PUSH1 0x11 PUSH1 0x24 DUP3 ADD MSTORE PUSH17 0x4E6F7468696E6720746F20756E6C6F636B PUSH1 0x78 SHL PUSH1 0x44 DUP3 ADD MSTORE PUSH1 0x64 ADD PUSH2 0x50B JUMP JUMPDEST DUP2 PUSH1 0x6 DUP2 SWAP1 SSTORE POP DUP1 PUSH1 0x7 PUSH0 DUP3 DUP3 SLOAD PUSH2 0xB00 SWAP2 SWAP1 PUSH2 0x10BF JUMP JUMPDEST SWAP1 SWAP2 SSTORE POP PUSH0 SWAP1 POP PUSH2 0xB12 PUSH1 0x6 DUP4 PUSH2 0x10FC JUMP JUMPDEST PUSH1 0x8 SLOAD SWAP1 SWAP2 POP PUSH2 0xB2D SWAP1 ADDRESS SWAP1 PUSH1 0x1 PUSH1 0x1 PUSH1 0xA0 SHL SUB AND DUP4 PUSH2 0xC7C JUMP JUMPDEST PUSH1 0x9 SLOAD PUSH2 0xB45 SWAP1 ADDRESS SWAP1 PUSH1 0x1 PUSH1 0x1 PUSH1 0xA0 SHL SUB AND DUP4 PUSH2 0xC7C JUMP JUMPDEST PUSH1 0xA SLOAD PUSH2 0xB5D SWAP1 ADDRESS SWAP1 PUSH1 0x1 PUSH1 0x1 PUSH1 0xA0 SHL SUB AND DUP4 PUSH2 0xC7C JUMP JUMPDEST PUSH1 0xB SLOAD PUSH2 0xB75 SWAP1 ADDRESS SWAP1 PUSH1 0x1 PUSH1 0x1 PUSH1 0xA0 SHL SUB AND DUP4 PUSH2 0xC7C JUMP JUMPDEST PUSH1 0xC SLOAD PUSH2 0xB8D SWAP1 ADDRESS SWAP1 PUSH1 0x1 PUSH1 0x1 PUSH1 0xA0 SHL SUB AND DUP4 PUSH2 0xC7C JUMP JUMPDEST PUSH1 0xD SLOAD PUSH2 0xBA5 SWAP1 ADDRESS SWAP1 PUSH1 0x1 PUSH1 0x1 PUSH1 0xA0 SHL SUB AND DUP4 PUSH2 0xC7C JUMP JUMPDEST PUSH1 0x6 SLOAD PUSH1 0x7 SLOAD PUSH1 0x40 DUP1 MLOAD SWAP3 DUP4 MSTORE PUSH1 0x20 DUP4 ADD DUP5 SWAP1 MSTORE DUP3 ADD MSTORE PUSH32 0xD5C1E53FEBF89038959691E212F7A18F34F9AC92DD9965A138CCFC695E9774AC SWAP1 PUSH1 0x60 ADD PUSH1 0x40 MLOAD DUP1 SWAP2 SUB SWAP1 LOG1 POP POP POP JUMP JUMPDEST PUSH2 0xBFB DUP4 DUP4 DUP4 PUSH1 0x1 PUSH2 0xD57 JUMP JUMPDEST POP POP POP JUMP JUMPDEST PUSH1 0x1 PUSH1 0x1 PUSH1 0xA0 SHL SUB DUP4 DUP2 AND PUSH0 SWAP1 DUP2 MSTORE PUSH1 0x1 PUSH1 0x20 SWAP1 DUP2 MSTORE PUSH1 0x40 DUP1 DUP4 KECCAK256 SWAP4 DUP7 AND DUP4 MSTORE SWAP3 SWAP1 MSTORE KECCAK256 SLOAD PUSH0 NOT DUP2 LT ISZERO PUSH2 0xC76 JUMPI DUP2 DUP2 LT ISZERO PUSH2 0xC68 JUMPI PUSH1 0x40 MLOAD PUSH4 0x7DC7A0D9 PUSH1 0xE1 SHL DUP2 MSTORE PUSH1 0x1 PUSH1 0x1 PUSH1 0xA0 SHL SUB DUP5 AND PUSH1 0x4 DUP3 ADD MSTORE PUSH1 0x24 DUP2 ADD DUP3 SWAP1 MSTORE PUSH1 0x44 DUP2 ADD DUP4 SWAP1 MSTORE PUSH1 0x64 ADD PUSH2 0x50B JUMP JUMPDEST PUSH2 0xC76 DUP5 DUP5 DUP5 DUP5 SUB PUSH0 PUSH2 0xD57 JUMP JUMPDEST POP POP POP POP JUMP JUMPDEST PUSH1 0x1 PUSH1 0x1 PUSH1 0xA0 SHL SUB DUP4 AND PUSH2 0xCA5 JUMPI PUSH1 0x40 MLOAD PUSH4 0x4B637E8F PUSH1 0xE1 SHL DUP2 MSTORE PUSH0 PUSH1 0x4 DUP3 ADD MSTORE PUSH1 0x24 ADD PUSH2 0x50B JUMP JUMPDEST PUSH1 0x1 PUSH1 0x1 PUSH1 0xA0 SHL SUB DUP3 AND PUSH2 0xCCE JUMPI PUSH1 0x40 MLOAD PUSH4 0xEC442F05 PUSH1 0xE0 SHL DUP2 MSTORE PUSH0 PUSH1 0x4 DUP3 ADD MSTORE PUSH1 0x24 ADD PUSH2 0x50B JUMP JUMPDEST PUSH2 0xBFB DUP4 DUP4 DUP4 PUSH2 0xE29 JUMP JUMPDEST PUSH1 0x5 SLOAD PUSH1 0x1 PUSH1 0x1 PUSH1 0xA0 SHL SUB AND CALLER EQ PUSH2 0x610 JUMPI PUSH1 0x40 MLOAD PUSH4 0x118CDAA7 PUSH1 0xE0 SHL DUP2 MSTORE CALLER PUSH1 0x4 DUP3 ADD MSTORE PUSH1 0x24 ADD PUSH2 0x50B JUMP JUMPDEST PUSH1 0x5 DUP1 SLOAD PUSH1 0x1 PUSH1 0x1 PUSH1 0xA0 SHL SUB DUP4 DUP2 AND PUSH1 0x1 PUSH1 0x1 PUSH1 0xA0 SHL SUB NOT DUP4 AND DUP2 OR SWAP1 SWAP4 SSTORE PUSH1 0x40 MLOAD SWAP2 AND SWAP2 SWAP1 DUP3 SWAP1 PUSH32 0x8BE0079C531659141344CD1FD0A4F28419497F9722A3DAAFE3B4186F6B6457E0 SWAP1 PUSH0 SWAP1 LOG3 POP POP JUMP JUMPDEST PUSH1 0x1 PUSH1 0x1 PUSH1 0xA0 SHL SUB DUP5 AND PUSH2 0xD80 JUMPI PUSH1 0x40 MLOAD PUSH4 0xE602DF05 PUSH1 0xE0 SHL DUP2 MSTORE PUSH0 PUSH1 0x4 DUP3 ADD MSTORE PUSH1 0x24 ADD PUSH2 0x50B JUMP JUMPDEST PUSH1 0x1 PUSH1 0x1 PUSH1 0xA0 SHL SUB DUP4 AND PUSH2 0xDA9 JUMPI PUSH1 0x40 MLOAD PUSH4 0x4A1406B1 PUSH1 0xE1 SHL DUP2 MSTORE PUSH0 PUSH1 0x4 DUP3 ADD MSTORE PUSH1 0x24 ADD PUSH2 0x50B JUMP JUMPDEST PUSH1 0x1 PUSH1 0x1 PUSH1 0xA0 SHL SUB DUP1 DUP6 AND PUSH0 SWAP1 DUP2 MSTORE PUSH1 0x1 PUSH1 0x20 SWAP1 DUP2 MSTORE PUSH1 0x40 DUP1 DUP4 KECCAK256 SWAP4 DUP8 AND DUP4 MSTORE SWAP3 SWAP1 MSTORE KECCAK256 DUP3 SWAP1 SSTORE DUP1 ISZERO PUSH2 0xC76 JUMPI DUP3 PUSH1 0x1 PUSH1 0x1 PUSH1 0xA0 SHL SUB AND DUP5 PUSH1 0x1 PUSH1 0x1 PUSH1 0xA0 SHL SUB AND PUSH32 0x8C5BE1E5EBEC7D5BD14F71427D1E84F3DD0314C0F7B2291E5B200AC8C7C3B925 DUP5 PUSH1 0x40 MLOAD PUSH2 0xE1B SWAP2 DUP2 MSTORE PUSH1 0x20 ADD SWAP1 JUMP JUMPDEST PUSH1 0x40 MLOAD DUP1 SWAP2 SUB SWAP1 LOG3 POP POP POP POP JUMP JUMPDEST PUSH1 0x1 PUSH1 0x1 PUSH1 0xA0 SHL SUB DUP4 AND PUSH2 0xE53 JUMPI DUP1 PUSH1 0x2 PUSH0 DUP3 DUP3 SLOAD PUSH2 0xE48 SWAP2 SWAP1 PUSH2 0x10BF JUMP JUMPDEST SWAP1 SWAP2 SSTORE POP PUSH2 0xEC3 SWAP1 POP JUMP JUMPDEST PUSH1 0x1 PUSH1 0x1 PUSH1 0xA0 SHL SUB DUP4 AND PUSH0 SWAP1 DUP2 MSTORE PUSH1 0x20 DUP2 SWAP1 MSTORE PUSH1 0x40 SWAP1 KECCAK256 SLOAD DUP2 DUP2 LT ISZERO PUSH2 0xEA5 JUMPI PUSH1 0x40 MLOAD PUSH4 0x391434E3 PUSH1 0xE2 SHL DUP2 MSTORE PUSH1 0x1 PUSH1 0x1 PUSH1 0xA0 SHL SUB DUP6 AND PUSH1 0x4 DUP3 ADD MSTORE PUSH1 0x24 DUP2 ADD DUP3 SWAP1 MSTORE PUSH1 0x44 DUP2 ADD DUP4 SWAP1 MSTORE PUSH1 0x64 ADD PUSH2 0x50B JUMP JUMPDEST PUSH1 0x1 PUSH1 0x1 PUSH1 0xA0 SHL SUB DUP5 AND PUSH0 SWAP1 DUP2 MSTORE PUSH1 0x20 DUP2 SWAP1 MSTORE PUSH1 0x40 SWAP1 KECCAK256 SWAP1 DUP3 SWAP1 SUB SWAP1 SSTORE JUMPDEST PUSH1 0x1 PUSH1 0x1 PUSH1 0xA0 SHL SUB DUP3 AND PUSH2 0xEDF JUMPI PUSH1 0x2 DUP1 SLOAD DUP3 SWAP1 SUB SWAP1 SSTORE PUSH2 0xEFD JUMP JUMPDEST PUSH1 0x1 PUSH1 0x1 PUSH1 0xA0 SHL SUB DUP3 AND PUSH0 SWAP1 DUP2 MSTORE PUSH1 0x20 DUP2 SWAP1 MSTORE PUSH1 0x40 SWAP1 KECCAK256 DUP1 SLOAD DUP3 ADD SWAP1 SSTORE JUMPDEST DUP2 PUSH1 0x1 PUSH1 0x1 PUSH1 0xA0 SHL SUB AND DUP4 PUSH1 0x1 PUSH1 0x1 PUSH1 0xA0 SHL SUB AND PUSH32 0xDDF252AD1BE2C89B69C2B068FC378DAA952BA7F163C4A11628F55A4DF523B3EF DUP4 PUSH1 0x40 MLOAD PUSH2 0xF42 SWAP2 DUP2 MSTORE PUSH1 0x20 ADD SWAP1 JUMP JUMPDEST PUSH1 0x40 MLOAD DUP1 SWAP2 SUB SWAP1 LOG3 POP POP POP JUMP JUMPDEST PUSH1 0x20 DUP2 MSTORE PUSH0 DUP3 MLOAD DUP1 PUSH1 0x20 DUP5 ADD MSTORE DUP1 PUSH1 0x20 DUP6 ADD PUSH1 0x40 DUP6 ADD MCOPY PUSH0 PUSH1 0x40 DUP3 DUP6 ADD ADD MSTORE PUSH1 0x40 PUSH1 0x1F NOT PUSH1 0x1F DUP4 ADD AND DUP5 ADD ADD SWAP2 POP POP SWAP3 SWAP2 POP POP JUMP JUMPDEST DUP1 CALLDATALOAD PUSH1 0x1 PUSH1 0x1 PUSH1 0xA0 SHL SUB DUP2 AND DUP2 EQ PUSH2 0xF9A JUMPI PUSH0 DUP1 REVERT JUMPDEST SWAP2 SWAP1 POP JUMP JUMPDEST PUSH0 DUP1 PUSH1 0x40 DUP4 DUP6 SUB SLT ISZERO PUSH2 0xFB0 JUMPI PUSH0 DUP1 REVERT JUMPDEST PUSH2 0xFB9 DUP4 PUSH2 0xF84 JUMP JUMPDEST SWAP5 PUSH1 0x20 SWAP4 SWAP1 SWAP4 ADD CALLDATALOAD SWAP4 POP POP POP JUMP JUMPDEST PUSH0 DUP1 PUSH0 PUSH1 0x60 DUP5 DUP7 SUB SLT ISZERO PUSH2 0xFD9 JUMPI PUSH0 DUP1 REVERT JUMPDEST PUSH2 0xFE2 DUP5 PUSH2 0xF84 JUMP JUMPDEST SWAP3 POP PUSH2 0xFF0 PUSH1 0x20 DUP6 ADD PUSH2 0xF84 JUMP JUMPDEST SWAP3 SWAP6 SWAP3 SWAP5 POP POP POP PUSH1 0x40 SWAP2 SWAP1 SWAP2 ADD CALLDATALOAD SWAP1 JUMP JUMPDEST PUSH0 DUP1 PUSH1 0x40 DUP4 DUP6 SUB SLT ISZERO PUSH2 0x1012 JUMPI PUSH0 DUP1 REVERT JUMPDEST DUP3 CALLDATALOAD SWAP2 POP PUSH2 0x1022 PUSH1 0x20 DUP5 ADD PUSH2 0xF84 JUMP JUMPDEST SWAP1 POP SWAP3 POP SWAP3 SWAP1 POP JUMP JUMPDEST PUSH0 PUSH1 0x20 DUP3 DUP5 SUB SLT ISZERO PUSH2 0x103B JUMPI PUSH0 DUP1 REVERT JUMPDEST PUSH2 0x1044 DUP3 PUSH2 0xF84 JUMP JUMPDEST SWAP4 SWAP3 POP POP POP JUMP JUMPDEST PUSH0 DUP1 PUSH1 0x40 DUP4 DUP6 SUB SLT ISZERO PUSH2 0x105C JUMPI PUSH0 DUP1 REVERT JUMPDEST PUSH2 0x1065 DUP4 PUSH2 0xF84 JUMP JUMPDEST SWAP2 POP PUSH2 0x1022 PUSH1 0x20 DUP5 ADD PUSH2 0xF84 JUMP JUMPDEST PUSH1 0x1 DUP2 DUP2 SHR SWAP1 DUP3 AND DUP1 PUSH2 0x1087 JUMPI PUSH1 0x7F DUP3 AND SWAP2 POP JUMPDEST PUSH1 0x20 DUP3 LT DUP2 SUB PUSH2 0x10A5 JUMPI PUSH4 0x4E487B71 PUSH1 0xE0 SHL PUSH0 MSTORE PUSH1 0x22 PUSH1 0x4 MSTORE PUSH1 0x24 PUSH0 REVERT JUMPDEST POP SWAP2 SWAP1 POP JUMP JUMPDEST PUSH4 0x4E487B71 PUSH1 0xE0 SHL PUSH0 MSTORE PUSH1 0x11 PUSH1 0x4 MSTORE PUSH1 0x24 PUSH0 REVERT JUMPDEST DUP1 DUP3 ADD DUP1 DUP3 GT ISZERO PUSH2 0x490 JUMPI PUSH2 0x490 PUSH2 0x10AB JUMP JUMPDEST DUP2 DUP2 SUB DUP2 DUP2 GT ISZERO PUSH2 0x490 JUMPI PUSH2 0x490 PUSH2 0x10AB JUMP JUMPDEST DUP1 DUP3 MUL DUP2 ISZERO DUP3 DUP3 DIV DUP5 EQ OR PUSH2 0x490 JUMPI PUSH2 0x490 PUSH2 0x10AB JUMP JUMPDEST PUSH0 DUP3 PUSH2 0x1116 JUMPI PUSH4 0x4E487B71 PUSH1 0xE0 SHL PUSH0 MSTORE PUSH1 0x12 PUSH1 0x4 MSTORE PUSH1 0x24 PUSH0 REVERT JUMPDEST POP DIV SWAP1 JUMP JUMPDEST PUSH0 PUSH1 0x1 DUP3 ADD PUSH2 0x112C JUMPI PUSH2 0x112C PUSH2 0x10AB JUMP JUMPDEST POP PUSH1 0x1 ADD SWAP1 JUMP INVALID LOG2 PUSH5 0x6970667358 0x22 SLT KECCAK256 0x4F POP 0xD3 SSTORE JUMPDEST ISZERO 0xDF 0x4C 0xD3 PUSH18 0xFD98E7F80921811010DAED5A59B573C3B086 0x4E SWAP11 0xBC LOG3 PUSH5 0x736F6C6343 STOP ADDMOD BYTE STOP CALLER "
		},
		"gasEstimates": {
			"creation": {
				"codeDepositCost": "891400",
				"executionCost": "infinite",
				"totalCost": "infinite"
			},
			"external": {
				"LOCKED_SUPPLY()": "350",
				"PUBLIC_SUPPLY()": "311",
				"TOTAL_SUPPLY()": "262",
				"allowance(address,address)": "infinite",
				"approve(address,uint256)": "24780",
				"awardBonus()": "2414",
				"balanceOf(address)": "2582",
				"decimals()": "244",
				"gameTreasury()": "2392",
				"getNextUnlockInfo()": "infinite",
				"lastUnlockMonth()": "2383",
				"liquidityListing()": "2415",
				"marketing()": "2371",
				"name()": "infinite",
				"owner()": "2365",
				"referralBonus()": "2370",
				"renounceOwnership()": "infinite",
				"stakingReward()": "2349",
				"startTimestamp()": "infinite",
				"symbol()": "infinite",
				"totalSupply()": "2370",
				"totalUnlocked()": "2339",
				"transfer(address,uint256)": "51283",
				"transferFrom(address,address,uint256)": "infinite",
				"transferOwnership(address)": "28421",
				"unlockTokens()": "infinite",
				"updateDistributionAddress(uint256,address)": "27080"
			}
		},
		"methodIdentifiers": {
			"LOCKED_SUPPLY()": "e8be9a44",
			"PUBLIC_SUPPLY()": "8342083a",
			"TOTAL_SUPPLY()": "902d55a5",
			"allowance(address,address)": "dd62ed3e",
			"approve(address,uint256)": "095ea7b3",
			"awardBonus()": "b361412a",
			"balanceOf(address)": "70a08231",
			"decimals()": "313ce567",
			"gameTreasury()": "d2f9efab",
			"getNextUnlockInfo()": "be381b85",
			"lastUnlockMonth()": "8310a74d",
			"liquidityListing()": "67859b6e",
			"marketing()": "2d3e474a",
			"name()": "06fdde03",
			"owner()": "8da5cb5b",
			"referralBonus()": "ce7842f5",
			"renounceOwnership()": "715018a6",
			"stakingReward()": "042249bb",
			"startTimestamp()": "e6fd48bc",
			"symbol()": "95d89b41",
			"totalSupply()": "18160ddd",
			"totalUnlocked()": "a779d080",
			"transfer(address,uint256)": "a9059cbb",
			"transferFrom(address,address,uint256)": "23b872dd",
			"transferOwnership(address)": "f2fde38b",
			"unlockTokens()": "f968f493",
			"updateDistributionAddress(uint256,address)": "2be8781f"
		}
	},
	"abi": [
		{
			"inputs": [
				{
					"internalType": "address",
					"name": "owner_",
					"type": "address"
				}
			],
			"stateMutability": "nonpayable",
			"type": "constructor"
		},
		{
			"inputs": [
				{
					"internalType": "address",
					"name": "spender",
					"type": "address"
				},
				{
					"internalType": "uint256",
					"name": "allowance",
					"type": "uint256"
				},
				{
					"internalType": "uint256",
					"name": "needed",
					"type": "uint256"
				}
			],
			"name": "ERC20InsufficientAllowance",
			"type": "error"
		},
		{
			"inputs": [
				{
					"internalType": "address",
					"name": "sender",
					"type": "address"
				},
				{
					"internalType": "uint256",
					"name": "balance",
					"type": "uint256"
				},
				{
					"internalType": "uint256",
					"name": "needed",
					"type": "uint256"
				}
			],
			"name": "ERC20InsufficientBalance",
			"type": "error"
		},
		{
			"inputs": [
				{
					"internalType": "address",
					"name": "approver",
					"type": "address"
				}
			],
			"name": "ERC20InvalidApprover",
			"type": "error"
		},
		{
			"inputs": [
				{
					"internalType": "address",
					"name": "receiver",
					"type": "address"
				}
			],
			"name": "ERC20InvalidReceiver",
			"type": "error"
		},
		{
			"inputs": [
				{
					"internalType": "address",
					"name": "sender",
					"type": "address"
				}
			],
			"name": "ERC20InvalidSender",
			"type": "error"
		},
		{
			"inputs": [
				{
					"internalType": "address",
					"name": "spender",
					"type": "address"
				}
			],
			"name": "ERC20InvalidSpender",
			"type": "error"
		},
		{
			"inputs": [
				{
					"internalType": "address",
					"name": "owner",
					"type": "address"
				}
			],
			"name": "OwnableInvalidOwner",
			"type": "error"
		},
		{
			"inputs": [
				{
					"internalType": "address",
					"name": "account",
					"type": "address"
				}
			],
			"name": "OwnableUnauthorizedAccount",
			"type": "error"
		},
		{
			"anonymous": false,
			"inputs": [
				{
					"indexed": true,
					"internalType": "address",
					"name": "owner",
					"type": "address"
				},
				{
					"indexed": true,
					"internalType": "address",
					"name": "spender",
					"type": "address"
				},
				{
					"indexed": false,
					"internalType": "uint256",
					"name": "value",
					"type": "uint256"
				}
			],
			"name": "Approval",
			"type": "event"
		},
		{
			"anonymous": false,
			"inputs": [
				{
					"indexed": true,
					"internalType": "address",
					"name": "previousOwner",
					"type": "address"
				},
				{
					"indexed": true,
					"internalType": "address",
					"name": "newOwner",
					"type": "address"
				}
			],
			"name": "OwnershipTransferred",
			"type": "event"
		},
		{
			"anonymous": false,
			"inputs": [
				{
					"indexed": false,
					"internalType": "uint256",
					"name": "month",
					"type": "uint256"
				},
				{
					"indexed": false,
					"internalType": "uint256",
					"name": "amountPerWallet",
					"type": "uint256"
				},
				{
					"indexed": false,
					"internalType": "uint256",
					"name": "totalUnlocked",
					"type": "uint256"
				}
			],
			"name": "TokensUnlocked",
			"type": "event"
		},
		{
			"anonymous": false,
			"inputs": [
				{
					"indexed": true,
					"internalType": "address",
					"name": "from",
					"type": "address"
				},
				{
					"indexed": true,
					"internalType": "address",
					"name": "to",
					"type": "address"
				},
				{
					"indexed": false,
					"internalType": "uint256",
					"name": "value",
					"type": "uint256"
				}
			],
			"name": "Transfer",
			"type": "event"
		},
		{
			"inputs": [],
			"name": "LOCKED_SUPPLY",
			"outputs": [
				{
					"internalType": "uint256",
					"name": "",
					"type": "uint256"
				}
			],
			"stateMutability": "view",
			"type": "function"
		},
		{
			"inputs": [],
			"name": "PUBLIC_SUPPLY",
			"outputs": [
				{
					"internalType": "uint256",
					"name": "",
					"type": "uint256"
				}
			],
			"stateMutability": "view",
			"type": "function"
		},
		{
			"inputs": [],
			"name": "TOTAL_SUPPLY",
			"outputs": [
				{
					"internalType": "uint256",
					"name": "",
					"type": "uint256"
				}
			],
			"stateMutability": "view",
			"type": "function"
		},
		{
			"inputs": [
				{
					"internalType": "address",
					"name": "owner",
					"type": "address"
				},
				{
					"internalType": "address",
					"name": "spender",
					"type": "address"
				}
			],
			"name": "allowance",
			"outputs": [
				{
					"internalType": "uint256",
					"name": "",
					"type": "uint256"
				}
			],
			"stateMutability": "view",
			"type": "function"
		},
		{
			"inputs": [
				{
					"internalType": "address",
					"name": "spender",
					"type": "address"
				},
				{
					"internalType": "uint256",
					"name": "value",
					"type": "uint256"
				}
			],
			"name": "approve",
			"outputs": [
				{
					"internalType": "bool",
					"name": "",
					"type": "bool"
				}
			],
			"stateMutability": "nonpayable",
			"type": "function"
		},
		{
			"inputs": [],
			"name": "awardBonus",
			"outputs": [
				{
					"internalType": "address",
					"name": "",
					"type": "address"
				}
			],
			"stateMutability": "view",
			"type": "function"
		},
		{
			"inputs": [
				{
					"internalType": "address",
					"name": "account",
					"type": "address"
				}
			],
			"name": "balanceOf",
			"outputs": [
				{
					"internalType": "uint256",
					"name": "",
					"type": "uint256"
				}
			],
			"stateMutability": "view",
			"type": "function"
		},
		{
			"inputs": [],
			"name": "decimals",
			"outputs": [
				{
					"internalType": "uint8",
					"name": "",
					"type": "uint8"
				}
			],
			"stateMutability": "view",
			"type": "function"
		},
		{
			"inputs": [],
			"name": "gameTreasury",
			"outputs": [
				{
					"internalType": "address",
					"name": "",
					"type": "address"
				}
			],
			"stateMutability": "view",
			"type": "function"
		},
		{
			"inputs": [],
			"name": "getNextUnlockInfo",
			"outputs": [
				{
					"internalType": "uint256",
					"name": "month",
					"type": "uint256"
				},
				{
					"internalType": "uint256",
					"name": "amountTotal",
					"type": "uint256"
				},
				{
					"internalType": "uint256",
					"name": "perWallet",
					"type": "uint256"
				}
			],
			"stateMutability": "view",
			"type": "function"
		},
		{
			"inputs": [],
			"name": "lastUnlockMonth",
			"outputs": [
				{
					"internalType": "uint256",
					"name": "",
					"type": "uint256"
				}
			],
			"stateMutability": "view",
			"type": "function"
		},
		{
			"inputs": [],
			"name": "liquidityListing",
			"outputs": [
				{
					"internalType": "address",
					"name": "",
					"type": "address"
				}
			],
			"stateMutability": "view",
			"type": "function"
		},
		{
			"inputs": [],
			"name": "marketing",
			"outputs": [
				{
					"internalType": "address",
					"name": "",
					"type": "address"
				}
			],
			"stateMutability": "view",
			"type": "function"
		},
		{
			"inputs": [],
			"name": "name",
			"outputs": [
				{
					"internalType": "string",
					"name": "",
					"type": "string"
				}
			],
			"stateMutability": "view",
			"type": "function"
		},
		{
			"inputs": [],
			"name": "owner",
			"outputs": [
				{
					"internalType": "address",
					"name": "",
					"type": "address"
				}
			],
			"stateMutability": "view",
			"type": "function"
		},
		{
			"inputs": [],
			"name": "referralBonus",
			"outputs": [
				{
					"internalType": "address",
					"name": "",
					"type": "address"
				}
			],
			"stateMutability": "view",
			"type": "function"
		},
		{
			"inputs": [],
			"name": "renounceOwnership",
			"outputs": [],
			"stateMutability": "nonpayable",
			"type": "function"
		},
		{
			"inputs": [],
			"name": "stakingReward",
			"outputs": [
				{
					"internalType": "address",
					"name": "",
					"type": "address"
				}
			],
			"stateMutability": "view",
			"type": "function"
		},
		{
			"inputs": [],
			"name": "startTimestamp",
			"outputs": [
				{
					"internalType": "uint256",
					"name": "",
					"type": "uint256"
				}
			],
			"stateMutability": "view",
			"type": "function"
		},
		{
			"inputs": [],
			"name": "symbol",
			"outputs": [
				{
					"internalType": "string",
					"name": "",
					"type": "string"
				}
			],
			"stateMutability": "view",
			"type": "function"
		},
		{
			"inputs": [],
			"name": "totalSupply",
			"outputs": [
				{
					"internalType": "uint256",
					"name": "",
					"type": "uint256"
				}
			],
			"stateMutability": "view",
			"type": "function"
		},
		{
			"inputs": [],
			"name": "totalUnlocked",
			"outputs": [
				{
					"internalType": "uint256",
					"name": "",
					"type": "uint256"
				}
			],
			"stateMutability": "view",
			"type": "function"
		},
		{
			"inputs": [
				{
					"internalType": "address",
					"name": "to",
					"type": "address"
				},
				{
					"internalType": "uint256",
					"name": "value",
					"type": "uint256"
				}
			],
			"name": "transfer",
			"outputs": [
				{
					"internalType": "bool",
					"name": "",
					"type": "bool"
				}
			],
			"stateMutability": "nonpayable",
			"type": "function"
		},
		{
			"inputs": [
				{
					"internalType": "address",
					"name": "from",
					"type": "address"
				},
				{
					"internalType": "address",
					"name": "to",
					"type": "address"
				},
				{
					"internalType": "uint256",
					"name": "value",
					"type": "uint256"
				}
			],
			"name": "transferFrom",
			"outputs": [
				{
					"internalType": "bool",
					"name": "",
					"type": "bool"
				}
			],
			"stateMutability": "nonpayable",
			"type": "function"
		},
		{
			"inputs": [
				{
					"internalType": "address",
					"name": "newOwner",
					"type": "address"
				}
			],
			"name": "transferOwnership",
			"outputs": [],
			"stateMutability": "nonpayable",
			"type": "function"
		},
		{
			"inputs": [],
			"name": "unlockTokens",
			"outputs": [],
			"stateMutability": "nonpayable",
			"type": "function"
		},
		{
			"inputs": [
				{
					"internalType": "uint256",
					"name": "index",
					"type": "uint256"
				},
				{
					"internalType": "address",
					"name": "newAddress",
					"type": "address"
				}
			],
			"name": "updateDistributionAddress",
			"outputs": [],
			"stateMutability": "nonpayable",
			"type": "function"
		}
	]
}