{
	"data": {
		"bytecode": {
			"linkReferences": {},
			"object": "60806040525f8080556001818155600282905560038054731419ac3544770ac32fbc3e70129e7eb0197612f66001600160a01b03199182168117909255600480548216909217909155600580549091169055600682905560078290556008805460ff199081168317909155600992909255600a805490921617905534801562000086575f80fd5b50600a8054610100600160a81b0319163361010002179055620000a8620000ae565b62001539565b620000b8620000d8565b620000c26200020f565b620000cc620008de565b620000d662000d87565b565b60098054905f620000e98362001279565b91905055506040518061012001604052806009548152602001604051806040016040528060078152602001665061636b61676560c81b81525081526020015f815260200160011515815260200160011515815260200162000151601e62000da260201b60201c565b815260200162000163610bb862000da2565b81525f6020808301829052600160409384018190526009548352600b825292909120835181559083015190918201906200019e908262001334565b50604082015160028201556060820151600382018054608085015161ffff1990911692151561ff00191692909217610100921515830217905560a0830151600483015560c0830151600583015560e08301516006830155909101516007909101805460ff1916911515919091179055565b60068054905f620002208362001279565b909155505060408051606081018252600680548083526101f460208085019182525f858701818152938152600c9091529485209351845551600184015551600290920191909155805491620002758362001279565b9091555050604080516060810182526006805480835261012c602080850191825260018587018181525f948552600c909252958320945185559051948401949094559251600290920191909155805491620002d08362001279565b9091555050604080516060810182526006805480835260c8602080850191825260018587018181525f948552600c9092529583209451855590519484019490945592516002909201919091558054916200032a8362001279565b90915550506040805160608101825260068054808352610190602080850191825260028587018181525f948552600c9092529583209451855590516001850155519290930191909155805491620003818362001279565b9091555050604080516060810182526006805480835260c8602080850191825260028587018181525f948552600c9092529583209451855590516001850155519290930191909155805491620003d78362001279565b9091555050604080516060810182526006805480835260c8602080850191825260028587018181525f948552600c90925295832094518555905160018501555192909301919091558054916200042d8362001279565b909155505060408051606081018252600680548083526064602080850191825260028587018181525f948552600c9092529583209451855590516001850155519290930191909155805491620004838362001279565b909155505060408051606081018252600680548083526064602080850191825260028587018181525f948552600c9092529583209451855590516001850155519290930191909155805491620004d98362001279565b9091555050604080516060810182526006805480835260c8602080850191825260038587019081525f938452600c909152948220935184555160018401559251600290920191909155805491620005308362001279565b909155505060408051606081018252600680548083526064602080850191825260038587019081525f938452600c909152948220935184555160018401559251600290920191909155805491620005878362001279565b909155505060408051606081018252600680548083526032602080850191825260038587019081525f938452600c909152948220935184555160018401559251600290920191909155805491620005de8362001279565b909155505060408051606081018252600680548083526032602080850191825260038587019081525f938452600c909152948220935184555160018401559251600290920191909155805491620006358362001279565b909155505060408051606081018252600680548083526032602080850191825260038587019081525f938452600c9091529482209351845551600184015592516002909201919091558054916200068c8362001279565b909155505060408051606081018252600680548083526064602080850191825260048587019081525f938452600c909152948220935184555160018401559251600290920191909155805491620006e38362001279565b909155505060408051606081018252600680548083526032602080850191825260048587019081525f938452600c9091529482209351845551600184015592516002909201919091558054916200073a8362001279565b909155505060408051606081018252600680548083526019602080850191825260048587019081525f938452600c909152948220935184555160018401559251600290920191909155805491620007918362001279565b909155505060408051606081018252600680548083526019602080850191825260048587019081525f938452600c909152948220935184555160018401559251600290920191909155805491620007e88362001279565b909155505060408051606081018252600680548083526019602080850191825260048587019081525f938452600c9091529482209351845551600184015592516002909201919091558054916200083f8362001279565b909155505060408051606081018252600680548083526019602080850191825260048587019081525f938452600c909152948220935184555160018401559251600290920191909155805491620008968362001279565b9091555050604080516060810182526006548082526019602080840191825260048486019081525f938452600c90915293909120915182555160018201559051600290910155565b60078054905f620008ef8362001279565b91905055506040518060c00160405280600754815260200160405180604001604052806006815260200165189029ba30b960d11b81525081526020016200093e61012c62000da260201b60201c565b8152602001620009506103e862000da2565b8152602001620009626103e862000da2565b8152602001620009725f62000da2565b90526007545f908152600d6020908152604090912082518155908201516001820190620009a0908262001334565b5060408201516002820155606082015160038201556080820151600482015560a09091015160059091015560078054905f620009dc8362001279565b91905055506040518060c00160405280600754815260200160405180604001604052806006815260200165191029ba30b960d11b815250815260200162000a2b6101f462000da260201b60201c565b815260200162000a3d61138862000da2565b815260200162000a4f61138862000da2565b815260200162000a5f5f62000da2565b90526007545f908152600d602090815260409091208251815590820151600182019062000a8d908262001334565b5060408201516002820155606082015160038201556080820151600482015560a09091015160059091015560078054905f62000ac98362001279565b91905055506040518060c00160405280600754815260200160405180604001604052806006815260200165199029ba30b960d11b815250815260200162000b186103e862000da260201b60201c565b815260200162000b2a61271062000da2565b815260200162000b3c61271062000da2565b815260200162000b4c5f62000da2565b90526007545f908152600d602090815260409091208251815590820151600182019062000b7a908262001334565b5060408201516002820155606082015160038201556080820151600482015560a09091015160059091015560078054905f62000bb68362001279565b91905055506040518060c001604052806007548152602001604051806040016040528060068152602001651a1029ba30b960d11b815250815260200162000c056107d062000da260201b60201c565b815260200162000c176161a862000da2565b815260200162000c296161a862000da2565b815260200162000c3b6109c462000da2565b90526007545f908152600d602090815260409091208251815590820151600182019062000c69908262001334565b5060408201516002820155606082015160038201556080820151600482015560a09091015160059091015560078054905f62000ca58362001279565b91905055506040518060c001604052806007548152602001604051806040016040528060068152602001651a9029ba30b960d11b815250815260200162000cf4610bb862000da260201b60201c565b815260200162000d07620124f862000da2565b815260200162000d1a620124f862000da2565b815260200162000d2c61138862000da2565b90526007545f908152600d602090815260409091208251815590820151600182019062000d5a908262001334565b5060408201516002820155606082015160038201556080820151600482015560a090910151600590910155565b6003546001600160a01b031662000d9f815f62000dc3565b50565b5f62000db16012600a620014f5565b62000dbd908362001509565b92915050565b5f8054908062000dd38362001279565b91905055505f6040518061018001604052805f548152602001846001600160a01b03168152602001836001600160a01b031681526020014281526020015f81526020015f81526020015f151581526020015f81526020015f81526020015f81526020015f151581526020015f151581525090505f6040518060c001604052805f81526020015f6001600160401b0381111562000e735762000e7362001294565b60405190808252806020026020018201604052801562000e9d578160200160208202803683370190505b5081526020015f81526020015f81526020015f81526020015f6001600160401b0381111562000ed05762000ed062001294565b60405190808252806020026020018201604052801562000efa578160200160208202803683370190505b5081525090505f6040518060e001604052805f81526020015f81526020015f8152602001600654600162000f2f919062001523565b6001600160401b0381111562000f495762000f4962001294565b60405190808252806020026020018201604052801562000f73578160200160208202803683370190505b5081525f602080830182905260408084018390526060938401839052805180850182528381528083018490528082018490526001600160a01b038b81168552600e84528285208a5181558a850151600180830180546001600160a01b03199081169386169390931790558c8601516002840180549093169416939093179055958a0151600387015560808a0151600487015560a08a0151600587015560c08a015160068701805460ff191691151591909117905560e08a01516007870155610100808b015160088801556101208b015160098801556101408b0151600a90970180546101608d015161ffff1990911698151561ff001916989098179715159091029690961790955560108352922086518155868201518051959650929487949193620010a593928501920190620011ab565b5060408201516002820155606082015160038201556080820151600482015560a08201518051620010e1916005840191602090910190620011ab565b5050506001600160a01b0386165f9081526015602090815260409182902084518155818501516001820155918401516002830155606084015180518593926200113292600385019291019062001213565b506080820151600482015560a0820151600582015560c0909101516006909101555f80548152600f6020908152604080832080546001600160a01b03909a166001600160a01b0319909a168a17905597825260178152908790208251815590820151600182015595015160029095019490945550505050565b828054828255905f5260205f2090810192821562001201579160200282015b828111156200120157825182546001600160a01b0319166001600160a01b03909116178255602090920191600190910190620011ca565b506200120f9291506200124f565b5090565b828054828255905f5260205f2090810192821562001201579160200282015b828111156200120157825182559160200191906001019062001232565b5b808211156200120f575f815560010162001250565b634e487b7160e01b5f52601160045260245ffd5b5f600182016200128d576200128d62001265565b5060010190565b634e487b7160e01b5f52604160045260245ffd5b600181811c90821680620012bd57607f821691505b602082108103620012dc57634e487b7160e01b5f52602260045260245ffd5b50919050565b601f8211156200132f575f81815260208120601f850160051c810160208610156200130a5750805b601f850160051c820191505b818110156200132b5782815560010162001316565b5050505b505050565b81516001600160401b0381111562001350576200135062001294565b6200136881620013618454620012a8565b84620012e2565b602080601f8311600181146200139e575f8415620013865750858301515b5f19600386901b1c1916600185901b1785556200132b565b5f85815260208120601f198616915b82811015620013ce57888601518255948401946001909101908401620013ad565b5085821015620013ec57878501515f19600388901b60f8161c191681555b5050505050600190811b01905550565b600181815b808511156200143c57815f190482111562001420576200142062001265565b808516156200142e57918102915b93841c939080029062001401565b509250929050565b5f82620014545750600162000dbd565b816200146257505f62000dbd565b81600181146200147b57600281146200148657620014a6565b600191505062000dbd565b60ff8411156200149a576200149a62001265565b50506001821b62000dbd565b5060208310610133831016604e8410600b8410161715620014cb575081810a62000dbd565b620014d78383620013fc565b805f1904821115620014ed57620014ed62001265565b029392505050565b5f62001502838362001444565b9392505050565b808202811582820484141762000dbd5762000dbd62001265565b8082018082111562000dbd5762000dbd62001265565b61466380620015475f395ff3fe608060405260043610610212575f3560e01c80636b1a70861161011e578063ba32f6f4116100a8578063eecc1c951161006d578063eecc1c9514610914578063eeda149c14610943578063f279e6a114610956578063fd0bb36c14610975578063ff9b6364146109b6575f80fd5b8063ba32f6f4146107d9578063c5f00964146107f8578063ca4810af14610832578063e315927b14610868578063edbdc914146108e3575f80fd5b8063a18a609a116100ee578063a18a609a1461072a578063a3af609b1461075e578063a4b6f5e114610771578063a5f9452114610786578063ac3a4800146107a5575f80fd5b80636b1a70861461064e578063705116a0146106a5578063759369d2146106df57806388cb410d1461070b575f80fd5b80634788312f1161019f5780635b6b431d1161016f5780635b6b431d146104d85780635be94e83146104f75780635cf7551714610523578063641fba961461061b57806368ec2fbe1461062f575f80fd5b80634788312f1461044a5780634a40f2fe1461045f57806354a03e381461048b5780635a015583146104b7575f80fd5b80632a530a36116101e55780632a530a361461031e5780632e628e2e1461037e578063365152fa146103aa5780633936e8b91461040a5780633daa551c14610429575f80fd5b806307d94067146102165780631362e8e61461026d5780631bfe37ce146102b15780631cfa6e9b146102e7575b5f80fd5b348015610221575f80fd5b50610253610230366004613f25565b601260209081525f92835260408084209091529082529020805460019091015482565b604080519283526020830191909152015b60405180910390f35b348015610278575f80fd5b506102a3610287366004613f25565b601660209081525f928352604080842090915290825290205481565b604051908152602001610264565b3480156102bc575f80fd5b506102a36102cb366004613f25565b601360209081525f928352604080842090915290825290205481565b3480156102f2575f80fd5b50600354610306906001600160a01b031681565b6040516001600160a01b039091168152602001610264565b348015610329575f80fd5b5061035e610338366004613f4d565b60106020525f908152604090208054600282015460038301546004909301549192909184565b604080519485526020850193909352918301526060820152608001610264565b348015610389575f80fd5b5061039d610398366004613f66565b6109ca565b6040516102649190613f96565b3480156103b5575f80fd5b506103ef6103c4366004613f25565b601160209081525f928352604080842090915290825290208054600182015460029092015490919083565b60408051938452602084019290925290820152606001610264565b348015610415575f80fd5b50600454610306906001600160a01b031681565b348015610434575f80fd5b5061043d610b5c565b6040516102649190614031565b348015610455575f80fd5b506102a360025481565b34801561046a575f80fd5b5061047e610479366004613f4d565b610d55565b60405161026491906140fb565b348015610496575f80fd5b506104aa6104a5366004613f4d565b610ecb565b6040516102649190614171565b3480156104c2575f80fd5b506104d66104d1366004614246565b6112f4565b005b3480156104e3575f80fd5b506104d66104f236600461427f565b611489565b348015610502575f80fd5b50610516610511366004613f4d565b6117bf565b6040516102649190614296565b34801561052e575f80fd5b506105b061053d366004613f4d565b600e6020525f9081526040902080546001820154600283015460038401546004850154600586015460068701546007880154600889015460098a0154600a909a015498996001600160a01b0398891699979098169795969495939460ff938416949293919291818116916101009004168c565b604080519c8d526001600160a01b039b8c1660208e015299909a16988b019890985260608a0196909652608089019490945260a0880192909252151560c087015260e08601526101008501526101208401521515610140830152151561016082015261018001610264565b348015610626575f80fd5b506102a35f5481565b34801561063a575f80fd5b506104d6610649366004613f4d565b6119c9565b348015610659575f80fd5b50610662611a0f565b60405161026491905f60a0820190508251825260208301516020830152604083015160408301526060830151606083015260808301511515608083015292915050565b3480156106b0575f80fd5b506103ef6106bf36600461427f565b600c6020525f908152604090208054600182015460029092015490919083565b3480156106ea575f80fd5b506106fe6106f9366004613f66565b611a7d565b60405161026491906142f5565b348015610716575f80fd5b50600554610306906001600160a01b031681565b348015610735575f80fd5b5061074961074436600461427f565b611bf0565b60405161026499989796959493929190614336565b6104d661076c36600461438a565b611cc8565b34801561077c575f80fd5b506102a360015481565b348015610791575f80fd5b506104d66107a0366004613f4d565b611cd6565b3480156107b0575f80fd5b506103066107bf36600461427f565b600f6020525f90815260409020546001600160a01b031681565b3480156107e4575f80fd5b506104d66107f3366004613f4d565b611d1c565b348015610803575f80fd5b506103ef610812366004613f4d565b60176020525f908152604090208054600182015460029092015490919083565b34801561083d575f80fd5b506102a361084c366004613f25565b601460209081525f928352604080842090915290825290205481565b348015610873575f80fd5b506108b6610882366004613f4d565b60156020525f9081526040902080546001820154600283015460048401546005850154600690950154939492939192909186565b604080519687526020870195909552938501929092526060840152608083015260a082015260c001610264565b3480156108ee575f80fd5b506109026108fd36600461427f565b611d62565b604051610264969594939291906143aa565b34801561091f575f80fd5b5061093361092e366004613f4d565b611e1c565b6040519015158152602001610264565b6104d6610951366004613f4d565b611e63565b348015610961575f80fd5b506104d6610970366004613f66565b611e6f565b348015610980575f80fd5b506102a361098f366004613f25565b6001600160a01b03919091165f908152601660209081526040808320938352929052205490565b3480156109c1575f80fd5b506109336120c7565b6001600160a01b0383165f9081526017602052604090205460609067ffffffffffffffff8111156109fd576109fd6143e7565b604051908082528060200260200182016040528015610a4f57816020015b610a3c60405180606001604052805f81526020015f81526020015f81525090565b815260200190600190039081610a1b5790505b506001600160a01b0385165f9081526017602052604081205491925090610a76848661440f565b11610a8a57610a85838561440f565b610aa3565b6001600160a01b0385165f908152601760205260409020545b90505f83821015610ab4575f610abe565b610abe8483614426565b90505f825b82811115610b51576001600160a01b0388165f90815260116020908152604080832084845282529182902082516060810184528154815260018201549281019290925260020154918101919091528551869084908110610b2557610b25614439565b60200260200101819052508180610b3b9061444d565b9250508080610b4990614465565b915050610ac3565b505050509392505050565b60605f60095467ffffffffffffffff811115610b7a57610b7a6143e7565b604051908082528060200260200182016040528015610bf857816020015b610be56040518061012001604052805f8152602001606081526020015f81526020015f151581526020015f151581526020015f81526020015f81526020015f81526020015f151581525090565b815260200190600190039081610b985790505b50905060015b6009548111610d4f57600b5f8281526020019081526020015f20604051806101200160405290815f8201548152602001600182018054610c3d9061447a565b80601f0160208091040260200160405190810160405280929190818152602001828054610c699061447a565b8015610cb45780601f10610c8b57610100808354040283529160200191610cb4565b820191905f5260205f20905b815481529060010190602001808311610c9757829003601f168201915b505050918352505060028201546020820152600382015460ff8082161515604084015261010090910481161515606083015260048301546080830152600583015460a0830152600683015460c0830152600790920154909116151560e09091015282610d21600184614426565b81518110610d3157610d31614439565b60200260200101819052508080610d479061444d565b915050610bfe565b50919050565b606060065467ffffffffffffffff811115610d7257610d726143e7565b604051908082528060200260200182016040528015610dde57816020015b610dcb6040518060e001604052805f81526020015f81526020015f81526020015f81526020015f81526020015f81526020015f151581525090565b815260200190600190039081610d905790505b50905060015b6006548111610d4f576040805160e0810182528281525f838152600c60209081528382206002810154828501526001600160a01b038816808452600e83528584206009015485870152808452601383528584208785528352858420546060860152600190910154608085015282526015905291909120600301805460a08301919084908110610e7557610e75614439565b905f5260205f2001548152602001610e8d8584612122565b1515905282610e9d600184614426565b81518110610ead57610ead614439565b60200260200101819052508080610ec39061444d565b915050610de4565b610f36604051806101e001604052805f81526020015f81526020015f81526020015f81526020015f81526020015f81526020015f81526020015f81526020015f81526020015f81526020015f81526020015f81526020015f81526020015f8152602001606081525090565b6001600160a01b038083165f818152600e60209081526040808320815161018081018352815481526001808301548816828601526002830154909716818401526003820154606082015260048201546080820152600582015460a0820152600682015460ff908116151560c080840191909152600784015460e08401526008840154610100808501919091526009850154610120850152600a9094015480831615156101408501529390930416151561016082015294845260108352818420825191820183528054825295860180548351818602810186019094528084529596949591949385810193929083018282801561105857602002820191905f5260205f20905b81546001600160a01b0316815260019091019060200180831161103a575b50505050508152602001600282015481526020016003820154815260200160048201548152602001600582018054806020026020016040519081016040528092919081815260200182805480156110d657602002820191905f5260205f20905b81546001600160a01b031681526001909101906020018083116110b8575b50505050508152505090505f60155f866001600160a01b03166001600160a01b031681526020019081526020015f206040518060e00160405290815f820154815260200160018201548152602001600282015481526020016003820180548060200260200160405190810160405280929190818152602001828054801561117a57602002820191905f5260205f20905b815481526020019060010190808311611166575b5050505050815260200160048201548152602001600582015481526020016006820154815250509050604051806101e0016040528083602001515181526020018460a00151815260200183604001518152602001836060015181526020018360800151815260200182602001518152602001825f015181526020016111fe87612162565b8152602001826040015181526020016112168761226a565b8152602001826080015181526020018260a001518152602001611238876122c1565b81526020018260c001518152602001600d5f86610120015181526020019081526020015f20600101805461126b9061447a565b80601f01602080910402602001604051908101604052809291908181526020018280546112979061447a565b80156112e25780601f106112b9576101008083540402835291602001916112e2565b820191905f5260205f20905b8154815290600101906020018083116112c557829003601f168201915b50505050508152509350505050919050565b6112fc61232f565b611304573392505b61130d83611e1c565b6113565760405162461bcd60e51b8152602060048201526015602482015274496e76616c69642073656e64696e6720757365722160581b60448201526064015b60405180910390fd5b61135f82611e1c565b6113ab5760405162461bcd60e51b815260206004820152601760248201527f496e76616c696420726563656976696e67207573657221000000000000000000604482015260640161134d565b6001600160a01b0383165f908152601660209081526040808320600284529091529020548111156114145760405162461bcd60e51b8152602060048201526013602482015272496e73756666696369656e742066756e64732160681b604482015260640161134d565b6001600160a01b0383165f9081526016602090815260408083206002845290915281208054839290611447908490614426565b90915550506001600160a01b0382165f908152601660209081526040808320600284529091528120805483929061147f9084906144ac565b9091555050505050565b335f61149361235c565b90506114b5826001600160a01b03165f908152600e6020526040902054151590565b6114f15760405162461bcd60e51b815260206004820152600d60248201526c496e76616c696420757365722160981b604482015260640161134d565b6001600160a01b0382165f908152600e602052604090206006015460ff161561152c5760405162461bcd60e51b815260040161134d906144bf565b6001600160a01b0382165f908152601660209081526040808320600184529091529020548311156115955760405162461bcd60e51b8152602060048201526013602482015272496e73756666696369656e742066756e64732160681b604482015260640161134d565b6001600160a01b0382165f908152600e60209081526040808320600401546015909252909120600601546115ca9085906144ac565b1115806115ed5750600a5460ff1680156115ed575068056bc75e2d631000008110155b61165f5760405162461bcd60e51b815260206004820152603960248201527f5769746864726177616c206265796f6e64207072696e6369706c65206973207060448201527f726f686962697465642061742074686973206d6f6d656e742100000000000000606482015260840161134d565b6001600160a01b0382165f9081526016602090815260408083206001845290915281208054859290611692908490614426565b90915550506001600160a01b0382165f90815260156020526040812060060180548592906116c19084906144ac565b909155505f905060646116d585600561440f565b6116df91906144ed565b90505f6116ec8286614426565b604080518082018252878152426020808301919091526001600160a01b0388165f90815260128252838120601790925292832060019081015494955091938493919261173891906144ac565b815260208082019290925260409081015f90812084518155938301516001948501556001600160a01b03891681526017909252812090910180549161177c8361444d565b91905055508584106117ad5761179285836123cf565b6005546117a8906001600160a01b0316846123cf565b6117b7565b6117b78583612451565b505050505050565b6001600160a01b0381165f9081526010602052604090206001015460609067ffffffffffffffff8111156117f5576117f56143e7565b60405190808252806020026020018201604052801561185657816020015b61184360405180608001604052805f81526020015f6001600160a01b031681526020015f81526020015f81525090565b8152602001906001900390816118135790505b5090505f5b6001600160a01b0383165f90815260106020526040902060010154811015610d4f57604051806080016040528082600161189591906144ac565b815260200160105f866001600160a01b03166001600160a01b031681526020019081526020015f2060010183815481106118d1576118d1614439565b5f9182526020808320909101546001600160a01b03908116845287168252601081526040822060010180549390910192600e9291908690811061191657611916614439565b5f9182526020808320909101546001600160a01b039081168452838201949094526040928301822060040154855292881681526010835290812060010180549390920192600e92908690811061196e5761196e614439565b5f9182526020808320909101546001600160a01b03168352820192909252604001902060040154905282518390839081106119ab576119ab614439565b602002602001018190525080806119c19061444d565b91505061185b565b6119d161232f565b6119ed5760405162461bcd60e51b815260040161134d906144bf565b600380546001600160a01b0319166001600160a01b0392909216919091179055565b611a3e6040518060a001604052805f81526020015f81526020015f81526020015f81526020015f151581525090565b6040518060a001604052805f54815260200160015481526020016002548152602001611a6861235c565b8152600a5460ff161515602090910152919050565b6001600160a01b0383165f9081526017602052604090206001015460609067ffffffffffffffff811115611ab357611ab36143e7565b604051908082528060200260200182016040528015611af757816020015b604080518082019091525f8082526020820152815260200190600190039081611ad15790505b506001600160a01b0385165f9081526017602052604081206001015491925090611b21848661440f565b11611b3557611b30838561440f565b611b51565b6001600160a01b0385165f908152601760205260409020600101545b90505f83821015611b62575f611b6c565b611b6c8483614426565b90505f825b82811115610b51576001600160a01b0388165f90815260126020908152604080832084845282529182902082518084019093528054835260010154908201528551869084908110611bc457611bc4614439565b60200260200101819052508180611bda9061444d565b9250508080611be890614465565b915050611b71565b600b6020525f908152604090208054600182018054919291611c119061447a565b80601f0160208091040260200160405190810160405280929190818152602001828054611c3d9061447a565b8015611c885780601f10611c5f57610100808354040283529160200191611c88565b820191905f5260205f20905b815481529060010190602001808311611c6b57829003601f168201915b50505050600283015460038401546004850154600586015460068701546007909701549596939560ff808516965061010090940484169492939192911689565b611cd28282612520565b5050565b611cde61232f565b611cfa5760405162461bcd60e51b815260040161134d906144bf565b600580546001600160a01b0319166001600160a01b0392909216919091179055565b611d2461232f565b611d405760405162461bcd60e51b815260040161134d906144bf565b600480546001600160a01b0319166001600160a01b0392909216919091179055565b600d6020525f908152604090208054600182018054919291611d839061447a565b80601f0160208091040260200160405190810160405280929190818152602001828054611daf9061447a565b8015611dfa5780601f10611dd157610100808354040283529160200191611dfa565b820191905f5260205f20905b815481529060010190602001808311611ddd57829003601f168201915b5050505050908060020154908060030154908060040154908060050154905086565b6001600160a01b0381165f908152600e602052604081205415158015611e5d57506001600160a01b0382165f908152600e602052604090206006015460ff16155b92915050565b611e6c81612659565b50565b611e7761232f565b611eb95760405162461bcd60e51b8152602060048201526013602482015272165bdd48185c99481b9bdd08185b1b1bddd959606a1b604482015260640161134d565b80600203611ef0575060015f52600b6020527f72c6bfb7988af3a1efa6568f02a999bc52252641c659d85961ca3d372b57d5d45550565b80600303611f36576001600160a01b0383165f9081526016602090815260408083206001845290915281208054849290611f2b9084906144ac565b90915550611fee9050565b80600403611f71576001600160a01b0383165f9081526016602090815260408083206001845290915281208054849290611f2b908490614426565b80600503611fa3576001600160a01b0383165f908152600e60205260409020600601805460ff19166001179055505050565b80600603611fd05750506001600160a01b03165f908152600e60205260409020600601805460ff19169055565b80600703611ff357600354611fee906001600160a01b0316836123cf565b505050565b8060080361202e576001600160a01b0383165f9081526016602090815260408083206002845290915281208054849290611f2b9084906144ac565b80600903612069576001600160a01b0383165f9081526016602090815260408083206002845290915281208054849290611f2b908490614426565b80600a0361208057600a805460ff19169055505050565b80600b0361209a57600a805460ff19166001179055505050565b80600c03611fee57600a8054610100600160a81b0319166101006001600160a01b03861602179055505050565b335f908152600e60205260408120600801544210156121125760405162461bcd60e51b81526020600482015260076024820152664163746976652160c81b604482015260640161134d565b61211d33425f612707565b905090565b5f818152600c60209081526040808320600201546001600160a01b0386168452600e9092528220600901541061215a57506001611e5d565b505f92915050565b6001600160a01b0381165f908152601560209081526040808320815160e08101835281548152600182015481850152600282015481840152600382018054845181870281018701909552808552869586959394936060860193909290918301828280156121ec57602002820191905f5260205f20905b8154815260200190600101908083116121d8575b50505050508152602001600482015481526020016005820154815260200160068201548152505090505f5b816060015151811015612261578160600151818151811061223a5761223a614439565b60200260200101518361224d91906144ac565b9250806122598161444d565b915050612217565b50909392505050565b6001600160a01b0381165f908152600e602052604081206004810154600890910154829042106122ba5760646122a183600a61440f565b6122ab91906144ed565b90506122b784826127b2565b90505b9392505050565b5f6122cb82612162565b6001600160a01b0383165f90815260156020526040902060058101546001820154600483015460028401549354929391929091612307916144ac565b61231191906144ac565b61231b91906144ac565b61232591906144ac565b611e5d91906144ac565b6003545f906001600160a01b031633148061211d575050600a5461010090046001600160a01b0316331490565b6040516370a0823160e01b81523060048201525f9073ac17996d3a9a3081f626cd56e904a70e9dadf892906370a0823190602401602060405180830381865afa1580156123ab573d5f803e3d5ffd5b505050506040513d601f19601f8201168201806040525081019061211d919061450c565b60405163a9059cbb60e01b81526001600160a01b03831660048201526024810182905273ac17996d3a9a3081f626cd56e904a70e9dadf8929063a9059cbb906044016020604051808303815f875af115801561242d573d5f803e3d5ffd5b505050506040513d601f19601f82011682018060405250810190611fee9190614523565b6005546001600160a01b03166124a95760405162461bcd60e51b815260206004820152601e60248201527f53656375726974792066756e6420636f6e7472616374206e6f74207365740000604482015260640161134d565b6005546040516358908a0f60e01b815273ac17996d3a9a3081f626cd56e904a70e9dadf89260048201526001600160a01b03848116602483015260448201849052909116906358908a0f906064015f604051808303815f87803b15801561250e575f80fd5b505af11580156117b7573d5f803e3d5ffd5b335f818152600e602052604090205461257b5760405162461bcd60e51b815260206004820152601760248201527f596f7520617265206e6f74207265676973746572656421000000000000000000604482015260640161134d565b6001600160a01b0381165f908152600e60205260409020600801544210156125f75760405162461bcd60e51b815260206004820152602960248201527f4465706f73697420697320616c6c6f776564206f6e6c79206166746572207468604482015268329032bc3834b93c9760b91b606482015260840161134d565b61260082612858565b61260b81848461293a565b6003805461263c916001600160a01b039091169060649061262d90869061440f565b61263791906144ed565b6123cf565b600454611fee906001600160a01b0316606461262d85600561440f565b3361266382611e1c565b6126a25760405162461bcd60e51b815260206004820152601060248201526f496e76616c69642073706f6e736f722160801b604482015260640161134d565b6001600160a01b0381165f908152600e6020526040902054156126fd5760405162461bcd60e51b8152602060048201526013602482015272416c726561647920726567697374657265642160681b604482015260640161134d565b611cd28183612d46565b6001600160a01b0383165f908152601760205260408120600290810154829161272f916144ed565b61273a90600a6144ac565b90505f61274a826201518061440f565b61275490866144ac565b6001600160a01b0387165f908152600e602090815260408083206008018490556017909152812060020180549293509061278d8361444d565b919050555061279d86868661311b565b6127a6866131a9565b50600195945050505050565b5f8115610d4f576001600160a01b0383165f908152600e602052604090206008015442106127e157505f611e5d565b5f6127eb846122c1565b6001600160a01b0385165f908152600e602052604081206004810154600a90910154929350909160ff16612820576003612823565b60045b60ff16612830919061440f565b90508061283d85846144ac565b11156128505761284d8282614426565b93505b505050919050565b5f61286161235c565b6040516323b872dd60e01b81523360048201523060248201526044810184905290915073ac17996d3a9a3081f626cd56e904a70e9dadf892906323b872dd906064016020604051808303815f875af11580156128bf573d5f803e3d5ffd5b505050506040513d601f19601f820116820180604052508101906128e39190614523565b505f6128ed61235c565b9050826128fa8383614426565b1015611fee5760405162461bcd60e51b815260206004820152600f60248201526e496e76616c696420616d6f756e742160881b604482015260640161134d565b5f828152600b602052604090206003015460ff1680156129e157505f828152600b6020526040902060030154610100900460ff1615801561298a57505f828152600b602052604090206002015481145b806129e157505f828152600b6020526040902060030154610100900460ff1680156129c557505f828152600b60205260409020600401548110155b80156129e157505f828152600b60205260409020600501548111155b612a1f5760405162461bcd60e51b815260206004820152600f60248201526e496e76616c696420616d6f756e742160881b604482015260640161134d565b6001600160a01b0383165f90815260116020908152604080832060178352818420548452909152902060010154811015612ac15760405162461bcd60e51b815260206004820152603d60248201527f416d6f756e74206d75737420626520657175616c20746f206f72206d6f72652060448201527f7468616e2070726576696f7573206465706f73697420616d6f756e742e000000606482015260840161134d565b5f4290508160015f828254612ad691906144ac565b90915550506001600160a01b038481165f908152600e602052604090206002810154600a90910154911690610100900460ff16612b67576001600160a01b03811615612b5d576001600160a01b038181165f9081526010602090815260408220600190810180549182018155835291200180546001600160a01b0319169187169190911790555b612b67818661331b565b6001600160a01b0385165f908152600e602052604081206004018054859290612b919084906144ac565b90915550506001600160a01b0381165f9081526010602052604081208054859290612bbd9084906144ac565b90915550612bce90508186856133a9565b6040805160608101825285815260208101859052908101839052612bf386855f613511565b6001600160a01b0386165f9081526011602090815260408083206017909252822054839290612c239060016144ac565b815260208082019290925260409081015f90812084518155848401516001820155938201516002909401939093556001600160a01b038916835260179091528120805491612c708361444d565b9190505550612c80868486612707565b506001600160a01b0386165f908152600e60205260409020600a0154610100900460ff166117b7576001600160a01b0386165f818152600e602052604081206007018590556018805460018101825591527fb13d2d76d1f4b7be834882e410b3e3a8afaf69f83600ae24db354391d2378d2e0180546001600160a01b0319169091179055612d0e86856135de565b612d17846136d9565b6001600160a01b0386165f908152600e60205260409020600a01805461ff001916610100179055505050505050565b5f80549080612d548361444d565b91905055505f6040518061018001604052805f548152602001846001600160a01b03168152602001836001600160a01b031681526020014281526020015f81526020015f81526020015f151581526020015f81526020015f81526020015f81526020015f151581526020015f151581525090505f6040518060c001604052805f81526020015f67ffffffffffffffff811115612df257612df26143e7565b604051908082528060200260200182016040528015612e1b578160200160208202803683370190505b5081526020015f81526020015f81526020015f81526020015f67ffffffffffffffff811115612e4c57612e4c6143e7565b604051908082528060200260200182016040528015612e75578160200160208202803683370190505b5081525090505f6040518060e001604052805f81526020015f81526020015f81526020016006546001612ea891906144ac565b67ffffffffffffffff811115612ec057612ec06143e7565b604051908082528060200260200182016040528015612ee9578160200160208202803683370190505b5081525f602080830182905260408084018390526060938401839052805180850182528381528083018490528082018490526001600160a01b038b81168552600e84528285208a5181558a850151600180830180546001600160a01b03199081169386169390931790558c8601516002840180549093169416939093179055958a0151600387015560808a0151600487015560a08a0151600587015560c08a015160068701805460ff191691151591909117905560e08a01516007870155610100808b015160088801556101208b015160098801556101408b0151600a90970180546101608d015161ffff1990911698151561ff00191698909817971515909102969096179095556010835292208651815586820151805195965092948794919361301993928501920190613e3c565b5060408201516002820155606082015160038201556080820151600482015560a08201518051613053916005840191602090910190613e3c565b5050506001600160a01b0386165f9081526015602090815260409182902084518155818501516001820155918401516002830155606084015180518593926130a2926003850192910190613e9f565b506080820151600482015560a0820151600582015560c0909101516006909101555f80548152600f6020908152604080832080546001600160a01b03909a166001600160a01b0319909a168a17905597825260178152908790208251815590820151600182015595015160029095019490945550505050565b6001600160a01b0383165f908152600e6020526040812060040154613141908390614426565b905080156131a3575f606461315783600a61440f565b61316191906144ed565b905061316d8582613b53565b6001600160a01b0386165f9081526015602052604081206002018054929350839290919061319c9084906144ac565b9091555050505b50505050565b6001600160a01b038181165f908152600e602052604081206002810154600a90910154921691610100900460ff166131e25760016131e5565b60025b6001600160a01b0384165f908152600e602052604090206004015461320d9160ff16906144ed565b905060015f5b6001600160a01b0384161580159061322d57506006548211155b156133145760085460ff16613252575f828152600c602052604090206001015461327b565b5f828152600c60205260409020600101546103e890613271908561440f565b61327b91906144ed565b90506132878583612122565b156132e2576132968482613b53565b506001600160a01b0384165f9081526015602052604090206003018054829190849081106132c6576132c6614439565b905f5260205f20015f8282546132dc91906144ac565b90915550505b6001600160a01b039384165f908152600e6020526040902060020154909316928161330c8161444d565b925050613213565b5050505050565b6001600160a01b03821615611cd2576001600160a01b0382165f908152600e602052604081206005018054916133508361444d565b90915550506001600160a01b039182165f81815260106020908152604080832060050180546001810182559084528284200180546001600160a01b031916868816179055928252600e905220600201549091169061331b565b6133b282613c0c565b60015b6001600160a01b038416156131a3576001600160a01b0384165f9081526010602052604090206002015482111561343f576001600160a01b0384165f908152601060205260408120600281015460039091018054919290916134189084906144ac565b90915550506001600160a01b0384165f90815260106020526040902060020182905561346f565b6001600160a01b0384165f90815260106020526040812060030180548492906134699084906144ac565b90915550505b6001600160a01b0384165f90815260106020526040812060040180548492906134999084906144ac565b90915550506001600160a01b0384165f908152601360209081526040808320848452909152812080548492906134d09084906144ac565b909155506134df905084613c0c565b6001600160a01b039384165f908152600e602052604090206002015490931692806135098161444d565b9150506133b5565b6001600160a01b0383165f908152600e60205260409020600a015460ff1615801561358e57506001600160a01b0383165f908152600e60205260409020600a0154610100900460ff16158061358e57506001600160a01b0383165f908152600e6020526040902060070154429061358b90623b53806144ac565b10155b80156135af57506135a06107d0613e25565b821015806135af575060018110155b15611fee576001600160a01b0383165f908152600e60205260409020600a01805460ff19166001179055505050565b5f610bb882106135f9576135f26028613e25565b9050613648565b6107d0821061360c576135f2601e613e25565b6103e8821061361f576135f26014613e25565b6101f48210613632576135f2600c613e25565b61012c8210613648576136456007613e25565b90505b5f8111801561366f57506001600160a01b0383165f90815260156020526040902060010154155b801561369b57506001600160a01b0383165f908152600e60205260409020600a0154610100900460ff16155b15611fee576136aa8382613b53565b6001600160a01b0384165f9081526015602052604081206001018054929350839290919061147f9084906144ac565b5f6136e76201518042614426565b6018549091505f9067ffffffffffffffff811115613707576137076143e7565b60405190808252806020026020018201604052801561374b57816020015b604080518082019091525f80825260208201528152602001906001900390816137255790505b506018549091505f905b80156138c9575f6018613769600184614426565b8154811061377957613779614439565b5f9182526020808320909101546001600160a01b0316808352600e9091526040909120600701549091508511156137b057506138c9565b6001600160a01b038082165f908152600e602052604090206002015416806137d95750506138b7565b5f805b8581101561386257826001600160a01b031687828151811061380057613800614439565b60200260200101515f01516001600160a01b0316036138505786818151811061382b5761382b614439565b602002602001015160200180518091906138449061444d565b90525060019150613862565b8061385a8161444d565b9150506137dc565b50806138b3576040518060400160405280836001600160a01b03168152602001600181525086868151811061389957613899614439565b602002602001018190525084806138af9061444d565b9550505b5050505b806138c181614465565b915050613755565b506138d2613ed8565b6138da613ed8565b5f5b83811015613a55575f8582815181106138f7576138f7614439565b60200260200101515f015190505f86838151811061391757613917614439565b60200260200101516020015190505f5b6003811015613a3f5784816003811061394257613942614439565b6020020151821115613a2d5760025b818111156139e95785613965600183614426565b6003811061397557613975614439565b602002015186826003811061398c5761398c614439565b60200201528661399d600183614426565b600381106139ad576139ad614439565b60200201518782600381106139c4576139c4614439565b6001600160a01b039092166020929092020152806139e181614465565b915050613951565b50818582600381106139fd576139fd614439565b602002015282868260038110613a1557613a15614439565b6001600160a01b039092166020929092020152613a3f565b80613a378161444d565b915050613927565b5050508080613a4d9061444d565b9150506138dc565b505f6064613a6488600261440f565b613a6e91906144ed565b90505f604051806060016040528060328152602001601e8152602001601481525090505f5b6003811015613b48575f858260038110613aaf57613aaf614439565b602002015190506001600160a01b03811615613b35575f6064848460038110613ada57613ada614439565b6020020151613ae9908761440f565b613af391906144ed565b9050613aff8282613b53565b6001600160a01b0383165f90815260156020526040812060050180549293508392909190613b2e9084906144ac565b9091555050505b5080613b408161444d565b915050613a93565b505050505050505050565b5f613b5e83836127b2565b91508115610d4f576064613b7383604b61440f565b613b7d91906144ed565b6001600160a01b0384165f9081526016602090815260408083206001845290915281208054909190613bb09084906144ac565b9091555060649050613bc383601961440f565b613bcd91906144ed565b6001600160a01b0384165f9081526016602090815260408083206002845290915281208054909190613c009084906144ac565b90915550919392505050565b6001600160a01b0381165f908152600e6020526040812060090154613c329060016144ac565b90505b6007548111611cd2575f600d5f8381526020019081526020015f206040518060c00160405290815f8201548152602001600182018054613c749061447a565b80601f0160208091040260200160405190810160405280929190818152602001828054613ca09061447a565b8015613ceb5780601f10613cc257610100808354040283529160200191613ceb565b820191905f5260205f20905b815481529060010190602001808311613cce57829003601f168201915b5050505050815260200160028201548152602001600382015481526020016004820154815260200160058201548152505090508060400151600e5f856001600160a01b03166001600160a01b031681526020019081526020015f206004015410158015613d76575060608101516001600160a01b0384165f9081526010602052604090206002015410155b8015613da0575060808101516001600160a01b0384165f9081526010602052604090206003015410155b15611fee575f613db4848360a00151613b53565b6001600160a01b0385165f90815260156020526040812060040180549293508392909190613de39084906144ac565b90915550506001600160a01b0384165f908152600e60205260408120600901849055613e1190859085613511565b82613e1b8161444d565b9350505050613c35565b5f613e326012600a614622565b611e5d908361440f565b828054828255905f5260205f20908101928215613e8f579160200282015b82811115613e8f57825182546001600160a01b0319166001600160a01b03909116178255602090920191600190910190613e5a565b50613e9b929150613ef6565b5090565b828054828255905f5260205f20908101928215613e8f579160200282015b82811115613e8f578251825591602001919060010190613ebd565b60405180606001604052806003906020820280368337509192915050565b5b80821115613e9b575f8155600101613ef7565b80356001600160a01b0381168114613f20575f80fd5b919050565b5f8060408385031215613f36575f80fd5b613f3f83613f0a565b946020939093013593505050565b5f60208284031215613f5d575f80fd5b6122ba82613f0a565b5f805f60608486031215613f78575f80fd5b613f8184613f0a565b95602085013595506040909401359392505050565b602080825282518282018190525f919060409081850190868401855b82811015613fe15781518051855286810151878601528501518585015260609093019290850190600101613fb2565b5091979650505050505050565b5f81518084525f5b8181101561401257602081850181015186830182015201613ff6565b505f602082860101526020601f19601f83011685010191505092915050565b5f6020808301818452808551808352604092508286019150828160051b8701018488015f5b838110156140ed57603f1989840301855281516101208151855288820151818a87015261408582870182613fee565b91505087820151888601526060808301516140a38288018215159052565b505060808281015115159086015260a0808301519086015260c0808301519086015260e0808301519086015261010091820151151591909401529386019390860190600101614056565b509098975050505050505050565b602080825282518282018190525f919060409081850190868401855b82811015613fe15781518051855286810151878601528581015186860152606080820151908601526080808201519086015260a0808201519086015260c09081015115159085015260e09093019290850190600101614117565b6020815281516020820152602082015160408201526040820151606082015260608201516080820152608082015160a082015260a082015160c082015260c082015160e08201525f60e08301516101008181850152808501519150506101208181850152808501519150506101408181850152808501519150506101608181850152808501519150506101808181850152808501519150506101a08181850152808501519150506101c08181850152808501519150506101e080818501525061423e610200840182613fee565b949350505050565b5f805f60608486031215614258575f80fd5b61426184613f0a565b925061426f60208501613f0a565b9150604084013590509250925092565b5f6020828403121561428f575f80fd5b5035919050565b602080825282518282018190525f919060409081850190868401855b82811015613fe157815180518552868101516001600160a01b031687860152858101518686015260609081015190850152608090930192908501906001016142b2565b602080825282518282018190525f919060409081850190868401855b82811015613fe157815180518552860151868501529284019290850190600101614311565b5f6101208b835280602084015261434f8184018c613fee565b604084019a909a5250509515156060870152931515608086015260a085019290925260c084015260e083015215156101009091015292915050565b5f806040838503121561439b575f80fd5b50508035926020909101359150565b86815260c060208201525f6143c260c0830188613fee565b90508560408301528460608301528360808301528260a0830152979650505050505050565b634e487b7160e01b5f52604160045260245ffd5b634e487b7160e01b5f52601160045260245ffd5b8082028115828204841417611e5d57611e5d6143fb565b81810381811115611e5d57611e5d6143fb565b634e487b7160e01b5f52603260045260245ffd5b5f6001820161445e5761445e6143fb565b5060010190565b5f81614473576144736143fb565b505f190190565b600181811c9082168061448e57607f821691505b602082108103610d4f57634e487b7160e01b5f52602260045260245ffd5b80820180821115611e5d57611e5d6143fb565b602080825260149082015273596f7520617265206e6f7420616c6c6f7765642160601b604082015260600190565b5f8261450757634e487b7160e01b5f52601260045260245ffd5b500490565b5f6020828403121561451c575f80fd5b5051919050565b5f60208284031215614533575f80fd5b815180151581146122ba575f80fd5b600181815b8085111561457c57815f1904821115614562576145626143fb565b8085161561456f57918102915b93841c9390800290614547565b509250929050565b5f8261459257506001611e5d565b8161459e57505f611e5d565b81600181146145b457600281146145be576145da565b6001915050611e5d565b60ff8411156145cf576145cf6143fb565b50506001821b611e5d565b5060208310610133831016604e8410600b84101617156145fd575081810a611e5d565b6146078383614542565b805f190482111561461a5761461a6143fb565b029392505050565b5f6122ba838361458456fea26469706673582212208da9b3318b2aec16049bda4f43b8c9224095639b517f2575f815f9aa9756715064736f6c63430008140033",
			"opcodes": "PUSH1 0x80 PUSH1 0x40 MSTORE PUSH0 DUP1 DUP1 SSTORE PUSH1 0x1 DUP2 DUP2 SSTORE PUSH1 0x2 DUP3 SWAP1 SSTORE PUSH1 0x3 DUP1 SLOAD PUSH20 0x1419AC3544770AC32FBC3E70129E7EB0197612F6 PUSH1 0x1 PUSH1 0x1 PUSH1 0xA0 SHL SUB NOT SWAP2 DUP3 AND DUP2 OR SWAP1 SWAP3 SSTORE PUSH1 0x4 DUP1 SLOAD DUP3 AND SWAP1 SWAP3 OR SWAP1 SWAP2 SSTORE PUSH1 0x5 DUP1 SLOAD SWAP1 SWAP2 AND SWAP1 SSTORE PUSH1 0x6 DUP3 SWAP1 SSTORE PUSH1 0x7 DUP3 SWAP1 SSTORE PUSH1 0x8 DUP1 SLOAD PUSH1 0xFF NOT SWAP1 DUP2 AND DUP4 OR SWAP1 SWAP2 SSTORE PUSH1 0x9 SWAP3 SWAP1 SWAP3 SSTORE PUSH1 0xA DUP1 SLOAD SWAP1 SWAP3 AND OR SWAP1 SSTORE CALLVALUE DUP1 ISZERO PUSH3 0x86 JUMPI PUSH0 DUP1 REVERT JUMPDEST POP PUSH1 0xA DUP1 SLOAD PUSH2 0x100 PUSH1 0x1 PUSH1 0xA8 SHL SUB NOT AND CALLER PUSH2 0x100 MUL OR SWAP1 SSTORE PUSH3 0xA8 PUSH3 0xAE JUMP JUMPDEST PUSH3 0x1539 JUMP JUMPDEST PUSH3 0xB8 PUSH3 0xD8 JUMP JUMPDEST PUSH3 0xC2 PUSH3 0x20F JUMP JUMPDEST PUSH3 0xCC PUSH3 0x8DE JUMP JUMPDEST PUSH3 0xD6 PUSH3 0xD87 JUMP JUMPDEST JUMP JUMPDEST PUSH1 0x9 DUP1 SLOAD SWAP1 PUSH0 PUSH3 0xE9 DUP4 PUSH3 0x1279 JUMP JUMPDEST SWAP2 SWAP1 POP SSTORE POP PUSH1 0x40 MLOAD DUP1 PUSH2 0x120 ADD PUSH1 0x40 MSTORE DUP1 PUSH1 0x9 SLOAD DUP2 MSTORE PUSH1 0x20 ADD PUSH1 0x40 MLOAD DUP1 PUSH1 0x40 ADD PUSH1 0x40 MSTORE DUP1 PUSH1 0x7 DUP2 MSTORE PUSH1 0x20 ADD PUSH7 0x5061636B616765 PUSH1 0xC8 SHL DUP2 MSTORE POP DUP2 MSTORE PUSH1 0x20 ADD PUSH0 DUP2 MSTORE PUSH1 0x20 ADD PUSH1 0x1 ISZERO ISZERO DUP2 MSTORE PUSH1 0x20 ADD PUSH1 0x1 ISZERO ISZERO DUP2 MSTORE PUSH1 0x20 ADD PUSH3 0x151 PUSH1 0x1E PUSH3 0xDA2 PUSH1 0x20 SHL PUSH1 0x20 SHR JUMP JUMPDEST DUP2 MSTORE PUSH1 0x20 ADD PUSH3 0x163 PUSH2 0xBB8 PUSH3 0xDA2 JUMP JUMPDEST DUP2 MSTORE PUSH0 PUSH1 0x20 DUP1 DUP4 ADD DUP3 SWAP1 MSTORE PUSH1 0x1 PUSH1 0x40 SWAP4 DUP5 ADD DUP2 SWAP1 MSTORE PUSH1 0x9 SLOAD DUP4 MSTORE PUSH1 0xB DUP3 MSTORE SWAP3 SWAP1 SWAP2 KECCAK256 DUP4 MLOAD DUP2 SSTORE SWAP1 DUP4 ADD MLOAD SWAP1 SWAP2 DUP3 ADD SWAP1 PUSH3 0x19E SWAP1 DUP3 PUSH3 0x1334 JUMP JUMPDEST POP PUSH1 0x40 DUP3 ADD MLOAD PUSH1 0x2 DUP3 ADD SSTORE PUSH1 0x60 DUP3 ADD MLOAD PUSH1 0x3 DUP3 ADD DUP1 SLOAD PUSH1 0x80 DUP6 ADD MLOAD PUSH2 0xFFFF NOT SWAP1 SWAP2 AND SWAP3 ISZERO ISZERO PUSH2 0xFF00 NOT AND SWAP3 SWAP1 SWAP3 OR PUSH2 0x100 SWAP3 ISZERO ISZERO DUP4 MUL OR SWAP1 SSTORE PUSH1 0xA0 DUP4 ADD MLOAD PUSH1 0x4 DUP4 ADD SSTORE PUSH1 0xC0 DUP4 ADD MLOAD PUSH1 0x5 DUP4 ADD SSTORE PUSH1 0xE0 DUP4 ADD MLOAD PUSH1 0x6 DUP4 ADD SSTORE SWAP1 SWAP2 ADD MLOAD PUSH1 0x7 SWAP1 SWAP2 ADD DUP1 SLOAD PUSH1 0xFF NOT AND SWAP2 ISZERO ISZERO SWAP2 SWAP1 SWAP2 OR SWAP1 SSTORE JUMP JUMPDEST PUSH1 0x6 DUP1 SLOAD SWAP1 PUSH0 PUSH3 0x220 DUP4 PUSH3 0x1279 JUMP JUMPDEST SWAP1 SWAP2 SSTORE POP POP PUSH1 0x40 DUP1 MLOAD PUSH1 0x60 DUP2 ADD DUP3 MSTORE PUSH1 0x6 DUP1 SLOAD DUP1 DUP4 MSTORE PUSH2 0x1F4 PUSH1 0x20 DUP1 DUP6 ADD SWAP2 DUP3 MSTORE PUSH0 DUP6 DUP8 ADD DUP2 DUP2 MSTORE SWAP4 DUP2 MSTORE PUSH1 0xC SWAP1 SWAP2 MSTORE SWAP5 DUP6 KECCAK256 SWAP4 MLOAD DUP5 SSTORE MLOAD PUSH1 0x1 DUP5 ADD SSTORE MLOAD PUSH1 0x2 SWAP1 SWAP3 ADD SWAP2 SWAP1 SWAP2 SSTORE DUP1 SLOAD SWAP2 PUSH3 0x275 DUP4 PUSH3 0x1279 JUMP JUMPDEST SWAP1 SWAP2 SSTORE POP POP PUSH1 0x40 DUP1 MLOAD PUSH1 0x60 DUP2 ADD DUP3 MSTORE PUSH1 0x6 DUP1 SLOAD DUP1 DUP4 MSTORE PUSH2 0x12C PUSH1 0x20 DUP1 DUP6 ADD SWAP2 DUP3 MSTORE PUSH1 0x1 DUP6 DUP8 ADD DUP2 DUP2 MSTORE PUSH0 SWAP5 DUP6 MSTORE PUSH1 0xC SWAP1 SWAP3 MSTORE SWAP6 DUP4 KECCAK256 SWAP5 MLOAD DUP6 SSTORE SWAP1 MLOAD SWAP5 DUP5 ADD SWAP5 SWAP1 SWAP5 SSTORE SWAP3 MLOAD PUSH1 0x2 SWAP1 SWAP3 ADD SWAP2 SWAP1 SWAP2 SSTORE DUP1 SLOAD SWAP2 PUSH3 0x2D0 DUP4 PUSH3 0x1279 JUMP JUMPDEST SWAP1 SWAP2 SSTORE POP POP PUSH1 0x40 DUP1 MLOAD PUSH1 0x60 DUP2 ADD DUP3 MSTORE PUSH1 0x6 DUP1 SLOAD DUP1 DUP4 MSTORE PUSH1 0xC8 PUSH1 0x20 DUP1 DUP6 ADD SWAP2 DUP3 MSTORE PUSH1 0x1 DUP6 DUP8 ADD DUP2 DUP2 MSTORE PUSH0 SWAP5 DUP6 MSTORE PUSH1 0xC SWAP1 SWAP3 MSTORE SWAP6 DUP4 KECCAK256 SWAP5 MLOAD DUP6 SSTORE SWAP1 MLOAD SWAP5 DUP5 ADD SWAP5 SWAP1 SWAP5 SSTORE SWAP3 MLOAD PUSH1 0x2 SWAP1 SWAP3 ADD SWAP2 SWAP1 SWAP2 SSTORE DUP1 SLOAD SWAP2 PUSH3 0x32A DUP4 PUSH3 0x1279 JUMP JUMPDEST SWAP1 SWAP2 SSTORE POP POP PUSH1 0x40 DUP1 MLOAD PUSH1 0x60 DUP2 ADD DUP3 MSTORE PUSH1 0x6 DUP1 SLOAD DUP1 DUP4 MSTORE PUSH2 0x190 PUSH1 0x20 DUP1 DUP6 ADD SWAP2 DUP3 MSTORE PUSH1 0x2 DUP6 DUP8 ADD DUP2 DUP2 MSTORE PUSH0 SWAP5 DUP6 MSTORE PUSH1 0xC SWAP1 SWAP3 MSTORE SWAP6 DUP4 KECCAK256 SWAP5 MLOAD DUP6 SSTORE SWAP1 MLOAD PUSH1 0x1 DUP6 ADD SSTORE MLOAD SWAP3 SWAP1 SWAP4 ADD SWAP2 SWAP1 SWAP2 SSTORE DUP1 SLOAD SWAP2 PUSH3 0x381 DUP4 PUSH3 0x1279 JUMP JUMPDEST SWAP1 SWAP2 SSTORE POP POP PUSH1 0x40 DUP1 MLOAD PUSH1 0x60 DUP2 ADD DUP3 MSTORE PUSH1 0x6 DUP1 SLOAD DUP1 DUP4 MSTORE PUSH1 0xC8 PUSH1 0x20 DUP1 DUP6 ADD SWAP2 DUP3 MSTORE PUSH1 0x2 DUP6 DUP8 ADD DUP2 DUP2 MSTORE PUSH0 SWAP5 DUP6 MSTORE PUSH1 0xC SWAP1 SWAP3 MSTORE SWAP6 DUP4 KECCAK256 SWAP5 MLOAD DUP6 SSTORE SWAP1 MLOAD PUSH1 0x1 DUP6 ADD SSTORE MLOAD SWAP3 SWAP1 SWAP4 ADD SWAP2 SWAP1 SWAP2 SSTORE DUP1 SLOAD SWAP2 PUSH3 0x3D7 DUP4 PUSH3 0x1279 JUMP JUMPDEST SWAP1 SWAP2 SSTORE POP POP PUSH1 0x40 DUP1 MLOAD PUSH1 0x60 DUP2 ADD DUP3 MSTORE PUSH1 0x6 DUP1 SLOAD DUP1 DUP4 MSTORE PUSH1 0xC8 PUSH1 0x20 DUP1 DUP6 ADD SWAP2 DUP3 MSTORE PUSH1 0x2 DUP6 DUP8 ADD DUP2 DUP2 MSTORE PUSH0 SWAP5 DUP6 MSTORE PUSH1 0xC SWAP1 SWAP3 MSTORE SWAP6 DUP4 KECCAK256 SWAP5 MLOAD DUP6 SSTORE SWAP1 MLOAD PUSH1 0x1 DUP6 ADD SSTORE MLOAD SWAP3 SWAP1 SWAP4 ADD SWAP2 SWAP1 SWAP2 SSTORE DUP1 SLOAD SWAP2 PUSH3 0x42D DUP4 PUSH3 0x1279 JUMP JUMPDEST SWAP1 SWAP2 SSTORE POP POP PUSH1 0x40 DUP1 MLOAD PUSH1 0x60 DUP2 ADD DUP3 MSTORE PUSH1 0x6 DUP1 SLOAD DUP1 DUP4 MSTORE PUSH1 0x64 PUSH1 0x20 DUP1 DUP6 ADD SWAP2 DUP3 MSTORE PUSH1 0x2 DUP6 DUP8 ADD DUP2 DUP2 MSTORE PUSH0 SWAP5 DUP6 MSTORE PUSH1 0xC SWAP1 SWAP3 MSTORE SWAP6 DUP4 KECCAK256 SWAP5 MLOAD DUP6 SSTORE SWAP1 MLOAD PUSH1 0x1 DUP6 ADD SSTORE MLOAD SWAP3 SWAP1 SWAP4 ADD SWAP2 SWAP1 SWAP2 SSTORE DUP1 SLOAD SWAP2 PUSH3 0x483 DUP4 PUSH3 0x1279 JUMP JUMPDEST SWAP1 SWAP2 SSTORE POP POP PUSH1 0x40 DUP1 MLOAD PUSH1 0x60 DUP2 ADD DUP3 MSTORE PUSH1 0x6 DUP1 SLOAD DUP1 DUP4 MSTORE PUSH1 0x64 PUSH1 0x20 DUP1 DUP6 ADD SWAP2 DUP3 MSTORE PUSH1 0x2 DUP6 DUP8 ADD DUP2 DUP2 MSTORE PUSH0 SWAP5 DUP6 MSTORE PUSH1 0xC SWAP1 SWAP3 MSTORE SWAP6 DUP4 KECCAK256 SWAP5 MLOAD DUP6 SSTORE SWAP1 MLOAD PUSH1 0x1 DUP6 ADD SSTORE MLOAD SWAP3 SWAP1 SWAP4 ADD SWAP2 SWAP1 SWAP2 SSTORE DUP1 SLOAD SWAP2 PUSH3 0x4D9 DUP4 PUSH3 0x1279 JUMP JUMPDEST SWAP1 SWAP2 SSTORE POP POP PUSH1 0x40 DUP1 MLOAD PUSH1 0x60 DUP2 ADD DUP3 MSTORE PUSH1 0x6 DUP1 SLOAD DUP1 DUP4 MSTORE PUSH1 0xC8 PUSH1 0x20 DUP1 DUP6 ADD SWAP2 DUP3 MSTORE PUSH1 0x3 DUP6 DUP8 ADD SWAP1 DUP2 MSTORE PUSH0 SWAP4 DUP5 MSTORE PUSH1 0xC SWAP1 SWAP2 MSTORE SWAP5 DUP3 KECCAK256 SWAP4 MLOAD DUP5 SSTORE MLOAD PUSH1 0x1 DUP5 ADD SSTORE SWAP3 MLOAD PUSH1 0x2 SWAP1 SWAP3 ADD SWAP2 SWAP1 SWAP2 SSTORE DUP1 SLOAD SWAP2 PUSH3 0x530 DUP4 PUSH3 0x1279 JUMP JUMPDEST SWAP1 SWAP2 SSTORE POP POP PUSH1 0x40 DUP1 MLOAD PUSH1 0x60 DUP2 ADD DUP3 MSTORE PUSH1 0x6 DUP1 SLOAD DUP1 DUP4 MSTORE PUSH1 0x64 PUSH1 0x20 DUP1 DUP6 ADD SWAP2 DUP3 MSTORE PUSH1 0x3 DUP6 DUP8 ADD SWAP1 DUP2 MSTORE PUSH0 SWAP4 DUP5 MSTORE PUSH1 0xC SWAP1 SWAP2 MSTORE SWAP5 DUP3 KECCAK256 SWAP4 MLOAD DUP5 SSTORE MLOAD PUSH1 0x1 DUP5 ADD SSTORE SWAP3 MLOAD PUSH1 0x2 SWAP1 SWAP3 ADD SWAP2 SWAP1 SWAP2 SSTORE DUP1 SLOAD SWAP2 PUSH3 0x587 DUP4 PUSH3 0x1279 JUMP JUMPDEST SWAP1 SWAP2 SSTORE POP POP PUSH1 0x40 DUP1 MLOAD PUSH1 0x60 DUP2 ADD DUP3 MSTORE PUSH1 0x6 DUP1 SLOAD DUP1 DUP4 MSTORE PUSH1 0x32 PUSH1 0x20 DUP1 DUP6 ADD SWAP2 DUP3 MSTORE PUSH1 0x3 DUP6 DUP8 ADD SWAP1 DUP2 MSTORE PUSH0 SWAP4 DUP5 MSTORE PUSH1 0xC SWAP1 SWAP2 MSTORE SWAP5 DUP3 KECCAK256 SWAP4 MLOAD DUP5 SSTORE MLOAD PUSH1 0x1 DUP5 ADD SSTORE SWAP3 MLOAD PUSH1 0x2 SWAP1 SWAP3 ADD SWAP2 SWAP1 SWAP2 SSTORE DUP1 SLOAD SWAP2 PUSH3 0x5DE DUP4 PUSH3 0x1279 JUMP JUMPDEST SWAP1 SWAP2 SSTORE POP POP PUSH1 0x40 DUP1 MLOAD PUSH1 0x60 DUP2 ADD DUP3 MSTORE PUSH1 0x6 DUP1 SLOAD DUP1 DUP4 MSTORE PUSH1 0x32 PUSH1 0x20 DUP1 DUP6 ADD SWAP2 DUP3 MSTORE PUSH1 0x3 DUP6 DUP8 ADD SWAP1 DUP2 MSTORE PUSH0 SWAP4 DUP5 MSTORE PUSH1 0xC SWAP1 SWAP2 MSTORE SWAP5 DUP3 KECCAK256 SWAP4 MLOAD DUP5 SSTORE MLOAD PUSH1 0x1 DUP5 ADD SSTORE SWAP3 MLOAD PUSH1 0x2 SWAP1 SWAP3 ADD SWAP2 SWAP1 SWAP2 SSTORE DUP1 SLOAD SWAP2 PUSH3 0x635 DUP4 PUSH3 0x1279 JUMP JUMPDEST SWAP1 SWAP2 SSTORE POP POP PUSH1 0x40 DUP1 MLOAD PUSH1 0x60 DUP2 ADD DUP3 MSTORE PUSH1 0x6 DUP1 SLOAD DUP1 DUP4 MSTORE PUSH1 0x32 PUSH1 0x20 DUP1 DUP6 ADD SWAP2 DUP3 MSTORE PUSH1 0x3 DUP6 DUP8 ADD SWAP1 DUP2 MSTORE PUSH0 SWAP4 DUP5 MSTORE PUSH1 0xC SWAP1 SWAP2 MSTORE SWAP5 DUP3 KECCAK256 SWAP4 MLOAD DUP5 SSTORE MLOAD PUSH1 0x1 DUP5 ADD SSTORE SWAP3 MLOAD PUSH1 0x2 SWAP1 SWAP3 ADD SWAP2 SWAP1 SWAP2 SSTORE DUP1 SLOAD SWAP2 PUSH3 0x68C DUP4 PUSH3 0x1279 JUMP JUMPDEST SWAP1 SWAP2 SSTORE POP POP PUSH1 0x40 DUP1 MLOAD PUSH1 0x60 DUP2 ADD DUP3 MSTORE PUSH1 0x6 DUP1 SLOAD DUP1 DUP4 MSTORE PUSH1 0x64 PUSH1 0x20 DUP1 DUP6 ADD SWAP2 DUP3 MSTORE PUSH1 0x4 DUP6 DUP8 ADD SWAP1 DUP2 MSTORE PUSH0 SWAP4 DUP5 MSTORE PUSH1 0xC SWAP1 SWAP2 MSTORE SWAP5 DUP3 KECCAK256 SWAP4 MLOAD DUP5 SSTORE MLOAD PUSH1 0x1 DUP5 ADD SSTORE SWAP3 MLOAD PUSH1 0x2 SWAP1 SWAP3 ADD SWAP2 SWAP1 SWAP2 SSTORE DUP1 SLOAD SWAP2 PUSH3 0x6E3 DUP4 PUSH3 0x1279 JUMP JUMPDEST SWAP1 SWAP2 SSTORE POP POP PUSH1 0x40 DUP1 MLOAD PUSH1 0x60 DUP2 ADD DUP3 MSTORE PUSH1 0x6 DUP1 SLOAD DUP1 DUP4 MSTORE PUSH1 0x32 PUSH1 0x20 DUP1 DUP6 ADD SWAP2 DUP3 MSTORE PUSH1 0x4 DUP6 DUP8 ADD SWAP1 DUP2 MSTORE PUSH0 SWAP4 DUP5 MSTORE PUSH1 0xC SWAP1 SWAP2 MSTORE SWAP5 DUP3 KECCAK256 SWAP4 MLOAD DUP5 SSTORE MLOAD PUSH1 0x1 DUP5 ADD SSTORE SWAP3 MLOAD PUSH1 0x2 SWAP1 SWAP3 ADD SWAP2 SWAP1 SWAP2 SSTORE DUP1 SLOAD SWAP2 PUSH3 0x73A DUP4 PUSH3 0x1279 JUMP JUMPDEST SWAP1 SWAP2 SSTORE POP POP PUSH1 0x40 DUP1 MLOAD PUSH1 0x60 DUP2 ADD DUP3 MSTORE PUSH1 0x6 DUP1 SLOAD DUP1 DUP4 MSTORE PUSH1 0x19 PUSH1 0x20 DUP1 DUP6 ADD SWAP2 DUP3 MSTORE PUSH1 0x4 DUP6 DUP8 ADD SWAP1 DUP2 MSTORE PUSH0 SWAP4 DUP5 MSTORE PUSH1 0xC SWAP1 SWAP2 MSTORE SWAP5 DUP3 KECCAK256 SWAP4 MLOAD DUP5 SSTORE MLOAD PUSH1 0x1 DUP5 ADD SSTORE SWAP3 MLOAD PUSH1 0x2 SWAP1 SWAP3 ADD SWAP2 SWAP1 SWAP2 SSTORE DUP1 SLOAD SWAP2 PUSH3 0x791 DUP4 PUSH3 0x1279 JUMP JUMPDEST SWAP1 SWAP2 SSTORE POP POP PUSH1 0x40 DUP1 MLOAD PUSH1 0x60 DUP2 ADD DUP3 MSTORE PUSH1 0x6 DUP1 SLOAD DUP1 DUP4 MSTORE PUSH1 0x19 PUSH1 0x20 DUP1 DUP6 ADD SWAP2 DUP3 MSTORE PUSH1 0x4 DUP6 DUP8 ADD SWAP1 DUP2 MSTORE PUSH0 SWAP4 DUP5 MSTORE PUSH1 0xC SWAP1 SWAP2 MSTORE SWAP5 DUP3 KECCAK256 SWAP4 MLOAD DUP5 SSTORE MLOAD PUSH1 0x1 DUP5 ADD SSTORE SWAP3 MLOAD PUSH1 0x2 SWAP1 SWAP3 ADD SWAP2 SWAP1 SWAP2 SSTORE DUP1 SLOAD SWAP2 PUSH3 0x7E8 DUP4 PUSH3 0x1279 JUMP JUMPDEST SWAP1 SWAP2 SSTORE POP POP PUSH1 0x40 DUP1 MLOAD PUSH1 0x60 DUP2 ADD DUP3 MSTORE PUSH1 0x6 DUP1 SLOAD DUP1 DUP4 MSTORE PUSH1 0x19 PUSH1 0x20 DUP1 DUP6 ADD SWAP2 DUP3 MSTORE PUSH1 0x4 DUP6 DUP8 ADD SWAP1 DUP2 MSTORE PUSH0 SWAP4 DUP5 MSTORE PUSH1 0xC SWAP1 SWAP2 MSTORE SWAP5 DUP3 KECCAK256 SWAP4 MLOAD DUP5 SSTORE MLOAD PUSH1 0x1 DUP5 ADD SSTORE SWAP3 MLOAD PUSH1 0x2 SWAP1 SWAP3 ADD SWAP2 SWAP1 SWAP2 SSTORE DUP1 SLOAD SWAP2 PUSH3 0x83F DUP4 PUSH3 0x1279 JUMP JUMPDEST SWAP1 SWAP2 SSTORE POP POP PUSH1 0x40 DUP1 MLOAD PUSH1 0x60 DUP2 ADD DUP3 MSTORE PUSH1 0x6 DUP1 SLOAD DUP1 DUP4 MSTORE PUSH1 0x19 PUSH1 0x20 DUP1 DUP6 ADD SWAP2 DUP3 MSTORE PUSH1 0x4 DUP6 DUP8 ADD SWAP1 DUP2 MSTORE PUSH0 SWAP4 DUP5 MSTORE PUSH1 0xC SWAP1 SWAP2 MSTORE SWAP5 DUP3 KECCAK256 SWAP4 MLOAD DUP5 SSTORE MLOAD PUSH1 0x1 DUP5 ADD SSTORE SWAP3 MLOAD PUSH1 0x2 SWAP1 SWAP3 ADD SWAP2 SWAP1 SWAP2 SSTORE DUP1 SLOAD SWAP2 PUSH3 0x896 DUP4 PUSH3 0x1279 JUMP JUMPDEST SWAP1 SWAP2 SSTORE POP POP PUSH1 0x40 DUP1 MLOAD PUSH1 0x60 DUP2 ADD DUP3 MSTORE PUSH1 0x6 SLOAD DUP1 DUP3 MSTORE PUSH1 0x19 PUSH1 0x20 DUP1 DUP5 ADD SWAP2 DUP3 MSTORE PUSH1 0x4 DUP5 DUP7 ADD SWAP1 DUP2 MSTORE PUSH0 SWAP4 DUP5 MSTORE PUSH1 0xC SWAP1 SWAP2 MSTORE SWAP4 SWAP1 SWAP2 KECCAK256 SWAP2 MLOAD DUP3 SSTORE MLOAD PUSH1 0x1 DUP3 ADD SSTORE SWAP1 MLOAD PUSH1 0x2 SWAP1 SWAP2 ADD SSTORE JUMP JUMPDEST PUSH1 0x7 DUP1 SLOAD SWAP1 PUSH0 PUSH3 0x8EF DUP4 PUSH3 0x1279 JUMP JUMPDEST SWAP2 SWAP1 POP SSTORE POP PUSH1 0x40 MLOAD DUP1 PUSH1 0xC0 ADD PUSH1 0x40 MSTORE DUP1 PUSH1 0x7 SLOAD DUP2 MSTORE PUSH1 0x20 ADD PUSH1 0x40 MLOAD DUP1 PUSH1 0x40 ADD PUSH1 0x40 MSTORE DUP1 PUSH1 0x6 DUP2 MSTORE PUSH1 0x20 ADD PUSH6 0x189029BA30B9 PUSH1 0xD1 SHL DUP2 MSTORE POP DUP2 MSTORE PUSH1 0x20 ADD PUSH3 0x93E PUSH2 0x12C PUSH3 0xDA2 PUSH1 0x20 SHL PUSH1 0x20 SHR JUMP JUMPDEST DUP2 MSTORE PUSH1 0x20 ADD PUSH3 0x950 PUSH2 0x3E8 PUSH3 0xDA2 JUMP JUMPDEST DUP2 MSTORE PUSH1 0x20 ADD PUSH3 0x962 PUSH2 0x3E8 PUSH3 0xDA2 JUMP JUMPDEST DUP2 MSTORE PUSH1 0x20 ADD PUSH3 0x972 PUSH0 PUSH3 0xDA2 JUMP JUMPDEST SWAP1 MSTORE PUSH1 0x7 SLOAD PUSH0 SWAP1 DUP2 MSTORE PUSH1 0xD PUSH1 0x20 SWAP1 DUP2 MSTORE PUSH1 0x40 SWAP1 SWAP2 KECCAK256 DUP3 MLOAD DUP2 SSTORE SWAP1 DUP3 ADD MLOAD PUSH1 0x1 DUP3 ADD SWAP1 PUSH3 0x9A0 SWAP1 DUP3 PUSH3 0x1334 JUMP JUMPDEST POP PUSH1 0x40 DUP3 ADD MLOAD PUSH1 0x2 DUP3 ADD SSTORE PUSH1 0x60 DUP3 ADD MLOAD PUSH1 0x3 DUP3 ADD SSTORE PUSH1 0x80 DUP3 ADD MLOAD PUSH1 0x4 DUP3 ADD SSTORE PUSH1 0xA0 SWAP1 SWAP2 ADD MLOAD PUSH1 0x5 SWAP1 SWAP2 ADD SSTORE PUSH1 0x7 DUP1 SLOAD SWAP1 PUSH0 PUSH3 0x9DC DUP4 PUSH3 0x1279 JUMP JUMPDEST SWAP2 SWAP1 POP SSTORE POP PUSH1 0x40 MLOAD DUP1 PUSH1 0xC0 ADD PUSH1 0x40 MSTORE DUP1 PUSH1 0x7 SLOAD DUP2 MSTORE PUSH1 0x20 ADD PUSH1 0x40 MLOAD DUP1 PUSH1 0x40 ADD PUSH1 0x40 MSTORE DUP1 PUSH1 0x6 DUP2 MSTORE PUSH1 0x20 ADD PUSH6 0x191029BA30B9 PUSH1 0xD1 SHL DUP2 MSTORE POP DUP2 MSTORE PUSH1 0x20 ADD PUSH3 0xA2B PUSH2 0x1F4 PUSH3 0xDA2 PUSH1 0x20 SHL PUSH1 0x20 SHR JUMP JUMPDEST DUP2 MSTORE PUSH1 0x20 ADD PUSH3 0xA3D PUSH2 0x1388 PUSH3 0xDA2 JUMP JUMPDEST DUP2 MSTORE PUSH1 0x20 ADD PUSH3 0xA4F PUSH2 0x1388 PUSH3 0xDA2 JUMP JUMPDEST DUP2 MSTORE PUSH1 0x20 ADD PUSH3 0xA5F PUSH0 PUSH3 0xDA2 JUMP JUMPDEST SWAP1 MSTORE PUSH1 0x7 SLOAD PUSH0 SWAP1 DUP2 MSTORE PUSH1 0xD PUSH1 0x20 SWAP1 DUP2 MSTORE PUSH1 0x40 SWAP1 SWAP2 KECCAK256 DUP3 MLOAD DUP2 SSTORE SWAP1 DUP3 ADD MLOAD PUSH1 0x1 DUP3 ADD SWAP1 PUSH3 0xA8D SWAP1 DUP3 PUSH3 0x1334 JUMP JUMPDEST POP PUSH1 0x40 DUP3 ADD MLOAD PUSH1 0x2 DUP3 ADD SSTORE PUSH1 0x60 DUP3 ADD MLOAD PUSH1 0x3 DUP3 ADD SSTORE PUSH1 0x80 DUP3 ADD MLOAD PUSH1 0x4 DUP3 ADD SSTORE PUSH1 0xA0 SWAP1 SWAP2 ADD MLOAD PUSH1 0x5 SWAP1 SWAP2 ADD SSTORE PUSH1 0x7 DUP1 SLOAD SWAP1 PUSH0 PUSH3 0xAC9 DUP4 PUSH3 0x1279 JUMP JUMPDEST SWAP2 SWAP1 POP SSTORE POP PUSH1 0x40 MLOAD DUP1 PUSH1 0xC0 ADD PUSH1 0x40 MSTORE DUP1 PUSH1 0x7 SLOAD DUP2 MSTORE PUSH1 0x20 ADD PUSH1 0x40 MLOAD DUP1 PUSH1 0x40 ADD PUSH1 0x40 MSTORE DUP1 PUSH1 0x6 DUP2 MSTORE PUSH1 0x20 ADD PUSH6 0x199029BA30B9 PUSH1 0xD1 SHL DUP2 MSTORE POP DUP2 MSTORE PUSH1 0x20 ADD PUSH3 0xB18 PUSH2 0x3E8 PUSH3 0xDA2 PUSH1 0x20 SHL PUSH1 0x20 SHR JUMP JUMPDEST DUP2 MSTORE PUSH1 0x20 ADD PUSH3 0xB2A PUSH2 0x2710 PUSH3 0xDA2 JUMP JUMPDEST DUP2 MSTORE PUSH1 0x20 ADD PUSH3 0xB3C PUSH2 0x2710 PUSH3 0xDA2 JUMP JUMPDEST DUP2 MSTORE PUSH1 0x20 ADD PUSH3 0xB4C PUSH0 PUSH3 0xDA2 JUMP JUMPDEST SWAP1 MSTORE PUSH1 0x7 SLOAD PUSH0 SWAP1 DUP2 MSTORE PUSH1 0xD PUSH1 0x20 SWAP1 DUP2 MSTORE PUSH1 0x40 SWAP1 SWAP2 KECCAK256 DUP3 MLOAD DUP2 SSTORE SWAP1 DUP3 ADD MLOAD PUSH1 0x1 DUP3 ADD SWAP1 PUSH3 0xB7A SWAP1 DUP3 PUSH3 0x1334 JUMP JUMPDEST POP PUSH1 0x40 DUP3 ADD MLOAD PUSH1 0x2 DUP3 ADD SSTORE PUSH1 0x60 DUP3 ADD MLOAD PUSH1 0x3 DUP3 ADD SSTORE PUSH1 0x80 DUP3 ADD MLOAD PUSH1 0x4 DUP3 ADD SSTORE PUSH1 0xA0 SWAP1 SWAP2 ADD MLOAD PUSH1 0x5 SWAP1 SWAP2 ADD SSTORE PUSH1 0x7 DUP1 SLOAD SWAP1 PUSH0 PUSH3 0xBB6 DUP4 PUSH3 0x1279 JUMP JUMPDEST SWAP2 SWAP1 POP SSTORE POP PUSH1 0x40 MLOAD DUP1 PUSH1 0xC0 ADD PUSH1 0x40 MSTORE DUP1 PUSH1 0x7 SLOAD DUP2 MSTORE PUSH1 0x20 ADD PUSH1 0x40 MLOAD DUP1 PUSH1 0x40 ADD PUSH1 0x40 MSTORE DUP1 PUSH1 0x6 DUP2 MSTORE PUSH1 0x20 ADD PUSH6 0x1A1029BA30B9 PUSH1 0xD1 SHL DUP2 MSTORE POP DUP2 MSTORE PUSH1 0x20 ADD PUSH3 0xC05 PUSH2 0x7D0 PUSH3 0xDA2 PUSH1 0x20 SHL PUSH1 0x20 SHR JUMP JUMPDEST DUP2 MSTORE PUSH1 0x20 ADD PUSH3 0xC17 PUSH2 0x61A8 PUSH3 0xDA2 JUMP JUMPDEST DUP2 MSTORE PUSH1 0x20 ADD PUSH3 0xC29 PUSH2 0x61A8 PUSH3 0xDA2 JUMP JUMPDEST DUP2 MSTORE PUSH1 0x20 ADD PUSH3 0xC3B PUSH2 0x9C4 PUSH3 0xDA2 JUMP JUMPDEST SWAP1 MSTORE PUSH1 0x7 SLOAD PUSH0 SWAP1 DUP2 MSTORE PUSH1 0xD PUSH1 0x20 SWAP1 DUP2 MSTORE PUSH1 0x40 SWAP1 SWAP2 KECCAK256 DUP3 MLOAD DUP2 SSTORE SWAP1 DUP3 ADD MLOAD PUSH1 0x1 DUP3 ADD SWAP1 PUSH3 0xC69 SWAP1 DUP3 PUSH3 0x1334 JUMP JUMPDEST POP PUSH1 0x40 DUP3 ADD MLOAD PUSH1 0x2 DUP3 ADD SSTORE PUSH1 0x60 DUP3 ADD MLOAD PUSH1 0x3 DUP3 ADD SSTORE PUSH1 0x80 DUP3 ADD MLOAD PUSH1 0x4 DUP3 ADD SSTORE PUSH1 0xA0 SWAP1 SWAP2 ADD MLOAD PUSH1 0x5 SWAP1 SWAP2 ADD SSTORE PUSH1 0x7 DUP1 SLOAD SWAP1 PUSH0 PUSH3 0xCA5 DUP4 PUSH3 0x1279 JUMP JUMPDEST SWAP2 SWAP1 POP SSTORE POP PUSH1 0x40 MLOAD DUP1 PUSH1 0xC0 ADD PUSH1 0x40 MSTORE DUP1 PUSH1 0x7 SLOAD DUP2 MSTORE PUSH1 0x20 ADD PUSH1 0x40 MLOAD DUP1 PUSH1 0x40 ADD PUSH1 0x40 MSTORE DUP1 PUSH1 0x6 DUP2 MSTORE PUSH1 0x20 ADD PUSH6 0x1A9029BA30B9 PUSH1 0xD1 SHL DUP2 MSTORE POP DUP2 MSTORE PUSH1 0x20 ADD PUSH3 0xCF4 PUSH2 0xBB8 PUSH3 0xDA2 PUSH1 0x20 SHL PUSH1 0x20 SHR JUMP JUMPDEST DUP2 MSTORE PUSH1 0x20 ADD PUSH3 0xD07 PUSH3 0x124F8 PUSH3 0xDA2 JUMP JUMPDEST DUP2 MSTORE PUSH1 0x20 ADD PUSH3 0xD1A PUSH3 0x124F8 PUSH3 0xDA2 JUMP JUMPDEST DUP2 MSTORE PUSH1 0x20 ADD PUSH3 0xD2C PUSH2 0x1388 PUSH3 0xDA2 JUMP JUMPDEST SWAP1 MSTORE PUSH1 0x7 SLOAD PUSH0 SWAP1 DUP2 MSTORE PUSH1 0xD PUSH1 0x20 SWAP1 DUP2 MSTORE PUSH1 0x40 SWAP1 SWAP2 KECCAK256 DUP3 MLOAD DUP2 SSTORE SWAP1 DUP3 ADD MLOAD PUSH1 0x1 DUP3 ADD SWAP1 PUSH3 0xD5A SWAP1 DUP3 PUSH3 0x1334 JUMP JUMPDEST POP PUSH1 0x40 DUP3 ADD MLOAD PUSH1 0x2 DUP3 ADD SSTORE PUSH1 0x60 DUP3 ADD MLOAD PUSH1 0x3 DUP3 ADD SSTORE PUSH1 0x80 DUP3 ADD MLOAD PUSH1 0x4 DUP3 ADD SSTORE PUSH1 0xA0 SWAP1 SWAP2 ADD MLOAD PUSH1 0x5 SWAP1 SWAP2 ADD SSTORE JUMP JUMPDEST PUSH1 0x3 SLOAD PUSH1 0x1 PUSH1 0x1 PUSH1 0xA0 SHL SUB AND PUSH3 0xD9F DUP2 PUSH0 PUSH3 0xDC3 JUMP JUMPDEST POP JUMP JUMPDEST PUSH0 PUSH3 0xDB1 PUSH1 0x12 PUSH1 0xA PUSH3 0x14F5 JUMP JUMPDEST PUSH3 0xDBD SWAP1 DUP4 PUSH3 0x1509 JUMP JUMPDEST SWAP3 SWAP2 POP POP JUMP JUMPDEST PUSH0 DUP1 SLOAD SWAP1 DUP1 PUSH3 0xDD3 DUP4 PUSH3 0x1279 JUMP JUMPDEST SWAP2 SWAP1 POP SSTORE POP PUSH0 PUSH1 0x40 MLOAD DUP1 PUSH2 0x180 ADD PUSH1 0x40 MSTORE DUP1 PUSH0 SLOAD DUP2 MSTORE PUSH1 0x20 ADD DUP5 PUSH1 0x1 PUSH1 0x1 PUSH1 0xA0 SHL SUB AND DUP2 MSTORE PUSH1 0x20 ADD DUP4 PUSH1 0x1 PUSH1 0x1 PUSH1 0xA0 SHL SUB AND DUP2 MSTORE PUSH1 0x20 ADD TIMESTAMP DUP2 MSTORE PUSH1 0x20 ADD PUSH0 DUP2 MSTORE PUSH1 0x20 ADD PUSH0 DUP2 MSTORE PUSH1 0x20 ADD PUSH0 ISZERO ISZERO DUP2 MSTORE PUSH1 0x20 ADD PUSH0 DUP2 MSTORE PUSH1 0x20 ADD PUSH0 DUP2 MSTORE PUSH1 0x20 ADD PUSH0 DUP2 MSTORE PUSH1 0x20 ADD PUSH0 ISZERO ISZERO DUP2 MSTORE PUSH1 0x20 ADD PUSH0 ISZERO ISZERO DUP2 MSTORE POP SWAP1 POP PUSH0 PUSH1 0x40 MLOAD DUP1 PUSH1 0xC0 ADD PUSH1 0x40 MSTORE DUP1 PUSH0 DUP2 MSTORE PUSH1 0x20 ADD PUSH0 PUSH1 0x1 PUSH1 0x1 PUSH1 0x40 SHL SUB DUP2 GT ISZERO PUSH3 0xE73 JUMPI PUSH3 0xE73 PUSH3 0x1294 JUMP JUMPDEST PUSH1 0x40 MLOAD SWAP1 DUP1 DUP3 MSTORE DUP1 PUSH1 0x20 MUL PUSH1 0x20 ADD DUP3 ADD PUSH1 0x40 MSTORE DUP1 ISZERO PUSH3 0xE9D JUMPI DUP2 PUSH1 0x20 ADD PUSH1 0x20 DUP3 MUL DUP1 CALLDATASIZE DUP4 CALLDATACOPY ADD SWAP1 POP JUMPDEST POP DUP2 MSTORE PUSH1 0x20 ADD PUSH0 DUP2 MSTORE PUSH1 0x20 ADD PUSH0 DUP2 MSTORE PUSH1 0x20 ADD PUSH0 DUP2 MSTORE PUSH1 0x20 ADD PUSH0 PUSH1 0x1 PUSH1 0x1 PUSH1 0x40 SHL SUB DUP2 GT ISZERO PUSH3 0xED0 JUMPI PUSH3 0xED0 PUSH3 0x1294 JUMP JUMPDEST PUSH1 0x40 MLOAD SWAP1 DUP1 DUP3 MSTORE DUP1 PUSH1 0x20 MUL PUSH1 0x20 ADD DUP3 ADD PUSH1 0x40 MSTORE DUP1 ISZERO PUSH3 0xEFA JUMPI DUP2 PUSH1 0x20 ADD PUSH1 0x20 DUP3 MUL DUP1 CALLDATASIZE DUP4 CALLDATACOPY ADD SWAP1 POP JUMPDEST POP DUP2 MSTORE POP SWAP1 POP PUSH0 PUSH1 0x40 MLOAD DUP1 PUSH1 0xE0 ADD PUSH1 0x40 MSTORE DUP1 PUSH0 DUP2 MSTORE PUSH1 0x20 ADD PUSH0 DUP2 MSTORE PUSH1 0x20 ADD PUSH0 DUP2 MSTORE PUSH1 0x20 ADD PUSH1 0x6 SLOAD PUSH1 0x1 PUSH3 0xF2F SWAP2 SWAP1 PUSH3 0x1523 JUMP JUMPDEST PUSH1 0x1 PUSH1 0x1 PUSH1 0x40 SHL SUB DUP2 GT ISZERO PUSH3 0xF49 JUMPI PUSH3 0xF49 PUSH3 0x1294 JUMP JUMPDEST PUSH1 0x40 MLOAD SWAP1 DUP1 DUP3 MSTORE DUP1 PUSH1 0x20 MUL PUSH1 0x20 ADD DUP3 ADD PUSH1 0x40 MSTORE DUP1 ISZERO PUSH3 0xF73 JUMPI DUP2 PUSH1 0x20 ADD PUSH1 0x20 DUP3 MUL DUP1 CALLDATASIZE DUP4 CALLDATACOPY ADD SWAP1 POP JUMPDEST POP DUP2 MSTORE PUSH0 PUSH1 0x20 DUP1 DUP4 ADD DUP3 SWAP1 MSTORE PUSH1 0x40 DUP1 DUP5 ADD DUP4 SWAP1 MSTORE PUSH1 0x60 SWAP4 DUP5 ADD DUP4 SWAP1 MSTORE DUP1 MLOAD DUP1 DUP6 ADD DUP3 MSTORE DUP4 DUP2 MSTORE DUP1 DUP4 ADD DUP5 SWAP1 MSTORE DUP1 DUP3 ADD DUP5 SWAP1 MSTORE PUSH1 0x1 PUSH1 0x1 PUSH1 0xA0 SHL SUB DUP12 DUP2 AND DUP6 MSTORE PUSH1 0xE DUP5 MSTORE DUP3 DUP6 KECCAK256 DUP11 MLOAD DUP2 SSTORE DUP11 DUP6 ADD MLOAD PUSH1 0x1 DUP1 DUP4 ADD DUP1 SLOAD PUSH1 0x1 PUSH1 0x1 PUSH1 0xA0 SHL SUB NOT SWAP1 DUP2 AND SWAP4 DUP7 AND SWAP4 SWAP1 SWAP4 OR SWAP1 SSTORE DUP13 DUP7 ADD MLOAD PUSH1 0x2 DUP5 ADD DUP1 SLOAD SWAP1 SWAP4 AND SWAP5 AND SWAP4 SWAP1 SWAP4 OR SWAP1 SSTORE SWAP6 DUP11 ADD MLOAD PUSH1 0x3 DUP8 ADD SSTORE PUSH1 0x80 DUP11 ADD MLOAD PUSH1 0x4 DUP8 ADD SSTORE PUSH1 0xA0 DUP11 ADD MLOAD PUSH1 0x5 DUP8 ADD SSTORE PUSH1 0xC0 DUP11 ADD MLOAD PUSH1 0x6 DUP8 ADD DUP1 SLOAD PUSH1 0xFF NOT AND SWAP2 ISZERO ISZERO SWAP2 SWAP1 SWAP2 OR SWAP1 SSTORE PUSH1 0xE0 DUP11 ADD MLOAD PUSH1 0x7 DUP8 ADD SSTORE PUSH2 0x100 DUP1 DUP12 ADD MLOAD PUSH1 0x8 DUP9 ADD SSTORE PUSH2 0x120 DUP12 ADD MLOAD PUSH1 0x9 DUP9 ADD SSTORE PUSH2 0x140 DUP12 ADD MLOAD PUSH1 0xA SWAP1 SWAP8 ADD DUP1 SLOAD PUSH2 0x160 DUP14 ADD MLOAD PUSH2 0xFFFF NOT SWAP1 SWAP2 AND SWAP9 ISZERO ISZERO PUSH2 0xFF00 NOT AND SWAP9 SWAP1 SWAP9 OR SWAP8 ISZERO ISZERO SWAP1 SWAP2 MUL SWAP7 SWAP1 SWAP7 OR SWAP1 SWAP6 SSTORE PUSH1 0x10 DUP4 MSTORE SWAP3 KECCAK256 DUP7 MLOAD DUP2 SSTORE DUP7 DUP3 ADD MLOAD DUP1 MLOAD SWAP6 SWAP7 POP SWAP3 SWAP5 DUP8 SWAP5 SWAP2 SWAP4 PUSH3 0x10A5 SWAP4 SWAP3 DUP6 ADD SWAP3 ADD SWAP1 PUSH3 0x11AB JUMP JUMPDEST POP PUSH1 0x40 DUP3 ADD MLOAD PUSH1 0x2 DUP3 ADD SSTORE PUSH1 0x60 DUP3 ADD MLOAD PUSH1 0x3 DUP3 ADD SSTORE PUSH1 0x80 DUP3 ADD MLOAD PUSH1 0x4 DUP3 ADD SSTORE PUSH1 0xA0 DUP3 ADD MLOAD DUP1 MLOAD PUSH3 0x10E1 SWAP2 PUSH1 0x5 DUP5 ADD SWAP2 PUSH1 0x20 SWAP1 SWAP2 ADD SWAP1 PUSH3 0x11AB JUMP JUMPDEST POP POP POP PUSH1 0x1 PUSH1 0x1 PUSH1 0xA0 SHL SUB DUP7 AND PUSH0 SWAP1 DUP2 MSTORE PUSH1 0x15 PUSH1 0x20 SWAP1 DUP2 MSTORE PUSH1 0x40 SWAP2 DUP3 SWAP1 KECCAK256 DUP5 MLOAD DUP2 SSTORE DUP2 DUP6 ADD MLOAD PUSH1 0x1 DUP3 ADD SSTORE SWAP2 DUP5 ADD MLOAD PUSH1 0x2 DUP4 ADD SSTORE PUSH1 0x60 DUP5 ADD MLOAD DUP1 MLOAD DUP6 SWAP4 SWAP3 PUSH3 0x1132 SWAP3 PUSH1 0x3 DUP6 ADD SWAP3 SWAP2 ADD SWAP1 PUSH3 0x1213 JUMP JUMPDEST POP PUSH1 0x80 DUP3 ADD MLOAD PUSH1 0x4 DUP3 ADD SSTORE PUSH1 0xA0 DUP3 ADD MLOAD PUSH1 0x5 DUP3 ADD SSTORE PUSH1 0xC0 SWAP1 SWAP2 ADD MLOAD PUSH1 0x6 SWAP1 SWAP2 ADD SSTORE PUSH0 DUP1 SLOAD DUP2 MSTORE PUSH1 0xF PUSH1 0x20 SWAP1 DUP2 MSTORE PUSH1 0x40 DUP1 DUP4 KECCAK256 DUP1 SLOAD PUSH1 0x1 PUSH1 0x1 PUSH1 0xA0 SHL SUB SWAP1 SWAP11 AND PUSH1 0x1 PUSH1 0x1 PUSH1 0xA0 SHL SUB NOT SWAP1 SWAP11 AND DUP11 OR SWAP1 SSTORE SWAP8 DUP3 MSTORE PUSH1 0x17 DUP2 MSTORE SWAP1 DUP8 SWAP1 KECCAK256 DUP3 MLOAD DUP2 SSTORE SWAP1 DUP3 ADD MLOAD PUSH1 0x1 DUP3 ADD SSTORE SWAP6 ADD MLOAD PUSH1 0x2 SWAP1 SWAP6 ADD SWAP5 SWAP1 SWAP5 SSTORE POP POP POP POP JUMP JUMPDEST DUP3 DUP1 SLOAD DUP3 DUP3 SSTORE SWAP1 PUSH0 MSTORE PUSH1 0x20 PUSH0 KECCAK256 SWAP1 DUP2 ADD SWAP3 DUP3 ISZERO PUSH3 0x1201 JUMPI SWAP2 PUSH1 0x20 MUL DUP3 ADD JUMPDEST DUP3 DUP2 GT ISZERO PUSH3 0x1201 JUMPI DUP3 MLOAD DUP3 SLOAD PUSH1 0x1 PUSH1 0x1 PUSH1 0xA0 SHL SUB NOT AND PUSH1 0x1 PUSH1 0x1 PUSH1 0xA0 SHL SUB SWAP1 SWAP2 AND OR DUP3 SSTORE PUSH1 0x20 SWAP1 SWAP3 ADD SWAP2 PUSH1 0x1 SWAP1 SWAP2 ADD SWAP1 PUSH3 0x11CA JUMP JUMPDEST POP PUSH3 0x120F SWAP3 SWAP2 POP PUSH3 0x124F JUMP JUMPDEST POP SWAP1 JUMP JUMPDEST DUP3 DUP1 SLOAD DUP3 DUP3 SSTORE SWAP1 PUSH0 MSTORE PUSH1 0x20 PUSH0 KECCAK256 SWAP1 DUP2 ADD SWAP3 DUP3 ISZERO PUSH3 0x1201 JUMPI SWAP2 PUSH1 0x20 MUL DUP3 ADD JUMPDEST DUP3 DUP2 GT ISZERO PUSH3 0x1201 JUMPI DUP3 MLOAD DUP3 SSTORE SWAP2 PUSH1 0x20 ADD SWAP2 SWAP1 PUSH1 0x1 ADD SWAP1 PUSH3 0x1232 JUMP JUMPDEST JUMPDEST DUP1 DUP3 GT ISZERO PUSH3 0x120F JUMPI PUSH0 DUP2 SSTORE PUSH1 0x1 ADD PUSH3 0x1250 JUMP JUMPDEST PUSH4 0x4E487B71 PUSH1 0xE0 SHL PUSH0 MSTORE PUSH1 0x11 PUSH1 0x4 MSTORE PUSH1 0x24 PUSH0 REVERT JUMPDEST PUSH0 PUSH1 0x1 DUP3 ADD PUSH3 0x128D JUMPI PUSH3 0x128D PUSH3 0x1265 JUMP JUMPDEST POP PUSH1 0x1 ADD SWAP1 JUMP JUMPDEST PUSH4 0x4E487B71 PUSH1 0xE0 SHL PUSH0 MSTORE PUSH1 0x41 PUSH1 0x4 MSTORE PUSH1 0x24 PUSH0 REVERT JUMPDEST PUSH1 0x1 DUP2 DUP2 SHR SWAP1 DUP3 AND DUP1 PUSH3 0x12BD JUMPI PUSH1 0x7F DUP3 AND SWAP2 POP JUMPDEST PUSH1 0x20 DUP3 LT DUP2 SUB PUSH3 0x12DC JUMPI PUSH4 0x4E487B71 PUSH1 0xE0 SHL PUSH0 MSTORE PUSH1 0x22 PUSH1 0x4 MSTORE PUSH1 0x24 PUSH0 REVERT JUMPDEST POP SWAP2 SWAP1 POP JUMP JUMPDEST PUSH1 0x1F DUP3 GT ISZERO PUSH3 0x132F JUMPI PUSH0 DUP2 DUP2 MSTORE PUSH1 0x20 DUP2 KECCAK256 PUSH1 0x1F DUP6 ADD PUSH1 0x5 SHR DUP2 ADD PUSH1 0x20 DUP7 LT ISZERO PUSH3 0x130A JUMPI POP DUP1 JUMPDEST PUSH1 0x1F DUP6 ADD PUSH1 0x5 SHR DUP3 ADD SWAP2 POP JUMPDEST DUP2 DUP2 LT ISZERO PUSH3 0x132B JUMPI DUP3 DUP2 SSTORE PUSH1 0x1 ADD PUSH3 0x1316 JUMP JUMPDEST POP POP POP JUMPDEST POP POP POP JUMP JUMPDEST DUP2 MLOAD PUSH1 0x1 PUSH1 0x1 PUSH1 0x40 SHL SUB DUP2 GT ISZERO PUSH3 0x1350 JUMPI PUSH3 0x1350 PUSH3 0x1294 JUMP JUMPDEST PUSH3 0x1368 DUP2 PUSH3 0x1361 DUP5 SLOAD PUSH3 0x12A8 JUMP JUMPDEST DUP5 PUSH3 0x12E2 JUMP JUMPDEST PUSH1 0x20 DUP1 PUSH1 0x1F DUP4 GT PUSH1 0x1 DUP2 EQ PUSH3 0x139E JUMPI PUSH0 DUP5 ISZERO PUSH3 0x1386 JUMPI POP DUP6 DUP4 ADD MLOAD JUMPDEST PUSH0 NOT PUSH1 0x3 DUP7 SWAP1 SHL SHR NOT AND PUSH1 0x1 DUP6 SWAP1 SHL OR DUP6 SSTORE PUSH3 0x132B JUMP JUMPDEST PUSH0 DUP6 DUP2 MSTORE PUSH1 0x20 DUP2 KECCAK256 PUSH1 0x1F NOT DUP7 AND SWAP2 JUMPDEST DUP3 DUP2 LT ISZERO PUSH3 0x13CE JUMPI DUP9 DUP7 ADD MLOAD DUP3 SSTORE SWAP5 DUP5 ADD SWAP5 PUSH1 0x1 SWAP1 SWAP2 ADD SWAP1 DUP5 ADD PUSH3 0x13AD JUMP JUMPDEST POP DUP6 DUP3 LT ISZERO PUSH3 0x13EC JUMPI DUP8 DUP6 ADD MLOAD PUSH0 NOT PUSH1 0x3 DUP9 SWAP1 SHL PUSH1 0xF8 AND SHR NOT AND DUP2 SSTORE JUMPDEST POP POP POP POP POP PUSH1 0x1 SWAP1 DUP2 SHL ADD SWAP1 SSTORE POP JUMP JUMPDEST PUSH1 0x1 DUP2 DUP2 JUMPDEST DUP1 DUP6 GT ISZERO PUSH3 0x143C JUMPI DUP2 PUSH0 NOT DIV DUP3 GT ISZERO PUSH3 0x1420 JUMPI PUSH3 0x1420 PUSH3 0x1265 JUMP JUMPDEST DUP1 DUP6 AND ISZERO PUSH3 0x142E JUMPI SWAP2 DUP2 MUL SWAP2 JUMPDEST SWAP4 DUP5 SHR SWAP4 SWAP1 DUP1 MUL SWAP1 PUSH3 0x1401 JUMP JUMPDEST POP SWAP3 POP SWAP3 SWAP1 POP JUMP JUMPDEST PUSH0 DUP3 PUSH3 0x1454 JUMPI POP PUSH1 0x1 PUSH3 0xDBD JUMP JUMPDEST DUP2 PUSH3 0x1462 JUMPI POP PUSH0 PUSH3 0xDBD JUMP JUMPDEST DUP2 PUSH1 0x1 DUP2 EQ PUSH3 0x147B JUMPI PUSH1 0x2 DUP2 EQ PUSH3 0x1486 JUMPI PUSH3 0x14A6 JUMP JUMPDEST PUSH1 0x1 SWAP2 POP POP PUSH3 0xDBD JUMP JUMPDEST PUSH1 0xFF DUP5 GT ISZERO PUSH3 0x149A JUMPI PUSH3 0x149A PUSH3 0x1265 JUMP JUMPDEST POP POP PUSH1 0x1 DUP3 SHL PUSH3 0xDBD JUMP JUMPDEST POP PUSH1 0x20 DUP4 LT PUSH2 0x133 DUP4 LT AND PUSH1 0x4E DUP5 LT PUSH1 0xB DUP5 LT AND OR ISZERO PUSH3 0x14CB JUMPI POP DUP2 DUP2 EXP PUSH3 0xDBD JUMP JUMPDEST PUSH3 0x14D7 DUP4 DUP4 PUSH3 0x13FC JUMP JUMPDEST DUP1 PUSH0 NOT DIV DUP3 GT ISZERO PUSH3 0x14ED JUMPI PUSH3 0x14ED PUSH3 0x1265 JUMP JUMPDEST MUL SWAP4 SWAP3 POP POP POP JUMP JUMPDEST PUSH0 PUSH3 0x1502 DUP4 DUP4 PUSH3 0x1444 JUMP JUMPDEST SWAP4 SWAP3 POP POP POP JUMP JUMPDEST DUP1 DUP3 MUL DUP2 ISZERO DUP3 DUP3 DIV DUP5 EQ OR PUSH3 0xDBD JUMPI PUSH3 0xDBD PUSH3 0x1265 JUMP JUMPDEST DUP1 DUP3 ADD DUP1 DUP3 GT ISZERO PUSH3 0xDBD JUMPI PUSH3 0xDBD PUSH3 0x1265 JUMP JUMPDEST PUSH2 0x4663 DUP1 PUSH3 0x1547 PUSH0 CODECOPY PUSH0 RETURN INVALID PUSH1 0x80 PUSH1 0x40 MSTORE PUSH1 0x4 CALLDATASIZE LT PUSH2 0x212 JUMPI PUSH0 CALLDATALOAD PUSH1 0xE0 SHR DUP1 PUSH4 0x6B1A7086 GT PUSH2 0x11E JUMPI DUP1 PUSH4 0xBA32F6F4 GT PUSH2 0xA8 JUMPI DUP1 PUSH4 0xEECC1C95 GT PUSH2 0x6D JUMPI DUP1 PUSH4 0xEECC1C95 EQ PUSH2 0x914 JUMPI DUP1 PUSH4 0xEEDA149C EQ PUSH2 0x943 JUMPI DUP1 PUSH4 0xF279E6A1 EQ PUSH2 0x956 JUMPI DUP1 PUSH4 0xFD0BB36C EQ PUSH2 0x975 JUMPI DUP1 PUSH4 0xFF9B6364 EQ PUSH2 0x9B6 JUMPI PUSH0 DUP1 REVERT JUMPDEST DUP1 PUSH4 0xBA32F6F4 EQ PUSH2 0x7D9 JUMPI DUP1 PUSH4 0xC5F00964 EQ PUSH2 0x7F8 JUMPI DUP1 PUSH4 0xCA4810AF EQ PUSH2 0x832 JUMPI DUP1 PUSH4 0xE315927B EQ PUSH2 0x868 JUMPI DUP1 PUSH4 0xEDBDC914 EQ PUSH2 0x8E3 JUMPI PUSH0 DUP1 REVERT JUMPDEST DUP1 PUSH4 0xA18A609A GT PUSH2 0xEE JUMPI DUP1 PUSH4 0xA18A609A EQ PUSH2 0x72A JUMPI DUP1 PUSH4 0xA3AF609B EQ PUSH2 0x75E JUMPI DUP1 PUSH4 0xA4B6F5E1 EQ PUSH2 0x771 JUMPI DUP1 PUSH4 0xA5F94521 EQ PUSH2 0x786 JUMPI DUP1 PUSH4 0xAC3A4800 EQ PUSH2 0x7A5 JUMPI PUSH0 DUP1 REVERT JUMPDEST DUP1 PUSH4 0x6B1A7086 EQ PUSH2 0x64E JUMPI DUP1 PUSH4 0x705116A0 EQ PUSH2 0x6A5 JUMPI DUP1 PUSH4 0x759369D2 EQ PUSH2 0x6DF JUMPI DUP1 PUSH4 0x88CB410D EQ PUSH2 0x70B JUMPI PUSH0 DUP1 REVERT JUMPDEST DUP1 PUSH4 0x4788312F GT PUSH2 0x19F JUMPI DUP1 PUSH4 0x5B6B431D GT PUSH2 0x16F JUMPI DUP1 PUSH4 0x5B6B431D EQ PUSH2 0x4D8 JUMPI DUP1 PUSH4 0x5BE94E83 EQ PUSH2 0x4F7 JUMPI DUP1 PUSH4 0x5CF75517 EQ PUSH2 0x523 JUMPI DUP1 PUSH4 0x641FBA96 EQ PUSH2 0x61B JUMPI DUP1 PUSH4 0x68EC2FBE EQ PUSH2 0x62F JUMPI PUSH0 DUP1 REVERT JUMPDEST DUP1 PUSH4 0x4788312F EQ PUSH2 0x44A JUMPI DUP1 PUSH4 0x4A40F2FE EQ PUSH2 0x45F JUMPI DUP1 PUSH4 0x54A03E38 EQ PUSH2 0x48B JUMPI DUP1 PUSH4 0x5A015583 EQ PUSH2 0x4B7 JUMPI PUSH0 DUP1 REVERT JUMPDEST DUP1 PUSH4 0x2A530A36 GT PUSH2 0x1E5 JUMPI DUP1 PUSH4 0x2A530A36 EQ PUSH2 0x31E JUMPI DUP1 PUSH4 0x2E628E2E EQ PUSH2 0x37E JUMPI DUP1 PUSH4 0x365152FA EQ PUSH2 0x3AA JUMPI DUP1 PUSH4 0x3936E8B9 EQ PUSH2 0x40A JUMPI DUP1 PUSH4 0x3DAA551C EQ PUSH2 0x429 JUMPI PUSH0 DUP1 REVERT JUMPDEST DUP1 PUSH4 0x7D94067 EQ PUSH2 0x216 JUMPI DUP1 PUSH4 0x1362E8E6 EQ PUSH2 0x26D JUMPI DUP1 PUSH4 0x1BFE37CE EQ PUSH2 0x2B1 JUMPI DUP1 PUSH4 0x1CFA6E9B EQ PUSH2 0x2E7 JUMPI JUMPDEST PUSH0 DUP1 REVERT JUMPDEST CALLVALUE DUP1 ISZERO PUSH2 0x221 JUMPI PUSH0 DUP1 REVERT JUMPDEST POP PUSH2 0x253 PUSH2 0x230 CALLDATASIZE PUSH1 0x4 PUSH2 0x3F25 JUMP JUMPDEST PUSH1 0x12 PUSH1 0x20 SWAP1 DUP2 MSTORE PUSH0 SWAP3 DUP4 MSTORE PUSH1 0x40 DUP1 DUP5 KECCAK256 SWAP1 SWAP2 MSTORE SWAP1 DUP3 MSTORE SWAP1 KECCAK256 DUP1 SLOAD PUSH1 0x1 SWAP1 SWAP2 ADD SLOAD DUP3 JUMP JUMPDEST PUSH1 0x40 DUP1 MLOAD SWAP3 DUP4 MSTORE PUSH1 0x20 DUP4 ADD SWAP2 SWAP1 SWAP2 MSTORE ADD JUMPDEST PUSH1 0x40 MLOAD DUP1 SWAP2 SUB SWAP1 RETURN JUMPDEST CALLVALUE DUP1 ISZERO PUSH2 0x278 JUMPI PUSH0 DUP1 REVERT JUMPDEST POP PUSH2 0x2A3 PUSH2 0x287 CALLDATASIZE PUSH1 0x4 PUSH2 0x3F25 JUMP JUMPDEST PUSH1 0x16 PUSH1 0x20 SWAP1 DUP2 MSTORE PUSH0 SWAP3 DUP4 MSTORE PUSH1 0x40 DUP1 DUP5 KECCAK256 SWAP1 SWAP2 MSTORE SWAP1 DUP3 MSTORE SWAP1 KECCAK256 SLOAD DUP2 JUMP JUMPDEST PUSH1 0x40 MLOAD SWAP1 DUP2 MSTORE PUSH1 0x20 ADD PUSH2 0x264 JUMP JUMPDEST CALLVALUE DUP1 ISZERO PUSH2 0x2BC JUMPI PUSH0 DUP1 REVERT JUMPDEST POP PUSH2 0x2A3 PUSH2 0x2CB CALLDATASIZE PUSH1 0x4 PUSH2 0x3F25 JUMP JUMPDEST PUSH1 0x13 PUSH1 0x20 SWAP1 DUP2 MSTORE PUSH0 SWAP3 DUP4 MSTORE PUSH1 0x40 DUP1 DUP5 KECCAK256 SWAP1 SWAP2 MSTORE SWAP1 DUP3 MSTORE SWAP1 KECCAK256 SLOAD DUP2 JUMP JUMPDEST CALLVALUE DUP1 ISZERO PUSH2 0x2F2 JUMPI PUSH0 DUP1 REVERT JUMPDEST POP PUSH1 0x3 SLOAD PUSH2 0x306 SWAP1 PUSH1 0x1 PUSH1 0x1 PUSH1 0xA0 SHL SUB AND DUP2 JUMP JUMPDEST PUSH1 0x40 MLOAD PUSH1 0x1 PUSH1 0x1 PUSH1 0xA0 SHL SUB SWAP1 SWAP2 AND DUP2 MSTORE PUSH1 0x20 ADD PUSH2 0x264 JUMP JUMPDEST CALLVALUE DUP1 ISZERO PUSH2 0x329 JUMPI PUSH0 DUP1 REVERT JUMPDEST POP PUSH2 0x35E PUSH2 0x338 CALLDATASIZE PUSH1 0x4 PUSH2 0x3F4D JUMP JUMPDEST PUSH1 0x10 PUSH1 0x20 MSTORE PUSH0 SWAP1 DUP2 MSTORE PUSH1 0x40 SWAP1 KECCAK256 DUP1 SLOAD PUSH1 0x2 DUP3 ADD SLOAD PUSH1 0x3 DUP4 ADD SLOAD PUSH1 0x4 SWAP1 SWAP4 ADD SLOAD SWAP2 SWAP3 SWAP1 SWAP2 DUP5 JUMP JUMPDEST PUSH1 0x40 DUP1 MLOAD SWAP5 DUP6 MSTORE PUSH1 0x20 DUP6 ADD SWAP4 SWAP1 SWAP4 MSTORE SWAP2 DUP4 ADD MSTORE PUSH1 0x60 DUP3 ADD MSTORE PUSH1 0x80 ADD PUSH2 0x264 JUMP JUMPDEST CALLVALUE DUP1 ISZERO PUSH2 0x389 JUMPI PUSH0 DUP1 REVERT JUMPDEST POP PUSH2 0x39D PUSH2 0x398 CALLDATASIZE PUSH1 0x4 PUSH2 0x3F66 JUMP JUMPDEST PUSH2 0x9CA JUMP JUMPDEST PUSH1 0x40 MLOAD PUSH2 0x264 SWAP2 SWAP1 PUSH2 0x3F96 JUMP JUMPDEST CALLVALUE DUP1 ISZERO PUSH2 0x3B5 JUMPI PUSH0 DUP1 REVERT JUMPDEST POP PUSH2 0x3EF PUSH2 0x3C4 CALLDATASIZE PUSH1 0x4 PUSH2 0x3F25 JUMP JUMPDEST PUSH1 0x11 PUSH1 0x20 SWAP1 DUP2 MSTORE PUSH0 SWAP3 DUP4 MSTORE PUSH1 0x40 DUP1 DUP5 KECCAK256 SWAP1 SWAP2 MSTORE SWAP1 DUP3 MSTORE SWAP1 KECCAK256 DUP1 SLOAD PUSH1 0x1 DUP3 ADD SLOAD PUSH1 0x2 SWAP1 SWAP3 ADD SLOAD SWAP1 SWAP2 SWAP1 DUP4 JUMP JUMPDEST PUSH1 0x40 DUP1 MLOAD SWAP4 DUP5 MSTORE PUSH1 0x20 DUP5 ADD SWAP3 SWAP1 SWAP3 MSTORE SWAP1 DUP3 ADD MSTORE PUSH1 0x60 ADD PUSH2 0x264 JUMP JUMPDEST CALLVALUE DUP1 ISZERO PUSH2 0x415 JUMPI PUSH0 DUP1 REVERT JUMPDEST POP PUSH1 0x4 SLOAD PUSH2 0x306 SWAP1 PUSH1 0x1 PUSH1 0x1 PUSH1 0xA0 SHL SUB AND DUP2 JUMP JUMPDEST CALLVALUE DUP1 ISZERO PUSH2 0x434 JUMPI PUSH0 DUP1 REVERT JUMPDEST POP PUSH2 0x43D PUSH2 0xB5C JUMP JUMPDEST PUSH1 0x40 MLOAD PUSH2 0x264 SWAP2 SWAP1 PUSH2 0x4031 JUMP JUMPDEST CALLVALUE DUP1 ISZERO PUSH2 0x455 JUMPI PUSH0 DUP1 REVERT JUMPDEST POP PUSH2 0x2A3 PUSH1 0x2 SLOAD DUP2 JUMP JUMPDEST CALLVALUE DUP1 ISZERO PUSH2 0x46A JUMPI PUSH0 DUP1 REVERT JUMPDEST POP PUSH2 0x47E PUSH2 0x479 CALLDATASIZE PUSH1 0x4 PUSH2 0x3F4D JUMP JUMPDEST PUSH2 0xD55 JUMP JUMPDEST PUSH1 0x40 MLOAD PUSH2 0x264 SWAP2 SWAP1 PUSH2 0x40FB JUMP JUMPDEST CALLVALUE DUP1 ISZERO PUSH2 0x496 JUMPI PUSH0 DUP1 REVERT JUMPDEST POP PUSH2 0x4AA PUSH2 0x4A5 CALLDATASIZE PUSH1 0x4 PUSH2 0x3F4D JUMP JUMPDEST PUSH2 0xECB JUMP JUMPDEST PUSH1 0x40 MLOAD PUSH2 0x264 SWAP2 SWAP1 PUSH2 0x4171 JUMP JUMPDEST CALLVALUE DUP1 ISZERO PUSH2 0x4C2 JUMPI PUSH0 DUP1 REVERT JUMPDEST POP PUSH2 0x4D6 PUSH2 0x4D1 CALLDATASIZE PUSH1 0x4 PUSH2 0x4246 JUMP JUMPDEST PUSH2 0x12F4 JUMP JUMPDEST STOP JUMPDEST CALLVALUE DUP1 ISZERO PUSH2 0x4E3 JUMPI PUSH0 DUP1 REVERT JUMPDEST POP PUSH2 0x4D6 PUSH2 0x4F2 CALLDATASIZE PUSH1 0x4 PUSH2 0x427F JUMP JUMPDEST PUSH2 0x1489 JUMP JUMPDEST CALLVALUE DUP1 ISZERO PUSH2 0x502 JUMPI PUSH0 DUP1 REVERT JUMPDEST POP PUSH2 0x516 PUSH2 0x511 CALLDATASIZE PUSH1 0x4 PUSH2 0x3F4D JUMP JUMPDEST PUSH2 0x17BF JUMP JUMPDEST PUSH1 0x40 MLOAD PUSH2 0x264 SWAP2 SWAP1 PUSH2 0x4296 JUMP JUMPDEST CALLVALUE DUP1 ISZERO PUSH2 0x52E JUMPI PUSH0 DUP1 REVERT JUMPDEST POP PUSH2 0x5B0 PUSH2 0x53D CALLDATASIZE PUSH1 0x4 PUSH2 0x3F4D JUMP JUMPDEST PUSH1 0xE PUSH1 0x20 MSTORE PUSH0 SWAP1 DUP2 MSTORE PUSH1 0x40 SWAP1 KECCAK256 DUP1 SLOAD PUSH1 0x1 DUP3 ADD SLOAD PUSH1 0x2 DUP4 ADD SLOAD PUSH1 0x3 DUP5 ADD SLOAD PUSH1 0x4 DUP6 ADD SLOAD PUSH1 0x5 DUP7 ADD SLOAD PUSH1 0x6 DUP8 ADD SLOAD PUSH1 0x7 DUP9 ADD SLOAD PUSH1 0x8 DUP10 ADD SLOAD PUSH1 0x9 DUP11 ADD SLOAD PUSH1 0xA SWAP1 SWAP11 ADD SLOAD SWAP9 SWAP10 PUSH1 0x1 PUSH1 0x1 PUSH1 0xA0 SHL SUB SWAP9 DUP10 AND SWAP10 SWAP8 SWAP1 SWAP9 AND SWAP8 SWAP6 SWAP7 SWAP5 SWAP6 SWAP4 SWAP5 PUSH1 0xFF SWAP4 DUP5 AND SWAP5 SWAP3 SWAP4 SWAP2 SWAP3 SWAP2 DUP2 DUP2 AND SWAP2 PUSH2 0x100 SWAP1 DIV AND DUP13 JUMP JUMPDEST PUSH1 0x40 DUP1 MLOAD SWAP13 DUP14 MSTORE PUSH1 0x1 PUSH1 0x1 PUSH1 0xA0 SHL SUB SWAP12 DUP13 AND PUSH1 0x20 DUP15 ADD MSTORE SWAP10 SWAP1 SWAP11 AND SWAP9 DUP12 ADD SWAP9 SWAP1 SWAP9 MSTORE PUSH1 0x60 DUP11 ADD SWAP7 SWAP1 SWAP7 MSTORE PUSH1 0x80 DUP10 ADD SWAP5 SWAP1 SWAP5 MSTORE PUSH1 0xA0 DUP9 ADD SWAP3 SWAP1 SWAP3 MSTORE ISZERO ISZERO PUSH1 0xC0 DUP8 ADD MSTORE PUSH1 0xE0 DUP7 ADD MSTORE PUSH2 0x100 DUP6 ADD MSTORE PUSH2 0x120 DUP5 ADD MSTORE ISZERO ISZERO PUSH2 0x140 DUP4 ADD MSTORE ISZERO ISZERO PUSH2 0x160 DUP3 ADD MSTORE PUSH2 0x180 ADD PUSH2 0x264 JUMP JUMPDEST CALLVALUE DUP1 ISZERO PUSH2 0x626 JUMPI PUSH0 DUP1 REVERT JUMPDEST POP PUSH2 0x2A3 PUSH0 SLOAD DUP2 JUMP JUMPDEST CALLVALUE DUP1 ISZERO PUSH2 0x63A JUMPI PUSH0 DUP1 REVERT JUMPDEST POP PUSH2 0x4D6 PUSH2 0x649 CALLDATASIZE PUSH1 0x4 PUSH2 0x3F4D JUMP JUMPDEST PUSH2 0x19C9 JUMP JUMPDEST CALLVALUE DUP1 ISZERO PUSH2 0x659 JUMPI PUSH0 DUP1 REVERT JUMPDEST POP PUSH2 0x662 PUSH2 0x1A0F JUMP JUMPDEST PUSH1 0x40 MLOAD PUSH2 0x264 SWAP2 SWAP1 PUSH0 PUSH1 0xA0 DUP3 ADD SWAP1 POP DUP3 MLOAD DUP3 MSTORE PUSH1 0x20 DUP4 ADD MLOAD PUSH1 0x20 DUP4 ADD MSTORE PUSH1 0x40 DUP4 ADD MLOAD PUSH1 0x40 DUP4 ADD MSTORE PUSH1 0x60 DUP4 ADD MLOAD PUSH1 0x60 DUP4 ADD MSTORE PUSH1 0x80 DUP4 ADD MLOAD ISZERO ISZERO PUSH1 0x80 DUP4 ADD MSTORE SWAP3 SWAP2 POP POP JUMP JUMPDEST CALLVALUE DUP1 ISZERO PUSH2 0x6B0 JUMPI PUSH0 DUP1 REVERT JUMPDEST POP PUSH2 0x3EF PUSH2 0x6BF CALLDATASIZE PUSH1 0x4 PUSH2 0x427F JUMP JUMPDEST PUSH1 0xC PUSH1 0x20 MSTORE PUSH0 SWAP1 DUP2 MSTORE PUSH1 0x40 SWAP1 KECCAK256 DUP1 SLOAD PUSH1 0x1 DUP3 ADD SLOAD PUSH1 0x2 SWAP1 SWAP3 ADD SLOAD SWAP1 SWAP2 SWAP1 DUP4 JUMP JUMPDEST CALLVALUE DUP1 ISZERO PUSH2 0x6EA JUMPI PUSH0 DUP1 REVERT JUMPDEST POP PUSH2 0x6FE PUSH2 0x6F9 CALLDATASIZE PUSH1 0x4 PUSH2 0x3F66 JUMP JUMPDEST PUSH2 0x1A7D JUMP JUMPDEST PUSH1 0x40 MLOAD PUSH2 0x264 SWAP2 SWAP1 PUSH2 0x42F5 JUMP JUMPDEST CALLVALUE DUP1 ISZERO PUSH2 0x716 JUMPI PUSH0 DUP1 REVERT JUMPDEST POP PUSH1 0x5 SLOAD PUSH2 0x306 SWAP1 PUSH1 0x1 PUSH1 0x1 PUSH1 0xA0 SHL SUB AND DUP2 JUMP JUMPDEST CALLVALUE DUP1 ISZERO PUSH2 0x735 JUMPI PUSH0 DUP1 REVERT JUMPDEST POP PUSH2 0x749 PUSH2 0x744 CALLDATASIZE PUSH1 0x4 PUSH2 0x427F JUMP JUMPDEST PUSH2 0x1BF0 JUMP JUMPDEST PUSH1 0x40 MLOAD PUSH2 0x264 SWAP10 SWAP9 SWAP8 SWAP7 SWAP6 SWAP5 SWAP4 SWAP3 SWAP2 SWAP1 PUSH2 0x4336 JUMP JUMPDEST PUSH2 0x4D6 PUSH2 0x76C CALLDATASIZE PUSH1 0x4 PUSH2 0x438A JUMP JUMPDEST PUSH2 0x1CC8 JUMP JUMPDEST CALLVALUE DUP1 ISZERO PUSH2 0x77C JUMPI PUSH0 DUP1 REVERT JUMPDEST POP PUSH2 0x2A3 PUSH1 0x1 SLOAD DUP2 JUMP JUMPDEST CALLVALUE DUP1 ISZERO PUSH2 0x791 JUMPI PUSH0 DUP1 REVERT JUMPDEST POP PUSH2 0x4D6 PUSH2 0x7A0 CALLDATASIZE PUSH1 0x4 PUSH2 0x3F4D JUMP JUMPDEST PUSH2 0x1CD6 JUMP JUMPDEST CALLVALUE DUP1 ISZERO PUSH2 0x7B0 JUMPI PUSH0 DUP1 REVERT JUMPDEST POP PUSH2 0x306 PUSH2 0x7BF CALLDATASIZE PUSH1 0x4 PUSH2 0x427F JUMP JUMPDEST PUSH1 0xF PUSH1 0x20 MSTORE PUSH0 SWAP1 DUP2 MSTORE PUSH1 0x40 SWAP1 KECCAK256 SLOAD PUSH1 0x1 PUSH1 0x1 PUSH1 0xA0 SHL SUB AND DUP2 JUMP JUMPDEST CALLVALUE DUP1 ISZERO PUSH2 0x7E4 JUMPI PUSH0 DUP1 REVERT JUMPDEST POP PUSH2 0x4D6 PUSH2 0x7F3 CALLDATASIZE PUSH1 0x4 PUSH2 0x3F4D JUMP JUMPDEST PUSH2 0x1D1C JUMP JUMPDEST CALLVALUE DUP1 ISZERO PUSH2 0x803 JUMPI PUSH0 DUP1 REVERT JUMPDEST POP PUSH2 0x3EF PUSH2 0x812 CALLDATASIZE PUSH1 0x4 PUSH2 0x3F4D JUMP JUMPDEST PUSH1 0x17 PUSH1 0x20 MSTORE PUSH0 SWAP1 DUP2 MSTORE PUSH1 0x40 SWAP1 KECCAK256 DUP1 SLOAD PUSH1 0x1 DUP3 ADD SLOAD PUSH1 0x2 SWAP1 SWAP3 ADD SLOAD SWAP1 SWAP2 SWAP1 DUP4 JUMP JUMPDEST CALLVALUE DUP1 ISZERO PUSH2 0x83D JUMPI PUSH0 DUP1 REVERT JUMPDEST POP PUSH2 0x2A3 PUSH2 0x84C CALLDATASIZE PUSH1 0x4 PUSH2 0x3F25 JUMP JUMPDEST PUSH1 0x14 PUSH1 0x20 SWAP1 DUP2 MSTORE PUSH0 SWAP3 DUP4 MSTORE PUSH1 0x40 DUP1 DUP5 KECCAK256 SWAP1 SWAP2 MSTORE SWAP1 DUP3 MSTORE SWAP1 KECCAK256 SLOAD DUP2 JUMP JUMPDEST CALLVALUE DUP1 ISZERO PUSH2 0x873 JUMPI PUSH0 DUP1 REVERT JUMPDEST POP PUSH2 0x8B6 PUSH2 0x882 CALLDATASIZE PUSH1 0x4 PUSH2 0x3F4D JUMP JUMPDEST PUSH1 0x15 PUSH1 0x20 MSTORE PUSH0 SWAP1 DUP2 MSTORE PUSH1 0x40 SWAP1 KECCAK256 DUP1 SLOAD PUSH1 0x1 DUP3 ADD SLOAD PUSH1 0x2 DUP4 ADD SLOAD PUSH1 0x4 DUP5 ADD SLOAD PUSH1 0x5 DUP6 ADD SLOAD PUSH1 0x6 SWAP1 SWAP6 ADD SLOAD SWAP4 SWAP5 SWAP3 SWAP4 SWAP2 SWAP3 SWAP1 SWAP2 DUP7 JUMP JUMPDEST PUSH1 0x40 DUP1 MLOAD SWAP7 DUP8 MSTORE PUSH1 0x20 DUP8 ADD SWAP6 SWAP1 SWAP6 MSTORE SWAP4 DUP6 ADD SWAP3 SWAP1 SWAP3 MSTORE PUSH1 0x60 DUP5 ADD MSTORE PUSH1 0x80 DUP4 ADD MSTORE PUSH1 0xA0 DUP3 ADD MSTORE PUSH1 0xC0 ADD PUSH2 0x264 JUMP JUMPDEST CALLVALUE DUP1 ISZERO PUSH2 0x8EE JUMPI PUSH0 DUP1 REVERT JUMPDEST POP PUSH2 0x902 PUSH2 0x8FD CALLDATASIZE PUSH1 0x4 PUSH2 0x427F JUMP JUMPDEST PUSH2 0x1D62 JUMP JUMPDEST PUSH1 0x40 MLOAD PUSH2 0x264 SWAP7 SWAP6 SWAP5 SWAP4 SWAP3 SWAP2 SWAP1 PUSH2 0x43AA JUMP JUMPDEST CALLVALUE DUP1 ISZERO PUSH2 0x91F JUMPI PUSH0 DUP1 REVERT JUMPDEST POP PUSH2 0x933 PUSH2 0x92E CALLDATASIZE PUSH1 0x4 PUSH2 0x3F4D JUMP JUMPDEST PUSH2 0x1E1C JUMP JUMPDEST PUSH1 0x40 MLOAD SWAP1 ISZERO ISZERO DUP2 MSTORE PUSH1 0x20 ADD PUSH2 0x264 JUMP JUMPDEST PUSH2 0x4D6 PUSH2 0x951 CALLDATASIZE PUSH1 0x4 PUSH2 0x3F4D JUMP JUMPDEST PUSH2 0x1E63 JUMP JUMPDEST CALLVALUE DUP1 ISZERO PUSH2 0x961 JUMPI PUSH0 DUP1 REVERT JUMPDEST POP PUSH2 0x4D6 PUSH2 0x970 CALLDATASIZE PUSH1 0x4 PUSH2 0x3F66 JUMP JUMPDEST PUSH2 0x1E6F JUMP JUMPDEST CALLVALUE DUP1 ISZERO PUSH2 0x980 JUMPI PUSH0 DUP1 REVERT JUMPDEST POP PUSH2 0x2A3 PUSH2 0x98F CALLDATASIZE PUSH1 0x4 PUSH2 0x3F25 JUMP JUMPDEST PUSH1 0x1 PUSH1 0x1 PUSH1 0xA0 SHL SUB SWAP2 SWAP1 SWAP2 AND PUSH0 SWAP1 DUP2 MSTORE PUSH1 0x16 PUSH1 0x20 SWAP1 DUP2 MSTORE PUSH1 0x40 DUP1 DUP4 KECCAK256 SWAP4 DUP4 MSTORE SWAP3 SWAP1 MSTORE KECCAK256 SLOAD SWAP1 JUMP JUMPDEST CALLVALUE DUP1 ISZERO PUSH2 0x9C1 JUMPI PUSH0 DUP1 REVERT JUMPDEST POP PUSH2 0x933 PUSH2 0x20C7 JUMP JUMPDEST PUSH1 0x1 PUSH1 0x1 PUSH1 0xA0 SHL SUB DUP4 AND PUSH0 SWAP1 DUP2 MSTORE PUSH1 0x17 PUSH1 0x20 MSTORE PUSH1 0x40 SWAP1 KECCAK256 SLOAD PUSH1 0x60 SWAP1 PUSH8 0xFFFFFFFFFFFFFFFF DUP2 GT ISZERO PUSH2 0x9FD JUMPI PUSH2 0x9FD PUSH2 0x43E7 JUMP JUMPDEST PUSH1 0x40 MLOAD SWAP1 DUP1 DUP3 MSTORE DUP1 PUSH1 0x20 MUL PUSH1 0x20 ADD DUP3 ADD PUSH1 0x40 MSTORE DUP1 ISZERO PUSH2 0xA4F JUMPI DUP2 PUSH1 0x20 ADD JUMPDEST PUSH2 0xA3C PUSH1 0x40 MLOAD DUP1 PUSH1 0x60 ADD PUSH1 0x40 MSTORE DUP1 PUSH0 DUP2 MSTORE PUSH1 0x20 ADD PUSH0 DUP2 MSTORE PUSH1 0x20 ADD PUSH0 DUP2 MSTORE POP SWAP1 JUMP JUMPDEST DUP2 MSTORE PUSH1 0x20 ADD SWAP1 PUSH1 0x1 SWAP1 SUB SWAP1 DUP2 PUSH2 0xA1B JUMPI SWAP1 POP JUMPDEST POP PUSH1 0x1 PUSH1 0x1 PUSH1 0xA0 SHL SUB DUP6 AND PUSH0 SWAP1 DUP2 MSTORE PUSH1 0x17 PUSH1 0x20 MSTORE PUSH1 0x40 DUP2 KECCAK256 SLOAD SWAP2 SWAP3 POP SWAP1 PUSH2 0xA76 DUP5 DUP7 PUSH2 0x440F JUMP JUMPDEST GT PUSH2 0xA8A JUMPI PUSH2 0xA85 DUP4 DUP6 PUSH2 0x440F JUMP JUMPDEST PUSH2 0xAA3 JUMP JUMPDEST PUSH1 0x1 PUSH1 0x1 PUSH1 0xA0 SHL SUB DUP6 AND PUSH0 SWAP1 DUP2 MSTORE PUSH1 0x17 PUSH1 0x20 MSTORE PUSH1 0x40 SWAP1 KECCAK256 SLOAD JUMPDEST SWAP1 POP PUSH0 DUP4 DUP3 LT ISZERO PUSH2 0xAB4 JUMPI PUSH0 PUSH2 0xABE JUMP JUMPDEST PUSH2 0xABE DUP5 DUP4 PUSH2 0x4426 JUMP JUMPDEST SWAP1 POP PUSH0 DUP3 JUMPDEST DUP3 DUP2 GT ISZERO PUSH2 0xB51 JUMPI PUSH1 0x1 PUSH1 0x1 PUSH1 0xA0 SHL SUB DUP9 AND PUSH0 SWAP1 DUP2 MSTORE PUSH1 0x11 PUSH1 0x20 SWAP1 DUP2 MSTORE PUSH1 0x40 DUP1 DUP4 KECCAK256 DUP5 DUP5 MSTORE DUP3 MSTORE SWAP2 DUP3 SWAP1 KECCAK256 DUP3 MLOAD PUSH1 0x60 DUP2 ADD DUP5 MSTORE DUP2 SLOAD DUP2 MSTORE PUSH1 0x1 DUP3 ADD SLOAD SWAP3 DUP2 ADD SWAP3 SWAP1 SWAP3 MSTORE PUSH1 0x2 ADD SLOAD SWAP2 DUP2 ADD SWAP2 SWAP1 SWAP2 MSTORE DUP6 MLOAD DUP7 SWAP1 DUP5 SWAP1 DUP2 LT PUSH2 0xB25 JUMPI PUSH2 0xB25 PUSH2 0x4439 JUMP JUMPDEST PUSH1 0x20 MUL PUSH1 0x20 ADD ADD DUP2 SWAP1 MSTORE POP DUP2 DUP1 PUSH2 0xB3B SWAP1 PUSH2 0x444D JUMP JUMPDEST SWAP3 POP POP DUP1 DUP1 PUSH2 0xB49 SWAP1 PUSH2 0x4465 JUMP JUMPDEST SWAP2 POP POP PUSH2 0xAC3 JUMP JUMPDEST POP POP POP POP SWAP4 SWAP3 POP POP POP JUMP JUMPDEST PUSH1 0x60 PUSH0 PUSH1 0x9 SLOAD PUSH8 0xFFFFFFFFFFFFFFFF DUP2 GT ISZERO PUSH2 0xB7A JUMPI PUSH2 0xB7A PUSH2 0x43E7 JUMP JUMPDEST PUSH1 0x40 MLOAD SWAP1 DUP1 DUP3 MSTORE DUP1 PUSH1 0x20 MUL PUSH1 0x20 ADD DUP3 ADD PUSH1 0x40 MSTORE DUP1 ISZERO PUSH2 0xBF8 JUMPI DUP2 PUSH1 0x20 ADD JUMPDEST PUSH2 0xBE5 PUSH1 0x40 MLOAD DUP1 PUSH2 0x120 ADD PUSH1 0x40 MSTORE DUP1 PUSH0 DUP2 MSTORE PUSH1 0x20 ADD PUSH1 0x60 DUP2 MSTORE PUSH1 0x20 ADD PUSH0 DUP2 MSTORE PUSH1 0x20 ADD PUSH0 ISZERO ISZERO DUP2 MSTORE PUSH1 0x20 ADD PUSH0 ISZERO ISZERO DUP2 MSTORE PUSH1 0x20 ADD PUSH0 DUP2 MSTORE PUSH1 0x20 ADD PUSH0 DUP2 MSTORE PUSH1 0x20 ADD PUSH0 DUP2 MSTORE PUSH1 0x20 ADD PUSH0 ISZERO ISZERO DUP2 MSTORE POP SWAP1 JUMP JUMPDEST DUP2 MSTORE PUSH1 0x20 ADD SWAP1 PUSH1 0x1 SWAP1 SUB SWAP1 DUP2 PUSH2 0xB98 JUMPI SWAP1 POP JUMPDEST POP SWAP1 POP PUSH1 0x1 JUMPDEST PUSH1 0x9 SLOAD DUP2 GT PUSH2 0xD4F JUMPI PUSH1 0xB PUSH0 DUP3 DUP2 MSTORE PUSH1 0x20 ADD SWAP1 DUP2 MSTORE PUSH1 0x20 ADD PUSH0 KECCAK256 PUSH1 0x40 MLOAD DUP1 PUSH2 0x120 ADD PUSH1 0x40 MSTORE SWAP1 DUP2 PUSH0 DUP3 ADD SLOAD DUP2 MSTORE PUSH1 0x20 ADD PUSH1 0x1 DUP3 ADD DUP1 SLOAD PUSH2 0xC3D SWAP1 PUSH2 0x447A JUMP JUMPDEST DUP1 PUSH1 0x1F ADD PUSH1 0x20 DUP1 SWAP2 DIV MUL PUSH1 0x20 ADD PUSH1 0x40 MLOAD SWAP1 DUP2 ADD PUSH1 0x40 MSTORE DUP1 SWAP3 SWAP2 SWAP1 DUP2 DUP2 MSTORE PUSH1 0x20 ADD DUP3 DUP1 SLOAD PUSH2 0xC69 SWAP1 PUSH2 0x447A JUMP JUMPDEST DUP1 ISZERO PUSH2 0xCB4 JUMPI DUP1 PUSH1 0x1F LT PUSH2 0xC8B JUMPI PUSH2 0x100 DUP1 DUP4 SLOAD DIV MUL DUP4 MSTORE SWAP2 PUSH1 0x20 ADD SWAP2 PUSH2 0xCB4 JUMP JUMPDEST DUP3 ADD SWAP2 SWAP1 PUSH0 MSTORE PUSH1 0x20 PUSH0 KECCAK256 SWAP1 JUMPDEST DUP2 SLOAD DUP2 MSTORE SWAP1 PUSH1 0x1 ADD SWAP1 PUSH1 0x20 ADD DUP1 DUP4 GT PUSH2 0xC97 JUMPI DUP3 SWAP1 SUB PUSH1 0x1F AND DUP3 ADD SWAP2 JUMPDEST POP POP POP SWAP2 DUP4 MSTORE POP POP PUSH1 0x2 DUP3 ADD SLOAD PUSH1 0x20 DUP3 ADD MSTORE PUSH1 0x3 DUP3 ADD SLOAD PUSH1 0xFF DUP1 DUP3 AND ISZERO ISZERO PUSH1 0x40 DUP5 ADD MSTORE PUSH2 0x100 SWAP1 SWAP2 DIV DUP2 AND ISZERO ISZERO PUSH1 0x60 DUP4 ADD MSTORE PUSH1 0x4 DUP4 ADD SLOAD PUSH1 0x80 DUP4 ADD MSTORE PUSH1 0x5 DUP4 ADD SLOAD PUSH1 0xA0 DUP4 ADD MSTORE PUSH1 0x6 DUP4 ADD SLOAD PUSH1 0xC0 DUP4 ADD MSTORE PUSH1 0x7 SWAP1 SWAP3 ADD SLOAD SWAP1 SWAP2 AND ISZERO ISZERO PUSH1 0xE0 SWAP1 SWAP2 ADD MSTORE DUP3 PUSH2 0xD21 PUSH1 0x1 DUP5 PUSH2 0x4426 JUMP JUMPDEST DUP2 MLOAD DUP2 LT PUSH2 0xD31 JUMPI PUSH2 0xD31 PUSH2 0x4439 JUMP JUMPDEST PUSH1 0x20 MUL PUSH1 0x20 ADD ADD DUP2 SWAP1 MSTORE POP DUP1 DUP1 PUSH2 0xD47 SWAP1 PUSH2 0x444D JUMP JUMPDEST SWAP2 POP POP PUSH2 0xBFE JUMP JUMPDEST POP SWAP2 SWAP1 POP JUMP JUMPDEST PUSH1 0x60 PUSH1 0x6 SLOAD PUSH8 0xFFFFFFFFFFFFFFFF DUP2 GT ISZERO PUSH2 0xD72 JUMPI PUSH2 0xD72 PUSH2 0x43E7 JUMP JUMPDEST PUSH1 0x40 MLOAD SWAP1 DUP1 DUP3 MSTORE DUP1 PUSH1 0x20 MUL PUSH1 0x20 ADD DUP3 ADD PUSH1 0x40 MSTORE DUP1 ISZERO PUSH2 0xDDE JUMPI DUP2 PUSH1 0x20 ADD JUMPDEST PUSH2 0xDCB PUSH1 0x40 MLOAD DUP1 PUSH1 0xE0 ADD PUSH1 0x40 MSTORE DUP1 PUSH0 DUP2 MSTORE PUSH1 0x20 ADD PUSH0 DUP2 MSTORE PUSH1 0x20 ADD PUSH0 DUP2 MSTORE PUSH1 0x20 ADD PUSH0 DUP2 MSTORE PUSH1 0x20 ADD PUSH0 DUP2 MSTORE PUSH1 0x20 ADD PUSH0 DUP2 MSTORE PUSH1 0x20 ADD PUSH0 ISZERO ISZERO DUP2 MSTORE POP SWAP1 JUMP JUMPDEST DUP2 MSTORE PUSH1 0x20 ADD SWAP1 PUSH1 0x1 SWAP1 SUB SWAP1 DUP2 PUSH2 0xD90 JUMPI SWAP1 POP JUMPDEST POP SWAP1 POP PUSH1 0x1 JUMPDEST PUSH1 0x6 SLOAD DUP2 GT PUSH2 0xD4F JUMPI PUSH1 0x40 DUP1 MLOAD PUSH1 0xE0 DUP2 ADD DUP3 MSTORE DUP3 DUP2 MSTORE PUSH0 DUP4 DUP2 MSTORE PUSH1 0xC PUSH1 0x20 SWAP1 DUP2 MSTORE DUP4 DUP3 KECCAK256 PUSH1 0x2 DUP2 ADD SLOAD DUP3 DUP6 ADD MSTORE PUSH1 0x1 PUSH1 0x1 PUSH1 0xA0 SHL SUB DUP9 AND DUP1 DUP5 MSTORE PUSH1 0xE DUP4 MSTORE DUP6 DUP5 KECCAK256 PUSH1 0x9 ADD SLOAD DUP6 DUP8 ADD MSTORE DUP1 DUP5 MSTORE PUSH1 0x13 DUP4 MSTORE DUP6 DUP5 KECCAK256 DUP8 DUP6 MSTORE DUP4 MSTORE DUP6 DUP5 KECCAK256 SLOAD PUSH1 0x60 DUP7 ADD MSTORE PUSH1 0x1 SWAP1 SWAP2 ADD SLOAD PUSH1 0x80 DUP6 ADD MSTORE DUP3 MSTORE PUSH1 0x15 SWAP1 MSTORE SWAP2 SWAP1 SWAP2 KECCAK256 PUSH1 0x3 ADD DUP1 SLOAD PUSH1 0xA0 DUP4 ADD SWAP2 SWAP1 DUP5 SWAP1 DUP2 LT PUSH2 0xE75 JUMPI PUSH2 0xE75 PUSH2 0x4439 JUMP JUMPDEST SWAP1 PUSH0 MSTORE PUSH1 0x20 PUSH0 KECCAK256 ADD SLOAD DUP2 MSTORE PUSH1 0x20 ADD PUSH2 0xE8D DUP6 DUP5 PUSH2 0x2122 JUMP JUMPDEST ISZERO ISZERO SWAP1 MSTORE DUP3 PUSH2 0xE9D PUSH1 0x1 DUP5 PUSH2 0x4426 JUMP JUMPDEST DUP2 MLOAD DUP2 LT PUSH2 0xEAD JUMPI PUSH2 0xEAD PUSH2 0x4439 JUMP JUMPDEST PUSH1 0x20 MUL PUSH1 0x20 ADD ADD DUP2 SWAP1 MSTORE POP DUP1 DUP1 PUSH2 0xEC3 SWAP1 PUSH2 0x444D JUMP JUMPDEST SWAP2 POP POP PUSH2 0xDE4 JUMP JUMPDEST PUSH2 0xF36 PUSH1 0x40 MLOAD DUP1 PUSH2 0x1E0 ADD PUSH1 0x40 MSTORE DUP1 PUSH0 DUP2 MSTORE PUSH1 0x20 ADD PUSH0 DUP2 MSTORE PUSH1 0x20 ADD PUSH0 DUP2 MSTORE PUSH1 0x20 ADD PUSH0 DUP2 MSTORE PUSH1 0x20 ADD PUSH0 DUP2 MSTORE PUSH1 0x20 ADD PUSH0 DUP2 MSTORE PUSH1 0x20 ADD PUSH0 DUP2 MSTORE PUSH1 0x20 ADD PUSH0 DUP2 MSTORE PUSH1 0x20 ADD PUSH0 DUP2 MSTORE PUSH1 0x20 ADD PUSH0 DUP2 MSTORE PUSH1 0x20 ADD PUSH0 DUP2 MSTORE PUSH1 0x20 ADD PUSH0 DUP2 MSTORE PUSH1 0x20 ADD PUSH0 DUP2 MSTORE PUSH1 0x20 ADD PUSH0 DUP2 MSTORE PUSH1 0x20 ADD PUSH1 0x60 DUP2 MSTORE POP SWAP1 JUMP JUMPDEST PUSH1 0x1 PUSH1 0x1 PUSH1 0xA0 SHL SUB DUP1 DUP4 AND PUSH0 DUP2 DUP2 MSTORE PUSH1 0xE PUSH1 0x20 SWAP1 DUP2 MSTORE PUSH1 0x40 DUP1 DUP4 KECCAK256 DUP2 MLOAD PUSH2 0x180 DUP2 ADD DUP4 MSTORE DUP2 SLOAD DUP2 MSTORE PUSH1 0x1 DUP1 DUP4 ADD SLOAD DUP9 AND DUP3 DUP7 ADD MSTORE PUSH1 0x2 DUP4 ADD SLOAD SWAP1 SWAP8 AND DUP2 DUP5 ADD MSTORE PUSH1 0x3 DUP3 ADD SLOAD PUSH1 0x60 DUP3 ADD MSTORE PUSH1 0x4 DUP3 ADD SLOAD PUSH1 0x80 DUP3 ADD MSTORE PUSH1 0x5 DUP3 ADD SLOAD PUSH1 0xA0 DUP3 ADD MSTORE PUSH1 0x6 DUP3 ADD SLOAD PUSH1 0xFF SWAP1 DUP2 AND ISZERO ISZERO PUSH1 0xC0 DUP1 DUP5 ADD SWAP2 SWAP1 SWAP2 MSTORE PUSH1 0x7 DUP5 ADD SLOAD PUSH1 0xE0 DUP5 ADD MSTORE PUSH1 0x8 DUP5 ADD SLOAD PUSH2 0x100 DUP1 DUP6 ADD SWAP2 SWAP1 SWAP2 MSTORE PUSH1 0x9 DUP6 ADD SLOAD PUSH2 0x120 DUP6 ADD MSTORE PUSH1 0xA SWAP1 SWAP5 ADD SLOAD DUP1 DUP4 AND ISZERO ISZERO PUSH2 0x140 DUP6 ADD MSTORE SWAP4 SWAP1 SWAP4 DIV AND ISZERO ISZERO PUSH2 0x160 DUP3 ADD MSTORE SWAP5 DUP5 MSTORE PUSH1 0x10 DUP4 MSTORE DUP2 DUP5 KECCAK256 DUP3 MLOAD SWAP2 DUP3 ADD DUP4 MSTORE DUP1 SLOAD DUP3 MSTORE SWAP6 DUP7 ADD DUP1 SLOAD DUP4 MLOAD DUP2 DUP7 MUL DUP2 ADD DUP7 ADD SWAP1 SWAP5 MSTORE DUP1 DUP5 MSTORE SWAP6 SWAP7 SWAP5 SWAP6 SWAP2 SWAP5 SWAP4 DUP6 DUP2 ADD SWAP4 SWAP3 SWAP1 DUP4 ADD DUP3 DUP3 DUP1 ISZERO PUSH2 0x1058 JUMPI PUSH1 0x20 MUL DUP3 ADD SWAP2 SWAP1 PUSH0 MSTORE PUSH1 0x20 PUSH0 KECCAK256 SWAP1 JUMPDEST DUP2 SLOAD PUSH1 0x1 PUSH1 0x1 PUSH1 0xA0 SHL SUB AND DUP2 MSTORE PUSH1 0x1 SWAP1 SWAP2 ADD SWAP1 PUSH1 0x20 ADD DUP1 DUP4 GT PUSH2 0x103A JUMPI JUMPDEST POP POP POP POP POP DUP2 MSTORE PUSH1 0x20 ADD PUSH1 0x2 DUP3 ADD SLOAD DUP2 MSTORE PUSH1 0x20 ADD PUSH1 0x3 DUP3 ADD SLOAD DUP2 MSTORE PUSH1 0x20 ADD PUSH1 0x4 DUP3 ADD SLOAD DUP2 MSTORE PUSH1 0x20 ADD PUSH1 0x5 DUP3 ADD DUP1 SLOAD DUP1 PUSH1 0x20 MUL PUSH1 0x20 ADD PUSH1 0x40 MLOAD SWAP1 DUP2 ADD PUSH1 0x40 MSTORE DUP1 SWAP3 SWAP2 SWAP1 DUP2 DUP2 MSTORE PUSH1 0x20 ADD DUP3 DUP1 SLOAD DUP1 ISZERO PUSH2 0x10D6 JUMPI PUSH1 0x20 MUL DUP3 ADD SWAP2 SWAP1 PUSH0 MSTORE PUSH1 0x20 PUSH0 KECCAK256 SWAP1 JUMPDEST DUP2 SLOAD PUSH1 0x1 PUSH1 0x1 PUSH1 0xA0 SHL SUB AND DUP2 MSTORE PUSH1 0x1 SWAP1 SWAP2 ADD SWAP1 PUSH1 0x20 ADD DUP1 DUP4 GT PUSH2 0x10B8 JUMPI JUMPDEST POP POP POP POP POP DUP2 MSTORE POP POP SWAP1 POP PUSH0 PUSH1 0x15 PUSH0 DUP7 PUSH1 0x1 PUSH1 0x1 PUSH1 0xA0 SHL SUB AND PUSH1 0x1 PUSH1 0x1 PUSH1 0xA0 SHL SUB AND DUP2 MSTORE PUSH1 0x20 ADD SWAP1 DUP2 MSTORE PUSH1 0x20 ADD PUSH0 KECCAK256 PUSH1 0x40 MLOAD DUP1 PUSH1 0xE0 ADD PUSH1 0x40 MSTORE SWAP1 DUP2 PUSH0 DUP3 ADD SLOAD DUP2 MSTORE PUSH1 0x20 ADD PUSH1 0x1 DUP3 ADD SLOAD DUP2 MSTORE PUSH1 0x20 ADD PUSH1 0x2 DUP3 ADD SLOAD DUP2 MSTORE PUSH1 0x20 ADD PUSH1 0x3 DUP3 ADD DUP1 SLOAD DUP1 PUSH1 0x20 MUL PUSH1 0x20 ADD PUSH1 0x40 MLOAD SWAP1 DUP2 ADD PUSH1 0x40 MSTORE DUP1 SWAP3 SWAP2 SWAP1 DUP2 DUP2 MSTORE PUSH1 0x20 ADD DUP3 DUP1 SLOAD DUP1 ISZERO PUSH2 0x117A JUMPI PUSH1 0x20 MUL DUP3 ADD SWAP2 SWAP1 PUSH0 MSTORE PUSH1 0x20 PUSH0 KECCAK256 SWAP1 JUMPDEST DUP2 SLOAD DUP2 MSTORE PUSH1 0x20 ADD SWAP1 PUSH1 0x1 ADD SWAP1 DUP1 DUP4 GT PUSH2 0x1166 JUMPI JUMPDEST POP POP POP POP POP DUP2 MSTORE PUSH1 0x20 ADD PUSH1 0x4 DUP3 ADD SLOAD DUP2 MSTORE PUSH1 0x20 ADD PUSH1 0x5 DUP3 ADD SLOAD DUP2 MSTORE PUSH1 0x20 ADD PUSH1 0x6 DUP3 ADD SLOAD DUP2 MSTORE POP POP SWAP1 POP PUSH1 0x40 MLOAD DUP1 PUSH2 0x1E0 ADD PUSH1 0x40 MSTORE DUP1 DUP4 PUSH1 0x20 ADD MLOAD MLOAD DUP2 MSTORE PUSH1 0x20 ADD DUP5 PUSH1 0xA0 ADD MLOAD DUP2 MSTORE PUSH1 0x20 ADD DUP4 PUSH1 0x40 ADD MLOAD DUP2 MSTORE PUSH1 0x20 ADD DUP4 PUSH1 0x60 ADD MLOAD DUP2 MSTORE PUSH1 0x20 ADD DUP4 PUSH1 0x80 ADD MLOAD DUP2 MSTORE PUSH1 0x20 ADD DUP3 PUSH1 0x20 ADD MLOAD DUP2 MSTORE PUSH1 0x20 ADD DUP3 PUSH0 ADD MLOAD DUP2 MSTORE PUSH1 0x20 ADD PUSH2 0x11FE DUP8 PUSH2 0x2162 JUMP JUMPDEST DUP2 MSTORE PUSH1 0x20 ADD DUP3 PUSH1 0x40 ADD MLOAD DUP2 MSTORE PUSH1 0x20 ADD PUSH2 0x1216 DUP8 PUSH2 0x226A JUMP JUMPDEST DUP2 MSTORE PUSH1 0x20 ADD DUP3 PUSH1 0x80 ADD MLOAD DUP2 MSTORE PUSH1 0x20 ADD DUP3 PUSH1 0xA0 ADD MLOAD DUP2 MSTORE PUSH1 0x20 ADD PUSH2 0x1238 DUP8 PUSH2 0x22C1 JUMP JUMPDEST DUP2 MSTORE PUSH1 0x20 ADD DUP3 PUSH1 0xC0 ADD MLOAD DUP2 MSTORE PUSH1 0x20 ADD PUSH1 0xD PUSH0 DUP7 PUSH2 0x120 ADD MLOAD DUP2 MSTORE PUSH1 0x20 ADD SWAP1 DUP2 MSTORE PUSH1 0x20 ADD PUSH0 KECCAK256 PUSH1 0x1 ADD DUP1 SLOAD PUSH2 0x126B SWAP1 PUSH2 0x447A JUMP JUMPDEST DUP1 PUSH1 0x1F ADD PUSH1 0x20 DUP1 SWAP2 DIV MUL PUSH1 0x20 ADD PUSH1 0x40 MLOAD SWAP1 DUP2 ADD PUSH1 0x40 MSTORE DUP1 SWAP3 SWAP2 SWAP1 DUP2 DUP2 MSTORE PUSH1 0x20 ADD DUP3 DUP1 SLOAD PUSH2 0x1297 SWAP1 PUSH2 0x447A JUMP JUMPDEST DUP1 ISZERO PUSH2 0x12E2 JUMPI DUP1 PUSH1 0x1F LT PUSH2 0x12B9 JUMPI PUSH2 0x100 DUP1 DUP4 SLOAD DIV MUL DUP4 MSTORE SWAP2 PUSH1 0x20 ADD SWAP2 PUSH2 0x12E2 JUMP JUMPDEST DUP3 ADD SWAP2 SWAP1 PUSH0 MSTORE PUSH1 0x20 PUSH0 KECCAK256 SWAP1 JUMPDEST DUP2 SLOAD DUP2 MSTORE SWAP1 PUSH1 0x1 ADD SWAP1 PUSH1 0x20 ADD DUP1 DUP4 GT PUSH2 0x12C5 JUMPI DUP3 SWAP1 SUB PUSH1 0x1F AND DUP3 ADD SWAP2 JUMPDEST POP POP POP POP POP DUP2 MSTORE POP SWAP4 POP POP POP POP SWAP2 SWAP1 POP JUMP JUMPDEST PUSH2 0x12FC PUSH2 0x232F JUMP JUMPDEST PUSH2 0x1304 JUMPI CALLER SWAP3 POP JUMPDEST PUSH2 0x130D DUP4 PUSH2 0x1E1C JUMP JUMPDEST PUSH2 0x1356 JUMPI PUSH1 0x40 MLOAD PUSH3 0x461BCD PUSH1 0xE5 SHL DUP2 MSTORE PUSH1 0x20 PUSH1 0x4 DUP3 ADD MSTORE PUSH1 0x15 PUSH1 0x24 DUP3 ADD MSTORE PUSH21 0x496E76616C69642073656E64696E67207573657221 PUSH1 0x58 SHL PUSH1 0x44 DUP3 ADD MSTORE PUSH1 0x64 ADD JUMPDEST PUSH1 0x40 MLOAD DUP1 SWAP2 SUB SWAP1 REVERT JUMPDEST PUSH2 0x135F DUP3 PUSH2 0x1E1C JUMP JUMPDEST PUSH2 0x13AB JUMPI PUSH1 0x40 MLOAD PUSH3 0x461BCD PUSH1 0xE5 SHL DUP2 MSTORE PUSH1 0x20 PUSH1 0x4 DUP3 ADD MSTORE PUSH1 0x17 PUSH1 0x24 DUP3 ADD MSTORE PUSH32 0x496E76616C696420726563656976696E67207573657221000000000000000000 PUSH1 0x44 DUP3 ADD MSTORE PUSH1 0x64 ADD PUSH2 0x134D JUMP JUMPDEST PUSH1 0x1 PUSH1 0x1 PUSH1 0xA0 SHL SUB DUP4 AND PUSH0 SWAP1 DUP2 MSTORE PUSH1 0x16 PUSH1 0x20 SWAP1 DUP2 MSTORE PUSH1 0x40 DUP1 DUP4 KECCAK256 PUSH1 0x2 DUP5 MSTORE SWAP1 SWAP2 MSTORE SWAP1 KECCAK256 SLOAD DUP2 GT ISZERO PUSH2 0x1414 JUMPI PUSH1 0x40 MLOAD PUSH3 0x461BCD PUSH1 0xE5 SHL DUP2 MSTORE PUSH1 0x20 PUSH1 0x4 DUP3 ADD MSTORE PUSH1 0x13 PUSH1 0x24 DUP3 ADD MSTORE PUSH19 0x496E73756666696369656E742066756E647321 PUSH1 0x68 SHL PUSH1 0x44 DUP3 ADD MSTORE PUSH1 0x64 ADD PUSH2 0x134D JUMP JUMPDEST PUSH1 0x1 PUSH1 0x1 PUSH1 0xA0 SHL SUB DUP4 AND PUSH0 SWAP1 DUP2 MSTORE PUSH1 0x16 PUSH1 0x20 SWAP1 DUP2 MSTORE PUSH1 0x40 DUP1 DUP4 KECCAK256 PUSH1 0x2 DUP5 MSTORE SWAP1 SWAP2 MSTORE DUP2 KECCAK256 DUP1 SLOAD DUP4 SWAP3 SWAP1 PUSH2 0x1447 SWAP1 DUP5 SWAP1 PUSH2 0x4426 JUMP JUMPDEST SWAP1 SWAP2 SSTORE POP POP PUSH1 0x1 PUSH1 0x1 PUSH1 0xA0 SHL SUB DUP3 AND PUSH0 SWAP1 DUP2 MSTORE PUSH1 0x16 PUSH1 0x20 SWAP1 DUP2 MSTORE PUSH1 0x40 DUP1 DUP4 KECCAK256 PUSH1 0x2 DUP5 MSTORE SWAP1 SWAP2 MSTORE DUP2 KECCAK256 DUP1 SLOAD DUP4 SWAP3 SWAP1 PUSH2 0x147F SWAP1 DUP5 SWAP1 PUSH2 0x44AC JUMP JUMPDEST SWAP1 SWAP2 SSTORE POP POP POP POP POP JUMP JUMPDEST CALLER PUSH0 PUSH2 0x1493 PUSH2 0x235C JUMP JUMPDEST SWAP1 POP PUSH2 0x14B5 DUP3 PUSH1 0x1 PUSH1 0x1 PUSH1 0xA0 SHL SUB AND PUSH0 SWAP1 DUP2 MSTORE PUSH1 0xE PUSH1 0x20 MSTORE PUSH1 0x40 SWAP1 KECCAK256 SLOAD ISZERO ISZERO SWAP1 JUMP JUMPDEST PUSH2 0x14F1 JUMPI PUSH1 0x40 MLOAD PUSH3 0x461BCD PUSH1 0xE5 SHL DUP2 MSTORE PUSH1 0x20 PUSH1 0x4 DUP3 ADD MSTORE PUSH1 0xD PUSH1 0x24 DUP3 ADD MSTORE PUSH13 0x496E76616C6964207573657221 PUSH1 0x98 SHL PUSH1 0x44 DUP3 ADD MSTORE PUSH1 0x64 ADD PUSH2 0x134D JUMP JUMPDEST PUSH1 0x1 PUSH1 0x1 PUSH1 0xA0 SHL SUB DUP3 AND PUSH0 SWAP1 DUP2 MSTORE PUSH1 0xE PUSH1 0x20 MSTORE PUSH1 0x40 SWAP1 KECCAK256 PUSH1 0x6 ADD SLOAD PUSH1 0xFF AND ISZERO PUSH2 0x152C JUMPI PUSH1 0x40 MLOAD PUSH3 0x461BCD PUSH1 0xE5 SHL DUP2 MSTORE PUSH1 0x4 ADD PUSH2 0x134D SWAP1 PUSH2 0x44BF JUMP JUMPDEST PUSH1 0x1 PUSH1 0x1 PUSH1 0xA0 SHL SUB DUP3 AND PUSH0 SWAP1 DUP2 MSTORE PUSH1 0x16 PUSH1 0x20 SWAP1 DUP2 MSTORE PUSH1 0x40 DUP1 DUP4 KECCAK256 PUSH1 0x1 DUP5 MSTORE SWAP1 SWAP2 MSTORE SWAP1 KECCAK256 SLOAD DUP4 GT ISZERO PUSH2 0x1595 JUMPI PUSH1 0x40 MLOAD PUSH3 0x461BCD PUSH1 0xE5 SHL DUP2 MSTORE PUSH1 0x20 PUSH1 0x4 DUP3 ADD MSTORE PUSH1 0x13 PUSH1 0x24 DUP3 ADD MSTORE PUSH19 0x496E73756666696369656E742066756E647321 PUSH1 0x68 SHL PUSH1 0x44 DUP3 ADD MSTORE PUSH1 0x64 ADD PUSH2 0x134D JUMP JUMPDEST PUSH1 0x1 PUSH1 0x1 PUSH1 0xA0 SHL SUB DUP3 AND PUSH0 SWAP1 DUP2 MSTORE PUSH1 0xE PUSH1 0x20 SWAP1 DUP2 MSTORE PUSH1 0x40 DUP1 DUP4 KECCAK256 PUSH1 0x4 ADD SLOAD PUSH1 0x15 SWAP1 SWAP3 MSTORE SWAP1 SWAP2 KECCAK256 PUSH1 0x6 ADD SLOAD PUSH2 0x15CA SWAP1 DUP6 SWAP1 PUSH2 0x44AC JUMP JUMPDEST GT ISZERO DUP1 PUSH2 0x15ED JUMPI POP PUSH1 0xA SLOAD PUSH1 0xFF AND DUP1 ISZERO PUSH2 0x15ED JUMPI POP PUSH9 0x56BC75E2D63100000 DUP2 LT ISZERO JUMPDEST PUSH2 0x165F JUMPI PUSH1 0x40 MLOAD PUSH3 0x461BCD PUSH1 0xE5 SHL DUP2 MSTORE PUSH1 0x20 PUSH1 0x4 DUP3 ADD MSTORE PUSH1 0x39 PUSH1 0x24 DUP3 ADD MSTORE PUSH32 0x5769746864726177616C206265796F6E64207072696E6369706C652069732070 PUSH1 0x44 DUP3 ADD MSTORE PUSH32 0x726F686962697465642061742074686973206D6F6D656E742100000000000000 PUSH1 0x64 DUP3 ADD MSTORE PUSH1 0x84 ADD PUSH2 0x134D JUMP JUMPDEST PUSH1 0x1 PUSH1 0x1 PUSH1 0xA0 SHL SUB DUP3 AND PUSH0 SWAP1 DUP2 MSTORE PUSH1 0x16 PUSH1 0x20 SWAP1 DUP2 MSTORE PUSH1 0x40 DUP1 DUP4 KECCAK256 PUSH1 0x1 DUP5 MSTORE SWAP1 SWAP2 MSTORE DUP2 KECCAK256 DUP1 SLOAD DUP6 SWAP3 SWAP1 PUSH2 0x1692 SWAP1 DUP5 SWAP1 PUSH2 0x4426 JUMP JUMPDEST SWAP1 SWAP2 SSTORE POP POP PUSH1 0x1 PUSH1 0x1 PUSH1 0xA0 SHL SUB DUP3 AND PUSH0 SWAP1 DUP2 MSTORE PUSH1 0x15 PUSH1 0x20 MSTORE PUSH1 0x40 DUP2 KECCAK256 PUSH1 0x6 ADD DUP1 SLOAD DUP6 SWAP3 SWAP1 PUSH2 0x16C1 SWAP1 DUP5 SWAP1 PUSH2 0x44AC JUMP JUMPDEST SWAP1 SWAP2 SSTORE POP PUSH0 SWAP1 POP PUSH1 0x64 PUSH2 0x16D5 DUP6 PUSH1 0x5 PUSH2 0x440F JUMP JUMPDEST PUSH2 0x16DF SWAP2 SWAP1 PUSH2 0x44ED JUMP JUMPDEST SWAP1 POP PUSH0 PUSH2 0x16EC DUP3 DUP7 PUSH2 0x4426 JUMP JUMPDEST PUSH1 0x40 DUP1 MLOAD DUP1 DUP3 ADD DUP3 MSTORE DUP8 DUP2 MSTORE TIMESTAMP PUSH1 0x20 DUP1 DUP4 ADD SWAP2 SWAP1 SWAP2 MSTORE PUSH1 0x1 PUSH1 0x1 PUSH1 0xA0 SHL SUB DUP9 AND PUSH0 SWAP1 DUP2 MSTORE PUSH1 0x12 DUP3 MSTORE DUP4 DUP2 KECCAK256 PUSH1 0x17 SWAP1 SWAP3 MSTORE SWAP3 DUP4 KECCAK256 PUSH1 0x1 SWAP1 DUP2 ADD SLOAD SWAP5 SWAP6 POP SWAP2 SWAP4 DUP5 SWAP4 SWAP2 SWAP3 PUSH2 0x1738 SWAP2 SWAP1 PUSH2 0x44AC JUMP JUMPDEST DUP2 MSTORE PUSH1 0x20 DUP1 DUP3 ADD SWAP3 SWAP1 SWAP3 MSTORE PUSH1 0x40 SWAP1 DUP2 ADD PUSH0 SWAP1 DUP2 KECCAK256 DUP5 MLOAD DUP2 SSTORE SWAP4 DUP4 ADD MLOAD PUSH1 0x1 SWAP5 DUP6 ADD SSTORE PUSH1 0x1 PUSH1 0x1 PUSH1 0xA0 SHL SUB DUP10 AND DUP2 MSTORE PUSH1 0x17 SWAP1 SWAP3 MSTORE DUP2 KECCAK256 SWAP1 SWAP2 ADD DUP1 SLOAD SWAP2 PUSH2 0x177C DUP4 PUSH2 0x444D JUMP JUMPDEST SWAP2 SWAP1 POP SSTORE POP DUP6 DUP5 LT PUSH2 0x17AD JUMPI PUSH2 0x1792 DUP6 DUP4 PUSH2 0x23CF JUMP JUMPDEST PUSH1 0x5 SLOAD PUSH2 0x17A8 SWAP1 PUSH1 0x1 PUSH1 0x1 PUSH1 0xA0 SHL SUB AND DUP5 PUSH2 0x23CF JUMP JUMPDEST PUSH2 0x17B7 JUMP JUMPDEST PUSH2 0x17B7 DUP6 DUP4 PUSH2 0x2451 JUMP JUMPDEST POP POP POP POP POP POP JUMP JUMPDEST PUSH1 0x1 PUSH1 0x1 PUSH1 0xA0 SHL SUB DUP2 AND PUSH0 SWAP1 DUP2 MSTORE PUSH1 0x10 PUSH1 0x20 MSTORE PUSH1 0x40 SWAP1 KECCAK256 PUSH1 0x1 ADD SLOAD PUSH1 0x60 SWAP1 PUSH8 0xFFFFFFFFFFFFFFFF DUP2 GT ISZERO PUSH2 0x17F5 JUMPI PUSH2 0x17F5 PUSH2 0x43E7 JUMP JUMPDEST PUSH1 0x40 MLOAD SWAP1 DUP1 DUP3 MSTORE DUP1 PUSH1 0x20 MUL PUSH1 0x20 ADD DUP3 ADD PUSH1 0x40 MSTORE DUP1 ISZERO PUSH2 0x1856 JUMPI DUP2 PUSH1 0x20 ADD JUMPDEST PUSH2 0x1843 PUSH1 0x40 MLOAD DUP1 PUSH1 0x80 ADD PUSH1 0x40 MSTORE DUP1 PUSH0 DUP2 MSTORE PUSH1 0x20 ADD PUSH0 PUSH1 0x1 PUSH1 0x1 PUSH1 0xA0 SHL SUB AND DUP2 MSTORE PUSH1 0x20 ADD PUSH0 DUP2 MSTORE PUSH1 0x20 ADD PUSH0 DUP2 MSTORE POP SWAP1 JUMP JUMPDEST DUP2 MSTORE PUSH1 0x20 ADD SWAP1 PUSH1 0x1 SWAP1 SUB SWAP1 DUP2 PUSH2 0x1813 JUMPI SWAP1 POP JUMPDEST POP SWAP1 POP PUSH0 JUMPDEST PUSH1 0x1 PUSH1 0x1 PUSH1 0xA0 SHL SUB DUP4 AND PUSH0 SWAP1 DUP2 MSTORE PUSH1 0x10 PUSH1 0x20 MSTORE PUSH1 0x40 SWAP1 KECCAK256 PUSH1 0x1 ADD SLOAD DUP2 LT ISZERO PUSH2 0xD4F JUMPI PUSH1 0x40 MLOAD DUP1 PUSH1 0x80 ADD PUSH1 0x40 MSTORE DUP1 DUP3 PUSH1 0x1 PUSH2 0x1895 SWAP2 SWAP1 PUSH2 0x44AC JUMP JUMPDEST DUP2 MSTORE PUSH1 0x20 ADD PUSH1 0x10 PUSH0 DUP7 PUSH1 0x1 PUSH1 0x1 PUSH1 0xA0 SHL SUB AND PUSH1 0x1 PUSH1 0x1 PUSH1 0xA0 SHL SUB AND DUP2 MSTORE PUSH1 0x20 ADD SWAP1 DUP2 MSTORE PUSH1 0x20 ADD PUSH0 KECCAK256 PUSH1 0x1 ADD DUP4 DUP2 SLOAD DUP2 LT PUSH2 0x18D1 JUMPI PUSH2 0x18D1 PUSH2 0x4439 JUMP JUMPDEST PUSH0 SWAP2 DUP3 MSTORE PUSH1 0x20 DUP1 DUP4 KECCAK256 SWAP1 SWAP2 ADD SLOAD PUSH1 0x1 PUSH1 0x1 PUSH1 0xA0 SHL SUB SWAP1 DUP2 AND DUP5 MSTORE DUP8 AND DUP3 MSTORE PUSH1 0x10 DUP2 MSTORE PUSH1 0x40 DUP3 KECCAK256 PUSH1 0x1 ADD DUP1 SLOAD SWAP4 SWAP1 SWAP2 ADD SWAP3 PUSH1 0xE SWAP3 SWAP2 SWAP1 DUP7 SWAP1 DUP2 LT PUSH2 0x1916 JUMPI PUSH2 0x1916 PUSH2 0x4439 JUMP JUMPDEST PUSH0 SWAP2 DUP3 MSTORE PUSH1 0x20 DUP1 DUP4 KECCAK256 SWAP1 SWAP2 ADD SLOAD PUSH1 0x1 PUSH1 0x1 PUSH1 0xA0 SHL SUB SWAP1 DUP2 AND DUP5 MSTORE DUP4 DUP3 ADD SWAP5 SWAP1 SWAP5 MSTORE PUSH1 0x40 SWAP3 DUP4 ADD DUP3 KECCAK256 PUSH1 0x4 ADD SLOAD DUP6 MSTORE SWAP3 DUP9 AND DUP2 MSTORE PUSH1 0x10 DUP4 MSTORE SWAP1 DUP2 KECCAK256 PUSH1 0x1 ADD DUP1 SLOAD SWAP4 SWAP1 SWAP3 ADD SWAP3 PUSH1 0xE SWAP3 SWAP1 DUP7 SWAP1 DUP2 LT PUSH2 0x196E JUMPI PUSH2 0x196E PUSH2 0x4439 JUMP JUMPDEST PUSH0 SWAP2 DUP3 MSTORE PUSH1 0x20 DUP1 DUP4 KECCAK256 SWAP1 SWAP2 ADD SLOAD PUSH1 0x1 PUSH1 0x1 PUSH1 0xA0 SHL SUB AND DUP4 MSTORE DUP3 ADD SWAP3 SWAP1 SWAP3 MSTORE PUSH1 0x40 ADD SWAP1 KECCAK256 PUSH1 0x4 ADD SLOAD SWAP1 MSTORE DUP3 MLOAD DUP4 SWAP1 DUP4 SWAP1 DUP2 LT PUSH2 0x19AB JUMPI PUSH2 0x19AB PUSH2 0x4439 JUMP JUMPDEST PUSH1 0x20 MUL PUSH1 0x20 ADD ADD DUP2 SWAP1 MSTORE POP DUP1 DUP1 PUSH2 0x19C1 SWAP1 PUSH2 0x444D JUMP JUMPDEST SWAP2 POP POP PUSH2 0x185B JUMP JUMPDEST PUSH2 0x19D1 PUSH2 0x232F JUMP JUMPDEST PUSH2 0x19ED JUMPI PUSH1 0x40 MLOAD PUSH3 0x461BCD PUSH1 0xE5 SHL DUP2 MSTORE PUSH1 0x4 ADD PUSH2 0x134D SWAP1 PUSH2 0x44BF JUMP JUMPDEST PUSH1 0x3 DUP1 SLOAD PUSH1 0x1 PUSH1 0x1 PUSH1 0xA0 SHL SUB NOT AND PUSH1 0x1 PUSH1 0x1 PUSH1 0xA0 SHL SUB SWAP3 SWAP1 SWAP3 AND SWAP2 SWAP1 SWAP2 OR SWAP1 SSTORE JUMP JUMPDEST PUSH2 0x1A3E PUSH1 0x40 MLOAD DUP1 PUSH1 0xA0 ADD PUSH1 0x40 MSTORE DUP1 PUSH0 DUP2 MSTORE PUSH1 0x20 ADD PUSH0 DUP2 MSTORE PUSH1 0x20 ADD PUSH0 DUP2 MSTORE PUSH1 0x20 ADD PUSH0 DUP2 MSTORE PUSH1 0x20 ADD PUSH0 ISZERO ISZERO DUP2 MSTORE POP SWAP1 JUMP JUMPDEST PUSH1 0x40 MLOAD DUP1 PUSH1 0xA0 ADD PUSH1 0x40 MSTORE DUP1 PUSH0 SLOAD DUP2 MSTORE PUSH1 0x20 ADD PUSH1 0x1 SLOAD DUP2 MSTORE PUSH1 0x20 ADD PUSH1 0x2 SLOAD DUP2 MSTORE PUSH1 0x20 ADD PUSH2 0x1A68 PUSH2 0x235C JUMP JUMPDEST DUP2 MSTORE PUSH1 0xA SLOAD PUSH1 0xFF AND ISZERO ISZERO PUSH1 0x20 SWAP1 SWAP2 ADD MSTORE SWAP2 SWAP1 POP JUMP JUMPDEST PUSH1 0x1 PUSH1 0x1 PUSH1 0xA0 SHL SUB DUP4 AND PUSH0 SWAP1 DUP2 MSTORE PUSH1 0x17 PUSH1 0x20 MSTORE PUSH1 0x40 SWAP1 KECCAK256 PUSH1 0x1 ADD SLOAD PUSH1 0x60 SWAP1 PUSH8 0xFFFFFFFFFFFFFFFF DUP2 GT ISZERO PUSH2 0x1AB3 JUMPI PUSH2 0x1AB3 PUSH2 0x43E7 JUMP JUMPDEST PUSH1 0x40 MLOAD SWAP1 DUP1 DUP3 MSTORE DUP1 PUSH1 0x20 MUL PUSH1 0x20 ADD DUP3 ADD PUSH1 0x40 MSTORE DUP1 ISZERO PUSH2 0x1AF7 JUMPI DUP2 PUSH1 0x20 ADD JUMPDEST PUSH1 0x40 DUP1 MLOAD DUP1 DUP3 ADD SWAP1 SWAP2 MSTORE PUSH0 DUP1 DUP3 MSTORE PUSH1 0x20 DUP3 ADD MSTORE DUP2 MSTORE PUSH1 0x20 ADD SWAP1 PUSH1 0x1 SWAP1 SUB SWAP1 DUP2 PUSH2 0x1AD1 JUMPI SWAP1 POP JUMPDEST POP PUSH1 0x1 PUSH1 0x1 PUSH1 0xA0 SHL SUB DUP6 AND PUSH0 SWAP1 DUP2 MSTORE PUSH1 0x17 PUSH1 0x20 MSTORE PUSH1 0x40 DUP2 KECCAK256 PUSH1 0x1 ADD SLOAD SWAP2 SWAP3 POP SWAP1 PUSH2 0x1B21 DUP5 DUP7 PUSH2 0x440F JUMP JUMPDEST GT PUSH2 0x1B35 JUMPI PUSH2 0x1B30 DUP4 DUP6 PUSH2 0x440F JUMP JUMPDEST PUSH2 0x1B51 JUMP JUMPDEST PUSH1 0x1 PUSH1 0x1 PUSH1 0xA0 SHL SUB DUP6 AND PUSH0 SWAP1 DUP2 MSTORE PUSH1 0x17 PUSH1 0x20 MSTORE PUSH1 0x40 SWAP1 KECCAK256 PUSH1 0x1 ADD SLOAD JUMPDEST SWAP1 POP PUSH0 DUP4 DUP3 LT ISZERO PUSH2 0x1B62 JUMPI PUSH0 PUSH2 0x1B6C JUMP JUMPDEST PUSH2 0x1B6C DUP5 DUP4 PUSH2 0x4426 JUMP JUMPDEST SWAP1 POP PUSH0 DUP3 JUMPDEST DUP3 DUP2 GT ISZERO PUSH2 0xB51 JUMPI PUSH1 0x1 PUSH1 0x1 PUSH1 0xA0 SHL SUB DUP9 AND PUSH0 SWAP1 DUP2 MSTORE PUSH1 0x12 PUSH1 0x20 SWAP1 DUP2 MSTORE PUSH1 0x40 DUP1 DUP4 KECCAK256 DUP5 DUP5 MSTORE DUP3 MSTORE SWAP2 DUP3 SWAP1 KECCAK256 DUP3 MLOAD DUP1 DUP5 ADD SWAP1 SWAP4 MSTORE DUP1 SLOAD DUP4 MSTORE PUSH1 0x1 ADD SLOAD SWAP1 DUP3 ADD MSTORE DUP6 MLOAD DUP7 SWAP1 DUP5 SWAP1 DUP2 LT PUSH2 0x1BC4 JUMPI PUSH2 0x1BC4 PUSH2 0x4439 JUMP JUMPDEST PUSH1 0x20 MUL PUSH1 0x20 ADD ADD DUP2 SWAP1 MSTORE POP DUP2 DUP1 PUSH2 0x1BDA SWAP1 PUSH2 0x444D JUMP JUMPDEST SWAP3 POP POP DUP1 DUP1 PUSH2 0x1BE8 SWAP1 PUSH2 0x4465 JUMP JUMPDEST SWAP2 POP POP PUSH2 0x1B71 JUMP JUMPDEST PUSH1 0xB PUSH1 0x20 MSTORE PUSH0 SWAP1 DUP2 MSTORE PUSH1 0x40 SWAP1 KECCAK256 DUP1 SLOAD PUSH1 0x1 DUP3 ADD DUP1 SLOAD SWAP2 SWAP3 SWAP2 PUSH2 0x1C11 SWAP1 PUSH2 0x447A JUMP JUMPDEST DUP1 PUSH1 0x1F ADD PUSH1 0x20 DUP1 SWAP2 DIV MUL PUSH1 0x20 ADD PUSH1 0x40 MLOAD SWAP1 DUP2 ADD PUSH1 0x40 MSTORE DUP1 SWAP3 SWAP2 SWAP1 DUP2 DUP2 MSTORE PUSH1 0x20 ADD DUP3 DUP1 SLOAD PUSH2 0x1C3D SWAP1 PUSH2 0x447A JUMP JUMPDEST DUP1 ISZERO PUSH2 0x1C88 JUMPI DUP1 PUSH1 0x1F LT PUSH2 0x1C5F JUMPI PUSH2 0x100 DUP1 DUP4 SLOAD DIV MUL DUP4 MSTORE SWAP2 PUSH1 0x20 ADD SWAP2 PUSH2 0x1C88 JUMP JUMPDEST DUP3 ADD SWAP2 SWAP1 PUSH0 MSTORE PUSH1 0x20 PUSH0 KECCAK256 SWAP1 JUMPDEST DUP2 SLOAD DUP2 MSTORE SWAP1 PUSH1 0x1 ADD SWAP1 PUSH1 0x20 ADD DUP1 DUP4 GT PUSH2 0x1C6B JUMPI DUP3 SWAP1 SUB PUSH1 0x1F AND DUP3 ADD SWAP2 JUMPDEST POP POP POP POP PUSH1 0x2 DUP4 ADD SLOAD PUSH1 0x3 DUP5 ADD SLOAD PUSH1 0x4 DUP6 ADD SLOAD PUSH1 0x5 DUP7 ADD SLOAD PUSH1 0x6 DUP8 ADD SLOAD PUSH1 0x7 SWAP1 SWAP8 ADD SLOAD SWAP6 SWAP7 SWAP4 SWAP6 PUSH1 0xFF DUP1 DUP6 AND SWAP7 POP PUSH2 0x100 SWAP1 SWAP5 DIV DUP5 AND SWAP5 SWAP3 SWAP4 SWAP2 SWAP3 SWAP2 AND DUP10 JUMP JUMPDEST PUSH2 0x1CD2 DUP3 DUP3 PUSH2 0x2520 JUMP JUMPDEST POP POP JUMP JUMPDEST PUSH2 0x1CDE PUSH2 0x232F JUMP JUMPDEST PUSH2 0x1CFA JUMPI PUSH1 0x40 MLOAD PUSH3 0x461BCD PUSH1 0xE5 SHL DUP2 MSTORE PUSH1 0x4 ADD PUSH2 0x134D SWAP1 PUSH2 0x44BF JUMP JUMPDEST PUSH1 0x5 DUP1 SLOAD PUSH1 0x1 PUSH1 0x1 PUSH1 0xA0 SHL SUB NOT AND PUSH1 0x1 PUSH1 0x1 PUSH1 0xA0 SHL SUB SWAP3 SWAP1 SWAP3 AND SWAP2 SWAP1 SWAP2 OR SWAP1 SSTORE JUMP JUMPDEST PUSH2 0x1D24 PUSH2 0x232F JUMP JUMPDEST PUSH2 0x1D40 JUMPI PUSH1 0x40 MLOAD PUSH3 0x461BCD PUSH1 0xE5 SHL DUP2 MSTORE PUSH1 0x4 ADD PUSH2 0x134D SWAP1 PUSH2 0x44BF JUMP JUMPDEST PUSH1 0x4 DUP1 SLOAD PUSH1 0x1 PUSH1 0x1 PUSH1 0xA0 SHL SUB NOT AND PUSH1 0x1 PUSH1 0x1 PUSH1 0xA0 SHL SUB SWAP3 SWAP1 SWAP3 AND SWAP2 SWAP1 SWAP2 OR SWAP1 SSTORE JUMP JUMPDEST PUSH1 0xD PUSH1 0x20 MSTORE PUSH0 SWAP1 DUP2 MSTORE PUSH1 0x40 SWAP1 KECCAK256 DUP1 SLOAD PUSH1 0x1 DUP3 ADD DUP1 SLOAD SWAP2 SWAP3 SWAP2 PUSH2 0x1D83 SWAP1 PUSH2 0x447A JUMP JUMPDEST DUP1 PUSH1 0x1F ADD PUSH1 0x20 DUP1 SWAP2 DIV MUL PUSH1 0x20 ADD PUSH1 0x40 MLOAD SWAP1 DUP2 ADD PUSH1 0x40 MSTORE DUP1 SWAP3 SWAP2 SWAP1 DUP2 DUP2 MSTORE PUSH1 0x20 ADD DUP3 DUP1 SLOAD PUSH2 0x1DAF SWAP1 PUSH2 0x447A JUMP JUMPDEST DUP1 ISZERO PUSH2 0x1DFA JUMPI DUP1 PUSH1 0x1F LT PUSH2 0x1DD1 JUMPI PUSH2 0x100 DUP1 DUP4 SLOAD DIV MUL DUP4 MSTORE SWAP2 PUSH1 0x20 ADD SWAP2 PUSH2 0x1DFA JUMP JUMPDEST DUP3 ADD SWAP2 SWAP1 PUSH0 MSTORE PUSH1 0x20 PUSH0 KECCAK256 SWAP1 JUMPDEST DUP2 SLOAD DUP2 MSTORE SWAP1 PUSH1 0x1 ADD SWAP1 PUSH1 0x20 ADD DUP1 DUP4 GT PUSH2 0x1DDD JUMPI DUP3 SWAP1 SUB PUSH1 0x1F AND DUP3 ADD SWAP2 JUMPDEST POP POP POP POP POP SWAP1 DUP1 PUSH1 0x2 ADD SLOAD SWAP1 DUP1 PUSH1 0x3 ADD SLOAD SWAP1 DUP1 PUSH1 0x4 ADD SLOAD SWAP1 DUP1 PUSH1 0x5 ADD SLOAD SWAP1 POP DUP7 JUMP JUMPDEST PUSH1 0x1 PUSH1 0x1 PUSH1 0xA0 SHL SUB DUP2 AND PUSH0 SWAP1 DUP2 MSTORE PUSH1 0xE PUSH1 0x20 MSTORE PUSH1 0x40 DUP2 KECCAK256 SLOAD ISZERO ISZERO DUP1 ISZERO PUSH2 0x1E5D JUMPI POP PUSH1 0x1 PUSH1 0x1 PUSH1 0xA0 SHL SUB DUP3 AND PUSH0 SWAP1 DUP2 MSTORE PUSH1 0xE PUSH1 0x20 MSTORE PUSH1 0x40 SWAP1 KECCAK256 PUSH1 0x6 ADD SLOAD PUSH1 0xFF AND ISZERO JUMPDEST SWAP3 SWAP2 POP POP JUMP JUMPDEST PUSH2 0x1E6C DUP2 PUSH2 0x2659 JUMP JUMPDEST POP JUMP JUMPDEST PUSH2 0x1E77 PUSH2 0x232F JUMP JUMPDEST PUSH2 0x1EB9 JUMPI PUSH1 0x40 MLOAD PUSH3 0x461BCD PUSH1 0xE5 SHL DUP2 MSTORE PUSH1 0x20 PUSH1 0x4 DUP3 ADD MSTORE PUSH1 0x13 PUSH1 0x24 DUP3 ADD MSTORE PUSH19 0x165BDD48185C99481B9BDD08185B1B1BDDD959 PUSH1 0x6A SHL PUSH1 0x44 DUP3 ADD MSTORE PUSH1 0x64 ADD PUSH2 0x134D JUMP JUMPDEST DUP1 PUSH1 0x2 SUB PUSH2 0x1EF0 JUMPI POP PUSH1 0x1 PUSH0 MSTORE PUSH1 0xB PUSH1 0x20 MSTORE PUSH32 0x72C6BFB7988AF3A1EFA6568F02A999BC52252641C659D85961CA3D372B57D5D4 SSTORE POP JUMP JUMPDEST DUP1 PUSH1 0x3 SUB PUSH2 0x1F36 JUMPI PUSH1 0x1 PUSH1 0x1 PUSH1 0xA0 SHL SUB DUP4 AND PUSH0 SWAP1 DUP2 MSTORE PUSH1 0x16 PUSH1 0x20 SWAP1 DUP2 MSTORE PUSH1 0x40 DUP1 DUP4 KECCAK256 PUSH1 0x1 DUP5 MSTORE SWAP1 SWAP2 MSTORE DUP2 KECCAK256 DUP1 SLOAD DUP5 SWAP3 SWAP1 PUSH2 0x1F2B SWAP1 DUP5 SWAP1 PUSH2 0x44AC JUMP JUMPDEST SWAP1 SWAP2 SSTORE POP PUSH2 0x1FEE SWAP1 POP JUMP JUMPDEST DUP1 PUSH1 0x4 SUB PUSH2 0x1F71 JUMPI PUSH1 0x1 PUSH1 0x1 PUSH1 0xA0 SHL SUB DUP4 AND PUSH0 SWAP1 DUP2 MSTORE PUSH1 0x16 PUSH1 0x20 SWAP1 DUP2 MSTORE PUSH1 0x40 DUP1 DUP4 KECCAK256 PUSH1 0x1 DUP5 MSTORE SWAP1 SWAP2 MSTORE DUP2 KECCAK256 DUP1 SLOAD DUP5 SWAP3 SWAP1 PUSH2 0x1F2B SWAP1 DUP5 SWAP1 PUSH2 0x4426 JUMP JUMPDEST DUP1 PUSH1 0x5 SUB PUSH2 0x1FA3 JUMPI PUSH1 0x1 PUSH1 0x1 PUSH1 0xA0 SHL SUB DUP4 AND PUSH0 SWAP1 DUP2 MSTORE PUSH1 0xE PUSH1 0x20 MSTORE PUSH1 0x40 SWAP1 KECCAK256 PUSH1 0x6 ADD DUP1 SLOAD PUSH1 0xFF NOT AND PUSH1 0x1 OR SWAP1 SSTORE POP POP POP JUMP JUMPDEST DUP1 PUSH1 0x6 SUB PUSH2 0x1FD0 JUMPI POP POP PUSH1 0x1 PUSH1 0x1 PUSH1 0xA0 SHL SUB AND PUSH0 SWAP1 DUP2 MSTORE PUSH1 0xE PUSH1 0x20 MSTORE PUSH1 0x40 SWAP1 KECCAK256 PUSH1 0x6 ADD DUP1 SLOAD PUSH1 0xFF NOT AND SWAP1 SSTORE JUMP JUMPDEST DUP1 PUSH1 0x7 SUB PUSH2 0x1FF3 JUMPI PUSH1 0x3 SLOAD PUSH2 0x1FEE SWAP1 PUSH1 0x1 PUSH1 0x1 PUSH1 0xA0 SHL SUB AND DUP4 PUSH2 0x23CF JUMP JUMPDEST POP POP POP JUMP JUMPDEST DUP1 PUSH1 0x8 SUB PUSH2 0x202E JUMPI PUSH1 0x1 PUSH1 0x1 PUSH1 0xA0 SHL SUB DUP4 AND PUSH0 SWAP1 DUP2 MSTORE PUSH1 0x16 PUSH1 0x20 SWAP1 DUP2 MSTORE PUSH1 0x40 DUP1 DUP4 KECCAK256 PUSH1 0x2 DUP5 MSTORE SWAP1 SWAP2 MSTORE DUP2 KECCAK256 DUP1 SLOAD DUP5 SWAP3 SWAP1 PUSH2 0x1F2B SWAP1 DUP5 SWAP1 PUSH2 0x44AC JUMP JUMPDEST DUP1 PUSH1 0x9 SUB PUSH2 0x2069 JUMPI PUSH1 0x1 PUSH1 0x1 PUSH1 0xA0 SHL SUB DUP4 AND PUSH0 SWAP1 DUP2 MSTORE PUSH1 0x16 PUSH1 0x20 SWAP1 DUP2 MSTORE PUSH1 0x40 DUP1 DUP4 KECCAK256 PUSH1 0x2 DUP5 MSTORE SWAP1 SWAP2 MSTORE DUP2 KECCAK256 DUP1 SLOAD DUP5 SWAP3 SWAP1 PUSH2 0x1F2B SWAP1 DUP5 SWAP1 PUSH2 0x4426 JUMP JUMPDEST DUP1 PUSH1 0xA SUB PUSH2 0x2080 JUMPI PUSH1 0xA DUP1 SLOAD PUSH1 0xFF NOT AND SWAP1 SSTORE POP POP POP JUMP JUMPDEST DUP1 PUSH1 0xB SUB PUSH2 0x209A JUMPI PUSH1 0xA DUP1 SLOAD PUSH1 0xFF NOT AND PUSH1 0x1 OR SWAP1 SSTORE POP POP POP JUMP JUMPDEST DUP1 PUSH1 0xC SUB PUSH2 0x1FEE JUMPI PUSH1 0xA DUP1 SLOAD PUSH2 0x100 PUSH1 0x1 PUSH1 0xA8 SHL SUB NOT AND PUSH2 0x100 PUSH1 0x1 PUSH1 0x1 PUSH1 0xA0 SHL SUB DUP7 AND MUL OR SWAP1 SSTORE POP POP POP JUMP JUMPDEST CALLER PUSH0 SWAP1 DUP2 MSTORE PUSH1 0xE PUSH1 0x20 MSTORE PUSH1 0x40 DUP2 KECCAK256 PUSH1 0x8 ADD SLOAD TIMESTAMP LT ISZERO PUSH2 0x2112 JUMPI PUSH1 0x40 MLOAD PUSH3 0x461BCD PUSH1 0xE5 SHL DUP2 MSTORE PUSH1 0x20 PUSH1 0x4 DUP3 ADD MSTORE PUSH1 0x7 PUSH1 0x24 DUP3 ADD MSTORE PUSH7 0x41637469766521 PUSH1 0xC8 SHL PUSH1 0x44 DUP3 ADD MSTORE PUSH1 0x64 ADD PUSH2 0x134D JUMP JUMPDEST PUSH2 0x211D CALLER TIMESTAMP PUSH0 PUSH2 0x2707 JUMP JUMPDEST SWAP1 POP SWAP1 JUMP JUMPDEST PUSH0 DUP2 DUP2 MSTORE PUSH1 0xC PUSH1 0x20 SWAP1 DUP2 MSTORE PUSH1 0x40 DUP1 DUP4 KECCAK256 PUSH1 0x2 ADD SLOAD PUSH1 0x1 PUSH1 0x1 PUSH1 0xA0 SHL SUB DUP7 AND DUP5 MSTORE PUSH1 0xE SWAP1 SWAP3 MSTORE DUP3 KECCAK256 PUSH1 0x9 ADD SLOAD LT PUSH2 0x215A JUMPI POP PUSH1 0x1 PUSH2 0x1E5D JUMP JUMPDEST POP PUSH0 SWAP3 SWAP2 POP POP JUMP JUMPDEST PUSH1 0x1 PUSH1 0x1 PUSH1 0xA0 SHL SUB DUP2 AND PUSH0 SWAP1 DUP2 MSTORE PUSH1 0x15 PUSH1 0x20 SWAP1 DUP2 MSTORE PUSH1 0x40 DUP1 DUP4 KECCAK256 DUP2 MLOAD PUSH1 0xE0 DUP2 ADD DUP4 MSTORE DUP2 SLOAD DUP2 MSTORE PUSH1 0x1 DUP3 ADD SLOAD DUP2 DUP6 ADD MSTORE PUSH1 0x2 DUP3 ADD SLOAD DUP2 DUP5 ADD MSTORE PUSH1 0x3 DUP3 ADD DUP1 SLOAD DUP5 MLOAD DUP2 DUP8 MUL DUP2 ADD DUP8 ADD SWAP1 SWAP6 MSTORE DUP1 DUP6 MSTORE DUP7 SWAP6 DUP7 SWAP6 SWAP4 SWAP5 SWAP4 PUSH1 0x60 DUP7 ADD SWAP4 SWAP1 SWAP3 SWAP1 SWAP2 DUP4 ADD DUP3 DUP3 DUP1 ISZERO PUSH2 0x21EC JUMPI PUSH1 0x20 MUL DUP3 ADD SWAP2 SWAP1 PUSH0 MSTORE PUSH1 0x20 PUSH0 KECCAK256 SWAP1 JUMPDEST DUP2 SLOAD DUP2 MSTORE PUSH1 0x20 ADD SWAP1 PUSH1 0x1 ADD SWAP1 DUP1 DUP4 GT PUSH2 0x21D8 JUMPI JUMPDEST POP POP POP POP POP DUP2 MSTORE PUSH1 0x20 ADD PUSH1 0x4 DUP3 ADD SLOAD DUP2 MSTORE PUSH1 0x20 ADD PUSH1 0x5 DUP3 ADD SLOAD DUP2 MSTORE PUSH1 0x20 ADD PUSH1 0x6 DUP3 ADD SLOAD DUP2 MSTORE POP POP SWAP1 POP PUSH0 JUMPDEST DUP2 PUSH1 0x60 ADD MLOAD MLOAD DUP2 LT ISZERO PUSH2 0x2261 JUMPI DUP2 PUSH1 0x60 ADD MLOAD DUP2 DUP2 MLOAD DUP2 LT PUSH2 0x223A JUMPI PUSH2 0x223A PUSH2 0x4439 JUMP JUMPDEST PUSH1 0x20 MUL PUSH1 0x20 ADD ADD MLOAD DUP4 PUSH2 0x224D SWAP2 SWAP1 PUSH2 0x44AC JUMP JUMPDEST SWAP3 POP DUP1 PUSH2 0x2259 DUP2 PUSH2 0x444D JUMP JUMPDEST SWAP2 POP POP PUSH2 0x2217 JUMP JUMPDEST POP SWAP1 SWAP4 SWAP3 POP POP POP JUMP JUMPDEST PUSH1 0x1 PUSH1 0x1 PUSH1 0xA0 SHL SUB DUP2 AND PUSH0 SWAP1 DUP2 MSTORE PUSH1 0xE PUSH1 0x20 MSTORE PUSH1 0x40 DUP2 KECCAK256 PUSH1 0x4 DUP2 ADD SLOAD PUSH1 0x8 SWAP1 SWAP2 ADD SLOAD DUP3 SWAP1 TIMESTAMP LT PUSH2 0x22BA JUMPI PUSH1 0x64 PUSH2 0x22A1 DUP4 PUSH1 0xA PUSH2 0x440F JUMP JUMPDEST PUSH2 0x22AB SWAP2 SWAP1 PUSH2 0x44ED JUMP JUMPDEST SWAP1 POP PUSH2 0x22B7 DUP5 DUP3 PUSH2 0x27B2 JUMP JUMPDEST SWAP1 POP JUMPDEST SWAP4 SWAP3 POP POP POP JUMP JUMPDEST PUSH0 PUSH2 0x22CB DUP3 PUSH2 0x2162 JUMP JUMPDEST PUSH1 0x1 PUSH1 0x1 PUSH1 0xA0 SHL SUB DUP4 AND PUSH0 SWAP1 DUP2 MSTORE PUSH1 0x15 PUSH1 0x20 MSTORE PUSH1 0x40 SWAP1 KECCAK256 PUSH1 0x5 DUP2 ADD SLOAD PUSH1 0x1 DUP3 ADD SLOAD PUSH1 0x4 DUP4 ADD SLOAD PUSH1 0x2 DUP5 ADD SLOAD SWAP4 SLOAD SWAP3 SWAP4 SWAP2 SWAP3 SWAP1 SWAP2 PUSH2 0x2307 SWAP2 PUSH2 0x44AC JUMP JUMPDEST PUSH2 0x2311 SWAP2 SWAP1 PUSH2 0x44AC JUMP JUMPDEST PUSH2 0x231B SWAP2 SWAP1 PUSH2 0x44AC JUMP JUMPDEST PUSH2 0x2325 SWAP2 SWAP1 PUSH2 0x44AC JUMP JUMPDEST PUSH2 0x1E5D SWAP2 SWAP1 PUSH2 0x44AC JUMP JUMPDEST PUSH1 0x3 SLOAD PUSH0 SWAP1 PUSH1 0x1 PUSH1 0x1 PUSH1 0xA0 SHL SUB AND CALLER EQ DUP1 PUSH2 0x211D JUMPI POP POP PUSH1 0xA SLOAD PUSH2 0x100 SWAP1 DIV PUSH1 0x1 PUSH1 0x1 PUSH1 0xA0 SHL SUB AND CALLER EQ SWAP1 JUMP JUMPDEST PUSH1 0x40 MLOAD PUSH4 0x70A08231 PUSH1 0xE0 SHL DUP2 MSTORE ADDRESS PUSH1 0x4 DUP3 ADD MSTORE PUSH0 SWAP1 PUSH20 0xAC17996D3A9A3081F626CD56E904A70E9DADF892 SWAP1 PUSH4 0x70A08231 SWAP1 PUSH1 0x24 ADD PUSH1 0x20 PUSH1 0x40 MLOAD DUP1 DUP4 SUB DUP2 DUP7 GAS STATICCALL ISZERO DUP1 ISZERO PUSH2 0x23AB JUMPI RETURNDATASIZE PUSH0 DUP1 RETURNDATACOPY RETURNDATASIZE PUSH0 REVERT JUMPDEST POP POP POP POP PUSH1 0x40 MLOAD RETURNDATASIZE PUSH1 0x1F NOT PUSH1 0x1F DUP3 ADD AND DUP3 ADD DUP1 PUSH1 0x40 MSTORE POP DUP2 ADD SWAP1 PUSH2 0x211D SWAP2 SWAP1 PUSH2 0x450C JUMP JUMPDEST PUSH1 0x40 MLOAD PUSH4 0xA9059CBB PUSH1 0xE0 SHL DUP2 MSTORE PUSH1 0x1 PUSH1 0x1 PUSH1 0xA0 SHL SUB DUP4 AND PUSH1 0x4 DUP3 ADD MSTORE PUSH1 0x24 DUP2 ADD DUP3 SWAP1 MSTORE PUSH20 0xAC17996D3A9A3081F626CD56E904A70E9DADF892 SWAP1 PUSH4 0xA9059CBB SWAP1 PUSH1 0x44 ADD PUSH1 0x20 PUSH1 0x40 MLOAD DUP1 DUP4 SUB DUP2 PUSH0 DUP8 GAS CALL ISZERO DUP1 ISZERO PUSH2 0x242D JUMPI RETURNDATASIZE PUSH0 DUP1 RETURNDATACOPY RETURNDATASIZE PUSH0 REVERT JUMPDEST POP POP POP POP PUSH1 0x40 MLOAD RETURNDATASIZE PUSH1 0x1F NOT PUSH1 0x1F DUP3 ADD AND DUP3 ADD DUP1 PUSH1 0x40 MSTORE POP DUP2 ADD SWAP1 PUSH2 0x1FEE SWAP2 SWAP1 PUSH2 0x4523 JUMP JUMPDEST PUSH1 0x5 SLOAD PUSH1 0x1 PUSH1 0x1 PUSH1 0xA0 SHL SUB AND PUSH2 0x24A9 JUMPI PUSH1 0x40 MLOAD PUSH3 0x461BCD PUSH1 0xE5 SHL DUP2 MSTORE PUSH1 0x20 PUSH1 0x4 DUP3 ADD MSTORE PUSH1 0x1E PUSH1 0x24 DUP3 ADD MSTORE PUSH32 0x53656375726974792066756E6420636F6E7472616374206E6F74207365740000 PUSH1 0x44 DUP3 ADD MSTORE PUSH1 0x64 ADD PUSH2 0x134D JUMP JUMPDEST PUSH1 0x5 SLOAD PUSH1 0x40 MLOAD PUSH4 0x58908A0F PUSH1 0xE0 SHL DUP2 MSTORE PUSH20 0xAC17996D3A9A3081F626CD56E904A70E9DADF892 PUSH1 0x4 DUP3 ADD MSTORE PUSH1 0x1 PUSH1 0x1 PUSH1 0xA0 SHL SUB DUP5 DUP2 AND PUSH1 0x24 DUP4 ADD MSTORE PUSH1 0x44 DUP3 ADD DUP5 SWAP1 MSTORE SWAP1 SWAP2 AND SWAP1 PUSH4 0x58908A0F SWAP1 PUSH1 0x64 ADD PUSH0 PUSH1 0x40 MLOAD DUP1 DUP4 SUB DUP2 PUSH0 DUP8 DUP1 EXTCODESIZE ISZERO DUP1 ISZERO PUSH2 0x250E JUMPI PUSH0 DUP1 REVERT JUMPDEST POP GAS CALL ISZERO DUP1 ISZERO PUSH2 0x17B7 JUMPI RETURNDATASIZE PUSH0 DUP1 RETURNDATACOPY RETURNDATASIZE PUSH0 REVERT JUMPDEST CALLER PUSH0 DUP2 DUP2 MSTORE PUSH1 0xE PUSH1 0x20 MSTORE PUSH1 0x40 SWAP1 KECCAK256 SLOAD PUSH2 0x257B JUMPI PUSH1 0x40 MLOAD PUSH3 0x461BCD PUSH1 0xE5 SHL DUP2 MSTORE PUSH1 0x20 PUSH1 0x4 DUP3 ADD MSTORE PUSH1 0x17 PUSH1 0x24 DUP3 ADD MSTORE PUSH32 0x596F7520617265206E6F74207265676973746572656421000000000000000000 PUSH1 0x44 DUP3 ADD MSTORE PUSH1 0x64 ADD PUSH2 0x134D JUMP JUMPDEST PUSH1 0x1 PUSH1 0x1 PUSH1 0xA0 SHL SUB DUP2 AND PUSH0 SWAP1 DUP2 MSTORE PUSH1 0xE PUSH1 0x20 MSTORE PUSH1 0x40 SWAP1 KECCAK256 PUSH1 0x8 ADD SLOAD TIMESTAMP LT ISZERO PUSH2 0x25F7 JUMPI PUSH1 0x40 MLOAD PUSH3 0x461BCD PUSH1 0xE5 SHL DUP2 MSTORE PUSH1 0x20 PUSH1 0x4 DUP3 ADD MSTORE PUSH1 0x29 PUSH1 0x24 DUP3 ADD MSTORE PUSH32 0x4465706F73697420697320616C6C6F776564206F6E6C79206166746572207468 PUSH1 0x44 DUP3 ADD MSTORE PUSH9 0x329032BC3834B93C97 PUSH1 0xB9 SHL PUSH1 0x64 DUP3 ADD MSTORE PUSH1 0x84 ADD PUSH2 0x134D JUMP JUMPDEST PUSH2 0x2600 DUP3 PUSH2 0x2858 JUMP JUMPDEST PUSH2 0x260B DUP2 DUP5 DUP5 PUSH2 0x293A JUMP JUMPDEST PUSH1 0x3 DUP1 SLOAD PUSH2 0x263C SWAP2 PUSH1 0x1 PUSH1 0x1 PUSH1 0xA0 SHL SUB SWAP1 SWAP2 AND SWAP1 PUSH1 0x64 SWAP1 PUSH2 0x262D SWAP1 DUP7 SWAP1 PUSH2 0x440F JUMP JUMPDEST PUSH2 0x2637 SWAP2 SWAP1 PUSH2 0x44ED JUMP JUMPDEST PUSH2 0x23CF JUMP JUMPDEST PUSH1 0x4 SLOAD PUSH2 0x1FEE SWAP1 PUSH1 0x1 PUSH1 0x1 PUSH1 0xA0 SHL SUB AND PUSH1 0x64 PUSH2 0x262D DUP6 PUSH1 0x5 PUSH2 0x440F JUMP JUMPDEST CALLER PUSH2 0x2663 DUP3 PUSH2 0x1E1C JUMP JUMPDEST PUSH2 0x26A2 JUMPI PUSH1 0x40 MLOAD PUSH3 0x461BCD PUSH1 0xE5 SHL DUP2 MSTORE PUSH1 0x20 PUSH1 0x4 DUP3 ADD MSTORE PUSH1 0x10 PUSH1 0x24 DUP3 ADD MSTORE PUSH16 0x496E76616C69642073706F6E736F7221 PUSH1 0x80 SHL PUSH1 0x44 DUP3 ADD MSTORE PUSH1 0x64 ADD PUSH2 0x134D JUMP JUMPDEST PUSH1 0x1 PUSH1 0x1 PUSH1 0xA0 SHL SUB DUP2 AND PUSH0 SWAP1 DUP2 MSTORE PUSH1 0xE PUSH1 0x20 MSTORE PUSH1 0x40 SWAP1 KECCAK256 SLOAD ISZERO PUSH2 0x26FD JUMPI PUSH1 0x40 MLOAD PUSH3 0x461BCD PUSH1 0xE5 SHL DUP2 MSTORE PUSH1 0x20 PUSH1 0x4 DUP3 ADD MSTORE PUSH1 0x13 PUSH1 0x24 DUP3 ADD MSTORE PUSH19 0x416C7265616479207265676973746572656421 PUSH1 0x68 SHL PUSH1 0x44 DUP3 ADD MSTORE PUSH1 0x64 ADD PUSH2 0x134D JUMP JUMPDEST PUSH2 0x1CD2 DUP2 DUP4 PUSH2 0x2D46 JUMP JUMPDEST PUSH1 0x1 PUSH1 0x1 PUSH1 0xA0 SHL SUB DUP4 AND PUSH0 SWAP1 DUP2 MSTORE PUSH1 0x17 PUSH1 0x20 MSTORE PUSH1 0x40 DUP2 KECCAK256 PUSH1 0x2 SWAP1 DUP2 ADD SLOAD DUP3 SWAP2 PUSH2 0x272F SWAP2 PUSH2 0x44ED JUMP JUMPDEST PUSH2 0x273A SWAP1 PUSH1 0xA PUSH2 0x44AC JUMP JUMPDEST SWAP1 POP PUSH0 PUSH2 0x274A DUP3 PUSH3 0x15180 PUSH2 0x440F JUMP JUMPDEST PUSH2 0x2754 SWAP1 DUP7 PUSH2 0x44AC JUMP JUMPDEST PUSH1 0x1 PUSH1 0x1 PUSH1 0xA0 SHL SUB DUP8 AND PUSH0 SWAP1 DUP2 MSTORE PUSH1 0xE PUSH1 0x20 SWAP1 DUP2 MSTORE PUSH1 0x40 DUP1 DUP4 KECCAK256 PUSH1 0x8 ADD DUP5 SWAP1 SSTORE PUSH1 0x17 SWAP1 SWAP2 MSTORE DUP2 KECCAK256 PUSH1 0x2 ADD DUP1 SLOAD SWAP3 SWAP4 POP SWAP1 PUSH2 0x278D DUP4 PUSH2 0x444D JUMP JUMPDEST SWAP2 SWAP1 POP SSTORE POP PUSH2 0x279D DUP7 DUP7 DUP7 PUSH2 0x311B JUMP JUMPDEST PUSH2 0x27A6 DUP7 PUSH2 0x31A9 JUMP JUMPDEST POP PUSH1 0x1 SWAP6 SWAP5 POP POP POP POP POP JUMP JUMPDEST PUSH0 DUP2 ISZERO PUSH2 0xD4F JUMPI PUSH1 0x1 PUSH1 0x1 PUSH1 0xA0 SHL SUB DUP4 AND PUSH0 SWAP1 DUP2 MSTORE PUSH1 0xE PUSH1 0x20 MSTORE PUSH1 0x40 SWAP1 KECCAK256 PUSH1 0x8 ADD SLOAD TIMESTAMP LT PUSH2 0x27E1 JUMPI POP PUSH0 PUSH2 0x1E5D JUMP JUMPDEST PUSH0 PUSH2 0x27EB DUP5 PUSH2 0x22C1 JUMP JUMPDEST PUSH1 0x1 PUSH1 0x1 PUSH1 0xA0 SHL SUB DUP6 AND PUSH0 SWAP1 DUP2 MSTORE PUSH1 0xE PUSH1 0x20 MSTORE PUSH1 0x40 DUP2 KECCAK256 PUSH1 0x4 DUP2 ADD SLOAD PUSH1 0xA SWAP1 SWAP2 ADD SLOAD SWAP3 SWAP4 POP SWAP1 SWAP2 PUSH1 0xFF AND PUSH2 0x2820 JUMPI PUSH1 0x3 PUSH2 0x2823 JUMP JUMPDEST PUSH1 0x4 JUMPDEST PUSH1 0xFF AND PUSH2 0x2830 SWAP2 SWAP1 PUSH2 0x440F JUMP JUMPDEST SWAP1 POP DUP1 PUSH2 0x283D DUP6 DUP5 PUSH2 0x44AC JUMP JUMPDEST GT ISZERO PUSH2 0x2850 JUMPI PUSH2 0x284D DUP3 DUP3 PUSH2 0x4426 JUMP JUMPDEST SWAP4 POP JUMPDEST POP POP POP SWAP2 SWAP1 POP JUMP JUMPDEST PUSH0 PUSH2 0x2861 PUSH2 0x235C JUMP JUMPDEST PUSH1 0x40 MLOAD PUSH4 0x23B872DD PUSH1 0xE0 SHL DUP2 MSTORE CALLER PUSH1 0x4 DUP3 ADD MSTORE ADDRESS PUSH1 0x24 DUP3 ADD MSTORE PUSH1 0x44 DUP2 ADD DUP5 SWAP1 MSTORE SWAP1 SWAP2 POP PUSH20 0xAC17996D3A9A3081F626CD56E904A70E9DADF892 SWAP1 PUSH4 0x23B872DD SWAP1 PUSH1 0x64 ADD PUSH1 0x20 PUSH1 0x40 MLOAD DUP1 DUP4 SUB DUP2 PUSH0 DUP8 GAS CALL ISZERO DUP1 ISZERO PUSH2 0x28BF JUMPI RETURNDATASIZE PUSH0 DUP1 RETURNDATACOPY RETURNDATASIZE PUSH0 REVERT JUMPDEST POP POP POP POP PUSH1 0x40 MLOAD RETURNDATASIZE PUSH1 0x1F NOT PUSH1 0x1F DUP3 ADD AND DUP3 ADD DUP1 PUSH1 0x40 MSTORE POP DUP2 ADD SWAP1 PUSH2 0x28E3 SWAP2 SWAP1 PUSH2 0x4523 JUMP JUMPDEST POP PUSH0 PUSH2 0x28ED PUSH2 0x235C JUMP JUMPDEST SWAP1 POP DUP3 PUSH2 0x28FA DUP4 DUP4 PUSH2 0x4426 JUMP JUMPDEST LT ISZERO PUSH2 0x1FEE JUMPI PUSH1 0x40 MLOAD PUSH3 0x461BCD PUSH1 0xE5 SHL DUP2 MSTORE PUSH1 0x20 PUSH1 0x4 DUP3 ADD MSTORE PUSH1 0xF PUSH1 0x24 DUP3 ADD MSTORE PUSH15 0x496E76616C696420616D6F756E7421 PUSH1 0x88 SHL PUSH1 0x44 DUP3 ADD MSTORE PUSH1 0x64 ADD PUSH2 0x134D JUMP JUMPDEST PUSH0 DUP3 DUP2 MSTORE PUSH1 0xB PUSH1 0x20 MSTORE PUSH1 0x40 SWAP1 KECCAK256 PUSH1 0x3 ADD SLOAD PUSH1 0xFF AND DUP1 ISZERO PUSH2 0x29E1 JUMPI POP PUSH0 DUP3 DUP2 MSTORE PUSH1 0xB PUSH1 0x20 MSTORE PUSH1 0x40 SWAP1 KECCAK256 PUSH1 0x3 ADD SLOAD PUSH2 0x100 SWAP1 DIV PUSH1 0xFF AND ISZERO DUP1 ISZERO PUSH2 0x298A JUMPI POP PUSH0 DUP3 DUP2 MSTORE PUSH1 0xB PUSH1 0x20 MSTORE PUSH1 0x40 SWAP1 KECCAK256 PUSH1 0x2 ADD SLOAD DUP2 EQ JUMPDEST DUP1 PUSH2 0x29E1 JUMPI POP PUSH0 DUP3 DUP2 MSTORE PUSH1 0xB PUSH1 0x20 MSTORE PUSH1 0x40 SWAP1 KECCAK256 PUSH1 0x3 ADD SLOAD PUSH2 0x100 SWAP1 DIV PUSH1 0xFF AND DUP1 ISZERO PUSH2 0x29C5 JUMPI POP PUSH0 DUP3 DUP2 MSTORE PUSH1 0xB PUSH1 0x20 MSTORE PUSH1 0x40 SWAP1 KECCAK256 PUSH1 0x4 ADD SLOAD DUP2 LT ISZERO JUMPDEST DUP1 ISZERO PUSH2 0x29E1 JUMPI POP PUSH0 DUP3 DUP2 MSTORE PUSH1 0xB PUSH1 0x20 MSTORE PUSH1 0x40 SWAP1 KECCAK256 PUSH1 0x5 ADD SLOAD DUP2 GT ISZERO JUMPDEST PUSH2 0x2A1F JUMPI PUSH1 0x40 MLOAD PUSH3 0x461BCD PUSH1 0xE5 SHL DUP2 MSTORE PUSH1 0x20 PUSH1 0x4 DUP3 ADD MSTORE PUSH1 0xF PUSH1 0x24 DUP3 ADD MSTORE PUSH15 0x496E76616C696420616D6F756E7421 PUSH1 0x88 SHL PUSH1 0x44 DUP3 ADD MSTORE PUSH1 0x64 ADD PUSH2 0x134D JUMP JUMPDEST PUSH1 0x1 PUSH1 0x1 PUSH1 0xA0 SHL SUB DUP4 AND PUSH0 SWAP1 DUP2 MSTORE PUSH1 0x11 PUSH1 0x20 SWAP1 DUP2 MSTORE PUSH1 0x40 DUP1 DUP4 KECCAK256 PUSH1 0x17 DUP4 MSTORE DUP2 DUP5 KECCAK256 SLOAD DUP5 MSTORE SWAP1 SWAP2 MSTORE SWAP1 KECCAK256 PUSH1 0x1 ADD SLOAD DUP2 LT ISZERO PUSH2 0x2AC1 JUMPI PUSH1 0x40 MLOAD PUSH3 0x461BCD PUSH1 0xE5 SHL DUP2 MSTORE PUSH1 0x20 PUSH1 0x4 DUP3 ADD MSTORE PUSH1 0x3D PUSH1 0x24 DUP3 ADD MSTORE PUSH32 0x416D6F756E74206D75737420626520657175616C20746F206F72206D6F726520 PUSH1 0x44 DUP3 ADD MSTORE PUSH32 0x7468616E2070726576696F7573206465706F73697420616D6F756E742E000000 PUSH1 0x64 DUP3 ADD MSTORE PUSH1 0x84 ADD PUSH2 0x134D JUMP JUMPDEST PUSH0 TIMESTAMP SWAP1 POP DUP2 PUSH1 0x1 PUSH0 DUP3 DUP3 SLOAD PUSH2 0x2AD6 SWAP2 SWAP1 PUSH2 0x44AC JUMP JUMPDEST SWAP1 SWAP2 SSTORE POP POP PUSH1 0x1 PUSH1 0x1 PUSH1 0xA0 SHL SUB DUP5 DUP2 AND PUSH0 SWAP1 DUP2 MSTORE PUSH1 0xE PUSH1 0x20 MSTORE PUSH1 0x40 SWAP1 KECCAK256 PUSH1 0x2 DUP2 ADD SLOAD PUSH1 0xA SWAP1 SWAP2 ADD SLOAD SWAP2 AND SWAP1 PUSH2 0x100 SWAP1 DIV PUSH1 0xFF AND PUSH2 0x2B67 JUMPI PUSH1 0x1 PUSH1 0x1 PUSH1 0xA0 SHL SUB DUP2 AND ISZERO PUSH2 0x2B5D JUMPI PUSH1 0x1 PUSH1 0x1 PUSH1 0xA0 SHL SUB DUP2 DUP2 AND PUSH0 SWAP1 DUP2 MSTORE PUSH1 0x10 PUSH1 0x20 SWAP1 DUP2 MSTORE PUSH1 0x40 DUP3 KECCAK256 PUSH1 0x1 SWAP1 DUP2 ADD DUP1 SLOAD SWAP2 DUP3 ADD DUP2 SSTORE DUP4 MSTORE SWAP2 KECCAK256 ADD DUP1 SLOAD PUSH1 0x1 PUSH1 0x1 PUSH1 0xA0 SHL SUB NOT AND SWAP2 DUP8 AND SWAP2 SWAP1 SWAP2 OR SWAP1 SSTORE JUMPDEST PUSH2 0x2B67 DUP2 DUP7 PUSH2 0x331B JUMP JUMPDEST PUSH1 0x1 PUSH1 0x1 PUSH1 0xA0 SHL SUB DUP6 AND PUSH0 SWAP1 DUP2 MSTORE PUSH1 0xE PUSH1 0x20 MSTORE PUSH1 0x40 DUP2 KECCAK256 PUSH1 0x4 ADD DUP1 SLOAD DUP6 SWAP3 SWAP1 PUSH2 0x2B91 SWAP1 DUP5 SWAP1 PUSH2 0x44AC JUMP JUMPDEST SWAP1 SWAP2 SSTORE POP POP PUSH1 0x1 PUSH1 0x1 PUSH1 0xA0 SHL SUB DUP2 AND PUSH0 SWAP1 DUP2 MSTORE PUSH1 0x10 PUSH1 0x20 MSTORE PUSH1 0x40 DUP2 KECCAK256 DUP1 SLOAD DUP6 SWAP3 SWAP1 PUSH2 0x2BBD SWAP1 DUP5 SWAP1 PUSH2 0x44AC JUMP JUMPDEST SWAP1 SWAP2 SSTORE POP PUSH2 0x2BCE SWAP1 POP DUP2 DUP7 DUP6 PUSH2 0x33A9 JUMP JUMPDEST PUSH1 0x40 DUP1 MLOAD PUSH1 0x60 DUP2 ADD DUP3 MSTORE DUP6 DUP2 MSTORE PUSH1 0x20 DUP2 ADD DUP6 SWAP1 MSTORE SWAP1 DUP2 ADD DUP4 SWAP1 MSTORE PUSH2 0x2BF3 DUP7 DUP6 PUSH0 PUSH2 0x3511 JUMP JUMPDEST PUSH1 0x1 PUSH1 0x1 PUSH1 0xA0 SHL SUB DUP7 AND PUSH0 SWAP1 DUP2 MSTORE PUSH1 0x11 PUSH1 0x20 SWAP1 DUP2 MSTORE PUSH1 0x40 DUP1 DUP4 KECCAK256 PUSH1 0x17 SWAP1 SWAP3 MSTORE DUP3 KECCAK256 SLOAD DUP4 SWAP3 SWAP1 PUSH2 0x2C23 SWAP1 PUSH1 0x1 PUSH2 0x44AC JUMP JUMPDEST DUP2 MSTORE PUSH1 0x20 DUP1 DUP3 ADD SWAP3 SWAP1 SWAP3 MSTORE PUSH1 0x40 SWAP1 DUP2 ADD PUSH0 SWAP1 DUP2 KECCAK256 DUP5 MLOAD DUP2 SSTORE DUP5 DUP5 ADD MLOAD PUSH1 0x1 DUP3 ADD SSTORE SWAP4 DUP3 ADD MLOAD PUSH1 0x2 SWAP1 SWAP5 ADD SWAP4 SWAP1 SWAP4 SSTORE PUSH1 0x1 PUSH1 0x1 PUSH1 0xA0 SHL SUB DUP10 AND DUP4 MSTORE PUSH1 0x17 SWAP1 SWAP2 MSTORE DUP2 KECCAK256 DUP1 SLOAD SWAP2 PUSH2 0x2C70 DUP4 PUSH2 0x444D JUMP JUMPDEST SWAP2 SWAP1 POP SSTORE POP PUSH2 0x2C80 DUP7 DUP5 DUP7 PUSH2 0x2707 JUMP JUMPDEST POP PUSH1 0x1 PUSH1 0x1 PUSH1 0xA0 SHL SUB DUP7 AND PUSH0 SWAP1 DUP2 MSTORE PUSH1 0xE PUSH1 0x20 MSTORE PUSH1 0x40 SWAP1 KECCAK256 PUSH1 0xA ADD SLOAD PUSH2 0x100 SWAP1 DIV PUSH1 0xFF AND PUSH2 0x17B7 JUMPI PUSH1 0x1 PUSH1 0x1 PUSH1 0xA0 SHL SUB DUP7 AND PUSH0 DUP2 DUP2 MSTORE PUSH1 0xE PUSH1 0x20 MSTORE PUSH1 0x40 DUP2 KECCAK256 PUSH1 0x7 ADD DUP6 SWAP1 SSTORE PUSH1 0x18 DUP1 SLOAD PUSH1 0x1 DUP2 ADD DUP3 SSTORE SWAP2 MSTORE PUSH32 0xB13D2D76D1F4B7BE834882E410B3E3A8AFAF69F83600AE24DB354391D2378D2E ADD DUP1 SLOAD PUSH1 0x1 PUSH1 0x1 PUSH1 0xA0 SHL SUB NOT AND SWAP1 SWAP2 OR SWAP1 SSTORE PUSH2 0x2D0E DUP7 DUP6 PUSH2 0x35DE JUMP JUMPDEST PUSH2 0x2D17 DUP5 PUSH2 0x36D9 JUMP JUMPDEST PUSH1 0x1 PUSH1 0x1 PUSH1 0xA0 SHL SUB DUP7 AND PUSH0 SWAP1 DUP2 MSTORE PUSH1 0xE PUSH1 0x20 MSTORE PUSH1 0x40 SWAP1 KECCAK256 PUSH1 0xA ADD DUP1 SLOAD PUSH2 0xFF00 NOT AND PUSH2 0x100 OR SWAP1 SSTORE POP POP POP POP POP POP JUMP JUMPDEST PUSH0 DUP1 SLOAD SWAP1 DUP1 PUSH2 0x2D54 DUP4 PUSH2 0x444D JUMP JUMPDEST SWAP2 SWAP1 POP SSTORE POP PUSH0 PUSH1 0x40 MLOAD DUP1 PUSH2 0x180 ADD PUSH1 0x40 MSTORE DUP1 PUSH0 SLOAD DUP2 MSTORE PUSH1 0x20 ADD DUP5 PUSH1 0x1 PUSH1 0x1 PUSH1 0xA0 SHL SUB AND DUP2 MSTORE PUSH1 0x20 ADD DUP4 PUSH1 0x1 PUSH1 0x1 PUSH1 0xA0 SHL SUB AND DUP2 MSTORE PUSH1 0x20 ADD TIMESTAMP DUP2 MSTORE PUSH1 0x20 ADD PUSH0 DUP2 MSTORE PUSH1 0x20 ADD PUSH0 DUP2 MSTORE PUSH1 0x20 ADD PUSH0 ISZERO ISZERO DUP2 MSTORE PUSH1 0x20 ADD PUSH0 DUP2 MSTORE PUSH1 0x20 ADD PUSH0 DUP2 MSTORE PUSH1 0x20 ADD PUSH0 DUP2 MSTORE PUSH1 0x20 ADD PUSH0 ISZERO ISZERO DUP2 MSTORE PUSH1 0x20 ADD PUSH0 ISZERO ISZERO DUP2 MSTORE POP SWAP1 POP PUSH0 PUSH1 0x40 MLOAD DUP1 PUSH1 0xC0 ADD PUSH1 0x40 MSTORE DUP1 PUSH0 DUP2 MSTORE PUSH1 0x20 ADD PUSH0 PUSH8 0xFFFFFFFFFFFFFFFF DUP2 GT ISZERO PUSH2 0x2DF2 JUMPI PUSH2 0x2DF2 PUSH2 0x43E7 JUMP JUMPDEST PUSH1 0x40 MLOAD SWAP1 DUP1 DUP3 MSTORE DUP1 PUSH1 0x20 MUL PUSH1 0x20 ADD DUP3 ADD PUSH1 0x40 MSTORE DUP1 ISZERO PUSH2 0x2E1B JUMPI DUP2 PUSH1 0x20 ADD PUSH1 0x20 DUP3 MUL DUP1 CALLDATASIZE DUP4 CALLDATACOPY ADD SWAP1 POP JUMPDEST POP DUP2 MSTORE PUSH1 0x20 ADD PUSH0 DUP2 MSTORE PUSH1 0x20 ADD PUSH0 DUP2 MSTORE PUSH1 0x20 ADD PUSH0 DUP2 MSTORE PUSH1 0x20 ADD PUSH0 PUSH8 0xFFFFFFFFFFFFFFFF DUP2 GT ISZERO PUSH2 0x2E4C JUMPI PUSH2 0x2E4C PUSH2 0x43E7 JUMP JUMPDEST PUSH1 0x40 MLOAD SWAP1 DUP1 DUP3 MSTORE DUP1 PUSH1 0x20 MUL PUSH1 0x20 ADD DUP3 ADD PUSH1 0x40 MSTORE DUP1 ISZERO PUSH2 0x2E75 JUMPI DUP2 PUSH1 0x20 ADD PUSH1 0x20 DUP3 MUL DUP1 CALLDATASIZE DUP4 CALLDATACOPY ADD SWAP1 POP JUMPDEST POP DUP2 MSTORE POP SWAP1 POP PUSH0 PUSH1 0x40 MLOAD DUP1 PUSH1 0xE0 ADD PUSH1 0x40 MSTORE DUP1 PUSH0 DUP2 MSTORE PUSH1 0x20 ADD PUSH0 DUP2 MSTORE PUSH1 0x20 ADD PUSH0 DUP2 MSTORE PUSH1 0x20 ADD PUSH1 0x6 SLOAD PUSH1 0x1 PUSH2 0x2EA8 SWAP2 SWAP1 PUSH2 0x44AC JUMP JUMPDEST PUSH8 0xFFFFFFFFFFFFFFFF DUP2 GT ISZERO PUSH2 0x2EC0 JUMPI PUSH2 0x2EC0 PUSH2 0x43E7 JUMP JUMPDEST PUSH1 0x40 MLOAD SWAP1 DUP1 DUP3 MSTORE DUP1 PUSH1 0x20 MUL PUSH1 0x20 ADD DUP3 ADD PUSH1 0x40 MSTORE DUP1 ISZERO PUSH2 0x2EE9 JUMPI DUP2 PUSH1 0x20 ADD PUSH1 0x20 DUP3 MUL DUP1 CALLDATASIZE DUP4 CALLDATACOPY ADD SWAP1 POP JUMPDEST POP DUP2 MSTORE PUSH0 PUSH1 0x20 DUP1 DUP4 ADD DUP3 SWAP1 MSTORE PUSH1 0x40 DUP1 DUP5 ADD DUP4 SWAP1 MSTORE PUSH1 0x60 SWAP4 DUP5 ADD DUP4 SWAP1 MSTORE DUP1 MLOAD DUP1 DUP6 ADD DUP3 MSTORE DUP4 DUP2 MSTORE DUP1 DUP4 ADD DUP5 SWAP1 MSTORE DUP1 DUP3 ADD DUP5 SWAP1 MSTORE PUSH1 0x1 PUSH1 0x1 PUSH1 0xA0 SHL SUB DUP12 DUP2 AND DUP6 MSTORE PUSH1 0xE DUP5 MSTORE DUP3 DUP6 KECCAK256 DUP11 MLOAD DUP2 SSTORE DUP11 DUP6 ADD MLOAD PUSH1 0x1 DUP1 DUP4 ADD DUP1 SLOAD PUSH1 0x1 PUSH1 0x1 PUSH1 0xA0 SHL SUB NOT SWAP1 DUP2 AND SWAP4 DUP7 AND SWAP4 SWAP1 SWAP4 OR SWAP1 SSTORE DUP13 DUP7 ADD MLOAD PUSH1 0x2 DUP5 ADD DUP1 SLOAD SWAP1 SWAP4 AND SWAP5 AND SWAP4 SWAP1 SWAP4 OR SWAP1 SSTORE SWAP6 DUP11 ADD MLOAD PUSH1 0x3 DUP8 ADD SSTORE PUSH1 0x80 DUP11 ADD MLOAD PUSH1 0x4 DUP8 ADD SSTORE PUSH1 0xA0 DUP11 ADD MLOAD PUSH1 0x5 DUP8 ADD SSTORE PUSH1 0xC0 DUP11 ADD MLOAD PUSH1 0x6 DUP8 ADD DUP1 SLOAD PUSH1 0xFF NOT AND SWAP2 ISZERO ISZERO SWAP2 SWAP1 SWAP2 OR SWAP1 SSTORE PUSH1 0xE0 DUP11 ADD MLOAD PUSH1 0x7 DUP8 ADD SSTORE PUSH2 0x100 DUP1 DUP12 ADD MLOAD PUSH1 0x8 DUP9 ADD SSTORE PUSH2 0x120 DUP12 ADD MLOAD PUSH1 0x9 DUP9 ADD SSTORE PUSH2 0x140 DUP12 ADD MLOAD PUSH1 0xA SWAP1 SWAP8 ADD DUP1 SLOAD PUSH2 0x160 DUP14 ADD MLOAD PUSH2 0xFFFF NOT SWAP1 SWAP2 AND SWAP9 ISZERO ISZERO PUSH2 0xFF00 NOT AND SWAP9 SWAP1 SWAP9 OR SWAP8 ISZERO ISZERO SWAP1 SWAP2 MUL SWAP7 SWAP1 SWAP7 OR SWAP1 SWAP6 SSTORE PUSH1 0x10 DUP4 MSTORE SWAP3 KECCAK256 DUP7 MLOAD DUP2 SSTORE DUP7 DUP3 ADD MLOAD DUP1 MLOAD SWAP6 SWAP7 POP SWAP3 SWAP5 DUP8 SWAP5 SWAP2 SWAP4 PUSH2 0x3019 SWAP4 SWAP3 DUP6 ADD SWAP3 ADD SWAP1 PUSH2 0x3E3C JUMP JUMPDEST POP PUSH1 0x40 DUP3 ADD MLOAD PUSH1 0x2 DUP3 ADD SSTORE PUSH1 0x60 DUP3 ADD MLOAD PUSH1 0x3 DUP3 ADD SSTORE PUSH1 0x80 DUP3 ADD MLOAD PUSH1 0x4 DUP3 ADD SSTORE PUSH1 0xA0 DUP3 ADD MLOAD DUP1 MLOAD PUSH2 0x3053 SWAP2 PUSH1 0x5 DUP5 ADD SWAP2 PUSH1 0x20 SWAP1 SWAP2 ADD SWAP1 PUSH2 0x3E3C JUMP JUMPDEST POP POP POP PUSH1 0x1 PUSH1 0x1 PUSH1 0xA0 SHL SUB DUP7 AND PUSH0 SWAP1 DUP2 MSTORE PUSH1 0x15 PUSH1 0x20 SWAP1 DUP2 MSTORE PUSH1 0x40 SWAP2 DUP3 SWAP1 KECCAK256 DUP5 MLOAD DUP2 SSTORE DUP2 DUP6 ADD MLOAD PUSH1 0x1 DUP3 ADD SSTORE SWAP2 DUP5 ADD MLOAD PUSH1 0x2 DUP4 ADD SSTORE PUSH1 0x60 DUP5 ADD MLOAD DUP1 MLOAD DUP6 SWAP4 SWAP3 PUSH2 0x30A2 SWAP3 PUSH1 0x3 DUP6 ADD SWAP3 SWAP2 ADD SWAP1 PUSH2 0x3E9F JUMP JUMPDEST POP PUSH1 0x80 DUP3 ADD MLOAD PUSH1 0x4 DUP3 ADD SSTORE PUSH1 0xA0 DUP3 ADD MLOAD PUSH1 0x5 DUP3 ADD SSTORE PUSH1 0xC0 SWAP1 SWAP2 ADD MLOAD PUSH1 0x6 SWAP1 SWAP2 ADD SSTORE PUSH0 DUP1 SLOAD DUP2 MSTORE PUSH1 0xF PUSH1 0x20 SWAP1 DUP2 MSTORE PUSH1 0x40 DUP1 DUP4 KECCAK256 DUP1 SLOAD PUSH1 0x1 PUSH1 0x1 PUSH1 0xA0 SHL SUB SWAP1 SWAP11 AND PUSH1 0x1 PUSH1 0x1 PUSH1 0xA0 SHL SUB NOT SWAP1 SWAP11 AND DUP11 OR SWAP1 SSTORE SWAP8 DUP3 MSTORE PUSH1 0x17 DUP2 MSTORE SWAP1 DUP8 SWAP1 KECCAK256 DUP3 MLOAD DUP2 SSTORE SWAP1 DUP3 ADD MLOAD PUSH1 0x1 DUP3 ADD SSTORE SWAP6 ADD MLOAD PUSH1 0x2 SWAP1 SWAP6 ADD SWAP5 SWAP1 SWAP5 SSTORE POP POP POP POP JUMP JUMPDEST PUSH1 0x1 PUSH1 0x1 PUSH1 0xA0 SHL SUB DUP4 AND PUSH0 SWAP1 DUP2 MSTORE PUSH1 0xE PUSH1 0x20 MSTORE PUSH1 0x40 DUP2 KECCAK256 PUSH1 0x4 ADD SLOAD PUSH2 0x3141 SWAP1 DUP4 SWAP1 PUSH2 0x4426 JUMP JUMPDEST SWAP1 POP DUP1 ISZERO PUSH2 0x31A3 JUMPI PUSH0 PUSH1 0x64 PUSH2 0x3157 DUP4 PUSH1 0xA PUSH2 0x440F JUMP JUMPDEST PUSH2 0x3161 SWAP2 SWAP1 PUSH2 0x44ED JUMP JUMPDEST SWAP1 POP PUSH2 0x316D DUP6 DUP3 PUSH2 0x3B53 JUMP JUMPDEST PUSH1 0x1 PUSH1 0x1 PUSH1 0xA0 SHL SUB DUP7 AND PUSH0 SWAP1 DUP2 MSTORE PUSH1 0x15 PUSH1 0x20 MSTORE PUSH1 0x40 DUP2 KECCAK256 PUSH1 0x2 ADD DUP1 SLOAD SWAP3 SWAP4 POP DUP4 SWAP3 SWAP1 SWAP2 SWAP1 PUSH2 0x319C SWAP1 DUP5 SWAP1 PUSH2 0x44AC JUMP JUMPDEST SWAP1 SWAP2 SSTORE POP POP POP JUMPDEST POP POP POP POP JUMP JUMPDEST PUSH1 0x1 PUSH1 0x1 PUSH1 0xA0 SHL SUB DUP2 DUP2 AND PUSH0 SWAP1 DUP2 MSTORE PUSH1 0xE PUSH1 0x20 MSTORE PUSH1 0x40 DUP2 KECCAK256 PUSH1 0x2 DUP2 ADD SLOAD PUSH1 0xA SWAP1 SWAP2 ADD SLOAD SWAP3 AND SWAP2 PUSH2 0x100 SWAP1 DIV PUSH1 0xFF AND PUSH2 0x31E2 JUMPI PUSH1 0x1 PUSH2 0x31E5 JUMP JUMPDEST PUSH1 0x2 JUMPDEST PUSH1 0x1 PUSH1 0x1 PUSH1 0xA0 SHL SUB DUP5 AND PUSH0 SWAP1 DUP2 MSTORE PUSH1 0xE PUSH1 0x20 MSTORE PUSH1 0x40 SWAP1 KECCAK256 PUSH1 0x4 ADD SLOAD PUSH2 0x320D SWAP2 PUSH1 0xFF AND SWAP1 PUSH2 0x44ED JUMP JUMPDEST SWAP1 POP PUSH1 0x1 PUSH0 JUMPDEST PUSH1 0x1 PUSH1 0x1 PUSH1 0xA0 SHL SUB DUP5 AND ISZERO DUP1 ISZERO SWAP1 PUSH2 0x322D JUMPI POP PUSH1 0x6 SLOAD DUP3 GT ISZERO JUMPDEST ISZERO PUSH2 0x3314 JUMPI PUSH1 0x8 SLOAD PUSH1 0xFF AND PUSH2 0x3252 JUMPI PUSH0 DUP3 DUP2 MSTORE PUSH1 0xC PUSH1 0x20 MSTORE PUSH1 0x40 SWAP1 KECCAK256 PUSH1 0x1 ADD SLOAD PUSH2 0x327B JUMP JUMPDEST PUSH0 DUP3 DUP2 MSTORE PUSH1 0xC PUSH1 0x20 MSTORE PUSH1 0x40 SWAP1 KECCAK256 PUSH1 0x1 ADD SLOAD PUSH2 0x3E8 SWAP1 PUSH2 0x3271 SWAP1 DUP6 PUSH2 0x440F JUMP JUMPDEST PUSH2 0x327B SWAP2 SWAP1 PUSH2 0x44ED JUMP JUMPDEST SWAP1 POP PUSH2 0x3287 DUP6 DUP4 PUSH2 0x2122 JUMP JUMPDEST ISZERO PUSH2 0x32E2 JUMPI PUSH2 0x3296 DUP5 DUP3 PUSH2 0x3B53 JUMP JUMPDEST POP PUSH1 0x1 PUSH1 0x1 PUSH1 0xA0 SHL SUB DUP5 AND PUSH0 SWAP1 DUP2 MSTORE PUSH1 0x15 PUSH1 0x20 MSTORE PUSH1 0x40 SWAP1 KECCAK256 PUSH1 0x3 ADD DUP1 SLOAD DUP3 SWAP2 SWAP1 DUP5 SWAP1 DUP2 LT PUSH2 0x32C6 JUMPI PUSH2 0x32C6 PUSH2 0x4439 JUMP JUMPDEST SWAP1 PUSH0 MSTORE PUSH1 0x20 PUSH0 KECCAK256 ADD PUSH0 DUP3 DUP3 SLOAD PUSH2 0x32DC SWAP2 SWAP1 PUSH2 0x44AC JUMP JUMPDEST SWAP1 SWAP2 SSTORE POP POP JUMPDEST PUSH1 0x1 PUSH1 0x1 PUSH1 0xA0 SHL SUB SWAP4 DUP5 AND PUSH0 SWAP1 DUP2 MSTORE PUSH1 0xE PUSH1 0x20 MSTORE PUSH1 0x40 SWAP1 KECCAK256 PUSH1 0x2 ADD SLOAD SWAP1 SWAP4 AND SWAP3 DUP2 PUSH2 0x330C DUP2 PUSH2 0x444D JUMP JUMPDEST SWAP3 POP POP PUSH2 0x3213 JUMP JUMPDEST POP POP POP POP POP JUMP JUMPDEST PUSH1 0x1 PUSH1 0x1 PUSH1 0xA0 SHL SUB DUP3 AND ISZERO PUSH2 0x1CD2 JUMPI PUSH1 0x1 PUSH1 0x1 PUSH1 0xA0 SHL SUB DUP3 AND PUSH0 SWAP1 DUP2 MSTORE PUSH1 0xE PUSH1 0x20 MSTORE PUSH1 0x40 DUP2 KECCAK256 PUSH1 0x5 ADD DUP1 SLOAD SWAP2 PUSH2 0x3350 DUP4 PUSH2 0x444D JUMP JUMPDEST SWAP1 SWAP2 SSTORE POP POP PUSH1 0x1 PUSH1 0x1 PUSH1 0xA0 SHL SUB SWAP2 DUP3 AND PUSH0 DUP2 DUP2 MSTORE PUSH1 0x10 PUSH1 0x20 SWAP1 DUP2 MSTORE PUSH1 0x40 DUP1 DUP4 KECCAK256 PUSH1 0x5 ADD DUP1 SLOAD PUSH1 0x1 DUP2 ADD DUP3 SSTORE SWAP1 DUP5 MSTORE DUP3 DUP5 KECCAK256 ADD DUP1 SLOAD PUSH1 0x1 PUSH1 0x1 PUSH1 0xA0 SHL SUB NOT AND DUP7 DUP9 AND OR SWAP1 SSTORE SWAP3 DUP3 MSTORE PUSH1 0xE SWAP1 MSTORE KECCAK256 PUSH1 0x2 ADD SLOAD SWAP1 SWAP2 AND SWAP1 PUSH2 0x331B JUMP JUMPDEST PUSH2 0x33B2 DUP3 PUSH2 0x3C0C JUMP JUMPDEST PUSH1 0x1 JUMPDEST PUSH1 0x1 PUSH1 0x1 PUSH1 0xA0 SHL SUB DUP5 AND ISZERO PUSH2 0x31A3 JUMPI PUSH1 0x1 PUSH1 0x1 PUSH1 0xA0 SHL SUB DUP5 AND PUSH0 SWAP1 DUP2 MSTORE PUSH1 0x10 PUSH1 0x20 MSTORE PUSH1 0x40 SWAP1 KECCAK256 PUSH1 0x2 ADD SLOAD DUP3 GT ISZERO PUSH2 0x343F JUMPI PUSH1 0x1 PUSH1 0x1 PUSH1 0xA0 SHL SUB DUP5 AND PUSH0 SWAP1 DUP2 MSTORE PUSH1 0x10 PUSH1 0x20 MSTORE PUSH1 0x40 DUP2 KECCAK256 PUSH1 0x2 DUP2 ADD SLOAD PUSH1 0x3 SWAP1 SWAP2 ADD DUP1 SLOAD SWAP2 SWAP3 SWAP1 SWAP2 PUSH2 0x3418 SWAP1 DUP5 SWAP1 PUSH2 0x44AC JUMP JUMPDEST SWAP1 SWAP2 SSTORE POP POP PUSH1 0x1 PUSH1 0x1 PUSH1 0xA0 SHL SUB DUP5 AND PUSH0 SWAP1 DUP2 MSTORE PUSH1 0x10 PUSH1 0x20 MSTORE PUSH1 0x40 SWAP1 KECCAK256 PUSH1 0x2 ADD DUP3 SWAP1 SSTORE PUSH2 0x346F JUMP JUMPDEST PUSH1 0x1 PUSH1 0x1 PUSH1 0xA0 SHL SUB DUP5 AND PUSH0 SWAP1 DUP2 MSTORE PUSH1 0x10 PUSH1 0x20 MSTORE PUSH1 0x40 DUP2 KECCAK256 PUSH1 0x3 ADD DUP1 SLOAD DUP5 SWAP3 SWAP1 PUSH2 0x3469 SWAP1 DUP5 SWAP1 PUSH2 0x44AC JUMP JUMPDEST SWAP1 SWAP2 SSTORE POP POP JUMPDEST PUSH1 0x1 PUSH1 0x1 PUSH1 0xA0 SHL SUB DUP5 AND PUSH0 SWAP1 DUP2 MSTORE PUSH1 0x10 PUSH1 0x20 MSTORE PUSH1 0x40 DUP2 KECCAK256 PUSH1 0x4 ADD DUP1 SLOAD DUP5 SWAP3 SWAP1 PUSH2 0x3499 SWAP1 DUP5 SWAP1 PUSH2 0x44AC JUMP JUMPDEST SWAP1 SWAP2 SSTORE POP POP PUSH1 0x1 PUSH1 0x1 PUSH1 0xA0 SHL SUB DUP5 AND PUSH0 SWAP1 DUP2 MSTORE PUSH1 0x13 PUSH1 0x20 SWAP1 DUP2 MSTORE PUSH1 0x40 DUP1 DUP4 KECCAK256 DUP5 DUP5 MSTORE SWAP1 SWAP2 MSTORE DUP2 KECCAK256 DUP1 SLOAD DUP5 SWAP3 SWAP1 PUSH2 0x34D0 SWAP1 DUP5 SWAP1 PUSH2 0x44AC JUMP JUMPDEST SWAP1 SWAP2 SSTORE POP PUSH2 0x34DF SWAP1 POP DUP5 PUSH2 0x3C0C JUMP JUMPDEST PUSH1 0x1 PUSH1 0x1 PUSH1 0xA0 SHL SUB SWAP4 DUP5 AND PUSH0 SWAP1 DUP2 MSTORE PUSH1 0xE PUSH1 0x20 MSTORE PUSH1 0x40 SWAP1 KECCAK256 PUSH1 0x2 ADD SLOAD SWAP1 SWAP4 AND SWAP3 DUP1 PUSH2 0x3509 DUP2 PUSH2 0x444D JUMP JUMPDEST SWAP2 POP POP PUSH2 0x33B5 JUMP JUMPDEST PUSH1 0x1 PUSH1 0x1 PUSH1 0xA0 SHL SUB DUP4 AND PUSH0 SWAP1 DUP2 MSTORE PUSH1 0xE PUSH1 0x20 MSTORE PUSH1 0x40 SWAP1 KECCAK256 PUSH1 0xA ADD SLOAD PUSH1 0xFF AND ISZERO DUP1 ISZERO PUSH2 0x358E JUMPI POP PUSH1 0x1 PUSH1 0x1 PUSH1 0xA0 SHL SUB DUP4 AND PUSH0 SWAP1 DUP2 MSTORE PUSH1 0xE PUSH1 0x20 MSTORE PUSH1 0x40 SWAP1 KECCAK256 PUSH1 0xA ADD SLOAD PUSH2 0x100 SWAP1 DIV PUSH1 0xFF AND ISZERO DUP1 PUSH2 0x358E JUMPI POP PUSH1 0x1 PUSH1 0x1 PUSH1 0xA0 SHL SUB DUP4 AND PUSH0 SWAP1 DUP2 MSTORE PUSH1 0xE PUSH1 0x20 MSTORE PUSH1 0x40 SWAP1 KECCAK256 PUSH1 0x7 ADD SLOAD TIMESTAMP SWAP1 PUSH2 0x358B SWAP1 PUSH3 0x3B5380 PUSH2 0x44AC JUMP JUMPDEST LT ISZERO JUMPDEST DUP1 ISZERO PUSH2 0x35AF JUMPI POP PUSH2 0x35A0 PUSH2 0x7D0 PUSH2 0x3E25 JUMP JUMPDEST DUP3 LT ISZERO DUP1 PUSH2 0x35AF JUMPI POP PUSH1 0x1 DUP2 LT ISZERO JUMPDEST ISZERO PUSH2 0x1FEE JUMPI PUSH1 0x1 PUSH1 0x1 PUSH1 0xA0 SHL SUB DUP4 AND PUSH0 SWAP1 DUP2 MSTORE PUSH1 0xE PUSH1 0x20 MSTORE PUSH1 0x40 SWAP1 KECCAK256 PUSH1 0xA ADD DUP1 SLOAD PUSH1 0xFF NOT AND PUSH1 0x1 OR SWAP1 SSTORE POP POP POP JUMP JUMPDEST PUSH0 PUSH2 0xBB8 DUP3 LT PUSH2 0x35F9 JUMPI PUSH2 0x35F2 PUSH1 0x28 PUSH2 0x3E25 JUMP JUMPDEST SWAP1 POP PUSH2 0x3648 JUMP JUMPDEST PUSH2 0x7D0 DUP3 LT PUSH2 0x360C JUMPI PUSH2 0x35F2 PUSH1 0x1E PUSH2 0x3E25 JUMP JUMPDEST PUSH2 0x3E8 DUP3 LT PUSH2 0x361F JUMPI PUSH2 0x35F2 PUSH1 0x14 PUSH2 0x3E25 JUMP JUMPDEST PUSH2 0x1F4 DUP3 LT PUSH2 0x3632 JUMPI PUSH2 0x35F2 PUSH1 0xC PUSH2 0x3E25 JUMP JUMPDEST PUSH2 0x12C DUP3 LT PUSH2 0x3648 JUMPI PUSH2 0x3645 PUSH1 0x7 PUSH2 0x3E25 JUMP JUMPDEST SWAP1 POP JUMPDEST PUSH0 DUP2 GT DUP1 ISZERO PUSH2 0x366F JUMPI POP PUSH1 0x1 PUSH1 0x1 PUSH1 0xA0 SHL SUB DUP4 AND PUSH0 SWAP1 DUP2 MSTORE PUSH1 0x15 PUSH1 0x20 MSTORE PUSH1 0x40 SWAP1 KECCAK256 PUSH1 0x1 ADD SLOAD ISZERO JUMPDEST DUP1 ISZERO PUSH2 0x369B JUMPI POP PUSH1 0x1 PUSH1 0x1 PUSH1 0xA0 SHL SUB DUP4 AND PUSH0 SWAP1 DUP2 MSTORE PUSH1 0xE PUSH1 0x20 MSTORE PUSH1 0x40 SWAP1 KECCAK256 PUSH1 0xA ADD SLOAD PUSH2 0x100 SWAP1 DIV PUSH1 0xFF AND ISZERO JUMPDEST ISZERO PUSH2 0x1FEE JUMPI PUSH2 0x36AA DUP4 DUP3 PUSH2 0x3B53 JUMP JUMPDEST PUSH1 0x1 PUSH1 0x1 PUSH1 0xA0 SHL SUB DUP5 AND PUSH0 SWAP1 DUP2 MSTORE PUSH1 0x15 PUSH1 0x20 MSTORE PUSH1 0x40 DUP2 KECCAK256 PUSH1 0x1 ADD DUP1 SLOAD SWAP3 SWAP4 POP DUP4 SWAP3 SWAP1 SWAP2 SWAP1 PUSH2 0x147F SWAP1 DUP5 SWAP1 PUSH2 0x44AC JUMP JUMPDEST PUSH0 PUSH2 0x36E7 PUSH3 0x15180 TIMESTAMP PUSH2 0x4426 JUMP JUMPDEST PUSH1 0x18 SLOAD SWAP1 SWAP2 POP PUSH0 SWAP1 PUSH8 0xFFFFFFFFFFFFFFFF DUP2 GT ISZERO PUSH2 0x3707 JUMPI PUSH2 0x3707 PUSH2 0x43E7 JUMP JUMPDEST PUSH1 0x40 MLOAD SWAP1 DUP1 DUP3 MSTORE DUP1 PUSH1 0x20 MUL PUSH1 0x20 ADD DUP3 ADD PUSH1 0x40 MSTORE DUP1 ISZERO PUSH2 0x374B JUMPI DUP2 PUSH1 0x20 ADD JUMPDEST PUSH1 0x40 DUP1 MLOAD DUP1 DUP3 ADD SWAP1 SWAP2 MSTORE PUSH0 DUP1 DUP3 MSTORE PUSH1 0x20 DUP3 ADD MSTORE DUP2 MSTORE PUSH1 0x20 ADD SWAP1 PUSH1 0x1 SWAP1 SUB SWAP1 DUP2 PUSH2 0x3725 JUMPI SWAP1 POP JUMPDEST POP PUSH1 0x18 SLOAD SWAP1 SWAP2 POP PUSH0 SWAP1 JUMPDEST DUP1 ISZERO PUSH2 0x38C9 JUMPI PUSH0 PUSH1 0x18 PUSH2 0x3769 PUSH1 0x1 DUP5 PUSH2 0x4426 JUMP JUMPDEST DUP2 SLOAD DUP2 LT PUSH2 0x3779 JUMPI PUSH2 0x3779 PUSH2 0x4439 JUMP JUMPDEST PUSH0 SWAP2 DUP3 MSTORE PUSH1 0x20 DUP1 DUP4 KECCAK256 SWAP1 SWAP2 ADD SLOAD PUSH1 0x1 PUSH1 0x1 PUSH1 0xA0 SHL SUB AND DUP1 DUP4 MSTORE PUSH1 0xE SWAP1 SWAP2 MSTORE PUSH1 0x40 SWAP1 SWAP2 KECCAK256 PUSH1 0x7 ADD SLOAD SWAP1 SWAP2 POP DUP6 GT ISZERO PUSH2 0x37B0 JUMPI POP PUSH2 0x38C9 JUMP JUMPDEST PUSH1 0x1 PUSH1 0x1 PUSH1 0xA0 SHL SUB DUP1 DUP3 AND PUSH0 SWAP1 DUP2 MSTORE PUSH1 0xE PUSH1 0x20 MSTORE PUSH1 0x40 SWAP1 KECCAK256 PUSH1 0x2 ADD SLOAD AND DUP1 PUSH2 0x37D9 JUMPI POP POP PUSH2 0x38B7 JUMP JUMPDEST PUSH0 DUP1 JUMPDEST DUP6 DUP2 LT ISZERO PUSH2 0x3862 JUMPI DUP3 PUSH1 0x1 PUSH1 0x1 PUSH1 0xA0 SHL SUB AND DUP8 DUP3 DUP2 MLOAD DUP2 LT PUSH2 0x3800 JUMPI PUSH2 0x3800 PUSH2 0x4439 JUMP JUMPDEST PUSH1 0x20 MUL PUSH1 0x20 ADD ADD MLOAD PUSH0 ADD MLOAD PUSH1 0x1 PUSH1 0x1 PUSH1 0xA0 SHL SUB AND SUB PUSH2 0x3850 JUMPI DUP7 DUP2 DUP2 MLOAD DUP2 LT PUSH2 0x382B JUMPI PUSH2 0x382B PUSH2 0x4439 JUMP JUMPDEST PUSH1 0x20 MUL PUSH1 0x20 ADD ADD MLOAD PUSH1 0x20 ADD DUP1 MLOAD DUP1 SWAP2 SWAP1 PUSH2 0x3844 SWAP1 PUSH2 0x444D JUMP JUMPDEST SWAP1 MSTORE POP PUSH1 0x1 SWAP2 POP PUSH2 0x3862 JUMP JUMPDEST DUP1 PUSH2 0x385A DUP2 PUSH2 0x444D JUMP JUMPDEST SWAP2 POP POP PUSH2 0x37DC JUMP JUMPDEST POP DUP1 PUSH2 0x38B3 JUMPI PUSH1 0x40 MLOAD DUP1 PUSH1 0x40 ADD PUSH1 0x40 MSTORE DUP1 DUP4 PUSH1 0x1 PUSH1 0x1 PUSH1 0xA0 SHL SUB AND DUP2 MSTORE PUSH1 0x20 ADD PUSH1 0x1 DUP2 MSTORE POP DUP7 DUP7 DUP2 MLOAD DUP2 LT PUSH2 0x3899 JUMPI PUSH2 0x3899 PUSH2 0x4439 JUMP JUMPDEST PUSH1 0x20 MUL PUSH1 0x20 ADD ADD DUP2 SWAP1 MSTORE POP DUP5 DUP1 PUSH2 0x38AF SWAP1 PUSH2 0x444D JUMP JUMPDEST SWAP6 POP POP JUMPDEST POP POP POP JUMPDEST DUP1 PUSH2 0x38C1 DUP2 PUSH2 0x4465 JUMP JUMPDEST SWAP2 POP POP PUSH2 0x3755 JUMP JUMPDEST POP PUSH2 0x38D2 PUSH2 0x3ED8 JUMP JUMPDEST PUSH2 0x38DA PUSH2 0x3ED8 JUMP JUMPDEST PUSH0 JUMPDEST DUP4 DUP2 LT ISZERO PUSH2 0x3A55 JUMPI PUSH0 DUP6 DUP3 DUP2 MLOAD DUP2 LT PUSH2 0x38F7 JUMPI PUSH2 0x38F7 PUSH2 0x4439 JUMP JUMPDEST PUSH1 0x20 MUL PUSH1 0x20 ADD ADD MLOAD PUSH0 ADD MLOAD SWAP1 POP PUSH0 DUP7 DUP4 DUP2 MLOAD DUP2 LT PUSH2 0x3917 JUMPI PUSH2 0x3917 PUSH2 0x4439 JUMP JUMPDEST PUSH1 0x20 MUL PUSH1 0x20 ADD ADD MLOAD PUSH1 0x20 ADD MLOAD SWAP1 POP PUSH0 JUMPDEST PUSH1 0x3 DUP2 LT ISZERO PUSH2 0x3A3F JUMPI DUP5 DUP2 PUSH1 0x3 DUP2 LT PUSH2 0x3942 JUMPI PUSH2 0x3942 PUSH2 0x4439 JUMP JUMPDEST PUSH1 0x20 MUL ADD MLOAD DUP3 GT ISZERO PUSH2 0x3A2D JUMPI PUSH1 0x2 JUMPDEST DUP2 DUP2 GT ISZERO PUSH2 0x39E9 JUMPI DUP6 PUSH2 0x3965 PUSH1 0x1 DUP4 PUSH2 0x4426 JUMP JUMPDEST PUSH1 0x3 DUP2 LT PUSH2 0x3975 JUMPI PUSH2 0x3975 PUSH2 0x4439 JUMP JUMPDEST PUSH1 0x20 MUL ADD MLOAD DUP7 DUP3 PUSH1 0x3 DUP2 LT PUSH2 0x398C JUMPI PUSH2 0x398C PUSH2 0x4439 JUMP JUMPDEST PUSH1 0x20 MUL ADD MSTORE DUP7 PUSH2 0x399D PUSH1 0x1 DUP4 PUSH2 0x4426 JUMP JUMPDEST PUSH1 0x3 DUP2 LT PUSH2 0x39AD JUMPI PUSH2 0x39AD PUSH2 0x4439 JUMP JUMPDEST PUSH1 0x20 MUL ADD MLOAD DUP8 DUP3 PUSH1 0x3 DUP2 LT PUSH2 0x39C4 JUMPI PUSH2 0x39C4 PUSH2 0x4439 JUMP JUMPDEST PUSH1 0x1 PUSH1 0x1 PUSH1 0xA0 SHL SUB SWAP1 SWAP3 AND PUSH1 0x20 SWAP3 SWAP1 SWAP3 MUL ADD MSTORE DUP1 PUSH2 0x39E1 DUP2 PUSH2 0x4465 JUMP JUMPDEST SWAP2 POP POP PUSH2 0x3951 JUMP JUMPDEST POP DUP2 DUP6 DUP3 PUSH1 0x3 DUP2 LT PUSH2 0x39FD JUMPI PUSH2 0x39FD PUSH2 0x4439 JUMP JUMPDEST PUSH1 0x20 MUL ADD MSTORE DUP3 DUP7 DUP3 PUSH1 0x3 DUP2 LT PUSH2 0x3A15 JUMPI PUSH2 0x3A15 PUSH2 0x4439 JUMP JUMPDEST PUSH1 0x1 PUSH1 0x1 PUSH1 0xA0 SHL SUB SWAP1 SWAP3 AND PUSH1 0x20 SWAP3 SWAP1 SWAP3 MUL ADD MSTORE PUSH2 0x3A3F JUMP JUMPDEST DUP1 PUSH2 0x3A37 DUP2 PUSH2 0x444D JUMP JUMPDEST SWAP2 POP POP PUSH2 0x3927 JUMP JUMPDEST POP POP POP DUP1 DUP1 PUSH2 0x3A4D SWAP1 PUSH2 0x444D JUMP JUMPDEST SWAP2 POP POP PUSH2 0x38DC JUMP JUMPDEST POP PUSH0 PUSH1 0x64 PUSH2 0x3A64 DUP9 PUSH1 0x2 PUSH2 0x440F JUMP JUMPDEST PUSH2 0x3A6E SWAP2 SWAP1 PUSH2 0x44ED JUMP JUMPDEST SWAP1 POP PUSH0 PUSH1 0x40 MLOAD DUP1 PUSH1 0x60 ADD PUSH1 0x40 MSTORE DUP1 PUSH1 0x32 DUP2 MSTORE PUSH1 0x20 ADD PUSH1 0x1E DUP2 MSTORE PUSH1 0x20 ADD PUSH1 0x14 DUP2 MSTORE POP SWAP1 POP PUSH0 JUMPDEST PUSH1 0x3 DUP2 LT ISZERO PUSH2 0x3B48 JUMPI PUSH0 DUP6 DUP3 PUSH1 0x3 DUP2 LT PUSH2 0x3AAF JUMPI PUSH2 0x3AAF PUSH2 0x4439 JUMP JUMPDEST PUSH1 0x20 MUL ADD MLOAD SWAP1 POP PUSH1 0x1 PUSH1 0x1 PUSH1 0xA0 SHL SUB DUP2 AND ISZERO PUSH2 0x3B35 JUMPI PUSH0 PUSH1 0x64 DUP5 DUP5 PUSH1 0x3 DUP2 LT PUSH2 0x3ADA JUMPI PUSH2 0x3ADA PUSH2 0x4439 JUMP JUMPDEST PUSH1 0x20 MUL ADD MLOAD PUSH2 0x3AE9 SWAP1 DUP8 PUSH2 0x440F JUMP JUMPDEST PUSH2 0x3AF3 SWAP2 SWAP1 PUSH2 0x44ED JUMP JUMPDEST SWAP1 POP PUSH2 0x3AFF DUP3 DUP3 PUSH2 0x3B53 JUMP JUMPDEST PUSH1 0x1 PUSH1 0x1 PUSH1 0xA0 SHL SUB DUP4 AND PUSH0 SWAP1 DUP2 MSTORE PUSH1 0x15 PUSH1 0x20 MSTORE PUSH1 0x40 DUP2 KECCAK256 PUSH1 0x5 ADD DUP1 SLOAD SWAP3 SWAP4 POP DUP4 SWAP3 SWAP1 SWAP2 SWAP1 PUSH2 0x3B2E SWAP1 DUP5 SWAP1 PUSH2 0x44AC JUMP JUMPDEST SWAP1 SWAP2 SSTORE POP POP POP JUMPDEST POP DUP1 PUSH2 0x3B40 DUP2 PUSH2 0x444D JUMP JUMPDEST SWAP2 POP POP PUSH2 0x3A93 JUMP JUMPDEST POP POP POP POP POP POP POP POP POP JUMP JUMPDEST PUSH0 PUSH2 0x3B5E DUP4 DUP4 PUSH2 0x27B2 JUMP JUMPDEST SWAP2 POP DUP2 ISZERO PUSH2 0xD4F JUMPI PUSH1 0x64 PUSH2 0x3B73 DUP4 PUSH1 0x4B PUSH2 0x440F JUMP JUMPDEST PUSH2 0x3B7D SWAP2 SWAP1 PUSH2 0x44ED JUMP JUMPDEST PUSH1 0x1 PUSH1 0x1 PUSH1 0xA0 SHL SUB DUP5 AND PUSH0 SWAP1 DUP2 MSTORE PUSH1 0x16 PUSH1 0x20 SWAP1 DUP2 MSTORE PUSH1 0x40 DUP1 DUP4 KECCAK256 PUSH1 0x1 DUP5 MSTORE SWAP1 SWAP2 MSTORE DUP2 KECCAK256 DUP1 SLOAD SWAP1 SWAP2 SWAP1 PUSH2 0x3BB0 SWAP1 DUP5 SWAP1 PUSH2 0x44AC JUMP JUMPDEST SWAP1 SWAP2 SSTORE POP PUSH1 0x64 SWAP1 POP PUSH2 0x3BC3 DUP4 PUSH1 0x19 PUSH2 0x440F JUMP JUMPDEST PUSH2 0x3BCD SWAP2 SWAP1 PUSH2 0x44ED JUMP JUMPDEST PUSH1 0x1 PUSH1 0x1 PUSH1 0xA0 SHL SUB DUP5 AND PUSH0 SWAP1 DUP2 MSTORE PUSH1 0x16 PUSH1 0x20 SWAP1 DUP2 MSTORE PUSH1 0x40 DUP1 DUP4 KECCAK256 PUSH1 0x2 DUP5 MSTORE SWAP1 SWAP2 MSTORE DUP2 KECCAK256 DUP1 SLOAD SWAP1 SWAP2 SWAP1 PUSH2 0x3C00 SWAP1 DUP5 SWAP1 PUSH2 0x44AC JUMP JUMPDEST SWAP1 SWAP2 SSTORE POP SWAP2 SWAP4 SWAP3 POP POP POP JUMP JUMPDEST PUSH1 0x1 PUSH1 0x1 PUSH1 0xA0 SHL SUB DUP2 AND PUSH0 SWAP1 DUP2 MSTORE PUSH1 0xE PUSH1 0x20 MSTORE PUSH1 0x40 DUP2 KECCAK256 PUSH1 0x9 ADD SLOAD PUSH2 0x3C32 SWAP1 PUSH1 0x1 PUSH2 0x44AC JUMP JUMPDEST SWAP1 POP JUMPDEST PUSH1 0x7 SLOAD DUP2 GT PUSH2 0x1CD2 JUMPI PUSH0 PUSH1 0xD PUSH0 DUP4 DUP2 MSTORE PUSH1 0x20 ADD SWAP1 DUP2 MSTORE PUSH1 0x20 ADD PUSH0 KECCAK256 PUSH1 0x40 MLOAD DUP1 PUSH1 0xC0 ADD PUSH1 0x40 MSTORE SWAP1 DUP2 PUSH0 DUP3 ADD SLOAD DUP2 MSTORE PUSH1 0x20 ADD PUSH1 0x1 DUP3 ADD DUP1 SLOAD PUSH2 0x3C74 SWAP1 PUSH2 0x447A JUMP JUMPDEST DUP1 PUSH1 0x1F ADD PUSH1 0x20 DUP1 SWAP2 DIV MUL PUSH1 0x20 ADD PUSH1 0x40 MLOAD SWAP1 DUP2 ADD PUSH1 0x40 MSTORE DUP1 SWAP3 SWAP2 SWAP1 DUP2 DUP2 MSTORE PUSH1 0x20 ADD DUP3 DUP1 SLOAD PUSH2 0x3CA0 SWAP1 PUSH2 0x447A JUMP JUMPDEST DUP1 ISZERO PUSH2 0x3CEB JUMPI DUP1 PUSH1 0x1F LT PUSH2 0x3CC2 JUMPI PUSH2 0x100 DUP1 DUP4 SLOAD DIV MUL DUP4 MSTORE SWAP2 PUSH1 0x20 ADD SWAP2 PUSH2 0x3CEB JUMP JUMPDEST DUP3 ADD SWAP2 SWAP1 PUSH0 MSTORE PUSH1 0x20 PUSH0 KECCAK256 SWAP1 JUMPDEST DUP2 SLOAD DUP2 MSTORE SWAP1 PUSH1 0x1 ADD SWAP1 PUSH1 0x20 ADD DUP1 DUP4 GT PUSH2 0x3CCE JUMPI DUP3 SWAP1 SUB PUSH1 0x1F AND DUP3 ADD SWAP2 JUMPDEST POP POP POP POP POP DUP2 MSTORE PUSH1 0x20 ADD PUSH1 0x2 DUP3 ADD SLOAD DUP2 MSTORE PUSH1 0x20 ADD PUSH1 0x3 DUP3 ADD SLOAD DUP2 MSTORE PUSH1 0x20 ADD PUSH1 0x4 DUP3 ADD SLOAD DUP2 MSTORE PUSH1 0x20 ADD PUSH1 0x5 DUP3 ADD SLOAD DUP2 MSTORE POP POP SWAP1 POP DUP1 PUSH1 0x40 ADD MLOAD PUSH1 0xE PUSH0 DUP6 PUSH1 0x1 PUSH1 0x1 PUSH1 0xA0 SHL SUB AND PUSH1 0x1 PUSH1 0x1 PUSH1 0xA0 SHL SUB AND DUP2 MSTORE PUSH1 0x20 ADD SWAP1 DUP2 MSTORE PUSH1 0x20 ADD PUSH0 KECCAK256 PUSH1 0x4 ADD SLOAD LT ISZERO DUP1 ISZERO PUSH2 0x3D76 JUMPI POP PUSH1 0x60 DUP2 ADD MLOAD PUSH1 0x1 PUSH1 0x1 PUSH1 0xA0 SHL SUB DUP5 AND PUSH0 SWAP1 DUP2 MSTORE PUSH1 0x10 PUSH1 0x20 MSTORE PUSH1 0x40 SWAP1 KECCAK256 PUSH1 0x2 ADD SLOAD LT ISZERO JUMPDEST DUP1 ISZERO PUSH2 0x3DA0 JUMPI POP PUSH1 0x80 DUP2 ADD MLOAD PUSH1 0x1 PUSH1 0x1 PUSH1 0xA0 SHL SUB DUP5 AND PUSH0 SWAP1 DUP2 MSTORE PUSH1 0x10 PUSH1 0x20 MSTORE PUSH1 0x40 SWAP1 KECCAK256 PUSH1 0x3 ADD SLOAD LT ISZERO JUMPDEST ISZERO PUSH2 0x1FEE JUMPI PUSH0 PUSH2 0x3DB4 DUP5 DUP4 PUSH1 0xA0 ADD MLOAD PUSH2 0x3B53 JUMP JUMPDEST PUSH1 0x1 PUSH1 0x1 PUSH1 0xA0 SHL SUB DUP6 AND PUSH0 SWAP1 DUP2 MSTORE PUSH1 0x15 PUSH1 0x20 MSTORE PUSH1 0x40 DUP2 KECCAK256 PUSH1 0x4 ADD DUP1 SLOAD SWAP3 SWAP4 POP DUP4 SWAP3 SWAP1 SWAP2 SWAP1 PUSH2 0x3DE3 SWAP1 DUP5 SWAP1 PUSH2 0x44AC JUMP JUMPDEST SWAP1 SWAP2 SSTORE POP POP PUSH1 0x1 PUSH1 0x1 PUSH1 0xA0 SHL SUB DUP5 AND PUSH0 SWAP1 DUP2 MSTORE PUSH1 0xE PUSH1 0x20 MSTORE PUSH1 0x40 DUP2 KECCAK256 PUSH1 0x9 ADD DUP5 SWAP1 SSTORE PUSH2 0x3E11 SWAP1 DUP6 SWAP1 DUP6 PUSH2 0x3511 JUMP JUMPDEST DUP3 PUSH2 0x3E1B DUP2 PUSH2 0x444D JUMP JUMPDEST SWAP4 POP POP POP POP PUSH2 0x3C35 JUMP JUMPDEST PUSH0 PUSH2 0x3E32 PUSH1 0x12 PUSH1 0xA PUSH2 0x4622 JUMP JUMPDEST PUSH2 0x1E5D SWAP1 DUP4 PUSH2 0x440F JUMP JUMPDEST DUP3 DUP1 SLOAD DUP3 DUP3 SSTORE SWAP1 PUSH0 MSTORE PUSH1 0x20 PUSH0 KECCAK256 SWAP1 DUP2 ADD SWAP3 DUP3 ISZERO PUSH2 0x3E8F JUMPI SWAP2 PUSH1 0x20 MUL DUP3 ADD JUMPDEST DUP3 DUP2 GT ISZERO PUSH2 0x3E8F JUMPI DUP3 MLOAD DUP3 SLOAD PUSH1 0x1 PUSH1 0x1 PUSH1 0xA0 SHL SUB NOT AND PUSH1 0x1 PUSH1 0x1 PUSH1 0xA0 SHL SUB SWAP1 SWAP2 AND OR DUP3 SSTORE PUSH1 0x20 SWAP1 SWAP3 ADD SWAP2 PUSH1 0x1 SWAP1 SWAP2 ADD SWAP1 PUSH2 0x3E5A JUMP JUMPDEST POP PUSH2 0x3E9B SWAP3 SWAP2 POP PUSH2 0x3EF6 JUMP JUMPDEST POP SWAP1 JUMP JUMPDEST DUP3 DUP1 SLOAD DUP3 DUP3 SSTORE SWAP1 PUSH0 MSTORE PUSH1 0x20 PUSH0 KECCAK256 SWAP1 DUP2 ADD SWAP3 DUP3 ISZERO PUSH2 0x3E8F JUMPI SWAP2 PUSH1 0x20 MUL DUP3 ADD JUMPDEST DUP3 DUP2 GT ISZERO PUSH2 0x3E8F JUMPI DUP3 MLOAD DUP3 SSTORE SWAP2 PUSH1 0x20 ADD SWAP2 SWAP1 PUSH1 0x1 ADD SWAP1 PUSH2 0x3EBD JUMP JUMPDEST PUSH1 0x40 MLOAD DUP1 PUSH1 0x60 ADD PUSH1 0x40 MSTORE DUP1 PUSH1 0x3 SWAP1 PUSH1 0x20 DUP3 MUL DUP1 CALLDATASIZE DUP4 CALLDATACOPY POP SWAP2 SWAP3 SWAP2 POP POP JUMP JUMPDEST JUMPDEST DUP1 DUP3 GT ISZERO PUSH2 0x3E9B JUMPI PUSH0 DUP2 SSTORE PUSH1 0x1 ADD PUSH2 0x3EF7 JUMP JUMPDEST DUP1 CALLDATALOAD PUSH1 0x1 PUSH1 0x1 PUSH1 0xA0 SHL SUB DUP2 AND DUP2 EQ PUSH2 0x3F20 JUMPI PUSH0 DUP1 REVERT JUMPDEST SWAP2 SWAP1 POP JUMP JUMPDEST PUSH0 DUP1 PUSH1 0x40 DUP4 DUP6 SUB SLT ISZERO PUSH2 0x3F36 JUMPI PUSH0 DUP1 REVERT JUMPDEST PUSH2 0x3F3F DUP4 PUSH2 0x3F0A JUMP JUMPDEST SWAP5 PUSH1 0x20 SWAP4 SWAP1 SWAP4 ADD CALLDATALOAD SWAP4 POP POP POP JUMP JUMPDEST PUSH0 PUSH1 0x20 DUP3 DUP5 SUB SLT ISZERO PUSH2 0x3F5D JUMPI PUSH0 DUP1 REVERT JUMPDEST PUSH2 0x22BA DUP3 PUSH2 0x3F0A JUMP JUMPDEST PUSH0 DUP1 PUSH0 PUSH1 0x60 DUP5 DUP7 SUB SLT ISZERO PUSH2 0x3F78 JUMPI PUSH0 DUP1 REVERT JUMPDEST PUSH2 0x3F81 DUP5 PUSH2 0x3F0A JUMP JUMPDEST SWAP6 PUSH1 0x20 DUP6 ADD CALLDATALOAD SWAP6 POP PUSH1 0x40 SWAP1 SWAP5 ADD CALLDATALOAD SWAP4 SWAP3 POP POP POP JUMP JUMPDEST PUSH1 0x20 DUP1 DUP3 MSTORE DUP3 MLOAD DUP3 DUP3 ADD DUP2 SWAP1 MSTORE PUSH0 SWAP2 SWAP1 PUSH1 0x40 SWAP1 DUP2 DUP6 ADD SWAP1 DUP7 DUP5 ADD DUP6 JUMPDEST DUP3 DUP2 LT ISZERO PUSH2 0x3FE1 JUMPI DUP2 MLOAD DUP1 MLOAD DUP6 MSTORE DUP7 DUP2 ADD MLOAD DUP8 DUP7 ADD MSTORE DUP6 ADD MLOAD DUP6 DUP6 ADD MSTORE PUSH1 0x60 SWAP1 SWAP4 ADD SWAP3 SWAP1 DUP6 ADD SWAP1 PUSH1 0x1 ADD PUSH2 0x3FB2 JUMP JUMPDEST POP SWAP2 SWAP8 SWAP7 POP POP POP POP POP POP POP JUMP JUMPDEST PUSH0 DUP2 MLOAD DUP1 DUP5 MSTORE PUSH0 JUMPDEST DUP2 DUP2 LT ISZERO PUSH2 0x4012 JUMPI PUSH1 0x20 DUP2 DUP6 ADD DUP2 ADD MLOAD DUP7 DUP4 ADD DUP3 ADD MSTORE ADD PUSH2 0x3FF6 JUMP JUMPDEST POP PUSH0 PUSH1 0x20 DUP3 DUP7 ADD ADD MSTORE PUSH1 0x20 PUSH1 0x1F NOT PUSH1 0x1F DUP4 ADD AND DUP6 ADD ADD SWAP2 POP POP SWAP3 SWAP2 POP POP JUMP JUMPDEST PUSH0 PUSH1 0x20 DUP1 DUP4 ADD DUP2 DUP5 MSTORE DUP1 DUP6 MLOAD DUP1 DUP4 MSTORE PUSH1 0x40 SWAP3 POP DUP3 DUP7 ADD SWAP2 POP DUP3 DUP2 PUSH1 0x5 SHL DUP8 ADD ADD DUP5 DUP9 ADD PUSH0 JUMPDEST DUP4 DUP2 LT ISZERO PUSH2 0x40ED JUMPI PUSH1 0x3F NOT DUP10 DUP5 SUB ADD DUP6 MSTORE DUP2 MLOAD PUSH2 0x120 DUP2 MLOAD DUP6 MSTORE DUP9 DUP3 ADD MLOAD DUP2 DUP11 DUP8 ADD MSTORE PUSH2 0x4085 DUP3 DUP8 ADD DUP3 PUSH2 0x3FEE JUMP JUMPDEST SWAP2 POP POP DUP8 DUP3 ADD MLOAD DUP9 DUP7 ADD MSTORE PUSH1 0x60 DUP1 DUP4 ADD MLOAD PUSH2 0x40A3 DUP3 DUP9 ADD DUP3 ISZERO ISZERO SWAP1 MSTORE JUMP JUMPDEST POP POP PUSH1 0x80 DUP3 DUP2 ADD MLOAD ISZERO ISZERO SWAP1 DUP7 ADD MSTORE PUSH1 0xA0 DUP1 DUP4 ADD MLOAD SWAP1 DUP7 ADD MSTORE PUSH1 0xC0 DUP1 DUP4 ADD MLOAD SWAP1 DUP7 ADD MSTORE PUSH1 0xE0 DUP1 DUP4 ADD MLOAD SWAP1 DUP7 ADD MSTORE PUSH2 0x100 SWAP2 DUP3 ADD MLOAD ISZERO ISZERO SWAP2 SWAP1 SWAP5 ADD MSTORE SWAP4 DUP7 ADD SWAP4 SWAP1 DUP7 ADD SWAP1 PUSH1 0x1 ADD PUSH2 0x4056 JUMP JUMPDEST POP SWAP1 SWAP9 SWAP8 POP POP POP POP POP POP POP POP JUMP JUMPDEST PUSH1 0x20 DUP1 DUP3 MSTORE DUP3 MLOAD DUP3 DUP3 ADD DUP2 SWAP1 MSTORE PUSH0 SWAP2 SWAP1 PUSH1 0x40 SWAP1 DUP2 DUP6 ADD SWAP1 DUP7 DUP5 ADD DUP6 JUMPDEST DUP3 DUP2 LT ISZERO PUSH2 0x3FE1 JUMPI DUP2 MLOAD DUP1 MLOAD DUP6 MSTORE DUP7 DUP2 ADD MLOAD DUP8 DUP7 ADD MSTORE DUP6 DUP2 ADD MLOAD DUP7 DUP7 ADD MSTORE PUSH1 0x60 DUP1 DUP3 ADD MLOAD SWAP1 DUP7 ADD MSTORE PUSH1 0x80 DUP1 DUP3 ADD MLOAD SWAP1 DUP7 ADD MSTORE PUSH1 0xA0 DUP1 DUP3 ADD MLOAD SWAP1 DUP7 ADD MSTORE PUSH1 0xC0 SWAP1 DUP2 ADD MLOAD ISZERO ISZERO SWAP1 DUP6 ADD MSTORE PUSH1 0xE0 SWAP1 SWAP4 ADD SWAP3 SWAP1 DUP6 ADD SWAP1 PUSH1 0x1 ADD PUSH2 0x4117 JUMP JUMPDEST PUSH1 0x20 DUP2 MSTORE DUP2 MLOAD PUSH1 0x20 DUP3 ADD MSTORE PUSH1 0x20 DUP3 ADD MLOAD PUSH1 0x40 DUP3 ADD MSTORE PUSH1 0x40 DUP3 ADD MLOAD PUSH1 0x60 DUP3 ADD MSTORE PUSH1 0x60 DUP3 ADD MLOAD PUSH1 0x80 DUP3 ADD MSTORE PUSH1 0x80 DUP3 ADD MLOAD PUSH1 0xA0 DUP3 ADD MSTORE PUSH1 0xA0 DUP3 ADD MLOAD PUSH1 0xC0 DUP3 ADD MSTORE PUSH1 0xC0 DUP3 ADD MLOAD PUSH1 0xE0 DUP3 ADD MSTORE PUSH0 PUSH1 0xE0 DUP4 ADD MLOAD PUSH2 0x100 DUP2 DUP2 DUP6 ADD MSTORE DUP1 DUP6 ADD MLOAD SWAP2 POP POP PUSH2 0x120 DUP2 DUP2 DUP6 ADD MSTORE DUP1 DUP6 ADD MLOAD SWAP2 POP POP PUSH2 0x140 DUP2 DUP2 DUP6 ADD MSTORE DUP1 DUP6 ADD MLOAD SWAP2 POP POP PUSH2 0x160 DUP2 DUP2 DUP6 ADD MSTORE DUP1 DUP6 ADD MLOAD SWAP2 POP POP PUSH2 0x180 DUP2 DUP2 DUP6 ADD MSTORE DUP1 DUP6 ADD MLOAD SWAP2 POP POP PUSH2 0x1A0 DUP2 DUP2 DUP6 ADD MSTORE DUP1 DUP6 ADD MLOAD SWAP2 POP POP PUSH2 0x1C0 DUP2 DUP2 DUP6 ADD MSTORE DUP1 DUP6 ADD MLOAD SWAP2 POP POP PUSH2 0x1E0 DUP1 DUP2 DUP6 ADD MSTORE POP PUSH2 0x423E PUSH2 0x200 DUP5 ADD DUP3 PUSH2 0x3FEE JUMP JUMPDEST SWAP5 SWAP4 POP POP POP POP JUMP JUMPDEST PUSH0 DUP1 PUSH0 PUSH1 0x60 DUP5 DUP7 SUB SLT ISZERO PUSH2 0x4258 JUMPI PUSH0 DUP1 REVERT JUMPDEST PUSH2 0x4261 DUP5 PUSH2 0x3F0A JUMP JUMPDEST SWAP3 POP PUSH2 0x426F PUSH1 0x20 DUP6 ADD PUSH2 0x3F0A JUMP JUMPDEST SWAP2 POP PUSH1 0x40 DUP5 ADD CALLDATALOAD SWAP1 POP SWAP3 POP SWAP3 POP SWAP3 JUMP JUMPDEST PUSH0 PUSH1 0x20 DUP3 DUP5 SUB SLT ISZERO PUSH2 0x428F JUMPI PUSH0 DUP1 REVERT JUMPDEST POP CALLDATALOAD SWAP2 SWAP1 POP JUMP JUMPDEST PUSH1 0x20 DUP1 DUP3 MSTORE DUP3 MLOAD DUP3 DUP3 ADD DUP2 SWAP1 MSTORE PUSH0 SWAP2 SWAP1 PUSH1 0x40 SWAP1 DUP2 DUP6 ADD SWAP1 DUP7 DUP5 ADD DUP6 JUMPDEST DUP3 DUP2 LT ISZERO PUSH2 0x3FE1 JUMPI DUP2 MLOAD DUP1 MLOAD DUP6 MSTORE DUP7 DUP2 ADD MLOAD PUSH1 0x1 PUSH1 0x1 PUSH1 0xA0 SHL SUB AND DUP8 DUP7 ADD MSTORE DUP6 DUP2 ADD MLOAD DUP7 DUP7 ADD MSTORE PUSH1 0x60 SWAP1 DUP2 ADD MLOAD SWAP1 DUP6 ADD MSTORE PUSH1 0x80 SWAP1 SWAP4 ADD SWAP3 SWAP1 DUP6 ADD SWAP1 PUSH1 0x1 ADD PUSH2 0x42B2 JUMP JUMPDEST PUSH1 0x20 DUP1 DUP3 MSTORE DUP3 MLOAD DUP3 DUP3 ADD DUP2 SWAP1 MSTORE PUSH0 SWAP2 SWAP1 PUSH1 0x40 SWAP1 DUP2 DUP6 ADD SWAP1 DUP7 DUP5 ADD DUP6 JUMPDEST DUP3 DUP2 LT ISZERO PUSH2 0x3FE1 JUMPI DUP2 MLOAD DUP1 MLOAD DUP6 MSTORE DUP7 ADD MLOAD DUP7 DUP6 ADD MSTORE SWAP3 DUP5 ADD SWAP3 SWAP1 DUP6 ADD SWAP1 PUSH1 0x1 ADD PUSH2 0x4311 JUMP JUMPDEST PUSH0 PUSH2 0x120 DUP12 DUP4 MSTORE DUP1 PUSH1 0x20 DUP5 ADD MSTORE PUSH2 0x434F DUP2 DUP5 ADD DUP13 PUSH2 0x3FEE JUMP JUMPDEST PUSH1 0x40 DUP5 ADD SWAP11 SWAP1 SWAP11 MSTORE POP POP SWAP6 ISZERO ISZERO PUSH1 0x60 DUP8 ADD MSTORE SWAP4 ISZERO ISZERO PUSH1 0x80 DUP7 ADD MSTORE PUSH1 0xA0 DUP6 ADD SWAP3 SWAP1 SWAP3 MSTORE PUSH1 0xC0 DUP5 ADD MSTORE PUSH1 0xE0 DUP4 ADD MSTORE ISZERO ISZERO PUSH2 0x100 SWAP1 SWAP2 ADD MSTORE SWAP3 SWAP2 POP POP JUMP JUMPDEST PUSH0 DUP1 PUSH1 0x40 DUP4 DUP6 SUB SLT ISZERO PUSH2 0x439B JUMPI PUSH0 DUP1 REVERT JUMPDEST POP POP DUP1 CALLDATALOAD SWAP3 PUSH1 0x20 SWAP1 SWAP2 ADD CALLDATALOAD SWAP2 POP JUMP JUMPDEST DUP7 DUP2 MSTORE PUSH1 0xC0 PUSH1 0x20 DUP3 ADD MSTORE PUSH0 PUSH2 0x43C2 PUSH1 0xC0 DUP4 ADD DUP9 PUSH2 0x3FEE JUMP JUMPDEST SWAP1 POP DUP6 PUSH1 0x40 DUP4 ADD MSTORE DUP5 PUSH1 0x60 DUP4 ADD MSTORE DUP4 PUSH1 0x80 DUP4 ADD MSTORE DUP3 PUSH1 0xA0 DUP4 ADD MSTORE SWAP8 SWAP7 POP POP POP POP POP POP POP JUMP JUMPDEST PUSH4 0x4E487B71 PUSH1 0xE0 SHL PUSH0 MSTORE PUSH1 0x41 PUSH1 0x4 MSTORE PUSH1 0x24 PUSH0 REVERT JUMPDEST PUSH4 0x4E487B71 PUSH1 0xE0 SHL PUSH0 MSTORE PUSH1 0x11 PUSH1 0x4 MSTORE PUSH1 0x24 PUSH0 REVERT JUMPDEST DUP1 DUP3 MUL DUP2 ISZERO DUP3 DUP3 DIV DUP5 EQ OR PUSH2 0x1E5D JUMPI PUSH2 0x1E5D PUSH2 0x43FB JUMP JUMPDEST DUP2 DUP2 SUB DUP2 DUP2 GT ISZERO PUSH2 0x1E5D JUMPI PUSH2 0x1E5D PUSH2 0x43FB JUMP JUMPDEST PUSH4 0x4E487B71 PUSH1 0xE0 SHL PUSH0 MSTORE PUSH1 0x32 PUSH1 0x4 MSTORE PUSH1 0x24 PUSH0 REVERT JUMPDEST PUSH0 PUSH1 0x1 DUP3 ADD PUSH2 0x445E JUMPI PUSH2 0x445E PUSH2 0x43FB JUMP JUMPDEST POP PUSH1 0x1 ADD SWAP1 JUMP JUMPDEST PUSH0 DUP2 PUSH2 0x4473 JUMPI PUSH2 0x4473 PUSH2 0x43FB JUMP JUMPDEST POP PUSH0 NOT ADD SWAP1 JUMP JUMPDEST PUSH1 0x1 DUP2 DUP2 SHR SWAP1 DUP3 AND DUP1 PUSH2 0x448E JUMPI PUSH1 0x7F DUP3 AND SWAP2 POP JUMPDEST PUSH1 0x20 DUP3 LT DUP2 SUB PUSH2 0xD4F JUMPI PUSH4 0x4E487B71 PUSH1 0xE0 SHL PUSH0 MSTORE PUSH1 0x22 PUSH1 0x4 MSTORE PUSH1 0x24 PUSH0 REVERT JUMPDEST DUP1 DUP3 ADD DUP1 DUP3 GT ISZERO PUSH2 0x1E5D JUMPI PUSH2 0x1E5D PUSH2 0x43FB JUMP JUMPDEST PUSH1 0x20 DUP1 DUP3 MSTORE PUSH1 0x14 SWAP1 DUP3 ADD MSTORE PUSH20 0x596F7520617265206E6F7420616C6C6F77656421 PUSH1 0x60 SHL PUSH1 0x40 DUP3 ADD MSTORE PUSH1 0x60 ADD SWAP1 JUMP JUMPDEST PUSH0 DUP3 PUSH2 0x4507 JUMPI PUSH4 0x4E487B71 PUSH1 0xE0 SHL PUSH0 MSTORE PUSH1 0x12 PUSH1 0x4 MSTORE PUSH1 0x24 PUSH0 REVERT JUMPDEST POP DIV SWAP1 JUMP JUMPDEST PUSH0 PUSH1 0x20 DUP3 DUP5 SUB SLT ISZERO PUSH2 0x451C JUMPI PUSH0 DUP1 REVERT JUMPDEST POP MLOAD SWAP2 SWAP1 POP JUMP JUMPDEST PUSH0 PUSH1 0x20 DUP3 DUP5 SUB SLT ISZERO PUSH2 0x4533 JUMPI PUSH0 DUP1 REVERT JUMPDEST DUP2 MLOAD DUP1 ISZERO ISZERO DUP2 EQ PUSH2 0x22BA JUMPI PUSH0 DUP1 REVERT JUMPDEST PUSH1 0x1 DUP2 DUP2 JUMPDEST DUP1 DUP6 GT ISZERO PUSH2 0x457C JUMPI DUP2 PUSH0 NOT DIV DUP3 GT ISZERO PUSH2 0x4562 JUMPI PUSH2 0x4562 PUSH2 0x43FB JUMP JUMPDEST DUP1 DUP6 AND ISZERO PUSH2 0x456F JUMPI SWAP2 DUP2 MUL SWAP2 JUMPDEST SWAP4 DUP5 SHR SWAP4 SWAP1 DUP1 MUL SWAP1 PUSH2 0x4547 JUMP JUMPDEST POP SWAP3 POP SWAP3 SWAP1 POP JUMP JUMPDEST PUSH0 DUP3 PUSH2 0x4592 JUMPI POP PUSH1 0x1 PUSH2 0x1E5D JUMP JUMPDEST DUP2 PUSH2 0x459E JUMPI POP PUSH0 PUSH2 0x1E5D JUMP JUMPDEST DUP2 PUSH1 0x1 DUP2 EQ PUSH2 0x45B4 JUMPI PUSH1 0x2 DUP2 EQ PUSH2 0x45BE JUMPI PUSH2 0x45DA JUMP JUMPDEST PUSH1 0x1 SWAP2 POP POP PUSH2 0x1E5D JUMP JUMPDEST PUSH1 0xFF DUP5 GT ISZERO PUSH2 0x45CF JUMPI PUSH2 0x45CF PUSH2 0x43FB JUMP JUMPDEST POP POP PUSH1 0x1 DUP3 SHL PUSH2 0x1E5D JUMP JUMPDEST POP PUSH1 0x20 DUP4 LT PUSH2 0x133 DUP4 LT AND PUSH1 0x4E DUP5 LT PUSH1 0xB DUP5 LT AND OR ISZERO PUSH2 0x45FD JUMPI POP DUP2 DUP2 EXP PUSH2 0x1E5D JUMP JUMPDEST PUSH2 0x4607 DUP4 DUP4 PUSH2 0x4542 JUMP JUMPDEST DUP1 PUSH0 NOT DIV DUP3 GT ISZERO PUSH2 0x461A JUMPI PUSH2 0x461A PUSH2 0x43FB JUMP JUMPDEST MUL SWAP4 SWAP3 POP POP POP JUMP JUMPDEST PUSH0 PUSH2 0x22BA DUP4 DUP4 PUSH2 0x4584 JUMP INVALID LOG2 PUSH5 0x6970667358 0x22 SLT KECCAK256 DUP14 0xA9 0xB3 BALANCE DUP12 0x2A 0xEC AND DIV SWAP12 0xDA 0x4F NUMBER 0xB8 0xC9 0x22 BLOCKHASH SWAP6 PUSH4 0x9B517F25 PUSH22 0xF815F9AA9756715064736F6C63430008140033000000 "
		},
		"gasEstimates": {
			"creation": {
				"codeDepositCost": "3603800",
				"executionCost": "infinite",
				"totalCost": "infinite"
			},
			"external": {
				"CreatorAddress()": "2449",
				"Deposit(uint256,uint256)": "infinite",
				"GetContractDetails()": "infinite",
				"GetDashboardDetails(address)": "infinite",
				"GetDepositHistory(address,uint256,uint256)": "infinite",
				"GetDirects(address)": "infinite",
				"GetIncomeWithdrawalHistory(address,uint256,uint256)": "infinite",
				"GetLevelIncomeInfo(address)": "infinite",
				"GetPackages()": "infinite",
				"GetWalletBalance(address,uint256)": "2743",
				"Login(address)": "4838",
				"MarketingAddress()": "2448",
				"Reactivate()": "infinite",
				"Register(address)": "infinite",
				"SecurityFundContract()": "2448",
				"SetSecurityFundContract(address)": "29009",
				"TotalInvestment()": "2383",
				"TotalUsers()": "2404",
				"TotalWithdrawn()": "2340",
				"TransferFunds(address,address,uint256)": "infinite",
				"UpdateCreatorAddress(address)": "29031",
				"UpdateMarketingAddress(address)": "28943",
				"Withdraw(address,uint256,uint256)": "infinite",
				"Withdraw(uint256)": "infinite",
				"map_LevelIncomeMaster(uint256)": "6778",
				"map_PackageMaster(uint256)": "infinite",
				"map_RankMaster(uint256)": "infinite",
				"map_UserBusinessOnLevel(address,uint256)": "2700",
				"map_UserDeposits(address,uint256)": "6974",
				"map_UserIdToAddress(uint256)": "2607",
				"map_UserIncome(address)": "13298",
				"map_UserIncomeWithdrawalHistory(address,uint256)": "4784",
				"map_UserTeam(address)": "8964",
				"map_UserTransactionCount(address)": "6858",
				"map_UserWalletBalance(address,uint256)": "2678",
				"map_UserWithdrawalOnLevel(address,uint256)": "2698",
				"map_Users(address)": "24081"
			},
			"internal": {
				"CapAndCreditIncomeToWallet(address,uint256)": "infinite",
				"CapIncome(address,uint256)": "infinite",
				"ConvertToBase(uint256)": "infinite",
				"DepositInternal(uint256,uint256)": "infinite",
				"DistributeLevelIncome(address)": "infinite",
				"GetContractBalance()": "infinite",
				"GetPendingROIIncome(address)": "infinite",
				"GetTotalIncome(address)": "infinite",
				"GetTotalLevelIncome(address)": "infinite",
				"Init()": "infinite",
				"InitLevelIncomeMaster()": "infinite",
				"InitPackageMaster()": "infinite",
				"InitRankMaster()": "infinite",
				"InitTopUser()": "infinite",
				"IsOwner()": "4300",
				"IsQualifiedForLevelIncome(address,uint256)": "4431",
				"Process24HoursTopmostSponsorsIncome(uint256)": "infinite",
				"Process4X_CappingQualification(address,uint256,uint256)": "infinite",
				"ProcessNewRegistrationBonus(address,uint256)": "infinite",
				"ProcessROIIncome(address,uint256,uint256)": "infinite",
				"ProcessRankQualification(address)": "infinite",
				"ReactivateInternal(address,uint256,uint256)": "infinite",
				"ReceiveTokens(uint256)": "infinite",
				"RegisterInternal(address)": "infinite",
				"SaveDeposit(address,uint256,uint256)": "infinite",
				"SaveUser(address,address)": "infinite",
				"SendTokens(address,uint256)": "infinite",
				"SendTokensFromSecurityContract(address,uint256)": "infinite",
				"UpdateTeamCount(address,address)": "infinite",
				"UpdateTeamInvestment(address,address,uint256)": "infinite",
				"doesUserExist(address)": "infinite",
				"isUserActive(address)": "infinite"
			}
		},
		"methodIdentifiers": {
			"CreatorAddress()": "1cfa6e9b",
			"Deposit(uint256,uint256)": "a3af609b",
			"GetContractDetails()": "6b1a7086",
			"GetDashboardDetails(address)": "54a03e38",
			"GetDepositHistory(address,uint256,uint256)": "2e628e2e",
			"GetDirects(address)": "5be94e83",
			"GetIncomeWithdrawalHistory(address,uint256,uint256)": "759369d2",
			"GetLevelIncomeInfo(address)": "4a40f2fe",
			"GetPackages()": "3daa551c",
			"GetWalletBalance(address,uint256)": "fd0bb36c",
			"Login(address)": "eecc1c95",
			"MarketingAddress()": "3936e8b9",
			"Reactivate()": "ff9b6364",
			"Register(address)": "eeda149c",
			"SecurityFundContract()": "88cb410d",
			"SetSecurityFundContract(address)": "a5f94521",
			"TotalInvestment()": "a4b6f5e1",
			"TotalUsers()": "641fba96",
			"TotalWithdrawn()": "4788312f",
			"TransferFunds(address,address,uint256)": "5a015583",
			"UpdateCreatorAddress(address)": "68ec2fbe",
			"UpdateMarketingAddress(address)": "ba32f6f4",
			"Withdraw(address,uint256,uint256)": "f279e6a1",
			"Withdraw(uint256)": "5b6b431d",
			"map_LevelIncomeMaster(uint256)": "705116a0",
			"map_PackageMaster(uint256)": "a18a609a",
			"map_RankMaster(uint256)": "edbdc914",
			"map_UserBusinessOnLevel(address,uint256)": "1bfe37ce",
			"map_UserDeposits(address,uint256)": "365152fa",
			"map_UserIdToAddress(uint256)": "ac3a4800",
			"map_UserIncome(address)": "e315927b",
			"map_UserIncomeWithdrawalHistory(address,uint256)": "07d94067",
			"map_UserTeam(address)": "2a530a36",
			"map_UserTransactionCount(address)": "c5f00964",
			"map_UserWalletBalance(address,uint256)": "1362e8e6",
			"map_UserWithdrawalOnLevel(address,uint256)": "ca4810af",
			"map_Users(address)": "5cf75517"
		}
	},
	"abi": [
		{
			"inputs": [],
			"stateMutability": "nonpayable",
			"type": "constructor"
		},
		{
			"anonymous": false,
			"inputs": [
				{
					"indexed": true,
					"internalType": "address",
					"name": "from",
					"type": "address"
				},
				{
					"indexed": true,
					"internalType": "address",
					"name": "to",
					"type": "address"
				},
				{
					"indexed": false,
					"internalType": "uint256",
					"name": "value",
					"type": "uint256"
				}
			],
			"name": "Transfer",
			"type": "event"
		},
		{
			"inputs": [],
			"name": "CreatorAddress",
			"outputs": [
				{
					"internalType": "address",
					"name": "",
					"type": "address"
				}
			],
			"stateMutability": "view",
			"type": "function"
		},
		{
			"inputs": [
				{
					"internalType": "uint256",
					"name": "packageId",
					"type": "uint256"
				},
				{
					"internalType": "uint256",
					"name": "amount",
					"type": "uint256"
				}
			],
			"name": "Deposit",
			"outputs": [],
			"stateMutability": "payable",
			"type": "function"
		},
		{
			"inputs": [],
			"name": "GetContractDetails",
			"outputs": [
				{
					"components": [
						{
							"internalType": "uint256",
							"name": "TotalCommunity",
							"type": "uint256"
						},
						{
							"internalType": "uint256",
							"name": "CommunityInvestment",
							"type": "uint256"
						},
						{
							"internalType": "uint256",
							"name": "CommunityWithdrawal",
							"type": "uint256"
						},
						{
							"internalType": "uint256",
							"name": "ContractBalance",
							"type": "uint256"
						},
						{
							"internalType": "bool",
							"name": "IsWithdrawalAllowedAfterPrincipleAmount",
							"type": "bool"
						}
					],
					"internalType": "struct DAppDemo.ContractInfo",
					"name": "info",
					"type": "tuple"
				}
			],
			"stateMutability": "view",
			"type": "function"
		},
		{
			"inputs": [
				{
					"internalType": "address",
					"name": "userAddress",
					"type": "address"
				}
			],
			"name": "GetDashboardDetails",
			"outputs": [
				{
					"components": [
						{
							"internalType": "uint256",
							"name": "DirectsCount",
							"type": "uint256"
						},
						{
							"internalType": "uint256",
							"name": "TeamCount",
							"type": "uint256"
						},
						{
							"internalType": "uint256",
							"name": "TeamA_Business",
							"type": "uint256"
						},
						{
							"internalType": "uint256",
							"name": "TeamB_Business",
							"type": "uint256"
						},
						{
							"internalType": "uint256",
							"name": "TeamInvestment",
							"type": "uint256"
						},
						{
							"internalType": "uint256",
							"name": "NewRegistrationBonus",
							"type": "uint256"
						},
						{
							"internalType": "uint256",
							"name": "ReferralIncome",
							"type": "uint256"
						},
						{
							"internalType": "uint256",
							"name": "LevelIncome",
							"type": "uint256"
						},
						{
							"internalType": "uint256",
							"name": "ROIIncome",
							"type": "uint256"
						},
						{
							"internalType": "uint256",
							"name": "PendingROIIncome",
							"type": "uint256"
						},
						{
							"internalType": "uint256",
							"name": "RankIncome",
							"type": "uint256"
						},
						{
							"internalType": "uint256",
							"name": "TopmostSponsorsIncome",
							"type": "uint256"
						},
						{
							"internalType": "uint256",
							"name": "TotalIncome",
							"type": "uint256"
						},
						{
							"internalType": "uint256",
							"name": "AmountWithdrawn",
							"type": "uint256"
						},
						{
							"internalType": "string",
							"name": "RankName",
							"type": "string"
						}
					],
					"internalType": "struct DAppDemo.UserDashboard",
					"name": "info",
					"type": "tuple"
				}
			],
			"stateMutability": "view",
			"type": "function"
		},
		{
			"inputs": [
				{
					"internalType": "address",
					"name": "userAddress",
					"type": "address"
				},
				{
					"internalType": "uint256",
					"name": "pageIndex",
					"type": "uint256"
				},
				{
					"internalType": "uint256",
					"name": "pageSize",
					"type": "uint256"
				}
			],
			"name": "GetDepositHistory",
			"outputs": [
				{
					"components": [
						{
							"internalType": "uint256",
							"name": "PackageId",
							"type": "uint256"
						},
						{
							"internalType": "uint256",
							"name": "Amount",
							"type": "uint256"
						},
						{
							"internalType": "uint256",
							"name": "Timestamp",
							"type": "uint256"
						}
					],
					"internalType": "struct DAppDemo.UserDeposit[]",
					"name": "deposits",
					"type": "tuple[]"
				}
			],
			"stateMutability": "view",
			"type": "function"
		},
		{
			"inputs": [
				{
					"internalType": "address",
					"name": "userAddress",
					"type": "address"
				}
			],
			"name": "GetDirects",
			"outputs": [
				{
					"components": [
						{
							"internalType": "uint256",
							"name": "Srno",
							"type": "uint256"
						},
						{
							"internalType": "address",
							"name": "Address",
							"type": "address"
						},
						{
							"internalType": "uint256",
							"name": "Investment",
							"type": "uint256"
						},
						{
							"internalType": "uint256",
							"name": "Business",
							"type": "uint256"
						}
					],
					"internalType": "struct DAppDemo.UserDirects[]",
					"name": "directs",
					"type": "tuple[]"
				}
			],
			"stateMutability": "view",
			"type": "function"
		},
		{
			"inputs": [
				{
					"internalType": "address",
					"name": "userAddress",
					"type": "address"
				},
				{
					"internalType": "uint256",
					"name": "pageIndex",
					"type": "uint256"
				},
				{
					"internalType": "uint256",
					"name": "pageSize",
					"type": "uint256"
				}
			],
			"name": "GetIncomeWithdrawalHistory",
			"outputs": [
				{
					"components": [
						{
							"internalType": "uint256",
							"name": "Amount",
							"type": "uint256"
						},
						{
							"internalType": "uint256",
							"name": "Timestamp",
							"type": "uint256"
						}
					],
					"internalType": "struct DAppDemo.UserIncomeWithdrawalTransaction[]",
					"name": "history",
					"type": "tuple[]"
				}
			],
			"stateMutability": "view",
			"type": "function"
		},
		{
			"inputs": [
				{
					"internalType": "address",
					"name": "userAddress",
					"type": "address"
				}
			],
			"name": "GetLevelIncomeInfo",
			"outputs": [
				{
					"components": [
						{
							"internalType": "uint256",
							"name": "Level",
							"type": "uint256"
						},
						{
							"internalType": "uint256",
							"name": "RequiredMinRankId",
							"type": "uint256"
						},
						{
							"internalType": "uint256",
							"name": "RankId",
							"type": "uint256"
						},
						{
							"internalType": "uint256",
							"name": "OnAmount",
							"type": "uint256"
						},
						{
							"internalType": "uint256",
							"name": "Percentage",
							"type": "uint256"
						},
						{
							"internalType": "uint256",
							"name": "Income",
							"type": "uint256"
						},
						{
							"internalType": "bool",
							"name": "IsLevelAchieved",
							"type": "bool"
						}
					],
					"internalType": "struct DAppDemo.LevelIncomeInfo[]",
					"name": "info",
					"type": "tuple[]"
				}
			],
			"stateMutability": "view",
			"type": "function"
		},
		{
			"inputs": [],
			"name": "GetPackages",
			"outputs": [
				{
					"components": [
						{
							"internalType": "uint256",
							"name": "PackageId",
							"type": "uint256"
						},
						{
							"internalType": "string",
							"name": "Name",
							"type": "string"
						},
						{
							"internalType": "uint256",
							"name": "Amount",
							"type": "uint256"
						},
						{
							"internalType": "bool",
							"name": "IsActive",
							"type": "bool"
						},
						{
							"internalType": "bool",
							"name": "HasRange",
							"type": "bool"
						},
						{
							"internalType": "uint256",
							"name": "MinAmount",
							"type": "uint256"
						},
						{
							"internalType": "uint256",
							"name": "MaxAmount",
							"type": "uint256"
						},
						{
							"internalType": "uint256",
							"name": "ReferralIncome",
							"type": "uint256"
						},
						{
							"internalType": "bool",
							"name": "IsReferralIncomePercentage",
							"type": "bool"
						}
					],
					"internalType": "struct DAppDemo.PackageMaster[]",
					"name": "",
					"type": "tuple[]"
				}
			],
			"stateMutability": "view",
			"type": "function"
		},
		{
			"inputs": [
				{
					"internalType": "address",
					"name": "userAddress",
					"type": "address"
				},
				{
					"internalType": "uint256",
					"name": "walletId",
					"type": "uint256"
				}
			],
			"name": "GetWalletBalance",
			"outputs": [
				{
					"internalType": "uint256",
					"name": "",
					"type": "uint256"
				}
			],
			"stateMutability": "view",
			"type": "function"
		},
		{
			"inputs": [
				{
					"internalType": "address",
					"name": "_address",
					"type": "address"
				}
			],
			"name": "Login",
			"outputs": [
				{
					"internalType": "bool",
					"name": "",
					"type": "bool"
				}
			],
			"stateMutability": "view",
			"type": "function"
		},
		{
			"inputs": [],
			"name": "MarketingAddress",
			"outputs": [
				{
					"internalType": "address",
					"name": "",
					"type": "address"
				}
			],
			"stateMutability": "view",
			"type": "function"
		},
		{
			"inputs": [],
			"name": "Reactivate",
			"outputs": [
				{
					"internalType": "bool",
					"name": "",
					"type": "bool"
				}
			],
			"stateMutability": "nonpayable",
			"type": "function"
		},
		{
			"inputs": [
				{
					"internalType": "address",
					"name": "sponsorAddress",
					"type": "address"
				}
			],
			"name": "Register",
			"outputs": [],
			"stateMutability": "payable",
			"type": "function"
		},
		{
			"inputs": [],
			"name": "SecurityFundContract",
			"outputs": [
				{
					"internalType": "address",
					"name": "",
					"type": "address"
				}
			],
			"stateMutability": "view",
			"type": "function"
		},
		{
			"inputs": [
				{
					"internalType": "address",
					"name": "_security",
					"type": "address"
				}
			],
			"name": "SetSecurityFundContract",
			"outputs": [],
			"stateMutability": "nonpayable",
			"type": "function"
		},
		{
			"inputs": [],
			"name": "TotalInvestment",
			"outputs": [
				{
					"internalType": "uint256",
					"name": "",
					"type": "uint256"
				}
			],
			"stateMutability": "view",
			"type": "function"
		},
		{
			"inputs": [],
			"name": "TotalUsers",
			"outputs": [
				{
					"internalType": "uint256",
					"name": "",
					"type": "uint256"
				}
			],
			"stateMutability": "view",
			"type": "function"
		},
		{
			"inputs": [],
			"name": "TotalWithdrawn",
			"outputs": [
				{
					"internalType": "uint256",
					"name": "",
					"type": "uint256"
				}
			],
			"stateMutability": "view",
			"type": "function"
		},
		{
			"inputs": [
				{
					"internalType": "address",
					"name": "from",
					"type": "address"
				},
				{
					"internalType": "address",
					"name": "to",
					"type": "address"
				},
				{
					"internalType": "uint256",
					"name": "value",
					"type": "uint256"
				}
			],
			"name": "TransferFunds",
			"outputs": [],
			"stateMutability": "nonpayable",
			"type": "function"
		},
		{
			"inputs": [
				{
					"internalType": "address",
					"name": "addr",
					"type": "address"
				}
			],
			"name": "UpdateCreatorAddress",
			"outputs": [],
			"stateMutability": "nonpayable",
			"type": "function"
		},
		{
			"inputs": [
				{
					"internalType": "address",
					"name": "addr",
					"type": "address"
				}
			],
			"name": "UpdateMarketingAddress",
			"outputs": [],
			"stateMutability": "nonpayable",
			"type": "function"
		},
		{
			"inputs": [
				{
					"internalType": "uint256",
					"name": "amount",
					"type": "uint256"
				}
			],
			"name": "Withdraw",
			"outputs": [],
			"stateMutability": "nonpayable",
			"type": "function"
		},
		{
			"inputs": [
				{
					"internalType": "address",
					"name": "userAddress",
					"type": "address"
				},
				{
					"internalType": "uint256",
					"name": "amount",
					"type": "uint256"
				},
				{
					"internalType": "uint256",
					"name": "_type",
					"type": "uint256"
				}
			],
			"name": "Withdraw",
			"outputs": [],
			"stateMutability": "nonpayable",
			"type": "function"
		},
		{
			"inputs": [
				{
					"internalType": "uint256",
					"name": "",
					"type": "uint256"
				}
			],
			"name": "map_LevelIncomeMaster",
			"outputs": [
				{
					"internalType": "uint256",
					"name": "Level",
					"type": "uint256"
				},
				{
					"internalType": "uint256",
					"name": "Percentage",
					"type": "uint256"
				},
				{
					"internalType": "uint256",
					"name": "RequiredMinRankId",
					"type": "uint256"
				}
			],
			"stateMutability": "view",
			"type": "function"
		},
		{
			"inputs": [
				{
					"internalType": "uint256",
					"name": "",
					"type": "uint256"
				}
			],
			"name": "map_PackageMaster",
			"outputs": [
				{
					"internalType": "uint256",
					"name": "PackageId",
					"type": "uint256"
				},
				{
					"internalType": "string",
					"name": "Name",
					"type": "string"
				},
				{
					"internalType": "uint256",
					"name": "Amount",
					"type": "uint256"
				},
				{
					"internalType": "bool",
					"name": "IsActive",
					"type": "bool"
				},
				{
					"internalType": "bool",
					"name": "HasRange",
					"type": "bool"
				},
				{
					"internalType": "uint256",
					"name": "MinAmount",
					"type": "uint256"
				},
				{
					"internalType": "uint256",
					"name": "MaxAmount",
					"type": "uint256"
				},
				{
					"internalType": "uint256",
					"name": "ReferralIncome",
					"type": "uint256"
				},
				{
					"internalType": "bool",
					"name": "IsReferralIncomePercentage",
					"type": "bool"
				}
			],
			"stateMutability": "view",
			"type": "function"
		},
		{
			"inputs": [
				{
					"internalType": "uint256",
					"name": "",
					"type": "uint256"
				}
			],
			"name": "map_RankMaster",
			"outputs": [
				{
					"internalType": "uint256",
					"name": "RankId",
					"type": "uint256"
				},
				{
					"internalType": "string",
					"name": "RankName",
					"type": "string"
				},
				{
					"internalType": "uint256",
					"name": "ReqSelfInvestment",
					"type": "uint256"
				},
				{
					"internalType": "uint256",
					"name": "ReqTeamA_Business",
					"type": "uint256"
				},
				{
					"internalType": "uint256",
					"name": "ReqTeamB_Business",
					"type": "uint256"
				},
				{
					"internalType": "uint256",
					"name": "RewardAmount",
					"type": "uint256"
				}
			],
			"stateMutability": "view",
			"type": "function"
		},
		{
			"inputs": [
				{
					"internalType": "address",
					"name": "",
					"type": "address"
				},
				{
					"internalType": "uint256",
					"name": "",
					"type": "uint256"
				}
			],
			"name": "map_UserBusinessOnLevel",
			"outputs": [
				{
					"internalType": "uint256",
					"name": "",
					"type": "uint256"
				}
			],
			"stateMutability": "view",
			"type": "function"
		},
		{
			"inputs": [
				{
					"internalType": "address",
					"name": "",
					"type": "address"
				},
				{
					"internalType": "uint256",
					"name": "",
					"type": "uint256"
				}
			],
			"name": "map_UserDeposits",
			"outputs": [
				{
					"internalType": "uint256",
					"name": "PackageId",
					"type": "uint256"
				},
				{
					"internalType": "uint256",
					"name": "Amount",
					"type": "uint256"
				},
				{
					"internalType": "uint256",
					"name": "Timestamp",
					"type": "uint256"
				}
			],
			"stateMutability": "view",
			"type": "function"
		},
		{
			"inputs": [
				{
					"internalType": "uint256",
					"name": "",
					"type": "uint256"
				}
			],
			"name": "map_UserIdToAddress",
			"outputs": [
				{
					"internalType": "address",
					"name": "",
					"type": "address"
				}
			],
			"stateMutability": "view",
			"type": "function"
		},
		{
			"inputs": [
				{
					"internalType": "address",
					"name": "",
					"type": "address"
				}
			],
			"name": "map_UserIncome",
			"outputs": [
				{
					"internalType": "uint256",
					"name": "ReferralIncome",
					"type": "uint256"
				},
				{
					"internalType": "uint256",
					"name": "NewRegistrationBonus",
					"type": "uint256"
				},
				{
					"internalType": "uint256",
					"name": "ROIIncome",
					"type": "uint256"
				},
				{
					"internalType": "uint256",
					"name": "RankIncome",
					"type": "uint256"
				},
				{
					"internalType": "uint256",
					"name": "TopmostSponsorsIncome",
					"type": "uint256"
				},
				{
					"internalType": "uint256",
					"name": "AmountWithdrawn",
					"type": "uint256"
				}
			],
			"stateMutability": "view",
			"type": "function"
		},
		{
			"inputs": [
				{
					"internalType": "address",
					"name": "",
					"type": "address"
				},
				{
					"internalType": "uint256",
					"name": "",
					"type": "uint256"
				}
			],
			"name": "map_UserIncomeWithdrawalHistory",
			"outputs": [
				{
					"internalType": "uint256",
					"name": "Amount",
					"type": "uint256"
				},
				{
					"internalType": "uint256",
					"name": "Timestamp",
					"type": "uint256"
				}
			],
			"stateMutability": "view",
			"type": "function"
		},
		{
			"inputs": [
				{
					"internalType": "address",
					"name": "",
					"type": "address"
				}
			],
			"name": "map_UserTeam",
			"outputs": [
				{
					"internalType": "uint256",
					"name": "DirectsInvestment",
					"type": "uint256"
				},
				{
					"internalType": "uint256",
					"name": "TeamABusiness",
					"type": "uint256"
				},
				{
					"internalType": "uint256",
					"name": "TeamBBusiness",
					"type": "uint256"
				},
				{
					"internalType": "uint256",
					"name": "TeamInvestment",
					"type": "uint256"
				}
			],
			"stateMutability": "view",
			"type": "function"
		},
		{
			"inputs": [
				{
					"internalType": "address",
					"name": "",
					"type": "address"
				}
			],
			"name": "map_UserTransactionCount",
			"outputs": [
				{
					"internalType": "uint256",
					"name": "DepositsCount",
					"type": "uint256"
				},
				{
					"internalType": "uint256",
					"name": "IncomeWithdrawalCount",
					"type": "uint256"
				},
				{
					"internalType": "uint256",
					"name": "ReactivationCount",
					"type": "uint256"
				}
			],
			"stateMutability": "view",
			"type": "function"
		},
		{
			"inputs": [
				{
					"internalType": "address",
					"name": "",
					"type": "address"
				},
				{
					"internalType": "uint256",
					"name": "",
					"type": "uint256"
				}
			],
			"name": "map_UserWalletBalance",
			"outputs": [
				{
					"internalType": "uint256",
					"name": "",
					"type": "uint256"
				}
			],
			"stateMutability": "view",
			"type": "function"
		},
		{
			"inputs": [
				{
					"internalType": "address",
					"name": "",
					"type": "address"
				},
				{
					"internalType": "uint256",
					"name": "",
					"type": "uint256"
				}
			],
			"name": "map_UserWithdrawalOnLevel",
			"outputs": [
				{
					"internalType": "uint256",
					"name": "",
					"type": "uint256"
				}
			],
			"stateMutability": "view",
			"type": "function"
		},
		{
			"inputs": [
				{
					"internalType": "address",
					"name": "",
					"type": "address"
				}
			],
			"name": "map_Users",
			"outputs": [
				{
					"internalType": "uint256",
					"name": "Id",
					"type": "uint256"
				},
				{
					"internalType": "address",
					"name": "Address",
					"type": "address"
				},
				{
					"internalType": "address",
					"name": "SponsorAddress",
					"type": "address"
				},
				{
					"internalType": "uint256",
					"name": "JoiningTimestamp",
					"type": "uint256"
				},
				{
					"internalType": "uint256",
					"name": "Investment",
					"type": "uint256"
				},
				{
					"internalType": "uint256",
					"name": "TotalTeam",
					"type": "uint256"
				},
				{
					"internalType": "bool",
					"name": "IsBlocked",
					"type": "bool"
				},
				{
					"internalType": "uint256",
					"name": "FirstActivationTimestamp",
					"type": "uint256"
				},
				{
					"internalType": "uint256",
					"name": "ActivationExpiryTimestamp",
					"type": "uint256"
				},
				{
					"internalType": "uint256",
					"name": "RankId",
					"type": "uint256"
				},
				{
					"internalType": "bool",
					"name": "IsQualifiedFor4X",
					"type": "bool"
				},
				{
					"internalType": "bool",
					"name": "IsFirstActivationDone",
					"type": "bool"
				}
			],
			"stateMutability": "view",
			"type": "function"
		}
	]
}