{
	"data": {
		"bytecode": {
			"linkReferences": {},
			"object": "60806040525f80555f6001555f600255600160035f6101000a81548160ff0219169083151502179055505f6004555f600555600160065f6101000a81548160ff0219169083151502179055506001600660016101000a81548160ff0219169083151502179055505f60075534801562000076575f80fd5b50620000876200008d60201b60201c565b620016ae565b6200009d620000cf60201b60201c565b620000ad6200024b60201b60201c565b620000bd620005f460201b60201c565b620000cd6200082160201b60201c565b565b60075f815480929190620000e390620010ff565b919050555060405180610120016040528060075481526020016040518060400160405280600781526020017f5061636b6167650000000000000000000000000000000000000000000000000081525081526020015f815260200160011515815260200160011515815260200162000161601e6200084e60201b60201c565b815260200162000179610bb86200084e60201b60201c565b8152602001601481526020016001151581525060085f60075481526020019081526020015f205f820151815f01556020820151816001019081620001be9190620013a6565b50604082015181600201556060820151816003015f6101000a81548160ff02191690831515021790555060808201518160030160016101000a81548160ff02191690831515021790555060a0820151816004015560c0820151816005015560e08201518160060155610100820151816007015f6101000a81548160ff021916908315150217905550905050565b60045f8154809291906200025f90620010ff565b91905055506040518060e001604052806004548152602001605081526020016200029060056200084e60201b60201c565b8152602001600181526020015f81526020015f81526020015f81525060095f60045481526020019081526020015f205f820151815f01556020820151816001015560408201518160020155606082015181600301556080820151816004015560a0820151816005015560c0820151816006015590505060045f8154809291906200031a90620010ff565b91905055506040518060e001604052806004548152602001603c81526020016200034b600a6200084e60201b60201c565b8152602001600181526020015f81526020015f81526020015f81525060095f60045481526020019081526020015f205f820151815f01556020820151816001015560408201518160020155606082015181600301556080820151816004015560a0820151816005015560c0820151816006015590505060045f815480929190620003d590620010ff565b91905055506040518060e0016040528060045481526020016028815260200162000406600f6200084e60201b60201c565b8152602001600281526020015f81526020015f81526020015f81525060095f60045481526020019081526020015f205f820151815f01556020820151816001015560408201518160020155606082015181600301556080820151816004015560a0820151816005015560c0820151816006015590505060045f8154809291906200049090620010ff565b91905055506040518060e00160405280600454815260200160148152602001620004c160146200084e60201b60201c565b8152602001600381526020015f81526020015f81526020015f81525060095f60045481526020019081526020015f205f820151815f01556020820151816001015560408201518160020155606082015181600301556080820151816004015560a0820151816005015560c0820151816006015590505060045f8154809291906200054b90620010ff565b91905055506040518060e001604052806004548152602001601481526020016200057c60146200084e60201b60201c565b8152602001600381526020015f81526020015f81526020015f81525060095f60045481526020019081526020015f205f820151815f01556020820151816001015560408201518160020155606082015181600301556080820151816004015560a0820151816005015560c08201518160060155905050565b60055f8154809291906200060890620010ff565b91905055506040518060e00160405280600554815260200160288152602001620006385f6200084e60201b60201c565b81526020015f81526020015f81526020015f81526020015f815250600a5f60055481526020019081526020015f205f820151815f01556020820151816001015560408201518160020155606082015181600301556080820151816004015560a0820151816005015560c0820151816006015590505060055f815480929190620006c190620010ff565b91905055506040518060e00160405280600554815260200160288152602001620006f15f6200084e60201b60201c565b81526020015f81526020015f81526020015f81526020015f815250600a5f60055481526020019081526020015f205f820151815f01556020820151816001015560408201518160020155606082015181600301556080820151816004015560a0820151816005015560c0820151816006015590505060055f8154809291906200077a90620010ff565b91905055506040518060e00160405280600554815260200160288152602001620007aa5f6200084e60201b60201c565b81526020015f81526020015f81526020015f81526020015f815250600a5f60055481526020019081526020015f205f820151815f01556020820151816001015560408201518160020155606082015181600301556080820151816004015560a0820151816005015560c08201518160060155905050565b5f731419ac3544770ac32fbc3e70129e7eb0197612f690506200084b815f6200087360201b60201c565b50565b5f6012600a6200085f9190620015da565b826200086c91906200162a565b9050919050565b5f808154809291906200088690620010ff565b91905055505f6040518061012001604052805f5481526020018473ffffffffffffffffffffffffffffffffffffffff1681526020018373ffffffffffffffffffffffffffffffffffffffff1681526020014281526020015f81526020015f81526020015f151581526020015f81526020015f81525090505f6040518060c001604052805f81526020015f67ffffffffffffffff8111156200092c576200092b62001155565b5b6040519080825280602002602001820160405280156200095b5781602001602082028036833780820191505090505b5081526020015f81526020015f81526020015f81526020015f67ffffffffffffffff81111562000990576200098f62001155565b5b604051908082528060200260200182016040528015620009bf5781602001602082028036833780820191505090505b5081525090505f60405180608001604052805f81526020016001600454620009e8919062001674565b67ffffffffffffffff81111562000a045762000a0362001155565b5b60405190808252806020026020018201604052801562000a335781602001602082028036833780820191505090505b508152602001600160055462000a4a919062001674565b67ffffffffffffffff81111562000a665762000a6562001155565b5b60405190808252806020026020018201604052801562000a955781602001602082028036833780820191505090505b5081526020015f815250905082600b5f8773ffffffffffffffffffffffffffffffffffffffff1673ffffffffffffffffffffffffffffffffffffffff1681526020019081526020015f205f820151815f01556020820151816001015f6101000a81548173ffffffffffffffffffffffffffffffffffffffff021916908373ffffffffffffffffffffffffffffffffffffffff1602179055506040820151816002015f6101000a81548173ffffffffffffffffffffffffffffffffffffffff021916908373ffffffffffffffffffffffffffffffffffffffff160217905550606082015181600301556080820151816004015560a0820151816005015560c0820151816006015f6101000a81548160ff02191690831515021790555060e08201518160070155610100820151816008015590505081600d5f8773ffffffffffffffffffffffffffffffffffffffff1673ffffffffffffffffffffffffffffffffffffffff1681526020019081526020015f205f820151815f0155602082015181600101908051906020019062000c2c92919062000fd0565b5060408201518160020155606082015181600301556080820151816004015560a082015181600501908051906020019062000c6992919062000fd0565b509050508060125f8773ffffffffffffffffffffffffffffffffffffffff1673ffffffffffffffffffffffffffffffffffffffff1681526020019081526020015f205f820151815f0155602082015181600101908051906020019062000cd19291906200105c565b50604082015181600201908051906020019062000cf09291906200105c565b506060820151816003015590505084600c5f805481526020019081526020015f205f6101000a81548173ffffffffffffffffffffffffffffffffffffffff021916908373ffffffffffffffffffffffffffffffffffffffff1602179055505f73ffffffffffffffffffffffffffffffffffffffff168473ffffffffffffffffffffffffffffffffffffffff161462000e2157600d5f8573ffffffffffffffffffffffffffffffffffffffff1673ffffffffffffffffffffffffffffffffffffffff1681526020019081526020015f2060010185908060018154018082558091505060019003905f5260205f20015f9091909190916101000a81548173ffffffffffffffffffffffffffffffffffffffff021916908373ffffffffffffffffffffffffffffffffffffffff1602179055505b62000e33848662000e3a60201b60201c565b5050505050565b5b5f73ffffffffffffffffffffffffffffffffffffffff168273ffffffffffffffffffffffffffffffffffffffff161462000fcc57600b5f8373ffffffffffffffffffffffffffffffffffffffff1673ffffffffffffffffffffffffffffffffffffffff1681526020019081526020015f206005015f81548092919062000ec190620010ff565b9190505550600d5f8373ffffffffffffffffffffffffffffffffffffffff1673ffffffffffffffffffffffffffffffffffffffff1681526020019081526020015f2060050181908060018154018082558091505060019003905f5260205f20015f9091909190916101000a81548173ffffffffffffffffffffffffffffffffffffffff021916908373ffffffffffffffffffffffffffffffffffffffff160217905550600b5f8373ffffffffffffffffffffffffffffffffffffffff1673ffffffffffffffffffffffffffffffffffffffff1681526020019081526020015f206002015f9054906101000a900473ffffffffffffffffffffffffffffffffffffffff16915062000e3b565b5050565b828054828255905f5260205f2090810192821562001049579160200282015b8281111562001048578251825f6101000a81548173ffffffffffffffffffffffffffffffffffffffff021916908373ffffffffffffffffffffffffffffffffffffffff1602179055509160200191906001019062000fef565b5b509050620010589190620010ac565b5090565b828054828255905f5260205f2090810192821562001099579160200282015b82811115620010985782518255916020019190600101906200107b565b5b509050620010a89190620010ac565b5090565b5b80821115620010c5575f815f905550600101620010ad565b5090565b7f4e487b71000000000000000000000000000000000000000000000000000000005f52601160045260245ffd5b5f819050919050565b5f6200110b82620010f6565b91507fffffffffffffffffffffffffffffffffffffffffffffffffffffffffffffffff820362001140576200113f620010c9565b5b600182019050919050565b5f81519050919050565b7f4e487b71000000000000000000000000000000000000000000000000000000005f52604160045260245ffd5b7f4e487b71000000000000000000000000000000000000000000000000000000005f52602260045260245ffd5b5f6002820490506001821680620011c757607f821691505b602082108103620011dd57620011dc62001182565b5b50919050565b5f819050815f5260205f209050919050565b5f6020601f8301049050919050565b5f82821b905092915050565b5f60088302620012417fffffffffffffffffffffffffffffffffffffffffffffffffffffffffffffffff8262001204565b6200124d868362001204565b95508019841693508086168417925050509392505050565b5f819050919050565b5f6200128e620012886200128284620010f6565b62001265565b620010f6565b9050919050565b5f819050919050565b620012a9836200126e565b620012c1620012b88262001295565b84845462001210565b825550505050565b5f90565b620012d7620012c9565b620012e48184846200129e565b505050565b5b818110156200130b57620012ff5f82620012cd565b600181019050620012ea565b5050565b601f8211156200135a576200132481620011e3565b6200132f84620011f5565b810160208510156200133f578190505b620013576200134e85620011f5565b830182620012e9565b50505b505050565b5f82821c905092915050565b5f6200137c5f19846008026200135f565b1980831691505092915050565b5f6200139683836200136b565b9150826002028217905092915050565b620013b1826200114b565b67ffffffffffffffff811115620013cd57620013cc62001155565b5b620013d98254620011af565b620013e68282856200130f565b5f60209050601f8311600181146200141c575f841562001407578287015190505b62001413858262001389565b86555062001482565b601f1984166200142c86620011e3565b5f5b8281101562001455578489015182556001820191506020850194506020810190506200142e565b8683101562001475578489015162001471601f8916826200136b565b8355505b6001600288020188555050505b505050505050565b5f8160011c9050919050565b5f808291508390505b6001851115620014e757808604811115620014bf57620014be620010c9565b5b6001851615620014cf5780820291505b8081029050620014df856200148a565b94506200149f565b94509492505050565b5f82620015015760019050620015d3565b8162001510575f9050620015d3565b816001811462001529576002811462001534576200156a565b6001915050620015d3565b60ff841115620015495762001548620010c9565b5b8360020a915084821115620015635762001562620010c9565b5b50620015d3565b5060208310610133831016604e8410600b8410161715620015a45782820a9050838111156200159e576200159d620010c9565b5b620015d3565b620015b3848484600162001496565b92509050818404811115620015cd57620015cc620010c9565b5b81810290505b9392505050565b5f620015e682620010f6565b9150620015f383620010f6565b9250620016227fffffffffffffffffffffffffffffffffffffffffffffffffffffffffffffffff8484620014f0565b905092915050565b5f6200163682620010f6565b91506200164383620010f6565b92508282026200165381620010f6565b915082820484148315176200166d576200166c620010c9565b5b5092915050565b5f6200168082620010f6565b91506200168d83620010f6565b9250828201905080821115620016a857620016a7620010c9565b5b92915050565b614e9f80620016bc5f395ff3fe6080604052600436106101c1575f3560e01c80635cf75517116100f6578063a4b6f5e111610094578063ca4810af11610063578063ca4810af14610706578063e315927b14610742578063eecc1c951461077f578063f279e6a1146107bb576101c1565b8063a4b6f5e114610620578063ac3a48001461064a578063b68b0f0714610686578063c5f00964146106c8576101c1565b8063705116a0116100d0578063705116a014610542578063759369d214610584578063a18a609a146105c0578063a3af609b14610604576101c1565b80635cf75517146104aa578063641fba96146104ee5780636b1a708614610518576101c1565b80633daa551c116101635780634e8c8eda1161013d5780634e8c8eda146103cd57806354a03e381461040a5780635b6b431d146104465780635be94e831461046e576101c1565b80633daa551c1461033d5780634788312f146103675780634a40f2fe14610391576101c1565b80631d759fb21161019f5780631d759fb2146102685780632a530a36146102845780632e628e2e146102c3578063365152fa146102ff576101c1565b806307d94067146101c55780631bfe37ce146102025780631cfa6e9b1461023e575b5f80fd5b3480156101d0575f80fd5b506101eb60048036038101906101e69190613b7a565b6107e3565b6040516101f9929190613bc7565b60405180910390f35b34801561020d575f80fd5b5061022860048036038101906102239190613b7a565b61080e565b6040516102359190613bee565b60405180910390f35b348015610249575f80fd5b5061025261082e565b60405161025f9190613c16565b60405180910390f35b610282600480360381019061027d9190613c2f565b610846565b005b34801561028f575f80fd5b506102aa60048036038101906102a59190613c7f565b610856565b6040516102ba9493929190613caa565b60405180910390f35b3480156102ce575f80fd5b506102e960048036038101906102e49190613c2f565b610882565b6040516102f69190613de4565b60405180910390f35b34801561030a575f80fd5b5061032560048036038101906103209190613b7a565b610aa9565b60405161033493929190613e04565b60405180910390f35b348015610348575f80fd5b50610351610ada565b60405161035e919061405a565b60405180910390f35b348015610372575f80fd5b5061037b610cb6565b6040516103889190613bee565b60405180910390f35b34801561039c575f80fd5b506103b760048036038101906103b29190613c7f565b610cbc565b6040516103c49190614256565b60405180910390f35b3480156103d8575f80fd5b506103f360048036038101906103ee9190613c7f565b611037565b604051610401929190613bc7565b60405180910390f35b348015610415575f80fd5b50610430600480360381019061042b9190613c7f565b611057565b60405161043d91906142dc565b60405180910390f35b348015610451575f80fd5b5061046c600480360381019061046791906142f5565b61115f565b005b348015610479575f80fd5b50610494600480360381019061048f9190613c7f565b6114e9565b6040516104a1919061442a565b60405180910390f35b3480156104b5575f80fd5b506104d060048036038101906104cb9190613c7f565b611836565b6040516104e599989796959493929190614459565b60405180910390f35b3480156104f9575f80fd5b506105026118ca565b60405161050f9190613bee565b60405180910390f35b348015610523575f80fd5b5061052c6118cf565b6040516105399190614537565b60405180910390f35b34801561054d575f80fd5b50610568600480360381019061056391906142f5565b611909565b60405161057b9796959493929190614550565b60405180910390f35b34801561058f575f80fd5b506105aa60048036038101906105a59190613c2f565b611947565b6040516105b79190614692565b60405180910390f35b3480156105cb575f80fd5b506105e660048036038101906105e191906142f5565b611b67565b6040516105fb999897969594939291906146fa565b60405180910390f35b61061e6004803603810190610619919061478c565b611c5c565b005b34801561062b575f80fd5b50610634611c6a565b6040516106419190613bee565b60405180910390f35b348015610655575f80fd5b50610670600480360381019061066b91906142f5565b611c70565b60405161067d9190613c16565b60405180910390f35b348015610691575f80fd5b506106ac60048036038101906106a791906142f5565b611ca0565b6040516106bf9796959493929190614550565b60405180910390f35b3480156106d3575f80fd5b506106ee60048036038101906106e99190613c7f565b611cde565b6040516106fd93929190613e04565b60405180910390f35b348015610711575f80fd5b5061072c60048036038101906107279190613b7a565b611d04565b6040516107399190613bee565b60405180910390f35b34801561074d575f80fd5b5061076860048036038101906107639190613c7f565b611d24565b604051610776929190613bc7565b60405180910390f35b34801561078a575f80fd5b506107a560048036038101906107a09190613c7f565b611d44565b6040516107b291906147ca565b60405180910390f35b3480156107c6575f80fd5b506107e160048036038101906107dc9190613c2f565b611d66565b005b600f602052815f5260405f20602052805f5260405f205f9150915050805f0154908060010154905082565b6010602052815f5260405f20602052805f5260405f205f91509150505481565b731419ac3544770ac32fbc3e70129e7eb0197612f681565b610851838383611f93565b505050565b600d602052805f5260405f205f91509050805f0154908060020154908060030154908060040154905084565b606060145f8573ffffffffffffffffffffffffffffffffffffffff1673ffffffffffffffffffffffffffffffffffffffff1681526020019081526020015f205f015467ffffffffffffffff8111156108dd576108dc6147e3565b5b60405190808252806020026020018201604052801561091657816020015b61090361388b565b8152602001906001900390816108fb5790505b5090505f60145f8673ffffffffffffffffffffffffffffffffffffffff1673ffffffffffffffffffffffffffffffffffffffff1681526020019081526020015f205f01548385610966919061483d565b1161097c578284610977919061483d565b6109bd565b60145f8673ffffffffffffffffffffffffffffffffffffffff1673ffffffffffffffffffffffffffffffffffffffff1681526020019081526020015f205f01545b90505f838210156109ce575f6109db565b83826109da919061487e565b5b90505f808390505b82811115610a9e57600e5f8973ffffffffffffffffffffffffffffffffffffffff1673ffffffffffffffffffffffffffffffffffffffff1681526020019081526020015f205f8281526020019081526020015f206040518060600160405290815f820154815260200160018201548152602001600282015481525050858381518110610a7257610a716148b1565b5b60200260200101819052508180610a88906148de565b9250508080610a9690614925565b9150506109e3565b505050509392505050565b600e602052815f5260405f20602052805f5260405f205f9150915050805f0154908060010154908060020154905083565b60605f60075467ffffffffffffffff811115610af957610af86147e3565b5b604051908082528060200260200182016040528015610b3257816020015b610b1f6138a9565b815260200190600190039081610b175790505b5090505f600190505b6007548111610cae5760085f8281526020019081526020015f20604051806101200160405290815f8201548152602001600182018054610b7a90614979565b80601f0160208091040260200160405190810160405280929190818152602001828054610ba690614979565b8015610bf15780601f10610bc857610100808354040283529160200191610bf1565b820191905f5260205f20905b815481529060010190602001808311610bd457829003601f168201915b5050505050815260200160028201548152602001600382015f9054906101000a900460ff161515151581526020016003820160019054906101000a900460ff16151515158152602001600482015481526020016005820154815260200160068201548152602001600782015f9054906101000a900460ff16151515158152505082600183610c7f919061487e565b81518110610c9057610c8f6148b1565b5b60200260200101819052508080610ca6906148de565b915050610b3b565b819250505090565b60025481565b606060045467ffffffffffffffff811115610cda57610cd96147e3565b5b604051908082528060200260200182016040528015610d1357816020015b610d006138f3565b815260200190600190039081610cf85790505b5090505f600190505b600454811161103157604051806101e0016040528082815260200160095f8481526020019081526020015f20600201548152602001600b5f8673ffffffffffffffffffffffffffffffffffffffff1673ffffffffffffffffffffffffffffffffffffffff1681526020019081526020015f2060040154815260200160095f8481526020019081526020015f20600301548152602001600d5f8673ffffffffffffffffffffffffffffffffffffffff1673ffffffffffffffffffffffffffffffffffffffff1681526020019081526020015f2060010180549050815260200160095f8481526020019081526020015f20600401548152602001600d5f8673ffffffffffffffffffffffffffffffffffffffff1673ffffffffffffffffffffffffffffffffffffffff1681526020019081526020015f205f0154815260200160095f8481526020019081526020015f20600501548152602001600b5f8673ffffffffffffffffffffffffffffffffffffffff1673ffffffffffffffffffffffffffffffffffffffff1681526020019081526020015f2060050154815260200160095f8481526020019081526020015f20600601548152602001600d5f8673ffffffffffffffffffffffffffffffffffffffff1673ffffffffffffffffffffffffffffffffffffffff1681526020019081526020015f2060040154815260200160105f8673ffffffffffffffffffffffffffffffffffffffff1673ffffffffffffffffffffffffffffffffffffffff1681526020019081526020015f205f8481526020019081526020015f2054815260200160095f8481526020019081526020015f2060010154815260200160125f8673ffffffffffffffffffffffffffffffffffffffff1673ffffffffffffffffffffffffffffffffffffffff1681526020019081526020015f206001018381548110610fd757610fd66148b1565b5b905f5260205f2001548152602001610fef8584612038565b151581525082600183611002919061487e565b81518110611013576110126148b1565b5b60200260200101819052508080611029906148de565b915050610d1c565b50919050565b6013602052805f5260405f205f91509050805f0154908060010154905082565b61105f61395c565b6040518060a00160405280600d5f8573ffffffffffffffffffffffffffffffffffffffff1673ffffffffffffffffffffffffffffffffffffffff1681526020019081526020015f2060010180549050815260200160125f8573ffffffffffffffffffffffffffffffffffffffff1673ffffffffffffffffffffffffffffffffffffffff1681526020019081526020015f205f015481526020016111018461222b565b815260200161110f84612393565b815260200160125f8573ffffffffffffffffffffffffffffffffffffffff1673ffffffffffffffffffffffffffffffffffffffff1681526020019081526020015f20600301548152509050919050565b5f33905061116c816123ee565b6111ab576040517f08c379a00000000000000000000000000000000000000000000000000000000081526004016111a2906149f3565b60405180910390fd5b6111b481612438565b6111f3576040517f08c379a00000000000000000000000000000000000000000000000000000000081526004016111ea90614a5b565b60405180910390fd5b8160125f8373ffffffffffffffffffffffffffffffffffffffff1673ffffffffffffffffffffffffffffffffffffffff1681526020019081526020015f206003015460135f8473ffffffffffffffffffffffffffffffffffffffff1673ffffffffffffffffffffffffffffffffffffffff1681526020019081526020015f206001015460135f8573ffffffffffffffffffffffffffffffffffffffff1673ffffffffffffffffffffffffffffffffffffffff1681526020019081526020015f205f01546112bf85612393565b6112c99190614a79565b6112d3919061487e565b6112dd919061487e565b101561131e576040517f08c379a000000000000000000000000000000000000000000000000000000000815260040161131590614af6565b60405180910390fd5b8160125f8373ffffffffffffffffffffffffffffffffffffffff1673ffffffffffffffffffffffffffffffffffffffff1681526020019081526020015f206003015f82825461136d9190614a79565b925050819055505f6064600c84611384919061483d565b61138e9190614b41565b90505f818461139d919061487e565b90505f604051806040016040528086815260200142815250905080600f5f8673ffffffffffffffffffffffffffffffffffffffff1673ffffffffffffffffffffffffffffffffffffffff1681526020019081526020015f205f600160145f8973ffffffffffffffffffffffffffffffffffffffff1673ffffffffffffffffffffffffffffffffffffffff1681526020019081526020015f20600201546114439190614a79565b81526020019081526020015f205f820151815f01556020820151816001015590505060145f8573ffffffffffffffffffffffffffffffffffffffff1673ffffffffffffffffffffffffffffffffffffffff1681526020019081526020015f206002015f8154809291906114b5906148de565b91905055506114c4848361248e565b6114e2731419ac3544770ac32fbc3e70129e7eb0197612f68461248e565b5050505050565b6060600d5f8373ffffffffffffffffffffffffffffffffffffffff1673ffffffffffffffffffffffffffffffffffffffff1681526020019081526020015f206001018054905067ffffffffffffffff811115611548576115476147e3565b5b60405190808252806020026020018201604052801561158157816020015b61156e613986565b8152602001906001900390816115665790505b5090505f5b600d5f8473ffffffffffffffffffffffffffffffffffffffff1673ffffffffffffffffffffffffffffffffffffffff1681526020019081526020015f20600101805490508110156118305760405180608001604052806001836115e99190614a79565b8152602001600d5f8673ffffffffffffffffffffffffffffffffffffffff1673ffffffffffffffffffffffffffffffffffffffff1681526020019081526020015f2060010183815481106116405761163f6148b1565b5b905f5260205f20015f9054906101000a900473ffffffffffffffffffffffffffffffffffffffff1673ffffffffffffffffffffffffffffffffffffffff168152602001600b5f600d5f8873ffffffffffffffffffffffffffffffffffffffff1673ffffffffffffffffffffffffffffffffffffffff1681526020019081526020015f2060010185815481106116d8576116d76148b1565b5b905f5260205f20015f9054906101000a900473ffffffffffffffffffffffffffffffffffffffff1673ffffffffffffffffffffffffffffffffffffffff1673ffffffffffffffffffffffffffffffffffffffff1681526020019081526020015f20600401548152602001600b5f600d5f8873ffffffffffffffffffffffffffffffffffffffff1673ffffffffffffffffffffffffffffffffffffffff1681526020019081526020015f206001018581548110611797576117966148b1565b5b905f5260205f20015f9054906101000a900473ffffffffffffffffffffffffffffffffffffffff1673ffffffffffffffffffffffffffffffffffffffff1673ffffffffffffffffffffffffffffffffffffffff1681526020019081526020015f2060040154815250828281518110611812576118116148b1565b5b60200260200101819052508080611828906148de565b915050611586565b50919050565b600b602052805f5260405f205f91509050805f015490806001015f9054906101000a900473ffffffffffffffffffffffffffffffffffffffff1690806002015f9054906101000a900473ffffffffffffffffffffffffffffffffffffffff1690806003015490806004015490806005015490806006015f9054906101000a900460ff16908060070154908060080154905089565b5f5481565b6118d76139c0565b60405180608001604052805f54815260200160015481526020016002548152602001611901612580565b815250905090565b6009602052805f5260405f205f91509050805f0154908060010154908060020154908060030154908060040154908060050154908060060154905087565b606060145f8573ffffffffffffffffffffffffffffffffffffffff1673ffffffffffffffffffffffffffffffffffffffff1681526020019081526020015f206002015467ffffffffffffffff8111156119a3576119a26147e3565b5b6040519080825280602002602001820160405280156119dc57816020015b6119c96139e4565b8152602001906001900390816119c15790505b5090505f60145f8673ffffffffffffffffffffffffffffffffffffffff1673ffffffffffffffffffffffffffffffffffffffff1681526020019081526020015f20600201548385611a2d919061483d565b11611a43578284611a3e919061483d565b611a85565b60145f8673ffffffffffffffffffffffffffffffffffffffff1673ffffffffffffffffffffffffffffffffffffffff1681526020019081526020015f20600201545b90505f83821015611a96575f611aa3565b8382611aa2919061487e565b5b90505f808390505b82811115611b5c57600f5f8973ffffffffffffffffffffffffffffffffffffffff1673ffffffffffffffffffffffffffffffffffffffff1681526020019081526020015f205f8281526020019081526020015f206040518060400160405290815f8201548152602001600182015481525050858381518110611b3057611b2f6148b1565b5b60200260200101819052508180611b46906148de565b9250508080611b5490614925565b915050611aab565b505050509392505050565b6008602052805f5260405f205f91509050805f015490806001018054611b8c90614979565b80601f0160208091040260200160405190810160405280929190818152602001828054611bb890614979565b8015611c035780601f10611bda57610100808354040283529160200191611c03565b820191905f5260205f20905b815481529060010190602001808311611be657829003601f168201915b505050505090806002015490806003015f9054906101000a900460ff16908060030160019054906101000a900460ff1690806004015490806005015490806006015490806007015f9054906101000a900460ff16905089565b611c66828261262f565b5050565b60015481565b600c602052805f5260405f205f915054906101000a900473ffffffffffffffffffffffffffffffffffffffff1681565b600a602052805f5260405f205f91509050805f0154908060010154908060020154908060030154908060040154908060050154908060060154905087565b6014602052805f5260405f205f91509050805f0154908060010154908060020154905083565b6011602052815f5260405f20602052805f5260405f205f91509150505481565b6012602052805f5260405f205f91509050805f0154908060030154905082565b5f611d4e826123ee565b8015611d5f5750611d5e82612438565b5b9050919050565b611d6e612694565b611dad576040517f08c379a0000000000000000000000000000000000000000000000000000000008152600401611da490614bbb565b60405180910390fd5b60028103611dd4578160085f600181526020019081526020015f2060050181905550611f8e565b60038103611e36578160135f8573ffffffffffffffffffffffffffffffffffffffff1673ffffffffffffffffffffffffffffffffffffffff1681526020019081526020015f205f015f828254611e2a9190614a79565b92505081905550611f8d565b60048103611e99578160135f8573ffffffffffffffffffffffffffffffffffffffff1673ffffffffffffffffffffffffffffffffffffffff1681526020019081526020015f206001015f828254611e8d9190614a79565b92505081905550611f8c565b60058103611efe576001600b5f8573ffffffffffffffffffffffffffffffffffffffff1673ffffffffffffffffffffffffffffffffffffffff1681526020019081526020015f206006015f6101000a81548160ff021916908315150217905550611f8b565b60068103611f62575f600b5f8573ffffffffffffffffffffffffffffffffffffffff1673ffffffffffffffffffffffffffffffffffffffff1681526020019081526020015f206006015f6101000a81548160ff021916908315150217905550611f8a565b60078103611f8957611f88731419ac3544770ac32fbc3e70129e7eb0197612f68361248e565b5b5b5b5b5b5b505050565b5f339050611fa084611d44565b611fdf576040517f08c379a0000000000000000000000000000000000000000000000000000000008152600401611fd690614c23565b60405180910390fd5b611fe8816123ee565b15612028576040517f08c379a000000000000000000000000000000000000000000000000000000000815260040161201f90614c8b565b60405180910390fd5b61203281856126dd565b50505050565b5f60095f8381526020019081526020015f2060040154600d5f8573ffffffffffffffffffffffffffffffffffffffff1673ffffffffffffffffffffffffffffffffffffffff1681526020019081526020015f205f0154101580156120f0575060095f8381526020019081526020015f2060060154600d5f8573ffffffffffffffffffffffffffffffffffffffff1673ffffffffffffffffffffffffffffffffffffffff1681526020019081526020015f206004015410155b8015612153575060095f8381526020019081526020015f2060030154600d5f8573ffffffffffffffffffffffffffffffffffffffff1673ffffffffffffffffffffffffffffffffffffffff1681526020019081526020015f206001018054905010155b80156121b3575060095f8381526020019081526020015f2060050154600b5f8573ffffffffffffffffffffffffffffffffffffffff1673ffffffffffffffffffffffffffffffffffffffff1681526020019081526020015f206005015410155b8015612213575060095f8381526020019081526020015f2060020154600b5f8573ffffffffffffffffffffffffffffffffffffffff1673ffffffffffffffffffffffffffffffffffffffff1681526020019081526020015f206004015410155b156122215760019050612225565b5f90505b92915050565b5f805f90505f60125f8573ffffffffffffffffffffffffffffffffffffffff1673ffffffffffffffffffffffffffffffffffffffff1681526020019081526020015f206040518060800160405290815f8201548152602001600182018054806020026020016040519081016040528092919081815260200182805480156122cf57602002820191905f5260205f20905b8154815260200190600101908083116122bb575b505050505081526020016002820180548060200260200160405190810160405280929190818152602001828054801561232557602002820191905f5260205f20905b815481526020019060010190808311612311575b5050505050815260200160038201548152505090505f5b81602001515181101561238857816020015181815181106123605761235f6148b1565b5b6020026020010151836123739190614a79565b92508080612380906148de565b91505061233c565b508192505050919050565b5f61239d8261222b565b60125f8473ffffffffffffffffffffffffffffffffffffffff1673ffffffffffffffffffffffffffffffffffffffff1681526020019081526020015f205f01546123e79190614a79565b9050919050565b5f80600b5f8473ffffffffffffffffffffffffffffffffffffffff1673ffffffffffffffffffffffffffffffffffffffff1681526020019081526020015f205f0154119050919050565b5f600b5f8373ffffffffffffffffffffffffffffffffffffffff1673ffffffffffffffffffffffffffffffffffffffff1681526020019081526020015f206006015f9054906101000a900460ff16159050919050565b60035f9054906101000a900460ff16156125375773c06e70c4038059965172cf02025d7e5033f3976773ffffffffffffffffffffffffffffffffffffffff1663a9059cbb83836040518363ffffffff1660e01b81526004016124f1929190614ca9565b6020604051808303815f875af115801561250d573d5f803e3d5ffd5b505050506040513d601f19601f820116820180604052508101906125319190614cfa565b5061257c565b8173ffffffffffffffffffffffffffffffffffffffff166108fc8290811502906040515f60405180830381858888f1935050505015801561257a573d5f803e3d5ffd5b505b5050565b5f60035f9054906101000a900460ff16156126285773c06e70c4038059965172cf02025d7e5033f3976773ffffffffffffffffffffffffffffffffffffffff166370a08231306040518263ffffffff1660e01b81526004016125e29190613c16565b602060405180830381865afa1580156125fd573d5f803e3d5ffd5b505050506040513d601f19601f820116820180604052508101906126219190614d39565b905061262c565b4790505b90565b5f33905061263c816123ee565b61267b576040517f08c379a000000000000000000000000000000000000000000000000000000000815260040161267290614dae565b60405180910390fd5b61268482612c7d565b61268f818484612d9e565b505050565b5f731419ac3544770ac32fbc3e70129e7eb0197612f673ffffffffffffffffffffffffffffffffffffffff163373ffffffffffffffffffffffffffffffffffffffff1614905090565b5f808154809291906126ee906148de565b91905055505f6040518061012001604052805f5481526020018473ffffffffffffffffffffffffffffffffffffffff1681526020018373ffffffffffffffffffffffffffffffffffffffff1681526020014281526020015f81526020015f81526020015f151581526020015f81526020015f81525090505f6040518060c001604052805f81526020015f67ffffffffffffffff811115612791576127906147e3565b5b6040519080825280602002602001820160405280156127bf5781602001602082028036833780820191505090505b5081526020015f81526020015f81526020015f81526020015f67ffffffffffffffff8111156127f1576127f06147e3565b5b60405190808252806020026020018201604052801561281f5781602001602082028036833780820191505090505b5081525090505f60405180608001604052805f815260200160016004546128469190614a79565b67ffffffffffffffff81111561285f5761285e6147e3565b5b60405190808252806020026020018201604052801561288d5781602001602082028036833780820191505090505b50815260200160016005546128a29190614a79565b67ffffffffffffffff8111156128bb576128ba6147e3565b5b6040519080825280602002602001820160405280156128e95781602001602082028036833780820191505090505b5081526020015f815250905082600b5f8773ffffffffffffffffffffffffffffffffffffffff1673ffffffffffffffffffffffffffffffffffffffff1681526020019081526020015f205f820151815f01556020820151816001015f6101000a81548173ffffffffffffffffffffffffffffffffffffffff021916908373ffffffffffffffffffffffffffffffffffffffff1602179055506040820151816002015f6101000a81548173ffffffffffffffffffffffffffffffffffffffff021916908373ffffffffffffffffffffffffffffffffffffffff160217905550606082015181600301556080820151816004015560a0820151816005015560c0820151816006015f6101000a81548160ff02191690831515021790555060e08201518160070155610100820151816008015590505081600d5f8773ffffffffffffffffffffffffffffffffffffffff1673ffffffffffffffffffffffffffffffffffffffff1681526020019081526020015f205f820151815f01556020820151816001019080519060200190612a7e9291906139fc565b5060408201518160020155606082015181600301556080820151816004015560a0820151816005019080519060200190612ab99291906139fc565b509050508060125f8773ffffffffffffffffffffffffffffffffffffffff1673ffffffffffffffffffffffffffffffffffffffff1681526020019081526020015f205f820151815f01556020820151816001019080519060200190612b1f929190613a83565b506040820151816002019080519060200190612b3c929190613a83565b506060820151816003015590505084600c5f805481526020019081526020015f205f6101000a81548173ffffffffffffffffffffffffffffffffffffffff021916908373ffffffffffffffffffffffffffffffffffffffff1602179055505f73ffffffffffffffffffffffffffffffffffffffff168473ffffffffffffffffffffffffffffffffffffffff1614612c6c57600d5f8573ffffffffffffffffffffffffffffffffffffffff1673ffffffffffffffffffffffffffffffffffffffff1681526020019081526020015f2060010185908060018154018082558091505060019003905f5260205f20015f9091909190916101000a81548173ffffffffffffffffffffffffffffffffffffffff021916908373ffffffffffffffffffffffffffffffffffffffff1602179055505b612c76848661311c565b5050505050565b60035f9054906101000a900460ff1615612d8e575f612c9a612580565b905073c06e70c4038059965172cf02025d7e5033f3976773ffffffffffffffffffffffffffffffffffffffff166323b872dd3330856040518463ffffffff1660e01b8152600401612ced93929190614dcc565b6020604051808303815f875af1158015612d09573d5f803e3d5ffd5b505050506040513d601f19601f82011682018060405250810190612d2d9190614cfa565b505f612d37612580565b9050828282612d46919061487e565b1015612d87576040517f08c379a0000000000000000000000000000000000000000000000000000000008152600401612d7e90614e4b565b60405180910390fd5b5050612d9b565b80341015612d9a575f80fd5b5b50565b60085f8381526020019081526020015f206003015f9054906101000a900460ff168015612e72575060085f8381526020019081526020015f2060030160019054906101000a900460ff16158015612e0857508060085f8481526020019081526020015f2060020154145b80612e71575060085f8381526020019081526020015f2060030160019054906101000a900460ff168015612e5057508060085f8481526020019081526020015f206004015411155b8015612e7057508060085f8481526020019081526020015f206005015410155b5b5b612eb1576040517f08c379a0000000000000000000000000000000000000000000000000000000008152600401612ea890614e4b565b60405180910390fd5b8060015f828254612ec29190614a79565b925050819055505f600b5f8573ffffffffffffffffffffffffffffffffffffffff1673ffffffffffffffffffffffffffffffffffffffff1681526020019081526020015f206002015f9054906101000a900473ffffffffffffffffffffffffffffffffffffffff16905081600b5f8673ffffffffffffffffffffffffffffffffffffffff1673ffffffffffffffffffffffffffffffffffffffff1681526020019081526020015f206004015f828254612f7b9190614a79565b9250508190555081600d5f8373ffffffffffffffffffffffffffffffffffffffff1673ffffffffffffffffffffffffffffffffffffffff1681526020019081526020015f205f015f828254612fd09190614a79565b92505081905550612fe181836132ae565b612fec848484613419565b5f604051806060016040528085815260200184815260200142815250905080600e5f8773ffffffffffffffffffffffffffffffffffffffff1673ffffffffffffffffffffffffffffffffffffffff1681526020019081526020015f205f600160145f8a73ffffffffffffffffffffffffffffffffffffffff1673ffffffffffffffffffffffffffffffffffffffff1681526020019081526020015f205f01546130959190614a79565b81526020019081526020015f205f820151815f0155602082015181600101556040820151816002015590505060145f8673ffffffffffffffffffffffffffffffffffffffff1673ffffffffffffffffffffffffffffffffffffffff1681526020019081526020015f205f015f815480929190613110906148de565b91905055505050505050565b5b5f73ffffffffffffffffffffffffffffffffffffffff168273ffffffffffffffffffffffffffffffffffffffff16146132aa57600b5f8373ffffffffffffffffffffffffffffffffffffffff1673ffffffffffffffffffffffffffffffffffffffff1681526020019081526020015f206005015f8154809291906131a0906148de565b9190505550600d5f8373ffffffffffffffffffffffffffffffffffffffff1673ffffffffffffffffffffffffffffffffffffffff1681526020019081526020015f2060050181908060018154018082558091505060019003905f5260205f20015f9091909190916101000a81548173ffffffffffffffffffffffffffffffffffffffff021916908373ffffffffffffffffffffffffffffffffffffffff160217905550600b5f8373ffffffffffffffffffffffffffffffffffffffff1673ffffffffffffffffffffffffffffffffffffffff1681526020019081526020015f206002015f9054906101000a900473ffffffffffffffffffffffffffffffffffffffff16915061311d565b5050565b5f600190505b5f73ffffffffffffffffffffffffffffffffffffffff168373ffffffffffffffffffffffffffffffffffffffff16146134145781600d5f8573ffffffffffffffffffffffffffffffffffffffff1673ffffffffffffffffffffffffffffffffffffffff1681526020019081526020015f206004015f8282546133369190614a79565b925050819055508160105f8573ffffffffffffffffffffffffffffffffffffffff1673ffffffffffffffffffffffffffffffffffffffff1681526020019081526020015f205f8381526020019081526020015f205f8282546133989190614a79565b92505081905550600b5f8473ffffffffffffffffffffffffffffffffffffffff1673ffffffffffffffffffffffffffffffffffffffff1681526020019081526020015f206002015f9054906101000a900473ffffffffffffffffffffffffffffffffffffffff169250808061340c906148de565b9150506132b4565b505050565b613424838383613433565b61342e838261355c565b505050565b5f60085f8481526020019081526020015f206007015f9054906101000a900460ff166134735760085f8481526020019081526020015f20600601546134a0565b606460085f8581526020019081526020015f206006015483613495919061483d565b61349f9190614b41565b5b90508060125f600b5f8873ffffffffffffffffffffffffffffffffffffffff1673ffffffffffffffffffffffffffffffffffffffff1681526020019081526020015f206002015f9054906101000a900473ffffffffffffffffffffffffffffffffffffffff1673ffffffffffffffffffffffffffffffffffffffff1673ffffffffffffffffffffffffffffffffffffffff1681526020019081526020015f205f015f82825461354f9190614a79565b9250508190555050505050565b5f600b5f8473ffffffffffffffffffffffffffffffffffffffff1673ffffffffffffffffffffffffffffffffffffffff1681526020019081526020015f206002015f9054906101000a900473ffffffffffffffffffffffffffffffffffffffff1690505f600190505b5f73ffffffffffffffffffffffffffffffffffffffff168273ffffffffffffffffffffffffffffffffffffffff161415801561360357506004548111155b15613885576136128482612038565b156136e65760065f9054906101000a900460ff166136445760095f8281526020019081526020015f2060010154613672565b6103e860095f8381526020019081526020015f206001015484613667919061483d565b6136719190614b41565b5b60125f8473ffffffffffffffffffffffffffffffffffffffff1673ffffffffffffffffffffffffffffffffffffffff1681526020019081526020015f2060010182815481106136c4576136c36148b1565b5b905f5260205f20015f8282546136da9190614a79565b925050819055506137c5565b60065f9054906101000a900460ff166137135760095f8281526020019081526020015f2060010154613741565b6103e860095f8381526020019081526020015f206001015484613736919061483d565b6137409190614b41565b5b60125f731419ac3544770ac32fbc3e70129e7eb0197612f673ffffffffffffffffffffffffffffffffffffffff1673ffffffffffffffffffffffffffffffffffffffff1681526020019081526020015f2060010182815481106137a7576137a66148b1565b5b905f5260205f20015f8282546137bd9190614a79565b925050819055505b600b5f8373ffffffffffffffffffffffffffffffffffffffff1673ffffffffffffffffffffffffffffffffffffffff1681526020019081526020015f206002015f9054906101000a900473ffffffffffffffffffffffffffffffffffffffff1691508080613832906148de565b9150505f73ffffffffffffffffffffffffffffffffffffffff168273ffffffffffffffffffffffffffffffffffffffff160361388057731419ac3544770ac32fbc3e70129e7eb0197612f691505b6135c5565b50505050565b60405180606001604052805f81526020015f81526020015f81525090565b6040518061012001604052805f8152602001606081526020015f81526020015f151581526020015f151581526020015f81526020015f81526020015f81526020015f151581525090565b604051806101e001604052805f81526020015f81526020015f81526020015f81526020015f81526020015f81526020015f81526020015f81526020015f81526020015f81526020015f81526020015f81526020015f81526020015f81526020015f151581525090565b6040518060a001604052805f81526020015f81526020015f81526020015f81526020015f81525090565b60405180608001604052805f81526020015f73ffffffffffffffffffffffffffffffffffffffff1681526020015f81526020015f81525090565b60405180608001604052805f81526020015f81526020015f81526020015f81525090565b60405180604001604052805f81526020015f81525090565b828054828255905f5260205f20908101928215613a72579160200282015b82811115613a71578251825f6101000a81548173ffffffffffffffffffffffffffffffffffffffff021916908373ffffffffffffffffffffffffffffffffffffffff16021790555091602001919060010190613a1a565b5b509050613a7f9190613ace565b5090565b828054828255905f5260205f20908101928215613abd579160200282015b82811115613abc578251825591602001919060010190613aa1565b5b509050613aca9190613ace565b5090565b5b80821115613ae5575f815f905550600101613acf565b5090565b5f80fd5b5f73ffffffffffffffffffffffffffffffffffffffff82169050919050565b5f613b1682613aed565b9050919050565b613b2681613b0c565b8114613b30575f80fd5b50565b5f81359050613b4181613b1d565b92915050565b5f819050919050565b613b5981613b47565b8114613b63575f80fd5b50565b5f81359050613b7481613b50565b92915050565b5f8060408385031215613b9057613b8f613ae9565b5b5f613b9d85828601613b33565b9250506020613bae85828601613b66565b9150509250929050565b613bc181613b47565b82525050565b5f604082019050613bda5f830185613bb8565b613be76020830184613bb8565b9392505050565b5f602082019050613c015f830184613bb8565b92915050565b613c1081613b0c565b82525050565b5f602082019050613c295f830184613c07565b92915050565b5f805f60608486031215613c4657613c45613ae9565b5b5f613c5386828701613b33565b9350506020613c6486828701613b66565b9250506040613c7586828701613b66565b9150509250925092565b5f60208284031215613c9457613c93613ae9565b5b5f613ca184828501613b33565b91505092915050565b5f608082019050613cbd5f830187613bb8565b613cca6020830186613bb8565b613cd76040830185613bb8565b613ce46060830184613bb8565b95945050505050565b5f81519050919050565b5f82825260208201905092915050565b5f819050602082019050919050565b613d1f81613b47565b82525050565b606082015f820151613d395f850182613d16565b506020820151613d4c6020850182613d16565b506040820151613d5f6040850182613d16565b50505050565b5f613d708383613d25565b60608301905092915050565b5f602082019050919050565b5f613d9282613ced565b613d9c8185613cf7565b9350613da783613d07565b805f5b83811015613dd7578151613dbe8882613d65565b9750613dc983613d7c565b925050600181019050613daa565b5085935050505092915050565b5f6020820190508181035f830152613dfc8184613d88565b905092915050565b5f606082019050613e175f830186613bb8565b613e246020830185613bb8565b613e316040830184613bb8565b949350505050565b5f81519050919050565b5f82825260208201905092915050565b5f819050602082019050919050565b5f81519050919050565b5f82825260208201905092915050565b5f5b83811015613e99578082015181840152602081019050613e7e565b5f8484015250505050565b5f601f19601f8301169050919050565b5f613ebe82613e62565b613ec88185613e6c565b9350613ed8818560208601613e7c565b613ee181613ea4565b840191505092915050565b5f8115159050919050565b613f0081613eec565b82525050565b5f61012083015f830151613f1c5f860182613d16565b5060208301518482036020860152613f348282613eb4565b9150506040830151613f496040860182613d16565b506060830151613f5c6060860182613ef7565b506080830151613f6f6080860182613ef7565b5060a0830151613f8260a0860182613d16565b5060c0830151613f9560c0860182613d16565b5060e0830151613fa860e0860182613d16565b50610100830151613fbd610100860182613ef7565b508091505092915050565b5f613fd38383613f06565b905092915050565b5f602082019050919050565b5f613ff182613e39565b613ffb8185613e43565b93508360208202850161400d85613e53565b805f5b8581101561404857848403895281516140298582613fc8565b945061403483613fdb565b925060208a01995050600181019050614010565b50829750879550505050505092915050565b5f6020820190508181035f8301526140728184613fe7565b905092915050565b5f81519050919050565b5f82825260208201905092915050565b5f819050602082019050919050565b6101e082015f8201516140b85f850182613d16565b5060208201516140cb6020850182613d16565b5060408201516140de6040850182613d16565b5060608201516140f16060850182613d16565b5060808201516141046080850182613d16565b5060a082015161411760a0850182613d16565b5060c082015161412a60c0850182613d16565b5060e082015161413d60e0850182613d16565b50610100820151614152610100850182613d16565b50610120820151614167610120850182613d16565b5061014082015161417c610140850182613d16565b50610160820151614191610160850182613d16565b506101808201516141a6610180850182613d16565b506101a08201516141bb6101a0850182613d16565b506101c08201516141d06101c0850182613ef7565b50505050565b5f6141e183836140a3565b6101e08301905092915050565b5f602082019050919050565b5f6142048261407a565b61420e8185614084565b935061421983614094565b805f5b8381101561424957815161423088826141d6565b975061423b836141ee565b92505060018101905061421c565b5085935050505092915050565b5f6020820190508181035f83015261426e81846141fa565b905092915050565b60a082015f82015161428a5f850182613d16565b50602082015161429d6020850182613d16565b5060408201516142b06040850182613d16565b5060608201516142c36060850182613d16565b5060808201516142d66080850182613d16565b50505050565b5f60a0820190506142ef5f830184614276565b92915050565b5f6020828403121561430a57614309613ae9565b5b5f61431784828501613b66565b91505092915050565b5f81519050919050565b5f82825260208201905092915050565b5f819050602082019050919050565b61435281613b0c565b82525050565b608082015f82015161436c5f850182613d16565b50602082015161437f6020850182614349565b5060408201516143926040850182613d16565b5060608201516143a56060850182613d16565b50505050565b5f6143b68383614358565b60808301905092915050565b5f602082019050919050565b5f6143d882614320565b6143e2818561432a565b93506143ed8361433a565b805f5b8381101561441d57815161440488826143ab565b975061440f836143c2565b9250506001810190506143f0565b5085935050505092915050565b5f6020820190508181035f83015261444281846143ce565b905092915050565b61445381613eec565b82525050565b5f6101208201905061446d5f83018c613bb8565b61447a602083018b613c07565b614487604083018a613c07565b6144946060830189613bb8565b6144a16080830188613bb8565b6144ae60a0830187613bb8565b6144bb60c083018661444a565b6144c860e0830185613bb8565b6144d6610100830184613bb8565b9a9950505050505050505050565b608082015f8201516144f85f850182613d16565b50602082015161450b6020850182613d16565b50604082015161451e6040850182613d16565b5060608201516145316060850182613d16565b50505050565b5f60808201905061454a5f8301846144e4565b92915050565b5f60e0820190506145635f83018a613bb8565b6145706020830189613bb8565b61457d6040830188613bb8565b61458a6060830187613bb8565b6145976080830186613bb8565b6145a460a0830185613bb8565b6145b160c0830184613bb8565b98975050505050505050565b5f81519050919050565b5f82825260208201905092915050565b5f819050602082019050919050565b604082015f8201516145fa5f850182613d16565b50602082015161460d6020850182613d16565b50505050565b5f61461e83836145e6565b60408301905092915050565b5f602082019050919050565b5f614640826145bd565b61464a81856145c7565b9350614655836145d7565b805f5b8381101561468557815161466c8882614613565b97506146778361462a565b925050600181019050614658565b5085935050505092915050565b5f6020820190508181035f8301526146aa8184614636565b905092915050565b5f82825260208201905092915050565b5f6146cc82613e62565b6146d681856146b2565b93506146e6818560208601613e7c565b6146ef81613ea4565b840191505092915050565b5f6101208201905061470e5f83018c613bb8565b8181036020830152614720818b6146c2565b905061472f604083018a613bb8565b61473c606083018961444a565b614749608083018861444a565b61475660a0830187613bb8565b61476360c0830186613bb8565b61477060e0830185613bb8565b61477e61010083018461444a565b9a9950505050505050505050565b5f80604083850312156147a2576147a1613ae9565b5b5f6147af85828601613b66565b92505060206147c085828601613b66565b9150509250929050565b5f6020820190506147dd5f83018461444a565b92915050565b7f4e487b71000000000000000000000000000000000000000000000000000000005f52604160045260245ffd5b7f4e487b71000000000000000000000000000000000000000000000000000000005f52601160045260245ffd5b5f61484782613b47565b915061485283613b47565b925082820261486081613b47565b9150828204841483151761487757614876614810565b5b5092915050565b5f61488882613b47565b915061489383613b47565b92508282039050818111156148ab576148aa614810565b5b92915050565b7f4e487b71000000000000000000000000000000000000000000000000000000005f52603260045260245ffd5b5f6148e882613b47565b91507fffffffffffffffffffffffffffffffffffffffffffffffffffffffffffffffff820361491a57614919614810565b5b600182019050919050565b5f61492f82613b47565b91505f820361494157614940614810565b5b600182039050919050565b7f4e487b71000000000000000000000000000000000000000000000000000000005f52602260045260245ffd5b5f600282049050600182168061499057607f821691505b6020821081036149a3576149a261494c565b5b50919050565b7f496e76616c6964207573657221000000000000000000000000000000000000005f82015250565b5f6149dd600d836146b2565b91506149e8826149a9565b602082019050919050565b5f6020820190508181035f830152614a0a816149d1565b9050919050565b7f596f7520617265206e6f7420616c6c6f776564210000000000000000000000005f82015250565b5f614a456014836146b2565b9150614a5082614a11565b602082019050919050565b5f6020820190508181035f830152614a7281614a39565b9050919050565b5f614a8382613b47565b9150614a8e83613b47565b9250828201905080821115614aa657614aa5614810565b5b92915050565b7f496e73756666696369656e742066756e647321000000000000000000000000005f82015250565b5f614ae06013836146b2565b9150614aeb82614aac565b602082019050919050565b5f6020820190508181035f830152614b0d81614ad4565b9050919050565b7f4e487b71000000000000000000000000000000000000000000000000000000005f52601260045260245ffd5b5f614b4b82613b47565b9150614b5683613b47565b925082614b6657614b65614b14565b5b828204905092915050565b7f596f7520617265206e6f7420616c6c6f776564000000000000000000000000005f82015250565b5f614ba56013836146b2565b9150614bb082614b71565b602082019050919050565b5f6020820190508181035f830152614bd281614b99565b9050919050565b7f496e76616c69642073706f6e736f7221000000000000000000000000000000005f82015250565b5f614c0d6010836146b2565b9150614c1882614bd9565b602082019050919050565b5f6020820190508181035f830152614c3a81614c01565b9050919050565b7f416c7265616479207265676973746572656421000000000000000000000000005f82015250565b5f614c756013836146b2565b9150614c8082614c41565b602082019050919050565b5f6020820190508181035f830152614ca281614c69565b9050919050565b5f604082019050614cbc5f830185613c07565b614cc96020830184613bb8565b9392505050565b614cd981613eec565b8114614ce3575f80fd5b50565b5f81519050614cf481614cd0565b92915050565b5f60208284031215614d0f57614d0e613ae9565b5b5f614d1c84828501614ce6565b91505092915050565b5f81519050614d3381613b50565b92915050565b5f60208284031215614d4e57614d4d613ae9565b5b5f614d5b84828501614d25565b91505092915050565b7f596f7520617265206e6f742072656769737465726564210000000000000000005f82015250565b5f614d986017836146b2565b9150614da382614d64565b602082019050919050565b5f6020820190508181035f830152614dc581614d8c565b9050919050565b5f606082019050614ddf5f830186613c07565b614dec6020830185613c07565b614df96040830184613bb8565b949350505050565b7f496e76616c696420616d6f756e742100000000000000000000000000000000005f82015250565b5f614e35600f836146b2565b9150614e4082614e01565b602082019050919050565b5f6020820190508181035f830152614e6281614e29565b905091905056fea26469706673582212205f2f9cd221a5a3d7a96e400596b113ba37762ae63b97e2d9bf40ffc22caf0b7764736f6c63430008140033",
			"opcodes": "PUSH1 0x80 PUSH1 0x40 MSTORE PUSH0 DUP1 SSTORE PUSH0 PUSH1 0x1 SSTORE PUSH0 PUSH1 0x2 SSTORE PUSH1 0x1 PUSH1 0x3 PUSH0 PUSH2 0x100 EXP DUP2 SLOAD DUP2 PUSH1 0xFF MUL NOT AND SWAP1 DUP4 ISZERO ISZERO MUL OR SWAP1 SSTORE POP PUSH0 PUSH1 0x4 SSTORE PUSH0 PUSH1 0x5 SSTORE PUSH1 0x1 PUSH1 0x6 PUSH0 PUSH2 0x100 EXP DUP2 SLOAD DUP2 PUSH1 0xFF MUL NOT AND SWAP1 DUP4 ISZERO ISZERO MUL OR SWAP1 SSTORE POP PUSH1 0x1 PUSH1 0x6 PUSH1 0x1 PUSH2 0x100 EXP DUP2 SLOAD DUP2 PUSH1 0xFF MUL NOT AND SWAP1 DUP4 ISZERO ISZERO MUL OR SWAP1 SSTORE POP PUSH0 PUSH1 0x7 SSTORE CALLVALUE DUP1 ISZERO PUSH3 0x76 JUMPI PUSH0 DUP1 REVERT JUMPDEST POP PUSH3 0x87 PUSH3 0x8D PUSH1 0x20 SHL PUSH1 0x20 SHR JUMP JUMPDEST PUSH3 0x16AE JUMP JUMPDEST PUSH3 0x9D PUSH3 0xCF PUSH1 0x20 SHL PUSH1 0x20 SHR JUMP JUMPDEST PUSH3 0xAD PUSH3 0x24B PUSH1 0x20 SHL PUSH1 0x20 SHR JUMP JUMPDEST PUSH3 0xBD PUSH3 0x5F4 PUSH1 0x20 SHL PUSH1 0x20 SHR JUMP JUMPDEST PUSH3 0xCD PUSH3 0x821 PUSH1 0x20 SHL PUSH1 0x20 SHR JUMP JUMPDEST JUMP JUMPDEST PUSH1 0x7 PUSH0 DUP2 SLOAD DUP1 SWAP3 SWAP2 SWAP1 PUSH3 0xE3 SWAP1 PUSH3 0x10FF JUMP JUMPDEST SWAP2 SWAP1 POP SSTORE POP PUSH1 0x40 MLOAD DUP1 PUSH2 0x120 ADD PUSH1 0x40 MSTORE DUP1 PUSH1 0x7 SLOAD DUP2 MSTORE PUSH1 0x20 ADD PUSH1 0x40 MLOAD DUP1 PUSH1 0x40 ADD PUSH1 0x40 MSTORE DUP1 PUSH1 0x7 DUP2 MSTORE PUSH1 0x20 ADD PUSH32 0x5061636B61676500000000000000000000000000000000000000000000000000 DUP2 MSTORE POP DUP2 MSTORE PUSH1 0x20 ADD PUSH0 DUP2 MSTORE PUSH1 0x20 ADD PUSH1 0x1 ISZERO ISZERO DUP2 MSTORE PUSH1 0x20 ADD PUSH1 0x1 ISZERO ISZERO DUP2 MSTORE PUSH1 0x20 ADD PUSH3 0x161 PUSH1 0x1E PUSH3 0x84E PUSH1 0x20 SHL PUSH1 0x20 SHR JUMP JUMPDEST DUP2 MSTORE PUSH1 0x20 ADD PUSH3 0x179 PUSH2 0xBB8 PUSH3 0x84E PUSH1 0x20 SHL PUSH1 0x20 SHR JUMP JUMPDEST DUP2 MSTORE PUSH1 0x20 ADD PUSH1 0x14 DUP2 MSTORE PUSH1 0x20 ADD PUSH1 0x1 ISZERO ISZERO DUP2 MSTORE POP PUSH1 0x8 PUSH0 PUSH1 0x7 SLOAD DUP2 MSTORE PUSH1 0x20 ADD SWAP1 DUP2 MSTORE PUSH1 0x20 ADD PUSH0 KECCAK256 PUSH0 DUP3 ADD MLOAD DUP2 PUSH0 ADD SSTORE PUSH1 0x20 DUP3 ADD MLOAD DUP2 PUSH1 0x1 ADD SWAP1 DUP2 PUSH3 0x1BE SWAP2 SWAP1 PUSH3 0x13A6 JUMP JUMPDEST POP PUSH1 0x40 DUP3 ADD MLOAD DUP2 PUSH1 0x2 ADD SSTORE PUSH1 0x60 DUP3 ADD MLOAD DUP2 PUSH1 0x3 ADD PUSH0 PUSH2 0x100 EXP DUP2 SLOAD DUP2 PUSH1 0xFF MUL NOT AND SWAP1 DUP4 ISZERO ISZERO MUL OR SWAP1 SSTORE POP PUSH1 0x80 DUP3 ADD MLOAD DUP2 PUSH1 0x3 ADD PUSH1 0x1 PUSH2 0x100 EXP DUP2 SLOAD DUP2 PUSH1 0xFF MUL NOT AND SWAP1 DUP4 ISZERO ISZERO MUL OR SWAP1 SSTORE POP PUSH1 0xA0 DUP3 ADD MLOAD DUP2 PUSH1 0x4 ADD SSTORE PUSH1 0xC0 DUP3 ADD MLOAD DUP2 PUSH1 0x5 ADD SSTORE PUSH1 0xE0 DUP3 ADD MLOAD DUP2 PUSH1 0x6 ADD SSTORE PUSH2 0x100 DUP3 ADD MLOAD DUP2 PUSH1 0x7 ADD PUSH0 PUSH2 0x100 EXP DUP2 SLOAD DUP2 PUSH1 0xFF MUL NOT AND SWAP1 DUP4 ISZERO ISZERO MUL OR SWAP1 SSTORE POP SWAP1 POP POP JUMP JUMPDEST PUSH1 0x4 PUSH0 DUP2 SLOAD DUP1 SWAP3 SWAP2 SWAP1 PUSH3 0x25F SWAP1 PUSH3 0x10FF JUMP JUMPDEST SWAP2 SWAP1 POP SSTORE POP PUSH1 0x40 MLOAD DUP1 PUSH1 0xE0 ADD PUSH1 0x40 MSTORE DUP1 PUSH1 0x4 SLOAD DUP2 MSTORE PUSH1 0x20 ADD PUSH1 0x50 DUP2 MSTORE PUSH1 0x20 ADD PUSH3 0x290 PUSH1 0x5 PUSH3 0x84E PUSH1 0x20 SHL PUSH1 0x20 SHR JUMP JUMPDEST DUP2 MSTORE PUSH1 0x20 ADD PUSH1 0x1 DUP2 MSTORE PUSH1 0x20 ADD PUSH0 DUP2 MSTORE PUSH1 0x20 ADD PUSH0 DUP2 MSTORE PUSH1 0x20 ADD PUSH0 DUP2 MSTORE POP PUSH1 0x9 PUSH0 PUSH1 0x4 SLOAD DUP2 MSTORE PUSH1 0x20 ADD SWAP1 DUP2 MSTORE PUSH1 0x20 ADD PUSH0 KECCAK256 PUSH0 DUP3 ADD MLOAD DUP2 PUSH0 ADD SSTORE PUSH1 0x20 DUP3 ADD MLOAD DUP2 PUSH1 0x1 ADD SSTORE PUSH1 0x40 DUP3 ADD MLOAD DUP2 PUSH1 0x2 ADD SSTORE PUSH1 0x60 DUP3 ADD MLOAD DUP2 PUSH1 0x3 ADD SSTORE PUSH1 0x80 DUP3 ADD MLOAD DUP2 PUSH1 0x4 ADD SSTORE PUSH1 0xA0 DUP3 ADD MLOAD DUP2 PUSH1 0x5 ADD SSTORE PUSH1 0xC0 DUP3 ADD MLOAD DUP2 PUSH1 0x6 ADD SSTORE SWAP1 POP POP PUSH1 0x4 PUSH0 DUP2 SLOAD DUP1 SWAP3 SWAP2 SWAP1 PUSH3 0x31A SWAP1 PUSH3 0x10FF JUMP JUMPDEST SWAP2 SWAP1 POP SSTORE POP PUSH1 0x40 MLOAD DUP1 PUSH1 0xE0 ADD PUSH1 0x40 MSTORE DUP1 PUSH1 0x4 SLOAD DUP2 MSTORE PUSH1 0x20 ADD PUSH1 0x3C DUP2 MSTORE PUSH1 0x20 ADD PUSH3 0x34B PUSH1 0xA PUSH3 0x84E PUSH1 0x20 SHL PUSH1 0x20 SHR JUMP JUMPDEST DUP2 MSTORE PUSH1 0x20 ADD PUSH1 0x1 DUP2 MSTORE PUSH1 0x20 ADD PUSH0 DUP2 MSTORE PUSH1 0x20 ADD PUSH0 DUP2 MSTORE PUSH1 0x20 ADD PUSH0 DUP2 MSTORE POP PUSH1 0x9 PUSH0 PUSH1 0x4 SLOAD DUP2 MSTORE PUSH1 0x20 ADD SWAP1 DUP2 MSTORE PUSH1 0x20 ADD PUSH0 KECCAK256 PUSH0 DUP3 ADD MLOAD DUP2 PUSH0 ADD SSTORE PUSH1 0x20 DUP3 ADD MLOAD DUP2 PUSH1 0x1 ADD SSTORE PUSH1 0x40 DUP3 ADD MLOAD DUP2 PUSH1 0x2 ADD SSTORE PUSH1 0x60 DUP3 ADD MLOAD DUP2 PUSH1 0x3 ADD SSTORE PUSH1 0x80 DUP3 ADD MLOAD DUP2 PUSH1 0x4 ADD SSTORE PUSH1 0xA0 DUP3 ADD MLOAD DUP2 PUSH1 0x5 ADD SSTORE PUSH1 0xC0 DUP3 ADD MLOAD DUP2 PUSH1 0x6 ADD SSTORE SWAP1 POP POP PUSH1 0x4 PUSH0 DUP2 SLOAD DUP1 SWAP3 SWAP2 SWAP1 PUSH3 0x3D5 SWAP1 PUSH3 0x10FF JUMP JUMPDEST SWAP2 SWAP1 POP SSTORE POP PUSH1 0x40 MLOAD DUP1 PUSH1 0xE0 ADD PUSH1 0x40 MSTORE DUP1 PUSH1 0x4 SLOAD DUP2 MSTORE PUSH1 0x20 ADD PUSH1 0x28 DUP2 MSTORE PUSH1 0x20 ADD PUSH3 0x406 PUSH1 0xF PUSH3 0x84E PUSH1 0x20 SHL PUSH1 0x20 SHR JUMP JUMPDEST DUP2 MSTORE PUSH1 0x20 ADD PUSH1 0x2 DUP2 MSTORE PUSH1 0x20 ADD PUSH0 DUP2 MSTORE PUSH1 0x20 ADD PUSH0 DUP2 MSTORE PUSH1 0x20 ADD PUSH0 DUP2 MSTORE POP PUSH1 0x9 PUSH0 PUSH1 0x4 SLOAD DUP2 MSTORE PUSH1 0x20 ADD SWAP1 DUP2 MSTORE PUSH1 0x20 ADD PUSH0 KECCAK256 PUSH0 DUP3 ADD MLOAD DUP2 PUSH0 ADD SSTORE PUSH1 0x20 DUP3 ADD MLOAD DUP2 PUSH1 0x1 ADD SSTORE PUSH1 0x40 DUP3 ADD MLOAD DUP2 PUSH1 0x2 ADD SSTORE PUSH1 0x60 DUP3 ADD MLOAD DUP2 PUSH1 0x3 ADD SSTORE PUSH1 0x80 DUP3 ADD MLOAD DUP2 PUSH1 0x4 ADD SSTORE PUSH1 0xA0 DUP3 ADD MLOAD DUP2 PUSH1 0x5 ADD SSTORE PUSH1 0xC0 DUP3 ADD MLOAD DUP2 PUSH1 0x6 ADD SSTORE SWAP1 POP POP PUSH1 0x4 PUSH0 DUP2 SLOAD DUP1 SWAP3 SWAP2 SWAP1 PUSH3 0x490 SWAP1 PUSH3 0x10FF JUMP JUMPDEST SWAP2 SWAP1 POP SSTORE POP PUSH1 0x40 MLOAD DUP1 PUSH1 0xE0 ADD PUSH1 0x40 MSTORE DUP1 PUSH1 0x4 SLOAD DUP2 MSTORE PUSH1 0x20 ADD PUSH1 0x14 DUP2 MSTORE PUSH1 0x20 ADD PUSH3 0x4C1 PUSH1 0x14 PUSH3 0x84E PUSH1 0x20 SHL PUSH1 0x20 SHR JUMP JUMPDEST DUP2 MSTORE PUSH1 0x20 ADD PUSH1 0x3 DUP2 MSTORE PUSH1 0x20 ADD PUSH0 DUP2 MSTORE PUSH1 0x20 ADD PUSH0 DUP2 MSTORE PUSH1 0x20 ADD PUSH0 DUP2 MSTORE POP PUSH1 0x9 PUSH0 PUSH1 0x4 SLOAD DUP2 MSTORE PUSH1 0x20 ADD SWAP1 DUP2 MSTORE PUSH1 0x20 ADD PUSH0 KECCAK256 PUSH0 DUP3 ADD MLOAD DUP2 PUSH0 ADD SSTORE PUSH1 0x20 DUP3 ADD MLOAD DUP2 PUSH1 0x1 ADD SSTORE PUSH1 0x40 DUP3 ADD MLOAD DUP2 PUSH1 0x2 ADD SSTORE PUSH1 0x60 DUP3 ADD MLOAD DUP2 PUSH1 0x3 ADD SSTORE PUSH1 0x80 DUP3 ADD MLOAD DUP2 PUSH1 0x4 ADD SSTORE PUSH1 0xA0 DUP3 ADD MLOAD DUP2 PUSH1 0x5 ADD SSTORE PUSH1 0xC0 DUP3 ADD MLOAD DUP2 PUSH1 0x6 ADD SSTORE SWAP1 POP POP PUSH1 0x4 PUSH0 DUP2 SLOAD DUP1 SWAP3 SWAP2 SWAP1 PUSH3 0x54B SWAP1 PUSH3 0x10FF JUMP JUMPDEST SWAP2 SWAP1 POP SSTORE POP PUSH1 0x40 MLOAD DUP1 PUSH1 0xE0 ADD PUSH1 0x40 MSTORE DUP1 PUSH1 0x4 SLOAD DUP2 MSTORE PUSH1 0x20 ADD PUSH1 0x14 DUP2 MSTORE PUSH1 0x20 ADD PUSH3 0x57C PUSH1 0x14 PUSH3 0x84E PUSH1 0x20 SHL PUSH1 0x20 SHR JUMP JUMPDEST DUP2 MSTORE PUSH1 0x20 ADD PUSH1 0x3 DUP2 MSTORE PUSH1 0x20 ADD PUSH0 DUP2 MSTORE PUSH1 0x20 ADD PUSH0 DUP2 MSTORE PUSH1 0x20 ADD PUSH0 DUP2 MSTORE POP PUSH1 0x9 PUSH0 PUSH1 0x4 SLOAD DUP2 MSTORE PUSH1 0x20 ADD SWAP1 DUP2 MSTORE PUSH1 0x20 ADD PUSH0 KECCAK256 PUSH0 DUP3 ADD MLOAD DUP2 PUSH0 ADD SSTORE PUSH1 0x20 DUP3 ADD MLOAD DUP2 PUSH1 0x1 ADD SSTORE PUSH1 0x40 DUP3 ADD MLOAD DUP2 PUSH1 0x2 ADD SSTORE PUSH1 0x60 DUP3 ADD MLOAD DUP2 PUSH1 0x3 ADD SSTORE PUSH1 0x80 DUP3 ADD MLOAD DUP2 PUSH1 0x4 ADD SSTORE PUSH1 0xA0 DUP3 ADD MLOAD DUP2 PUSH1 0x5 ADD SSTORE PUSH1 0xC0 DUP3 ADD MLOAD DUP2 PUSH1 0x6 ADD SSTORE SWAP1 POP POP JUMP JUMPDEST PUSH1 0x5 PUSH0 DUP2 SLOAD DUP1 SWAP3 SWAP2 SWAP1 PUSH3 0x608 SWAP1 PUSH3 0x10FF JUMP JUMPDEST SWAP2 SWAP1 POP SSTORE POP PUSH1 0x40 MLOAD DUP1 PUSH1 0xE0 ADD PUSH1 0x40 MSTORE DUP1 PUSH1 0x5 SLOAD DUP2 MSTORE PUSH1 0x20 ADD PUSH1 0x28 DUP2 MSTORE PUSH1 0x20 ADD PUSH3 0x638 PUSH0 PUSH3 0x84E PUSH1 0x20 SHL PUSH1 0x20 SHR JUMP JUMPDEST DUP2 MSTORE PUSH1 0x20 ADD PUSH0 DUP2 MSTORE PUSH1 0x20 ADD PUSH0 DUP2 MSTORE PUSH1 0x20 ADD PUSH0 DUP2 MSTORE PUSH1 0x20 ADD PUSH0 DUP2 MSTORE POP PUSH1 0xA PUSH0 PUSH1 0x5 SLOAD DUP2 MSTORE PUSH1 0x20 ADD SWAP1 DUP2 MSTORE PUSH1 0x20 ADD PUSH0 KECCAK256 PUSH0 DUP3 ADD MLOAD DUP2 PUSH0 ADD SSTORE PUSH1 0x20 DUP3 ADD MLOAD DUP2 PUSH1 0x1 ADD SSTORE PUSH1 0x40 DUP3 ADD MLOAD DUP2 PUSH1 0x2 ADD SSTORE PUSH1 0x60 DUP3 ADD MLOAD DUP2 PUSH1 0x3 ADD SSTORE PUSH1 0x80 DUP3 ADD MLOAD DUP2 PUSH1 0x4 ADD SSTORE PUSH1 0xA0 DUP3 ADD MLOAD DUP2 PUSH1 0x5 ADD SSTORE PUSH1 0xC0 DUP3 ADD MLOAD DUP2 PUSH1 0x6 ADD SSTORE SWAP1 POP POP PUSH1 0x5 PUSH0 DUP2 SLOAD DUP1 SWAP3 SWAP2 SWAP1 PUSH3 0x6C1 SWAP1 PUSH3 0x10FF JUMP JUMPDEST SWAP2 SWAP1 POP SSTORE POP PUSH1 0x40 MLOAD DUP1 PUSH1 0xE0 ADD PUSH1 0x40 MSTORE DUP1 PUSH1 0x5 SLOAD DUP2 MSTORE PUSH1 0x20 ADD PUSH1 0x28 DUP2 MSTORE PUSH1 0x20 ADD PUSH3 0x6F1 PUSH0 PUSH3 0x84E PUSH1 0x20 SHL PUSH1 0x20 SHR JUMP JUMPDEST DUP2 MSTORE PUSH1 0x20 ADD PUSH0 DUP2 MSTORE PUSH1 0x20 ADD PUSH0 DUP2 MSTORE PUSH1 0x20 ADD PUSH0 DUP2 MSTORE PUSH1 0x20 ADD PUSH0 DUP2 MSTORE POP PUSH1 0xA PUSH0 PUSH1 0x5 SLOAD DUP2 MSTORE PUSH1 0x20 ADD SWAP1 DUP2 MSTORE PUSH1 0x20 ADD PUSH0 KECCAK256 PUSH0 DUP3 ADD MLOAD DUP2 PUSH0 ADD SSTORE PUSH1 0x20 DUP3 ADD MLOAD DUP2 PUSH1 0x1 ADD SSTORE PUSH1 0x40 DUP3 ADD MLOAD DUP2 PUSH1 0x2 ADD SSTORE PUSH1 0x60 DUP3 ADD MLOAD DUP2 PUSH1 0x3 ADD SSTORE PUSH1 0x80 DUP3 ADD MLOAD DUP2 PUSH1 0x4 ADD SSTORE PUSH1 0xA0 DUP3 ADD MLOAD DUP2 PUSH1 0x5 ADD SSTORE PUSH1 0xC0 DUP3 ADD MLOAD DUP2 PUSH1 0x6 ADD SSTORE SWAP1 POP POP PUSH1 0x5 PUSH0 DUP2 SLOAD DUP1 SWAP3 SWAP2 SWAP1 PUSH3 0x77A SWAP1 PUSH3 0x10FF JUMP JUMPDEST SWAP2 SWAP1 POP SSTORE POP PUSH1 0x40 MLOAD DUP1 PUSH1 0xE0 ADD PUSH1 0x40 MSTORE DUP1 PUSH1 0x5 SLOAD DUP2 MSTORE PUSH1 0x20 ADD PUSH1 0x28 DUP2 MSTORE PUSH1 0x20 ADD PUSH3 0x7AA PUSH0 PUSH3 0x84E PUSH1 0x20 SHL PUSH1 0x20 SHR JUMP JUMPDEST DUP2 MSTORE PUSH1 0x20 ADD PUSH0 DUP2 MSTORE PUSH1 0x20 ADD PUSH0 DUP2 MSTORE PUSH1 0x20 ADD PUSH0 DUP2 MSTORE PUSH1 0x20 ADD PUSH0 DUP2 MSTORE POP PUSH1 0xA PUSH0 PUSH1 0x5 SLOAD DUP2 MSTORE PUSH1 0x20 ADD SWAP1 DUP2 MSTORE PUSH1 0x20 ADD PUSH0 KECCAK256 PUSH0 DUP3 ADD MLOAD DUP2 PUSH0 ADD SSTORE PUSH1 0x20 DUP3 ADD MLOAD DUP2 PUSH1 0x1 ADD SSTORE PUSH1 0x40 DUP3 ADD MLOAD DUP2 PUSH1 0x2 ADD SSTORE PUSH1 0x60 DUP3 ADD MLOAD DUP2 PUSH1 0x3 ADD SSTORE PUSH1 0x80 DUP3 ADD MLOAD DUP2 PUSH1 0x4 ADD SSTORE PUSH1 0xA0 DUP3 ADD MLOAD DUP2 PUSH1 0x5 ADD SSTORE PUSH1 0xC0 DUP3 ADD MLOAD DUP2 PUSH1 0x6 ADD SSTORE SWAP1 POP POP JUMP JUMPDEST PUSH0 PUSH20 0x1419AC3544770AC32FBC3E70129E7EB0197612F6 SWAP1 POP PUSH3 0x84B DUP2 PUSH0 PUSH3 0x873 PUSH1 0x20 SHL PUSH1 0x20 SHR JUMP JUMPDEST POP JUMP JUMPDEST PUSH0 PUSH1 0x12 PUSH1 0xA PUSH3 0x85F SWAP2 SWAP1 PUSH3 0x15DA JUMP JUMPDEST DUP3 PUSH3 0x86C SWAP2 SWAP1 PUSH3 0x162A JUMP JUMPDEST SWAP1 POP SWAP2 SWAP1 POP JUMP JUMPDEST PUSH0 DUP1 DUP2 SLOAD DUP1 SWAP3 SWAP2 SWAP1 PUSH3 0x886 SWAP1 PUSH3 0x10FF JUMP JUMPDEST SWAP2 SWAP1 POP SSTORE POP PUSH0 PUSH1 0x40 MLOAD DUP1 PUSH2 0x120 ADD PUSH1 0x40 MSTORE DUP1 PUSH0 SLOAD DUP2 MSTORE PUSH1 0x20 ADD DUP5 PUSH20 0xFFFFFFFFFFFFFFFFFFFFFFFFFFFFFFFFFFFFFFFF AND DUP2 MSTORE PUSH1 0x20 ADD DUP4 PUSH20 0xFFFFFFFFFFFFFFFFFFFFFFFFFFFFFFFFFFFFFFFF AND DUP2 MSTORE PUSH1 0x20 ADD TIMESTAMP DUP2 MSTORE PUSH1 0x20 ADD PUSH0 DUP2 MSTORE PUSH1 0x20 ADD PUSH0 DUP2 MSTORE PUSH1 0x20 ADD PUSH0 ISZERO ISZERO DUP2 MSTORE PUSH1 0x20 ADD PUSH0 DUP2 MSTORE PUSH1 0x20 ADD PUSH0 DUP2 MSTORE POP SWAP1 POP PUSH0 PUSH1 0x40 MLOAD DUP1 PUSH1 0xC0 ADD PUSH1 0x40 MSTORE DUP1 PUSH0 DUP2 MSTORE PUSH1 0x20 ADD PUSH0 PUSH8 0xFFFFFFFFFFFFFFFF DUP2 GT ISZERO PUSH3 0x92C JUMPI PUSH3 0x92B PUSH3 0x1155 JUMP JUMPDEST JUMPDEST PUSH1 0x40 MLOAD SWAP1 DUP1 DUP3 MSTORE DUP1 PUSH1 0x20 MUL PUSH1 0x20 ADD DUP3 ADD PUSH1 0x40 MSTORE DUP1 ISZERO PUSH3 0x95B JUMPI DUP2 PUSH1 0x20 ADD PUSH1 0x20 DUP3 MUL DUP1 CALLDATASIZE DUP4 CALLDATACOPY DUP1 DUP3 ADD SWAP2 POP POP SWAP1 POP JUMPDEST POP DUP2 MSTORE PUSH1 0x20 ADD PUSH0 DUP2 MSTORE PUSH1 0x20 ADD PUSH0 DUP2 MSTORE PUSH1 0x20 ADD PUSH0 DUP2 MSTORE PUSH1 0x20 ADD PUSH0 PUSH8 0xFFFFFFFFFFFFFFFF DUP2 GT ISZERO PUSH3 0x990 JUMPI PUSH3 0x98F PUSH3 0x1155 JUMP JUMPDEST JUMPDEST PUSH1 0x40 MLOAD SWAP1 DUP1 DUP3 MSTORE DUP1 PUSH1 0x20 MUL PUSH1 0x20 ADD DUP3 ADD PUSH1 0x40 MSTORE DUP1 ISZERO PUSH3 0x9BF JUMPI DUP2 PUSH1 0x20 ADD PUSH1 0x20 DUP3 MUL DUP1 CALLDATASIZE DUP4 CALLDATACOPY DUP1 DUP3 ADD SWAP2 POP POP SWAP1 POP JUMPDEST POP DUP2 MSTORE POP SWAP1 POP PUSH0 PUSH1 0x40 MLOAD DUP1 PUSH1 0x80 ADD PUSH1 0x40 MSTORE DUP1 PUSH0 DUP2 MSTORE PUSH1 0x20 ADD PUSH1 0x1 PUSH1 0x4 SLOAD PUSH3 0x9E8 SWAP2 SWAP1 PUSH3 0x1674 JUMP JUMPDEST PUSH8 0xFFFFFFFFFFFFFFFF DUP2 GT ISZERO PUSH3 0xA04 JUMPI PUSH3 0xA03 PUSH3 0x1155 JUMP JUMPDEST JUMPDEST PUSH1 0x40 MLOAD SWAP1 DUP1 DUP3 MSTORE DUP1 PUSH1 0x20 MUL PUSH1 0x20 ADD DUP3 ADD PUSH1 0x40 MSTORE DUP1 ISZERO PUSH3 0xA33 JUMPI DUP2 PUSH1 0x20 ADD PUSH1 0x20 DUP3 MUL DUP1 CALLDATASIZE DUP4 CALLDATACOPY DUP1 DUP3 ADD SWAP2 POP POP SWAP1 POP JUMPDEST POP DUP2 MSTORE PUSH1 0x20 ADD PUSH1 0x1 PUSH1 0x5 SLOAD PUSH3 0xA4A SWAP2 SWAP1 PUSH3 0x1674 JUMP JUMPDEST PUSH8 0xFFFFFFFFFFFFFFFF DUP2 GT ISZERO PUSH3 0xA66 JUMPI PUSH3 0xA65 PUSH3 0x1155 JUMP JUMPDEST JUMPDEST PUSH1 0x40 MLOAD SWAP1 DUP1 DUP3 MSTORE DUP1 PUSH1 0x20 MUL PUSH1 0x20 ADD DUP3 ADD PUSH1 0x40 MSTORE DUP1 ISZERO PUSH3 0xA95 JUMPI DUP2 PUSH1 0x20 ADD PUSH1 0x20 DUP3 MUL DUP1 CALLDATASIZE DUP4 CALLDATACOPY DUP1 DUP3 ADD SWAP2 POP POP SWAP1 POP JUMPDEST POP DUP2 MSTORE PUSH1 0x20 ADD PUSH0 DUP2 MSTORE POP SWAP1 POP DUP3 PUSH1 0xB PUSH0 DUP8 PUSH20 0xFFFFFFFFFFFFFFFFFFFFFFFFFFFFFFFFFFFFFFFF AND PUSH20 0xFFFFFFFFFFFFFFFFFFFFFFFFFFFFFFFFFFFFFFFF AND DUP2 MSTORE PUSH1 0x20 ADD SWAP1 DUP2 MSTORE PUSH1 0x20 ADD PUSH0 KECCAK256 PUSH0 DUP3 ADD MLOAD DUP2 PUSH0 ADD SSTORE PUSH1 0x20 DUP3 ADD MLOAD DUP2 PUSH1 0x1 ADD PUSH0 PUSH2 0x100 EXP DUP2 SLOAD DUP2 PUSH20 0xFFFFFFFFFFFFFFFFFFFFFFFFFFFFFFFFFFFFFFFF MUL NOT AND SWAP1 DUP4 PUSH20 0xFFFFFFFFFFFFFFFFFFFFFFFFFFFFFFFFFFFFFFFF AND MUL OR SWAP1 SSTORE POP PUSH1 0x40 DUP3 ADD MLOAD DUP2 PUSH1 0x2 ADD PUSH0 PUSH2 0x100 EXP DUP2 SLOAD DUP2 PUSH20 0xFFFFFFFFFFFFFFFFFFFFFFFFFFFFFFFFFFFFFFFF MUL NOT AND SWAP1 DUP4 PUSH20 0xFFFFFFFFFFFFFFFFFFFFFFFFFFFFFFFFFFFFFFFF AND MUL OR SWAP1 SSTORE POP PUSH1 0x60 DUP3 ADD MLOAD DUP2 PUSH1 0x3 ADD SSTORE PUSH1 0x80 DUP3 ADD MLOAD DUP2 PUSH1 0x4 ADD SSTORE PUSH1 0xA0 DUP3 ADD MLOAD DUP2 PUSH1 0x5 ADD SSTORE PUSH1 0xC0 DUP3 ADD MLOAD DUP2 PUSH1 0x6 ADD PUSH0 PUSH2 0x100 EXP DUP2 SLOAD DUP2 PUSH1 0xFF MUL NOT AND SWAP1 DUP4 ISZERO ISZERO MUL OR SWAP1 SSTORE POP PUSH1 0xE0 DUP3 ADD MLOAD DUP2 PUSH1 0x7 ADD SSTORE PUSH2 0x100 DUP3 ADD MLOAD DUP2 PUSH1 0x8 ADD SSTORE SWAP1 POP POP DUP2 PUSH1 0xD PUSH0 DUP8 PUSH20 0xFFFFFFFFFFFFFFFFFFFFFFFFFFFFFFFFFFFFFFFF AND PUSH20 0xFFFFFFFFFFFFFFFFFFFFFFFFFFFFFFFFFFFFFFFF AND DUP2 MSTORE PUSH1 0x20 ADD SWAP1 DUP2 MSTORE PUSH1 0x20 ADD PUSH0 KECCAK256 PUSH0 DUP3 ADD MLOAD DUP2 PUSH0 ADD SSTORE PUSH1 0x20 DUP3 ADD MLOAD DUP2 PUSH1 0x1 ADD SWAP1 DUP1 MLOAD SWAP1 PUSH1 0x20 ADD SWAP1 PUSH3 0xC2C SWAP3 SWAP2 SWAP1 PUSH3 0xFD0 JUMP JUMPDEST POP PUSH1 0x40 DUP3 ADD MLOAD DUP2 PUSH1 0x2 ADD SSTORE PUSH1 0x60 DUP3 ADD MLOAD DUP2 PUSH1 0x3 ADD SSTORE PUSH1 0x80 DUP3 ADD MLOAD DUP2 PUSH1 0x4 ADD SSTORE PUSH1 0xA0 DUP3 ADD MLOAD DUP2 PUSH1 0x5 ADD SWAP1 DUP1 MLOAD SWAP1 PUSH1 0x20 ADD SWAP1 PUSH3 0xC69 SWAP3 SWAP2 SWAP1 PUSH3 0xFD0 JUMP JUMPDEST POP SWAP1 POP POP DUP1 PUSH1 0x12 PUSH0 DUP8 PUSH20 0xFFFFFFFFFFFFFFFFFFFFFFFFFFFFFFFFFFFFFFFF AND PUSH20 0xFFFFFFFFFFFFFFFFFFFFFFFFFFFFFFFFFFFFFFFF AND DUP2 MSTORE PUSH1 0x20 ADD SWAP1 DUP2 MSTORE PUSH1 0x20 ADD PUSH0 KECCAK256 PUSH0 DUP3 ADD MLOAD DUP2 PUSH0 ADD SSTORE PUSH1 0x20 DUP3 ADD MLOAD DUP2 PUSH1 0x1 ADD SWAP1 DUP1 MLOAD SWAP1 PUSH1 0x20 ADD SWAP1 PUSH3 0xCD1 SWAP3 SWAP2 SWAP1 PUSH3 0x105C JUMP JUMPDEST POP PUSH1 0x40 DUP3 ADD MLOAD DUP2 PUSH1 0x2 ADD SWAP1 DUP1 MLOAD SWAP1 PUSH1 0x20 ADD SWAP1 PUSH3 0xCF0 SWAP3 SWAP2 SWAP1 PUSH3 0x105C JUMP JUMPDEST POP PUSH1 0x60 DUP3 ADD MLOAD DUP2 PUSH1 0x3 ADD SSTORE SWAP1 POP POP DUP5 PUSH1 0xC PUSH0 DUP1 SLOAD DUP2 MSTORE PUSH1 0x20 ADD SWAP1 DUP2 MSTORE PUSH1 0x20 ADD PUSH0 KECCAK256 PUSH0 PUSH2 0x100 EXP DUP2 SLOAD DUP2 PUSH20 0xFFFFFFFFFFFFFFFFFFFFFFFFFFFFFFFFFFFFFFFF MUL NOT AND SWAP1 DUP4 PUSH20 0xFFFFFFFFFFFFFFFFFFFFFFFFFFFFFFFFFFFFFFFF AND MUL OR SWAP1 SSTORE POP PUSH0 PUSH20 0xFFFFFFFFFFFFFFFFFFFFFFFFFFFFFFFFFFFFFFFF AND DUP5 PUSH20 0xFFFFFFFFFFFFFFFFFFFFFFFFFFFFFFFFFFFFFFFF AND EQ PUSH3 0xE21 JUMPI PUSH1 0xD PUSH0 DUP6 PUSH20 0xFFFFFFFFFFFFFFFFFFFFFFFFFFFFFFFFFFFFFFFF AND PUSH20 0xFFFFFFFFFFFFFFFFFFFFFFFFFFFFFFFFFFFFFFFF AND DUP2 MSTORE PUSH1 0x20 ADD SWAP1 DUP2 MSTORE PUSH1 0x20 ADD PUSH0 KECCAK256 PUSH1 0x1 ADD DUP6 SWAP1 DUP1 PUSH1 0x1 DUP2 SLOAD ADD DUP1 DUP3 SSTORE DUP1 SWAP2 POP POP PUSH1 0x1 SWAP1 SUB SWAP1 PUSH0 MSTORE PUSH1 0x20 PUSH0 KECCAK256 ADD PUSH0 SWAP1 SWAP2 SWAP1 SWAP2 SWAP1 SWAP2 PUSH2 0x100 EXP DUP2 SLOAD DUP2 PUSH20 0xFFFFFFFFFFFFFFFFFFFFFFFFFFFFFFFFFFFFFFFF MUL NOT AND SWAP1 DUP4 PUSH20 0xFFFFFFFFFFFFFFFFFFFFFFFFFFFFFFFFFFFFFFFF AND MUL OR SWAP1 SSTORE POP JUMPDEST PUSH3 0xE33 DUP5 DUP7 PUSH3 0xE3A PUSH1 0x20 SHL PUSH1 0x20 SHR JUMP JUMPDEST POP POP POP POP POP JUMP JUMPDEST JUMPDEST PUSH0 PUSH20 0xFFFFFFFFFFFFFFFFFFFFFFFFFFFFFFFFFFFFFFFF AND DUP3 PUSH20 0xFFFFFFFFFFFFFFFFFFFFFFFFFFFFFFFFFFFFFFFF AND EQ PUSH3 0xFCC JUMPI PUSH1 0xB PUSH0 DUP4 PUSH20 0xFFFFFFFFFFFFFFFFFFFFFFFFFFFFFFFFFFFFFFFF AND PUSH20 0xFFFFFFFFFFFFFFFFFFFFFFFFFFFFFFFFFFFFFFFF AND DUP2 MSTORE PUSH1 0x20 ADD SWAP1 DUP2 MSTORE PUSH1 0x20 ADD PUSH0 KECCAK256 PUSH1 0x5 ADD PUSH0 DUP2 SLOAD DUP1 SWAP3 SWAP2 SWAP1 PUSH3 0xEC1 SWAP1 PUSH3 0x10FF JUMP JUMPDEST SWAP2 SWAP1 POP SSTORE POP PUSH1 0xD PUSH0 DUP4 PUSH20 0xFFFFFFFFFFFFFFFFFFFFFFFFFFFFFFFFFFFFFFFF AND PUSH20 0xFFFFFFFFFFFFFFFFFFFFFFFFFFFFFFFFFFFFFFFF AND DUP2 MSTORE PUSH1 0x20 ADD SWAP1 DUP2 MSTORE PUSH1 0x20 ADD PUSH0 KECCAK256 PUSH1 0x5 ADD DUP2 SWAP1 DUP1 PUSH1 0x1 DUP2 SLOAD ADD DUP1 DUP3 SSTORE DUP1 SWAP2 POP POP PUSH1 0x1 SWAP1 SUB SWAP1 PUSH0 MSTORE PUSH1 0x20 PUSH0 KECCAK256 ADD PUSH0 SWAP1 SWAP2 SWAP1 SWAP2 SWAP1 SWAP2 PUSH2 0x100 EXP DUP2 SLOAD DUP2 PUSH20 0xFFFFFFFFFFFFFFFFFFFFFFFFFFFFFFFFFFFFFFFF MUL NOT AND SWAP1 DUP4 PUSH20 0xFFFFFFFFFFFFFFFFFFFFFFFFFFFFFFFFFFFFFFFF AND MUL OR SWAP1 SSTORE POP PUSH1 0xB PUSH0 DUP4 PUSH20 0xFFFFFFFFFFFFFFFFFFFFFFFFFFFFFFFFFFFFFFFF AND PUSH20 0xFFFFFFFFFFFFFFFFFFFFFFFFFFFFFFFFFFFFFFFF AND DUP2 MSTORE PUSH1 0x20 ADD SWAP1 DUP2 MSTORE PUSH1 0x20 ADD PUSH0 KECCAK256 PUSH1 0x2 ADD PUSH0 SWAP1 SLOAD SWAP1 PUSH2 0x100 EXP SWAP1 DIV PUSH20 0xFFFFFFFFFFFFFFFFFFFFFFFFFFFFFFFFFFFFFFFF AND SWAP2 POP PUSH3 0xE3B JUMP JUMPDEST POP POP JUMP JUMPDEST DUP3 DUP1 SLOAD DUP3 DUP3 SSTORE SWAP1 PUSH0 MSTORE PUSH1 0x20 PUSH0 KECCAK256 SWAP1 DUP2 ADD SWAP3 DUP3 ISZERO PUSH3 0x1049 JUMPI SWAP2 PUSH1 0x20 MUL DUP3 ADD JUMPDEST DUP3 DUP2 GT ISZERO PUSH3 0x1048 JUMPI DUP3 MLOAD DUP3 PUSH0 PUSH2 0x100 EXP DUP2 SLOAD DUP2 PUSH20 0xFFFFFFFFFFFFFFFFFFFFFFFFFFFFFFFFFFFFFFFF MUL NOT AND SWAP1 DUP4 PUSH20 0xFFFFFFFFFFFFFFFFFFFFFFFFFFFFFFFFFFFFFFFF AND MUL OR SWAP1 SSTORE POP SWAP2 PUSH1 0x20 ADD SWAP2 SWAP1 PUSH1 0x1 ADD SWAP1 PUSH3 0xFEF JUMP JUMPDEST JUMPDEST POP SWAP1 POP PUSH3 0x1058 SWAP2 SWAP1 PUSH3 0x10AC JUMP JUMPDEST POP SWAP1 JUMP JUMPDEST DUP3 DUP1 SLOAD DUP3 DUP3 SSTORE SWAP1 PUSH0 MSTORE PUSH1 0x20 PUSH0 KECCAK256 SWAP1 DUP2 ADD SWAP3 DUP3 ISZERO PUSH3 0x1099 JUMPI SWAP2 PUSH1 0x20 MUL DUP3 ADD JUMPDEST DUP3 DUP2 GT ISZERO PUSH3 0x1098 JUMPI DUP3 MLOAD DUP3 SSTORE SWAP2 PUSH1 0x20 ADD SWAP2 SWAP1 PUSH1 0x1 ADD SWAP1 PUSH3 0x107B JUMP JUMPDEST JUMPDEST POP SWAP1 POP PUSH3 0x10A8 SWAP2 SWAP1 PUSH3 0x10AC JUMP JUMPDEST POP SWAP1 JUMP JUMPDEST JUMPDEST DUP1 DUP3 GT ISZERO PUSH3 0x10C5 JUMPI PUSH0 DUP2 PUSH0 SWAP1 SSTORE POP PUSH1 0x1 ADD PUSH3 0x10AD JUMP JUMPDEST POP SWAP1 JUMP JUMPDEST PUSH32 0x4E487B7100000000000000000000000000000000000000000000000000000000 PUSH0 MSTORE PUSH1 0x11 PUSH1 0x4 MSTORE PUSH1 0x24 PUSH0 REVERT JUMPDEST PUSH0 DUP2 SWAP1 POP SWAP2 SWAP1 POP JUMP JUMPDEST PUSH0 PUSH3 0x110B DUP3 PUSH3 0x10F6 JUMP JUMPDEST SWAP2 POP PUSH32 0xFFFFFFFFFFFFFFFFFFFFFFFFFFFFFFFFFFFFFFFFFFFFFFFFFFFFFFFFFFFFFFFF DUP3 SUB PUSH3 0x1140 JUMPI PUSH3 0x113F PUSH3 0x10C9 JUMP JUMPDEST JUMPDEST PUSH1 0x1 DUP3 ADD SWAP1 POP SWAP2 SWAP1 POP JUMP JUMPDEST PUSH0 DUP2 MLOAD SWAP1 POP SWAP2 SWAP1 POP JUMP JUMPDEST PUSH32 0x4E487B7100000000000000000000000000000000000000000000000000000000 PUSH0 MSTORE PUSH1 0x41 PUSH1 0x4 MSTORE PUSH1 0x24 PUSH0 REVERT JUMPDEST PUSH32 0x4E487B7100000000000000000000000000000000000000000000000000000000 PUSH0 MSTORE PUSH1 0x22 PUSH1 0x4 MSTORE PUSH1 0x24 PUSH0 REVERT JUMPDEST PUSH0 PUSH1 0x2 DUP3 DIV SWAP1 POP PUSH1 0x1 DUP3 AND DUP1 PUSH3 0x11C7 JUMPI PUSH1 0x7F DUP3 AND SWAP2 POP JUMPDEST PUSH1 0x20 DUP3 LT DUP2 SUB PUSH3 0x11DD JUMPI PUSH3 0x11DC PUSH3 0x1182 JUMP JUMPDEST JUMPDEST POP SWAP2 SWAP1 POP JUMP JUMPDEST PUSH0 DUP2 SWAP1 POP DUP2 PUSH0 MSTORE PUSH1 0x20 PUSH0 KECCAK256 SWAP1 POP SWAP2 SWAP1 POP JUMP JUMPDEST PUSH0 PUSH1 0x20 PUSH1 0x1F DUP4 ADD DIV SWAP1 POP SWAP2 SWAP1 POP JUMP JUMPDEST PUSH0 DUP3 DUP3 SHL SWAP1 POP SWAP3 SWAP2 POP POP JUMP JUMPDEST PUSH0 PUSH1 0x8 DUP4 MUL PUSH3 0x1241 PUSH32 0xFFFFFFFFFFFFFFFFFFFFFFFFFFFFFFFFFFFFFFFFFFFFFFFFFFFFFFFFFFFFFFFF DUP3 PUSH3 0x1204 JUMP JUMPDEST PUSH3 0x124D DUP7 DUP4 PUSH3 0x1204 JUMP JUMPDEST SWAP6 POP DUP1 NOT DUP5 AND SWAP4 POP DUP1 DUP7 AND DUP5 OR SWAP3 POP POP POP SWAP4 SWAP3 POP POP POP JUMP JUMPDEST PUSH0 DUP2 SWAP1 POP SWAP2 SWAP1 POP JUMP JUMPDEST PUSH0 PUSH3 0x128E PUSH3 0x1288 PUSH3 0x1282 DUP5 PUSH3 0x10F6 JUMP JUMPDEST PUSH3 0x1265 JUMP JUMPDEST PUSH3 0x10F6 JUMP JUMPDEST SWAP1 POP SWAP2 SWAP1 POP JUMP JUMPDEST PUSH0 DUP2 SWAP1 POP SWAP2 SWAP1 POP JUMP JUMPDEST PUSH3 0x12A9 DUP4 PUSH3 0x126E JUMP JUMPDEST PUSH3 0x12C1 PUSH3 0x12B8 DUP3 PUSH3 0x1295 JUMP JUMPDEST DUP5 DUP5 SLOAD PUSH3 0x1210 JUMP JUMPDEST DUP3 SSTORE POP POP POP POP JUMP JUMPDEST PUSH0 SWAP1 JUMP JUMPDEST PUSH3 0x12D7 PUSH3 0x12C9 JUMP JUMPDEST PUSH3 0x12E4 DUP2 DUP5 DUP5 PUSH3 0x129E JUMP JUMPDEST POP POP POP JUMP JUMPDEST JUMPDEST DUP2 DUP2 LT ISZERO PUSH3 0x130B JUMPI PUSH3 0x12FF PUSH0 DUP3 PUSH3 0x12CD JUMP JUMPDEST PUSH1 0x1 DUP2 ADD SWAP1 POP PUSH3 0x12EA JUMP JUMPDEST POP POP JUMP JUMPDEST PUSH1 0x1F DUP3 GT ISZERO PUSH3 0x135A JUMPI PUSH3 0x1324 DUP2 PUSH3 0x11E3 JUMP JUMPDEST PUSH3 0x132F DUP5 PUSH3 0x11F5 JUMP JUMPDEST DUP2 ADD PUSH1 0x20 DUP6 LT ISZERO PUSH3 0x133F JUMPI DUP2 SWAP1 POP JUMPDEST PUSH3 0x1357 PUSH3 0x134E DUP6 PUSH3 0x11F5 JUMP JUMPDEST DUP4 ADD DUP3 PUSH3 0x12E9 JUMP JUMPDEST POP POP JUMPDEST POP POP POP JUMP JUMPDEST PUSH0 DUP3 DUP3 SHR SWAP1 POP SWAP3 SWAP2 POP POP JUMP JUMPDEST PUSH0 PUSH3 0x137C PUSH0 NOT DUP5 PUSH1 0x8 MUL PUSH3 0x135F JUMP JUMPDEST NOT DUP1 DUP4 AND SWAP2 POP POP SWAP3 SWAP2 POP POP JUMP JUMPDEST PUSH0 PUSH3 0x1396 DUP4 DUP4 PUSH3 0x136B JUMP JUMPDEST SWAP2 POP DUP3 PUSH1 0x2 MUL DUP3 OR SWAP1 POP SWAP3 SWAP2 POP POP JUMP JUMPDEST PUSH3 0x13B1 DUP3 PUSH3 0x114B JUMP JUMPDEST PUSH8 0xFFFFFFFFFFFFFFFF DUP2 GT ISZERO PUSH3 0x13CD JUMPI PUSH3 0x13CC PUSH3 0x1155 JUMP JUMPDEST JUMPDEST PUSH3 0x13D9 DUP3 SLOAD PUSH3 0x11AF JUMP JUMPDEST PUSH3 0x13E6 DUP3 DUP3 DUP6 PUSH3 0x130F JUMP JUMPDEST PUSH0 PUSH1 0x20 SWAP1 POP PUSH1 0x1F DUP4 GT PUSH1 0x1 DUP2 EQ PUSH3 0x141C JUMPI PUSH0 DUP5 ISZERO PUSH3 0x1407 JUMPI DUP3 DUP8 ADD MLOAD SWAP1 POP JUMPDEST PUSH3 0x1413 DUP6 DUP3 PUSH3 0x1389 JUMP JUMPDEST DUP7 SSTORE POP PUSH3 0x1482 JUMP JUMPDEST PUSH1 0x1F NOT DUP5 AND PUSH3 0x142C DUP7 PUSH3 0x11E3 JUMP JUMPDEST PUSH0 JUMPDEST DUP3 DUP2 LT ISZERO PUSH3 0x1455 JUMPI DUP5 DUP10 ADD MLOAD DUP3 SSTORE PUSH1 0x1 DUP3 ADD SWAP2 POP PUSH1 0x20 DUP6 ADD SWAP5 POP PUSH1 0x20 DUP2 ADD SWAP1 POP PUSH3 0x142E JUMP JUMPDEST DUP7 DUP4 LT ISZERO PUSH3 0x1475 JUMPI DUP5 DUP10 ADD MLOAD PUSH3 0x1471 PUSH1 0x1F DUP10 AND DUP3 PUSH3 0x136B JUMP JUMPDEST DUP4 SSTORE POP JUMPDEST PUSH1 0x1 PUSH1 0x2 DUP9 MUL ADD DUP9 SSTORE POP POP POP JUMPDEST POP POP POP POP POP POP JUMP JUMPDEST PUSH0 DUP2 PUSH1 0x1 SHR SWAP1 POP SWAP2 SWAP1 POP JUMP JUMPDEST PUSH0 DUP1 DUP3 SWAP2 POP DUP4 SWAP1 POP JUMPDEST PUSH1 0x1 DUP6 GT ISZERO PUSH3 0x14E7 JUMPI DUP1 DUP7 DIV DUP2 GT ISZERO PUSH3 0x14BF JUMPI PUSH3 0x14BE PUSH3 0x10C9 JUMP JUMPDEST JUMPDEST PUSH1 0x1 DUP6 AND ISZERO PUSH3 0x14CF JUMPI DUP1 DUP3 MUL SWAP2 POP JUMPDEST DUP1 DUP2 MUL SWAP1 POP PUSH3 0x14DF DUP6 PUSH3 0x148A JUMP JUMPDEST SWAP5 POP PUSH3 0x149F JUMP JUMPDEST SWAP5 POP SWAP5 SWAP3 POP POP POP JUMP JUMPDEST PUSH0 DUP3 PUSH3 0x1501 JUMPI PUSH1 0x1 SWAP1 POP PUSH3 0x15D3 JUMP JUMPDEST DUP2 PUSH3 0x1510 JUMPI PUSH0 SWAP1 POP PUSH3 0x15D3 JUMP JUMPDEST DUP2 PUSH1 0x1 DUP2 EQ PUSH3 0x1529 JUMPI PUSH1 0x2 DUP2 EQ PUSH3 0x1534 JUMPI PUSH3 0x156A JUMP JUMPDEST PUSH1 0x1 SWAP2 POP POP PUSH3 0x15D3 JUMP JUMPDEST PUSH1 0xFF DUP5 GT ISZERO PUSH3 0x1549 JUMPI PUSH3 0x1548 PUSH3 0x10C9 JUMP JUMPDEST JUMPDEST DUP4 PUSH1 0x2 EXP SWAP2 POP DUP5 DUP3 GT ISZERO PUSH3 0x1563 JUMPI PUSH3 0x1562 PUSH3 0x10C9 JUMP JUMPDEST JUMPDEST POP PUSH3 0x15D3 JUMP JUMPDEST POP PUSH1 0x20 DUP4 LT PUSH2 0x133 DUP4 LT AND PUSH1 0x4E DUP5 LT PUSH1 0xB DUP5 LT AND OR ISZERO PUSH3 0x15A4 JUMPI DUP3 DUP3 EXP SWAP1 POP DUP4 DUP2 GT ISZERO PUSH3 0x159E JUMPI PUSH3 0x159D PUSH3 0x10C9 JUMP JUMPDEST JUMPDEST PUSH3 0x15D3 JUMP JUMPDEST PUSH3 0x15B3 DUP5 DUP5 DUP5 PUSH1 0x1 PUSH3 0x1496 JUMP JUMPDEST SWAP3 POP SWAP1 POP DUP2 DUP5 DIV DUP2 GT ISZERO PUSH3 0x15CD JUMPI PUSH3 0x15CC PUSH3 0x10C9 JUMP JUMPDEST JUMPDEST DUP2 DUP2 MUL SWAP1 POP JUMPDEST SWAP4 SWAP3 POP POP POP JUMP JUMPDEST PUSH0 PUSH3 0x15E6 DUP3 PUSH3 0x10F6 JUMP JUMPDEST SWAP2 POP PUSH3 0x15F3 DUP4 PUSH3 0x10F6 JUMP JUMPDEST SWAP3 POP PUSH3 0x1622 PUSH32 0xFFFFFFFFFFFFFFFFFFFFFFFFFFFFFFFFFFFFFFFFFFFFFFFFFFFFFFFFFFFFFFFF DUP5 DUP5 PUSH3 0x14F0 JUMP JUMPDEST SWAP1 POP SWAP3 SWAP2 POP POP JUMP JUMPDEST PUSH0 PUSH3 0x1636 DUP3 PUSH3 0x10F6 JUMP JUMPDEST SWAP2 POP PUSH3 0x1643 DUP4 PUSH3 0x10F6 JUMP JUMPDEST SWAP3 POP DUP3 DUP3 MUL PUSH3 0x1653 DUP2 PUSH3 0x10F6 JUMP JUMPDEST SWAP2 POP DUP3 DUP3 DIV DUP5 EQ DUP4 ISZERO OR PUSH3 0x166D JUMPI PUSH3 0x166C PUSH3 0x10C9 JUMP JUMPDEST JUMPDEST POP SWAP3 SWAP2 POP POP JUMP JUMPDEST PUSH0 PUSH3 0x1680 DUP3 PUSH3 0x10F6 JUMP JUMPDEST SWAP2 POP PUSH3 0x168D DUP4 PUSH3 0x10F6 JUMP JUMPDEST SWAP3 POP DUP3 DUP3 ADD SWAP1 POP DUP1 DUP3 GT ISZERO PUSH3 0x16A8 JUMPI PUSH3 0x16A7 PUSH3 0x10C9 JUMP JUMPDEST JUMPDEST SWAP3 SWAP2 POP POP JUMP JUMPDEST PUSH2 0x4E9F DUP1 PUSH3 0x16BC PUSH0 CODECOPY PUSH0 RETURN INVALID PUSH1 0x80 PUSH1 0x40 MSTORE PUSH1 0x4 CALLDATASIZE LT PUSH2 0x1C1 JUMPI PUSH0 CALLDATALOAD PUSH1 0xE0 SHR DUP1 PUSH4 0x5CF75517 GT PUSH2 0xF6 JUMPI DUP1 PUSH4 0xA4B6F5E1 GT PUSH2 0x94 JUMPI DUP1 PUSH4 0xCA4810AF GT PUSH2 0x63 JUMPI DUP1 PUSH4 0xCA4810AF EQ PUSH2 0x706 JUMPI DUP1 PUSH4 0xE315927B EQ PUSH2 0x742 JUMPI DUP1 PUSH4 0xEECC1C95 EQ PUSH2 0x77F JUMPI DUP1 PUSH4 0xF279E6A1 EQ PUSH2 0x7BB JUMPI PUSH2 0x1C1 JUMP JUMPDEST DUP1 PUSH4 0xA4B6F5E1 EQ PUSH2 0x620 JUMPI DUP1 PUSH4 0xAC3A4800 EQ PUSH2 0x64A JUMPI DUP1 PUSH4 0xB68B0F07 EQ PUSH2 0x686 JUMPI DUP1 PUSH4 0xC5F00964 EQ PUSH2 0x6C8 JUMPI PUSH2 0x1C1 JUMP JUMPDEST DUP1 PUSH4 0x705116A0 GT PUSH2 0xD0 JUMPI DUP1 PUSH4 0x705116A0 EQ PUSH2 0x542 JUMPI DUP1 PUSH4 0x759369D2 EQ PUSH2 0x584 JUMPI DUP1 PUSH4 0xA18A609A EQ PUSH2 0x5C0 JUMPI DUP1 PUSH4 0xA3AF609B EQ PUSH2 0x604 JUMPI PUSH2 0x1C1 JUMP JUMPDEST DUP1 PUSH4 0x5CF75517 EQ PUSH2 0x4AA JUMPI DUP1 PUSH4 0x641FBA96 EQ PUSH2 0x4EE JUMPI DUP1 PUSH4 0x6B1A7086 EQ PUSH2 0x518 JUMPI PUSH2 0x1C1 JUMP JUMPDEST DUP1 PUSH4 0x3DAA551C GT PUSH2 0x163 JUMPI DUP1 PUSH4 0x4E8C8EDA GT PUSH2 0x13D JUMPI DUP1 PUSH4 0x4E8C8EDA EQ PUSH2 0x3CD JUMPI DUP1 PUSH4 0x54A03E38 EQ PUSH2 0x40A JUMPI DUP1 PUSH4 0x5B6B431D EQ PUSH2 0x446 JUMPI DUP1 PUSH4 0x5BE94E83 EQ PUSH2 0x46E JUMPI PUSH2 0x1C1 JUMP JUMPDEST DUP1 PUSH4 0x3DAA551C EQ PUSH2 0x33D JUMPI DUP1 PUSH4 0x4788312F EQ PUSH2 0x367 JUMPI DUP1 PUSH4 0x4A40F2FE EQ PUSH2 0x391 JUMPI PUSH2 0x1C1 JUMP JUMPDEST DUP1 PUSH4 0x1D759FB2 GT PUSH2 0x19F JUMPI DUP1 PUSH4 0x1D759FB2 EQ PUSH2 0x268 JUMPI DUP1 PUSH4 0x2A530A36 EQ PUSH2 0x284 JUMPI DUP1 PUSH4 0x2E628E2E EQ PUSH2 0x2C3 JUMPI DUP1 PUSH4 0x365152FA EQ PUSH2 0x2FF JUMPI PUSH2 0x1C1 JUMP JUMPDEST DUP1 PUSH4 0x7D94067 EQ PUSH2 0x1C5 JUMPI DUP1 PUSH4 0x1BFE37CE EQ PUSH2 0x202 JUMPI DUP1 PUSH4 0x1CFA6E9B EQ PUSH2 0x23E JUMPI JUMPDEST PUSH0 DUP1 REVERT JUMPDEST CALLVALUE DUP1 ISZERO PUSH2 0x1D0 JUMPI PUSH0 DUP1 REVERT JUMPDEST POP PUSH2 0x1EB PUSH1 0x4 DUP1 CALLDATASIZE SUB DUP2 ADD SWAP1 PUSH2 0x1E6 SWAP2 SWAP1 PUSH2 0x3B7A JUMP JUMPDEST PUSH2 0x7E3 JUMP JUMPDEST PUSH1 0x40 MLOAD PUSH2 0x1F9 SWAP3 SWAP2 SWAP1 PUSH2 0x3BC7 JUMP JUMPDEST PUSH1 0x40 MLOAD DUP1 SWAP2 SUB SWAP1 RETURN JUMPDEST CALLVALUE DUP1 ISZERO PUSH2 0x20D JUMPI PUSH0 DUP1 REVERT JUMPDEST POP PUSH2 0x228 PUSH1 0x4 DUP1 CALLDATASIZE SUB DUP2 ADD SWAP1 PUSH2 0x223 SWAP2 SWAP1 PUSH2 0x3B7A JUMP JUMPDEST PUSH2 0x80E JUMP JUMPDEST PUSH1 0x40 MLOAD PUSH2 0x235 SWAP2 SWAP1 PUSH2 0x3BEE JUMP JUMPDEST PUSH1 0x40 MLOAD DUP1 SWAP2 SUB SWAP1 RETURN JUMPDEST CALLVALUE DUP1 ISZERO PUSH2 0x249 JUMPI PUSH0 DUP1 REVERT JUMPDEST POP PUSH2 0x252 PUSH2 0x82E JUMP JUMPDEST PUSH1 0x40 MLOAD PUSH2 0x25F SWAP2 SWAP1 PUSH2 0x3C16 JUMP JUMPDEST PUSH1 0x40 MLOAD DUP1 SWAP2 SUB SWAP1 RETURN JUMPDEST PUSH2 0x282 PUSH1 0x4 DUP1 CALLDATASIZE SUB DUP2 ADD SWAP1 PUSH2 0x27D SWAP2 SWAP1 PUSH2 0x3C2F JUMP JUMPDEST PUSH2 0x846 JUMP JUMPDEST STOP JUMPDEST CALLVALUE DUP1 ISZERO PUSH2 0x28F JUMPI PUSH0 DUP1 REVERT JUMPDEST POP PUSH2 0x2AA PUSH1 0x4 DUP1 CALLDATASIZE SUB DUP2 ADD SWAP1 PUSH2 0x2A5 SWAP2 SWAP1 PUSH2 0x3C7F JUMP JUMPDEST PUSH2 0x856 JUMP JUMPDEST PUSH1 0x40 MLOAD PUSH2 0x2BA SWAP5 SWAP4 SWAP3 SWAP2 SWAP1 PUSH2 0x3CAA JUMP JUMPDEST PUSH1 0x40 MLOAD DUP1 SWAP2 SUB SWAP1 RETURN JUMPDEST CALLVALUE DUP1 ISZERO PUSH2 0x2CE JUMPI PUSH0 DUP1 REVERT JUMPDEST POP PUSH2 0x2E9 PUSH1 0x4 DUP1 CALLDATASIZE SUB DUP2 ADD SWAP1 PUSH2 0x2E4 SWAP2 SWAP1 PUSH2 0x3C2F JUMP JUMPDEST PUSH2 0x882 JUMP JUMPDEST PUSH1 0x40 MLOAD PUSH2 0x2F6 SWAP2 SWAP1 PUSH2 0x3DE4 JUMP JUMPDEST PUSH1 0x40 MLOAD DUP1 SWAP2 SUB SWAP1 RETURN JUMPDEST CALLVALUE DUP1 ISZERO PUSH2 0x30A JUMPI PUSH0 DUP1 REVERT JUMPDEST POP PUSH2 0x325 PUSH1 0x4 DUP1 CALLDATASIZE SUB DUP2 ADD SWAP1 PUSH2 0x320 SWAP2 SWAP1 PUSH2 0x3B7A JUMP JUMPDEST PUSH2 0xAA9 JUMP JUMPDEST PUSH1 0x40 MLOAD PUSH2 0x334 SWAP4 SWAP3 SWAP2 SWAP1 PUSH2 0x3E04 JUMP JUMPDEST PUSH1 0x40 MLOAD DUP1 SWAP2 SUB SWAP1 RETURN JUMPDEST CALLVALUE DUP1 ISZERO PUSH2 0x348 JUMPI PUSH0 DUP1 REVERT JUMPDEST POP PUSH2 0x351 PUSH2 0xADA JUMP JUMPDEST PUSH1 0x40 MLOAD PUSH2 0x35E SWAP2 SWAP1 PUSH2 0x405A JUMP JUMPDEST PUSH1 0x40 MLOAD DUP1 SWAP2 SUB SWAP1 RETURN JUMPDEST CALLVALUE DUP1 ISZERO PUSH2 0x372 JUMPI PUSH0 DUP1 REVERT JUMPDEST POP PUSH2 0x37B PUSH2 0xCB6 JUMP JUMPDEST PUSH1 0x40 MLOAD PUSH2 0x388 SWAP2 SWAP1 PUSH2 0x3BEE JUMP JUMPDEST PUSH1 0x40 MLOAD DUP1 SWAP2 SUB SWAP1 RETURN JUMPDEST CALLVALUE DUP1 ISZERO PUSH2 0x39C JUMPI PUSH0 DUP1 REVERT JUMPDEST POP PUSH2 0x3B7 PUSH1 0x4 DUP1 CALLDATASIZE SUB DUP2 ADD SWAP1 PUSH2 0x3B2 SWAP2 SWAP1 PUSH2 0x3C7F JUMP JUMPDEST PUSH2 0xCBC JUMP JUMPDEST PUSH1 0x40 MLOAD PUSH2 0x3C4 SWAP2 SWAP1 PUSH2 0x4256 JUMP JUMPDEST PUSH1 0x40 MLOAD DUP1 SWAP2 SUB SWAP1 RETURN JUMPDEST CALLVALUE DUP1 ISZERO PUSH2 0x3D8 JUMPI PUSH0 DUP1 REVERT JUMPDEST POP PUSH2 0x3F3 PUSH1 0x4 DUP1 CALLDATASIZE SUB DUP2 ADD SWAP1 PUSH2 0x3EE SWAP2 SWAP1 PUSH2 0x3C7F JUMP JUMPDEST PUSH2 0x1037 JUMP JUMPDEST PUSH1 0x40 MLOAD PUSH2 0x401 SWAP3 SWAP2 SWAP1 PUSH2 0x3BC7 JUMP JUMPDEST PUSH1 0x40 MLOAD DUP1 SWAP2 SUB SWAP1 RETURN JUMPDEST CALLVALUE DUP1 ISZERO PUSH2 0x415 JUMPI PUSH0 DUP1 REVERT JUMPDEST POP PUSH2 0x430 PUSH1 0x4 DUP1 CALLDATASIZE SUB DUP2 ADD SWAP1 PUSH2 0x42B SWAP2 SWAP1 PUSH2 0x3C7F JUMP JUMPDEST PUSH2 0x1057 JUMP JUMPDEST PUSH1 0x40 MLOAD PUSH2 0x43D SWAP2 SWAP1 PUSH2 0x42DC JUMP JUMPDEST PUSH1 0x40 MLOAD DUP1 SWAP2 SUB SWAP1 RETURN JUMPDEST CALLVALUE DUP1 ISZERO PUSH2 0x451 JUMPI PUSH0 DUP1 REVERT JUMPDEST POP PUSH2 0x46C PUSH1 0x4 DUP1 CALLDATASIZE SUB DUP2 ADD SWAP1 PUSH2 0x467 SWAP2 SWAP1 PUSH2 0x42F5 JUMP JUMPDEST PUSH2 0x115F JUMP JUMPDEST STOP JUMPDEST CALLVALUE DUP1 ISZERO PUSH2 0x479 JUMPI PUSH0 DUP1 REVERT JUMPDEST POP PUSH2 0x494 PUSH1 0x4 DUP1 CALLDATASIZE SUB DUP2 ADD SWAP1 PUSH2 0x48F SWAP2 SWAP1 PUSH2 0x3C7F JUMP JUMPDEST PUSH2 0x14E9 JUMP JUMPDEST PUSH1 0x40 MLOAD PUSH2 0x4A1 SWAP2 SWAP1 PUSH2 0x442A JUMP JUMPDEST PUSH1 0x40 MLOAD DUP1 SWAP2 SUB SWAP1 RETURN JUMPDEST CALLVALUE DUP1 ISZERO PUSH2 0x4B5 JUMPI PUSH0 DUP1 REVERT JUMPDEST POP PUSH2 0x4D0 PUSH1 0x4 DUP1 CALLDATASIZE SUB DUP2 ADD SWAP1 PUSH2 0x4CB SWAP2 SWAP1 PUSH2 0x3C7F JUMP JUMPDEST PUSH2 0x1836 JUMP JUMPDEST PUSH1 0x40 MLOAD PUSH2 0x4E5 SWAP10 SWAP9 SWAP8 SWAP7 SWAP6 SWAP5 SWAP4 SWAP3 SWAP2 SWAP1 PUSH2 0x4459 JUMP JUMPDEST PUSH1 0x40 MLOAD DUP1 SWAP2 SUB SWAP1 RETURN JUMPDEST CALLVALUE DUP1 ISZERO PUSH2 0x4F9 JUMPI PUSH0 DUP1 REVERT JUMPDEST POP PUSH2 0x502 PUSH2 0x18CA JUMP JUMPDEST PUSH1 0x40 MLOAD PUSH2 0x50F SWAP2 SWAP1 PUSH2 0x3BEE JUMP JUMPDEST PUSH1 0x40 MLOAD DUP1 SWAP2 SUB SWAP1 RETURN JUMPDEST CALLVALUE DUP1 ISZERO PUSH2 0x523 JUMPI PUSH0 DUP1 REVERT JUMPDEST POP PUSH2 0x52C PUSH2 0x18CF JUMP JUMPDEST PUSH1 0x40 MLOAD PUSH2 0x539 SWAP2 SWAP1 PUSH2 0x4537 JUMP JUMPDEST PUSH1 0x40 MLOAD DUP1 SWAP2 SUB SWAP1 RETURN JUMPDEST CALLVALUE DUP1 ISZERO PUSH2 0x54D JUMPI PUSH0 DUP1 REVERT JUMPDEST POP PUSH2 0x568 PUSH1 0x4 DUP1 CALLDATASIZE SUB DUP2 ADD SWAP1 PUSH2 0x563 SWAP2 SWAP1 PUSH2 0x42F5 JUMP JUMPDEST PUSH2 0x1909 JUMP JUMPDEST PUSH1 0x40 MLOAD PUSH2 0x57B SWAP8 SWAP7 SWAP6 SWAP5 SWAP4 SWAP3 SWAP2 SWAP1 PUSH2 0x4550 JUMP JUMPDEST PUSH1 0x40 MLOAD DUP1 SWAP2 SUB SWAP1 RETURN JUMPDEST CALLVALUE DUP1 ISZERO PUSH2 0x58F JUMPI PUSH0 DUP1 REVERT JUMPDEST POP PUSH2 0x5AA PUSH1 0x4 DUP1 CALLDATASIZE SUB DUP2 ADD SWAP1 PUSH2 0x5A5 SWAP2 SWAP1 PUSH2 0x3C2F JUMP JUMPDEST PUSH2 0x1947 JUMP JUMPDEST PUSH1 0x40 MLOAD PUSH2 0x5B7 SWAP2 SWAP1 PUSH2 0x4692 JUMP JUMPDEST PUSH1 0x40 MLOAD DUP1 SWAP2 SUB SWAP1 RETURN JUMPDEST CALLVALUE DUP1 ISZERO PUSH2 0x5CB JUMPI PUSH0 DUP1 REVERT JUMPDEST POP PUSH2 0x5E6 PUSH1 0x4 DUP1 CALLDATASIZE SUB DUP2 ADD SWAP1 PUSH2 0x5E1 SWAP2 SWAP1 PUSH2 0x42F5 JUMP JUMPDEST PUSH2 0x1B67 JUMP JUMPDEST PUSH1 0x40 MLOAD PUSH2 0x5FB SWAP10 SWAP9 SWAP8 SWAP7 SWAP6 SWAP5 SWAP4 SWAP3 SWAP2 SWAP1 PUSH2 0x46FA JUMP JUMPDEST PUSH1 0x40 MLOAD DUP1 SWAP2 SUB SWAP1 RETURN JUMPDEST PUSH2 0x61E PUSH1 0x4 DUP1 CALLDATASIZE SUB DUP2 ADD SWAP1 PUSH2 0x619 SWAP2 SWAP1 PUSH2 0x478C JUMP JUMPDEST PUSH2 0x1C5C JUMP JUMPDEST STOP JUMPDEST CALLVALUE DUP1 ISZERO PUSH2 0x62B JUMPI PUSH0 DUP1 REVERT JUMPDEST POP PUSH2 0x634 PUSH2 0x1C6A JUMP JUMPDEST PUSH1 0x40 MLOAD PUSH2 0x641 SWAP2 SWAP1 PUSH2 0x3BEE JUMP JUMPDEST PUSH1 0x40 MLOAD DUP1 SWAP2 SUB SWAP1 RETURN JUMPDEST CALLVALUE DUP1 ISZERO PUSH2 0x655 JUMPI PUSH0 DUP1 REVERT JUMPDEST POP PUSH2 0x670 PUSH1 0x4 DUP1 CALLDATASIZE SUB DUP2 ADD SWAP1 PUSH2 0x66B SWAP2 SWAP1 PUSH2 0x42F5 JUMP JUMPDEST PUSH2 0x1C70 JUMP JUMPDEST PUSH1 0x40 MLOAD PUSH2 0x67D SWAP2 SWAP1 PUSH2 0x3C16 JUMP JUMPDEST PUSH1 0x40 MLOAD DUP1 SWAP2 SUB SWAP1 RETURN JUMPDEST CALLVALUE DUP1 ISZERO PUSH2 0x691 JUMPI PUSH0 DUP1 REVERT JUMPDEST POP PUSH2 0x6AC PUSH1 0x4 DUP1 CALLDATASIZE SUB DUP2 ADD SWAP1 PUSH2 0x6A7 SWAP2 SWAP1 PUSH2 0x42F5 JUMP JUMPDEST PUSH2 0x1CA0 JUMP JUMPDEST PUSH1 0x40 MLOAD PUSH2 0x6BF SWAP8 SWAP7 SWAP6 SWAP5 SWAP4 SWAP3 SWAP2 SWAP1 PUSH2 0x4550 JUMP JUMPDEST PUSH1 0x40 MLOAD DUP1 SWAP2 SUB SWAP1 RETURN JUMPDEST CALLVALUE DUP1 ISZERO PUSH2 0x6D3 JUMPI PUSH0 DUP1 REVERT JUMPDEST POP PUSH2 0x6EE PUSH1 0x4 DUP1 CALLDATASIZE SUB DUP2 ADD SWAP1 PUSH2 0x6E9 SWAP2 SWAP1 PUSH2 0x3C7F JUMP JUMPDEST PUSH2 0x1CDE JUMP JUMPDEST PUSH1 0x40 MLOAD PUSH2 0x6FD SWAP4 SWAP3 SWAP2 SWAP1 PUSH2 0x3E04 JUMP JUMPDEST PUSH1 0x40 MLOAD DUP1 SWAP2 SUB SWAP1 RETURN JUMPDEST CALLVALUE DUP1 ISZERO PUSH2 0x711 JUMPI PUSH0 DUP1 REVERT JUMPDEST POP PUSH2 0x72C PUSH1 0x4 DUP1 CALLDATASIZE SUB DUP2 ADD SWAP1 PUSH2 0x727 SWAP2 SWAP1 PUSH2 0x3B7A JUMP JUMPDEST PUSH2 0x1D04 JUMP JUMPDEST PUSH1 0x40 MLOAD PUSH2 0x739 SWAP2 SWAP1 PUSH2 0x3BEE JUMP JUMPDEST PUSH1 0x40 MLOAD DUP1 SWAP2 SUB SWAP1 RETURN JUMPDEST CALLVALUE DUP1 ISZERO PUSH2 0x74D JUMPI PUSH0 DUP1 REVERT JUMPDEST POP PUSH2 0x768 PUSH1 0x4 DUP1 CALLDATASIZE SUB DUP2 ADD SWAP1 PUSH2 0x763 SWAP2 SWAP1 PUSH2 0x3C7F JUMP JUMPDEST PUSH2 0x1D24 JUMP JUMPDEST PUSH1 0x40 MLOAD PUSH2 0x776 SWAP3 SWAP2 SWAP1 PUSH2 0x3BC7 JUMP JUMPDEST PUSH1 0x40 MLOAD DUP1 SWAP2 SUB SWAP1 RETURN JUMPDEST CALLVALUE DUP1 ISZERO PUSH2 0x78A JUMPI PUSH0 DUP1 REVERT JUMPDEST POP PUSH2 0x7A5 PUSH1 0x4 DUP1 CALLDATASIZE SUB DUP2 ADD SWAP1 PUSH2 0x7A0 SWAP2 SWAP1 PUSH2 0x3C7F JUMP JUMPDEST PUSH2 0x1D44 JUMP JUMPDEST PUSH1 0x40 MLOAD PUSH2 0x7B2 SWAP2 SWAP1 PUSH2 0x47CA JUMP JUMPDEST PUSH1 0x40 MLOAD DUP1 SWAP2 SUB SWAP1 RETURN JUMPDEST CALLVALUE DUP1 ISZERO PUSH2 0x7C6 JUMPI PUSH0 DUP1 REVERT JUMPDEST POP PUSH2 0x7E1 PUSH1 0x4 DUP1 CALLDATASIZE SUB DUP2 ADD SWAP1 PUSH2 0x7DC SWAP2 SWAP1 PUSH2 0x3C2F JUMP JUMPDEST PUSH2 0x1D66 JUMP JUMPDEST STOP JUMPDEST PUSH1 0xF PUSH1 0x20 MSTORE DUP2 PUSH0 MSTORE PUSH1 0x40 PUSH0 KECCAK256 PUSH1 0x20 MSTORE DUP1 PUSH0 MSTORE PUSH1 0x40 PUSH0 KECCAK256 PUSH0 SWAP2 POP SWAP2 POP POP DUP1 PUSH0 ADD SLOAD SWAP1 DUP1 PUSH1 0x1 ADD SLOAD SWAP1 POP DUP3 JUMP JUMPDEST PUSH1 0x10 PUSH1 0x20 MSTORE DUP2 PUSH0 MSTORE PUSH1 0x40 PUSH0 KECCAK256 PUSH1 0x20 MSTORE DUP1 PUSH0 MSTORE PUSH1 0x40 PUSH0 KECCAK256 PUSH0 SWAP2 POP SWAP2 POP POP SLOAD DUP2 JUMP JUMPDEST PUSH20 0x1419AC3544770AC32FBC3E70129E7EB0197612F6 DUP2 JUMP JUMPDEST PUSH2 0x851 DUP4 DUP4 DUP4 PUSH2 0x1F93 JUMP JUMPDEST POP POP POP JUMP JUMPDEST PUSH1 0xD PUSH1 0x20 MSTORE DUP1 PUSH0 MSTORE PUSH1 0x40 PUSH0 KECCAK256 PUSH0 SWAP2 POP SWAP1 POP DUP1 PUSH0 ADD SLOAD SWAP1 DUP1 PUSH1 0x2 ADD SLOAD SWAP1 DUP1 PUSH1 0x3 ADD SLOAD SWAP1 DUP1 PUSH1 0x4 ADD SLOAD SWAP1 POP DUP5 JUMP JUMPDEST PUSH1 0x60 PUSH1 0x14 PUSH0 DUP6 PUSH20 0xFFFFFFFFFFFFFFFFFFFFFFFFFFFFFFFFFFFFFFFF AND PUSH20 0xFFFFFFFFFFFFFFFFFFFFFFFFFFFFFFFFFFFFFFFF AND DUP2 MSTORE PUSH1 0x20 ADD SWAP1 DUP2 MSTORE PUSH1 0x20 ADD PUSH0 KECCAK256 PUSH0 ADD SLOAD PUSH8 0xFFFFFFFFFFFFFFFF DUP2 GT ISZERO PUSH2 0x8DD JUMPI PUSH2 0x8DC PUSH2 0x47E3 JUMP JUMPDEST JUMPDEST PUSH1 0x40 MLOAD SWAP1 DUP1 DUP3 MSTORE DUP1 PUSH1 0x20 MUL PUSH1 0x20 ADD DUP3 ADD PUSH1 0x40 MSTORE DUP1 ISZERO PUSH2 0x916 JUMPI DUP2 PUSH1 0x20 ADD JUMPDEST PUSH2 0x903 PUSH2 0x388B JUMP JUMPDEST DUP2 MSTORE PUSH1 0x20 ADD SWAP1 PUSH1 0x1 SWAP1 SUB SWAP1 DUP2 PUSH2 0x8FB JUMPI SWAP1 POP JUMPDEST POP SWAP1 POP PUSH0 PUSH1 0x14 PUSH0 DUP7 PUSH20 0xFFFFFFFFFFFFFFFFFFFFFFFFFFFFFFFFFFFFFFFF AND PUSH20 0xFFFFFFFFFFFFFFFFFFFFFFFFFFFFFFFFFFFFFFFF AND DUP2 MSTORE PUSH1 0x20 ADD SWAP1 DUP2 MSTORE PUSH1 0x20 ADD PUSH0 KECCAK256 PUSH0 ADD SLOAD DUP4 DUP6 PUSH2 0x966 SWAP2 SWAP1 PUSH2 0x483D JUMP JUMPDEST GT PUSH2 0x97C JUMPI DUP3 DUP5 PUSH2 0x977 SWAP2 SWAP1 PUSH2 0x483D JUMP JUMPDEST PUSH2 0x9BD JUMP JUMPDEST PUSH1 0x14 PUSH0 DUP7 PUSH20 0xFFFFFFFFFFFFFFFFFFFFFFFFFFFFFFFFFFFFFFFF AND PUSH20 0xFFFFFFFFFFFFFFFFFFFFFFFFFFFFFFFFFFFFFFFF AND DUP2 MSTORE PUSH1 0x20 ADD SWAP1 DUP2 MSTORE PUSH1 0x20 ADD PUSH0 KECCAK256 PUSH0 ADD SLOAD JUMPDEST SWAP1 POP PUSH0 DUP4 DUP3 LT ISZERO PUSH2 0x9CE JUMPI PUSH0 PUSH2 0x9DB JUMP JUMPDEST DUP4 DUP3 PUSH2 0x9DA SWAP2 SWAP1 PUSH2 0x487E JUMP JUMPDEST JUMPDEST SWAP1 POP PUSH0 DUP1 DUP4 SWAP1 POP JUMPDEST DUP3 DUP2 GT ISZERO PUSH2 0xA9E JUMPI PUSH1 0xE PUSH0 DUP10 PUSH20 0xFFFFFFFFFFFFFFFFFFFFFFFFFFFFFFFFFFFFFFFF AND PUSH20 0xFFFFFFFFFFFFFFFFFFFFFFFFFFFFFFFFFFFFFFFF AND DUP2 MSTORE PUSH1 0x20 ADD SWAP1 DUP2 MSTORE PUSH1 0x20 ADD PUSH0 KECCAK256 PUSH0 DUP3 DUP2 MSTORE PUSH1 0x20 ADD SWAP1 DUP2 MSTORE PUSH1 0x20 ADD PUSH0 KECCAK256 PUSH1 0x40 MLOAD DUP1 PUSH1 0x60 ADD PUSH1 0x40 MSTORE SWAP1 DUP2 PUSH0 DUP3 ADD SLOAD DUP2 MSTORE PUSH1 0x20 ADD PUSH1 0x1 DUP3 ADD SLOAD DUP2 MSTORE PUSH1 0x20 ADD PUSH1 0x2 DUP3 ADD SLOAD DUP2 MSTORE POP POP DUP6 DUP4 DUP2 MLOAD DUP2 LT PUSH2 0xA72 JUMPI PUSH2 0xA71 PUSH2 0x48B1 JUMP JUMPDEST JUMPDEST PUSH1 0x20 MUL PUSH1 0x20 ADD ADD DUP2 SWAP1 MSTORE POP DUP2 DUP1 PUSH2 0xA88 SWAP1 PUSH2 0x48DE JUMP JUMPDEST SWAP3 POP POP DUP1 DUP1 PUSH2 0xA96 SWAP1 PUSH2 0x4925 JUMP JUMPDEST SWAP2 POP POP PUSH2 0x9E3 JUMP JUMPDEST POP POP POP POP SWAP4 SWAP3 POP POP POP JUMP JUMPDEST PUSH1 0xE PUSH1 0x20 MSTORE DUP2 PUSH0 MSTORE PUSH1 0x40 PUSH0 KECCAK256 PUSH1 0x20 MSTORE DUP1 PUSH0 MSTORE PUSH1 0x40 PUSH0 KECCAK256 PUSH0 SWAP2 POP SWAP2 POP POP DUP1 PUSH0 ADD SLOAD SWAP1 DUP1 PUSH1 0x1 ADD SLOAD SWAP1 DUP1 PUSH1 0x2 ADD SLOAD SWAP1 POP DUP4 JUMP JUMPDEST PUSH1 0x60 PUSH0 PUSH1 0x7 SLOAD PUSH8 0xFFFFFFFFFFFFFFFF DUP2 GT ISZERO PUSH2 0xAF9 JUMPI PUSH2 0xAF8 PUSH2 0x47E3 JUMP JUMPDEST JUMPDEST PUSH1 0x40 MLOAD SWAP1 DUP1 DUP3 MSTORE DUP1 PUSH1 0x20 MUL PUSH1 0x20 ADD DUP3 ADD PUSH1 0x40 MSTORE DUP1 ISZERO PUSH2 0xB32 JUMPI DUP2 PUSH1 0x20 ADD JUMPDEST PUSH2 0xB1F PUSH2 0x38A9 JUMP JUMPDEST DUP2 MSTORE PUSH1 0x20 ADD SWAP1 PUSH1 0x1 SWAP1 SUB SWAP1 DUP2 PUSH2 0xB17 JUMPI SWAP1 POP JUMPDEST POP SWAP1 POP PUSH0 PUSH1 0x1 SWAP1 POP JUMPDEST PUSH1 0x7 SLOAD DUP2 GT PUSH2 0xCAE JUMPI PUSH1 0x8 PUSH0 DUP3 DUP2 MSTORE PUSH1 0x20 ADD SWAP1 DUP2 MSTORE PUSH1 0x20 ADD PUSH0 KECCAK256 PUSH1 0x40 MLOAD DUP1 PUSH2 0x120 ADD PUSH1 0x40 MSTORE SWAP1 DUP2 PUSH0 DUP3 ADD SLOAD DUP2 MSTORE PUSH1 0x20 ADD PUSH1 0x1 DUP3 ADD DUP1 SLOAD PUSH2 0xB7A SWAP1 PUSH2 0x4979 JUMP JUMPDEST DUP1 PUSH1 0x1F ADD PUSH1 0x20 DUP1 SWAP2 DIV MUL PUSH1 0x20 ADD PUSH1 0x40 MLOAD SWAP1 DUP2 ADD PUSH1 0x40 MSTORE DUP1 SWAP3 SWAP2 SWAP1 DUP2 DUP2 MSTORE PUSH1 0x20 ADD DUP3 DUP1 SLOAD PUSH2 0xBA6 SWAP1 PUSH2 0x4979 JUMP JUMPDEST DUP1 ISZERO PUSH2 0xBF1 JUMPI DUP1 PUSH1 0x1F LT PUSH2 0xBC8 JUMPI PUSH2 0x100 DUP1 DUP4 SLOAD DIV MUL DUP4 MSTORE SWAP2 PUSH1 0x20 ADD SWAP2 PUSH2 0xBF1 JUMP JUMPDEST DUP3 ADD SWAP2 SWAP1 PUSH0 MSTORE PUSH1 0x20 PUSH0 KECCAK256 SWAP1 JUMPDEST DUP2 SLOAD DUP2 MSTORE SWAP1 PUSH1 0x1 ADD SWAP1 PUSH1 0x20 ADD DUP1 DUP4 GT PUSH2 0xBD4 JUMPI DUP3 SWAP1 SUB PUSH1 0x1F AND DUP3 ADD SWAP2 JUMPDEST POP POP POP POP POP DUP2 MSTORE PUSH1 0x20 ADD PUSH1 0x2 DUP3 ADD SLOAD DUP2 MSTORE PUSH1 0x20 ADD PUSH1 0x3 DUP3 ADD PUSH0 SWAP1 SLOAD SWAP1 PUSH2 0x100 EXP SWAP1 DIV PUSH1 0xFF AND ISZERO ISZERO ISZERO ISZERO DUP2 MSTORE PUSH1 0x20 ADD PUSH1 0x3 DUP3 ADD PUSH1 0x1 SWAP1 SLOAD SWAP1 PUSH2 0x100 EXP SWAP1 DIV PUSH1 0xFF AND ISZERO ISZERO ISZERO ISZERO DUP2 MSTORE PUSH1 0x20 ADD PUSH1 0x4 DUP3 ADD SLOAD DUP2 MSTORE PUSH1 0x20 ADD PUSH1 0x5 DUP3 ADD SLOAD DUP2 MSTORE PUSH1 0x20 ADD PUSH1 0x6 DUP3 ADD SLOAD DUP2 MSTORE PUSH1 0x20 ADD PUSH1 0x7 DUP3 ADD PUSH0 SWAP1 SLOAD SWAP1 PUSH2 0x100 EXP SWAP1 DIV PUSH1 0xFF AND ISZERO ISZERO ISZERO ISZERO DUP2 MSTORE POP POP DUP3 PUSH1 0x1 DUP4 PUSH2 0xC7F SWAP2 SWAP1 PUSH2 0x487E JUMP JUMPDEST DUP2 MLOAD DUP2 LT PUSH2 0xC90 JUMPI PUSH2 0xC8F PUSH2 0x48B1 JUMP JUMPDEST JUMPDEST PUSH1 0x20 MUL PUSH1 0x20 ADD ADD DUP2 SWAP1 MSTORE POP DUP1 DUP1 PUSH2 0xCA6 SWAP1 PUSH2 0x48DE JUMP JUMPDEST SWAP2 POP POP PUSH2 0xB3B JUMP JUMPDEST DUP2 SWAP3 POP POP POP SWAP1 JUMP JUMPDEST PUSH1 0x2 SLOAD DUP2 JUMP JUMPDEST PUSH1 0x60 PUSH1 0x4 SLOAD PUSH8 0xFFFFFFFFFFFFFFFF DUP2 GT ISZERO PUSH2 0xCDA JUMPI PUSH2 0xCD9 PUSH2 0x47E3 JUMP JUMPDEST JUMPDEST PUSH1 0x40 MLOAD SWAP1 DUP1 DUP3 MSTORE DUP1 PUSH1 0x20 MUL PUSH1 0x20 ADD DUP3 ADD PUSH1 0x40 MSTORE DUP1 ISZERO PUSH2 0xD13 JUMPI DUP2 PUSH1 0x20 ADD JUMPDEST PUSH2 0xD00 PUSH2 0x38F3 JUMP JUMPDEST DUP2 MSTORE PUSH1 0x20 ADD SWAP1 PUSH1 0x1 SWAP1 SUB SWAP1 DUP2 PUSH2 0xCF8 JUMPI SWAP1 POP JUMPDEST POP SWAP1 POP PUSH0 PUSH1 0x1 SWAP1 POP JUMPDEST PUSH1 0x4 SLOAD DUP2 GT PUSH2 0x1031 JUMPI PUSH1 0x40 MLOAD DUP1 PUSH2 0x1E0 ADD PUSH1 0x40 MSTORE DUP1 DUP3 DUP2 MSTORE PUSH1 0x20 ADD PUSH1 0x9 PUSH0 DUP5 DUP2 MSTORE PUSH1 0x20 ADD SWAP1 DUP2 MSTORE PUSH1 0x20 ADD PUSH0 KECCAK256 PUSH1 0x2 ADD SLOAD DUP2 MSTORE PUSH1 0x20 ADD PUSH1 0xB PUSH0 DUP7 PUSH20 0xFFFFFFFFFFFFFFFFFFFFFFFFFFFFFFFFFFFFFFFF AND PUSH20 0xFFFFFFFFFFFFFFFFFFFFFFFFFFFFFFFFFFFFFFFF AND DUP2 MSTORE PUSH1 0x20 ADD SWAP1 DUP2 MSTORE PUSH1 0x20 ADD PUSH0 KECCAK256 PUSH1 0x4 ADD SLOAD DUP2 MSTORE PUSH1 0x20 ADD PUSH1 0x9 PUSH0 DUP5 DUP2 MSTORE PUSH1 0x20 ADD SWAP1 DUP2 MSTORE PUSH1 0x20 ADD PUSH0 KECCAK256 PUSH1 0x3 ADD SLOAD DUP2 MSTORE PUSH1 0x20 ADD PUSH1 0xD PUSH0 DUP7 PUSH20 0xFFFFFFFFFFFFFFFFFFFFFFFFFFFFFFFFFFFFFFFF AND PUSH20 0xFFFFFFFFFFFFFFFFFFFFFFFFFFFFFFFFFFFFFFFF AND DUP2 MSTORE PUSH1 0x20 ADD SWAP1 DUP2 MSTORE PUSH1 0x20 ADD PUSH0 KECCAK256 PUSH1 0x1 ADD DUP1 SLOAD SWAP1 POP DUP2 MSTORE PUSH1 0x20 ADD PUSH1 0x9 PUSH0 DUP5 DUP2 MSTORE PUSH1 0x20 ADD SWAP1 DUP2 MSTORE PUSH1 0x20 ADD PUSH0 KECCAK256 PUSH1 0x4 ADD SLOAD DUP2 MSTORE PUSH1 0x20 ADD PUSH1 0xD PUSH0 DUP7 PUSH20 0xFFFFFFFFFFFFFFFFFFFFFFFFFFFFFFFFFFFFFFFF AND PUSH20 0xFFFFFFFFFFFFFFFFFFFFFFFFFFFFFFFFFFFFFFFF AND DUP2 MSTORE PUSH1 0x20 ADD SWAP1 DUP2 MSTORE PUSH1 0x20 ADD PUSH0 KECCAK256 PUSH0 ADD SLOAD DUP2 MSTORE PUSH1 0x20 ADD PUSH1 0x9 PUSH0 DUP5 DUP2 MSTORE PUSH1 0x20 ADD SWAP1 DUP2 MSTORE PUSH1 0x20 ADD PUSH0 KECCAK256 PUSH1 0x5 ADD SLOAD DUP2 MSTORE PUSH1 0x20 ADD PUSH1 0xB PUSH0 DUP7 PUSH20 0xFFFFFFFFFFFFFFFFFFFFFFFFFFFFFFFFFFFFFFFF AND PUSH20 0xFFFFFFFFFFFFFFFFFFFFFFFFFFFFFFFFFFFFFFFF AND DUP2 MSTORE PUSH1 0x20 ADD SWAP1 DUP2 MSTORE PUSH1 0x20 ADD PUSH0 KECCAK256 PUSH1 0x5 ADD SLOAD DUP2 MSTORE PUSH1 0x20 ADD PUSH1 0x9 PUSH0 DUP5 DUP2 MSTORE PUSH1 0x20 ADD SWAP1 DUP2 MSTORE PUSH1 0x20 ADD PUSH0 KECCAK256 PUSH1 0x6 ADD SLOAD DUP2 MSTORE PUSH1 0x20 ADD PUSH1 0xD PUSH0 DUP7 PUSH20 0xFFFFFFFFFFFFFFFFFFFFFFFFFFFFFFFFFFFFFFFF AND PUSH20 0xFFFFFFFFFFFFFFFFFFFFFFFFFFFFFFFFFFFFFFFF AND DUP2 MSTORE PUSH1 0x20 ADD SWAP1 DUP2 MSTORE PUSH1 0x20 ADD PUSH0 KECCAK256 PUSH1 0x4 ADD SLOAD DUP2 MSTORE PUSH1 0x20 ADD PUSH1 0x10 PUSH0 DUP7 PUSH20 0xFFFFFFFFFFFFFFFFFFFFFFFFFFFFFFFFFFFFFFFF AND PUSH20 0xFFFFFFFFFFFFFFFFFFFFFFFFFFFFFFFFFFFFFFFF AND DUP2 MSTORE PUSH1 0x20 ADD SWAP1 DUP2 MSTORE PUSH1 0x20 ADD PUSH0 KECCAK256 PUSH0 DUP5 DUP2 MSTORE PUSH1 0x20 ADD SWAP1 DUP2 MSTORE PUSH1 0x20 ADD PUSH0 KECCAK256 SLOAD DUP2 MSTORE PUSH1 0x20 ADD PUSH1 0x9 PUSH0 DUP5 DUP2 MSTORE PUSH1 0x20 ADD SWAP1 DUP2 MSTORE PUSH1 0x20 ADD PUSH0 KECCAK256 PUSH1 0x1 ADD SLOAD DUP2 MSTORE PUSH1 0x20 ADD PUSH1 0x12 PUSH0 DUP7 PUSH20 0xFFFFFFFFFFFFFFFFFFFFFFFFFFFFFFFFFFFFFFFF AND PUSH20 0xFFFFFFFFFFFFFFFFFFFFFFFFFFFFFFFFFFFFFFFF AND DUP2 MSTORE PUSH1 0x20 ADD SWAP1 DUP2 MSTORE PUSH1 0x20 ADD PUSH0 KECCAK256 PUSH1 0x1 ADD DUP4 DUP2 SLOAD DUP2 LT PUSH2 0xFD7 JUMPI PUSH2 0xFD6 PUSH2 0x48B1 JUMP JUMPDEST JUMPDEST SWAP1 PUSH0 MSTORE PUSH1 0x20 PUSH0 KECCAK256 ADD SLOAD DUP2 MSTORE PUSH1 0x20 ADD PUSH2 0xFEF DUP6 DUP5 PUSH2 0x2038 JUMP JUMPDEST ISZERO ISZERO DUP2 MSTORE POP DUP3 PUSH1 0x1 DUP4 PUSH2 0x1002 SWAP2 SWAP1 PUSH2 0x487E JUMP JUMPDEST DUP2 MLOAD DUP2 LT PUSH2 0x1013 JUMPI PUSH2 0x1012 PUSH2 0x48B1 JUMP JUMPDEST JUMPDEST PUSH1 0x20 MUL PUSH1 0x20 ADD ADD DUP2 SWAP1 MSTORE POP DUP1 DUP1 PUSH2 0x1029 SWAP1 PUSH2 0x48DE JUMP JUMPDEST SWAP2 POP POP PUSH2 0xD1C JUMP JUMPDEST POP SWAP2 SWAP1 POP JUMP JUMPDEST PUSH1 0x13 PUSH1 0x20 MSTORE DUP1 PUSH0 MSTORE PUSH1 0x40 PUSH0 KECCAK256 PUSH0 SWAP2 POP SWAP1 POP DUP1 PUSH0 ADD SLOAD SWAP1 DUP1 PUSH1 0x1 ADD SLOAD SWAP1 POP DUP3 JUMP JUMPDEST PUSH2 0x105F PUSH2 0x395C JUMP JUMPDEST PUSH1 0x40 MLOAD DUP1 PUSH1 0xA0 ADD PUSH1 0x40 MSTORE DUP1 PUSH1 0xD PUSH0 DUP6 PUSH20 0xFFFFFFFFFFFFFFFFFFFFFFFFFFFFFFFFFFFFFFFF AND PUSH20 0xFFFFFFFFFFFFFFFFFFFFFFFFFFFFFFFFFFFFFFFF AND DUP2 MSTORE PUSH1 0x20 ADD SWAP1 DUP2 MSTORE PUSH1 0x20 ADD PUSH0 KECCAK256 PUSH1 0x1 ADD DUP1 SLOAD SWAP1 POP DUP2 MSTORE PUSH1 0x20 ADD PUSH1 0x12 PUSH0 DUP6 PUSH20 0xFFFFFFFFFFFFFFFFFFFFFFFFFFFFFFFFFFFFFFFF AND PUSH20 0xFFFFFFFFFFFFFFFFFFFFFFFFFFFFFFFFFFFFFFFF AND DUP2 MSTORE PUSH1 0x20 ADD SWAP1 DUP2 MSTORE PUSH1 0x20 ADD PUSH0 KECCAK256 PUSH0 ADD SLOAD DUP2 MSTORE PUSH1 0x20 ADD PUSH2 0x1101 DUP5 PUSH2 0x222B JUMP JUMPDEST DUP2 MSTORE PUSH1 0x20 ADD PUSH2 0x110F DUP5 PUSH2 0x2393 JUMP JUMPDEST DUP2 MSTORE PUSH1 0x20 ADD PUSH1 0x12 PUSH0 DUP6 PUSH20 0xFFFFFFFFFFFFFFFFFFFFFFFFFFFFFFFFFFFFFFFF AND PUSH20 0xFFFFFFFFFFFFFFFFFFFFFFFFFFFFFFFFFFFFFFFF AND DUP2 MSTORE PUSH1 0x20 ADD SWAP1 DUP2 MSTORE PUSH1 0x20 ADD PUSH0 KECCAK256 PUSH1 0x3 ADD SLOAD DUP2 MSTORE POP SWAP1 POP SWAP2 SWAP1 POP JUMP JUMPDEST PUSH0 CALLER SWAP1 POP PUSH2 0x116C DUP2 PUSH2 0x23EE JUMP JUMPDEST PUSH2 0x11AB JUMPI PUSH1 0x40 MLOAD PUSH32 0x8C379A000000000000000000000000000000000000000000000000000000000 DUP2 MSTORE PUSH1 0x4 ADD PUSH2 0x11A2 SWAP1 PUSH2 0x49F3 JUMP JUMPDEST PUSH1 0x40 MLOAD DUP1 SWAP2 SUB SWAP1 REVERT JUMPDEST PUSH2 0x11B4 DUP2 PUSH2 0x2438 JUMP JUMPDEST PUSH2 0x11F3 JUMPI PUSH1 0x40 MLOAD PUSH32 0x8C379A000000000000000000000000000000000000000000000000000000000 DUP2 MSTORE PUSH1 0x4 ADD PUSH2 0x11EA SWAP1 PUSH2 0x4A5B JUMP JUMPDEST PUSH1 0x40 MLOAD DUP1 SWAP2 SUB SWAP1 REVERT JUMPDEST DUP2 PUSH1 0x12 PUSH0 DUP4 PUSH20 0xFFFFFFFFFFFFFFFFFFFFFFFFFFFFFFFFFFFFFFFF AND PUSH20 0xFFFFFFFFFFFFFFFFFFFFFFFFFFFFFFFFFFFFFFFF AND DUP2 MSTORE PUSH1 0x20 ADD SWAP1 DUP2 MSTORE PUSH1 0x20 ADD PUSH0 KECCAK256 PUSH1 0x3 ADD SLOAD PUSH1 0x13 PUSH0 DUP5 PUSH20 0xFFFFFFFFFFFFFFFFFFFFFFFFFFFFFFFFFFFFFFFF AND PUSH20 0xFFFFFFFFFFFFFFFFFFFFFFFFFFFFFFFFFFFFFFFF AND DUP2 MSTORE PUSH1 0x20 ADD SWAP1 DUP2 MSTORE PUSH1 0x20 ADD PUSH0 KECCAK256 PUSH1 0x1 ADD SLOAD PUSH1 0x13 PUSH0 DUP6 PUSH20 0xFFFFFFFFFFFFFFFFFFFFFFFFFFFFFFFFFFFFFFFF AND PUSH20 0xFFFFFFFFFFFFFFFFFFFFFFFFFFFFFFFFFFFFFFFF AND DUP2 MSTORE PUSH1 0x20 ADD SWAP1 DUP2 MSTORE PUSH1 0x20 ADD PUSH0 KECCAK256 PUSH0 ADD SLOAD PUSH2 0x12BF DUP6 PUSH2 0x2393 JUMP JUMPDEST PUSH2 0x12C9 SWAP2 SWAP1 PUSH2 0x4A79 JUMP JUMPDEST PUSH2 0x12D3 SWAP2 SWAP1 PUSH2 0x487E JUMP JUMPDEST PUSH2 0x12DD SWAP2 SWAP1 PUSH2 0x487E JUMP JUMPDEST LT ISZERO PUSH2 0x131E JUMPI PUSH1 0x40 MLOAD PUSH32 0x8C379A000000000000000000000000000000000000000000000000000000000 DUP2 MSTORE PUSH1 0x4 ADD PUSH2 0x1315 SWAP1 PUSH2 0x4AF6 JUMP JUMPDEST PUSH1 0x40 MLOAD DUP1 SWAP2 SUB SWAP1 REVERT JUMPDEST DUP2 PUSH1 0x12 PUSH0 DUP4 PUSH20 0xFFFFFFFFFFFFFFFFFFFFFFFFFFFFFFFFFFFFFFFF AND PUSH20 0xFFFFFFFFFFFFFFFFFFFFFFFFFFFFFFFFFFFFFFFF AND DUP2 MSTORE PUSH1 0x20 ADD SWAP1 DUP2 MSTORE PUSH1 0x20 ADD PUSH0 KECCAK256 PUSH1 0x3 ADD PUSH0 DUP3 DUP3 SLOAD PUSH2 0x136D SWAP2 SWAP1 PUSH2 0x4A79 JUMP JUMPDEST SWAP3 POP POP DUP2 SWAP1 SSTORE POP PUSH0 PUSH1 0x64 PUSH1 0xC DUP5 PUSH2 0x1384 SWAP2 SWAP1 PUSH2 0x483D JUMP JUMPDEST PUSH2 0x138E SWAP2 SWAP1 PUSH2 0x4B41 JUMP JUMPDEST SWAP1 POP PUSH0 DUP2 DUP5 PUSH2 0x139D SWAP2 SWAP1 PUSH2 0x487E JUMP JUMPDEST SWAP1 POP PUSH0 PUSH1 0x40 MLOAD DUP1 PUSH1 0x40 ADD PUSH1 0x40 MSTORE DUP1 DUP7 DUP2 MSTORE PUSH1 0x20 ADD TIMESTAMP DUP2 MSTORE POP SWAP1 POP DUP1 PUSH1 0xF PUSH0 DUP7 PUSH20 0xFFFFFFFFFFFFFFFFFFFFFFFFFFFFFFFFFFFFFFFF AND PUSH20 0xFFFFFFFFFFFFFFFFFFFFFFFFFFFFFFFFFFFFFFFF AND DUP2 MSTORE PUSH1 0x20 ADD SWAP1 DUP2 MSTORE PUSH1 0x20 ADD PUSH0 KECCAK256 PUSH0 PUSH1 0x1 PUSH1 0x14 PUSH0 DUP10 PUSH20 0xFFFFFFFFFFFFFFFFFFFFFFFFFFFFFFFFFFFFFFFF AND PUSH20 0xFFFFFFFFFFFFFFFFFFFFFFFFFFFFFFFFFFFFFFFF AND DUP2 MSTORE PUSH1 0x20 ADD SWAP1 DUP2 MSTORE PUSH1 0x20 ADD PUSH0 KECCAK256 PUSH1 0x2 ADD SLOAD PUSH2 0x1443 SWAP2 SWAP1 PUSH2 0x4A79 JUMP JUMPDEST DUP2 MSTORE PUSH1 0x20 ADD SWAP1 DUP2 MSTORE PUSH1 0x20 ADD PUSH0 KECCAK256 PUSH0 DUP3 ADD MLOAD DUP2 PUSH0 ADD SSTORE PUSH1 0x20 DUP3 ADD MLOAD DUP2 PUSH1 0x1 ADD SSTORE SWAP1 POP POP PUSH1 0x14 PUSH0 DUP6 PUSH20 0xFFFFFFFFFFFFFFFFFFFFFFFFFFFFFFFFFFFFFFFF AND PUSH20 0xFFFFFFFFFFFFFFFFFFFFFFFFFFFFFFFFFFFFFFFF AND DUP2 MSTORE PUSH1 0x20 ADD SWAP1 DUP2 MSTORE PUSH1 0x20 ADD PUSH0 KECCAK256 PUSH1 0x2 ADD PUSH0 DUP2 SLOAD DUP1 SWAP3 SWAP2 SWAP1 PUSH2 0x14B5 SWAP1 PUSH2 0x48DE JUMP JUMPDEST SWAP2 SWAP1 POP SSTORE POP PUSH2 0x14C4 DUP5 DUP4 PUSH2 0x248E JUMP JUMPDEST PUSH2 0x14E2 PUSH20 0x1419AC3544770AC32FBC3E70129E7EB0197612F6 DUP5 PUSH2 0x248E JUMP JUMPDEST POP POP POP POP POP JUMP JUMPDEST PUSH1 0x60 PUSH1 0xD PUSH0 DUP4 PUSH20 0xFFFFFFFFFFFFFFFFFFFFFFFFFFFFFFFFFFFFFFFF AND PUSH20 0xFFFFFFFFFFFFFFFFFFFFFFFFFFFFFFFFFFFFFFFF AND DUP2 MSTORE PUSH1 0x20 ADD SWAP1 DUP2 MSTORE PUSH1 0x20 ADD PUSH0 KECCAK256 PUSH1 0x1 ADD DUP1 SLOAD SWAP1 POP PUSH8 0xFFFFFFFFFFFFFFFF DUP2 GT ISZERO PUSH2 0x1548 JUMPI PUSH2 0x1547 PUSH2 0x47E3 JUMP JUMPDEST JUMPDEST PUSH1 0x40 MLOAD SWAP1 DUP1 DUP3 MSTORE DUP1 PUSH1 0x20 MUL PUSH1 0x20 ADD DUP3 ADD PUSH1 0x40 MSTORE DUP1 ISZERO PUSH2 0x1581 JUMPI DUP2 PUSH1 0x20 ADD JUMPDEST PUSH2 0x156E PUSH2 0x3986 JUMP JUMPDEST DUP2 MSTORE PUSH1 0x20 ADD SWAP1 PUSH1 0x1 SWAP1 SUB SWAP1 DUP2 PUSH2 0x1566 JUMPI SWAP1 POP JUMPDEST POP SWAP1 POP PUSH0 JUMPDEST PUSH1 0xD PUSH0 DUP5 PUSH20 0xFFFFFFFFFFFFFFFFFFFFFFFFFFFFFFFFFFFFFFFF AND PUSH20 0xFFFFFFFFFFFFFFFFFFFFFFFFFFFFFFFFFFFFFFFF AND DUP2 MSTORE PUSH1 0x20 ADD SWAP1 DUP2 MSTORE PUSH1 0x20 ADD PUSH0 KECCAK256 PUSH1 0x1 ADD DUP1 SLOAD SWAP1 POP DUP2 LT ISZERO PUSH2 0x1830 JUMPI PUSH1 0x40 MLOAD DUP1 PUSH1 0x80 ADD PUSH1 0x40 MSTORE DUP1 PUSH1 0x1 DUP4 PUSH2 0x15E9 SWAP2 SWAP1 PUSH2 0x4A79 JUMP JUMPDEST DUP2 MSTORE PUSH1 0x20 ADD PUSH1 0xD PUSH0 DUP7 PUSH20 0xFFFFFFFFFFFFFFFFFFFFFFFFFFFFFFFFFFFFFFFF AND PUSH20 0xFFFFFFFFFFFFFFFFFFFFFFFFFFFFFFFFFFFFFFFF AND DUP2 MSTORE PUSH1 0x20 ADD SWAP1 DUP2 MSTORE PUSH1 0x20 ADD PUSH0 KECCAK256 PUSH1 0x1 ADD DUP4 DUP2 SLOAD DUP2 LT PUSH2 0x1640 JUMPI PUSH2 0x163F PUSH2 0x48B1 JUMP JUMPDEST JUMPDEST SWAP1 PUSH0 MSTORE PUSH1 0x20 PUSH0 KECCAK256 ADD PUSH0 SWAP1 SLOAD SWAP1 PUSH2 0x100 EXP SWAP1 DIV PUSH20 0xFFFFFFFFFFFFFFFFFFFFFFFFFFFFFFFFFFFFFFFF AND PUSH20 0xFFFFFFFFFFFFFFFFFFFFFFFFFFFFFFFFFFFFFFFF AND DUP2 MSTORE PUSH1 0x20 ADD PUSH1 0xB PUSH0 PUSH1 0xD PUSH0 DUP9 PUSH20 0xFFFFFFFFFFFFFFFFFFFFFFFFFFFFFFFFFFFFFFFF AND PUSH20 0xFFFFFFFFFFFFFFFFFFFFFFFFFFFFFFFFFFFFFFFF AND DUP2 MSTORE PUSH1 0x20 ADD SWAP1 DUP2 MSTORE PUSH1 0x20 ADD PUSH0 KECCAK256 PUSH1 0x1 ADD DUP6 DUP2 SLOAD DUP2 LT PUSH2 0x16D8 JUMPI PUSH2 0x16D7 PUSH2 0x48B1 JUMP JUMPDEST JUMPDEST SWAP1 PUSH0 MSTORE PUSH1 0x20 PUSH0 KECCAK256 ADD PUSH0 SWAP1 SLOAD SWAP1 PUSH2 0x100 EXP SWAP1 DIV PUSH20 0xFFFFFFFFFFFFFFFFFFFFFFFFFFFFFFFFFFFFFFFF AND PUSH20 0xFFFFFFFFFFFFFFFFFFFFFFFFFFFFFFFFFFFFFFFF AND PUSH20 0xFFFFFFFFFFFFFFFFFFFFFFFFFFFFFFFFFFFFFFFF AND DUP2 MSTORE PUSH1 0x20 ADD SWAP1 DUP2 MSTORE PUSH1 0x20 ADD PUSH0 KECCAK256 PUSH1 0x4 ADD SLOAD DUP2 MSTORE PUSH1 0x20 ADD PUSH1 0xB PUSH0 PUSH1 0xD PUSH0 DUP9 PUSH20 0xFFFFFFFFFFFFFFFFFFFFFFFFFFFFFFFFFFFFFFFF AND PUSH20 0xFFFFFFFFFFFFFFFFFFFFFFFFFFFFFFFFFFFFFFFF AND DUP2 MSTORE PUSH1 0x20 ADD SWAP1 DUP2 MSTORE PUSH1 0x20 ADD PUSH0 KECCAK256 PUSH1 0x1 ADD DUP6 DUP2 SLOAD DUP2 LT PUSH2 0x1797 JUMPI PUSH2 0x1796 PUSH2 0x48B1 JUMP JUMPDEST JUMPDEST SWAP1 PUSH0 MSTORE PUSH1 0x20 PUSH0 KECCAK256 ADD PUSH0 SWAP1 SLOAD SWAP1 PUSH2 0x100 EXP SWAP1 DIV PUSH20 0xFFFFFFFFFFFFFFFFFFFFFFFFFFFFFFFFFFFFFFFF AND PUSH20 0xFFFFFFFFFFFFFFFFFFFFFFFFFFFFFFFFFFFFFFFF AND PUSH20 0xFFFFFFFFFFFFFFFFFFFFFFFFFFFFFFFFFFFFFFFF AND DUP2 MSTORE PUSH1 0x20 ADD SWAP1 DUP2 MSTORE PUSH1 0x20 ADD PUSH0 KECCAK256 PUSH1 0x4 ADD SLOAD DUP2 MSTORE POP DUP3 DUP3 DUP2 MLOAD DUP2 LT PUSH2 0x1812 JUMPI PUSH2 0x1811 PUSH2 0x48B1 JUMP JUMPDEST JUMPDEST PUSH1 0x20 MUL PUSH1 0x20 ADD ADD DUP2 SWAP1 MSTORE POP DUP1 DUP1 PUSH2 0x1828 SWAP1 PUSH2 0x48DE JUMP JUMPDEST SWAP2 POP POP PUSH2 0x1586 JUMP JUMPDEST POP SWAP2 SWAP1 POP JUMP JUMPDEST PUSH1 0xB PUSH1 0x20 MSTORE DUP1 PUSH0 MSTORE PUSH1 0x40 PUSH0 KECCAK256 PUSH0 SWAP2 POP SWAP1 POP DUP1 PUSH0 ADD SLOAD SWAP1 DUP1 PUSH1 0x1 ADD PUSH0 SWAP1 SLOAD SWAP1 PUSH2 0x100 EXP SWAP1 DIV PUSH20 0xFFFFFFFFFFFFFFFFFFFFFFFFFFFFFFFFFFFFFFFF AND SWAP1 DUP1 PUSH1 0x2 ADD PUSH0 SWAP1 SLOAD SWAP1 PUSH2 0x100 EXP SWAP1 DIV PUSH20 0xFFFFFFFFFFFFFFFFFFFFFFFFFFFFFFFFFFFFFFFF AND SWAP1 DUP1 PUSH1 0x3 ADD SLOAD SWAP1 DUP1 PUSH1 0x4 ADD SLOAD SWAP1 DUP1 PUSH1 0x5 ADD SLOAD SWAP1 DUP1 PUSH1 0x6 ADD PUSH0 SWAP1 SLOAD SWAP1 PUSH2 0x100 EXP SWAP1 DIV PUSH1 0xFF AND SWAP1 DUP1 PUSH1 0x7 ADD SLOAD SWAP1 DUP1 PUSH1 0x8 ADD SLOAD SWAP1 POP DUP10 JUMP JUMPDEST PUSH0 SLOAD DUP2 JUMP JUMPDEST PUSH2 0x18D7 PUSH2 0x39C0 JUMP JUMPDEST PUSH1 0x40 MLOAD DUP1 PUSH1 0x80 ADD PUSH1 0x40 MSTORE DUP1 PUSH0 SLOAD DUP2 MSTORE PUSH1 0x20 ADD PUSH1 0x1 SLOAD DUP2 MSTORE PUSH1 0x20 ADD PUSH1 0x2 SLOAD DUP2 MSTORE PUSH1 0x20 ADD PUSH2 0x1901 PUSH2 0x2580 JUMP JUMPDEST DUP2 MSTORE POP SWAP1 POP SWAP1 JUMP JUMPDEST PUSH1 0x9 PUSH1 0x20 MSTORE DUP1 PUSH0 MSTORE PUSH1 0x40 PUSH0 KECCAK256 PUSH0 SWAP2 POP SWAP1 POP DUP1 PUSH0 ADD SLOAD SWAP1 DUP1 PUSH1 0x1 ADD SLOAD SWAP1 DUP1 PUSH1 0x2 ADD SLOAD SWAP1 DUP1 PUSH1 0x3 ADD SLOAD SWAP1 DUP1 PUSH1 0x4 ADD SLOAD SWAP1 DUP1 PUSH1 0x5 ADD SLOAD SWAP1 DUP1 PUSH1 0x6 ADD SLOAD SWAP1 POP DUP8 JUMP JUMPDEST PUSH1 0x60 PUSH1 0x14 PUSH0 DUP6 PUSH20 0xFFFFFFFFFFFFFFFFFFFFFFFFFFFFFFFFFFFFFFFF AND PUSH20 0xFFFFFFFFFFFFFFFFFFFFFFFFFFFFFFFFFFFFFFFF AND DUP2 MSTORE PUSH1 0x20 ADD SWAP1 DUP2 MSTORE PUSH1 0x20 ADD PUSH0 KECCAK256 PUSH1 0x2 ADD SLOAD PUSH8 0xFFFFFFFFFFFFFFFF DUP2 GT ISZERO PUSH2 0x19A3 JUMPI PUSH2 0x19A2 PUSH2 0x47E3 JUMP JUMPDEST JUMPDEST PUSH1 0x40 MLOAD SWAP1 DUP1 DUP3 MSTORE DUP1 PUSH1 0x20 MUL PUSH1 0x20 ADD DUP3 ADD PUSH1 0x40 MSTORE DUP1 ISZERO PUSH2 0x19DC JUMPI DUP2 PUSH1 0x20 ADD JUMPDEST PUSH2 0x19C9 PUSH2 0x39E4 JUMP JUMPDEST DUP2 MSTORE PUSH1 0x20 ADD SWAP1 PUSH1 0x1 SWAP1 SUB SWAP1 DUP2 PUSH2 0x19C1 JUMPI SWAP1 POP JUMPDEST POP SWAP1 POP PUSH0 PUSH1 0x14 PUSH0 DUP7 PUSH20 0xFFFFFFFFFFFFFFFFFFFFFFFFFFFFFFFFFFFFFFFF AND PUSH20 0xFFFFFFFFFFFFFFFFFFFFFFFFFFFFFFFFFFFFFFFF AND DUP2 MSTORE PUSH1 0x20 ADD SWAP1 DUP2 MSTORE PUSH1 0x20 ADD PUSH0 KECCAK256 PUSH1 0x2 ADD SLOAD DUP4 DUP6 PUSH2 0x1A2D SWAP2 SWAP1 PUSH2 0x483D JUMP JUMPDEST GT PUSH2 0x1A43 JUMPI DUP3 DUP5 PUSH2 0x1A3E SWAP2 SWAP1 PUSH2 0x483D JUMP JUMPDEST PUSH2 0x1A85 JUMP JUMPDEST PUSH1 0x14 PUSH0 DUP7 PUSH20 0xFFFFFFFFFFFFFFFFFFFFFFFFFFFFFFFFFFFFFFFF AND PUSH20 0xFFFFFFFFFFFFFFFFFFFFFFFFFFFFFFFFFFFFFFFF AND DUP2 MSTORE PUSH1 0x20 ADD SWAP1 DUP2 MSTORE PUSH1 0x20 ADD PUSH0 KECCAK256 PUSH1 0x2 ADD SLOAD JUMPDEST SWAP1 POP PUSH0 DUP4 DUP3 LT ISZERO PUSH2 0x1A96 JUMPI PUSH0 PUSH2 0x1AA3 JUMP JUMPDEST DUP4 DUP3 PUSH2 0x1AA2 SWAP2 SWAP1 PUSH2 0x487E JUMP JUMPDEST JUMPDEST SWAP1 POP PUSH0 DUP1 DUP4 SWAP1 POP JUMPDEST DUP3 DUP2 GT ISZERO PUSH2 0x1B5C JUMPI PUSH1 0xF PUSH0 DUP10 PUSH20 0xFFFFFFFFFFFFFFFFFFFFFFFFFFFFFFFFFFFFFFFF AND PUSH20 0xFFFFFFFFFFFFFFFFFFFFFFFFFFFFFFFFFFFFFFFF AND DUP2 MSTORE PUSH1 0x20 ADD SWAP1 DUP2 MSTORE PUSH1 0x20 ADD PUSH0 KECCAK256 PUSH0 DUP3 DUP2 MSTORE PUSH1 0x20 ADD SWAP1 DUP2 MSTORE PUSH1 0x20 ADD PUSH0 KECCAK256 PUSH1 0x40 MLOAD DUP1 PUSH1 0x40 ADD PUSH1 0x40 MSTORE SWAP1 DUP2 PUSH0 DUP3 ADD SLOAD DUP2 MSTORE PUSH1 0x20 ADD PUSH1 0x1 DUP3 ADD SLOAD DUP2 MSTORE POP POP DUP6 DUP4 DUP2 MLOAD DUP2 LT PUSH2 0x1B30 JUMPI PUSH2 0x1B2F PUSH2 0x48B1 JUMP JUMPDEST JUMPDEST PUSH1 0x20 MUL PUSH1 0x20 ADD ADD DUP2 SWAP1 MSTORE POP DUP2 DUP1 PUSH2 0x1B46 SWAP1 PUSH2 0x48DE JUMP JUMPDEST SWAP3 POP POP DUP1 DUP1 PUSH2 0x1B54 SWAP1 PUSH2 0x4925 JUMP JUMPDEST SWAP2 POP POP PUSH2 0x1AAB JUMP JUMPDEST POP POP POP POP SWAP4 SWAP3 POP POP POP JUMP JUMPDEST PUSH1 0x8 PUSH1 0x20 MSTORE DUP1 PUSH0 MSTORE PUSH1 0x40 PUSH0 KECCAK256 PUSH0 SWAP2 POP SWAP1 POP DUP1 PUSH0 ADD SLOAD SWAP1 DUP1 PUSH1 0x1 ADD DUP1 SLOAD PUSH2 0x1B8C SWAP1 PUSH2 0x4979 JUMP JUMPDEST DUP1 PUSH1 0x1F ADD PUSH1 0x20 DUP1 SWAP2 DIV MUL PUSH1 0x20 ADD PUSH1 0x40 MLOAD SWAP1 DUP2 ADD PUSH1 0x40 MSTORE DUP1 SWAP3 SWAP2 SWAP1 DUP2 DUP2 MSTORE PUSH1 0x20 ADD DUP3 DUP1 SLOAD PUSH2 0x1BB8 SWAP1 PUSH2 0x4979 JUMP JUMPDEST DUP1 ISZERO PUSH2 0x1C03 JUMPI DUP1 PUSH1 0x1F LT PUSH2 0x1BDA JUMPI PUSH2 0x100 DUP1 DUP4 SLOAD DIV MUL DUP4 MSTORE SWAP2 PUSH1 0x20 ADD SWAP2 PUSH2 0x1C03 JUMP JUMPDEST DUP3 ADD SWAP2 SWAP1 PUSH0 MSTORE PUSH1 0x20 PUSH0 KECCAK256 SWAP1 JUMPDEST DUP2 SLOAD DUP2 MSTORE SWAP1 PUSH1 0x1 ADD SWAP1 PUSH1 0x20 ADD DUP1 DUP4 GT PUSH2 0x1BE6 JUMPI DUP3 SWAP1 SUB PUSH1 0x1F AND DUP3 ADD SWAP2 JUMPDEST POP POP POP POP POP SWAP1 DUP1 PUSH1 0x2 ADD SLOAD SWAP1 DUP1 PUSH1 0x3 ADD PUSH0 SWAP1 SLOAD SWAP1 PUSH2 0x100 EXP SWAP1 DIV PUSH1 0xFF AND SWAP1 DUP1 PUSH1 0x3 ADD PUSH1 0x1 SWAP1 SLOAD SWAP1 PUSH2 0x100 EXP SWAP1 DIV PUSH1 0xFF AND SWAP1 DUP1 PUSH1 0x4 ADD SLOAD SWAP1 DUP1 PUSH1 0x5 ADD SLOAD SWAP1 DUP1 PUSH1 0x6 ADD SLOAD SWAP1 DUP1 PUSH1 0x7 ADD PUSH0 SWAP1 SLOAD SWAP1 PUSH2 0x100 EXP SWAP1 DIV PUSH1 0xFF AND SWAP1 POP DUP10 JUMP JUMPDEST PUSH2 0x1C66 DUP3 DUP3 PUSH2 0x262F JUMP JUMPDEST POP POP JUMP JUMPDEST PUSH1 0x1 SLOAD DUP2 JUMP JUMPDEST PUSH1 0xC PUSH1 0x20 MSTORE DUP1 PUSH0 MSTORE PUSH1 0x40 PUSH0 KECCAK256 PUSH0 SWAP2 POP SLOAD SWAP1 PUSH2 0x100 EXP SWAP1 DIV PUSH20 0xFFFFFFFFFFFFFFFFFFFFFFFFFFFFFFFFFFFFFFFF AND DUP2 JUMP JUMPDEST PUSH1 0xA PUSH1 0x20 MSTORE DUP1 PUSH0 MSTORE PUSH1 0x40 PUSH0 KECCAK256 PUSH0 SWAP2 POP SWAP1 POP DUP1 PUSH0 ADD SLOAD SWAP1 DUP1 PUSH1 0x1 ADD SLOAD SWAP1 DUP1 PUSH1 0x2 ADD SLOAD SWAP1 DUP1 PUSH1 0x3 ADD SLOAD SWAP1 DUP1 PUSH1 0x4 ADD SLOAD SWAP1 DUP1 PUSH1 0x5 ADD SLOAD SWAP1 DUP1 PUSH1 0x6 ADD SLOAD SWAP1 POP DUP8 JUMP JUMPDEST PUSH1 0x14 PUSH1 0x20 MSTORE DUP1 PUSH0 MSTORE PUSH1 0x40 PUSH0 KECCAK256 PUSH0 SWAP2 POP SWAP1 POP DUP1 PUSH0 ADD SLOAD SWAP1 DUP1 PUSH1 0x1 ADD SLOAD SWAP1 DUP1 PUSH1 0x2 ADD SLOAD SWAP1 POP DUP4 JUMP JUMPDEST PUSH1 0x11 PUSH1 0x20 MSTORE DUP2 PUSH0 MSTORE PUSH1 0x40 PUSH0 KECCAK256 PUSH1 0x20 MSTORE DUP1 PUSH0 MSTORE PUSH1 0x40 PUSH0 KECCAK256 PUSH0 SWAP2 POP SWAP2 POP POP SLOAD DUP2 JUMP JUMPDEST PUSH1 0x12 PUSH1 0x20 MSTORE DUP1 PUSH0 MSTORE PUSH1 0x40 PUSH0 KECCAK256 PUSH0 SWAP2 POP SWAP1 POP DUP1 PUSH0 ADD SLOAD SWAP1 DUP1 PUSH1 0x3 ADD SLOAD SWAP1 POP DUP3 JUMP JUMPDEST PUSH0 PUSH2 0x1D4E DUP3 PUSH2 0x23EE JUMP JUMPDEST DUP1 ISZERO PUSH2 0x1D5F JUMPI POP PUSH2 0x1D5E DUP3 PUSH2 0x2438 JUMP JUMPDEST JUMPDEST SWAP1 POP SWAP2 SWAP1 POP JUMP JUMPDEST PUSH2 0x1D6E PUSH2 0x2694 JUMP JUMPDEST PUSH2 0x1DAD JUMPI PUSH1 0x40 MLOAD PUSH32 0x8C379A000000000000000000000000000000000000000000000000000000000 DUP2 MSTORE PUSH1 0x4 ADD PUSH2 0x1DA4 SWAP1 PUSH2 0x4BBB JUMP JUMPDEST PUSH1 0x40 MLOAD DUP1 SWAP2 SUB SWAP1 REVERT JUMPDEST PUSH1 0x2 DUP2 SUB PUSH2 0x1DD4 JUMPI DUP2 PUSH1 0x8 PUSH0 PUSH1 0x1 DUP2 MSTORE PUSH1 0x20 ADD SWAP1 DUP2 MSTORE PUSH1 0x20 ADD PUSH0 KECCAK256 PUSH1 0x5 ADD DUP2 SWAP1 SSTORE POP PUSH2 0x1F8E JUMP JUMPDEST PUSH1 0x3 DUP2 SUB PUSH2 0x1E36 JUMPI DUP2 PUSH1 0x13 PUSH0 DUP6 PUSH20 0xFFFFFFFFFFFFFFFFFFFFFFFFFFFFFFFFFFFFFFFF AND PUSH20 0xFFFFFFFFFFFFFFFFFFFFFFFFFFFFFFFFFFFFFFFF AND DUP2 MSTORE PUSH1 0x20 ADD SWAP1 DUP2 MSTORE PUSH1 0x20 ADD PUSH0 KECCAK256 PUSH0 ADD PUSH0 DUP3 DUP3 SLOAD PUSH2 0x1E2A SWAP2 SWAP1 PUSH2 0x4A79 JUMP JUMPDEST SWAP3 POP POP DUP2 SWAP1 SSTORE POP PUSH2 0x1F8D JUMP JUMPDEST PUSH1 0x4 DUP2 SUB PUSH2 0x1E99 JUMPI DUP2 PUSH1 0x13 PUSH0 DUP6 PUSH20 0xFFFFFFFFFFFFFFFFFFFFFFFFFFFFFFFFFFFFFFFF AND PUSH20 0xFFFFFFFFFFFFFFFFFFFFFFFFFFFFFFFFFFFFFFFF AND DUP2 MSTORE PUSH1 0x20 ADD SWAP1 DUP2 MSTORE PUSH1 0x20 ADD PUSH0 KECCAK256 PUSH1 0x1 ADD PUSH0 DUP3 DUP3 SLOAD PUSH2 0x1E8D SWAP2 SWAP1 PUSH2 0x4A79 JUMP JUMPDEST SWAP3 POP POP DUP2 SWAP1 SSTORE POP PUSH2 0x1F8C JUMP JUMPDEST PUSH1 0x5 DUP2 SUB PUSH2 0x1EFE JUMPI PUSH1 0x1 PUSH1 0xB PUSH0 DUP6 PUSH20 0xFFFFFFFFFFFFFFFFFFFFFFFFFFFFFFFFFFFFFFFF AND PUSH20 0xFFFFFFFFFFFFFFFFFFFFFFFFFFFFFFFFFFFFFFFF AND DUP2 MSTORE PUSH1 0x20 ADD SWAP1 DUP2 MSTORE PUSH1 0x20 ADD PUSH0 KECCAK256 PUSH1 0x6 ADD PUSH0 PUSH2 0x100 EXP DUP2 SLOAD DUP2 PUSH1 0xFF MUL NOT AND SWAP1 DUP4 ISZERO ISZERO MUL OR SWAP1 SSTORE POP PUSH2 0x1F8B JUMP JUMPDEST PUSH1 0x6 DUP2 SUB PUSH2 0x1F62 JUMPI PUSH0 PUSH1 0xB PUSH0 DUP6 PUSH20 0xFFFFFFFFFFFFFFFFFFFFFFFFFFFFFFFFFFFFFFFF AND PUSH20 0xFFFFFFFFFFFFFFFFFFFFFFFFFFFFFFFFFFFFFFFF AND DUP2 MSTORE PUSH1 0x20 ADD SWAP1 DUP2 MSTORE PUSH1 0x20 ADD PUSH0 KECCAK256 PUSH1 0x6 ADD PUSH0 PUSH2 0x100 EXP DUP2 SLOAD DUP2 PUSH1 0xFF MUL NOT AND SWAP1 DUP4 ISZERO ISZERO MUL OR SWAP1 SSTORE POP PUSH2 0x1F8A JUMP JUMPDEST PUSH1 0x7 DUP2 SUB PUSH2 0x1F89 JUMPI PUSH2 0x1F88 PUSH20 0x1419AC3544770AC32FBC3E70129E7EB0197612F6 DUP4 PUSH2 0x248E JUMP JUMPDEST JUMPDEST JUMPDEST JUMPDEST JUMPDEST JUMPDEST JUMPDEST POP POP POP JUMP JUMPDEST PUSH0 CALLER SWAP1 POP PUSH2 0x1FA0 DUP5 PUSH2 0x1D44 JUMP JUMPDEST PUSH2 0x1FDF JUMPI PUSH1 0x40 MLOAD PUSH32 0x8C379A000000000000000000000000000000000000000000000000000000000 DUP2 MSTORE PUSH1 0x4 ADD PUSH2 0x1FD6 SWAP1 PUSH2 0x4C23 JUMP JUMPDEST PUSH1 0x40 MLOAD DUP1 SWAP2 SUB SWAP1 REVERT JUMPDEST PUSH2 0x1FE8 DUP2 PUSH2 0x23EE JUMP JUMPDEST ISZERO PUSH2 0x2028 JUMPI PUSH1 0x40 MLOAD PUSH32 0x8C379A000000000000000000000000000000000000000000000000000000000 DUP2 MSTORE PUSH1 0x4 ADD PUSH2 0x201F SWAP1 PUSH2 0x4C8B JUMP JUMPDEST PUSH1 0x40 MLOAD DUP1 SWAP2 SUB SWAP1 REVERT JUMPDEST PUSH2 0x2032 DUP2 DUP6 PUSH2 0x26DD JUMP JUMPDEST POP POP POP POP JUMP JUMPDEST PUSH0 PUSH1 0x9 PUSH0 DUP4 DUP2 MSTORE PUSH1 0x20 ADD SWAP1 DUP2 MSTORE PUSH1 0x20 ADD PUSH0 KECCAK256 PUSH1 0x4 ADD SLOAD PUSH1 0xD PUSH0 DUP6 PUSH20 0xFFFFFFFFFFFFFFFFFFFFFFFFFFFFFFFFFFFFFFFF AND PUSH20 0xFFFFFFFFFFFFFFFFFFFFFFFFFFFFFFFFFFFFFFFF AND DUP2 MSTORE PUSH1 0x20 ADD SWAP1 DUP2 MSTORE PUSH1 0x20 ADD PUSH0 KECCAK256 PUSH0 ADD SLOAD LT ISZERO DUP1 ISZERO PUSH2 0x20F0 JUMPI POP PUSH1 0x9 PUSH0 DUP4 DUP2 MSTORE PUSH1 0x20 ADD SWAP1 DUP2 MSTORE PUSH1 0x20 ADD PUSH0 KECCAK256 PUSH1 0x6 ADD SLOAD PUSH1 0xD PUSH0 DUP6 PUSH20 0xFFFFFFFFFFFFFFFFFFFFFFFFFFFFFFFFFFFFFFFF AND PUSH20 0xFFFFFFFFFFFFFFFFFFFFFFFFFFFFFFFFFFFFFFFF AND DUP2 MSTORE PUSH1 0x20 ADD SWAP1 DUP2 MSTORE PUSH1 0x20 ADD PUSH0 KECCAK256 PUSH1 0x4 ADD SLOAD LT ISZERO JUMPDEST DUP1 ISZERO PUSH2 0x2153 JUMPI POP PUSH1 0x9 PUSH0 DUP4 DUP2 MSTORE PUSH1 0x20 ADD SWAP1 DUP2 MSTORE PUSH1 0x20 ADD PUSH0 KECCAK256 PUSH1 0x3 ADD SLOAD PUSH1 0xD PUSH0 DUP6 PUSH20 0xFFFFFFFFFFFFFFFFFFFFFFFFFFFFFFFFFFFFFFFF AND PUSH20 0xFFFFFFFFFFFFFFFFFFFFFFFFFFFFFFFFFFFFFFFF AND DUP2 MSTORE PUSH1 0x20 ADD SWAP1 DUP2 MSTORE PUSH1 0x20 ADD PUSH0 KECCAK256 PUSH1 0x1 ADD DUP1 SLOAD SWAP1 POP LT ISZERO JUMPDEST DUP1 ISZERO PUSH2 0x21B3 JUMPI POP PUSH1 0x9 PUSH0 DUP4 DUP2 MSTORE PUSH1 0x20 ADD SWAP1 DUP2 MSTORE PUSH1 0x20 ADD PUSH0 KECCAK256 PUSH1 0x5 ADD SLOAD PUSH1 0xB PUSH0 DUP6 PUSH20 0xFFFFFFFFFFFFFFFFFFFFFFFFFFFFFFFFFFFFFFFF AND PUSH20 0xFFFFFFFFFFFFFFFFFFFFFFFFFFFFFFFFFFFFFFFF AND DUP2 MSTORE PUSH1 0x20 ADD SWAP1 DUP2 MSTORE PUSH1 0x20 ADD PUSH0 KECCAK256 PUSH1 0x5 ADD SLOAD LT ISZERO JUMPDEST DUP1 ISZERO PUSH2 0x2213 JUMPI POP PUSH1 0x9 PUSH0 DUP4 DUP2 MSTORE PUSH1 0x20 ADD SWAP1 DUP2 MSTORE PUSH1 0x20 ADD PUSH0 KECCAK256 PUSH1 0x2 ADD SLOAD PUSH1 0xB PUSH0 DUP6 PUSH20 0xFFFFFFFFFFFFFFFFFFFFFFFFFFFFFFFFFFFFFFFF AND PUSH20 0xFFFFFFFFFFFFFFFFFFFFFFFFFFFFFFFFFFFFFFFF AND DUP2 MSTORE PUSH1 0x20 ADD SWAP1 DUP2 MSTORE PUSH1 0x20 ADD PUSH0 KECCAK256 PUSH1 0x4 ADD SLOAD LT ISZERO JUMPDEST ISZERO PUSH2 0x2221 JUMPI PUSH1 0x1 SWAP1 POP PUSH2 0x2225 JUMP JUMPDEST PUSH0 SWAP1 POP JUMPDEST SWAP3 SWAP2 POP POP JUMP JUMPDEST PUSH0 DUP1 PUSH0 SWAP1 POP PUSH0 PUSH1 0x12 PUSH0 DUP6 PUSH20 0xFFFFFFFFFFFFFFFFFFFFFFFFFFFFFFFFFFFFFFFF AND PUSH20 0xFFFFFFFFFFFFFFFFFFFFFFFFFFFFFFFFFFFFFFFF AND DUP2 MSTORE PUSH1 0x20 ADD SWAP1 DUP2 MSTORE PUSH1 0x20 ADD PUSH0 KECCAK256 PUSH1 0x40 MLOAD DUP1 PUSH1 0x80 ADD PUSH1 0x40 MSTORE SWAP1 DUP2 PUSH0 DUP3 ADD SLOAD DUP2 MSTORE PUSH1 0x20 ADD PUSH1 0x1 DUP3 ADD DUP1 SLOAD DUP1 PUSH1 0x20 MUL PUSH1 0x20 ADD PUSH1 0x40 MLOAD SWAP1 DUP2 ADD PUSH1 0x40 MSTORE DUP1 SWAP3 SWAP2 SWAP1 DUP2 DUP2 MSTORE PUSH1 0x20 ADD DUP3 DUP1 SLOAD DUP1 ISZERO PUSH2 0x22CF JUMPI PUSH1 0x20 MUL DUP3 ADD SWAP2 SWAP1 PUSH0 MSTORE PUSH1 0x20 PUSH0 KECCAK256 SWAP1 JUMPDEST DUP2 SLOAD DUP2 MSTORE PUSH1 0x20 ADD SWAP1 PUSH1 0x1 ADD SWAP1 DUP1 DUP4 GT PUSH2 0x22BB JUMPI JUMPDEST POP POP POP POP POP DUP2 MSTORE PUSH1 0x20 ADD PUSH1 0x2 DUP3 ADD DUP1 SLOAD DUP1 PUSH1 0x20 MUL PUSH1 0x20 ADD PUSH1 0x40 MLOAD SWAP1 DUP2 ADD PUSH1 0x40 MSTORE DUP1 SWAP3 SWAP2 SWAP1 DUP2 DUP2 MSTORE PUSH1 0x20 ADD DUP3 DUP1 SLOAD DUP1 ISZERO PUSH2 0x2325 JUMPI PUSH1 0x20 MUL DUP3 ADD SWAP2 SWAP1 PUSH0 MSTORE PUSH1 0x20 PUSH0 KECCAK256 SWAP1 JUMPDEST DUP2 SLOAD DUP2 MSTORE PUSH1 0x20 ADD SWAP1 PUSH1 0x1 ADD SWAP1 DUP1 DUP4 GT PUSH2 0x2311 JUMPI JUMPDEST POP POP POP POP POP DUP2 MSTORE PUSH1 0x20 ADD PUSH1 0x3 DUP3 ADD SLOAD DUP2 MSTORE POP POP SWAP1 POP PUSH0 JUMPDEST DUP2 PUSH1 0x20 ADD MLOAD MLOAD DUP2 LT ISZERO PUSH2 0x2388 JUMPI DUP2 PUSH1 0x20 ADD MLOAD DUP2 DUP2 MLOAD DUP2 LT PUSH2 0x2360 JUMPI PUSH2 0x235F PUSH2 0x48B1 JUMP JUMPDEST JUMPDEST PUSH1 0x20 MUL PUSH1 0x20 ADD ADD MLOAD DUP4 PUSH2 0x2373 SWAP2 SWAP1 PUSH2 0x4A79 JUMP JUMPDEST SWAP3 POP DUP1 DUP1 PUSH2 0x2380 SWAP1 PUSH2 0x48DE JUMP JUMPDEST SWAP2 POP POP PUSH2 0x233C JUMP JUMPDEST POP DUP2 SWAP3 POP POP POP SWAP2 SWAP1 POP JUMP JUMPDEST PUSH0 PUSH2 0x239D DUP3 PUSH2 0x222B JUMP JUMPDEST PUSH1 0x12 PUSH0 DUP5 PUSH20 0xFFFFFFFFFFFFFFFFFFFFFFFFFFFFFFFFFFFFFFFF AND PUSH20 0xFFFFFFFFFFFFFFFFFFFFFFFFFFFFFFFFFFFFFFFF AND DUP2 MSTORE PUSH1 0x20 ADD SWAP1 DUP2 MSTORE PUSH1 0x20 ADD PUSH0 KECCAK256 PUSH0 ADD SLOAD PUSH2 0x23E7 SWAP2 SWAP1 PUSH2 0x4A79 JUMP JUMPDEST SWAP1 POP SWAP2 SWAP1 POP JUMP JUMPDEST PUSH0 DUP1 PUSH1 0xB PUSH0 DUP5 PUSH20 0xFFFFFFFFFFFFFFFFFFFFFFFFFFFFFFFFFFFFFFFF AND PUSH20 0xFFFFFFFFFFFFFFFFFFFFFFFFFFFFFFFFFFFFFFFF AND DUP2 MSTORE PUSH1 0x20 ADD SWAP1 DUP2 MSTORE PUSH1 0x20 ADD PUSH0 KECCAK256 PUSH0 ADD SLOAD GT SWAP1 POP SWAP2 SWAP1 POP JUMP JUMPDEST PUSH0 PUSH1 0xB PUSH0 DUP4 PUSH20 0xFFFFFFFFFFFFFFFFFFFFFFFFFFFFFFFFFFFFFFFF AND PUSH20 0xFFFFFFFFFFFFFFFFFFFFFFFFFFFFFFFFFFFFFFFF AND DUP2 MSTORE PUSH1 0x20 ADD SWAP1 DUP2 MSTORE PUSH1 0x20 ADD PUSH0 KECCAK256 PUSH1 0x6 ADD PUSH0 SWAP1 SLOAD SWAP1 PUSH2 0x100 EXP SWAP1 DIV PUSH1 0xFF AND ISZERO SWAP1 POP SWAP2 SWAP1 POP JUMP JUMPDEST PUSH1 0x3 PUSH0 SWAP1 SLOAD SWAP1 PUSH2 0x100 EXP SWAP1 DIV PUSH1 0xFF AND ISZERO PUSH2 0x2537 JUMPI PUSH20 0xC06E70C4038059965172CF02025D7E5033F39767 PUSH20 0xFFFFFFFFFFFFFFFFFFFFFFFFFFFFFFFFFFFFFFFF AND PUSH4 0xA9059CBB DUP4 DUP4 PUSH1 0x40 MLOAD DUP4 PUSH4 0xFFFFFFFF AND PUSH1 0xE0 SHL DUP2 MSTORE PUSH1 0x4 ADD PUSH2 0x24F1 SWAP3 SWAP2 SWAP1 PUSH2 0x4CA9 JUMP JUMPDEST PUSH1 0x20 PUSH1 0x40 MLOAD DUP1 DUP4 SUB DUP2 PUSH0 DUP8 GAS CALL ISZERO DUP1 ISZERO PUSH2 0x250D JUMPI RETURNDATASIZE PUSH0 DUP1 RETURNDATACOPY RETURNDATASIZE PUSH0 REVERT JUMPDEST POP POP POP POP PUSH1 0x40 MLOAD RETURNDATASIZE PUSH1 0x1F NOT PUSH1 0x1F DUP3 ADD AND DUP3 ADD DUP1 PUSH1 0x40 MSTORE POP DUP2 ADD SWAP1 PUSH2 0x2531 SWAP2 SWAP1 PUSH2 0x4CFA JUMP JUMPDEST POP PUSH2 0x257C JUMP JUMPDEST DUP2 PUSH20 0xFFFFFFFFFFFFFFFFFFFFFFFFFFFFFFFFFFFFFFFF AND PUSH2 0x8FC DUP3 SWAP1 DUP2 ISZERO MUL SWAP1 PUSH1 0x40 MLOAD PUSH0 PUSH1 0x40 MLOAD DUP1 DUP4 SUB DUP2 DUP6 DUP9 DUP9 CALL SWAP4 POP POP POP POP ISZERO DUP1 ISZERO PUSH2 0x257A JUMPI RETURNDATASIZE PUSH0 DUP1 RETURNDATACOPY RETURNDATASIZE PUSH0 REVERT JUMPDEST POP JUMPDEST POP POP JUMP JUMPDEST PUSH0 PUSH1 0x3 PUSH0 SWAP1 SLOAD SWAP1 PUSH2 0x100 EXP SWAP1 DIV PUSH1 0xFF AND ISZERO PUSH2 0x2628 JUMPI PUSH20 0xC06E70C4038059965172CF02025D7E5033F39767 PUSH20 0xFFFFFFFFFFFFFFFFFFFFFFFFFFFFFFFFFFFFFFFF AND PUSH4 0x70A08231 ADDRESS PUSH1 0x40 MLOAD DUP3 PUSH4 0xFFFFFFFF AND PUSH1 0xE0 SHL DUP2 MSTORE PUSH1 0x4 ADD PUSH2 0x25E2 SWAP2 SWAP1 PUSH2 0x3C16 JUMP JUMPDEST PUSH1 0x20 PUSH1 0x40 MLOAD DUP1 DUP4 SUB DUP2 DUP7 GAS STATICCALL ISZERO DUP1 ISZERO PUSH2 0x25FD JUMPI RETURNDATASIZE PUSH0 DUP1 RETURNDATACOPY RETURNDATASIZE PUSH0 REVERT JUMPDEST POP POP POP POP PUSH1 0x40 MLOAD RETURNDATASIZE PUSH1 0x1F NOT PUSH1 0x1F DUP3 ADD AND DUP3 ADD DUP1 PUSH1 0x40 MSTORE POP DUP2 ADD SWAP1 PUSH2 0x2621 SWAP2 SWAP1 PUSH2 0x4D39 JUMP JUMPDEST SWAP1 POP PUSH2 0x262C JUMP JUMPDEST SELFBALANCE SWAP1 POP JUMPDEST SWAP1 JUMP JUMPDEST PUSH0 CALLER SWAP1 POP PUSH2 0x263C DUP2 PUSH2 0x23EE JUMP JUMPDEST PUSH2 0x267B JUMPI PUSH1 0x40 MLOAD PUSH32 0x8C379A000000000000000000000000000000000000000000000000000000000 DUP2 MSTORE PUSH1 0x4 ADD PUSH2 0x2672 SWAP1 PUSH2 0x4DAE JUMP JUMPDEST PUSH1 0x40 MLOAD DUP1 SWAP2 SUB SWAP1 REVERT JUMPDEST PUSH2 0x2684 DUP3 PUSH2 0x2C7D JUMP JUMPDEST PUSH2 0x268F DUP2 DUP5 DUP5 PUSH2 0x2D9E JUMP JUMPDEST POP POP POP JUMP JUMPDEST PUSH0 PUSH20 0x1419AC3544770AC32FBC3E70129E7EB0197612F6 PUSH20 0xFFFFFFFFFFFFFFFFFFFFFFFFFFFFFFFFFFFFFFFF AND CALLER PUSH20 0xFFFFFFFFFFFFFFFFFFFFFFFFFFFFFFFFFFFFFFFF AND EQ SWAP1 POP SWAP1 JUMP JUMPDEST PUSH0 DUP1 DUP2 SLOAD DUP1 SWAP3 SWAP2 SWAP1 PUSH2 0x26EE SWAP1 PUSH2 0x48DE JUMP JUMPDEST SWAP2 SWAP1 POP SSTORE POP PUSH0 PUSH1 0x40 MLOAD DUP1 PUSH2 0x120 ADD PUSH1 0x40 MSTORE DUP1 PUSH0 SLOAD DUP2 MSTORE PUSH1 0x20 ADD DUP5 PUSH20 0xFFFFFFFFFFFFFFFFFFFFFFFFFFFFFFFFFFFFFFFF AND DUP2 MSTORE PUSH1 0x20 ADD DUP4 PUSH20 0xFFFFFFFFFFFFFFFFFFFFFFFFFFFFFFFFFFFFFFFF AND DUP2 MSTORE PUSH1 0x20 ADD TIMESTAMP DUP2 MSTORE PUSH1 0x20 ADD PUSH0 DUP2 MSTORE PUSH1 0x20 ADD PUSH0 DUP2 MSTORE PUSH1 0x20 ADD PUSH0 ISZERO ISZERO DUP2 MSTORE PUSH1 0x20 ADD PUSH0 DUP2 MSTORE PUSH1 0x20 ADD PUSH0 DUP2 MSTORE POP SWAP1 POP PUSH0 PUSH1 0x40 MLOAD DUP1 PUSH1 0xC0 ADD PUSH1 0x40 MSTORE DUP1 PUSH0 DUP2 MSTORE PUSH1 0x20 ADD PUSH0 PUSH8 0xFFFFFFFFFFFFFFFF DUP2 GT ISZERO PUSH2 0x2791 JUMPI PUSH2 0x2790 PUSH2 0x47E3 JUMP JUMPDEST JUMPDEST PUSH1 0x40 MLOAD SWAP1 DUP1 DUP3 MSTORE DUP1 PUSH1 0x20 MUL PUSH1 0x20 ADD DUP3 ADD PUSH1 0x40 MSTORE DUP1 ISZERO PUSH2 0x27BF JUMPI DUP2 PUSH1 0x20 ADD PUSH1 0x20 DUP3 MUL DUP1 CALLDATASIZE DUP4 CALLDATACOPY DUP1 DUP3 ADD SWAP2 POP POP SWAP1 POP JUMPDEST POP DUP2 MSTORE PUSH1 0x20 ADD PUSH0 DUP2 MSTORE PUSH1 0x20 ADD PUSH0 DUP2 MSTORE PUSH1 0x20 ADD PUSH0 DUP2 MSTORE PUSH1 0x20 ADD PUSH0 PUSH8 0xFFFFFFFFFFFFFFFF DUP2 GT ISZERO PUSH2 0x27F1 JUMPI PUSH2 0x27F0 PUSH2 0x47E3 JUMP JUMPDEST JUMPDEST PUSH1 0x40 MLOAD SWAP1 DUP1 DUP3 MSTORE DUP1 PUSH1 0x20 MUL PUSH1 0x20 ADD DUP3 ADD PUSH1 0x40 MSTORE DUP1 ISZERO PUSH2 0x281F JUMPI DUP2 PUSH1 0x20 ADD PUSH1 0x20 DUP3 MUL DUP1 CALLDATASIZE DUP4 CALLDATACOPY DUP1 DUP3 ADD SWAP2 POP POP SWAP1 POP JUMPDEST POP DUP2 MSTORE POP SWAP1 POP PUSH0 PUSH1 0x40 MLOAD DUP1 PUSH1 0x80 ADD PUSH1 0x40 MSTORE DUP1 PUSH0 DUP2 MSTORE PUSH1 0x20 ADD PUSH1 0x1 PUSH1 0x4 SLOAD PUSH2 0x2846 SWAP2 SWAP1 PUSH2 0x4A79 JUMP JUMPDEST PUSH8 0xFFFFFFFFFFFFFFFF DUP2 GT ISZERO PUSH2 0x285F JUMPI PUSH2 0x285E PUSH2 0x47E3 JUMP JUMPDEST JUMPDEST PUSH1 0x40 MLOAD SWAP1 DUP1 DUP3 MSTORE DUP1 PUSH1 0x20 MUL PUSH1 0x20 ADD DUP3 ADD PUSH1 0x40 MSTORE DUP1 ISZERO PUSH2 0x288D JUMPI DUP2 PUSH1 0x20 ADD PUSH1 0x20 DUP3 MUL DUP1 CALLDATASIZE DUP4 CALLDATACOPY DUP1 DUP3 ADD SWAP2 POP POP SWAP1 POP JUMPDEST POP DUP2 MSTORE PUSH1 0x20 ADD PUSH1 0x1 PUSH1 0x5 SLOAD PUSH2 0x28A2 SWAP2 SWAP1 PUSH2 0x4A79 JUMP JUMPDEST PUSH8 0xFFFFFFFFFFFFFFFF DUP2 GT ISZERO PUSH2 0x28BB JUMPI PUSH2 0x28BA PUSH2 0x47E3 JUMP JUMPDEST JUMPDEST PUSH1 0x40 MLOAD SWAP1 DUP1 DUP3 MSTORE DUP1 PUSH1 0x20 MUL PUSH1 0x20 ADD DUP3 ADD PUSH1 0x40 MSTORE DUP1 ISZERO PUSH2 0x28E9 JUMPI DUP2 PUSH1 0x20 ADD PUSH1 0x20 DUP3 MUL DUP1 CALLDATASIZE DUP4 CALLDATACOPY DUP1 DUP3 ADD SWAP2 POP POP SWAP1 POP JUMPDEST POP DUP2 MSTORE PUSH1 0x20 ADD PUSH0 DUP2 MSTORE POP SWAP1 POP DUP3 PUSH1 0xB PUSH0 DUP8 PUSH20 0xFFFFFFFFFFFFFFFFFFFFFFFFFFFFFFFFFFFFFFFF AND PUSH20 0xFFFFFFFFFFFFFFFFFFFFFFFFFFFFFFFFFFFFFFFF AND DUP2 MSTORE PUSH1 0x20 ADD SWAP1 DUP2 MSTORE PUSH1 0x20 ADD PUSH0 KECCAK256 PUSH0 DUP3 ADD MLOAD DUP2 PUSH0 ADD SSTORE PUSH1 0x20 DUP3 ADD MLOAD DUP2 PUSH1 0x1 ADD PUSH0 PUSH2 0x100 EXP DUP2 SLOAD DUP2 PUSH20 0xFFFFFFFFFFFFFFFFFFFFFFFFFFFFFFFFFFFFFFFF MUL NOT AND SWAP1 DUP4 PUSH20 0xFFFFFFFFFFFFFFFFFFFFFFFFFFFFFFFFFFFFFFFF AND MUL OR SWAP1 SSTORE POP PUSH1 0x40 DUP3 ADD MLOAD DUP2 PUSH1 0x2 ADD PUSH0 PUSH2 0x100 EXP DUP2 SLOAD DUP2 PUSH20 0xFFFFFFFFFFFFFFFFFFFFFFFFFFFFFFFFFFFFFFFF MUL NOT AND SWAP1 DUP4 PUSH20 0xFFFFFFFFFFFFFFFFFFFFFFFFFFFFFFFFFFFFFFFF AND MUL OR SWAP1 SSTORE POP PUSH1 0x60 DUP3 ADD MLOAD DUP2 PUSH1 0x3 ADD SSTORE PUSH1 0x80 DUP3 ADD MLOAD DUP2 PUSH1 0x4 ADD SSTORE PUSH1 0xA0 DUP3 ADD MLOAD DUP2 PUSH1 0x5 ADD SSTORE PUSH1 0xC0 DUP3 ADD MLOAD DUP2 PUSH1 0x6 ADD PUSH0 PUSH2 0x100 EXP DUP2 SLOAD DUP2 PUSH1 0xFF MUL NOT AND SWAP1 DUP4 ISZERO ISZERO MUL OR SWAP1 SSTORE POP PUSH1 0xE0 DUP3 ADD MLOAD DUP2 PUSH1 0x7 ADD SSTORE PUSH2 0x100 DUP3 ADD MLOAD DUP2 PUSH1 0x8 ADD SSTORE SWAP1 POP POP DUP2 PUSH1 0xD PUSH0 DUP8 PUSH20 0xFFFFFFFFFFFFFFFFFFFFFFFFFFFFFFFFFFFFFFFF AND PUSH20 0xFFFFFFFFFFFFFFFFFFFFFFFFFFFFFFFFFFFFFFFF AND DUP2 MSTORE PUSH1 0x20 ADD SWAP1 DUP2 MSTORE PUSH1 0x20 ADD PUSH0 KECCAK256 PUSH0 DUP3 ADD MLOAD DUP2 PUSH0 ADD SSTORE PUSH1 0x20 DUP3 ADD MLOAD DUP2 PUSH1 0x1 ADD SWAP1 DUP1 MLOAD SWAP1 PUSH1 0x20 ADD SWAP1 PUSH2 0x2A7E SWAP3 SWAP2 SWAP1 PUSH2 0x39FC JUMP JUMPDEST POP PUSH1 0x40 DUP3 ADD MLOAD DUP2 PUSH1 0x2 ADD SSTORE PUSH1 0x60 DUP3 ADD MLOAD DUP2 PUSH1 0x3 ADD SSTORE PUSH1 0x80 DUP3 ADD MLOAD DUP2 PUSH1 0x4 ADD SSTORE PUSH1 0xA0 DUP3 ADD MLOAD DUP2 PUSH1 0x5 ADD SWAP1 DUP1 MLOAD SWAP1 PUSH1 0x20 ADD SWAP1 PUSH2 0x2AB9 SWAP3 SWAP2 SWAP1 PUSH2 0x39FC JUMP JUMPDEST POP SWAP1 POP POP DUP1 PUSH1 0x12 PUSH0 DUP8 PUSH20 0xFFFFFFFFFFFFFFFFFFFFFFFFFFFFFFFFFFFFFFFF AND PUSH20 0xFFFFFFFFFFFFFFFFFFFFFFFFFFFFFFFFFFFFFFFF AND DUP2 MSTORE PUSH1 0x20 ADD SWAP1 DUP2 MSTORE PUSH1 0x20 ADD PUSH0 KECCAK256 PUSH0 DUP3 ADD MLOAD DUP2 PUSH0 ADD SSTORE PUSH1 0x20 DUP3 ADD MLOAD DUP2 PUSH1 0x1 ADD SWAP1 DUP1 MLOAD SWAP1 PUSH1 0x20 ADD SWAP1 PUSH2 0x2B1F SWAP3 SWAP2 SWAP1 PUSH2 0x3A83 JUMP JUMPDEST POP PUSH1 0x40 DUP3 ADD MLOAD DUP2 PUSH1 0x2 ADD SWAP1 DUP1 MLOAD SWAP1 PUSH1 0x20 ADD SWAP1 PUSH2 0x2B3C SWAP3 SWAP2 SWAP1 PUSH2 0x3A83 JUMP JUMPDEST POP PUSH1 0x60 DUP3 ADD MLOAD DUP2 PUSH1 0x3 ADD SSTORE SWAP1 POP POP DUP5 PUSH1 0xC PUSH0 DUP1 SLOAD DUP2 MSTORE PUSH1 0x20 ADD SWAP1 DUP2 MSTORE PUSH1 0x20 ADD PUSH0 KECCAK256 PUSH0 PUSH2 0x100 EXP DUP2 SLOAD DUP2 PUSH20 0xFFFFFFFFFFFFFFFFFFFFFFFFFFFFFFFFFFFFFFFF MUL NOT AND SWAP1 DUP4 PUSH20 0xFFFFFFFFFFFFFFFFFFFFFFFFFFFFFFFFFFFFFFFF AND MUL OR SWAP1 SSTORE POP PUSH0 PUSH20 0xFFFFFFFFFFFFFFFFFFFFFFFFFFFFFFFFFFFFFFFF AND DUP5 PUSH20 0xFFFFFFFFFFFFFFFFFFFFFFFFFFFFFFFFFFFFFFFF AND EQ PUSH2 0x2C6C JUMPI PUSH1 0xD PUSH0 DUP6 PUSH20 0xFFFFFFFFFFFFFFFFFFFFFFFFFFFFFFFFFFFFFFFF AND PUSH20 0xFFFFFFFFFFFFFFFFFFFFFFFFFFFFFFFFFFFFFFFF AND DUP2 MSTORE PUSH1 0x20 ADD SWAP1 DUP2 MSTORE PUSH1 0x20 ADD PUSH0 KECCAK256 PUSH1 0x1 ADD DUP6 SWAP1 DUP1 PUSH1 0x1 DUP2 SLOAD ADD DUP1 DUP3 SSTORE DUP1 SWAP2 POP POP PUSH1 0x1 SWAP1 SUB SWAP1 PUSH0 MSTORE PUSH1 0x20 PUSH0 KECCAK256 ADD PUSH0 SWAP1 SWAP2 SWAP1 SWAP2 SWAP1 SWAP2 PUSH2 0x100 EXP DUP2 SLOAD DUP2 PUSH20 0xFFFFFFFFFFFFFFFFFFFFFFFFFFFFFFFFFFFFFFFF MUL NOT AND SWAP1 DUP4 PUSH20 0xFFFFFFFFFFFFFFFFFFFFFFFFFFFFFFFFFFFFFFFF AND MUL OR SWAP1 SSTORE POP JUMPDEST PUSH2 0x2C76 DUP5 DUP7 PUSH2 0x311C JUMP JUMPDEST POP POP POP POP POP JUMP JUMPDEST PUSH1 0x3 PUSH0 SWAP1 SLOAD SWAP1 PUSH2 0x100 EXP SWAP1 DIV PUSH1 0xFF AND ISZERO PUSH2 0x2D8E JUMPI PUSH0 PUSH2 0x2C9A PUSH2 0x2580 JUMP JUMPDEST SWAP1 POP PUSH20 0xC06E70C4038059965172CF02025D7E5033F39767 PUSH20 0xFFFFFFFFFFFFFFFFFFFFFFFFFFFFFFFFFFFFFFFF AND PUSH4 0x23B872DD CALLER ADDRESS DUP6 PUSH1 0x40 MLOAD DUP5 PUSH4 0xFFFFFFFF AND PUSH1 0xE0 SHL DUP2 MSTORE PUSH1 0x4 ADD PUSH2 0x2CED SWAP4 SWAP3 SWAP2 SWAP1 PUSH2 0x4DCC JUMP JUMPDEST PUSH1 0x20 PUSH1 0x40 MLOAD DUP1 DUP4 SUB DUP2 PUSH0 DUP8 GAS CALL ISZERO DUP1 ISZERO PUSH2 0x2D09 JUMPI RETURNDATASIZE PUSH0 DUP1 RETURNDATACOPY RETURNDATASIZE PUSH0 REVERT JUMPDEST POP POP POP POP PUSH1 0x40 MLOAD RETURNDATASIZE PUSH1 0x1F NOT PUSH1 0x1F DUP3 ADD AND DUP3 ADD DUP1 PUSH1 0x40 MSTORE POP DUP2 ADD SWAP1 PUSH2 0x2D2D SWAP2 SWAP1 PUSH2 0x4CFA JUMP JUMPDEST POP PUSH0 PUSH2 0x2D37 PUSH2 0x2580 JUMP JUMPDEST SWAP1 POP DUP3 DUP3 DUP3 PUSH2 0x2D46 SWAP2 SWAP1 PUSH2 0x487E JUMP JUMPDEST LT ISZERO PUSH2 0x2D87 JUMPI PUSH1 0x40 MLOAD PUSH32 0x8C379A000000000000000000000000000000000000000000000000000000000 DUP2 MSTORE PUSH1 0x4 ADD PUSH2 0x2D7E SWAP1 PUSH2 0x4E4B JUMP JUMPDEST PUSH1 0x40 MLOAD DUP1 SWAP2 SUB SWAP1 REVERT JUMPDEST POP POP PUSH2 0x2D9B JUMP JUMPDEST DUP1 CALLVALUE LT ISZERO PUSH2 0x2D9A JUMPI PUSH0 DUP1 REVERT JUMPDEST JUMPDEST POP JUMP JUMPDEST PUSH1 0x8 PUSH0 DUP4 DUP2 MSTORE PUSH1 0x20 ADD SWAP1 DUP2 MSTORE PUSH1 0x20 ADD PUSH0 KECCAK256 PUSH1 0x3 ADD PUSH0 SWAP1 SLOAD SWAP1 PUSH2 0x100 EXP SWAP1 DIV PUSH1 0xFF AND DUP1 ISZERO PUSH2 0x2E72 JUMPI POP PUSH1 0x8 PUSH0 DUP4 DUP2 MSTORE PUSH1 0x20 ADD SWAP1 DUP2 MSTORE PUSH1 0x20 ADD PUSH0 KECCAK256 PUSH1 0x3 ADD PUSH1 0x1 SWAP1 SLOAD SWAP1 PUSH2 0x100 EXP SWAP1 DIV PUSH1 0xFF AND ISZERO DUP1 ISZERO PUSH2 0x2E08 JUMPI POP DUP1 PUSH1 0x8 PUSH0 DUP5 DUP2 MSTORE PUSH1 0x20 ADD SWAP1 DUP2 MSTORE PUSH1 0x20 ADD PUSH0 KECCAK256 PUSH1 0x2 ADD SLOAD EQ JUMPDEST DUP1 PUSH2 0x2E71 JUMPI POP PUSH1 0x8 PUSH0 DUP4 DUP2 MSTORE PUSH1 0x20 ADD SWAP1 DUP2 MSTORE PUSH1 0x20 ADD PUSH0 KECCAK256 PUSH1 0x3 ADD PUSH1 0x1 SWAP1 SLOAD SWAP1 PUSH2 0x100 EXP SWAP1 DIV PUSH1 0xFF AND DUP1 ISZERO PUSH2 0x2E50 JUMPI POP DUP1 PUSH1 0x8 PUSH0 DUP5 DUP2 MSTORE PUSH1 0x20 ADD SWAP1 DUP2 MSTORE PUSH1 0x20 ADD PUSH0 KECCAK256 PUSH1 0x4 ADD SLOAD GT ISZERO JUMPDEST DUP1 ISZERO PUSH2 0x2E70 JUMPI POP DUP1 PUSH1 0x8 PUSH0 DUP5 DUP2 MSTORE PUSH1 0x20 ADD SWAP1 DUP2 MSTORE PUSH1 0x20 ADD PUSH0 KECCAK256 PUSH1 0x5 ADD SLOAD LT ISZERO JUMPDEST JUMPDEST JUMPDEST PUSH2 0x2EB1 JUMPI PUSH1 0x40 MLOAD PUSH32 0x8C379A000000000000000000000000000000000000000000000000000000000 DUP2 MSTORE PUSH1 0x4 ADD PUSH2 0x2EA8 SWAP1 PUSH2 0x4E4B JUMP JUMPDEST PUSH1 0x40 MLOAD DUP1 SWAP2 SUB SWAP1 REVERT JUMPDEST DUP1 PUSH1 0x1 PUSH0 DUP3 DUP3 SLOAD PUSH2 0x2EC2 SWAP2 SWAP1 PUSH2 0x4A79 JUMP JUMPDEST SWAP3 POP POP DUP2 SWAP1 SSTORE POP PUSH0 PUSH1 0xB PUSH0 DUP6 PUSH20 0xFFFFFFFFFFFFFFFFFFFFFFFFFFFFFFFFFFFFFFFF AND PUSH20 0xFFFFFFFFFFFFFFFFFFFFFFFFFFFFFFFFFFFFFFFF AND DUP2 MSTORE PUSH1 0x20 ADD SWAP1 DUP2 MSTORE PUSH1 0x20 ADD PUSH0 KECCAK256 PUSH1 0x2 ADD PUSH0 SWAP1 SLOAD SWAP1 PUSH2 0x100 EXP SWAP1 DIV PUSH20 0xFFFFFFFFFFFFFFFFFFFFFFFFFFFFFFFFFFFFFFFF AND SWAP1 POP DUP2 PUSH1 0xB PUSH0 DUP7 PUSH20 0xFFFFFFFFFFFFFFFFFFFFFFFFFFFFFFFFFFFFFFFF AND PUSH20 0xFFFFFFFFFFFFFFFFFFFFFFFFFFFFFFFFFFFFFFFF AND DUP2 MSTORE PUSH1 0x20 ADD SWAP1 DUP2 MSTORE PUSH1 0x20 ADD PUSH0 KECCAK256 PUSH1 0x4 ADD PUSH0 DUP3 DUP3 SLOAD PUSH2 0x2F7B SWAP2 SWAP1 PUSH2 0x4A79 JUMP JUMPDEST SWAP3 POP POP DUP2 SWAP1 SSTORE POP DUP2 PUSH1 0xD PUSH0 DUP4 PUSH20 0xFFFFFFFFFFFFFFFFFFFFFFFFFFFFFFFFFFFFFFFF AND PUSH20 0xFFFFFFFFFFFFFFFFFFFFFFFFFFFFFFFFFFFFFFFF AND DUP2 MSTORE PUSH1 0x20 ADD SWAP1 DUP2 MSTORE PUSH1 0x20 ADD PUSH0 KECCAK256 PUSH0 ADD PUSH0 DUP3 DUP3 SLOAD PUSH2 0x2FD0 SWAP2 SWAP1 PUSH2 0x4A79 JUMP JUMPDEST SWAP3 POP POP DUP2 SWAP1 SSTORE POP PUSH2 0x2FE1 DUP2 DUP4 PUSH2 0x32AE JUMP JUMPDEST PUSH2 0x2FEC DUP5 DUP5 DUP5 PUSH2 0x3419 JUMP JUMPDEST PUSH0 PUSH1 0x40 MLOAD DUP1 PUSH1 0x60 ADD PUSH1 0x40 MSTORE DUP1 DUP6 DUP2 MSTORE PUSH1 0x20 ADD DUP5 DUP2 MSTORE PUSH1 0x20 ADD TIMESTAMP DUP2 MSTORE POP SWAP1 POP DUP1 PUSH1 0xE PUSH0 DUP8 PUSH20 0xFFFFFFFFFFFFFFFFFFFFFFFFFFFFFFFFFFFFFFFF AND PUSH20 0xFFFFFFFFFFFFFFFFFFFFFFFFFFFFFFFFFFFFFFFF AND DUP2 MSTORE PUSH1 0x20 ADD SWAP1 DUP2 MSTORE PUSH1 0x20 ADD PUSH0 KECCAK256 PUSH0 PUSH1 0x1 PUSH1 0x14 PUSH0 DUP11 PUSH20 0xFFFFFFFFFFFFFFFFFFFFFFFFFFFFFFFFFFFFFFFF AND PUSH20 0xFFFFFFFFFFFFFFFFFFFFFFFFFFFFFFFFFFFFFFFF AND DUP2 MSTORE PUSH1 0x20 ADD SWAP1 DUP2 MSTORE PUSH1 0x20 ADD PUSH0 KECCAK256 PUSH0 ADD SLOAD PUSH2 0x3095 SWAP2 SWAP1 PUSH2 0x4A79 JUMP JUMPDEST DUP2 MSTORE PUSH1 0x20 ADD SWAP1 DUP2 MSTORE PUSH1 0x20 ADD PUSH0 KECCAK256 PUSH0 DUP3 ADD MLOAD DUP2 PUSH0 ADD SSTORE PUSH1 0x20 DUP3 ADD MLOAD DUP2 PUSH1 0x1 ADD SSTORE PUSH1 0x40 DUP3 ADD MLOAD DUP2 PUSH1 0x2 ADD SSTORE SWAP1 POP POP PUSH1 0x14 PUSH0 DUP7 PUSH20 0xFFFFFFFFFFFFFFFFFFFFFFFFFFFFFFFFFFFFFFFF AND PUSH20 0xFFFFFFFFFFFFFFFFFFFFFFFFFFFFFFFFFFFFFFFF AND DUP2 MSTORE PUSH1 0x20 ADD SWAP1 DUP2 MSTORE PUSH1 0x20 ADD PUSH0 KECCAK256 PUSH0 ADD PUSH0 DUP2 SLOAD DUP1 SWAP3 SWAP2 SWAP1 PUSH2 0x3110 SWAP1 PUSH2 0x48DE JUMP JUMPDEST SWAP2 SWAP1 POP SSTORE POP POP POP POP POP POP JUMP JUMPDEST JUMPDEST PUSH0 PUSH20 0xFFFFFFFFFFFFFFFFFFFFFFFFFFFFFFFFFFFFFFFF AND DUP3 PUSH20 0xFFFFFFFFFFFFFFFFFFFFFFFFFFFFFFFFFFFFFFFF AND EQ PUSH2 0x32AA JUMPI PUSH1 0xB PUSH0 DUP4 PUSH20 0xFFFFFFFFFFFFFFFFFFFFFFFFFFFFFFFFFFFFFFFF AND PUSH20 0xFFFFFFFFFFFFFFFFFFFFFFFFFFFFFFFFFFFFFFFF AND DUP2 MSTORE PUSH1 0x20 ADD SWAP1 DUP2 MSTORE PUSH1 0x20 ADD PUSH0 KECCAK256 PUSH1 0x5 ADD PUSH0 DUP2 SLOAD DUP1 SWAP3 SWAP2 SWAP1 PUSH2 0x31A0 SWAP1 PUSH2 0x48DE JUMP JUMPDEST SWAP2 SWAP1 POP SSTORE POP PUSH1 0xD PUSH0 DUP4 PUSH20 0xFFFFFFFFFFFFFFFFFFFFFFFFFFFFFFFFFFFFFFFF AND PUSH20 0xFFFFFFFFFFFFFFFFFFFFFFFFFFFFFFFFFFFFFFFF AND DUP2 MSTORE PUSH1 0x20 ADD SWAP1 DUP2 MSTORE PUSH1 0x20 ADD PUSH0 KECCAK256 PUSH1 0x5 ADD DUP2 SWAP1 DUP1 PUSH1 0x1 DUP2 SLOAD ADD DUP1 DUP3 SSTORE DUP1 SWAP2 POP POP PUSH1 0x1 SWAP1 SUB SWAP1 PUSH0 MSTORE PUSH1 0x20 PUSH0 KECCAK256 ADD PUSH0 SWAP1 SWAP2 SWAP1 SWAP2 SWAP1 SWAP2 PUSH2 0x100 EXP DUP2 SLOAD DUP2 PUSH20 0xFFFFFFFFFFFFFFFFFFFFFFFFFFFFFFFFFFFFFFFF MUL NOT AND SWAP1 DUP4 PUSH20 0xFFFFFFFFFFFFFFFFFFFFFFFFFFFFFFFFFFFFFFFF AND MUL OR SWAP1 SSTORE POP PUSH1 0xB PUSH0 DUP4 PUSH20 0xFFFFFFFFFFFFFFFFFFFFFFFFFFFFFFFFFFFFFFFF AND PUSH20 0xFFFFFFFFFFFFFFFFFFFFFFFFFFFFFFFFFFFFFFFF AND DUP2 MSTORE PUSH1 0x20 ADD SWAP1 DUP2 MSTORE PUSH1 0x20 ADD PUSH0 KECCAK256 PUSH1 0x2 ADD PUSH0 SWAP1 SLOAD SWAP1 PUSH2 0x100 EXP SWAP1 DIV PUSH20 0xFFFFFFFFFFFFFFFFFFFFFFFFFFFFFFFFFFFFFFFF AND SWAP2 POP PUSH2 0x311D JUMP JUMPDEST POP POP JUMP JUMPDEST PUSH0 PUSH1 0x1 SWAP1 POP JUMPDEST PUSH0 PUSH20 0xFFFFFFFFFFFFFFFFFFFFFFFFFFFFFFFFFFFFFFFF AND DUP4 PUSH20 0xFFFFFFFFFFFFFFFFFFFFFFFFFFFFFFFFFFFFFFFF AND EQ PUSH2 0x3414 JUMPI DUP2 PUSH1 0xD PUSH0 DUP6 PUSH20 0xFFFFFFFFFFFFFFFFFFFFFFFFFFFFFFFFFFFFFFFF AND PUSH20 0xFFFFFFFFFFFFFFFFFFFFFFFFFFFFFFFFFFFFFFFF AND DUP2 MSTORE PUSH1 0x20 ADD SWAP1 DUP2 MSTORE PUSH1 0x20 ADD PUSH0 KECCAK256 PUSH1 0x4 ADD PUSH0 DUP3 DUP3 SLOAD PUSH2 0x3336 SWAP2 SWAP1 PUSH2 0x4A79 JUMP JUMPDEST SWAP3 POP POP DUP2 SWAP1 SSTORE POP DUP2 PUSH1 0x10 PUSH0 DUP6 PUSH20 0xFFFFFFFFFFFFFFFFFFFFFFFFFFFFFFFFFFFFFFFF AND PUSH20 0xFFFFFFFFFFFFFFFFFFFFFFFFFFFFFFFFFFFFFFFF AND DUP2 MSTORE PUSH1 0x20 ADD SWAP1 DUP2 MSTORE PUSH1 0x20 ADD PUSH0 KECCAK256 PUSH0 DUP4 DUP2 MSTORE PUSH1 0x20 ADD SWAP1 DUP2 MSTORE PUSH1 0x20 ADD PUSH0 KECCAK256 PUSH0 DUP3 DUP3 SLOAD PUSH2 0x3398 SWAP2 SWAP1 PUSH2 0x4A79 JUMP JUMPDEST SWAP3 POP POP DUP2 SWAP1 SSTORE POP PUSH1 0xB PUSH0 DUP5 PUSH20 0xFFFFFFFFFFFFFFFFFFFFFFFFFFFFFFFFFFFFFFFF AND PUSH20 0xFFFFFFFFFFFFFFFFFFFFFFFFFFFFFFFFFFFFFFFF AND DUP2 MSTORE PUSH1 0x20 ADD SWAP1 DUP2 MSTORE PUSH1 0x20 ADD PUSH0 KECCAK256 PUSH1 0x2 ADD PUSH0 SWAP1 SLOAD SWAP1 PUSH2 0x100 EXP SWAP1 DIV PUSH20 0xFFFFFFFFFFFFFFFFFFFFFFFFFFFFFFFFFFFFFFFF AND SWAP3 POP DUP1 DUP1 PUSH2 0x340C SWAP1 PUSH2 0x48DE JUMP JUMPDEST SWAP2 POP POP PUSH2 0x32B4 JUMP JUMPDEST POP POP POP JUMP JUMPDEST PUSH2 0x3424 DUP4 DUP4 DUP4 PUSH2 0x3433 JUMP JUMPDEST PUSH2 0x342E DUP4 DUP3 PUSH2 0x355C JUMP JUMPDEST POP POP POP JUMP JUMPDEST PUSH0 PUSH1 0x8 PUSH0 DUP5 DUP2 MSTORE PUSH1 0x20 ADD SWAP1 DUP2 MSTORE PUSH1 0x20 ADD PUSH0 KECCAK256 PUSH1 0x7 ADD PUSH0 SWAP1 SLOAD SWAP1 PUSH2 0x100 EXP SWAP1 DIV PUSH1 0xFF AND PUSH2 0x3473 JUMPI PUSH1 0x8 PUSH0 DUP5 DUP2 MSTORE PUSH1 0x20 ADD SWAP1 DUP2 MSTORE PUSH1 0x20 ADD PUSH0 KECCAK256 PUSH1 0x6 ADD SLOAD PUSH2 0x34A0 JUMP JUMPDEST PUSH1 0x64 PUSH1 0x8 PUSH0 DUP6 DUP2 MSTORE PUSH1 0x20 ADD SWAP1 DUP2 MSTORE PUSH1 0x20 ADD PUSH0 KECCAK256 PUSH1 0x6 ADD SLOAD DUP4 PUSH2 0x3495 SWAP2 SWAP1 PUSH2 0x483D JUMP JUMPDEST PUSH2 0x349F SWAP2 SWAP1 PUSH2 0x4B41 JUMP JUMPDEST JUMPDEST SWAP1 POP DUP1 PUSH1 0x12 PUSH0 PUSH1 0xB PUSH0 DUP9 PUSH20 0xFFFFFFFFFFFFFFFFFFFFFFFFFFFFFFFFFFFFFFFF AND PUSH20 0xFFFFFFFFFFFFFFFFFFFFFFFFFFFFFFFFFFFFFFFF AND DUP2 MSTORE PUSH1 0x20 ADD SWAP1 DUP2 MSTORE PUSH1 0x20 ADD PUSH0 KECCAK256 PUSH1 0x2 ADD PUSH0 SWAP1 SLOAD SWAP1 PUSH2 0x100 EXP SWAP1 DIV PUSH20 0xFFFFFFFFFFFFFFFFFFFFFFFFFFFFFFFFFFFFFFFF AND PUSH20 0xFFFFFFFFFFFFFFFFFFFFFFFFFFFFFFFFFFFFFFFF AND PUSH20 0xFFFFFFFFFFFFFFFFFFFFFFFFFFFFFFFFFFFFFFFF AND DUP2 MSTORE PUSH1 0x20 ADD SWAP1 DUP2 MSTORE PUSH1 0x20 ADD PUSH0 KECCAK256 PUSH0 ADD PUSH0 DUP3 DUP3 SLOAD PUSH2 0x354F SWAP2 SWAP1 PUSH2 0x4A79 JUMP JUMPDEST SWAP3 POP POP DUP2 SWAP1 SSTORE POP POP POP POP POP JUMP JUMPDEST PUSH0 PUSH1 0xB PUSH0 DUP5 PUSH20 0xFFFFFFFFFFFFFFFFFFFFFFFFFFFFFFFFFFFFFFFF AND PUSH20 0xFFFFFFFFFFFFFFFFFFFFFFFFFFFFFFFFFFFFFFFF AND DUP2 MSTORE PUSH1 0x20 ADD SWAP1 DUP2 MSTORE PUSH1 0x20 ADD PUSH0 KECCAK256 PUSH1 0x2 ADD PUSH0 SWAP1 SLOAD SWAP1 PUSH2 0x100 EXP SWAP1 DIV PUSH20 0xFFFFFFFFFFFFFFFFFFFFFFFFFFFFFFFFFFFFFFFF AND SWAP1 POP PUSH0 PUSH1 0x1 SWAP1 POP JUMPDEST PUSH0 PUSH20 0xFFFFFFFFFFFFFFFFFFFFFFFFFFFFFFFFFFFFFFFF AND DUP3 PUSH20 0xFFFFFFFFFFFFFFFFFFFFFFFFFFFFFFFFFFFFFFFF AND EQ ISZERO DUP1 ISZERO PUSH2 0x3603 JUMPI POP PUSH1 0x4 SLOAD DUP2 GT ISZERO JUMPDEST ISZERO PUSH2 0x3885 JUMPI PUSH2 0x3612 DUP5 DUP3 PUSH2 0x2038 JUMP JUMPDEST ISZERO PUSH2 0x36E6 JUMPI PUSH1 0x6 PUSH0 SWAP1 SLOAD SWAP1 PUSH2 0x100 EXP SWAP1 DIV PUSH1 0xFF AND PUSH2 0x3644 JUMPI PUSH1 0x9 PUSH0 DUP3 DUP2 MSTORE PUSH1 0x20 ADD SWAP1 DUP2 MSTORE PUSH1 0x20 ADD PUSH0 KECCAK256 PUSH1 0x1 ADD SLOAD PUSH2 0x3672 JUMP JUMPDEST PUSH2 0x3E8 PUSH1 0x9 PUSH0 DUP4 DUP2 MSTORE PUSH1 0x20 ADD SWAP1 DUP2 MSTORE PUSH1 0x20 ADD PUSH0 KECCAK256 PUSH1 0x1 ADD SLOAD DUP5 PUSH2 0x3667 SWAP2 SWAP1 PUSH2 0x483D JUMP JUMPDEST PUSH2 0x3671 SWAP2 SWAP1 PUSH2 0x4B41 JUMP JUMPDEST JUMPDEST PUSH1 0x12 PUSH0 DUP5 PUSH20 0xFFFFFFFFFFFFFFFFFFFFFFFFFFFFFFFFFFFFFFFF AND PUSH20 0xFFFFFFFFFFFFFFFFFFFFFFFFFFFFFFFFFFFFFFFF AND DUP2 MSTORE PUSH1 0x20 ADD SWAP1 DUP2 MSTORE PUSH1 0x20 ADD PUSH0 KECCAK256 PUSH1 0x1 ADD DUP3 DUP2 SLOAD DUP2 LT PUSH2 0x36C4 JUMPI PUSH2 0x36C3 PUSH2 0x48B1 JUMP JUMPDEST JUMPDEST SWAP1 PUSH0 MSTORE PUSH1 0x20 PUSH0 KECCAK256 ADD PUSH0 DUP3 DUP3 SLOAD PUSH2 0x36DA SWAP2 SWAP1 PUSH2 0x4A79 JUMP JUMPDEST SWAP3 POP POP DUP2 SWAP1 SSTORE POP PUSH2 0x37C5 JUMP JUMPDEST PUSH1 0x6 PUSH0 SWAP1 SLOAD SWAP1 PUSH2 0x100 EXP SWAP1 DIV PUSH1 0xFF AND PUSH2 0x3713 JUMPI PUSH1 0x9 PUSH0 DUP3 DUP2 MSTORE PUSH1 0x20 ADD SWAP1 DUP2 MSTORE PUSH1 0x20 ADD PUSH0 KECCAK256 PUSH1 0x1 ADD SLOAD PUSH2 0x3741 JUMP JUMPDEST PUSH2 0x3E8 PUSH1 0x9 PUSH0 DUP4 DUP2 MSTORE PUSH1 0x20 ADD SWAP1 DUP2 MSTORE PUSH1 0x20 ADD PUSH0 KECCAK256 PUSH1 0x1 ADD SLOAD DUP5 PUSH2 0x3736 SWAP2 SWAP1 PUSH2 0x483D JUMP JUMPDEST PUSH2 0x3740 SWAP2 SWAP1 PUSH2 0x4B41 JUMP JUMPDEST JUMPDEST PUSH1 0x12 PUSH0 PUSH20 0x1419AC3544770AC32FBC3E70129E7EB0197612F6 PUSH20 0xFFFFFFFFFFFFFFFFFFFFFFFFFFFFFFFFFFFFFFFF AND PUSH20 0xFFFFFFFFFFFFFFFFFFFFFFFFFFFFFFFFFFFFFFFF AND DUP2 MSTORE PUSH1 0x20 ADD SWAP1 DUP2 MSTORE PUSH1 0x20 ADD PUSH0 KECCAK256 PUSH1 0x1 ADD DUP3 DUP2 SLOAD DUP2 LT PUSH2 0x37A7 JUMPI PUSH2 0x37A6 PUSH2 0x48B1 JUMP JUMPDEST JUMPDEST SWAP1 PUSH0 MSTORE PUSH1 0x20 PUSH0 KECCAK256 ADD PUSH0 DUP3 DUP3 SLOAD PUSH2 0x37BD SWAP2 SWAP1 PUSH2 0x4A79 JUMP JUMPDEST SWAP3 POP POP DUP2 SWAP1 SSTORE POP JUMPDEST PUSH1 0xB PUSH0 DUP4 PUSH20 0xFFFFFFFFFFFFFFFFFFFFFFFFFFFFFFFFFFFFFFFF AND PUSH20 0xFFFFFFFFFFFFFFFFFFFFFFFFFFFFFFFFFFFFFFFF AND DUP2 MSTORE PUSH1 0x20 ADD SWAP1 DUP2 MSTORE PUSH1 0x20 ADD PUSH0 KECCAK256 PUSH1 0x2 ADD PUSH0 SWAP1 SLOAD SWAP1 PUSH2 0x100 EXP SWAP1 DIV PUSH20 0xFFFFFFFFFFFFFFFFFFFFFFFFFFFFFFFFFFFFFFFF AND SWAP2 POP DUP1 DUP1 PUSH2 0x3832 SWAP1 PUSH2 0x48DE JUMP JUMPDEST SWAP2 POP POP PUSH0 PUSH20 0xFFFFFFFFFFFFFFFFFFFFFFFFFFFFFFFFFFFFFFFF AND DUP3 PUSH20 0xFFFFFFFFFFFFFFFFFFFFFFFFFFFFFFFFFFFFFFFF AND SUB PUSH2 0x3880 JUMPI PUSH20 0x1419AC3544770AC32FBC3E70129E7EB0197612F6 SWAP2 POP JUMPDEST PUSH2 0x35C5 JUMP JUMPDEST POP POP POP POP JUMP JUMPDEST PUSH1 0x40 MLOAD DUP1 PUSH1 0x60 ADD PUSH1 0x40 MSTORE DUP1 PUSH0 DUP2 MSTORE PUSH1 0x20 ADD PUSH0 DUP2 MSTORE PUSH1 0x20 ADD PUSH0 DUP2 MSTORE POP SWAP1 JUMP JUMPDEST PUSH1 0x40 MLOAD DUP1 PUSH2 0x120 ADD PUSH1 0x40 MSTORE DUP1 PUSH0 DUP2 MSTORE PUSH1 0x20 ADD PUSH1 0x60 DUP2 MSTORE PUSH1 0x20 ADD PUSH0 DUP2 MSTORE PUSH1 0x20 ADD PUSH0 ISZERO ISZERO DUP2 MSTORE PUSH1 0x20 ADD PUSH0 ISZERO ISZERO DUP2 MSTORE PUSH1 0x20 ADD PUSH0 DUP2 MSTORE PUSH1 0x20 ADD PUSH0 DUP2 MSTORE PUSH1 0x20 ADD PUSH0 DUP2 MSTORE PUSH1 0x20 ADD PUSH0 ISZERO ISZERO DUP2 MSTORE POP SWAP1 JUMP JUMPDEST PUSH1 0x40 MLOAD DUP1 PUSH2 0x1E0 ADD PUSH1 0x40 MSTORE DUP1 PUSH0 DUP2 MSTORE PUSH1 0x20 ADD PUSH0 DUP2 MSTORE PUSH1 0x20 ADD PUSH0 DUP2 MSTORE PUSH1 0x20 ADD PUSH0 DUP2 MSTORE PUSH1 0x20 ADD PUSH0 DUP2 MSTORE PUSH1 0x20 ADD PUSH0 DUP2 MSTORE PUSH1 0x20 ADD PUSH0 DUP2 MSTORE PUSH1 0x20 ADD PUSH0 DUP2 MSTORE PUSH1 0x20 ADD PUSH0 DUP2 MSTORE PUSH1 0x20 ADD PUSH0 DUP2 MSTORE PUSH1 0x20 ADD PUSH0 DUP2 MSTORE PUSH1 0x20 ADD PUSH0 DUP2 MSTORE PUSH1 0x20 ADD PUSH0 DUP2 MSTORE PUSH1 0x20 ADD PUSH0 DUP2 MSTORE PUSH1 0x20 ADD PUSH0 ISZERO ISZERO DUP2 MSTORE POP SWAP1 JUMP JUMPDEST PUSH1 0x40 MLOAD DUP1 PUSH1 0xA0 ADD PUSH1 0x40 MSTORE DUP1 PUSH0 DUP2 MSTORE PUSH1 0x20 ADD PUSH0 DUP2 MSTORE PUSH1 0x20 ADD PUSH0 DUP2 MSTORE PUSH1 0x20 ADD PUSH0 DUP2 MSTORE PUSH1 0x20 ADD PUSH0 DUP2 MSTORE POP SWAP1 JUMP JUMPDEST PUSH1 0x40 MLOAD DUP1 PUSH1 0x80 ADD PUSH1 0x40 MSTORE DUP1 PUSH0 DUP2 MSTORE PUSH1 0x20 ADD PUSH0 PUSH20 0xFFFFFFFFFFFFFFFFFFFFFFFFFFFFFFFFFFFFFFFF AND DUP2 MSTORE PUSH1 0x20 ADD PUSH0 DUP2 MSTORE PUSH1 0x20 ADD PUSH0 DUP2 MSTORE POP SWAP1 JUMP JUMPDEST PUSH1 0x40 MLOAD DUP1 PUSH1 0x80 ADD PUSH1 0x40 MSTORE DUP1 PUSH0 DUP2 MSTORE PUSH1 0x20 ADD PUSH0 DUP2 MSTORE PUSH1 0x20 ADD PUSH0 DUP2 MSTORE PUSH1 0x20 ADD PUSH0 DUP2 MSTORE POP SWAP1 JUMP JUMPDEST PUSH1 0x40 MLOAD DUP1 PUSH1 0x40 ADD PUSH1 0x40 MSTORE DUP1 PUSH0 DUP2 MSTORE PUSH1 0x20 ADD PUSH0 DUP2 MSTORE POP SWAP1 JUMP JUMPDEST DUP3 DUP1 SLOAD DUP3 DUP3 SSTORE SWAP1 PUSH0 MSTORE PUSH1 0x20 PUSH0 KECCAK256 SWAP1 DUP2 ADD SWAP3 DUP3 ISZERO PUSH2 0x3A72 JUMPI SWAP2 PUSH1 0x20 MUL DUP3 ADD JUMPDEST DUP3 DUP2 GT ISZERO PUSH2 0x3A71 JUMPI DUP3 MLOAD DUP3 PUSH0 PUSH2 0x100 EXP DUP2 SLOAD DUP2 PUSH20 0xFFFFFFFFFFFFFFFFFFFFFFFFFFFFFFFFFFFFFFFF MUL NOT AND SWAP1 DUP4 PUSH20 0xFFFFFFFFFFFFFFFFFFFFFFFFFFFFFFFFFFFFFFFF AND MUL OR SWAP1 SSTORE POP SWAP2 PUSH1 0x20 ADD SWAP2 SWAP1 PUSH1 0x1 ADD SWAP1 PUSH2 0x3A1A JUMP JUMPDEST JUMPDEST POP SWAP1 POP PUSH2 0x3A7F SWAP2 SWAP1 PUSH2 0x3ACE JUMP JUMPDEST POP SWAP1 JUMP JUMPDEST DUP3 DUP1 SLOAD DUP3 DUP3 SSTORE SWAP1 PUSH0 MSTORE PUSH1 0x20 PUSH0 KECCAK256 SWAP1 DUP2 ADD SWAP3 DUP3 ISZERO PUSH2 0x3ABD JUMPI SWAP2 PUSH1 0x20 MUL DUP3 ADD JUMPDEST DUP3 DUP2 GT ISZERO PUSH2 0x3ABC JUMPI DUP3 MLOAD DUP3 SSTORE SWAP2 PUSH1 0x20 ADD SWAP2 SWAP1 PUSH1 0x1 ADD SWAP1 PUSH2 0x3AA1 JUMP JUMPDEST JUMPDEST POP SWAP1 POP PUSH2 0x3ACA SWAP2 SWAP1 PUSH2 0x3ACE JUMP JUMPDEST POP SWAP1 JUMP JUMPDEST JUMPDEST DUP1 DUP3 GT ISZERO PUSH2 0x3AE5 JUMPI PUSH0 DUP2 PUSH0 SWAP1 SSTORE POP PUSH1 0x1 ADD PUSH2 0x3ACF JUMP JUMPDEST POP SWAP1 JUMP JUMPDEST PUSH0 DUP1 REVERT JUMPDEST PUSH0 PUSH20 0xFFFFFFFFFFFFFFFFFFFFFFFFFFFFFFFFFFFFFFFF DUP3 AND SWAP1 POP SWAP2 SWAP1 POP JUMP JUMPDEST PUSH0 PUSH2 0x3B16 DUP3 PUSH2 0x3AED JUMP JUMPDEST SWAP1 POP SWAP2 SWAP1 POP JUMP JUMPDEST PUSH2 0x3B26 DUP2 PUSH2 0x3B0C JUMP JUMPDEST DUP2 EQ PUSH2 0x3B30 JUMPI PUSH0 DUP1 REVERT JUMPDEST POP JUMP JUMPDEST PUSH0 DUP2 CALLDATALOAD SWAP1 POP PUSH2 0x3B41 DUP2 PUSH2 0x3B1D JUMP JUMPDEST SWAP3 SWAP2 POP POP JUMP JUMPDEST PUSH0 DUP2 SWAP1 POP SWAP2 SWAP1 POP JUMP JUMPDEST PUSH2 0x3B59 DUP2 PUSH2 0x3B47 JUMP JUMPDEST DUP2 EQ PUSH2 0x3B63 JUMPI PUSH0 DUP1 REVERT JUMPDEST POP JUMP JUMPDEST PUSH0 DUP2 CALLDATALOAD SWAP1 POP PUSH2 0x3B74 DUP2 PUSH2 0x3B50 JUMP JUMPDEST SWAP3 SWAP2 POP POP JUMP JUMPDEST PUSH0 DUP1 PUSH1 0x40 DUP4 DUP6 SUB SLT ISZERO PUSH2 0x3B90 JUMPI PUSH2 0x3B8F PUSH2 0x3AE9 JUMP JUMPDEST JUMPDEST PUSH0 PUSH2 0x3B9D DUP6 DUP3 DUP7 ADD PUSH2 0x3B33 JUMP JUMPDEST SWAP3 POP POP PUSH1 0x20 PUSH2 0x3BAE DUP6 DUP3 DUP7 ADD PUSH2 0x3B66 JUMP JUMPDEST SWAP2 POP POP SWAP3 POP SWAP3 SWAP1 POP JUMP JUMPDEST PUSH2 0x3BC1 DUP2 PUSH2 0x3B47 JUMP JUMPDEST DUP3 MSTORE POP POP JUMP JUMPDEST PUSH0 PUSH1 0x40 DUP3 ADD SWAP1 POP PUSH2 0x3BDA PUSH0 DUP4 ADD DUP6 PUSH2 0x3BB8 JUMP JUMPDEST PUSH2 0x3BE7 PUSH1 0x20 DUP4 ADD DUP5 PUSH2 0x3BB8 JUMP JUMPDEST SWAP4 SWAP3 POP POP POP JUMP JUMPDEST PUSH0 PUSH1 0x20 DUP3 ADD SWAP1 POP PUSH2 0x3C01 PUSH0 DUP4 ADD DUP5 PUSH2 0x3BB8 JUMP JUMPDEST SWAP3 SWAP2 POP POP JUMP JUMPDEST PUSH2 0x3C10 DUP2 PUSH2 0x3B0C JUMP JUMPDEST DUP3 MSTORE POP POP JUMP JUMPDEST PUSH0 PUSH1 0x20 DUP3 ADD SWAP1 POP PUSH2 0x3C29 PUSH0 DUP4 ADD DUP5 PUSH2 0x3C07 JUMP JUMPDEST SWAP3 SWAP2 POP POP JUMP JUMPDEST PUSH0 DUP1 PUSH0 PUSH1 0x60 DUP5 DUP7 SUB SLT ISZERO PUSH2 0x3C46 JUMPI PUSH2 0x3C45 PUSH2 0x3AE9 JUMP JUMPDEST JUMPDEST PUSH0 PUSH2 0x3C53 DUP7 DUP3 DUP8 ADD PUSH2 0x3B33 JUMP JUMPDEST SWAP4 POP POP PUSH1 0x20 PUSH2 0x3C64 DUP7 DUP3 DUP8 ADD PUSH2 0x3B66 JUMP JUMPDEST SWAP3 POP POP PUSH1 0x40 PUSH2 0x3C75 DUP7 DUP3 DUP8 ADD PUSH2 0x3B66 JUMP JUMPDEST SWAP2 POP POP SWAP3 POP SWAP3 POP SWAP3 JUMP JUMPDEST PUSH0 PUSH1 0x20 DUP3 DUP5 SUB SLT ISZERO PUSH2 0x3C94 JUMPI PUSH2 0x3C93 PUSH2 0x3AE9 JUMP JUMPDEST JUMPDEST PUSH0 PUSH2 0x3CA1 DUP5 DUP3 DUP6 ADD PUSH2 0x3B33 JUMP JUMPDEST SWAP2 POP POP SWAP3 SWAP2 POP POP JUMP JUMPDEST PUSH0 PUSH1 0x80 DUP3 ADD SWAP1 POP PUSH2 0x3CBD PUSH0 DUP4 ADD DUP8 PUSH2 0x3BB8 JUMP JUMPDEST PUSH2 0x3CCA PUSH1 0x20 DUP4 ADD DUP7 PUSH2 0x3BB8 JUMP JUMPDEST PUSH2 0x3CD7 PUSH1 0x40 DUP4 ADD DUP6 PUSH2 0x3BB8 JUMP JUMPDEST PUSH2 0x3CE4 PUSH1 0x60 DUP4 ADD DUP5 PUSH2 0x3BB8 JUMP JUMPDEST SWAP6 SWAP5 POP POP POP POP POP JUMP JUMPDEST PUSH0 DUP2 MLOAD SWAP1 POP SWAP2 SWAP1 POP JUMP JUMPDEST PUSH0 DUP3 DUP3 MSTORE PUSH1 0x20 DUP3 ADD SWAP1 POP SWAP3 SWAP2 POP POP JUMP JUMPDEST PUSH0 DUP2 SWAP1 POP PUSH1 0x20 DUP3 ADD SWAP1 POP SWAP2 SWAP1 POP JUMP JUMPDEST PUSH2 0x3D1F DUP2 PUSH2 0x3B47 JUMP JUMPDEST DUP3 MSTORE POP POP JUMP JUMPDEST PUSH1 0x60 DUP3 ADD PUSH0 DUP3 ADD MLOAD PUSH2 0x3D39 PUSH0 DUP6 ADD DUP3 PUSH2 0x3D16 JUMP JUMPDEST POP PUSH1 0x20 DUP3 ADD MLOAD PUSH2 0x3D4C PUSH1 0x20 DUP6 ADD DUP3 PUSH2 0x3D16 JUMP JUMPDEST POP PUSH1 0x40 DUP3 ADD MLOAD PUSH2 0x3D5F PUSH1 0x40 DUP6 ADD DUP3 PUSH2 0x3D16 JUMP JUMPDEST POP POP POP POP JUMP JUMPDEST PUSH0 PUSH2 0x3D70 DUP4 DUP4 PUSH2 0x3D25 JUMP JUMPDEST PUSH1 0x60 DUP4 ADD SWAP1 POP SWAP3 SWAP2 POP POP JUMP JUMPDEST PUSH0 PUSH1 0x20 DUP3 ADD SWAP1 POP SWAP2 SWAP1 POP JUMP JUMPDEST PUSH0 PUSH2 0x3D92 DUP3 PUSH2 0x3CED JUMP JUMPDEST PUSH2 0x3D9C DUP2 DUP6 PUSH2 0x3CF7 JUMP JUMPDEST SWAP4 POP PUSH2 0x3DA7 DUP4 PUSH2 0x3D07 JUMP JUMPDEST DUP1 PUSH0 JUMPDEST DUP4 DUP2 LT ISZERO PUSH2 0x3DD7 JUMPI DUP2 MLOAD PUSH2 0x3DBE DUP9 DUP3 PUSH2 0x3D65 JUMP JUMPDEST SWAP8 POP PUSH2 0x3DC9 DUP4 PUSH2 0x3D7C JUMP JUMPDEST SWAP3 POP POP PUSH1 0x1 DUP2 ADD SWAP1 POP PUSH2 0x3DAA JUMP JUMPDEST POP DUP6 SWAP4 POP POP POP POP SWAP3 SWAP2 POP POP JUMP JUMPDEST PUSH0 PUSH1 0x20 DUP3 ADD SWAP1 POP DUP2 DUP2 SUB PUSH0 DUP4 ADD MSTORE PUSH2 0x3DFC DUP2 DUP5 PUSH2 0x3D88 JUMP JUMPDEST SWAP1 POP SWAP3 SWAP2 POP POP JUMP JUMPDEST PUSH0 PUSH1 0x60 DUP3 ADD SWAP1 POP PUSH2 0x3E17 PUSH0 DUP4 ADD DUP7 PUSH2 0x3BB8 JUMP JUMPDEST PUSH2 0x3E24 PUSH1 0x20 DUP4 ADD DUP6 PUSH2 0x3BB8 JUMP JUMPDEST PUSH2 0x3E31 PUSH1 0x40 DUP4 ADD DUP5 PUSH2 0x3BB8 JUMP JUMPDEST SWAP5 SWAP4 POP POP POP POP JUMP JUMPDEST PUSH0 DUP2 MLOAD SWAP1 POP SWAP2 SWAP1 POP JUMP JUMPDEST PUSH0 DUP3 DUP3 MSTORE PUSH1 0x20 DUP3 ADD SWAP1 POP SWAP3 SWAP2 POP POP JUMP JUMPDEST PUSH0 DUP2 SWAP1 POP PUSH1 0x20 DUP3 ADD SWAP1 POP SWAP2 SWAP1 POP JUMP JUMPDEST PUSH0 DUP2 MLOAD SWAP1 POP SWAP2 SWAP1 POP JUMP JUMPDEST PUSH0 DUP3 DUP3 MSTORE PUSH1 0x20 DUP3 ADD SWAP1 POP SWAP3 SWAP2 POP POP JUMP JUMPDEST PUSH0 JUMPDEST DUP4 DUP2 LT ISZERO PUSH2 0x3E99 JUMPI DUP1 DUP3 ADD MLOAD DUP2 DUP5 ADD MSTORE PUSH1 0x20 DUP2 ADD SWAP1 POP PUSH2 0x3E7E JUMP JUMPDEST PUSH0 DUP5 DUP5 ADD MSTORE POP POP POP POP JUMP JUMPDEST PUSH0 PUSH1 0x1F NOT PUSH1 0x1F DUP4 ADD AND SWAP1 POP SWAP2 SWAP1 POP JUMP JUMPDEST PUSH0 PUSH2 0x3EBE DUP3 PUSH2 0x3E62 JUMP JUMPDEST PUSH2 0x3EC8 DUP2 DUP6 PUSH2 0x3E6C JUMP JUMPDEST SWAP4 POP PUSH2 0x3ED8 DUP2 DUP6 PUSH1 0x20 DUP7 ADD PUSH2 0x3E7C JUMP JUMPDEST PUSH2 0x3EE1 DUP2 PUSH2 0x3EA4 JUMP JUMPDEST DUP5 ADD SWAP2 POP POP SWAP3 SWAP2 POP POP JUMP JUMPDEST PUSH0 DUP2 ISZERO ISZERO SWAP1 POP SWAP2 SWAP1 POP JUMP JUMPDEST PUSH2 0x3F00 DUP2 PUSH2 0x3EEC JUMP JUMPDEST DUP3 MSTORE POP POP JUMP JUMPDEST PUSH0 PUSH2 0x120 DUP4 ADD PUSH0 DUP4 ADD MLOAD PUSH2 0x3F1C PUSH0 DUP7 ADD DUP3 PUSH2 0x3D16 JUMP JUMPDEST POP PUSH1 0x20 DUP4 ADD MLOAD DUP5 DUP3 SUB PUSH1 0x20 DUP7 ADD MSTORE PUSH2 0x3F34 DUP3 DUP3 PUSH2 0x3EB4 JUMP JUMPDEST SWAP2 POP POP PUSH1 0x40 DUP4 ADD MLOAD PUSH2 0x3F49 PUSH1 0x40 DUP7 ADD DUP3 PUSH2 0x3D16 JUMP JUMPDEST POP PUSH1 0x60 DUP4 ADD MLOAD PUSH2 0x3F5C PUSH1 0x60 DUP7 ADD DUP3 PUSH2 0x3EF7 JUMP JUMPDEST POP PUSH1 0x80 DUP4 ADD MLOAD PUSH2 0x3F6F PUSH1 0x80 DUP7 ADD DUP3 PUSH2 0x3EF7 JUMP JUMPDEST POP PUSH1 0xA0 DUP4 ADD MLOAD PUSH2 0x3F82 PUSH1 0xA0 DUP7 ADD DUP3 PUSH2 0x3D16 JUMP JUMPDEST POP PUSH1 0xC0 DUP4 ADD MLOAD PUSH2 0x3F95 PUSH1 0xC0 DUP7 ADD DUP3 PUSH2 0x3D16 JUMP JUMPDEST POP PUSH1 0xE0 DUP4 ADD MLOAD PUSH2 0x3FA8 PUSH1 0xE0 DUP7 ADD DUP3 PUSH2 0x3D16 JUMP JUMPDEST POP PUSH2 0x100 DUP4 ADD MLOAD PUSH2 0x3FBD PUSH2 0x100 DUP7 ADD DUP3 PUSH2 0x3EF7 JUMP JUMPDEST POP DUP1 SWAP2 POP POP SWAP3 SWAP2 POP POP JUMP JUMPDEST PUSH0 PUSH2 0x3FD3 DUP4 DUP4 PUSH2 0x3F06 JUMP JUMPDEST SWAP1 POP SWAP3 SWAP2 POP POP JUMP JUMPDEST PUSH0 PUSH1 0x20 DUP3 ADD SWAP1 POP SWAP2 SWAP1 POP JUMP JUMPDEST PUSH0 PUSH2 0x3FF1 DUP3 PUSH2 0x3E39 JUMP JUMPDEST PUSH2 0x3FFB DUP2 DUP6 PUSH2 0x3E43 JUMP JUMPDEST SWAP4 POP DUP4 PUSH1 0x20 DUP3 MUL DUP6 ADD PUSH2 0x400D DUP6 PUSH2 0x3E53 JUMP JUMPDEST DUP1 PUSH0 JUMPDEST DUP6 DUP2 LT ISZERO PUSH2 0x4048 JUMPI DUP5 DUP5 SUB DUP10 MSTORE DUP2 MLOAD PUSH2 0x4029 DUP6 DUP3 PUSH2 0x3FC8 JUMP JUMPDEST SWAP5 POP PUSH2 0x4034 DUP4 PUSH2 0x3FDB JUMP JUMPDEST SWAP3 POP PUSH1 0x20 DUP11 ADD SWAP10 POP POP PUSH1 0x1 DUP2 ADD SWAP1 POP PUSH2 0x4010 JUMP JUMPDEST POP DUP3 SWAP8 POP DUP8 SWAP6 POP POP POP POP POP POP SWAP3 SWAP2 POP POP JUMP JUMPDEST PUSH0 PUSH1 0x20 DUP3 ADD SWAP1 POP DUP2 DUP2 SUB PUSH0 DUP4 ADD MSTORE PUSH2 0x4072 DUP2 DUP5 PUSH2 0x3FE7 JUMP JUMPDEST SWAP1 POP SWAP3 SWAP2 POP POP JUMP JUMPDEST PUSH0 DUP2 MLOAD SWAP1 POP SWAP2 SWAP1 POP JUMP JUMPDEST PUSH0 DUP3 DUP3 MSTORE PUSH1 0x20 DUP3 ADD SWAP1 POP SWAP3 SWAP2 POP POP JUMP JUMPDEST PUSH0 DUP2 SWAP1 POP PUSH1 0x20 DUP3 ADD SWAP1 POP SWAP2 SWAP1 POP JUMP JUMPDEST PUSH2 0x1E0 DUP3 ADD PUSH0 DUP3 ADD MLOAD PUSH2 0x40B8 PUSH0 DUP6 ADD DUP3 PUSH2 0x3D16 JUMP JUMPDEST POP PUSH1 0x20 DUP3 ADD MLOAD PUSH2 0x40CB PUSH1 0x20 DUP6 ADD DUP3 PUSH2 0x3D16 JUMP JUMPDEST POP PUSH1 0x40 DUP3 ADD MLOAD PUSH2 0x40DE PUSH1 0x40 DUP6 ADD DUP3 PUSH2 0x3D16 JUMP JUMPDEST POP PUSH1 0x60 DUP3 ADD MLOAD PUSH2 0x40F1 PUSH1 0x60 DUP6 ADD DUP3 PUSH2 0x3D16 JUMP JUMPDEST POP PUSH1 0x80 DUP3 ADD MLOAD PUSH2 0x4104 PUSH1 0x80 DUP6 ADD DUP3 PUSH2 0x3D16 JUMP JUMPDEST POP PUSH1 0xA0 DUP3 ADD MLOAD PUSH2 0x4117 PUSH1 0xA0 DUP6 ADD DUP3 PUSH2 0x3D16 JUMP JUMPDEST POP PUSH1 0xC0 DUP3 ADD MLOAD PUSH2 0x412A PUSH1 0xC0 DUP6 ADD DUP3 PUSH2 0x3D16 JUMP JUMPDEST POP PUSH1 0xE0 DUP3 ADD MLOAD PUSH2 0x413D PUSH1 0xE0 DUP6 ADD DUP3 PUSH2 0x3D16 JUMP JUMPDEST POP PUSH2 0x100 DUP3 ADD MLOAD PUSH2 0x4152 PUSH2 0x100 DUP6 ADD DUP3 PUSH2 0x3D16 JUMP JUMPDEST POP PUSH2 0x120 DUP3 ADD MLOAD PUSH2 0x4167 PUSH2 0x120 DUP6 ADD DUP3 PUSH2 0x3D16 JUMP JUMPDEST POP PUSH2 0x140 DUP3 ADD MLOAD PUSH2 0x417C PUSH2 0x140 DUP6 ADD DUP3 PUSH2 0x3D16 JUMP JUMPDEST POP PUSH2 0x160 DUP3 ADD MLOAD PUSH2 0x4191 PUSH2 0x160 DUP6 ADD DUP3 PUSH2 0x3D16 JUMP JUMPDEST POP PUSH2 0x180 DUP3 ADD MLOAD PUSH2 0x41A6 PUSH2 0x180 DUP6 ADD DUP3 PUSH2 0x3D16 JUMP JUMPDEST POP PUSH2 0x1A0 DUP3 ADD MLOAD PUSH2 0x41BB PUSH2 0x1A0 DUP6 ADD DUP3 PUSH2 0x3D16 JUMP JUMPDEST POP PUSH2 0x1C0 DUP3 ADD MLOAD PUSH2 0x41D0 PUSH2 0x1C0 DUP6 ADD DUP3 PUSH2 0x3EF7 JUMP JUMPDEST POP POP POP POP JUMP JUMPDEST PUSH0 PUSH2 0x41E1 DUP4 DUP4 PUSH2 0x40A3 JUMP JUMPDEST PUSH2 0x1E0 DUP4 ADD SWAP1 POP SWAP3 SWAP2 POP POP JUMP JUMPDEST PUSH0 PUSH1 0x20 DUP3 ADD SWAP1 POP SWAP2 SWAP1 POP JUMP JUMPDEST PUSH0 PUSH2 0x4204 DUP3 PUSH2 0x407A JUMP JUMPDEST PUSH2 0x420E DUP2 DUP6 PUSH2 0x4084 JUMP JUMPDEST SWAP4 POP PUSH2 0x4219 DUP4 PUSH2 0x4094 JUMP JUMPDEST DUP1 PUSH0 JUMPDEST DUP4 DUP2 LT ISZERO PUSH2 0x4249 JUMPI DUP2 MLOAD PUSH2 0x4230 DUP9 DUP3 PUSH2 0x41D6 JUMP JUMPDEST SWAP8 POP PUSH2 0x423B DUP4 PUSH2 0x41EE JUMP JUMPDEST SWAP3 POP POP PUSH1 0x1 DUP2 ADD SWAP1 POP PUSH2 0x421C JUMP JUMPDEST POP DUP6 SWAP4 POP POP POP POP SWAP3 SWAP2 POP POP JUMP JUMPDEST PUSH0 PUSH1 0x20 DUP3 ADD SWAP1 POP DUP2 DUP2 SUB PUSH0 DUP4 ADD MSTORE PUSH2 0x426E DUP2 DUP5 PUSH2 0x41FA JUMP JUMPDEST SWAP1 POP SWAP3 SWAP2 POP POP JUMP JUMPDEST PUSH1 0xA0 DUP3 ADD PUSH0 DUP3 ADD MLOAD PUSH2 0x428A PUSH0 DUP6 ADD DUP3 PUSH2 0x3D16 JUMP JUMPDEST POP PUSH1 0x20 DUP3 ADD MLOAD PUSH2 0x429D PUSH1 0x20 DUP6 ADD DUP3 PUSH2 0x3D16 JUMP JUMPDEST POP PUSH1 0x40 DUP3 ADD MLOAD PUSH2 0x42B0 PUSH1 0x40 DUP6 ADD DUP3 PUSH2 0x3D16 JUMP JUMPDEST POP PUSH1 0x60 DUP3 ADD MLOAD PUSH2 0x42C3 PUSH1 0x60 DUP6 ADD DUP3 PUSH2 0x3D16 JUMP JUMPDEST POP PUSH1 0x80 DUP3 ADD MLOAD PUSH2 0x42D6 PUSH1 0x80 DUP6 ADD DUP3 PUSH2 0x3D16 JUMP JUMPDEST POP POP POP POP JUMP JUMPDEST PUSH0 PUSH1 0xA0 DUP3 ADD SWAP1 POP PUSH2 0x42EF PUSH0 DUP4 ADD DUP5 PUSH2 0x4276 JUMP JUMPDEST SWAP3 SWAP2 POP POP JUMP JUMPDEST PUSH0 PUSH1 0x20 DUP3 DUP5 SUB SLT ISZERO PUSH2 0x430A JUMPI PUSH2 0x4309 PUSH2 0x3AE9 JUMP JUMPDEST JUMPDEST PUSH0 PUSH2 0x4317 DUP5 DUP3 DUP6 ADD PUSH2 0x3B66 JUMP JUMPDEST SWAP2 POP POP SWAP3 SWAP2 POP POP JUMP JUMPDEST PUSH0 DUP2 MLOAD SWAP1 POP SWAP2 SWAP1 POP JUMP JUMPDEST PUSH0 DUP3 DUP3 MSTORE PUSH1 0x20 DUP3 ADD SWAP1 POP SWAP3 SWAP2 POP POP JUMP JUMPDEST PUSH0 DUP2 SWAP1 POP PUSH1 0x20 DUP3 ADD SWAP1 POP SWAP2 SWAP1 POP JUMP JUMPDEST PUSH2 0x4352 DUP2 PUSH2 0x3B0C JUMP JUMPDEST DUP3 MSTORE POP POP JUMP JUMPDEST PUSH1 0x80 DUP3 ADD PUSH0 DUP3 ADD MLOAD PUSH2 0x436C PUSH0 DUP6 ADD DUP3 PUSH2 0x3D16 JUMP JUMPDEST POP PUSH1 0x20 DUP3 ADD MLOAD PUSH2 0x437F PUSH1 0x20 DUP6 ADD DUP3 PUSH2 0x4349 JUMP JUMPDEST POP PUSH1 0x40 DUP3 ADD MLOAD PUSH2 0x4392 PUSH1 0x40 DUP6 ADD DUP3 PUSH2 0x3D16 JUMP JUMPDEST POP PUSH1 0x60 DUP3 ADD MLOAD PUSH2 0x43A5 PUSH1 0x60 DUP6 ADD DUP3 PUSH2 0x3D16 JUMP JUMPDEST POP POP POP POP JUMP JUMPDEST PUSH0 PUSH2 0x43B6 DUP4 DUP4 PUSH2 0x4358 JUMP JUMPDEST PUSH1 0x80 DUP4 ADD SWAP1 POP SWAP3 SWAP2 POP POP JUMP JUMPDEST PUSH0 PUSH1 0x20 DUP3 ADD SWAP1 POP SWAP2 SWAP1 POP JUMP JUMPDEST PUSH0 PUSH2 0x43D8 DUP3 PUSH2 0x4320 JUMP JUMPDEST PUSH2 0x43E2 DUP2 DUP6 PUSH2 0x432A JUMP JUMPDEST SWAP4 POP PUSH2 0x43ED DUP4 PUSH2 0x433A JUMP JUMPDEST DUP1 PUSH0 JUMPDEST DUP4 DUP2 LT ISZERO PUSH2 0x441D JUMPI DUP2 MLOAD PUSH2 0x4404 DUP9 DUP3 PUSH2 0x43AB JUMP JUMPDEST SWAP8 POP PUSH2 0x440F DUP4 PUSH2 0x43C2 JUMP JUMPDEST SWAP3 POP POP PUSH1 0x1 DUP2 ADD SWAP1 POP PUSH2 0x43F0 JUMP JUMPDEST POP DUP6 SWAP4 POP POP POP POP SWAP3 SWAP2 POP POP JUMP JUMPDEST PUSH0 PUSH1 0x20 DUP3 ADD SWAP1 POP DUP2 DUP2 SUB PUSH0 DUP4 ADD MSTORE PUSH2 0x4442 DUP2 DUP5 PUSH2 0x43CE JUMP JUMPDEST SWAP1 POP SWAP3 SWAP2 POP POP JUMP JUMPDEST PUSH2 0x4453 DUP2 PUSH2 0x3EEC JUMP JUMPDEST DUP3 MSTORE POP POP JUMP JUMPDEST PUSH0 PUSH2 0x120 DUP3 ADD SWAP1 POP PUSH2 0x446D PUSH0 DUP4 ADD DUP13 PUSH2 0x3BB8 JUMP JUMPDEST PUSH2 0x447A PUSH1 0x20 DUP4 ADD DUP12 PUSH2 0x3C07 JUMP JUMPDEST PUSH2 0x4487 PUSH1 0x40 DUP4 ADD DUP11 PUSH2 0x3C07 JUMP JUMPDEST PUSH2 0x4494 PUSH1 0x60 DUP4 ADD DUP10 PUSH2 0x3BB8 JUMP JUMPDEST PUSH2 0x44A1 PUSH1 0x80 DUP4 ADD DUP9 PUSH2 0x3BB8 JUMP JUMPDEST PUSH2 0x44AE PUSH1 0xA0 DUP4 ADD DUP8 PUSH2 0x3BB8 JUMP JUMPDEST PUSH2 0x44BB PUSH1 0xC0 DUP4 ADD DUP7 PUSH2 0x444A JUMP JUMPDEST PUSH2 0x44C8 PUSH1 0xE0 DUP4 ADD DUP6 PUSH2 0x3BB8 JUMP JUMPDEST PUSH2 0x44D6 PUSH2 0x100 DUP4 ADD DUP5 PUSH2 0x3BB8 JUMP JUMPDEST SWAP11 SWAP10 POP POP POP POP POP POP POP POP POP POP JUMP JUMPDEST PUSH1 0x80 DUP3 ADD PUSH0 DUP3 ADD MLOAD PUSH2 0x44F8 PUSH0 DUP6 ADD DUP3 PUSH2 0x3D16 JUMP JUMPDEST POP PUSH1 0x20 DUP3 ADD MLOAD PUSH2 0x450B PUSH1 0x20 DUP6 ADD DUP3 PUSH2 0x3D16 JUMP JUMPDEST POP PUSH1 0x40 DUP3 ADD MLOAD PUSH2 0x451E PUSH1 0x40 DUP6 ADD DUP3 PUSH2 0x3D16 JUMP JUMPDEST POP PUSH1 0x60 DUP3 ADD MLOAD PUSH2 0x4531 PUSH1 0x60 DUP6 ADD DUP3 PUSH2 0x3D16 JUMP JUMPDEST POP POP POP POP JUMP JUMPDEST PUSH0 PUSH1 0x80 DUP3 ADD SWAP1 POP PUSH2 0x454A PUSH0 DUP4 ADD DUP5 PUSH2 0x44E4 JUMP JUMPDEST SWAP3 SWAP2 POP POP JUMP JUMPDEST PUSH0 PUSH1 0xE0 DUP3 ADD SWAP1 POP PUSH2 0x4563 PUSH0 DUP4 ADD DUP11 PUSH2 0x3BB8 JUMP JUMPDEST PUSH2 0x4570 PUSH1 0x20 DUP4 ADD DUP10 PUSH2 0x3BB8 JUMP JUMPDEST PUSH2 0x457D PUSH1 0x40 DUP4 ADD DUP9 PUSH2 0x3BB8 JUMP JUMPDEST PUSH2 0x458A PUSH1 0x60 DUP4 ADD DUP8 PUSH2 0x3BB8 JUMP JUMPDEST PUSH2 0x4597 PUSH1 0x80 DUP4 ADD DUP7 PUSH2 0x3BB8 JUMP JUMPDEST PUSH2 0x45A4 PUSH1 0xA0 DUP4 ADD DUP6 PUSH2 0x3BB8 JUMP JUMPDEST PUSH2 0x45B1 PUSH1 0xC0 DUP4 ADD DUP5 PUSH2 0x3BB8 JUMP JUMPDEST SWAP9 SWAP8 POP POP POP POP POP POP POP POP JUMP JUMPDEST PUSH0 DUP2 MLOAD SWAP1 POP SWAP2 SWAP1 POP JUMP JUMPDEST PUSH0 DUP3 DUP3 MSTORE PUSH1 0x20 DUP3 ADD SWAP1 POP SWAP3 SWAP2 POP POP JUMP JUMPDEST PUSH0 DUP2 SWAP1 POP PUSH1 0x20 DUP3 ADD SWAP1 POP SWAP2 SWAP1 POP JUMP JUMPDEST PUSH1 0x40 DUP3 ADD PUSH0 DUP3 ADD MLOAD PUSH2 0x45FA PUSH0 DUP6 ADD DUP3 PUSH2 0x3D16 JUMP JUMPDEST POP PUSH1 0x20 DUP3 ADD MLOAD PUSH2 0x460D PUSH1 0x20 DUP6 ADD DUP3 PUSH2 0x3D16 JUMP JUMPDEST POP POP POP POP JUMP JUMPDEST PUSH0 PUSH2 0x461E DUP4 DUP4 PUSH2 0x45E6 JUMP JUMPDEST PUSH1 0x40 DUP4 ADD SWAP1 POP SWAP3 SWAP2 POP POP JUMP JUMPDEST PUSH0 PUSH1 0x20 DUP3 ADD SWAP1 POP SWAP2 SWAP1 POP JUMP JUMPDEST PUSH0 PUSH2 0x4640 DUP3 PUSH2 0x45BD JUMP JUMPDEST PUSH2 0x464A DUP2 DUP6 PUSH2 0x45C7 JUMP JUMPDEST SWAP4 POP PUSH2 0x4655 DUP4 PUSH2 0x45D7 JUMP JUMPDEST DUP1 PUSH0 JUMPDEST DUP4 DUP2 LT ISZERO PUSH2 0x4685 JUMPI DUP2 MLOAD PUSH2 0x466C DUP9 DUP3 PUSH2 0x4613 JUMP JUMPDEST SWAP8 POP PUSH2 0x4677 DUP4 PUSH2 0x462A JUMP JUMPDEST SWAP3 POP POP PUSH1 0x1 DUP2 ADD SWAP1 POP PUSH2 0x4658 JUMP JUMPDEST POP DUP6 SWAP4 POP POP POP POP SWAP3 SWAP2 POP POP JUMP JUMPDEST PUSH0 PUSH1 0x20 DUP3 ADD SWAP1 POP DUP2 DUP2 SUB PUSH0 DUP4 ADD MSTORE PUSH2 0x46AA DUP2 DUP5 PUSH2 0x4636 JUMP JUMPDEST SWAP1 POP SWAP3 SWAP2 POP POP JUMP JUMPDEST PUSH0 DUP3 DUP3 MSTORE PUSH1 0x20 DUP3 ADD SWAP1 POP SWAP3 SWAP2 POP POP JUMP JUMPDEST PUSH0 PUSH2 0x46CC DUP3 PUSH2 0x3E62 JUMP JUMPDEST PUSH2 0x46D6 DUP2 DUP6 PUSH2 0x46B2 JUMP JUMPDEST SWAP4 POP PUSH2 0x46E6 DUP2 DUP6 PUSH1 0x20 DUP7 ADD PUSH2 0x3E7C JUMP JUMPDEST PUSH2 0x46EF DUP2 PUSH2 0x3EA4 JUMP JUMPDEST DUP5 ADD SWAP2 POP POP SWAP3 SWAP2 POP POP JUMP JUMPDEST PUSH0 PUSH2 0x120 DUP3 ADD SWAP1 POP PUSH2 0x470E PUSH0 DUP4 ADD DUP13 PUSH2 0x3BB8 JUMP JUMPDEST DUP2 DUP2 SUB PUSH1 0x20 DUP4 ADD MSTORE PUSH2 0x4720 DUP2 DUP12 PUSH2 0x46C2 JUMP JUMPDEST SWAP1 POP PUSH2 0x472F PUSH1 0x40 DUP4 ADD DUP11 PUSH2 0x3BB8 JUMP JUMPDEST PUSH2 0x473C PUSH1 0x60 DUP4 ADD DUP10 PUSH2 0x444A JUMP JUMPDEST PUSH2 0x4749 PUSH1 0x80 DUP4 ADD DUP9 PUSH2 0x444A JUMP JUMPDEST PUSH2 0x4756 PUSH1 0xA0 DUP4 ADD DUP8 PUSH2 0x3BB8 JUMP JUMPDEST PUSH2 0x4763 PUSH1 0xC0 DUP4 ADD DUP7 PUSH2 0x3BB8 JUMP JUMPDEST PUSH2 0x4770 PUSH1 0xE0 DUP4 ADD DUP6 PUSH2 0x3BB8 JUMP JUMPDEST PUSH2 0x477E PUSH2 0x100 DUP4 ADD DUP5 PUSH2 0x444A JUMP JUMPDEST SWAP11 SWAP10 POP POP POP POP POP POP POP POP POP POP JUMP JUMPDEST PUSH0 DUP1 PUSH1 0x40 DUP4 DUP6 SUB SLT ISZERO PUSH2 0x47A2 JUMPI PUSH2 0x47A1 PUSH2 0x3AE9 JUMP JUMPDEST JUMPDEST PUSH0 PUSH2 0x47AF DUP6 DUP3 DUP7 ADD PUSH2 0x3B66 JUMP JUMPDEST SWAP3 POP POP PUSH1 0x20 PUSH2 0x47C0 DUP6 DUP3 DUP7 ADD PUSH2 0x3B66 JUMP JUMPDEST SWAP2 POP POP SWAP3 POP SWAP3 SWAP1 POP JUMP JUMPDEST PUSH0 PUSH1 0x20 DUP3 ADD SWAP1 POP PUSH2 0x47DD PUSH0 DUP4 ADD DUP5 PUSH2 0x444A JUMP JUMPDEST SWAP3 SWAP2 POP POP JUMP JUMPDEST PUSH32 0x4E487B7100000000000000000000000000000000000000000000000000000000 PUSH0 MSTORE PUSH1 0x41 PUSH1 0x4 MSTORE PUSH1 0x24 PUSH0 REVERT JUMPDEST PUSH32 0x4E487B7100000000000000000000000000000000000000000000000000000000 PUSH0 MSTORE PUSH1 0x11 PUSH1 0x4 MSTORE PUSH1 0x24 PUSH0 REVERT JUMPDEST PUSH0 PUSH2 0x4847 DUP3 PUSH2 0x3B47 JUMP JUMPDEST SWAP2 POP PUSH2 0x4852 DUP4 PUSH2 0x3B47 JUMP JUMPDEST SWAP3 POP DUP3 DUP3 MUL PUSH2 0x4860 DUP2 PUSH2 0x3B47 JUMP JUMPDEST SWAP2 POP DUP3 DUP3 DIV DUP5 EQ DUP4 ISZERO OR PUSH2 0x4877 JUMPI PUSH2 0x4876 PUSH2 0x4810 JUMP JUMPDEST JUMPDEST POP SWAP3 SWAP2 POP POP JUMP JUMPDEST PUSH0 PUSH2 0x4888 DUP3 PUSH2 0x3B47 JUMP JUMPDEST SWAP2 POP PUSH2 0x4893 DUP4 PUSH2 0x3B47 JUMP JUMPDEST SWAP3 POP DUP3 DUP3 SUB SWAP1 POP DUP2 DUP2 GT ISZERO PUSH2 0x48AB JUMPI PUSH2 0x48AA PUSH2 0x4810 JUMP JUMPDEST JUMPDEST SWAP3 SWAP2 POP POP JUMP JUMPDEST PUSH32 0x4E487B7100000000000000000000000000000000000000000000000000000000 PUSH0 MSTORE PUSH1 0x32 PUSH1 0x4 MSTORE PUSH1 0x24 PUSH0 REVERT JUMPDEST PUSH0 PUSH2 0x48E8 DUP3 PUSH2 0x3B47 JUMP JUMPDEST SWAP2 POP PUSH32 0xFFFFFFFFFFFFFFFFFFFFFFFFFFFFFFFFFFFFFFFFFFFFFFFFFFFFFFFFFFFFFFFF DUP3 SUB PUSH2 0x491A JUMPI PUSH2 0x4919 PUSH2 0x4810 JUMP JUMPDEST JUMPDEST PUSH1 0x1 DUP3 ADD SWAP1 POP SWAP2 SWAP1 POP JUMP JUMPDEST PUSH0 PUSH2 0x492F DUP3 PUSH2 0x3B47 JUMP JUMPDEST SWAP2 POP PUSH0 DUP3 SUB PUSH2 0x4941 JUMPI PUSH2 0x4940 PUSH2 0x4810 JUMP JUMPDEST JUMPDEST PUSH1 0x1 DUP3 SUB SWAP1 POP SWAP2 SWAP1 POP JUMP JUMPDEST PUSH32 0x4E487B7100000000000000000000000000000000000000000000000000000000 PUSH0 MSTORE PUSH1 0x22 PUSH1 0x4 MSTORE PUSH1 0x24 PUSH0 REVERT JUMPDEST PUSH0 PUSH1 0x2 DUP3 DIV SWAP1 POP PUSH1 0x1 DUP3 AND DUP1 PUSH2 0x4990 JUMPI PUSH1 0x7F DUP3 AND SWAP2 POP JUMPDEST PUSH1 0x20 DUP3 LT DUP2 SUB PUSH2 0x49A3 JUMPI PUSH2 0x49A2 PUSH2 0x494C JUMP JUMPDEST JUMPDEST POP SWAP2 SWAP1 POP JUMP JUMPDEST PUSH32 0x496E76616C696420757365722100000000000000000000000000000000000000 PUSH0 DUP3 ADD MSTORE POP JUMP JUMPDEST PUSH0 PUSH2 0x49DD PUSH1 0xD DUP4 PUSH2 0x46B2 JUMP JUMPDEST SWAP2 POP PUSH2 0x49E8 DUP3 PUSH2 0x49A9 JUMP JUMPDEST PUSH1 0x20 DUP3 ADD SWAP1 POP SWAP2 SWAP1 POP JUMP JUMPDEST PUSH0 PUSH1 0x20 DUP3 ADD SWAP1 POP DUP2 DUP2 SUB PUSH0 DUP4 ADD MSTORE PUSH2 0x4A0A DUP2 PUSH2 0x49D1 JUMP JUMPDEST SWAP1 POP SWAP2 SWAP1 POP JUMP JUMPDEST PUSH32 0x596F7520617265206E6F7420616C6C6F77656421000000000000000000000000 PUSH0 DUP3 ADD MSTORE POP JUMP JUMPDEST PUSH0 PUSH2 0x4A45 PUSH1 0x14 DUP4 PUSH2 0x46B2 JUMP JUMPDEST SWAP2 POP PUSH2 0x4A50 DUP3 PUSH2 0x4A11 JUMP JUMPDEST PUSH1 0x20 DUP3 ADD SWAP1 POP SWAP2 SWAP1 POP JUMP JUMPDEST PUSH0 PUSH1 0x20 DUP3 ADD SWAP1 POP DUP2 DUP2 SUB PUSH0 DUP4 ADD MSTORE PUSH2 0x4A72 DUP2 PUSH2 0x4A39 JUMP JUMPDEST SWAP1 POP SWAP2 SWAP1 POP JUMP JUMPDEST PUSH0 PUSH2 0x4A83 DUP3 PUSH2 0x3B47 JUMP JUMPDEST SWAP2 POP PUSH2 0x4A8E DUP4 PUSH2 0x3B47 JUMP JUMPDEST SWAP3 POP DUP3 DUP3 ADD SWAP1 POP DUP1 DUP3 GT ISZERO PUSH2 0x4AA6 JUMPI PUSH2 0x4AA5 PUSH2 0x4810 JUMP JUMPDEST JUMPDEST SWAP3 SWAP2 POP POP JUMP JUMPDEST PUSH32 0x496E73756666696369656E742066756E64732100000000000000000000000000 PUSH0 DUP3 ADD MSTORE POP JUMP JUMPDEST PUSH0 PUSH2 0x4AE0 PUSH1 0x13 DUP4 PUSH2 0x46B2 JUMP JUMPDEST SWAP2 POP PUSH2 0x4AEB DUP3 PUSH2 0x4AAC JUMP JUMPDEST PUSH1 0x20 DUP3 ADD SWAP1 POP SWAP2 SWAP1 POP JUMP JUMPDEST PUSH0 PUSH1 0x20 DUP3 ADD SWAP1 POP DUP2 DUP2 SUB PUSH0 DUP4 ADD MSTORE PUSH2 0x4B0D DUP2 PUSH2 0x4AD4 JUMP JUMPDEST SWAP1 POP SWAP2 SWAP1 POP JUMP JUMPDEST PUSH32 0x4E487B7100000000000000000000000000000000000000000000000000000000 PUSH0 MSTORE PUSH1 0x12 PUSH1 0x4 MSTORE PUSH1 0x24 PUSH0 REVERT JUMPDEST PUSH0 PUSH2 0x4B4B DUP3 PUSH2 0x3B47 JUMP JUMPDEST SWAP2 POP PUSH2 0x4B56 DUP4 PUSH2 0x3B47 JUMP JUMPDEST SWAP3 POP DUP3 PUSH2 0x4B66 JUMPI PUSH2 0x4B65 PUSH2 0x4B14 JUMP JUMPDEST JUMPDEST DUP3 DUP3 DIV SWAP1 POP SWAP3 SWAP2 POP POP JUMP JUMPDEST PUSH32 0x596F7520617265206E6F7420616C6C6F77656400000000000000000000000000 PUSH0 DUP3 ADD MSTORE POP JUMP JUMPDEST PUSH0 PUSH2 0x4BA5 PUSH1 0x13 DUP4 PUSH2 0x46B2 JUMP JUMPDEST SWAP2 POP PUSH2 0x4BB0 DUP3 PUSH2 0x4B71 JUMP JUMPDEST PUSH1 0x20 DUP3 ADD SWAP1 POP SWAP2 SWAP1 POP JUMP JUMPDEST PUSH0 PUSH1 0x20 DUP3 ADD SWAP1 POP DUP2 DUP2 SUB PUSH0 DUP4 ADD MSTORE PUSH2 0x4BD2 DUP2 PUSH2 0x4B99 JUMP JUMPDEST SWAP1 POP SWAP2 SWAP1 POP JUMP JUMPDEST PUSH32 0x496E76616C69642073706F6E736F722100000000000000000000000000000000 PUSH0 DUP3 ADD MSTORE POP JUMP JUMPDEST PUSH0 PUSH2 0x4C0D PUSH1 0x10 DUP4 PUSH2 0x46B2 JUMP JUMPDEST SWAP2 POP PUSH2 0x4C18 DUP3 PUSH2 0x4BD9 JUMP JUMPDEST PUSH1 0x20 DUP3 ADD SWAP1 POP SWAP2 SWAP1 POP JUMP JUMPDEST PUSH0 PUSH1 0x20 DUP3 ADD SWAP1 POP DUP2 DUP2 SUB PUSH0 DUP4 ADD MSTORE PUSH2 0x4C3A DUP2 PUSH2 0x4C01 JUMP JUMPDEST SWAP1 POP SWAP2 SWAP1 POP JUMP JUMPDEST PUSH32 0x416C726561647920726567697374657265642100000000000000000000000000 PUSH0 DUP3 ADD MSTORE POP JUMP JUMPDEST PUSH0 PUSH2 0x4C75 PUSH1 0x13 DUP4 PUSH2 0x46B2 JUMP JUMPDEST SWAP2 POP PUSH2 0x4C80 DUP3 PUSH2 0x4C41 JUMP JUMPDEST PUSH1 0x20 DUP3 ADD SWAP1 POP SWAP2 SWAP1 POP JUMP JUMPDEST PUSH0 PUSH1 0x20 DUP3 ADD SWAP1 POP DUP2 DUP2 SUB PUSH0 DUP4 ADD MSTORE PUSH2 0x4CA2 DUP2 PUSH2 0x4C69 JUMP JUMPDEST SWAP1 POP SWAP2 SWAP1 POP JUMP JUMPDEST PUSH0 PUSH1 0x40 DUP3 ADD SWAP1 POP PUSH2 0x4CBC PUSH0 DUP4 ADD DUP6 PUSH2 0x3C07 JUMP JUMPDEST PUSH2 0x4CC9 PUSH1 0x20 DUP4 ADD DUP5 PUSH2 0x3BB8 JUMP JUMPDEST SWAP4 SWAP3 POP POP POP JUMP JUMPDEST PUSH2 0x4CD9 DUP2 PUSH2 0x3EEC JUMP JUMPDEST DUP2 EQ PUSH2 0x4CE3 JUMPI PUSH0 DUP1 REVERT JUMPDEST POP JUMP JUMPDEST PUSH0 DUP2 MLOAD SWAP1 POP PUSH2 0x4CF4 DUP2 PUSH2 0x4CD0 JUMP JUMPDEST SWAP3 SWAP2 POP POP JUMP JUMPDEST PUSH0 PUSH1 0x20 DUP3 DUP5 SUB SLT ISZERO PUSH2 0x4D0F JUMPI PUSH2 0x4D0E PUSH2 0x3AE9 JUMP JUMPDEST JUMPDEST PUSH0 PUSH2 0x4D1C DUP5 DUP3 DUP6 ADD PUSH2 0x4CE6 JUMP JUMPDEST SWAP2 POP POP SWAP3 SWAP2 POP POP JUMP JUMPDEST PUSH0 DUP2 MLOAD SWAP1 POP PUSH2 0x4D33 DUP2 PUSH2 0x3B50 JUMP JUMPDEST SWAP3 SWAP2 POP POP JUMP JUMPDEST PUSH0 PUSH1 0x20 DUP3 DUP5 SUB SLT ISZERO PUSH2 0x4D4E JUMPI PUSH2 0x4D4D PUSH2 0x3AE9 JUMP JUMPDEST JUMPDEST PUSH0 PUSH2 0x4D5B DUP5 DUP3 DUP6 ADD PUSH2 0x4D25 JUMP JUMPDEST SWAP2 POP POP SWAP3 SWAP2 POP POP JUMP JUMPDEST PUSH32 0x596F7520617265206E6F74207265676973746572656421000000000000000000 PUSH0 DUP3 ADD MSTORE POP JUMP JUMPDEST PUSH0 PUSH2 0x4D98 PUSH1 0x17 DUP4 PUSH2 0x46B2 JUMP JUMPDEST SWAP2 POP PUSH2 0x4DA3 DUP3 PUSH2 0x4D64 JUMP JUMPDEST PUSH1 0x20 DUP3 ADD SWAP1 POP SWAP2 SWAP1 POP JUMP JUMPDEST PUSH0 PUSH1 0x20 DUP3 ADD SWAP1 POP DUP2 DUP2 SUB PUSH0 DUP4 ADD MSTORE PUSH2 0x4DC5 DUP2 PUSH2 0x4D8C JUMP JUMPDEST SWAP1 POP SWAP2 SWAP1 POP JUMP JUMPDEST PUSH0 PUSH1 0x60 DUP3 ADD SWAP1 POP PUSH2 0x4DDF PUSH0 DUP4 ADD DUP7 PUSH2 0x3C07 JUMP JUMPDEST PUSH2 0x4DEC PUSH1 0x20 DUP4 ADD DUP6 PUSH2 0x3C07 JUMP JUMPDEST PUSH2 0x4DF9 PUSH1 0x40 DUP4 ADD DUP5 PUSH2 0x3BB8 JUMP JUMPDEST SWAP5 SWAP4 POP POP POP POP JUMP JUMPDEST PUSH32 0x496E76616C696420616D6F756E74210000000000000000000000000000000000 PUSH0 DUP3 ADD MSTORE POP JUMP JUMPDEST PUSH0 PUSH2 0x4E35 PUSH1 0xF DUP4 PUSH2 0x46B2 JUMP JUMPDEST SWAP2 POP PUSH2 0x4E40 DUP3 PUSH2 0x4E01 JUMP JUMPDEST PUSH1 0x20 DUP3 ADD SWAP1 POP SWAP2 SWAP1 POP JUMP JUMPDEST PUSH0 PUSH1 0x20 DUP3 ADD SWAP1 POP DUP2 DUP2 SUB PUSH0 DUP4 ADD MSTORE PUSH2 0x4E62 DUP2 PUSH2 0x4E29 JUMP JUMPDEST SWAP1 POP SWAP2 SWAP1 POP JUMP INVALID LOG2 PUSH5 0x6970667358 0x22 SLT KECCAK256 PUSH0 0x2F SWAP13 0xD2 0x21 0xA5 LOG3 0xD7 0xA9 PUSH15 0x400596B113BA37762AE63B97E2D9BF BLOCKHASH SELFDESTRUCT 0xC2 0x2C 0xAF SIGNEXTEND PUSH24 0x64736F6C6343000814003300000000000000000000000000 "
		},
		"gasEstimates": {
			"creation": {
				"codeDepositCost": "4025400",
				"executionCost": "infinite",
				"totalCost": "infinite"
			},
			"external": {
				"CreatorAddress()": "464",
				"Deposit(uint256,uint256)": "infinite",
				"GetContractDetails()": "infinite",
				"GetDashboardDetails(address)": "infinite",
				"GetDepositHistory(address,uint256,uint256)": "infinite",
				"GetDirects(address)": "infinite",
				"GetIncomeWithdrawalHistory(address,uint256,uint256)": "infinite",
				"GetLevelIncomeInfo(address)": "infinite",
				"GetPackages()": "infinite",
				"Login(address)": "5275",
				"Register(address,uint256,uint256)": "infinite",
				"TotalInvestment()": "2470",
				"TotalUsers()": "2492",
				"TotalWithdrawn()": "2493",
				"Withdraw(address,uint256,uint256)": "infinite",
				"Withdraw(uint256)": "infinite",
				"map_LevelIncomeMaster(uint256)": "infinite",
				"map_PackageMaster(uint256)": "infinite",
				"map_UserBusinessOnLevel(address,uint256)": "infinite",
				"map_UserDeposits(address,uint256)": "infinite",
				"map_UserIdToAddress(uint256)": "2894",
				"map_UserIncome(address)": "infinite",
				"map_UserIncomeWithdrawalHistory(address,uint256)": "infinite",
				"map_UserTeam(address)": "infinite",
				"map_UserTransactionCount(address)": "infinite",
				"map_UserWallet(address)": "infinite",
				"map_UserWithdrawalOnLevel(address,uint256)": "infinite",
				"map_Users(address)": "infinite",
				"map_WithdrawalLevelIncomeMaster(uint256)": "infinite"
			},
			"internal": {
				"ConvertToBase(uint256)": "infinite",
				"DepositInternal(uint256,uint256)": "infinite",
				"DistributeIncome(address,uint256,uint256)": "infinite",
				"DistributeLevelIncome(address,uint256)": "infinite",
				"DistributeReferralIncome(address,uint256,uint256)": "infinite",
				"GetContractBalance()": "infinite",
				"GetTotalIncome(address)": "infinite",
				"GetTotalLevelIncome(address)": "infinite",
				"Init()": "infinite",
				"InitLevelIncomeMaster()": "infinite",
				"InitPackageMaster()": "infinite",
				"InitTopUser()": "infinite",
				"InitWithdrawalLevelIncomeMaster()": "infinite",
				"IsOwner()": "39",
				"IsQualifiedForLevelIncome(address,uint256)": "22098",
				"ReceiveTokens(uint256)": "infinite",
				"RegisterInternal(address,uint256,uint256)": "infinite",
				"SaveDeposit(address,uint256,uint256)": "infinite",
				"SaveUser(address,address)": "infinite",
				"SendTokens(address,uint256)": "infinite",
				"UpdateTeamCount(address,address)": "infinite",
				"UpdateTeamInvestment(address,uint256)": "infinite",
				"doesUserExist(address)": "2232",
				"isUserActive(address)": "2265"
			}
		},
		"methodIdentifiers": {
			"CreatorAddress()": "1cfa6e9b",
			"Deposit(uint256,uint256)": "a3af609b",
			"GetContractDetails()": "6b1a7086",
			"GetDashboardDetails(address)": "54a03e38",
			"GetDepositHistory(address,uint256,uint256)": "2e628e2e",
			"GetDirects(address)": "5be94e83",
			"GetIncomeWithdrawalHistory(address,uint256,uint256)": "759369d2",
			"GetLevelIncomeInfo(address)": "4a40f2fe",
			"GetPackages()": "3daa551c",
			"Login(address)": "eecc1c95",
			"Register(address,uint256,uint256)": "1d759fb2",
			"TotalInvestment()": "a4b6f5e1",
			"TotalUsers()": "641fba96",
			"TotalWithdrawn()": "4788312f",
			"Withdraw(address,uint256,uint256)": "f279e6a1",
			"Withdraw(uint256)": "5b6b431d",
			"map_LevelIncomeMaster(uint256)": "705116a0",
			"map_PackageMaster(uint256)": "a18a609a",
			"map_UserBusinessOnLevel(address,uint256)": "1bfe37ce",
			"map_UserDeposits(address,uint256)": "365152fa",
			"map_UserIdToAddress(uint256)": "ac3a4800",
			"map_UserIncome(address)": "e315927b",
			"map_UserIncomeWithdrawalHistory(address,uint256)": "07d94067",
			"map_UserTeam(address)": "2a530a36",
			"map_UserTransactionCount(address)": "c5f00964",
			"map_UserWallet(address)": "4e8c8eda",
			"map_UserWithdrawalOnLevel(address,uint256)": "ca4810af",
			"map_Users(address)": "5cf75517",
			"map_WithdrawalLevelIncomeMaster(uint256)": "b68b0f07"
		}
	},
	"abi": [
		{
			"inputs": [],
			"stateMutability": "nonpayable",
			"type": "constructor"
		},
		{
			"anonymous": false,
			"inputs": [
				{
					"indexed": true,
					"internalType": "address",
					"name": "from",
					"type": "address"
				},
				{
					"indexed": true,
					"internalType": "address",
					"name": "to",
					"type": "address"
				},
				{
					"indexed": false,
					"internalType": "uint256",
					"name": "value",
					"type": "uint256"
				}
			],
			"name": "Transfer",
			"type": "event"
		},
		{
			"inputs": [],
			"name": "CreatorAddress",
			"outputs": [
				{
					"internalType": "address",
					"name": "",
					"type": "address"
				}
			],
			"stateMutability": "view",
			"type": "function"
		},
		{
			"inputs": [
				{
					"internalType": "uint256",
					"name": "packageId",
					"type": "uint256"
				},
				{
					"internalType": "uint256",
					"name": "amount",
					"type": "uint256"
				}
			],
			"name": "Deposit",
			"outputs": [],
			"stateMutability": "payable",
			"type": "function"
		},
		{
			"inputs": [],
			"name": "GetContractDetails",
			"outputs": [
				{
					"components": [
						{
							"internalType": "uint256",
							"name": "TotalCommunity",
							"type": "uint256"
						},
						{
							"internalType": "uint256",
							"name": "CommunityInvestment",
							"type": "uint256"
						},
						{
							"internalType": "uint256",
							"name": "CommunityWithdrawal",
							"type": "uint256"
						},
						{
							"internalType": "uint256",
							"name": "ContractBalance",
							"type": "uint256"
						}
					],
					"internalType": "struct DAppDemo.ContractInfo",
					"name": "info",
					"type": "tuple"
				}
			],
			"stateMutability": "view",
			"type": "function"
		},
		{
			"inputs": [
				{
					"internalType": "address",
					"name": "userAddress",
					"type": "address"
				}
			],
			"name": "GetDashboardDetails",
			"outputs": [
				{
					"components": [
						{
							"internalType": "uint256",
							"name": "DirectsCount",
							"type": "uint256"
						},
						{
							"internalType": "uint256",
							"name": "ReferralIncome",
							"type": "uint256"
						},
						{
							"internalType": "uint256",
							"name": "LevelIncome",
							"type": "uint256"
						},
						{
							"internalType": "uint256",
							"name": "TotalIncome",
							"type": "uint256"
						},
						{
							"internalType": "uint256",
							"name": "AmountWithdrawn",
							"type": "uint256"
						}
					],
					"internalType": "struct DAppDemo.UserDashboard",
					"name": "info",
					"type": "tuple"
				}
			],
			"stateMutability": "view",
			"type": "function"
		},
		{
			"inputs": [
				{
					"internalType": "address",
					"name": "userAddress",
					"type": "address"
				},
				{
					"internalType": "uint256",
					"name": "pageIndex",
					"type": "uint256"
				},
				{
					"internalType": "uint256",
					"name": "pageSize",
					"type": "uint256"
				}
			],
			"name": "GetDepositHistory",
			"outputs": [
				{
					"components": [
						{
							"internalType": "uint256",
							"name": "PackageId",
							"type": "uint256"
						},
						{
							"internalType": "uint256",
							"name": "Amount",
							"type": "uint256"
						},
						{
							"internalType": "uint256",
							"name": "Timestamp",
							"type": "uint256"
						}
					],
					"internalType": "struct DAppDemo.UserDeposit[]",
					"name": "deposits",
					"type": "tuple[]"
				}
			],
			"stateMutability": "view",
			"type": "function"
		},
		{
			"inputs": [
				{
					"internalType": "address",
					"name": "userAddress",
					"type": "address"
				}
			],
			"name": "GetDirects",
			"outputs": [
				{
					"components": [
						{
							"internalType": "uint256",
							"name": "Srno",
							"type": "uint256"
						},
						{
							"internalType": "address",
							"name": "Address",
							"type": "address"
						},
						{
							"internalType": "uint256",
							"name": "Investment",
							"type": "uint256"
						},
						{
							"internalType": "uint256",
							"name": "Business",
							"type": "uint256"
						}
					],
					"internalType": "struct DAppDemo.UserDirects[]",
					"name": "directs",
					"type": "tuple[]"
				}
			],
			"stateMutability": "view",
			"type": "function"
		},
		{
			"inputs": [
				{
					"internalType": "address",
					"name": "userAddress",
					"type": "address"
				},
				{
					"internalType": "uint256",
					"name": "pageIndex",
					"type": "uint256"
				},
				{
					"internalType": "uint256",
					"name": "pageSize",
					"type": "uint256"
				}
			],
			"name": "GetIncomeWithdrawalHistory",
			"outputs": [
				{
					"components": [
						{
							"internalType": "uint256",
							"name": "Amount",
							"type": "uint256"
						},
						{
							"internalType": "uint256",
							"name": "Timestamp",
							"type": "uint256"
						}
					],
					"internalType": "struct DAppDemo.UserIncomeWithdrawalTransaction[]",
					"name": "history",
					"type": "tuple[]"
				}
			],
			"stateMutability": "view",
			"type": "function"
		},
		{
			"inputs": [
				{
					"internalType": "address",
					"name": "userAddress",
					"type": "address"
				}
			],
			"name": "GetLevelIncomeInfo",
			"outputs": [
				{
					"components": [
						{
							"internalType": "uint256",
							"name": "Level",
							"type": "uint256"
						},
						{
							"internalType": "uint256",
							"name": "RequiredSelfInvestment",
							"type": "uint256"
						},
						{
							"internalType": "uint256",
							"name": "SelfInvestment",
							"type": "uint256"
						},
						{
							"internalType": "uint256",
							"name": "RequiredNumberOfDirects",
							"type": "uint256"
						},
						{
							"internalType": "uint256",
							"name": "DirectsCount",
							"type": "uint256"
						},
						{
							"internalType": "uint256",
							"name": "RequiredDirectsInvestment",
							"type": "uint256"
						},
						{
							"internalType": "uint256",
							"name": "DirectsInvestment",
							"type": "uint256"
						},
						{
							"internalType": "uint256",
							"name": "RequiredNumberOfTeam",
							"type": "uint256"
						},
						{
							"internalType": "uint256",
							"name": "TotalTeam",
							"type": "uint256"
						},
						{
							"internalType": "uint256",
							"name": "RequiredTeamInvestment",
							"type": "uint256"
						},
						{
							"internalType": "uint256",
							"name": "TeamInvestment",
							"type": "uint256"
						},
						{
							"internalType": "uint256",
							"name": "OnAmount",
							"type": "uint256"
						},
						{
							"internalType": "uint256",
							"name": "Percentage",
							"type": "uint256"
						},
						{
							"internalType": "uint256",
							"name": "Income",
							"type": "uint256"
						},
						{
							"internalType": "bool",
							"name": "IsLevelAchieved",
							"type": "bool"
						}
					],
					"internalType": "struct DAppDemo.LevelIncomeInfo[]",
					"name": "info",
					"type": "tuple[]"
				}
			],
			"stateMutability": "view",
			"type": "function"
		},
		{
			"inputs": [],
			"name": "GetPackages",
			"outputs": [
				{
					"components": [
						{
							"internalType": "uint256",
							"name": "PackageId",
							"type": "uint256"
						},
						{
							"internalType": "string",
							"name": "Name",
							"type": "string"
						},
						{
							"internalType": "uint256",
							"name": "Amount",
							"type": "uint256"
						},
						{
							"internalType": "bool",
							"name": "IsActive",
							"type": "bool"
						},
						{
							"internalType": "bool",
							"name": "HasRange",
							"type": "bool"
						},
						{
							"internalType": "uint256",
							"name": "MinAmount",
							"type": "uint256"
						},
						{
							"internalType": "uint256",
							"name": "MaxAmount",
							"type": "uint256"
						},
						{
							"internalType": "uint256",
							"name": "ReferralIncome",
							"type": "uint256"
						},
						{
							"internalType": "bool",
							"name": "IsReferralIncomePercentage",
							"type": "bool"
						}
					],
					"internalType": "struct DAppDemo.PackageMaster[]",
					"name": "",
					"type": "tuple[]"
				}
			],
			"stateMutability": "view",
			"type": "function"
		},
		{
			"inputs": [
				{
					"internalType": "address",
					"name": "_address",
					"type": "address"
				}
			],
			"name": "Login",
			"outputs": [
				{
					"internalType": "bool",
					"name": "",
					"type": "bool"
				}
			],
			"stateMutability": "view",
			"type": "function"
		},
		{
			"inputs": [
				{
					"internalType": "address",
					"name": "sponsorAddress",
					"type": "address"
				},
				{
					"internalType": "uint256",
					"name": "packageId",
					"type": "uint256"
				},
				{
					"internalType": "uint256",
					"name": "amount",
					"type": "uint256"
				}
			],
			"name": "Register",
			"outputs": [],
			"stateMutability": "payable",
			"type": "function"
		},
		{
			"inputs": [],
			"name": "TotalInvestment",
			"outputs": [
				{
					"internalType": "uint256",
					"name": "",
					"type": "uint256"
				}
			],
			"stateMutability": "view",
			"type": "function"
		},
		{
			"inputs": [],
			"name": "TotalUsers",
			"outputs": [
				{
					"internalType": "uint256",
					"name": "",
					"type": "uint256"
				}
			],
			"stateMutability": "view",
			"type": "function"
		},
		{
			"inputs": [],
			"name": "TotalWithdrawn",
			"outputs": [
				{
					"internalType": "uint256",
					"name": "",
					"type": "uint256"
				}
			],
			"stateMutability": "view",
			"type": "function"
		},
		{
			"inputs": [
				{
					"internalType": "uint256",
					"name": "amount",
					"type": "uint256"
				}
			],
			"name": "Withdraw",
			"outputs": [],
			"stateMutability": "nonpayable",
			"type": "function"
		},
		{
			"inputs": [
				{
					"internalType": "address",
					"name": "userAddress",
					"type": "address"
				},
				{
					"internalType": "uint256",
					"name": "amount",
					"type": "uint256"
				},
				{
					"internalType": "uint256",
					"name": "_type",
					"type": "uint256"
				}
			],
			"name": "Withdraw",
			"outputs": [],
			"stateMutability": "nonpayable",
			"type": "function"
		},
		{
			"inputs": [
				{
					"internalType": "uint256",
					"name": "",
					"type": "uint256"
				}
			],
			"name": "map_LevelIncomeMaster",
			"outputs": [
				{
					"internalType": "uint256",
					"name": "Level",
					"type": "uint256"
				},
				{
					"internalType": "uint256",
					"name": "Percentage",
					"type": "uint256"
				},
				{
					"internalType": "uint256",
					"name": "RequiredSelfInvestment",
					"type": "uint256"
				},
				{
					"internalType": "uint256",
					"name": "RequiredNumberOfDirects",
					"type": "uint256"
				},
				{
					"internalType": "uint256",
					"name": "RequiredDirectsInvestment",
					"type": "uint256"
				},
				{
					"internalType": "uint256",
					"name": "RequiredNumberOfTeam",
					"type": "uint256"
				},
				{
					"internalType": "uint256",
					"name": "RequiredTeamInvestment",
					"type": "uint256"
				}
			],
			"stateMutability": "view",
			"type": "function"
		},
		{
			"inputs": [
				{
					"internalType": "uint256",
					"name": "",
					"type": "uint256"
				}
			],
			"name": "map_PackageMaster",
			"outputs": [
				{
					"internalType": "uint256",
					"name": "PackageId",
					"type": "uint256"
				},
				{
					"internalType": "string",
					"name": "Name",
					"type": "string"
				},
				{
					"internalType": "uint256",
					"name": "Amount",
					"type": "uint256"
				},
				{
					"internalType": "bool",
					"name": "IsActive",
					"type": "bool"
				},
				{
					"internalType": "bool",
					"name": "HasRange",
					"type": "bool"
				},
				{
					"internalType": "uint256",
					"name": "MinAmount",
					"type": "uint256"
				},
				{
					"internalType": "uint256",
					"name": "MaxAmount",
					"type": "uint256"
				},
				{
					"internalType": "uint256",
					"name": "ReferralIncome",
					"type": "uint256"
				},
				{
					"internalType": "bool",
					"name": "IsReferralIncomePercentage",
					"type": "bool"
				}
			],
			"stateMutability": "view",
			"type": "function"
		},
		{
			"inputs": [
				{
					"internalType": "address",
					"name": "",
					"type": "address"
				},
				{
					"internalType": "uint256",
					"name": "",
					"type": "uint256"
				}
			],
			"name": "map_UserBusinessOnLevel",
			"outputs": [
				{
					"internalType": "uint256",
					"name": "",
					"type": "uint256"
				}
			],
			"stateMutability": "view",
			"type": "function"
		},
		{
			"inputs": [
				{
					"internalType": "address",
					"name": "",
					"type": "address"
				},
				{
					"internalType": "uint256",
					"name": "",
					"type": "uint256"
				}
			],
			"name": "map_UserDeposits",
			"outputs": [
				{
					"internalType": "uint256",
					"name": "PackageId",
					"type": "uint256"
				},
				{
					"internalType": "uint256",
					"name": "Amount",
					"type": "uint256"
				},
				{
					"internalType": "uint256",
					"name": "Timestamp",
					"type": "uint256"
				}
			],
			"stateMutability": "view",
			"type": "function"
		},
		{
			"inputs": [
				{
					"internalType": "uint256",
					"name": "",
					"type": "uint256"
				}
			],
			"name": "map_UserIdToAddress",
			"outputs": [
				{
					"internalType": "address",
					"name": "",
					"type": "address"
				}
			],
			"stateMutability": "view",
			"type": "function"
		},
		{
			"inputs": [
				{
					"internalType": "address",
					"name": "",
					"type": "address"
				}
			],
			"name": "map_UserIncome",
			"outputs": [
				{
					"internalType": "uint256",
					"name": "ReferralIncome",
					"type": "uint256"
				},
				{
					"internalType": "uint256",
					"name": "AmountWithdrawn",
					"type": "uint256"
				}
			],
			"stateMutability": "view",
			"type": "function"
		},
		{
			"inputs": [
				{
					"internalType": "address",
					"name": "",
					"type": "address"
				},
				{
					"internalType": "uint256",
					"name": "",
					"type": "uint256"
				}
			],
			"name": "map_UserIncomeWithdrawalHistory",
			"outputs": [
				{
					"internalType": "uint256",
					"name": "Amount",
					"type": "uint256"
				},
				{
					"internalType": "uint256",
					"name": "Timestamp",
					"type": "uint256"
				}
			],
			"stateMutability": "view",
			"type": "function"
		},
		{
			"inputs": [
				{
					"internalType": "address",
					"name": "",
					"type": "address"
				}
			],
			"name": "map_UserTeam",
			"outputs": [
				{
					"internalType": "uint256",
					"name": "DirectsInvestment",
					"type": "uint256"
				},
				{
					"internalType": "uint256",
					"name": "TeamABusiness",
					"type": "uint256"
				},
				{
					"internalType": "uint256",
					"name": "TeamBBusiness",
					"type": "uint256"
				},
				{
					"internalType": "uint256",
					"name": "TeamInvestment",
					"type": "uint256"
				}
			],
			"stateMutability": "view",
			"type": "function"
		},
		{
			"inputs": [
				{
					"internalType": "address",
					"name": "",
					"type": "address"
				}
			],
			"name": "map_UserTransactionCount",
			"outputs": [
				{
					"internalType": "uint256",
					"name": "DepositsCount",
					"type": "uint256"
				},
				{
					"internalType": "uint256",
					"name": "TokenSellCount",
					"type": "uint256"
				},
				{
					"internalType": "uint256",
					"name": "IncomeWithdrawalCount",
					"type": "uint256"
				}
			],
			"stateMutability": "view",
			"type": "function"
		},
		{
			"inputs": [
				{
					"internalType": "address",
					"name": "",
					"type": "address"
				}
			],
			"name": "map_UserWallet",
			"outputs": [
				{
					"internalType": "uint256",
					"name": "CreditedIncome",
					"type": "uint256"
				},
				{
					"internalType": "uint256",
					"name": "DebitedIncome",
					"type": "uint256"
				}
			],
			"stateMutability": "view",
			"type": "function"
		},
		{
			"inputs": [
				{
					"internalType": "address",
					"name": "",
					"type": "address"
				},
				{
					"internalType": "uint256",
					"name": "",
					"type": "uint256"
				}
			],
			"name": "map_UserWithdrawalOnLevel",
			"outputs": [
				{
					"internalType": "uint256",
					"name": "",
					"type": "uint256"
				}
			],
			"stateMutability": "view",
			"type": "function"
		},
		{
			"inputs": [
				{
					"internalType": "address",
					"name": "",
					"type": "address"
				}
			],
			"name": "map_Users",
			"outputs": [
				{
					"internalType": "uint256",
					"name": "Id",
					"type": "uint256"
				},
				{
					"internalType": "address",
					"name": "Address",
					"type": "address"
				},
				{
					"internalType": "address",
					"name": "SponsorAddress",
					"type": "address"
				},
				{
					"internalType": "uint256",
					"name": "JoiningTimestamp",
					"type": "uint256"
				},
				{
					"internalType": "uint256",
					"name": "Investment",
					"type": "uint256"
				},
				{
					"internalType": "uint256",
					"name": "TotalTeam",
					"type": "uint256"
				},
				{
					"internalType": "bool",
					"name": "IsBlocked",
					"type": "bool"
				},
				{
					"internalType": "uint256",
					"name": "LastTokenSellTimestamp",
					"type": "uint256"
				},
				{
					"internalType": "uint256",
					"name": "RankId",
					"type": "uint256"
				}
			],
			"stateMutability": "view",
			"type": "function"
		},
		{
			"inputs": [
				{
					"internalType": "uint256",
					"name": "",
					"type": "uint256"
				}
			],
			"name": "map_WithdrawalLevelIncomeMaster",
			"outputs": [
				{
					"internalType": "uint256",
					"name": "Level",
					"type": "uint256"
				},
				{
					"internalType": "uint256",
					"name": "Percentage",
					"type": "uint256"
				},
				{
					"internalType": "uint256",
					"name": "RequiredSelfInvestment",
					"type": "uint256"
				},
				{
					"internalType": "uint256",
					"name": "RequiredNumberOfDirects",
					"type": "uint256"
				},
				{
					"internalType": "uint256",
					"name": "RequiredDirectsInvestment",
					"type": "uint256"
				},
				{
					"internalType": "uint256",
					"name": "RequiredNumberOfTeam",
					"type": "uint256"
				},
				{
					"internalType": "uint256",
					"name": "RequiredTeamInvestment",
					"type": "uint256"
				}
			],
			"stateMutability": "view",
			"type": "function"
		}
	]
}