{
	"src/assets/BBD_Token.sol": {
		"BBDToken": {
			"abi": [
				{
					"inputs": [],
					"stateMutability": "nonpayable",
					"type": "constructor"
				},
				{
					"inputs": [
						{
							"internalType": "address",
							"name": "spender",
							"type": "address"
						},
						{
							"internalType": "uint256",
							"name": "allowance",
							"type": "uint256"
						},
						{
							"internalType": "uint256",
							"name": "needed",
							"type": "uint256"
						}
					],
					"name": "ERC20InsufficientAllowance",
					"type": "error"
				},
				{
					"inputs": [
						{
							"internalType": "address",
							"name": "sender",
							"type": "address"
						},
						{
							"internalType": "uint256",
							"name": "balance",
							"type": "uint256"
						},
						{
							"internalType": "uint256",
							"name": "needed",
							"type": "uint256"
						}
					],
					"name": "ERC20InsufficientBalance",
					"type": "error"
				},
				{
					"inputs": [
						{
							"internalType": "address",
							"name": "approver",
							"type": "address"
						}
					],
					"name": "ERC20InvalidApprover",
					"type": "error"
				},
				{
					"inputs": [
						{
							"internalType": "address",
							"name": "receiver",
							"type": "address"
						}
					],
					"name": "ERC20InvalidReceiver",
					"type": "error"
				},
				{
					"inputs": [
						{
							"internalType": "address",
							"name": "sender",
							"type": "address"
						}
					],
					"name": "ERC20InvalidSender",
					"type": "error"
				},
				{
					"inputs": [
						{
							"internalType": "address",
							"name": "spender",
							"type": "address"
						}
					],
					"name": "ERC20InvalidSpender",
					"type": "error"
				},
				{
					"anonymous": false,
					"inputs": [
						{
							"indexed": true,
							"internalType": "address",
							"name": "owner",
							"type": "address"
						},
						{
							"indexed": true,
							"internalType": "address",
							"name": "spender",
							"type": "address"
						},
						{
							"indexed": false,
							"internalType": "uint256",
							"name": "value",
							"type": "uint256"
						}
					],
					"name": "Approval",
					"type": "event"
				},
				{
					"anonymous": false,
					"inputs": [
						{
							"indexed": false,
							"internalType": "uint256",
							"name": "month",
							"type": "uint256"
						},
						{
							"indexed": false,
							"internalType": "uint256",
							"name": "amountPerWallet",
							"type": "uint256"
						},
						{
							"indexed": false,
							"internalType": "uint256",
							"name": "totalUnlocked",
							"type": "uint256"
						}
					],
					"name": "TokensUnlocked",
					"type": "event"
				},
				{
					"anonymous": false,
					"inputs": [
						{
							"indexed": true,
							"internalType": "address",
							"name": "from",
							"type": "address"
						},
						{
							"indexed": true,
							"internalType": "address",
							"name": "to",
							"type": "address"
						},
						{
							"indexed": false,
							"internalType": "uint256",
							"name": "value",
							"type": "uint256"
						}
					],
					"name": "Transfer",
					"type": "event"
				},
				{
					"inputs": [],
					"name": "LOCKED_SUPPLY",
					"outputs": [
						{
							"internalType": "uint256",
							"name": "",
							"type": "uint256"
						}
					],
					"stateMutability": "view",
					"type": "function"
				},
				{
					"inputs": [],
					"name": "PUBLIC_SUPPLY",
					"outputs": [
						{
							"internalType": "uint256",
							"name": "",
							"type": "uint256"
						}
					],
					"stateMutability": "view",
					"type": "function"
				},
				{
					"inputs": [],
					"name": "TOTAL_SUPPLY",
					"outputs": [
						{
							"internalType": "uint256",
							"name": "",
							"type": "uint256"
						}
					],
					"stateMutability": "view",
					"type": "function"
				},
				{
					"inputs": [
						{
							"internalType": "address",
							"name": "owner",
							"type": "address"
						},
						{
							"internalType": "address",
							"name": "spender",
							"type": "address"
						}
					],
					"name": "allowance",
					"outputs": [
						{
							"internalType": "uint256",
							"name": "",
							"type": "uint256"
						}
					],
					"stateMutability": "view",
					"type": "function"
				},
				{
					"inputs": [
						{
							"internalType": "address",
							"name": "spender",
							"type": "address"
						},
						{
							"internalType": "uint256",
							"name": "value",
							"type": "uint256"
						}
					],
					"name": "approve",
					"outputs": [
						{
							"internalType": "bool",
							"name": "",
							"type": "bool"
						}
					],
					"stateMutability": "nonpayable",
					"type": "function"
				},
				{
					"inputs": [],
					"name": "awardBonus",
					"outputs": [
						{
							"internalType": "address",
							"name": "",
							"type": "address"
						}
					],
					"stateMutability": "view",
					"type": "function"
				},
				{
					"inputs": [
						{
							"internalType": "address",
							"name": "account",
							"type": "address"
						}
					],
					"name": "balanceOf",
					"outputs": [
						{
							"internalType": "uint256",
							"name": "",
							"type": "uint256"
						}
					],
					"stateMutability": "view",
					"type": "function"
				},
				{
					"inputs": [],
					"name": "buyingEnabled",
					"outputs": [
						{
							"internalType": "bool",
							"name": "",
							"type": "bool"
						}
					],
					"stateMutability": "view",
					"type": "function"
				},
				{
					"inputs": [],
					"name": "decimals",
					"outputs": [
						{
							"internalType": "uint8",
							"name": "",
							"type": "uint8"
						}
					],
					"stateMutability": "view",
					"type": "function"
				},
				{
					"inputs": [],
					"name": "gameTreasury",
					"outputs": [
						{
							"internalType": "address",
							"name": "",
							"type": "address"
						}
					],
					"stateMutability": "view",
					"type": "function"
				},
				{
					"inputs": [],
					"name": "getNextUnlockInfo",
					"outputs": [
						{
							"internalType": "uint256",
							"name": "month",
							"type": "uint256"
						},
						{
							"internalType": "uint256",
							"name": "amountTotal",
							"type": "uint256"
						},
						{
							"internalType": "uint256",
							"name": "perWallet",
							"type": "uint256"
						}
					],
					"stateMutability": "view",
					"type": "function"
				},
				{
					"inputs": [
						{
							"internalType": "address",
							"name": "",
							"type": "address"
						}
					],
					"name": "isDex",
					"outputs": [
						{
							"internalType": "bool",
							"name": "",
							"type": "bool"
						}
					],
					"stateMutability": "view",
					"type": "function"
				},
				{
					"inputs": [],
					"name": "lastUnlockMonth",
					"outputs": [
						{
							"internalType": "uint256",
							"name": "",
							"type": "uint256"
						}
					],
					"stateMutability": "view",
					"type": "function"
				},
				{
					"inputs": [],
					"name": "liquidityListing",
					"outputs": [
						{
							"internalType": "address",
							"name": "",
							"type": "address"
						}
					],
					"stateMutability": "view",
					"type": "function"
				},
				{
					"inputs": [
						{
							"internalType": "address",
							"name": "",
							"type": "address"
						}
					],
					"name": "managers",
					"outputs": [
						{
							"internalType": "bool",
							"name": "",
							"type": "bool"
						}
					],
					"stateMutability": "view",
					"type": "function"
				},
				{
					"inputs": [],
					"name": "marketing",
					"outputs": [
						{
							"internalType": "address",
							"name": "",
							"type": "address"
						}
					],
					"stateMutability": "view",
					"type": "function"
				},
				{
					"inputs": [],
					"name": "name",
					"outputs": [
						{
							"internalType": "string",
							"name": "",
							"type": "string"
						}
					],
					"stateMutability": "view",
					"type": "function"
				},
				{
					"inputs": [],
					"name": "referralBonus",
					"outputs": [
						{
							"internalType": "address",
							"name": "",
							"type": "address"
						}
					],
					"stateMutability": "view",
					"type": "function"
				},
				{
					"inputs": [],
					"name": "sellingEnabled",
					"outputs": [
						{
							"internalType": "bool",
							"name": "",
							"type": "bool"
						}
					],
					"stateMutability": "view",
					"type": "function"
				},
				{
					"inputs": [
						{
							"internalType": "bool",
							"name": "_enabled",
							"type": "bool"
						}
					],
					"name": "setBuyingEnabled",
					"outputs": [],
					"stateMutability": "nonpayable",
					"type": "function"
				},
				{
					"inputs": [
						{
							"internalType": "address",
							"name": "dexAddress",
							"type": "address"
						},
						{
							"internalType": "bool",
							"name": "status",
							"type": "bool"
						}
					],
					"name": "setDexAddress",
					"outputs": [],
					"stateMutability": "nonpayable",
					"type": "function"
				},
				{
					"inputs": [
						{
							"internalType": "address",
							"name": "manager",
							"type": "address"
						},
						{
							"internalType": "bool",
							"name": "status",
							"type": "bool"
						}
					],
					"name": "setManager",
					"outputs": [],
					"stateMutability": "nonpayable",
					"type": "function"
				},
				{
					"inputs": [
						{
							"internalType": "bool",
							"name": "_enabled",
							"type": "bool"
						}
					],
					"name": "setSellingEnabled",
					"outputs": [],
					"stateMutability": "nonpayable",
					"type": "function"
				},
				{
					"inputs": [],
					"name": "stakingReward",
					"outputs": [
						{
							"internalType": "address",
							"name": "",
							"type": "address"
						}
					],
					"stateMutability": "view",
					"type": "function"
				},
				{
					"inputs": [],
					"name": "startTimestamp",
					"outputs": [
						{
							"internalType": "uint256",
							"name": "",
							"type": "uint256"
						}
					],
					"stateMutability": "view",
					"type": "function"
				},
				{
					"inputs": [],
					"name": "symbol",
					"outputs": [
						{
							"internalType": "string",
							"name": "",
							"type": "string"
						}
					],
					"stateMutability": "view",
					"type": "function"
				},
				{
					"inputs": [],
					"name": "totalSupply",
					"outputs": [
						{
							"internalType": "uint256",
							"name": "",
							"type": "uint256"
						}
					],
					"stateMutability": "view",
					"type": "function"
				},
				{
					"inputs": [],
					"name": "totalUnlocked",
					"outputs": [
						{
							"internalType": "uint256",
							"name": "",
							"type": "uint256"
						}
					],
					"stateMutability": "view",
					"type": "function"
				},
				{
					"inputs": [
						{
							"internalType": "address",
							"name": "to",
							"type": "address"
						},
						{
							"internalType": "uint256",
							"name": "value",
							"type": "uint256"
						}
					],
					"name": "transfer",
					"outputs": [
						{
							"internalType": "bool",
							"name": "",
							"type": "bool"
						}
					],
					"stateMutability": "nonpayable",
					"type": "function"
				},
				{
					"inputs": [
						{
							"internalType": "address",
							"name": "from",
							"type": "address"
						},
						{
							"internalType": "address",
							"name": "to",
							"type": "address"
						},
						{
							"internalType": "uint256",
							"name": "value",
							"type": "uint256"
						}
					],
					"name": "transferFrom",
					"outputs": [
						{
							"internalType": "bool",
							"name": "",
							"type": "bool"
						}
					],
					"stateMutability": "nonpayable",
					"type": "function"
				},
				{
					"inputs": [],
					"name": "unlockTokens",
					"outputs": [],
					"stateMutability": "nonpayable",
					"type": "function"
				},
				{
					"inputs": [
						{
							"internalType": "uint256",
							"name": "index",
							"type": "uint256"
						},
						{
							"internalType": "address",
							"name": "newAddress",
							"type": "address"
						}
					],
					"name": "updateDistributionAddress",
					"outputs": [],
					"stateMutability": "nonpayable",
					"type": "function"
				}
			],
			"devdoc": {
				"errors": {
					"ERC20InsufficientAllowance(address,uint256,uint256)": [
						{
							"details": "Indicates a failure with the `spender`’s `allowance`. Used in transfers.",
							"params": {
								"allowance": "Amount of tokens a `spender` is allowed to operate with.",
								"needed": "Minimum amount required to perform a transfer.",
								"spender": "Address that may be allowed to operate on tokens without being their owner."
							}
						}
					],
					"ERC20InsufficientBalance(address,uint256,uint256)": [
						{
							"details": "Indicates an error related to the current `balance` of a `sender`. Used in transfers.",
							"params": {
								"balance": "Current balance for the interacting account.",
								"needed": "Minimum amount required to perform a transfer.",
								"sender": "Address whose tokens are being transferred."
							}
						}
					],
					"ERC20InvalidApprover(address)": [
						{
							"details": "Indicates a failure with the `approver` of a token to be approved. Used in approvals.",
							"params": {
								"approver": "Address initiating an approval operation."
							}
						}
					],
					"ERC20InvalidReceiver(address)": [
						{
							"details": "Indicates a failure with the token `receiver`. Used in transfers.",
							"params": {
								"receiver": "Address to which tokens are being transferred."
							}
						}
					],
					"ERC20InvalidSender(address)": [
						{
							"details": "Indicates a failure with the token `sender`. Used in transfers.",
							"params": {
								"sender": "Address whose tokens are being transferred."
							}
						}
					],
					"ERC20InvalidSpender(address)": [
						{
							"details": "Indicates a failure with the `spender` to be approved. Used in approvals.",
							"params": {
								"spender": "Address that may be allowed to operate on tokens without being their owner."
							}
						}
					]
				},
				"events": {
					"Approval(address,address,uint256)": {
						"details": "Emitted when the allowance of a `spender` for an `owner` is set by a call to {approve}. `value` is the new allowance."
					},
					"Transfer(address,address,uint256)": {
						"details": "Emitted when `value` tokens are moved from one account (`from`) to another (`to`). Note that `value` may be zero."
					}
				},
				"kind": "dev",
				"methods": {
					"allowance(address,address)": {
						"details": "See {IERC20-allowance}."
					},
					"approve(address,uint256)": {
						"details": "See {IERC20-approve}. NOTE: If `value` is the maximum `uint256`, the allowance is not updated on `transferFrom`. This is semantically equivalent to an infinite approval. Requirements: - `spender` cannot be the zero address."
					},
					"balanceOf(address)": {
						"details": "See {IERC20-balanceOf}."
					},
					"decimals()": {
						"details": "Returns the number of decimals used to get its user representation. For example, if `decimals` equals `2`, a balance of `505` tokens should be displayed to a user as `5.05` (`505 / 10 ** 2`). Tokens usually opt for a value of 18, imitating the relationship between Ether and Wei. This is the default value returned by this function, unless it's overridden. NOTE: This information is only used for _display_ purposes: it in no way affects any of the arithmetic of the contract, including {IERC20-balanceOf} and {IERC20-transfer}."
					},
					"name()": {
						"details": "Returns the name of the token."
					},
					"symbol()": {
						"details": "Returns the symbol of the token, usually a shorter version of the name."
					},
					"totalSupply()": {
						"details": "See {IERC20-totalSupply}."
					},
					"transfer(address,uint256)": {
						"details": "See {IERC20-transfer}. Requirements: - `to` cannot be the zero address. - the caller must have a balance of at least `value`."
					},
					"transferFrom(address,address,uint256)": {
						"details": "See {IERC20-transferFrom}. Skips emitting an {Approval} event indicating an allowance update. This is not required by the ERC. See {xref-ERC20-_approve-address-address-uint256-bool-}[_approve]. NOTE: Does not update the allowance if the current allowance is the maximum `uint256`. Requirements: - `from` and `to` cannot be the zero address. - `from` must have a balance of at least `value`. - the caller must have allowance for ``from``'s tokens of at least `value`."
					}
				},
				"version": 1
			},
			"evm": {
				"assembly": "    /* \"src/assets/BBD_Token.sol\":22875:28679  contract BBDToken is ERC20 {... */\n  mstore(0x40, 0xa0)\n    /* \"src/assets/BBD_Token.sol\":23240:23316  address public liquidityListing = 0x7Ec13697D98925bA1dC2BcC705c071bd168B10C2 */\n  0x07\n  dup1\n  sload\n  not(sub(shl(0xa0, 0x01), 0x01))\n  swap1\n  dup2\n  and\n    /* \"src/assets/BBD_Token.sol\":23274:23316  0x7Ec13697D98925bA1dC2BcC705c071bd168B10C2 */\n  0x7ec13697d98925ba1dc2bcc705c071bd168b10c2\n    /* \"src/assets/BBD_Token.sol\":23240:23316  address public liquidityListing = 0x7Ec13697D98925bA1dC2BcC705c071bd168B10C2 */\n  or\n  swap1\n  swap2\n  sstore\n    /* \"src/assets/BBD_Token.sol\":23323:23395  address public gameTreasury = 0x8de119e98707Ac240abA2cB77E83B29882A34357 */\n  0x08\n  dup1\n  sload\n  dup3\n  and\n    /* \"src/assets/BBD_Token.sol\":23353:23395  0x8de119e98707Ac240abA2cB77E83B29882A34357 */\n  0x8de119e98707ac240aba2cb77e83b29882a34357\n    /* \"src/assets/BBD_Token.sol\":23323:23395  address public gameTreasury = 0x8de119e98707Ac240abA2cB77E83B29882A34357 */\n  or\n  swap1\n  sstore\n    /* \"src/assets/BBD_Token.sol\":23402:23471  address public marketing = 0x03499C18F7265BE9AFDA16504A34CD1892F278AE */\n  0x09\n  dup1\n  sload\n  dup3\n  and\n    /* \"src/assets/BBD_Token.sol\":23429:23471  0x03499C18F7265BE9AFDA16504A34CD1892F278AE */\n  0x03499c18f7265be9afda16504a34cd1892f278ae\n    /* \"src/assets/BBD_Token.sol\":23402:23471  address public marketing = 0x03499C18F7265BE9AFDA16504A34CD1892F278AE */\n  or\n  swap1\n  sstore\n    /* \"src/assets/BBD_Token.sol\":23478:23551  address public stakingReward = 0xcc234a1d3e32148461b7eaCb5a8bf4D0C4b6Be74 */\n  0x0a\n  dup1\n  sload\n  dup3\n  and\n    /* \"src/assets/BBD_Token.sol\":23509:23551  0xcc234a1d3e32148461b7eaCb5a8bf4D0C4b6Be74 */\n  0xcc234a1d3e32148461b7eacb5a8bf4d0c4b6be74\n    /* \"src/assets/BBD_Token.sol\":23478:23551  address public stakingReward = 0xcc234a1d3e32148461b7eaCb5a8bf4D0C4b6Be74 */\n  or\n  swap1\n  sstore\n    /* \"src/assets/BBD_Token.sol\":23558:23631  address public referralBonus = 0xCeEA0E87B553bc445C5Eb2242b5F28Cd81B4ACaA */\n  0x0b\n  dup1\n  sload\n  swap1\n  swap2\n  and\n    /* \"src/assets/BBD_Token.sol\":23589:23631  0xCeEA0E87B553bc445C5Eb2242b5F28Cd81B4ACaA */\n  0xceea0e87b553bc445c5eb2242b5f28cd81b4acaa\n    /* \"src/assets/BBD_Token.sol\":23558:23631  address public referralBonus = 0xCeEA0E87B553bc445C5Eb2242b5F28Cd81B4ACaA */\n  or\n  swap1\n  sstore\n    /* \"src/assets/BBD_Token.sol\":23638:23708  address public awardBonus = 0x7E23E2781a1Da5DACe87b4f0e7bf68191263Fc32 */\n  0x0c\n  dup1\n  sload\n    /* \"src/assets/BBD_Token.sol\":23756:23789  bool public sellingEnabled = true */\n  0x01017e23e2781a1da5dace87b4f0e7bf68191263fc32\n  not(sub(shl(0xb0, 0x01), 0x01))\n  swap1\n  swap2\n  and\n  or\n  swap1\n  sstore\n    /* \"src/assets/BBD_Token.sol\":24141:24439  constructor() ERC20(\"BBD Token\", \"BBD\") {... */\n  callvalue\n  dup1\n  iszero\n  tag_1\n  jumpi\n  0x00\n  dup1\n  revert\ntag_1:\n  pop\n    /* \"src/assets/BBD_Token.sol\":12890:13006  constructor(string memory name_, string memory symbol_) {... */\n  mload(0x40)\n  dup1\n  0x40\n  add\n  0x40\n  mstore\n  dup1\n  0x09\n  dup2\n  mstore\n  0x20\n  add\n  shl(0xb9, 0x212122102a37b5b2b7)\n  dup2\n  mstore\n  pop\n  mload(0x40)\n  dup1\n  0x40\n  add\n  0x40\n  mstore\n  dup1\n  0x03\n  dup2\n  mstore\n  0x20\n  add\n  shl(0xea, 0x109091)\n  dup2\n  mstore\n  pop\n    /* \"src/assets/BBD_Token.sol\":12965:12970  name_ */\n  dup2\n    /* \"src/assets/BBD_Token.sol\":12957:12962  _name */\n  0x03\n    /* \"src/assets/BBD_Token.sol\":12957:12970  _name = name_ */\n  swap1\n  dup2\n  tag_5\n  swap2\n  swap1\n  tag_6\n  jump\t// in\ntag_5:\n  pop\n    /* \"src/assets/BBD_Token.sol\":12981:12988  _symbol */\n  0x04\n    /* \"src/assets/BBD_Token.sol\":12981:12998  _symbol = symbol_ */\n  tag_7\n    /* \"src/assets/BBD_Token.sol\":12991:12998  symbol_ */\n  dup3\n    /* \"src/assets/BBD_Token.sol\":12981:12988  _symbol */\n  dup3\n    /* \"src/assets/BBD_Token.sol\":12981:12998  _symbol = symbol_ */\n  tag_6\n  jump\t// in\ntag_7:\n  pop\n  pop\n    /* \"src/assets/BBD_Token.sol\":24192:24198  _owner */\n  0x0d\n    /* \"src/assets/BBD_Token.sol\":24192:24211  _owner = msg.sender */\n  dup1\n  sload\n  not(sub(shl(0xa0, 0x01), 0x01))\n  and\n    /* \"src/assets/BBD_Token.sol\":24201:24211  msg.sender */\n  caller\n    /* \"src/assets/BBD_Token.sol\":24192:24211  _owner = msg.sender */\n  swap1\n  dup2\n  or\n  swap1\n  swap2\n  sstore\n    /* \"src/assets/BBD_Token.sol\":24222:24250  _mint(_owner, PUBLIC_SUPPLY) */\n  tag_9\n  swap2\n  pop\n    /* \"src/assets/BBD_Token.sol\":23016:23036  1_000_000_000 * 1e18 */\n  0x033b2e3c9fd0803ce8000000\n    /* \"src/assets/BBD_Token.sol\":24222:24227  _mint */\n  tag_10\n    /* \"src/assets/BBD_Token.sol\":24222:24250  _mint(_owner, PUBLIC_SUPPLY) */\n  jump\t// in\ntag_9:\n    /* \"src/assets/BBD_Token.sol\":24283:24318  _mint(address(this), LOCKED_SUPPLY) */\n  tag_11\n    /* \"src/assets/BBD_Token.sol\":24297:24301  this */\n  address\n    /* \"src/assets/BBD_Token.sol\":23083:23111  TOTAL_SUPPLY - PUBLIC_SUPPLY */\n  tag_12\n    /* \"src/assets/BBD_Token.sol\":23016:23036  1_000_000_000 * 1e18 */\n  0x033b2e3c9fd0803ce8000000\n    /* \"src/assets/BBD_Token.sol\":22948:22969  10_000_000_000 * 1e18 */\n  0x204fce5e3e25026110000000\n    /* \"src/assets/BBD_Token.sol\":23083:23111  TOTAL_SUPPLY - PUBLIC_SUPPLY */\n  tag_13\n  jump\t// in\ntag_12:\n    /* \"src/assets/BBD_Token.sol\":24283:24288  _mint */\n  tag_10\n    /* \"src/assets/BBD_Token.sol\":24283:24318  _mint(address(this), LOCKED_SUPPLY) */\n  jump\t// in\ntag_11:\n    /* \"src/assets/BBD_Token.sol\":24386:24401  block.timestamp */\n  timestamp\n    /* \"src/assets/BBD_Token.sol\":24369:24401  startTimestamp = block.timestamp */\n  0x80\n  mstore\n    /* \"src/assets/BBD_Token.sol\":24430:24431  0 */\n  0x00\n    /* \"src/assets/BBD_Token.sol\":24412:24427  lastUnlockMonth */\n  0x05\n    /* \"src/assets/BBD_Token.sol\":24412:24431  lastUnlockMonth = 0 */\n  sstore\n    /* \"src/assets/BBD_Token.sol\":22875:28679  contract BBDToken is ERC20 {... */\n  jump(tag_58)\n    /* \"src/assets/BBD_Token.sol\":19055:19268  function _mint(address account, uint256 value) internal {... */\ntag_10:\n  sub(shl(0xa0, 0x01), 0x01)\n    /* \"src/assets/BBD_Token.sol\":19126:19147  account == address(0) */\n  dup3\n  and\n    /* \"src/assets/BBD_Token.sol\":19122:19215  if (account == address(0)) {... */\n  tag_16\n  jumpi\n    /* \"src/assets/BBD_Token.sol\":19171:19203  ERC20InvalidReceiver(address(0)) */\n  mload(0x40)\n  shl(0xe0, 0xec442f05)\n  dup2\n  mstore\n    /* \"src/assets/BBD_Token.sol\":19200:19201  0 */\n  0x00\n    /* \"src/assets/BBD_Token.sol\":19171:19203  ERC20InvalidReceiver(address(0)) */\n  0x04\n  dup3\n  add\n    /* \"#utility.yul\":3066:3117   */\n  mstore\n    /* \"#utility.yul\":3039:3057   */\n  0x24\n  add\n    /* \"src/assets/BBD_Token.sol\":19171:19203  ERC20InvalidReceiver(address(0)) */\ntag_17:\n  mload(0x40)\n  dup1\n  swap2\n  sub\n  swap1\n  revert\n    /* \"src/assets/BBD_Token.sol\":19122:19215  if (account == address(0)) {... */\ntag_16:\n    /* \"src/assets/BBD_Token.sol\":19225:19260  _update(address(0), account, value) */\n  tag_19\n    /* \"src/assets/BBD_Token.sol\":19241:19242  0 */\n  0x00\n    /* \"src/assets/BBD_Token.sol\":19245:19252  account */\n  dup4\n    /* \"src/assets/BBD_Token.sol\":19254:19259  value */\n  dup4\n    /* \"src/assets/BBD_Token.sol\":19225:19232  _update */\n  tag_20\n    /* \"src/assets/BBD_Token.sol\":19225:19260  _update(address(0), account, value) */\n  jump\t// in\ntag_19:\n    /* \"src/assets/BBD_Token.sol\":19055:19268  function _mint(address account, uint256 value) internal {... */\n  pop\n  pop\n  jump\t// out\n    /* \"src/assets/BBD_Token.sol\":17519:18702  function _update(address from, address to, uint256 value) internal virtual {... */\ntag_20:\n    /* \"src/assets/BBD_Token.sol\":17605:17642  _beforeTokenTransfer(from, to, value) */\n  tag_22\n    /* \"src/assets/BBD_Token.sol\":17626:17630  from */\n  dup4\n    /* \"src/assets/BBD_Token.sol\":17632:17634  to */\n  dup4\n    /* \"src/assets/BBD_Token.sol\":17636:17641  value */\n  dup4\n    /* \"src/assets/BBD_Token.sol\":17605:17625  _beforeTokenTransfer */\n  tag_23\n    /* \"src/assets/BBD_Token.sol\":17605:17642  _beforeTokenTransfer(from, to, value) */\n  jump\t// in\ntag_22:\n  sub(shl(0xa0, 0x01), 0x01)\n    /* \"src/assets/BBD_Token.sol\":17657:17675  from == address(0) */\n  dup4\n  and\n    /* \"src/assets/BBD_Token.sol\":17653:18205  if (from == address(0)) {... */\n  tag_24\n  jumpi\n    /* \"src/assets/BBD_Token.sol\":17811:17816  value */\n  dup1\n    /* \"src/assets/BBD_Token.sol\":17795:17807  _totalSupply */\n  0x02\n  0x00\n    /* \"src/assets/BBD_Token.sol\":17795:17816  _totalSupply += value */\n  dup3\n  dup3\n  sload\n  tag_25\n  swap2\n  swap1\n  tag_26\n  jump\t// in\ntag_25:\n  swap1\n  swap2\n  sstore\n  pop\n    /* \"src/assets/BBD_Token.sol\":17653:18205  if (from == address(0)) {... */\n  tag_27\n  swap1\n  pop\n  jump\ntag_24:\n  sub(shl(0xa0, 0x01), 0x01)\n    /* \"src/assets/BBD_Token.sol\":17871:17886  _balances[from] */\n  dup4\n  and\n    /* \"src/assets/BBD_Token.sol\":17849:17868  uint256 fromBalance */\n  0x00\n    /* \"src/assets/BBD_Token.sol\":17871:17886  _balances[from] */\n  swap1\n  dup2\n  mstore\n  0x20\n  dup2\n  swap1\n  mstore\n  0x40\n  swap1\n  keccak256\n  sload\n    /* \"src/assets/BBD_Token.sol\":17905:17924  fromBalance < value */\n  dup2\n  dup2\n  lt\n    /* \"src/assets/BBD_Token.sol\":17901:18018  if (fromBalance < value) {... */\n  iszero\n  tag_28\n  jumpi\n    /* \"src/assets/BBD_Token.sol\":17952:18002  ERC20InsufficientBalance(from, fromBalance, value) */\n  mload(0x40)\n  shl(0xe2, 0x391434e3)\n  dup2\n  mstore\n  sub(shl(0xa0, 0x01), 0x01)\n    /* \"#utility.yul\":3478:3510   */\n  dup6\n  and\n    /* \"src/assets/BBD_Token.sol\":17952:18002  ERC20InsufficientBalance(from, fromBalance, value) */\n  0x04\n  dup3\n  add\n    /* \"#utility.yul\":3460:3511   */\n  mstore\n    /* \"#utility.yul\":3527:3545   */\n  0x24\n  dup2\n  add\n    /* \"#utility.yul\":3520:3554   */\n  dup3\n  swap1\n  mstore\n    /* \"#utility.yul\":3570:3588   */\n  0x44\n  dup2\n  add\n    /* \"#utility.yul\":3563:3597   */\n  dup4\n  swap1\n  mstore\n    /* \"#utility.yul\":3433:3451   */\n  0x64\n  add\n    /* \"src/assets/BBD_Token.sol\":17952:18002  ERC20InsufficientBalance(from, fromBalance, value) */\n  tag_17\n    /* \"#utility.yul\":3258:3603   */\n  jump\n    /* \"src/assets/BBD_Token.sol\":17901:18018  if (fromBalance < value) {... */\ntag_28:\n  sub(shl(0xa0, 0x01), 0x01)\n    /* \"src/assets/BBD_Token.sol\":18141:18156  _balances[from] */\n  dup5\n  and\n    /* \"src/assets/BBD_Token.sol\":18141:18150  _balances */\n  0x00\n    /* \"src/assets/BBD_Token.sol\":18141:18156  _balances[from] */\n  swap1\n  dup2\n  mstore\n  0x20\n  dup2\n  swap1\n  mstore\n  0x40\n  swap1\n  keccak256\n    /* \"src/assets/BBD_Token.sol\":18159:18178  fromBalance - value */\n  swap1\n  dup3\n  swap1\n  sub\n    /* \"src/assets/BBD_Token.sol\":18141:18178  _balances[from] = fromBalance - value */\n  swap1\n  sstore\n    /* \"src/assets/BBD_Token.sol\":17653:18205  if (from == address(0)) {... */\ntag_27:\n  sub(shl(0xa0, 0x01), 0x01)\n    /* \"src/assets/BBD_Token.sol\":18221:18237  to == address(0) */\n  dup3\n  and\n    /* \"src/assets/BBD_Token.sol\":18217:18652  if (to == address(0)) {... */\n  tag_31\n  jumpi\n    /* \"src/assets/BBD_Token.sol\":18387:18399  _totalSupply */\n  0x02\n    /* \"src/assets/BBD_Token.sol\":18387:18408  _totalSupply -= value */\n  dup1\n  sload\n  dup3\n  swap1\n  sub\n  swap1\n  sstore\n    /* \"src/assets/BBD_Token.sol\":18217:18652  if (to == address(0)) {... */\n  jump(tag_32)\ntag_31:\n  sub(shl(0xa0, 0x01), 0x01)\n    /* \"src/assets/BBD_Token.sol\":18603:18616  _balances[to] */\n  dup3\n  and\n    /* \"src/assets/BBD_Token.sol\":18603:18612  _balances */\n  0x00\n    /* \"src/assets/BBD_Token.sol\":18603:18616  _balances[to] */\n  swap1\n  dup2\n  mstore\n  0x20\n  dup2\n  swap1\n  mstore\n  0x40\n  swap1\n  keccak256\n    /* \"src/assets/BBD_Token.sol\":18603:18625  _balances[to] += value */\n  dup1\n  sload\n  dup3\n  add\n  swap1\n  sstore\n    /* \"src/assets/BBD_Token.sol\":18217:18652  if (to == address(0)) {... */\ntag_32:\n    /* \"src/assets/BBD_Token.sol\":18684:18686  to */\n  dup2\n  sub(shl(0xa0, 0x01), 0x01)\n    /* \"src/assets/BBD_Token.sol\":18669:18694  Transfer(from, to, value) */\n  and\n    /* \"src/assets/BBD_Token.sol\":18678:18682  from */\n  dup4\n  sub(shl(0xa0, 0x01), 0x01)\n    /* \"src/assets/BBD_Token.sol\":18669:18694  Transfer(from, to, value) */\n  and\n  0xddf252ad1be2c89b69c2b068fc378daa952ba7f163c4a11628f55a4df523b3ef\n    /* \"src/assets/BBD_Token.sol\":18688:18693  value */\n  dup4\n    /* \"src/assets/BBD_Token.sol\":18669:18694  Transfer(from, to, value) */\n  mload(0x40)\n  tag_33\n  swap2\n    /* \"#utility.yul\":3754:3779   */\n  dup2\n  mstore\n    /* \"#utility.yul\":3742:3744   */\n  0x20\n    /* \"#utility.yul\":3727:3745   */\n  add\n  swap1\n    /* \"#utility.yul\":3608:3785   */\n  jump\n    /* \"src/assets/BBD_Token.sol\":18669:18694  Transfer(from, to, value) */\ntag_33:\n  mload(0x40)\n  dup1\n  swap2\n  sub\n  swap1\n  log3\n    /* \"src/assets/BBD_Token.sol\":17519:18702  function _update(address from, address to, uint256 value) internal virtual {... */\n  pop\n  pop\n  pop\n  jump\t// out\n    /* \"src/assets/BBD_Token.sol\":28467:28676  function _beforeTokenTransfer(... */\ntag_23:\n  sub(shl(0xa0, 0x01), 0x01)\n    /* \"src/assets/BBD_Token.sol\":27446:27459  isDex[sender] */\n  dup4\n  and\n  0x00\n  swap1\n  dup2\n  mstore\n    /* \"src/assets/BBD_Token.sol\":27446:27451  isDex */\n  0x0e\n    /* \"src/assets/BBD_Token.sol\":27446:27459  isDex[sender] */\n  0x20\n  mstore\n  0x40\n  swap1\n  keccak256\n  sload\n    /* \"src/assets/BBD_Token.sol\":28603:28607  from */\n  dup4\n  swap1\n    /* \"src/assets/BBD_Token.sol\":28609:28611  to */\n  dup4\n  swap1\n    /* \"src/assets/BBD_Token.sol\":27446:27459  isDex[sender] */\n  0xff\n  and\n    /* \"src/assets/BBD_Token.sol\":27446:27477  isDex[sender] && !buyingEnabled */\n  dup1\n  iszero\n  tag_36\n  jumpi\n  pop\n    /* \"src/assets/BBD_Token.sol\":27464:27477  buyingEnabled */\n  sload(0x0c)\n  shl(0xa0, 0x01)\n  swap1\n  div\n  0xff\n  and\n    /* \"src/assets/BBD_Token.sol\":27463:27477  !buyingEnabled */\n  iszero\n    /* \"src/assets/BBD_Token.sol\":27446:27477  isDex[sender] && !buyingEnabled */\ntag_36:\n    /* \"src/assets/BBD_Token.sol\":27442:27628  if (isDex[sender] && !buyingEnabled) {... */\n  iszero\n  tag_39\n  jumpi\n    /* \"src/assets/BBD_Token.sol\":27533:27539  _owner */\n  sload(0x0d)\n  sub(shl(0xa0, 0x01), 0x01)\n    /* \"src/assets/BBD_Token.sol\":27520:27539  recipient == _owner */\n  dup3\n  dup2\n  and\n    /* \"src/assets/BBD_Token.sol\":27533:27539  _owner */\n  swap2\n  and\n    /* \"src/assets/BBD_Token.sol\":27520:27539  recipient == _owner */\n  eq\n  dup1\n    /* \"src/assets/BBD_Token.sol\":27520:27562  recipient == _owner || managers[recipient] */\n  tag_38\n  jumpi\n  pop\n  sub(shl(0xa0, 0x01), 0x01)\n    /* \"src/assets/BBD_Token.sol\":27543:27562  managers[recipient] */\n  dup2\n  and\n  0x00\n  swap1\n  dup2\n  mstore\n    /* \"src/assets/BBD_Token.sol\":27543:27551  managers */\n  0x0f\n    /* \"src/assets/BBD_Token.sol\":27543:27562  managers[recipient] */\n  0x20\n  mstore\n  0x40\n  swap1\n  keccak256\n  sload\n  0xff\n  and\n    /* \"src/assets/BBD_Token.sol\":27520:27562  recipient == _owner || managers[recipient] */\ntag_38:\n    /* \"src/assets/BBD_Token.sol\":27494:27616  require(... */\n  tag_39\n  jumpi\n  mload(0x40)\n  shl(0xe5, 0x461bcd)\n  dup2\n  mstore\n    /* \"#utility.yul\":3992:3994   */\n  0x20\n    /* \"src/assets/BBD_Token.sol\":27494:27616  require(... */\n  0x04\n  dup3\n  add\n    /* \"#utility.yul\":3974:3995   */\n  mstore\n    /* \"#utility.yul\":4031:4033   */\n  0x12\n    /* \"#utility.yul\":4011:4029   */\n  0x24\n  dup3\n  add\n    /* \"#utility.yul\":4004:4034   */\n  mstore\n  shl(0x72, 0x109d5e5a5b99c81a5cc8191a5cd8589b1959)\n    /* \"#utility.yul\":4050:4068   */\n  0x44\n  dup3\n  add\n    /* \"#utility.yul\":4043:4091   */\n  mstore\n    /* \"#utility.yul\":4108:4126   */\n  0x64\n  add\n    /* \"src/assets/BBD_Token.sol\":27494:27616  require(... */\n  tag_17\n    /* \"#utility.yul\":3790:4132   */\n  jump\n    /* \"src/assets/BBD_Token.sol\":27494:27616  require(... */\ntag_39:\n  sub(shl(0xa0, 0x01), 0x01)\n    /* \"src/assets/BBD_Token.sol\":27720:27736  isDex[recipient] */\n  dup2\n  and\n  0x00\n  swap1\n  dup2\n  mstore\n    /* \"src/assets/BBD_Token.sol\":27720:27725  isDex */\n  0x0e\n    /* \"src/assets/BBD_Token.sol\":27720:27736  isDex[recipient] */\n  0x20\n  mstore\n  0x40\n  swap1\n  keccak256\n  sload\n  0xff\n  and\n    /* \"src/assets/BBD_Token.sol\":27720:27755  isDex[recipient] && !sellingEnabled */\n  dup1\n  iszero\n  tag_42\n  jumpi\n  pop\n    /* \"src/assets/BBD_Token.sol\":27741:27755  sellingEnabled */\n  sload(0x0c)\n  shl(0xa8, 0x01)\n  swap1\n  div\n  0xff\n  and\n    /* \"src/assets/BBD_Token.sol\":27740:27755  !sellingEnabled */\n  iszero\n    /* \"src/assets/BBD_Token.sol\":27720:27755  isDex[recipient] && !sellingEnabled */\ntag_42:\n    /* \"src/assets/BBD_Token.sol\":27716:27901  if (isDex[recipient] && !sellingEnabled) {... */\n  iszero\n  tag_45\n  jumpi\n    /* \"src/assets/BBD_Token.sol\":27808:27814  _owner */\n  sload(0x0d)\n  sub(shl(0xa0, 0x01), 0x01)\n    /* \"src/assets/BBD_Token.sol\":27798:27814  sender == _owner */\n  dup4\n  dup2\n  and\n    /* \"src/assets/BBD_Token.sol\":27808:27814  _owner */\n  swap2\n  and\n    /* \"src/assets/BBD_Token.sol\":27798:27814  sender == _owner */\n  eq\n  dup1\n    /* \"src/assets/BBD_Token.sol\":27798:27834  sender == _owner || managers[sender] */\n  tag_44\n  jumpi\n  pop\n  sub(shl(0xa0, 0x01), 0x01)\n    /* \"src/assets/BBD_Token.sol\":27818:27834  managers[sender] */\n  dup3\n  and\n  0x00\n  swap1\n  dup2\n  mstore\n    /* \"src/assets/BBD_Token.sol\":27818:27826  managers */\n  0x0f\n    /* \"src/assets/BBD_Token.sol\":27818:27834  managers[sender] */\n  0x20\n  mstore\n  0x40\n  swap1\n  keccak256\n  sload\n  0xff\n  and\n    /* \"src/assets/BBD_Token.sol\":27798:27834  sender == _owner || managers[sender] */\ntag_44:\n    /* \"src/assets/BBD_Token.sol\":27772:27889  require(... */\n  tag_45\n  jumpi\n  mload(0x40)\n  shl(0xe5, 0x461bcd)\n  dup2\n  mstore\n    /* \"#utility.yul\":4339:4341   */\n  0x20\n    /* \"src/assets/BBD_Token.sol\":27772:27889  require(... */\n  0x04\n  dup3\n  add\n    /* \"#utility.yul\":4321:4342   */\n  mstore\n    /* \"#utility.yul\":4378:4380   */\n  0x13\n    /* \"#utility.yul\":4358:4376   */\n  0x24\n  dup3\n  add\n    /* \"#utility.yul\":4351:4381   */\n  mstore\n    /* \"#utility.yul\":4417:4438   */\n  0x53656c6c696e672069732064697361626c656400000000000000000000000000\n    /* \"#utility.yul\":4397:4415   */\n  0x44\n  dup3\n  add\n    /* \"#utility.yul\":4390:4439   */\n  mstore\n    /* \"#utility.yul\":4456:4474   */\n  0x64\n  add\n    /* \"src/assets/BBD_Token.sol\":27772:27889  require(... */\n  tag_17\n    /* \"#utility.yul\":4137:4480   */\n  jump\n    /* \"src/assets/BBD_Token.sol\":27772:27889  require(... */\ntag_45:\n    /* \"src/assets/BBD_Token.sol\":28467:28676  function _beforeTokenTransfer(... */\n  pop\n  pop\n  pop\n  pop\n  pop\n  jump\t// out\n    /* \"src/assets/BBD_Token.sol\":19276:19401  function _beforeTokenTransfer(... */\ntag_50:\n  pop\n  pop\n  pop\n  jump\t// out\n    /* \"#utility.yul\":14:141   */\ntag_52:\n    /* \"#utility.yul\":75:85   */\n  0x4e487b71\n    /* \"#utility.yul\":70:73   */\n  0xe0\n    /* \"#utility.yul\":66:86   */\n  shl\n    /* \"#utility.yul\":63:64   */\n  0x00\n    /* \"#utility.yul\":56:87   */\n  mstore\n    /* \"#utility.yul\":106:110   */\n  0x41\n    /* \"#utility.yul\":103:104   */\n  0x04\n    /* \"#utility.yul\":96:111   */\n  mstore\n    /* \"#utility.yul\":130:134   */\n  0x24\n    /* \"#utility.yul\":127:128   */\n  0x00\n    /* \"#utility.yul\":120:135   */\n  revert\n    /* \"#utility.yul\":146:526   */\ntag_53:\n    /* \"#utility.yul\":225:226   */\n  0x01\n    /* \"#utility.yul\":221:233   */\n  dup2\n  dup2\n  shr\n  swap1\n    /* \"#utility.yul\":268:280   */\n  dup3\n  and\n  dup1\n    /* \"#utility.yul\":289:350   */\n  tag_61\n  jumpi\n    /* \"#utility.yul\":343:347   */\n  0x7f\n    /* \"#utility.yul\":335:341   */\n  dup3\n    /* \"#utility.yul\":331:348   */\n  and\n    /* \"#utility.yul\":321:348   */\n  swap2\n  pop\n    /* \"#utility.yul\":289:350   */\ntag_61:\n    /* \"#utility.yul\":396:398   */\n  0x20\n    /* \"#utility.yul\":388:394   */\n  dup3\n    /* \"#utility.yul\":385:399   */\n  lt\n    /* \"#utility.yul\":365:383   */\n  dup2\n    /* \"#utility.yul\":362:400   */\n  sub\n    /* \"#utility.yul\":359:520   */\n  tag_62\n  jumpi\n    /* \"#utility.yul\":442:452   */\n  0x4e487b71\n    /* \"#utility.yul\":437:440   */\n  0xe0\n    /* \"#utility.yul\":433:453   */\n  shl\n    /* \"#utility.yul\":430:431   */\n  0x00\n    /* \"#utility.yul\":423:454   */\n  mstore\n    /* \"#utility.yul\":477:481   */\n  0x22\n    /* \"#utility.yul\":474:475   */\n  0x04\n    /* \"#utility.yul\":467:482   */\n  mstore\n    /* \"#utility.yul\":505:509   */\n  0x24\n    /* \"#utility.yul\":502:503   */\n  0x00\n    /* \"#utility.yul\":495:510   */\n  revert\n    /* \"#utility.yul\":359:520   */\ntag_62:\n  pop\n    /* \"#utility.yul\":146:526   */\n  swap2\n  swap1\n  pop\n  jump\t// out\n    /* \"#utility.yul\":657:1175   */\ntag_55:\n    /* \"#utility.yul\":759:761   */\n  0x1f\n    /* \"#utility.yul\":754:757   */\n  dup3\n    /* \"#utility.yul\":751:762   */\n  gt\n    /* \"#utility.yul\":748:1169   */\n  iszero\n  tag_50\n  jumpi\n    /* \"#utility.yul\":795:800   */\n  dup1\n    /* \"#utility.yul\":792:793   */\n  0x00\n    /* \"#utility.yul\":785:801   */\n  mstore\n    /* \"#utility.yul\":839:843   */\n  0x20\n    /* \"#utility.yul\":836:837   */\n  0x00\n    /* \"#utility.yul\":826:844   */\n  keccak256\n    /* \"#utility.yul\":909:911   */\n  0x1f\n    /* \"#utility.yul\":897:907   */\n  dup5\n    /* \"#utility.yul\":893:912   */\n  add\n    /* \"#utility.yul\":890:891   */\n  0x05\n    /* \"#utility.yul\":886:913   */\n  shr\n    /* \"#utility.yul\":880:884   */\n  dup2\n    /* \"#utility.yul\":876:914   */\n  add\n    /* \"#utility.yul\":945:949   */\n  0x20\n    /* \"#utility.yul\":933:943   */\n  dup6\n    /* \"#utility.yul\":930:950   */\n  lt\n    /* \"#utility.yul\":927:974   */\n  iszero\n  tag_66\n  jumpi\n  pop\n    /* \"#utility.yul\":968:972   */\n  dup1\n    /* \"#utility.yul\":927:974   */\ntag_66:\n    /* \"#utility.yul\":1023:1025   */\n  0x1f\n    /* \"#utility.yul\":1018:1021   */\n  dup5\n    /* \"#utility.yul\":1014:1026   */\n  add\n    /* \"#utility.yul\":1011:1012   */\n  0x05\n    /* \"#utility.yul\":1007:1027   */\n  shr\n    /* \"#utility.yul\":1001:1005   */\n  dup3\n    /* \"#utility.yul\":997:1028   */\n  add\n    /* \"#utility.yul\":987:1028   */\n  swap2\n  pop\n    /* \"#utility.yul\":1078:1159   */\ntag_67:\n    /* \"#utility.yul\":1096:1098   */\n  dup2\n    /* \"#utility.yul\":1089:1094   */\n  dup2\n    /* \"#utility.yul\":1086:1099   */\n  lt\n    /* \"#utility.yul\":1078:1159   */\n  iszero\n  tag_45\n  jumpi\n    /* \"#utility.yul\":1155:1156   */\n  0x00\n    /* \"#utility.yul\":1141:1157   */\n  dup2\n  sstore\n    /* \"#utility.yul\":1122:1123   */\n  0x01\n    /* \"#utility.yul\":1111:1124   */\n  add\n    /* \"#utility.yul\":1078:1159   */\n  jump(tag_67)\n    /* \"#utility.yul\":1351:2650   */\ntag_6:\n    /* \"#utility.yul\":1471:1481   */\n  dup2\n  mload\n  sub(shl(0x40, 0x01), 0x01)\n    /* \"#utility.yul\":1493:1523   */\n  dup2\n  gt\n    /* \"#utility.yul\":1490:1546   */\n  iszero\n  tag_73\n  jumpi\n    /* \"#utility.yul\":1526:1544   */\n  tag_73\n  tag_52\n  jump\t// in\ntag_73:\n    /* \"#utility.yul\":1555:1652   */\n  tag_74\n    /* \"#utility.yul\":1645:1651   */\n  dup2\n    /* \"#utility.yul\":1605:1643   */\n  tag_75\n    /* \"#utility.yul\":1637:1641   */\n  dup5\n    /* \"#utility.yul\":1631:1642   */\n  sload\n    /* \"#utility.yul\":1605:1643   */\n  tag_53\n  jump\t// in\ntag_75:\n    /* \"#utility.yul\":1599:1603   */\n  dup5\n    /* \"#utility.yul\":1555:1652   */\n  tag_55\n  jump\t// in\ntag_74:\n    /* \"#utility.yul\":1701:1705   */\n  0x20\n    /* \"#utility.yul\":1732:1734   */\n  0x1f\n    /* \"#utility.yul\":1721:1735   */\n  dup3\n  gt\n    /* \"#utility.yul\":1749:1750   */\n  0x01\n    /* \"#utility.yul\":1744:2393   */\n  dup2\n  eq\n  tag_77\n  jumpi\n    /* \"#utility.yul\":2437:2438   */\n  0x00\n    /* \"#utility.yul\":2454:2460   */\n  dup4\n    /* \"#utility.yul\":2451:2540   */\n  iszero\n  tag_78\n  jumpi\n  pop\n    /* \"#utility.yul\":2506:2525   */\n  dup5\n  dup3\n  add\n    /* \"#utility.yul\":2500:2526   */\n  mload\n    /* \"#utility.yul\":2451:2540   */\ntag_78:\n  not(0x00)\n    /* \"#utility.yul\":1308:1309   */\n  0x03\n    /* \"#utility.yul\":1304:1315   */\n  dup6\n  swap1\n  shl\n    /* \"#utility.yul\":1300:1324   */\n  shr\n    /* \"#utility.yul\":1296:1325   */\n  not\n    /* \"#utility.yul\":1286:1326   */\n  and\n    /* \"#utility.yul\":1332:1333   */\n  0x01\n    /* \"#utility.yul\":1328:1339   */\n  dup5\n  swap1\n  shl\n    /* \"#utility.yul\":1283:1340   */\n  or\n    /* \"#utility.yul\":2553:2634   */\n  dup5\n  sstore\n    /* \"#utility.yul\":1714:2644   */\n  jump(tag_45)\n    /* \"#utility.yul\":1744:2393   */\ntag_77:\n    /* \"#utility.yul\":604:605   */\n  0x00\n    /* \"#utility.yul\":597:611   */\n  dup5\n  dup2\n  mstore\n    /* \"#utility.yul\":641:645   */\n  0x20\n    /* \"#utility.yul\":628:646   */\n  dup2\n  keccak256\n  not(0x1f)\n    /* \"#utility.yul\":1780:1800   */\n  dup6\n  and\n  swap2\n    /* \"#utility.yul\":1898:2120   */\ntag_81:\n    /* \"#utility.yul\":1912:1919   */\n  dup3\n    /* \"#utility.yul\":1909:1910   */\n  dup2\n    /* \"#utility.yul\":1906:1920   */\n  lt\n    /* \"#utility.yul\":1898:2120   */\n  iszero\n  tag_83\n  jumpi\n    /* \"#utility.yul\":1994:2013   */\n  dup8\n  dup6\n  add\n    /* \"#utility.yul\":1988:2014   */\n  mload\n    /* \"#utility.yul\":1973:2015   */\n  dup3\n  sstore\n    /* \"#utility.yul\":2101:2105   */\n  0x20\n    /* \"#utility.yul\":2086:2106   */\n  swap5\n  dup6\n  add\n  swap5\n    /* \"#utility.yul\":2054:2055   */\n  0x01\n    /* \"#utility.yul\":2042:2056   */\n  swap1\n  swap3\n  add\n  swap2\n    /* \"#utility.yul\":1928:1940   */\n  add\n    /* \"#utility.yul\":1898:2120   */\n  jump(tag_81)\ntag_83:\n    /* \"#utility.yul\":1902:1905   */\n  pop\n    /* \"#utility.yul\":2148:2154   */\n  dup5\n    /* \"#utility.yul\":2139:2146   */\n  dup3\n    /* \"#utility.yul\":2136:2155   */\n  lt\n    /* \"#utility.yul\":2133:2334   */\n  iszero\n  tag_84\n  jumpi\n    /* \"#utility.yul\":2209:2228   */\n  dup7\n  dup5\n  add\n    /* \"#utility.yul\":2203:2229   */\n  mload\n  not(0x00)\n    /* \"#utility.yul\":2292:2293   */\n  0x03\n    /* \"#utility.yul\":2288:2302   */\n  dup8\n  swap1\n  shl\n    /* \"#utility.yul\":2304:2307   */\n  0xf8\n    /* \"#utility.yul\":2284:2308   */\n  and\n    /* \"#utility.yul\":2280:2317   */\n  shr\n    /* \"#utility.yul\":2276:2318   */\n  not\n    /* \"#utility.yul\":2261:2319   */\n  and\n    /* \"#utility.yul\":2246:2320   */\n  dup2\n  sstore\n    /* \"#utility.yul\":2133:2334   */\ntag_84:\n  pop\n  pop\n  pop\n  pop\n    /* \"#utility.yul\":2380:2381   */\n  0x01\n    /* \"#utility.yul\":2364:2378   */\n  swap1\n  dup2\n  shl\n    /* \"#utility.yul\":2360:2382   */\n  add\n    /* \"#utility.yul\":2347:2383   */\n  swap1\n  sstore\n  pop\n    /* \"#utility.yul\":1351:2650   */\n  jump\t// out\n    /* \"#utility.yul\":2655:2782   */\ntag_57:\n    /* \"#utility.yul\":2716:2726   */\n  0x4e487b71\n    /* \"#utility.yul\":2711:2714   */\n  0xe0\n    /* \"#utility.yul\":2707:2727   */\n  shl\n    /* \"#utility.yul\":2704:2705   */\n  0x00\n    /* \"#utility.yul\":2697:2728   */\n  mstore\n    /* \"#utility.yul\":2747:2751   */\n  0x11\n    /* \"#utility.yul\":2744:2745   */\n  0x04\n    /* \"#utility.yul\":2737:2752   */\n  mstore\n    /* \"#utility.yul\":2771:2775   */\n  0x24\n    /* \"#utility.yul\":2768:2769   */\n  0x00\n    /* \"#utility.yul\":2761:2776   */\n  revert\n    /* \"#utility.yul\":2787:2915   */\ntag_13:\n    /* \"#utility.yul\":2854:2863   */\n  dup2\n  dup2\n  sub\n    /* \"#utility.yul\":2875:2886   */\n  dup2\n  dup2\n  gt\n    /* \"#utility.yul\":2872:2909   */\n  iszero\n  tag_88\n  jumpi\n    /* \"#utility.yul\":2889:2907   */\n  tag_88\n  tag_57\n  jump\t// in\ntag_88:\n    /* \"#utility.yul\":2787:2915   */\n  swap3\n  swap2\n  pop\n  pop\n  jump\t// out\n    /* \"#utility.yul\":3128:3253   */\ntag_26:\n    /* \"#utility.yul\":3193:3202   */\n  dup1\n  dup3\n  add\n    /* \"#utility.yul\":3214:3224   */\n  dup1\n  dup3\n  gt\n    /* \"#utility.yul\":3211:3247   */\n  iszero\n  tag_88\n  jumpi\n    /* \"#utility.yul\":3227:3245   */\n  tag_88\n  tag_57\n  jump\t// in\n    /* \"#utility.yul\":4137:4480   */\ntag_58:\n    /* \"src/assets/BBD_Token.sol\":22875:28679  contract BBDToken is ERC20 {... */\n  mload(0x80)\n  codecopy(0x00, dataOffset(sub_0), dataSize(sub_0))\n  0x00\n  assignImmutable(\"0x6d7e9d25f7937a025d098651c32892e1256b8f7bcedf36aadd28cccf92a5a08d\")\n  return(0x00, dataSize(sub_0))\nstop\n\nsub_0: assembly {\n        /* \"src/assets/BBD_Token.sol\":22875:28679  contract BBDToken is ERC20 {... */\n      mstore(0x40, 0x80)\n      callvalue\n      dup1\n      iszero\n      tag_1\n      jumpi\n      0x00\n      dup1\n      revert\n    tag_1:\n      pop\n      jumpi(tag_2, lt(calldatasize, 0x04))\n      shr(0xe0, calldataload(0x00))\n      dup1\n      0x902d55a5\n      gt\n      tag_35\n      jumpi\n      dup1\n      0xce7842f5\n      gt\n      tag_36\n      jumpi\n      dup1\n      0xe8be9a44\n      gt\n      tag_37\n      jumpi\n      dup1\n      0xe8be9a44\n      eq\n      tag_31\n      jumpi\n      dup1\n      0xf771cb65\n      eq\n      tag_32\n      jumpi\n      dup1\n      0xf968f493\n      eq\n      tag_33\n      jumpi\n      dup1\n      0xfdff9b4d\n      eq\n      tag_34\n      jumpi\n      0x00\n      dup1\n      revert\n    tag_37:\n      dup1\n      0xce7842f5\n      eq\n      tag_27\n      jumpi\n      dup1\n      0xd2f9efab\n      eq\n      tag_28\n      jumpi\n      dup1\n      0xdd62ed3e\n      eq\n      tag_29\n      jumpi\n      dup1\n      0xe6fd48bc\n      eq\n      tag_30\n      jumpi\n      0x00\n      dup1\n      revert\n    tag_36:\n      dup1\n      0xa9059cbb\n      gt\n      tag_38\n      jumpi\n      dup1\n      0xa9059cbb\n      eq\n      tag_23\n      jumpi\n      dup1\n      0xb16d78cf\n      eq\n      tag_24\n      jumpi\n      dup1\n      0xb361412a\n      eq\n      tag_25\n      jumpi\n      dup1\n      0xbe381b85\n      eq\n      tag_26\n      jumpi\n      0x00\n      dup1\n      revert\n    tag_38:\n      dup1\n      0x902d55a5\n      eq\n      tag_19\n      jumpi\n      dup1\n      0x95d89b41\n      eq\n      tag_20\n      jumpi\n      dup1\n      0xa5e90eee\n      eq\n      tag_21\n      jumpi\n      dup1\n      0xa779d080\n      eq\n      tag_22\n      jumpi\n      0x00\n      dup1\n      revert\n    tag_35:\n      dup1\n      0x3c11e12a\n      gt\n      tag_39\n      jumpi\n      dup1\n      0x8310a74d\n      gt\n      tag_40\n      jumpi\n      dup1\n      0x8310a74d\n      eq\n      tag_15\n      jumpi\n      dup1\n      0x8342083a\n      eq\n      tag_16\n      jumpi\n      dup1\n      0x8ddedb33\n      eq\n      tag_17\n      jumpi\n      dup1\n      0x8ed2fe91\n      eq\n      tag_18\n      jumpi\n      0x00\n      dup1\n      revert\n    tag_40:\n      dup1\n      0x3c11e12a\n      eq\n      tag_11\n      jumpi\n      dup1\n      0x67859b6e\n      eq\n      tag_12\n      jumpi\n      dup1\n      0x70a08231\n      eq\n      tag_13\n      jumpi\n      dup1\n      0x7cdf6fb1\n      eq\n      tag_14\n      jumpi\n      0x00\n      dup1\n      revert\n    tag_39:\n      dup1\n      0x23b872dd\n      gt\n      tag_41\n      jumpi\n      dup1\n      0x23b872dd\n      eq\n      tag_7\n      jumpi\n      dup1\n      0x2be8781f\n      eq\n      tag_8\n      jumpi\n      dup1\n      0x2d3e474a\n      eq\n      tag_9\n      jumpi\n      dup1\n      0x313ce567\n      eq\n      tag_10\n      jumpi\n      0x00\n      dup1\n      revert\n    tag_41:\n      dup1\n      0x042249bb\n      eq\n      tag_3\n      jumpi\n      dup1\n      0x06fdde03\n      eq\n      tag_4\n      jumpi\n      dup1\n      0x095ea7b3\n      eq\n      tag_5\n      jumpi\n      dup1\n      0x18160ddd\n      eq\n      tag_6\n      jumpi\n    tag_2:\n      0x00\n      dup1\n      revert\n        /* \"src/assets/BBD_Token.sol\":23478:23551  address public stakingReward = 0xcc234a1d3e32148461b7eaCb5a8bf4D0C4b6Be74 */\n    tag_3:\n      sload(0x0a)\n      tag_42\n      swap1\n      sub(shl(0xa0, 0x01), 0x01)\n      and\n      dup2\n      jump\n    tag_42:\n      mload(0x40)\n      sub(shl(0xa0, 0x01), 0x01)\n        /* \"#utility.yul\":178:210   */\n      swap1\n      swap2\n      and\n        /* \"#utility.yul\":160:211   */\n      dup2\n      mstore\n        /* \"#utility.yul\":148:150   */\n      0x20\n        /* \"#utility.yul\":133:151   */\n      add\n        /* \"src/assets/BBD_Token.sol\":23478:23551  address public stakingReward = 0xcc234a1d3e32148461b7eaCb5a8bf4D0C4b6Be74 */\n    tag_44:\n      mload(0x40)\n      dup1\n      swap2\n      sub\n      swap1\n      return\n        /* \"src/assets/BBD_Token.sol\":13076:13167  function name() public view virtual returns (string memory) {... */\n    tag_4:\n      tag_46\n      tag_47\n      jump\t// in\n    tag_46:\n      mload(0x40)\n      tag_44\n      swap2\n      swap1\n      tag_49\n      jump\t// in\n        /* \"src/assets/BBD_Token.sol\":15394:15609  function approve(... */\n    tag_5:\n      tag_50\n      tag_51\n      calldatasize\n      0x04\n      tag_52\n      jump\t// in\n    tag_51:\n      tag_53\n      jump\t// in\n    tag_50:\n      mload(0x40)\n        /* \"#utility.yul\":1293:1307   */\n      swap1\n      iszero\n        /* \"#utility.yul\":1286:1308   */\n      iszero\n        /* \"#utility.yul\":1268:1309   */\n      dup2\n      mstore\n        /* \"#utility.yul\":1256:1258   */\n      0x20\n        /* \"#utility.yul\":1241:1259   */\n      add\n        /* \"src/assets/BBD_Token.sol\":15394:15609  function approve(... */\n      tag_44\n        /* \"#utility.yul\":1128:1315   */\n      jump\n        /* \"src/assets/BBD_Token.sol\":14178:14277  function totalSupply() public view virtual returns (uint256) {... */\n    tag_6:\n        /* \"src/assets/BBD_Token.sol\":14257:14269  _totalSupply */\n      sload(0x02)\n        /* \"src/assets/BBD_Token.sol\":14178:14277  function totalSupply() public view virtual returns (uint256) {... */\n    tag_56:\n      mload(0x40)\n        /* \"#utility.yul\":1466:1491   */\n      swap1\n      dup2\n      mstore\n        /* \"#utility.yul\":1454:1456   */\n      0x20\n        /* \"#utility.yul\":1439:1457   */\n      add\n        /* \"src/assets/BBD_Token.sol\":14178:14277  function totalSupply() public view virtual returns (uint256) {... */\n      tag_44\n        /* \"#utility.yul\":1320:1497   */\n      jump\n        /* \"src/assets/BBD_Token.sol\":16219:16502  function transferFrom(... */\n    tag_7:\n      tag_50\n      tag_61\n      calldatasize\n      0x04\n      tag_62\n      jump\t// in\n    tag_61:\n      tag_63\n      jump\t// in\n        /* \"src/assets/BBD_Token.sol\":26052:26573  function updateDistributionAddress(... */\n    tag_8:\n      tag_65\n      tag_66\n      calldatasize\n      0x04\n      tag_67\n      jump\t// in\n    tag_66:\n      tag_68\n      jump\t// in\n    tag_65:\n      stop\n        /* \"src/assets/BBD_Token.sol\":23402:23471  address public marketing = 0x03499C18F7265BE9AFDA16504A34CD1892F278AE */\n    tag_9:\n      sload(0x09)\n      tag_42\n      swap1\n      sub(shl(0xa0, 0x01), 0x01)\n      and\n      dup2\n      jump\n        /* \"src/assets/BBD_Token.sol\":14029:14113  function decimals() public view virtual returns (uint8) {... */\n    tag_10:\n      mload(0x40)\n        /* \"src/assets/BBD_Token.sol\":14103:14105  18 */\n      0x12\n        /* \"#utility.yul\":2328:2364   */\n      dup2\n      mstore\n        /* \"#utility.yul\":2316:2318   */\n      0x20\n        /* \"#utility.yul\":2301:2319   */\n      add\n        /* \"src/assets/BBD_Token.sol\":14029:14113  function decimals() public view virtual returns (uint8) {... */\n      tag_44\n        /* \"#utility.yul\":2186:2370   */\n      jump\n        /* \"src/assets/BBD_Token.sol\":23819:23856  mapping(address => bool) public isDex */\n    tag_11:\n      tag_50\n      tag_77\n      calldatasize\n      0x04\n      tag_78\n      jump\t// in\n    tag_77:\n      mstore(0x20, 0x0e)\n      0x00\n      swap1\n      dup2\n      mstore\n      0x40\n      swap1\n      keccak256\n      sload\n      0xff\n      and\n      dup2\n      jump\n        /* \"src/assets/BBD_Token.sol\":23240:23316  address public liquidityListing = 0x7Ec13697D98925bA1dC2BcC705c071bd168B10C2 */\n    tag_12:\n      sload(0x07)\n      tag_42\n      swap1\n      sub(shl(0xa0, 0x01), 0x01)\n      and\n      dup2\n      jump\n        /* \"src/assets/BBD_Token.sol\":14340:14458  function balanceOf(address account) public view virtual returns (uint256) {... */\n    tag_13:\n      tag_56\n      tag_85\n      calldatasize\n      0x04\n      tag_78\n      jump\t// in\n    tag_85:\n      sub(shl(0xa0, 0x01), 0x01)\n        /* \"src/assets/BBD_Token.sol\":14432:14450  _balances[account] */\n      and\n        /* \"src/assets/BBD_Token.sol\":14405:14412  uint256 */\n      0x00\n        /* \"src/assets/BBD_Token.sol\":14432:14450  _balances[account] */\n      swap1\n      dup2\n      mstore\n      0x20\n      dup2\n      swap1\n      mstore\n      0x40\n      swap1\n      keccak256\n      sload\n      swap1\n        /* \"src/assets/BBD_Token.sol\":14340:14458  function balanceOf(address account) public view virtual returns (uint256) {... */\n      jump\n        /* \"src/assets/BBD_Token.sol\":28268:28386  function setDexAddress(address dexAddress, bool status) external isOwner {... */\n    tag_14:\n      tag_65\n      tag_89\n      calldatasize\n      0x04\n      tag_90\n      jump\t// in\n    tag_89:\n      tag_91\n      jump\t// in\n        /* \"src/assets/BBD_Token.sol\":23166:23196  uint256 public lastUnlockMonth */\n    tag_15:\n      tag_56\n      sload(0x05)\n      dup2\n      jump\n        /* \"src/assets/BBD_Token.sol\":22976:23036  uint256 public constant PUBLIC_SUPPLY = 1_000_000_000 * 1e18 */\n    tag_16:\n      tag_56\n      shl(0x1b, 0x6765c793fa10079d)\n      dup2\n      jump\n        /* \"src/assets/BBD_Token.sol\":28048:28149  function setBuyingEnabled(bool _enabled) external isOwner {... */\n    tag_17:\n      tag_65\n      tag_99\n      calldatasize\n      0x04\n      tag_100\n      jump\t// in\n    tag_99:\n      tag_101\n      jump\t// in\n        /* \"src/assets/BBD_Token.sol\":23717:23749  bool public buyingEnabled = true */\n    tag_18:\n      sload(0x0c)\n      tag_50\n      swap1\n      shl(0xa0, 0x01)\n      swap1\n      div\n      0xff\n      and\n      dup2\n      jump\n        /* \"src/assets/BBD_Token.sol\":22909:22969  uint256 public constant TOTAL_SUPPLY = 10_000_000_000 * 1e18 */\n    tag_19:\n      tag_56\n        /* \"src/assets/BBD_Token.sol\":22948:22969  10_000_000_000 * 1e18 */\n      0x204fce5e3e25026110000000\n        /* \"src/assets/BBD_Token.sol\":22909:22969  uint256 public constant TOTAL_SUPPLY = 10_000_000_000 * 1e18 */\n      dup2\n      jump\n        /* \"src/assets/BBD_Token.sol\":13286:13381  function symbol() public view virtual returns (string memory) {... */\n    tag_20:\n      tag_46\n      tag_109\n      jump\t// in\n        /* \"src/assets/BBD_Token.sol\":27928:28040  function setManager(address manager, bool status) external isOwner {... */\n    tag_21:\n      tag_65\n      tag_112\n      calldatasize\n      0x04\n      tag_90\n      jump\t// in\n    tag_112:\n      tag_113\n      jump\t// in\n        /* \"src/assets/BBD_Token.sol\":23203:23231  uint256 public totalUnlocked */\n    tag_22:\n      tag_56\n      sload(0x06)\n      dup2\n      jump\n        /* \"src/assets/BBD_Token.sol\":14663:14845  function transfer(address to, uint256 value) public virtual returns (bool) {... */\n    tag_23:\n      tag_50\n      tag_118\n      calldatasize\n      0x04\n      tag_52\n      jump\t// in\n    tag_118:\n      tag_119\n      jump\t// in\n        /* \"src/assets/BBD_Token.sol\":28157:28260  function setSellingEnabled(bool _enabled) external isOwner {... */\n    tag_24:\n      tag_65\n      tag_122\n      calldatasize\n      0x04\n      tag_100\n      jump\t// in\n    tag_122:\n      tag_123\n      jump\t// in\n        /* \"src/assets/BBD_Token.sol\":23638:23708  address public awardBonus = 0x7E23E2781a1Da5DACe87b4f0e7bf68191263Fc32 */\n    tag_25:\n      sload(0x0c)\n      tag_42\n      swap1\n      sub(shl(0xa0, 0x01), 0x01)\n      and\n      dup2\n      jump\n        /* \"src/assets/BBD_Token.sol\":26581:27285  function getNextUnlockInfo()... */\n    tag_26:\n      tag_127\n      tag_128\n      jump\t// in\n    tag_127:\n      0x40\n      dup1\n      mload\n        /* \"#utility.yul\":3377:3402   */\n      swap4\n      dup5\n      mstore\n        /* \"#utility.yul\":3433:3435   */\n      0x20\n        /* \"#utility.yul\":3418:3436   */\n      dup5\n      add\n        /* \"#utility.yul\":3411:3445   */\n      swap3\n      swap1\n      swap3\n      mstore\n        /* \"#utility.yul\":3461:3479   */\n      swap1\n      dup3\n      add\n        /* \"#utility.yul\":3454:3488   */\n      mstore\n        /* \"#utility.yul\":3365:3367   */\n      0x60\n        /* \"#utility.yul\":3350:3368   */\n      add\n        /* \"src/assets/BBD_Token.sol\":26581:27285  function getNextUnlockInfo()... */\n      tag_44\n        /* \"#utility.yul\":3175:3494   */\n      jump\n        /* \"src/assets/BBD_Token.sol\":23558:23631  address public referralBonus = 0xCeEA0E87B553bc445C5Eb2242b5F28Cd81B4ACaA */\n    tag_27:\n      sload(0x0b)\n      tag_42\n      swap1\n      sub(shl(0xa0, 0x01), 0x01)\n      and\n      dup2\n      jump\n        /* \"src/assets/BBD_Token.sol\":23323:23395  address public gameTreasury = 0x8de119e98707Ac240abA2cB77E83B29882A34357 */\n    tag_28:\n      sload(0x08)\n      tag_42\n      swap1\n      sub(shl(0xa0, 0x01), 0x01)\n      and\n      dup2\n      jump\n        /* \"src/assets/BBD_Token.sol\":14908:15075  function allowance(... */\n    tag_29:\n      tag_56\n      tag_138\n      calldatasize\n      0x04\n      tag_139\n      jump\t// in\n    tag_138:\n      sub(shl(0xa0, 0x01), 0x01)\n        /* \"src/assets/BBD_Token.sol\":15040:15058  _allowances[owner] */\n      swap2\n      dup3\n      and\n        /* \"src/assets/BBD_Token.sol\":15013:15020  uint256 */\n      0x00\n        /* \"src/assets/BBD_Token.sol\":15040:15058  _allowances[owner] */\n      swap1\n      dup2\n      mstore\n        /* \"src/assets/BBD_Token.sol\":15040:15051  _allowances */\n      0x01\n        /* \"src/assets/BBD_Token.sol\":15040:15058  _allowances[owner] */\n      0x20\n      swap1\n      dup2\n      mstore\n      0x40\n      dup1\n      dup4\n      keccak256\n        /* \"src/assets/BBD_Token.sol\":15040:15067  _allowances[owner][spender] */\n      swap4\n      swap1\n      swap5\n      and\n      dup3\n      mstore\n      swap2\n      swap1\n      swap2\n      mstore\n      keccak256\n      sload\n      swap1\n        /* \"src/assets/BBD_Token.sol\":14908:15075  function allowance(... */\n      jump\n        /* \"src/assets/BBD_Token.sol\":23120:23159  uint256 public immutable startTimestamp */\n    tag_30:\n      tag_56\n      immutable(\"0x6d7e9d25f7937a025d098651c32892e1256b8f7bcedf36aadd28cccf92a5a08d\")\n      dup2\n      jump\n        /* \"src/assets/BBD_Token.sol\":23043:23111  uint256 public constant LOCKED_SUPPLY = TOTAL_SUPPLY - PUBLIC_SUPPLY */\n    tag_31:\n      tag_56\n      tag_146\n      jump\t// in\n        /* \"src/assets/BBD_Token.sol\":23756:23789  bool public sellingEnabled = true */\n    tag_32:\n      sload(0x0c)\n      tag_50\n      swap1\n      shl(0xa8, 0x01)\n      swap1\n      div\n      0xff\n      and\n      dup2\n      jump\n        /* \"src/assets/BBD_Token.sol\":24447:26044  function unlockTokens() external isOwner {... */\n    tag_33:\n      tag_65\n      tag_152\n      jump\t// in\n        /* \"src/assets/BBD_Token.sol\":23863:23903  mapping(address => bool) public managers */\n    tag_34:\n      tag_50\n      tag_154\n      calldatasize\n      0x04\n      tag_78\n      jump\t// in\n    tag_154:\n      mstore(0x20, 0x0f)\n      0x00\n      swap1\n      dup2\n      mstore\n      0x40\n      swap1\n      keccak256\n      sload\n      0xff\n      and\n      dup2\n      jump\n        /* \"src/assets/BBD_Token.sol\":13076:13167  function name() public view virtual returns (string memory) {... */\n    tag_47:\n        /* \"src/assets/BBD_Token.sol\":13121:13134  string memory */\n      0x60\n        /* \"src/assets/BBD_Token.sol\":13154:13159  _name */\n      0x03\n        /* \"src/assets/BBD_Token.sol\":13147:13159  return _name */\n      dup1\n      sload\n      tag_158\n      swap1\n      tag_159\n      jump\t// in\n    tag_158:\n      dup1\n      0x1f\n      add\n      0x20\n      dup1\n      swap2\n      div\n      mul\n      0x20\n      add\n      mload(0x40)\n      swap1\n      dup2\n      add\n      0x40\n      mstore\n      dup1\n      swap3\n      swap2\n      swap1\n      dup2\n      dup2\n      mstore\n      0x20\n      add\n      dup3\n      dup1\n      sload\n      tag_160\n      swap1\n      tag_159\n      jump\t// in\n    tag_160:\n      dup1\n      iszero\n      tag_161\n      jumpi\n      dup1\n      0x1f\n      lt\n      tag_162\n      jumpi\n      0x0100\n      dup1\n      dup4\n      sload\n      div\n      mul\n      dup4\n      mstore\n      swap2\n      0x20\n      add\n      swap2\n      jump(tag_161)\n    tag_162:\n      dup3\n      add\n      swap2\n      swap1\n      0x00\n      mstore\n      keccak256(0x00, 0x20)\n      swap1\n    tag_163:\n      dup2\n      sload\n      dup2\n      mstore\n      swap1\n      0x01\n      add\n      swap1\n      0x20\n      add\n      dup1\n      dup4\n      gt\n      tag_163\n      jumpi\n      dup3\n      swap1\n      sub\n      0x1f\n      and\n      dup3\n      add\n      swap2\n    tag_161:\n      pop\n      pop\n      pop\n      pop\n      pop\n      swap1\n      pop\n        /* \"src/assets/BBD_Token.sol\":13076:13167  function name() public view virtual returns (string memory) {... */\n      swap1\n      jump\t// out\n        /* \"src/assets/BBD_Token.sol\":15394:15609  function approve(... */\n    tag_53:\n        /* \"src/assets/BBD_Token.sol\":15492:15496  bool */\n      0x00\n        /* \"src/assets/BBD_Token.sol\":4367:4377  msg.sender */\n      caller\n        /* \"src/assets/BBD_Token.sol\":15548:15579  _approve(owner, spender, value) */\n      tag_167\n        /* \"src/assets/BBD_Token.sol\":4367:4377  msg.sender */\n      dup2\n        /* \"src/assets/BBD_Token.sol\":15564:15571  spender */\n      dup6\n        /* \"src/assets/BBD_Token.sol\":15573:15578  value */\n      dup6\n        /* \"src/assets/BBD_Token.sol\":15548:15556  _approve */\n      tag_168\n        /* \"src/assets/BBD_Token.sol\":15548:15579  _approve(owner, spender, value) */\n      jump\t// in\n    tag_167:\n        /* \"src/assets/BBD_Token.sol\":15597:15601  true */\n      0x01\n        /* \"src/assets/BBD_Token.sol\":15590:15601  return true */\n      swap2\n      pop\n      pop\n        /* \"src/assets/BBD_Token.sol\":15394:15609  function approve(... */\n    tag_164:\n      swap3\n      swap2\n      pop\n      pop\n      jump\t// out\n        /* \"src/assets/BBD_Token.sol\":16219:16502  function transferFrom(... */\n    tag_63:\n        /* \"src/assets/BBD_Token.sol\":16340:16344  bool */\n      0x00\n        /* \"src/assets/BBD_Token.sol\":4367:4377  msg.sender */\n      caller\n        /* \"src/assets/BBD_Token.sol\":16398:16435  _spendAllowance(from, spender, value) */\n      tag_172\n        /* \"src/assets/BBD_Token.sol\":16414:16418  from */\n      dup6\n        /* \"src/assets/BBD_Token.sol\":4367:4377  msg.sender */\n      dup3\n        /* \"src/assets/BBD_Token.sol\":16429:16434  value */\n      dup6\n        /* \"src/assets/BBD_Token.sol\":16398:16413  _spendAllowance */\n      tag_173\n        /* \"src/assets/BBD_Token.sol\":16398:16435  _spendAllowance(from, spender, value) */\n      jump\t// in\n    tag_172:\n        /* \"src/assets/BBD_Token.sol\":16446:16472  _transfer(from, to, value) */\n      tag_174\n        /* \"src/assets/BBD_Token.sol\":16456:16460  from */\n      dup6\n        /* \"src/assets/BBD_Token.sol\":16462:16464  to */\n      dup6\n        /* \"src/assets/BBD_Token.sol\":16466:16471  value */\n      dup6\n        /* \"src/assets/BBD_Token.sol\":16446:16455  _transfer */\n      tag_175\n        /* \"src/assets/BBD_Token.sol\":16446:16472  _transfer(from, to, value) */\n      jump\t// in\n    tag_174:\n      pop\n        /* \"src/assets/BBD_Token.sol\":16490:16494  true */\n      0x01\n      swap5\n        /* \"src/assets/BBD_Token.sol\":16219:16502  function transferFrom(... */\n      swap4\n      pop\n      pop\n      pop\n      pop\n      jump\t// out\n        /* \"src/assets/BBD_Token.sol\":26052:26573  function updateDistributionAddress(... */\n    tag_68:\n        /* \"src/assets/BBD_Token.sol\":24076:24082  _owner */\n      and(sub(shl(0xa0, 0x01), 0x01), sload(0x0d))\n        /* \"src/assets/BBD_Token.sol\":24086:24096  msg.sender */\n      caller\n        /* \"src/assets/BBD_Token.sol\":24076:24096  _owner == msg.sender */\n      eq\n        /* \"src/assets/BBD_Token.sol\":24068:24113  require(_owner == msg.sender, \"Not allowed!\") */\n      tag_177\n      jumpi\n      mload(0x40)\n      shl(0xe5, 0x461bcd)\n      dup2\n      mstore\n      0x04\n      add\n      tag_178\n      swap1\n      tag_179\n      jump\t// in\n    tag_178:\n      mload(0x40)\n      dup1\n      swap2\n      sub\n      swap1\n      revert\n    tag_177:\n        /* \"src/assets/BBD_Token.sol\":26192:26193  1 */\n      0x01\n        /* \"src/assets/BBD_Token.sol\":26183:26188  index */\n      dup3\n        /* \"src/assets/BBD_Token.sol\":26183:26193  index >= 1 */\n      lt\n      iszero\n        /* \"src/assets/BBD_Token.sol\":26183:26207  index >= 1 && index <= 6 */\n      dup1\n      iszero\n      tag_181\n      jumpi\n      pop\n        /* \"src/assets/BBD_Token.sol\":26206:26207  6 */\n      0x06\n        /* \"src/assets/BBD_Token.sol\":26197:26202  index */\n      dup3\n        /* \"src/assets/BBD_Token.sol\":26197:26207  index <= 6 */\n      gt\n      iszero\n        /* \"src/assets/BBD_Token.sol\":26183:26207  index >= 1 && index <= 6 */\n    tag_181:\n        /* \"src/assets/BBD_Token.sol\":26175:26225  require(index >= 1 && index <= 6, \"Invalid index\") */\n      tag_182\n      jumpi\n      mload(0x40)\n      shl(0xe5, 0x461bcd)\n      dup2\n      mstore\n        /* \"#utility.yul\":4692:4694   */\n      0x20\n        /* \"src/assets/BBD_Token.sol\":26175:26225  require(index >= 1 && index <= 6, \"Invalid index\") */\n      0x04\n      dup3\n      add\n        /* \"#utility.yul\":4674:4695   */\n      mstore\n        /* \"#utility.yul\":4731:4733   */\n      0x0d\n        /* \"#utility.yul\":4711:4729   */\n      0x24\n      dup3\n      add\n        /* \"#utility.yul\":4704:4734   */\n      mstore\n      shl(0x9b, 0x092dcecc2d8d2c840d2dcc8caf)\n        /* \"#utility.yul\":4750:4768   */\n      0x44\n      dup3\n      add\n        /* \"#utility.yul\":4743:4786   */\n      mstore\n        /* \"#utility.yul\":4803:4821   */\n      0x64\n      add\n        /* \"src/assets/BBD_Token.sol\":26175:26225  require(index >= 1 && index <= 6, \"Invalid index\") */\n      tag_178\n        /* \"#utility.yul\":4490:4827   */\n      jump\n        /* \"src/assets/BBD_Token.sol\":26175:26225  require(index >= 1 && index <= 6, \"Invalid index\") */\n    tag_182:\n        /* \"src/assets/BBD_Token.sol\":26242:26247  index */\n      dup2\n        /* \"src/assets/BBD_Token.sol\":26251:26252  1 */\n      0x01\n        /* \"src/assets/BBD_Token.sol\":26242:26252  index == 1 */\n      sub\n        /* \"src/assets/BBD_Token.sol\":26238:26565  if (index == 1) liquidityListing = newAddress;... */\n      tag_185\n      jumpi\n        /* \"src/assets/BBD_Token.sol\":26254:26270  liquidityListing */\n      0x07\n        /* \"src/assets/BBD_Token.sol\":26254:26283  liquidityListing = newAddress */\n      dup1\n      sload\n      not(sub(shl(0xa0, 0x01), 0x01))\n      and\n      sub(shl(0xa0, 0x01), 0x01)\n      dup4\n      and\n      or\n      swap1\n      sstore\n        /* \"src/assets/BBD_Token.sol\":26052:26573  function updateDistributionAddress(... */\n      pop\n      pop\n      jump\t// out\n        /* \"src/assets/BBD_Token.sol\":26238:26565  if (index == 1) liquidityListing = newAddress;... */\n    tag_185:\n        /* \"src/assets/BBD_Token.sol\":26303:26308  index */\n      dup2\n        /* \"src/assets/BBD_Token.sol\":26312:26313  2 */\n      0x02\n        /* \"src/assets/BBD_Token.sol\":26303:26313  index == 2 */\n      sub\n        /* \"src/assets/BBD_Token.sol\":26299:26565  if (index == 2) gameTreasury = newAddress;... */\n      tag_187\n      jumpi\n        /* \"src/assets/BBD_Token.sol\":26315:26327  gameTreasury */\n      0x08\n        /* \"src/assets/BBD_Token.sol\":26315:26340  gameTreasury = newAddress */\n      dup1\n      sload\n      not(sub(shl(0xa0, 0x01), 0x01))\n      and\n      sub(shl(0xa0, 0x01), 0x01)\n      dup4\n      and\n      or\n      swap1\n      sstore\n        /* \"src/assets/BBD_Token.sol\":26052:26573  function updateDistributionAddress(... */\n      pop\n      pop\n      jump\t// out\n        /* \"src/assets/BBD_Token.sol\":26299:26565  if (index == 2) gameTreasury = newAddress;... */\n    tag_187:\n        /* \"src/assets/BBD_Token.sol\":26360:26365  index */\n      dup2\n        /* \"src/assets/BBD_Token.sol\":26369:26370  3 */\n      0x03\n        /* \"src/assets/BBD_Token.sol\":26360:26370  index == 3 */\n      sub\n        /* \"src/assets/BBD_Token.sol\":26356:26565  if (index == 3) marketing = newAddress;... */\n      tag_189\n      jumpi\n        /* \"src/assets/BBD_Token.sol\":26372:26381  marketing */\n      0x09\n        /* \"src/assets/BBD_Token.sol\":26372:26394  marketing = newAddress */\n      dup1\n      sload\n      not(sub(shl(0xa0, 0x01), 0x01))\n      and\n      sub(shl(0xa0, 0x01), 0x01)\n      dup4\n      and\n      or\n      swap1\n      sstore\n        /* \"src/assets/BBD_Token.sol\":26052:26573  function updateDistributionAddress(... */\n      pop\n      pop\n      jump\t// out\n        /* \"src/assets/BBD_Token.sol\":26356:26565  if (index == 3) marketing = newAddress;... */\n    tag_189:\n        /* \"src/assets/BBD_Token.sol\":26414:26419  index */\n      dup2\n        /* \"src/assets/BBD_Token.sol\":26423:26424  4 */\n      0x04\n        /* \"src/assets/BBD_Token.sol\":26414:26424  index == 4 */\n      sub\n        /* \"src/assets/BBD_Token.sol\":26410:26565  if (index == 4) stakingReward = newAddress;... */\n      tag_191\n      jumpi\n        /* \"src/assets/BBD_Token.sol\":26426:26439  stakingReward */\n      0x0a\n        /* \"src/assets/BBD_Token.sol\":26426:26452  stakingReward = newAddress */\n      dup1\n      sload\n      not(sub(shl(0xa0, 0x01), 0x01))\n      and\n      sub(shl(0xa0, 0x01), 0x01)\n      dup4\n      and\n      or\n      swap1\n      sstore\n        /* \"src/assets/BBD_Token.sol\":26052:26573  function updateDistributionAddress(... */\n      pop\n      pop\n      jump\t// out\n        /* \"src/assets/BBD_Token.sol\":26410:26565  if (index == 4) stakingReward = newAddress;... */\n    tag_191:\n        /* \"src/assets/BBD_Token.sol\":26472:26477  index */\n      dup2\n        /* \"src/assets/BBD_Token.sol\":26481:26482  5 */\n      0x05\n        /* \"src/assets/BBD_Token.sol\":26472:26482  index == 5 */\n      sub\n        /* \"src/assets/BBD_Token.sol\":26468:26565  if (index == 5) referralBonus = newAddress;... */\n      tag_193\n      jumpi\n        /* \"src/assets/BBD_Token.sol\":26484:26497  referralBonus */\n      0x0b\n        /* \"src/assets/BBD_Token.sol\":26484:26510  referralBonus = newAddress */\n      dup1\n      sload\n      not(sub(shl(0xa0, 0x01), 0x01))\n      and\n      sub(shl(0xa0, 0x01), 0x01)\n      dup4\n      and\n      or\n      swap1\n      sstore\n        /* \"src/assets/BBD_Token.sol\":26052:26573  function updateDistributionAddress(... */\n      pop\n      pop\n      jump\t// out\n        /* \"src/assets/BBD_Token.sol\":26468:26565  if (index == 5) referralBonus = newAddress;... */\n    tag_193:\n        /* \"src/assets/BBD_Token.sol\":26530:26535  index */\n      dup2\n        /* \"src/assets/BBD_Token.sol\":26539:26540  6 */\n      0x06\n        /* \"src/assets/BBD_Token.sol\":26530:26540  index == 6 */\n      sub\n        /* \"src/assets/BBD_Token.sol\":26526:26565  if (index == 6) awardBonus = newAddress */\n      tag_195\n      jumpi\n        /* \"src/assets/BBD_Token.sol\":26542:26552  awardBonus */\n      0x0c\n        /* \"src/assets/BBD_Token.sol\":26542:26565  awardBonus = newAddress */\n      dup1\n      sload\n      not(sub(shl(0xa0, 0x01), 0x01))\n      and\n      sub(shl(0xa0, 0x01), 0x01)\n      dup4\n      and\n      or\n      swap1\n      sstore\n        /* \"src/assets/BBD_Token.sol\":26526:26565  if (index == 6) awardBonus = newAddress */\n    tag_195:\n        /* \"src/assets/BBD_Token.sol\":26052:26573  function updateDistributionAddress(... */\n      pop\n      pop\n      jump\t// out\n        /* \"src/assets/BBD_Token.sol\":28268:28386  function setDexAddress(address dexAddress, bool status) external isOwner {... */\n    tag_91:\n        /* \"src/assets/BBD_Token.sol\":24076:24082  _owner */\n      and(sub(shl(0xa0, 0x01), 0x01), sload(0x0d))\n        /* \"src/assets/BBD_Token.sol\":24086:24096  msg.sender */\n      caller\n        /* \"src/assets/BBD_Token.sol\":24076:24096  _owner == msg.sender */\n      eq\n        /* \"src/assets/BBD_Token.sol\":24068:24113  require(_owner == msg.sender, \"Not allowed!\") */\n      tag_199\n      jumpi\n      mload(0x40)\n      shl(0xe5, 0x461bcd)\n      dup2\n      mstore\n      0x04\n      add\n      tag_178\n      swap1\n      tag_179\n      jump\t// in\n    tag_199:\n      sub(shl(0xa0, 0x01), 0x01)\n        /* \"src/assets/BBD_Token.sol\":28352:28369  isDex[dexAddress] */\n      swap2\n      swap1\n      swap2\n      and\n      0x00\n      swap1\n      dup2\n      mstore\n        /* \"src/assets/BBD_Token.sol\":28352:28357  isDex */\n      0x0e\n        /* \"src/assets/BBD_Token.sol\":28352:28369  isDex[dexAddress] */\n      0x20\n      mstore\n      0x40\n      swap1\n      keccak256\n        /* \"src/assets/BBD_Token.sol\":28352:28378  isDex[dexAddress] = status */\n      dup1\n      sload\n      not(0xff)\n      and\n      swap2\n      iszero\n      iszero\n      swap2\n      swap1\n      swap2\n      or\n      swap1\n      sstore\n        /* \"src/assets/BBD_Token.sol\":28268:28386  function setDexAddress(address dexAddress, bool status) external isOwner {... */\n      jump\t// out\n        /* \"src/assets/BBD_Token.sol\":28048:28149  function setBuyingEnabled(bool _enabled) external isOwner {... */\n    tag_101:\n        /* \"src/assets/BBD_Token.sol\":24076:24082  _owner */\n      and(sub(shl(0xa0, 0x01), 0x01), sload(0x0d))\n        /* \"src/assets/BBD_Token.sol\":24086:24096  msg.sender */\n      caller\n        /* \"src/assets/BBD_Token.sol\":24076:24096  _owner == msg.sender */\n      eq\n        /* \"src/assets/BBD_Token.sol\":24068:24113  require(_owner == msg.sender, \"Not allowed!\") */\n      tag_203\n      jumpi\n      mload(0x40)\n      shl(0xe5, 0x461bcd)\n      dup2\n      mstore\n      0x04\n      add\n      tag_178\n      swap1\n      tag_179\n      jump\t// in\n    tag_203:\n        /* \"src/assets/BBD_Token.sol\":28117:28130  buyingEnabled */\n      0x0c\n        /* \"src/assets/BBD_Token.sol\":28117:28141  buyingEnabled = _enabled */\n      dup1\n      sload\n      swap2\n      iszero\n      iszero\n      shl(0xa0, 0x01)\n      mul\n      not(shl(0xa0, 0xff))\n      swap1\n      swap3\n      and\n      swap2\n      swap1\n      swap2\n      or\n      swap1\n      sstore\n        /* \"src/assets/BBD_Token.sol\":28048:28149  function setBuyingEnabled(bool _enabled) external isOwner {... */\n      jump\t// out\n        /* \"src/assets/BBD_Token.sol\":13286:13381  function symbol() public view virtual returns (string memory) {... */\n    tag_109:\n        /* \"src/assets/BBD_Token.sol\":13333:13346  string memory */\n      0x60\n        /* \"src/assets/BBD_Token.sol\":13366:13373  _symbol */\n      0x04\n        /* \"src/assets/BBD_Token.sol\":13359:13373  return _symbol */\n      dup1\n      sload\n      tag_158\n      swap1\n      tag_159\n      jump\t// in\n        /* \"src/assets/BBD_Token.sol\":27928:28040  function setManager(address manager, bool status) external isOwner {... */\n    tag_113:\n        /* \"src/assets/BBD_Token.sol\":24076:24082  _owner */\n      and(sub(shl(0xa0, 0x01), 0x01), sload(0x0d))\n        /* \"src/assets/BBD_Token.sol\":24086:24096  msg.sender */\n      caller\n        /* \"src/assets/BBD_Token.sol\":24076:24096  _owner == msg.sender */\n      eq\n        /* \"src/assets/BBD_Token.sol\":24068:24113  require(_owner == msg.sender, \"Not allowed!\") */\n      tag_213\n      jumpi\n      mload(0x40)\n      shl(0xe5, 0x461bcd)\n      dup2\n      mstore\n      0x04\n      add\n      tag_178\n      swap1\n      tag_179\n      jump\t// in\n    tag_213:\n      sub(shl(0xa0, 0x01), 0x01)\n        /* \"src/assets/BBD_Token.sol\":28006:28023  managers[manager] */\n      swap2\n      swap1\n      swap2\n      and\n      0x00\n      swap1\n      dup2\n      mstore\n        /* \"src/assets/BBD_Token.sol\":28006:28014  managers */\n      0x0f\n        /* \"src/assets/BBD_Token.sol\":28006:28023  managers[manager] */\n      0x20\n      mstore\n      0x40\n      swap1\n      keccak256\n        /* \"src/assets/BBD_Token.sol\":28006:28032  managers[manager] = status */\n      dup1\n      sload\n      not(0xff)\n      and\n      swap2\n      iszero\n      iszero\n      swap2\n      swap1\n      swap2\n      or\n      swap1\n      sstore\n        /* \"src/assets/BBD_Token.sol\":27928:28040  function setManager(address manager, bool status) external isOwner {... */\n      jump\t// out\n        /* \"src/assets/BBD_Token.sol\":14663:14845  function transfer(address to, uint256 value) public virtual returns (bool) {... */\n    tag_119:\n        /* \"src/assets/BBD_Token.sol\":14732:14736  bool */\n      0x00\n        /* \"src/assets/BBD_Token.sol\":4367:4377  msg.sender */\n      caller\n        /* \"src/assets/BBD_Token.sol\":14788:14815  _transfer(owner, to, value) */\n      tag_167\n        /* \"src/assets/BBD_Token.sol\":4367:4377  msg.sender */\n      dup2\n        /* \"src/assets/BBD_Token.sol\":14805:14807  to */\n      dup6\n        /* \"src/assets/BBD_Token.sol\":14809:14814  value */\n      dup6\n        /* \"src/assets/BBD_Token.sol\":14788:14797  _transfer */\n      tag_175\n        /* \"src/assets/BBD_Token.sol\":14788:14815  _transfer(owner, to, value) */\n      jump\t// in\n        /* \"src/assets/BBD_Token.sol\":28157:28260  function setSellingEnabled(bool _enabled) external isOwner {... */\n    tag_123:\n        /* \"src/assets/BBD_Token.sol\":24076:24082  _owner */\n      and(sub(shl(0xa0, 0x01), 0x01), sload(0x0d))\n        /* \"src/assets/BBD_Token.sol\":24086:24096  msg.sender */\n      caller\n        /* \"src/assets/BBD_Token.sol\":24076:24096  _owner == msg.sender */\n      eq\n        /* \"src/assets/BBD_Token.sol\":24068:24113  require(_owner == msg.sender, \"Not allowed!\") */\n      tag_220\n      jumpi\n      mload(0x40)\n      shl(0xe5, 0x461bcd)\n      dup2\n      mstore\n      0x04\n      add\n      tag_178\n      swap1\n      tag_179\n      jump\t// in\n    tag_220:\n        /* \"src/assets/BBD_Token.sol\":28227:28241  sellingEnabled */\n      0x0c\n        /* \"src/assets/BBD_Token.sol\":28227:28252  sellingEnabled = _enabled */\n      dup1\n      sload\n      swap2\n      iszero\n      iszero\n      shl(0xa8, 0x01)\n      mul\n      not(shl(0xa8, 0xff))\n      swap1\n      swap3\n      and\n      swap2\n      swap1\n      swap2\n      or\n      swap1\n      sstore\n        /* \"src/assets/BBD_Token.sol\":28157:28260  function setSellingEnabled(bool _enabled) external isOwner {... */\n      jump\t// out\n        /* \"src/assets/BBD_Token.sol\":26581:27285  function getNextUnlockInfo()... */\n    tag_128:\n        /* \"src/assets/BBD_Token.sol\":26660:26673  uint256 month */\n      0x00\n        /* \"src/assets/BBD_Token.sol\":26675:26694  uint256 amountTotal */\n      dup1\n        /* \"src/assets/BBD_Token.sol\":26696:26713  uint256 perWallet */\n      0x00\n        /* \"src/assets/BBD_Token.sol\":26731:26740  uint256 m */\n      dup1\n        /* \"src/assets/BBD_Token.sol\":26743:26758  lastUnlockMonth */\n      sload(0x05)\n        /* \"src/assets/BBD_Token.sol\":26761:26762  1 */\n      0x01\n        /* \"src/assets/BBD_Token.sol\":26743:26762  lastUnlockMonth + 1 */\n      tag_224\n      swap2\n      swap1\n      tag_225\n      jump\t// in\n    tag_224:\n        /* \"src/assets/BBD_Token.sol\":26731:26762  uint256 m = lastUnlockMonth + 1 */\n      swap1\n      pop\n        /* \"src/assets/BBD_Token.sol\":26784:26785  3 */\n      0x03\n        /* \"src/assets/BBD_Token.sol\":26779:26780  m */\n      dup2\n        /* \"src/assets/BBD_Token.sol\":26779:26785  m <= 3 */\n      gt\n        /* \"src/assets/BBD_Token.sol\":26775:27094  if (m <= 3) {... */\n      tag_226\n      jumpi\n        /* \"src/assets/BBD_Token.sol\":26838:26842  1000 */\n      0x03e8\n        /* \"src/assets/BBD_Token.sol\":23083:23111  TOTAL_SUPPLY - PUBLIC_SUPPLY */\n      tag_227\n      shl(0x1b, 0x6765c793fa10079d)\n        /* \"src/assets/BBD_Token.sol\":22948:22969  10_000_000_000 * 1e18 */\n      0x204fce5e3e25026110000000\n        /* \"src/assets/BBD_Token.sol\":23083:23111  TOTAL_SUPPLY - PUBLIC_SUPPLY */\n      tag_228\n      jump\t// in\n    tag_227:\n        /* \"src/assets/BBD_Token.sol\":26817:26834  LOCKED_SUPPLY * 5 */\n      tag_229\n      swap1\n        /* \"src/assets/BBD_Token.sol\":26833:26834  5 */\n      0x05\n        /* \"src/assets/BBD_Token.sol\":26817:26834  LOCKED_SUPPLY * 5 */\n      tag_230\n      jump\t// in\n    tag_229:\n        /* \"src/assets/BBD_Token.sol\":26816:26842  (LOCKED_SUPPLY * 5) / 1000 */\n      tag_231\n      swap2\n      swap1\n      tag_232\n      jump\t// in\n    tag_231:\n        /* \"src/assets/BBD_Token.sol\":26802:26842  amountTotal = (LOCKED_SUPPLY * 5) / 1000 */\n      swap3\n      pop\n        /* \"src/assets/BBD_Token.sol\":26775:27094  if (m <= 3) {... */\n      jump(tag_243)\n    tag_226:\n        /* \"src/assets/BBD_Token.sol\":26869:26870  6 */\n      0x06\n        /* \"src/assets/BBD_Token.sol\":26864:26865  m */\n      dup2\n        /* \"src/assets/BBD_Token.sol\":26864:26870  m <= 6 */\n      gt\n        /* \"src/assets/BBD_Token.sol\":26860:27094  if (m <= 6) {... */\n      tag_234\n      jumpi\n        /* \"src/assets/BBD_Token.sol\":26923:26926  100 */\n      0x64\n        /* \"src/assets/BBD_Token.sol\":23083:23111  TOTAL_SUPPLY - PUBLIC_SUPPLY */\n      tag_235\n      shl(0x1b, 0x6765c793fa10079d)\n        /* \"src/assets/BBD_Token.sol\":22948:22969  10_000_000_000 * 1e18 */\n      0x204fce5e3e25026110000000\n        /* \"src/assets/BBD_Token.sol\":23083:23111  TOTAL_SUPPLY - PUBLIC_SUPPLY */\n      tag_228\n      jump\t// in\n    tag_235:\n        /* \"src/assets/BBD_Token.sol\":26902:26919  LOCKED_SUPPLY * 1 */\n      tag_229\n      swap1\n        /* \"src/assets/BBD_Token.sol\":26918:26919  1 */\n      0x01\n        /* \"src/assets/BBD_Token.sol\":26902:26919  LOCKED_SUPPLY * 1 */\n      tag_230\n      jump\t// in\n        /* \"src/assets/BBD_Token.sol\":26860:27094  if (m <= 6) {... */\n    tag_234:\n        /* \"src/assets/BBD_Token.sol\":26953:26954  9 */\n      0x09\n        /* \"src/assets/BBD_Token.sol\":26948:26949  m */\n      dup2\n        /* \"src/assets/BBD_Token.sol\":26948:26954  m <= 9 */\n      gt\n        /* \"src/assets/BBD_Token.sol\":26944:27094  if (m <= 9) {... */\n      tag_239\n      jumpi\n        /* \"src/assets/BBD_Token.sol\":27007:27010  100 */\n      0x64\n        /* \"src/assets/BBD_Token.sol\":23083:23111  TOTAL_SUPPLY - PUBLIC_SUPPLY */\n      tag_240\n      shl(0x1b, 0x6765c793fa10079d)\n        /* \"src/assets/BBD_Token.sol\":22948:22969  10_000_000_000 * 1e18 */\n      0x204fce5e3e25026110000000\n        /* \"src/assets/BBD_Token.sol\":23083:23111  TOTAL_SUPPLY - PUBLIC_SUPPLY */\n      tag_228\n      jump\t// in\n    tag_240:\n        /* \"src/assets/BBD_Token.sol\":26986:27003  LOCKED_SUPPLY * 2 */\n      tag_229\n      swap1\n        /* \"src/assets/BBD_Token.sol\":27002:27003  2 */\n      0x02\n        /* \"src/assets/BBD_Token.sol\":26986:27003  LOCKED_SUPPLY * 2 */\n      tag_230\n      jump\t// in\n        /* \"src/assets/BBD_Token.sol\":26944:27094  if (m <= 9) {... */\n    tag_239:\n        /* \"src/assets/BBD_Token.sol\":27079:27082  100 */\n      0x64\n        /* \"src/assets/BBD_Token.sol\":23083:23111  TOTAL_SUPPLY - PUBLIC_SUPPLY */\n      tag_244\n      shl(0x1b, 0x6765c793fa10079d)\n        /* \"src/assets/BBD_Token.sol\":22948:22969  10_000_000_000 * 1e18 */\n      0x204fce5e3e25026110000000\n        /* \"src/assets/BBD_Token.sol\":23083:23111  TOTAL_SUPPLY - PUBLIC_SUPPLY */\n      tag_228\n      jump\t// in\n    tag_244:\n        /* \"src/assets/BBD_Token.sol\":27058:27075  LOCKED_SUPPLY * 3 */\n      tag_245\n      swap1\n        /* \"src/assets/BBD_Token.sol\":27074:27075  3 */\n      0x03\n        /* \"src/assets/BBD_Token.sol\":27058:27075  LOCKED_SUPPLY * 3 */\n      tag_230\n      jump\t// in\n    tag_245:\n        /* \"src/assets/BBD_Token.sol\":27057:27082  (LOCKED_SUPPLY * 3) / 100 */\n      tag_246\n      swap2\n      swap1\n      tag_232\n      jump\t// in\n    tag_246:\n        /* \"src/assets/BBD_Token.sol\":27043:27082  amountTotal = (LOCKED_SUPPLY * 3) / 100 */\n      swap3\n      pop\n        /* \"src/assets/BBD_Token.sol\":26944:27094  if (m <= 9) {... */\n    tag_243:\n        /* \"src/assets/BBD_Token.sol\":23083:23111  TOTAL_SUPPLY - PUBLIC_SUPPLY */\n      tag_247\n      shl(0x1b, 0x6765c793fa10079d)\n        /* \"src/assets/BBD_Token.sol\":22948:22969  10_000_000_000 * 1e18 */\n      0x204fce5e3e25026110000000\n        /* \"src/assets/BBD_Token.sol\":23083:23111  TOTAL_SUPPLY - PUBLIC_SUPPLY */\n      tag_228\n      jump\t// in\n    tag_247:\n        /* \"src/assets/BBD_Token.sol\":27124:27137  totalUnlocked */\n      sload(0x06)\n        /* \"src/assets/BBD_Token.sol\":27110:27137  amountTotal + totalUnlocked */\n      tag_248\n      swap1\n        /* \"src/assets/BBD_Token.sol\":27110:27121  amountTotal */\n      dup6\n        /* \"src/assets/BBD_Token.sol\":27110:27137  amountTotal + totalUnlocked */\n      tag_225\n      jump\t// in\n    tag_248:\n        /* \"src/assets/BBD_Token.sol\":27110:27153  amountTotal + totalUnlocked > LOCKED_SUPPLY */\n      gt\n        /* \"src/assets/BBD_Token.sol\":27106:27225  if (amountTotal + totalUnlocked > LOCKED_SUPPLY) {... */\n      iszero\n      tag_249\n      jumpi\n        /* \"src/assets/BBD_Token.sol\":27200:27213  totalUnlocked */\n      sload(0x06)\n        /* \"src/assets/BBD_Token.sol\":23083:23111  TOTAL_SUPPLY - PUBLIC_SUPPLY */\n      tag_250\n      shl(0x1b, 0x6765c793fa10079d)\n        /* \"src/assets/BBD_Token.sol\":22948:22969  10_000_000_000 * 1e18 */\n      0x204fce5e3e25026110000000\n        /* \"src/assets/BBD_Token.sol\":23083:23111  TOTAL_SUPPLY - PUBLIC_SUPPLY */\n      tag_228\n      jump\t// in\n    tag_250:\n        /* \"src/assets/BBD_Token.sol\":27184:27213  LOCKED_SUPPLY - totalUnlocked */\n      tag_251\n      swap2\n      swap1\n      tag_228\n      jump\t// in\n    tag_251:\n        /* \"src/assets/BBD_Token.sol\":27170:27213  amountTotal = LOCKED_SUPPLY - totalUnlocked */\n      swap3\n      pop\n        /* \"src/assets/BBD_Token.sol\":27106:27225  if (amountTotal + totalUnlocked > LOCKED_SUPPLY) {... */\n    tag_249:\n        /* \"src/assets/BBD_Token.sol\":27245:27246  m */\n      dup1\n        /* \"src/assets/BBD_Token.sol\":27248:27259  amountTotal */\n      dup4\n        /* \"src/assets/BBD_Token.sol\":27261:27276  amountTotal / 6 */\n      tag_252\n        /* \"src/assets/BBD_Token.sol\":27275:27276  6 */\n      0x06\n        /* \"src/assets/BBD_Token.sol\":27248:27259  amountTotal */\n      dup3\n        /* \"src/assets/BBD_Token.sol\":27261:27276  amountTotal / 6 */\n      tag_232\n      jump\t// in\n    tag_252:\n        /* \"src/assets/BBD_Token.sol\":27237:27277  return (m, amountTotal, amountTotal / 6) */\n      swap4\n      pop\n      swap4\n      pop\n      swap4\n      pop\n      pop\n        /* \"src/assets/BBD_Token.sol\":26581:27285  function getNextUnlockInfo()... */\n      swap1\n      swap2\n      swap3\n      jump\t// out\n        /* \"src/assets/BBD_Token.sol\":23043:23111  uint256 public constant LOCKED_SUPPLY = TOTAL_SUPPLY - PUBLIC_SUPPLY */\n    tag_146:\n        /* \"src/assets/BBD_Token.sol\":23083:23111  TOTAL_SUPPLY - PUBLIC_SUPPLY */\n      tag_254\n      shl(0x1b, 0x6765c793fa10079d)\n        /* \"src/assets/BBD_Token.sol\":22948:22969  10_000_000_000 * 1e18 */\n      0x204fce5e3e25026110000000\n        /* \"src/assets/BBD_Token.sol\":23083:23111  TOTAL_SUPPLY - PUBLIC_SUPPLY */\n      tag_228\n      jump\t// in\n    tag_254:\n        /* \"src/assets/BBD_Token.sol\":23043:23111  uint256 public constant LOCKED_SUPPLY = TOTAL_SUPPLY - PUBLIC_SUPPLY */\n      dup2\n      jump\t// out\n        /* \"src/assets/BBD_Token.sol\":24447:26044  function unlockTokens() external isOwner {... */\n    tag_152:\n        /* \"src/assets/BBD_Token.sol\":24076:24082  _owner */\n      and(sub(shl(0xa0, 0x01), 0x01), sload(0x0d))\n        /* \"src/assets/BBD_Token.sol\":24086:24096  msg.sender */\n      caller\n        /* \"src/assets/BBD_Token.sol\":24076:24096  _owner == msg.sender */\n      eq\n        /* \"src/assets/BBD_Token.sol\":24068:24113  require(_owner == msg.sender, \"Not allowed!\") */\n      tag_256\n      jumpi\n      mload(0x40)\n      shl(0xe5, 0x461bcd)\n      dup2\n      mstore\n      0x04\n      add\n      tag_178\n      swap1\n      tag_179\n      jump\t// in\n    tag_256:\n        /* \"src/assets/BBD_Token.sol\":23083:23111  TOTAL_SUPPLY - PUBLIC_SUPPLY */\n      tag_259\n      shl(0x1b, 0x6765c793fa10079d)\n        /* \"src/assets/BBD_Token.sol\":22948:22969  10_000_000_000 * 1e18 */\n      0x204fce5e3e25026110000000\n        /* \"src/assets/BBD_Token.sol\":23083:23111  TOTAL_SUPPLY - PUBLIC_SUPPLY */\n      tag_228\n      jump\t// in\n    tag_259:\n        /* \"src/assets/BBD_Token.sol\":24507:24520  totalUnlocked */\n      sload(0x06)\n        /* \"src/assets/BBD_Token.sol\":24507:24536  totalUnlocked < LOCKED_SUPPLY */\n      lt\n        /* \"src/assets/BBD_Token.sol\":24499:24568  require(totalUnlocked < LOCKED_SUPPLY, \"All tokens already unlocked\") */\n      tag_260\n      jumpi\n      mload(0x40)\n      shl(0xe5, 0x461bcd)\n      dup2\n      mstore\n        /* \"#utility.yul\":5824:5826   */\n      0x20\n        /* \"src/assets/BBD_Token.sol\":24499:24568  require(totalUnlocked < LOCKED_SUPPLY, \"All tokens already unlocked\") */\n      0x04\n      dup3\n      add\n        /* \"#utility.yul\":5806:5827   */\n      mstore\n        /* \"#utility.yul\":5863:5865   */\n      0x1b\n        /* \"#utility.yul\":5843:5861   */\n      0x24\n      dup3\n      add\n        /* \"#utility.yul\":5836:5866   */\n      mstore\n        /* \"#utility.yul\":5902:5931   */\n      0x416c6c20746f6b656e7320616c726561647920756e6c6f636b65640000000000\n        /* \"#utility.yul\":5882:5900   */\n      0x44\n      dup3\n      add\n        /* \"#utility.yul\":5875:5932   */\n      mstore\n        /* \"#utility.yul\":5949:5967   */\n      0x64\n      add\n        /* \"src/assets/BBD_Token.sol\":24499:24568  require(totalUnlocked < LOCKED_SUPPLY, \"All tokens already unlocked\") */\n      tag_178\n        /* \"#utility.yul\":5622:5973   */\n      jump\n        /* \"src/assets/BBD_Token.sol\":24499:24568  require(totalUnlocked < LOCKED_SUPPLY, \"All tokens already unlocked\") */\n    tag_260:\n        /* \"src/assets/BBD_Token.sol\":24581:24602  uint256 monthsElapsed */\n      0x00\n        /* \"src/assets/BBD_Token.sol\":24642:24649  30 days */\n      0x278d00\n        /* \"src/assets/BBD_Token.sol\":24606:24638  block.timestamp - startTimestamp */\n      tag_263\n        /* \"src/assets/BBD_Token.sol\":24624:24638  startTimestamp */\n      immutable(\"0x6d7e9d25f7937a025d098651c32892e1256b8f7bcedf36aadd28cccf92a5a08d\")\n        /* \"src/assets/BBD_Token.sol\":24606:24621  block.timestamp */\n      timestamp\n        /* \"src/assets/BBD_Token.sol\":24606:24638  block.timestamp - startTimestamp */\n      tag_228\n      jump\t// in\n    tag_263:\n        /* \"src/assets/BBD_Token.sol\":24605:24649  (block.timestamp - startTimestamp) / 30 days */\n      tag_264\n      swap2\n      swap1\n      tag_232\n      jump\t// in\n    tag_264:\n        /* \"src/assets/BBD_Token.sol\":24581:24649  uint256 monthsElapsed = (block.timestamp - startTimestamp) / 30 days */\n      swap1\n      pop\n        /* \"src/assets/BBD_Token.sol\":24684:24699  lastUnlockMonth */\n      sload(0x05)\n        /* \"src/assets/BBD_Token.sol\":24668:24681  monthsElapsed */\n      dup2\n        /* \"src/assets/BBD_Token.sol\":24668:24699  monthsElapsed > lastUnlockMonth */\n      gt\n        /* \"src/assets/BBD_Token.sol\":24660:24726  require(monthsElapsed > lastUnlockMonth, \"No new month to unlock\") */\n      tag_265\n      jumpi\n      mload(0x40)\n      shl(0xe5, 0x461bcd)\n      dup2\n      mstore\n        /* \"#utility.yul\":6180:6182   */\n      0x20\n        /* \"src/assets/BBD_Token.sol\":24660:24726  require(monthsElapsed > lastUnlockMonth, \"No new month to unlock\") */\n      0x04\n      dup3\n      add\n        /* \"#utility.yul\":6162:6183   */\n      mstore\n        /* \"#utility.yul\":6219:6221   */\n      0x16\n        /* \"#utility.yul\":6199:6217   */\n      0x24\n      dup3\n      add\n        /* \"#utility.yul\":6192:6222   */\n      mstore\n      shl(0x50, 0x4e6f206e6577206d6f6e746820746f20756e6c6f636b)\n        /* \"#utility.yul\":6238:6256   */\n      0x44\n      dup3\n      add\n        /* \"#utility.yul\":6231:6283   */\n      mstore\n        /* \"#utility.yul\":6300:6318   */\n      0x64\n      add\n        /* \"src/assets/BBD_Token.sol\":24660:24726  require(monthsElapsed > lastUnlockMonth, \"No new month to unlock\") */\n      tag_178\n        /* \"#utility.yul\":5978:6324   */\n      jump\n        /* \"src/assets/BBD_Token.sol\":24660:24726  require(monthsElapsed > lastUnlockMonth, \"No new month to unlock\") */\n    tag_265:\n        /* \"src/assets/BBD_Token.sol\":24739:24761  uint256 tokensToUnlock */\n      0x00\n        /* \"src/assets/BBD_Token.sol\":24783:24792  uint256 m */\n      dup1\n        /* \"src/assets/BBD_Token.sol\":24795:24810  lastUnlockMonth */\n      sload(0x05)\n        /* \"src/assets/BBD_Token.sol\":24813:24814  1 */\n      0x01\n        /* \"src/assets/BBD_Token.sol\":24795:24814  lastUnlockMonth + 1 */\n      tag_271\n      swap2\n      swap1\n      tag_225\n      jump\t// in\n    tag_271:\n        /* \"src/assets/BBD_Token.sol\":24783:24814  uint256 m = lastUnlockMonth + 1 */\n      swap1\n      pop\n        /* \"src/assets/BBD_Token.sol\":24778:25260  for (uint256 m = lastUnlockMonth + 1; m <= monthsElapsed; m++) {... */\n    tag_268:\n        /* \"src/assets/BBD_Token.sol\":24821:24834  monthsElapsed */\n      dup3\n        /* \"src/assets/BBD_Token.sol\":24816:24817  m */\n      dup2\n        /* \"src/assets/BBD_Token.sol\":24816:24834  m <= monthsElapsed */\n      gt\n        /* \"src/assets/BBD_Token.sol\":24778:25260  for (uint256 m = lastUnlockMonth + 1; m <= monthsElapsed; m++) {... */\n      tag_269\n      jumpi\n        /* \"src/assets/BBD_Token.sol\":24865:24866  3 */\n      0x03\n        /* \"src/assets/BBD_Token.sol\":24860:24861  m */\n      dup2\n        /* \"src/assets/BBD_Token.sol\":24860:24866  m <= 3 */\n      gt\n        /* \"src/assets/BBD_Token.sol\":24856:25249  if (m <= 3) {... */\n      tag_272\n      jumpi\n        /* \"src/assets/BBD_Token.sol\":24927:24931  1000 */\n      0x03e8\n        /* \"src/assets/BBD_Token.sol\":23083:23111  TOTAL_SUPPLY - PUBLIC_SUPPLY */\n      tag_273\n      shl(0x1b, 0x6765c793fa10079d)\n        /* \"src/assets/BBD_Token.sol\":22948:22969  10_000_000_000 * 1e18 */\n      0x204fce5e3e25026110000000\n        /* \"src/assets/BBD_Token.sol\":23083:23111  TOTAL_SUPPLY - PUBLIC_SUPPLY */\n      tag_228\n      jump\t// in\n    tag_273:\n        /* \"src/assets/BBD_Token.sol\":24906:24923  LOCKED_SUPPLY * 5 */\n      tag_274\n      swap1\n        /* \"src/assets/BBD_Token.sol\":24922:24923  5 */\n      0x05\n        /* \"src/assets/BBD_Token.sol\":24906:24923  LOCKED_SUPPLY * 5 */\n      tag_230\n      jump\t// in\n    tag_274:\n        /* \"src/assets/BBD_Token.sol\":24905:24931  (LOCKED_SUPPLY * 5) / 1000 */\n      tag_275\n      swap2\n      swap1\n      tag_232\n      jump\t// in\n    tag_275:\n        /* \"src/assets/BBD_Token.sol\":24887:24931  tokensToUnlock += (LOCKED_SUPPLY * 5) / 1000 */\n      tag_276\n      swap1\n      dup4\n      tag_225\n      jump\t// in\n    tag_276:\n      swap2\n      pop\n        /* \"src/assets/BBD_Token.sol\":24856:25249  if (m <= 3) {... */\n      jump(tag_289)\n    tag_272:\n        /* \"src/assets/BBD_Token.sol\":24970:24971  6 */\n      0x06\n        /* \"src/assets/BBD_Token.sol\":24965:24966  m */\n      dup2\n        /* \"src/assets/BBD_Token.sol\":24965:24971  m <= 6 */\n      gt\n        /* \"src/assets/BBD_Token.sol\":24961:25249  if (m <= 6) {... */\n      tag_278\n      jumpi\n        /* \"src/assets/BBD_Token.sol\":25032:25035  100 */\n      0x64\n        /* \"src/assets/BBD_Token.sol\":23083:23111  TOTAL_SUPPLY - PUBLIC_SUPPLY */\n      tag_279\n      shl(0x1b, 0x6765c793fa10079d)\n        /* \"src/assets/BBD_Token.sol\":22948:22969  10_000_000_000 * 1e18 */\n      0x204fce5e3e25026110000000\n        /* \"src/assets/BBD_Token.sol\":23083:23111  TOTAL_SUPPLY - PUBLIC_SUPPLY */\n      tag_228\n      jump\t// in\n    tag_279:\n        /* \"src/assets/BBD_Token.sol\":25011:25028  LOCKED_SUPPLY * 1 */\n      tag_274\n      swap1\n        /* \"src/assets/BBD_Token.sol\":25027:25028  1 */\n      0x01\n        /* \"src/assets/BBD_Token.sol\":25011:25028  LOCKED_SUPPLY * 1 */\n      tag_230\n      jump\t// in\n        /* \"src/assets/BBD_Token.sol\":24961:25249  if (m <= 6) {... */\n    tag_278:\n        /* \"src/assets/BBD_Token.sol\":25072:25073  9 */\n      0x09\n        /* \"src/assets/BBD_Token.sol\":25067:25068  m */\n      dup2\n        /* \"src/assets/BBD_Token.sol\":25067:25073  m <= 9 */\n      gt\n        /* \"src/assets/BBD_Token.sol\":25063:25249  if (m <= 9) {... */\n      tag_284\n      jumpi\n        /* \"src/assets/BBD_Token.sol\":25134:25137  100 */\n      0x64\n        /* \"src/assets/BBD_Token.sol\":23083:23111  TOTAL_SUPPLY - PUBLIC_SUPPLY */\n      tag_285\n      shl(0x1b, 0x6765c793fa10079d)\n        /* \"src/assets/BBD_Token.sol\":22948:22969  10_000_000_000 * 1e18 */\n      0x204fce5e3e25026110000000\n        /* \"src/assets/BBD_Token.sol\":23083:23111  TOTAL_SUPPLY - PUBLIC_SUPPLY */\n      tag_228\n      jump\t// in\n    tag_285:\n        /* \"src/assets/BBD_Token.sol\":25113:25130  LOCKED_SUPPLY * 2 */\n      tag_274\n      swap1\n        /* \"src/assets/BBD_Token.sol\":25129:25130  2 */\n      0x02\n        /* \"src/assets/BBD_Token.sol\":25113:25130  LOCKED_SUPPLY * 2 */\n      tag_230\n      jump\t// in\n        /* \"src/assets/BBD_Token.sol\":25063:25249  if (m <= 9) {... */\n    tag_284:\n        /* \"src/assets/BBD_Token.sol\":25224:25227  100 */\n      0x64\n        /* \"src/assets/BBD_Token.sol\":23083:23111  TOTAL_SUPPLY - PUBLIC_SUPPLY */\n      tag_290\n      shl(0x1b, 0x6765c793fa10079d)\n        /* \"src/assets/BBD_Token.sol\":22948:22969  10_000_000_000 * 1e18 */\n      0x204fce5e3e25026110000000\n        /* \"src/assets/BBD_Token.sol\":23083:23111  TOTAL_SUPPLY - PUBLIC_SUPPLY */\n      tag_228\n      jump\t// in\n    tag_290:\n        /* \"src/assets/BBD_Token.sol\":25203:25220  LOCKED_SUPPLY * 3 */\n      tag_291\n      swap1\n        /* \"src/assets/BBD_Token.sol\":25219:25220  3 */\n      0x03\n        /* \"src/assets/BBD_Token.sol\":25203:25220  LOCKED_SUPPLY * 3 */\n      tag_230\n      jump\t// in\n    tag_291:\n        /* \"src/assets/BBD_Token.sol\":25202:25227  (LOCKED_SUPPLY * 3) / 100 */\n      tag_292\n      swap2\n      swap1\n      tag_232\n      jump\t// in\n    tag_292:\n        /* \"src/assets/BBD_Token.sol\":25184:25227  tokensToUnlock += (LOCKED_SUPPLY * 3) / 100 */\n      tag_293\n      swap1\n      dup4\n      tag_225\n      jump\t// in\n    tag_293:\n      swap2\n      pop\n        /* \"src/assets/BBD_Token.sol\":25063:25249  if (m <= 9) {... */\n    tag_289:\n        /* \"src/assets/BBD_Token.sol\":24836:24839  m++ */\n      dup1\n      tag_294\n      dup2\n      tag_295\n      jump\t// in\n    tag_294:\n      swap2\n      pop\n      pop\n        /* \"src/assets/BBD_Token.sol\":24778:25260  for (uint256 m = lastUnlockMonth + 1; m <= monthsElapsed; m++) {... */\n      jump(tag_268)\n    tag_269:\n      pop\n        /* \"src/assets/BBD_Token.sol\":23083:23111  TOTAL_SUPPLY - PUBLIC_SUPPLY */\n      tag_296\n      shl(0x1b, 0x6765c793fa10079d)\n        /* \"src/assets/BBD_Token.sol\":22948:22969  10_000_000_000 * 1e18 */\n      0x204fce5e3e25026110000000\n        /* \"src/assets/BBD_Token.sol\":23083:23111  TOTAL_SUPPLY - PUBLIC_SUPPLY */\n      tag_228\n      jump\t// in\n    tag_296:\n        /* \"src/assets/BBD_Token.sol\":25293:25306  totalUnlocked */\n      sload(0x06)\n        /* \"src/assets/BBD_Token.sol\":25276:25306  tokensToUnlock + totalUnlocked */\n      tag_297\n      swap1\n        /* \"src/assets/BBD_Token.sol\":25276:25290  tokensToUnlock */\n      dup4\n        /* \"src/assets/BBD_Token.sol\":25276:25306  tokensToUnlock + totalUnlocked */\n      tag_225\n      jump\t// in\n    tag_297:\n        /* \"src/assets/BBD_Token.sol\":25276:25322  tokensToUnlock + totalUnlocked > LOCKED_SUPPLY */\n      gt\n        /* \"src/assets/BBD_Token.sol\":25272:25433  if (tokensToUnlock + totalUnlocked > LOCKED_SUPPLY) {... */\n      iszero\n      tag_298\n      jumpi\n        /* \"src/assets/BBD_Token.sol\":25372:25385  totalUnlocked */\n      sload(0x06)\n        /* \"src/assets/BBD_Token.sol\":23083:23111  TOTAL_SUPPLY - PUBLIC_SUPPLY */\n      tag_299\n      shl(0x1b, 0x6765c793fa10079d)\n        /* \"src/assets/BBD_Token.sol\":22948:22969  10_000_000_000 * 1e18 */\n      0x204fce5e3e25026110000000\n        /* \"src/assets/BBD_Token.sol\":23083:23111  TOTAL_SUPPLY - PUBLIC_SUPPLY */\n      tag_228\n      jump\t// in\n    tag_299:\n        /* \"src/assets/BBD_Token.sol\":25356:25385  LOCKED_SUPPLY - totalUnlocked */\n      tag_300\n      swap2\n      swap1\n      tag_228\n      jump\t// in\n    tag_300:\n        /* \"src/assets/BBD_Token.sol\":25339:25385  tokensToUnlock = LOCKED_SUPPLY - totalUnlocked */\n      swap1\n      pop\n        /* \"src/assets/BBD_Token.sol\":25272:25433  if (tokensToUnlock + totalUnlocked > LOCKED_SUPPLY) {... */\n    tag_298:\n        /* \"src/assets/BBD_Token.sol\":25470:25471  0 */\n      0x00\n        /* \"src/assets/BBD_Token.sol\":25453:25467  tokensToUnlock */\n      dup2\n        /* \"src/assets/BBD_Token.sol\":25453:25471  tokensToUnlock > 0 */\n      gt\n        /* \"src/assets/BBD_Token.sol\":25445:25493  require(tokensToUnlock > 0, \"Nothing to unlock\") */\n      tag_301\n      jumpi\n      mload(0x40)\n      shl(0xe5, 0x461bcd)\n      dup2\n      mstore\n        /* \"#utility.yul\":6671:6673   */\n      0x20\n        /* \"src/assets/BBD_Token.sol\":25445:25493  require(tokensToUnlock > 0, \"Nothing to unlock\") */\n      0x04\n      dup3\n      add\n        /* \"#utility.yul\":6653:6674   */\n      mstore\n        /* \"#utility.yul\":6710:6712   */\n      0x11\n        /* \"#utility.yul\":6690:6708   */\n      0x24\n      dup3\n      add\n        /* \"#utility.yul\":6683:6713   */\n      mstore\n      shl(0x78, 0x4e6f7468696e6720746f20756e6c6f636b)\n        /* \"#utility.yul\":6729:6747   */\n      0x44\n      dup3\n      add\n        /* \"#utility.yul\":6722:6769   */\n      mstore\n        /* \"#utility.yul\":6786:6804   */\n      0x64\n      add\n        /* \"src/assets/BBD_Token.sol\":25445:25493  require(tokensToUnlock > 0, \"Nothing to unlock\") */\n      tag_178\n        /* \"#utility.yul\":6469:6810   */\n      jump\n        /* \"src/assets/BBD_Token.sol\":25445:25493  require(tokensToUnlock > 0, \"Nothing to unlock\") */\n    tag_301:\n        /* \"src/assets/BBD_Token.sol\":25524:25537  monthsElapsed */\n      dup2\n        /* \"src/assets/BBD_Token.sol\":25506:25521  lastUnlockMonth */\n      0x05\n        /* \"src/assets/BBD_Token.sol\":25506:25537  lastUnlockMonth = monthsElapsed */\n      dup2\n      swap1\n      sstore\n      pop\n        /* \"src/assets/BBD_Token.sol\":25565:25579  tokensToUnlock */\n      dup1\n        /* \"src/assets/BBD_Token.sol\":25548:25561  totalUnlocked */\n      0x06\n      0x00\n        /* \"src/assets/BBD_Token.sol\":25548:25579  totalUnlocked += tokensToUnlock */\n      dup3\n      dup3\n      sload\n      tag_304\n      swap2\n      swap1\n      tag_225\n      jump\t// in\n    tag_304:\n      swap1\n      swap2\n      sstore\n      pop\n        /* \"src/assets/BBD_Token.sol\":25592:25605  uint256 share */\n      0x00\n      swap1\n      pop\n        /* \"src/assets/BBD_Token.sol\":25608:25626  tokensToUnlock / 6 */\n      tag_305\n        /* \"src/assets/BBD_Token.sol\":25625:25626  6 */\n      0x06\n        /* \"src/assets/BBD_Token.sol\":25608:25622  tokensToUnlock */\n      dup4\n        /* \"src/assets/BBD_Token.sol\":25608:25626  tokensToUnlock / 6 */\n      tag_232\n      jump\t// in\n    tag_305:\n        /* \"src/assets/BBD_Token.sol\":25664:25680  liquidityListing */\n      sload(0x07)\n        /* \"src/assets/BBD_Token.sol\":25592:25626  uint256 share = tokensToUnlock / 6 */\n      swap1\n      swap2\n      pop\n        /* \"src/assets/BBD_Token.sol\":25639:25688  _transfer(address(this), liquidityListing, share) */\n      tag_306\n      swap1\n        /* \"src/assets/BBD_Token.sol\":25657:25661  this */\n      address\n      swap1\n      sub(shl(0xa0, 0x01), 0x01)\n        /* \"src/assets/BBD_Token.sol\":25664:25680  liquidityListing */\n      and\n        /* \"src/assets/BBD_Token.sol\":25592:25626  uint256 share = tokensToUnlock / 6 */\n      dup4\n        /* \"src/assets/BBD_Token.sol\":25639:25648  _transfer */\n      tag_175\n        /* \"src/assets/BBD_Token.sol\":25639:25688  _transfer(address(this), liquidityListing, share) */\n      jump\t// in\n    tag_306:\n        /* \"src/assets/BBD_Token.sol\":25724:25736  gameTreasury */\n      sload(0x08)\n        /* \"src/assets/BBD_Token.sol\":25699:25744  _transfer(address(this), gameTreasury, share) */\n      tag_307\n      swap1\n        /* \"src/assets/BBD_Token.sol\":25717:25721  this */\n      address\n      swap1\n      sub(shl(0xa0, 0x01), 0x01)\n        /* \"src/assets/BBD_Token.sol\":25724:25736  gameTreasury */\n      and\n        /* \"src/assets/BBD_Token.sol\":25738:25743  share */\n      dup4\n        /* \"src/assets/BBD_Token.sol\":25699:25708  _transfer */\n      tag_175\n        /* \"src/assets/BBD_Token.sol\":25699:25744  _transfer(address(this), gameTreasury, share) */\n      jump\t// in\n    tag_307:\n        /* \"src/assets/BBD_Token.sol\":25780:25789  marketing */\n      sload(0x09)\n        /* \"src/assets/BBD_Token.sol\":25755:25797  _transfer(address(this), marketing, share) */\n      tag_308\n      swap1\n        /* \"src/assets/BBD_Token.sol\":25773:25777  this */\n      address\n      swap1\n      sub(shl(0xa0, 0x01), 0x01)\n        /* \"src/assets/BBD_Token.sol\":25780:25789  marketing */\n      and\n        /* \"src/assets/BBD_Token.sol\":25791:25796  share */\n      dup4\n        /* \"src/assets/BBD_Token.sol\":25755:25764  _transfer */\n      tag_175\n        /* \"src/assets/BBD_Token.sol\":25755:25797  _transfer(address(this), marketing, share) */\n      jump\t// in\n    tag_308:\n        /* \"src/assets/BBD_Token.sol\":25833:25846  stakingReward */\n      sload(0x0a)\n        /* \"src/assets/BBD_Token.sol\":25808:25854  _transfer(address(this), stakingReward, share) */\n      tag_309\n      swap1\n        /* \"src/assets/BBD_Token.sol\":25826:25830  this */\n      address\n      swap1\n      sub(shl(0xa0, 0x01), 0x01)\n        /* \"src/assets/BBD_Token.sol\":25833:25846  stakingReward */\n      and\n        /* \"src/assets/BBD_Token.sol\":25848:25853  share */\n      dup4\n        /* \"src/assets/BBD_Token.sol\":25808:25817  _transfer */\n      tag_175\n        /* \"src/assets/BBD_Token.sol\":25808:25854  _transfer(address(this), stakingReward, share) */\n      jump\t// in\n    tag_309:\n        /* \"src/assets/BBD_Token.sol\":25890:25903  referralBonus */\n      sload(0x0b)\n        /* \"src/assets/BBD_Token.sol\":25865:25911  _transfer(address(this), referralBonus, share) */\n      tag_310\n      swap1\n        /* \"src/assets/BBD_Token.sol\":25883:25887  this */\n      address\n      swap1\n      sub(shl(0xa0, 0x01), 0x01)\n        /* \"src/assets/BBD_Token.sol\":25890:25903  referralBonus */\n      and\n        /* \"src/assets/BBD_Token.sol\":25905:25910  share */\n      dup4\n        /* \"src/assets/BBD_Token.sol\":25865:25874  _transfer */\n      tag_175\n        /* \"src/assets/BBD_Token.sol\":25865:25911  _transfer(address(this), referralBonus, share) */\n      jump\t// in\n    tag_310:\n        /* \"src/assets/BBD_Token.sol\":25947:25957  awardBonus */\n      sload(0x0c)\n        /* \"src/assets/BBD_Token.sol\":25922:25965  _transfer(address(this), awardBonus, share) */\n      tag_311\n      swap1\n        /* \"src/assets/BBD_Token.sol\":25940:25944  this */\n      address\n      swap1\n      sub(shl(0xa0, 0x01), 0x01)\n        /* \"src/assets/BBD_Token.sol\":25947:25957  awardBonus */\n      and\n        /* \"src/assets/BBD_Token.sol\":25959:25964  share */\n      dup4\n        /* \"src/assets/BBD_Token.sol\":25922:25931  _transfer */\n      tag_175\n        /* \"src/assets/BBD_Token.sol\":25922:25965  _transfer(address(this), awardBonus, share) */\n      jump\t// in\n    tag_311:\n        /* \"src/assets/BBD_Token.sol\":25998:26013  lastUnlockMonth */\n      sload(0x05)\n        /* \"src/assets/BBD_Token.sol\":26022:26035  totalUnlocked */\n      sload(0x06)\n        /* \"src/assets/BBD_Token.sol\":25983:26036  TokensUnlocked(lastUnlockMonth, share, totalUnlocked) */\n      0x40\n      dup1\n      mload\n        /* \"#utility.yul\":3377:3402   */\n      swap3\n      dup4\n      mstore\n        /* \"#utility.yul\":3433:3435   */\n      0x20\n        /* \"#utility.yul\":3418:3436   */\n      dup4\n      add\n        /* \"#utility.yul\":3411:3445   */\n      dup5\n      swap1\n      mstore\n        /* \"#utility.yul\":3461:3479   */\n      dup3\n      add\n        /* \"#utility.yul\":3454:3488   */\n      mstore\n        /* \"src/assets/BBD_Token.sol\":25983:26036  TokensUnlocked(lastUnlockMonth, share, totalUnlocked) */\n      0xd5c1e53febf89038959691e212f7a18f34f9ac92dd9965a138ccfc695e9774ac\n      swap1\n        /* \"#utility.yul\":3365:3367   */\n      0x60\n        /* \"#utility.yul\":3350:3368   */\n      add\n        /* \"src/assets/BBD_Token.sol\":25983:26036  TokensUnlocked(lastUnlockMonth, share, totalUnlocked) */\n      mload(0x40)\n      dup1\n      swap2\n      sub\n      swap1\n      log1\n        /* \"src/assets/BBD_Token.sol\":24488:26044  {... */\n      pop\n      pop\n      pop\n        /* \"src/assets/BBD_Token.sol\":24447:26044  function unlockTokens() external isOwner {... */\n      jump\t// out\n        /* \"src/assets/BBD_Token.sol\":20491:20621  function _approve(address owner, address spender, uint256 value) internal {... */\n    tag_168:\n        /* \"src/assets/BBD_Token.sol\":20576:20613  _approve(owner, spender, value, true) */\n      tag_315\n        /* \"src/assets/BBD_Token.sol\":20585:20590  owner */\n      dup4\n        /* \"src/assets/BBD_Token.sol\":20592:20599  spender */\n      dup4\n        /* \"src/assets/BBD_Token.sol\":20601:20606  value */\n      dup4\n        /* \"src/assets/BBD_Token.sol\":20608:20612  true */\n      0x01\n        /* \"src/assets/BBD_Token.sol\":20576:20584  _approve */\n      tag_316\n        /* \"src/assets/BBD_Token.sol\":20576:20613  _approve(owner, spender, value, true) */\n      jump\t// in\n    tag_315:\n        /* \"src/assets/BBD_Token.sol\":20491:20621  function _approve(address owner, address spender, uint256 value) internal {... */\n      pop\n      pop\n      pop\n      jump\t// out\n        /* \"src/assets/BBD_Token.sol\":22266:22868  function _spendAllowance(... */\n    tag_173:\n      sub(shl(0xa0, 0x01), 0x01)\n        /* \"src/assets/BBD_Token.sol\":15040:15058  _allowances[owner] */\n      dup4\n      dup2\n      and\n        /* \"src/assets/BBD_Token.sol\":22400:22424  uint256 currentAllowance */\n      0x00\n        /* \"src/assets/BBD_Token.sol\":15040:15058  _allowances[owner] */\n      swap1\n      dup2\n      mstore\n        /* \"src/assets/BBD_Token.sol\":15040:15051  _allowances */\n      0x01\n        /* \"src/assets/BBD_Token.sol\":15040:15058  _allowances[owner] */\n      0x20\n      swap1\n      dup2\n      mstore\n      0x40\n      dup1\n      dup4\n      keccak256\n        /* \"src/assets/BBD_Token.sol\":15040:15067  _allowances[owner][spender] */\n      swap4\n      dup7\n      and\n      dup4\n      mstore\n      swap3\n      swap1\n      mstore\n      keccak256\n      sload\n      not(0x00)\n        /* \"src/assets/BBD_Token.sol\":22467:22503  currentAllowance < type(uint256).max */\n      dup2\n      lt\n        /* \"src/assets/BBD_Token.sol\":22463:22861  if (currentAllowance < type(uint256).max) {... */\n      iszero\n      tag_323\n      jumpi\n        /* \"src/assets/BBD_Token.sol\":22543:22548  value */\n      dup2\n        /* \"src/assets/BBD_Token.sol\":22524:22540  currentAllowance */\n      dup2\n        /* \"src/assets/BBD_Token.sol\":22524:22548  currentAllowance < value */\n      lt\n        /* \"src/assets/BBD_Token.sol\":22520:22734  if (currentAllowance < value) {... */\n      iszero\n      tag_320\n      jumpi\n        /* \"src/assets/BBD_Token.sol\":22576:22718  ERC20InsufficientAllowance(... */\n      mload(0x40)\n      shl(0xe1, 0x7dc7a0d9)\n      dup2\n      mstore\n      sub(shl(0xa0, 0x01), 0x01)\n        /* \"#utility.yul\":7035:7067   */\n      dup5\n      and\n        /* \"src/assets/BBD_Token.sol\":22576:22718  ERC20InsufficientAllowance(... */\n      0x04\n      dup3\n      add\n        /* \"#utility.yul\":7017:7068   */\n      mstore\n        /* \"#utility.yul\":7084:7102   */\n      0x24\n      dup2\n      add\n        /* \"#utility.yul\":7077:7111   */\n      dup3\n      swap1\n      mstore\n        /* \"#utility.yul\":7127:7145   */\n      0x44\n      dup2\n      add\n        /* \"#utility.yul\":7120:7154   */\n      dup4\n      swap1\n      mstore\n        /* \"#utility.yul\":6990:7008   */\n      0x64\n      add\n        /* \"src/assets/BBD_Token.sol\":22576:22718  ERC20InsufficientAllowance(... */\n      tag_178\n        /* \"#utility.yul\":6815:7160   */\n      jump\n        /* \"src/assets/BBD_Token.sol\":22520:22734  if (currentAllowance < value) {... */\n    tag_320:\n        /* \"src/assets/BBD_Token.sol\":22777:22834  _approve(owner, spender, currentAllowance - value, false) */\n      tag_323\n        /* \"src/assets/BBD_Token.sol\":22786:22791  owner */\n      dup5\n        /* \"src/assets/BBD_Token.sol\":22793:22800  spender */\n      dup5\n        /* \"src/assets/BBD_Token.sol\":22821:22826  value */\n      dup5\n        /* \"src/assets/BBD_Token.sol\":22802:22818  currentAllowance */\n      dup5\n        /* \"src/assets/BBD_Token.sol\":22802:22826  currentAllowance - value */\n      sub\n        /* \"src/assets/BBD_Token.sol\":22828:22833  false */\n      0x00\n        /* \"src/assets/BBD_Token.sol\":22777:22785  _approve */\n      tag_316\n        /* \"src/assets/BBD_Token.sol\":22777:22834  _approve(owner, spender, currentAllowance - value, false) */\n      jump\t// in\n    tag_323:\n        /* \"src/assets/BBD_Token.sol\":22389:22868  {... */\n      pop\n        /* \"src/assets/BBD_Token.sol\":22266:22868  function _spendAllowance(... */\n      pop\n      pop\n      pop\n      jump\t// out\n        /* \"src/assets/BBD_Token.sol\":16887:17195  function _transfer(address from, address to, uint256 value) internal {... */\n    tag_175:\n      sub(shl(0xa0, 0x01), 0x01)\n        /* \"src/assets/BBD_Token.sol\":16971:16989  from == address(0) */\n      dup4\n      and\n        /* \"src/assets/BBD_Token.sol\":16967:17055  if (from == address(0)) {... */\n      tag_325\n      jumpi\n        /* \"src/assets/BBD_Token.sol\":17013:17043  ERC20InvalidSender(address(0)) */\n      mload(0x40)\n      shl(0xe1, 0x4b637e8f)\n      dup2\n      mstore\n        /* \"src/assets/BBD_Token.sol\":17040:17041  0 */\n      0x00\n        /* \"src/assets/BBD_Token.sol\":17013:17043  ERC20InvalidSender(address(0)) */\n      0x04\n      dup3\n      add\n        /* \"#utility.yul\":160:211   */\n      mstore\n        /* \"#utility.yul\":133:151   */\n      0x24\n      add\n        /* \"src/assets/BBD_Token.sol\":17013:17043  ERC20InvalidSender(address(0)) */\n      tag_178\n        /* \"#utility.yul\":14:217   */\n      jump\n        /* \"src/assets/BBD_Token.sol\":16967:17055  if (from == address(0)) {... */\n    tag_325:\n      sub(shl(0xa0, 0x01), 0x01)\n        /* \"src/assets/BBD_Token.sol\":17069:17085  to == address(0) */\n      dup3\n      and\n        /* \"src/assets/BBD_Token.sol\":17065:17153  if (to == address(0)) {... */\n      tag_327\n      jumpi\n        /* \"src/assets/BBD_Token.sol\":17109:17141  ERC20InvalidReceiver(address(0)) */\n      mload(0x40)\n      shl(0xe0, 0xec442f05)\n      dup2\n      mstore\n        /* \"src/assets/BBD_Token.sol\":17138:17139  0 */\n      0x00\n        /* \"src/assets/BBD_Token.sol\":17109:17141  ERC20InvalidReceiver(address(0)) */\n      0x04\n      dup3\n      add\n        /* \"#utility.yul\":160:211   */\n      mstore\n        /* \"#utility.yul\":133:151   */\n      0x24\n      add\n        /* \"src/assets/BBD_Token.sol\":17109:17141  ERC20InvalidReceiver(address(0)) */\n      tag_178\n        /* \"#utility.yul\":14:217   */\n      jump\n        /* \"src/assets/BBD_Token.sol\":17065:17153  if (to == address(0)) {... */\n    tag_327:\n        /* \"src/assets/BBD_Token.sol\":17163:17187  _update(from, to, value) */\n      tag_315\n        /* \"src/assets/BBD_Token.sol\":17171:17175  from */\n      dup4\n        /* \"src/assets/BBD_Token.sol\":17177:17179  to */\n      dup4\n        /* \"src/assets/BBD_Token.sol\":17181:17186  value */\n      dup4\n        /* \"src/assets/BBD_Token.sol\":17163:17170  _update */\n      tag_330\n        /* \"src/assets/BBD_Token.sol\":17163:17187  _update(from, to, value) */\n      jump\t// in\n        /* \"src/assets/BBD_Token.sol\":21488:21974  function _approve(... */\n    tag_316:\n      sub(shl(0xa0, 0x01), 0x01)\n        /* \"src/assets/BBD_Token.sol\":21644:21663  owner == address(0) */\n      dup5\n      and\n        /* \"src/assets/BBD_Token.sol\":21640:21731  if (owner == address(0)) {... */\n      tag_332\n      jumpi\n        /* \"src/assets/BBD_Token.sol\":21687:21719  ERC20InvalidApprover(address(0)) */\n      mload(0x40)\n      shl(0xe0, 0xe602df05)\n      dup2\n      mstore\n        /* \"src/assets/BBD_Token.sol\":21716:21717  0 */\n      0x00\n        /* \"src/assets/BBD_Token.sol\":21687:21719  ERC20InvalidApprover(address(0)) */\n      0x04\n      dup3\n      add\n        /* \"#utility.yul\":160:211   */\n      mstore\n        /* \"#utility.yul\":133:151   */\n      0x24\n      add\n        /* \"src/assets/BBD_Token.sol\":21687:21719  ERC20InvalidApprover(address(0)) */\n      tag_178\n        /* \"#utility.yul\":14:217   */\n      jump\n        /* \"src/assets/BBD_Token.sol\":21640:21731  if (owner == address(0)) {... */\n    tag_332:\n      sub(shl(0xa0, 0x01), 0x01)\n        /* \"src/assets/BBD_Token.sol\":21745:21766  spender == address(0) */\n      dup4\n      and\n        /* \"src/assets/BBD_Token.sol\":21741:21833  if (spender == address(0)) {... */\n      tag_334\n      jumpi\n        /* \"src/assets/BBD_Token.sol\":21790:21821  ERC20InvalidSpender(address(0)) */\n      mload(0x40)\n      shl(0xe1, 0x4a1406b1)\n      dup2\n      mstore\n        /* \"src/assets/BBD_Token.sol\":21818:21819  0 */\n      0x00\n        /* \"src/assets/BBD_Token.sol\":21790:21821  ERC20InvalidSpender(address(0)) */\n      0x04\n      dup3\n      add\n        /* \"#utility.yul\":160:211   */\n      mstore\n        /* \"#utility.yul\":133:151   */\n      0x24\n      add\n        /* \"src/assets/BBD_Token.sol\":21790:21821  ERC20InvalidSpender(address(0)) */\n      tag_178\n        /* \"#utility.yul\":14:217   */\n      jump\n        /* \"src/assets/BBD_Token.sol\":21741:21833  if (spender == address(0)) {... */\n    tag_334:\n      sub(shl(0xa0, 0x01), 0x01)\n        /* \"src/assets/BBD_Token.sol\":21843:21861  _allowances[owner] */\n      dup1\n      dup6\n      and\n      0x00\n      swap1\n      dup2\n      mstore\n        /* \"src/assets/BBD_Token.sol\":21843:21854  _allowances */\n      0x01\n        /* \"src/assets/BBD_Token.sol\":21843:21861  _allowances[owner] */\n      0x20\n      swap1\n      dup2\n      mstore\n      0x40\n      dup1\n      dup4\n      keccak256\n        /* \"src/assets/BBD_Token.sol\":21843:21870  _allowances[owner][spender] */\n      swap4\n      dup8\n      and\n      dup4\n      mstore\n      swap3\n      swap1\n      mstore\n      keccak256\n        /* \"src/assets/BBD_Token.sol\":21843:21878  _allowances[owner][spender] = value */\n      dup3\n      swap1\n      sstore\n        /* \"src/assets/BBD_Token.sol\":21889:21967  if (emitEvent) {... */\n      dup1\n      iszero\n      tag_323\n      jumpi\n        /* \"src/assets/BBD_Token.sol\":21940:21947  spender */\n      dup3\n      sub(shl(0xa0, 0x01), 0x01)\n        /* \"src/assets/BBD_Token.sol\":21924:21955  Approval(owner, spender, value) */\n      and\n        /* \"src/assets/BBD_Token.sol\":21933:21938  owner */\n      dup5\n      sub(shl(0xa0, 0x01), 0x01)\n        /* \"src/assets/BBD_Token.sol\":21924:21955  Approval(owner, spender, value) */\n      and\n      0x8c5be1e5ebec7d5bd14f71427d1e84f3dd0314c0f7b2291e5b200ac8c7c3b925\n        /* \"src/assets/BBD_Token.sol\":21949:21954  value */\n      dup5\n        /* \"src/assets/BBD_Token.sol\":21924:21955  Approval(owner, spender, value) */\n      mload(0x40)\n      tag_337\n      swap2\n        /* \"#utility.yul\":1466:1491   */\n      dup2\n      mstore\n        /* \"#utility.yul\":1454:1456   */\n      0x20\n        /* \"#utility.yul\":1439:1457   */\n      add\n      swap1\n        /* \"#utility.yul\":1320:1497   */\n      jump\n        /* \"src/assets/BBD_Token.sol\":21924:21955  Approval(owner, spender, value) */\n    tag_337:\n      mload(0x40)\n      dup1\n      swap2\n      sub\n      swap1\n      log3\n        /* \"src/assets/BBD_Token.sol\":21488:21974  function _approve(... */\n      pop\n      pop\n      pop\n      pop\n      jump\t// out\n        /* \"src/assets/BBD_Token.sol\":17519:18702  function _update(address from, address to, uint256 value) internal virtual {... */\n    tag_330:\n        /* \"src/assets/BBD_Token.sol\":17605:17642  _beforeTokenTransfer(from, to, value) */\n      tag_339\n        /* \"src/assets/BBD_Token.sol\":17626:17630  from */\n      dup4\n        /* \"src/assets/BBD_Token.sol\":17632:17634  to */\n      dup4\n        /* \"src/assets/BBD_Token.sol\":17636:17641  value */\n      dup4\n        /* \"src/assets/BBD_Token.sol\":17605:17625  _beforeTokenTransfer */\n      tag_340\n        /* \"src/assets/BBD_Token.sol\":17605:17642  _beforeTokenTransfer(from, to, value) */\n      jump\t// in\n    tag_339:\n      sub(shl(0xa0, 0x01), 0x01)\n        /* \"src/assets/BBD_Token.sol\":17657:17675  from == address(0) */\n      dup4\n      and\n        /* \"src/assets/BBD_Token.sol\":17653:18205  if (from == address(0)) {... */\n      tag_341\n      jumpi\n        /* \"src/assets/BBD_Token.sol\":17811:17816  value */\n      dup1\n        /* \"src/assets/BBD_Token.sol\":17795:17807  _totalSupply */\n      0x02\n      0x00\n        /* \"src/assets/BBD_Token.sol\":17795:17816  _totalSupply += value */\n      dup3\n      dup3\n      sload\n      tag_342\n      swap2\n      swap1\n      tag_225\n      jump\t// in\n    tag_342:\n      swap1\n      swap2\n      sstore\n      pop\n        /* \"src/assets/BBD_Token.sol\":17653:18205  if (from == address(0)) {... */\n      tag_343\n      swap1\n      pop\n      jump\n    tag_341:\n      sub(shl(0xa0, 0x01), 0x01)\n        /* \"src/assets/BBD_Token.sol\":17871:17886  _balances[from] */\n      dup4\n      and\n        /* \"src/assets/BBD_Token.sol\":17849:17868  uint256 fromBalance */\n      0x00\n        /* \"src/assets/BBD_Token.sol\":17871:17886  _balances[from] */\n      swap1\n      dup2\n      mstore\n      0x20\n      dup2\n      swap1\n      mstore\n      0x40\n      swap1\n      keccak256\n      sload\n        /* \"src/assets/BBD_Token.sol\":17905:17924  fromBalance < value */\n      dup2\n      dup2\n      lt\n        /* \"src/assets/BBD_Token.sol\":17901:18018  if (fromBalance < value) {... */\n      iszero\n      tag_344\n      jumpi\n        /* \"src/assets/BBD_Token.sol\":17952:18002  ERC20InsufficientBalance(from, fromBalance, value) */\n      mload(0x40)\n      shl(0xe2, 0x391434e3)\n      dup2\n      mstore\n      sub(shl(0xa0, 0x01), 0x01)\n        /* \"#utility.yul\":7035:7067   */\n      dup6\n      and\n        /* \"src/assets/BBD_Token.sol\":17952:18002  ERC20InsufficientBalance(from, fromBalance, value) */\n      0x04\n      dup3\n      add\n        /* \"#utility.yul\":7017:7068   */\n      mstore\n        /* \"#utility.yul\":7084:7102   */\n      0x24\n      dup2\n      add\n        /* \"#utility.yul\":7077:7111   */\n      dup3\n      swap1\n      mstore\n        /* \"#utility.yul\":7127:7145   */\n      0x44\n      dup2\n      add\n        /* \"#utility.yul\":7120:7154   */\n      dup4\n      swap1\n      mstore\n        /* \"#utility.yul\":6990:7008   */\n      0x64\n      add\n        /* \"src/assets/BBD_Token.sol\":17952:18002  ERC20InsufficientBalance(from, fromBalance, value) */\n      tag_178\n        /* \"#utility.yul\":6815:7160   */\n      jump\n        /* \"src/assets/BBD_Token.sol\":17901:18018  if (fromBalance < value) {... */\n    tag_344:\n      sub(shl(0xa0, 0x01), 0x01)\n        /* \"src/assets/BBD_Token.sol\":18141:18156  _balances[from] */\n      dup5\n      and\n        /* \"src/assets/BBD_Token.sol\":18141:18150  _balances */\n      0x00\n        /* \"src/assets/BBD_Token.sol\":18141:18156  _balances[from] */\n      swap1\n      dup2\n      mstore\n      0x20\n      dup2\n      swap1\n      mstore\n      0x40\n      swap1\n      keccak256\n        /* \"src/assets/BBD_Token.sol\":18159:18178  fromBalance - value */\n      swap1\n      dup3\n      swap1\n      sub\n        /* \"src/assets/BBD_Token.sol\":18141:18178  _balances[from] = fromBalance - value */\n      swap1\n      sstore\n        /* \"src/assets/BBD_Token.sol\":17653:18205  if (from == address(0)) {... */\n    tag_343:\n      sub(shl(0xa0, 0x01), 0x01)\n        /* \"src/assets/BBD_Token.sol\":18221:18237  to == address(0) */\n      dup3\n      and\n        /* \"src/assets/BBD_Token.sol\":18217:18652  if (to == address(0)) {... */\n      tag_346\n      jumpi\n        /* \"src/assets/BBD_Token.sol\":18387:18399  _totalSupply */\n      0x02\n        /* \"src/assets/BBD_Token.sol\":18387:18408  _totalSupply -= value */\n      dup1\n      sload\n      dup3\n      swap1\n      sub\n      swap1\n      sstore\n        /* \"src/assets/BBD_Token.sol\":18217:18652  if (to == address(0)) {... */\n      jump(tag_347)\n    tag_346:\n      sub(shl(0xa0, 0x01), 0x01)\n        /* \"src/assets/BBD_Token.sol\":18603:18616  _balances[to] */\n      dup3\n      and\n        /* \"src/assets/BBD_Token.sol\":18603:18612  _balances */\n      0x00\n        /* \"src/assets/BBD_Token.sol\":18603:18616  _balances[to] */\n      swap1\n      dup2\n      mstore\n      0x20\n      dup2\n      swap1\n      mstore\n      0x40\n      swap1\n      keccak256\n        /* \"src/assets/BBD_Token.sol\":18603:18625  _balances[to] += value */\n      dup1\n      sload\n      dup3\n      add\n      swap1\n      sstore\n        /* \"src/assets/BBD_Token.sol\":18217:18652  if (to == address(0)) {... */\n    tag_347:\n        /* \"src/assets/BBD_Token.sol\":18684:18686  to */\n      dup2\n      sub(shl(0xa0, 0x01), 0x01)\n        /* \"src/assets/BBD_Token.sol\":18669:18694  Transfer(from, to, value) */\n      and\n        /* \"src/assets/BBD_Token.sol\":18678:18682  from */\n      dup4\n      sub(shl(0xa0, 0x01), 0x01)\n        /* \"src/assets/BBD_Token.sol\":18669:18694  Transfer(from, to, value) */\n      and\n      0xddf252ad1be2c89b69c2b068fc378daa952ba7f163c4a11628f55a4df523b3ef\n        /* \"src/assets/BBD_Token.sol\":18688:18693  value */\n      dup4\n        /* \"src/assets/BBD_Token.sol\":18669:18694  Transfer(from, to, value) */\n      mload(0x40)\n      tag_348\n      swap2\n        /* \"#utility.yul\":1466:1491   */\n      dup2\n      mstore\n        /* \"#utility.yul\":1454:1456   */\n      0x20\n        /* \"#utility.yul\":1439:1457   */\n      add\n      swap1\n        /* \"#utility.yul\":1320:1497   */\n      jump\n        /* \"src/assets/BBD_Token.sol\":18669:18694  Transfer(from, to, value) */\n    tag_348:\n      mload(0x40)\n      dup1\n      swap2\n      sub\n      swap1\n      log3\n        /* \"src/assets/BBD_Token.sol\":17519:18702  function _update(address from, address to, uint256 value) internal virtual {... */\n      pop\n      pop\n      pop\n      jump\t// out\n        /* \"src/assets/BBD_Token.sol\":28467:28676  function _beforeTokenTransfer(... */\n    tag_340:\n      sub(shl(0xa0, 0x01), 0x01)\n        /* \"src/assets/BBD_Token.sol\":27446:27459  isDex[sender] */\n      dup4\n      and\n      0x00\n      swap1\n      dup2\n      mstore\n        /* \"src/assets/BBD_Token.sol\":27446:27451  isDex */\n      0x0e\n        /* \"src/assets/BBD_Token.sol\":27446:27459  isDex[sender] */\n      0x20\n      mstore\n      0x40\n      swap1\n      keccak256\n      sload\n        /* \"src/assets/BBD_Token.sol\":28603:28607  from */\n      dup4\n      swap1\n        /* \"src/assets/BBD_Token.sol\":28609:28611  to */\n      dup4\n      swap1\n        /* \"src/assets/BBD_Token.sol\":27446:27459  isDex[sender] */\n      0xff\n      and\n        /* \"src/assets/BBD_Token.sol\":27446:27477  isDex[sender] && !buyingEnabled */\n      dup1\n      iszero\n      tag_350\n      jumpi\n      pop\n        /* \"src/assets/BBD_Token.sol\":27464:27477  buyingEnabled */\n      sload(0x0c)\n      shl(0xa0, 0x01)\n      swap1\n      div\n      0xff\n      and\n        /* \"src/assets/BBD_Token.sol\":27463:27477  !buyingEnabled */\n      iszero\n        /* \"src/assets/BBD_Token.sol\":27446:27477  isDex[sender] && !buyingEnabled */\n    tag_350:\n        /* \"src/assets/BBD_Token.sol\":27442:27628  if (isDex[sender] && !buyingEnabled) {... */\n      iszero\n      tag_353\n      jumpi\n        /* \"src/assets/BBD_Token.sol\":27533:27539  _owner */\n      sload(0x0d)\n      sub(shl(0xa0, 0x01), 0x01)\n        /* \"src/assets/BBD_Token.sol\":27520:27539  recipient == _owner */\n      dup3\n      dup2\n      and\n        /* \"src/assets/BBD_Token.sol\":27533:27539  _owner */\n      swap2\n      and\n        /* \"src/assets/BBD_Token.sol\":27520:27539  recipient == _owner */\n      eq\n      dup1\n        /* \"src/assets/BBD_Token.sol\":27520:27562  recipient == _owner || managers[recipient] */\n      tag_352\n      jumpi\n      pop\n      sub(shl(0xa0, 0x01), 0x01)\n        /* \"src/assets/BBD_Token.sol\":27543:27562  managers[recipient] */\n      dup2\n      and\n      0x00\n      swap1\n      dup2\n      mstore\n        /* \"src/assets/BBD_Token.sol\":27543:27551  managers */\n      0x0f\n        /* \"src/assets/BBD_Token.sol\":27543:27562  managers[recipient] */\n      0x20\n      mstore\n      0x40\n      swap1\n      keccak256\n      sload\n      0xff\n      and\n        /* \"src/assets/BBD_Token.sol\":27520:27562  recipient == _owner || managers[recipient] */\n    tag_352:\n        /* \"src/assets/BBD_Token.sol\":27494:27616  require(... */\n      tag_353\n      jumpi\n      mload(0x40)\n      shl(0xe5, 0x461bcd)\n      dup2\n      mstore\n        /* \"#utility.yul\":7367:7369   */\n      0x20\n        /* \"src/assets/BBD_Token.sol\":27494:27616  require(... */\n      0x04\n      dup3\n      add\n        /* \"#utility.yul\":7349:7370   */\n      mstore\n        /* \"#utility.yul\":7406:7408   */\n      0x12\n        /* \"#utility.yul\":7386:7404   */\n      0x24\n      dup3\n      add\n        /* \"#utility.yul\":7379:7409   */\n      mstore\n      shl(0x72, 0x109d5e5a5b99c81a5cc8191a5cd8589b1959)\n        /* \"#utility.yul\":7425:7443   */\n      0x44\n      dup3\n      add\n        /* \"#utility.yul\":7418:7466   */\n      mstore\n        /* \"#utility.yul\":7483:7501   */\n      0x64\n      add\n        /* \"src/assets/BBD_Token.sol\":27494:27616  require(... */\n      tag_178\n        /* \"#utility.yul\":7165:7507   */\n      jump\n        /* \"src/assets/BBD_Token.sol\":27494:27616  require(... */\n    tag_353:\n      sub(shl(0xa0, 0x01), 0x01)\n        /* \"src/assets/BBD_Token.sol\":27720:27736  isDex[recipient] */\n      dup2\n      and\n      0x00\n      swap1\n      dup2\n      mstore\n        /* \"src/assets/BBD_Token.sol\":27720:27725  isDex */\n      0x0e\n        /* \"src/assets/BBD_Token.sol\":27720:27736  isDex[recipient] */\n      0x20\n      mstore\n      0x40\n      swap1\n      keccak256\n      sload\n      0xff\n      and\n        /* \"src/assets/BBD_Token.sol\":27720:27755  isDex[recipient] && !sellingEnabled */\n      dup1\n      iszero\n      tag_356\n      jumpi\n      pop\n        /* \"src/assets/BBD_Token.sol\":27741:27755  sellingEnabled */\n      sload(0x0c)\n      shl(0xa8, 0x01)\n      swap1\n      div\n      0xff\n      and\n        /* \"src/assets/BBD_Token.sol\":27740:27755  !sellingEnabled */\n      iszero\n        /* \"src/assets/BBD_Token.sol\":27720:27755  isDex[recipient] && !sellingEnabled */\n    tag_356:\n        /* \"src/assets/BBD_Token.sol\":27716:27901  if (isDex[recipient] && !sellingEnabled) {... */\n      iszero\n      tag_359\n      jumpi\n        /* \"src/assets/BBD_Token.sol\":27808:27814  _owner */\n      sload(0x0d)\n      sub(shl(0xa0, 0x01), 0x01)\n        /* \"src/assets/BBD_Token.sol\":27798:27814  sender == _owner */\n      dup4\n      dup2\n      and\n        /* \"src/assets/BBD_Token.sol\":27808:27814  _owner */\n      swap2\n      and\n        /* \"src/assets/BBD_Token.sol\":27798:27814  sender == _owner */\n      eq\n      dup1\n        /* \"src/assets/BBD_Token.sol\":27798:27834  sender == _owner || managers[sender] */\n      tag_358\n      jumpi\n      pop\n      sub(shl(0xa0, 0x01), 0x01)\n        /* \"src/assets/BBD_Token.sol\":27818:27834  managers[sender] */\n      dup3\n      and\n      0x00\n      swap1\n      dup2\n      mstore\n        /* \"src/assets/BBD_Token.sol\":27818:27826  managers */\n      0x0f\n        /* \"src/assets/BBD_Token.sol\":27818:27834  managers[sender] */\n      0x20\n      mstore\n      0x40\n      swap1\n      keccak256\n      sload\n      0xff\n      and\n        /* \"src/assets/BBD_Token.sol\":27798:27834  sender == _owner || managers[sender] */\n    tag_358:\n        /* \"src/assets/BBD_Token.sol\":27772:27889  require(... */\n      tag_359\n      jumpi\n      mload(0x40)\n      shl(0xe5, 0x461bcd)\n      dup2\n      mstore\n        /* \"#utility.yul\":7714:7716   */\n      0x20\n        /* \"src/assets/BBD_Token.sol\":27772:27889  require(... */\n      0x04\n      dup3\n      add\n        /* \"#utility.yul\":7696:7717   */\n      mstore\n        /* \"#utility.yul\":7753:7755   */\n      0x13\n        /* \"#utility.yul\":7733:7751   */\n      0x24\n      dup3\n      add\n        /* \"#utility.yul\":7726:7756   */\n      mstore\n      shl(0x6a, 0x14d95b1b1a5b99c81a5cc8191a5cd8589b1959)\n        /* \"#utility.yul\":7772:7790   */\n      0x44\n      dup3\n      add\n        /* \"#utility.yul\":7765:7814   */\n      mstore\n        /* \"#utility.yul\":7831:7849   */\n      0x64\n      add\n        /* \"src/assets/BBD_Token.sol\":27772:27889  require(... */\n      tag_178\n        /* \"#utility.yul\":7512:7855   */\n      jump\n        /* \"src/assets/BBD_Token.sol\":27772:27889  require(... */\n    tag_359:\n        /* \"src/assets/BBD_Token.sol\":28467:28676  function _beforeTokenTransfer(... */\n      pop\n      pop\n      pop\n      pop\n      pop\n      jump\t// out\n        /* \"#utility.yul\":222:640   */\n    tag_49:\n        /* \"#utility.yul\":371:373   */\n      0x20\n        /* \"#utility.yul\":360:369   */\n      dup2\n        /* \"#utility.yul\":353:374   */\n      mstore\n        /* \"#utility.yul\":334:338   */\n      0x00\n        /* \"#utility.yul\":403:409   */\n      dup3\n        /* \"#utility.yul\":397:410   */\n      mload\n        /* \"#utility.yul\":446:452   */\n      dup1\n        /* \"#utility.yul\":441:443   */\n      0x20\n        /* \"#utility.yul\":430:439   */\n      dup5\n        /* \"#utility.yul\":426:444   */\n      add\n        /* \"#utility.yul\":419:453   */\n      mstore\n        /* \"#utility.yul\":505:511   */\n      dup1\n        /* \"#utility.yul\":500:502   */\n      0x20\n        /* \"#utility.yul\":492:498   */\n      dup6\n        /* \"#utility.yul\":488:503   */\n      add\n        /* \"#utility.yul\":483:485   */\n      0x40\n        /* \"#utility.yul\":472:481   */\n      dup6\n        /* \"#utility.yul\":468:486   */\n      add\n        /* \"#utility.yul\":462:512   */\n      mcopy\n        /* \"#utility.yul\":561:562   */\n      0x00\n        /* \"#utility.yul\":556:558   */\n      0x40\n        /* \"#utility.yul\":547:553   */\n      dup3\n        /* \"#utility.yul\":536:545   */\n      dup6\n        /* \"#utility.yul\":532:554   */\n      add\n        /* \"#utility.yul\":528:559   */\n      add\n        /* \"#utility.yul\":521:563   */\n      mstore\n        /* \"#utility.yul\":631:633   */\n      0x40\n        /* \"#utility.yul\":624:626   */\n      0x1f\n        /* \"#utility.yul\":620:627   */\n      not\n        /* \"#utility.yul\":615:617   */\n      0x1f\n        /* \"#utility.yul\":607:613   */\n      dup4\n        /* \"#utility.yul\":603:618   */\n      add\n        /* \"#utility.yul\":599:628   */\n      and\n        /* \"#utility.yul\":588:597   */\n      dup5\n        /* \"#utility.yul\":584:629   */\n      add\n        /* \"#utility.yul\":580:634   */\n      add\n        /* \"#utility.yul\":572:634   */\n      swap2\n      pop\n      pop\n        /* \"#utility.yul\":222:640   */\n      swap3\n      swap2\n      pop\n      pop\n      jump\t// out\n        /* \"#utility.yul\":645:818   */\n    tag_366:\n        /* \"#utility.yul\":713:733   */\n      dup1\n      calldataload\n      sub(shl(0xa0, 0x01), 0x01)\n        /* \"#utility.yul\":762:793   */\n      dup2\n      and\n        /* \"#utility.yul\":752:794   */\n      dup2\n      eq\n        /* \"#utility.yul\":742:812   */\n      tag_373\n      jumpi\n        /* \"#utility.yul\":808:809   */\n      0x00\n        /* \"#utility.yul\":805:806   */\n      dup1\n        /* \"#utility.yul\":798:810   */\n      revert\n        /* \"#utility.yul\":742:812   */\n    tag_373:\n        /* \"#utility.yul\":645:818   */\n      swap2\n      swap1\n      pop\n      jump\t// out\n        /* \"#utility.yul\":823:1123   */\n    tag_52:\n        /* \"#utility.yul\":891:897   */\n      0x00\n        /* \"#utility.yul\":899:905   */\n      dup1\n        /* \"#utility.yul\":952:954   */\n      0x40\n        /* \"#utility.yul\":940:949   */\n      dup4\n        /* \"#utility.yul\":931:938   */\n      dup6\n        /* \"#utility.yul\":927:950   */\n      sub\n        /* \"#utility.yul\":923:955   */\n      slt\n        /* \"#utility.yul\":920:972   */\n      iszero\n      tag_375\n      jumpi\n        /* \"#utility.yul\":968:969   */\n      0x00\n        /* \"#utility.yul\":965:966   */\n      dup1\n        /* \"#utility.yul\":958:970   */\n      revert\n        /* \"#utility.yul\":920:972   */\n    tag_375:\n        /* \"#utility.yul\":991:1020   */\n      tag_376\n        /* \"#utility.yul\":1010:1019   */\n      dup4\n        /* \"#utility.yul\":991:1020   */\n      tag_366\n      jump\t// in\n    tag_376:\n        /* \"#utility.yul\":981:1020   */\n      swap5\n        /* \"#utility.yul\":1089:1091   */\n      0x20\n        /* \"#utility.yul\":1074:1092   */\n      swap4\n      swap1\n      swap4\n      add\n        /* \"#utility.yul\":1061:1093   */\n      calldataload\n      swap4\n      pop\n      pop\n      pop\n        /* \"#utility.yul\":823:1123   */\n      jump\t// out\n        /* \"#utility.yul\":1502:1876   */\n    tag_62:\n        /* \"#utility.yul\":1579:1585   */\n      0x00\n        /* \"#utility.yul\":1587:1593   */\n      dup1\n        /* \"#utility.yul\":1595:1601   */\n      0x00\n        /* \"#utility.yul\":1648:1650   */\n      0x60\n        /* \"#utility.yul\":1636:1645   */\n      dup5\n        /* \"#utility.yul\":1627:1634   */\n      dup7\n        /* \"#utility.yul\":1623:1646   */\n      sub\n        /* \"#utility.yul\":1619:1651   */\n      slt\n        /* \"#utility.yul\":1616:1668   */\n      iszero\n      tag_380\n      jumpi\n        /* \"#utility.yul\":1664:1665   */\n      0x00\n        /* \"#utility.yul\":1661:1662   */\n      dup1\n        /* \"#utility.yul\":1654:1666   */\n      revert\n        /* \"#utility.yul\":1616:1668   */\n    tag_380:\n        /* \"#utility.yul\":1687:1716   */\n      tag_381\n        /* \"#utility.yul\":1706:1715   */\n      dup5\n        /* \"#utility.yul\":1687:1716   */\n      tag_366\n      jump\t// in\n    tag_381:\n        /* \"#utility.yul\":1677:1716   */\n      swap3\n      pop\n        /* \"#utility.yul\":1735:1773   */\n      tag_382\n        /* \"#utility.yul\":1769:1771   */\n      0x20\n        /* \"#utility.yul\":1758:1767   */\n      dup6\n        /* \"#utility.yul\":1754:1772   */\n      add\n        /* \"#utility.yul\":1735:1773   */\n      tag_366\n      jump\t// in\n    tag_382:\n        /* \"#utility.yul\":1502:1876   */\n      swap3\n      swap6\n        /* \"#utility.yul\":1725:1773   */\n      swap3\n      swap5\n      pop\n      pop\n      pop\n        /* \"#utility.yul\":1842:1844   */\n      0x40\n        /* \"#utility.yul\":1827:1845   */\n      swap2\n      swap1\n      swap2\n      add\n        /* \"#utility.yul\":1814:1846   */\n      calldataload\n      swap1\n        /* \"#utility.yul\":1502:1876   */\n      jump\t// out\n        /* \"#utility.yul\":1881:2181   */\n    tag_67:\n        /* \"#utility.yul\":1949:1955   */\n      0x00\n        /* \"#utility.yul\":1957:1963   */\n      dup1\n        /* \"#utility.yul\":2010:2012   */\n      0x40\n        /* \"#utility.yul\":1998:2007   */\n      dup4\n        /* \"#utility.yul\":1989:1996   */\n      dup6\n        /* \"#utility.yul\":1985:2008   */\n      sub\n        /* \"#utility.yul\":1981:2013   */\n      slt\n        /* \"#utility.yul\":1978:2030   */\n      iszero\n      tag_384\n      jumpi\n        /* \"#utility.yul\":2026:2027   */\n      0x00\n        /* \"#utility.yul\":2023:2024   */\n      dup1\n        /* \"#utility.yul\":2016:2028   */\n      revert\n        /* \"#utility.yul\":1978:2030   */\n    tag_384:\n        /* \"#utility.yul\":2071:2094   */\n      dup3\n      calldataload\n      swap2\n      pop\n        /* \"#utility.yul\":2137:2175   */\n      tag_385\n        /* \"#utility.yul\":2171:2173   */\n      0x20\n        /* \"#utility.yul\":2156:2174   */\n      dup5\n      add\n        /* \"#utility.yul\":2137:2175   */\n      tag_366\n      jump\t// in\n    tag_385:\n        /* \"#utility.yul\":2127:2175   */\n      swap1\n      pop\n        /* \"#utility.yul\":1881:2181   */\n      swap3\n      pop\n      swap3\n      swap1\n      pop\n      jump\t// out\n        /* \"#utility.yul\":2375:2561   */\n    tag_78:\n        /* \"#utility.yul\":2434:2440   */\n      0x00\n        /* \"#utility.yul\":2487:2489   */\n      0x20\n        /* \"#utility.yul\":2475:2484   */\n      dup3\n        /* \"#utility.yul\":2466:2473   */\n      dup5\n        /* \"#utility.yul\":2462:2485   */\n      sub\n        /* \"#utility.yul\":2458:2490   */\n      slt\n        /* \"#utility.yul\":2455:2507   */\n      iszero\n      tag_388\n      jumpi\n        /* \"#utility.yul\":2503:2504   */\n      0x00\n        /* \"#utility.yul\":2500:2501   */\n      dup1\n        /* \"#utility.yul\":2493:2505   */\n      revert\n        /* \"#utility.yul\":2455:2507   */\n    tag_388:\n        /* \"#utility.yul\":2526:2555   */\n      tag_389\n        /* \"#utility.yul\":2545:2554   */\n      dup3\n        /* \"#utility.yul\":2526:2555   */\n      tag_366\n      jump\t// in\n    tag_389:\n        /* \"#utility.yul\":2516:2555   */\n      swap4\n        /* \"#utility.yul\":2375:2561   */\n      swap3\n      pop\n      pop\n      pop\n      jump\t// out\n        /* \"#utility.yul\":2566:2726   */\n    tag_367:\n        /* \"#utility.yul\":2631:2651   */\n      dup1\n      calldataload\n        /* \"#utility.yul\":2687:2700   */\n      dup1\n      iszero\n        /* \"#utility.yul\":2680:2701   */\n      iszero\n        /* \"#utility.yul\":2670:2702   */\n      dup2\n      eq\n        /* \"#utility.yul\":2660:2720   */\n      tag_373\n      jumpi\n        /* \"#utility.yul\":2716:2717   */\n      0x00\n        /* \"#utility.yul\":2713:2714   */\n      dup1\n        /* \"#utility.yul\":2706:2718   */\n      revert\n        /* \"#utility.yul\":2731:2985   */\n    tag_90:\n        /* \"#utility.yul\":2796:2802   */\n      0x00\n        /* \"#utility.yul\":2804:2810   */\n      dup1\n        /* \"#utility.yul\":2857:2859   */\n      0x40\n        /* \"#utility.yul\":2845:2854   */\n      dup4\n        /* \"#utility.yul\":2836:2843   */\n      dup6\n        /* \"#utility.yul\":2832:2855   */\n      sub\n        /* \"#utility.yul\":2828:2860   */\n      slt\n        /* \"#utility.yul\":2825:2877   */\n      iszero\n      tag_393\n      jumpi\n        /* \"#utility.yul\":2873:2874   */\n      0x00\n        /* \"#utility.yul\":2870:2871   */\n      dup1\n        /* \"#utility.yul\":2863:2875   */\n      revert\n        /* \"#utility.yul\":2825:2877   */\n    tag_393:\n        /* \"#utility.yul\":2896:2925   */\n      tag_394\n        /* \"#utility.yul\":2915:2924   */\n      dup4\n        /* \"#utility.yul\":2896:2925   */\n      tag_366\n      jump\t// in\n    tag_394:\n        /* \"#utility.yul\":2886:2925   */\n      swap2\n      pop\n        /* \"#utility.yul\":2944:2979   */\n      tag_385\n        /* \"#utility.yul\":2975:2977   */\n      0x20\n        /* \"#utility.yul\":2964:2973   */\n      dup5\n        /* \"#utility.yul\":2960:2978   */\n      add\n        /* \"#utility.yul\":2944:2979   */\n      tag_367\n      jump\t// in\n        /* \"#utility.yul\":2990:3170   */\n    tag_100:\n        /* \"#utility.yul\":3046:3052   */\n      0x00\n        /* \"#utility.yul\":3099:3101   */\n      0x20\n        /* \"#utility.yul\":3087:3096   */\n      dup3\n        /* \"#utility.yul\":3078:3085   */\n      dup5\n        /* \"#utility.yul\":3074:3097   */\n      sub\n        /* \"#utility.yul\":3070:3102   */\n      slt\n        /* \"#utility.yul\":3067:3119   */\n      iszero\n      tag_397\n      jumpi\n        /* \"#utility.yul\":3115:3116   */\n      0x00\n        /* \"#utility.yul\":3112:3113   */\n      dup1\n        /* \"#utility.yul\":3105:3117   */\n      revert\n        /* \"#utility.yul\":3067:3119   */\n    tag_397:\n        /* \"#utility.yul\":3138:3164   */\n      tag_389\n        /* \"#utility.yul\":3154:3163   */\n      dup3\n        /* \"#utility.yul\":3138:3164   */\n      tag_367\n      jump\t// in\n        /* \"#utility.yul\":3499:3759   */\n    tag_139:\n        /* \"#utility.yul\":3567:3573   */\n      0x00\n        /* \"#utility.yul\":3575:3581   */\n      dup1\n        /* \"#utility.yul\":3628:3630   */\n      0x40\n        /* \"#utility.yul\":3616:3625   */\n      dup4\n        /* \"#utility.yul\":3607:3614   */\n      dup6\n        /* \"#utility.yul\":3603:3626   */\n      sub\n        /* \"#utility.yul\":3599:3631   */\n      slt\n        /* \"#utility.yul\":3596:3648   */\n      iszero\n      tag_401\n      jumpi\n        /* \"#utility.yul\":3644:3645   */\n      0x00\n        /* \"#utility.yul\":3641:3642   */\n      dup1\n        /* \"#utility.yul\":3634:3646   */\n      revert\n        /* \"#utility.yul\":3596:3648   */\n    tag_401:\n        /* \"#utility.yul\":3667:3696   */\n      tag_402\n        /* \"#utility.yul\":3686:3695   */\n      dup4\n        /* \"#utility.yul\":3667:3696   */\n      tag_366\n      jump\t// in\n    tag_402:\n        /* \"#utility.yul\":3657:3696   */\n      swap2\n      pop\n        /* \"#utility.yul\":3715:3753   */\n      tag_385\n        /* \"#utility.yul\":3749:3751   */\n      0x20\n        /* \"#utility.yul\":3738:3747   */\n      dup5\n        /* \"#utility.yul\":3734:3752   */\n      add\n        /* \"#utility.yul\":3715:3753   */\n      tag_366\n      jump\t// in\n        /* \"#utility.yul\":3764:4144   */\n    tag_159:\n        /* \"#utility.yul\":3843:3844   */\n      0x01\n        /* \"#utility.yul\":3839:3851   */\n      dup2\n      dup2\n      shr\n      swap1\n        /* \"#utility.yul\":3886:3898   */\n      dup3\n      and\n      dup1\n        /* \"#utility.yul\":3907:3968   */\n      tag_405\n      jumpi\n        /* \"#utility.yul\":3961:3965   */\n      0x7f\n        /* \"#utility.yul\":3953:3959   */\n      dup3\n        /* \"#utility.yul\":3949:3966   */\n      and\n        /* \"#utility.yul\":3939:3966   */\n      swap2\n      pop\n        /* \"#utility.yul\":3907:3968   */\n    tag_405:\n        /* \"#utility.yul\":4014:4016   */\n      0x20\n        /* \"#utility.yul\":4006:4012   */\n      dup3\n        /* \"#utility.yul\":4003:4017   */\n      lt\n        /* \"#utility.yul\":3983:4001   */\n      dup2\n        /* \"#utility.yul\":3980:4018   */\n      sub\n        /* \"#utility.yul\":3977:4138   */\n      tag_406\n      jumpi\n        /* \"#utility.yul\":4060:4070   */\n      0x4e487b71\n        /* \"#utility.yul\":4055:4058   */\n      0xe0\n        /* \"#utility.yul\":4051:4071   */\n      shl\n        /* \"#utility.yul\":4048:4049   */\n      0x00\n        /* \"#utility.yul\":4041:4072   */\n      mstore\n        /* \"#utility.yul\":4095:4099   */\n      0x22\n        /* \"#utility.yul\":4092:4093   */\n      0x04\n        /* \"#utility.yul\":4085:4100   */\n      mstore\n        /* \"#utility.yul\":4123:4127   */\n      0x24\n        /* \"#utility.yul\":4120:4121   */\n      0x00\n        /* \"#utility.yul\":4113:4128   */\n      revert\n        /* \"#utility.yul\":3977:4138   */\n    tag_406:\n      pop\n        /* \"#utility.yul\":3764:4144   */\n      swap2\n      swap1\n      pop\n      jump\t// out\n        /* \"#utility.yul\":4149:4485   */\n    tag_179:\n        /* \"#utility.yul\":4351:4353   */\n      0x20\n        /* \"#utility.yul\":4333:4354   */\n      dup1\n      dup3\n      mstore\n        /* \"#utility.yul\":4390:4392   */\n      0x0c\n        /* \"#utility.yul\":4370:4388   */\n      swap1\n      dup3\n      add\n        /* \"#utility.yul\":4363:4393   */\n      mstore\n      shl(0xa0, 0x4e6f7420616c6c6f77656421)\n        /* \"#utility.yul\":4424:4426   */\n      0x40\n        /* \"#utility.yul\":4409:4427   */\n      dup3\n      add\n        /* \"#utility.yul\":4402:4444   */\n      mstore\n        /* \"#utility.yul\":4476:4478   */\n      0x60\n        /* \"#utility.yul\":4461:4479   */\n      add\n      swap1\n        /* \"#utility.yul\":4149:4485   */\n      jump\t// out\n        /* \"#utility.yul\":4832:4959   */\n    tag_368:\n        /* \"#utility.yul\":4893:4903   */\n      0x4e487b71\n        /* \"#utility.yul\":4888:4891   */\n      0xe0\n        /* \"#utility.yul\":4884:4904   */\n      shl\n        /* \"#utility.yul\":4881:4882   */\n      0x00\n        /* \"#utility.yul\":4874:4905   */\n      mstore\n        /* \"#utility.yul\":4924:4928   */\n      0x11\n        /* \"#utility.yul\":4921:4922   */\n      0x04\n        /* \"#utility.yul\":4914:4929   */\n      mstore\n        /* \"#utility.yul\":4948:4952   */\n      0x24\n        /* \"#utility.yul\":4945:4946   */\n      0x00\n        /* \"#utility.yul\":4938:4953   */\n      revert\n        /* \"#utility.yul\":4964:5089   */\n    tag_225:\n        /* \"#utility.yul\":5029:5038   */\n      dup1\n      dup3\n      add\n        /* \"#utility.yul\":5050:5060   */\n      dup1\n      dup3\n      gt\n        /* \"#utility.yul\":5047:5083   */\n      iszero\n      tag_164\n      jumpi\n        /* \"#utility.yul\":5063:5081   */\n      tag_164\n      tag_368\n      jump\t// in\n        /* \"#utility.yul\":5094:5222   */\n    tag_228:\n        /* \"#utility.yul\":5161:5170   */\n      dup2\n      dup2\n      sub\n        /* \"#utility.yul\":5182:5193   */\n      dup2\n      dup2\n      gt\n        /* \"#utility.yul\":5179:5216   */\n      iszero\n      tag_164\n      jumpi\n        /* \"#utility.yul\":5196:5214   */\n      tag_164\n      tag_368\n      jump\t// in\n        /* \"#utility.yul\":5227:5395   */\n    tag_230:\n        /* \"#utility.yul\":5300:5309   */\n      dup1\n      dup3\n      mul\n        /* \"#utility.yul\":5331:5340   */\n      dup2\n      iszero\n        /* \"#utility.yul\":5348:5363   */\n      dup3\n      dup3\n      div\n        /* \"#utility.yul\":5342:5364   */\n      dup5\n      eq\n        /* \"#utility.yul\":5328:5365   */\n      or\n        /* \"#utility.yul\":5318:5389   */\n      tag_164\n      jumpi\n        /* \"#utility.yul\":5369:5387   */\n      tag_164\n      tag_368\n      jump\t// in\n        /* \"#utility.yul\":5400:5617   */\n    tag_232:\n        /* \"#utility.yul\":5440:5441   */\n      0x00\n        /* \"#utility.yul\":5466:5467   */\n      dup3\n        /* \"#utility.yul\":5456:5588   */\n      tag_420\n      jumpi\n        /* \"#utility.yul\":5510:5520   */\n      0x4e487b71\n        /* \"#utility.yul\":5505:5508   */\n      0xe0\n        /* \"#utility.yul\":5501:5521   */\n      shl\n        /* \"#utility.yul\":5498:5499   */\n      0x00\n        /* \"#utility.yul\":5491:5522   */\n      mstore\n        /* \"#utility.yul\":5545:5549   */\n      0x12\n        /* \"#utility.yul\":5542:5543   */\n      0x04\n        /* \"#utility.yul\":5535:5550   */\n      mstore\n        /* \"#utility.yul\":5573:5577   */\n      0x24\n        /* \"#utility.yul\":5570:5571   */\n      0x00\n        /* \"#utility.yul\":5563:5578   */\n      revert\n        /* \"#utility.yul\":5456:5588   */\n    tag_420:\n      pop\n        /* \"#utility.yul\":5602:5611   */\n      div\n      swap1\n        /* \"#utility.yul\":5400:5617   */\n      jump\t// out\n        /* \"#utility.yul\":6329:6464   */\n    tag_295:\n        /* \"#utility.yul\":6368:6371   */\n      0x00\n        /* \"#utility.yul\":6389:6406   */\n      0x01\n      dup3\n      add\n        /* \"#utility.yul\":6386:6429   */\n      tag_425\n      jumpi\n        /* \"#utility.yul\":6409:6427   */\n      tag_425\n      tag_368\n      jump\t// in\n    tag_425:\n      pop\n        /* \"#utility.yul\":6456:6457   */\n      0x01\n        /* \"#utility.yul\":6445:6458   */\n      add\n      swap1\n        /* \"#utility.yul\":6329:6464   */\n      jump\t// out\n\n    auxdata: 0xa2646970667358221220e48139f6ec74dd2f2cd832075023aa86de42945a39e6a247f89762f6c0a3da2b64736f6c634300081a0033\n}\n",
				"bytecode": {
					"linkReferences": {},
					"object": "60a0604052600780546001600160a01b0319908116737ec13697d98925ba1dc2bcc705c071bd168b10c217909155600880548216738de119e98707ac240aba2cb77e83b29882a343571790556009805482167303499c18f7265be9afda16504a34cd1892f278ae179055600a8054821673cc234a1d3e32148461b7eacb5a8bf4d0c4b6be74179055600b805490911673ceea0e87b553bc445c5eb2242b5f28cd81b4acaa179055600c80547501017e23e2781a1da5dace87b4f0e7bf68191263fc326001600160b01b03199091161790553480156100db575f80fd5b5060405180604001604052806009815260200168212122102a37b5b2b760b91b8152506040518060400160405280600381526020016210909160ea1b81525081600390816101299190610509565b5060046101368282610509565b5050600d80546001600160a01b0319163390811790915561016491506b033b2e3c9fd0803ce800000061019c565b61018f3061018a6b033b2e3c9fd0803ce80000006b204fce5e3e250261100000006105d7565b61019c565b426080525f600555610603565b6001600160a01b0382166101ca5760405163ec442f0560e01b81525f60048201526024015b60405180910390fd5b6101d55f83836101d9565b5050565b6101e483838361030a565b6001600160a01b03831661020e578060025f82825461020391906105f0565b9091555061027e9050565b6001600160a01b0383165f90815260208190526040902054818110156102605760405163391434e360e21b81526001600160a01b038516600482015260248101829052604481018390526064016101c1565b6001600160a01b0384165f9081526020819052604090209082900390555b6001600160a01b03821661029a576002805482900390556102b8565b6001600160a01b0382165f9081526020819052604090208054820190555b816001600160a01b0316836001600160a01b03167fddf252ad1be2c89b69c2b068fc378daa952ba7f163c4a11628f55a4df523b3ef836040516102fd91815260200190565b60405180910390a3505050565b6001600160a01b0383165f908152600e60205260409020548390839060ff16801561033f5750600c54600160a01b900460ff16155b156103b857600d546001600160a01b038281169116148061037757506001600160a01b0381165f908152600f602052604090205460ff165b6103b85760405162461bcd60e51b8152602060048201526012602482015271109d5e5a5b99c81a5cc8191a5cd8589b195960721b60448201526064016101c1565b6001600160a01b0381165f908152600e602052604090205460ff1680156103e95750600c54600160a81b900460ff16155b1561046d57600d546001600160a01b038381169116148061042157506001600160a01b0382165f908152600f602052604090205460ff165b61046d5760405162461bcd60e51b815260206004820152601360248201527f53656c6c696e672069732064697361626c65640000000000000000000000000060448201526064016101c1565b5050505050565b505050565b634e487b7160e01b5f52604160045260245ffd5b600181811c908216806104a157607f821691505b6020821081036104bf57634e487b7160e01b5f52602260045260245ffd5b50919050565b601f82111561047457805f5260205f20601f840160051c810160208510156104ea5750805b601f840160051c820191505b8181101561046d575f81556001016104f6565b81516001600160401b0381111561052257610522610479565b61053681610530845461048d565b846104c5565b6020601f821160018114610568575f83156105515750848201515b5f19600385901b1c1916600184901b17845561046d565b5f84815260208120601f198516915b828110156105975787850151825560209485019460019092019101610577565b50848210156105b457868401515f19600387901b60f8161c191681555b50505050600190811b01905550565b634e487b7160e01b5f52601160045260245ffd5b818103818111156105ea576105ea6105c3565b92915050565b808201808211156105ea576105ea6105c3565b6080516114ce6106225f395f81816104570152610a9601526114ce5ff3fe608060405234801561000f575f80fd5b50600436106101e7575f3560e01c8063902d55a511610109578063ce7842f51161009e578063e8be9a441161006e578063e8be9a4414610479578063f771cb6514610481578063f968f49314610495578063fdff9b4d1461049d575f80fd5b8063ce7842f5146103f4578063d2f9efab14610407578063dd62ed3e1461041a578063e6fd48bc14610452575f80fd5b8063a9059cbb116100d9578063a9059cbb14610398578063b16d78cf146103ab578063b361412a146103be578063be381b85146103d1575f80fd5b8063902d55a51461036157806395d89b4114610374578063a5e90eee1461037c578063a779d0801461038f575f80fd5b80633c11e12a1161017f5780638310a74d1161014f5780638310a74d1461031f5780638342083a146103285780638ddedb331461033a5780638ed2fe911461034d575f80fd5b80633c11e12a146102af57806367859b6e146102d157806370a08231146102e45780637cdf6fb11461030c575f80fd5b806323b872dd116101ba57806323b872dd146102655780632be8781f146102785780632d3e474a1461028d578063313ce567146102a0575f80fd5b8063042249bb146101eb57806306fdde031461021b578063095ea7b31461023057806318160ddd14610253575b5f80fd5b600a546101fe906001600160a01b031681565b6040516001600160a01b0390911681526020015b60405180910390f35b6102236104bf565b604051610212919061123e565b61024361023e36600461128e565b61054f565b6040519015158152602001610212565b6002545b604051908152602001610212565b6102436102733660046112b6565b610568565b61028b6102863660046112f0565b61058b565b005b6009546101fe906001600160a01b031681565b60405160128152602001610212565b6102436102bd36600461131a565b600e6020525f908152604090205460ff1681565b6007546101fe906001600160a01b031681565b6102576102f236600461131a565b6001600160a01b03165f9081526020819052604090205490565b61028b61031a366004611349565b6106f7565b61025760055481565b610257676765c793fa10079d601b1b81565b61028b610348366004611371565b61074b565b600c5461024390600160a01b900460ff1681565b6102576b204fce5e3e2502611000000081565b610223610793565b61028b61038a366004611349565b6107a2565b61025760065481565b6102436103a636600461128e565b6107f6565b61028b6103b9366004611371565b610803565b600c546101fe906001600160a01b031681565b6103d961084b565b60408051938452602084019290925290820152606001610212565b600b546101fe906001600160a01b031681565b6008546101fe906001600160a01b031681565b61025761042836600461138a565b6001600160a01b039182165f90815260016020908152604080832093909416825291909152205490565b6102577f000000000000000000000000000000000000000000000000000000000000000081565b6102576109cd565b600c5461024390600160a81b900460ff1681565b61028b6109f1565b6102436104ab36600461131a565b600f6020525f908152604090205460ff1681565b6060600380546104ce906113b2565b80601f01602080910402602001604051908101604052809291908181526020018280546104fa906113b2565b80156105455780601f1061051c57610100808354040283529160200191610545565b820191905f5260205f20905b81548152906001019060200180831161052857829003601f168201915b5050505050905090565b5f3361055c818585610df0565b60019150505b92915050565b5f33610575858285610e02565b610580858585610e7e565b506001949350505050565b600d546001600160a01b031633146105be5760405162461bcd60e51b81526004016105b5906113ea565b60405180910390fd5b600182101580156105d0575060068211155b61060c5760405162461bcd60e51b815260206004820152600d60248201526c092dcecc2d8d2c840d2dcc8caf609b1b60448201526064016105b5565b8160010361063357600780546001600160a01b0319166001600160a01b0383161790555050565b8160020361065a57600880546001600160a01b0319166001600160a01b0383161790555050565b8160030361068157600980546001600160a01b0319166001600160a01b0383161790555050565b816004036106a857600a80546001600160a01b0319166001600160a01b0383161790555050565b816005036106cf57600b80546001600160a01b0319166001600160a01b0383161790555050565b816006036106f357600c80546001600160a01b0319166001600160a01b0383161790555b5050565b600d546001600160a01b031633146107215760405162461bcd60e51b81526004016105b5906113ea565b6001600160a01b03919091165f908152600e60205260409020805460ff1916911515919091179055565b600d546001600160a01b031633146107755760405162461bcd60e51b81526004016105b5906113ea565b600c8054911515600160a01b0260ff60a01b19909216919091179055565b6060600480546104ce906113b2565b600d546001600160a01b031633146107cc5760405162461bcd60e51b81526004016105b5906113ea565b6001600160a01b03919091165f908152600f60205260409020805460ff1916911515919091179055565b5f3361055c818585610e7e565b600d546001600160a01b0316331461082d5760405162461bcd60e51b81526004016105b5906113ea565b600c8054911515600160a81b0260ff60a81b19909216919091179055565b5f805f80600554600161085e9190611424565b9050600381116108a8576103e861088c676765c793fa10079d601b1b6b204fce5e3e25026110000000611437565b61089790600561144a565b6108a19190611461565b925061094f565b600681116108de5760646108d3676765c793fa10079d601b1b6b204fce5e3e25026110000000611437565b61089790600161144a565b60098111610914576064610909676765c793fa10079d601b1b6b204fce5e3e25026110000000611437565b61089790600261144a565b6064610937676765c793fa10079d601b1b6b204fce5e3e25026110000000611437565b61094290600361144a565b61094c9190611461565b92505b610970676765c793fa10079d601b1b6b204fce5e3e25026110000000611437565b60065461097d9085611424565b11156109b4576006546109a7676765c793fa10079d601b1b6b204fce5e3e25026110000000611437565b6109b19190611437565b92505b80836109c1600682611461565b93509350935050909192565b6109ee676765c793fa10079d601b1b6b204fce5e3e25026110000000611437565b81565b600d546001600160a01b03163314610a1b5760405162461bcd60e51b81526004016105b5906113ea565b610a3c676765c793fa10079d601b1b6b204fce5e3e25026110000000611437565b60065410610a8c5760405162461bcd60e51b815260206004820152601b60248201527f416c6c20746f6b656e7320616c726561647920756e6c6f636b6564000000000060448201526064016105b5565b5f62278d00610abb7f000000000000000000000000000000000000000000000000000000000000000042611437565b610ac59190611461565b90506005548111610b115760405162461bcd60e51b81526020600482015260166024820152754e6f206e6577206d6f6e746820746f20756e6c6f636b60501b60448201526064016105b5565b5f806005546001610b229190611424565b90505b828111610c415760038111610b7e576103e8610b58676765c793fa10079d601b1b6b204fce5e3e25026110000000611437565b610b6390600561144a565b610b6d9190611461565b610b779083611424565b9150610c2f565b60068111610bb4576064610ba9676765c793fa10079d601b1b6b204fce5e3e25026110000000611437565b610b6390600161144a565b60098111610bea576064610bdf676765c793fa10079d601b1b6b204fce5e3e25026110000000611437565b610b6390600261144a565b6064610c0d676765c793fa10079d601b1b6b204fce5e3e25026110000000611437565b610c1890600361144a565b610c229190611461565b610c2c9083611424565b91505b80610c3981611480565b915050610b25565b50610c63676765c793fa10079d601b1b6b204fce5e3e25026110000000611437565b600654610c709083611424565b1115610ca757600654610c9a676765c793fa10079d601b1b6b204fce5e3e25026110000000611437565b610ca49190611437565b90505b5f8111610cea5760405162461bcd60e51b81526020600482015260116024820152704e6f7468696e6720746f20756e6c6f636b60781b60448201526064016105b5565b816005819055508060065f828254610d029190611424565b909155505f9050610d14600683611461565b600754909150610d2f9030906001600160a01b031683610e7e565b600854610d479030906001600160a01b031683610e7e565b600954610d5f9030906001600160a01b031683610e7e565b600a54610d779030906001600160a01b031683610e7e565b600b54610d8f9030906001600160a01b031683610e7e565b600c54610da79030906001600160a01b031683610e7e565b60055460065460408051928352602083018490528201527fd5c1e53febf89038959691e212f7a18f34f9ac92dd9965a138ccfc695e9774ac9060600160405180910390a1505050565b610dfd8383836001610edb565b505050565b6001600160a01b038381165f908152600160209081526040808320938616835292905220545f19811015610e785781811015610e6a57604051637dc7a0d960e11b81526001600160a01b038416600482015260248101829052604481018390526064016105b5565b610e7884848484035f610edb565b50505050565b6001600160a01b038316610ea757604051634b637e8f60e11b81525f60048201526024016105b5565b6001600160a01b038216610ed05760405163ec442f0560e01b81525f60048201526024016105b5565b610dfd838383610fad565b6001600160a01b038416610f045760405163e602df0560e01b81525f60048201526024016105b5565b6001600160a01b038316610f2d57604051634a1406b160e11b81525f60048201526024016105b5565b6001600160a01b038085165f9081526001602090815260408083209387168352929052208290558015610e7857826001600160a01b0316846001600160a01b03167f8c5be1e5ebec7d5bd14f71427d1e84f3dd0314c0f7b2291e5b200ac8c7c3b92584604051610f9f91815260200190565b60405180910390a350505050565b610fb88383836110de565b6001600160a01b038316610fe2578060025f828254610fd79190611424565b909155506110529050565b6001600160a01b0383165f90815260208190526040902054818110156110345760405163391434e360e21b81526001600160a01b038516600482015260248101829052604481018390526064016105b5565b6001600160a01b0384165f9081526020819052604090209082900390555b6001600160a01b03821661106e5760028054829003905561108c565b6001600160a01b0382165f9081526020819052604090208054820190555b816001600160a01b0316836001600160a01b03167fddf252ad1be2c89b69c2b068fc378daa952ba7f163c4a11628f55a4df523b3ef836040516110d191815260200190565b60405180910390a3505050565b6001600160a01b0383165f908152600e60205260409020548390839060ff1680156111135750600c54600160a01b900460ff16155b1561118c57600d546001600160a01b038281169116148061114b57506001600160a01b0381165f908152600f602052604090205460ff165b61118c5760405162461bcd60e51b8152602060048201526012602482015271109d5e5a5b99c81a5cc8191a5cd8589b195960721b60448201526064016105b5565b6001600160a01b0381165f908152600e602052604090205460ff1680156111bd5750600c54600160a81b900460ff16155b1561123757600d546001600160a01b03838116911614806111f557506001600160a01b0382165f908152600f602052604090205460ff165b6112375760405162461bcd60e51b815260206004820152601360248201527214d95b1b1a5b99c81a5cc8191a5cd8589b1959606a1b60448201526064016105b5565b5050505050565b602081525f82518060208401528060208501604085015e5f604082850101526040601f19601f83011684010191505092915050565b80356001600160a01b0381168114611289575f80fd5b919050565b5f806040838503121561129f575f80fd5b6112a883611273565b946020939093013593505050565b5f805f606084860312156112c8575f80fd5b6112d184611273565b92506112df60208501611273565b929592945050506040919091013590565b5f8060408385031215611301575f80fd5b8235915061131160208401611273565b90509250929050565b5f6020828403121561132a575f80fd5b61133382611273565b9392505050565b80358015158114611289575f80fd5b5f806040838503121561135a575f80fd5b61136383611273565b91506113116020840161133a565b5f60208284031215611381575f80fd5b6113338261133a565b5f806040838503121561139b575f80fd5b6113a483611273565b915061131160208401611273565b600181811c908216806113c657607f821691505b6020821081036113e457634e487b7160e01b5f52602260045260245ffd5b50919050565b6020808252600c908201526b4e6f7420616c6c6f7765642160a01b604082015260600190565b634e487b7160e01b5f52601160045260245ffd5b8082018082111561056257610562611410565b8181038181111561056257610562611410565b808202811582820484141761056257610562611410565b5f8261147b57634e487b7160e01b5f52601260045260245ffd5b500490565b5f6001820161149157611491611410565b506001019056fea2646970667358221220e48139f6ec74dd2f2cd832075023aa86de42945a39e6a247f89762f6c0a3da2b64736f6c634300081a0033",
					"opcodes": "PUSH1 0xA0 PUSH1 0x40 MSTORE PUSH1 0x7 DUP1 SLOAD PUSH1 0x1 PUSH1 0x1 PUSH1 0xA0 SHL SUB NOT SWAP1 DUP2 AND PUSH20 0x7EC13697D98925BA1DC2BCC705C071BD168B10C2 OR SWAP1 SWAP2 SSTORE PUSH1 0x8 DUP1 SLOAD DUP3 AND PUSH20 0x8DE119E98707AC240ABA2CB77E83B29882A34357 OR SWAP1 SSTORE PUSH1 0x9 DUP1 SLOAD DUP3 AND PUSH20 0x3499C18F7265BE9AFDA16504A34CD1892F278AE OR SWAP1 SSTORE PUSH1 0xA DUP1 SLOAD DUP3 AND PUSH20 0xCC234A1D3E32148461B7EACB5A8BF4D0C4B6BE74 OR SWAP1 SSTORE PUSH1 0xB DUP1 SLOAD SWAP1 SWAP2 AND PUSH20 0xCEEA0E87B553BC445C5EB2242B5F28CD81B4ACAA OR SWAP1 SSTORE PUSH1 0xC DUP1 SLOAD PUSH22 0x1017E23E2781A1DA5DACE87B4F0E7BF68191263FC32 PUSH1 0x1 PUSH1 0x1 PUSH1 0xB0 SHL SUB NOT SWAP1 SWAP2 AND OR SWAP1 SSTORE CALLVALUE DUP1 ISZERO PUSH2 0xDB JUMPI PUSH0 DUP1 REVERT JUMPDEST POP PUSH1 0x40 MLOAD DUP1 PUSH1 0x40 ADD PUSH1 0x40 MSTORE DUP1 PUSH1 0x9 DUP2 MSTORE PUSH1 0x20 ADD PUSH9 0x212122102A37B5B2B7 PUSH1 0xB9 SHL DUP2 MSTORE POP PUSH1 0x40 MLOAD DUP1 PUSH1 0x40 ADD PUSH1 0x40 MSTORE DUP1 PUSH1 0x3 DUP2 MSTORE PUSH1 0x20 ADD PUSH3 0x109091 PUSH1 0xEA SHL DUP2 MSTORE POP DUP2 PUSH1 0x3 SWAP1 DUP2 PUSH2 0x129 SWAP2 SWAP1 PUSH2 0x509 JUMP JUMPDEST POP PUSH1 0x4 PUSH2 0x136 DUP3 DUP3 PUSH2 0x509 JUMP JUMPDEST POP POP PUSH1 0xD DUP1 SLOAD PUSH1 0x1 PUSH1 0x1 PUSH1 0xA0 SHL SUB NOT AND CALLER SWAP1 DUP2 OR SWAP1 SWAP2 SSTORE PUSH2 0x164 SWAP2 POP PUSH12 0x33B2E3C9FD0803CE8000000 PUSH2 0x19C JUMP JUMPDEST PUSH2 0x18F ADDRESS PUSH2 0x18A PUSH12 0x33B2E3C9FD0803CE8000000 PUSH12 0x204FCE5E3E25026110000000 PUSH2 0x5D7 JUMP JUMPDEST PUSH2 0x19C JUMP JUMPDEST TIMESTAMP PUSH1 0x80 MSTORE PUSH0 PUSH1 0x5 SSTORE PUSH2 0x603 JUMP JUMPDEST PUSH1 0x1 PUSH1 0x1 PUSH1 0xA0 SHL SUB DUP3 AND PUSH2 0x1CA JUMPI PUSH1 0x40 MLOAD PUSH4 0xEC442F05 PUSH1 0xE0 SHL DUP2 MSTORE PUSH0 PUSH1 0x4 DUP3 ADD MSTORE PUSH1 0x24 ADD JUMPDEST PUSH1 0x40 MLOAD DUP1 SWAP2 SUB SWAP1 REVERT JUMPDEST PUSH2 0x1D5 PUSH0 DUP4 DUP4 PUSH2 0x1D9 JUMP JUMPDEST POP POP JUMP JUMPDEST PUSH2 0x1E4 DUP4 DUP4 DUP4 PUSH2 0x30A JUMP JUMPDEST PUSH1 0x1 PUSH1 0x1 PUSH1 0xA0 SHL SUB DUP4 AND PUSH2 0x20E JUMPI DUP1 PUSH1 0x2 PUSH0 DUP3 DUP3 SLOAD PUSH2 0x203 SWAP2 SWAP1 PUSH2 0x5F0 JUMP JUMPDEST SWAP1 SWAP2 SSTORE POP PUSH2 0x27E SWAP1 POP JUMP JUMPDEST PUSH1 0x1 PUSH1 0x1 PUSH1 0xA0 SHL SUB DUP4 AND PUSH0 SWAP1 DUP2 MSTORE PUSH1 0x20 DUP2 SWAP1 MSTORE PUSH1 0x40 SWAP1 KECCAK256 SLOAD DUP2 DUP2 LT ISZERO PUSH2 0x260 JUMPI PUSH1 0x40 MLOAD PUSH4 0x391434E3 PUSH1 0xE2 SHL DUP2 MSTORE PUSH1 0x1 PUSH1 0x1 PUSH1 0xA0 SHL SUB DUP6 AND PUSH1 0x4 DUP3 ADD MSTORE PUSH1 0x24 DUP2 ADD DUP3 SWAP1 MSTORE PUSH1 0x44 DUP2 ADD DUP4 SWAP1 MSTORE PUSH1 0x64 ADD PUSH2 0x1C1 JUMP JUMPDEST PUSH1 0x1 PUSH1 0x1 PUSH1 0xA0 SHL SUB DUP5 AND PUSH0 SWAP1 DUP2 MSTORE PUSH1 0x20 DUP2 SWAP1 MSTORE PUSH1 0x40 SWAP1 KECCAK256 SWAP1 DUP3 SWAP1 SUB SWAP1 SSTORE JUMPDEST PUSH1 0x1 PUSH1 0x1 PUSH1 0xA0 SHL SUB DUP3 AND PUSH2 0x29A JUMPI PUSH1 0x2 DUP1 SLOAD DUP3 SWAP1 SUB SWAP1 SSTORE PUSH2 0x2B8 JUMP JUMPDEST PUSH1 0x1 PUSH1 0x1 PUSH1 0xA0 SHL SUB DUP3 AND PUSH0 SWAP1 DUP2 MSTORE PUSH1 0x20 DUP2 SWAP1 MSTORE PUSH1 0x40 SWAP1 KECCAK256 DUP1 SLOAD DUP3 ADD SWAP1 SSTORE JUMPDEST DUP2 PUSH1 0x1 PUSH1 0x1 PUSH1 0xA0 SHL SUB AND DUP4 PUSH1 0x1 PUSH1 0x1 PUSH1 0xA0 SHL SUB AND PUSH32 0xDDF252AD1BE2C89B69C2B068FC378DAA952BA7F163C4A11628F55A4DF523B3EF DUP4 PUSH1 0x40 MLOAD PUSH2 0x2FD SWAP2 DUP2 MSTORE PUSH1 0x20 ADD SWAP1 JUMP JUMPDEST PUSH1 0x40 MLOAD DUP1 SWAP2 SUB SWAP1 LOG3 POP POP POP JUMP JUMPDEST PUSH1 0x1 PUSH1 0x1 PUSH1 0xA0 SHL SUB DUP4 AND PUSH0 SWAP1 DUP2 MSTORE PUSH1 0xE PUSH1 0x20 MSTORE PUSH1 0x40 SWAP1 KECCAK256 SLOAD DUP4 SWAP1 DUP4 SWAP1 PUSH1 0xFF AND DUP1 ISZERO PUSH2 0x33F JUMPI POP PUSH1 0xC SLOAD PUSH1 0x1 PUSH1 0xA0 SHL SWAP1 DIV PUSH1 0xFF AND ISZERO JUMPDEST ISZERO PUSH2 0x3B8 JUMPI PUSH1 0xD SLOAD PUSH1 0x1 PUSH1 0x1 PUSH1 0xA0 SHL SUB DUP3 DUP2 AND SWAP2 AND EQ DUP1 PUSH2 0x377 JUMPI POP PUSH1 0x1 PUSH1 0x1 PUSH1 0xA0 SHL SUB DUP2 AND PUSH0 SWAP1 DUP2 MSTORE PUSH1 0xF PUSH1 0x20 MSTORE PUSH1 0x40 SWAP1 KECCAK256 SLOAD PUSH1 0xFF AND JUMPDEST PUSH2 0x3B8 JUMPI PUSH1 0x40 MLOAD PUSH3 0x461BCD PUSH1 0xE5 SHL DUP2 MSTORE PUSH1 0x20 PUSH1 0x4 DUP3 ADD MSTORE PUSH1 0x12 PUSH1 0x24 DUP3 ADD MSTORE PUSH18 0x109D5E5A5B99C81A5CC8191A5CD8589B1959 PUSH1 0x72 SHL PUSH1 0x44 DUP3 ADD MSTORE PUSH1 0x64 ADD PUSH2 0x1C1 JUMP JUMPDEST PUSH1 0x1 PUSH1 0x1 PUSH1 0xA0 SHL SUB DUP2 AND PUSH0 SWAP1 DUP2 MSTORE PUSH1 0xE PUSH1 0x20 MSTORE PUSH1 0x40 SWAP1 KECCAK256 SLOAD PUSH1 0xFF AND DUP1 ISZERO PUSH2 0x3E9 JUMPI POP PUSH1 0xC SLOAD PUSH1 0x1 PUSH1 0xA8 SHL SWAP1 DIV PUSH1 0xFF AND ISZERO JUMPDEST ISZERO PUSH2 0x46D JUMPI PUSH1 0xD SLOAD PUSH1 0x1 PUSH1 0x1 PUSH1 0xA0 SHL SUB DUP4 DUP2 AND SWAP2 AND EQ DUP1 PUSH2 0x421 JUMPI POP PUSH1 0x1 PUSH1 0x1 PUSH1 0xA0 SHL SUB DUP3 AND PUSH0 SWAP1 DUP2 MSTORE PUSH1 0xF PUSH1 0x20 MSTORE PUSH1 0x40 SWAP1 KECCAK256 SLOAD PUSH1 0xFF AND JUMPDEST PUSH2 0x46D JUMPI PUSH1 0x40 MLOAD PUSH3 0x461BCD PUSH1 0xE5 SHL DUP2 MSTORE PUSH1 0x20 PUSH1 0x4 DUP3 ADD MSTORE PUSH1 0x13 PUSH1 0x24 DUP3 ADD MSTORE PUSH32 0x53656C6C696E672069732064697361626C656400000000000000000000000000 PUSH1 0x44 DUP3 ADD MSTORE PUSH1 0x64 ADD PUSH2 0x1C1 JUMP JUMPDEST POP POP POP POP POP JUMP JUMPDEST POP POP POP JUMP JUMPDEST PUSH4 0x4E487B71 PUSH1 0xE0 SHL PUSH0 MSTORE PUSH1 0x41 PUSH1 0x4 MSTORE PUSH1 0x24 PUSH0 REVERT JUMPDEST PUSH1 0x1 DUP2 DUP2 SHR SWAP1 DUP3 AND DUP1 PUSH2 0x4A1 JUMPI PUSH1 0x7F DUP3 AND SWAP2 POP JUMPDEST PUSH1 0x20 DUP3 LT DUP2 SUB PUSH2 0x4BF JUMPI PUSH4 0x4E487B71 PUSH1 0xE0 SHL PUSH0 MSTORE PUSH1 0x22 PUSH1 0x4 MSTORE PUSH1 0x24 PUSH0 REVERT JUMPDEST POP SWAP2 SWAP1 POP JUMP JUMPDEST PUSH1 0x1F DUP3 GT ISZERO PUSH2 0x474 JUMPI DUP1 PUSH0 MSTORE PUSH1 0x20 PUSH0 KECCAK256 PUSH1 0x1F DUP5 ADD PUSH1 0x5 SHR DUP2 ADD PUSH1 0x20 DUP6 LT ISZERO PUSH2 0x4EA JUMPI POP DUP1 JUMPDEST PUSH1 0x1F DUP5 ADD PUSH1 0x5 SHR DUP3 ADD SWAP2 POP JUMPDEST DUP2 DUP2 LT ISZERO PUSH2 0x46D JUMPI PUSH0 DUP2 SSTORE PUSH1 0x1 ADD PUSH2 0x4F6 JUMP JUMPDEST DUP2 MLOAD PUSH1 0x1 PUSH1 0x1 PUSH1 0x40 SHL SUB DUP2 GT ISZERO PUSH2 0x522 JUMPI PUSH2 0x522 PUSH2 0x479 JUMP JUMPDEST PUSH2 0x536 DUP2 PUSH2 0x530 DUP5 SLOAD PUSH2 0x48D JUMP JUMPDEST DUP5 PUSH2 0x4C5 JUMP JUMPDEST PUSH1 0x20 PUSH1 0x1F DUP3 GT PUSH1 0x1 DUP2 EQ PUSH2 0x568 JUMPI PUSH0 DUP4 ISZERO PUSH2 0x551 JUMPI POP DUP5 DUP3 ADD MLOAD JUMPDEST PUSH0 NOT PUSH1 0x3 DUP6 SWAP1 SHL SHR NOT AND PUSH1 0x1 DUP5 SWAP1 SHL OR DUP5 SSTORE PUSH2 0x46D JUMP JUMPDEST PUSH0 DUP5 DUP2 MSTORE PUSH1 0x20 DUP2 KECCAK256 PUSH1 0x1F NOT DUP6 AND SWAP2 JUMPDEST DUP3 DUP2 LT ISZERO PUSH2 0x597 JUMPI DUP8 DUP6 ADD MLOAD DUP3 SSTORE PUSH1 0x20 SWAP5 DUP6 ADD SWAP5 PUSH1 0x1 SWAP1 SWAP3 ADD SWAP2 ADD PUSH2 0x577 JUMP JUMPDEST POP DUP5 DUP3 LT ISZERO PUSH2 0x5B4 JUMPI DUP7 DUP5 ADD MLOAD PUSH0 NOT PUSH1 0x3 DUP8 SWAP1 SHL PUSH1 0xF8 AND SHR NOT AND DUP2 SSTORE JUMPDEST POP POP POP POP PUSH1 0x1 SWAP1 DUP2 SHL ADD SWAP1 SSTORE POP JUMP JUMPDEST PUSH4 0x4E487B71 PUSH1 0xE0 SHL PUSH0 MSTORE PUSH1 0x11 PUSH1 0x4 MSTORE PUSH1 0x24 PUSH0 REVERT JUMPDEST DUP2 DUP2 SUB DUP2 DUP2 GT ISZERO PUSH2 0x5EA JUMPI PUSH2 0x5EA PUSH2 0x5C3 JUMP JUMPDEST SWAP3 SWAP2 POP POP JUMP JUMPDEST DUP1 DUP3 ADD DUP1 DUP3 GT ISZERO PUSH2 0x5EA JUMPI PUSH2 0x5EA PUSH2 0x5C3 JUMP JUMPDEST PUSH1 0x80 MLOAD PUSH2 0x14CE PUSH2 0x622 PUSH0 CODECOPY PUSH0 DUP2 DUP2 PUSH2 0x457 ADD MSTORE PUSH2 0xA96 ADD MSTORE PUSH2 0x14CE PUSH0 RETURN INVALID PUSH1 0x80 PUSH1 0x40 MSTORE CALLVALUE DUP1 ISZERO PUSH2 0xF JUMPI PUSH0 DUP1 REVERT JUMPDEST POP PUSH1 0x4 CALLDATASIZE LT PUSH2 0x1E7 JUMPI PUSH0 CALLDATALOAD PUSH1 0xE0 SHR DUP1 PUSH4 0x902D55A5 GT PUSH2 0x109 JUMPI DUP1 PUSH4 0xCE7842F5 GT PUSH2 0x9E JUMPI DUP1 PUSH4 0xE8BE9A44 GT PUSH2 0x6E JUMPI DUP1 PUSH4 0xE8BE9A44 EQ PUSH2 0x479 JUMPI DUP1 PUSH4 0xF771CB65 EQ PUSH2 0x481 JUMPI DUP1 PUSH4 0xF968F493 EQ PUSH2 0x495 JUMPI DUP1 PUSH4 0xFDFF9B4D EQ PUSH2 0x49D JUMPI PUSH0 DUP1 REVERT JUMPDEST DUP1 PUSH4 0xCE7842F5 EQ PUSH2 0x3F4 JUMPI DUP1 PUSH4 0xD2F9EFAB EQ PUSH2 0x407 JUMPI DUP1 PUSH4 0xDD62ED3E EQ PUSH2 0x41A JUMPI DUP1 PUSH4 0xE6FD48BC EQ PUSH2 0x452 JUMPI PUSH0 DUP1 REVERT JUMPDEST DUP1 PUSH4 0xA9059CBB GT PUSH2 0xD9 JUMPI DUP1 PUSH4 0xA9059CBB EQ PUSH2 0x398 JUMPI DUP1 PUSH4 0xB16D78CF EQ PUSH2 0x3AB JUMPI DUP1 PUSH4 0xB361412A EQ PUSH2 0x3BE JUMPI DUP1 PUSH4 0xBE381B85 EQ PUSH2 0x3D1 JUMPI PUSH0 DUP1 REVERT JUMPDEST DUP1 PUSH4 0x902D55A5 EQ PUSH2 0x361 JUMPI DUP1 PUSH4 0x95D89B41 EQ PUSH2 0x374 JUMPI DUP1 PUSH4 0xA5E90EEE EQ PUSH2 0x37C JUMPI DUP1 PUSH4 0xA779D080 EQ PUSH2 0x38F JUMPI PUSH0 DUP1 REVERT JUMPDEST DUP1 PUSH4 0x3C11E12A GT PUSH2 0x17F JUMPI DUP1 PUSH4 0x8310A74D GT PUSH2 0x14F JUMPI DUP1 PUSH4 0x8310A74D EQ PUSH2 0x31F JUMPI DUP1 PUSH4 0x8342083A EQ PUSH2 0x328 JUMPI DUP1 PUSH4 0x8DDEDB33 EQ PUSH2 0x33A JUMPI DUP1 PUSH4 0x8ED2FE91 EQ PUSH2 0x34D JUMPI PUSH0 DUP1 REVERT JUMPDEST DUP1 PUSH4 0x3C11E12A EQ PUSH2 0x2AF JUMPI DUP1 PUSH4 0x67859B6E EQ PUSH2 0x2D1 JUMPI DUP1 PUSH4 0x70A08231 EQ PUSH2 0x2E4 JUMPI DUP1 PUSH4 0x7CDF6FB1 EQ PUSH2 0x30C JUMPI PUSH0 DUP1 REVERT JUMPDEST DUP1 PUSH4 0x23B872DD GT PUSH2 0x1BA JUMPI DUP1 PUSH4 0x23B872DD EQ PUSH2 0x265 JUMPI DUP1 PUSH4 0x2BE8781F EQ PUSH2 0x278 JUMPI DUP1 PUSH4 0x2D3E474A EQ PUSH2 0x28D JUMPI DUP1 PUSH4 0x313CE567 EQ PUSH2 0x2A0 JUMPI PUSH0 DUP1 REVERT JUMPDEST DUP1 PUSH4 0x42249BB EQ PUSH2 0x1EB JUMPI DUP1 PUSH4 0x6FDDE03 EQ PUSH2 0x21B JUMPI DUP1 PUSH4 0x95EA7B3 EQ PUSH2 0x230 JUMPI DUP1 PUSH4 0x18160DDD EQ PUSH2 0x253 JUMPI JUMPDEST PUSH0 DUP1 REVERT JUMPDEST PUSH1 0xA SLOAD PUSH2 0x1FE SWAP1 PUSH1 0x1 PUSH1 0x1 PUSH1 0xA0 SHL SUB AND DUP2 JUMP JUMPDEST PUSH1 0x40 MLOAD PUSH1 0x1 PUSH1 0x1 PUSH1 0xA0 SHL SUB SWAP1 SWAP2 AND DUP2 MSTORE PUSH1 0x20 ADD JUMPDEST PUSH1 0x40 MLOAD DUP1 SWAP2 SUB SWAP1 RETURN JUMPDEST PUSH2 0x223 PUSH2 0x4BF JUMP JUMPDEST PUSH1 0x40 MLOAD PUSH2 0x212 SWAP2 SWAP1 PUSH2 0x123E JUMP JUMPDEST PUSH2 0x243 PUSH2 0x23E CALLDATASIZE PUSH1 0x4 PUSH2 0x128E JUMP JUMPDEST PUSH2 0x54F JUMP JUMPDEST PUSH1 0x40 MLOAD SWAP1 ISZERO ISZERO DUP2 MSTORE PUSH1 0x20 ADD PUSH2 0x212 JUMP JUMPDEST PUSH1 0x2 SLOAD JUMPDEST PUSH1 0x40 MLOAD SWAP1 DUP2 MSTORE PUSH1 0x20 ADD PUSH2 0x212 JUMP JUMPDEST PUSH2 0x243 PUSH2 0x273 CALLDATASIZE PUSH1 0x4 PUSH2 0x12B6 JUMP JUMPDEST PUSH2 0x568 JUMP JUMPDEST PUSH2 0x28B PUSH2 0x286 CALLDATASIZE PUSH1 0x4 PUSH2 0x12F0 JUMP JUMPDEST PUSH2 0x58B JUMP JUMPDEST STOP JUMPDEST PUSH1 0x9 SLOAD PUSH2 0x1FE SWAP1 PUSH1 0x1 PUSH1 0x1 PUSH1 0xA0 SHL SUB AND DUP2 JUMP JUMPDEST PUSH1 0x40 MLOAD PUSH1 0x12 DUP2 MSTORE PUSH1 0x20 ADD PUSH2 0x212 JUMP JUMPDEST PUSH2 0x243 PUSH2 0x2BD CALLDATASIZE PUSH1 0x4 PUSH2 0x131A JUMP JUMPDEST PUSH1 0xE PUSH1 0x20 MSTORE PUSH0 SWAP1 DUP2 MSTORE PUSH1 0x40 SWAP1 KECCAK256 SLOAD PUSH1 0xFF AND DUP2 JUMP JUMPDEST PUSH1 0x7 SLOAD PUSH2 0x1FE SWAP1 PUSH1 0x1 PUSH1 0x1 PUSH1 0xA0 SHL SUB AND DUP2 JUMP JUMPDEST PUSH2 0x257 PUSH2 0x2F2 CALLDATASIZE PUSH1 0x4 PUSH2 0x131A JUMP JUMPDEST PUSH1 0x1 PUSH1 0x1 PUSH1 0xA0 SHL SUB AND PUSH0 SWAP1 DUP2 MSTORE PUSH1 0x20 DUP2 SWAP1 MSTORE PUSH1 0x40 SWAP1 KECCAK256 SLOAD SWAP1 JUMP JUMPDEST PUSH2 0x28B PUSH2 0x31A CALLDATASIZE PUSH1 0x4 PUSH2 0x1349 JUMP JUMPDEST PUSH2 0x6F7 JUMP JUMPDEST PUSH2 0x257 PUSH1 0x5 SLOAD DUP2 JUMP JUMPDEST PUSH2 0x257 PUSH8 0x6765C793FA10079D PUSH1 0x1B SHL DUP2 JUMP JUMPDEST PUSH2 0x28B PUSH2 0x348 CALLDATASIZE PUSH1 0x4 PUSH2 0x1371 JUMP JUMPDEST PUSH2 0x74B JUMP JUMPDEST PUSH1 0xC SLOAD PUSH2 0x243 SWAP1 PUSH1 0x1 PUSH1 0xA0 SHL SWAP1 DIV PUSH1 0xFF AND DUP2 JUMP JUMPDEST PUSH2 0x257 PUSH12 0x204FCE5E3E25026110000000 DUP2 JUMP JUMPDEST PUSH2 0x223 PUSH2 0x793 JUMP JUMPDEST PUSH2 0x28B PUSH2 0x38A CALLDATASIZE PUSH1 0x4 PUSH2 0x1349 JUMP JUMPDEST PUSH2 0x7A2 JUMP JUMPDEST PUSH2 0x257 PUSH1 0x6 SLOAD DUP2 JUMP JUMPDEST PUSH2 0x243 PUSH2 0x3A6 CALLDATASIZE PUSH1 0x4 PUSH2 0x128E JUMP JUMPDEST PUSH2 0x7F6 JUMP JUMPDEST PUSH2 0x28B PUSH2 0x3B9 CALLDATASIZE PUSH1 0x4 PUSH2 0x1371 JUMP JUMPDEST PUSH2 0x803 JUMP JUMPDEST PUSH1 0xC SLOAD PUSH2 0x1FE SWAP1 PUSH1 0x1 PUSH1 0x1 PUSH1 0xA0 SHL SUB AND DUP2 JUMP JUMPDEST PUSH2 0x3D9 PUSH2 0x84B JUMP JUMPDEST PUSH1 0x40 DUP1 MLOAD SWAP4 DUP5 MSTORE PUSH1 0x20 DUP5 ADD SWAP3 SWAP1 SWAP3 MSTORE SWAP1 DUP3 ADD MSTORE PUSH1 0x60 ADD PUSH2 0x212 JUMP JUMPDEST PUSH1 0xB SLOAD PUSH2 0x1FE SWAP1 PUSH1 0x1 PUSH1 0x1 PUSH1 0xA0 SHL SUB AND DUP2 JUMP JUMPDEST PUSH1 0x8 SLOAD PUSH2 0x1FE SWAP1 PUSH1 0x1 PUSH1 0x1 PUSH1 0xA0 SHL SUB AND DUP2 JUMP JUMPDEST PUSH2 0x257 PUSH2 0x428 CALLDATASIZE PUSH1 0x4 PUSH2 0x138A JUMP JUMPDEST PUSH1 0x1 PUSH1 0x1 PUSH1 0xA0 SHL SUB SWAP2 DUP3 AND PUSH0 SWAP1 DUP2 MSTORE PUSH1 0x1 PUSH1 0x20 SWAP1 DUP2 MSTORE PUSH1 0x40 DUP1 DUP4 KECCAK256 SWAP4 SWAP1 SWAP5 AND DUP3 MSTORE SWAP2 SWAP1 SWAP2 MSTORE KECCAK256 SLOAD SWAP1 JUMP JUMPDEST PUSH2 0x257 PUSH32 0x0 DUP2 JUMP JUMPDEST PUSH2 0x257 PUSH2 0x9CD JUMP JUMPDEST PUSH1 0xC SLOAD PUSH2 0x243 SWAP1 PUSH1 0x1 PUSH1 0xA8 SHL SWAP1 DIV PUSH1 0xFF AND DUP2 JUMP JUMPDEST PUSH2 0x28B PUSH2 0x9F1 JUMP JUMPDEST PUSH2 0x243 PUSH2 0x4AB CALLDATASIZE PUSH1 0x4 PUSH2 0x131A JUMP JUMPDEST PUSH1 0xF PUSH1 0x20 MSTORE PUSH0 SWAP1 DUP2 MSTORE PUSH1 0x40 SWAP1 KECCAK256 SLOAD PUSH1 0xFF AND DUP2 JUMP JUMPDEST PUSH1 0x60 PUSH1 0x3 DUP1 SLOAD PUSH2 0x4CE SWAP1 PUSH2 0x13B2 JUMP JUMPDEST DUP1 PUSH1 0x1F ADD PUSH1 0x20 DUP1 SWAP2 DIV MUL PUSH1 0x20 ADD PUSH1 0x40 MLOAD SWAP1 DUP2 ADD PUSH1 0x40 MSTORE DUP1 SWAP3 SWAP2 SWAP1 DUP2 DUP2 MSTORE PUSH1 0x20 ADD DUP3 DUP1 SLOAD PUSH2 0x4FA SWAP1 PUSH2 0x13B2 JUMP JUMPDEST DUP1 ISZERO PUSH2 0x545 JUMPI DUP1 PUSH1 0x1F LT PUSH2 0x51C JUMPI PUSH2 0x100 DUP1 DUP4 SLOAD DIV MUL DUP4 MSTORE SWAP2 PUSH1 0x20 ADD SWAP2 PUSH2 0x545 JUMP JUMPDEST DUP3 ADD SWAP2 SWAP1 PUSH0 MSTORE PUSH1 0x20 PUSH0 KECCAK256 SWAP1 JUMPDEST DUP2 SLOAD DUP2 MSTORE SWAP1 PUSH1 0x1 ADD SWAP1 PUSH1 0x20 ADD DUP1 DUP4 GT PUSH2 0x528 JUMPI DUP3 SWAP1 SUB PUSH1 0x1F AND DUP3 ADD SWAP2 JUMPDEST POP POP POP POP POP SWAP1 POP SWAP1 JUMP JUMPDEST PUSH0 CALLER PUSH2 0x55C DUP2 DUP6 DUP6 PUSH2 0xDF0 JUMP JUMPDEST PUSH1 0x1 SWAP2 POP POP JUMPDEST SWAP3 SWAP2 POP POP JUMP JUMPDEST PUSH0 CALLER PUSH2 0x575 DUP6 DUP3 DUP6 PUSH2 0xE02 JUMP JUMPDEST PUSH2 0x580 DUP6 DUP6 DUP6 PUSH2 0xE7E JUMP JUMPDEST POP PUSH1 0x1 SWAP5 SWAP4 POP POP POP POP JUMP JUMPDEST PUSH1 0xD SLOAD PUSH1 0x1 PUSH1 0x1 PUSH1 0xA0 SHL SUB AND CALLER EQ PUSH2 0x5BE JUMPI PUSH1 0x40 MLOAD PUSH3 0x461BCD PUSH1 0xE5 SHL DUP2 MSTORE PUSH1 0x4 ADD PUSH2 0x5B5 SWAP1 PUSH2 0x13EA JUMP JUMPDEST PUSH1 0x40 MLOAD DUP1 SWAP2 SUB SWAP1 REVERT JUMPDEST PUSH1 0x1 DUP3 LT ISZERO DUP1 ISZERO PUSH2 0x5D0 JUMPI POP PUSH1 0x6 DUP3 GT ISZERO JUMPDEST PUSH2 0x60C JUMPI PUSH1 0x40 MLOAD PUSH3 0x461BCD PUSH1 0xE5 SHL DUP2 MSTORE PUSH1 0x20 PUSH1 0x4 DUP3 ADD MSTORE PUSH1 0xD PUSH1 0x24 DUP3 ADD MSTORE PUSH13 0x92DCECC2D8D2C840D2DCC8CAF PUSH1 0x9B SHL PUSH1 0x44 DUP3 ADD MSTORE PUSH1 0x64 ADD PUSH2 0x5B5 JUMP JUMPDEST DUP2 PUSH1 0x1 SUB PUSH2 0x633 JUMPI PUSH1 0x7 DUP1 SLOAD PUSH1 0x1 PUSH1 0x1 PUSH1 0xA0 SHL SUB NOT AND PUSH1 0x1 PUSH1 0x1 PUSH1 0xA0 SHL SUB DUP4 AND OR SWAP1 SSTORE POP POP JUMP JUMPDEST DUP2 PUSH1 0x2 SUB PUSH2 0x65A JUMPI PUSH1 0x8 DUP1 SLOAD PUSH1 0x1 PUSH1 0x1 PUSH1 0xA0 SHL SUB NOT AND PUSH1 0x1 PUSH1 0x1 PUSH1 0xA0 SHL SUB DUP4 AND OR SWAP1 SSTORE POP POP JUMP JUMPDEST DUP2 PUSH1 0x3 SUB PUSH2 0x681 JUMPI PUSH1 0x9 DUP1 SLOAD PUSH1 0x1 PUSH1 0x1 PUSH1 0xA0 SHL SUB NOT AND PUSH1 0x1 PUSH1 0x1 PUSH1 0xA0 SHL SUB DUP4 AND OR SWAP1 SSTORE POP POP JUMP JUMPDEST DUP2 PUSH1 0x4 SUB PUSH2 0x6A8 JUMPI PUSH1 0xA DUP1 SLOAD PUSH1 0x1 PUSH1 0x1 PUSH1 0xA0 SHL SUB NOT AND PUSH1 0x1 PUSH1 0x1 PUSH1 0xA0 SHL SUB DUP4 AND OR SWAP1 SSTORE POP POP JUMP JUMPDEST DUP2 PUSH1 0x5 SUB PUSH2 0x6CF JUMPI PUSH1 0xB DUP1 SLOAD PUSH1 0x1 PUSH1 0x1 PUSH1 0xA0 SHL SUB NOT AND PUSH1 0x1 PUSH1 0x1 PUSH1 0xA0 SHL SUB DUP4 AND OR SWAP1 SSTORE POP POP JUMP JUMPDEST DUP2 PUSH1 0x6 SUB PUSH2 0x6F3 JUMPI PUSH1 0xC DUP1 SLOAD PUSH1 0x1 PUSH1 0x1 PUSH1 0xA0 SHL SUB NOT AND PUSH1 0x1 PUSH1 0x1 PUSH1 0xA0 SHL SUB DUP4 AND OR SWAP1 SSTORE JUMPDEST POP POP JUMP JUMPDEST PUSH1 0xD SLOAD PUSH1 0x1 PUSH1 0x1 PUSH1 0xA0 SHL SUB AND CALLER EQ PUSH2 0x721 JUMPI PUSH1 0x40 MLOAD PUSH3 0x461BCD PUSH1 0xE5 SHL DUP2 MSTORE PUSH1 0x4 ADD PUSH2 0x5B5 SWAP1 PUSH2 0x13EA JUMP JUMPDEST PUSH1 0x1 PUSH1 0x1 PUSH1 0xA0 SHL SUB SWAP2 SWAP1 SWAP2 AND PUSH0 SWAP1 DUP2 MSTORE PUSH1 0xE PUSH1 0x20 MSTORE PUSH1 0x40 SWAP1 KECCAK256 DUP1 SLOAD PUSH1 0xFF NOT AND SWAP2 ISZERO ISZERO SWAP2 SWAP1 SWAP2 OR SWAP1 SSTORE JUMP JUMPDEST PUSH1 0xD SLOAD PUSH1 0x1 PUSH1 0x1 PUSH1 0xA0 SHL SUB AND CALLER EQ PUSH2 0x775 JUMPI PUSH1 0x40 MLOAD PUSH3 0x461BCD PUSH1 0xE5 SHL DUP2 MSTORE PUSH1 0x4 ADD PUSH2 0x5B5 SWAP1 PUSH2 0x13EA JUMP JUMPDEST PUSH1 0xC DUP1 SLOAD SWAP2 ISZERO ISZERO PUSH1 0x1 PUSH1 0xA0 SHL MUL PUSH1 0xFF PUSH1 0xA0 SHL NOT SWAP1 SWAP3 AND SWAP2 SWAP1 SWAP2 OR SWAP1 SSTORE JUMP JUMPDEST PUSH1 0x60 PUSH1 0x4 DUP1 SLOAD PUSH2 0x4CE SWAP1 PUSH2 0x13B2 JUMP JUMPDEST PUSH1 0xD SLOAD PUSH1 0x1 PUSH1 0x1 PUSH1 0xA0 SHL SUB AND CALLER EQ PUSH2 0x7CC JUMPI PUSH1 0x40 MLOAD PUSH3 0x461BCD PUSH1 0xE5 SHL DUP2 MSTORE PUSH1 0x4 ADD PUSH2 0x5B5 SWAP1 PUSH2 0x13EA JUMP JUMPDEST PUSH1 0x1 PUSH1 0x1 PUSH1 0xA0 SHL SUB SWAP2 SWAP1 SWAP2 AND PUSH0 SWAP1 DUP2 MSTORE PUSH1 0xF PUSH1 0x20 MSTORE PUSH1 0x40 SWAP1 KECCAK256 DUP1 SLOAD PUSH1 0xFF NOT AND SWAP2 ISZERO ISZERO SWAP2 SWAP1 SWAP2 OR SWAP1 SSTORE JUMP JUMPDEST PUSH0 CALLER PUSH2 0x55C DUP2 DUP6 DUP6 PUSH2 0xE7E JUMP JUMPDEST PUSH1 0xD SLOAD PUSH1 0x1 PUSH1 0x1 PUSH1 0xA0 SHL SUB AND CALLER EQ PUSH2 0x82D JUMPI PUSH1 0x40 MLOAD PUSH3 0x461BCD PUSH1 0xE5 SHL DUP2 MSTORE PUSH1 0x4 ADD PUSH2 0x5B5 SWAP1 PUSH2 0x13EA JUMP JUMPDEST PUSH1 0xC DUP1 SLOAD SWAP2 ISZERO ISZERO PUSH1 0x1 PUSH1 0xA8 SHL MUL PUSH1 0xFF PUSH1 0xA8 SHL NOT SWAP1 SWAP3 AND SWAP2 SWAP1 SWAP2 OR SWAP1 SSTORE JUMP JUMPDEST PUSH0 DUP1 PUSH0 DUP1 PUSH1 0x5 SLOAD PUSH1 0x1 PUSH2 0x85E SWAP2 SWAP1 PUSH2 0x1424 JUMP JUMPDEST SWAP1 POP PUSH1 0x3 DUP2 GT PUSH2 0x8A8 JUMPI PUSH2 0x3E8 PUSH2 0x88C PUSH8 0x6765C793FA10079D PUSH1 0x1B SHL PUSH12 0x204FCE5E3E25026110000000 PUSH2 0x1437 JUMP JUMPDEST PUSH2 0x897 SWAP1 PUSH1 0x5 PUSH2 0x144A JUMP JUMPDEST PUSH2 0x8A1 SWAP2 SWAP1 PUSH2 0x1461 JUMP JUMPDEST SWAP3 POP PUSH2 0x94F JUMP JUMPDEST PUSH1 0x6 DUP2 GT PUSH2 0x8DE JUMPI PUSH1 0x64 PUSH2 0x8D3 PUSH8 0x6765C793FA10079D PUSH1 0x1B SHL PUSH12 0x204FCE5E3E25026110000000 PUSH2 0x1437 JUMP JUMPDEST PUSH2 0x897 SWAP1 PUSH1 0x1 PUSH2 0x144A JUMP JUMPDEST PUSH1 0x9 DUP2 GT PUSH2 0x914 JUMPI PUSH1 0x64 PUSH2 0x909 PUSH8 0x6765C793FA10079D PUSH1 0x1B SHL PUSH12 0x204FCE5E3E25026110000000 PUSH2 0x1437 JUMP JUMPDEST PUSH2 0x897 SWAP1 PUSH1 0x2 PUSH2 0x144A JUMP JUMPDEST PUSH1 0x64 PUSH2 0x937 PUSH8 0x6765C793FA10079D PUSH1 0x1B SHL PUSH12 0x204FCE5E3E25026110000000 PUSH2 0x1437 JUMP JUMPDEST PUSH2 0x942 SWAP1 PUSH1 0x3 PUSH2 0x144A JUMP JUMPDEST PUSH2 0x94C SWAP2 SWAP1 PUSH2 0x1461 JUMP JUMPDEST SWAP3 POP JUMPDEST PUSH2 0x970 PUSH8 0x6765C793FA10079D PUSH1 0x1B SHL PUSH12 0x204FCE5E3E25026110000000 PUSH2 0x1437 JUMP JUMPDEST PUSH1 0x6 SLOAD PUSH2 0x97D SWAP1 DUP6 PUSH2 0x1424 JUMP JUMPDEST GT ISZERO PUSH2 0x9B4 JUMPI PUSH1 0x6 SLOAD PUSH2 0x9A7 PUSH8 0x6765C793FA10079D PUSH1 0x1B SHL PUSH12 0x204FCE5E3E25026110000000 PUSH2 0x1437 JUMP JUMPDEST PUSH2 0x9B1 SWAP2 SWAP1 PUSH2 0x1437 JUMP JUMPDEST SWAP3 POP JUMPDEST DUP1 DUP4 PUSH2 0x9C1 PUSH1 0x6 DUP3 PUSH2 0x1461 JUMP JUMPDEST SWAP4 POP SWAP4 POP SWAP4 POP POP SWAP1 SWAP2 SWAP3 JUMP JUMPDEST PUSH2 0x9EE PUSH8 0x6765C793FA10079D PUSH1 0x1B SHL PUSH12 0x204FCE5E3E25026110000000 PUSH2 0x1437 JUMP JUMPDEST DUP2 JUMP JUMPDEST PUSH1 0xD SLOAD PUSH1 0x1 PUSH1 0x1 PUSH1 0xA0 SHL SUB AND CALLER EQ PUSH2 0xA1B JUMPI PUSH1 0x40 MLOAD PUSH3 0x461BCD PUSH1 0xE5 SHL DUP2 MSTORE PUSH1 0x4 ADD PUSH2 0x5B5 SWAP1 PUSH2 0x13EA JUMP JUMPDEST PUSH2 0xA3C PUSH8 0x6765C793FA10079D PUSH1 0x1B SHL PUSH12 0x204FCE5E3E25026110000000 PUSH2 0x1437 JUMP JUMPDEST PUSH1 0x6 SLOAD LT PUSH2 0xA8C JUMPI PUSH1 0x40 MLOAD PUSH3 0x461BCD PUSH1 0xE5 SHL DUP2 MSTORE PUSH1 0x20 PUSH1 0x4 DUP3 ADD MSTORE PUSH1 0x1B PUSH1 0x24 DUP3 ADD MSTORE PUSH32 0x416C6C20746F6B656E7320616C726561647920756E6C6F636B65640000000000 PUSH1 0x44 DUP3 ADD MSTORE PUSH1 0x64 ADD PUSH2 0x5B5 JUMP JUMPDEST PUSH0 PUSH3 0x278D00 PUSH2 0xABB PUSH32 0x0 TIMESTAMP PUSH2 0x1437 JUMP JUMPDEST PUSH2 0xAC5 SWAP2 SWAP1 PUSH2 0x1461 JUMP JUMPDEST SWAP1 POP PUSH1 0x5 SLOAD DUP2 GT PUSH2 0xB11 JUMPI PUSH1 0x40 MLOAD PUSH3 0x461BCD PUSH1 0xE5 SHL DUP2 MSTORE PUSH1 0x20 PUSH1 0x4 DUP3 ADD MSTORE PUSH1 0x16 PUSH1 0x24 DUP3 ADD MSTORE PUSH22 0x4E6F206E6577206D6F6E746820746F20756E6C6F636B PUSH1 0x50 SHL PUSH1 0x44 DUP3 ADD MSTORE PUSH1 0x64 ADD PUSH2 0x5B5 JUMP JUMPDEST PUSH0 DUP1 PUSH1 0x5 SLOAD PUSH1 0x1 PUSH2 0xB22 SWAP2 SWAP1 PUSH2 0x1424 JUMP JUMPDEST SWAP1 POP JUMPDEST DUP3 DUP2 GT PUSH2 0xC41 JUMPI PUSH1 0x3 DUP2 GT PUSH2 0xB7E JUMPI PUSH2 0x3E8 PUSH2 0xB58 PUSH8 0x6765C793FA10079D PUSH1 0x1B SHL PUSH12 0x204FCE5E3E25026110000000 PUSH2 0x1437 JUMP JUMPDEST PUSH2 0xB63 SWAP1 PUSH1 0x5 PUSH2 0x144A JUMP JUMPDEST PUSH2 0xB6D SWAP2 SWAP1 PUSH2 0x1461 JUMP JUMPDEST PUSH2 0xB77 SWAP1 DUP4 PUSH2 0x1424 JUMP JUMPDEST SWAP2 POP PUSH2 0xC2F JUMP JUMPDEST PUSH1 0x6 DUP2 GT PUSH2 0xBB4 JUMPI PUSH1 0x64 PUSH2 0xBA9 PUSH8 0x6765C793FA10079D PUSH1 0x1B SHL PUSH12 0x204FCE5E3E25026110000000 PUSH2 0x1437 JUMP JUMPDEST PUSH2 0xB63 SWAP1 PUSH1 0x1 PUSH2 0x144A JUMP JUMPDEST PUSH1 0x9 DUP2 GT PUSH2 0xBEA JUMPI PUSH1 0x64 PUSH2 0xBDF PUSH8 0x6765C793FA10079D PUSH1 0x1B SHL PUSH12 0x204FCE5E3E25026110000000 PUSH2 0x1437 JUMP JUMPDEST PUSH2 0xB63 SWAP1 PUSH1 0x2 PUSH2 0x144A JUMP JUMPDEST PUSH1 0x64 PUSH2 0xC0D PUSH8 0x6765C793FA10079D PUSH1 0x1B SHL PUSH12 0x204FCE5E3E25026110000000 PUSH2 0x1437 JUMP JUMPDEST PUSH2 0xC18 SWAP1 PUSH1 0x3 PUSH2 0x144A JUMP JUMPDEST PUSH2 0xC22 SWAP2 SWAP1 PUSH2 0x1461 JUMP JUMPDEST PUSH2 0xC2C SWAP1 DUP4 PUSH2 0x1424 JUMP JUMPDEST SWAP2 POP JUMPDEST DUP1 PUSH2 0xC39 DUP2 PUSH2 0x1480 JUMP JUMPDEST SWAP2 POP POP PUSH2 0xB25 JUMP JUMPDEST POP PUSH2 0xC63 PUSH8 0x6765C793FA10079D PUSH1 0x1B SHL PUSH12 0x204FCE5E3E25026110000000 PUSH2 0x1437 JUMP JUMPDEST PUSH1 0x6 SLOAD PUSH2 0xC70 SWAP1 DUP4 PUSH2 0x1424 JUMP JUMPDEST GT ISZERO PUSH2 0xCA7 JUMPI PUSH1 0x6 SLOAD PUSH2 0xC9A PUSH8 0x6765C793FA10079D PUSH1 0x1B SHL PUSH12 0x204FCE5E3E25026110000000 PUSH2 0x1437 JUMP JUMPDEST PUSH2 0xCA4 SWAP2 SWAP1 PUSH2 0x1437 JUMP JUMPDEST SWAP1 POP JUMPDEST PUSH0 DUP2 GT PUSH2 0xCEA JUMPI PUSH1 0x40 MLOAD PUSH3 0x461BCD PUSH1 0xE5 SHL DUP2 MSTORE PUSH1 0x20 PUSH1 0x4 DUP3 ADD MSTORE PUSH1 0x11 PUSH1 0x24 DUP3 ADD MSTORE PUSH17 0x4E6F7468696E6720746F20756E6C6F636B PUSH1 0x78 SHL PUSH1 0x44 DUP3 ADD MSTORE PUSH1 0x64 ADD PUSH2 0x5B5 JUMP JUMPDEST DUP2 PUSH1 0x5 DUP2 SWAP1 SSTORE POP DUP1 PUSH1 0x6 PUSH0 DUP3 DUP3 SLOAD PUSH2 0xD02 SWAP2 SWAP1 PUSH2 0x1424 JUMP JUMPDEST SWAP1 SWAP2 SSTORE POP PUSH0 SWAP1 POP PUSH2 0xD14 PUSH1 0x6 DUP4 PUSH2 0x1461 JUMP JUMPDEST PUSH1 0x7 SLOAD SWAP1 SWAP2 POP PUSH2 0xD2F SWAP1 ADDRESS SWAP1 PUSH1 0x1 PUSH1 0x1 PUSH1 0xA0 SHL SUB AND DUP4 PUSH2 0xE7E JUMP JUMPDEST PUSH1 0x8 SLOAD PUSH2 0xD47 SWAP1 ADDRESS SWAP1 PUSH1 0x1 PUSH1 0x1 PUSH1 0xA0 SHL SUB AND DUP4 PUSH2 0xE7E JUMP JUMPDEST PUSH1 0x9 SLOAD PUSH2 0xD5F SWAP1 ADDRESS SWAP1 PUSH1 0x1 PUSH1 0x1 PUSH1 0xA0 SHL SUB AND DUP4 PUSH2 0xE7E JUMP JUMPDEST PUSH1 0xA SLOAD PUSH2 0xD77 SWAP1 ADDRESS SWAP1 PUSH1 0x1 PUSH1 0x1 PUSH1 0xA0 SHL SUB AND DUP4 PUSH2 0xE7E JUMP JUMPDEST PUSH1 0xB SLOAD PUSH2 0xD8F SWAP1 ADDRESS SWAP1 PUSH1 0x1 PUSH1 0x1 PUSH1 0xA0 SHL SUB AND DUP4 PUSH2 0xE7E JUMP JUMPDEST PUSH1 0xC SLOAD PUSH2 0xDA7 SWAP1 ADDRESS SWAP1 PUSH1 0x1 PUSH1 0x1 PUSH1 0xA0 SHL SUB AND DUP4 PUSH2 0xE7E JUMP JUMPDEST PUSH1 0x5 SLOAD PUSH1 0x6 SLOAD PUSH1 0x40 DUP1 MLOAD SWAP3 DUP4 MSTORE PUSH1 0x20 DUP4 ADD DUP5 SWAP1 MSTORE DUP3 ADD MSTORE PUSH32 0xD5C1E53FEBF89038959691E212F7A18F34F9AC92DD9965A138CCFC695E9774AC SWAP1 PUSH1 0x60 ADD PUSH1 0x40 MLOAD DUP1 SWAP2 SUB SWAP1 LOG1 POP POP POP JUMP JUMPDEST PUSH2 0xDFD DUP4 DUP4 DUP4 PUSH1 0x1 PUSH2 0xEDB JUMP JUMPDEST POP POP POP JUMP JUMPDEST PUSH1 0x1 PUSH1 0x1 PUSH1 0xA0 SHL SUB DUP4 DUP2 AND PUSH0 SWAP1 DUP2 MSTORE PUSH1 0x1 PUSH1 0x20 SWAP1 DUP2 MSTORE PUSH1 0x40 DUP1 DUP4 KECCAK256 SWAP4 DUP7 AND DUP4 MSTORE SWAP3 SWAP1 MSTORE KECCAK256 SLOAD PUSH0 NOT DUP2 LT ISZERO PUSH2 0xE78 JUMPI DUP2 DUP2 LT ISZERO PUSH2 0xE6A JUMPI PUSH1 0x40 MLOAD PUSH4 0x7DC7A0D9 PUSH1 0xE1 SHL DUP2 MSTORE PUSH1 0x1 PUSH1 0x1 PUSH1 0xA0 SHL SUB DUP5 AND PUSH1 0x4 DUP3 ADD MSTORE PUSH1 0x24 DUP2 ADD DUP3 SWAP1 MSTORE PUSH1 0x44 DUP2 ADD DUP4 SWAP1 MSTORE PUSH1 0x64 ADD PUSH2 0x5B5 JUMP JUMPDEST PUSH2 0xE78 DUP5 DUP5 DUP5 DUP5 SUB PUSH0 PUSH2 0xEDB JUMP JUMPDEST POP POP POP POP JUMP JUMPDEST PUSH1 0x1 PUSH1 0x1 PUSH1 0xA0 SHL SUB DUP4 AND PUSH2 0xEA7 JUMPI PUSH1 0x40 MLOAD PUSH4 0x4B637E8F PUSH1 0xE1 SHL DUP2 MSTORE PUSH0 PUSH1 0x4 DUP3 ADD MSTORE PUSH1 0x24 ADD PUSH2 0x5B5 JUMP JUMPDEST PUSH1 0x1 PUSH1 0x1 PUSH1 0xA0 SHL SUB DUP3 AND PUSH2 0xED0 JUMPI PUSH1 0x40 MLOAD PUSH4 0xEC442F05 PUSH1 0xE0 SHL DUP2 MSTORE PUSH0 PUSH1 0x4 DUP3 ADD MSTORE PUSH1 0x24 ADD PUSH2 0x5B5 JUMP JUMPDEST PUSH2 0xDFD DUP4 DUP4 DUP4 PUSH2 0xFAD JUMP JUMPDEST PUSH1 0x1 PUSH1 0x1 PUSH1 0xA0 SHL SUB DUP5 AND PUSH2 0xF04 JUMPI PUSH1 0x40 MLOAD PUSH4 0xE602DF05 PUSH1 0xE0 SHL DUP2 MSTORE PUSH0 PUSH1 0x4 DUP3 ADD MSTORE PUSH1 0x24 ADD PUSH2 0x5B5 JUMP JUMPDEST PUSH1 0x1 PUSH1 0x1 PUSH1 0xA0 SHL SUB DUP4 AND PUSH2 0xF2D JUMPI PUSH1 0x40 MLOAD PUSH4 0x4A1406B1 PUSH1 0xE1 SHL DUP2 MSTORE PUSH0 PUSH1 0x4 DUP3 ADD MSTORE PUSH1 0x24 ADD PUSH2 0x5B5 JUMP JUMPDEST PUSH1 0x1 PUSH1 0x1 PUSH1 0xA0 SHL SUB DUP1 DUP6 AND PUSH0 SWAP1 DUP2 MSTORE PUSH1 0x1 PUSH1 0x20 SWAP1 DUP2 MSTORE PUSH1 0x40 DUP1 DUP4 KECCAK256 SWAP4 DUP8 AND DUP4 MSTORE SWAP3 SWAP1 MSTORE KECCAK256 DUP3 SWAP1 SSTORE DUP1 ISZERO PUSH2 0xE78 JUMPI DUP3 PUSH1 0x1 PUSH1 0x1 PUSH1 0xA0 SHL SUB AND DUP5 PUSH1 0x1 PUSH1 0x1 PUSH1 0xA0 SHL SUB AND PUSH32 0x8C5BE1E5EBEC7D5BD14F71427D1E84F3DD0314C0F7B2291E5B200AC8C7C3B925 DUP5 PUSH1 0x40 MLOAD PUSH2 0xF9F SWAP2 DUP2 MSTORE PUSH1 0x20 ADD SWAP1 JUMP JUMPDEST PUSH1 0x40 MLOAD DUP1 SWAP2 SUB SWAP1 LOG3 POP POP POP POP JUMP JUMPDEST PUSH2 0xFB8 DUP4 DUP4 DUP4 PUSH2 0x10DE JUMP JUMPDEST PUSH1 0x1 PUSH1 0x1 PUSH1 0xA0 SHL SUB DUP4 AND PUSH2 0xFE2 JUMPI DUP1 PUSH1 0x2 PUSH0 DUP3 DUP3 SLOAD PUSH2 0xFD7 SWAP2 SWAP1 PUSH2 0x1424 JUMP JUMPDEST SWAP1 SWAP2 SSTORE POP PUSH2 0x1052 SWAP1 POP JUMP JUMPDEST PUSH1 0x1 PUSH1 0x1 PUSH1 0xA0 SHL SUB DUP4 AND PUSH0 SWAP1 DUP2 MSTORE PUSH1 0x20 DUP2 SWAP1 MSTORE PUSH1 0x40 SWAP1 KECCAK256 SLOAD DUP2 DUP2 LT ISZERO PUSH2 0x1034 JUMPI PUSH1 0x40 MLOAD PUSH4 0x391434E3 PUSH1 0xE2 SHL DUP2 MSTORE PUSH1 0x1 PUSH1 0x1 PUSH1 0xA0 SHL SUB DUP6 AND PUSH1 0x4 DUP3 ADD MSTORE PUSH1 0x24 DUP2 ADD DUP3 SWAP1 MSTORE PUSH1 0x44 DUP2 ADD DUP4 SWAP1 MSTORE PUSH1 0x64 ADD PUSH2 0x5B5 JUMP JUMPDEST PUSH1 0x1 PUSH1 0x1 PUSH1 0xA0 SHL SUB DUP5 AND PUSH0 SWAP1 DUP2 MSTORE PUSH1 0x20 DUP2 SWAP1 MSTORE PUSH1 0x40 SWAP1 KECCAK256 SWAP1 DUP3 SWAP1 SUB SWAP1 SSTORE JUMPDEST PUSH1 0x1 PUSH1 0x1 PUSH1 0xA0 SHL SUB DUP3 AND PUSH2 0x106E JUMPI PUSH1 0x2 DUP1 SLOAD DUP3 SWAP1 SUB SWAP1 SSTORE PUSH2 0x108C JUMP JUMPDEST PUSH1 0x1 PUSH1 0x1 PUSH1 0xA0 SHL SUB DUP3 AND PUSH0 SWAP1 DUP2 MSTORE PUSH1 0x20 DUP2 SWAP1 MSTORE PUSH1 0x40 SWAP1 KECCAK256 DUP1 SLOAD DUP3 ADD SWAP1 SSTORE JUMPDEST DUP2 PUSH1 0x1 PUSH1 0x1 PUSH1 0xA0 SHL SUB AND DUP4 PUSH1 0x1 PUSH1 0x1 PUSH1 0xA0 SHL SUB AND PUSH32 0xDDF252AD1BE2C89B69C2B068FC378DAA952BA7F163C4A11628F55A4DF523B3EF DUP4 PUSH1 0x40 MLOAD PUSH2 0x10D1 SWAP2 DUP2 MSTORE PUSH1 0x20 ADD SWAP1 JUMP JUMPDEST PUSH1 0x40 MLOAD DUP1 SWAP2 SUB SWAP1 LOG3 POP POP POP JUMP JUMPDEST PUSH1 0x1 PUSH1 0x1 PUSH1 0xA0 SHL SUB DUP4 AND PUSH0 SWAP1 DUP2 MSTORE PUSH1 0xE PUSH1 0x20 MSTORE PUSH1 0x40 SWAP1 KECCAK256 SLOAD DUP4 SWAP1 DUP4 SWAP1 PUSH1 0xFF AND DUP1 ISZERO PUSH2 0x1113 JUMPI POP PUSH1 0xC SLOAD PUSH1 0x1 PUSH1 0xA0 SHL SWAP1 DIV PUSH1 0xFF AND ISZERO JUMPDEST ISZERO PUSH2 0x118C JUMPI PUSH1 0xD SLOAD PUSH1 0x1 PUSH1 0x1 PUSH1 0xA0 SHL SUB DUP3 DUP2 AND SWAP2 AND EQ DUP1 PUSH2 0x114B JUMPI POP PUSH1 0x1 PUSH1 0x1 PUSH1 0xA0 SHL SUB DUP2 AND PUSH0 SWAP1 DUP2 MSTORE PUSH1 0xF PUSH1 0x20 MSTORE PUSH1 0x40 SWAP1 KECCAK256 SLOAD PUSH1 0xFF AND JUMPDEST PUSH2 0x118C JUMPI PUSH1 0x40 MLOAD PUSH3 0x461BCD PUSH1 0xE5 SHL DUP2 MSTORE PUSH1 0x20 PUSH1 0x4 DUP3 ADD MSTORE PUSH1 0x12 PUSH1 0x24 DUP3 ADD MSTORE PUSH18 0x109D5E5A5B99C81A5CC8191A5CD8589B1959 PUSH1 0x72 SHL PUSH1 0x44 DUP3 ADD MSTORE PUSH1 0x64 ADD PUSH2 0x5B5 JUMP JUMPDEST PUSH1 0x1 PUSH1 0x1 PUSH1 0xA0 SHL SUB DUP2 AND PUSH0 SWAP1 DUP2 MSTORE PUSH1 0xE PUSH1 0x20 MSTORE PUSH1 0x40 SWAP1 KECCAK256 SLOAD PUSH1 0xFF AND DUP1 ISZERO PUSH2 0x11BD JUMPI POP PUSH1 0xC SLOAD PUSH1 0x1 PUSH1 0xA8 SHL SWAP1 DIV PUSH1 0xFF AND ISZERO JUMPDEST ISZERO PUSH2 0x1237 JUMPI PUSH1 0xD SLOAD PUSH1 0x1 PUSH1 0x1 PUSH1 0xA0 SHL SUB DUP4 DUP2 AND SWAP2 AND EQ DUP1 PUSH2 0x11F5 JUMPI POP PUSH1 0x1 PUSH1 0x1 PUSH1 0xA0 SHL SUB DUP3 AND PUSH0 SWAP1 DUP2 MSTORE PUSH1 0xF PUSH1 0x20 MSTORE PUSH1 0x40 SWAP1 KECCAK256 SLOAD PUSH1 0xFF AND JUMPDEST PUSH2 0x1237 JUMPI PUSH1 0x40 MLOAD PUSH3 0x461BCD PUSH1 0xE5 SHL DUP2 MSTORE PUSH1 0x20 PUSH1 0x4 DUP3 ADD MSTORE PUSH1 0x13 PUSH1 0x24 DUP3 ADD MSTORE PUSH19 0x14D95B1B1A5B99C81A5CC8191A5CD8589B1959 PUSH1 0x6A SHL PUSH1 0x44 DUP3 ADD MSTORE PUSH1 0x64 ADD PUSH2 0x5B5 JUMP JUMPDEST POP POP POP POP POP JUMP JUMPDEST PUSH1 0x20 DUP2 MSTORE PUSH0 DUP3 MLOAD DUP1 PUSH1 0x20 DUP5 ADD MSTORE DUP1 PUSH1 0x20 DUP6 ADD PUSH1 0x40 DUP6 ADD MCOPY PUSH0 PUSH1 0x40 DUP3 DUP6 ADD ADD MSTORE PUSH1 0x40 PUSH1 0x1F NOT PUSH1 0x1F DUP4 ADD AND DUP5 ADD ADD SWAP2 POP POP SWAP3 SWAP2 POP POP JUMP JUMPDEST DUP1 CALLDATALOAD PUSH1 0x1 PUSH1 0x1 PUSH1 0xA0 SHL SUB DUP2 AND DUP2 EQ PUSH2 0x1289 JUMPI PUSH0 DUP1 REVERT JUMPDEST SWAP2 SWAP1 POP JUMP JUMPDEST PUSH0 DUP1 PUSH1 0x40 DUP4 DUP6 SUB SLT ISZERO PUSH2 0x129F JUMPI PUSH0 DUP1 REVERT JUMPDEST PUSH2 0x12A8 DUP4 PUSH2 0x1273 JUMP JUMPDEST SWAP5 PUSH1 0x20 SWAP4 SWAP1 SWAP4 ADD CALLDATALOAD SWAP4 POP POP POP JUMP JUMPDEST PUSH0 DUP1 PUSH0 PUSH1 0x60 DUP5 DUP7 SUB SLT ISZERO PUSH2 0x12C8 JUMPI PUSH0 DUP1 REVERT JUMPDEST PUSH2 0x12D1 DUP5 PUSH2 0x1273 JUMP JUMPDEST SWAP3 POP PUSH2 0x12DF PUSH1 0x20 DUP6 ADD PUSH2 0x1273 JUMP JUMPDEST SWAP3 SWAP6 SWAP3 SWAP5 POP POP POP PUSH1 0x40 SWAP2 SWAP1 SWAP2 ADD CALLDATALOAD SWAP1 JUMP JUMPDEST PUSH0 DUP1 PUSH1 0x40 DUP4 DUP6 SUB SLT ISZERO PUSH2 0x1301 JUMPI PUSH0 DUP1 REVERT JUMPDEST DUP3 CALLDATALOAD SWAP2 POP PUSH2 0x1311 PUSH1 0x20 DUP5 ADD PUSH2 0x1273 JUMP JUMPDEST SWAP1 POP SWAP3 POP SWAP3 SWAP1 POP JUMP JUMPDEST PUSH0 PUSH1 0x20 DUP3 DUP5 SUB SLT ISZERO PUSH2 0x132A JUMPI PUSH0 DUP1 REVERT JUMPDEST PUSH2 0x1333 DUP3 PUSH2 0x1273 JUMP JUMPDEST SWAP4 SWAP3 POP POP POP JUMP JUMPDEST DUP1 CALLDATALOAD DUP1 ISZERO ISZERO DUP2 EQ PUSH2 0x1289 JUMPI PUSH0 DUP1 REVERT JUMPDEST PUSH0 DUP1 PUSH1 0x40 DUP4 DUP6 SUB SLT ISZERO PUSH2 0x135A JUMPI PUSH0 DUP1 REVERT JUMPDEST PUSH2 0x1363 DUP4 PUSH2 0x1273 JUMP JUMPDEST SWAP2 POP PUSH2 0x1311 PUSH1 0x20 DUP5 ADD PUSH2 0x133A JUMP JUMPDEST PUSH0 PUSH1 0x20 DUP3 DUP5 SUB SLT ISZERO PUSH2 0x1381 JUMPI PUSH0 DUP1 REVERT JUMPDEST PUSH2 0x1333 DUP3 PUSH2 0x133A JUMP JUMPDEST PUSH0 DUP1 PUSH1 0x40 DUP4 DUP6 SUB SLT ISZERO PUSH2 0x139B JUMPI PUSH0 DUP1 REVERT JUMPDEST PUSH2 0x13A4 DUP4 PUSH2 0x1273 JUMP JUMPDEST SWAP2 POP PUSH2 0x1311 PUSH1 0x20 DUP5 ADD PUSH2 0x1273 JUMP JUMPDEST PUSH1 0x1 DUP2 DUP2 SHR SWAP1 DUP3 AND DUP1 PUSH2 0x13C6 JUMPI PUSH1 0x7F DUP3 AND SWAP2 POP JUMPDEST PUSH1 0x20 DUP3 LT DUP2 SUB PUSH2 0x13E4 JUMPI PUSH4 0x4E487B71 PUSH1 0xE0 SHL PUSH0 MSTORE PUSH1 0x22 PUSH1 0x4 MSTORE PUSH1 0x24 PUSH0 REVERT JUMPDEST POP SWAP2 SWAP1 POP JUMP JUMPDEST PUSH1 0x20 DUP1 DUP3 MSTORE PUSH1 0xC SWAP1 DUP3 ADD MSTORE PUSH12 0x4E6F7420616C6C6F77656421 PUSH1 0xA0 SHL PUSH1 0x40 DUP3 ADD MSTORE PUSH1 0x60 ADD SWAP1 JUMP JUMPDEST PUSH4 0x4E487B71 PUSH1 0xE0 SHL PUSH0 MSTORE PUSH1 0x11 PUSH1 0x4 MSTORE PUSH1 0x24 PUSH0 REVERT JUMPDEST DUP1 DUP3 ADD DUP1 DUP3 GT ISZERO PUSH2 0x562 JUMPI PUSH2 0x562 PUSH2 0x1410 JUMP JUMPDEST DUP2 DUP2 SUB DUP2 DUP2 GT ISZERO PUSH2 0x562 JUMPI PUSH2 0x562 PUSH2 0x1410 JUMP JUMPDEST DUP1 DUP3 MUL DUP2 ISZERO DUP3 DUP3 DIV DUP5 EQ OR PUSH2 0x562 JUMPI PUSH2 0x562 PUSH2 0x1410 JUMP JUMPDEST PUSH0 DUP3 PUSH2 0x147B JUMPI PUSH4 0x4E487B71 PUSH1 0xE0 SHL PUSH0 MSTORE PUSH1 0x12 PUSH1 0x4 MSTORE PUSH1 0x24 PUSH0 REVERT JUMPDEST POP DIV SWAP1 JUMP JUMPDEST PUSH0 PUSH1 0x1 DUP3 ADD PUSH2 0x1491 JUMPI PUSH2 0x1491 PUSH2 0x1410 JUMP JUMPDEST POP PUSH1 0x1 ADD SWAP1 JUMP INVALID LOG2 PUSH5 0x6970667358 0x22 SLT KECCAK256 0xE4 DUP2 CODECOPY 0xF6 0xEC PUSH21 0xDD2F2CD832075023AA86DE42945A39E6A247F89762 0xF6 0xC0 LOG3 0xDA 0x2B PUSH5 0x736F6C6343 STOP ADDMOD BYTE STOP CALLER "
				},
				"gasEstimates": {
					"creation": {
						"codeDepositCost": "1065200",
						"executionCost": "infinite",
						"totalCost": "infinite"
					},
					"external": {
						"LOCKED_SUPPLY()": "328",
						"PUBLIC_SUPPLY()": "267",
						"TOTAL_SUPPLY()": "240",
						"allowance(address,address)": "infinite",
						"approve(address,uint256)": "24803",
						"awardBonus()": "2414",
						"balanceOf(address)": "2627",
						"buyingEnabled()": "2437",
						"decimals()": "288",
						"gameTreasury()": "2392",
						"getNextUnlockInfo()": "infinite",
						"isDex(address)": "2574",
						"lastUnlockMonth()": "2339",
						"liquidityListing()": "2393",
						"managers(address)": "2638",
						"marketing()": "2415",
						"name()": "infinite",
						"referralBonus()": "2370",
						"sellingEnabled()": "2392",
						"setBuyingEnabled(bool)": "26782",
						"setDexAddress(address,bool)": "infinite",
						"setManager(address,bool)": "infinite",
						"setSellingEnabled(bool)": "26760",
						"stakingReward()": "2372",
						"startTimestamp()": "infinite",
						"symbol()": "infinite",
						"totalSupply()": "2393",
						"totalUnlocked()": "2406",
						"transfer(address,uint256)": "68768",
						"transferFrom(address,address,uint256)": "infinite",
						"unlockTokens()": "infinite",
						"updateDistributionAddress(uint256,address)": "26990"
					},
					"internal": {
						"_beforeTokenTransfer(address,address,uint256)": "infinite"
					}
				},
				"methodIdentifiers": {
					"LOCKED_SUPPLY()": "e8be9a44",
					"PUBLIC_SUPPLY()": "8342083a",
					"TOTAL_SUPPLY()": "902d55a5",
					"allowance(address,address)": "dd62ed3e",
					"approve(address,uint256)": "095ea7b3",
					"awardBonus()": "b361412a",
					"balanceOf(address)": "70a08231",
					"buyingEnabled()": "8ed2fe91",
					"decimals()": "313ce567",
					"gameTreasury()": "d2f9efab",
					"getNextUnlockInfo()": "be381b85",
					"isDex(address)": "3c11e12a",
					"lastUnlockMonth()": "8310a74d",
					"liquidityListing()": "67859b6e",
					"managers(address)": "fdff9b4d",
					"marketing()": "2d3e474a",
					"name()": "06fdde03",
					"referralBonus()": "ce7842f5",
					"sellingEnabled()": "f771cb65",
					"setBuyingEnabled(bool)": "8ddedb33",
					"setDexAddress(address,bool)": "7cdf6fb1",
					"setManager(address,bool)": "a5e90eee",
					"setSellingEnabled(bool)": "b16d78cf",
					"stakingReward()": "042249bb",
					"startTimestamp()": "e6fd48bc",
					"symbol()": "95d89b41",
					"totalSupply()": "18160ddd",
					"totalUnlocked()": "a779d080",
					"transfer(address,uint256)": "a9059cbb",
					"transferFrom(address,address,uint256)": "23b872dd",
					"unlockTokens()": "f968f493",
					"updateDistributionAddress(uint256,address)": "2be8781f"
				}
			},
			"storageLayout": {
				"storage": [
					{
						"astId": 279,
						"contract": "src/assets/BBD_Token.sol:BBDToken",
						"label": "_balances",
						"offset": 0,
						"slot": "0",
						"type": "t_mapping(t_address,t_uint256)"
					},
					{
						"astId": 285,
						"contract": "src/assets/BBD_Token.sol:BBDToken",
						"label": "_allowances",
						"offset": 0,
						"slot": "1",
						"type": "t_mapping(t_address,t_mapping(t_address,t_uint256))"
					},
					{
						"astId": 287,
						"contract": "src/assets/BBD_Token.sol:BBDToken",
						"label": "_totalSupply",
						"offset": 0,
						"slot": "2",
						"type": "t_uint256"
					},
					{
						"astId": 289,
						"contract": "src/assets/BBD_Token.sol:BBDToken",
						"label": "_name",
						"offset": 0,
						"slot": "3",
						"type": "t_string_storage"
					},
					{
						"astId": 291,
						"contract": "src/assets/BBD_Token.sol:BBDToken",
						"label": "_symbol",
						"offset": 0,
						"slot": "4",
						"type": "t_string_storage"
					},
					{
						"astId": 808,
						"contract": "src/assets/BBD_Token.sol:BBDToken",
						"label": "lastUnlockMonth",
						"offset": 0,
						"slot": "5",
						"type": "t_uint256"
					},
					{
						"astId": 810,
						"contract": "src/assets/BBD_Token.sol:BBDToken",
						"label": "totalUnlocked",
						"offset": 0,
						"slot": "6",
						"type": "t_uint256"
					},
					{
						"astId": 813,
						"contract": "src/assets/BBD_Token.sol:BBDToken",
						"label": "liquidityListing",
						"offset": 0,
						"slot": "7",
						"type": "t_address"
					},
					{
						"astId": 816,
						"contract": "src/assets/BBD_Token.sol:BBDToken",
						"label": "gameTreasury",
						"offset": 0,
						"slot": "8",
						"type": "t_address"
					},
					{
						"astId": 819,
						"contract": "src/assets/BBD_Token.sol:BBDToken",
						"label": "marketing",
						"offset": 0,
						"slot": "9",
						"type": "t_address"
					},
					{
						"astId": 822,
						"contract": "src/assets/BBD_Token.sol:BBDToken",
						"label": "stakingReward",
						"offset": 0,
						"slot": "10",
						"type": "t_address"
					},
					{
						"astId": 825,
						"contract": "src/assets/BBD_Token.sol:BBDToken",
						"label": "referralBonus",
						"offset": 0,
						"slot": "11",
						"type": "t_address"
					},
					{
						"astId": 828,
						"contract": "src/assets/BBD_Token.sol:BBDToken",
						"label": "awardBonus",
						"offset": 0,
						"slot": "12",
						"type": "t_address"
					},
					{
						"astId": 831,
						"contract": "src/assets/BBD_Token.sol:BBDToken",
						"label": "buyingEnabled",
						"offset": 20,
						"slot": "12",
						"type": "t_bool"
					},
					{
						"astId": 834,
						"contract": "src/assets/BBD_Token.sol:BBDToken",
						"label": "sellingEnabled",
						"offset": 21,
						"slot": "12",
						"type": "t_bool"
					},
					{
						"astId": 836,
						"contract": "src/assets/BBD_Token.sol:BBDToken",
						"label": "_owner",
						"offset": 0,
						"slot": "13",
						"type": "t_address"
					},
					{
						"astId": 840,
						"contract": "src/assets/BBD_Token.sol:BBDToken",
						"label": "isDex",
						"offset": 0,
						"slot": "14",
						"type": "t_mapping(t_address,t_bool)"
					},
					{
						"astId": 844,
						"contract": "src/assets/BBD_Token.sol:BBDToken",
						"label": "managers",
						"offset": 0,
						"slot": "15",
						"type": "t_mapping(t_address,t_bool)"
					}
				],
				"types": {
					"t_address": {
						"encoding": "inplace",
						"label": "address",
						"numberOfBytes": "20"
					},
					"t_bool": {
						"encoding": "inplace",
						"label": "bool",
						"numberOfBytes": "1"
					},
					"t_mapping(t_address,t_bool)": {
						"encoding": "mapping",
						"key": "t_address",
						"label": "mapping(address => bool)",
						"numberOfBytes": "32",
						"value": "t_bool"
					},
					"t_mapping(t_address,t_mapping(t_address,t_uint256))": {
						"encoding": "mapping",
						"key": "t_address",
						"label": "mapping(address => mapping(address => uint256))",
						"numberOfBytes": "32",
						"value": "t_mapping(t_address,t_uint256)"
					},
					"t_mapping(t_address,t_uint256)": {
						"encoding": "mapping",
						"key": "t_address",
						"label": "mapping(address => uint256)",
						"numberOfBytes": "32",
						"value": "t_uint256"
					},
					"t_string_storage": {
						"encoding": "bytes",
						"label": "string",
						"numberOfBytes": "32"
					},
					"t_uint256": {
						"encoding": "inplace",
						"label": "uint256",
						"numberOfBytes": "32"
					}
				}
			},
			"userdoc": {
				"kind": "user",
				"methods": {},
				"version": 1
			}
		}
	}
}