{
	"src/assets/BBD_Token.sol": {
		"BBDToken": {
			"abi": [
				{
					"inputs": [
						{
							"internalType": "address",
							"name": "owner_",
							"type": "address"
						}
					],
					"stateMutability": "nonpayable",
					"type": "constructor"
				},
				{
					"inputs": [
						{
							"internalType": "address",
							"name": "spender",
							"type": "address"
						},
						{
							"internalType": "uint256",
							"name": "allowance",
							"type": "uint256"
						},
						{
							"internalType": "uint256",
							"name": "needed",
							"type": "uint256"
						}
					],
					"name": "ERC20InsufficientAllowance",
					"type": "error"
				},
				{
					"inputs": [
						{
							"internalType": "address",
							"name": "sender",
							"type": "address"
						},
						{
							"internalType": "uint256",
							"name": "balance",
							"type": "uint256"
						},
						{
							"internalType": "uint256",
							"name": "needed",
							"type": "uint256"
						}
					],
					"name": "ERC20InsufficientBalance",
					"type": "error"
				},
				{
					"inputs": [
						{
							"internalType": "address",
							"name": "approver",
							"type": "address"
						}
					],
					"name": "ERC20InvalidApprover",
					"type": "error"
				},
				{
					"inputs": [
						{
							"internalType": "address",
							"name": "receiver",
							"type": "address"
						}
					],
					"name": "ERC20InvalidReceiver",
					"type": "error"
				},
				{
					"inputs": [
						{
							"internalType": "address",
							"name": "sender",
							"type": "address"
						}
					],
					"name": "ERC20InvalidSender",
					"type": "error"
				},
				{
					"inputs": [
						{
							"internalType": "address",
							"name": "spender",
							"type": "address"
						}
					],
					"name": "ERC20InvalidSpender",
					"type": "error"
				},
				{
					"inputs": [
						{
							"internalType": "address",
							"name": "owner",
							"type": "address"
						}
					],
					"name": "OwnableInvalidOwner",
					"type": "error"
				},
				{
					"inputs": [
						{
							"internalType": "address",
							"name": "account",
							"type": "address"
						}
					],
					"name": "OwnableUnauthorizedAccount",
					"type": "error"
				},
				{
					"anonymous": false,
					"inputs": [
						{
							"indexed": true,
							"internalType": "address",
							"name": "owner",
							"type": "address"
						},
						{
							"indexed": true,
							"internalType": "address",
							"name": "spender",
							"type": "address"
						},
						{
							"indexed": false,
							"internalType": "uint256",
							"name": "value",
							"type": "uint256"
						}
					],
					"name": "Approval",
					"type": "event"
				},
				{
					"anonymous": false,
					"inputs": [
						{
							"indexed": true,
							"internalType": "address",
							"name": "previousOwner",
							"type": "address"
						},
						{
							"indexed": true,
							"internalType": "address",
							"name": "newOwner",
							"type": "address"
						}
					],
					"name": "OwnershipTransferred",
					"type": "event"
				},
				{
					"anonymous": false,
					"inputs": [
						{
							"indexed": false,
							"internalType": "uint256",
							"name": "month",
							"type": "uint256"
						},
						{
							"indexed": false,
							"internalType": "uint256",
							"name": "amountPerWallet",
							"type": "uint256"
						},
						{
							"indexed": false,
							"internalType": "uint256",
							"name": "totalUnlocked",
							"type": "uint256"
						}
					],
					"name": "TokensUnlocked",
					"type": "event"
				},
				{
					"anonymous": false,
					"inputs": [
						{
							"indexed": true,
							"internalType": "address",
							"name": "from",
							"type": "address"
						},
						{
							"indexed": true,
							"internalType": "address",
							"name": "to",
							"type": "address"
						},
						{
							"indexed": false,
							"internalType": "uint256",
							"name": "value",
							"type": "uint256"
						}
					],
					"name": "Transfer",
					"type": "event"
				},
				{
					"inputs": [],
					"name": "LOCKED_SUPPLY",
					"outputs": [
						{
							"internalType": "uint256",
							"name": "",
							"type": "uint256"
						}
					],
					"stateMutability": "view",
					"type": "function"
				},
				{
					"inputs": [],
					"name": "PUBLIC_SUPPLY",
					"outputs": [
						{
							"internalType": "uint256",
							"name": "",
							"type": "uint256"
						}
					],
					"stateMutability": "view",
					"type": "function"
				},
				{
					"inputs": [],
					"name": "TOTAL_SUPPLY",
					"outputs": [
						{
							"internalType": "uint256",
							"name": "",
							"type": "uint256"
						}
					],
					"stateMutability": "view",
					"type": "function"
				},
				{
					"inputs": [
						{
							"internalType": "address",
							"name": "owner",
							"type": "address"
						},
						{
							"internalType": "address",
							"name": "spender",
							"type": "address"
						}
					],
					"name": "allowance",
					"outputs": [
						{
							"internalType": "uint256",
							"name": "",
							"type": "uint256"
						}
					],
					"stateMutability": "view",
					"type": "function"
				},
				{
					"inputs": [
						{
							"internalType": "address",
							"name": "spender",
							"type": "address"
						},
						{
							"internalType": "uint256",
							"name": "value",
							"type": "uint256"
						}
					],
					"name": "approve",
					"outputs": [
						{
							"internalType": "bool",
							"name": "",
							"type": "bool"
						}
					],
					"stateMutability": "nonpayable",
					"type": "function"
				},
				{
					"inputs": [],
					"name": "awardBonus",
					"outputs": [
						{
							"internalType": "address",
							"name": "",
							"type": "address"
						}
					],
					"stateMutability": "view",
					"type": "function"
				},
				{
					"inputs": [
						{
							"internalType": "address",
							"name": "account",
							"type": "address"
						}
					],
					"name": "balanceOf",
					"outputs": [
						{
							"internalType": "uint256",
							"name": "",
							"type": "uint256"
						}
					],
					"stateMutability": "view",
					"type": "function"
				},
				{
					"inputs": [],
					"name": "decimals",
					"outputs": [
						{
							"internalType": "uint8",
							"name": "",
							"type": "uint8"
						}
					],
					"stateMutability": "view",
					"type": "function"
				},
				{
					"inputs": [],
					"name": "gameTreasury",
					"outputs": [
						{
							"internalType": "address",
							"name": "",
							"type": "address"
						}
					],
					"stateMutability": "view",
					"type": "function"
				},
				{
					"inputs": [],
					"name": "getNextUnlockInfo",
					"outputs": [
						{
							"internalType": "uint256",
							"name": "month",
							"type": "uint256"
						},
						{
							"internalType": "uint256",
							"name": "amountTotal",
							"type": "uint256"
						},
						{
							"internalType": "uint256",
							"name": "perWallet",
							"type": "uint256"
						}
					],
					"stateMutability": "view",
					"type": "function"
				},
				{
					"inputs": [],
					"name": "lastUnlockMonth",
					"outputs": [
						{
							"internalType": "uint256",
							"name": "",
							"type": "uint256"
						}
					],
					"stateMutability": "view",
					"type": "function"
				},
				{
					"inputs": [],
					"name": "liquidityListing",
					"outputs": [
						{
							"internalType": "address",
							"name": "",
							"type": "address"
						}
					],
					"stateMutability": "view",
					"type": "function"
				},
				{
					"inputs": [],
					"name": "marketing",
					"outputs": [
						{
							"internalType": "address",
							"name": "",
							"type": "address"
						}
					],
					"stateMutability": "view",
					"type": "function"
				},
				{
					"inputs": [],
					"name": "name",
					"outputs": [
						{
							"internalType": "string",
							"name": "",
							"type": "string"
						}
					],
					"stateMutability": "view",
					"type": "function"
				},
				{
					"inputs": [],
					"name": "owner",
					"outputs": [
						{
							"internalType": "address",
							"name": "",
							"type": "address"
						}
					],
					"stateMutability": "view",
					"type": "function"
				},
				{
					"inputs": [],
					"name": "referralBonus",
					"outputs": [
						{
							"internalType": "address",
							"name": "",
							"type": "address"
						}
					],
					"stateMutability": "view",
					"type": "function"
				},
				{
					"inputs": [],
					"name": "renounceOwnership",
					"outputs": [],
					"stateMutability": "nonpayable",
					"type": "function"
				},
				{
					"inputs": [],
					"name": "stakingReward",
					"outputs": [
						{
							"internalType": "address",
							"name": "",
							"type": "address"
						}
					],
					"stateMutability": "view",
					"type": "function"
				},
				{
					"inputs": [],
					"name": "startTimestamp",
					"outputs": [
						{
							"internalType": "uint256",
							"name": "",
							"type": "uint256"
						}
					],
					"stateMutability": "view",
					"type": "function"
				},
				{
					"inputs": [],
					"name": "symbol",
					"outputs": [
						{
							"internalType": "string",
							"name": "",
							"type": "string"
						}
					],
					"stateMutability": "view",
					"type": "function"
				},
				{
					"inputs": [],
					"name": "totalSupply",
					"outputs": [
						{
							"internalType": "uint256",
							"name": "",
							"type": "uint256"
						}
					],
					"stateMutability": "view",
					"type": "function"
				},
				{
					"inputs": [],
					"name": "totalUnlocked",
					"outputs": [
						{
							"internalType": "uint256",
							"name": "",
							"type": "uint256"
						}
					],
					"stateMutability": "view",
					"type": "function"
				},
				{
					"inputs": [
						{
							"internalType": "address",
							"name": "to",
							"type": "address"
						},
						{
							"internalType": "uint256",
							"name": "value",
							"type": "uint256"
						}
					],
					"name": "transfer",
					"outputs": [
						{
							"internalType": "bool",
							"name": "",
							"type": "bool"
						}
					],
					"stateMutability": "nonpayable",
					"type": "function"
				},
				{
					"inputs": [
						{
							"internalType": "address",
							"name": "from",
							"type": "address"
						},
						{
							"internalType": "address",
							"name": "to",
							"type": "address"
						},
						{
							"internalType": "uint256",
							"name": "value",
							"type": "uint256"
						}
					],
					"name": "transferFrom",
					"outputs": [
						{
							"internalType": "bool",
							"name": "",
							"type": "bool"
						}
					],
					"stateMutability": "nonpayable",
					"type": "function"
				},
				{
					"inputs": [
						{
							"internalType": "address",
							"name": "newOwner",
							"type": "address"
						}
					],
					"name": "transferOwnership",
					"outputs": [],
					"stateMutability": "nonpayable",
					"type": "function"
				},
				{
					"inputs": [],
					"name": "unlockTokens",
					"outputs": [],
					"stateMutability": "nonpayable",
					"type": "function"
				},
				{
					"inputs": [
						{
							"internalType": "uint256",
							"name": "index",
							"type": "uint256"
						},
						{
							"internalType": "address",
							"name": "newAddress",
							"type": "address"
						}
					],
					"name": "updateDistributionAddress",
					"outputs": [],
					"stateMutability": "nonpayable",
					"type": "function"
				}
			],
			"devdoc": {
				"errors": {
					"ERC20InsufficientAllowance(address,uint256,uint256)": [
						{
							"details": "Indicates a failure with the `spender`’s `allowance`. Used in transfers.",
							"params": {
								"allowance": "Amount of tokens a `spender` is allowed to operate with.",
								"needed": "Minimum amount required to perform a transfer.",
								"spender": "Address that may be allowed to operate on tokens without being their owner."
							}
						}
					],
					"ERC20InsufficientBalance(address,uint256,uint256)": [
						{
							"details": "Indicates an error related to the current `balance` of a `sender`. Used in transfers.",
							"params": {
								"balance": "Current balance for the interacting account.",
								"needed": "Minimum amount required to perform a transfer.",
								"sender": "Address whose tokens are being transferred."
							}
						}
					],
					"ERC20InvalidApprover(address)": [
						{
							"details": "Indicates a failure with the `approver` of a token to be approved. Used in approvals.",
							"params": {
								"approver": "Address initiating an approval operation."
							}
						}
					],
					"ERC20InvalidReceiver(address)": [
						{
							"details": "Indicates a failure with the token `receiver`. Used in transfers.",
							"params": {
								"receiver": "Address to which tokens are being transferred."
							}
						}
					],
					"ERC20InvalidSender(address)": [
						{
							"details": "Indicates a failure with the token `sender`. Used in transfers.",
							"params": {
								"sender": "Address whose tokens are being transferred."
							}
						}
					],
					"ERC20InvalidSpender(address)": [
						{
							"details": "Indicates a failure with the `spender` to be approved. Used in approvals.",
							"params": {
								"spender": "Address that may be allowed to operate on tokens without being their owner."
							}
						}
					],
					"OwnableInvalidOwner(address)": [
						{
							"details": "The owner is not a valid owner account. (eg. `address(0)`)"
						}
					],
					"OwnableUnauthorizedAccount(address)": [
						{
							"details": "The caller account is not authorized to perform an operation."
						}
					]
				},
				"events": {
					"Approval(address,address,uint256)": {
						"details": "Emitted when the allowance of a `spender` for an `owner` is set by a call to {approve}. `value` is the new allowance."
					},
					"Transfer(address,address,uint256)": {
						"details": "Emitted when `value` tokens are moved from one account (`from`) to another (`to`). Note that `value` may be zero."
					}
				},
				"kind": "dev",
				"methods": {
					"allowance(address,address)": {
						"details": "See {IERC20-allowance}."
					},
					"approve(address,uint256)": {
						"details": "See {IERC20-approve}. NOTE: If `value` is the maximum `uint256`, the allowance is not updated on `transferFrom`. This is semantically equivalent to an infinite approval. Requirements: - `spender` cannot be the zero address."
					},
					"balanceOf(address)": {
						"details": "See {IERC20-balanceOf}."
					},
					"decimals()": {
						"details": "Returns the number of decimals used to get its user representation. For example, if `decimals` equals `2`, a balance of `505` tokens should be displayed to a user as `5.05` (`505 / 10 ** 2`). Tokens usually opt for a value of 18, imitating the relationship between Ether and Wei. This is the default value returned by this function, unless it's overridden. NOTE: This information is only used for _display_ purposes: it in no way affects any of the arithmetic of the contract, including {IERC20-balanceOf} and {IERC20-transfer}."
					},
					"name()": {
						"details": "Returns the name of the token."
					},
					"owner()": {
						"details": "Returns the address of the current owner."
					},
					"renounceOwnership()": {
						"details": "Leaves the contract without owner. It will not be possible to call `onlyOwner` functions. Can only be called by the current owner. NOTE: Renouncing ownership will leave the contract without an owner, thereby disabling any functionality that is only available to the owner."
					},
					"symbol()": {
						"details": "Returns the symbol of the token, usually a shorter version of the name."
					},
					"totalSupply()": {
						"details": "See {IERC20-totalSupply}."
					},
					"transfer(address,uint256)": {
						"details": "See {IERC20-transfer}. Requirements: - `to` cannot be the zero address. - the caller must have a balance of at least `value`."
					},
					"transferFrom(address,address,uint256)": {
						"details": "See {IERC20-transferFrom}. Skips emitting an {Approval} event indicating an allowance update. This is not required by the ERC. See {xref-ERC20-_approve-address-address-uint256-bool-}[_approve]. NOTE: Does not update the allowance if the current allowance is the maximum `uint256`. Requirements: - `from` and `to` cannot be the zero address. - `from` must have a balance of at least `value`. - the caller must have allowance for ``from``'s tokens of at least `value`."
					},
					"transferOwnership(address)": {
						"details": "Transfers ownership of the contract to a new account (`newOwner`). Can only be called by the current owner."
					}
				},
				"version": 1
			},
			"evm": {
				"assembly": "    /* \"src/assets/BBD_Token.sol\":174:4216  contract BBDToken is ERC20, Ownable {... */\n  mstore(0x40, 0xa0)\n    /* \"src/assets/BBD_Token.sol\":548:624  address public liquidityListing = 0x7Ec13697D98925bA1dC2BcC705c071bd168B10C2 */\n  0x08\n  dup1\n  sload\n  not(sub(shl(0xa0, 0x01), 0x01))\n  swap1\n  dup2\n  and\n    /* \"src/assets/BBD_Token.sol\":582:624  0x7Ec13697D98925bA1dC2BcC705c071bd168B10C2 */\n  0x7ec13697d98925ba1dc2bcc705c071bd168b10c2\n    /* \"src/assets/BBD_Token.sol\":548:624  address public liquidityListing = 0x7Ec13697D98925bA1dC2BcC705c071bd168B10C2 */\n  or\n  swap1\n  swap2\n  sstore\n    /* \"src/assets/BBD_Token.sol\":631:703  address public gameTreasury = 0x8de119e98707Ac240abA2cB77E83B29882A34357 */\n  0x09\n  dup1\n  sload\n  dup3\n  and\n    /* \"src/assets/BBD_Token.sol\":661:703  0x8de119e98707Ac240abA2cB77E83B29882A34357 */\n  0x8de119e98707ac240aba2cb77e83b29882a34357\n    /* \"src/assets/BBD_Token.sol\":631:703  address public gameTreasury = 0x8de119e98707Ac240abA2cB77E83B29882A34357 */\n  or\n  swap1\n  sstore\n    /* \"src/assets/BBD_Token.sol\":710:779  address public marketing = 0x03499C18F7265BE9AFDA16504A34CD1892F278AE */\n  0x0a\n  dup1\n  sload\n  dup3\n  and\n    /* \"src/assets/BBD_Token.sol\":737:779  0x03499C18F7265BE9AFDA16504A34CD1892F278AE */\n  0x03499c18f7265be9afda16504a34cd1892f278ae\n    /* \"src/assets/BBD_Token.sol\":710:779  address public marketing = 0x03499C18F7265BE9AFDA16504A34CD1892F278AE */\n  or\n  swap1\n  sstore\n    /* \"src/assets/BBD_Token.sol\":786:859  address public stakingReward = 0xcc234a1d3e32148461b7eaCb5a8bf4D0C4b6Be74 */\n  0x0b\n  dup1\n  sload\n  dup3\n  and\n    /* \"src/assets/BBD_Token.sol\":817:859  0xcc234a1d3e32148461b7eaCb5a8bf4D0C4b6Be74 */\n  0xcc234a1d3e32148461b7eacb5a8bf4d0c4b6be74\n    /* \"src/assets/BBD_Token.sol\":786:859  address public stakingReward = 0xcc234a1d3e32148461b7eaCb5a8bf4D0C4b6Be74 */\n  or\n  swap1\n  sstore\n    /* \"src/assets/BBD_Token.sol\":866:939  address public referralBonus = 0xCeEA0E87B553bc445C5Eb2242b5F28Cd81B4ACaA */\n  0x0c\n  dup1\n  sload\n  dup3\n  and\n    /* \"src/assets/BBD_Token.sol\":897:939  0xCeEA0E87B553bc445C5Eb2242b5F28Cd81B4ACaA */\n  0xceea0e87b553bc445c5eb2242b5f28cd81b4acaa\n    /* \"src/assets/BBD_Token.sol\":866:939  address public referralBonus = 0xCeEA0E87B553bc445C5Eb2242b5F28Cd81B4ACaA */\n  or\n  swap1\n  sstore\n    /* \"src/assets/BBD_Token.sol\":946:1016  address public awardBonus = 0x7E23E2781a1Da5DACe87b4f0e7bf68191263Fc32 */\n  0x0d\n  dup1\n  sload\n  swap1\n  swap2\n  and\n    /* \"src/assets/BBD_Token.sol\":974:1016  0x7E23E2781a1Da5DACe87b4f0e7bf68191263Fc32 */\n  0x7e23e2781a1da5dace87b4f0e7bf68191263fc32\n    /* \"src/assets/BBD_Token.sol\":946:1016  address public awardBonus = 0x7E23E2781a1Da5DACe87b4f0e7bf68191263Fc32 */\n  or\n  swap1\n  sstore\n    /* \"src/assets/BBD_Token.sol\":1117:1426  constructor(address owner_) ERC20(\"BBD Token\", \"BBD\") Ownable(owner_) {... */\n  callvalue\n  dup1\n  iszero\n  tag_1\n  jumpi\n  0x00\n  dup1\n  revert\ntag_1:\n  pop\n  mload(0x40)\n  sub(codesize, bytecodeSize)\n  dup1\n  bytecodeSize\n  dup4\n  codecopy\n  dup2\n  add\n  0x40\n  dup2\n  swap1\n  mstore\n  tag_2\n  swap2\n  tag_3\n  jump\t// in\ntag_2:\n    /* \"src/assets/BBD_Token.sol\":1179:1185  owner_ */\n  dup1\n    /* \"@openzeppelin/contracts/token/ERC20/ERC20.sol\":1582:1695  constructor(string memory name_, string memory symbol_) {... */\n  mload(0x40)\n  dup1\n  0x40\n  add\n  0x40\n  mstore\n  dup1\n  0x09\n  dup2\n  mstore\n  0x20\n  add\n  shl(0xb9, 0x212122102a37b5b2b7)\n  dup2\n  mstore\n  pop\n  mload(0x40)\n  dup1\n  0x40\n  add\n  0x40\n  mstore\n  dup1\n  0x03\n  dup2\n  mstore\n  0x20\n  add\n  shl(0xea, 0x109091)\n  dup2\n  mstore\n  pop\n    /* \"@openzeppelin/contracts/token/ERC20/ERC20.sol\":1656:1661  name_ */\n  dup2\n    /* \"@openzeppelin/contracts/token/ERC20/ERC20.sol\":1648:1653  _name */\n  0x03\n    /* \"@openzeppelin/contracts/token/ERC20/ERC20.sol\":1648:1661  _name = name_ */\n  swap1\n  dup2\n  tag_8\n  swap2\n  swap1\n  tag_9\n  jump\t// in\ntag_8:\n  pop\n    /* \"@openzeppelin/contracts/token/ERC20/ERC20.sol\":1671:1678  _symbol */\n  0x04\n    /* \"@openzeppelin/contracts/token/ERC20/ERC20.sol\":1671:1688  _symbol = symbol_ */\n  tag_10\n    /* \"@openzeppelin/contracts/token/ERC20/ERC20.sol\":1681:1688  symbol_ */\n  dup3\n    /* \"@openzeppelin/contracts/token/ERC20/ERC20.sol\":1671:1678  _symbol */\n  dup3\n    /* \"@openzeppelin/contracts/token/ERC20/ERC20.sol\":1671:1688  _symbol = symbol_ */\n  tag_9\n  jump\t// in\ntag_10:\n  pop\n  pop\n  pop\n  sub(shl(0xa0, 0x01), 0x01)\n    /* \"@openzeppelin/contracts/access/Ownable.sol\":1273:1299  initialOwner == address(0) */\n  dup2\n  and\n    /* \"@openzeppelin/contracts/access/Ownable.sol\":1269:1364  if (initialOwner == address(0)) {... */\n  tag_12\n  jumpi\n    /* \"@openzeppelin/contracts/access/Ownable.sol\":1322:1353  OwnableInvalidOwner(address(0)) */\n  mload(0x40)\n  shl(0xe0, 0x1e4fbdf7)\n  dup2\n  mstore\n    /* \"@openzeppelin/contracts/access/Ownable.sol\":1350:1351  0 */\n  0x00\n    /* \"@openzeppelin/contracts/access/Ownable.sol\":1322:1353  OwnableInvalidOwner(address(0)) */\n  0x04\n  dup3\n  add\n    /* \"#utility.yul\":3096:3147   */\n  mstore\n    /* \"#utility.yul\":3069:3087   */\n  0x24\n  add\n    /* \"@openzeppelin/contracts/access/Ownable.sol\":1322:1353  OwnableInvalidOwner(address(0)) */\ntag_13:\n  mload(0x40)\n  dup1\n  swap2\n  sub\n  swap1\n  revert\n    /* \"@openzeppelin/contracts/access/Ownable.sol\":1269:1364  if (initialOwner == address(0)) {... */\ntag_12:\n    /* \"@openzeppelin/contracts/access/Ownable.sol\":1373:1405  _transferOwnership(initialOwner) */\n  tag_15\n    /* \"@openzeppelin/contracts/access/Ownable.sol\":1392:1404  initialOwner */\n  dup2\n    /* \"@openzeppelin/contracts/access/Ownable.sol\":1373:1391  _transferOwnership */\n  tag_16\n    /* \"@openzeppelin/contracts/access/Ownable.sol\":1373:1405  _transferOwnership(initialOwner) */\n  jump\t// in\ntag_15:\n  pop\n    /* \"src/assets/BBD_Token.sol\":1198:1226  _mint(owner_, PUBLIC_SUPPLY) */\n  tag_18\n    /* \"src/assets/BBD_Token.sol\":1204:1210  owner_ */\n  dup2\n    /* \"src/assets/BBD_Token.sol\":324:344  1_000_000_000 * 1e18 */\n  0x033b2e3c9fd0803ce8000000\n    /* \"src/assets/BBD_Token.sol\":1198:1203  _mint */\n  tag_19\n    /* \"src/assets/BBD_Token.sol\":1198:1226  _mint(owner_, PUBLIC_SUPPLY) */\n  jump\t// in\ntag_18:\n    /* \"src/assets/BBD_Token.sol\":1268:1303  _mint(address(this), LOCKED_SUPPLY) */\n  tag_20\n    /* \"src/assets/BBD_Token.sol\":1282:1286  this */\n  address\n    /* \"src/assets/BBD_Token.sol\":391:419  TOTAL_SUPPLY - PUBLIC_SUPPLY */\n  tag_21\n    /* \"src/assets/BBD_Token.sol\":324:344  1_000_000_000 * 1e18 */\n  0x033b2e3c9fd0803ce8000000\n    /* \"src/assets/BBD_Token.sol\":256:277  10_000_000_000 * 1e18 */\n  0x204fce5e3e25026110000000\n    /* \"src/assets/BBD_Token.sol\":391:419  TOTAL_SUPPLY - PUBLIC_SUPPLY */\n  tag_22\n  jump\t// in\ntag_21:\n    /* \"src/assets/BBD_Token.sol\":1268:1273  _mint */\n  tag_19\n    /* \"src/assets/BBD_Token.sol\":1268:1303  _mint(address(this), LOCKED_SUPPLY) */\n  jump\t// in\ntag_20:\n  pop\n    /* \"src/assets/BBD_Token.sol\":1373:1388  block.timestamp */\n  timestamp\n    /* \"src/assets/BBD_Token.sol\":1356:1388  startTimestamp = block.timestamp */\n  0x80\n  mstore\n    /* \"src/assets/BBD_Token.sol\":1417:1418  0 */\n  0x00\n    /* \"src/assets/BBD_Token.sol\":1399:1414  lastUnlockMonth */\n  0x06\n    /* \"src/assets/BBD_Token.sol\":1399:1418  lastUnlockMonth = 0 */\n  sstore\n    /* \"src/assets/BBD_Token.sol\":174:4216  contract BBDToken is ERC20, Ownable {... */\n  jump(tag_48)\n    /* \"@openzeppelin/contracts/access/Ownable.sol\":2912:3099  function _transferOwnership(address newOwner) internal virtual {... */\ntag_16:\n    /* \"@openzeppelin/contracts/access/Ownable.sol\":3004:3010  _owner */\n  0x05\n  dup1\n  sload\n  sub(shl(0xa0, 0x01), 0x01)\n    /* \"@openzeppelin/contracts/access/Ownable.sol\":3020:3037  _owner = newOwner */\n  dup4\n  dup2\n  and\n  not(sub(shl(0xa0, 0x01), 0x01))\n  dup4\n  and\n  dup2\n  or\n  swap1\n  swap4\n  sstore\n    /* \"@openzeppelin/contracts/access/Ownable.sol\":3052:3092  OwnershipTransferred(oldOwner, newOwner) */\n  mload(0x40)\n    /* \"@openzeppelin/contracts/access/Ownable.sol\":3004:3010  _owner */\n  swap2\n  and\n  swap2\n    /* \"@openzeppelin/contracts/access/Ownable.sol\":3020:3037  _owner = newOwner */\n  swap1\n    /* \"@openzeppelin/contracts/access/Ownable.sol\":3004:3010  _owner */\n  dup3\n  swap1\n    /* \"@openzeppelin/contracts/access/Ownable.sol\":3052:3092  OwnershipTransferred(oldOwner, newOwner) */\n  0x8be0079c531659141344cd1fd0a4f28419497f9722a3daafe3b4186f6b6457e0\n  swap1\n    /* \"@openzeppelin/contracts/access/Ownable.sol\":2985:3001  address oldOwner */\n  0x00\n  swap1\n    /* \"@openzeppelin/contracts/access/Ownable.sol\":3052:3092  OwnershipTransferred(oldOwner, newOwner) */\n  log3\n    /* \"@openzeppelin/contracts/access/Ownable.sol\":2975:3099  {... */\n  pop\n    /* \"@openzeppelin/contracts/access/Ownable.sol\":2912:3099  function _transferOwnership(address newOwner) internal virtual {... */\n  pop\n  jump\t// out\n    /* \"@openzeppelin/contracts/token/ERC20/ERC20.sol\":7439:7647  function _mint(address account, uint256 value) internal {... */\ntag_19:\n  sub(shl(0xa0, 0x01), 0x01)\n    /* \"@openzeppelin/contracts/token/ERC20/ERC20.sol\":7509:7530  account == address(0) */\n  dup3\n  and\n    /* \"@openzeppelin/contracts/token/ERC20/ERC20.sol\":7505:7596  if (account == address(0)) {... */\n  tag_26\n  jumpi\n    /* \"@openzeppelin/contracts/token/ERC20/ERC20.sol\":7553:7585  ERC20InvalidReceiver(address(0)) */\n  mload(0x40)\n  shl(0xe0, 0xec442f05)\n  dup2\n  mstore\n    /* \"@openzeppelin/contracts/token/ERC20/ERC20.sol\":7582:7583  0 */\n  0x00\n    /* \"@openzeppelin/contracts/token/ERC20/ERC20.sol\":7553:7585  ERC20InvalidReceiver(address(0)) */\n  0x04\n  dup3\n  add\n    /* \"#utility.yul\":3096:3147   */\n  mstore\n    /* \"#utility.yul\":3069:3087   */\n  0x24\n  add\n    /* \"@openzeppelin/contracts/token/ERC20/ERC20.sol\":7553:7585  ERC20InvalidReceiver(address(0)) */\n  tag_13\n    /* \"#utility.yul\":2950:3153   */\n  jump\n    /* \"@openzeppelin/contracts/token/ERC20/ERC20.sol\":7505:7596  if (account == address(0)) {... */\ntag_26:\n    /* \"@openzeppelin/contracts/token/ERC20/ERC20.sol\":7605:7640  _update(address(0), account, value) */\n  tag_28\n    /* \"@openzeppelin/contracts/token/ERC20/ERC20.sol\":7621:7622  0 */\n  0x00\n    /* \"@openzeppelin/contracts/token/ERC20/ERC20.sol\":7625:7632  account */\n  dup4\n    /* \"@openzeppelin/contracts/token/ERC20/ERC20.sol\":7634:7639  value */\n  dup4\n    /* \"@openzeppelin/contracts/token/ERC20/ERC20.sol\":7605:7612  _update */\n  tag_29\n    /* \"@openzeppelin/contracts/token/ERC20/ERC20.sol\":7605:7640  _update(address(0), account, value) */\n  jump\t// in\ntag_28:\n    /* \"@openzeppelin/contracts/token/ERC20/ERC20.sol\":7439:7647  function _mint(address account, uint256 value) internal {... */\n  pop\n  pop\n  jump\t// out\n    /* \"@openzeppelin/contracts/token/ERC20/ERC20.sol\":5989:7096  function _update(address from, address to, uint256 value) internal virtual {... */\ntag_29:\n  sub(shl(0xa0, 0x01), 0x01)\n    /* \"@openzeppelin/contracts/token/ERC20/ERC20.sol\":6078:6096  from == address(0) */\n  dup4\n  and\n    /* \"@openzeppelin/contracts/token/ERC20/ERC20.sol\":6074:6614  if (from == address(0)) {... */\n  tag_31\n  jumpi\n    /* \"@openzeppelin/contracts/token/ERC20/ERC20.sol\":6230:6235  value */\n  dup1\n    /* \"@openzeppelin/contracts/token/ERC20/ERC20.sol\":6214:6226  _totalSupply */\n  0x02\n  0x00\n    /* \"@openzeppelin/contracts/token/ERC20/ERC20.sol\":6214:6235  _totalSupply += value */\n  dup3\n  dup3\n  sload\n  tag_32\n  swap2\n  swap1\n  tag_33\n  jump\t// in\ntag_32:\n  swap1\n  swap2\n  sstore\n  pop\n    /* \"@openzeppelin/contracts/token/ERC20/ERC20.sol\":6074:6614  if (from == address(0)) {... */\n  tag_34\n  swap1\n  pop\n  jump\ntag_31:\n  sub(shl(0xa0, 0x01), 0x01)\n    /* \"@openzeppelin/contracts/token/ERC20/ERC20.sol\":6288:6303  _balances[from] */\n  dup4\n  and\n    /* \"@openzeppelin/contracts/token/ERC20/ERC20.sol\":6266:6285  uint256 fromBalance */\n  0x00\n    /* \"@openzeppelin/contracts/token/ERC20/ERC20.sol\":6288:6303  _balances[from] */\n  swap1\n  dup2\n  mstore\n  0x20\n  dup2\n  swap1\n  mstore\n  0x40\n  swap1\n  keccak256\n  sload\n    /* \"@openzeppelin/contracts/token/ERC20/ERC20.sol\":6321:6340  fromBalance < value */\n  dup2\n  dup2\n  lt\n    /* \"@openzeppelin/contracts/token/ERC20/ERC20.sol\":6317:6432  if (fromBalance < value) {... */\n  iszero\n  tag_35\n  jumpi\n    /* \"@openzeppelin/contracts/token/ERC20/ERC20.sol\":6367:6417  ERC20InsufficientBalance(from, fromBalance, value) */\n  mload(0x40)\n  shl(0xe2, 0x391434e3)\n  dup2\n  mstore\n  sub(shl(0xa0, 0x01), 0x01)\n    /* \"#utility.yul\":3773:3805   */\n  dup6\n  and\n    /* \"@openzeppelin/contracts/token/ERC20/ERC20.sol\":6367:6417  ERC20InsufficientBalance(from, fromBalance, value) */\n  0x04\n  dup3\n  add\n    /* \"#utility.yul\":3755:3806   */\n  mstore\n    /* \"#utility.yul\":3822:3840   */\n  0x24\n  dup2\n  add\n    /* \"#utility.yul\":3815:3849   */\n  dup3\n  swap1\n  mstore\n    /* \"#utility.yul\":3865:3883   */\n  0x44\n  dup2\n  add\n    /* \"#utility.yul\":3858:3892   */\n  dup4\n  swap1\n  mstore\n    /* \"#utility.yul\":3728:3746   */\n  0x64\n  add\n    /* \"@openzeppelin/contracts/token/ERC20/ERC20.sol\":6367:6417  ERC20InsufficientBalance(from, fromBalance, value) */\n  tag_13\n    /* \"#utility.yul\":3553:3898   */\n  jump\n    /* \"@openzeppelin/contracts/token/ERC20/ERC20.sol\":6317:6432  if (fromBalance < value) {... */\ntag_35:\n  sub(shl(0xa0, 0x01), 0x01)\n    /* \"@openzeppelin/contracts/token/ERC20/ERC20.sol\":6552:6567  _balances[from] */\n  dup5\n  and\n    /* \"@openzeppelin/contracts/token/ERC20/ERC20.sol\":6552:6561  _balances */\n  0x00\n    /* \"@openzeppelin/contracts/token/ERC20/ERC20.sol\":6552:6567  _balances[from] */\n  swap1\n  dup2\n  mstore\n  0x20\n  dup2\n  swap1\n  mstore\n  0x40\n  swap1\n  keccak256\n    /* \"@openzeppelin/contracts/token/ERC20/ERC20.sol\":6570:6589  fromBalance - value */\n  swap1\n  dup3\n  swap1\n  sub\n    /* \"@openzeppelin/contracts/token/ERC20/ERC20.sol\":6552:6589  _balances[from] = fromBalance - value */\n  swap1\n  sstore\n    /* \"@openzeppelin/contracts/token/ERC20/ERC20.sol\":6074:6614  if (from == address(0)) {... */\ntag_34:\n  sub(shl(0xa0, 0x01), 0x01)\n    /* \"@openzeppelin/contracts/token/ERC20/ERC20.sol\":6628:6644  to == address(0) */\n  dup3\n  and\n    /* \"@openzeppelin/contracts/token/ERC20/ERC20.sol\":6624:7049  if (to == address(0)) {... */\n  tag_38\n  jumpi\n    /* \"@openzeppelin/contracts/token/ERC20/ERC20.sol\":6791:6803  _totalSupply */\n  0x02\n    /* \"@openzeppelin/contracts/token/ERC20/ERC20.sol\":6791:6812  _totalSupply -= value */\n  dup1\n  sload\n  dup3\n  swap1\n  sub\n  swap1\n  sstore\n    /* \"@openzeppelin/contracts/token/ERC20/ERC20.sol\":6624:7049  if (to == address(0)) {... */\n  jump(tag_39)\ntag_38:\n  sub(shl(0xa0, 0x01), 0x01)\n    /* \"@openzeppelin/contracts/token/ERC20/ERC20.sol\":7002:7015  _balances[to] */\n  dup3\n  and\n    /* \"@openzeppelin/contracts/token/ERC20/ERC20.sol\":7002:7011  _balances */\n  0x00\n    /* \"@openzeppelin/contracts/token/ERC20/ERC20.sol\":7002:7015  _balances[to] */\n  swap1\n  dup2\n  mstore\n  0x20\n  dup2\n  swap1\n  mstore\n  0x40\n  swap1\n  keccak256\n    /* \"@openzeppelin/contracts/token/ERC20/ERC20.sol\":7002:7024  _balances[to] += value */\n  dup1\n  sload\n  dup3\n  add\n  swap1\n  sstore\n    /* \"@openzeppelin/contracts/token/ERC20/ERC20.sol\":6624:7049  if (to == address(0)) {... */\ntag_39:\n    /* \"@openzeppelin/contracts/token/ERC20/ERC20.sol\":7079:7081  to */\n  dup2\n  sub(shl(0xa0, 0x01), 0x01)\n    /* \"@openzeppelin/contracts/token/ERC20/ERC20.sol\":7064:7089  Transfer(from, to, value) */\n  and\n    /* \"@openzeppelin/contracts/token/ERC20/ERC20.sol\":7073:7077  from */\n  dup4\n  sub(shl(0xa0, 0x01), 0x01)\n    /* \"@openzeppelin/contracts/token/ERC20/ERC20.sol\":7064:7089  Transfer(from, to, value) */\n  and\n  0xddf252ad1be2c89b69c2b068fc378daa952ba7f163c4a11628f55a4df523b3ef\n    /* \"@openzeppelin/contracts/token/ERC20/ERC20.sol\":7083:7088  value */\n  dup4\n    /* \"@openzeppelin/contracts/token/ERC20/ERC20.sol\":7064:7089  Transfer(from, to, value) */\n  mload(0x40)\n  tag_40\n  swap2\n    /* \"#utility.yul\":4049:4074   */\n  dup2\n  mstore\n    /* \"#utility.yul\":4037:4039   */\n  0x20\n    /* \"#utility.yul\":4022:4040   */\n  add\n  swap1\n    /* \"#utility.yul\":3903:4080   */\n  jump\n    /* \"@openzeppelin/contracts/token/ERC20/ERC20.sol\":7064:7089  Transfer(from, to, value) */\ntag_40:\n  mload(0x40)\n  dup1\n  swap2\n  sub\n  swap1\n  log3\n    /* \"@openzeppelin/contracts/token/ERC20/ERC20.sol\":5989:7096  function _update(address from, address to, uint256 value) internal virtual {... */\n  pop\n  pop\n  pop\n  jump\t// out\n    /* \"#utility.yul\":14:304   */\ntag_3:\n    /* \"#utility.yul\":84:90   */\n  0x00\n    /* \"#utility.yul\":137:139   */\n  0x20\n    /* \"#utility.yul\":125:134   */\n  dup3\n    /* \"#utility.yul\":116:123   */\n  dup5\n    /* \"#utility.yul\":112:135   */\n  sub\n    /* \"#utility.yul\":108:140   */\n  slt\n    /* \"#utility.yul\":105:157   */\n  iszero\n  tag_50\n  jumpi\n    /* \"#utility.yul\":153:154   */\n  0x00\n    /* \"#utility.yul\":150:151   */\n  dup1\n    /* \"#utility.yul\":143:155   */\n  revert\n    /* \"#utility.yul\":105:157   */\ntag_50:\n    /* \"#utility.yul\":179:195   */\n  dup2\n  mload\n  sub(shl(0xa0, 0x01), 0x01)\n    /* \"#utility.yul\":224:255   */\n  dup2\n  and\n    /* \"#utility.yul\":214:256   */\n  dup2\n  eq\n    /* \"#utility.yul\":204:274   */\n  tag_51\n  jumpi\n    /* \"#utility.yul\":270:271   */\n  0x00\n    /* \"#utility.yul\":267:268   */\n  dup1\n    /* \"#utility.yul\":260:272   */\n  revert\n    /* \"#utility.yul\":204:274   */\ntag_51:\n    /* \"#utility.yul\":293:298   */\n  swap4\n    /* \"#utility.yul\":14:304   */\n  swap3\n  pop\n  pop\n  pop\n  jump\t// out\n    /* \"#utility.yul\":309:436   */\ntag_42:\n    /* \"#utility.yul\":370:380   */\n  0x4e487b71\n    /* \"#utility.yul\":365:368   */\n  0xe0\n    /* \"#utility.yul\":361:381   */\n  shl\n    /* \"#utility.yul\":358:359   */\n  0x00\n    /* \"#utility.yul\":351:382   */\n  mstore\n    /* \"#utility.yul\":401:405   */\n  0x41\n    /* \"#utility.yul\":398:399   */\n  0x04\n    /* \"#utility.yul\":391:406   */\n  mstore\n    /* \"#utility.yul\":425:429   */\n  0x24\n    /* \"#utility.yul\":422:423   */\n  0x00\n    /* \"#utility.yul\":415:430   */\n  revert\n    /* \"#utility.yul\":441:821   */\ntag_43:\n    /* \"#utility.yul\":520:521   */\n  0x01\n    /* \"#utility.yul\":516:528   */\n  dup2\n  dup2\n  shr\n  swap1\n    /* \"#utility.yul\":563:575   */\n  dup3\n  and\n  dup1\n    /* \"#utility.yul\":584:645   */\n  tag_54\n  jumpi\n    /* \"#utility.yul\":638:642   */\n  0x7f\n    /* \"#utility.yul\":630:636   */\n  dup3\n    /* \"#utility.yul\":626:643   */\n  and\n    /* \"#utility.yul\":616:643   */\n  swap2\n  pop\n    /* \"#utility.yul\":584:645   */\ntag_54:\n    /* \"#utility.yul\":691:693   */\n  0x20\n    /* \"#utility.yul\":683:689   */\n  dup3\n    /* \"#utility.yul\":680:694   */\n  lt\n    /* \"#utility.yul\":660:678   */\n  dup2\n    /* \"#utility.yul\":657:695   */\n  sub\n    /* \"#utility.yul\":654:815   */\n  tag_55\n  jumpi\n    /* \"#utility.yul\":737:747   */\n  0x4e487b71\n    /* \"#utility.yul\":732:735   */\n  0xe0\n    /* \"#utility.yul\":728:748   */\n  shl\n    /* \"#utility.yul\":725:726   */\n  0x00\n    /* \"#utility.yul\":718:749   */\n  mstore\n    /* \"#utility.yul\":772:776   */\n  0x22\n    /* \"#utility.yul\":769:770   */\n  0x04\n    /* \"#utility.yul\":762:777   */\n  mstore\n    /* \"#utility.yul\":800:804   */\n  0x24\n    /* \"#utility.yul\":797:798   */\n  0x00\n    /* \"#utility.yul\":790:805   */\n  revert\n    /* \"#utility.yul\":654:815   */\ntag_55:\n  pop\n    /* \"#utility.yul\":441:821   */\n  swap2\n  swap1\n  pop\n  jump\t// out\n    /* \"#utility.yul\":952:1470   */\ntag_45:\n    /* \"#utility.yul\":1054:1056   */\n  0x1f\n    /* \"#utility.yul\":1049:1052   */\n  dup3\n    /* \"#utility.yul\":1046:1057   */\n  gt\n    /* \"#utility.yul\":1043:1464   */\n  iszero\n  tag_58\n  jumpi\n    /* \"#utility.yul\":1090:1095   */\n  dup1\n    /* \"#utility.yul\":1087:1088   */\n  0x00\n    /* \"#utility.yul\":1080:1096   */\n  mstore\n    /* \"#utility.yul\":1134:1138   */\n  0x20\n    /* \"#utility.yul\":1131:1132   */\n  0x00\n    /* \"#utility.yul\":1121:1139   */\n  keccak256\n    /* \"#utility.yul\":1204:1206   */\n  0x1f\n    /* \"#utility.yul\":1192:1202   */\n  dup5\n    /* \"#utility.yul\":1188:1207   */\n  add\n    /* \"#utility.yul\":1185:1186   */\n  0x05\n    /* \"#utility.yul\":1181:1208   */\n  shr\n    /* \"#utility.yul\":1175:1179   */\n  dup2\n    /* \"#utility.yul\":1171:1209   */\n  add\n    /* \"#utility.yul\":1240:1244   */\n  0x20\n    /* \"#utility.yul\":1228:1238   */\n  dup6\n    /* \"#utility.yul\":1225:1245   */\n  lt\n    /* \"#utility.yul\":1222:1269   */\n  iszero\n  tag_59\n  jumpi\n  pop\n    /* \"#utility.yul\":1263:1267   */\n  dup1\n    /* \"#utility.yul\":1222:1269   */\ntag_59:\n    /* \"#utility.yul\":1318:1320   */\n  0x1f\n    /* \"#utility.yul\":1313:1316   */\n  dup5\n    /* \"#utility.yul\":1309:1321   */\n  add\n    /* \"#utility.yul\":1306:1307   */\n  0x05\n    /* \"#utility.yul\":1302:1322   */\n  shr\n    /* \"#utility.yul\":1296:1300   */\n  dup3\n    /* \"#utility.yul\":1292:1323   */\n  add\n    /* \"#utility.yul\":1282:1323   */\n  swap2\n  pop\n    /* \"#utility.yul\":1373:1454   */\ntag_60:\n    /* \"#utility.yul\":1391:1393   */\n  dup2\n    /* \"#utility.yul\":1384:1389   */\n  dup2\n    /* \"#utility.yul\":1381:1394   */\n  lt\n    /* \"#utility.yul\":1373:1454   */\n  iszero\n  tag_62\n  jumpi\n    /* \"#utility.yul\":1450:1451   */\n  0x00\n    /* \"#utility.yul\":1436:1452   */\n  dup2\n  sstore\n    /* \"#utility.yul\":1417:1418   */\n  0x01\n    /* \"#utility.yul\":1406:1419   */\n  add\n    /* \"#utility.yul\":1373:1454   */\n  jump(tag_60)\ntag_62:\n    /* \"#utility.yul\":1377:1380   */\n  pop\n  pop\n    /* \"#utility.yul\":1043:1464   */\ntag_58:\n    /* \"#utility.yul\":952:1470   */\n  pop\n  pop\n  pop\n  jump\t// out\n    /* \"#utility.yul\":1646:2945   */\ntag_9:\n    /* \"#utility.yul\":1766:1776   */\n  dup2\n  mload\n  sub(shl(0x40, 0x01), 0x01)\n    /* \"#utility.yul\":1788:1818   */\n  dup2\n  gt\n    /* \"#utility.yul\":1785:1841   */\n  iszero\n  tag_66\n  jumpi\n    /* \"#utility.yul\":1821:1839   */\n  tag_66\n  tag_42\n  jump\t// in\ntag_66:\n    /* \"#utility.yul\":1850:1947   */\n  tag_67\n    /* \"#utility.yul\":1940:1946   */\n  dup2\n    /* \"#utility.yul\":1900:1938   */\n  tag_68\n    /* \"#utility.yul\":1932:1936   */\n  dup5\n    /* \"#utility.yul\":1926:1937   */\n  sload\n    /* \"#utility.yul\":1900:1938   */\n  tag_43\n  jump\t// in\ntag_68:\n    /* \"#utility.yul\":1894:1898   */\n  dup5\n    /* \"#utility.yul\":1850:1947   */\n  tag_45\n  jump\t// in\ntag_67:\n    /* \"#utility.yul\":1996:2000   */\n  0x20\n    /* \"#utility.yul\":2027:2029   */\n  0x1f\n    /* \"#utility.yul\":2016:2030   */\n  dup3\n  gt\n    /* \"#utility.yul\":2044:2045   */\n  0x01\n    /* \"#utility.yul\":2039:2688   */\n  dup2\n  eq\n  tag_70\n  jumpi\n    /* \"#utility.yul\":2732:2733   */\n  0x00\n    /* \"#utility.yul\":2749:2755   */\n  dup4\n    /* \"#utility.yul\":2746:2835   */\n  iszero\n  tag_71\n  jumpi\n  pop\n    /* \"#utility.yul\":2801:2820   */\n  dup5\n  dup3\n  add\n    /* \"#utility.yul\":2795:2821   */\n  mload\n    /* \"#utility.yul\":2746:2835   */\ntag_71:\n  not(0x00)\n    /* \"#utility.yul\":1603:1604   */\n  0x03\n    /* \"#utility.yul\":1599:1610   */\n  dup6\n  swap1\n  shl\n    /* \"#utility.yul\":1595:1619   */\n  shr\n    /* \"#utility.yul\":1591:1620   */\n  not\n    /* \"#utility.yul\":1581:1621   */\n  and\n    /* \"#utility.yul\":1627:1628   */\n  0x01\n    /* \"#utility.yul\":1623:1634   */\n  dup5\n  swap1\n  shl\n    /* \"#utility.yul\":1578:1635   */\n  or\n    /* \"#utility.yul\":2848:2929   */\n  dup5\n  sstore\n    /* \"#utility.yul\":2009:2939   */\n  jump(tag_62)\n    /* \"#utility.yul\":2039:2688   */\ntag_70:\n    /* \"#utility.yul\":899:900   */\n  0x00\n    /* \"#utility.yul\":892:906   */\n  dup5\n  dup2\n  mstore\n    /* \"#utility.yul\":936:940   */\n  0x20\n    /* \"#utility.yul\":923:941   */\n  dup2\n  keccak256\n  not(0x1f)\n    /* \"#utility.yul\":2075:2095   */\n  dup6\n  and\n  swap2\n    /* \"#utility.yul\":2193:2415   */\ntag_74:\n    /* \"#utility.yul\":2207:2214   */\n  dup3\n    /* \"#utility.yul\":2204:2205   */\n  dup2\n    /* \"#utility.yul\":2201:2215   */\n  lt\n    /* \"#utility.yul\":2193:2415   */\n  iszero\n  tag_76\n  jumpi\n    /* \"#utility.yul\":2289:2308   */\n  dup8\n  dup6\n  add\n    /* \"#utility.yul\":2283:2309   */\n  mload\n    /* \"#utility.yul\":2268:2310   */\n  dup3\n  sstore\n    /* \"#utility.yul\":2396:2400   */\n  0x20\n    /* \"#utility.yul\":2381:2401   */\n  swap5\n  dup6\n  add\n  swap5\n    /* \"#utility.yul\":2349:2350   */\n  0x01\n    /* \"#utility.yul\":2337:2351   */\n  swap1\n  swap3\n  add\n  swap2\n    /* \"#utility.yul\":2223:2235   */\n  add\n    /* \"#utility.yul\":2193:2415   */\n  jump(tag_74)\ntag_76:\n    /* \"#utility.yul\":2197:2200   */\n  pop\n    /* \"#utility.yul\":2443:2449   */\n  dup5\n    /* \"#utility.yul\":2434:2441   */\n  dup3\n    /* \"#utility.yul\":2431:2450   */\n  lt\n    /* \"#utility.yul\":2428:2629   */\n  iszero\n  tag_77\n  jumpi\n    /* \"#utility.yul\":2504:2523   */\n  dup7\n  dup5\n  add\n    /* \"#utility.yul\":2498:2524   */\n  mload\n  not(0x00)\n    /* \"#utility.yul\":2587:2588   */\n  0x03\n    /* \"#utility.yul\":2583:2597   */\n  dup8\n  swap1\n  shl\n    /* \"#utility.yul\":2599:2602   */\n  0xf8\n    /* \"#utility.yul\":2579:2603   */\n  and\n    /* \"#utility.yul\":2575:2612   */\n  shr\n    /* \"#utility.yul\":2571:2613   */\n  not\n    /* \"#utility.yul\":2556:2614   */\n  and\n    /* \"#utility.yul\":2541:2615   */\n  dup2\n  sstore\n    /* \"#utility.yul\":2428:2629   */\ntag_77:\n  pop\n  pop\n  pop\n  pop\n    /* \"#utility.yul\":2675:2676   */\n  0x01\n    /* \"#utility.yul\":2659:2673   */\n  swap1\n  dup2\n  shl\n    /* \"#utility.yul\":2655:2677   */\n  add\n    /* \"#utility.yul\":2642:2678   */\n  swap1\n  sstore\n  pop\n    /* \"#utility.yul\":1646:2945   */\n  jump\t// out\n    /* \"#utility.yul\":3158:3285   */\ntag_47:\n    /* \"#utility.yul\":3219:3229   */\n  0x4e487b71\n    /* \"#utility.yul\":3214:3217   */\n  0xe0\n    /* \"#utility.yul\":3210:3230   */\n  shl\n    /* \"#utility.yul\":3207:3208   */\n  0x00\n    /* \"#utility.yul\":3200:3231   */\n  mstore\n    /* \"#utility.yul\":3250:3254   */\n  0x11\n    /* \"#utility.yul\":3247:3248   */\n  0x04\n    /* \"#utility.yul\":3240:3255   */\n  mstore\n    /* \"#utility.yul\":3274:3278   */\n  0x24\n    /* \"#utility.yul\":3271:3272   */\n  0x00\n    /* \"#utility.yul\":3264:3279   */\n  revert\n    /* \"#utility.yul\":3290:3418   */\ntag_22:\n    /* \"#utility.yul\":3357:3366   */\n  dup2\n  dup2\n  sub\n    /* \"#utility.yul\":3378:3389   */\n  dup2\n  dup2\n  gt\n    /* \"#utility.yul\":3375:3412   */\n  iszero\n  tag_82\n  jumpi\n    /* \"#utility.yul\":3392:3410   */\n  tag_82\n  tag_47\n  jump\t// in\ntag_82:\n    /* \"#utility.yul\":3290:3418   */\n  swap3\n  swap2\n  pop\n  pop\n  jump\t// out\n    /* \"#utility.yul\":3423:3548   */\ntag_33:\n    /* \"#utility.yul\":3488:3497   */\n  dup1\n  dup3\n  add\n    /* \"#utility.yul\":3509:3519   */\n  dup1\n  dup3\n  gt\n    /* \"#utility.yul\":3506:3542   */\n  iszero\n  tag_82\n  jumpi\n    /* \"#utility.yul\":3522:3540   */\n  tag_82\n  tag_47\n  jump\t// in\n    /* \"#utility.yul\":3903:4080   */\ntag_48:\n    /* \"src/assets/BBD_Token.sol\":174:4216  contract BBDToken is ERC20, Ownable {... */\n  mload(0x80)\n  codecopy(0x00, dataOffset(sub_0), dataSize(sub_0))\n  0x00\n  assignImmutable(\"0x5d40e99405081227bb9ff3dfcb5688bebff2335619d1e80403a820b0e682b492\")\n  return(0x00, dataSize(sub_0))\nstop\n\nsub_0: assembly {\n        /* \"src/assets/BBD_Token.sol\":174:4216  contract BBDToken is ERC20, Ownable {... */\n      mstore(0x40, 0x80)\n      callvalue\n      dup1\n      iszero\n      tag_1\n      jumpi\n      0x00\n      dup1\n      revert\n    tag_1:\n      pop\n      jumpi(tag_2, lt(calldatasize, 0x04))\n      shr(0xe0, calldataload(0x00))\n      dup1\n      0x8da5cb5b\n      gt\n      tag_30\n      jumpi\n      dup1\n      0xce7842f5\n      gt\n      tag_31\n      jumpi\n      dup1\n      0xe6fd48bc\n      gt\n      tag_32\n      jumpi\n      dup1\n      0xe6fd48bc\n      eq\n      tag_26\n      jumpi\n      dup1\n      0xe8be9a44\n      eq\n      tag_27\n      jumpi\n      dup1\n      0xf2fde38b\n      eq\n      tag_28\n      jumpi\n      dup1\n      0xf968f493\n      eq\n      tag_29\n      jumpi\n      0x00\n      dup1\n      revert\n    tag_32:\n      dup1\n      0xce7842f5\n      eq\n      tag_23\n      jumpi\n      dup1\n      0xd2f9efab\n      eq\n      tag_24\n      jumpi\n      dup1\n      0xdd62ed3e\n      eq\n      tag_25\n      jumpi\n      0x00\n      dup1\n      revert\n    tag_31:\n      dup1\n      0xa779d080\n      gt\n      tag_33\n      jumpi\n      dup1\n      0xa779d080\n      eq\n      tag_19\n      jumpi\n      dup1\n      0xa9059cbb\n      eq\n      tag_20\n      jumpi\n      dup1\n      0xb361412a\n      eq\n      tag_21\n      jumpi\n      dup1\n      0xbe381b85\n      eq\n      tag_22\n      jumpi\n      0x00\n      dup1\n      revert\n    tag_33:\n      dup1\n      0x8da5cb5b\n      eq\n      tag_16\n      jumpi\n      dup1\n      0x902d55a5\n      eq\n      tag_17\n      jumpi\n      dup1\n      0x95d89b41\n      eq\n      tag_18\n      jumpi\n      0x00\n      dup1\n      revert\n    tag_30:\n      dup1\n      0x2d3e474a\n      gt\n      tag_34\n      jumpi\n      dup1\n      0x70a08231\n      gt\n      tag_35\n      jumpi\n      dup1\n      0x70a08231\n      eq\n      tag_12\n      jumpi\n      dup1\n      0x715018a6\n      eq\n      tag_13\n      jumpi\n      dup1\n      0x8310a74d\n      eq\n      tag_14\n      jumpi\n      dup1\n      0x8342083a\n      eq\n      tag_15\n      jumpi\n      0x00\n      dup1\n      revert\n    tag_35:\n      dup1\n      0x2d3e474a\n      eq\n      tag_9\n      jumpi\n      dup1\n      0x313ce567\n      eq\n      tag_10\n      jumpi\n      dup1\n      0x67859b6e\n      eq\n      tag_11\n      jumpi\n      0x00\n      dup1\n      revert\n    tag_34:\n      dup1\n      0x042249bb\n      eq\n      tag_3\n      jumpi\n      dup1\n      0x06fdde03\n      eq\n      tag_4\n      jumpi\n      dup1\n      0x095ea7b3\n      eq\n      tag_5\n      jumpi\n      dup1\n      0x18160ddd\n      eq\n      tag_6\n      jumpi\n      dup1\n      0x23b872dd\n      eq\n      tag_7\n      jumpi\n      dup1\n      0x2be8781f\n      eq\n      tag_8\n      jumpi\n    tag_2:\n      0x00\n      dup1\n      revert\n        /* \"src/assets/BBD_Token.sol\":786:859  address public stakingReward = 0xcc234a1d3e32148461b7eaCb5a8bf4D0C4b6Be74 */\n    tag_3:\n      sload(0x0b)\n      tag_36\n      swap1\n      sub(shl(0xa0, 0x01), 0x01)\n      and\n      dup2\n      jump\n    tag_36:\n      mload(0x40)\n      sub(shl(0xa0, 0x01), 0x01)\n        /* \"#utility.yul\":178:210   */\n      swap1\n      swap2\n      and\n        /* \"#utility.yul\":160:211   */\n      dup2\n      mstore\n        /* \"#utility.yul\":148:150   */\n      0x20\n        /* \"#utility.yul\":133:151   */\n      add\n        /* \"src/assets/BBD_Token.sol\":786:859  address public stakingReward = 0xcc234a1d3e32148461b7eaCb5a8bf4D0C4b6Be74 */\n    tag_38:\n      mload(0x40)\n      dup1\n      swap2\n      sub\n      swap1\n      return\n        /* \"@openzeppelin/contracts/token/ERC20/ERC20.sol\":1760:1849  function name() public view virtual returns (string memory) {... */\n    tag_4:\n      tag_40\n      tag_41\n      jump\t// in\n    tag_40:\n      mload(0x40)\n      tag_38\n      swap2\n      swap1\n      tag_43\n      jump\t// in\n        /* \"@openzeppelin/contracts/token/ERC20/ERC20.sol\":3979:4165  function approve(address spender, uint256 value) public virtual returns (bool) {... */\n    tag_5:\n      tag_44\n      tag_45\n      calldatasize\n      0x04\n      tag_46\n      jump\t// in\n    tag_45:\n      tag_47\n      jump\t// in\n    tag_44:\n      mload(0x40)\n        /* \"#utility.yul\":1293:1307   */\n      swap1\n      iszero\n        /* \"#utility.yul\":1286:1308   */\n      iszero\n        /* \"#utility.yul\":1268:1309   */\n      dup2\n      mstore\n        /* \"#utility.yul\":1256:1258   */\n      0x20\n        /* \"#utility.yul\":1241:1259   */\n      add\n        /* \"@openzeppelin/contracts/token/ERC20/ERC20.sol\":3979:4165  function approve(address spender, uint256 value) public virtual returns (bool) {... */\n      tag_38\n        /* \"#utility.yul\":1128:1315   */\n      jump\n        /* \"@openzeppelin/contracts/token/ERC20/ERC20.sol\":2830:2927  function totalSupply() public view virtual returns (uint256) {... */\n    tag_6:\n        /* \"@openzeppelin/contracts/token/ERC20/ERC20.sol\":2908:2920  _totalSupply */\n      sload(0x02)\n        /* \"@openzeppelin/contracts/token/ERC20/ERC20.sol\":2830:2927  function totalSupply() public view virtual returns (uint256) {... */\n    tag_50:\n      mload(0x40)\n        /* \"#utility.yul\":1466:1491   */\n      swap1\n      dup2\n      mstore\n        /* \"#utility.yul\":1454:1456   */\n      0x20\n        /* \"#utility.yul\":1439:1457   */\n      add\n        /* \"@openzeppelin/contracts/token/ERC20/ERC20.sol\":2830:2927  function totalSupply() public view virtual returns (uint256) {... */\n      tag_38\n        /* \"#utility.yul\":1320:1497   */\n      jump\n        /* \"@openzeppelin/contracts/token/ERC20/ERC20.sol\":4757:5001  function transferFrom(address from, address to, uint256 value) public virtual returns (bool) {... */\n    tag_7:\n      tag_44\n      tag_55\n      calldatasize\n      0x04\n      tag_56\n      jump\t// in\n    tag_55:\n      tag_57\n      jump\t// in\n        /* \"src/assets/BBD_Token.sol\":3041:3533  function updateDistributionAddress(uint256 index, address newAddress) external onlyOwner {... */\n    tag_8:\n      tag_59\n      tag_60\n      calldatasize\n      0x04\n      tag_61\n      jump\t// in\n    tag_60:\n      tag_62\n      jump\t// in\n    tag_59:\n      stop\n        /* \"src/assets/BBD_Token.sol\":710:779  address public marketing = 0x03499C18F7265BE9AFDA16504A34CD1892F278AE */\n    tag_9:\n      sload(0x0a)\n      tag_36\n      swap1\n      sub(shl(0xa0, 0x01), 0x01)\n      and\n      dup2\n      jump\n        /* \"@openzeppelin/contracts/token/ERC20/ERC20.sol\":2688:2770  function decimals() public view virtual returns (uint8) {... */\n    tag_10:\n      mload(0x40)\n        /* \"@openzeppelin/contracts/token/ERC20/ERC20.sol\":2761:2763  18 */\n      0x12\n        /* \"#utility.yul\":2328:2364   */\n      dup2\n      mstore\n        /* \"#utility.yul\":2316:2318   */\n      0x20\n        /* \"#utility.yul\":2301:2319   */\n      add\n        /* \"@openzeppelin/contracts/token/ERC20/ERC20.sol\":2688:2770  function decimals() public view virtual returns (uint8) {... */\n      tag_38\n        /* \"#utility.yul\":2186:2370   */\n      jump\n        /* \"src/assets/BBD_Token.sol\":548:624  address public liquidityListing = 0x7Ec13697D98925bA1dC2BcC705c071bd168B10C2 */\n    tag_11:\n      sload(0x08)\n      tag_36\n      swap1\n      sub(shl(0xa0, 0x01), 0x01)\n      and\n      dup2\n      jump\n        /* \"@openzeppelin/contracts/token/ERC20/ERC20.sol\":2985:3101  function balanceOf(address account) public view virtual returns (uint256) {... */\n    tag_12:\n      tag_50\n      tag_74\n      calldatasize\n      0x04\n      tag_75\n      jump\t// in\n    tag_74:\n      sub(shl(0xa0, 0x01), 0x01)\n        /* \"@openzeppelin/contracts/token/ERC20/ERC20.sol\":3076:3094  _balances[account] */\n      and\n        /* \"@openzeppelin/contracts/token/ERC20/ERC20.sol\":3050:3057  uint256 */\n      0x00\n        /* \"@openzeppelin/contracts/token/ERC20/ERC20.sol\":3076:3094  _balances[account] */\n      swap1\n      dup2\n      mstore\n      0x20\n      dup2\n      swap1\n      mstore\n      0x40\n      swap1\n      keccak256\n      sload\n      swap1\n        /* \"@openzeppelin/contracts/token/ERC20/ERC20.sol\":2985:3101  function balanceOf(address account) public view virtual returns (uint256) {... */\n      jump\n        /* \"@openzeppelin/contracts/access/Ownable.sol\":2293:2394  function renounceOwnership() public virtual onlyOwner {... */\n    tag_13:\n      tag_59\n      tag_79\n      jump\t// in\n        /* \"src/assets/BBD_Token.sol\":474:504  uint256 public lastUnlockMonth */\n    tag_14:\n      tag_50\n      sload(0x06)\n      dup2\n      jump\n        /* \"src/assets/BBD_Token.sol\":284:344  uint256 public constant PUBLIC_SUPPLY = 1_000_000_000 * 1e18 */\n    tag_15:\n      tag_50\n      shl(0x1b, 0x6765c793fa10079d)\n      dup2\n      jump\n        /* \"@openzeppelin/contracts/access/Ownable.sol\":1638:1723  function owner() public view virtual returns (address) {... */\n    tag_16:\n        /* \"@openzeppelin/contracts/access/Ownable.sol\":1710:1716  _owner */\n      and(sub(shl(0xa0, 0x01), 0x01), sload(0x05))\n        /* \"@openzeppelin/contracts/access/Ownable.sol\":1638:1723  function owner() public view virtual returns (address) {... */\n      jump(tag_36)\n        /* \"src/assets/BBD_Token.sol\":217:277  uint256 public constant TOTAL_SUPPLY = 10_000_000_000 * 1e18 */\n    tag_17:\n      tag_50\n        /* \"src/assets/BBD_Token.sol\":256:277  10_000_000_000 * 1e18 */\n      0x204fce5e3e25026110000000\n        /* \"src/assets/BBD_Token.sol\":217:277  uint256 public constant TOTAL_SUPPLY = 10_000_000_000 * 1e18 */\n      dup2\n      jump\n        /* \"@openzeppelin/contracts/token/ERC20/ERC20.sol\":1962:2055  function symbol() public view virtual returns (string memory) {... */\n    tag_18:\n      tag_40\n      tag_93\n      jump\t// in\n        /* \"src/assets/BBD_Token.sol\":511:539  uint256 public totalUnlocked */\n    tag_19:\n      tag_50\n      sload(0x07)\n      dup2\n      jump\n        /* \"@openzeppelin/contracts/token/ERC20/ERC20.sol\":3296:3474  function transfer(address to, uint256 value) public virtual returns (bool) {... */\n    tag_20:\n      tag_44\n      tag_99\n      calldatasize\n      0x04\n      tag_46\n      jump\t// in\n    tag_99:\n      tag_100\n      jump\t// in\n        /* \"src/assets/BBD_Token.sol\":946:1016  address public awardBonus = 0x7E23E2781a1Da5DACe87b4f0e7bf68191263Fc32 */\n    tag_21:\n      sload(0x0d)\n      tag_36\n      swap1\n      sub(shl(0xa0, 0x01), 0x01)\n      and\n      dup2\n      jump\n        /* \"src/assets/BBD_Token.sol\":3541:4213  function getNextUnlockInfo() external view returns (uint256 month, uint256 amountTotal, uint256 perWallet) {... */\n    tag_22:\n      tag_105\n      tag_106\n      jump\t// in\n    tag_105:\n      0x40\n      dup1\n      mload\n        /* \"#utility.yul\":2768:2793   */\n      swap4\n      dup5\n      mstore\n        /* \"#utility.yul\":2824:2826   */\n      0x20\n        /* \"#utility.yul\":2809:2827   */\n      dup5\n      add\n        /* \"#utility.yul\":2802:2836   */\n      swap3\n      swap1\n      swap3\n      mstore\n        /* \"#utility.yul\":2852:2870   */\n      swap1\n      dup3\n      add\n        /* \"#utility.yul\":2845:2879   */\n      mstore\n        /* \"#utility.yul\":2756:2758   */\n      0x60\n        /* \"#utility.yul\":2741:2759   */\n      add\n        /* \"src/assets/BBD_Token.sol\":3541:4213  function getNextUnlockInfo() external view returns (uint256 month, uint256 amountTotal, uint256 perWallet) {... */\n      tag_38\n        /* \"#utility.yul\":2566:2885   */\n      jump\n        /* \"src/assets/BBD_Token.sol\":866:939  address public referralBonus = 0xCeEA0E87B553bc445C5Eb2242b5F28Cd81B4ACaA */\n    tag_23:\n      sload(0x0c)\n      tag_36\n      swap1\n      sub(shl(0xa0, 0x01), 0x01)\n      and\n      dup2\n      jump\n        /* \"src/assets/BBD_Token.sol\":631:703  address public gameTreasury = 0x8de119e98707Ac240abA2cB77E83B29882A34357 */\n    tag_24:\n      sload(0x09)\n      tag_36\n      swap1\n      sub(shl(0xa0, 0x01), 0x01)\n      and\n      dup2\n      jump\n        /* \"@openzeppelin/contracts/token/ERC20/ERC20.sol\":3532:3672  function allowance(address owner, address spender) public view virtual returns (uint256) {... */\n    tag_25:\n      tag_50\n      tag_116\n      calldatasize\n      0x04\n      tag_117\n      jump\t// in\n    tag_116:\n      sub(shl(0xa0, 0x01), 0x01)\n        /* \"@openzeppelin/contracts/token/ERC20/ERC20.sol\":3638:3656  _allowances[owner] */\n      swap2\n      dup3\n      and\n        /* \"@openzeppelin/contracts/token/ERC20/ERC20.sol\":3612:3619  uint256 */\n      0x00\n        /* \"@openzeppelin/contracts/token/ERC20/ERC20.sol\":3638:3656  _allowances[owner] */\n      swap1\n      dup2\n      mstore\n        /* \"@openzeppelin/contracts/token/ERC20/ERC20.sol\":3638:3649  _allowances */\n      0x01\n        /* \"@openzeppelin/contracts/token/ERC20/ERC20.sol\":3638:3656  _allowances[owner] */\n      0x20\n      swap1\n      dup2\n      mstore\n      0x40\n      dup1\n      dup4\n      keccak256\n        /* \"@openzeppelin/contracts/token/ERC20/ERC20.sol\":3638:3665  _allowances[owner][spender] */\n      swap4\n      swap1\n      swap5\n      and\n      dup3\n      mstore\n      swap2\n      swap1\n      swap2\n      mstore\n      keccak256\n      sload\n      swap1\n        /* \"@openzeppelin/contracts/token/ERC20/ERC20.sol\":3532:3672  function allowance(address owner, address spender) public view virtual returns (uint256) {... */\n      jump\n        /* \"src/assets/BBD_Token.sol\":428:467  uint256 public immutable startTimestamp */\n    tag_26:\n      tag_50\n      immutable(\"0x5d40e99405081227bb9ff3dfcb5688bebff2335619d1e80403a820b0e682b492\")\n      dup2\n      jump\n        /* \"src/assets/BBD_Token.sol\":351:419  uint256 public constant LOCKED_SUPPLY = TOTAL_SUPPLY - PUBLIC_SUPPLY */\n    tag_27:\n      tag_50\n      tag_124\n      jump\t// in\n        /* \"@openzeppelin/contracts/access/Ownable.sol\":2543:2758  function transferOwnership(address newOwner) public virtual onlyOwner {... */\n    tag_28:\n      tag_59\n      tag_127\n      calldatasize\n      0x04\n      tag_75\n      jump\t// in\n    tag_127:\n      tag_128\n      jump\t// in\n        /* \"src/assets/BBD_Token.sol\":1434:3033  function unlockTokens() external onlyOwner {... */\n    tag_29:\n      tag_59\n      tag_130\n      jump\t// in\n        /* \"@openzeppelin/contracts/token/ERC20/ERC20.sol\":1760:1849  function name() public view virtual returns (string memory) {... */\n    tag_41:\n        /* \"@openzeppelin/contracts/token/ERC20/ERC20.sol\":1805:1818  string memory */\n      0x60\n        /* \"@openzeppelin/contracts/token/ERC20/ERC20.sol\":1837:1842  _name */\n      0x03\n        /* \"@openzeppelin/contracts/token/ERC20/ERC20.sol\":1830:1842  return _name */\n      dup1\n      sload\n      tag_132\n      swap1\n      tag_133\n      jump\t// in\n    tag_132:\n      dup1\n      0x1f\n      add\n      0x20\n      dup1\n      swap2\n      div\n      mul\n      0x20\n      add\n      mload(0x40)\n      swap1\n      dup2\n      add\n      0x40\n      mstore\n      dup1\n      swap3\n      swap2\n      swap1\n      dup2\n      dup2\n      mstore\n      0x20\n      add\n      dup3\n      dup1\n      sload\n      tag_134\n      swap1\n      tag_133\n      jump\t// in\n    tag_134:\n      dup1\n      iszero\n      tag_135\n      jumpi\n      dup1\n      0x1f\n      lt\n      tag_136\n      jumpi\n      0x0100\n      dup1\n      dup4\n      sload\n      div\n      mul\n      dup4\n      mstore\n      swap2\n      0x20\n      add\n      swap2\n      jump(tag_135)\n    tag_136:\n      dup3\n      add\n      swap2\n      swap1\n      0x00\n      mstore\n      keccak256(0x00, 0x20)\n      swap1\n    tag_137:\n      dup2\n      sload\n      dup2\n      mstore\n      swap1\n      0x01\n      add\n      swap1\n      0x20\n      add\n      dup1\n      dup4\n      gt\n      tag_137\n      jumpi\n      dup3\n      swap1\n      sub\n      0x1f\n      and\n      dup3\n      add\n      swap2\n    tag_135:\n      pop\n      pop\n      pop\n      pop\n      pop\n      swap1\n      pop\n        /* \"@openzeppelin/contracts/token/ERC20/ERC20.sol\":1760:1849  function name() public view virtual returns (string memory) {... */\n      swap1\n      jump\t// out\n        /* \"@openzeppelin/contracts/token/ERC20/ERC20.sol\":3979:4165  function approve(address spender, uint256 value) public virtual returns (bool) {... */\n    tag_47:\n        /* \"@openzeppelin/contracts/token/ERC20/ERC20.sol\":4052:4056  bool */\n      0x00\n        /* \"@openzeppelin/contracts/utils/Context.sol\":735:745  msg.sender */\n      caller\n        /* \"@openzeppelin/contracts/token/ERC20/ERC20.sol\":4106:4137  _approve(owner, spender, value) */\n      tag_141\n        /* \"@openzeppelin/contracts/utils/Context.sol\":735:745  msg.sender */\n      dup2\n        /* \"@openzeppelin/contracts/token/ERC20/ERC20.sol\":4122:4129  spender */\n      dup6\n        /* \"@openzeppelin/contracts/token/ERC20/ERC20.sol\":4131:4136  value */\n      dup6\n        /* \"@openzeppelin/contracts/token/ERC20/ERC20.sol\":4106:4114  _approve */\n      tag_142\n        /* \"@openzeppelin/contracts/token/ERC20/ERC20.sol\":4106:4137  _approve(owner, spender, value) */\n      jump\t// in\n    tag_141:\n        /* \"@openzeppelin/contracts/token/ERC20/ERC20.sol\":4154:4158  true */\n      0x01\n        /* \"@openzeppelin/contracts/token/ERC20/ERC20.sol\":4147:4158  return true */\n      swap2\n      pop\n      pop\n        /* \"@openzeppelin/contracts/token/ERC20/ERC20.sol\":3979:4165  function approve(address spender, uint256 value) public virtual returns (bool) {... */\n    tag_138:\n      swap3\n      swap2\n      pop\n      pop\n      jump\t// out\n        /* \"@openzeppelin/contracts/token/ERC20/ERC20.sol\":4757:5001  function transferFrom(address from, address to, uint256 value) public virtual returns (bool) {... */\n    tag_57:\n        /* \"@openzeppelin/contracts/token/ERC20/ERC20.sol\":4844:4848  bool */\n      0x00\n        /* \"@openzeppelin/contracts/utils/Context.sol\":735:745  msg.sender */\n      caller\n        /* \"@openzeppelin/contracts/token/ERC20/ERC20.sol\":4900:4937  _spendAllowance(from, spender, value) */\n      tag_146\n        /* \"@openzeppelin/contracts/token/ERC20/ERC20.sol\":4916:4920  from */\n      dup6\n        /* \"@openzeppelin/contracts/utils/Context.sol\":735:745  msg.sender */\n      dup3\n        /* \"@openzeppelin/contracts/token/ERC20/ERC20.sol\":4931:4936  value */\n      dup6\n        /* \"@openzeppelin/contracts/token/ERC20/ERC20.sol\":4900:4915  _spendAllowance */\n      tag_147\n        /* \"@openzeppelin/contracts/token/ERC20/ERC20.sol\":4900:4937  _spendAllowance(from, spender, value) */\n      jump\t// in\n    tag_146:\n        /* \"@openzeppelin/contracts/token/ERC20/ERC20.sol\":4947:4973  _transfer(from, to, value) */\n      tag_148\n        /* \"@openzeppelin/contracts/token/ERC20/ERC20.sol\":4957:4961  from */\n      dup6\n        /* \"@openzeppelin/contracts/token/ERC20/ERC20.sol\":4963:4965  to */\n      dup6\n        /* \"@openzeppelin/contracts/token/ERC20/ERC20.sol\":4967:4972  value */\n      dup6\n        /* \"@openzeppelin/contracts/token/ERC20/ERC20.sol\":4947:4956  _transfer */\n      tag_149\n        /* \"@openzeppelin/contracts/token/ERC20/ERC20.sol\":4947:4973  _transfer(from, to, value) */\n      jump\t// in\n    tag_148:\n      pop\n        /* \"@openzeppelin/contracts/token/ERC20/ERC20.sol\":4990:4994  true */\n      0x01\n      swap5\n        /* \"@openzeppelin/contracts/token/ERC20/ERC20.sol\":4757:5001  function transferFrom(address from, address to, uint256 value) public virtual returns (bool) {... */\n      swap4\n      pop\n      pop\n      pop\n      pop\n      jump\t// out\n        /* \"src/assets/BBD_Token.sol\":3041:3533  function updateDistributionAddress(uint256 index, address newAddress) external onlyOwner {... */\n    tag_62:\n        /* \"@openzeppelin/contracts/access/Ownable.sol\":1531:1544  _checkOwner() */\n      tag_151\n        /* \"@openzeppelin/contracts/access/Ownable.sol\":1531:1542  _checkOwner */\n      tag_152\n        /* \"@openzeppelin/contracts/access/Ownable.sol\":1531:1544  _checkOwner() */\n      jump\t// in\n    tag_151:\n        /* \"src/assets/BBD_Token.sol\":3158:3159  1 */\n      0x01\n        /* \"src/assets/BBD_Token.sol\":3149:3154  index */\n      dup3\n        /* \"src/assets/BBD_Token.sol\":3149:3159  index >= 1 */\n      lt\n      iszero\n        /* \"src/assets/BBD_Token.sol\":3149:3173  index >= 1 && index <= 6 */\n      dup1\n      iszero\n      tag_154\n      jumpi\n      pop\n        /* \"src/assets/BBD_Token.sol\":3172:3173  6 */\n      0x06\n        /* \"src/assets/BBD_Token.sol\":3163:3168  index */\n      dup3\n        /* \"src/assets/BBD_Token.sol\":3163:3173  index <= 6 */\n      gt\n      iszero\n        /* \"src/assets/BBD_Token.sol\":3149:3173  index >= 1 && index <= 6 */\n    tag_154:\n        /* \"src/assets/BBD_Token.sol\":3141:3191  require(index >= 1 && index <= 6, \"Invalid index\") */\n      tag_155\n      jumpi\n      mload(0x40)\n      shl(0xe5, 0x461bcd)\n      dup2\n      mstore\n        /* \"#utility.yul\":3742:3744   */\n      0x20\n        /* \"src/assets/BBD_Token.sol\":3141:3191  require(index >= 1 && index <= 6, \"Invalid index\") */\n      0x04\n      dup3\n      add\n        /* \"#utility.yul\":3724:3745   */\n      mstore\n        /* \"#utility.yul\":3781:3783   */\n      0x0d\n        /* \"#utility.yul\":3761:3779   */\n      0x24\n      dup3\n      add\n        /* \"#utility.yul\":3754:3784   */\n      mstore\n      shl(0x9b, 0x092dcecc2d8d2c840d2dcc8caf)\n        /* \"#utility.yul\":3800:3818   */\n      0x44\n      dup3\n      add\n        /* \"#utility.yul\":3793:3836   */\n      mstore\n        /* \"#utility.yul\":3853:3871   */\n      0x64\n      add\n        /* \"src/assets/BBD_Token.sol\":3141:3191  require(index >= 1 && index <= 6, \"Invalid index\") */\n    tag_156:\n      mload(0x40)\n      dup1\n      swap2\n      sub\n      swap1\n      revert\n    tag_155:\n        /* \"src/assets/BBD_Token.sol\":3207:3212  index */\n      dup2\n        /* \"src/assets/BBD_Token.sol\":3216:3217  1 */\n      0x01\n        /* \"src/assets/BBD_Token.sol\":3207:3217  index == 1 */\n      sub\n        /* \"src/assets/BBD_Token.sol\":3204:3525  if(index == 1) liquidityListing = newAddress;... */\n      tag_158\n      jumpi\n        /* \"src/assets/BBD_Token.sol\":3219:3235  liquidityListing */\n      0x08\n        /* \"src/assets/BBD_Token.sol\":3219:3248  liquidityListing = newAddress */\n      dup1\n      sload\n      not(sub(shl(0xa0, 0x01), 0x01))\n      and\n      sub(shl(0xa0, 0x01), 0x01)\n      dup4\n      and\n      or\n      swap1\n      sstore\n        /* \"src/assets/BBD_Token.sol\":3041:3533  function updateDistributionAddress(uint256 index, address newAddress) external onlyOwner {... */\n      pop\n      pop\n      jump\t// out\n        /* \"src/assets/BBD_Token.sol\":3204:3525  if(index == 1) liquidityListing = newAddress;... */\n    tag_158:\n        /* \"src/assets/BBD_Token.sol\":3267:3272  index */\n      dup2\n        /* \"src/assets/BBD_Token.sol\":3276:3277  2 */\n      0x02\n        /* \"src/assets/BBD_Token.sol\":3267:3277  index == 2 */\n      sub\n        /* \"src/assets/BBD_Token.sol\":3264:3525  if(index == 2) gameTreasury = newAddress;... */\n      tag_160\n      jumpi\n        /* \"src/assets/BBD_Token.sol\":3279:3291  gameTreasury */\n      0x09\n        /* \"src/assets/BBD_Token.sol\":3279:3304  gameTreasury = newAddress */\n      dup1\n      sload\n      not(sub(shl(0xa0, 0x01), 0x01))\n      and\n      sub(shl(0xa0, 0x01), 0x01)\n      dup4\n      and\n      or\n      swap1\n      sstore\n        /* \"src/assets/BBD_Token.sol\":3041:3533  function updateDistributionAddress(uint256 index, address newAddress) external onlyOwner {... */\n      pop\n      pop\n      jump\t// out\n        /* \"src/assets/BBD_Token.sol\":3264:3525  if(index == 2) gameTreasury = newAddress;... */\n    tag_160:\n        /* \"src/assets/BBD_Token.sol\":3323:3328  index */\n      dup2\n        /* \"src/assets/BBD_Token.sol\":3332:3333  3 */\n      0x03\n        /* \"src/assets/BBD_Token.sol\":3323:3333  index == 3 */\n      sub\n        /* \"src/assets/BBD_Token.sol\":3320:3525  if(index == 3) marketing = newAddress;... */\n      tag_162\n      jumpi\n        /* \"src/assets/BBD_Token.sol\":3335:3344  marketing */\n      0x0a\n        /* \"src/assets/BBD_Token.sol\":3335:3357  marketing = newAddress */\n      dup1\n      sload\n      not(sub(shl(0xa0, 0x01), 0x01))\n      and\n      sub(shl(0xa0, 0x01), 0x01)\n      dup4\n      and\n      or\n      swap1\n      sstore\n        /* \"src/assets/BBD_Token.sol\":3041:3533  function updateDistributionAddress(uint256 index, address newAddress) external onlyOwner {... */\n      pop\n      pop\n      jump\t// out\n        /* \"src/assets/BBD_Token.sol\":3320:3525  if(index == 3) marketing = newAddress;... */\n    tag_162:\n        /* \"src/assets/BBD_Token.sol\":3376:3381  index */\n      dup2\n        /* \"src/assets/BBD_Token.sol\":3385:3386  4 */\n      0x04\n        /* \"src/assets/BBD_Token.sol\":3376:3386  index == 4 */\n      sub\n        /* \"src/assets/BBD_Token.sol\":3373:3525  if(index == 4) stakingReward = newAddress;... */\n      tag_164\n      jumpi\n        /* \"src/assets/BBD_Token.sol\":3388:3401  stakingReward */\n      0x0b\n        /* \"src/assets/BBD_Token.sol\":3388:3414  stakingReward = newAddress */\n      dup1\n      sload\n      not(sub(shl(0xa0, 0x01), 0x01))\n      and\n      sub(shl(0xa0, 0x01), 0x01)\n      dup4\n      and\n      or\n      swap1\n      sstore\n        /* \"src/assets/BBD_Token.sol\":3041:3533  function updateDistributionAddress(uint256 index, address newAddress) external onlyOwner {... */\n      pop\n      pop\n      jump\t// out\n        /* \"src/assets/BBD_Token.sol\":3373:3525  if(index == 4) stakingReward = newAddress;... */\n    tag_164:\n        /* \"src/assets/BBD_Token.sol\":3433:3438  index */\n      dup2\n        /* \"src/assets/BBD_Token.sol\":3442:3443  5 */\n      0x05\n        /* \"src/assets/BBD_Token.sol\":3433:3443  index == 5 */\n      sub\n        /* \"src/assets/BBD_Token.sol\":3430:3525  if(index == 5) referralBonus = newAddress;... */\n      tag_166\n      jumpi\n        /* \"src/assets/BBD_Token.sol\":3445:3458  referralBonus */\n      0x0c\n        /* \"src/assets/BBD_Token.sol\":3445:3471  referralBonus = newAddress */\n      dup1\n      sload\n      not(sub(shl(0xa0, 0x01), 0x01))\n      and\n      sub(shl(0xa0, 0x01), 0x01)\n      dup4\n      and\n      or\n      swap1\n      sstore\n        /* \"src/assets/BBD_Token.sol\":3041:3533  function updateDistributionAddress(uint256 index, address newAddress) external onlyOwner {... */\n      pop\n      pop\n      jump\t// out\n        /* \"src/assets/BBD_Token.sol\":3430:3525  if(index == 5) referralBonus = newAddress;... */\n    tag_166:\n        /* \"src/assets/BBD_Token.sol\":3490:3495  index */\n      dup2\n        /* \"src/assets/BBD_Token.sol\":3499:3500  6 */\n      0x06\n        /* \"src/assets/BBD_Token.sol\":3490:3500  index == 6 */\n      sub\n        /* \"src/assets/BBD_Token.sol\":3487:3525  if(index == 6) awardBonus = newAddress */\n      tag_168\n      jumpi\n        /* \"src/assets/BBD_Token.sol\":3502:3512  awardBonus */\n      0x0d\n        /* \"src/assets/BBD_Token.sol\":3502:3525  awardBonus = newAddress */\n      dup1\n      sload\n      not(sub(shl(0xa0, 0x01), 0x01))\n      and\n      sub(shl(0xa0, 0x01), 0x01)\n      dup4\n      and\n      or\n      swap1\n      sstore\n        /* \"src/assets/BBD_Token.sol\":3487:3525  if(index == 6) awardBonus = newAddress */\n    tag_168:\n        /* \"src/assets/BBD_Token.sol\":3041:3533  function updateDistributionAddress(uint256 index, address newAddress) external onlyOwner {... */\n      pop\n      pop\n      jump\t// out\n        /* \"@openzeppelin/contracts/access/Ownable.sol\":2293:2394  function renounceOwnership() public virtual onlyOwner {... */\n    tag_79:\n        /* \"@openzeppelin/contracts/access/Ownable.sol\":1531:1544  _checkOwner() */\n      tag_172\n        /* \"@openzeppelin/contracts/access/Ownable.sol\":1531:1542  _checkOwner */\n      tag_152\n        /* \"@openzeppelin/contracts/access/Ownable.sol\":1531:1544  _checkOwner() */\n      jump\t// in\n    tag_172:\n        /* \"@openzeppelin/contracts/access/Ownable.sol\":2357:2387  _transferOwnership(address(0)) */\n      tag_174\n        /* \"@openzeppelin/contracts/access/Ownable.sol\":2384:2385  0 */\n      0x00\n        /* \"@openzeppelin/contracts/access/Ownable.sol\":2357:2375  _transferOwnership */\n      tag_175\n        /* \"@openzeppelin/contracts/access/Ownable.sol\":2357:2387  _transferOwnership(address(0)) */\n      jump\t// in\n    tag_174:\n        /* \"@openzeppelin/contracts/access/Ownable.sol\":2293:2394  function renounceOwnership() public virtual onlyOwner {... */\n      jump\t// out\n        /* \"@openzeppelin/contracts/token/ERC20/ERC20.sol\":1962:2055  function symbol() public view virtual returns (string memory) {... */\n    tag_93:\n        /* \"@openzeppelin/contracts/token/ERC20/ERC20.sol\":2009:2022  string memory */\n      0x60\n        /* \"@openzeppelin/contracts/token/ERC20/ERC20.sol\":2041:2048  _symbol */\n      0x04\n        /* \"@openzeppelin/contracts/token/ERC20/ERC20.sol\":2034:2048  return _symbol */\n      dup1\n      sload\n      tag_132\n      swap1\n      tag_133\n      jump\t// in\n        /* \"@openzeppelin/contracts/token/ERC20/ERC20.sol\":3296:3474  function transfer(address to, uint256 value) public virtual returns (bool) {... */\n    tag_100:\n        /* \"@openzeppelin/contracts/token/ERC20/ERC20.sol\":3365:3369  bool */\n      0x00\n        /* \"@openzeppelin/contracts/utils/Context.sol\":735:745  msg.sender */\n      caller\n        /* \"@openzeppelin/contracts/token/ERC20/ERC20.sol\":3419:3446  _transfer(owner, to, value) */\n      tag_141\n        /* \"@openzeppelin/contracts/utils/Context.sol\":735:745  msg.sender */\n      dup2\n        /* \"@openzeppelin/contracts/token/ERC20/ERC20.sol\":3436:3438  to */\n      dup6\n        /* \"@openzeppelin/contracts/token/ERC20/ERC20.sol\":3440:3445  value */\n      dup6\n        /* \"@openzeppelin/contracts/token/ERC20/ERC20.sol\":3419:3428  _transfer */\n      tag_149\n        /* \"@openzeppelin/contracts/token/ERC20/ERC20.sol\":3419:3446  _transfer(owner, to, value) */\n      jump\t// in\n        /* \"src/assets/BBD_Token.sol\":3541:4213  function getNextUnlockInfo() external view returns (uint256 month, uint256 amountTotal, uint256 perWallet) {... */\n    tag_106:\n        /* \"src/assets/BBD_Token.sol\":3593:3606  uint256 month */\n      0x00\n        /* \"src/assets/BBD_Token.sol\":3608:3627  uint256 amountTotal */\n      dup1\n        /* \"src/assets/BBD_Token.sol\":3629:3646  uint256 perWallet */\n      0x00\n        /* \"src/assets/BBD_Token.sol\":3659:3668  uint256 m */\n      dup1\n        /* \"src/assets/BBD_Token.sol\":3671:3686  lastUnlockMonth */\n      sload(0x06)\n        /* \"src/assets/BBD_Token.sol\":3689:3690  1 */\n      0x01\n        /* \"src/assets/BBD_Token.sol\":3671:3690  lastUnlockMonth + 1 */\n      tag_187\n      swap2\n      swap1\n      tag_188\n      jump\t// in\n    tag_187:\n        /* \"src/assets/BBD_Token.sol\":3659:3690  uint256 m = lastUnlockMonth + 1 */\n      swap1\n      pop\n        /* \"src/assets/BBD_Token.sol\":3712:3713  3 */\n      0x03\n        /* \"src/assets/BBD_Token.sol\":3707:3708  m */\n      dup2\n        /* \"src/assets/BBD_Token.sol\":3707:3713  m <= 3 */\n      gt\n        /* \"src/assets/BBD_Token.sol\":3703:4022  if (m <= 3) {... */\n      tag_189\n      jumpi\n        /* \"src/assets/BBD_Token.sol\":3766:3770  1000 */\n      0x03e8\n        /* \"src/assets/BBD_Token.sol\":391:419  TOTAL_SUPPLY - PUBLIC_SUPPLY */\n      tag_190\n      shl(0x1b, 0x6765c793fa10079d)\n        /* \"src/assets/BBD_Token.sol\":256:277  10_000_000_000 * 1e18 */\n      0x204fce5e3e25026110000000\n        /* \"src/assets/BBD_Token.sol\":391:419  TOTAL_SUPPLY - PUBLIC_SUPPLY */\n      tag_191\n      jump\t// in\n    tag_190:\n        /* \"src/assets/BBD_Token.sol\":3745:3762  LOCKED_SUPPLY * 5 */\n      tag_192\n      swap1\n        /* \"src/assets/BBD_Token.sol\":3761:3762  5 */\n      0x05\n        /* \"src/assets/BBD_Token.sol\":3745:3762  LOCKED_SUPPLY * 5 */\n      tag_193\n      jump\t// in\n    tag_192:\n        /* \"src/assets/BBD_Token.sol\":3744:3770  (LOCKED_SUPPLY * 5) / 1000 */\n      tag_194\n      swap2\n      swap1\n      tag_195\n      jump\t// in\n    tag_194:\n        /* \"src/assets/BBD_Token.sol\":3730:3770  amountTotal = (LOCKED_SUPPLY * 5) / 1000 */\n      swap3\n      pop\n        /* \"src/assets/BBD_Token.sol\":3703:4022  if (m <= 3) {... */\n      jump(tag_206)\n    tag_189:\n        /* \"src/assets/BBD_Token.sol\":3797:3798  6 */\n      0x06\n        /* \"src/assets/BBD_Token.sol\":3792:3793  m */\n      dup2\n        /* \"src/assets/BBD_Token.sol\":3792:3798  m <= 6 */\n      gt\n        /* \"src/assets/BBD_Token.sol\":3788:4022  if (m <= 6) {... */\n      tag_197\n      jumpi\n        /* \"src/assets/BBD_Token.sol\":3851:3854  100 */\n      0x64\n        /* \"src/assets/BBD_Token.sol\":391:419  TOTAL_SUPPLY - PUBLIC_SUPPLY */\n      tag_198\n      shl(0x1b, 0x6765c793fa10079d)\n        /* \"src/assets/BBD_Token.sol\":256:277  10_000_000_000 * 1e18 */\n      0x204fce5e3e25026110000000\n        /* \"src/assets/BBD_Token.sol\":391:419  TOTAL_SUPPLY - PUBLIC_SUPPLY */\n      tag_191\n      jump\t// in\n    tag_198:\n        /* \"src/assets/BBD_Token.sol\":3830:3847  LOCKED_SUPPLY * 1 */\n      tag_192\n      swap1\n        /* \"src/assets/BBD_Token.sol\":3846:3847  1 */\n      0x01\n        /* \"src/assets/BBD_Token.sol\":3830:3847  LOCKED_SUPPLY * 1 */\n      tag_193\n      jump\t// in\n        /* \"src/assets/BBD_Token.sol\":3788:4022  if (m <= 6) {... */\n    tag_197:\n        /* \"src/assets/BBD_Token.sol\":3881:3882  9 */\n      0x09\n        /* \"src/assets/BBD_Token.sol\":3876:3877  m */\n      dup2\n        /* \"src/assets/BBD_Token.sol\":3876:3882  m <= 9 */\n      gt\n        /* \"src/assets/BBD_Token.sol\":3872:4022  if (m <= 9) {... */\n      tag_202\n      jumpi\n        /* \"src/assets/BBD_Token.sol\":3935:3938  100 */\n      0x64\n        /* \"src/assets/BBD_Token.sol\":391:419  TOTAL_SUPPLY - PUBLIC_SUPPLY */\n      tag_203\n      shl(0x1b, 0x6765c793fa10079d)\n        /* \"src/assets/BBD_Token.sol\":256:277  10_000_000_000 * 1e18 */\n      0x204fce5e3e25026110000000\n        /* \"src/assets/BBD_Token.sol\":391:419  TOTAL_SUPPLY - PUBLIC_SUPPLY */\n      tag_191\n      jump\t// in\n    tag_203:\n        /* \"src/assets/BBD_Token.sol\":3914:3931  LOCKED_SUPPLY * 2 */\n      tag_192\n      swap1\n        /* \"src/assets/BBD_Token.sol\":3930:3931  2 */\n      0x02\n        /* \"src/assets/BBD_Token.sol\":3914:3931  LOCKED_SUPPLY * 2 */\n      tag_193\n      jump\t// in\n        /* \"src/assets/BBD_Token.sol\":3872:4022  if (m <= 9) {... */\n    tag_202:\n        /* \"src/assets/BBD_Token.sol\":4007:4010  100 */\n      0x64\n        /* \"src/assets/BBD_Token.sol\":391:419  TOTAL_SUPPLY - PUBLIC_SUPPLY */\n      tag_207\n      shl(0x1b, 0x6765c793fa10079d)\n        /* \"src/assets/BBD_Token.sol\":256:277  10_000_000_000 * 1e18 */\n      0x204fce5e3e25026110000000\n        /* \"src/assets/BBD_Token.sol\":391:419  TOTAL_SUPPLY - PUBLIC_SUPPLY */\n      tag_191\n      jump\t// in\n    tag_207:\n        /* \"src/assets/BBD_Token.sol\":3986:4003  LOCKED_SUPPLY * 3 */\n      tag_208\n      swap1\n        /* \"src/assets/BBD_Token.sol\":4002:4003  3 */\n      0x03\n        /* \"src/assets/BBD_Token.sol\":3986:4003  LOCKED_SUPPLY * 3 */\n      tag_193\n      jump\t// in\n    tag_208:\n        /* \"src/assets/BBD_Token.sol\":3985:4010  (LOCKED_SUPPLY * 3) / 100 */\n      tag_209\n      swap2\n      swap1\n      tag_195\n      jump\t// in\n    tag_209:\n        /* \"src/assets/BBD_Token.sol\":3971:4010  amountTotal = (LOCKED_SUPPLY * 3) / 100 */\n      swap3\n      pop\n        /* \"src/assets/BBD_Token.sol\":3872:4022  if (m <= 9) {... */\n    tag_206:\n        /* \"src/assets/BBD_Token.sol\":391:419  TOTAL_SUPPLY - PUBLIC_SUPPLY */\n      tag_210\n      shl(0x1b, 0x6765c793fa10079d)\n        /* \"src/assets/BBD_Token.sol\":256:277  10_000_000_000 * 1e18 */\n      0x204fce5e3e25026110000000\n        /* \"src/assets/BBD_Token.sol\":391:419  TOTAL_SUPPLY - PUBLIC_SUPPLY */\n      tag_191\n      jump\t// in\n    tag_210:\n        /* \"src/assets/BBD_Token.sol\":4052:4065  totalUnlocked */\n      sload(0x07)\n        /* \"src/assets/BBD_Token.sol\":4038:4065  amountTotal + totalUnlocked */\n      tag_211\n      swap1\n        /* \"src/assets/BBD_Token.sol\":4038:4049  amountTotal */\n      dup6\n        /* \"src/assets/BBD_Token.sol\":4038:4065  amountTotal + totalUnlocked */\n      tag_188\n      jump\t// in\n    tag_211:\n        /* \"src/assets/BBD_Token.sol\":4038:4081  amountTotal + totalUnlocked > LOCKED_SUPPLY */\n      gt\n        /* \"src/assets/BBD_Token.sol\":4034:4153  if (amountTotal + totalUnlocked > LOCKED_SUPPLY) {... */\n      iszero\n      tag_212\n      jumpi\n        /* \"src/assets/BBD_Token.sol\":4128:4141  totalUnlocked */\n      sload(0x07)\n        /* \"src/assets/BBD_Token.sol\":391:419  TOTAL_SUPPLY - PUBLIC_SUPPLY */\n      tag_213\n      shl(0x1b, 0x6765c793fa10079d)\n        /* \"src/assets/BBD_Token.sol\":256:277  10_000_000_000 * 1e18 */\n      0x204fce5e3e25026110000000\n        /* \"src/assets/BBD_Token.sol\":391:419  TOTAL_SUPPLY - PUBLIC_SUPPLY */\n      tag_191\n      jump\t// in\n    tag_213:\n        /* \"src/assets/BBD_Token.sol\":4112:4141  LOCKED_SUPPLY - totalUnlocked */\n      tag_214\n      swap2\n      swap1\n      tag_191\n      jump\t// in\n    tag_214:\n        /* \"src/assets/BBD_Token.sol\":4098:4141  amountTotal = LOCKED_SUPPLY - totalUnlocked */\n      swap3\n      pop\n        /* \"src/assets/BBD_Token.sol\":4034:4153  if (amountTotal + totalUnlocked > LOCKED_SUPPLY) {... */\n    tag_212:\n        /* \"src/assets/BBD_Token.sol\":4173:4174  m */\n      dup1\n        /* \"src/assets/BBD_Token.sol\":4176:4187  amountTotal */\n      dup4\n        /* \"src/assets/BBD_Token.sol\":4189:4204  amountTotal / 6 */\n      tag_215\n        /* \"src/assets/BBD_Token.sol\":4203:4204  6 */\n      0x06\n        /* \"src/assets/BBD_Token.sol\":4176:4187  amountTotal */\n      dup3\n        /* \"src/assets/BBD_Token.sol\":4189:4204  amountTotal / 6 */\n      tag_195\n      jump\t// in\n    tag_215:\n        /* \"src/assets/BBD_Token.sol\":4165:4205  return (m, amountTotal, amountTotal / 6) */\n      swap4\n      pop\n      swap4\n      pop\n      swap4\n      pop\n      pop\n        /* \"src/assets/BBD_Token.sol\":3541:4213  function getNextUnlockInfo() external view returns (uint256 month, uint256 amountTotal, uint256 perWallet) {... */\n      swap1\n      swap2\n      swap3\n      jump\t// out\n        /* \"src/assets/BBD_Token.sol\":351:419  uint256 public constant LOCKED_SUPPLY = TOTAL_SUPPLY - PUBLIC_SUPPLY */\n    tag_124:\n        /* \"src/assets/BBD_Token.sol\":391:419  TOTAL_SUPPLY - PUBLIC_SUPPLY */\n      tag_217\n      shl(0x1b, 0x6765c793fa10079d)\n        /* \"src/assets/BBD_Token.sol\":256:277  10_000_000_000 * 1e18 */\n      0x204fce5e3e25026110000000\n        /* \"src/assets/BBD_Token.sol\":391:419  TOTAL_SUPPLY - PUBLIC_SUPPLY */\n      tag_191\n      jump\t// in\n    tag_217:\n        /* \"src/assets/BBD_Token.sol\":351:419  uint256 public constant LOCKED_SUPPLY = TOTAL_SUPPLY - PUBLIC_SUPPLY */\n      dup2\n      jump\t// out\n        /* \"@openzeppelin/contracts/access/Ownable.sol\":2543:2758  function transferOwnership(address newOwner) public virtual onlyOwner {... */\n    tag_128:\n        /* \"@openzeppelin/contracts/access/Ownable.sol\":1531:1544  _checkOwner() */\n      tag_219\n        /* \"@openzeppelin/contracts/access/Ownable.sol\":1531:1542  _checkOwner */\n      tag_152\n        /* \"@openzeppelin/contracts/access/Ownable.sol\":1531:1544  _checkOwner() */\n      jump\t// in\n    tag_219:\n      sub(shl(0xa0, 0x01), 0x01)\n        /* \"@openzeppelin/contracts/access/Ownable.sol\":2627:2649  newOwner == address(0) */\n      dup2\n      and\n        /* \"@openzeppelin/contracts/access/Ownable.sol\":2623:2714  if (newOwner == address(0)) {... */\n      tag_221\n      jumpi\n        /* \"@openzeppelin/contracts/access/Ownable.sol\":2672:2703  OwnableInvalidOwner(address(0)) */\n      mload(0x40)\n      shl(0xe0, 0x1e4fbdf7)\n      dup2\n      mstore\n        /* \"@openzeppelin/contracts/access/Ownable.sol\":2700:2701  0 */\n      0x00\n        /* \"@openzeppelin/contracts/access/Ownable.sol\":2672:2703  OwnableInvalidOwner(address(0)) */\n      0x04\n      dup3\n      add\n        /* \"#utility.yul\":160:211   */\n      mstore\n        /* \"#utility.yul\":133:151   */\n      0x24\n      add\n        /* \"@openzeppelin/contracts/access/Ownable.sol\":2672:2703  OwnableInvalidOwner(address(0)) */\n      tag_156\n        /* \"#utility.yul\":14:217   */\n      jump\n        /* \"@openzeppelin/contracts/access/Ownable.sol\":2623:2714  if (newOwner == address(0)) {... */\n    tag_221:\n        /* \"@openzeppelin/contracts/access/Ownable.sol\":2723:2751  _transferOwnership(newOwner) */\n      tag_223\n        /* \"@openzeppelin/contracts/access/Ownable.sol\":2742:2750  newOwner */\n      dup2\n        /* \"@openzeppelin/contracts/access/Ownable.sol\":2723:2741  _transferOwnership */\n      tag_175\n        /* \"@openzeppelin/contracts/access/Ownable.sol\":2723:2751  _transferOwnership(newOwner) */\n      jump\t// in\n    tag_223:\n        /* \"@openzeppelin/contracts/access/Ownable.sol\":2543:2758  function transferOwnership(address newOwner) public virtual onlyOwner {... */\n      pop\n      jump\t// out\n        /* \"src/assets/BBD_Token.sol\":1434:3033  function unlockTokens() external onlyOwner {... */\n    tag_130:\n        /* \"@openzeppelin/contracts/access/Ownable.sol\":1531:1544  _checkOwner() */\n      tag_225\n        /* \"@openzeppelin/contracts/access/Ownable.sol\":1531:1542  _checkOwner */\n      tag_152\n        /* \"@openzeppelin/contracts/access/Ownable.sol\":1531:1544  _checkOwner() */\n      jump\t// in\n    tag_225:\n        /* \"src/assets/BBD_Token.sol\":391:419  TOTAL_SUPPLY - PUBLIC_SUPPLY */\n      tag_227\n      shl(0x1b, 0x6765c793fa10079d)\n        /* \"src/assets/BBD_Token.sol\":256:277  10_000_000_000 * 1e18 */\n      0x204fce5e3e25026110000000\n        /* \"src/assets/BBD_Token.sol\":391:419  TOTAL_SUPPLY - PUBLIC_SUPPLY */\n      tag_191\n      jump\t// in\n    tag_227:\n        /* \"src/assets/BBD_Token.sol\":1496:1509  totalUnlocked */\n      sload(0x07)\n        /* \"src/assets/BBD_Token.sol\":1496:1525  totalUnlocked < LOCKED_SUPPLY */\n      lt\n        /* \"src/assets/BBD_Token.sol\":1488:1557  require(totalUnlocked < LOCKED_SUPPLY, \"All tokens already unlocked\") */\n      tag_228\n      jumpi\n      mload(0x40)\n      shl(0xe5, 0x461bcd)\n      dup2\n      mstore\n        /* \"#utility.yul\":4874:4876   */\n      0x20\n        /* \"src/assets/BBD_Token.sol\":1488:1557  require(totalUnlocked < LOCKED_SUPPLY, \"All tokens already unlocked\") */\n      0x04\n      dup3\n      add\n        /* \"#utility.yul\":4856:4877   */\n      mstore\n        /* \"#utility.yul\":4913:4915   */\n      0x1b\n        /* \"#utility.yul\":4893:4911   */\n      0x24\n      dup3\n      add\n        /* \"#utility.yul\":4886:4916   */\n      mstore\n        /* \"#utility.yul\":4952:4981   */\n      0x416c6c20746f6b656e7320616c726561647920756e6c6f636b65640000000000\n        /* \"#utility.yul\":4932:4950   */\n      0x44\n      dup3\n      add\n        /* \"#utility.yul\":4925:4982   */\n      mstore\n        /* \"#utility.yul\":4999:5017   */\n      0x64\n      add\n        /* \"src/assets/BBD_Token.sol\":1488:1557  require(totalUnlocked < LOCKED_SUPPLY, \"All tokens already unlocked\") */\n      tag_156\n        /* \"#utility.yul\":4672:5023   */\n      jump\n        /* \"src/assets/BBD_Token.sol\":1488:1557  require(totalUnlocked < LOCKED_SUPPLY, \"All tokens already unlocked\") */\n    tag_228:\n        /* \"src/assets/BBD_Token.sol\":1570:1591  uint256 monthsElapsed */\n      0x00\n        /* \"src/assets/BBD_Token.sol\":1631:1638  30 days */\n      0x278d00\n        /* \"src/assets/BBD_Token.sol\":1595:1627  block.timestamp - startTimestamp */\n      tag_231\n        /* \"src/assets/BBD_Token.sol\":1613:1627  startTimestamp */\n      immutable(\"0x5d40e99405081227bb9ff3dfcb5688bebff2335619d1e80403a820b0e682b492\")\n        /* \"src/assets/BBD_Token.sol\":1595:1610  block.timestamp */\n      timestamp\n        /* \"src/assets/BBD_Token.sol\":1595:1627  block.timestamp - startTimestamp */\n      tag_191\n      jump\t// in\n    tag_231:\n        /* \"src/assets/BBD_Token.sol\":1594:1638  (block.timestamp - startTimestamp) / 30 days */\n      tag_232\n      swap2\n      swap1\n      tag_195\n      jump\t// in\n    tag_232:\n        /* \"src/assets/BBD_Token.sol\":1570:1638  uint256 monthsElapsed = (block.timestamp - startTimestamp) / 30 days */\n      swap1\n      pop\n        /* \"src/assets/BBD_Token.sol\":1673:1688  lastUnlockMonth */\n      sload(0x06)\n        /* \"src/assets/BBD_Token.sol\":1657:1670  monthsElapsed */\n      dup2\n        /* \"src/assets/BBD_Token.sol\":1657:1688  monthsElapsed > lastUnlockMonth */\n      gt\n        /* \"src/assets/BBD_Token.sol\":1649:1715  require(monthsElapsed > lastUnlockMonth, \"No new month to unlock\") */\n      tag_233\n      jumpi\n      mload(0x40)\n      shl(0xe5, 0x461bcd)\n      dup2\n      mstore\n        /* \"#utility.yul\":5230:5232   */\n      0x20\n        /* \"src/assets/BBD_Token.sol\":1649:1715  require(monthsElapsed > lastUnlockMonth, \"No new month to unlock\") */\n      0x04\n      dup3\n      add\n        /* \"#utility.yul\":5212:5233   */\n      mstore\n        /* \"#utility.yul\":5269:5271   */\n      0x16\n        /* \"#utility.yul\":5249:5267   */\n      0x24\n      dup3\n      add\n        /* \"#utility.yul\":5242:5272   */\n      mstore\n      shl(0x50, 0x4e6f206e6577206d6f6e746820746f20756e6c6f636b)\n        /* \"#utility.yul\":5288:5306   */\n      0x44\n      dup3\n      add\n        /* \"#utility.yul\":5281:5333   */\n      mstore\n        /* \"#utility.yul\":5350:5368   */\n      0x64\n      add\n        /* \"src/assets/BBD_Token.sol\":1649:1715  require(monthsElapsed > lastUnlockMonth, \"No new month to unlock\") */\n      tag_156\n        /* \"#utility.yul\":5028:5374   */\n      jump\n        /* \"src/assets/BBD_Token.sol\":1649:1715  require(monthsElapsed > lastUnlockMonth, \"No new month to unlock\") */\n    tag_233:\n        /* \"src/assets/BBD_Token.sol\":1728:1750  uint256 tokensToUnlock */\n      0x00\n        /* \"src/assets/BBD_Token.sol\":1772:1781  uint256 m */\n      dup1\n        /* \"src/assets/BBD_Token.sol\":1784:1799  lastUnlockMonth */\n      sload(0x06)\n        /* \"src/assets/BBD_Token.sol\":1802:1803  1 */\n      0x01\n        /* \"src/assets/BBD_Token.sol\":1784:1803  lastUnlockMonth + 1 */\n      tag_239\n      swap2\n      swap1\n      tag_188\n      jump\t// in\n    tag_239:\n        /* \"src/assets/BBD_Token.sol\":1772:1803  uint256 m = lastUnlockMonth + 1 */\n      swap1\n      pop\n        /* \"src/assets/BBD_Token.sol\":1767:2249  for (uint256 m = lastUnlockMonth + 1; m <= monthsElapsed; m++) {... */\n    tag_236:\n        /* \"src/assets/BBD_Token.sol\":1810:1823  monthsElapsed */\n      dup3\n        /* \"src/assets/BBD_Token.sol\":1805:1806  m */\n      dup2\n        /* \"src/assets/BBD_Token.sol\":1805:1823  m <= monthsElapsed */\n      gt\n        /* \"src/assets/BBD_Token.sol\":1767:2249  for (uint256 m = lastUnlockMonth + 1; m <= monthsElapsed; m++) {... */\n      tag_237\n      jumpi\n        /* \"src/assets/BBD_Token.sol\":1854:1855  3 */\n      0x03\n        /* \"src/assets/BBD_Token.sol\":1849:1850  m */\n      dup2\n        /* \"src/assets/BBD_Token.sol\":1849:1855  m <= 3 */\n      gt\n        /* \"src/assets/BBD_Token.sol\":1845:2238  if (m <= 3) {... */\n      tag_240\n      jumpi\n        /* \"src/assets/BBD_Token.sol\":1916:1920  1000 */\n      0x03e8\n        /* \"src/assets/BBD_Token.sol\":391:419  TOTAL_SUPPLY - PUBLIC_SUPPLY */\n      tag_241\n      shl(0x1b, 0x6765c793fa10079d)\n        /* \"src/assets/BBD_Token.sol\":256:277  10_000_000_000 * 1e18 */\n      0x204fce5e3e25026110000000\n        /* \"src/assets/BBD_Token.sol\":391:419  TOTAL_SUPPLY - PUBLIC_SUPPLY */\n      tag_191\n      jump\t// in\n    tag_241:\n        /* \"src/assets/BBD_Token.sol\":1895:1912  LOCKED_SUPPLY * 5 */\n      tag_242\n      swap1\n        /* \"src/assets/BBD_Token.sol\":1911:1912  5 */\n      0x05\n        /* \"src/assets/BBD_Token.sol\":1895:1912  LOCKED_SUPPLY * 5 */\n      tag_193\n      jump\t// in\n    tag_242:\n        /* \"src/assets/BBD_Token.sol\":1894:1920  (LOCKED_SUPPLY * 5) / 1000 */\n      tag_243\n      swap2\n      swap1\n      tag_195\n      jump\t// in\n    tag_243:\n        /* \"src/assets/BBD_Token.sol\":1876:1920  tokensToUnlock += (LOCKED_SUPPLY * 5) / 1000 */\n      tag_244\n      swap1\n      dup4\n      tag_188\n      jump\t// in\n    tag_244:\n      swap2\n      pop\n        /* \"src/assets/BBD_Token.sol\":1845:2238  if (m <= 3) {... */\n      jump(tag_257)\n    tag_240:\n        /* \"src/assets/BBD_Token.sol\":1959:1960  6 */\n      0x06\n        /* \"src/assets/BBD_Token.sol\":1954:1955  m */\n      dup2\n        /* \"src/assets/BBD_Token.sol\":1954:1960  m <= 6 */\n      gt\n        /* \"src/assets/BBD_Token.sol\":1950:2238  if (m <= 6) {... */\n      tag_246\n      jumpi\n        /* \"src/assets/BBD_Token.sol\":2021:2024  100 */\n      0x64\n        /* \"src/assets/BBD_Token.sol\":391:419  TOTAL_SUPPLY - PUBLIC_SUPPLY */\n      tag_247\n      shl(0x1b, 0x6765c793fa10079d)\n        /* \"src/assets/BBD_Token.sol\":256:277  10_000_000_000 * 1e18 */\n      0x204fce5e3e25026110000000\n        /* \"src/assets/BBD_Token.sol\":391:419  TOTAL_SUPPLY - PUBLIC_SUPPLY */\n      tag_191\n      jump\t// in\n    tag_247:\n        /* \"src/assets/BBD_Token.sol\":2000:2017  LOCKED_SUPPLY * 1 */\n      tag_242\n      swap1\n        /* \"src/assets/BBD_Token.sol\":2016:2017  1 */\n      0x01\n        /* \"src/assets/BBD_Token.sol\":2000:2017  LOCKED_SUPPLY * 1 */\n      tag_193\n      jump\t// in\n        /* \"src/assets/BBD_Token.sol\":1950:2238  if (m <= 6) {... */\n    tag_246:\n        /* \"src/assets/BBD_Token.sol\":2061:2062  9 */\n      0x09\n        /* \"src/assets/BBD_Token.sol\":2056:2057  m */\n      dup2\n        /* \"src/assets/BBD_Token.sol\":2056:2062  m <= 9 */\n      gt\n        /* \"src/assets/BBD_Token.sol\":2052:2238  if (m <= 9) {... */\n      tag_252\n      jumpi\n        /* \"src/assets/BBD_Token.sol\":2123:2126  100 */\n      0x64\n        /* \"src/assets/BBD_Token.sol\":391:419  TOTAL_SUPPLY - PUBLIC_SUPPLY */\n      tag_253\n      shl(0x1b, 0x6765c793fa10079d)\n        /* \"src/assets/BBD_Token.sol\":256:277  10_000_000_000 * 1e18 */\n      0x204fce5e3e25026110000000\n        /* \"src/assets/BBD_Token.sol\":391:419  TOTAL_SUPPLY - PUBLIC_SUPPLY */\n      tag_191\n      jump\t// in\n    tag_253:\n        /* \"src/assets/BBD_Token.sol\":2102:2119  LOCKED_SUPPLY * 2 */\n      tag_242\n      swap1\n        /* \"src/assets/BBD_Token.sol\":2118:2119  2 */\n      0x02\n        /* \"src/assets/BBD_Token.sol\":2102:2119  LOCKED_SUPPLY * 2 */\n      tag_193\n      jump\t// in\n        /* \"src/assets/BBD_Token.sol\":2052:2238  if (m <= 9) {... */\n    tag_252:\n        /* \"src/assets/BBD_Token.sol\":2213:2216  100 */\n      0x64\n        /* \"src/assets/BBD_Token.sol\":391:419  TOTAL_SUPPLY - PUBLIC_SUPPLY */\n      tag_258\n      shl(0x1b, 0x6765c793fa10079d)\n        /* \"src/assets/BBD_Token.sol\":256:277  10_000_000_000 * 1e18 */\n      0x204fce5e3e25026110000000\n        /* \"src/assets/BBD_Token.sol\":391:419  TOTAL_SUPPLY - PUBLIC_SUPPLY */\n      tag_191\n      jump\t// in\n    tag_258:\n        /* \"src/assets/BBD_Token.sol\":2192:2209  LOCKED_SUPPLY * 3 */\n      tag_259\n      swap1\n        /* \"src/assets/BBD_Token.sol\":2208:2209  3 */\n      0x03\n        /* \"src/assets/BBD_Token.sol\":2192:2209  LOCKED_SUPPLY * 3 */\n      tag_193\n      jump\t// in\n    tag_259:\n        /* \"src/assets/BBD_Token.sol\":2191:2216  (LOCKED_SUPPLY * 3) / 100 */\n      tag_260\n      swap2\n      swap1\n      tag_195\n      jump\t// in\n    tag_260:\n        /* \"src/assets/BBD_Token.sol\":2173:2216  tokensToUnlock += (LOCKED_SUPPLY * 3) / 100 */\n      tag_261\n      swap1\n      dup4\n      tag_188\n      jump\t// in\n    tag_261:\n      swap2\n      pop\n        /* \"src/assets/BBD_Token.sol\":2052:2238  if (m <= 9) {... */\n    tag_257:\n        /* \"src/assets/BBD_Token.sol\":1825:1828  m++ */\n      dup1\n      tag_262\n      dup2\n      tag_263\n      jump\t// in\n    tag_262:\n      swap2\n      pop\n      pop\n        /* \"src/assets/BBD_Token.sol\":1767:2249  for (uint256 m = lastUnlockMonth + 1; m <= monthsElapsed; m++) {... */\n      jump(tag_236)\n    tag_237:\n      pop\n        /* \"src/assets/BBD_Token.sol\":391:419  TOTAL_SUPPLY - PUBLIC_SUPPLY */\n      tag_264\n      shl(0x1b, 0x6765c793fa10079d)\n        /* \"src/assets/BBD_Token.sol\":256:277  10_000_000_000 * 1e18 */\n      0x204fce5e3e25026110000000\n        /* \"src/assets/BBD_Token.sol\":391:419  TOTAL_SUPPLY - PUBLIC_SUPPLY */\n      tag_191\n      jump\t// in\n    tag_264:\n        /* \"src/assets/BBD_Token.sol\":2282:2295  totalUnlocked */\n      sload(0x07)\n        /* \"src/assets/BBD_Token.sol\":2265:2295  tokensToUnlock + totalUnlocked */\n      tag_265\n      swap1\n        /* \"src/assets/BBD_Token.sol\":2265:2279  tokensToUnlock */\n      dup4\n        /* \"src/assets/BBD_Token.sol\":2265:2295  tokensToUnlock + totalUnlocked */\n      tag_188\n      jump\t// in\n    tag_265:\n        /* \"src/assets/BBD_Token.sol\":2265:2311  tokensToUnlock + totalUnlocked > LOCKED_SUPPLY */\n      gt\n        /* \"src/assets/BBD_Token.sol\":2261:2422  if (tokensToUnlock + totalUnlocked > LOCKED_SUPPLY) {... */\n      iszero\n      tag_266\n      jumpi\n        /* \"src/assets/BBD_Token.sol\":2361:2374  totalUnlocked */\n      sload(0x07)\n        /* \"src/assets/BBD_Token.sol\":391:419  TOTAL_SUPPLY - PUBLIC_SUPPLY */\n      tag_267\n      shl(0x1b, 0x6765c793fa10079d)\n        /* \"src/assets/BBD_Token.sol\":256:277  10_000_000_000 * 1e18 */\n      0x204fce5e3e25026110000000\n        /* \"src/assets/BBD_Token.sol\":391:419  TOTAL_SUPPLY - PUBLIC_SUPPLY */\n      tag_191\n      jump\t// in\n    tag_267:\n        /* \"src/assets/BBD_Token.sol\":2345:2374  LOCKED_SUPPLY - totalUnlocked */\n      tag_268\n      swap2\n      swap1\n      tag_191\n      jump\t// in\n    tag_268:\n        /* \"src/assets/BBD_Token.sol\":2328:2374  tokensToUnlock = LOCKED_SUPPLY - totalUnlocked */\n      swap1\n      pop\n        /* \"src/assets/BBD_Token.sol\":2261:2422  if (tokensToUnlock + totalUnlocked > LOCKED_SUPPLY) {... */\n    tag_266:\n        /* \"src/assets/BBD_Token.sol\":2459:2460  0 */\n      0x00\n        /* \"src/assets/BBD_Token.sol\":2442:2456  tokensToUnlock */\n      dup2\n        /* \"src/assets/BBD_Token.sol\":2442:2460  tokensToUnlock > 0 */\n      gt\n        /* \"src/assets/BBD_Token.sol\":2434:2482  require(tokensToUnlock > 0, \"Nothing to unlock\") */\n      tag_269\n      jumpi\n      mload(0x40)\n      shl(0xe5, 0x461bcd)\n      dup2\n      mstore\n        /* \"#utility.yul\":5721:5723   */\n      0x20\n        /* \"src/assets/BBD_Token.sol\":2434:2482  require(tokensToUnlock > 0, \"Nothing to unlock\") */\n      0x04\n      dup3\n      add\n        /* \"#utility.yul\":5703:5724   */\n      mstore\n        /* \"#utility.yul\":5760:5762   */\n      0x11\n        /* \"#utility.yul\":5740:5758   */\n      0x24\n      dup3\n      add\n        /* \"#utility.yul\":5733:5763   */\n      mstore\n      shl(0x78, 0x4e6f7468696e6720746f20756e6c6f636b)\n        /* \"#utility.yul\":5779:5797   */\n      0x44\n      dup3\n      add\n        /* \"#utility.yul\":5772:5819   */\n      mstore\n        /* \"#utility.yul\":5836:5854   */\n      0x64\n      add\n        /* \"src/assets/BBD_Token.sol\":2434:2482  require(tokensToUnlock > 0, \"Nothing to unlock\") */\n      tag_156\n        /* \"#utility.yul\":5519:5860   */\n      jump\n        /* \"src/assets/BBD_Token.sol\":2434:2482  require(tokensToUnlock > 0, \"Nothing to unlock\") */\n    tag_269:\n        /* \"src/assets/BBD_Token.sol\":2513:2526  monthsElapsed */\n      dup2\n        /* \"src/assets/BBD_Token.sol\":2495:2510  lastUnlockMonth */\n      0x06\n        /* \"src/assets/BBD_Token.sol\":2495:2526  lastUnlockMonth = monthsElapsed */\n      dup2\n      swap1\n      sstore\n      pop\n        /* \"src/assets/BBD_Token.sol\":2554:2568  tokensToUnlock */\n      dup1\n        /* \"src/assets/BBD_Token.sol\":2537:2550  totalUnlocked */\n      0x07\n      0x00\n        /* \"src/assets/BBD_Token.sol\":2537:2568  totalUnlocked += tokensToUnlock */\n      dup3\n      dup3\n      sload\n      tag_272\n      swap2\n      swap1\n      tag_188\n      jump\t// in\n    tag_272:\n      swap1\n      swap2\n      sstore\n      pop\n        /* \"src/assets/BBD_Token.sol\":2581:2594  uint256 share */\n      0x00\n      swap1\n      pop\n        /* \"src/assets/BBD_Token.sol\":2597:2615  tokensToUnlock / 6 */\n      tag_273\n        /* \"src/assets/BBD_Token.sol\":2614:2615  6 */\n      0x06\n        /* \"src/assets/BBD_Token.sol\":2597:2611  tokensToUnlock */\n      dup4\n        /* \"src/assets/BBD_Token.sol\":2597:2615  tokensToUnlock / 6 */\n      tag_195\n      jump\t// in\n    tag_273:\n        /* \"src/assets/BBD_Token.sol\":2653:2669  liquidityListing */\n      sload(0x08)\n        /* \"src/assets/BBD_Token.sol\":2581:2615  uint256 share = tokensToUnlock / 6 */\n      swap1\n      swap2\n      pop\n        /* \"src/assets/BBD_Token.sol\":2628:2677  _transfer(address(this), liquidityListing, share) */\n      tag_274\n      swap1\n        /* \"src/assets/BBD_Token.sol\":2646:2650  this */\n      address\n      swap1\n      sub(shl(0xa0, 0x01), 0x01)\n        /* \"src/assets/BBD_Token.sol\":2653:2669  liquidityListing */\n      and\n        /* \"src/assets/BBD_Token.sol\":2581:2615  uint256 share = tokensToUnlock / 6 */\n      dup4\n        /* \"src/assets/BBD_Token.sol\":2628:2637  _transfer */\n      tag_149\n        /* \"src/assets/BBD_Token.sol\":2628:2677  _transfer(address(this), liquidityListing, share) */\n      jump\t// in\n    tag_274:\n        /* \"src/assets/BBD_Token.sol\":2713:2725  gameTreasury */\n      sload(0x09)\n        /* \"src/assets/BBD_Token.sol\":2688:2733  _transfer(address(this), gameTreasury, share) */\n      tag_275\n      swap1\n        /* \"src/assets/BBD_Token.sol\":2706:2710  this */\n      address\n      swap1\n      sub(shl(0xa0, 0x01), 0x01)\n        /* \"src/assets/BBD_Token.sol\":2713:2725  gameTreasury */\n      and\n        /* \"src/assets/BBD_Token.sol\":2727:2732  share */\n      dup4\n        /* \"src/assets/BBD_Token.sol\":2688:2697  _transfer */\n      tag_149\n        /* \"src/assets/BBD_Token.sol\":2688:2733  _transfer(address(this), gameTreasury, share) */\n      jump\t// in\n    tag_275:\n        /* \"src/assets/BBD_Token.sol\":2769:2778  marketing */\n      sload(0x0a)\n        /* \"src/assets/BBD_Token.sol\":2744:2786  _transfer(address(this), marketing, share) */\n      tag_276\n      swap1\n        /* \"src/assets/BBD_Token.sol\":2762:2766  this */\n      address\n      swap1\n      sub(shl(0xa0, 0x01), 0x01)\n        /* \"src/assets/BBD_Token.sol\":2769:2778  marketing */\n      and\n        /* \"src/assets/BBD_Token.sol\":2780:2785  share */\n      dup4\n        /* \"src/assets/BBD_Token.sol\":2744:2753  _transfer */\n      tag_149\n        /* \"src/assets/BBD_Token.sol\":2744:2786  _transfer(address(this), marketing, share) */\n      jump\t// in\n    tag_276:\n        /* \"src/assets/BBD_Token.sol\":2822:2835  stakingReward */\n      sload(0x0b)\n        /* \"src/assets/BBD_Token.sol\":2797:2843  _transfer(address(this), stakingReward, share) */\n      tag_277\n      swap1\n        /* \"src/assets/BBD_Token.sol\":2815:2819  this */\n      address\n      swap1\n      sub(shl(0xa0, 0x01), 0x01)\n        /* \"src/assets/BBD_Token.sol\":2822:2835  stakingReward */\n      and\n        /* \"src/assets/BBD_Token.sol\":2837:2842  share */\n      dup4\n        /* \"src/assets/BBD_Token.sol\":2797:2806  _transfer */\n      tag_149\n        /* \"src/assets/BBD_Token.sol\":2797:2843  _transfer(address(this), stakingReward, share) */\n      jump\t// in\n    tag_277:\n        /* \"src/assets/BBD_Token.sol\":2879:2892  referralBonus */\n      sload(0x0c)\n        /* \"src/assets/BBD_Token.sol\":2854:2900  _transfer(address(this), referralBonus, share) */\n      tag_278\n      swap1\n        /* \"src/assets/BBD_Token.sol\":2872:2876  this */\n      address\n      swap1\n      sub(shl(0xa0, 0x01), 0x01)\n        /* \"src/assets/BBD_Token.sol\":2879:2892  referralBonus */\n      and\n        /* \"src/assets/BBD_Token.sol\":2894:2899  share */\n      dup4\n        /* \"src/assets/BBD_Token.sol\":2854:2863  _transfer */\n      tag_149\n        /* \"src/assets/BBD_Token.sol\":2854:2900  _transfer(address(this), referralBonus, share) */\n      jump\t// in\n    tag_278:\n        /* \"src/assets/BBD_Token.sol\":2936:2946  awardBonus */\n      sload(0x0d)\n        /* \"src/assets/BBD_Token.sol\":2911:2954  _transfer(address(this), awardBonus, share) */\n      tag_279\n      swap1\n        /* \"src/assets/BBD_Token.sol\":2929:2933  this */\n      address\n      swap1\n      sub(shl(0xa0, 0x01), 0x01)\n        /* \"src/assets/BBD_Token.sol\":2936:2946  awardBonus */\n      and\n        /* \"src/assets/BBD_Token.sol\":2948:2953  share */\n      dup4\n        /* \"src/assets/BBD_Token.sol\":2911:2920  _transfer */\n      tag_149\n        /* \"src/assets/BBD_Token.sol\":2911:2954  _transfer(address(this), awardBonus, share) */\n      jump\t// in\n    tag_279:\n        /* \"src/assets/BBD_Token.sol\":2987:3002  lastUnlockMonth */\n      sload(0x06)\n        /* \"src/assets/BBD_Token.sol\":3011:3024  totalUnlocked */\n      sload(0x07)\n        /* \"src/assets/BBD_Token.sol\":2972:3025  TokensUnlocked(lastUnlockMonth, share, totalUnlocked) */\n      0x40\n      dup1\n      mload\n        /* \"#utility.yul\":2768:2793   */\n      swap3\n      dup4\n      mstore\n        /* \"#utility.yul\":2824:2826   */\n      0x20\n        /* \"#utility.yul\":2809:2827   */\n      dup4\n      add\n        /* \"#utility.yul\":2802:2836   */\n      dup5\n      swap1\n      mstore\n        /* \"#utility.yul\":2852:2870   */\n      dup3\n      add\n        /* \"#utility.yul\":2845:2879   */\n      mstore\n        /* \"src/assets/BBD_Token.sol\":2972:3025  TokensUnlocked(lastUnlockMonth, share, totalUnlocked) */\n      0xd5c1e53febf89038959691e212f7a18f34f9ac92dd9965a138ccfc695e9774ac\n      swap1\n        /* \"#utility.yul\":2756:2758   */\n      0x60\n        /* \"#utility.yul\":2741:2759   */\n      add\n        /* \"src/assets/BBD_Token.sol\":2972:3025  TokensUnlocked(lastUnlockMonth, share, totalUnlocked) */\n      mload(0x40)\n      dup1\n      swap2\n      sub\n      swap1\n      log1\n        /* \"src/assets/BBD_Token.sol\":1477:3033  {... */\n      pop\n      pop\n      pop\n        /* \"src/assets/BBD_Token.sol\":1434:3033  function unlockTokens() external onlyOwner {... */\n      jump\t// out\n        /* \"@openzeppelin/contracts/token/ERC20/ERC20.sol\":8707:8835  function _approve(address owner, address spender, uint256 value) internal {... */\n    tag_142:\n        /* \"@openzeppelin/contracts/token/ERC20/ERC20.sol\":8791:8828  _approve(owner, spender, value, true) */\n      tag_283\n        /* \"@openzeppelin/contracts/token/ERC20/ERC20.sol\":8800:8805  owner */\n      dup4\n        /* \"@openzeppelin/contracts/token/ERC20/ERC20.sol\":8807:8814  spender */\n      dup4\n        /* \"@openzeppelin/contracts/token/ERC20/ERC20.sol\":8816:8821  value */\n      dup4\n        /* \"@openzeppelin/contracts/token/ERC20/ERC20.sol\":8823:8827  true */\n      0x01\n        /* \"@openzeppelin/contracts/token/ERC20/ERC20.sol\":8791:8799  _approve */\n      tag_284\n        /* \"@openzeppelin/contracts/token/ERC20/ERC20.sol\":8791:8828  _approve(owner, spender, value, true) */\n      jump\t// in\n    tag_283:\n        /* \"@openzeppelin/contracts/token/ERC20/ERC20.sol\":8707:8835  function _approve(address owner, address spender, uint256 value) internal {... */\n      pop\n      pop\n      pop\n      jump\t// out\n        /* \"@openzeppelin/contracts/token/ERC20/ERC20.sol\":10396:10872  function _spendAllowance(address owner, address spender, uint256 value) internal virtual {... */\n    tag_147:\n      sub(shl(0xa0, 0x01), 0x01)\n        /* \"@openzeppelin/contracts/token/ERC20/ERC20.sol\":3638:3656  _allowances[owner] */\n      dup4\n      dup2\n      and\n        /* \"@openzeppelin/contracts/token/ERC20/ERC20.sol\":10495:10519  uint256 currentAllowance */\n      0x00\n        /* \"@openzeppelin/contracts/token/ERC20/ERC20.sol\":3638:3656  _allowances[owner] */\n      swap1\n      dup2\n      mstore\n        /* \"@openzeppelin/contracts/token/ERC20/ERC20.sol\":3638:3649  _allowances */\n      0x01\n        /* \"@openzeppelin/contracts/token/ERC20/ERC20.sol\":3638:3656  _allowances[owner] */\n      0x20\n      swap1\n      dup2\n      mstore\n      0x40\n      dup1\n      dup4\n      keccak256\n        /* \"@openzeppelin/contracts/token/ERC20/ERC20.sol\":3638:3665  _allowances[owner][spender] */\n      swap4\n      dup7\n      and\n      dup4\n      mstore\n      swap3\n      swap1\n      mstore\n      keccak256\n      sload\n      not(0x00)\n        /* \"@openzeppelin/contracts/token/ERC20/ERC20.sol\":10561:10597  currentAllowance < type(uint256).max */\n      dup2\n      lt\n        /* \"@openzeppelin/contracts/token/ERC20/ERC20.sol\":10557:10866  if (currentAllowance < type(uint256).max) {... */\n      iszero\n      tag_291\n      jumpi\n        /* \"@openzeppelin/contracts/token/ERC20/ERC20.sol\":10636:10641  value */\n      dup2\n        /* \"@openzeppelin/contracts/token/ERC20/ERC20.sol\":10617:10633  currentAllowance */\n      dup2\n        /* \"@openzeppelin/contracts/token/ERC20/ERC20.sol\":10617:10641  currentAllowance < value */\n      lt\n        /* \"@openzeppelin/contracts/token/ERC20/ERC20.sol\":10613:10743  if (currentAllowance < value) {... */\n      iszero\n      tag_288\n      jumpi\n        /* \"@openzeppelin/contracts/token/ERC20/ERC20.sol\":10668:10728  ERC20InsufficientAllowance(spender, currentAllowance, value) */\n      mload(0x40)\n      shl(0xe1, 0x7dc7a0d9)\n      dup2\n      mstore\n      sub(shl(0xa0, 0x01), 0x01)\n        /* \"#utility.yul\":6085:6117   */\n      dup5\n      and\n        /* \"@openzeppelin/contracts/token/ERC20/ERC20.sol\":10668:10728  ERC20InsufficientAllowance(spender, currentAllowance, value) */\n      0x04\n      dup3\n      add\n        /* \"#utility.yul\":6067:6118   */\n      mstore\n        /* \"#utility.yul\":6134:6152   */\n      0x24\n      dup2\n      add\n        /* \"#utility.yul\":6127:6161   */\n      dup3\n      swap1\n      mstore\n        /* \"#utility.yul\":6177:6195   */\n      0x44\n      dup2\n      add\n        /* \"#utility.yul\":6170:6204   */\n      dup4\n      swap1\n      mstore\n        /* \"#utility.yul\":6040:6058   */\n      0x64\n      add\n        /* \"@openzeppelin/contracts/token/ERC20/ERC20.sol\":10668:10728  ERC20InsufficientAllowance(spender, currentAllowance, value) */\n      tag_156\n        /* \"#utility.yul\":5865:6210   */\n      jump\n        /* \"@openzeppelin/contracts/token/ERC20/ERC20.sol\":10613:10743  if (currentAllowance < value) {... */\n    tag_288:\n        /* \"@openzeppelin/contracts/token/ERC20/ERC20.sol\":10784:10841  _approve(owner, spender, currentAllowance - value, false) */\n      tag_291\n        /* \"@openzeppelin/contracts/token/ERC20/ERC20.sol\":10793:10798  owner */\n      dup5\n        /* \"@openzeppelin/contracts/token/ERC20/ERC20.sol\":10800:10807  spender */\n      dup5\n        /* \"@openzeppelin/contracts/token/ERC20/ERC20.sol\":10828:10833  value */\n      dup5\n        /* \"@openzeppelin/contracts/token/ERC20/ERC20.sol\":10809:10825  currentAllowance */\n      dup5\n        /* \"@openzeppelin/contracts/token/ERC20/ERC20.sol\":10809:10833  currentAllowance - value */\n      sub\n        /* \"@openzeppelin/contracts/token/ERC20/ERC20.sol\":10835:10840  false */\n      0x00\n        /* \"@openzeppelin/contracts/token/ERC20/ERC20.sol\":10784:10792  _approve */\n      tag_284\n        /* \"@openzeppelin/contracts/token/ERC20/ERC20.sol\":10784:10841  _approve(owner, spender, currentAllowance - value, false) */\n      jump\t// in\n    tag_291:\n        /* \"@openzeppelin/contracts/token/ERC20/ERC20.sol\":10485:10872  {... */\n      pop\n        /* \"@openzeppelin/contracts/token/ERC20/ERC20.sol\":10396:10872  function _spendAllowance(address owner, address spender, uint256 value) internal virtual {... */\n      pop\n      pop\n      pop\n      jump\t// out\n        /* \"@openzeppelin/contracts/token/ERC20/ERC20.sol\":5374:5674  function _transfer(address from, address to, uint256 value) internal {... */\n    tag_149:\n      sub(shl(0xa0, 0x01), 0x01)\n        /* \"@openzeppelin/contracts/token/ERC20/ERC20.sol\":5457:5475  from == address(0) */\n      dup4\n      and\n        /* \"@openzeppelin/contracts/token/ERC20/ERC20.sol\":5453:5539  if (from == address(0)) {... */\n      tag_293\n      jumpi\n        /* \"@openzeppelin/contracts/token/ERC20/ERC20.sol\":5498:5528  ERC20InvalidSender(address(0)) */\n      mload(0x40)\n      shl(0xe1, 0x4b637e8f)\n      dup2\n      mstore\n        /* \"@openzeppelin/contracts/token/ERC20/ERC20.sol\":5525:5526  0 */\n      0x00\n        /* \"@openzeppelin/contracts/token/ERC20/ERC20.sol\":5498:5528  ERC20InvalidSender(address(0)) */\n      0x04\n      dup3\n      add\n        /* \"#utility.yul\":160:211   */\n      mstore\n        /* \"#utility.yul\":133:151   */\n      0x24\n      add\n        /* \"@openzeppelin/contracts/token/ERC20/ERC20.sol\":5498:5528  ERC20InvalidSender(address(0)) */\n      tag_156\n        /* \"#utility.yul\":14:217   */\n      jump\n        /* \"@openzeppelin/contracts/token/ERC20/ERC20.sol\":5453:5539  if (from == address(0)) {... */\n    tag_293:\n      sub(shl(0xa0, 0x01), 0x01)\n        /* \"@openzeppelin/contracts/token/ERC20/ERC20.sol\":5552:5568  to == address(0) */\n      dup3\n      and\n        /* \"@openzeppelin/contracts/token/ERC20/ERC20.sol\":5548:5634  if (to == address(0)) {... */\n      tag_295\n      jumpi\n        /* \"@openzeppelin/contracts/token/ERC20/ERC20.sol\":5591:5623  ERC20InvalidReceiver(address(0)) */\n      mload(0x40)\n      shl(0xe0, 0xec442f05)\n      dup2\n      mstore\n        /* \"@openzeppelin/contracts/token/ERC20/ERC20.sol\":5620:5621  0 */\n      0x00\n        /* \"@openzeppelin/contracts/token/ERC20/ERC20.sol\":5591:5623  ERC20InvalidReceiver(address(0)) */\n      0x04\n      dup3\n      add\n        /* \"#utility.yul\":160:211   */\n      mstore\n        /* \"#utility.yul\":133:151   */\n      0x24\n      add\n        /* \"@openzeppelin/contracts/token/ERC20/ERC20.sol\":5591:5623  ERC20InvalidReceiver(address(0)) */\n      tag_156\n        /* \"#utility.yul\":14:217   */\n      jump\n        /* \"@openzeppelin/contracts/token/ERC20/ERC20.sol\":5548:5634  if (to == address(0)) {... */\n    tag_295:\n        /* \"@openzeppelin/contracts/token/ERC20/ERC20.sol\":5643:5667  _update(from, to, value) */\n      tag_283\n        /* \"@openzeppelin/contracts/token/ERC20/ERC20.sol\":5651:5655  from */\n      dup4\n        /* \"@openzeppelin/contracts/token/ERC20/ERC20.sol\":5657:5659  to */\n      dup4\n        /* \"@openzeppelin/contracts/token/ERC20/ERC20.sol\":5661:5666  value */\n      dup4\n        /* \"@openzeppelin/contracts/token/ERC20/ERC20.sol\":5643:5650  _update */\n      tag_298\n        /* \"@openzeppelin/contracts/token/ERC20/ERC20.sol\":5643:5667  _update(from, to, value) */\n      jump\t// in\n        /* \"@openzeppelin/contracts/access/Ownable.sol\":1796:1958  function _checkOwner() internal view virtual {... */\n    tag_152:\n        /* \"@openzeppelin/contracts/access/Ownable.sol\":1710:1716  _owner */\n      and(sub(shl(0xa0, 0x01), 0x01), sload(0x05))\n        /* \"@openzeppelin/contracts/utils/Context.sol\":735:745  msg.sender */\n      caller\n        /* \"@openzeppelin/contracts/access/Ownable.sol\":1855:1878  owner() != _msgSender() */\n      eq\n        /* \"@openzeppelin/contracts/access/Ownable.sol\":1851:1952  if (owner() != _msgSender()) {... */\n      tag_174\n      jumpi\n        /* \"@openzeppelin/contracts/access/Ownable.sol\":1901:1941  OwnableUnauthorizedAccount(_msgSender()) */\n      mload(0x40)\n      shl(0xe0, 0x118cdaa7)\n      dup2\n      mstore\n        /* \"@openzeppelin/contracts/utils/Context.sol\":735:745  msg.sender */\n      caller\n        /* \"@openzeppelin/contracts/access/Ownable.sol\":1901:1941  OwnableUnauthorizedAccount(_msgSender()) */\n      0x04\n      dup3\n      add\n        /* \"#utility.yul\":160:211   */\n      mstore\n        /* \"#utility.yul\":133:151   */\n      0x24\n      add\n        /* \"@openzeppelin/contracts/access/Ownable.sol\":1901:1941  OwnableUnauthorizedAccount(_msgSender()) */\n      tag_156\n        /* \"#utility.yul\":14:217   */\n      jump\n        /* \"@openzeppelin/contracts/access/Ownable.sol\":2912:3099  function _transferOwnership(address newOwner) internal virtual {... */\n    tag_175:\n        /* \"@openzeppelin/contracts/access/Ownable.sol\":3004:3010  _owner */\n      0x05\n      dup1\n      sload\n      sub(shl(0xa0, 0x01), 0x01)\n        /* \"@openzeppelin/contracts/access/Ownable.sol\":3020:3037  _owner = newOwner */\n      dup4\n      dup2\n      and\n      not(sub(shl(0xa0, 0x01), 0x01))\n      dup4\n      and\n      dup2\n      or\n      swap1\n      swap4\n      sstore\n        /* \"@openzeppelin/contracts/access/Ownable.sol\":3052:3092  OwnershipTransferred(oldOwner, newOwner) */\n      mload(0x40)\n        /* \"@openzeppelin/contracts/access/Ownable.sol\":3004:3010  _owner */\n      swap2\n      and\n      swap2\n        /* \"@openzeppelin/contracts/access/Ownable.sol\":3020:3037  _owner = newOwner */\n      swap1\n        /* \"@openzeppelin/contracts/access/Ownable.sol\":3004:3010  _owner */\n      dup3\n      swap1\n        /* \"@openzeppelin/contracts/access/Ownable.sol\":3052:3092  OwnershipTransferred(oldOwner, newOwner) */\n      0x8be0079c531659141344cd1fd0a4f28419497f9722a3daafe3b4186f6b6457e0\n      swap1\n        /* \"@openzeppelin/contracts/access/Ownable.sol\":2985:3001  address oldOwner */\n      0x00\n      swap1\n        /* \"@openzeppelin/contracts/access/Ownable.sol\":3052:3092  OwnershipTransferred(oldOwner, newOwner) */\n      log3\n        /* \"@openzeppelin/contracts/access/Ownable.sol\":2975:3099  {... */\n      pop\n        /* \"@openzeppelin/contracts/access/Ownable.sol\":2912:3099  function _transferOwnership(address newOwner) internal virtual {... */\n      pop\n      jump\t// out\n        /* \"@openzeppelin/contracts/token/ERC20/ERC20.sol\":9682:10114  function _approve(address owner, address spender, uint256 value, bool emitEvent) internal virtual {... */\n    tag_284:\n      sub(shl(0xa0, 0x01), 0x01)\n        /* \"@openzeppelin/contracts/token/ERC20/ERC20.sol\":9794:9813  owner == address(0) */\n      dup5\n      and\n        /* \"@openzeppelin/contracts/token/ERC20/ERC20.sol\":9790:9879  if (owner == address(0)) {... */\n      tag_307\n      jumpi\n        /* \"@openzeppelin/contracts/token/ERC20/ERC20.sol\":9836:9868  ERC20InvalidApprover(address(0)) */\n      mload(0x40)\n      shl(0xe0, 0xe602df05)\n      dup2\n      mstore\n        /* \"@openzeppelin/contracts/token/ERC20/ERC20.sol\":9865:9866  0 */\n      0x00\n        /* \"@openzeppelin/contracts/token/ERC20/ERC20.sol\":9836:9868  ERC20InvalidApprover(address(0)) */\n      0x04\n      dup3\n      add\n        /* \"#utility.yul\":160:211   */\n      mstore\n        /* \"#utility.yul\":133:151   */\n      0x24\n      add\n        /* \"@openzeppelin/contracts/token/ERC20/ERC20.sol\":9836:9868  ERC20InvalidApprover(address(0)) */\n      tag_156\n        /* \"#utility.yul\":14:217   */\n      jump\n        /* \"@openzeppelin/contracts/token/ERC20/ERC20.sol\":9790:9879  if (owner == address(0)) {... */\n    tag_307:\n      sub(shl(0xa0, 0x01), 0x01)\n        /* \"@openzeppelin/contracts/token/ERC20/ERC20.sol\":9892:9913  spender == address(0) */\n      dup4\n      and\n        /* \"@openzeppelin/contracts/token/ERC20/ERC20.sol\":9888:9978  if (spender == address(0)) {... */\n      tag_309\n      jumpi\n        /* \"@openzeppelin/contracts/token/ERC20/ERC20.sol\":9936:9967  ERC20InvalidSpender(address(0)) */\n      mload(0x40)\n      shl(0xe1, 0x4a1406b1)\n      dup2\n      mstore\n        /* \"@openzeppelin/contracts/token/ERC20/ERC20.sol\":9964:9965  0 */\n      0x00\n        /* \"@openzeppelin/contracts/token/ERC20/ERC20.sol\":9936:9967  ERC20InvalidSpender(address(0)) */\n      0x04\n      dup3\n      add\n        /* \"#utility.yul\":160:211   */\n      mstore\n        /* \"#utility.yul\":133:151   */\n      0x24\n      add\n        /* \"@openzeppelin/contracts/token/ERC20/ERC20.sol\":9936:9967  ERC20InvalidSpender(address(0)) */\n      tag_156\n        /* \"#utility.yul\":14:217   */\n      jump\n        /* \"@openzeppelin/contracts/token/ERC20/ERC20.sol\":9888:9978  if (spender == address(0)) {... */\n    tag_309:\n      sub(shl(0xa0, 0x01), 0x01)\n        /* \"@openzeppelin/contracts/token/ERC20/ERC20.sol\":9987:10005  _allowances[owner] */\n      dup1\n      dup6\n      and\n      0x00\n      swap1\n      dup2\n      mstore\n        /* \"@openzeppelin/contracts/token/ERC20/ERC20.sol\":9987:9998  _allowances */\n      0x01\n        /* \"@openzeppelin/contracts/token/ERC20/ERC20.sol\":9987:10005  _allowances[owner] */\n      0x20\n      swap1\n      dup2\n      mstore\n      0x40\n      dup1\n      dup4\n      keccak256\n        /* \"@openzeppelin/contracts/token/ERC20/ERC20.sol\":9987:10014  _allowances[owner][spender] */\n      swap4\n      dup8\n      and\n      dup4\n      mstore\n      swap3\n      swap1\n      mstore\n      keccak256\n        /* \"@openzeppelin/contracts/token/ERC20/ERC20.sol\":9987:10022  _allowances[owner][spender] = value */\n      dup3\n      swap1\n      sstore\n        /* \"@openzeppelin/contracts/token/ERC20/ERC20.sol\":10032:10108  if (emitEvent) {... */\n      dup1\n      iszero\n      tag_291\n      jumpi\n        /* \"@openzeppelin/contracts/token/ERC20/ERC20.sol\":10082:10089  spender */\n      dup3\n      sub(shl(0xa0, 0x01), 0x01)\n        /* \"@openzeppelin/contracts/token/ERC20/ERC20.sol\":10066:10097  Approval(owner, spender, value) */\n      and\n        /* \"@openzeppelin/contracts/token/ERC20/ERC20.sol\":10075:10080  owner */\n      dup5\n      sub(shl(0xa0, 0x01), 0x01)\n        /* \"@openzeppelin/contracts/token/ERC20/ERC20.sol\":10066:10097  Approval(owner, spender, value) */\n      and\n      0x8c5be1e5ebec7d5bd14f71427d1e84f3dd0314c0f7b2291e5b200ac8c7c3b925\n        /* \"@openzeppelin/contracts/token/ERC20/ERC20.sol\":10091:10096  value */\n      dup5\n        /* \"@openzeppelin/contracts/token/ERC20/ERC20.sol\":10066:10097  Approval(owner, spender, value) */\n      mload(0x40)\n      tag_312\n      swap2\n        /* \"#utility.yul\":1466:1491   */\n      dup2\n      mstore\n        /* \"#utility.yul\":1454:1456   */\n      0x20\n        /* \"#utility.yul\":1439:1457   */\n      add\n      swap1\n        /* \"#utility.yul\":1320:1497   */\n      jump\n        /* \"@openzeppelin/contracts/token/ERC20/ERC20.sol\":10066:10097  Approval(owner, spender, value) */\n    tag_312:\n      mload(0x40)\n      dup1\n      swap2\n      sub\n      swap1\n      log3\n        /* \"@openzeppelin/contracts/token/ERC20/ERC20.sol\":9682:10114  function _approve(address owner, address spender, uint256 value, bool emitEvent) internal virtual {... */\n      pop\n      pop\n      pop\n      pop\n      jump\t// out\n        /* \"@openzeppelin/contracts/token/ERC20/ERC20.sol\":5989:7096  function _update(address from, address to, uint256 value) internal virtual {... */\n    tag_298:\n      sub(shl(0xa0, 0x01), 0x01)\n        /* \"@openzeppelin/contracts/token/ERC20/ERC20.sol\":6078:6096  from == address(0) */\n      dup4\n      and\n        /* \"@openzeppelin/contracts/token/ERC20/ERC20.sol\":6074:6614  if (from == address(0)) {... */\n      tag_314\n      jumpi\n        /* \"@openzeppelin/contracts/token/ERC20/ERC20.sol\":6230:6235  value */\n      dup1\n        /* \"@openzeppelin/contracts/token/ERC20/ERC20.sol\":6214:6226  _totalSupply */\n      0x02\n      0x00\n        /* \"@openzeppelin/contracts/token/ERC20/ERC20.sol\":6214:6235  _totalSupply += value */\n      dup3\n      dup3\n      sload\n      tag_315\n      swap2\n      swap1\n      tag_188\n      jump\t// in\n    tag_315:\n      swap1\n      swap2\n      sstore\n      pop\n        /* \"@openzeppelin/contracts/token/ERC20/ERC20.sol\":6074:6614  if (from == address(0)) {... */\n      tag_316\n      swap1\n      pop\n      jump\n    tag_314:\n      sub(shl(0xa0, 0x01), 0x01)\n        /* \"@openzeppelin/contracts/token/ERC20/ERC20.sol\":6288:6303  _balances[from] */\n      dup4\n      and\n        /* \"@openzeppelin/contracts/token/ERC20/ERC20.sol\":6266:6285  uint256 fromBalance */\n      0x00\n        /* \"@openzeppelin/contracts/token/ERC20/ERC20.sol\":6288:6303  _balances[from] */\n      swap1\n      dup2\n      mstore\n      0x20\n      dup2\n      swap1\n      mstore\n      0x40\n      swap1\n      keccak256\n      sload\n        /* \"@openzeppelin/contracts/token/ERC20/ERC20.sol\":6321:6340  fromBalance < value */\n      dup2\n      dup2\n      lt\n        /* \"@openzeppelin/contracts/token/ERC20/ERC20.sol\":6317:6432  if (fromBalance < value) {... */\n      iszero\n      tag_317\n      jumpi\n        /* \"@openzeppelin/contracts/token/ERC20/ERC20.sol\":6367:6417  ERC20InsufficientBalance(from, fromBalance, value) */\n      mload(0x40)\n      shl(0xe2, 0x391434e3)\n      dup2\n      mstore\n      sub(shl(0xa0, 0x01), 0x01)\n        /* \"#utility.yul\":6085:6117   */\n      dup6\n      and\n        /* \"@openzeppelin/contracts/token/ERC20/ERC20.sol\":6367:6417  ERC20InsufficientBalance(from, fromBalance, value) */\n      0x04\n      dup3\n      add\n        /* \"#utility.yul\":6067:6118   */\n      mstore\n        /* \"#utility.yul\":6134:6152   */\n      0x24\n      dup2\n      add\n        /* \"#utility.yul\":6127:6161   */\n      dup3\n      swap1\n      mstore\n        /* \"#utility.yul\":6177:6195   */\n      0x44\n      dup2\n      add\n        /* \"#utility.yul\":6170:6204   */\n      dup4\n      swap1\n      mstore\n        /* \"#utility.yul\":6040:6058   */\n      0x64\n      add\n        /* \"@openzeppelin/contracts/token/ERC20/ERC20.sol\":6367:6417  ERC20InsufficientBalance(from, fromBalance, value) */\n      tag_156\n        /* \"#utility.yul\":5865:6210   */\n      jump\n        /* \"@openzeppelin/contracts/token/ERC20/ERC20.sol\":6317:6432  if (fromBalance < value) {... */\n    tag_317:\n      sub(shl(0xa0, 0x01), 0x01)\n        /* \"@openzeppelin/contracts/token/ERC20/ERC20.sol\":6552:6567  _balances[from] */\n      dup5\n      and\n        /* \"@openzeppelin/contracts/token/ERC20/ERC20.sol\":6552:6561  _balances */\n      0x00\n        /* \"@openzeppelin/contracts/token/ERC20/ERC20.sol\":6552:6567  _balances[from] */\n      swap1\n      dup2\n      mstore\n      0x20\n      dup2\n      swap1\n      mstore\n      0x40\n      swap1\n      keccak256\n        /* \"@openzeppelin/contracts/token/ERC20/ERC20.sol\":6570:6589  fromBalance - value */\n      swap1\n      dup3\n      swap1\n      sub\n        /* \"@openzeppelin/contracts/token/ERC20/ERC20.sol\":6552:6589  _balances[from] = fromBalance - value */\n      swap1\n      sstore\n        /* \"@openzeppelin/contracts/token/ERC20/ERC20.sol\":6074:6614  if (from == address(0)) {... */\n    tag_316:\n      sub(shl(0xa0, 0x01), 0x01)\n        /* \"@openzeppelin/contracts/token/ERC20/ERC20.sol\":6628:6644  to == address(0) */\n      dup3\n      and\n        /* \"@openzeppelin/contracts/token/ERC20/ERC20.sol\":6624:7049  if (to == address(0)) {... */\n      tag_319\n      jumpi\n        /* \"@openzeppelin/contracts/token/ERC20/ERC20.sol\":6791:6803  _totalSupply */\n      0x02\n        /* \"@openzeppelin/contracts/token/ERC20/ERC20.sol\":6791:6812  _totalSupply -= value */\n      dup1\n      sload\n      dup3\n      swap1\n      sub\n      swap1\n      sstore\n        /* \"@openzeppelin/contracts/token/ERC20/ERC20.sol\":6624:7049  if (to == address(0)) {... */\n      jump(tag_320)\n    tag_319:\n      sub(shl(0xa0, 0x01), 0x01)\n        /* \"@openzeppelin/contracts/token/ERC20/ERC20.sol\":7002:7015  _balances[to] */\n      dup3\n      and\n        /* \"@openzeppelin/contracts/token/ERC20/ERC20.sol\":7002:7011  _balances */\n      0x00\n        /* \"@openzeppelin/contracts/token/ERC20/ERC20.sol\":7002:7015  _balances[to] */\n      swap1\n      dup2\n      mstore\n      0x20\n      dup2\n      swap1\n      mstore\n      0x40\n      swap1\n      keccak256\n        /* \"@openzeppelin/contracts/token/ERC20/ERC20.sol\":7002:7024  _balances[to] += value */\n      dup1\n      sload\n      dup3\n      add\n      swap1\n      sstore\n        /* \"@openzeppelin/contracts/token/ERC20/ERC20.sol\":6624:7049  if (to == address(0)) {... */\n    tag_320:\n        /* \"@openzeppelin/contracts/token/ERC20/ERC20.sol\":7079:7081  to */\n      dup2\n      sub(shl(0xa0, 0x01), 0x01)\n        /* \"@openzeppelin/contracts/token/ERC20/ERC20.sol\":7064:7089  Transfer(from, to, value) */\n      and\n        /* \"@openzeppelin/contracts/token/ERC20/ERC20.sol\":7073:7077  from */\n      dup4\n      sub(shl(0xa0, 0x01), 0x01)\n        /* \"@openzeppelin/contracts/token/ERC20/ERC20.sol\":7064:7089  Transfer(from, to, value) */\n      and\n      0xddf252ad1be2c89b69c2b068fc378daa952ba7f163c4a11628f55a4df523b3ef\n        /* \"@openzeppelin/contracts/token/ERC20/ERC20.sol\":7083:7088  value */\n      dup4\n        /* \"@openzeppelin/contracts/token/ERC20/ERC20.sol\":7064:7089  Transfer(from, to, value) */\n      mload(0x40)\n      tag_321\n      swap2\n        /* \"#utility.yul\":1466:1491   */\n      dup2\n      mstore\n        /* \"#utility.yul\":1454:1456   */\n      0x20\n        /* \"#utility.yul\":1439:1457   */\n      add\n      swap1\n        /* \"#utility.yul\":1320:1497   */\n      jump\n        /* \"@openzeppelin/contracts/token/ERC20/ERC20.sol\":7064:7089  Transfer(from, to, value) */\n    tag_321:\n      mload(0x40)\n      dup1\n      swap2\n      sub\n      swap1\n      log3\n        /* \"@openzeppelin/contracts/token/ERC20/ERC20.sol\":5989:7096  function _update(address from, address to, uint256 value) internal virtual {... */\n      pop\n      pop\n      pop\n      jump\t// out\n        /* \"#utility.yul\":222:640   */\n    tag_43:\n        /* \"#utility.yul\":371:373   */\n      0x20\n        /* \"#utility.yul\":360:369   */\n      dup2\n        /* \"#utility.yul\":353:374   */\n      mstore\n        /* \"#utility.yul\":334:338   */\n      0x00\n        /* \"#utility.yul\":403:409   */\n      dup3\n        /* \"#utility.yul\":397:410   */\n      mload\n        /* \"#utility.yul\":446:452   */\n      dup1\n        /* \"#utility.yul\":441:443   */\n      0x20\n        /* \"#utility.yul\":430:439   */\n      dup5\n        /* \"#utility.yul\":426:444   */\n      add\n        /* \"#utility.yul\":419:453   */\n      mstore\n        /* \"#utility.yul\":505:511   */\n      dup1\n        /* \"#utility.yul\":500:502   */\n      0x20\n        /* \"#utility.yul\":492:498   */\n      dup6\n        /* \"#utility.yul\":488:503   */\n      add\n        /* \"#utility.yul\":483:485   */\n      0x40\n        /* \"#utility.yul\":472:481   */\n      dup6\n        /* \"#utility.yul\":468:486   */\n      add\n        /* \"#utility.yul\":462:512   */\n      mcopy\n        /* \"#utility.yul\":561:562   */\n      0x00\n        /* \"#utility.yul\":556:558   */\n      0x40\n        /* \"#utility.yul\":547:553   */\n      dup3\n        /* \"#utility.yul\":536:545   */\n      dup6\n        /* \"#utility.yul\":532:554   */\n      add\n        /* \"#utility.yul\":528:559   */\n      add\n        /* \"#utility.yul\":521:563   */\n      mstore\n        /* \"#utility.yul\":631:633   */\n      0x40\n        /* \"#utility.yul\":624:626   */\n      0x1f\n        /* \"#utility.yul\":620:627   */\n      not\n        /* \"#utility.yul\":615:617   */\n      0x1f\n        /* \"#utility.yul\":607:613   */\n      dup4\n        /* \"#utility.yul\":603:618   */\n      add\n        /* \"#utility.yul\":599:628   */\n      and\n        /* \"#utility.yul\":588:597   */\n      dup5\n        /* \"#utility.yul\":584:629   */\n      add\n        /* \"#utility.yul\":580:634   */\n      add\n        /* \"#utility.yul\":572:634   */\n      swap2\n      pop\n      pop\n        /* \"#utility.yul\":222:640   */\n      swap3\n      swap2\n      pop\n      pop\n      jump\t// out\n        /* \"#utility.yul\":645:818   */\n    tag_322:\n        /* \"#utility.yul\":713:733   */\n      dup1\n      calldataload\n      sub(shl(0xa0, 0x01), 0x01)\n        /* \"#utility.yul\":762:793   */\n      dup2\n      and\n        /* \"#utility.yul\":752:794   */\n      dup2\n      eq\n        /* \"#utility.yul\":742:812   */\n      tag_328\n      jumpi\n        /* \"#utility.yul\":808:809   */\n      0x00\n        /* \"#utility.yul\":805:806   */\n      dup1\n        /* \"#utility.yul\":798:810   */\n      revert\n        /* \"#utility.yul\":742:812   */\n    tag_328:\n        /* \"#utility.yul\":645:818   */\n      swap2\n      swap1\n      pop\n      jump\t// out\n        /* \"#utility.yul\":823:1123   */\n    tag_46:\n        /* \"#utility.yul\":891:897   */\n      0x00\n        /* \"#utility.yul\":899:905   */\n      dup1\n        /* \"#utility.yul\":952:954   */\n      0x40\n        /* \"#utility.yul\":940:949   */\n      dup4\n        /* \"#utility.yul\":931:938   */\n      dup6\n        /* \"#utility.yul\":927:950   */\n      sub\n        /* \"#utility.yul\":923:955   */\n      slt\n        /* \"#utility.yul\":920:972   */\n      iszero\n      tag_330\n      jumpi\n        /* \"#utility.yul\":968:969   */\n      0x00\n        /* \"#utility.yul\":965:966   */\n      dup1\n        /* \"#utility.yul\":958:970   */\n      revert\n        /* \"#utility.yul\":920:972   */\n    tag_330:\n        /* \"#utility.yul\":991:1020   */\n      tag_331\n        /* \"#utility.yul\":1010:1019   */\n      dup4\n        /* \"#utility.yul\":991:1020   */\n      tag_322\n      jump\t// in\n    tag_331:\n        /* \"#utility.yul\":981:1020   */\n      swap5\n        /* \"#utility.yul\":1089:1091   */\n      0x20\n        /* \"#utility.yul\":1074:1092   */\n      swap4\n      swap1\n      swap4\n      add\n        /* \"#utility.yul\":1061:1093   */\n      calldataload\n      swap4\n      pop\n      pop\n      pop\n        /* \"#utility.yul\":823:1123   */\n      jump\t// out\n        /* \"#utility.yul\":1502:1876   */\n    tag_56:\n        /* \"#utility.yul\":1579:1585   */\n      0x00\n        /* \"#utility.yul\":1587:1593   */\n      dup1\n        /* \"#utility.yul\":1595:1601   */\n      0x00\n        /* \"#utility.yul\":1648:1650   */\n      0x60\n        /* \"#utility.yul\":1636:1645   */\n      dup5\n        /* \"#utility.yul\":1627:1634   */\n      dup7\n        /* \"#utility.yul\":1623:1646   */\n      sub\n        /* \"#utility.yul\":1619:1651   */\n      slt\n        /* \"#utility.yul\":1616:1668   */\n      iszero\n      tag_335\n      jumpi\n        /* \"#utility.yul\":1664:1665   */\n      0x00\n        /* \"#utility.yul\":1661:1662   */\n      dup1\n        /* \"#utility.yul\":1654:1666   */\n      revert\n        /* \"#utility.yul\":1616:1668   */\n    tag_335:\n        /* \"#utility.yul\":1687:1716   */\n      tag_336\n        /* \"#utility.yul\":1706:1715   */\n      dup5\n        /* \"#utility.yul\":1687:1716   */\n      tag_322\n      jump\t// in\n    tag_336:\n        /* \"#utility.yul\":1677:1716   */\n      swap3\n      pop\n        /* \"#utility.yul\":1735:1773   */\n      tag_337\n        /* \"#utility.yul\":1769:1771   */\n      0x20\n        /* \"#utility.yul\":1758:1767   */\n      dup6\n        /* \"#utility.yul\":1754:1772   */\n      add\n        /* \"#utility.yul\":1735:1773   */\n      tag_322\n      jump\t// in\n    tag_337:\n        /* \"#utility.yul\":1502:1876   */\n      swap3\n      swap6\n        /* \"#utility.yul\":1725:1773   */\n      swap3\n      swap5\n      pop\n      pop\n      pop\n        /* \"#utility.yul\":1842:1844   */\n      0x40\n        /* \"#utility.yul\":1827:1845   */\n      swap2\n      swap1\n      swap2\n      add\n        /* \"#utility.yul\":1814:1846   */\n      calldataload\n      swap1\n        /* \"#utility.yul\":1502:1876   */\n      jump\t// out\n        /* \"#utility.yul\":1881:2181   */\n    tag_61:\n        /* \"#utility.yul\":1949:1955   */\n      0x00\n        /* \"#utility.yul\":1957:1963   */\n      dup1\n        /* \"#utility.yul\":2010:2012   */\n      0x40\n        /* \"#utility.yul\":1998:2007   */\n      dup4\n        /* \"#utility.yul\":1989:1996   */\n      dup6\n        /* \"#utility.yul\":1985:2008   */\n      sub\n        /* \"#utility.yul\":1981:2013   */\n      slt\n        /* \"#utility.yul\":1978:2030   */\n      iszero\n      tag_339\n      jumpi\n        /* \"#utility.yul\":2026:2027   */\n      0x00\n        /* \"#utility.yul\":2023:2024   */\n      dup1\n        /* \"#utility.yul\":2016:2028   */\n      revert\n        /* \"#utility.yul\":1978:2030   */\n    tag_339:\n        /* \"#utility.yul\":2071:2094   */\n      dup3\n      calldataload\n      swap2\n      pop\n        /* \"#utility.yul\":2137:2175   */\n      tag_340\n        /* \"#utility.yul\":2171:2173   */\n      0x20\n        /* \"#utility.yul\":2156:2174   */\n      dup5\n      add\n        /* \"#utility.yul\":2137:2175   */\n      tag_322\n      jump\t// in\n    tag_340:\n        /* \"#utility.yul\":2127:2175   */\n      swap1\n      pop\n        /* \"#utility.yul\":1881:2181   */\n      swap3\n      pop\n      swap3\n      swap1\n      pop\n      jump\t// out\n        /* \"#utility.yul\":2375:2561   */\n    tag_75:\n        /* \"#utility.yul\":2434:2440   */\n      0x00\n        /* \"#utility.yul\":2487:2489   */\n      0x20\n        /* \"#utility.yul\":2475:2484   */\n      dup3\n        /* \"#utility.yul\":2466:2473   */\n      dup5\n        /* \"#utility.yul\":2462:2485   */\n      sub\n        /* \"#utility.yul\":2458:2490   */\n      slt\n        /* \"#utility.yul\":2455:2507   */\n      iszero\n      tag_343\n      jumpi\n        /* \"#utility.yul\":2503:2504   */\n      0x00\n        /* \"#utility.yul\":2500:2501   */\n      dup1\n        /* \"#utility.yul\":2493:2505   */\n      revert\n        /* \"#utility.yul\":2455:2507   */\n    tag_343:\n        /* \"#utility.yul\":2526:2555   */\n      tag_344\n        /* \"#utility.yul\":2545:2554   */\n      dup3\n        /* \"#utility.yul\":2526:2555   */\n      tag_322\n      jump\t// in\n    tag_344:\n        /* \"#utility.yul\":2516:2555   */\n      swap4\n        /* \"#utility.yul\":2375:2561   */\n      swap3\n      pop\n      pop\n      pop\n      jump\t// out\n        /* \"#utility.yul\":2890:3150   */\n    tag_117:\n        /* \"#utility.yul\":2958:2964   */\n      0x00\n        /* \"#utility.yul\":2966:2972   */\n      dup1\n        /* \"#utility.yul\":3019:3021   */\n      0x40\n        /* \"#utility.yul\":3007:3016   */\n      dup4\n        /* \"#utility.yul\":2998:3005   */\n      dup6\n        /* \"#utility.yul\":2994:3017   */\n      sub\n        /* \"#utility.yul\":2990:3022   */\n      slt\n        /* \"#utility.yul\":2987:3039   */\n      iszero\n      tag_347\n      jumpi\n        /* \"#utility.yul\":3035:3036   */\n      0x00\n        /* \"#utility.yul\":3032:3033   */\n      dup1\n        /* \"#utility.yul\":3025:3037   */\n      revert\n        /* \"#utility.yul\":2987:3039   */\n    tag_347:\n        /* \"#utility.yul\":3058:3087   */\n      tag_348\n        /* \"#utility.yul\":3077:3086   */\n      dup4\n        /* \"#utility.yul\":3058:3087   */\n      tag_322\n      jump\t// in\n    tag_348:\n        /* \"#utility.yul\":3048:3087   */\n      swap2\n      pop\n        /* \"#utility.yul\":3106:3144   */\n      tag_340\n        /* \"#utility.yul\":3140:3142   */\n      0x20\n        /* \"#utility.yul\":3129:3138   */\n      dup5\n        /* \"#utility.yul\":3125:3143   */\n      add\n        /* \"#utility.yul\":3106:3144   */\n      tag_322\n      jump\t// in\n        /* \"#utility.yul\":3155:3535   */\n    tag_133:\n        /* \"#utility.yul\":3234:3235   */\n      0x01\n        /* \"#utility.yul\":3230:3242   */\n      dup2\n      dup2\n      shr\n      swap1\n        /* \"#utility.yul\":3277:3289   */\n      dup3\n      and\n      dup1\n        /* \"#utility.yul\":3298:3359   */\n      tag_351\n      jumpi\n        /* \"#utility.yul\":3352:3356   */\n      0x7f\n        /* \"#utility.yul\":3344:3350   */\n      dup3\n        /* \"#utility.yul\":3340:3357   */\n      and\n        /* \"#utility.yul\":3330:3357   */\n      swap2\n      pop\n        /* \"#utility.yul\":3298:3359   */\n    tag_351:\n        /* \"#utility.yul\":3405:3407   */\n      0x20\n        /* \"#utility.yul\":3397:3403   */\n      dup3\n        /* \"#utility.yul\":3394:3408   */\n      lt\n        /* \"#utility.yul\":3374:3392   */\n      dup2\n        /* \"#utility.yul\":3371:3409   */\n      sub\n        /* \"#utility.yul\":3368:3529   */\n      tag_352\n      jumpi\n        /* \"#utility.yul\":3451:3461   */\n      0x4e487b71\n        /* \"#utility.yul\":3446:3449   */\n      0xe0\n        /* \"#utility.yul\":3442:3462   */\n      shl\n        /* \"#utility.yul\":3439:3440   */\n      0x00\n        /* \"#utility.yul\":3432:3463   */\n      mstore\n        /* \"#utility.yul\":3486:3490   */\n      0x22\n        /* \"#utility.yul\":3483:3484   */\n      0x04\n        /* \"#utility.yul\":3476:3491   */\n      mstore\n        /* \"#utility.yul\":3514:3518   */\n      0x24\n        /* \"#utility.yul\":3511:3512   */\n      0x00\n        /* \"#utility.yul\":3504:3519   */\n      revert\n        /* \"#utility.yul\":3368:3529   */\n    tag_352:\n      pop\n        /* \"#utility.yul\":3155:3535   */\n      swap2\n      swap1\n      pop\n      jump\t// out\n        /* \"#utility.yul\":3882:4009   */\n    tag_323:\n        /* \"#utility.yul\":3943:3953   */\n      0x4e487b71\n        /* \"#utility.yul\":3938:3941   */\n      0xe0\n        /* \"#utility.yul\":3934:3954   */\n      shl\n        /* \"#utility.yul\":3931:3932   */\n      0x00\n        /* \"#utility.yul\":3924:3955   */\n      mstore\n        /* \"#utility.yul\":3974:3978   */\n      0x11\n        /* \"#utility.yul\":3971:3972   */\n      0x04\n        /* \"#utility.yul\":3964:3979   */\n      mstore\n        /* \"#utility.yul\":3998:4002   */\n      0x24\n        /* \"#utility.yul\":3995:3996   */\n      0x00\n        /* \"#utility.yul\":3988:4003   */\n      revert\n        /* \"#utility.yul\":4014:4139   */\n    tag_188:\n        /* \"#utility.yul\":4079:4088   */\n      dup1\n      dup3\n      add\n        /* \"#utility.yul\":4100:4110   */\n      dup1\n      dup3\n      gt\n        /* \"#utility.yul\":4097:4133   */\n      iszero\n      tag_138\n      jumpi\n        /* \"#utility.yul\":4113:4131   */\n      tag_138\n      tag_323\n      jump\t// in\n        /* \"#utility.yul\":4144:4272   */\n    tag_191:\n        /* \"#utility.yul\":4211:4220   */\n      dup2\n      dup2\n      sub\n        /* \"#utility.yul\":4232:4243   */\n      dup2\n      dup2\n      gt\n        /* \"#utility.yul\":4229:4266   */\n      iszero\n      tag_138\n      jumpi\n        /* \"#utility.yul\":4246:4264   */\n      tag_138\n      tag_323\n      jump\t// in\n        /* \"#utility.yul\":4277:4445   */\n    tag_193:\n        /* \"#utility.yul\":4350:4359   */\n      dup1\n      dup3\n      mul\n        /* \"#utility.yul\":4381:4390   */\n      dup2\n      iszero\n        /* \"#utility.yul\":4398:4413   */\n      dup3\n      dup3\n      div\n        /* \"#utility.yul\":4392:4414   */\n      dup5\n      eq\n        /* \"#utility.yul\":4378:4415   */\n      or\n        /* \"#utility.yul\":4368:4439   */\n      tag_138\n      jumpi\n        /* \"#utility.yul\":4419:4437   */\n      tag_138\n      tag_323\n      jump\t// in\n        /* \"#utility.yul\":4450:4667   */\n    tag_195:\n        /* \"#utility.yul\":4490:4491   */\n      0x00\n        /* \"#utility.yul\":4516:4517   */\n      dup3\n        /* \"#utility.yul\":4506:4638   */\n      tag_365\n      jumpi\n        /* \"#utility.yul\":4560:4570   */\n      0x4e487b71\n        /* \"#utility.yul\":4555:4558   */\n      0xe0\n        /* \"#utility.yul\":4551:4571   */\n      shl\n        /* \"#utility.yul\":4548:4549   */\n      0x00\n        /* \"#utility.yul\":4541:4572   */\n      mstore\n        /* \"#utility.yul\":4595:4599   */\n      0x12\n        /* \"#utility.yul\":4592:4593   */\n      0x04\n        /* \"#utility.yul\":4585:4600   */\n      mstore\n        /* \"#utility.yul\":4623:4627   */\n      0x24\n        /* \"#utility.yul\":4620:4621   */\n      0x00\n        /* \"#utility.yul\":4613:4628   */\n      revert\n        /* \"#utility.yul\":4506:4638   */\n    tag_365:\n      pop\n        /* \"#utility.yul\":4652:4661   */\n      div\n      swap1\n        /* \"#utility.yul\":4450:4667   */\n      jump\t// out\n        /* \"#utility.yul\":5379:5514   */\n    tag_263:\n        /* \"#utility.yul\":5418:5421   */\n      0x00\n        /* \"#utility.yul\":5439:5456   */\n      0x01\n      dup3\n      add\n        /* \"#utility.yul\":5436:5479   */\n      tag_370\n      jumpi\n        /* \"#utility.yul\":5459:5477   */\n      tag_370\n      tag_323\n      jump\t// in\n    tag_370:\n      pop\n        /* \"#utility.yul\":5506:5507   */\n      0x01\n        /* \"#utility.yul\":5495:5508   */\n      add\n      swap1\n        /* \"#utility.yul\":5379:5514   */\n      jump\t// out\n\n    auxdata: 0xa26469706673582212204f50d3555b15df4cd371fd98e7f80921811010daed5a59b573c3b0864e9abca364736f6c634300081a0033\n}\n",
				"bytecode": {
					"linkReferences": {},
					"object": "60a0604052600880546001600160a01b0319908116737ec13697d98925ba1dc2bcc705c071bd168b10c217909155600980548216738de119e98707ac240aba2cb77e83b29882a34357179055600a805482167303499c18f7265be9afda16504a34cd1892f278ae179055600b8054821673cc234a1d3e32148461b7eacb5a8bf4d0c4b6be74179055600c8054821673ceea0e87b553bc445c5eb2242b5f28cd81b4acaa179055600d8054909116737e23e2781a1da5dace87b4f0e7bf68191263fc321790553480156100cf575f80fd5b506040516116c93803806116c98339810160408190526100ee91610382565b8060405180604001604052806009815260200168212122102a37b5b2b760b91b8152506040518060400160405280600381526020016210909160ea1b815250816003908161013c9190610447565b5060046101498282610447565b5050506001600160a01b03811661017a57604051631e4fbdf760e01b81525f60048201526024015b60405180910390fd5b610183816101d3565b5061019a816b033b2e3c9fd0803ce8000000610224565b6101c5306101c06b033b2e3c9fd0803ce80000006b204fce5e3e25026110000000610515565b610224565b50426080525f600655610541565b600580546001600160a01b038381166001600160a01b0319831681179093556040519116919082907f8be0079c531659141344cd1fd0a4f28419497f9722a3daafe3b4186f6b6457e0905f90a35050565b6001600160a01b03821661024d5760405163ec442f0560e01b81525f6004820152602401610171565b6102585f838361025c565b5050565b6001600160a01b038316610286578060025f82825461027b919061052e565b909155506102f69050565b6001600160a01b0383165f90815260208190526040902054818110156102d85760405163391434e360e21b81526001600160a01b03851660048201526024810182905260448101839052606401610171565b6001600160a01b0384165f9081526020819052604090209082900390555b6001600160a01b03821661031257600280548290039055610330565b6001600160a01b0382165f9081526020819052604090208054820190555b816001600160a01b0316836001600160a01b03167fddf252ad1be2c89b69c2b068fc378daa952ba7f163c4a11628f55a4df523b3ef8360405161037591815260200190565b60405180910390a3505050565b5f60208284031215610392575f80fd5b81516001600160a01b03811681146103a8575f80fd5b9392505050565b634e487b7160e01b5f52604160045260245ffd5b600181811c908216806103d757607f821691505b6020821081036103f557634e487b7160e01b5f52602260045260245ffd5b50919050565b601f82111561044257805f5260205f20601f840160051c810160208510156104205750805b601f840160051c820191505b8181101561043f575f815560010161042c565b50505b505050565b81516001600160401b03811115610460576104606103af565b6104748161046e84546103c3565b846103fb565b6020601f8211600181146104a6575f831561048f5750848201515b5f19600385901b1c1916600184901b17845561043f565b5f84815260208120601f198516915b828110156104d557878501518255602094850194600190920191016104b5565b50848210156104f257868401515f19600387901b60f8161c191681555b50505050600190811b01905550565b634e487b7160e01b5f52601160045260245ffd5b8181038181111561052857610528610501565b92915050565b8082018082111561052857610528610501565b6080516111696105605f395f81816103a8015261089401526111695ff3fe608060405234801561000f575f80fd5b50600436106101a1575f3560e01c80638da5cb5b116100f3578063ce7842f511610093578063e6fd48bc1161006e578063e6fd48bc146103a3578063e8be9a44146103ca578063f2fde38b146103d2578063f968f493146103e5575f80fd5b8063ce7842f514610345578063d2f9efab14610358578063dd62ed3e1461036b575f80fd5b8063a779d080116100ce578063a779d080146102f3578063a9059cbb146102fc578063b361412a1461030f578063be381b8514610322575f80fd5b80638da5cb5b146102c7578063902d55a5146102d857806395d89b41146102eb575f80fd5b80632d3e474a1161015e57806370a082311161013957806370a082311461027c578063715018a6146102a45780638310a74d146102ac5780638342083a146102b5575f80fd5b80632d3e474a14610247578063313ce5671461025a57806367859b6e14610269575f80fd5b8063042249bb146101a557806306fdde03146101d5578063095ea7b3146101ea57806318160ddd1461020d57806323b872dd1461021f5780632be8781f14610232575b5f80fd5b600b546101b8906001600160a01b031681565b6040516001600160a01b0390911681526020015b60405180910390f35b6101dd6103ed565b6040516101cc9190610f4f565b6101fd6101f8366004610f9f565b61047d565b60405190151581526020016101cc565b6002545b6040519081526020016101cc565b6101fd61022d366004610fc7565b610496565b610245610240366004611001565b6104b9565b005b600a546101b8906001600160a01b031681565b604051601281526020016101cc565b6008546101b8906001600160a01b031681565b61021161028a36600461102b565b6001600160a01b03165f9081526020819052604090205490565b6102456105ff565b61021160065481565b610211676765c793fa10079d601b1b81565b6005546001600160a01b03166101b8565b6102116b204fce5e3e2502611000000081565b6101dd610612565b61021160075481565b6101fd61030a366004610f9f565b610621565b600d546101b8906001600160a01b031681565b61032a61062e565b604080519384526020840192909252908201526060016101cc565b600c546101b8906001600160a01b031681565b6009546101b8906001600160a01b031681565b61021161037936600461104b565b6001600160a01b039182165f90815260016020908152604080832093909416825291909152205490565b6102117f000000000000000000000000000000000000000000000000000000000000000081565b6102116107b0565b6102456103e036600461102b565b6107d4565b610245610811565b6060600380546103fc90611073565b80601f016020809104026020016040519081016040528092919081815260200182805461042890611073565b80156104735780601f1061044a57610100808354040283529160200191610473565b820191905f5260205f20905b81548152906001019060200180831161045657829003601f168201915b5050505050905090565b5f3361048a818585610bee565b60019150505b92915050565b5f336104a3858285610c00565b6104ae858585610c7c565b506001949350505050565b6104c1610cd9565b600182101580156104d3575060068211155b6105145760405162461bcd60e51b815260206004820152600d60248201526c092dcecc2d8d2c840d2dcc8caf609b1b60448201526064015b60405180910390fd5b8160010361053b57600880546001600160a01b0319166001600160a01b0383161790555050565b8160020361056257600980546001600160a01b0319166001600160a01b0383161790555050565b8160030361058957600a80546001600160a01b0319166001600160a01b0383161790555050565b816004036105b057600b80546001600160a01b0319166001600160a01b0383161790555050565b816005036105d757600c80546001600160a01b0319166001600160a01b0383161790555050565b816006036105fb57600d80546001600160a01b0319166001600160a01b0383161790555b5050565b610607610cd9565b6106105f610d06565b565b6060600480546103fc90611073565b5f3361048a818585610c7c565b5f805f80600654600161064191906110bf565b90506003811161068b576103e861066f676765c793fa10079d601b1b6b204fce5e3e250261100000006110d2565b61067a9060056110e5565b61068491906110fc565b9250610732565b600681116106c15760646106b6676765c793fa10079d601b1b6b204fce5e3e250261100000006110d2565b61067a9060016110e5565b600981116106f75760646106ec676765c793fa10079d601b1b6b204fce5e3e250261100000006110d2565b61067a9060026110e5565b606461071a676765c793fa10079d601b1b6b204fce5e3e250261100000006110d2565b6107259060036110e5565b61072f91906110fc565b92505b610753676765c793fa10079d601b1b6b204fce5e3e250261100000006110d2565b60075461076090856110bf565b11156107975760075461078a676765c793fa10079d601b1b6b204fce5e3e250261100000006110d2565b61079491906110d2565b92505b80836107a46006826110fc565b93509350935050909192565b6107d1676765c793fa10079d601b1b6b204fce5e3e250261100000006110d2565b81565b6107dc610cd9565b6001600160a01b03811661080557604051631e4fbdf760e01b81525f600482015260240161050b565b61080e81610d06565b50565b610819610cd9565b61083a676765c793fa10079d601b1b6b204fce5e3e250261100000006110d2565b6007541061088a5760405162461bcd60e51b815260206004820152601b60248201527f416c6c20746f6b656e7320616c726561647920756e6c6f636b65640000000000604482015260640161050b565b5f62278d006108b97f0000000000000000000000000000000000000000000000000000000000000000426110d2565b6108c391906110fc565b9050600654811161090f5760405162461bcd60e51b81526020600482015260166024820152754e6f206e6577206d6f6e746820746f20756e6c6f636b60501b604482015260640161050b565b5f80600654600161092091906110bf565b90505b828111610a3f576003811161097c576103e8610956676765c793fa10079d601b1b6b204fce5e3e250261100000006110d2565b6109619060056110e5565b61096b91906110fc565b61097590836110bf565b9150610a2d565b600681116109b25760646109a7676765c793fa10079d601b1b6b204fce5e3e250261100000006110d2565b6109619060016110e5565b600981116109e85760646109dd676765c793fa10079d601b1b6b204fce5e3e250261100000006110d2565b6109619060026110e5565b6064610a0b676765c793fa10079d601b1b6b204fce5e3e250261100000006110d2565b610a169060036110e5565b610a2091906110fc565b610a2a90836110bf565b91505b80610a378161111b565b915050610923565b50610a61676765c793fa10079d601b1b6b204fce5e3e250261100000006110d2565b600754610a6e90836110bf565b1115610aa557600754610a98676765c793fa10079d601b1b6b204fce5e3e250261100000006110d2565b610aa291906110d2565b90505b5f8111610ae85760405162461bcd60e51b81526020600482015260116024820152704e6f7468696e6720746f20756e6c6f636b60781b604482015260640161050b565b816006819055508060075f828254610b0091906110bf565b909155505f9050610b126006836110fc565b600854909150610b2d9030906001600160a01b031683610c7c565b600954610b459030906001600160a01b031683610c7c565b600a54610b5d9030906001600160a01b031683610c7c565b600b54610b759030906001600160a01b031683610c7c565b600c54610b8d9030906001600160a01b031683610c7c565b600d54610ba59030906001600160a01b031683610c7c565b60065460075460408051928352602083018490528201527fd5c1e53febf89038959691e212f7a18f34f9ac92dd9965a138ccfc695e9774ac9060600160405180910390a1505050565b610bfb8383836001610d57565b505050565b6001600160a01b038381165f908152600160209081526040808320938616835292905220545f19811015610c765781811015610c6857604051637dc7a0d960e11b81526001600160a01b0384166004820152602481018290526044810183905260640161050b565b610c7684848484035f610d57565b50505050565b6001600160a01b038316610ca557604051634b637e8f60e11b81525f600482015260240161050b565b6001600160a01b038216610cce5760405163ec442f0560e01b81525f600482015260240161050b565b610bfb838383610e29565b6005546001600160a01b031633146106105760405163118cdaa760e01b815233600482015260240161050b565b600580546001600160a01b038381166001600160a01b0319831681179093556040519116919082907f8be0079c531659141344cd1fd0a4f28419497f9722a3daafe3b4186f6b6457e0905f90a35050565b6001600160a01b038416610d805760405163e602df0560e01b81525f600482015260240161050b565b6001600160a01b038316610da957604051634a1406b160e11b81525f600482015260240161050b565b6001600160a01b038085165f9081526001602090815260408083209387168352929052208290558015610c7657826001600160a01b0316846001600160a01b03167f8c5be1e5ebec7d5bd14f71427d1e84f3dd0314c0f7b2291e5b200ac8c7c3b92584604051610e1b91815260200190565b60405180910390a350505050565b6001600160a01b038316610e53578060025f828254610e4891906110bf565b90915550610ec39050565b6001600160a01b0383165f9081526020819052604090205481811015610ea55760405163391434e360e21b81526001600160a01b0385166004820152602481018290526044810183905260640161050b565b6001600160a01b0384165f9081526020819052604090209082900390555b6001600160a01b038216610edf57600280548290039055610efd565b6001600160a01b0382165f9081526020819052604090208054820190555b816001600160a01b0316836001600160a01b03167fddf252ad1be2c89b69c2b068fc378daa952ba7f163c4a11628f55a4df523b3ef83604051610f4291815260200190565b60405180910390a3505050565b602081525f82518060208401528060208501604085015e5f604082850101526040601f19601f83011684010191505092915050565b80356001600160a01b0381168114610f9a575f80fd5b919050565b5f8060408385031215610fb0575f80fd5b610fb983610f84565b946020939093013593505050565b5f805f60608486031215610fd9575f80fd5b610fe284610f84565b9250610ff060208501610f84565b929592945050506040919091013590565b5f8060408385031215611012575f80fd5b8235915061102260208401610f84565b90509250929050565b5f6020828403121561103b575f80fd5b61104482610f84565b9392505050565b5f806040838503121561105c575f80fd5b61106583610f84565b915061102260208401610f84565b600181811c9082168061108757607f821691505b6020821081036110a557634e487b7160e01b5f52602260045260245ffd5b50919050565b634e487b7160e01b5f52601160045260245ffd5b80820180821115610490576104906110ab565b81810381811115610490576104906110ab565b8082028115828204841417610490576104906110ab565b5f8261111657634e487b7160e01b5f52601260045260245ffd5b500490565b5f6001820161112c5761112c6110ab565b506001019056fea26469706673582212204f50d3555b15df4cd371fd98e7f80921811010daed5a59b573c3b0864e9abca364736f6c634300081a0033",
					"opcodes": "PUSH1 0xA0 PUSH1 0x40 MSTORE PUSH1 0x8 DUP1 SLOAD PUSH1 0x1 PUSH1 0x1 PUSH1 0xA0 SHL SUB NOT SWAP1 DUP2 AND PUSH20 0x7EC13697D98925BA1DC2BCC705C071BD168B10C2 OR SWAP1 SWAP2 SSTORE PUSH1 0x9 DUP1 SLOAD DUP3 AND PUSH20 0x8DE119E98707AC240ABA2CB77E83B29882A34357 OR SWAP1 SSTORE PUSH1 0xA DUP1 SLOAD DUP3 AND PUSH20 0x3499C18F7265BE9AFDA16504A34CD1892F278AE OR SWAP1 SSTORE PUSH1 0xB DUP1 SLOAD DUP3 AND PUSH20 0xCC234A1D3E32148461B7EACB5A8BF4D0C4B6BE74 OR SWAP1 SSTORE PUSH1 0xC DUP1 SLOAD DUP3 AND PUSH20 0xCEEA0E87B553BC445C5EB2242B5F28CD81B4ACAA OR SWAP1 SSTORE PUSH1 0xD DUP1 SLOAD SWAP1 SWAP2 AND PUSH20 0x7E23E2781A1DA5DACE87B4F0E7BF68191263FC32 OR SWAP1 SSTORE CALLVALUE DUP1 ISZERO PUSH2 0xCF JUMPI PUSH0 DUP1 REVERT JUMPDEST POP PUSH1 0x40 MLOAD PUSH2 0x16C9 CODESIZE SUB DUP1 PUSH2 0x16C9 DUP4 CODECOPY DUP2 ADD PUSH1 0x40 DUP2 SWAP1 MSTORE PUSH2 0xEE SWAP2 PUSH2 0x382 JUMP JUMPDEST DUP1 PUSH1 0x40 MLOAD DUP1 PUSH1 0x40 ADD PUSH1 0x40 MSTORE DUP1 PUSH1 0x9 DUP2 MSTORE PUSH1 0x20 ADD PUSH9 0x212122102A37B5B2B7 PUSH1 0xB9 SHL DUP2 MSTORE POP PUSH1 0x40 MLOAD DUP1 PUSH1 0x40 ADD PUSH1 0x40 MSTORE DUP1 PUSH1 0x3 DUP2 MSTORE PUSH1 0x20 ADD PUSH3 0x109091 PUSH1 0xEA SHL DUP2 MSTORE POP DUP2 PUSH1 0x3 SWAP1 DUP2 PUSH2 0x13C SWAP2 SWAP1 PUSH2 0x447 JUMP JUMPDEST POP PUSH1 0x4 PUSH2 0x149 DUP3 DUP3 PUSH2 0x447 JUMP JUMPDEST POP POP POP PUSH1 0x1 PUSH1 0x1 PUSH1 0xA0 SHL SUB DUP2 AND PUSH2 0x17A JUMPI PUSH1 0x40 MLOAD PUSH4 0x1E4FBDF7 PUSH1 0xE0 SHL DUP2 MSTORE PUSH0 PUSH1 0x4 DUP3 ADD MSTORE PUSH1 0x24 ADD JUMPDEST PUSH1 0x40 MLOAD DUP1 SWAP2 SUB SWAP1 REVERT JUMPDEST PUSH2 0x183 DUP2 PUSH2 0x1D3 JUMP JUMPDEST POP PUSH2 0x19A DUP2 PUSH12 0x33B2E3C9FD0803CE8000000 PUSH2 0x224 JUMP JUMPDEST PUSH2 0x1C5 ADDRESS PUSH2 0x1C0 PUSH12 0x33B2E3C9FD0803CE8000000 PUSH12 0x204FCE5E3E25026110000000 PUSH2 0x515 JUMP JUMPDEST PUSH2 0x224 JUMP JUMPDEST POP TIMESTAMP PUSH1 0x80 MSTORE PUSH0 PUSH1 0x6 SSTORE PUSH2 0x541 JUMP JUMPDEST PUSH1 0x5 DUP1 SLOAD PUSH1 0x1 PUSH1 0x1 PUSH1 0xA0 SHL SUB DUP4 DUP2 AND PUSH1 0x1 PUSH1 0x1 PUSH1 0xA0 SHL SUB NOT DUP4 AND DUP2 OR SWAP1 SWAP4 SSTORE PUSH1 0x40 MLOAD SWAP2 AND SWAP2 SWAP1 DUP3 SWAP1 PUSH32 0x8BE0079C531659141344CD1FD0A4F28419497F9722A3DAAFE3B4186F6B6457E0 SWAP1 PUSH0 SWAP1 LOG3 POP POP JUMP JUMPDEST PUSH1 0x1 PUSH1 0x1 PUSH1 0xA0 SHL SUB DUP3 AND PUSH2 0x24D JUMPI PUSH1 0x40 MLOAD PUSH4 0xEC442F05 PUSH1 0xE0 SHL DUP2 MSTORE PUSH0 PUSH1 0x4 DUP3 ADD MSTORE PUSH1 0x24 ADD PUSH2 0x171 JUMP JUMPDEST PUSH2 0x258 PUSH0 DUP4 DUP4 PUSH2 0x25C JUMP JUMPDEST POP POP JUMP JUMPDEST PUSH1 0x1 PUSH1 0x1 PUSH1 0xA0 SHL SUB DUP4 AND PUSH2 0x286 JUMPI DUP1 PUSH1 0x2 PUSH0 DUP3 DUP3 SLOAD PUSH2 0x27B SWAP2 SWAP1 PUSH2 0x52E JUMP JUMPDEST SWAP1 SWAP2 SSTORE POP PUSH2 0x2F6 SWAP1 POP JUMP JUMPDEST PUSH1 0x1 PUSH1 0x1 PUSH1 0xA0 SHL SUB DUP4 AND PUSH0 SWAP1 DUP2 MSTORE PUSH1 0x20 DUP2 SWAP1 MSTORE PUSH1 0x40 SWAP1 KECCAK256 SLOAD DUP2 DUP2 LT ISZERO PUSH2 0x2D8 JUMPI PUSH1 0x40 MLOAD PUSH4 0x391434E3 PUSH1 0xE2 SHL DUP2 MSTORE PUSH1 0x1 PUSH1 0x1 PUSH1 0xA0 SHL SUB DUP6 AND PUSH1 0x4 DUP3 ADD MSTORE PUSH1 0x24 DUP2 ADD DUP3 SWAP1 MSTORE PUSH1 0x44 DUP2 ADD DUP4 SWAP1 MSTORE PUSH1 0x64 ADD PUSH2 0x171 JUMP JUMPDEST PUSH1 0x1 PUSH1 0x1 PUSH1 0xA0 SHL SUB DUP5 AND PUSH0 SWAP1 DUP2 MSTORE PUSH1 0x20 DUP2 SWAP1 MSTORE PUSH1 0x40 SWAP1 KECCAK256 SWAP1 DUP3 SWAP1 SUB SWAP1 SSTORE JUMPDEST PUSH1 0x1 PUSH1 0x1 PUSH1 0xA0 SHL SUB DUP3 AND PUSH2 0x312 JUMPI PUSH1 0x2 DUP1 SLOAD DUP3 SWAP1 SUB SWAP1 SSTORE PUSH2 0x330 JUMP JUMPDEST PUSH1 0x1 PUSH1 0x1 PUSH1 0xA0 SHL SUB DUP3 AND PUSH0 SWAP1 DUP2 MSTORE PUSH1 0x20 DUP2 SWAP1 MSTORE PUSH1 0x40 SWAP1 KECCAK256 DUP1 SLOAD DUP3 ADD SWAP1 SSTORE JUMPDEST DUP2 PUSH1 0x1 PUSH1 0x1 PUSH1 0xA0 SHL SUB AND DUP4 PUSH1 0x1 PUSH1 0x1 PUSH1 0xA0 SHL SUB AND PUSH32 0xDDF252AD1BE2C89B69C2B068FC378DAA952BA7F163C4A11628F55A4DF523B3EF DUP4 PUSH1 0x40 MLOAD PUSH2 0x375 SWAP2 DUP2 MSTORE PUSH1 0x20 ADD SWAP1 JUMP JUMPDEST PUSH1 0x40 MLOAD DUP1 SWAP2 SUB SWAP1 LOG3 POP POP POP JUMP JUMPDEST PUSH0 PUSH1 0x20 DUP3 DUP5 SUB SLT ISZERO PUSH2 0x392 JUMPI PUSH0 DUP1 REVERT JUMPDEST DUP2 MLOAD PUSH1 0x1 PUSH1 0x1 PUSH1 0xA0 SHL SUB DUP2 AND DUP2 EQ PUSH2 0x3A8 JUMPI PUSH0 DUP1 REVERT JUMPDEST SWAP4 SWAP3 POP POP POP JUMP JUMPDEST PUSH4 0x4E487B71 PUSH1 0xE0 SHL PUSH0 MSTORE PUSH1 0x41 PUSH1 0x4 MSTORE PUSH1 0x24 PUSH0 REVERT JUMPDEST PUSH1 0x1 DUP2 DUP2 SHR SWAP1 DUP3 AND DUP1 PUSH2 0x3D7 JUMPI PUSH1 0x7F DUP3 AND SWAP2 POP JUMPDEST PUSH1 0x20 DUP3 LT DUP2 SUB PUSH2 0x3F5 JUMPI PUSH4 0x4E487B71 PUSH1 0xE0 SHL PUSH0 MSTORE PUSH1 0x22 PUSH1 0x4 MSTORE PUSH1 0x24 PUSH0 REVERT JUMPDEST POP SWAP2 SWAP1 POP JUMP JUMPDEST PUSH1 0x1F DUP3 GT ISZERO PUSH2 0x442 JUMPI DUP1 PUSH0 MSTORE PUSH1 0x20 PUSH0 KECCAK256 PUSH1 0x1F DUP5 ADD PUSH1 0x5 SHR DUP2 ADD PUSH1 0x20 DUP6 LT ISZERO PUSH2 0x420 JUMPI POP DUP1 JUMPDEST PUSH1 0x1F DUP5 ADD PUSH1 0x5 SHR DUP3 ADD SWAP2 POP JUMPDEST DUP2 DUP2 LT ISZERO PUSH2 0x43F JUMPI PUSH0 DUP2 SSTORE PUSH1 0x1 ADD PUSH2 0x42C JUMP JUMPDEST POP POP JUMPDEST POP POP POP JUMP JUMPDEST DUP2 MLOAD PUSH1 0x1 PUSH1 0x1 PUSH1 0x40 SHL SUB DUP2 GT ISZERO PUSH2 0x460 JUMPI PUSH2 0x460 PUSH2 0x3AF JUMP JUMPDEST PUSH2 0x474 DUP2 PUSH2 0x46E DUP5 SLOAD PUSH2 0x3C3 JUMP JUMPDEST DUP5 PUSH2 0x3FB JUMP JUMPDEST PUSH1 0x20 PUSH1 0x1F DUP3 GT PUSH1 0x1 DUP2 EQ PUSH2 0x4A6 JUMPI PUSH0 DUP4 ISZERO PUSH2 0x48F JUMPI POP DUP5 DUP3 ADD MLOAD JUMPDEST PUSH0 NOT PUSH1 0x3 DUP6 SWAP1 SHL SHR NOT AND PUSH1 0x1 DUP5 SWAP1 SHL OR DUP5 SSTORE PUSH2 0x43F JUMP JUMPDEST PUSH0 DUP5 DUP2 MSTORE PUSH1 0x20 DUP2 KECCAK256 PUSH1 0x1F NOT DUP6 AND SWAP2 JUMPDEST DUP3 DUP2 LT ISZERO PUSH2 0x4D5 JUMPI DUP8 DUP6 ADD MLOAD DUP3 SSTORE PUSH1 0x20 SWAP5 DUP6 ADD SWAP5 PUSH1 0x1 SWAP1 SWAP3 ADD SWAP2 ADD PUSH2 0x4B5 JUMP JUMPDEST POP DUP5 DUP3 LT ISZERO PUSH2 0x4F2 JUMPI DUP7 DUP5 ADD MLOAD PUSH0 NOT PUSH1 0x3 DUP8 SWAP1 SHL PUSH1 0xF8 AND SHR NOT AND DUP2 SSTORE JUMPDEST POP POP POP POP PUSH1 0x1 SWAP1 DUP2 SHL ADD SWAP1 SSTORE POP JUMP JUMPDEST PUSH4 0x4E487B71 PUSH1 0xE0 SHL PUSH0 MSTORE PUSH1 0x11 PUSH1 0x4 MSTORE PUSH1 0x24 PUSH0 REVERT JUMPDEST DUP2 DUP2 SUB DUP2 DUP2 GT ISZERO PUSH2 0x528 JUMPI PUSH2 0x528 PUSH2 0x501 JUMP JUMPDEST SWAP3 SWAP2 POP POP JUMP JUMPDEST DUP1 DUP3 ADD DUP1 DUP3 GT ISZERO PUSH2 0x528 JUMPI PUSH2 0x528 PUSH2 0x501 JUMP JUMPDEST PUSH1 0x80 MLOAD PUSH2 0x1169 PUSH2 0x560 PUSH0 CODECOPY PUSH0 DUP2 DUP2 PUSH2 0x3A8 ADD MSTORE PUSH2 0x894 ADD MSTORE PUSH2 0x1169 PUSH0 RETURN INVALID PUSH1 0x80 PUSH1 0x40 MSTORE CALLVALUE DUP1 ISZERO PUSH2 0xF JUMPI PUSH0 DUP1 REVERT JUMPDEST POP PUSH1 0x4 CALLDATASIZE LT PUSH2 0x1A1 JUMPI PUSH0 CALLDATALOAD PUSH1 0xE0 SHR DUP1 PUSH4 0x8DA5CB5B GT PUSH2 0xF3 JUMPI DUP1 PUSH4 0xCE7842F5 GT PUSH2 0x93 JUMPI DUP1 PUSH4 0xE6FD48BC GT PUSH2 0x6E JUMPI DUP1 PUSH4 0xE6FD48BC EQ PUSH2 0x3A3 JUMPI DUP1 PUSH4 0xE8BE9A44 EQ PUSH2 0x3CA JUMPI DUP1 PUSH4 0xF2FDE38B EQ PUSH2 0x3D2 JUMPI DUP1 PUSH4 0xF968F493 EQ PUSH2 0x3E5 JUMPI PUSH0 DUP1 REVERT JUMPDEST DUP1 PUSH4 0xCE7842F5 EQ PUSH2 0x345 JUMPI DUP1 PUSH4 0xD2F9EFAB EQ PUSH2 0x358 JUMPI DUP1 PUSH4 0xDD62ED3E EQ PUSH2 0x36B JUMPI PUSH0 DUP1 REVERT JUMPDEST DUP1 PUSH4 0xA779D080 GT PUSH2 0xCE JUMPI DUP1 PUSH4 0xA779D080 EQ PUSH2 0x2F3 JUMPI DUP1 PUSH4 0xA9059CBB EQ PUSH2 0x2FC JUMPI DUP1 PUSH4 0xB361412A EQ PUSH2 0x30F JUMPI DUP1 PUSH4 0xBE381B85 EQ PUSH2 0x322 JUMPI PUSH0 DUP1 REVERT JUMPDEST DUP1 PUSH4 0x8DA5CB5B EQ PUSH2 0x2C7 JUMPI DUP1 PUSH4 0x902D55A5 EQ PUSH2 0x2D8 JUMPI DUP1 PUSH4 0x95D89B41 EQ PUSH2 0x2EB JUMPI PUSH0 DUP1 REVERT JUMPDEST DUP1 PUSH4 0x2D3E474A GT PUSH2 0x15E JUMPI DUP1 PUSH4 0x70A08231 GT PUSH2 0x139 JUMPI DUP1 PUSH4 0x70A08231 EQ PUSH2 0x27C JUMPI DUP1 PUSH4 0x715018A6 EQ PUSH2 0x2A4 JUMPI DUP1 PUSH4 0x8310A74D EQ PUSH2 0x2AC JUMPI DUP1 PUSH4 0x8342083A EQ PUSH2 0x2B5 JUMPI PUSH0 DUP1 REVERT JUMPDEST DUP1 PUSH4 0x2D3E474A EQ PUSH2 0x247 JUMPI DUP1 PUSH4 0x313CE567 EQ PUSH2 0x25A JUMPI DUP1 PUSH4 0x67859B6E EQ PUSH2 0x269 JUMPI PUSH0 DUP1 REVERT JUMPDEST DUP1 PUSH4 0x42249BB EQ PUSH2 0x1A5 JUMPI DUP1 PUSH4 0x6FDDE03 EQ PUSH2 0x1D5 JUMPI DUP1 PUSH4 0x95EA7B3 EQ PUSH2 0x1EA JUMPI DUP1 PUSH4 0x18160DDD EQ PUSH2 0x20D JUMPI DUP1 PUSH4 0x23B872DD EQ PUSH2 0x21F JUMPI DUP1 PUSH4 0x2BE8781F EQ PUSH2 0x232 JUMPI JUMPDEST PUSH0 DUP1 REVERT JUMPDEST PUSH1 0xB SLOAD PUSH2 0x1B8 SWAP1 PUSH1 0x1 PUSH1 0x1 PUSH1 0xA0 SHL SUB AND DUP2 JUMP JUMPDEST PUSH1 0x40 MLOAD PUSH1 0x1 PUSH1 0x1 PUSH1 0xA0 SHL SUB SWAP1 SWAP2 AND DUP2 MSTORE PUSH1 0x20 ADD JUMPDEST PUSH1 0x40 MLOAD DUP1 SWAP2 SUB SWAP1 RETURN JUMPDEST PUSH2 0x1DD PUSH2 0x3ED JUMP JUMPDEST PUSH1 0x40 MLOAD PUSH2 0x1CC SWAP2 SWAP1 PUSH2 0xF4F JUMP JUMPDEST PUSH2 0x1FD PUSH2 0x1F8 CALLDATASIZE PUSH1 0x4 PUSH2 0xF9F JUMP JUMPDEST PUSH2 0x47D JUMP JUMPDEST PUSH1 0x40 MLOAD SWAP1 ISZERO ISZERO DUP2 MSTORE PUSH1 0x20 ADD PUSH2 0x1CC JUMP JUMPDEST PUSH1 0x2 SLOAD JUMPDEST PUSH1 0x40 MLOAD SWAP1 DUP2 MSTORE PUSH1 0x20 ADD PUSH2 0x1CC JUMP JUMPDEST PUSH2 0x1FD PUSH2 0x22D CALLDATASIZE PUSH1 0x4 PUSH2 0xFC7 JUMP JUMPDEST PUSH2 0x496 JUMP JUMPDEST PUSH2 0x245 PUSH2 0x240 CALLDATASIZE PUSH1 0x4 PUSH2 0x1001 JUMP JUMPDEST PUSH2 0x4B9 JUMP JUMPDEST STOP JUMPDEST PUSH1 0xA SLOAD PUSH2 0x1B8 SWAP1 PUSH1 0x1 PUSH1 0x1 PUSH1 0xA0 SHL SUB AND DUP2 JUMP JUMPDEST PUSH1 0x40 MLOAD PUSH1 0x12 DUP2 MSTORE PUSH1 0x20 ADD PUSH2 0x1CC JUMP JUMPDEST PUSH1 0x8 SLOAD PUSH2 0x1B8 SWAP1 PUSH1 0x1 PUSH1 0x1 PUSH1 0xA0 SHL SUB AND DUP2 JUMP JUMPDEST PUSH2 0x211 PUSH2 0x28A CALLDATASIZE PUSH1 0x4 PUSH2 0x102B JUMP JUMPDEST PUSH1 0x1 PUSH1 0x1 PUSH1 0xA0 SHL SUB AND PUSH0 SWAP1 DUP2 MSTORE PUSH1 0x20 DUP2 SWAP1 MSTORE PUSH1 0x40 SWAP1 KECCAK256 SLOAD SWAP1 JUMP JUMPDEST PUSH2 0x245 PUSH2 0x5FF JUMP JUMPDEST PUSH2 0x211 PUSH1 0x6 SLOAD DUP2 JUMP JUMPDEST PUSH2 0x211 PUSH8 0x6765C793FA10079D PUSH1 0x1B SHL DUP2 JUMP JUMPDEST PUSH1 0x5 SLOAD PUSH1 0x1 PUSH1 0x1 PUSH1 0xA0 SHL SUB AND PUSH2 0x1B8 JUMP JUMPDEST PUSH2 0x211 PUSH12 0x204FCE5E3E25026110000000 DUP2 JUMP JUMPDEST PUSH2 0x1DD PUSH2 0x612 JUMP JUMPDEST PUSH2 0x211 PUSH1 0x7 SLOAD DUP2 JUMP JUMPDEST PUSH2 0x1FD PUSH2 0x30A CALLDATASIZE PUSH1 0x4 PUSH2 0xF9F JUMP JUMPDEST PUSH2 0x621 JUMP JUMPDEST PUSH1 0xD SLOAD PUSH2 0x1B8 SWAP1 PUSH1 0x1 PUSH1 0x1 PUSH1 0xA0 SHL SUB AND DUP2 JUMP JUMPDEST PUSH2 0x32A PUSH2 0x62E JUMP JUMPDEST PUSH1 0x40 DUP1 MLOAD SWAP4 DUP5 MSTORE PUSH1 0x20 DUP5 ADD SWAP3 SWAP1 SWAP3 MSTORE SWAP1 DUP3 ADD MSTORE PUSH1 0x60 ADD PUSH2 0x1CC JUMP JUMPDEST PUSH1 0xC SLOAD PUSH2 0x1B8 SWAP1 PUSH1 0x1 PUSH1 0x1 PUSH1 0xA0 SHL SUB AND DUP2 JUMP JUMPDEST PUSH1 0x9 SLOAD PUSH2 0x1B8 SWAP1 PUSH1 0x1 PUSH1 0x1 PUSH1 0xA0 SHL SUB AND DUP2 JUMP JUMPDEST PUSH2 0x211 PUSH2 0x379 CALLDATASIZE PUSH1 0x4 PUSH2 0x104B JUMP JUMPDEST PUSH1 0x1 PUSH1 0x1 PUSH1 0xA0 SHL SUB SWAP2 DUP3 AND PUSH0 SWAP1 DUP2 MSTORE PUSH1 0x1 PUSH1 0x20 SWAP1 DUP2 MSTORE PUSH1 0x40 DUP1 DUP4 KECCAK256 SWAP4 SWAP1 SWAP5 AND DUP3 MSTORE SWAP2 SWAP1 SWAP2 MSTORE KECCAK256 SLOAD SWAP1 JUMP JUMPDEST PUSH2 0x211 PUSH32 0x0 DUP2 JUMP JUMPDEST PUSH2 0x211 PUSH2 0x7B0 JUMP JUMPDEST PUSH2 0x245 PUSH2 0x3E0 CALLDATASIZE PUSH1 0x4 PUSH2 0x102B JUMP JUMPDEST PUSH2 0x7D4 JUMP JUMPDEST PUSH2 0x245 PUSH2 0x811 JUMP JUMPDEST PUSH1 0x60 PUSH1 0x3 DUP1 SLOAD PUSH2 0x3FC SWAP1 PUSH2 0x1073 JUMP JUMPDEST DUP1 PUSH1 0x1F ADD PUSH1 0x20 DUP1 SWAP2 DIV MUL PUSH1 0x20 ADD PUSH1 0x40 MLOAD SWAP1 DUP2 ADD PUSH1 0x40 MSTORE DUP1 SWAP3 SWAP2 SWAP1 DUP2 DUP2 MSTORE PUSH1 0x20 ADD DUP3 DUP1 SLOAD PUSH2 0x428 SWAP1 PUSH2 0x1073 JUMP JUMPDEST DUP1 ISZERO PUSH2 0x473 JUMPI DUP1 PUSH1 0x1F LT PUSH2 0x44A JUMPI PUSH2 0x100 DUP1 DUP4 SLOAD DIV MUL DUP4 MSTORE SWAP2 PUSH1 0x20 ADD SWAP2 PUSH2 0x473 JUMP JUMPDEST DUP3 ADD SWAP2 SWAP1 PUSH0 MSTORE PUSH1 0x20 PUSH0 KECCAK256 SWAP1 JUMPDEST DUP2 SLOAD DUP2 MSTORE SWAP1 PUSH1 0x1 ADD SWAP1 PUSH1 0x20 ADD DUP1 DUP4 GT PUSH2 0x456 JUMPI DUP3 SWAP1 SUB PUSH1 0x1F AND DUP3 ADD SWAP2 JUMPDEST POP POP POP POP POP SWAP1 POP SWAP1 JUMP JUMPDEST PUSH0 CALLER PUSH2 0x48A DUP2 DUP6 DUP6 PUSH2 0xBEE JUMP JUMPDEST PUSH1 0x1 SWAP2 POP POP JUMPDEST SWAP3 SWAP2 POP POP JUMP JUMPDEST PUSH0 CALLER PUSH2 0x4A3 DUP6 DUP3 DUP6 PUSH2 0xC00 JUMP JUMPDEST PUSH2 0x4AE DUP6 DUP6 DUP6 PUSH2 0xC7C JUMP JUMPDEST POP PUSH1 0x1 SWAP5 SWAP4 POP POP POP POP JUMP JUMPDEST PUSH2 0x4C1 PUSH2 0xCD9 JUMP JUMPDEST PUSH1 0x1 DUP3 LT ISZERO DUP1 ISZERO PUSH2 0x4D3 JUMPI POP PUSH1 0x6 DUP3 GT ISZERO JUMPDEST PUSH2 0x514 JUMPI PUSH1 0x40 MLOAD PUSH3 0x461BCD PUSH1 0xE5 SHL DUP2 MSTORE PUSH1 0x20 PUSH1 0x4 DUP3 ADD MSTORE PUSH1 0xD PUSH1 0x24 DUP3 ADD MSTORE PUSH13 0x92DCECC2D8D2C840D2DCC8CAF PUSH1 0x9B SHL PUSH1 0x44 DUP3 ADD MSTORE PUSH1 0x64 ADD JUMPDEST PUSH1 0x40 MLOAD DUP1 SWAP2 SUB SWAP1 REVERT JUMPDEST DUP2 PUSH1 0x1 SUB PUSH2 0x53B JUMPI PUSH1 0x8 DUP1 SLOAD PUSH1 0x1 PUSH1 0x1 PUSH1 0xA0 SHL SUB NOT AND PUSH1 0x1 PUSH1 0x1 PUSH1 0xA0 SHL SUB DUP4 AND OR SWAP1 SSTORE POP POP JUMP JUMPDEST DUP2 PUSH1 0x2 SUB PUSH2 0x562 JUMPI PUSH1 0x9 DUP1 SLOAD PUSH1 0x1 PUSH1 0x1 PUSH1 0xA0 SHL SUB NOT AND PUSH1 0x1 PUSH1 0x1 PUSH1 0xA0 SHL SUB DUP4 AND OR SWAP1 SSTORE POP POP JUMP JUMPDEST DUP2 PUSH1 0x3 SUB PUSH2 0x589 JUMPI PUSH1 0xA DUP1 SLOAD PUSH1 0x1 PUSH1 0x1 PUSH1 0xA0 SHL SUB NOT AND PUSH1 0x1 PUSH1 0x1 PUSH1 0xA0 SHL SUB DUP4 AND OR SWAP1 SSTORE POP POP JUMP JUMPDEST DUP2 PUSH1 0x4 SUB PUSH2 0x5B0 JUMPI PUSH1 0xB DUP1 SLOAD PUSH1 0x1 PUSH1 0x1 PUSH1 0xA0 SHL SUB NOT AND PUSH1 0x1 PUSH1 0x1 PUSH1 0xA0 SHL SUB DUP4 AND OR SWAP1 SSTORE POP POP JUMP JUMPDEST DUP2 PUSH1 0x5 SUB PUSH2 0x5D7 JUMPI PUSH1 0xC DUP1 SLOAD PUSH1 0x1 PUSH1 0x1 PUSH1 0xA0 SHL SUB NOT AND PUSH1 0x1 PUSH1 0x1 PUSH1 0xA0 SHL SUB DUP4 AND OR SWAP1 SSTORE POP POP JUMP JUMPDEST DUP2 PUSH1 0x6 SUB PUSH2 0x5FB JUMPI PUSH1 0xD DUP1 SLOAD PUSH1 0x1 PUSH1 0x1 PUSH1 0xA0 SHL SUB NOT AND PUSH1 0x1 PUSH1 0x1 PUSH1 0xA0 SHL SUB DUP4 AND OR SWAP1 SSTORE JUMPDEST POP POP JUMP JUMPDEST PUSH2 0x607 PUSH2 0xCD9 JUMP JUMPDEST PUSH2 0x610 PUSH0 PUSH2 0xD06 JUMP JUMPDEST JUMP JUMPDEST PUSH1 0x60 PUSH1 0x4 DUP1 SLOAD PUSH2 0x3FC SWAP1 PUSH2 0x1073 JUMP JUMPDEST PUSH0 CALLER PUSH2 0x48A DUP2 DUP6 DUP6 PUSH2 0xC7C JUMP JUMPDEST PUSH0 DUP1 PUSH0 DUP1 PUSH1 0x6 SLOAD PUSH1 0x1 PUSH2 0x641 SWAP2 SWAP1 PUSH2 0x10BF JUMP JUMPDEST SWAP1 POP PUSH1 0x3 DUP2 GT PUSH2 0x68B JUMPI PUSH2 0x3E8 PUSH2 0x66F PUSH8 0x6765C793FA10079D PUSH1 0x1B SHL PUSH12 0x204FCE5E3E25026110000000 PUSH2 0x10D2 JUMP JUMPDEST PUSH2 0x67A SWAP1 PUSH1 0x5 PUSH2 0x10E5 JUMP JUMPDEST PUSH2 0x684 SWAP2 SWAP1 PUSH2 0x10FC JUMP JUMPDEST SWAP3 POP PUSH2 0x732 JUMP JUMPDEST PUSH1 0x6 DUP2 GT PUSH2 0x6C1 JUMPI PUSH1 0x64 PUSH2 0x6B6 PUSH8 0x6765C793FA10079D PUSH1 0x1B SHL PUSH12 0x204FCE5E3E25026110000000 PUSH2 0x10D2 JUMP JUMPDEST PUSH2 0x67A SWAP1 PUSH1 0x1 PUSH2 0x10E5 JUMP JUMPDEST PUSH1 0x9 DUP2 GT PUSH2 0x6F7 JUMPI PUSH1 0x64 PUSH2 0x6EC PUSH8 0x6765C793FA10079D PUSH1 0x1B SHL PUSH12 0x204FCE5E3E25026110000000 PUSH2 0x10D2 JUMP JUMPDEST PUSH2 0x67A SWAP1 PUSH1 0x2 PUSH2 0x10E5 JUMP JUMPDEST PUSH1 0x64 PUSH2 0x71A PUSH8 0x6765C793FA10079D PUSH1 0x1B SHL PUSH12 0x204FCE5E3E25026110000000 PUSH2 0x10D2 JUMP JUMPDEST PUSH2 0x725 SWAP1 PUSH1 0x3 PUSH2 0x10E5 JUMP JUMPDEST PUSH2 0x72F SWAP2 SWAP1 PUSH2 0x10FC JUMP JUMPDEST SWAP3 POP JUMPDEST PUSH2 0x753 PUSH8 0x6765C793FA10079D PUSH1 0x1B SHL PUSH12 0x204FCE5E3E25026110000000 PUSH2 0x10D2 JUMP JUMPDEST PUSH1 0x7 SLOAD PUSH2 0x760 SWAP1 DUP6 PUSH2 0x10BF JUMP JUMPDEST GT ISZERO PUSH2 0x797 JUMPI PUSH1 0x7 SLOAD PUSH2 0x78A PUSH8 0x6765C793FA10079D PUSH1 0x1B SHL PUSH12 0x204FCE5E3E25026110000000 PUSH2 0x10D2 JUMP JUMPDEST PUSH2 0x794 SWAP2 SWAP1 PUSH2 0x10D2 JUMP JUMPDEST SWAP3 POP JUMPDEST DUP1 DUP4 PUSH2 0x7A4 PUSH1 0x6 DUP3 PUSH2 0x10FC JUMP JUMPDEST SWAP4 POP SWAP4 POP SWAP4 POP POP SWAP1 SWAP2 SWAP3 JUMP JUMPDEST PUSH2 0x7D1 PUSH8 0x6765C793FA10079D PUSH1 0x1B SHL PUSH12 0x204FCE5E3E25026110000000 PUSH2 0x10D2 JUMP JUMPDEST DUP2 JUMP JUMPDEST PUSH2 0x7DC PUSH2 0xCD9 JUMP JUMPDEST PUSH1 0x1 PUSH1 0x1 PUSH1 0xA0 SHL SUB DUP2 AND PUSH2 0x805 JUMPI PUSH1 0x40 MLOAD PUSH4 0x1E4FBDF7 PUSH1 0xE0 SHL DUP2 MSTORE PUSH0 PUSH1 0x4 DUP3 ADD MSTORE PUSH1 0x24 ADD PUSH2 0x50B JUMP JUMPDEST PUSH2 0x80E DUP2 PUSH2 0xD06 JUMP JUMPDEST POP JUMP JUMPDEST PUSH2 0x819 PUSH2 0xCD9 JUMP JUMPDEST PUSH2 0x83A PUSH8 0x6765C793FA10079D PUSH1 0x1B SHL PUSH12 0x204FCE5E3E25026110000000 PUSH2 0x10D2 JUMP JUMPDEST PUSH1 0x7 SLOAD LT PUSH2 0x88A JUMPI PUSH1 0x40 MLOAD PUSH3 0x461BCD PUSH1 0xE5 SHL DUP2 MSTORE PUSH1 0x20 PUSH1 0x4 DUP3 ADD MSTORE PUSH1 0x1B PUSH1 0x24 DUP3 ADD MSTORE PUSH32 0x416C6C20746F6B656E7320616C726561647920756E6C6F636B65640000000000 PUSH1 0x44 DUP3 ADD MSTORE PUSH1 0x64 ADD PUSH2 0x50B JUMP JUMPDEST PUSH0 PUSH3 0x278D00 PUSH2 0x8B9 PUSH32 0x0 TIMESTAMP PUSH2 0x10D2 JUMP JUMPDEST PUSH2 0x8C3 SWAP2 SWAP1 PUSH2 0x10FC JUMP JUMPDEST SWAP1 POP PUSH1 0x6 SLOAD DUP2 GT PUSH2 0x90F JUMPI PUSH1 0x40 MLOAD PUSH3 0x461BCD PUSH1 0xE5 SHL DUP2 MSTORE PUSH1 0x20 PUSH1 0x4 DUP3 ADD MSTORE PUSH1 0x16 PUSH1 0x24 DUP3 ADD MSTORE PUSH22 0x4E6F206E6577206D6F6E746820746F20756E6C6F636B PUSH1 0x50 SHL PUSH1 0x44 DUP3 ADD MSTORE PUSH1 0x64 ADD PUSH2 0x50B JUMP JUMPDEST PUSH0 DUP1 PUSH1 0x6 SLOAD PUSH1 0x1 PUSH2 0x920 SWAP2 SWAP1 PUSH2 0x10BF JUMP JUMPDEST SWAP1 POP JUMPDEST DUP3 DUP2 GT PUSH2 0xA3F JUMPI PUSH1 0x3 DUP2 GT PUSH2 0x97C JUMPI PUSH2 0x3E8 PUSH2 0x956 PUSH8 0x6765C793FA10079D PUSH1 0x1B SHL PUSH12 0x204FCE5E3E25026110000000 PUSH2 0x10D2 JUMP JUMPDEST PUSH2 0x961 SWAP1 PUSH1 0x5 PUSH2 0x10E5 JUMP JUMPDEST PUSH2 0x96B SWAP2 SWAP1 PUSH2 0x10FC JUMP JUMPDEST PUSH2 0x975 SWAP1 DUP4 PUSH2 0x10BF JUMP JUMPDEST SWAP2 POP PUSH2 0xA2D JUMP JUMPDEST PUSH1 0x6 DUP2 GT PUSH2 0x9B2 JUMPI PUSH1 0x64 PUSH2 0x9A7 PUSH8 0x6765C793FA10079D PUSH1 0x1B SHL PUSH12 0x204FCE5E3E25026110000000 PUSH2 0x10D2 JUMP JUMPDEST PUSH2 0x961 SWAP1 PUSH1 0x1 PUSH2 0x10E5 JUMP JUMPDEST PUSH1 0x9 DUP2 GT PUSH2 0x9E8 JUMPI PUSH1 0x64 PUSH2 0x9DD PUSH8 0x6765C793FA10079D PUSH1 0x1B SHL PUSH12 0x204FCE5E3E25026110000000 PUSH2 0x10D2 JUMP JUMPDEST PUSH2 0x961 SWAP1 PUSH1 0x2 PUSH2 0x10E5 JUMP JUMPDEST PUSH1 0x64 PUSH2 0xA0B PUSH8 0x6765C793FA10079D PUSH1 0x1B SHL PUSH12 0x204FCE5E3E25026110000000 PUSH2 0x10D2 JUMP JUMPDEST PUSH2 0xA16 SWAP1 PUSH1 0x3 PUSH2 0x10E5 JUMP JUMPDEST PUSH2 0xA20 SWAP2 SWAP1 PUSH2 0x10FC JUMP JUMPDEST PUSH2 0xA2A SWAP1 DUP4 PUSH2 0x10BF JUMP JUMPDEST SWAP2 POP JUMPDEST DUP1 PUSH2 0xA37 DUP2 PUSH2 0x111B JUMP JUMPDEST SWAP2 POP POP PUSH2 0x923 JUMP JUMPDEST POP PUSH2 0xA61 PUSH8 0x6765C793FA10079D PUSH1 0x1B SHL PUSH12 0x204FCE5E3E25026110000000 PUSH2 0x10D2 JUMP JUMPDEST PUSH1 0x7 SLOAD PUSH2 0xA6E SWAP1 DUP4 PUSH2 0x10BF JUMP JUMPDEST GT ISZERO PUSH2 0xAA5 JUMPI PUSH1 0x7 SLOAD PUSH2 0xA98 PUSH8 0x6765C793FA10079D PUSH1 0x1B SHL PUSH12 0x204FCE5E3E25026110000000 PUSH2 0x10D2 JUMP JUMPDEST PUSH2 0xAA2 SWAP2 SWAP1 PUSH2 0x10D2 JUMP JUMPDEST SWAP1 POP JUMPDEST PUSH0 DUP2 GT PUSH2 0xAE8 JUMPI PUSH1 0x40 MLOAD PUSH3 0x461BCD PUSH1 0xE5 SHL DUP2 MSTORE PUSH1 0x20 PUSH1 0x4 DUP3 ADD MSTORE PUSH1 0x11 PUSH1 0x24 DUP3 ADD MSTORE PUSH17 0x4E6F7468696E6720746F20756E6C6F636B PUSH1 0x78 SHL PUSH1 0x44 DUP3 ADD MSTORE PUSH1 0x64 ADD PUSH2 0x50B JUMP JUMPDEST DUP2 PUSH1 0x6 DUP2 SWAP1 SSTORE POP DUP1 PUSH1 0x7 PUSH0 DUP3 DUP3 SLOAD PUSH2 0xB00 SWAP2 SWAP1 PUSH2 0x10BF JUMP JUMPDEST SWAP1 SWAP2 SSTORE POP PUSH0 SWAP1 POP PUSH2 0xB12 PUSH1 0x6 DUP4 PUSH2 0x10FC JUMP JUMPDEST PUSH1 0x8 SLOAD SWAP1 SWAP2 POP PUSH2 0xB2D SWAP1 ADDRESS SWAP1 PUSH1 0x1 PUSH1 0x1 PUSH1 0xA0 SHL SUB AND DUP4 PUSH2 0xC7C JUMP JUMPDEST PUSH1 0x9 SLOAD PUSH2 0xB45 SWAP1 ADDRESS SWAP1 PUSH1 0x1 PUSH1 0x1 PUSH1 0xA0 SHL SUB AND DUP4 PUSH2 0xC7C JUMP JUMPDEST PUSH1 0xA SLOAD PUSH2 0xB5D SWAP1 ADDRESS SWAP1 PUSH1 0x1 PUSH1 0x1 PUSH1 0xA0 SHL SUB AND DUP4 PUSH2 0xC7C JUMP JUMPDEST PUSH1 0xB SLOAD PUSH2 0xB75 SWAP1 ADDRESS SWAP1 PUSH1 0x1 PUSH1 0x1 PUSH1 0xA0 SHL SUB AND DUP4 PUSH2 0xC7C JUMP JUMPDEST PUSH1 0xC SLOAD PUSH2 0xB8D SWAP1 ADDRESS SWAP1 PUSH1 0x1 PUSH1 0x1 PUSH1 0xA0 SHL SUB AND DUP4 PUSH2 0xC7C JUMP JUMPDEST PUSH1 0xD SLOAD PUSH2 0xBA5 SWAP1 ADDRESS SWAP1 PUSH1 0x1 PUSH1 0x1 PUSH1 0xA0 SHL SUB AND DUP4 PUSH2 0xC7C JUMP JUMPDEST PUSH1 0x6 SLOAD PUSH1 0x7 SLOAD PUSH1 0x40 DUP1 MLOAD SWAP3 DUP4 MSTORE PUSH1 0x20 DUP4 ADD DUP5 SWAP1 MSTORE DUP3 ADD MSTORE PUSH32 0xD5C1E53FEBF89038959691E212F7A18F34F9AC92DD9965A138CCFC695E9774AC SWAP1 PUSH1 0x60 ADD PUSH1 0x40 MLOAD DUP1 SWAP2 SUB SWAP1 LOG1 POP POP POP JUMP JUMPDEST PUSH2 0xBFB DUP4 DUP4 DUP4 PUSH1 0x1 PUSH2 0xD57 JUMP JUMPDEST POP POP POP JUMP JUMPDEST PUSH1 0x1 PUSH1 0x1 PUSH1 0xA0 SHL SUB DUP4 DUP2 AND PUSH0 SWAP1 DUP2 MSTORE PUSH1 0x1 PUSH1 0x20 SWAP1 DUP2 MSTORE PUSH1 0x40 DUP1 DUP4 KECCAK256 SWAP4 DUP7 AND DUP4 MSTORE SWAP3 SWAP1 MSTORE KECCAK256 SLOAD PUSH0 NOT DUP2 LT ISZERO PUSH2 0xC76 JUMPI DUP2 DUP2 LT ISZERO PUSH2 0xC68 JUMPI PUSH1 0x40 MLOAD PUSH4 0x7DC7A0D9 PUSH1 0xE1 SHL DUP2 MSTORE PUSH1 0x1 PUSH1 0x1 PUSH1 0xA0 SHL SUB DUP5 AND PUSH1 0x4 DUP3 ADD MSTORE PUSH1 0x24 DUP2 ADD DUP3 SWAP1 MSTORE PUSH1 0x44 DUP2 ADD DUP4 SWAP1 MSTORE PUSH1 0x64 ADD PUSH2 0x50B JUMP JUMPDEST PUSH2 0xC76 DUP5 DUP5 DUP5 DUP5 SUB PUSH0 PUSH2 0xD57 JUMP JUMPDEST POP POP POP POP JUMP JUMPDEST PUSH1 0x1 PUSH1 0x1 PUSH1 0xA0 SHL SUB DUP4 AND PUSH2 0xCA5 JUMPI PUSH1 0x40 MLOAD PUSH4 0x4B637E8F PUSH1 0xE1 SHL DUP2 MSTORE PUSH0 PUSH1 0x4 DUP3 ADD MSTORE PUSH1 0x24 ADD PUSH2 0x50B JUMP JUMPDEST PUSH1 0x1 PUSH1 0x1 PUSH1 0xA0 SHL SUB DUP3 AND PUSH2 0xCCE JUMPI PUSH1 0x40 MLOAD PUSH4 0xEC442F05 PUSH1 0xE0 SHL DUP2 MSTORE PUSH0 PUSH1 0x4 DUP3 ADD MSTORE PUSH1 0x24 ADD PUSH2 0x50B JUMP JUMPDEST PUSH2 0xBFB DUP4 DUP4 DUP4 PUSH2 0xE29 JUMP JUMPDEST PUSH1 0x5 SLOAD PUSH1 0x1 PUSH1 0x1 PUSH1 0xA0 SHL SUB AND CALLER EQ PUSH2 0x610 JUMPI PUSH1 0x40 MLOAD PUSH4 0x118CDAA7 PUSH1 0xE0 SHL DUP2 MSTORE CALLER PUSH1 0x4 DUP3 ADD MSTORE PUSH1 0x24 ADD PUSH2 0x50B JUMP JUMPDEST PUSH1 0x5 DUP1 SLOAD PUSH1 0x1 PUSH1 0x1 PUSH1 0xA0 SHL SUB DUP4 DUP2 AND PUSH1 0x1 PUSH1 0x1 PUSH1 0xA0 SHL SUB NOT DUP4 AND DUP2 OR SWAP1 SWAP4 SSTORE PUSH1 0x40 MLOAD SWAP2 AND SWAP2 SWAP1 DUP3 SWAP1 PUSH32 0x8BE0079C531659141344CD1FD0A4F28419497F9722A3DAAFE3B4186F6B6457E0 SWAP1 PUSH0 SWAP1 LOG3 POP POP JUMP JUMPDEST PUSH1 0x1 PUSH1 0x1 PUSH1 0xA0 SHL SUB DUP5 AND PUSH2 0xD80 JUMPI PUSH1 0x40 MLOAD PUSH4 0xE602DF05 PUSH1 0xE0 SHL DUP2 MSTORE PUSH0 PUSH1 0x4 DUP3 ADD MSTORE PUSH1 0x24 ADD PUSH2 0x50B JUMP JUMPDEST PUSH1 0x1 PUSH1 0x1 PUSH1 0xA0 SHL SUB DUP4 AND PUSH2 0xDA9 JUMPI PUSH1 0x40 MLOAD PUSH4 0x4A1406B1 PUSH1 0xE1 SHL DUP2 MSTORE PUSH0 PUSH1 0x4 DUP3 ADD MSTORE PUSH1 0x24 ADD PUSH2 0x50B JUMP JUMPDEST PUSH1 0x1 PUSH1 0x1 PUSH1 0xA0 SHL SUB DUP1 DUP6 AND PUSH0 SWAP1 DUP2 MSTORE PUSH1 0x1 PUSH1 0x20 SWAP1 DUP2 MSTORE PUSH1 0x40 DUP1 DUP4 KECCAK256 SWAP4 DUP8 AND DUP4 MSTORE SWAP3 SWAP1 MSTORE KECCAK256 DUP3 SWAP1 SSTORE DUP1 ISZERO PUSH2 0xC76 JUMPI DUP3 PUSH1 0x1 PUSH1 0x1 PUSH1 0xA0 SHL SUB AND DUP5 PUSH1 0x1 PUSH1 0x1 PUSH1 0xA0 SHL SUB AND PUSH32 0x8C5BE1E5EBEC7D5BD14F71427D1E84F3DD0314C0F7B2291E5B200AC8C7C3B925 DUP5 PUSH1 0x40 MLOAD PUSH2 0xE1B SWAP2 DUP2 MSTORE PUSH1 0x20 ADD SWAP1 JUMP JUMPDEST PUSH1 0x40 MLOAD DUP1 SWAP2 SUB SWAP1 LOG3 POP POP POP POP JUMP JUMPDEST PUSH1 0x1 PUSH1 0x1 PUSH1 0xA0 SHL SUB DUP4 AND PUSH2 0xE53 JUMPI DUP1 PUSH1 0x2 PUSH0 DUP3 DUP3 SLOAD PUSH2 0xE48 SWAP2 SWAP1 PUSH2 0x10BF JUMP JUMPDEST SWAP1 SWAP2 SSTORE POP PUSH2 0xEC3 SWAP1 POP JUMP JUMPDEST PUSH1 0x1 PUSH1 0x1 PUSH1 0xA0 SHL SUB DUP4 AND PUSH0 SWAP1 DUP2 MSTORE PUSH1 0x20 DUP2 SWAP1 MSTORE PUSH1 0x40 SWAP1 KECCAK256 SLOAD DUP2 DUP2 LT ISZERO PUSH2 0xEA5 JUMPI PUSH1 0x40 MLOAD PUSH4 0x391434E3 PUSH1 0xE2 SHL DUP2 MSTORE PUSH1 0x1 PUSH1 0x1 PUSH1 0xA0 SHL SUB DUP6 AND PUSH1 0x4 DUP3 ADD MSTORE PUSH1 0x24 DUP2 ADD DUP3 SWAP1 MSTORE PUSH1 0x44 DUP2 ADD DUP4 SWAP1 MSTORE PUSH1 0x64 ADD PUSH2 0x50B JUMP JUMPDEST PUSH1 0x1 PUSH1 0x1 PUSH1 0xA0 SHL SUB DUP5 AND PUSH0 SWAP1 DUP2 MSTORE PUSH1 0x20 DUP2 SWAP1 MSTORE PUSH1 0x40 SWAP1 KECCAK256 SWAP1 DUP3 SWAP1 SUB SWAP1 SSTORE JUMPDEST PUSH1 0x1 PUSH1 0x1 PUSH1 0xA0 SHL SUB DUP3 AND PUSH2 0xEDF JUMPI PUSH1 0x2 DUP1 SLOAD DUP3 SWAP1 SUB SWAP1 SSTORE PUSH2 0xEFD JUMP JUMPDEST PUSH1 0x1 PUSH1 0x1 PUSH1 0xA0 SHL SUB DUP3 AND PUSH0 SWAP1 DUP2 MSTORE PUSH1 0x20 DUP2 SWAP1 MSTORE PUSH1 0x40 SWAP1 KECCAK256 DUP1 SLOAD DUP3 ADD SWAP1 SSTORE JUMPDEST DUP2 PUSH1 0x1 PUSH1 0x1 PUSH1 0xA0 SHL SUB AND DUP4 PUSH1 0x1 PUSH1 0x1 PUSH1 0xA0 SHL SUB AND PUSH32 0xDDF252AD1BE2C89B69C2B068FC378DAA952BA7F163C4A11628F55A4DF523B3EF DUP4 PUSH1 0x40 MLOAD PUSH2 0xF42 SWAP2 DUP2 MSTORE PUSH1 0x20 ADD SWAP1 JUMP JUMPDEST PUSH1 0x40 MLOAD DUP1 SWAP2 SUB SWAP1 LOG3 POP POP POP JUMP JUMPDEST PUSH1 0x20 DUP2 MSTORE PUSH0 DUP3 MLOAD DUP1 PUSH1 0x20 DUP5 ADD MSTORE DUP1 PUSH1 0x20 DUP6 ADD PUSH1 0x40 DUP6 ADD MCOPY PUSH0 PUSH1 0x40 DUP3 DUP6 ADD ADD MSTORE PUSH1 0x40 PUSH1 0x1F NOT PUSH1 0x1F DUP4 ADD AND DUP5 ADD ADD SWAP2 POP POP SWAP3 SWAP2 POP POP JUMP JUMPDEST DUP1 CALLDATALOAD PUSH1 0x1 PUSH1 0x1 PUSH1 0xA0 SHL SUB DUP2 AND DUP2 EQ PUSH2 0xF9A JUMPI PUSH0 DUP1 REVERT JUMPDEST SWAP2 SWAP1 POP JUMP JUMPDEST PUSH0 DUP1 PUSH1 0x40 DUP4 DUP6 SUB SLT ISZERO PUSH2 0xFB0 JUMPI PUSH0 DUP1 REVERT JUMPDEST PUSH2 0xFB9 DUP4 PUSH2 0xF84 JUMP JUMPDEST SWAP5 PUSH1 0x20 SWAP4 SWAP1 SWAP4 ADD CALLDATALOAD SWAP4 POP POP POP JUMP JUMPDEST PUSH0 DUP1 PUSH0 PUSH1 0x60 DUP5 DUP7 SUB SLT ISZERO PUSH2 0xFD9 JUMPI PUSH0 DUP1 REVERT JUMPDEST PUSH2 0xFE2 DUP5 PUSH2 0xF84 JUMP JUMPDEST SWAP3 POP PUSH2 0xFF0 PUSH1 0x20 DUP6 ADD PUSH2 0xF84 JUMP JUMPDEST SWAP3 SWAP6 SWAP3 SWAP5 POP POP POP PUSH1 0x40 SWAP2 SWAP1 SWAP2 ADD CALLDATALOAD SWAP1 JUMP JUMPDEST PUSH0 DUP1 PUSH1 0x40 DUP4 DUP6 SUB SLT ISZERO PUSH2 0x1012 JUMPI PUSH0 DUP1 REVERT JUMPDEST DUP3 CALLDATALOAD SWAP2 POP PUSH2 0x1022 PUSH1 0x20 DUP5 ADD PUSH2 0xF84 JUMP JUMPDEST SWAP1 POP SWAP3 POP SWAP3 SWAP1 POP JUMP JUMPDEST PUSH0 PUSH1 0x20 DUP3 DUP5 SUB SLT ISZERO PUSH2 0x103B JUMPI PUSH0 DUP1 REVERT JUMPDEST PUSH2 0x1044 DUP3 PUSH2 0xF84 JUMP JUMPDEST SWAP4 SWAP3 POP POP POP JUMP JUMPDEST PUSH0 DUP1 PUSH1 0x40 DUP4 DUP6 SUB SLT ISZERO PUSH2 0x105C JUMPI PUSH0 DUP1 REVERT JUMPDEST PUSH2 0x1065 DUP4 PUSH2 0xF84 JUMP JUMPDEST SWAP2 POP PUSH2 0x1022 PUSH1 0x20 DUP5 ADD PUSH2 0xF84 JUMP JUMPDEST PUSH1 0x1 DUP2 DUP2 SHR SWAP1 DUP3 AND DUP1 PUSH2 0x1087 JUMPI PUSH1 0x7F DUP3 AND SWAP2 POP JUMPDEST PUSH1 0x20 DUP3 LT DUP2 SUB PUSH2 0x10A5 JUMPI PUSH4 0x4E487B71 PUSH1 0xE0 SHL PUSH0 MSTORE PUSH1 0x22 PUSH1 0x4 MSTORE PUSH1 0x24 PUSH0 REVERT JUMPDEST POP SWAP2 SWAP1 POP JUMP JUMPDEST PUSH4 0x4E487B71 PUSH1 0xE0 SHL PUSH0 MSTORE PUSH1 0x11 PUSH1 0x4 MSTORE PUSH1 0x24 PUSH0 REVERT JUMPDEST DUP1 DUP3 ADD DUP1 DUP3 GT ISZERO PUSH2 0x490 JUMPI PUSH2 0x490 PUSH2 0x10AB JUMP JUMPDEST DUP2 DUP2 SUB DUP2 DUP2 GT ISZERO PUSH2 0x490 JUMPI PUSH2 0x490 PUSH2 0x10AB JUMP JUMPDEST DUP1 DUP3 MUL DUP2 ISZERO DUP3 DUP3 DIV DUP5 EQ OR PUSH2 0x490 JUMPI PUSH2 0x490 PUSH2 0x10AB JUMP JUMPDEST PUSH0 DUP3 PUSH2 0x1116 JUMPI PUSH4 0x4E487B71 PUSH1 0xE0 SHL PUSH0 MSTORE PUSH1 0x12 PUSH1 0x4 MSTORE PUSH1 0x24 PUSH0 REVERT JUMPDEST POP DIV SWAP1 JUMP JUMPDEST PUSH0 PUSH1 0x1 DUP3 ADD PUSH2 0x112C JUMPI PUSH2 0x112C PUSH2 0x10AB JUMP JUMPDEST POP PUSH1 0x1 ADD SWAP1 JUMP INVALID LOG2 PUSH5 0x6970667358 0x22 SLT KECCAK256 0x4F POP 0xD3 SSTORE JUMPDEST ISZERO 0xDF 0x4C 0xD3 PUSH18 0xFD98E7F80921811010DAED5A59B573C3B086 0x4E SWAP11 0xBC LOG3 PUSH5 0x736F6C6343 STOP ADDMOD BYTE STOP CALLER "
				},
				"gasEstimates": {
					"creation": {
						"codeDepositCost": "891400",
						"executionCost": "infinite",
						"totalCost": "infinite"
					},
					"external": {
						"LOCKED_SUPPLY()": "350",
						"PUBLIC_SUPPLY()": "311",
						"TOTAL_SUPPLY()": "262",
						"allowance(address,address)": "infinite",
						"approve(address,uint256)": "24780",
						"awardBonus()": "2414",
						"balanceOf(address)": "2582",
						"decimals()": "244",
						"gameTreasury()": "2392",
						"getNextUnlockInfo()": "infinite",
						"lastUnlockMonth()": "2383",
						"liquidityListing()": "2415",
						"marketing()": "2371",
						"name()": "infinite",
						"owner()": "2365",
						"referralBonus()": "2370",
						"renounceOwnership()": "infinite",
						"stakingReward()": "2349",
						"startTimestamp()": "infinite",
						"symbol()": "infinite",
						"totalSupply()": "2370",
						"totalUnlocked()": "2339",
						"transfer(address,uint256)": "51283",
						"transferFrom(address,address,uint256)": "infinite",
						"transferOwnership(address)": "28421",
						"unlockTokens()": "infinite",
						"updateDistributionAddress(uint256,address)": "27080"
					}
				},
				"methodIdentifiers": {
					"LOCKED_SUPPLY()": "e8be9a44",
					"PUBLIC_SUPPLY()": "8342083a",
					"TOTAL_SUPPLY()": "902d55a5",
					"allowance(address,address)": "dd62ed3e",
					"approve(address,uint256)": "095ea7b3",
					"awardBonus()": "b361412a",
					"balanceOf(address)": "70a08231",
					"decimals()": "313ce567",
					"gameTreasury()": "d2f9efab",
					"getNextUnlockInfo()": "be381b85",
					"lastUnlockMonth()": "8310a74d",
					"liquidityListing()": "67859b6e",
					"marketing()": "2d3e474a",
					"name()": "06fdde03",
					"owner()": "8da5cb5b",
					"referralBonus()": "ce7842f5",
					"renounceOwnership()": "715018a6",
					"stakingReward()": "042249bb",
					"startTimestamp()": "e6fd48bc",
					"symbol()": "95d89b41",
					"totalSupply()": "18160ddd",
					"totalUnlocked()": "a779d080",
					"transfer(address,uint256)": "a9059cbb",
					"transferFrom(address,address,uint256)": "23b872dd",
					"transferOwnership(address)": "f2fde38b",
					"unlockTokens()": "f968f493",
					"updateDistributionAddress(uint256,address)": "2be8781f"
				}
			},
			"storageLayout": {
				"storage": [
					{
						"astId": 307,
						"contract": "src/assets/BBD_Token.sol:BBDToken",
						"label": "_balances",
						"offset": 0,
						"slot": "0",
						"type": "t_mapping(t_address,t_uint256)"
					},
					{
						"astId": 313,
						"contract": "src/assets/BBD_Token.sol:BBDToken",
						"label": "_allowances",
						"offset": 0,
						"slot": "1",
						"type": "t_mapping(t_address,t_mapping(t_address,t_uint256))"
					},
					{
						"astId": 315,
						"contract": "src/assets/BBD_Token.sol:BBDToken",
						"label": "_totalSupply",
						"offset": 0,
						"slot": "2",
						"type": "t_uint256"
					},
					{
						"astId": 317,
						"contract": "src/assets/BBD_Token.sol:BBDToken",
						"label": "_name",
						"offset": 0,
						"slot": "3",
						"type": "t_string_storage"
					},
					{
						"astId": 319,
						"contract": "src/assets/BBD_Token.sol:BBDToken",
						"label": "_symbol",
						"offset": 0,
						"slot": "4",
						"type": "t_string_storage"
					},
					{
						"astId": 8,
						"contract": "src/assets/BBD_Token.sol:BBDToken",
						"label": "_owner",
						"offset": 0,
						"slot": "5",
						"type": "t_address"
					},
					{
						"astId": 960,
						"contract": "src/assets/BBD_Token.sol:BBDToken",
						"label": "lastUnlockMonth",
						"offset": 0,
						"slot": "6",
						"type": "t_uint256"
					},
					{
						"astId": 962,
						"contract": "src/assets/BBD_Token.sol:BBDToken",
						"label": "totalUnlocked",
						"offset": 0,
						"slot": "7",
						"type": "t_uint256"
					},
					{
						"astId": 965,
						"contract": "src/assets/BBD_Token.sol:BBDToken",
						"label": "liquidityListing",
						"offset": 0,
						"slot": "8",
						"type": "t_address"
					},
					{
						"astId": 968,
						"contract": "src/assets/BBD_Token.sol:BBDToken",
						"label": "gameTreasury",
						"offset": 0,
						"slot": "9",
						"type": "t_address"
					},
					{
						"astId": 971,
						"contract": "src/assets/BBD_Token.sol:BBDToken",
						"label": "marketing",
						"offset": 0,
						"slot": "10",
						"type": "t_address"
					},
					{
						"astId": 974,
						"contract": "src/assets/BBD_Token.sol:BBDToken",
						"label": "stakingReward",
						"offset": 0,
						"slot": "11",
						"type": "t_address"
					},
					{
						"astId": 977,
						"contract": "src/assets/BBD_Token.sol:BBDToken",
						"label": "referralBonus",
						"offset": 0,
						"slot": "12",
						"type": "t_address"
					},
					{
						"astId": 980,
						"contract": "src/assets/BBD_Token.sol:BBDToken",
						"label": "awardBonus",
						"offset": 0,
						"slot": "13",
						"type": "t_address"
					}
				],
				"types": {
					"t_address": {
						"encoding": "inplace",
						"label": "address",
						"numberOfBytes": "20"
					},
					"t_mapping(t_address,t_mapping(t_address,t_uint256))": {
						"encoding": "mapping",
						"key": "t_address",
						"label": "mapping(address => mapping(address => uint256))",
						"numberOfBytes": "32",
						"value": "t_mapping(t_address,t_uint256)"
					},
					"t_mapping(t_address,t_uint256)": {
						"encoding": "mapping",
						"key": "t_address",
						"label": "mapping(address => uint256)",
						"numberOfBytes": "32",
						"value": "t_uint256"
					},
					"t_string_storage": {
						"encoding": "bytes",
						"label": "string",
						"numberOfBytes": "32"
					},
					"t_uint256": {
						"encoding": "inplace",
						"label": "uint256",
						"numberOfBytes": "32"
					}
				}
			},
			"userdoc": {
				"kind": "user",
				"methods": {},
				"version": 1
			}
		}
	}
}