{
	"src/assets/BBD_Token_flattened.sol": {
		"BBDToken": {
			"abi": [
				{
					"inputs": [],
					"stateMutability": "nonpayable",
					"type": "constructor"
				},
				{
					"inputs": [
						{
							"internalType": "address",
							"name": "spender",
							"type": "address"
						},
						{
							"internalType": "uint256",
							"name": "allowance",
							"type": "uint256"
						},
						{
							"internalType": "uint256",
							"name": "needed",
							"type": "uint256"
						}
					],
					"name": "ERC20InsufficientAllowance",
					"type": "error"
				},
				{
					"inputs": [
						{
							"internalType": "address",
							"name": "sender",
							"type": "address"
						},
						{
							"internalType": "uint256",
							"name": "balance",
							"type": "uint256"
						},
						{
							"internalType": "uint256",
							"name": "needed",
							"type": "uint256"
						}
					],
					"name": "ERC20InsufficientBalance",
					"type": "error"
				},
				{
					"inputs": [
						{
							"internalType": "address",
							"name": "approver",
							"type": "address"
						}
					],
					"name": "ERC20InvalidApprover",
					"type": "error"
				},
				{
					"inputs": [
						{
							"internalType": "address",
							"name": "receiver",
							"type": "address"
						}
					],
					"name": "ERC20InvalidReceiver",
					"type": "error"
				},
				{
					"inputs": [
						{
							"internalType": "address",
							"name": "sender",
							"type": "address"
						}
					],
					"name": "ERC20InvalidSender",
					"type": "error"
				},
				{
					"inputs": [
						{
							"internalType": "address",
							"name": "spender",
							"type": "address"
						}
					],
					"name": "ERC20InvalidSpender",
					"type": "error"
				},
				{
					"anonymous": false,
					"inputs": [
						{
							"indexed": true,
							"internalType": "address",
							"name": "owner",
							"type": "address"
						},
						{
							"indexed": true,
							"internalType": "address",
							"name": "spender",
							"type": "address"
						},
						{
							"indexed": false,
							"internalType": "uint256",
							"name": "value",
							"type": "uint256"
						}
					],
					"name": "Approval",
					"type": "event"
				},
				{
					"anonymous": false,
					"inputs": [
						{
							"indexed": false,
							"internalType": "uint256",
							"name": "month",
							"type": "uint256"
						},
						{
							"indexed": false,
							"internalType": "uint256",
							"name": "amountPerWallet",
							"type": "uint256"
						},
						{
							"indexed": false,
							"internalType": "uint256",
							"name": "totalUnlocked",
							"type": "uint256"
						}
					],
					"name": "TokensUnlocked",
					"type": "event"
				},
				{
					"anonymous": false,
					"inputs": [
						{
							"indexed": true,
							"internalType": "address",
							"name": "from",
							"type": "address"
						},
						{
							"indexed": true,
							"internalType": "address",
							"name": "to",
							"type": "address"
						},
						{
							"indexed": false,
							"internalType": "uint256",
							"name": "value",
							"type": "uint256"
						}
					],
					"name": "Transfer",
					"type": "event"
				},
				{
					"inputs": [],
					"name": "LOCKED_SUPPLY",
					"outputs": [
						{
							"internalType": "uint256",
							"name": "",
							"type": "uint256"
						}
					],
					"stateMutability": "view",
					"type": "function"
				},
				{
					"inputs": [],
					"name": "PUBLIC_SUPPLY",
					"outputs": [
						{
							"internalType": "uint256",
							"name": "",
							"type": "uint256"
						}
					],
					"stateMutability": "view",
					"type": "function"
				},
				{
					"inputs": [],
					"name": "TOTAL_SUPPLY",
					"outputs": [
						{
							"internalType": "uint256",
							"name": "",
							"type": "uint256"
						}
					],
					"stateMutability": "view",
					"type": "function"
				},
				{
					"inputs": [
						{
							"internalType": "address",
							"name": "owner",
							"type": "address"
						},
						{
							"internalType": "address",
							"name": "spender",
							"type": "address"
						}
					],
					"name": "allowance",
					"outputs": [
						{
							"internalType": "uint256",
							"name": "",
							"type": "uint256"
						}
					],
					"stateMutability": "view",
					"type": "function"
				},
				{
					"inputs": [
						{
							"internalType": "address",
							"name": "spender",
							"type": "address"
						},
						{
							"internalType": "uint256",
							"name": "value",
							"type": "uint256"
						}
					],
					"name": "approve",
					"outputs": [
						{
							"internalType": "bool",
							"name": "",
							"type": "bool"
						}
					],
					"stateMutability": "nonpayable",
					"type": "function"
				},
				{
					"inputs": [],
					"name": "awardBonus",
					"outputs": [
						{
							"internalType": "address",
							"name": "",
							"type": "address"
						}
					],
					"stateMutability": "view",
					"type": "function"
				},
				{
					"inputs": [
						{
							"internalType": "address",
							"name": "account",
							"type": "address"
						}
					],
					"name": "balanceOf",
					"outputs": [
						{
							"internalType": "uint256",
							"name": "",
							"type": "uint256"
						}
					],
					"stateMutability": "view",
					"type": "function"
				},
				{
					"inputs": [],
					"name": "buyingEnabled",
					"outputs": [
						{
							"internalType": "bool",
							"name": "",
							"type": "bool"
						}
					],
					"stateMutability": "view",
					"type": "function"
				},
				{
					"inputs": [],
					"name": "decimals",
					"outputs": [
						{
							"internalType": "uint8",
							"name": "",
							"type": "uint8"
						}
					],
					"stateMutability": "view",
					"type": "function"
				},
				{
					"inputs": [],
					"name": "gameTreasury",
					"outputs": [
						{
							"internalType": "address",
							"name": "",
							"type": "address"
						}
					],
					"stateMutability": "view",
					"type": "function"
				},
				{
					"inputs": [],
					"name": "getNextUnlockInfo",
					"outputs": [
						{
							"internalType": "uint256",
							"name": "month",
							"type": "uint256"
						},
						{
							"internalType": "uint256",
							"name": "amountTotal",
							"type": "uint256"
						},
						{
							"internalType": "uint256",
							"name": "perWallet",
							"type": "uint256"
						}
					],
					"stateMutability": "view",
					"type": "function"
				},
				{
					"inputs": [
						{
							"internalType": "address",
							"name": "",
							"type": "address"
						}
					],
					"name": "isDex",
					"outputs": [
						{
							"internalType": "bool",
							"name": "",
							"type": "bool"
						}
					],
					"stateMutability": "view",
					"type": "function"
				},
				{
					"inputs": [],
					"name": "lastUnlockMonth",
					"outputs": [
						{
							"internalType": "uint256",
							"name": "",
							"type": "uint256"
						}
					],
					"stateMutability": "view",
					"type": "function"
				},
				{
					"inputs": [],
					"name": "liquidityListing",
					"outputs": [
						{
							"internalType": "address",
							"name": "",
							"type": "address"
						}
					],
					"stateMutability": "view",
					"type": "function"
				},
				{
					"inputs": [
						{
							"internalType": "address",
							"name": "",
							"type": "address"
						}
					],
					"name": "managers",
					"outputs": [
						{
							"internalType": "bool",
							"name": "",
							"type": "bool"
						}
					],
					"stateMutability": "view",
					"type": "function"
				},
				{
					"inputs": [],
					"name": "marketing",
					"outputs": [
						{
							"internalType": "address",
							"name": "",
							"type": "address"
						}
					],
					"stateMutability": "view",
					"type": "function"
				},
				{
					"inputs": [],
					"name": "name",
					"outputs": [
						{
							"internalType": "string",
							"name": "",
							"type": "string"
						}
					],
					"stateMutability": "view",
					"type": "function"
				},
				{
					"inputs": [],
					"name": "referralBonus",
					"outputs": [
						{
							"internalType": "address",
							"name": "",
							"type": "address"
						}
					],
					"stateMutability": "view",
					"type": "function"
				},
				{
					"inputs": [],
					"name": "sellingEnabled",
					"outputs": [
						{
							"internalType": "bool",
							"name": "",
							"type": "bool"
						}
					],
					"stateMutability": "view",
					"type": "function"
				},
				{
					"inputs": [
						{
							"internalType": "bool",
							"name": "_enabled",
							"type": "bool"
						}
					],
					"name": "setBuyingEnabled",
					"outputs": [],
					"stateMutability": "nonpayable",
					"type": "function"
				},
				{
					"inputs": [
						{
							"internalType": "address",
							"name": "dexAddress",
							"type": "address"
						},
						{
							"internalType": "bool",
							"name": "status",
							"type": "bool"
						}
					],
					"name": "setDexAddress",
					"outputs": [],
					"stateMutability": "nonpayable",
					"type": "function"
				},
				{
					"inputs": [
						{
							"internalType": "address",
							"name": "manager",
							"type": "address"
						},
						{
							"internalType": "bool",
							"name": "status",
							"type": "bool"
						}
					],
					"name": "setManager",
					"outputs": [],
					"stateMutability": "nonpayable",
					"type": "function"
				},
				{
					"inputs": [
						{
							"internalType": "bool",
							"name": "_enabled",
							"type": "bool"
						}
					],
					"name": "setSellingEnabled",
					"outputs": [],
					"stateMutability": "nonpayable",
					"type": "function"
				},
				{
					"inputs": [],
					"name": "stakingReward",
					"outputs": [
						{
							"internalType": "address",
							"name": "",
							"type": "address"
						}
					],
					"stateMutability": "view",
					"type": "function"
				},
				{
					"inputs": [],
					"name": "startTimestamp",
					"outputs": [
						{
							"internalType": "uint256",
							"name": "",
							"type": "uint256"
						}
					],
					"stateMutability": "view",
					"type": "function"
				},
				{
					"inputs": [],
					"name": "symbol",
					"outputs": [
						{
							"internalType": "string",
							"name": "",
							"type": "string"
						}
					],
					"stateMutability": "view",
					"type": "function"
				},
				{
					"inputs": [],
					"name": "totalSupply",
					"outputs": [
						{
							"internalType": "uint256",
							"name": "",
							"type": "uint256"
						}
					],
					"stateMutability": "view",
					"type": "function"
				},
				{
					"inputs": [],
					"name": "totalUnlocked",
					"outputs": [
						{
							"internalType": "uint256",
							"name": "",
							"type": "uint256"
						}
					],
					"stateMutability": "view",
					"type": "function"
				},
				{
					"inputs": [
						{
							"internalType": "address",
							"name": "to",
							"type": "address"
						},
						{
							"internalType": "uint256",
							"name": "value",
							"type": "uint256"
						}
					],
					"name": "transfer",
					"outputs": [
						{
							"internalType": "bool",
							"name": "",
							"type": "bool"
						}
					],
					"stateMutability": "nonpayable",
					"type": "function"
				},
				{
					"inputs": [
						{
							"internalType": "address",
							"name": "from",
							"type": "address"
						},
						{
							"internalType": "address",
							"name": "to",
							"type": "address"
						},
						{
							"internalType": "uint256",
							"name": "value",
							"type": "uint256"
						}
					],
					"name": "transferFrom",
					"outputs": [
						{
							"internalType": "bool",
							"name": "",
							"type": "bool"
						}
					],
					"stateMutability": "nonpayable",
					"type": "function"
				},
				{
					"inputs": [],
					"name": "unlockTokens",
					"outputs": [],
					"stateMutability": "nonpayable",
					"type": "function"
				},
				{
					"inputs": [
						{
							"internalType": "uint256",
							"name": "index",
							"type": "uint256"
						},
						{
							"internalType": "address",
							"name": "newAddress",
							"type": "address"
						}
					],
					"name": "updateDistributionAddress",
					"outputs": [],
					"stateMutability": "nonpayable",
					"type": "function"
				}
			],
			"devdoc": {
				"errors": {
					"ERC20InsufficientAllowance(address,uint256,uint256)": [
						{
							"details": "Indicates a failure with the `spender`’s `allowance`. Used in transfers.",
							"params": {
								"allowance": "Amount of tokens a `spender` is allowed to operate with.",
								"needed": "Minimum amount required to perform a transfer.",
								"spender": "Address that may be allowed to operate on tokens without being their owner."
							}
						}
					],
					"ERC20InsufficientBalance(address,uint256,uint256)": [
						{
							"details": "Indicates an error related to the current `balance` of a `sender`. Used in transfers.",
							"params": {
								"balance": "Current balance for the interacting account.",
								"needed": "Minimum amount required to perform a transfer.",
								"sender": "Address whose tokens are being transferred."
							}
						}
					],
					"ERC20InvalidApprover(address)": [
						{
							"details": "Indicates a failure with the `approver` of a token to be approved. Used in approvals.",
							"params": {
								"approver": "Address initiating an approval operation."
							}
						}
					],
					"ERC20InvalidReceiver(address)": [
						{
							"details": "Indicates a failure with the token `receiver`. Used in transfers.",
							"params": {
								"receiver": "Address to which tokens are being transferred."
							}
						}
					],
					"ERC20InvalidSender(address)": [
						{
							"details": "Indicates a failure with the token `sender`. Used in transfers.",
							"params": {
								"sender": "Address whose tokens are being transferred."
							}
						}
					],
					"ERC20InvalidSpender(address)": [
						{
							"details": "Indicates a failure with the `spender` to be approved. Used in approvals.",
							"params": {
								"spender": "Address that may be allowed to operate on tokens without being their owner."
							}
						}
					]
				},
				"events": {
					"Approval(address,address,uint256)": {
						"details": "Emitted when the allowance of a `spender` for an `owner` is set by a call to {approve}. `value` is the new allowance."
					},
					"Transfer(address,address,uint256)": {
						"details": "Emitted when `value` tokens are moved from one account (`from`) to another (`to`). Note that `value` may be zero."
					}
				},
				"kind": "dev",
				"methods": {
					"allowance(address,address)": {
						"details": "See {IERC20-allowance}."
					},
					"approve(address,uint256)": {
						"details": "See {IERC20-approve}. NOTE: If `value` is the maximum `uint256`, the allowance is not updated on `transferFrom`. This is semantically equivalent to an infinite approval. Requirements: - `spender` cannot be the zero address."
					},
					"balanceOf(address)": {
						"details": "See {IERC20-balanceOf}."
					},
					"decimals()": {
						"details": "Returns the number of decimals used to get its user representation. For example, if `decimals` equals `2`, a balance of `505` tokens should be displayed to a user as `5.05` (`505 / 10 ** 2`). Tokens usually opt for a value of 18, imitating the relationship between Ether and Wei. This is the default value returned by this function, unless it's overridden. NOTE: This information is only used for _display_ purposes: it in no way affects any of the arithmetic of the contract, including {IERC20-balanceOf} and {IERC20-transfer}."
					},
					"name()": {
						"details": "Returns the name of the token."
					},
					"symbol()": {
						"details": "Returns the symbol of the token, usually a shorter version of the name."
					},
					"totalSupply()": {
						"details": "See {IERC20-totalSupply}."
					},
					"transfer(address,uint256)": {
						"details": "See {IERC20-transfer}. Requirements: - `to` cannot be the zero address. - the caller must have a balance of at least `value`."
					},
					"transferFrom(address,address,uint256)": {
						"details": "See {IERC20-transferFrom}. Skips emitting an {Approval} event indicating an allowance update. This is not required by the ERC. See {xref-ERC20-_approve-address-address-uint256-bool-}[_approve]. NOTE: Does not update the allowance if the current allowance is the maximum `uint256`. Requirements: - `from` and `to` cannot be the zero address. - `from` must have a balance of at least `value`. - the caller must have allowance for ``from``'s tokens of at least `value`."
					}
				},
				"version": 1
			},
			"evm": {
				"assembly": "    /* \"src/assets/BBD_Token_flattened.sol\":21808:27303  contract BBDToken is ERC20 {... */\n  mstore(0x40, 0xa0)\n    /* \"src/assets/BBD_Token_flattened.sol\":22164:22240  address public liquidityListing = 0x7Ec13697D98925bA1dC2BcC705c071bd168B10C2 */\n  0x07\n  dup1\n  sload\n  not(sub(shl(0xa0, 0x01), 0x01))\n  swap1\n  dup2\n  and\n    /* \"src/assets/BBD_Token_flattened.sol\":22198:22240  0x7Ec13697D98925bA1dC2BcC705c071bd168B10C2 */\n  0x7ec13697d98925ba1dc2bcc705c071bd168b10c2\n    /* \"src/assets/BBD_Token_flattened.sol\":22164:22240  address public liquidityListing = 0x7Ec13697D98925bA1dC2BcC705c071bd168B10C2 */\n  or\n  swap1\n  swap2\n  sstore\n    /* \"src/assets/BBD_Token_flattened.sol\":22246:22318  address public gameTreasury = 0x8de119e98707Ac240abA2cB77E83B29882A34357 */\n  0x08\n  dup1\n  sload\n  dup3\n  and\n    /* \"src/assets/BBD_Token_flattened.sol\":22276:22318  0x8de119e98707Ac240abA2cB77E83B29882A34357 */\n  0x8de119e98707ac240aba2cb77e83b29882a34357\n    /* \"src/assets/BBD_Token_flattened.sol\":22246:22318  address public gameTreasury = 0x8de119e98707Ac240abA2cB77E83B29882A34357 */\n  or\n  swap1\n  sstore\n    /* \"src/assets/BBD_Token_flattened.sol\":22324:22393  address public marketing = 0x03499C18F7265BE9AFDA16504A34CD1892F278AE */\n  0x09\n  dup1\n  sload\n  dup3\n  and\n    /* \"src/assets/BBD_Token_flattened.sol\":22351:22393  0x03499C18F7265BE9AFDA16504A34CD1892F278AE */\n  0x03499c18f7265be9afda16504a34cd1892f278ae\n    /* \"src/assets/BBD_Token_flattened.sol\":22324:22393  address public marketing = 0x03499C18F7265BE9AFDA16504A34CD1892F278AE */\n  or\n  swap1\n  sstore\n    /* \"src/assets/BBD_Token_flattened.sol\":22399:22472  address public stakingReward = 0xcc234a1d3e32148461b7eaCb5a8bf4D0C4b6Be74 */\n  0x0a\n  dup1\n  sload\n  dup3\n  and\n    /* \"src/assets/BBD_Token_flattened.sol\":22430:22472  0xcc234a1d3e32148461b7eaCb5a8bf4D0C4b6Be74 */\n  0xcc234a1d3e32148461b7eacb5a8bf4d0c4b6be74\n    /* \"src/assets/BBD_Token_flattened.sol\":22399:22472  address public stakingReward = 0xcc234a1d3e32148461b7eaCb5a8bf4D0C4b6Be74 */\n  or\n  swap1\n  sstore\n    /* \"src/assets/BBD_Token_flattened.sol\":22478:22551  address public referralBonus = 0xCeEA0E87B553bc445C5Eb2242b5F28Cd81B4ACaA */\n  0x0b\n  dup1\n  sload\n  swap1\n  swap2\n  and\n    /* \"src/assets/BBD_Token_flattened.sol\":22509:22551  0xCeEA0E87B553bc445C5Eb2242b5F28Cd81B4ACaA */\n  0xceea0e87b553bc445c5eb2242b5f28cd81b4acaa\n    /* \"src/assets/BBD_Token_flattened.sol\":22478:22551  address public referralBonus = 0xCeEA0E87B553bc445C5Eb2242b5F28Cd81B4ACaA */\n  or\n  swap1\n  sstore\n    /* \"src/assets/BBD_Token_flattened.sol\":22557:22627  address public awardBonus = 0x7E23E2781a1Da5DACe87b4f0e7bf68191263Fc32 */\n  0x0c\n  dup1\n  sload\n    /* \"src/assets/BBD_Token_flattened.sol\":22672:22705  bool public sellingEnabled = true */\n  0x01017e23e2781a1da5dace87b4f0e7bf68191263fc32\n  not(sub(shl(0xb0, 0x01), 0x01))\n  swap1\n  swap2\n  and\n  or\n  swap1\n  sstore\n    /* \"src/assets/BBD_Token_flattened.sol\":23010:23312  constructor() ERC20(\"BBD Token\", \"BBD\") {... */\n  callvalue\n  dup1\n  iszero\n  tag_1\n  jumpi\n  0x00\n  dup1\n  revert\ntag_1:\n  pop\n    /* \"src/assets/BBD_Token_flattened.sol\":12451:12564  constructor(string memory name_, string memory symbol_) {... */\n  mload(0x40)\n  dup1\n  0x40\n  add\n  0x40\n  mstore\n  dup1\n  0x09\n  dup2\n  mstore\n  0x20\n  add\n  shl(0xb9, 0x212122102a37b5b2b7)\n  dup2\n  mstore\n  pop\n  mload(0x40)\n  dup1\n  0x40\n  add\n  0x40\n  mstore\n  dup1\n  0x03\n  dup2\n  mstore\n  0x20\n  add\n  shl(0xea, 0x109091)\n  dup2\n  mstore\n  pop\n    /* \"src/assets/BBD_Token_flattened.sol\":12525:12530  name_ */\n  dup2\n    /* \"src/assets/BBD_Token_flattened.sol\":12517:12522  _name */\n  0x03\n    /* \"src/assets/BBD_Token_flattened.sol\":12517:12530  _name = name_ */\n  swap1\n  dup2\n  tag_5\n  swap2\n  swap1\n  tag_6\n  jump\t// in\ntag_5:\n  pop\n    /* \"src/assets/BBD_Token_flattened.sol\":12540:12547  _symbol */\n  0x04\n    /* \"src/assets/BBD_Token_flattened.sol\":12540:12557  _symbol = symbol_ */\n  tag_7\n    /* \"src/assets/BBD_Token_flattened.sol\":12550:12557  symbol_ */\n  dup3\n    /* \"src/assets/BBD_Token_flattened.sol\":12540:12547  _symbol */\n  dup3\n    /* \"src/assets/BBD_Token_flattened.sol\":12540:12557  _symbol = symbol_ */\n  tag_6\n  jump\t// in\ntag_7:\n  pop\n  pop\n    /* \"src/assets/BBD_Token_flattened.sol\":23060:23066  _owner */\n  0x0d\n    /* \"src/assets/BBD_Token_flattened.sol\":23060:23079  _owner = msg.sender */\n  dup1\n  sload\n  not(sub(shl(0xa0, 0x01), 0x01))\n  and\n    /* \"src/assets/BBD_Token_flattened.sol\":23069:23079  msg.sender */\n  caller\n    /* \"src/assets/BBD_Token_flattened.sol\":23060:23079  _owner = msg.sender */\n  swap1\n  dup2\n  or\n  swap1\n  swap2\n  sstore\n    /* \"src/assets/BBD_Token_flattened.sol\":23089:23117  _mint(_owner, PUBLIC_SUPPLY) */\n  tag_9\n  swap2\n  pop\n    /* \"src/assets/BBD_Token_flattened.sol\":21947:21967  1_000_000_000 * 1e18 */\n  0x033b2e3c9fd0803ce8000000\n    /* \"src/assets/BBD_Token_flattened.sol\":23089:23094  _mint */\n  tag_10\n    /* \"src/assets/BBD_Token_flattened.sol\":23089:23117  _mint(_owner, PUBLIC_SUPPLY) */\n  jump\t// in\ntag_9:\n    /* \"src/assets/BBD_Token_flattened.sol\":23158:23193  _mint(address(this), LOCKED_SUPPLY) */\n  tag_11\n    /* \"src/assets/BBD_Token_flattened.sol\":23172:23176  this */\n  address\n    /* \"src/assets/BBD_Token_flattened.sol\":22013:22041  TOTAL_SUPPLY - PUBLIC_SUPPLY */\n  tag_12\n    /* \"src/assets/BBD_Token_flattened.sol\":21947:21967  1_000_000_000 * 1e18 */\n  0x033b2e3c9fd0803ce8000000\n    /* \"src/assets/BBD_Token_flattened.sol\":21880:21901  10_000_000_000 * 1e18 */\n  0x204fce5e3e25026110000000\n    /* \"src/assets/BBD_Token_flattened.sol\":22013:22041  TOTAL_SUPPLY - PUBLIC_SUPPLY */\n  tag_13\n  jump\t// in\ntag_12:\n    /* \"src/assets/BBD_Token_flattened.sol\":23158:23163  _mint */\n  tag_10\n    /* \"src/assets/BBD_Token_flattened.sol\":23158:23193  _mint(address(this), LOCKED_SUPPLY) */\n  jump\t// in\ntag_11:\n    /* \"src/assets/BBD_Token_flattened.sol\":23261:23276  block.timestamp */\n  timestamp\n    /* \"src/assets/BBD_Token_flattened.sol\":23244:23276  startTimestamp = block.timestamp */\n  0x80\n  mstore\n    /* \"src/assets/BBD_Token_flattened.sol\":23304:23305  0 */\n  0x00\n    /* \"src/assets/BBD_Token_flattened.sol\":23286:23301  lastUnlockMonth */\n  0x05\n    /* \"src/assets/BBD_Token_flattened.sol\":23286:23305  lastUnlockMonth = 0 */\n  sstore\n    /* \"src/assets/BBD_Token_flattened.sol\":21808:27303  contract BBDToken is ERC20 {... */\n  jump(tag_39)\n    /* \"src/assets/BBD_Token_flattened.sol\":18308:18516  function _mint(address account, uint256 value) internal {... */\ntag_10:\n  sub(shl(0xa0, 0x01), 0x01)\n    /* \"src/assets/BBD_Token_flattened.sol\":18378:18399  account == address(0) */\n  dup3\n  and\n    /* \"src/assets/BBD_Token_flattened.sol\":18374:18465  if (account == address(0)) {... */\n  tag_16\n  jumpi\n    /* \"src/assets/BBD_Token_flattened.sol\":18422:18454  ERC20InvalidReceiver(address(0)) */\n  mload(0x40)\n  shl(0xe0, 0xec442f05)\n  dup2\n  mstore\n    /* \"src/assets/BBD_Token_flattened.sol\":18451:18452  0 */\n  0x00\n    /* \"src/assets/BBD_Token_flattened.sol\":18422:18454  ERC20InvalidReceiver(address(0)) */\n  0x04\n  dup3\n  add\n    /* \"#utility.yul\":3066:3117   */\n  mstore\n    /* \"#utility.yul\":3039:3057   */\n  0x24\n  add\n    /* \"src/assets/BBD_Token_flattened.sol\":18422:18454  ERC20InvalidReceiver(address(0)) */\ntag_17:\n  mload(0x40)\n  dup1\n  swap2\n  sub\n  swap1\n  revert\n    /* \"src/assets/BBD_Token_flattened.sol\":18374:18465  if (account == address(0)) {... */\ntag_16:\n    /* \"src/assets/BBD_Token_flattened.sol\":18474:18509  _update(address(0), account, value) */\n  tag_19\n    /* \"src/assets/BBD_Token_flattened.sol\":18490:18491  0 */\n  0x00\n    /* \"src/assets/BBD_Token_flattened.sol\":18494:18501  account */\n  dup4\n    /* \"src/assets/BBD_Token_flattened.sol\":18503:18508  value */\n  dup4\n    /* \"src/assets/BBD_Token_flattened.sol\":18474:18481  _update */\n  tag_20\n    /* \"src/assets/BBD_Token_flattened.sol\":18474:18509  _update(address(0), account, value) */\n  jump\t// in\ntag_19:\n    /* \"src/assets/BBD_Token_flattened.sol\":18308:18516  function _mint(address account, uint256 value) internal {... */\n  pop\n  pop\n  jump\t// out\n    /* \"src/assets/BBD_Token_flattened.sol\":16858:17965  function _update(address from, address to, uint256 value) internal virtual {... */\ntag_20:\n  sub(shl(0xa0, 0x01), 0x01)\n    /* \"src/assets/BBD_Token_flattened.sol\":16947:16965  from == address(0) */\n  dup4\n  and\n    /* \"src/assets/BBD_Token_flattened.sol\":16943:17483  if (from == address(0)) {... */\n  tag_22\n  jumpi\n    /* \"src/assets/BBD_Token_flattened.sol\":17099:17104  value */\n  dup1\n    /* \"src/assets/BBD_Token_flattened.sol\":17083:17095  _totalSupply */\n  0x02\n  0x00\n    /* \"src/assets/BBD_Token_flattened.sol\":17083:17104  _totalSupply += value */\n  dup3\n  dup3\n  sload\n  tag_23\n  swap2\n  swap1\n  tag_24\n  jump\t// in\ntag_23:\n  swap1\n  swap2\n  sstore\n  pop\n    /* \"src/assets/BBD_Token_flattened.sol\":16943:17483  if (from == address(0)) {... */\n  tag_25\n  swap1\n  pop\n  jump\ntag_22:\n  sub(shl(0xa0, 0x01), 0x01)\n    /* \"src/assets/BBD_Token_flattened.sol\":17157:17172  _balances[from] */\n  dup4\n  and\n    /* \"src/assets/BBD_Token_flattened.sol\":17135:17154  uint256 fromBalance */\n  0x00\n    /* \"src/assets/BBD_Token_flattened.sol\":17157:17172  _balances[from] */\n  swap1\n  dup2\n  mstore\n  0x20\n  dup2\n  swap1\n  mstore\n  0x40\n  swap1\n  keccak256\n  sload\n    /* \"src/assets/BBD_Token_flattened.sol\":17190:17209  fromBalance < value */\n  dup2\n  dup2\n  lt\n    /* \"src/assets/BBD_Token_flattened.sol\":17186:17301  if (fromBalance < value) {... */\n  iszero\n  tag_26\n  jumpi\n    /* \"src/assets/BBD_Token_flattened.sol\":17236:17286  ERC20InsufficientBalance(from, fromBalance, value) */\n  mload(0x40)\n  shl(0xe2, 0x391434e3)\n  dup2\n  mstore\n  sub(shl(0xa0, 0x01), 0x01)\n    /* \"#utility.yul\":3478:3510   */\n  dup6\n  and\n    /* \"src/assets/BBD_Token_flattened.sol\":17236:17286  ERC20InsufficientBalance(from, fromBalance, value) */\n  0x04\n  dup3\n  add\n    /* \"#utility.yul\":3460:3511   */\n  mstore\n    /* \"#utility.yul\":3527:3545   */\n  0x24\n  dup2\n  add\n    /* \"#utility.yul\":3520:3554   */\n  dup3\n  swap1\n  mstore\n    /* \"#utility.yul\":3570:3588   */\n  0x44\n  dup2\n  add\n    /* \"#utility.yul\":3563:3597   */\n  dup4\n  swap1\n  mstore\n    /* \"#utility.yul\":3433:3451   */\n  0x64\n  add\n    /* \"src/assets/BBD_Token_flattened.sol\":17236:17286  ERC20InsufficientBalance(from, fromBalance, value) */\n  tag_17\n    /* \"#utility.yul\":3258:3603   */\n  jump\n    /* \"src/assets/BBD_Token_flattened.sol\":17186:17301  if (fromBalance < value) {... */\ntag_26:\n  sub(shl(0xa0, 0x01), 0x01)\n    /* \"src/assets/BBD_Token_flattened.sol\":17421:17436  _balances[from] */\n  dup5\n  and\n    /* \"src/assets/BBD_Token_flattened.sol\":17421:17430  _balances */\n  0x00\n    /* \"src/assets/BBD_Token_flattened.sol\":17421:17436  _balances[from] */\n  swap1\n  dup2\n  mstore\n  0x20\n  dup2\n  swap1\n  mstore\n  0x40\n  swap1\n  keccak256\n    /* \"src/assets/BBD_Token_flattened.sol\":17439:17458  fromBalance - value */\n  swap1\n  dup3\n  swap1\n  sub\n    /* \"src/assets/BBD_Token_flattened.sol\":17421:17458  _balances[from] = fromBalance - value */\n  swap1\n  sstore\n    /* \"src/assets/BBD_Token_flattened.sol\":16943:17483  if (from == address(0)) {... */\ntag_25:\n  sub(shl(0xa0, 0x01), 0x01)\n    /* \"src/assets/BBD_Token_flattened.sol\":17497:17513  to == address(0) */\n  dup3\n  and\n    /* \"src/assets/BBD_Token_flattened.sol\":17493:17918  if (to == address(0)) {... */\n  tag_29\n  jumpi\n    /* \"src/assets/BBD_Token_flattened.sol\":17660:17672  _totalSupply */\n  0x02\n    /* \"src/assets/BBD_Token_flattened.sol\":17660:17681  _totalSupply -= value */\n  dup1\n  sload\n  dup3\n  swap1\n  sub\n  swap1\n  sstore\n    /* \"src/assets/BBD_Token_flattened.sol\":17493:17918  if (to == address(0)) {... */\n  jump(tag_30)\ntag_29:\n  sub(shl(0xa0, 0x01), 0x01)\n    /* \"src/assets/BBD_Token_flattened.sol\":17871:17884  _balances[to] */\n  dup3\n  and\n    /* \"src/assets/BBD_Token_flattened.sol\":17871:17880  _balances */\n  0x00\n    /* \"src/assets/BBD_Token_flattened.sol\":17871:17884  _balances[to] */\n  swap1\n  dup2\n  mstore\n  0x20\n  dup2\n  swap1\n  mstore\n  0x40\n  swap1\n  keccak256\n    /* \"src/assets/BBD_Token_flattened.sol\":17871:17893  _balances[to] += value */\n  dup1\n  sload\n  dup3\n  add\n  swap1\n  sstore\n    /* \"src/assets/BBD_Token_flattened.sol\":17493:17918  if (to == address(0)) {... */\ntag_30:\n    /* \"src/assets/BBD_Token_flattened.sol\":17948:17950  to */\n  dup2\n  sub(shl(0xa0, 0x01), 0x01)\n    /* \"src/assets/BBD_Token_flattened.sol\":17933:17958  Transfer(from, to, value) */\n  and\n    /* \"src/assets/BBD_Token_flattened.sol\":17942:17946  from */\n  dup4\n  sub(shl(0xa0, 0x01), 0x01)\n    /* \"src/assets/BBD_Token_flattened.sol\":17933:17958  Transfer(from, to, value) */\n  and\n  0xddf252ad1be2c89b69c2b068fc378daa952ba7f163c4a11628f55a4df523b3ef\n    /* \"src/assets/BBD_Token_flattened.sol\":17952:17957  value */\n  dup4\n    /* \"src/assets/BBD_Token_flattened.sol\":17933:17958  Transfer(from, to, value) */\n  mload(0x40)\n  tag_31\n  swap2\n    /* \"#utility.yul\":3754:3779   */\n  dup2\n  mstore\n    /* \"#utility.yul\":3742:3744   */\n  0x20\n    /* \"#utility.yul\":3727:3745   */\n  add\n  swap1\n    /* \"#utility.yul\":3608:3785   */\n  jump\n    /* \"src/assets/BBD_Token_flattened.sol\":17933:17958  Transfer(from, to, value) */\ntag_31:\n  mload(0x40)\n  dup1\n  swap2\n  sub\n  swap1\n  log3\n    /* \"src/assets/BBD_Token_flattened.sol\":16858:17965  function _update(address from, address to, uint256 value) internal virtual {... */\n  pop\n  pop\n  pop\n  jump\t// out\n    /* \"#utility.yul\":14:141   */\ntag_33:\n    /* \"#utility.yul\":75:85   */\n  0x4e487b71\n    /* \"#utility.yul\":70:73   */\n  0xe0\n    /* \"#utility.yul\":66:86   */\n  shl\n    /* \"#utility.yul\":63:64   */\n  0x00\n    /* \"#utility.yul\":56:87   */\n  mstore\n    /* \"#utility.yul\":106:110   */\n  0x41\n    /* \"#utility.yul\":103:104   */\n  0x04\n    /* \"#utility.yul\":96:111   */\n  mstore\n    /* \"#utility.yul\":130:134   */\n  0x24\n    /* \"#utility.yul\":127:128   */\n  0x00\n    /* \"#utility.yul\":120:135   */\n  revert\n    /* \"#utility.yul\":146:526   */\ntag_34:\n    /* \"#utility.yul\":225:226   */\n  0x01\n    /* \"#utility.yul\":221:233   */\n  dup2\n  dup2\n  shr\n  swap1\n    /* \"#utility.yul\":268:280   */\n  dup3\n  and\n  dup1\n    /* \"#utility.yul\":289:350   */\n  tag_42\n  jumpi\n    /* \"#utility.yul\":343:347   */\n  0x7f\n    /* \"#utility.yul\":335:341   */\n  dup3\n    /* \"#utility.yul\":331:348   */\n  and\n    /* \"#utility.yul\":321:348   */\n  swap2\n  pop\n    /* \"#utility.yul\":289:350   */\ntag_42:\n    /* \"#utility.yul\":396:398   */\n  0x20\n    /* \"#utility.yul\":388:394   */\n  dup3\n    /* \"#utility.yul\":385:399   */\n  lt\n    /* \"#utility.yul\":365:383   */\n  dup2\n    /* \"#utility.yul\":362:400   */\n  sub\n    /* \"#utility.yul\":359:520   */\n  tag_43\n  jumpi\n    /* \"#utility.yul\":442:452   */\n  0x4e487b71\n    /* \"#utility.yul\":437:440   */\n  0xe0\n    /* \"#utility.yul\":433:453   */\n  shl\n    /* \"#utility.yul\":430:431   */\n  0x00\n    /* \"#utility.yul\":423:454   */\n  mstore\n    /* \"#utility.yul\":477:481   */\n  0x22\n    /* \"#utility.yul\":474:475   */\n  0x04\n    /* \"#utility.yul\":467:482   */\n  mstore\n    /* \"#utility.yul\":505:509   */\n  0x24\n    /* \"#utility.yul\":502:503   */\n  0x00\n    /* \"#utility.yul\":495:510   */\n  revert\n    /* \"#utility.yul\":359:520   */\ntag_43:\n  pop\n    /* \"#utility.yul\":146:526   */\n  swap2\n  swap1\n  pop\n  jump\t// out\n    /* \"#utility.yul\":657:1175   */\ntag_36:\n    /* \"#utility.yul\":759:761   */\n  0x1f\n    /* \"#utility.yul\":754:757   */\n  dup3\n    /* \"#utility.yul\":751:762   */\n  gt\n    /* \"#utility.yul\":748:1169   */\n  iszero\n  tag_46\n  jumpi\n    /* \"#utility.yul\":795:800   */\n  dup1\n    /* \"#utility.yul\":792:793   */\n  0x00\n    /* \"#utility.yul\":785:801   */\n  mstore\n    /* \"#utility.yul\":839:843   */\n  0x20\n    /* \"#utility.yul\":836:837   */\n  0x00\n    /* \"#utility.yul\":826:844   */\n  keccak256\n    /* \"#utility.yul\":909:911   */\n  0x1f\n    /* \"#utility.yul\":897:907   */\n  dup5\n    /* \"#utility.yul\":893:912   */\n  add\n    /* \"#utility.yul\":890:891   */\n  0x05\n    /* \"#utility.yul\":886:913   */\n  shr\n    /* \"#utility.yul\":880:884   */\n  dup2\n    /* \"#utility.yul\":876:914   */\n  add\n    /* \"#utility.yul\":945:949   */\n  0x20\n    /* \"#utility.yul\":933:943   */\n  dup6\n    /* \"#utility.yul\":930:950   */\n  lt\n    /* \"#utility.yul\":927:974   */\n  iszero\n  tag_47\n  jumpi\n  pop\n    /* \"#utility.yul\":968:972   */\n  dup1\n    /* \"#utility.yul\":927:974   */\ntag_47:\n    /* \"#utility.yul\":1023:1025   */\n  0x1f\n    /* \"#utility.yul\":1018:1021   */\n  dup5\n    /* \"#utility.yul\":1014:1026   */\n  add\n    /* \"#utility.yul\":1011:1012   */\n  0x05\n    /* \"#utility.yul\":1007:1027   */\n  shr\n    /* \"#utility.yul\":1001:1005   */\n  dup3\n    /* \"#utility.yul\":997:1028   */\n  add\n    /* \"#utility.yul\":987:1028   */\n  swap2\n  pop\n    /* \"#utility.yul\":1078:1159   */\ntag_48:\n    /* \"#utility.yul\":1096:1098   */\n  dup2\n    /* \"#utility.yul\":1089:1094   */\n  dup2\n    /* \"#utility.yul\":1086:1099   */\n  lt\n    /* \"#utility.yul\":1078:1159   */\n  iszero\n  tag_50\n  jumpi\n    /* \"#utility.yul\":1155:1156   */\n  0x00\n    /* \"#utility.yul\":1141:1157   */\n  dup2\n  sstore\n    /* \"#utility.yul\":1122:1123   */\n  0x01\n    /* \"#utility.yul\":1111:1124   */\n  add\n    /* \"#utility.yul\":1078:1159   */\n  jump(tag_48)\ntag_50:\n    /* \"#utility.yul\":1082:1085   */\n  pop\n  pop\n    /* \"#utility.yul\":748:1169   */\ntag_46:\n    /* \"#utility.yul\":657:1175   */\n  pop\n  pop\n  pop\n  jump\t// out\n    /* \"#utility.yul\":1351:2650   */\ntag_6:\n    /* \"#utility.yul\":1471:1481   */\n  dup2\n  mload\n  sub(shl(0x40, 0x01), 0x01)\n    /* \"#utility.yul\":1493:1523   */\n  dup2\n  gt\n    /* \"#utility.yul\":1490:1546   */\n  iszero\n  tag_54\n  jumpi\n    /* \"#utility.yul\":1526:1544   */\n  tag_54\n  tag_33\n  jump\t// in\ntag_54:\n    /* \"#utility.yul\":1555:1652   */\n  tag_55\n    /* \"#utility.yul\":1645:1651   */\n  dup2\n    /* \"#utility.yul\":1605:1643   */\n  tag_56\n    /* \"#utility.yul\":1637:1641   */\n  dup5\n    /* \"#utility.yul\":1631:1642   */\n  sload\n    /* \"#utility.yul\":1605:1643   */\n  tag_34\n  jump\t// in\ntag_56:\n    /* \"#utility.yul\":1599:1603   */\n  dup5\n    /* \"#utility.yul\":1555:1652   */\n  tag_36\n  jump\t// in\ntag_55:\n    /* \"#utility.yul\":1701:1705   */\n  0x20\n    /* \"#utility.yul\":1732:1734   */\n  0x1f\n    /* \"#utility.yul\":1721:1735   */\n  dup3\n  gt\n    /* \"#utility.yul\":1749:1750   */\n  0x01\n    /* \"#utility.yul\":1744:2393   */\n  dup2\n  eq\n  tag_58\n  jumpi\n    /* \"#utility.yul\":2437:2438   */\n  0x00\n    /* \"#utility.yul\":2454:2460   */\n  dup4\n    /* \"#utility.yul\":2451:2540   */\n  iszero\n  tag_59\n  jumpi\n  pop\n    /* \"#utility.yul\":2506:2525   */\n  dup5\n  dup3\n  add\n    /* \"#utility.yul\":2500:2526   */\n  mload\n    /* \"#utility.yul\":2451:2540   */\ntag_59:\n  not(0x00)\n    /* \"#utility.yul\":1308:1309   */\n  0x03\n    /* \"#utility.yul\":1304:1315   */\n  dup6\n  swap1\n  shl\n    /* \"#utility.yul\":1300:1324   */\n  shr\n    /* \"#utility.yul\":1296:1325   */\n  not\n    /* \"#utility.yul\":1286:1326   */\n  and\n    /* \"#utility.yul\":1332:1333   */\n  0x01\n    /* \"#utility.yul\":1328:1339   */\n  dup5\n  swap1\n  shl\n    /* \"#utility.yul\":1283:1340   */\n  or\n    /* \"#utility.yul\":2553:2634   */\n  dup5\n  sstore\n    /* \"#utility.yul\":1714:2644   */\n  jump(tag_50)\n    /* \"#utility.yul\":1744:2393   */\ntag_58:\n    /* \"#utility.yul\":604:605   */\n  0x00\n    /* \"#utility.yul\":597:611   */\n  dup5\n  dup2\n  mstore\n    /* \"#utility.yul\":641:645   */\n  0x20\n    /* \"#utility.yul\":628:646   */\n  dup2\n  keccak256\n  not(0x1f)\n    /* \"#utility.yul\":1780:1800   */\n  dup6\n  and\n  swap2\n    /* \"#utility.yul\":1898:2120   */\ntag_62:\n    /* \"#utility.yul\":1912:1919   */\n  dup3\n    /* \"#utility.yul\":1909:1910   */\n  dup2\n    /* \"#utility.yul\":1906:1920   */\n  lt\n    /* \"#utility.yul\":1898:2120   */\n  iszero\n  tag_64\n  jumpi\n    /* \"#utility.yul\":1994:2013   */\n  dup8\n  dup6\n  add\n    /* \"#utility.yul\":1988:2014   */\n  mload\n    /* \"#utility.yul\":1973:2015   */\n  dup3\n  sstore\n    /* \"#utility.yul\":2101:2105   */\n  0x20\n    /* \"#utility.yul\":2086:2106   */\n  swap5\n  dup6\n  add\n  swap5\n    /* \"#utility.yul\":2054:2055   */\n  0x01\n    /* \"#utility.yul\":2042:2056   */\n  swap1\n  swap3\n  add\n  swap2\n    /* \"#utility.yul\":1928:1940   */\n  add\n    /* \"#utility.yul\":1898:2120   */\n  jump(tag_62)\ntag_64:\n    /* \"#utility.yul\":1902:1905   */\n  pop\n    /* \"#utility.yul\":2148:2154   */\n  dup5\n    /* \"#utility.yul\":2139:2146   */\n  dup3\n    /* \"#utility.yul\":2136:2155   */\n  lt\n    /* \"#utility.yul\":2133:2334   */\n  iszero\n  tag_65\n  jumpi\n    /* \"#utility.yul\":2209:2228   */\n  dup7\n  dup5\n  add\n    /* \"#utility.yul\":2203:2229   */\n  mload\n  not(0x00)\n    /* \"#utility.yul\":2292:2293   */\n  0x03\n    /* \"#utility.yul\":2288:2302   */\n  dup8\n  swap1\n  shl\n    /* \"#utility.yul\":2304:2307   */\n  0xf8\n    /* \"#utility.yul\":2284:2308   */\n  and\n    /* \"#utility.yul\":2280:2317   */\n  shr\n    /* \"#utility.yul\":2276:2318   */\n  not\n    /* \"#utility.yul\":2261:2319   */\n  and\n    /* \"#utility.yul\":2246:2320   */\n  dup2\n  sstore\n    /* \"#utility.yul\":2133:2334   */\ntag_65:\n  pop\n  pop\n  pop\n  pop\n    /* \"#utility.yul\":2380:2381   */\n  0x01\n    /* \"#utility.yul\":2364:2378   */\n  swap1\n  dup2\n  shl\n    /* \"#utility.yul\":2360:2382   */\n  add\n    /* \"#utility.yul\":2347:2383   */\n  swap1\n  sstore\n  pop\n    /* \"#utility.yul\":1351:2650   */\n  jump\t// out\n    /* \"#utility.yul\":2655:2782   */\ntag_38:\n    /* \"#utility.yul\":2716:2726   */\n  0x4e487b71\n    /* \"#utility.yul\":2711:2714   */\n  0xe0\n    /* \"#utility.yul\":2707:2727   */\n  shl\n    /* \"#utility.yul\":2704:2705   */\n  0x00\n    /* \"#utility.yul\":2697:2728   */\n  mstore\n    /* \"#utility.yul\":2747:2751   */\n  0x11\n    /* \"#utility.yul\":2744:2745   */\n  0x04\n    /* \"#utility.yul\":2737:2752   */\n  mstore\n    /* \"#utility.yul\":2771:2775   */\n  0x24\n    /* \"#utility.yul\":2768:2769   */\n  0x00\n    /* \"#utility.yul\":2761:2776   */\n  revert\n    /* \"#utility.yul\":2787:2915   */\ntag_13:\n    /* \"#utility.yul\":2854:2863   */\n  dup2\n  dup2\n  sub\n    /* \"#utility.yul\":2875:2886   */\n  dup2\n  dup2\n  gt\n    /* \"#utility.yul\":2872:2909   */\n  iszero\n  tag_69\n  jumpi\n    /* \"#utility.yul\":2889:2907   */\n  tag_69\n  tag_38\n  jump\t// in\ntag_69:\n    /* \"#utility.yul\":2787:2915   */\n  swap3\n  swap2\n  pop\n  pop\n  jump\t// out\n    /* \"#utility.yul\":3128:3253   */\ntag_24:\n    /* \"#utility.yul\":3193:3202   */\n  dup1\n  dup3\n  add\n    /* \"#utility.yul\":3214:3224   */\n  dup1\n  dup3\n  gt\n    /* \"#utility.yul\":3211:3247   */\n  iszero\n  tag_69\n  jumpi\n    /* \"#utility.yul\":3227:3245   */\n  tag_69\n  tag_38\n  jump\t// in\n    /* \"#utility.yul\":3608:3785   */\ntag_39:\n    /* \"src/assets/BBD_Token_flattened.sol\":21808:27303  contract BBDToken is ERC20 {... */\n  mload(0x80)\n  codecopy(0x00, dataOffset(sub_0), dataSize(sub_0))\n  0x00\n  assignImmutable(\"0x588e5ad3f145f9d841773d4229bac23d743ef980914ad5d2b613712259f67f55\")\n  return(0x00, dataSize(sub_0))\nstop\n\nsub_0: assembly {\n        /* \"src/assets/BBD_Token_flattened.sol\":21808:27303  contract BBDToken is ERC20 {... */\n      mstore(0x40, 0x80)\n      callvalue\n      dup1\n      iszero\n      tag_1\n      jumpi\n      0x00\n      dup1\n      revert\n    tag_1:\n      pop\n      jumpi(tag_2, lt(calldatasize, 0x04))\n      shr(0xe0, calldataload(0x00))\n      dup1\n      0x902d55a5\n      gt\n      tag_35\n      jumpi\n      dup1\n      0xce7842f5\n      gt\n      tag_36\n      jumpi\n      dup1\n      0xe8be9a44\n      gt\n      tag_37\n      jumpi\n      dup1\n      0xe8be9a44\n      eq\n      tag_31\n      jumpi\n      dup1\n      0xf771cb65\n      eq\n      tag_32\n      jumpi\n      dup1\n      0xf968f493\n      eq\n      tag_33\n      jumpi\n      dup1\n      0xfdff9b4d\n      eq\n      tag_34\n      jumpi\n      0x00\n      dup1\n      revert\n    tag_37:\n      dup1\n      0xce7842f5\n      eq\n      tag_27\n      jumpi\n      dup1\n      0xd2f9efab\n      eq\n      tag_28\n      jumpi\n      dup1\n      0xdd62ed3e\n      eq\n      tag_29\n      jumpi\n      dup1\n      0xe6fd48bc\n      eq\n      tag_30\n      jumpi\n      0x00\n      dup1\n      revert\n    tag_36:\n      dup1\n      0xa9059cbb\n      gt\n      tag_38\n      jumpi\n      dup1\n      0xa9059cbb\n      eq\n      tag_23\n      jumpi\n      dup1\n      0xb16d78cf\n      eq\n      tag_24\n      jumpi\n      dup1\n      0xb361412a\n      eq\n      tag_25\n      jumpi\n      dup1\n      0xbe381b85\n      eq\n      tag_26\n      jumpi\n      0x00\n      dup1\n      revert\n    tag_38:\n      dup1\n      0x902d55a5\n      eq\n      tag_19\n      jumpi\n      dup1\n      0x95d89b41\n      eq\n      tag_20\n      jumpi\n      dup1\n      0xa5e90eee\n      eq\n      tag_21\n      jumpi\n      dup1\n      0xa779d080\n      eq\n      tag_22\n      jumpi\n      0x00\n      dup1\n      revert\n    tag_35:\n      dup1\n      0x3c11e12a\n      gt\n      tag_39\n      jumpi\n      dup1\n      0x8310a74d\n      gt\n      tag_40\n      jumpi\n      dup1\n      0x8310a74d\n      eq\n      tag_15\n      jumpi\n      dup1\n      0x8342083a\n      eq\n      tag_16\n      jumpi\n      dup1\n      0x8ddedb33\n      eq\n      tag_17\n      jumpi\n      dup1\n      0x8ed2fe91\n      eq\n      tag_18\n      jumpi\n      0x00\n      dup1\n      revert\n    tag_40:\n      dup1\n      0x3c11e12a\n      eq\n      tag_11\n      jumpi\n      dup1\n      0x67859b6e\n      eq\n      tag_12\n      jumpi\n      dup1\n      0x70a08231\n      eq\n      tag_13\n      jumpi\n      dup1\n      0x7cdf6fb1\n      eq\n      tag_14\n      jumpi\n      0x00\n      dup1\n      revert\n    tag_39:\n      dup1\n      0x23b872dd\n      gt\n      tag_41\n      jumpi\n      dup1\n      0x23b872dd\n      eq\n      tag_7\n      jumpi\n      dup1\n      0x2be8781f\n      eq\n      tag_8\n      jumpi\n      dup1\n      0x2d3e474a\n      eq\n      tag_9\n      jumpi\n      dup1\n      0x313ce567\n      eq\n      tag_10\n      jumpi\n      0x00\n      dup1\n      revert\n    tag_41:\n      dup1\n      0x042249bb\n      eq\n      tag_3\n      jumpi\n      dup1\n      0x06fdde03\n      eq\n      tag_4\n      jumpi\n      dup1\n      0x095ea7b3\n      eq\n      tag_5\n      jumpi\n      dup1\n      0x18160ddd\n      eq\n      tag_6\n      jumpi\n    tag_2:\n      0x00\n      dup1\n      revert\n        /* \"src/assets/BBD_Token_flattened.sol\":22399:22472  address public stakingReward = 0xcc234a1d3e32148461b7eaCb5a8bf4D0C4b6Be74 */\n    tag_3:\n      sload(0x0a)\n      tag_42\n      swap1\n      sub(shl(0xa0, 0x01), 0x01)\n      and\n      dup2\n      jump\n    tag_42:\n      mload(0x40)\n      sub(shl(0xa0, 0x01), 0x01)\n        /* \"#utility.yul\":178:210   */\n      swap1\n      swap2\n      and\n        /* \"#utility.yul\":160:211   */\n      dup2\n      mstore\n        /* \"#utility.yul\":148:150   */\n      0x20\n        /* \"#utility.yul\":133:151   */\n      add\n        /* \"src/assets/BBD_Token_flattened.sol\":22399:22472  address public stakingReward = 0xcc234a1d3e32148461b7eaCb5a8bf4D0C4b6Be74 */\n    tag_44:\n      mload(0x40)\n      dup1\n      swap2\n      sub\n      swap1\n      return\n        /* \"src/assets/BBD_Token_flattened.sol\":12629:12718  function name() public view virtual returns (string memory) {... */\n    tag_4:\n      tag_46\n      tag_47\n      jump\t// in\n    tag_46:\n      mload(0x40)\n      tag_44\n      swap2\n      swap1\n      tag_49\n      jump\t// in\n        /* \"src/assets/BBD_Token_flattened.sol\":14848:15034  function approve(address spender, uint256 value) public virtual returns (bool) {... */\n    tag_5:\n      tag_50\n      tag_51\n      calldatasize\n      0x04\n      tag_52\n      jump\t// in\n    tag_51:\n      tag_53\n      jump\t// in\n    tag_50:\n      mload(0x40)\n        /* \"#utility.yul\":1293:1307   */\n      swap1\n      iszero\n        /* \"#utility.yul\":1286:1308   */\n      iszero\n        /* \"#utility.yul\":1268:1309   */\n      dup2\n      mstore\n        /* \"#utility.yul\":1256:1258   */\n      0x20\n        /* \"#utility.yul\":1241:1259   */\n      add\n        /* \"src/assets/BBD_Token_flattened.sol\":14848:15034  function approve(address spender, uint256 value) public virtual returns (bool) {... */\n      tag_44\n        /* \"#utility.yul\":1128:1315   */\n      jump\n        /* \"src/assets/BBD_Token_flattened.sol\":13699:13796  function totalSupply() public view virtual returns (uint256) {... */\n    tag_6:\n        /* \"src/assets/BBD_Token_flattened.sol\":13777:13789  _totalSupply */\n      sload(0x02)\n        /* \"src/assets/BBD_Token_flattened.sol\":13699:13796  function totalSupply() public view virtual returns (uint256) {... */\n    tag_56:\n      mload(0x40)\n        /* \"#utility.yul\":1466:1491   */\n      swap1\n      dup2\n      mstore\n        /* \"#utility.yul\":1454:1456   */\n      0x20\n        /* \"#utility.yul\":1439:1457   */\n      add\n        /* \"src/assets/BBD_Token_flattened.sol\":13699:13796  function totalSupply() public view virtual returns (uint256) {... */\n      tag_44\n        /* \"#utility.yul\":1320:1497   */\n      jump\n        /* \"src/assets/BBD_Token_flattened.sol\":15626:15870  function transferFrom(address from, address to, uint256 value) public virtual returns (bool) {... */\n    tag_7:\n      tag_50\n      tag_61\n      calldatasize\n      0x04\n      tag_62\n      jump\t// in\n    tag_61:\n      tag_63\n      jump\t// in\n        /* \"src/assets/BBD_Token_flattened.sol\":24882:25363  function updateDistributionAddress(uint256 index, address newAddress) external isOwner {... */\n    tag_8:\n      tag_65\n      tag_66\n      calldatasize\n      0x04\n      tag_67\n      jump\t// in\n    tag_66:\n      tag_68\n      jump\t// in\n    tag_65:\n      stop\n        /* \"src/assets/BBD_Token_flattened.sol\":22324:22393  address public marketing = 0x03499C18F7265BE9AFDA16504A34CD1892F278AE */\n    tag_9:\n      sload(0x09)\n      tag_42\n      swap1\n      sub(shl(0xa0, 0x01), 0x01)\n      and\n      dup2\n      jump\n        /* \"src/assets/BBD_Token_flattened.sol\":13557:13639  function decimals() public view virtual returns (uint8) {... */\n    tag_10:\n      mload(0x40)\n        /* \"src/assets/BBD_Token_flattened.sol\":13630:13632  18 */\n      0x12\n        /* \"#utility.yul\":2328:2364   */\n      dup2\n      mstore\n        /* \"#utility.yul\":2316:2318   */\n      0x20\n        /* \"#utility.yul\":2301:2319   */\n      add\n        /* \"src/assets/BBD_Token_flattened.sol\":13557:13639  function decimals() public view virtual returns (uint8) {... */\n      tag_44\n        /* \"#utility.yul\":2186:2370   */\n      jump\n        /* \"src/assets/BBD_Token_flattened.sol\":22732:22769  mapping(address => bool) public isDex */\n    tag_11:\n      tag_50\n      tag_77\n      calldatasize\n      0x04\n      tag_78\n      jump\t// in\n    tag_77:\n      mstore(0x20, 0x0e)\n      0x00\n      swap1\n      dup2\n      mstore\n      0x40\n      swap1\n      keccak256\n      sload\n      0xff\n      and\n      dup2\n      jump\n        /* \"src/assets/BBD_Token_flattened.sol\":22164:22240  address public liquidityListing = 0x7Ec13697D98925bA1dC2BcC705c071bd168B10C2 */\n    tag_12:\n      sload(0x07)\n      tag_42\n      swap1\n      sub(shl(0xa0, 0x01), 0x01)\n      and\n      dup2\n      jump\n        /* \"src/assets/BBD_Token_flattened.sol\":13854:13970  function balanceOf(address account) public view virtual returns (uint256) {... */\n    tag_13:\n      tag_56\n      tag_85\n      calldatasize\n      0x04\n      tag_78\n      jump\t// in\n    tag_85:\n      sub(shl(0xa0, 0x01), 0x01)\n        /* \"src/assets/BBD_Token_flattened.sol\":13945:13963  _balances[account] */\n      and\n        /* \"src/assets/BBD_Token_flattened.sol\":13919:13926  uint256 */\n      0x00\n        /* \"src/assets/BBD_Token_flattened.sol\":13945:13963  _balances[account] */\n      swap1\n      dup2\n      mstore\n      0x20\n      dup2\n      swap1\n      mstore\n      0x40\n      swap1\n      keccak256\n      sload\n      swap1\n        /* \"src/assets/BBD_Token_flattened.sol\":13854:13970  function balanceOf(address account) public view virtual returns (uint256) {... */\n      jump\n        /* \"src/assets/BBD_Token_flattened.sol\":26883:26999  function setDexAddress(address dexAddress, bool status) external isOwner {... */\n    tag_14:\n      tag_65\n      tag_89\n      calldatasize\n      0x04\n      tag_90\n      jump\t// in\n    tag_89:\n      tag_91\n      jump\t// in\n        /* \"src/assets/BBD_Token_flattened.sol\":22093:22123  uint256 public lastUnlockMonth */\n    tag_15:\n      tag_56\n      sload(0x05)\n      dup2\n      jump\n        /* \"src/assets/BBD_Token_flattened.sol\":21907:21967  uint256 public constant PUBLIC_SUPPLY = 1_000_000_000 * 1e18 */\n    tag_16:\n      tag_56\n      shl(0x1b, 0x6765c793fa10079d)\n      dup2\n      jump\n        /* \"src/assets/BBD_Token_flattened.sol\":26671:26770  function setBuyingEnabled(bool _enabled) external isOwner {... */\n    tag_17:\n      tag_65\n      tag_99\n      calldatasize\n      0x04\n      tag_100\n      jump\t// in\n    tag_99:\n      tag_101\n      jump\t// in\n        /* \"src/assets/BBD_Token_flattened.sol\":22634:22666  bool public buyingEnabled = true */\n    tag_18:\n      sload(0x0c)\n      tag_50\n      swap1\n      shl(0xa0, 0x01)\n      swap1\n      div\n      0xff\n      and\n      dup2\n      jump\n        /* \"src/assets/BBD_Token_flattened.sol\":21841:21901  uint256 public constant TOTAL_SUPPLY = 10_000_000_000 * 1e18 */\n    tag_19:\n      tag_56\n        /* \"src/assets/BBD_Token_flattened.sol\":21880:21901  10_000_000_000 * 1e18 */\n      0x204fce5e3e25026110000000\n        /* \"src/assets/BBD_Token_flattened.sol\":21841:21901  uint256 public constant TOTAL_SUPPLY = 10_000_000_000 * 1e18 */\n      dup2\n      jump\n        /* \"src/assets/BBD_Token_flattened.sol\":12831:12924  function symbol() public view virtual returns (string memory) {... */\n    tag_20:\n      tag_46\n      tag_109\n      jump\t// in\n        /* \"src/assets/BBD_Token_flattened.sol\":26555:26665  function setManager(address manager, bool status) external isOwner {... */\n    tag_21:\n      tag_65\n      tag_112\n      calldatasize\n      0x04\n      tag_90\n      jump\t// in\n    tag_112:\n      tag_113\n      jump\t// in\n        /* \"src/assets/BBD_Token_flattened.sol\":22129:22157  uint256 public totalUnlocked */\n    tag_22:\n      tag_56\n      sload(0x06)\n      dup2\n      jump\n        /* \"src/assets/BBD_Token_flattened.sol\":14165:14343  function transfer(address to, uint256 value) public virtual returns (bool) {... */\n    tag_23:\n      tag_50\n      tag_118\n      calldatasize\n      0x04\n      tag_52\n      jump\t// in\n    tag_118:\n      tag_119\n      jump\t// in\n        /* \"src/assets/BBD_Token_flattened.sol\":26776:26877  function setSellingEnabled(bool _enabled) external isOwner {... */\n    tag_24:\n      tag_65\n      tag_122\n      calldatasize\n      0x04\n      tag_100\n      jump\t// in\n    tag_122:\n      tag_123\n      jump\t// in\n        /* \"src/assets/BBD_Token_flattened.sol\":22557:22627  address public awardBonus = 0x7E23E2781a1Da5DACe87b4f0e7bf68191263Fc32 */\n    tag_25:\n      sload(0x0c)\n      tag_42\n      swap1\n      sub(shl(0xa0, 0x01), 0x01)\n      and\n      dup2\n      jump\n        /* \"src/assets/BBD_Token_flattened.sol\":25369:26023  function getNextUnlockInfo() external view returns (uint256 month, uint256 amountTotal, uint256 perWallet) {... */\n    tag_26:\n      tag_127\n      tag_128\n      jump\t// in\n    tag_127:\n      0x40\n      dup1\n      mload\n        /* \"#utility.yul\":3377:3402   */\n      swap4\n      dup5\n      mstore\n        /* \"#utility.yul\":3433:3435   */\n      0x20\n        /* \"#utility.yul\":3418:3436   */\n      dup5\n      add\n        /* \"#utility.yul\":3411:3445   */\n      swap3\n      swap1\n      swap3\n      mstore\n        /* \"#utility.yul\":3461:3479   */\n      swap1\n      dup3\n      add\n        /* \"#utility.yul\":3454:3488   */\n      mstore\n        /* \"#utility.yul\":3365:3367   */\n      0x60\n        /* \"#utility.yul\":3350:3368   */\n      add\n        /* \"src/assets/BBD_Token_flattened.sol\":25369:26023  function getNextUnlockInfo() external view returns (uint256 month, uint256 amountTotal, uint256 perWallet) {... */\n      tag_44\n        /* \"#utility.yul\":3175:3494   */\n      jump\n        /* \"src/assets/BBD_Token_flattened.sol\":22478:22551  address public referralBonus = 0xCeEA0E87B553bc445C5Eb2242b5F28Cd81B4ACaA */\n    tag_27:\n      sload(0x0b)\n      tag_42\n      swap1\n      sub(shl(0xa0, 0x01), 0x01)\n      and\n      dup2\n      jump\n        /* \"src/assets/BBD_Token_flattened.sol\":22246:22318  address public gameTreasury = 0x8de119e98707Ac240abA2cB77E83B29882A34357 */\n    tag_28:\n      sload(0x08)\n      tag_42\n      swap1\n      sub(shl(0xa0, 0x01), 0x01)\n      and\n      dup2\n      jump\n        /* \"src/assets/BBD_Token_flattened.sol\":14401:14541  function allowance(address owner, address spender) public view virtual returns (uint256) {... */\n    tag_29:\n      tag_56\n      tag_138\n      calldatasize\n      0x04\n      tag_139\n      jump\t// in\n    tag_138:\n      sub(shl(0xa0, 0x01), 0x01)\n        /* \"src/assets/BBD_Token_flattened.sol\":14507:14525  _allowances[owner] */\n      swap2\n      dup3\n      and\n        /* \"src/assets/BBD_Token_flattened.sol\":14481:14488  uint256 */\n      0x00\n        /* \"src/assets/BBD_Token_flattened.sol\":14507:14525  _allowances[owner] */\n      swap1\n      dup2\n      mstore\n        /* \"src/assets/BBD_Token_flattened.sol\":14507:14518  _allowances */\n      0x01\n        /* \"src/assets/BBD_Token_flattened.sol\":14507:14525  _allowances[owner] */\n      0x20\n      swap1\n      dup2\n      mstore\n      0x40\n      dup1\n      dup4\n      keccak256\n        /* \"src/assets/BBD_Token_flattened.sol\":14507:14534  _allowances[owner][spender] */\n      swap4\n      swap1\n      swap5\n      and\n      dup3\n      mstore\n      swap2\n      swap1\n      swap2\n      mstore\n      keccak256\n      sload\n      swap1\n        /* \"src/assets/BBD_Token_flattened.sol\":14401:14541  function allowance(address owner, address spender) public view virtual returns (uint256) {... */\n      jump\n        /* \"src/assets/BBD_Token_flattened.sol\":22048:22087  uint256 public immutable startTimestamp */\n    tag_30:\n      tag_56\n      immutable(\"0x588e5ad3f145f9d841773d4229bac23d743ef980914ad5d2b613712259f67f55\")\n      dup2\n      jump\n        /* \"src/assets/BBD_Token_flattened.sol\":21973:22041  uint256 public constant LOCKED_SUPPLY = TOTAL_SUPPLY - PUBLIC_SUPPLY */\n    tag_31:\n      tag_56\n      tag_146\n      jump\t// in\n        /* \"src/assets/BBD_Token_flattened.sol\":22672:22705  bool public sellingEnabled = true */\n    tag_32:\n      sload(0x0c)\n      tag_50\n      swap1\n      shl(0xa8, 0x01)\n      swap1\n      div\n      0xff\n      and\n      dup2\n      jump\n        /* \"src/assets/BBD_Token_flattened.sol\":23318:24876  function unlockTokens() external isOwner {... */\n    tag_33:\n      tag_65\n      tag_152\n      jump\t// in\n        /* \"src/assets/BBD_Token_flattened.sol\":22775:22815  mapping(address => bool) public managers */\n    tag_34:\n      tag_50\n      tag_154\n      calldatasize\n      0x04\n      tag_78\n      jump\t// in\n    tag_154:\n      mstore(0x20, 0x0f)\n      0x00\n      swap1\n      dup2\n      mstore\n      0x40\n      swap1\n      keccak256\n      sload\n      0xff\n      and\n      dup2\n      jump\n        /* \"src/assets/BBD_Token_flattened.sol\":12629:12718  function name() public view virtual returns (string memory) {... */\n    tag_47:\n        /* \"src/assets/BBD_Token_flattened.sol\":12674:12687  string memory */\n      0x60\n        /* \"src/assets/BBD_Token_flattened.sol\":12706:12711  _name */\n      0x03\n        /* \"src/assets/BBD_Token_flattened.sol\":12699:12711  return _name */\n      dup1\n      sload\n      tag_158\n      swap1\n      tag_159\n      jump\t// in\n    tag_158:\n      dup1\n      0x1f\n      add\n      0x20\n      dup1\n      swap2\n      div\n      mul\n      0x20\n      add\n      mload(0x40)\n      swap1\n      dup2\n      add\n      0x40\n      mstore\n      dup1\n      swap3\n      swap2\n      swap1\n      dup2\n      dup2\n      mstore\n      0x20\n      add\n      dup3\n      dup1\n      sload\n      tag_160\n      swap1\n      tag_159\n      jump\t// in\n    tag_160:\n      dup1\n      iszero\n      tag_161\n      jumpi\n      dup1\n      0x1f\n      lt\n      tag_162\n      jumpi\n      0x0100\n      dup1\n      dup4\n      sload\n      div\n      mul\n      dup4\n      mstore\n      swap2\n      0x20\n      add\n      swap2\n      jump(tag_161)\n    tag_162:\n      dup3\n      add\n      swap2\n      swap1\n      0x00\n      mstore\n      keccak256(0x00, 0x20)\n      swap1\n    tag_163:\n      dup2\n      sload\n      dup2\n      mstore\n      swap1\n      0x01\n      add\n      swap1\n      0x20\n      add\n      dup1\n      dup4\n      gt\n      tag_163\n      jumpi\n      dup3\n      swap1\n      sub\n      0x1f\n      and\n      dup3\n      add\n      swap2\n    tag_161:\n      pop\n      pop\n      pop\n      pop\n      pop\n      swap1\n      pop\n        /* \"src/assets/BBD_Token_flattened.sol\":12629:12718  function name() public view virtual returns (string memory) {... */\n      swap1\n      jump\t// out\n        /* \"src/assets/BBD_Token_flattened.sol\":14848:15034  function approve(address spender, uint256 value) public virtual returns (bool) {... */\n    tag_53:\n        /* \"src/assets/BBD_Token_flattened.sol\":14921:14925  bool */\n      0x00\n        /* \"src/assets/BBD_Token_flattened.sol\":4256:4266  msg.sender */\n      caller\n        /* \"src/assets/BBD_Token_flattened.sol\":14975:15006  _approve(owner, spender, value) */\n      tag_167\n        /* \"src/assets/BBD_Token_flattened.sol\":4256:4266  msg.sender */\n      dup2\n        /* \"src/assets/BBD_Token_flattened.sol\":14991:14998  spender */\n      dup6\n        /* \"src/assets/BBD_Token_flattened.sol\":15000:15005  value */\n      dup6\n        /* \"src/assets/BBD_Token_flattened.sol\":14975:14983  _approve */\n      tag_168\n        /* \"src/assets/BBD_Token_flattened.sol\":14975:15006  _approve(owner, spender, value) */\n      jump\t// in\n    tag_167:\n        /* \"src/assets/BBD_Token_flattened.sol\":15023:15027  true */\n      0x01\n        /* \"src/assets/BBD_Token_flattened.sol\":15016:15027  return true */\n      swap2\n      pop\n      pop\n        /* \"src/assets/BBD_Token_flattened.sol\":14848:15034  function approve(address spender, uint256 value) public virtual returns (bool) {... */\n    tag_164:\n      swap3\n      swap2\n      pop\n      pop\n      jump\t// out\n        /* \"src/assets/BBD_Token_flattened.sol\":15626:15870  function transferFrom(address from, address to, uint256 value) public virtual returns (bool) {... */\n    tag_63:\n        /* \"src/assets/BBD_Token_flattened.sol\":15713:15717  bool */\n      0x00\n        /* \"src/assets/BBD_Token_flattened.sol\":4256:4266  msg.sender */\n      caller\n        /* \"src/assets/BBD_Token_flattened.sol\":15769:15806  _spendAllowance(from, spender, value) */\n      tag_172\n        /* \"src/assets/BBD_Token_flattened.sol\":15785:15789  from */\n      dup6\n        /* \"src/assets/BBD_Token_flattened.sol\":4256:4266  msg.sender */\n      dup3\n        /* \"src/assets/BBD_Token_flattened.sol\":15800:15805  value */\n      dup6\n        /* \"src/assets/BBD_Token_flattened.sol\":15769:15784  _spendAllowance */\n      tag_173\n        /* \"src/assets/BBD_Token_flattened.sol\":15769:15806  _spendAllowance(from, spender, value) */\n      jump\t// in\n    tag_172:\n        /* \"src/assets/BBD_Token_flattened.sol\":15816:15842  _transfer(from, to, value) */\n      tag_174\n        /* \"src/assets/BBD_Token_flattened.sol\":15826:15830  from */\n      dup6\n        /* \"src/assets/BBD_Token_flattened.sol\":15832:15834  to */\n      dup6\n        /* \"src/assets/BBD_Token_flattened.sol\":15836:15841  value */\n      dup6\n        /* \"src/assets/BBD_Token_flattened.sol\":15816:15825  _transfer */\n      tag_175\n        /* \"src/assets/BBD_Token_flattened.sol\":15816:15842  _transfer(from, to, value) */\n      jump\t// in\n    tag_174:\n      pop\n        /* \"src/assets/BBD_Token_flattened.sol\":15859:15863  true */\n      0x01\n      swap5\n        /* \"src/assets/BBD_Token_flattened.sol\":15626:15870  function transferFrom(address from, address to, uint256 value) public virtual returns (bool) {... */\n      swap4\n      pop\n      pop\n      pop\n      pop\n      jump\t// out\n        /* \"src/assets/BBD_Token_flattened.sol\":24882:25363  function updateDistributionAddress(uint256 index, address newAddress) external isOwner {... */\n    tag_68:\n        /* \"src/assets/BBD_Token_flattened.sol\":22949:22955  _owner */\n      and(sub(shl(0xa0, 0x01), 0x01), sload(0x0d))\n        /* \"src/assets/BBD_Token_flattened.sol\":22959:22969  msg.sender */\n      caller\n        /* \"src/assets/BBD_Token_flattened.sol\":22949:22969  _owner == msg.sender */\n      eq\n        /* \"src/assets/BBD_Token_flattened.sol\":22941:22986  require(_owner == msg.sender, \"Not allowed!\") */\n      tag_177\n      jumpi\n      mload(0x40)\n      shl(0xe5, 0x461bcd)\n      dup2\n      mstore\n      0x04\n      add\n      tag_178\n      swap1\n      tag_179\n      jump\t// in\n    tag_178:\n      mload(0x40)\n      dup1\n      swap2\n      sub\n      swap1\n      revert\n    tag_177:\n        /* \"src/assets/BBD_Token_flattened.sol\":24996:24997  1 */\n      0x01\n        /* \"src/assets/BBD_Token_flattened.sol\":24987:24992  index */\n      dup3\n        /* \"src/assets/BBD_Token_flattened.sol\":24987:24997  index >= 1 */\n      lt\n      iszero\n        /* \"src/assets/BBD_Token_flattened.sol\":24987:25011  index >= 1 && index <= 6 */\n      dup1\n      iszero\n      tag_181\n      jumpi\n      pop\n        /* \"src/assets/BBD_Token_flattened.sol\":25010:25011  6 */\n      0x06\n        /* \"src/assets/BBD_Token_flattened.sol\":25001:25006  index */\n      dup3\n        /* \"src/assets/BBD_Token_flattened.sol\":25001:25011  index <= 6 */\n      gt\n      iszero\n        /* \"src/assets/BBD_Token_flattened.sol\":24987:25011  index >= 1 && index <= 6 */\n    tag_181:\n        /* \"src/assets/BBD_Token_flattened.sol\":24979:25029  require(index >= 1 && index <= 6, \"Invalid index\") */\n      tag_182\n      jumpi\n      mload(0x40)\n      shl(0xe5, 0x461bcd)\n      dup2\n      mstore\n        /* \"#utility.yul\":4692:4694   */\n      0x20\n        /* \"src/assets/BBD_Token_flattened.sol\":24979:25029  require(index >= 1 && index <= 6, \"Invalid index\") */\n      0x04\n      dup3\n      add\n        /* \"#utility.yul\":4674:4695   */\n      mstore\n        /* \"#utility.yul\":4731:4733   */\n      0x0d\n        /* \"#utility.yul\":4711:4729   */\n      0x24\n      dup3\n      add\n        /* \"#utility.yul\":4704:4734   */\n      mstore\n      shl(0x9b, 0x092dcecc2d8d2c840d2dcc8caf)\n        /* \"#utility.yul\":4750:4768   */\n      0x44\n      dup3\n      add\n        /* \"#utility.yul\":4743:4786   */\n      mstore\n        /* \"#utility.yul\":4803:4821   */\n      0x64\n      add\n        /* \"src/assets/BBD_Token_flattened.sol\":24979:25029  require(index >= 1 && index <= 6, \"Invalid index\") */\n      tag_178\n        /* \"#utility.yul\":4490:4827   */\n      jump\n        /* \"src/assets/BBD_Token_flattened.sol\":24979:25029  require(index >= 1 && index <= 6, \"Invalid index\") */\n    tag_182:\n        /* \"src/assets/BBD_Token_flattened.sol\":25043:25048  index */\n      dup2\n        /* \"src/assets/BBD_Token_flattened.sol\":25052:25053  1 */\n      0x01\n        /* \"src/assets/BBD_Token_flattened.sol\":25043:25053  index == 1 */\n      sub\n        /* \"src/assets/BBD_Token_flattened.sol\":25040:25356  if(index == 1) liquidityListing = newAddress;... */\n      tag_185\n      jumpi\n        /* \"src/assets/BBD_Token_flattened.sol\":25055:25071  liquidityListing */\n      0x07\n        /* \"src/assets/BBD_Token_flattened.sol\":25055:25084  liquidityListing = newAddress */\n      dup1\n      sload\n      not(sub(shl(0xa0, 0x01), 0x01))\n      and\n      sub(shl(0xa0, 0x01), 0x01)\n      dup4\n      and\n      or\n      swap1\n      sstore\n        /* \"src/assets/BBD_Token_flattened.sol\":24882:25363  function updateDistributionAddress(uint256 index, address newAddress) external isOwner {... */\n      pop\n      pop\n      jump\t// out\n        /* \"src/assets/BBD_Token_flattened.sol\":25040:25356  if(index == 1) liquidityListing = newAddress;... */\n    tag_185:\n        /* \"src/assets/BBD_Token_flattened.sol\":25102:25107  index */\n      dup2\n        /* \"src/assets/BBD_Token_flattened.sol\":25111:25112  2 */\n      0x02\n        /* \"src/assets/BBD_Token_flattened.sol\":25102:25112  index == 2 */\n      sub\n        /* \"src/assets/BBD_Token_flattened.sol\":25099:25356  if(index == 2) gameTreasury = newAddress;... */\n      tag_187\n      jumpi\n        /* \"src/assets/BBD_Token_flattened.sol\":25114:25126  gameTreasury */\n      0x08\n        /* \"src/assets/BBD_Token_flattened.sol\":25114:25139  gameTreasury = newAddress */\n      dup1\n      sload\n      not(sub(shl(0xa0, 0x01), 0x01))\n      and\n      sub(shl(0xa0, 0x01), 0x01)\n      dup4\n      and\n      or\n      swap1\n      sstore\n        /* \"src/assets/BBD_Token_flattened.sol\":24882:25363  function updateDistributionAddress(uint256 index, address newAddress) external isOwner {... */\n      pop\n      pop\n      jump\t// out\n        /* \"src/assets/BBD_Token_flattened.sol\":25099:25356  if(index == 2) gameTreasury = newAddress;... */\n    tag_187:\n        /* \"src/assets/BBD_Token_flattened.sol\":25157:25162  index */\n      dup2\n        /* \"src/assets/BBD_Token_flattened.sol\":25166:25167  3 */\n      0x03\n        /* \"src/assets/BBD_Token_flattened.sol\":25157:25167  index == 3 */\n      sub\n        /* \"src/assets/BBD_Token_flattened.sol\":25154:25356  if(index == 3) marketing = newAddress;... */\n      tag_189\n      jumpi\n        /* \"src/assets/BBD_Token_flattened.sol\":25169:25178  marketing */\n      0x09\n        /* \"src/assets/BBD_Token_flattened.sol\":25169:25191  marketing = newAddress */\n      dup1\n      sload\n      not(sub(shl(0xa0, 0x01), 0x01))\n      and\n      sub(shl(0xa0, 0x01), 0x01)\n      dup4\n      and\n      or\n      swap1\n      sstore\n        /* \"src/assets/BBD_Token_flattened.sol\":24882:25363  function updateDistributionAddress(uint256 index, address newAddress) external isOwner {... */\n      pop\n      pop\n      jump\t// out\n        /* \"src/assets/BBD_Token_flattened.sol\":25154:25356  if(index == 3) marketing = newAddress;... */\n    tag_189:\n        /* \"src/assets/BBD_Token_flattened.sol\":25209:25214  index */\n      dup2\n        /* \"src/assets/BBD_Token_flattened.sol\":25218:25219  4 */\n      0x04\n        /* \"src/assets/BBD_Token_flattened.sol\":25209:25219  index == 4 */\n      sub\n        /* \"src/assets/BBD_Token_flattened.sol\":25206:25356  if(index == 4) stakingReward = newAddress;... */\n      tag_191\n      jumpi\n        /* \"src/assets/BBD_Token_flattened.sol\":25221:25234  stakingReward */\n      0x0a\n        /* \"src/assets/BBD_Token_flattened.sol\":25221:25247  stakingReward = newAddress */\n      dup1\n      sload\n      not(sub(shl(0xa0, 0x01), 0x01))\n      and\n      sub(shl(0xa0, 0x01), 0x01)\n      dup4\n      and\n      or\n      swap1\n      sstore\n        /* \"src/assets/BBD_Token_flattened.sol\":24882:25363  function updateDistributionAddress(uint256 index, address newAddress) external isOwner {... */\n      pop\n      pop\n      jump\t// out\n        /* \"src/assets/BBD_Token_flattened.sol\":25206:25356  if(index == 4) stakingReward = newAddress;... */\n    tag_191:\n        /* \"src/assets/BBD_Token_flattened.sol\":25265:25270  index */\n      dup2\n        /* \"src/assets/BBD_Token_flattened.sol\":25274:25275  5 */\n      0x05\n        /* \"src/assets/BBD_Token_flattened.sol\":25265:25275  index == 5 */\n      sub\n        /* \"src/assets/BBD_Token_flattened.sol\":25262:25356  if(index == 5) referralBonus = newAddress;... */\n      tag_193\n      jumpi\n        /* \"src/assets/BBD_Token_flattened.sol\":25277:25290  referralBonus */\n      0x0b\n        /* \"src/assets/BBD_Token_flattened.sol\":25277:25303  referralBonus = newAddress */\n      dup1\n      sload\n      not(sub(shl(0xa0, 0x01), 0x01))\n      and\n      sub(shl(0xa0, 0x01), 0x01)\n      dup4\n      and\n      or\n      swap1\n      sstore\n        /* \"src/assets/BBD_Token_flattened.sol\":24882:25363  function updateDistributionAddress(uint256 index, address newAddress) external isOwner {... */\n      pop\n      pop\n      jump\t// out\n        /* \"src/assets/BBD_Token_flattened.sol\":25262:25356  if(index == 5) referralBonus = newAddress;... */\n    tag_193:\n        /* \"src/assets/BBD_Token_flattened.sol\":25321:25326  index */\n      dup2\n        /* \"src/assets/BBD_Token_flattened.sol\":25330:25331  6 */\n      0x06\n        /* \"src/assets/BBD_Token_flattened.sol\":25321:25331  index == 6 */\n      sub\n        /* \"src/assets/BBD_Token_flattened.sol\":25318:25356  if(index == 6) awardBonus = newAddress */\n      tag_195\n      jumpi\n        /* \"src/assets/BBD_Token_flattened.sol\":25333:25343  awardBonus */\n      0x0c\n        /* \"src/assets/BBD_Token_flattened.sol\":25333:25356  awardBonus = newAddress */\n      dup1\n      sload\n      not(sub(shl(0xa0, 0x01), 0x01))\n      and\n      sub(shl(0xa0, 0x01), 0x01)\n      dup4\n      and\n      or\n      swap1\n      sstore\n        /* \"src/assets/BBD_Token_flattened.sol\":25318:25356  if(index == 6) awardBonus = newAddress */\n    tag_195:\n        /* \"src/assets/BBD_Token_flattened.sol\":24882:25363  function updateDistributionAddress(uint256 index, address newAddress) external isOwner {... */\n      pop\n      pop\n      jump\t// out\n        /* \"src/assets/BBD_Token_flattened.sol\":26883:26999  function setDexAddress(address dexAddress, bool status) external isOwner {... */\n    tag_91:\n        /* \"src/assets/BBD_Token_flattened.sol\":22949:22955  _owner */\n      and(sub(shl(0xa0, 0x01), 0x01), sload(0x0d))\n        /* \"src/assets/BBD_Token_flattened.sol\":22959:22969  msg.sender */\n      caller\n        /* \"src/assets/BBD_Token_flattened.sol\":22949:22969  _owner == msg.sender */\n      eq\n        /* \"src/assets/BBD_Token_flattened.sol\":22941:22986  require(_owner == msg.sender, \"Not allowed!\") */\n      tag_199\n      jumpi\n      mload(0x40)\n      shl(0xe5, 0x461bcd)\n      dup2\n      mstore\n      0x04\n      add\n      tag_178\n      swap1\n      tag_179\n      jump\t// in\n    tag_199:\n      sub(shl(0xa0, 0x01), 0x01)\n        /* \"src/assets/BBD_Token_flattened.sol\":26966:26983  isDex[dexAddress] */\n      swap2\n      swap1\n      swap2\n      and\n      0x00\n      swap1\n      dup2\n      mstore\n        /* \"src/assets/BBD_Token_flattened.sol\":26966:26971  isDex */\n      0x0e\n        /* \"src/assets/BBD_Token_flattened.sol\":26966:26983  isDex[dexAddress] */\n      0x20\n      mstore\n      0x40\n      swap1\n      keccak256\n        /* \"src/assets/BBD_Token_flattened.sol\":26966:26992  isDex[dexAddress] = status */\n      dup1\n      sload\n      not(0xff)\n      and\n      swap2\n      iszero\n      iszero\n      swap2\n      swap1\n      swap2\n      or\n      swap1\n      sstore\n        /* \"src/assets/BBD_Token_flattened.sol\":26883:26999  function setDexAddress(address dexAddress, bool status) external isOwner {... */\n      jump\t// out\n        /* \"src/assets/BBD_Token_flattened.sol\":26671:26770  function setBuyingEnabled(bool _enabled) external isOwner {... */\n    tag_101:\n        /* \"src/assets/BBD_Token_flattened.sol\":22949:22955  _owner */\n      and(sub(shl(0xa0, 0x01), 0x01), sload(0x0d))\n        /* \"src/assets/BBD_Token_flattened.sol\":22959:22969  msg.sender */\n      caller\n        /* \"src/assets/BBD_Token_flattened.sol\":22949:22969  _owner == msg.sender */\n      eq\n        /* \"src/assets/BBD_Token_flattened.sol\":22941:22986  require(_owner == msg.sender, \"Not allowed!\") */\n      tag_203\n      jumpi\n      mload(0x40)\n      shl(0xe5, 0x461bcd)\n      dup2\n      mstore\n      0x04\n      add\n      tag_178\n      swap1\n      tag_179\n      jump\t// in\n    tag_203:\n        /* \"src/assets/BBD_Token_flattened.sol\":26739:26752  buyingEnabled */\n      0x0c\n        /* \"src/assets/BBD_Token_flattened.sol\":26739:26763  buyingEnabled = _enabled */\n      dup1\n      sload\n      swap2\n      iszero\n      iszero\n      shl(0xa0, 0x01)\n      mul\n      not(shl(0xa0, 0xff))\n      swap1\n      swap3\n      and\n      swap2\n      swap1\n      swap2\n      or\n      swap1\n      sstore\n        /* \"src/assets/BBD_Token_flattened.sol\":26671:26770  function setBuyingEnabled(bool _enabled) external isOwner {... */\n      jump\t// out\n        /* \"src/assets/BBD_Token_flattened.sol\":12831:12924  function symbol() public view virtual returns (string memory) {... */\n    tag_109:\n        /* \"src/assets/BBD_Token_flattened.sol\":12878:12891  string memory */\n      0x60\n        /* \"src/assets/BBD_Token_flattened.sol\":12910:12917  _symbol */\n      0x04\n        /* \"src/assets/BBD_Token_flattened.sol\":12903:12917  return _symbol */\n      dup1\n      sload\n      tag_158\n      swap1\n      tag_159\n      jump\t// in\n        /* \"src/assets/BBD_Token_flattened.sol\":26555:26665  function setManager(address manager, bool status) external isOwner {... */\n    tag_113:\n        /* \"src/assets/BBD_Token_flattened.sol\":22949:22955  _owner */\n      and(sub(shl(0xa0, 0x01), 0x01), sload(0x0d))\n        /* \"src/assets/BBD_Token_flattened.sol\":22959:22969  msg.sender */\n      caller\n        /* \"src/assets/BBD_Token_flattened.sol\":22949:22969  _owner == msg.sender */\n      eq\n        /* \"src/assets/BBD_Token_flattened.sol\":22941:22986  require(_owner == msg.sender, \"Not allowed!\") */\n      tag_213\n      jumpi\n      mload(0x40)\n      shl(0xe5, 0x461bcd)\n      dup2\n      mstore\n      0x04\n      add\n      tag_178\n      swap1\n      tag_179\n      jump\t// in\n    tag_213:\n      sub(shl(0xa0, 0x01), 0x01)\n        /* \"src/assets/BBD_Token_flattened.sol\":26632:26649  managers[manager] */\n      swap2\n      swap1\n      swap2\n      and\n      0x00\n      swap1\n      dup2\n      mstore\n        /* \"src/assets/BBD_Token_flattened.sol\":26632:26640  managers */\n      0x0f\n        /* \"src/assets/BBD_Token_flattened.sol\":26632:26649  managers[manager] */\n      0x20\n      mstore\n      0x40\n      swap1\n      keccak256\n        /* \"src/assets/BBD_Token_flattened.sol\":26632:26658  managers[manager] = status */\n      dup1\n      sload\n      not(0xff)\n      and\n      swap2\n      iszero\n      iszero\n      swap2\n      swap1\n      swap2\n      or\n      swap1\n      sstore\n        /* \"src/assets/BBD_Token_flattened.sol\":26555:26665  function setManager(address manager, bool status) external isOwner {... */\n      jump\t// out\n        /* \"src/assets/BBD_Token_flattened.sol\":14165:14343  function transfer(address to, uint256 value) public virtual returns (bool) {... */\n    tag_119:\n        /* \"src/assets/BBD_Token_flattened.sol\":14234:14238  bool */\n      0x00\n        /* \"src/assets/BBD_Token_flattened.sol\":4256:4266  msg.sender */\n      caller\n        /* \"src/assets/BBD_Token_flattened.sol\":14288:14315  _transfer(owner, to, value) */\n      tag_167\n        /* \"src/assets/BBD_Token_flattened.sol\":4256:4266  msg.sender */\n      dup2\n        /* \"src/assets/BBD_Token_flattened.sol\":14305:14307  to */\n      dup6\n        /* \"src/assets/BBD_Token_flattened.sol\":14309:14314  value */\n      dup6\n        /* \"src/assets/BBD_Token_flattened.sol\":14288:14297  _transfer */\n      tag_175\n        /* \"src/assets/BBD_Token_flattened.sol\":14288:14315  _transfer(owner, to, value) */\n      jump\t// in\n        /* \"src/assets/BBD_Token_flattened.sol\":26776:26877  function setSellingEnabled(bool _enabled) external isOwner {... */\n    tag_123:\n        /* \"src/assets/BBD_Token_flattened.sol\":22949:22955  _owner */\n      and(sub(shl(0xa0, 0x01), 0x01), sload(0x0d))\n        /* \"src/assets/BBD_Token_flattened.sol\":22959:22969  msg.sender */\n      caller\n        /* \"src/assets/BBD_Token_flattened.sol\":22949:22969  _owner == msg.sender */\n      eq\n        /* \"src/assets/BBD_Token_flattened.sol\":22941:22986  require(_owner == msg.sender, \"Not allowed!\") */\n      tag_220\n      jumpi\n      mload(0x40)\n      shl(0xe5, 0x461bcd)\n      dup2\n      mstore\n      0x04\n      add\n      tag_178\n      swap1\n      tag_179\n      jump\t// in\n    tag_220:\n        /* \"src/assets/BBD_Token_flattened.sol\":26845:26859  sellingEnabled */\n      0x0c\n        /* \"src/assets/BBD_Token_flattened.sol\":26845:26870  sellingEnabled = _enabled */\n      dup1\n      sload\n      swap2\n      iszero\n      iszero\n      shl(0xa8, 0x01)\n      mul\n      not(shl(0xa8, 0xff))\n      swap1\n      swap3\n      and\n      swap2\n      swap1\n      swap2\n      or\n      swap1\n      sstore\n        /* \"src/assets/BBD_Token_flattened.sol\":26776:26877  function setSellingEnabled(bool _enabled) external isOwner {... */\n      jump\t// out\n        /* \"src/assets/BBD_Token_flattened.sol\":25369:26023  function getNextUnlockInfo() external view returns (uint256 month, uint256 amountTotal, uint256 perWallet) {... */\n    tag_128:\n        /* \"src/assets/BBD_Token_flattened.sol\":25421:25434  uint256 month */\n      0x00\n        /* \"src/assets/BBD_Token_flattened.sol\":25436:25455  uint256 amountTotal */\n      dup1\n        /* \"src/assets/BBD_Token_flattened.sol\":25457:25474  uint256 perWallet */\n      0x00\n        /* \"src/assets/BBD_Token_flattened.sol\":25486:25495  uint256 m */\n      dup1\n        /* \"src/assets/BBD_Token_flattened.sol\":25498:25513  lastUnlockMonth */\n      sload(0x05)\n        /* \"src/assets/BBD_Token_flattened.sol\":25516:25517  1 */\n      0x01\n        /* \"src/assets/BBD_Token_flattened.sol\":25498:25517  lastUnlockMonth + 1 */\n      tag_224\n      swap2\n      swap1\n      tag_225\n      jump\t// in\n    tag_224:\n        /* \"src/assets/BBD_Token_flattened.sol\":25486:25517  uint256 m = lastUnlockMonth + 1 */\n      swap1\n      pop\n        /* \"src/assets/BBD_Token_flattened.sol\":25537:25538  3 */\n      0x03\n        /* \"src/assets/BBD_Token_flattened.sol\":25532:25533  m */\n      dup2\n        /* \"src/assets/BBD_Token_flattened.sol\":25532:25538  m <= 3 */\n      gt\n        /* \"src/assets/BBD_Token_flattened.sol\":25528:25839  if (m <= 3) {... */\n      tag_226\n      jumpi\n        /* \"src/assets/BBD_Token_flattened.sol\":25590:25594  1000 */\n      0x03e8\n        /* \"src/assets/BBD_Token_flattened.sol\":22013:22041  TOTAL_SUPPLY - PUBLIC_SUPPLY */\n      tag_227\n      shl(0x1b, 0x6765c793fa10079d)\n        /* \"src/assets/BBD_Token_flattened.sol\":21880:21901  10_000_000_000 * 1e18 */\n      0x204fce5e3e25026110000000\n        /* \"src/assets/BBD_Token_flattened.sol\":22013:22041  TOTAL_SUPPLY - PUBLIC_SUPPLY */\n      tag_228\n      jump\t// in\n    tag_227:\n        /* \"src/assets/BBD_Token_flattened.sol\":25569:25586  LOCKED_SUPPLY * 5 */\n      tag_229\n      swap1\n        /* \"src/assets/BBD_Token_flattened.sol\":25585:25586  5 */\n      0x05\n        /* \"src/assets/BBD_Token_flattened.sol\":25569:25586  LOCKED_SUPPLY * 5 */\n      tag_230\n      jump\t// in\n    tag_229:\n        /* \"src/assets/BBD_Token_flattened.sol\":25568:25594  (LOCKED_SUPPLY * 5) / 1000 */\n      tag_231\n      swap2\n      swap1\n      tag_232\n      jump\t// in\n    tag_231:\n        /* \"src/assets/BBD_Token_flattened.sol\":25554:25594  amountTotal = (LOCKED_SUPPLY * 5) / 1000 */\n      swap3\n      pop\n        /* \"src/assets/BBD_Token_flattened.sol\":25528:25839  if (m <= 3) {... */\n      jump(tag_243)\n    tag_226:\n        /* \"src/assets/BBD_Token_flattened.sol\":25620:25621  6 */\n      0x06\n        /* \"src/assets/BBD_Token_flattened.sol\":25615:25616  m */\n      dup2\n        /* \"src/assets/BBD_Token_flattened.sol\":25615:25621  m <= 6 */\n      gt\n        /* \"src/assets/BBD_Token_flattened.sol\":25611:25839  if (m <= 6) {... */\n      tag_234\n      jumpi\n        /* \"src/assets/BBD_Token_flattened.sol\":25673:25676  100 */\n      0x64\n        /* \"src/assets/BBD_Token_flattened.sol\":22013:22041  TOTAL_SUPPLY - PUBLIC_SUPPLY */\n      tag_235\n      shl(0x1b, 0x6765c793fa10079d)\n        /* \"src/assets/BBD_Token_flattened.sol\":21880:21901  10_000_000_000 * 1e18 */\n      0x204fce5e3e25026110000000\n        /* \"src/assets/BBD_Token_flattened.sol\":22013:22041  TOTAL_SUPPLY - PUBLIC_SUPPLY */\n      tag_228\n      jump\t// in\n    tag_235:\n        /* \"src/assets/BBD_Token_flattened.sol\":25652:25669  LOCKED_SUPPLY * 1 */\n      tag_229\n      swap1\n        /* \"src/assets/BBD_Token_flattened.sol\":25668:25669  1 */\n      0x01\n        /* \"src/assets/BBD_Token_flattened.sol\":25652:25669  LOCKED_SUPPLY * 1 */\n      tag_230\n      jump\t// in\n        /* \"src/assets/BBD_Token_flattened.sol\":25611:25839  if (m <= 6) {... */\n    tag_234:\n        /* \"src/assets/BBD_Token_flattened.sol\":25702:25703  9 */\n      0x09\n        /* \"src/assets/BBD_Token_flattened.sol\":25697:25698  m */\n      dup2\n        /* \"src/assets/BBD_Token_flattened.sol\":25697:25703  m <= 9 */\n      gt\n        /* \"src/assets/BBD_Token_flattened.sol\":25693:25839  if (m <= 9) {... */\n      tag_239\n      jumpi\n        /* \"src/assets/BBD_Token_flattened.sol\":25755:25758  100 */\n      0x64\n        /* \"src/assets/BBD_Token_flattened.sol\":22013:22041  TOTAL_SUPPLY - PUBLIC_SUPPLY */\n      tag_240\n      shl(0x1b, 0x6765c793fa10079d)\n        /* \"src/assets/BBD_Token_flattened.sol\":21880:21901  10_000_000_000 * 1e18 */\n      0x204fce5e3e25026110000000\n        /* \"src/assets/BBD_Token_flattened.sol\":22013:22041  TOTAL_SUPPLY - PUBLIC_SUPPLY */\n      tag_228\n      jump\t// in\n    tag_240:\n        /* \"src/assets/BBD_Token_flattened.sol\":25734:25751  LOCKED_SUPPLY * 2 */\n      tag_229\n      swap1\n        /* \"src/assets/BBD_Token_flattened.sol\":25750:25751  2 */\n      0x02\n        /* \"src/assets/BBD_Token_flattened.sol\":25734:25751  LOCKED_SUPPLY * 2 */\n      tag_230\n      jump\t// in\n        /* \"src/assets/BBD_Token_flattened.sol\":25693:25839  if (m <= 9) {... */\n    tag_239:\n        /* \"src/assets/BBD_Token_flattened.sol\":25825:25828  100 */\n      0x64\n        /* \"src/assets/BBD_Token_flattened.sol\":22013:22041  TOTAL_SUPPLY - PUBLIC_SUPPLY */\n      tag_244\n      shl(0x1b, 0x6765c793fa10079d)\n        /* \"src/assets/BBD_Token_flattened.sol\":21880:21901  10_000_000_000 * 1e18 */\n      0x204fce5e3e25026110000000\n        /* \"src/assets/BBD_Token_flattened.sol\":22013:22041  TOTAL_SUPPLY - PUBLIC_SUPPLY */\n      tag_228\n      jump\t// in\n    tag_244:\n        /* \"src/assets/BBD_Token_flattened.sol\":25804:25821  LOCKED_SUPPLY * 3 */\n      tag_245\n      swap1\n        /* \"src/assets/BBD_Token_flattened.sol\":25820:25821  3 */\n      0x03\n        /* \"src/assets/BBD_Token_flattened.sol\":25804:25821  LOCKED_SUPPLY * 3 */\n      tag_230\n      jump\t// in\n    tag_245:\n        /* \"src/assets/BBD_Token_flattened.sol\":25803:25828  (LOCKED_SUPPLY * 3) / 100 */\n      tag_246\n      swap2\n      swap1\n      tag_232\n      jump\t// in\n    tag_246:\n        /* \"src/assets/BBD_Token_flattened.sol\":25789:25828  amountTotal = (LOCKED_SUPPLY * 3) / 100 */\n      swap3\n      pop\n        /* \"src/assets/BBD_Token_flattened.sol\":25693:25839  if (m <= 9) {... */\n    tag_243:\n        /* \"src/assets/BBD_Token_flattened.sol\":22013:22041  TOTAL_SUPPLY - PUBLIC_SUPPLY */\n      tag_247\n      shl(0x1b, 0x6765c793fa10079d)\n        /* \"src/assets/BBD_Token_flattened.sol\":21880:21901  10_000_000_000 * 1e18 */\n      0x204fce5e3e25026110000000\n        /* \"src/assets/BBD_Token_flattened.sol\":22013:22041  TOTAL_SUPPLY - PUBLIC_SUPPLY */\n      tag_228\n      jump\t// in\n    tag_247:\n        /* \"src/assets/BBD_Token_flattened.sol\":25867:25880  totalUnlocked */\n      sload(0x06)\n        /* \"src/assets/BBD_Token_flattened.sol\":25853:25880  amountTotal + totalUnlocked */\n      tag_248\n      swap1\n        /* \"src/assets/BBD_Token_flattened.sol\":25853:25864  amountTotal */\n      dup6\n        /* \"src/assets/BBD_Token_flattened.sol\":25853:25880  amountTotal + totalUnlocked */\n      tag_225\n      jump\t// in\n    tag_248:\n        /* \"src/assets/BBD_Token_flattened.sol\":25853:25896  amountTotal + totalUnlocked > LOCKED_SUPPLY */\n      gt\n        /* \"src/assets/BBD_Token_flattened.sol\":25849:25966  if (amountTotal + totalUnlocked > LOCKED_SUPPLY) {... */\n      iszero\n      tag_249\n      jumpi\n        /* \"src/assets/BBD_Token_flattened.sol\":25942:25955  totalUnlocked */\n      sload(0x06)\n        /* \"src/assets/BBD_Token_flattened.sol\":22013:22041  TOTAL_SUPPLY - PUBLIC_SUPPLY */\n      tag_250\n      shl(0x1b, 0x6765c793fa10079d)\n        /* \"src/assets/BBD_Token_flattened.sol\":21880:21901  10_000_000_000 * 1e18 */\n      0x204fce5e3e25026110000000\n        /* \"src/assets/BBD_Token_flattened.sol\":22013:22041  TOTAL_SUPPLY - PUBLIC_SUPPLY */\n      tag_228\n      jump\t// in\n    tag_250:\n        /* \"src/assets/BBD_Token_flattened.sol\":25926:25955  LOCKED_SUPPLY - totalUnlocked */\n      tag_251\n      swap2\n      swap1\n      tag_228\n      jump\t// in\n    tag_251:\n        /* \"src/assets/BBD_Token_flattened.sol\":25912:25955  amountTotal = LOCKED_SUPPLY - totalUnlocked */\n      swap3\n      pop\n        /* \"src/assets/BBD_Token_flattened.sol\":25849:25966  if (amountTotal + totalUnlocked > LOCKED_SUPPLY) {... */\n    tag_249:\n        /* \"src/assets/BBD_Token_flattened.sol\":25984:25985  m */\n      dup1\n        /* \"src/assets/BBD_Token_flattened.sol\":25987:25998  amountTotal */\n      dup4\n        /* \"src/assets/BBD_Token_flattened.sol\":26000:26015  amountTotal / 6 */\n      tag_252\n        /* \"src/assets/BBD_Token_flattened.sol\":26014:26015  6 */\n      0x06\n        /* \"src/assets/BBD_Token_flattened.sol\":25987:25998  amountTotal */\n      dup3\n        /* \"src/assets/BBD_Token_flattened.sol\":26000:26015  amountTotal / 6 */\n      tag_232\n      jump\t// in\n    tag_252:\n        /* \"src/assets/BBD_Token_flattened.sol\":25976:26016  return (m, amountTotal, amountTotal / 6) */\n      swap4\n      pop\n      swap4\n      pop\n      swap4\n      pop\n      pop\n        /* \"src/assets/BBD_Token_flattened.sol\":25369:26023  function getNextUnlockInfo() external view returns (uint256 month, uint256 amountTotal, uint256 perWallet) {... */\n      swap1\n      swap2\n      swap3\n      jump\t// out\n        /* \"src/assets/BBD_Token_flattened.sol\":21973:22041  uint256 public constant LOCKED_SUPPLY = TOTAL_SUPPLY - PUBLIC_SUPPLY */\n    tag_146:\n        /* \"src/assets/BBD_Token_flattened.sol\":22013:22041  TOTAL_SUPPLY - PUBLIC_SUPPLY */\n      tag_254\n      shl(0x1b, 0x6765c793fa10079d)\n        /* \"src/assets/BBD_Token_flattened.sol\":21880:21901  10_000_000_000 * 1e18 */\n      0x204fce5e3e25026110000000\n        /* \"src/assets/BBD_Token_flattened.sol\":22013:22041  TOTAL_SUPPLY - PUBLIC_SUPPLY */\n      tag_228\n      jump\t// in\n    tag_254:\n        /* \"src/assets/BBD_Token_flattened.sol\":21973:22041  uint256 public constant LOCKED_SUPPLY = TOTAL_SUPPLY - PUBLIC_SUPPLY */\n      dup2\n      jump\t// out\n        /* \"src/assets/BBD_Token_flattened.sol\":23318:24876  function unlockTokens() external isOwner {... */\n    tag_152:\n        /* \"src/assets/BBD_Token_flattened.sol\":22949:22955  _owner */\n      and(sub(shl(0xa0, 0x01), 0x01), sload(0x0d))\n        /* \"src/assets/BBD_Token_flattened.sol\":22959:22969  msg.sender */\n      caller\n        /* \"src/assets/BBD_Token_flattened.sol\":22949:22969  _owner == msg.sender */\n      eq\n        /* \"src/assets/BBD_Token_flattened.sol\":22941:22986  require(_owner == msg.sender, \"Not allowed!\") */\n      tag_256\n      jumpi\n      mload(0x40)\n      shl(0xe5, 0x461bcd)\n      dup2\n      mstore\n      0x04\n      add\n      tag_178\n      swap1\n      tag_179\n      jump\t// in\n    tag_256:\n        /* \"src/assets/BBD_Token_flattened.sol\":22013:22041  TOTAL_SUPPLY - PUBLIC_SUPPLY */\n      tag_259\n      shl(0x1b, 0x6765c793fa10079d)\n        /* \"src/assets/BBD_Token_flattened.sol\":21880:21901  10_000_000_000 * 1e18 */\n      0x204fce5e3e25026110000000\n        /* \"src/assets/BBD_Token_flattened.sol\":22013:22041  TOTAL_SUPPLY - PUBLIC_SUPPLY */\n      tag_228\n      jump\t// in\n    tag_259:\n        /* \"src/assets/BBD_Token_flattened.sol\":23377:23390  totalUnlocked */\n      sload(0x06)\n        /* \"src/assets/BBD_Token_flattened.sol\":23377:23406  totalUnlocked < LOCKED_SUPPLY */\n      lt\n        /* \"src/assets/BBD_Token_flattened.sol\":23369:23438  require(totalUnlocked < LOCKED_SUPPLY, \"All tokens already unlocked\") */\n      tag_260\n      jumpi\n      mload(0x40)\n      shl(0xe5, 0x461bcd)\n      dup2\n      mstore\n        /* \"#utility.yul\":5824:5826   */\n      0x20\n        /* \"src/assets/BBD_Token_flattened.sol\":23369:23438  require(totalUnlocked < LOCKED_SUPPLY, \"All tokens already unlocked\") */\n      0x04\n      dup3\n      add\n        /* \"#utility.yul\":5806:5827   */\n      mstore\n        /* \"#utility.yul\":5863:5865   */\n      0x1b\n        /* \"#utility.yul\":5843:5861   */\n      0x24\n      dup3\n      add\n        /* \"#utility.yul\":5836:5866   */\n      mstore\n        /* \"#utility.yul\":5902:5931   */\n      0x416c6c20746f6b656e7320616c726561647920756e6c6f636b65640000000000\n        /* \"#utility.yul\":5882:5900   */\n      0x44\n      dup3\n      add\n        /* \"#utility.yul\":5875:5932   */\n      mstore\n        /* \"#utility.yul\":5949:5967   */\n      0x64\n      add\n        /* \"src/assets/BBD_Token_flattened.sol\":23369:23438  require(totalUnlocked < LOCKED_SUPPLY, \"All tokens already unlocked\") */\n      tag_178\n        /* \"#utility.yul\":5622:5973   */\n      jump\n        /* \"src/assets/BBD_Token_flattened.sol\":23369:23438  require(totalUnlocked < LOCKED_SUPPLY, \"All tokens already unlocked\") */\n    tag_260:\n        /* \"src/assets/BBD_Token_flattened.sol\":23449:23470  uint256 monthsElapsed */\n      0x00\n        /* \"src/assets/BBD_Token_flattened.sol\":23510:23517  30 days */\n      0x278d00\n        /* \"src/assets/BBD_Token_flattened.sol\":23474:23506  block.timestamp - startTimestamp */\n      tag_263\n        /* \"src/assets/BBD_Token_flattened.sol\":23492:23506  startTimestamp */\n      immutable(\"0x588e5ad3f145f9d841773d4229bac23d743ef980914ad5d2b613712259f67f55\")\n        /* \"src/assets/BBD_Token_flattened.sol\":23474:23489  block.timestamp */\n      timestamp\n        /* \"src/assets/BBD_Token_flattened.sol\":23474:23506  block.timestamp - startTimestamp */\n      tag_228\n      jump\t// in\n    tag_263:\n        /* \"src/assets/BBD_Token_flattened.sol\":23473:23517  (block.timestamp - startTimestamp) / 30 days */\n      tag_264\n      swap2\n      swap1\n      tag_232\n      jump\t// in\n    tag_264:\n        /* \"src/assets/BBD_Token_flattened.sol\":23449:23517  uint256 monthsElapsed = (block.timestamp - startTimestamp) / 30 days */\n      swap1\n      pop\n        /* \"src/assets/BBD_Token_flattened.sol\":23551:23566  lastUnlockMonth */\n      sload(0x05)\n        /* \"src/assets/BBD_Token_flattened.sol\":23535:23548  monthsElapsed */\n      dup2\n        /* \"src/assets/BBD_Token_flattened.sol\":23535:23566  monthsElapsed > lastUnlockMonth */\n      gt\n        /* \"src/assets/BBD_Token_flattened.sol\":23527:23593  require(monthsElapsed > lastUnlockMonth, \"No new month to unlock\") */\n      tag_265\n      jumpi\n      mload(0x40)\n      shl(0xe5, 0x461bcd)\n      dup2\n      mstore\n        /* \"#utility.yul\":6180:6182   */\n      0x20\n        /* \"src/assets/BBD_Token_flattened.sol\":23527:23593  require(monthsElapsed > lastUnlockMonth, \"No new month to unlock\") */\n      0x04\n      dup3\n      add\n        /* \"#utility.yul\":6162:6183   */\n      mstore\n        /* \"#utility.yul\":6219:6221   */\n      0x16\n        /* \"#utility.yul\":6199:6217   */\n      0x24\n      dup3\n      add\n        /* \"#utility.yul\":6192:6222   */\n      mstore\n      shl(0x50, 0x4e6f206e6577206d6f6e746820746f20756e6c6f636b)\n        /* \"#utility.yul\":6238:6256   */\n      0x44\n      dup3\n      add\n        /* \"#utility.yul\":6231:6283   */\n      mstore\n        /* \"#utility.yul\":6300:6318   */\n      0x64\n      add\n        /* \"src/assets/BBD_Token_flattened.sol\":23527:23593  require(monthsElapsed > lastUnlockMonth, \"No new month to unlock\") */\n      tag_178\n        /* \"#utility.yul\":5978:6324   */\n      jump\n        /* \"src/assets/BBD_Token_flattened.sol\":23527:23593  require(monthsElapsed > lastUnlockMonth, \"No new month to unlock\") */\n    tag_265:\n        /* \"src/assets/BBD_Token_flattened.sol\":23604:23626  uint256 tokensToUnlock */\n      0x00\n        /* \"src/assets/BBD_Token_flattened.sol\":23646:23655  uint256 m */\n      dup1\n        /* \"src/assets/BBD_Token_flattened.sol\":23658:23673  lastUnlockMonth */\n      sload(0x05)\n        /* \"src/assets/BBD_Token_flattened.sol\":23676:23677  1 */\n      0x01\n        /* \"src/assets/BBD_Token_flattened.sol\":23658:23677  lastUnlockMonth + 1 */\n      tag_271\n      swap2\n      swap1\n      tag_225\n      jump\t// in\n    tag_271:\n        /* \"src/assets/BBD_Token_flattened.sol\":23646:23677  uint256 m = lastUnlockMonth + 1 */\n      swap1\n      pop\n        /* \"src/assets/BBD_Token_flattened.sol\":23641:24113  for (uint256 m = lastUnlockMonth + 1; m <= monthsElapsed; m++) {... */\n    tag_268:\n        /* \"src/assets/BBD_Token_flattened.sol\":23684:23697  monthsElapsed */\n      dup3\n        /* \"src/assets/BBD_Token_flattened.sol\":23679:23680  m */\n      dup2\n        /* \"src/assets/BBD_Token_flattened.sol\":23679:23697  m <= monthsElapsed */\n      gt\n        /* \"src/assets/BBD_Token_flattened.sol\":23641:24113  for (uint256 m = lastUnlockMonth + 1; m <= monthsElapsed; m++) {... */\n      tag_269\n      jumpi\n        /* \"src/assets/BBD_Token_flattened.sol\":23727:23728  3 */\n      0x03\n        /* \"src/assets/BBD_Token_flattened.sol\":23722:23723  m */\n      dup2\n        /* \"src/assets/BBD_Token_flattened.sol\":23722:23728  m <= 3 */\n      gt\n        /* \"src/assets/BBD_Token_flattened.sol\":23718:24103  if (m <= 3) {... */\n      tag_272\n      jumpi\n        /* \"src/assets/BBD_Token_flattened.sol\":23788:23792  1000 */\n      0x03e8\n        /* \"src/assets/BBD_Token_flattened.sol\":22013:22041  TOTAL_SUPPLY - PUBLIC_SUPPLY */\n      tag_273\n      shl(0x1b, 0x6765c793fa10079d)\n        /* \"src/assets/BBD_Token_flattened.sol\":21880:21901  10_000_000_000 * 1e18 */\n      0x204fce5e3e25026110000000\n        /* \"src/assets/BBD_Token_flattened.sol\":22013:22041  TOTAL_SUPPLY - PUBLIC_SUPPLY */\n      tag_228\n      jump\t// in\n    tag_273:\n        /* \"src/assets/BBD_Token_flattened.sol\":23767:23784  LOCKED_SUPPLY * 5 */\n      tag_274\n      swap1\n        /* \"src/assets/BBD_Token_flattened.sol\":23783:23784  5 */\n      0x05\n        /* \"src/assets/BBD_Token_flattened.sol\":23767:23784  LOCKED_SUPPLY * 5 */\n      tag_230\n      jump\t// in\n    tag_274:\n        /* \"src/assets/BBD_Token_flattened.sol\":23766:23792  (LOCKED_SUPPLY * 5) / 1000 */\n      tag_275\n      swap2\n      swap1\n      tag_232\n      jump\t// in\n    tag_275:\n        /* \"src/assets/BBD_Token_flattened.sol\":23748:23792  tokensToUnlock += (LOCKED_SUPPLY * 5) / 1000 */\n      tag_276\n      swap1\n      dup4\n      tag_225\n      jump\t// in\n    tag_276:\n      swap2\n      pop\n        /* \"src/assets/BBD_Token_flattened.sol\":23718:24103  if (m <= 3) {... */\n      jump(tag_289)\n    tag_272:\n        /* \"src/assets/BBD_Token_flattened.sol\":23830:23831  6 */\n      0x06\n        /* \"src/assets/BBD_Token_flattened.sol\":23825:23826  m */\n      dup2\n        /* \"src/assets/BBD_Token_flattened.sol\":23825:23831  m <= 6 */\n      gt\n        /* \"src/assets/BBD_Token_flattened.sol\":23821:24103  if (m <= 6) {... */\n      tag_278\n      jumpi\n        /* \"src/assets/BBD_Token_flattened.sol\":23891:23894  100 */\n      0x64\n        /* \"src/assets/BBD_Token_flattened.sol\":22013:22041  TOTAL_SUPPLY - PUBLIC_SUPPLY */\n      tag_279\n      shl(0x1b, 0x6765c793fa10079d)\n        /* \"src/assets/BBD_Token_flattened.sol\":21880:21901  10_000_000_000 * 1e18 */\n      0x204fce5e3e25026110000000\n        /* \"src/assets/BBD_Token_flattened.sol\":22013:22041  TOTAL_SUPPLY - PUBLIC_SUPPLY */\n      tag_228\n      jump\t// in\n    tag_279:\n        /* \"src/assets/BBD_Token_flattened.sol\":23870:23887  LOCKED_SUPPLY * 1 */\n      tag_274\n      swap1\n        /* \"src/assets/BBD_Token_flattened.sol\":23886:23887  1 */\n      0x01\n        /* \"src/assets/BBD_Token_flattened.sol\":23870:23887  LOCKED_SUPPLY * 1 */\n      tag_230\n      jump\t// in\n        /* \"src/assets/BBD_Token_flattened.sol\":23821:24103  if (m <= 6) {... */\n    tag_278:\n        /* \"src/assets/BBD_Token_flattened.sol\":23930:23931  9 */\n      0x09\n        /* \"src/assets/BBD_Token_flattened.sol\":23925:23926  m */\n      dup2\n        /* \"src/assets/BBD_Token_flattened.sol\":23925:23931  m <= 9 */\n      gt\n        /* \"src/assets/BBD_Token_flattened.sol\":23921:24103  if (m <= 9) {... */\n      tag_284\n      jumpi\n        /* \"src/assets/BBD_Token_flattened.sol\":23991:23994  100 */\n      0x64\n        /* \"src/assets/BBD_Token_flattened.sol\":22013:22041  TOTAL_SUPPLY - PUBLIC_SUPPLY */\n      tag_285\n      shl(0x1b, 0x6765c793fa10079d)\n        /* \"src/assets/BBD_Token_flattened.sol\":21880:21901  10_000_000_000 * 1e18 */\n      0x204fce5e3e25026110000000\n        /* \"src/assets/BBD_Token_flattened.sol\":22013:22041  TOTAL_SUPPLY - PUBLIC_SUPPLY */\n      tag_228\n      jump\t// in\n    tag_285:\n        /* \"src/assets/BBD_Token_flattened.sol\":23970:23987  LOCKED_SUPPLY * 2 */\n      tag_274\n      swap1\n        /* \"src/assets/BBD_Token_flattened.sol\":23986:23987  2 */\n      0x02\n        /* \"src/assets/BBD_Token_flattened.sol\":23970:23987  LOCKED_SUPPLY * 2 */\n      tag_230\n      jump\t// in\n        /* \"src/assets/BBD_Token_flattened.sol\":23921:24103  if (m <= 9) {... */\n    tag_284:\n        /* \"src/assets/BBD_Token_flattened.sol\":24079:24082  100 */\n      0x64\n        /* \"src/assets/BBD_Token_flattened.sol\":22013:22041  TOTAL_SUPPLY - PUBLIC_SUPPLY */\n      tag_290\n      shl(0x1b, 0x6765c793fa10079d)\n        /* \"src/assets/BBD_Token_flattened.sol\":21880:21901  10_000_000_000 * 1e18 */\n      0x204fce5e3e25026110000000\n        /* \"src/assets/BBD_Token_flattened.sol\":22013:22041  TOTAL_SUPPLY - PUBLIC_SUPPLY */\n      tag_228\n      jump\t// in\n    tag_290:\n        /* \"src/assets/BBD_Token_flattened.sol\":24058:24075  LOCKED_SUPPLY * 3 */\n      tag_291\n      swap1\n        /* \"src/assets/BBD_Token_flattened.sol\":24074:24075  3 */\n      0x03\n        /* \"src/assets/BBD_Token_flattened.sol\":24058:24075  LOCKED_SUPPLY * 3 */\n      tag_230\n      jump\t// in\n    tag_291:\n        /* \"src/assets/BBD_Token_flattened.sol\":24057:24082  (LOCKED_SUPPLY * 3) / 100 */\n      tag_292\n      swap2\n      swap1\n      tag_232\n      jump\t// in\n    tag_292:\n        /* \"src/assets/BBD_Token_flattened.sol\":24039:24082  tokensToUnlock += (LOCKED_SUPPLY * 3) / 100 */\n      tag_293\n      swap1\n      dup4\n      tag_225\n      jump\t// in\n    tag_293:\n      swap2\n      pop\n        /* \"src/assets/BBD_Token_flattened.sol\":23921:24103  if (m <= 9) {... */\n    tag_289:\n        /* \"src/assets/BBD_Token_flattened.sol\":23699:23702  m++ */\n      dup1\n      tag_294\n      dup2\n      tag_295\n      jump\t// in\n    tag_294:\n      swap2\n      pop\n      pop\n        /* \"src/assets/BBD_Token_flattened.sol\":23641:24113  for (uint256 m = lastUnlockMonth + 1; m <= monthsElapsed; m++) {... */\n      jump(tag_268)\n    tag_269:\n      pop\n        /* \"src/assets/BBD_Token_flattened.sol\":22013:22041  TOTAL_SUPPLY - PUBLIC_SUPPLY */\n      tag_296\n      shl(0x1b, 0x6765c793fa10079d)\n        /* \"src/assets/BBD_Token_flattened.sol\":21880:21901  10_000_000_000 * 1e18 */\n      0x204fce5e3e25026110000000\n        /* \"src/assets/BBD_Token_flattened.sol\":22013:22041  TOTAL_SUPPLY - PUBLIC_SUPPLY */\n      tag_228\n      jump\t// in\n    tag_296:\n        /* \"src/assets/BBD_Token_flattened.sol\":24144:24157  totalUnlocked */\n      sload(0x06)\n        /* \"src/assets/BBD_Token_flattened.sol\":24127:24157  tokensToUnlock + totalUnlocked */\n      tag_297\n      swap1\n        /* \"src/assets/BBD_Token_flattened.sol\":24127:24141  tokensToUnlock */\n      dup4\n        /* \"src/assets/BBD_Token_flattened.sol\":24127:24157  tokensToUnlock + totalUnlocked */\n      tag_225\n      jump\t// in\n    tag_297:\n        /* \"src/assets/BBD_Token_flattened.sol\":24127:24173  tokensToUnlock + totalUnlocked > LOCKED_SUPPLY */\n      gt\n        /* \"src/assets/BBD_Token_flattened.sol\":24123:24282  if (tokensToUnlock + totalUnlocked > LOCKED_SUPPLY) {... */\n      iszero\n      tag_298\n      jumpi\n        /* \"src/assets/BBD_Token_flattened.sol\":24222:24235  totalUnlocked */\n      sload(0x06)\n        /* \"src/assets/BBD_Token_flattened.sol\":22013:22041  TOTAL_SUPPLY - PUBLIC_SUPPLY */\n      tag_299\n      shl(0x1b, 0x6765c793fa10079d)\n        /* \"src/assets/BBD_Token_flattened.sol\":21880:21901  10_000_000_000 * 1e18 */\n      0x204fce5e3e25026110000000\n        /* \"src/assets/BBD_Token_flattened.sol\":22013:22041  TOTAL_SUPPLY - PUBLIC_SUPPLY */\n      tag_228\n      jump\t// in\n    tag_299:\n        /* \"src/assets/BBD_Token_flattened.sol\":24206:24235  LOCKED_SUPPLY - totalUnlocked */\n      tag_300\n      swap2\n      swap1\n      tag_228\n      jump\t// in\n    tag_300:\n        /* \"src/assets/BBD_Token_flattened.sol\":24189:24235  tokensToUnlock = LOCKED_SUPPLY - totalUnlocked */\n      swap1\n      pop\n        /* \"src/assets/BBD_Token_flattened.sol\":24123:24282  if (tokensToUnlock + totalUnlocked > LOCKED_SUPPLY) {... */\n    tag_298:\n        /* \"src/assets/BBD_Token_flattened.sol\":24317:24318  0 */\n      0x00\n        /* \"src/assets/BBD_Token_flattened.sol\":24300:24314  tokensToUnlock */\n      dup2\n        /* \"src/assets/BBD_Token_flattened.sol\":24300:24318  tokensToUnlock > 0 */\n      gt\n        /* \"src/assets/BBD_Token_flattened.sol\":24292:24340  require(tokensToUnlock > 0, \"Nothing to unlock\") */\n      tag_301\n      jumpi\n      mload(0x40)\n      shl(0xe5, 0x461bcd)\n      dup2\n      mstore\n        /* \"#utility.yul\":6671:6673   */\n      0x20\n        /* \"src/assets/BBD_Token_flattened.sol\":24292:24340  require(tokensToUnlock > 0, \"Nothing to unlock\") */\n      0x04\n      dup3\n      add\n        /* \"#utility.yul\":6653:6674   */\n      mstore\n        /* \"#utility.yul\":6710:6712   */\n      0x11\n        /* \"#utility.yul\":6690:6708   */\n      0x24\n      dup3\n      add\n        /* \"#utility.yul\":6683:6713   */\n      mstore\n      shl(0x78, 0x4e6f7468696e6720746f20756e6c6f636b)\n        /* \"#utility.yul\":6729:6747   */\n      0x44\n      dup3\n      add\n        /* \"#utility.yul\":6722:6769   */\n      mstore\n        /* \"#utility.yul\":6786:6804   */\n      0x64\n      add\n        /* \"src/assets/BBD_Token_flattened.sol\":24292:24340  require(tokensToUnlock > 0, \"Nothing to unlock\") */\n      tag_178\n        /* \"#utility.yul\":6469:6810   */\n      jump\n        /* \"src/assets/BBD_Token_flattened.sol\":24292:24340  require(tokensToUnlock > 0, \"Nothing to unlock\") */\n    tag_301:\n        /* \"src/assets/BBD_Token_flattened.sol\":24369:24382  monthsElapsed */\n      dup2\n        /* \"src/assets/BBD_Token_flattened.sol\":24351:24366  lastUnlockMonth */\n      0x05\n        /* \"src/assets/BBD_Token_flattened.sol\":24351:24382  lastUnlockMonth = monthsElapsed */\n      dup2\n      swap1\n      sstore\n      pop\n        /* \"src/assets/BBD_Token_flattened.sol\":24409:24423  tokensToUnlock */\n      dup1\n        /* \"src/assets/BBD_Token_flattened.sol\":24392:24405  totalUnlocked */\n      0x06\n      0x00\n        /* \"src/assets/BBD_Token_flattened.sol\":24392:24423  totalUnlocked += tokensToUnlock */\n      dup3\n      dup3\n      sload\n      tag_304\n      swap2\n      swap1\n      tag_225\n      jump\t// in\n    tag_304:\n      swap1\n      swap2\n      sstore\n      pop\n        /* \"src/assets/BBD_Token_flattened.sol\":24434:24447  uint256 share */\n      0x00\n      swap1\n      pop\n        /* \"src/assets/BBD_Token_flattened.sol\":24450:24468  tokensToUnlock / 6 */\n      tag_305\n        /* \"src/assets/BBD_Token_flattened.sol\":24467:24468  6 */\n      0x06\n        /* \"src/assets/BBD_Token_flattened.sol\":24450:24464  tokensToUnlock */\n      dup4\n        /* \"src/assets/BBD_Token_flattened.sol\":24450:24468  tokensToUnlock / 6 */\n      tag_232\n      jump\t// in\n    tag_305:\n        /* \"src/assets/BBD_Token_flattened.sol\":24504:24520  liquidityListing */\n      sload(0x07)\n        /* \"src/assets/BBD_Token_flattened.sol\":24434:24468  uint256 share = tokensToUnlock / 6 */\n      swap1\n      swap2\n      pop\n        /* \"src/assets/BBD_Token_flattened.sol\":24479:24528  _transfer(address(this), liquidityListing, share) */\n      tag_306\n      swap1\n        /* \"src/assets/BBD_Token_flattened.sol\":24497:24501  this */\n      address\n      swap1\n      sub(shl(0xa0, 0x01), 0x01)\n        /* \"src/assets/BBD_Token_flattened.sol\":24504:24520  liquidityListing */\n      and\n        /* \"src/assets/BBD_Token_flattened.sol\":24434:24468  uint256 share = tokensToUnlock / 6 */\n      dup4\n        /* \"src/assets/BBD_Token_flattened.sol\":24479:24488  _transfer */\n      tag_175\n        /* \"src/assets/BBD_Token_flattened.sol\":24479:24528  _transfer(address(this), liquidityListing, share) */\n      jump\t// in\n    tag_306:\n        /* \"src/assets/BBD_Token_flattened.sol\":24563:24575  gameTreasury */\n      sload(0x08)\n        /* \"src/assets/BBD_Token_flattened.sol\":24538:24583  _transfer(address(this), gameTreasury, share) */\n      tag_307\n      swap1\n        /* \"src/assets/BBD_Token_flattened.sol\":24556:24560  this */\n      address\n      swap1\n      sub(shl(0xa0, 0x01), 0x01)\n        /* \"src/assets/BBD_Token_flattened.sol\":24563:24575  gameTreasury */\n      and\n        /* \"src/assets/BBD_Token_flattened.sol\":24577:24582  share */\n      dup4\n        /* \"src/assets/BBD_Token_flattened.sol\":24538:24547  _transfer */\n      tag_175\n        /* \"src/assets/BBD_Token_flattened.sol\":24538:24583  _transfer(address(this), gameTreasury, share) */\n      jump\t// in\n    tag_307:\n        /* \"src/assets/BBD_Token_flattened.sol\":24618:24627  marketing */\n      sload(0x09)\n        /* \"src/assets/BBD_Token_flattened.sol\":24593:24635  _transfer(address(this), marketing, share) */\n      tag_308\n      swap1\n        /* \"src/assets/BBD_Token_flattened.sol\":24611:24615  this */\n      address\n      swap1\n      sub(shl(0xa0, 0x01), 0x01)\n        /* \"src/assets/BBD_Token_flattened.sol\":24618:24627  marketing */\n      and\n        /* \"src/assets/BBD_Token_flattened.sol\":24629:24634  share */\n      dup4\n        /* \"src/assets/BBD_Token_flattened.sol\":24593:24602  _transfer */\n      tag_175\n        /* \"src/assets/BBD_Token_flattened.sol\":24593:24635  _transfer(address(this), marketing, share) */\n      jump\t// in\n    tag_308:\n        /* \"src/assets/BBD_Token_flattened.sol\":24670:24683  stakingReward */\n      sload(0x0a)\n        /* \"src/assets/BBD_Token_flattened.sol\":24645:24691  _transfer(address(this), stakingReward, share) */\n      tag_309\n      swap1\n        /* \"src/assets/BBD_Token_flattened.sol\":24663:24667  this */\n      address\n      swap1\n      sub(shl(0xa0, 0x01), 0x01)\n        /* \"src/assets/BBD_Token_flattened.sol\":24670:24683  stakingReward */\n      and\n        /* \"src/assets/BBD_Token_flattened.sol\":24685:24690  share */\n      dup4\n        /* \"src/assets/BBD_Token_flattened.sol\":24645:24654  _transfer */\n      tag_175\n        /* \"src/assets/BBD_Token_flattened.sol\":24645:24691  _transfer(address(this), stakingReward, share) */\n      jump\t// in\n    tag_309:\n        /* \"src/assets/BBD_Token_flattened.sol\":24726:24739  referralBonus */\n      sload(0x0b)\n        /* \"src/assets/BBD_Token_flattened.sol\":24701:24747  _transfer(address(this), referralBonus, share) */\n      tag_310\n      swap1\n        /* \"src/assets/BBD_Token_flattened.sol\":24719:24723  this */\n      address\n      swap1\n      sub(shl(0xa0, 0x01), 0x01)\n        /* \"src/assets/BBD_Token_flattened.sol\":24726:24739  referralBonus */\n      and\n        /* \"src/assets/BBD_Token_flattened.sol\":24741:24746  share */\n      dup4\n        /* \"src/assets/BBD_Token_flattened.sol\":24701:24710  _transfer */\n      tag_175\n        /* \"src/assets/BBD_Token_flattened.sol\":24701:24747  _transfer(address(this), referralBonus, share) */\n      jump\t// in\n    tag_310:\n        /* \"src/assets/BBD_Token_flattened.sol\":24782:24792  awardBonus */\n      sload(0x0c)\n        /* \"src/assets/BBD_Token_flattened.sol\":24757:24800  _transfer(address(this), awardBonus, share) */\n      tag_311\n      swap1\n        /* \"src/assets/BBD_Token_flattened.sol\":24775:24779  this */\n      address\n      swap1\n      sub(shl(0xa0, 0x01), 0x01)\n        /* \"src/assets/BBD_Token_flattened.sol\":24782:24792  awardBonus */\n      and\n        /* \"src/assets/BBD_Token_flattened.sol\":24794:24799  share */\n      dup4\n        /* \"src/assets/BBD_Token_flattened.sol\":24757:24766  _transfer */\n      tag_175\n        /* \"src/assets/BBD_Token_flattened.sol\":24757:24800  _transfer(address(this), awardBonus, share) */\n      jump\t// in\n    tag_311:\n        /* \"src/assets/BBD_Token_flattened.sol\":24831:24846  lastUnlockMonth */\n      sload(0x05)\n        /* \"src/assets/BBD_Token_flattened.sol\":24855:24868  totalUnlocked */\n      sload(0x06)\n        /* \"src/assets/BBD_Token_flattened.sol\":24816:24869  TokensUnlocked(lastUnlockMonth, share, totalUnlocked) */\n      0x40\n      dup1\n      mload\n        /* \"#utility.yul\":3377:3402   */\n      swap3\n      dup4\n      mstore\n        /* \"#utility.yul\":3433:3435   */\n      0x20\n        /* \"#utility.yul\":3418:3436   */\n      dup4\n      add\n        /* \"#utility.yul\":3411:3445   */\n      dup5\n      swap1\n      mstore\n        /* \"#utility.yul\":3461:3479   */\n      dup3\n      add\n        /* \"#utility.yul\":3454:3488   */\n      mstore\n        /* \"src/assets/BBD_Token_flattened.sol\":24816:24869  TokensUnlocked(lastUnlockMonth, share, totalUnlocked) */\n      0xd5c1e53febf89038959691e212f7a18f34f9ac92dd9965a138ccfc695e9774ac\n      swap1\n        /* \"#utility.yul\":3365:3367   */\n      0x60\n        /* \"#utility.yul\":3350:3368   */\n      add\n        /* \"src/assets/BBD_Token_flattened.sol\":24816:24869  TokensUnlocked(lastUnlockMonth, share, totalUnlocked) */\n      mload(0x40)\n      dup1\n      swap2\n      sub\n      swap1\n      log1\n        /* \"src/assets/BBD_Token_flattened.sol\":23359:24876  {... */\n      pop\n      pop\n      pop\n        /* \"src/assets/BBD_Token_flattened.sol\":23318:24876  function unlockTokens() external isOwner {... */\n      jump\t// out\n        /* \"src/assets/BBD_Token_flattened.sol\":19576:19704  function _approve(address owner, address spender, uint256 value) internal {... */\n    tag_168:\n        /* \"src/assets/BBD_Token_flattened.sol\":19660:19697  _approve(owner, spender, value, true) */\n      tag_315\n        /* \"src/assets/BBD_Token_flattened.sol\":19669:19674  owner */\n      dup4\n        /* \"src/assets/BBD_Token_flattened.sol\":19676:19683  spender */\n      dup4\n        /* \"src/assets/BBD_Token_flattened.sol\":19685:19690  value */\n      dup4\n        /* \"src/assets/BBD_Token_flattened.sol\":19692:19696  true */\n      0x01\n        /* \"src/assets/BBD_Token_flattened.sol\":19660:19668  _approve */\n      tag_316\n        /* \"src/assets/BBD_Token_flattened.sol\":19660:19697  _approve(owner, spender, value, true) */\n      jump\t// in\n    tag_315:\n        /* \"src/assets/BBD_Token_flattened.sol\":19576:19704  function _approve(address owner, address spender, uint256 value) internal {... */\n      pop\n      pop\n      pop\n      jump\t// out\n        /* \"src/assets/BBD_Token_flattened.sol\":21265:21741  function _spendAllowance(address owner, address spender, uint256 value) internal virtual {... */\n    tag_173:\n      sub(shl(0xa0, 0x01), 0x01)\n        /* \"src/assets/BBD_Token_flattened.sol\":14507:14525  _allowances[owner] */\n      dup4\n      dup2\n      and\n        /* \"src/assets/BBD_Token_flattened.sol\":21364:21388  uint256 currentAllowance */\n      0x00\n        /* \"src/assets/BBD_Token_flattened.sol\":14507:14525  _allowances[owner] */\n      swap1\n      dup2\n      mstore\n        /* \"src/assets/BBD_Token_flattened.sol\":14507:14518  _allowances */\n      0x01\n        /* \"src/assets/BBD_Token_flattened.sol\":14507:14525  _allowances[owner] */\n      0x20\n      swap1\n      dup2\n      mstore\n      0x40\n      dup1\n      dup4\n      keccak256\n        /* \"src/assets/BBD_Token_flattened.sol\":14507:14534  _allowances[owner][spender] */\n      swap4\n      dup7\n      and\n      dup4\n      mstore\n      swap3\n      swap1\n      mstore\n      keccak256\n      sload\n      not(0x00)\n        /* \"src/assets/BBD_Token_flattened.sol\":21430:21466  currentAllowance < type(uint256).max */\n      dup2\n      lt\n        /* \"src/assets/BBD_Token_flattened.sol\":21426:21735  if (currentAllowance < type(uint256).max) {... */\n      iszero\n      tag_323\n      jumpi\n        /* \"src/assets/BBD_Token_flattened.sol\":21505:21510  value */\n      dup2\n        /* \"src/assets/BBD_Token_flattened.sol\":21486:21502  currentAllowance */\n      dup2\n        /* \"src/assets/BBD_Token_flattened.sol\":21486:21510  currentAllowance < value */\n      lt\n        /* \"src/assets/BBD_Token_flattened.sol\":21482:21612  if (currentAllowance < value) {... */\n      iszero\n      tag_320\n      jumpi\n        /* \"src/assets/BBD_Token_flattened.sol\":21537:21597  ERC20InsufficientAllowance(spender, currentAllowance, value) */\n      mload(0x40)\n      shl(0xe1, 0x7dc7a0d9)\n      dup2\n      mstore\n      sub(shl(0xa0, 0x01), 0x01)\n        /* \"#utility.yul\":7035:7067   */\n      dup5\n      and\n        /* \"src/assets/BBD_Token_flattened.sol\":21537:21597  ERC20InsufficientAllowance(spender, currentAllowance, value) */\n      0x04\n      dup3\n      add\n        /* \"#utility.yul\":7017:7068   */\n      mstore\n        /* \"#utility.yul\":7084:7102   */\n      0x24\n      dup2\n      add\n        /* \"#utility.yul\":7077:7111   */\n      dup3\n      swap1\n      mstore\n        /* \"#utility.yul\":7127:7145   */\n      0x44\n      dup2\n      add\n        /* \"#utility.yul\":7120:7154   */\n      dup4\n      swap1\n      mstore\n        /* \"#utility.yul\":6990:7008   */\n      0x64\n      add\n        /* \"src/assets/BBD_Token_flattened.sol\":21537:21597  ERC20InsufficientAllowance(spender, currentAllowance, value) */\n      tag_178\n        /* \"#utility.yul\":6815:7160   */\n      jump\n        /* \"src/assets/BBD_Token_flattened.sol\":21482:21612  if (currentAllowance < value) {... */\n    tag_320:\n        /* \"src/assets/BBD_Token_flattened.sol\":21653:21710  _approve(owner, spender, currentAllowance - value, false) */\n      tag_323\n        /* \"src/assets/BBD_Token_flattened.sol\":21662:21667  owner */\n      dup5\n        /* \"src/assets/BBD_Token_flattened.sol\":21669:21676  spender */\n      dup5\n        /* \"src/assets/BBD_Token_flattened.sol\":21697:21702  value */\n      dup5\n        /* \"src/assets/BBD_Token_flattened.sol\":21678:21694  currentAllowance */\n      dup5\n        /* \"src/assets/BBD_Token_flattened.sol\":21678:21702  currentAllowance - value */\n      sub\n        /* \"src/assets/BBD_Token_flattened.sol\":21704:21709  false */\n      0x00\n        /* \"src/assets/BBD_Token_flattened.sol\":21653:21661  _approve */\n      tag_316\n        /* \"src/assets/BBD_Token_flattened.sol\":21653:21710  _approve(owner, spender, currentAllowance - value, false) */\n      jump\t// in\n    tag_323:\n        /* \"src/assets/BBD_Token_flattened.sol\":21354:21741  {... */\n      pop\n        /* \"src/assets/BBD_Token_flattened.sol\":21265:21741  function _spendAllowance(address owner, address spender, uint256 value) internal virtual {... */\n      pop\n      pop\n      pop\n      jump\t// out\n        /* \"src/assets/BBD_Token_flattened.sol\":16243:16543  function _transfer(address from, address to, uint256 value) internal {... */\n    tag_175:\n      sub(shl(0xa0, 0x01), 0x01)\n        /* \"src/assets/BBD_Token_flattened.sol\":16326:16344  from == address(0) */\n      dup4\n      and\n        /* \"src/assets/BBD_Token_flattened.sol\":16322:16408  if (from == address(0)) {... */\n      tag_325\n      jumpi\n        /* \"src/assets/BBD_Token_flattened.sol\":16367:16397  ERC20InvalidSender(address(0)) */\n      mload(0x40)\n      shl(0xe1, 0x4b637e8f)\n      dup2\n      mstore\n        /* \"src/assets/BBD_Token_flattened.sol\":16394:16395  0 */\n      0x00\n        /* \"src/assets/BBD_Token_flattened.sol\":16367:16397  ERC20InvalidSender(address(0)) */\n      0x04\n      dup3\n      add\n        /* \"#utility.yul\":160:211   */\n      mstore\n        /* \"#utility.yul\":133:151   */\n      0x24\n      add\n        /* \"src/assets/BBD_Token_flattened.sol\":16367:16397  ERC20InvalidSender(address(0)) */\n      tag_178\n        /* \"#utility.yul\":14:217   */\n      jump\n        /* \"src/assets/BBD_Token_flattened.sol\":16322:16408  if (from == address(0)) {... */\n    tag_325:\n      sub(shl(0xa0, 0x01), 0x01)\n        /* \"src/assets/BBD_Token_flattened.sol\":16421:16437  to == address(0) */\n      dup3\n      and\n        /* \"src/assets/BBD_Token_flattened.sol\":16417:16503  if (to == address(0)) {... */\n      tag_327\n      jumpi\n        /* \"src/assets/BBD_Token_flattened.sol\":16460:16492  ERC20InvalidReceiver(address(0)) */\n      mload(0x40)\n      shl(0xe0, 0xec442f05)\n      dup2\n      mstore\n        /* \"src/assets/BBD_Token_flattened.sol\":16489:16490  0 */\n      0x00\n        /* \"src/assets/BBD_Token_flattened.sol\":16460:16492  ERC20InvalidReceiver(address(0)) */\n      0x04\n      dup3\n      add\n        /* \"#utility.yul\":160:211   */\n      mstore\n        /* \"#utility.yul\":133:151   */\n      0x24\n      add\n        /* \"src/assets/BBD_Token_flattened.sol\":16460:16492  ERC20InvalidReceiver(address(0)) */\n      tag_178\n        /* \"#utility.yul\":14:217   */\n      jump\n        /* \"src/assets/BBD_Token_flattened.sol\":16417:16503  if (to == address(0)) {... */\n    tag_327:\n        /* \"src/assets/BBD_Token_flattened.sol\":16512:16536  _update(from, to, value) */\n      tag_315\n        /* \"src/assets/BBD_Token_flattened.sol\":16520:16524  from */\n      dup4\n        /* \"src/assets/BBD_Token_flattened.sol\":16526:16528  to */\n      dup4\n        /* \"src/assets/BBD_Token_flattened.sol\":16530:16535  value */\n      dup4\n        /* \"src/assets/BBD_Token_flattened.sol\":16512:16519  _update */\n      tag_330\n        /* \"src/assets/BBD_Token_flattened.sol\":16512:16536  _update(from, to, value) */\n      jump\t// in\n        /* \"src/assets/BBD_Token_flattened.sol\":20551:20983  function _approve(address owner, address spender, uint256 value, bool emitEvent) internal virtual {... */\n    tag_316:\n      sub(shl(0xa0, 0x01), 0x01)\n        /* \"src/assets/BBD_Token_flattened.sol\":20663:20682  owner == address(0) */\n      dup5\n      and\n        /* \"src/assets/BBD_Token_flattened.sol\":20659:20748  if (owner == address(0)) {... */\n      tag_332\n      jumpi\n        /* \"src/assets/BBD_Token_flattened.sol\":20705:20737  ERC20InvalidApprover(address(0)) */\n      mload(0x40)\n      shl(0xe0, 0xe602df05)\n      dup2\n      mstore\n        /* \"src/assets/BBD_Token_flattened.sol\":20734:20735  0 */\n      0x00\n        /* \"src/assets/BBD_Token_flattened.sol\":20705:20737  ERC20InvalidApprover(address(0)) */\n      0x04\n      dup3\n      add\n        /* \"#utility.yul\":160:211   */\n      mstore\n        /* \"#utility.yul\":133:151   */\n      0x24\n      add\n        /* \"src/assets/BBD_Token_flattened.sol\":20705:20737  ERC20InvalidApprover(address(0)) */\n      tag_178\n        /* \"#utility.yul\":14:217   */\n      jump\n        /* \"src/assets/BBD_Token_flattened.sol\":20659:20748  if (owner == address(0)) {... */\n    tag_332:\n      sub(shl(0xa0, 0x01), 0x01)\n        /* \"src/assets/BBD_Token_flattened.sol\":20761:20782  spender == address(0) */\n      dup4\n      and\n        /* \"src/assets/BBD_Token_flattened.sol\":20757:20847  if (spender == address(0)) {... */\n      tag_334\n      jumpi\n        /* \"src/assets/BBD_Token_flattened.sol\":20805:20836  ERC20InvalidSpender(address(0)) */\n      mload(0x40)\n      shl(0xe1, 0x4a1406b1)\n      dup2\n      mstore\n        /* \"src/assets/BBD_Token_flattened.sol\":20833:20834  0 */\n      0x00\n        /* \"src/assets/BBD_Token_flattened.sol\":20805:20836  ERC20InvalidSpender(address(0)) */\n      0x04\n      dup3\n      add\n        /* \"#utility.yul\":160:211   */\n      mstore\n        /* \"#utility.yul\":133:151   */\n      0x24\n      add\n        /* \"src/assets/BBD_Token_flattened.sol\":20805:20836  ERC20InvalidSpender(address(0)) */\n      tag_178\n        /* \"#utility.yul\":14:217   */\n      jump\n        /* \"src/assets/BBD_Token_flattened.sol\":20757:20847  if (spender == address(0)) {... */\n    tag_334:\n      sub(shl(0xa0, 0x01), 0x01)\n        /* \"src/assets/BBD_Token_flattened.sol\":20856:20874  _allowances[owner] */\n      dup1\n      dup6\n      and\n      0x00\n      swap1\n      dup2\n      mstore\n        /* \"src/assets/BBD_Token_flattened.sol\":20856:20867  _allowances */\n      0x01\n        /* \"src/assets/BBD_Token_flattened.sol\":20856:20874  _allowances[owner] */\n      0x20\n      swap1\n      dup2\n      mstore\n      0x40\n      dup1\n      dup4\n      keccak256\n        /* \"src/assets/BBD_Token_flattened.sol\":20856:20883  _allowances[owner][spender] */\n      swap4\n      dup8\n      and\n      dup4\n      mstore\n      swap3\n      swap1\n      mstore\n      keccak256\n        /* \"src/assets/BBD_Token_flattened.sol\":20856:20891  _allowances[owner][spender] = value */\n      dup3\n      swap1\n      sstore\n        /* \"src/assets/BBD_Token_flattened.sol\":20901:20977  if (emitEvent) {... */\n      dup1\n      iszero\n      tag_323\n      jumpi\n        /* \"src/assets/BBD_Token_flattened.sol\":20951:20958  spender */\n      dup3\n      sub(shl(0xa0, 0x01), 0x01)\n        /* \"src/assets/BBD_Token_flattened.sol\":20935:20966  Approval(owner, spender, value) */\n      and\n        /* \"src/assets/BBD_Token_flattened.sol\":20944:20949  owner */\n      dup5\n      sub(shl(0xa0, 0x01), 0x01)\n        /* \"src/assets/BBD_Token_flattened.sol\":20935:20966  Approval(owner, spender, value) */\n      and\n      0x8c5be1e5ebec7d5bd14f71427d1e84f3dd0314c0f7b2291e5b200ac8c7c3b925\n        /* \"src/assets/BBD_Token_flattened.sol\":20960:20965  value */\n      dup5\n        /* \"src/assets/BBD_Token_flattened.sol\":20935:20966  Approval(owner, spender, value) */\n      mload(0x40)\n      tag_337\n      swap2\n        /* \"#utility.yul\":1466:1491   */\n      dup2\n      mstore\n        /* \"#utility.yul\":1454:1456   */\n      0x20\n        /* \"#utility.yul\":1439:1457   */\n      add\n      swap1\n        /* \"#utility.yul\":1320:1497   */\n      jump\n        /* \"src/assets/BBD_Token_flattened.sol\":20935:20966  Approval(owner, spender, value) */\n    tag_337:\n      mload(0x40)\n      dup1\n      swap2\n      sub\n      swap1\n      log3\n        /* \"src/assets/BBD_Token_flattened.sol\":20551:20983  function _approve(address owner, address spender, uint256 value, bool emitEvent) internal virtual {... */\n      pop\n      pop\n      pop\n      pop\n      jump\t// out\n        /* \"src/assets/BBD_Token_flattened.sol\":16858:17965  function _update(address from, address to, uint256 value) internal virtual {... */\n    tag_330:\n      sub(shl(0xa0, 0x01), 0x01)\n        /* \"src/assets/BBD_Token_flattened.sol\":16947:16965  from == address(0) */\n      dup4\n      and\n        /* \"src/assets/BBD_Token_flattened.sol\":16943:17483  if (from == address(0)) {... */\n      tag_339\n      jumpi\n        /* \"src/assets/BBD_Token_flattened.sol\":17099:17104  value */\n      dup1\n        /* \"src/assets/BBD_Token_flattened.sol\":17083:17095  _totalSupply */\n      0x02\n      0x00\n        /* \"src/assets/BBD_Token_flattened.sol\":17083:17104  _totalSupply += value */\n      dup3\n      dup3\n      sload\n      tag_340\n      swap2\n      swap1\n      tag_225\n      jump\t// in\n    tag_340:\n      swap1\n      swap2\n      sstore\n      pop\n        /* \"src/assets/BBD_Token_flattened.sol\":16943:17483  if (from == address(0)) {... */\n      tag_341\n      swap1\n      pop\n      jump\n    tag_339:\n      sub(shl(0xa0, 0x01), 0x01)\n        /* \"src/assets/BBD_Token_flattened.sol\":17157:17172  _balances[from] */\n      dup4\n      and\n        /* \"src/assets/BBD_Token_flattened.sol\":17135:17154  uint256 fromBalance */\n      0x00\n        /* \"src/assets/BBD_Token_flattened.sol\":17157:17172  _balances[from] */\n      swap1\n      dup2\n      mstore\n      0x20\n      dup2\n      swap1\n      mstore\n      0x40\n      swap1\n      keccak256\n      sload\n        /* \"src/assets/BBD_Token_flattened.sol\":17190:17209  fromBalance < value */\n      dup2\n      dup2\n      lt\n        /* \"src/assets/BBD_Token_flattened.sol\":17186:17301  if (fromBalance < value) {... */\n      iszero\n      tag_342\n      jumpi\n        /* \"src/assets/BBD_Token_flattened.sol\":17236:17286  ERC20InsufficientBalance(from, fromBalance, value) */\n      mload(0x40)\n      shl(0xe2, 0x391434e3)\n      dup2\n      mstore\n      sub(shl(0xa0, 0x01), 0x01)\n        /* \"#utility.yul\":7035:7067   */\n      dup6\n      and\n        /* \"src/assets/BBD_Token_flattened.sol\":17236:17286  ERC20InsufficientBalance(from, fromBalance, value) */\n      0x04\n      dup3\n      add\n        /* \"#utility.yul\":7017:7068   */\n      mstore\n        /* \"#utility.yul\":7084:7102   */\n      0x24\n      dup2\n      add\n        /* \"#utility.yul\":7077:7111   */\n      dup3\n      swap1\n      mstore\n        /* \"#utility.yul\":7127:7145   */\n      0x44\n      dup2\n      add\n        /* \"#utility.yul\":7120:7154   */\n      dup4\n      swap1\n      mstore\n        /* \"#utility.yul\":6990:7008   */\n      0x64\n      add\n        /* \"src/assets/BBD_Token_flattened.sol\":17236:17286  ERC20InsufficientBalance(from, fromBalance, value) */\n      tag_178\n        /* \"#utility.yul\":6815:7160   */\n      jump\n        /* \"src/assets/BBD_Token_flattened.sol\":17186:17301  if (fromBalance < value) {... */\n    tag_342:\n      sub(shl(0xa0, 0x01), 0x01)\n        /* \"src/assets/BBD_Token_flattened.sol\":17421:17436  _balances[from] */\n      dup5\n      and\n        /* \"src/assets/BBD_Token_flattened.sol\":17421:17430  _balances */\n      0x00\n        /* \"src/assets/BBD_Token_flattened.sol\":17421:17436  _balances[from] */\n      swap1\n      dup2\n      mstore\n      0x20\n      dup2\n      swap1\n      mstore\n      0x40\n      swap1\n      keccak256\n        /* \"src/assets/BBD_Token_flattened.sol\":17439:17458  fromBalance - value */\n      swap1\n      dup3\n      swap1\n      sub\n        /* \"src/assets/BBD_Token_flattened.sol\":17421:17458  _balances[from] = fromBalance - value */\n      swap1\n      sstore\n        /* \"src/assets/BBD_Token_flattened.sol\":16943:17483  if (from == address(0)) {... */\n    tag_341:\n      sub(shl(0xa0, 0x01), 0x01)\n        /* \"src/assets/BBD_Token_flattened.sol\":17497:17513  to == address(0) */\n      dup3\n      and\n        /* \"src/assets/BBD_Token_flattened.sol\":17493:17918  if (to == address(0)) {... */\n      tag_344\n      jumpi\n        /* \"src/assets/BBD_Token_flattened.sol\":17660:17672  _totalSupply */\n      0x02\n        /* \"src/assets/BBD_Token_flattened.sol\":17660:17681  _totalSupply -= value */\n      dup1\n      sload\n      dup3\n      swap1\n      sub\n      swap1\n      sstore\n        /* \"src/assets/BBD_Token_flattened.sol\":17493:17918  if (to == address(0)) {... */\n      jump(tag_345)\n    tag_344:\n      sub(shl(0xa0, 0x01), 0x01)\n        /* \"src/assets/BBD_Token_flattened.sol\":17871:17884  _balances[to] */\n      dup3\n      and\n        /* \"src/assets/BBD_Token_flattened.sol\":17871:17880  _balances */\n      0x00\n        /* \"src/assets/BBD_Token_flattened.sol\":17871:17884  _balances[to] */\n      swap1\n      dup2\n      mstore\n      0x20\n      dup2\n      swap1\n      mstore\n      0x40\n      swap1\n      keccak256\n        /* \"src/assets/BBD_Token_flattened.sol\":17871:17893  _balances[to] += value */\n      dup1\n      sload\n      dup3\n      add\n      swap1\n      sstore\n        /* \"src/assets/BBD_Token_flattened.sol\":17493:17918  if (to == address(0)) {... */\n    tag_345:\n        /* \"src/assets/BBD_Token_flattened.sol\":17948:17950  to */\n      dup2\n      sub(shl(0xa0, 0x01), 0x01)\n        /* \"src/assets/BBD_Token_flattened.sol\":17933:17958  Transfer(from, to, value) */\n      and\n        /* \"src/assets/BBD_Token_flattened.sol\":17942:17946  from */\n      dup4\n      sub(shl(0xa0, 0x01), 0x01)\n        /* \"src/assets/BBD_Token_flattened.sol\":17933:17958  Transfer(from, to, value) */\n      and\n      0xddf252ad1be2c89b69c2b068fc378daa952ba7f163c4a11628f55a4df523b3ef\n        /* \"src/assets/BBD_Token_flattened.sol\":17952:17957  value */\n      dup4\n        /* \"src/assets/BBD_Token_flattened.sol\":17933:17958  Transfer(from, to, value) */\n      mload(0x40)\n      tag_346\n      swap2\n        /* \"#utility.yul\":1466:1491   */\n      dup2\n      mstore\n        /* \"#utility.yul\":1454:1456   */\n      0x20\n        /* \"#utility.yul\":1439:1457   */\n      add\n      swap1\n        /* \"#utility.yul\":1320:1497   */\n      jump\n        /* \"src/assets/BBD_Token_flattened.sol\":17933:17958  Transfer(from, to, value) */\n    tag_346:\n      mload(0x40)\n      dup1\n      swap2\n      sub\n      swap1\n      log3\n        /* \"src/assets/BBD_Token_flattened.sol\":16858:17965  function _update(address from, address to, uint256 value) internal virtual {... */\n      pop\n      pop\n      pop\n      jump\t// out\n        /* \"#utility.yul\":222:640   */\n    tag_49:\n        /* \"#utility.yul\":371:373   */\n      0x20\n        /* \"#utility.yul\":360:369   */\n      dup2\n        /* \"#utility.yul\":353:374   */\n      mstore\n        /* \"#utility.yul\":334:338   */\n      0x00\n        /* \"#utility.yul\":403:409   */\n      dup3\n        /* \"#utility.yul\":397:410   */\n      mload\n        /* \"#utility.yul\":446:452   */\n      dup1\n        /* \"#utility.yul\":441:443   */\n      0x20\n        /* \"#utility.yul\":430:439   */\n      dup5\n        /* \"#utility.yul\":426:444   */\n      add\n        /* \"#utility.yul\":419:453   */\n      mstore\n        /* \"#utility.yul\":505:511   */\n      dup1\n        /* \"#utility.yul\":500:502   */\n      0x20\n        /* \"#utility.yul\":492:498   */\n      dup6\n        /* \"#utility.yul\":488:503   */\n      add\n        /* \"#utility.yul\":483:485   */\n      0x40\n        /* \"#utility.yul\":472:481   */\n      dup6\n        /* \"#utility.yul\":468:486   */\n      add\n        /* \"#utility.yul\":462:512   */\n      mcopy\n        /* \"#utility.yul\":561:562   */\n      0x00\n        /* \"#utility.yul\":556:558   */\n      0x40\n        /* \"#utility.yul\":547:553   */\n      dup3\n        /* \"#utility.yul\":536:545   */\n      dup6\n        /* \"#utility.yul\":532:554   */\n      add\n        /* \"#utility.yul\":528:559   */\n      add\n        /* \"#utility.yul\":521:563   */\n      mstore\n        /* \"#utility.yul\":631:633   */\n      0x40\n        /* \"#utility.yul\":624:626   */\n      0x1f\n        /* \"#utility.yul\":620:627   */\n      not\n        /* \"#utility.yul\":615:617   */\n      0x1f\n        /* \"#utility.yul\":607:613   */\n      dup4\n        /* \"#utility.yul\":603:618   */\n      add\n        /* \"#utility.yul\":599:628   */\n      and\n        /* \"#utility.yul\":588:597   */\n      dup5\n        /* \"#utility.yul\":584:629   */\n      add\n        /* \"#utility.yul\":580:634   */\n      add\n        /* \"#utility.yul\":572:634   */\n      swap2\n      pop\n      pop\n        /* \"#utility.yul\":222:640   */\n      swap3\n      swap2\n      pop\n      pop\n      jump\t// out\n        /* \"#utility.yul\":645:818   */\n    tag_347:\n        /* \"#utility.yul\":713:733   */\n      dup1\n      calldataload\n      sub(shl(0xa0, 0x01), 0x01)\n        /* \"#utility.yul\":762:793   */\n      dup2\n      and\n        /* \"#utility.yul\":752:794   */\n      dup2\n      eq\n        /* \"#utility.yul\":742:812   */\n      tag_354\n      jumpi\n        /* \"#utility.yul\":808:809   */\n      0x00\n        /* \"#utility.yul\":805:806   */\n      dup1\n        /* \"#utility.yul\":798:810   */\n      revert\n        /* \"#utility.yul\":742:812   */\n    tag_354:\n        /* \"#utility.yul\":645:818   */\n      swap2\n      swap1\n      pop\n      jump\t// out\n        /* \"#utility.yul\":823:1123   */\n    tag_52:\n        /* \"#utility.yul\":891:897   */\n      0x00\n        /* \"#utility.yul\":899:905   */\n      dup1\n        /* \"#utility.yul\":952:954   */\n      0x40\n        /* \"#utility.yul\":940:949   */\n      dup4\n        /* \"#utility.yul\":931:938   */\n      dup6\n        /* \"#utility.yul\":927:950   */\n      sub\n        /* \"#utility.yul\":923:955   */\n      slt\n        /* \"#utility.yul\":920:972   */\n      iszero\n      tag_356\n      jumpi\n        /* \"#utility.yul\":968:969   */\n      0x00\n        /* \"#utility.yul\":965:966   */\n      dup1\n        /* \"#utility.yul\":958:970   */\n      revert\n        /* \"#utility.yul\":920:972   */\n    tag_356:\n        /* \"#utility.yul\":991:1020   */\n      tag_357\n        /* \"#utility.yul\":1010:1019   */\n      dup4\n        /* \"#utility.yul\":991:1020   */\n      tag_347\n      jump\t// in\n    tag_357:\n        /* \"#utility.yul\":981:1020   */\n      swap5\n        /* \"#utility.yul\":1089:1091   */\n      0x20\n        /* \"#utility.yul\":1074:1092   */\n      swap4\n      swap1\n      swap4\n      add\n        /* \"#utility.yul\":1061:1093   */\n      calldataload\n      swap4\n      pop\n      pop\n      pop\n        /* \"#utility.yul\":823:1123   */\n      jump\t// out\n        /* \"#utility.yul\":1502:1876   */\n    tag_62:\n        /* \"#utility.yul\":1579:1585   */\n      0x00\n        /* \"#utility.yul\":1587:1593   */\n      dup1\n        /* \"#utility.yul\":1595:1601   */\n      0x00\n        /* \"#utility.yul\":1648:1650   */\n      0x60\n        /* \"#utility.yul\":1636:1645   */\n      dup5\n        /* \"#utility.yul\":1627:1634   */\n      dup7\n        /* \"#utility.yul\":1623:1646   */\n      sub\n        /* \"#utility.yul\":1619:1651   */\n      slt\n        /* \"#utility.yul\":1616:1668   */\n      iszero\n      tag_361\n      jumpi\n        /* \"#utility.yul\":1664:1665   */\n      0x00\n        /* \"#utility.yul\":1661:1662   */\n      dup1\n        /* \"#utility.yul\":1654:1666   */\n      revert\n        /* \"#utility.yul\":1616:1668   */\n    tag_361:\n        /* \"#utility.yul\":1687:1716   */\n      tag_362\n        /* \"#utility.yul\":1706:1715   */\n      dup5\n        /* \"#utility.yul\":1687:1716   */\n      tag_347\n      jump\t// in\n    tag_362:\n        /* \"#utility.yul\":1677:1716   */\n      swap3\n      pop\n        /* \"#utility.yul\":1735:1773   */\n      tag_363\n        /* \"#utility.yul\":1769:1771   */\n      0x20\n        /* \"#utility.yul\":1758:1767   */\n      dup6\n        /* \"#utility.yul\":1754:1772   */\n      add\n        /* \"#utility.yul\":1735:1773   */\n      tag_347\n      jump\t// in\n    tag_363:\n        /* \"#utility.yul\":1502:1876   */\n      swap3\n      swap6\n        /* \"#utility.yul\":1725:1773   */\n      swap3\n      swap5\n      pop\n      pop\n      pop\n        /* \"#utility.yul\":1842:1844   */\n      0x40\n        /* \"#utility.yul\":1827:1845   */\n      swap2\n      swap1\n      swap2\n      add\n        /* \"#utility.yul\":1814:1846   */\n      calldataload\n      swap1\n        /* \"#utility.yul\":1502:1876   */\n      jump\t// out\n        /* \"#utility.yul\":1881:2181   */\n    tag_67:\n        /* \"#utility.yul\":1949:1955   */\n      0x00\n        /* \"#utility.yul\":1957:1963   */\n      dup1\n        /* \"#utility.yul\":2010:2012   */\n      0x40\n        /* \"#utility.yul\":1998:2007   */\n      dup4\n        /* \"#utility.yul\":1989:1996   */\n      dup6\n        /* \"#utility.yul\":1985:2008   */\n      sub\n        /* \"#utility.yul\":1981:2013   */\n      slt\n        /* \"#utility.yul\":1978:2030   */\n      iszero\n      tag_365\n      jumpi\n        /* \"#utility.yul\":2026:2027   */\n      0x00\n        /* \"#utility.yul\":2023:2024   */\n      dup1\n        /* \"#utility.yul\":2016:2028   */\n      revert\n        /* \"#utility.yul\":1978:2030   */\n    tag_365:\n        /* \"#utility.yul\":2071:2094   */\n      dup3\n      calldataload\n      swap2\n      pop\n        /* \"#utility.yul\":2137:2175   */\n      tag_366\n        /* \"#utility.yul\":2171:2173   */\n      0x20\n        /* \"#utility.yul\":2156:2174   */\n      dup5\n      add\n        /* \"#utility.yul\":2137:2175   */\n      tag_347\n      jump\t// in\n    tag_366:\n        /* \"#utility.yul\":2127:2175   */\n      swap1\n      pop\n        /* \"#utility.yul\":1881:2181   */\n      swap3\n      pop\n      swap3\n      swap1\n      pop\n      jump\t// out\n        /* \"#utility.yul\":2375:2561   */\n    tag_78:\n        /* \"#utility.yul\":2434:2440   */\n      0x00\n        /* \"#utility.yul\":2487:2489   */\n      0x20\n        /* \"#utility.yul\":2475:2484   */\n      dup3\n        /* \"#utility.yul\":2466:2473   */\n      dup5\n        /* \"#utility.yul\":2462:2485   */\n      sub\n        /* \"#utility.yul\":2458:2490   */\n      slt\n        /* \"#utility.yul\":2455:2507   */\n      iszero\n      tag_369\n      jumpi\n        /* \"#utility.yul\":2503:2504   */\n      0x00\n        /* \"#utility.yul\":2500:2501   */\n      dup1\n        /* \"#utility.yul\":2493:2505   */\n      revert\n        /* \"#utility.yul\":2455:2507   */\n    tag_369:\n        /* \"#utility.yul\":2526:2555   */\n      tag_370\n        /* \"#utility.yul\":2545:2554   */\n      dup3\n        /* \"#utility.yul\":2526:2555   */\n      tag_347\n      jump\t// in\n    tag_370:\n        /* \"#utility.yul\":2516:2555   */\n      swap4\n        /* \"#utility.yul\":2375:2561   */\n      swap3\n      pop\n      pop\n      pop\n      jump\t// out\n        /* \"#utility.yul\":2566:2726   */\n    tag_348:\n        /* \"#utility.yul\":2631:2651   */\n      dup1\n      calldataload\n        /* \"#utility.yul\":2687:2700   */\n      dup1\n      iszero\n        /* \"#utility.yul\":2680:2701   */\n      iszero\n        /* \"#utility.yul\":2670:2702   */\n      dup2\n      eq\n        /* \"#utility.yul\":2660:2720   */\n      tag_354\n      jumpi\n        /* \"#utility.yul\":2716:2717   */\n      0x00\n        /* \"#utility.yul\":2713:2714   */\n      dup1\n        /* \"#utility.yul\":2706:2718   */\n      revert\n        /* \"#utility.yul\":2731:2985   */\n    tag_90:\n        /* \"#utility.yul\":2796:2802   */\n      0x00\n        /* \"#utility.yul\":2804:2810   */\n      dup1\n        /* \"#utility.yul\":2857:2859   */\n      0x40\n        /* \"#utility.yul\":2845:2854   */\n      dup4\n        /* \"#utility.yul\":2836:2843   */\n      dup6\n        /* \"#utility.yul\":2832:2855   */\n      sub\n        /* \"#utility.yul\":2828:2860   */\n      slt\n        /* \"#utility.yul\":2825:2877   */\n      iszero\n      tag_374\n      jumpi\n        /* \"#utility.yul\":2873:2874   */\n      0x00\n        /* \"#utility.yul\":2870:2871   */\n      dup1\n        /* \"#utility.yul\":2863:2875   */\n      revert\n        /* \"#utility.yul\":2825:2877   */\n    tag_374:\n        /* \"#utility.yul\":2896:2925   */\n      tag_375\n        /* \"#utility.yul\":2915:2924   */\n      dup4\n        /* \"#utility.yul\":2896:2925   */\n      tag_347\n      jump\t// in\n    tag_375:\n        /* \"#utility.yul\":2886:2925   */\n      swap2\n      pop\n        /* \"#utility.yul\":2944:2979   */\n      tag_366\n        /* \"#utility.yul\":2975:2977   */\n      0x20\n        /* \"#utility.yul\":2964:2973   */\n      dup5\n        /* \"#utility.yul\":2960:2978   */\n      add\n        /* \"#utility.yul\":2944:2979   */\n      tag_348\n      jump\t// in\n        /* \"#utility.yul\":2990:3170   */\n    tag_100:\n        /* \"#utility.yul\":3046:3052   */\n      0x00\n        /* \"#utility.yul\":3099:3101   */\n      0x20\n        /* \"#utility.yul\":3087:3096   */\n      dup3\n        /* \"#utility.yul\":3078:3085   */\n      dup5\n        /* \"#utility.yul\":3074:3097   */\n      sub\n        /* \"#utility.yul\":3070:3102   */\n      slt\n        /* \"#utility.yul\":3067:3119   */\n      iszero\n      tag_378\n      jumpi\n        /* \"#utility.yul\":3115:3116   */\n      0x00\n        /* \"#utility.yul\":3112:3113   */\n      dup1\n        /* \"#utility.yul\":3105:3117   */\n      revert\n        /* \"#utility.yul\":3067:3119   */\n    tag_378:\n        /* \"#utility.yul\":3138:3164   */\n      tag_370\n        /* \"#utility.yul\":3154:3163   */\n      dup3\n        /* \"#utility.yul\":3138:3164   */\n      tag_348\n      jump\t// in\n        /* \"#utility.yul\":3499:3759   */\n    tag_139:\n        /* \"#utility.yul\":3567:3573   */\n      0x00\n        /* \"#utility.yul\":3575:3581   */\n      dup1\n        /* \"#utility.yul\":3628:3630   */\n      0x40\n        /* \"#utility.yul\":3616:3625   */\n      dup4\n        /* \"#utility.yul\":3607:3614   */\n      dup6\n        /* \"#utility.yul\":3603:3626   */\n      sub\n        /* \"#utility.yul\":3599:3631   */\n      slt\n        /* \"#utility.yul\":3596:3648   */\n      iszero\n      tag_382\n      jumpi\n        /* \"#utility.yul\":3644:3645   */\n      0x00\n        /* \"#utility.yul\":3641:3642   */\n      dup1\n        /* \"#utility.yul\":3634:3646   */\n      revert\n        /* \"#utility.yul\":3596:3648   */\n    tag_382:\n        /* \"#utility.yul\":3667:3696   */\n      tag_383\n        /* \"#utility.yul\":3686:3695   */\n      dup4\n        /* \"#utility.yul\":3667:3696   */\n      tag_347\n      jump\t// in\n    tag_383:\n        /* \"#utility.yul\":3657:3696   */\n      swap2\n      pop\n        /* \"#utility.yul\":3715:3753   */\n      tag_366\n        /* \"#utility.yul\":3749:3751   */\n      0x20\n        /* \"#utility.yul\":3738:3747   */\n      dup5\n        /* \"#utility.yul\":3734:3752   */\n      add\n        /* \"#utility.yul\":3715:3753   */\n      tag_347\n      jump\t// in\n        /* \"#utility.yul\":3764:4144   */\n    tag_159:\n        /* \"#utility.yul\":3843:3844   */\n      0x01\n        /* \"#utility.yul\":3839:3851   */\n      dup2\n      dup2\n      shr\n      swap1\n        /* \"#utility.yul\":3886:3898   */\n      dup3\n      and\n      dup1\n        /* \"#utility.yul\":3907:3968   */\n      tag_386\n      jumpi\n        /* \"#utility.yul\":3961:3965   */\n      0x7f\n        /* \"#utility.yul\":3953:3959   */\n      dup3\n        /* \"#utility.yul\":3949:3966   */\n      and\n        /* \"#utility.yul\":3939:3966   */\n      swap2\n      pop\n        /* \"#utility.yul\":3907:3968   */\n    tag_386:\n        /* \"#utility.yul\":4014:4016   */\n      0x20\n        /* \"#utility.yul\":4006:4012   */\n      dup3\n        /* \"#utility.yul\":4003:4017   */\n      lt\n        /* \"#utility.yul\":3983:4001   */\n      dup2\n        /* \"#utility.yul\":3980:4018   */\n      sub\n        /* \"#utility.yul\":3977:4138   */\n      tag_387\n      jumpi\n        /* \"#utility.yul\":4060:4070   */\n      0x4e487b71\n        /* \"#utility.yul\":4055:4058   */\n      0xe0\n        /* \"#utility.yul\":4051:4071   */\n      shl\n        /* \"#utility.yul\":4048:4049   */\n      0x00\n        /* \"#utility.yul\":4041:4072   */\n      mstore\n        /* \"#utility.yul\":4095:4099   */\n      0x22\n        /* \"#utility.yul\":4092:4093   */\n      0x04\n        /* \"#utility.yul\":4085:4100   */\n      mstore\n        /* \"#utility.yul\":4123:4127   */\n      0x24\n        /* \"#utility.yul\":4120:4121   */\n      0x00\n        /* \"#utility.yul\":4113:4128   */\n      revert\n        /* \"#utility.yul\":3977:4138   */\n    tag_387:\n      pop\n        /* \"#utility.yul\":3764:4144   */\n      swap2\n      swap1\n      pop\n      jump\t// out\n        /* \"#utility.yul\":4149:4485   */\n    tag_179:\n        /* \"#utility.yul\":4351:4353   */\n      0x20\n        /* \"#utility.yul\":4333:4354   */\n      dup1\n      dup3\n      mstore\n        /* \"#utility.yul\":4390:4392   */\n      0x0c\n        /* \"#utility.yul\":4370:4388   */\n      swap1\n      dup3\n      add\n        /* \"#utility.yul\":4363:4393   */\n      mstore\n      shl(0xa0, 0x4e6f7420616c6c6f77656421)\n        /* \"#utility.yul\":4424:4426   */\n      0x40\n        /* \"#utility.yul\":4409:4427   */\n      dup3\n      add\n        /* \"#utility.yul\":4402:4444   */\n      mstore\n        /* \"#utility.yul\":4476:4478   */\n      0x60\n        /* \"#utility.yul\":4461:4479   */\n      add\n      swap1\n        /* \"#utility.yul\":4149:4485   */\n      jump\t// out\n        /* \"#utility.yul\":4832:4959   */\n    tag_349:\n        /* \"#utility.yul\":4893:4903   */\n      0x4e487b71\n        /* \"#utility.yul\":4888:4891   */\n      0xe0\n        /* \"#utility.yul\":4884:4904   */\n      shl\n        /* \"#utility.yul\":4881:4882   */\n      0x00\n        /* \"#utility.yul\":4874:4905   */\n      mstore\n        /* \"#utility.yul\":4924:4928   */\n      0x11\n        /* \"#utility.yul\":4921:4922   */\n      0x04\n        /* \"#utility.yul\":4914:4929   */\n      mstore\n        /* \"#utility.yul\":4948:4952   */\n      0x24\n        /* \"#utility.yul\":4945:4946   */\n      0x00\n        /* \"#utility.yul\":4938:4953   */\n      revert\n        /* \"#utility.yul\":4964:5089   */\n    tag_225:\n        /* \"#utility.yul\":5029:5038   */\n      dup1\n      dup3\n      add\n        /* \"#utility.yul\":5050:5060   */\n      dup1\n      dup3\n      gt\n        /* \"#utility.yul\":5047:5083   */\n      iszero\n      tag_164\n      jumpi\n        /* \"#utility.yul\":5063:5081   */\n      tag_164\n      tag_349\n      jump\t// in\n        /* \"#utility.yul\":5094:5222   */\n    tag_228:\n        /* \"#utility.yul\":5161:5170   */\n      dup2\n      dup2\n      sub\n        /* \"#utility.yul\":5182:5193   */\n      dup2\n      dup2\n      gt\n        /* \"#utility.yul\":5179:5216   */\n      iszero\n      tag_164\n      jumpi\n        /* \"#utility.yul\":5196:5214   */\n      tag_164\n      tag_349\n      jump\t// in\n        /* \"#utility.yul\":5227:5395   */\n    tag_230:\n        /* \"#utility.yul\":5300:5309   */\n      dup1\n      dup3\n      mul\n        /* \"#utility.yul\":5331:5340   */\n      dup2\n      iszero\n        /* \"#utility.yul\":5348:5363   */\n      dup3\n      dup3\n      div\n        /* \"#utility.yul\":5342:5364   */\n      dup5\n      eq\n        /* \"#utility.yul\":5328:5365   */\n      or\n        /* \"#utility.yul\":5318:5389   */\n      tag_164\n      jumpi\n        /* \"#utility.yul\":5369:5387   */\n      tag_164\n      tag_349\n      jump\t// in\n        /* \"#utility.yul\":5400:5617   */\n    tag_232:\n        /* \"#utility.yul\":5440:5441   */\n      0x00\n        /* \"#utility.yul\":5466:5467   */\n      dup3\n        /* \"#utility.yul\":5456:5588   */\n      tag_401\n      jumpi\n        /* \"#utility.yul\":5510:5520   */\n      0x4e487b71\n        /* \"#utility.yul\":5505:5508   */\n      0xe0\n        /* \"#utility.yul\":5501:5521   */\n      shl\n        /* \"#utility.yul\":5498:5499   */\n      0x00\n        /* \"#utility.yul\":5491:5522   */\n      mstore\n        /* \"#utility.yul\":5545:5549   */\n      0x12\n        /* \"#utility.yul\":5542:5543   */\n      0x04\n        /* \"#utility.yul\":5535:5550   */\n      mstore\n        /* \"#utility.yul\":5573:5577   */\n      0x24\n        /* \"#utility.yul\":5570:5571   */\n      0x00\n        /* \"#utility.yul\":5563:5578   */\n      revert\n        /* \"#utility.yul\":5456:5588   */\n    tag_401:\n      pop\n        /* \"#utility.yul\":5602:5611   */\n      div\n      swap1\n        /* \"#utility.yul\":5400:5617   */\n      jump\t// out\n        /* \"#utility.yul\":6329:6464   */\n    tag_295:\n        /* \"#utility.yul\":6368:6371   */\n      0x00\n        /* \"#utility.yul\":6389:6406   */\n      0x01\n      dup3\n      add\n        /* \"#utility.yul\":6386:6429   */\n      tag_406\n      jumpi\n        /* \"#utility.yul\":6409:6427   */\n      tag_406\n      tag_349\n      jump\t// in\n    tag_406:\n      pop\n        /* \"#utility.yul\":6456:6457   */\n      0x01\n        /* \"#utility.yul\":6445:6458   */\n      add\n      swap1\n        /* \"#utility.yul\":6329:6464   */\n      jump\t// out\n\n    auxdata: 0xa2646970667358221220e95388c6db252009f371df04c1ef0515db5a51061fad50ad30bf053307c38df464736f6c634300081a0033\n}\n",
				"bytecode": {
					"linkReferences": {},
					"object": "60a0604052600780546001600160a01b0319908116737ec13697d98925ba1dc2bcc705c071bd168b10c217909155600880548216738de119e98707ac240aba2cb77e83b29882a343571790556009805482167303499c18f7265be9afda16504a34cd1892f278ae179055600a8054821673cc234a1d3e32148461b7eacb5a8bf4d0c4b6be74179055600b805490911673ceea0e87b553bc445c5eb2242b5f28cd81b4acaa179055600c80547501017e23e2781a1da5dace87b4f0e7bf68191263fc326001600160b01b03199091161790553480156100db575f80fd5b5060405180604001604052806009815260200168212122102a37b5b2b760b91b8152506040518060400160405280600381526020016210909160ea1b81525081600390816101299190610397565b5060046101368282610397565b5050600d80546001600160a01b0319163390811790915561016491506b033b2e3c9fd0803ce800000061019c565b61018f3061018a6b033b2e3c9fd0803ce80000006b204fce5e3e25026110000000610465565b61019c565b426080525f600555610491565b6001600160a01b0382166101ca5760405163ec442f0560e01b81525f60048201526024015b60405180910390fd5b6101d55f83836101d9565b5050565b6001600160a01b038316610203578060025f8282546101f8919061047e565b909155506102739050565b6001600160a01b0383165f90815260208190526040902054818110156102555760405163391434e360e21b81526001600160a01b038516600482015260248101829052604481018390526064016101c1565b6001600160a01b0384165f9081526020819052604090209082900390555b6001600160a01b03821661028f576002805482900390556102ad565b6001600160a01b0382165f9081526020819052604090208054820190555b816001600160a01b0316836001600160a01b03167fddf252ad1be2c89b69c2b068fc378daa952ba7f163c4a11628f55a4df523b3ef836040516102f291815260200190565b60405180910390a3505050565b634e487b7160e01b5f52604160045260245ffd5b600181811c9082168061032757607f821691505b60208210810361034557634e487b7160e01b5f52602260045260245ffd5b50919050565b601f82111561039257805f5260205f20601f840160051c810160208510156103705750805b601f840160051c820191505b8181101561038f575f815560010161037c565b50505b505050565b81516001600160401b038111156103b0576103b06102ff565b6103c4816103be8454610313565b8461034b565b6020601f8211600181146103f6575f83156103df5750848201515b5f19600385901b1c1916600184901b17845561038f565b5f84815260208120601f198516915b828110156104255787850151825560209485019460019092019101610405565b508482101561044257868401515f19600387901b60f8161c191681555b50505050600190811b01905550565b634e487b7160e01b5f52601160045260245ffd5b8181038181111561047857610478610451565b92915050565b8082018082111561047857610478610451565b6080516113636104b05f395f81816104570152610a9601526113635ff3fe608060405234801561000f575f80fd5b50600436106101e7575f3560e01c8063902d55a511610109578063ce7842f51161009e578063e8be9a441161006e578063e8be9a4414610479578063f771cb6514610481578063f968f49314610495578063fdff9b4d1461049d575f80fd5b8063ce7842f5146103f4578063d2f9efab14610407578063dd62ed3e1461041a578063e6fd48bc14610452575f80fd5b8063a9059cbb116100d9578063a9059cbb14610398578063b16d78cf146103ab578063b361412a146103be578063be381b85146103d1575f80fd5b8063902d55a51461036157806395d89b4114610374578063a5e90eee1461037c578063a779d0801461038f575f80fd5b80633c11e12a1161017f5780638310a74d1161014f5780638310a74d1461031f5780638342083a146103285780638ddedb331461033a5780638ed2fe911461034d575f80fd5b80633c11e12a146102af57806367859b6e146102d157806370a08231146102e45780637cdf6fb11461030c575f80fd5b806323b872dd116101ba57806323b872dd146102655780632be8781f146102785780632d3e474a1461028d578063313ce567146102a0575f80fd5b8063042249bb146101eb57806306fdde031461021b578063095ea7b31461023057806318160ddd14610253575b5f80fd5b600a546101fe906001600160a01b031681565b6040516001600160a01b0390911681526020015b60405180910390f35b6102236104bf565b60405161021291906110d3565b61024361023e366004611123565b61054f565b6040519015158152602001610212565b6002545b604051908152602001610212565b61024361027336600461114b565b610568565b61028b610286366004611185565b61058b565b005b6009546101fe906001600160a01b031681565b60405160128152602001610212565b6102436102bd3660046111af565b600e6020525f908152604090205460ff1681565b6007546101fe906001600160a01b031681565b6102576102f23660046111af565b6001600160a01b03165f9081526020819052604090205490565b61028b61031a3660046111de565b6106f7565b61025760055481565b610257676765c793fa10079d601b1b81565b61028b610348366004611206565b61074b565b600c5461024390600160a01b900460ff1681565b6102576b204fce5e3e2502611000000081565b610223610793565b61028b61038a3660046111de565b6107a2565b61025760065481565b6102436103a6366004611123565b6107f6565b61028b6103b9366004611206565b610803565b600c546101fe906001600160a01b031681565b6103d961084b565b60408051938452602084019290925290820152606001610212565b600b546101fe906001600160a01b031681565b6008546101fe906001600160a01b031681565b61025761042836600461121f565b6001600160a01b039182165f90815260016020908152604080832093909416825291909152205490565b6102577f000000000000000000000000000000000000000000000000000000000000000081565b6102576109cd565b600c5461024390600160a81b900460ff1681565b61028b6109f1565b6102436104ab3660046111af565b600f6020525f908152604090205460ff1681565b6060600380546104ce90611247565b80601f01602080910402602001604051908101604052809291908181526020018280546104fa90611247565b80156105455780601f1061051c57610100808354040283529160200191610545565b820191905f5260205f20905b81548152906001019060200180831161052857829003601f168201915b5050505050905090565b5f3361055c818585610df0565b60019150505b92915050565b5f33610575858285610e02565b610580858585610e7e565b506001949350505050565b600d546001600160a01b031633146105be5760405162461bcd60e51b81526004016105b59061127f565b60405180910390fd5b600182101580156105d0575060068211155b61060c5760405162461bcd60e51b815260206004820152600d60248201526c092dcecc2d8d2c840d2dcc8caf609b1b60448201526064016105b5565b8160010361063357600780546001600160a01b0319166001600160a01b0383161790555050565b8160020361065a57600880546001600160a01b0319166001600160a01b0383161790555050565b8160030361068157600980546001600160a01b0319166001600160a01b0383161790555050565b816004036106a857600a80546001600160a01b0319166001600160a01b0383161790555050565b816005036106cf57600b80546001600160a01b0319166001600160a01b0383161790555050565b816006036106f357600c80546001600160a01b0319166001600160a01b0383161790555b5050565b600d546001600160a01b031633146107215760405162461bcd60e51b81526004016105b59061127f565b6001600160a01b03919091165f908152600e60205260409020805460ff1916911515919091179055565b600d546001600160a01b031633146107755760405162461bcd60e51b81526004016105b59061127f565b600c8054911515600160a01b0260ff60a01b19909216919091179055565b6060600480546104ce90611247565b600d546001600160a01b031633146107cc5760405162461bcd60e51b81526004016105b59061127f565b6001600160a01b03919091165f908152600f60205260409020805460ff1916911515919091179055565b5f3361055c818585610e7e565b600d546001600160a01b0316331461082d5760405162461bcd60e51b81526004016105b59061127f565b600c8054911515600160a81b0260ff60a81b19909216919091179055565b5f805f80600554600161085e91906112b9565b9050600381116108a8576103e861088c676765c793fa10079d601b1b6b204fce5e3e250261100000006112cc565b6108979060056112df565b6108a191906112f6565b925061094f565b600681116108de5760646108d3676765c793fa10079d601b1b6b204fce5e3e250261100000006112cc565b6108979060016112df565b60098111610914576064610909676765c793fa10079d601b1b6b204fce5e3e250261100000006112cc565b6108979060026112df565b6064610937676765c793fa10079d601b1b6b204fce5e3e250261100000006112cc565b6109429060036112df565b61094c91906112f6565b92505b610970676765c793fa10079d601b1b6b204fce5e3e250261100000006112cc565b60065461097d90856112b9565b11156109b4576006546109a7676765c793fa10079d601b1b6b204fce5e3e250261100000006112cc565b6109b191906112cc565b92505b80836109c16006826112f6565b93509350935050909192565b6109ee676765c793fa10079d601b1b6b204fce5e3e250261100000006112cc565b81565b600d546001600160a01b03163314610a1b5760405162461bcd60e51b81526004016105b59061127f565b610a3c676765c793fa10079d601b1b6b204fce5e3e250261100000006112cc565b60065410610a8c5760405162461bcd60e51b815260206004820152601b60248201527f416c6c20746f6b656e7320616c726561647920756e6c6f636b6564000000000060448201526064016105b5565b5f62278d00610abb7f0000000000000000000000000000000000000000000000000000000000000000426112cc565b610ac591906112f6565b90506005548111610b115760405162461bcd60e51b81526020600482015260166024820152754e6f206e6577206d6f6e746820746f20756e6c6f636b60501b60448201526064016105b5565b5f806005546001610b2291906112b9565b90505b828111610c415760038111610b7e576103e8610b58676765c793fa10079d601b1b6b204fce5e3e250261100000006112cc565b610b639060056112df565b610b6d91906112f6565b610b7790836112b9565b9150610c2f565b60068111610bb4576064610ba9676765c793fa10079d601b1b6b204fce5e3e250261100000006112cc565b610b639060016112df565b60098111610bea576064610bdf676765c793fa10079d601b1b6b204fce5e3e250261100000006112cc565b610b639060026112df565b6064610c0d676765c793fa10079d601b1b6b204fce5e3e250261100000006112cc565b610c189060036112df565b610c2291906112f6565b610c2c90836112b9565b91505b80610c3981611315565b915050610b25565b50610c63676765c793fa10079d601b1b6b204fce5e3e250261100000006112cc565b600654610c7090836112b9565b1115610ca757600654610c9a676765c793fa10079d601b1b6b204fce5e3e250261100000006112cc565b610ca491906112cc565b90505b5f8111610cea5760405162461bcd60e51b81526020600482015260116024820152704e6f7468696e6720746f20756e6c6f636b60781b60448201526064016105b5565b816005819055508060065f828254610d0291906112b9565b909155505f9050610d146006836112f6565b600754909150610d2f9030906001600160a01b031683610e7e565b600854610d479030906001600160a01b031683610e7e565b600954610d5f9030906001600160a01b031683610e7e565b600a54610d779030906001600160a01b031683610e7e565b600b54610d8f9030906001600160a01b031683610e7e565b600c54610da79030906001600160a01b031683610e7e565b60055460065460408051928352602083018490528201527fd5c1e53febf89038959691e212f7a18f34f9ac92dd9965a138ccfc695e9774ac9060600160405180910390a1505050565b610dfd8383836001610edb565b505050565b6001600160a01b038381165f908152600160209081526040808320938616835292905220545f19811015610e785781811015610e6a57604051637dc7a0d960e11b81526001600160a01b038416600482015260248101829052604481018390526064016105b5565b610e7884848484035f610edb565b50505050565b6001600160a01b038316610ea757604051634b637e8f60e11b81525f60048201526024016105b5565b6001600160a01b038216610ed05760405163ec442f0560e01b81525f60048201526024016105b5565b610dfd838383610fad565b6001600160a01b038416610f045760405163e602df0560e01b81525f60048201526024016105b5565b6001600160a01b038316610f2d57604051634a1406b160e11b81525f60048201526024016105b5565b6001600160a01b038085165f9081526001602090815260408083209387168352929052208290558015610e7857826001600160a01b0316846001600160a01b03167f8c5be1e5ebec7d5bd14f71427d1e84f3dd0314c0f7b2291e5b200ac8c7c3b92584604051610f9f91815260200190565b60405180910390a350505050565b6001600160a01b038316610fd7578060025f828254610fcc91906112b9565b909155506110479050565b6001600160a01b0383165f90815260208190526040902054818110156110295760405163391434e360e21b81526001600160a01b038516600482015260248101829052604481018390526064016105b5565b6001600160a01b0384165f9081526020819052604090209082900390555b6001600160a01b03821661106357600280548290039055611081565b6001600160a01b0382165f9081526020819052604090208054820190555b816001600160a01b0316836001600160a01b03167fddf252ad1be2c89b69c2b068fc378daa952ba7f163c4a11628f55a4df523b3ef836040516110c691815260200190565b60405180910390a3505050565b602081525f82518060208401528060208501604085015e5f604082850101526040601f19601f83011684010191505092915050565b80356001600160a01b038116811461111e575f80fd5b919050565b5f8060408385031215611134575f80fd5b61113d83611108565b946020939093013593505050565b5f805f6060848603121561115d575f80fd5b61116684611108565b925061117460208501611108565b929592945050506040919091013590565b5f8060408385031215611196575f80fd5b823591506111a660208401611108565b90509250929050565b5f602082840312156111bf575f80fd5b6111c882611108565b9392505050565b8035801515811461111e575f80fd5b5f80604083850312156111ef575f80fd5b6111f883611108565b91506111a6602084016111cf565b5f60208284031215611216575f80fd5b6111c8826111cf565b5f8060408385031215611230575f80fd5b61123983611108565b91506111a660208401611108565b600181811c9082168061125b57607f821691505b60208210810361127957634e487b7160e01b5f52602260045260245ffd5b50919050565b6020808252600c908201526b4e6f7420616c6c6f7765642160a01b604082015260600190565b634e487b7160e01b5f52601160045260245ffd5b80820180821115610562576105626112a5565b81810381811115610562576105626112a5565b8082028115828204841417610562576105626112a5565b5f8261131057634e487b7160e01b5f52601260045260245ffd5b500490565b5f60018201611326576113266112a5565b506001019056fea2646970667358221220e95388c6db252009f371df04c1ef0515db5a51061fad50ad30bf053307c38df464736f6c634300081a0033",
					"opcodes": "PUSH1 0xA0 PUSH1 0x40 MSTORE PUSH1 0x7 DUP1 SLOAD PUSH1 0x1 PUSH1 0x1 PUSH1 0xA0 SHL SUB NOT SWAP1 DUP2 AND PUSH20 0x7EC13697D98925BA1DC2BCC705C071BD168B10C2 OR SWAP1 SWAP2 SSTORE PUSH1 0x8 DUP1 SLOAD DUP3 AND PUSH20 0x8DE119E98707AC240ABA2CB77E83B29882A34357 OR SWAP1 SSTORE PUSH1 0x9 DUP1 SLOAD DUP3 AND PUSH20 0x3499C18F7265BE9AFDA16504A34CD1892F278AE OR SWAP1 SSTORE PUSH1 0xA DUP1 SLOAD DUP3 AND PUSH20 0xCC234A1D3E32148461B7EACB5A8BF4D0C4B6BE74 OR SWAP1 SSTORE PUSH1 0xB DUP1 SLOAD SWAP1 SWAP2 AND PUSH20 0xCEEA0E87B553BC445C5EB2242B5F28CD81B4ACAA OR SWAP1 SSTORE PUSH1 0xC DUP1 SLOAD PUSH22 0x1017E23E2781A1DA5DACE87B4F0E7BF68191263FC32 PUSH1 0x1 PUSH1 0x1 PUSH1 0xB0 SHL SUB NOT SWAP1 SWAP2 AND OR SWAP1 SSTORE CALLVALUE DUP1 ISZERO PUSH2 0xDB JUMPI PUSH0 DUP1 REVERT JUMPDEST POP PUSH1 0x40 MLOAD DUP1 PUSH1 0x40 ADD PUSH1 0x40 MSTORE DUP1 PUSH1 0x9 DUP2 MSTORE PUSH1 0x20 ADD PUSH9 0x212122102A37B5B2B7 PUSH1 0xB9 SHL DUP2 MSTORE POP PUSH1 0x40 MLOAD DUP1 PUSH1 0x40 ADD PUSH1 0x40 MSTORE DUP1 PUSH1 0x3 DUP2 MSTORE PUSH1 0x20 ADD PUSH3 0x109091 PUSH1 0xEA SHL DUP2 MSTORE POP DUP2 PUSH1 0x3 SWAP1 DUP2 PUSH2 0x129 SWAP2 SWAP1 PUSH2 0x397 JUMP JUMPDEST POP PUSH1 0x4 PUSH2 0x136 DUP3 DUP3 PUSH2 0x397 JUMP JUMPDEST POP POP PUSH1 0xD DUP1 SLOAD PUSH1 0x1 PUSH1 0x1 PUSH1 0xA0 SHL SUB NOT AND CALLER SWAP1 DUP2 OR SWAP1 SWAP2 SSTORE PUSH2 0x164 SWAP2 POP PUSH12 0x33B2E3C9FD0803CE8000000 PUSH2 0x19C JUMP JUMPDEST PUSH2 0x18F ADDRESS PUSH2 0x18A PUSH12 0x33B2E3C9FD0803CE8000000 PUSH12 0x204FCE5E3E25026110000000 PUSH2 0x465 JUMP JUMPDEST PUSH2 0x19C JUMP JUMPDEST TIMESTAMP PUSH1 0x80 MSTORE PUSH0 PUSH1 0x5 SSTORE PUSH2 0x491 JUMP JUMPDEST PUSH1 0x1 PUSH1 0x1 PUSH1 0xA0 SHL SUB DUP3 AND PUSH2 0x1CA JUMPI PUSH1 0x40 MLOAD PUSH4 0xEC442F05 PUSH1 0xE0 SHL DUP2 MSTORE PUSH0 PUSH1 0x4 DUP3 ADD MSTORE PUSH1 0x24 ADD JUMPDEST PUSH1 0x40 MLOAD DUP1 SWAP2 SUB SWAP1 REVERT JUMPDEST PUSH2 0x1D5 PUSH0 DUP4 DUP4 PUSH2 0x1D9 JUMP JUMPDEST POP POP JUMP JUMPDEST PUSH1 0x1 PUSH1 0x1 PUSH1 0xA0 SHL SUB DUP4 AND PUSH2 0x203 JUMPI DUP1 PUSH1 0x2 PUSH0 DUP3 DUP3 SLOAD PUSH2 0x1F8 SWAP2 SWAP1 PUSH2 0x47E JUMP JUMPDEST SWAP1 SWAP2 SSTORE POP PUSH2 0x273 SWAP1 POP JUMP JUMPDEST PUSH1 0x1 PUSH1 0x1 PUSH1 0xA0 SHL SUB DUP4 AND PUSH0 SWAP1 DUP2 MSTORE PUSH1 0x20 DUP2 SWAP1 MSTORE PUSH1 0x40 SWAP1 KECCAK256 SLOAD DUP2 DUP2 LT ISZERO PUSH2 0x255 JUMPI PUSH1 0x40 MLOAD PUSH4 0x391434E3 PUSH1 0xE2 SHL DUP2 MSTORE PUSH1 0x1 PUSH1 0x1 PUSH1 0xA0 SHL SUB DUP6 AND PUSH1 0x4 DUP3 ADD MSTORE PUSH1 0x24 DUP2 ADD DUP3 SWAP1 MSTORE PUSH1 0x44 DUP2 ADD DUP4 SWAP1 MSTORE PUSH1 0x64 ADD PUSH2 0x1C1 JUMP JUMPDEST PUSH1 0x1 PUSH1 0x1 PUSH1 0xA0 SHL SUB DUP5 AND PUSH0 SWAP1 DUP2 MSTORE PUSH1 0x20 DUP2 SWAP1 MSTORE PUSH1 0x40 SWAP1 KECCAK256 SWAP1 DUP3 SWAP1 SUB SWAP1 SSTORE JUMPDEST PUSH1 0x1 PUSH1 0x1 PUSH1 0xA0 SHL SUB DUP3 AND PUSH2 0x28F JUMPI PUSH1 0x2 DUP1 SLOAD DUP3 SWAP1 SUB SWAP1 SSTORE PUSH2 0x2AD JUMP JUMPDEST PUSH1 0x1 PUSH1 0x1 PUSH1 0xA0 SHL SUB DUP3 AND PUSH0 SWAP1 DUP2 MSTORE PUSH1 0x20 DUP2 SWAP1 MSTORE PUSH1 0x40 SWAP1 KECCAK256 DUP1 SLOAD DUP3 ADD SWAP1 SSTORE JUMPDEST DUP2 PUSH1 0x1 PUSH1 0x1 PUSH1 0xA0 SHL SUB AND DUP4 PUSH1 0x1 PUSH1 0x1 PUSH1 0xA0 SHL SUB AND PUSH32 0xDDF252AD1BE2C89B69C2B068FC378DAA952BA7F163C4A11628F55A4DF523B3EF DUP4 PUSH1 0x40 MLOAD PUSH2 0x2F2 SWAP2 DUP2 MSTORE PUSH1 0x20 ADD SWAP1 JUMP JUMPDEST PUSH1 0x40 MLOAD DUP1 SWAP2 SUB SWAP1 LOG3 POP POP POP JUMP JUMPDEST PUSH4 0x4E487B71 PUSH1 0xE0 SHL PUSH0 MSTORE PUSH1 0x41 PUSH1 0x4 MSTORE PUSH1 0x24 PUSH0 REVERT JUMPDEST PUSH1 0x1 DUP2 DUP2 SHR SWAP1 DUP3 AND DUP1 PUSH2 0x327 JUMPI PUSH1 0x7F DUP3 AND SWAP2 POP JUMPDEST PUSH1 0x20 DUP3 LT DUP2 SUB PUSH2 0x345 JUMPI PUSH4 0x4E487B71 PUSH1 0xE0 SHL PUSH0 MSTORE PUSH1 0x22 PUSH1 0x4 MSTORE PUSH1 0x24 PUSH0 REVERT JUMPDEST POP SWAP2 SWAP1 POP JUMP JUMPDEST PUSH1 0x1F DUP3 GT ISZERO PUSH2 0x392 JUMPI DUP1 PUSH0 MSTORE PUSH1 0x20 PUSH0 KECCAK256 PUSH1 0x1F DUP5 ADD PUSH1 0x5 SHR DUP2 ADD PUSH1 0x20 DUP6 LT ISZERO PUSH2 0x370 JUMPI POP DUP1 JUMPDEST PUSH1 0x1F DUP5 ADD PUSH1 0x5 SHR DUP3 ADD SWAP2 POP JUMPDEST DUP2 DUP2 LT ISZERO PUSH2 0x38F JUMPI PUSH0 DUP2 SSTORE PUSH1 0x1 ADD PUSH2 0x37C JUMP JUMPDEST POP POP JUMPDEST POP POP POP JUMP JUMPDEST DUP2 MLOAD PUSH1 0x1 PUSH1 0x1 PUSH1 0x40 SHL SUB DUP2 GT ISZERO PUSH2 0x3B0 JUMPI PUSH2 0x3B0 PUSH2 0x2FF JUMP JUMPDEST PUSH2 0x3C4 DUP2 PUSH2 0x3BE DUP5 SLOAD PUSH2 0x313 JUMP JUMPDEST DUP5 PUSH2 0x34B JUMP JUMPDEST PUSH1 0x20 PUSH1 0x1F DUP3 GT PUSH1 0x1 DUP2 EQ PUSH2 0x3F6 JUMPI PUSH0 DUP4 ISZERO PUSH2 0x3DF JUMPI POP DUP5 DUP3 ADD MLOAD JUMPDEST PUSH0 NOT PUSH1 0x3 DUP6 SWAP1 SHL SHR NOT AND PUSH1 0x1 DUP5 SWAP1 SHL OR DUP5 SSTORE PUSH2 0x38F JUMP JUMPDEST PUSH0 DUP5 DUP2 MSTORE PUSH1 0x20 DUP2 KECCAK256 PUSH1 0x1F NOT DUP6 AND SWAP2 JUMPDEST DUP3 DUP2 LT ISZERO PUSH2 0x425 JUMPI DUP8 DUP6 ADD MLOAD DUP3 SSTORE PUSH1 0x20 SWAP5 DUP6 ADD SWAP5 PUSH1 0x1 SWAP1 SWAP3 ADD SWAP2 ADD PUSH2 0x405 JUMP JUMPDEST POP DUP5 DUP3 LT ISZERO PUSH2 0x442 JUMPI DUP7 DUP5 ADD MLOAD PUSH0 NOT PUSH1 0x3 DUP8 SWAP1 SHL PUSH1 0xF8 AND SHR NOT AND DUP2 SSTORE JUMPDEST POP POP POP POP PUSH1 0x1 SWAP1 DUP2 SHL ADD SWAP1 SSTORE POP JUMP JUMPDEST PUSH4 0x4E487B71 PUSH1 0xE0 SHL PUSH0 MSTORE PUSH1 0x11 PUSH1 0x4 MSTORE PUSH1 0x24 PUSH0 REVERT JUMPDEST DUP2 DUP2 SUB DUP2 DUP2 GT ISZERO PUSH2 0x478 JUMPI PUSH2 0x478 PUSH2 0x451 JUMP JUMPDEST SWAP3 SWAP2 POP POP JUMP JUMPDEST DUP1 DUP3 ADD DUP1 DUP3 GT ISZERO PUSH2 0x478 JUMPI PUSH2 0x478 PUSH2 0x451 JUMP JUMPDEST PUSH1 0x80 MLOAD PUSH2 0x1363 PUSH2 0x4B0 PUSH0 CODECOPY PUSH0 DUP2 DUP2 PUSH2 0x457 ADD MSTORE PUSH2 0xA96 ADD MSTORE PUSH2 0x1363 PUSH0 RETURN INVALID PUSH1 0x80 PUSH1 0x40 MSTORE CALLVALUE DUP1 ISZERO PUSH2 0xF JUMPI PUSH0 DUP1 REVERT JUMPDEST POP PUSH1 0x4 CALLDATASIZE LT PUSH2 0x1E7 JUMPI PUSH0 CALLDATALOAD PUSH1 0xE0 SHR DUP1 PUSH4 0x902D55A5 GT PUSH2 0x109 JUMPI DUP1 PUSH4 0xCE7842F5 GT PUSH2 0x9E JUMPI DUP1 PUSH4 0xE8BE9A44 GT PUSH2 0x6E JUMPI DUP1 PUSH4 0xE8BE9A44 EQ PUSH2 0x479 JUMPI DUP1 PUSH4 0xF771CB65 EQ PUSH2 0x481 JUMPI DUP1 PUSH4 0xF968F493 EQ PUSH2 0x495 JUMPI DUP1 PUSH4 0xFDFF9B4D EQ PUSH2 0x49D JUMPI PUSH0 DUP1 REVERT JUMPDEST DUP1 PUSH4 0xCE7842F5 EQ PUSH2 0x3F4 JUMPI DUP1 PUSH4 0xD2F9EFAB EQ PUSH2 0x407 JUMPI DUP1 PUSH4 0xDD62ED3E EQ PUSH2 0x41A JUMPI DUP1 PUSH4 0xE6FD48BC EQ PUSH2 0x452 JUMPI PUSH0 DUP1 REVERT JUMPDEST DUP1 PUSH4 0xA9059CBB GT PUSH2 0xD9 JUMPI DUP1 PUSH4 0xA9059CBB EQ PUSH2 0x398 JUMPI DUP1 PUSH4 0xB16D78CF EQ PUSH2 0x3AB JUMPI DUP1 PUSH4 0xB361412A EQ PUSH2 0x3BE JUMPI DUP1 PUSH4 0xBE381B85 EQ PUSH2 0x3D1 JUMPI PUSH0 DUP1 REVERT JUMPDEST DUP1 PUSH4 0x902D55A5 EQ PUSH2 0x361 JUMPI DUP1 PUSH4 0x95D89B41 EQ PUSH2 0x374 JUMPI DUP1 PUSH4 0xA5E90EEE EQ PUSH2 0x37C JUMPI DUP1 PUSH4 0xA779D080 EQ PUSH2 0x38F JUMPI PUSH0 DUP1 REVERT JUMPDEST DUP1 PUSH4 0x3C11E12A GT PUSH2 0x17F JUMPI DUP1 PUSH4 0x8310A74D GT PUSH2 0x14F JUMPI DUP1 PUSH4 0x8310A74D EQ PUSH2 0x31F JUMPI DUP1 PUSH4 0x8342083A EQ PUSH2 0x328 JUMPI DUP1 PUSH4 0x8DDEDB33 EQ PUSH2 0x33A JUMPI DUP1 PUSH4 0x8ED2FE91 EQ PUSH2 0x34D JUMPI PUSH0 DUP1 REVERT JUMPDEST DUP1 PUSH4 0x3C11E12A EQ PUSH2 0x2AF JUMPI DUP1 PUSH4 0x67859B6E EQ PUSH2 0x2D1 JUMPI DUP1 PUSH4 0x70A08231 EQ PUSH2 0x2E4 JUMPI DUP1 PUSH4 0x7CDF6FB1 EQ PUSH2 0x30C JUMPI PUSH0 DUP1 REVERT JUMPDEST DUP1 PUSH4 0x23B872DD GT PUSH2 0x1BA JUMPI DUP1 PUSH4 0x23B872DD EQ PUSH2 0x265 JUMPI DUP1 PUSH4 0x2BE8781F EQ PUSH2 0x278 JUMPI DUP1 PUSH4 0x2D3E474A EQ PUSH2 0x28D JUMPI DUP1 PUSH4 0x313CE567 EQ PUSH2 0x2A0 JUMPI PUSH0 DUP1 REVERT JUMPDEST DUP1 PUSH4 0x42249BB EQ PUSH2 0x1EB JUMPI DUP1 PUSH4 0x6FDDE03 EQ PUSH2 0x21B JUMPI DUP1 PUSH4 0x95EA7B3 EQ PUSH2 0x230 JUMPI DUP1 PUSH4 0x18160DDD EQ PUSH2 0x253 JUMPI JUMPDEST PUSH0 DUP1 REVERT JUMPDEST PUSH1 0xA SLOAD PUSH2 0x1FE SWAP1 PUSH1 0x1 PUSH1 0x1 PUSH1 0xA0 SHL SUB AND DUP2 JUMP JUMPDEST PUSH1 0x40 MLOAD PUSH1 0x1 PUSH1 0x1 PUSH1 0xA0 SHL SUB SWAP1 SWAP2 AND DUP2 MSTORE PUSH1 0x20 ADD JUMPDEST PUSH1 0x40 MLOAD DUP1 SWAP2 SUB SWAP1 RETURN JUMPDEST PUSH2 0x223 PUSH2 0x4BF JUMP JUMPDEST PUSH1 0x40 MLOAD PUSH2 0x212 SWAP2 SWAP1 PUSH2 0x10D3 JUMP JUMPDEST PUSH2 0x243 PUSH2 0x23E CALLDATASIZE PUSH1 0x4 PUSH2 0x1123 JUMP JUMPDEST PUSH2 0x54F JUMP JUMPDEST PUSH1 0x40 MLOAD SWAP1 ISZERO ISZERO DUP2 MSTORE PUSH1 0x20 ADD PUSH2 0x212 JUMP JUMPDEST PUSH1 0x2 SLOAD JUMPDEST PUSH1 0x40 MLOAD SWAP1 DUP2 MSTORE PUSH1 0x20 ADD PUSH2 0x212 JUMP JUMPDEST PUSH2 0x243 PUSH2 0x273 CALLDATASIZE PUSH1 0x4 PUSH2 0x114B JUMP JUMPDEST PUSH2 0x568 JUMP JUMPDEST PUSH2 0x28B PUSH2 0x286 CALLDATASIZE PUSH1 0x4 PUSH2 0x1185 JUMP JUMPDEST PUSH2 0x58B JUMP JUMPDEST STOP JUMPDEST PUSH1 0x9 SLOAD PUSH2 0x1FE SWAP1 PUSH1 0x1 PUSH1 0x1 PUSH1 0xA0 SHL SUB AND DUP2 JUMP JUMPDEST PUSH1 0x40 MLOAD PUSH1 0x12 DUP2 MSTORE PUSH1 0x20 ADD PUSH2 0x212 JUMP JUMPDEST PUSH2 0x243 PUSH2 0x2BD CALLDATASIZE PUSH1 0x4 PUSH2 0x11AF JUMP JUMPDEST PUSH1 0xE PUSH1 0x20 MSTORE PUSH0 SWAP1 DUP2 MSTORE PUSH1 0x40 SWAP1 KECCAK256 SLOAD PUSH1 0xFF AND DUP2 JUMP JUMPDEST PUSH1 0x7 SLOAD PUSH2 0x1FE SWAP1 PUSH1 0x1 PUSH1 0x1 PUSH1 0xA0 SHL SUB AND DUP2 JUMP JUMPDEST PUSH2 0x257 PUSH2 0x2F2 CALLDATASIZE PUSH1 0x4 PUSH2 0x11AF JUMP JUMPDEST PUSH1 0x1 PUSH1 0x1 PUSH1 0xA0 SHL SUB AND PUSH0 SWAP1 DUP2 MSTORE PUSH1 0x20 DUP2 SWAP1 MSTORE PUSH1 0x40 SWAP1 KECCAK256 SLOAD SWAP1 JUMP JUMPDEST PUSH2 0x28B PUSH2 0x31A CALLDATASIZE PUSH1 0x4 PUSH2 0x11DE JUMP JUMPDEST PUSH2 0x6F7 JUMP JUMPDEST PUSH2 0x257 PUSH1 0x5 SLOAD DUP2 JUMP JUMPDEST PUSH2 0x257 PUSH8 0x6765C793FA10079D PUSH1 0x1B SHL DUP2 JUMP JUMPDEST PUSH2 0x28B PUSH2 0x348 CALLDATASIZE PUSH1 0x4 PUSH2 0x1206 JUMP JUMPDEST PUSH2 0x74B JUMP JUMPDEST PUSH1 0xC SLOAD PUSH2 0x243 SWAP1 PUSH1 0x1 PUSH1 0xA0 SHL SWAP1 DIV PUSH1 0xFF AND DUP2 JUMP JUMPDEST PUSH2 0x257 PUSH12 0x204FCE5E3E25026110000000 DUP2 JUMP JUMPDEST PUSH2 0x223 PUSH2 0x793 JUMP JUMPDEST PUSH2 0x28B PUSH2 0x38A CALLDATASIZE PUSH1 0x4 PUSH2 0x11DE JUMP JUMPDEST PUSH2 0x7A2 JUMP JUMPDEST PUSH2 0x257 PUSH1 0x6 SLOAD DUP2 JUMP JUMPDEST PUSH2 0x243 PUSH2 0x3A6 CALLDATASIZE PUSH1 0x4 PUSH2 0x1123 JUMP JUMPDEST PUSH2 0x7F6 JUMP JUMPDEST PUSH2 0x28B PUSH2 0x3B9 CALLDATASIZE PUSH1 0x4 PUSH2 0x1206 JUMP JUMPDEST PUSH2 0x803 JUMP JUMPDEST PUSH1 0xC SLOAD PUSH2 0x1FE SWAP1 PUSH1 0x1 PUSH1 0x1 PUSH1 0xA0 SHL SUB AND DUP2 JUMP JUMPDEST PUSH2 0x3D9 PUSH2 0x84B JUMP JUMPDEST PUSH1 0x40 DUP1 MLOAD SWAP4 DUP5 MSTORE PUSH1 0x20 DUP5 ADD SWAP3 SWAP1 SWAP3 MSTORE SWAP1 DUP3 ADD MSTORE PUSH1 0x60 ADD PUSH2 0x212 JUMP JUMPDEST PUSH1 0xB SLOAD PUSH2 0x1FE SWAP1 PUSH1 0x1 PUSH1 0x1 PUSH1 0xA0 SHL SUB AND DUP2 JUMP JUMPDEST PUSH1 0x8 SLOAD PUSH2 0x1FE SWAP1 PUSH1 0x1 PUSH1 0x1 PUSH1 0xA0 SHL SUB AND DUP2 JUMP JUMPDEST PUSH2 0x257 PUSH2 0x428 CALLDATASIZE PUSH1 0x4 PUSH2 0x121F JUMP JUMPDEST PUSH1 0x1 PUSH1 0x1 PUSH1 0xA0 SHL SUB SWAP2 DUP3 AND PUSH0 SWAP1 DUP2 MSTORE PUSH1 0x1 PUSH1 0x20 SWAP1 DUP2 MSTORE PUSH1 0x40 DUP1 DUP4 KECCAK256 SWAP4 SWAP1 SWAP5 AND DUP3 MSTORE SWAP2 SWAP1 SWAP2 MSTORE KECCAK256 SLOAD SWAP1 JUMP JUMPDEST PUSH2 0x257 PUSH32 0x0 DUP2 JUMP JUMPDEST PUSH2 0x257 PUSH2 0x9CD JUMP JUMPDEST PUSH1 0xC SLOAD PUSH2 0x243 SWAP1 PUSH1 0x1 PUSH1 0xA8 SHL SWAP1 DIV PUSH1 0xFF AND DUP2 JUMP JUMPDEST PUSH2 0x28B PUSH2 0x9F1 JUMP JUMPDEST PUSH2 0x243 PUSH2 0x4AB CALLDATASIZE PUSH1 0x4 PUSH2 0x11AF JUMP JUMPDEST PUSH1 0xF PUSH1 0x20 MSTORE PUSH0 SWAP1 DUP2 MSTORE PUSH1 0x40 SWAP1 KECCAK256 SLOAD PUSH1 0xFF AND DUP2 JUMP JUMPDEST PUSH1 0x60 PUSH1 0x3 DUP1 SLOAD PUSH2 0x4CE SWAP1 PUSH2 0x1247 JUMP JUMPDEST DUP1 PUSH1 0x1F ADD PUSH1 0x20 DUP1 SWAP2 DIV MUL PUSH1 0x20 ADD PUSH1 0x40 MLOAD SWAP1 DUP2 ADD PUSH1 0x40 MSTORE DUP1 SWAP3 SWAP2 SWAP1 DUP2 DUP2 MSTORE PUSH1 0x20 ADD DUP3 DUP1 SLOAD PUSH2 0x4FA SWAP1 PUSH2 0x1247 JUMP JUMPDEST DUP1 ISZERO PUSH2 0x545 JUMPI DUP1 PUSH1 0x1F LT PUSH2 0x51C JUMPI PUSH2 0x100 DUP1 DUP4 SLOAD DIV MUL DUP4 MSTORE SWAP2 PUSH1 0x20 ADD SWAP2 PUSH2 0x545 JUMP JUMPDEST DUP3 ADD SWAP2 SWAP1 PUSH0 MSTORE PUSH1 0x20 PUSH0 KECCAK256 SWAP1 JUMPDEST DUP2 SLOAD DUP2 MSTORE SWAP1 PUSH1 0x1 ADD SWAP1 PUSH1 0x20 ADD DUP1 DUP4 GT PUSH2 0x528 JUMPI DUP3 SWAP1 SUB PUSH1 0x1F AND DUP3 ADD SWAP2 JUMPDEST POP POP POP POP POP SWAP1 POP SWAP1 JUMP JUMPDEST PUSH0 CALLER PUSH2 0x55C DUP2 DUP6 DUP6 PUSH2 0xDF0 JUMP JUMPDEST PUSH1 0x1 SWAP2 POP POP JUMPDEST SWAP3 SWAP2 POP POP JUMP JUMPDEST PUSH0 CALLER PUSH2 0x575 DUP6 DUP3 DUP6 PUSH2 0xE02 JUMP JUMPDEST PUSH2 0x580 DUP6 DUP6 DUP6 PUSH2 0xE7E JUMP JUMPDEST POP PUSH1 0x1 SWAP5 SWAP4 POP POP POP POP JUMP JUMPDEST PUSH1 0xD SLOAD PUSH1 0x1 PUSH1 0x1 PUSH1 0xA0 SHL SUB AND CALLER EQ PUSH2 0x5BE JUMPI PUSH1 0x40 MLOAD PUSH3 0x461BCD PUSH1 0xE5 SHL DUP2 MSTORE PUSH1 0x4 ADD PUSH2 0x5B5 SWAP1 PUSH2 0x127F JUMP JUMPDEST PUSH1 0x40 MLOAD DUP1 SWAP2 SUB SWAP1 REVERT JUMPDEST PUSH1 0x1 DUP3 LT ISZERO DUP1 ISZERO PUSH2 0x5D0 JUMPI POP PUSH1 0x6 DUP3 GT ISZERO JUMPDEST PUSH2 0x60C JUMPI PUSH1 0x40 MLOAD PUSH3 0x461BCD PUSH1 0xE5 SHL DUP2 MSTORE PUSH1 0x20 PUSH1 0x4 DUP3 ADD MSTORE PUSH1 0xD PUSH1 0x24 DUP3 ADD MSTORE PUSH13 0x92DCECC2D8D2C840D2DCC8CAF PUSH1 0x9B SHL PUSH1 0x44 DUP3 ADD MSTORE PUSH1 0x64 ADD PUSH2 0x5B5 JUMP JUMPDEST DUP2 PUSH1 0x1 SUB PUSH2 0x633 JUMPI PUSH1 0x7 DUP1 SLOAD PUSH1 0x1 PUSH1 0x1 PUSH1 0xA0 SHL SUB NOT AND PUSH1 0x1 PUSH1 0x1 PUSH1 0xA0 SHL SUB DUP4 AND OR SWAP1 SSTORE POP POP JUMP JUMPDEST DUP2 PUSH1 0x2 SUB PUSH2 0x65A JUMPI PUSH1 0x8 DUP1 SLOAD PUSH1 0x1 PUSH1 0x1 PUSH1 0xA0 SHL SUB NOT AND PUSH1 0x1 PUSH1 0x1 PUSH1 0xA0 SHL SUB DUP4 AND OR SWAP1 SSTORE POP POP JUMP JUMPDEST DUP2 PUSH1 0x3 SUB PUSH2 0x681 JUMPI PUSH1 0x9 DUP1 SLOAD PUSH1 0x1 PUSH1 0x1 PUSH1 0xA0 SHL SUB NOT AND PUSH1 0x1 PUSH1 0x1 PUSH1 0xA0 SHL SUB DUP4 AND OR SWAP1 SSTORE POP POP JUMP JUMPDEST DUP2 PUSH1 0x4 SUB PUSH2 0x6A8 JUMPI PUSH1 0xA DUP1 SLOAD PUSH1 0x1 PUSH1 0x1 PUSH1 0xA0 SHL SUB NOT AND PUSH1 0x1 PUSH1 0x1 PUSH1 0xA0 SHL SUB DUP4 AND OR SWAP1 SSTORE POP POP JUMP JUMPDEST DUP2 PUSH1 0x5 SUB PUSH2 0x6CF JUMPI PUSH1 0xB DUP1 SLOAD PUSH1 0x1 PUSH1 0x1 PUSH1 0xA0 SHL SUB NOT AND PUSH1 0x1 PUSH1 0x1 PUSH1 0xA0 SHL SUB DUP4 AND OR SWAP1 SSTORE POP POP JUMP JUMPDEST DUP2 PUSH1 0x6 SUB PUSH2 0x6F3 JUMPI PUSH1 0xC DUP1 SLOAD PUSH1 0x1 PUSH1 0x1 PUSH1 0xA0 SHL SUB NOT AND PUSH1 0x1 PUSH1 0x1 PUSH1 0xA0 SHL SUB DUP4 AND OR SWAP1 SSTORE JUMPDEST POP POP JUMP JUMPDEST PUSH1 0xD SLOAD PUSH1 0x1 PUSH1 0x1 PUSH1 0xA0 SHL SUB AND CALLER EQ PUSH2 0x721 JUMPI PUSH1 0x40 MLOAD PUSH3 0x461BCD PUSH1 0xE5 SHL DUP2 MSTORE PUSH1 0x4 ADD PUSH2 0x5B5 SWAP1 PUSH2 0x127F JUMP JUMPDEST PUSH1 0x1 PUSH1 0x1 PUSH1 0xA0 SHL SUB SWAP2 SWAP1 SWAP2 AND PUSH0 SWAP1 DUP2 MSTORE PUSH1 0xE PUSH1 0x20 MSTORE PUSH1 0x40 SWAP1 KECCAK256 DUP1 SLOAD PUSH1 0xFF NOT AND SWAP2 ISZERO ISZERO SWAP2 SWAP1 SWAP2 OR SWAP1 SSTORE JUMP JUMPDEST PUSH1 0xD SLOAD PUSH1 0x1 PUSH1 0x1 PUSH1 0xA0 SHL SUB AND CALLER EQ PUSH2 0x775 JUMPI PUSH1 0x40 MLOAD PUSH3 0x461BCD PUSH1 0xE5 SHL DUP2 MSTORE PUSH1 0x4 ADD PUSH2 0x5B5 SWAP1 PUSH2 0x127F JUMP JUMPDEST PUSH1 0xC DUP1 SLOAD SWAP2 ISZERO ISZERO PUSH1 0x1 PUSH1 0xA0 SHL MUL PUSH1 0xFF PUSH1 0xA0 SHL NOT SWAP1 SWAP3 AND SWAP2 SWAP1 SWAP2 OR SWAP1 SSTORE JUMP JUMPDEST PUSH1 0x60 PUSH1 0x4 DUP1 SLOAD PUSH2 0x4CE SWAP1 PUSH2 0x1247 JUMP JUMPDEST PUSH1 0xD SLOAD PUSH1 0x1 PUSH1 0x1 PUSH1 0xA0 SHL SUB AND CALLER EQ PUSH2 0x7CC JUMPI PUSH1 0x40 MLOAD PUSH3 0x461BCD PUSH1 0xE5 SHL DUP2 MSTORE PUSH1 0x4 ADD PUSH2 0x5B5 SWAP1 PUSH2 0x127F JUMP JUMPDEST PUSH1 0x1 PUSH1 0x1 PUSH1 0xA0 SHL SUB SWAP2 SWAP1 SWAP2 AND PUSH0 SWAP1 DUP2 MSTORE PUSH1 0xF PUSH1 0x20 MSTORE PUSH1 0x40 SWAP1 KECCAK256 DUP1 SLOAD PUSH1 0xFF NOT AND SWAP2 ISZERO ISZERO SWAP2 SWAP1 SWAP2 OR SWAP1 SSTORE JUMP JUMPDEST PUSH0 CALLER PUSH2 0x55C DUP2 DUP6 DUP6 PUSH2 0xE7E JUMP JUMPDEST PUSH1 0xD SLOAD PUSH1 0x1 PUSH1 0x1 PUSH1 0xA0 SHL SUB AND CALLER EQ PUSH2 0x82D JUMPI PUSH1 0x40 MLOAD PUSH3 0x461BCD PUSH1 0xE5 SHL DUP2 MSTORE PUSH1 0x4 ADD PUSH2 0x5B5 SWAP1 PUSH2 0x127F JUMP JUMPDEST PUSH1 0xC DUP1 SLOAD SWAP2 ISZERO ISZERO PUSH1 0x1 PUSH1 0xA8 SHL MUL PUSH1 0xFF PUSH1 0xA8 SHL NOT SWAP1 SWAP3 AND SWAP2 SWAP1 SWAP2 OR SWAP1 SSTORE JUMP JUMPDEST PUSH0 DUP1 PUSH0 DUP1 PUSH1 0x5 SLOAD PUSH1 0x1 PUSH2 0x85E SWAP2 SWAP1 PUSH2 0x12B9 JUMP JUMPDEST SWAP1 POP PUSH1 0x3 DUP2 GT PUSH2 0x8A8 JUMPI PUSH2 0x3E8 PUSH2 0x88C PUSH8 0x6765C793FA10079D PUSH1 0x1B SHL PUSH12 0x204FCE5E3E25026110000000 PUSH2 0x12CC JUMP JUMPDEST PUSH2 0x897 SWAP1 PUSH1 0x5 PUSH2 0x12DF JUMP JUMPDEST PUSH2 0x8A1 SWAP2 SWAP1 PUSH2 0x12F6 JUMP JUMPDEST SWAP3 POP PUSH2 0x94F JUMP JUMPDEST PUSH1 0x6 DUP2 GT PUSH2 0x8DE JUMPI PUSH1 0x64 PUSH2 0x8D3 PUSH8 0x6765C793FA10079D PUSH1 0x1B SHL PUSH12 0x204FCE5E3E25026110000000 PUSH2 0x12CC JUMP JUMPDEST PUSH2 0x897 SWAP1 PUSH1 0x1 PUSH2 0x12DF JUMP JUMPDEST PUSH1 0x9 DUP2 GT PUSH2 0x914 JUMPI PUSH1 0x64 PUSH2 0x909 PUSH8 0x6765C793FA10079D PUSH1 0x1B SHL PUSH12 0x204FCE5E3E25026110000000 PUSH2 0x12CC JUMP JUMPDEST PUSH2 0x897 SWAP1 PUSH1 0x2 PUSH2 0x12DF JUMP JUMPDEST PUSH1 0x64 PUSH2 0x937 PUSH8 0x6765C793FA10079D PUSH1 0x1B SHL PUSH12 0x204FCE5E3E25026110000000 PUSH2 0x12CC JUMP JUMPDEST PUSH2 0x942 SWAP1 PUSH1 0x3 PUSH2 0x12DF JUMP JUMPDEST PUSH2 0x94C SWAP2 SWAP1 PUSH2 0x12F6 JUMP JUMPDEST SWAP3 POP JUMPDEST PUSH2 0x970 PUSH8 0x6765C793FA10079D PUSH1 0x1B SHL PUSH12 0x204FCE5E3E25026110000000 PUSH2 0x12CC JUMP JUMPDEST PUSH1 0x6 SLOAD PUSH2 0x97D SWAP1 DUP6 PUSH2 0x12B9 JUMP JUMPDEST GT ISZERO PUSH2 0x9B4 JUMPI PUSH1 0x6 SLOAD PUSH2 0x9A7 PUSH8 0x6765C793FA10079D PUSH1 0x1B SHL PUSH12 0x204FCE5E3E25026110000000 PUSH2 0x12CC JUMP JUMPDEST PUSH2 0x9B1 SWAP2 SWAP1 PUSH2 0x12CC JUMP JUMPDEST SWAP3 POP JUMPDEST DUP1 DUP4 PUSH2 0x9C1 PUSH1 0x6 DUP3 PUSH2 0x12F6 JUMP JUMPDEST SWAP4 POP SWAP4 POP SWAP4 POP POP SWAP1 SWAP2 SWAP3 JUMP JUMPDEST PUSH2 0x9EE PUSH8 0x6765C793FA10079D PUSH1 0x1B SHL PUSH12 0x204FCE5E3E25026110000000 PUSH2 0x12CC JUMP JUMPDEST DUP2 JUMP JUMPDEST PUSH1 0xD SLOAD PUSH1 0x1 PUSH1 0x1 PUSH1 0xA0 SHL SUB AND CALLER EQ PUSH2 0xA1B JUMPI PUSH1 0x40 MLOAD PUSH3 0x461BCD PUSH1 0xE5 SHL DUP2 MSTORE PUSH1 0x4 ADD PUSH2 0x5B5 SWAP1 PUSH2 0x127F JUMP JUMPDEST PUSH2 0xA3C PUSH8 0x6765C793FA10079D PUSH1 0x1B SHL PUSH12 0x204FCE5E3E25026110000000 PUSH2 0x12CC JUMP JUMPDEST PUSH1 0x6 SLOAD LT PUSH2 0xA8C JUMPI PUSH1 0x40 MLOAD PUSH3 0x461BCD PUSH1 0xE5 SHL DUP2 MSTORE PUSH1 0x20 PUSH1 0x4 DUP3 ADD MSTORE PUSH1 0x1B PUSH1 0x24 DUP3 ADD MSTORE PUSH32 0x416C6C20746F6B656E7320616C726561647920756E6C6F636B65640000000000 PUSH1 0x44 DUP3 ADD MSTORE PUSH1 0x64 ADD PUSH2 0x5B5 JUMP JUMPDEST PUSH0 PUSH3 0x278D00 PUSH2 0xABB PUSH32 0x0 TIMESTAMP PUSH2 0x12CC JUMP JUMPDEST PUSH2 0xAC5 SWAP2 SWAP1 PUSH2 0x12F6 JUMP JUMPDEST SWAP1 POP PUSH1 0x5 SLOAD DUP2 GT PUSH2 0xB11 JUMPI PUSH1 0x40 MLOAD PUSH3 0x461BCD PUSH1 0xE5 SHL DUP2 MSTORE PUSH1 0x20 PUSH1 0x4 DUP3 ADD MSTORE PUSH1 0x16 PUSH1 0x24 DUP3 ADD MSTORE PUSH22 0x4E6F206E6577206D6F6E746820746F20756E6C6F636B PUSH1 0x50 SHL PUSH1 0x44 DUP3 ADD MSTORE PUSH1 0x64 ADD PUSH2 0x5B5 JUMP JUMPDEST PUSH0 DUP1 PUSH1 0x5 SLOAD PUSH1 0x1 PUSH2 0xB22 SWAP2 SWAP1 PUSH2 0x12B9 JUMP JUMPDEST SWAP1 POP JUMPDEST DUP3 DUP2 GT PUSH2 0xC41 JUMPI PUSH1 0x3 DUP2 GT PUSH2 0xB7E JUMPI PUSH2 0x3E8 PUSH2 0xB58 PUSH8 0x6765C793FA10079D PUSH1 0x1B SHL PUSH12 0x204FCE5E3E25026110000000 PUSH2 0x12CC JUMP JUMPDEST PUSH2 0xB63 SWAP1 PUSH1 0x5 PUSH2 0x12DF JUMP JUMPDEST PUSH2 0xB6D SWAP2 SWAP1 PUSH2 0x12F6 JUMP JUMPDEST PUSH2 0xB77 SWAP1 DUP4 PUSH2 0x12B9 JUMP JUMPDEST SWAP2 POP PUSH2 0xC2F JUMP JUMPDEST PUSH1 0x6 DUP2 GT PUSH2 0xBB4 JUMPI PUSH1 0x64 PUSH2 0xBA9 PUSH8 0x6765C793FA10079D PUSH1 0x1B SHL PUSH12 0x204FCE5E3E25026110000000 PUSH2 0x12CC JUMP JUMPDEST PUSH2 0xB63 SWAP1 PUSH1 0x1 PUSH2 0x12DF JUMP JUMPDEST PUSH1 0x9 DUP2 GT PUSH2 0xBEA JUMPI PUSH1 0x64 PUSH2 0xBDF PUSH8 0x6765C793FA10079D PUSH1 0x1B SHL PUSH12 0x204FCE5E3E25026110000000 PUSH2 0x12CC JUMP JUMPDEST PUSH2 0xB63 SWAP1 PUSH1 0x2 PUSH2 0x12DF JUMP JUMPDEST PUSH1 0x64 PUSH2 0xC0D PUSH8 0x6765C793FA10079D PUSH1 0x1B SHL PUSH12 0x204FCE5E3E25026110000000 PUSH2 0x12CC JUMP JUMPDEST PUSH2 0xC18 SWAP1 PUSH1 0x3 PUSH2 0x12DF JUMP JUMPDEST PUSH2 0xC22 SWAP2 SWAP1 PUSH2 0x12F6 JUMP JUMPDEST PUSH2 0xC2C SWAP1 DUP4 PUSH2 0x12B9 JUMP JUMPDEST SWAP2 POP JUMPDEST DUP1 PUSH2 0xC39 DUP2 PUSH2 0x1315 JUMP JUMPDEST SWAP2 POP POP PUSH2 0xB25 JUMP JUMPDEST POP PUSH2 0xC63 PUSH8 0x6765C793FA10079D PUSH1 0x1B SHL PUSH12 0x204FCE5E3E25026110000000 PUSH2 0x12CC JUMP JUMPDEST PUSH1 0x6 SLOAD PUSH2 0xC70 SWAP1 DUP4 PUSH2 0x12B9 JUMP JUMPDEST GT ISZERO PUSH2 0xCA7 JUMPI PUSH1 0x6 SLOAD PUSH2 0xC9A PUSH8 0x6765C793FA10079D PUSH1 0x1B SHL PUSH12 0x204FCE5E3E25026110000000 PUSH2 0x12CC JUMP JUMPDEST PUSH2 0xCA4 SWAP2 SWAP1 PUSH2 0x12CC JUMP JUMPDEST SWAP1 POP JUMPDEST PUSH0 DUP2 GT PUSH2 0xCEA JUMPI PUSH1 0x40 MLOAD PUSH3 0x461BCD PUSH1 0xE5 SHL DUP2 MSTORE PUSH1 0x20 PUSH1 0x4 DUP3 ADD MSTORE PUSH1 0x11 PUSH1 0x24 DUP3 ADD MSTORE PUSH17 0x4E6F7468696E6720746F20756E6C6F636B PUSH1 0x78 SHL PUSH1 0x44 DUP3 ADD MSTORE PUSH1 0x64 ADD PUSH2 0x5B5 JUMP JUMPDEST DUP2 PUSH1 0x5 DUP2 SWAP1 SSTORE POP DUP1 PUSH1 0x6 PUSH0 DUP3 DUP3 SLOAD PUSH2 0xD02 SWAP2 SWAP1 PUSH2 0x12B9 JUMP JUMPDEST SWAP1 SWAP2 SSTORE POP PUSH0 SWAP1 POP PUSH2 0xD14 PUSH1 0x6 DUP4 PUSH2 0x12F6 JUMP JUMPDEST PUSH1 0x7 SLOAD SWAP1 SWAP2 POP PUSH2 0xD2F SWAP1 ADDRESS SWAP1 PUSH1 0x1 PUSH1 0x1 PUSH1 0xA0 SHL SUB AND DUP4 PUSH2 0xE7E JUMP JUMPDEST PUSH1 0x8 SLOAD PUSH2 0xD47 SWAP1 ADDRESS SWAP1 PUSH1 0x1 PUSH1 0x1 PUSH1 0xA0 SHL SUB AND DUP4 PUSH2 0xE7E JUMP JUMPDEST PUSH1 0x9 SLOAD PUSH2 0xD5F SWAP1 ADDRESS SWAP1 PUSH1 0x1 PUSH1 0x1 PUSH1 0xA0 SHL SUB AND DUP4 PUSH2 0xE7E JUMP JUMPDEST PUSH1 0xA SLOAD PUSH2 0xD77 SWAP1 ADDRESS SWAP1 PUSH1 0x1 PUSH1 0x1 PUSH1 0xA0 SHL SUB AND DUP4 PUSH2 0xE7E JUMP JUMPDEST PUSH1 0xB SLOAD PUSH2 0xD8F SWAP1 ADDRESS SWAP1 PUSH1 0x1 PUSH1 0x1 PUSH1 0xA0 SHL SUB AND DUP4 PUSH2 0xE7E JUMP JUMPDEST PUSH1 0xC SLOAD PUSH2 0xDA7 SWAP1 ADDRESS SWAP1 PUSH1 0x1 PUSH1 0x1 PUSH1 0xA0 SHL SUB AND DUP4 PUSH2 0xE7E JUMP JUMPDEST PUSH1 0x5 SLOAD PUSH1 0x6 SLOAD PUSH1 0x40 DUP1 MLOAD SWAP3 DUP4 MSTORE PUSH1 0x20 DUP4 ADD DUP5 SWAP1 MSTORE DUP3 ADD MSTORE PUSH32 0xD5C1E53FEBF89038959691E212F7A18F34F9AC92DD9965A138CCFC695E9774AC SWAP1 PUSH1 0x60 ADD PUSH1 0x40 MLOAD DUP1 SWAP2 SUB SWAP1 LOG1 POP POP POP JUMP JUMPDEST PUSH2 0xDFD DUP4 DUP4 DUP4 PUSH1 0x1 PUSH2 0xEDB JUMP JUMPDEST POP POP POP JUMP JUMPDEST PUSH1 0x1 PUSH1 0x1 PUSH1 0xA0 SHL SUB DUP4 DUP2 AND PUSH0 SWAP1 DUP2 MSTORE PUSH1 0x1 PUSH1 0x20 SWAP1 DUP2 MSTORE PUSH1 0x40 DUP1 DUP4 KECCAK256 SWAP4 DUP7 AND DUP4 MSTORE SWAP3 SWAP1 MSTORE KECCAK256 SLOAD PUSH0 NOT DUP2 LT ISZERO PUSH2 0xE78 JUMPI DUP2 DUP2 LT ISZERO PUSH2 0xE6A JUMPI PUSH1 0x40 MLOAD PUSH4 0x7DC7A0D9 PUSH1 0xE1 SHL DUP2 MSTORE PUSH1 0x1 PUSH1 0x1 PUSH1 0xA0 SHL SUB DUP5 AND PUSH1 0x4 DUP3 ADD MSTORE PUSH1 0x24 DUP2 ADD DUP3 SWAP1 MSTORE PUSH1 0x44 DUP2 ADD DUP4 SWAP1 MSTORE PUSH1 0x64 ADD PUSH2 0x5B5 JUMP JUMPDEST PUSH2 0xE78 DUP5 DUP5 DUP5 DUP5 SUB PUSH0 PUSH2 0xEDB JUMP JUMPDEST POP POP POP POP JUMP JUMPDEST PUSH1 0x1 PUSH1 0x1 PUSH1 0xA0 SHL SUB DUP4 AND PUSH2 0xEA7 JUMPI PUSH1 0x40 MLOAD PUSH4 0x4B637E8F PUSH1 0xE1 SHL DUP2 MSTORE PUSH0 PUSH1 0x4 DUP3 ADD MSTORE PUSH1 0x24 ADD PUSH2 0x5B5 JUMP JUMPDEST PUSH1 0x1 PUSH1 0x1 PUSH1 0xA0 SHL SUB DUP3 AND PUSH2 0xED0 JUMPI PUSH1 0x40 MLOAD PUSH4 0xEC442F05 PUSH1 0xE0 SHL DUP2 MSTORE PUSH0 PUSH1 0x4 DUP3 ADD MSTORE PUSH1 0x24 ADD PUSH2 0x5B5 JUMP JUMPDEST PUSH2 0xDFD DUP4 DUP4 DUP4 PUSH2 0xFAD JUMP JUMPDEST PUSH1 0x1 PUSH1 0x1 PUSH1 0xA0 SHL SUB DUP5 AND PUSH2 0xF04 JUMPI PUSH1 0x40 MLOAD PUSH4 0xE602DF05 PUSH1 0xE0 SHL DUP2 MSTORE PUSH0 PUSH1 0x4 DUP3 ADD MSTORE PUSH1 0x24 ADD PUSH2 0x5B5 JUMP JUMPDEST PUSH1 0x1 PUSH1 0x1 PUSH1 0xA0 SHL SUB DUP4 AND PUSH2 0xF2D JUMPI PUSH1 0x40 MLOAD PUSH4 0x4A1406B1 PUSH1 0xE1 SHL DUP2 MSTORE PUSH0 PUSH1 0x4 DUP3 ADD MSTORE PUSH1 0x24 ADD PUSH2 0x5B5 JUMP JUMPDEST PUSH1 0x1 PUSH1 0x1 PUSH1 0xA0 SHL SUB DUP1 DUP6 AND PUSH0 SWAP1 DUP2 MSTORE PUSH1 0x1 PUSH1 0x20 SWAP1 DUP2 MSTORE PUSH1 0x40 DUP1 DUP4 KECCAK256 SWAP4 DUP8 AND DUP4 MSTORE SWAP3 SWAP1 MSTORE KECCAK256 DUP3 SWAP1 SSTORE DUP1 ISZERO PUSH2 0xE78 JUMPI DUP3 PUSH1 0x1 PUSH1 0x1 PUSH1 0xA0 SHL SUB AND DUP5 PUSH1 0x1 PUSH1 0x1 PUSH1 0xA0 SHL SUB AND PUSH32 0x8C5BE1E5EBEC7D5BD14F71427D1E84F3DD0314C0F7B2291E5B200AC8C7C3B925 DUP5 PUSH1 0x40 MLOAD PUSH2 0xF9F SWAP2 DUP2 MSTORE PUSH1 0x20 ADD SWAP1 JUMP JUMPDEST PUSH1 0x40 MLOAD DUP1 SWAP2 SUB SWAP1 LOG3 POP POP POP POP JUMP JUMPDEST PUSH1 0x1 PUSH1 0x1 PUSH1 0xA0 SHL SUB DUP4 AND PUSH2 0xFD7 JUMPI DUP1 PUSH1 0x2 PUSH0 DUP3 DUP3 SLOAD PUSH2 0xFCC SWAP2 SWAP1 PUSH2 0x12B9 JUMP JUMPDEST SWAP1 SWAP2 SSTORE POP PUSH2 0x1047 SWAP1 POP JUMP JUMPDEST PUSH1 0x1 PUSH1 0x1 PUSH1 0xA0 SHL SUB DUP4 AND PUSH0 SWAP1 DUP2 MSTORE PUSH1 0x20 DUP2 SWAP1 MSTORE PUSH1 0x40 SWAP1 KECCAK256 SLOAD DUP2 DUP2 LT ISZERO PUSH2 0x1029 JUMPI PUSH1 0x40 MLOAD PUSH4 0x391434E3 PUSH1 0xE2 SHL DUP2 MSTORE PUSH1 0x1 PUSH1 0x1 PUSH1 0xA0 SHL SUB DUP6 AND PUSH1 0x4 DUP3 ADD MSTORE PUSH1 0x24 DUP2 ADD DUP3 SWAP1 MSTORE PUSH1 0x44 DUP2 ADD DUP4 SWAP1 MSTORE PUSH1 0x64 ADD PUSH2 0x5B5 JUMP JUMPDEST PUSH1 0x1 PUSH1 0x1 PUSH1 0xA0 SHL SUB DUP5 AND PUSH0 SWAP1 DUP2 MSTORE PUSH1 0x20 DUP2 SWAP1 MSTORE PUSH1 0x40 SWAP1 KECCAK256 SWAP1 DUP3 SWAP1 SUB SWAP1 SSTORE JUMPDEST PUSH1 0x1 PUSH1 0x1 PUSH1 0xA0 SHL SUB DUP3 AND PUSH2 0x1063 JUMPI PUSH1 0x2 DUP1 SLOAD DUP3 SWAP1 SUB SWAP1 SSTORE PUSH2 0x1081 JUMP JUMPDEST PUSH1 0x1 PUSH1 0x1 PUSH1 0xA0 SHL SUB DUP3 AND PUSH0 SWAP1 DUP2 MSTORE PUSH1 0x20 DUP2 SWAP1 MSTORE PUSH1 0x40 SWAP1 KECCAK256 DUP1 SLOAD DUP3 ADD SWAP1 SSTORE JUMPDEST DUP2 PUSH1 0x1 PUSH1 0x1 PUSH1 0xA0 SHL SUB AND DUP4 PUSH1 0x1 PUSH1 0x1 PUSH1 0xA0 SHL SUB AND PUSH32 0xDDF252AD1BE2C89B69C2B068FC378DAA952BA7F163C4A11628F55A4DF523B3EF DUP4 PUSH1 0x40 MLOAD PUSH2 0x10C6 SWAP2 DUP2 MSTORE PUSH1 0x20 ADD SWAP1 JUMP JUMPDEST PUSH1 0x40 MLOAD DUP1 SWAP2 SUB SWAP1 LOG3 POP POP POP JUMP JUMPDEST PUSH1 0x20 DUP2 MSTORE PUSH0 DUP3 MLOAD DUP1 PUSH1 0x20 DUP5 ADD MSTORE DUP1 PUSH1 0x20 DUP6 ADD PUSH1 0x40 DUP6 ADD MCOPY PUSH0 PUSH1 0x40 DUP3 DUP6 ADD ADD MSTORE PUSH1 0x40 PUSH1 0x1F NOT PUSH1 0x1F DUP4 ADD AND DUP5 ADD ADD SWAP2 POP POP SWAP3 SWAP2 POP POP JUMP JUMPDEST DUP1 CALLDATALOAD PUSH1 0x1 PUSH1 0x1 PUSH1 0xA0 SHL SUB DUP2 AND DUP2 EQ PUSH2 0x111E JUMPI PUSH0 DUP1 REVERT JUMPDEST SWAP2 SWAP1 POP JUMP JUMPDEST PUSH0 DUP1 PUSH1 0x40 DUP4 DUP6 SUB SLT ISZERO PUSH2 0x1134 JUMPI PUSH0 DUP1 REVERT JUMPDEST PUSH2 0x113D DUP4 PUSH2 0x1108 JUMP JUMPDEST SWAP5 PUSH1 0x20 SWAP4 SWAP1 SWAP4 ADD CALLDATALOAD SWAP4 POP POP POP JUMP JUMPDEST PUSH0 DUP1 PUSH0 PUSH1 0x60 DUP5 DUP7 SUB SLT ISZERO PUSH2 0x115D JUMPI PUSH0 DUP1 REVERT JUMPDEST PUSH2 0x1166 DUP5 PUSH2 0x1108 JUMP JUMPDEST SWAP3 POP PUSH2 0x1174 PUSH1 0x20 DUP6 ADD PUSH2 0x1108 JUMP JUMPDEST SWAP3 SWAP6 SWAP3 SWAP5 POP POP POP PUSH1 0x40 SWAP2 SWAP1 SWAP2 ADD CALLDATALOAD SWAP1 JUMP JUMPDEST PUSH0 DUP1 PUSH1 0x40 DUP4 DUP6 SUB SLT ISZERO PUSH2 0x1196 JUMPI PUSH0 DUP1 REVERT JUMPDEST DUP3 CALLDATALOAD SWAP2 POP PUSH2 0x11A6 PUSH1 0x20 DUP5 ADD PUSH2 0x1108 JUMP JUMPDEST SWAP1 POP SWAP3 POP SWAP3 SWAP1 POP JUMP JUMPDEST PUSH0 PUSH1 0x20 DUP3 DUP5 SUB SLT ISZERO PUSH2 0x11BF JUMPI PUSH0 DUP1 REVERT JUMPDEST PUSH2 0x11C8 DUP3 PUSH2 0x1108 JUMP JUMPDEST SWAP4 SWAP3 POP POP POP JUMP JUMPDEST DUP1 CALLDATALOAD DUP1 ISZERO ISZERO DUP2 EQ PUSH2 0x111E JUMPI PUSH0 DUP1 REVERT JUMPDEST PUSH0 DUP1 PUSH1 0x40 DUP4 DUP6 SUB SLT ISZERO PUSH2 0x11EF JUMPI PUSH0 DUP1 REVERT JUMPDEST PUSH2 0x11F8 DUP4 PUSH2 0x1108 JUMP JUMPDEST SWAP2 POP PUSH2 0x11A6 PUSH1 0x20 DUP5 ADD PUSH2 0x11CF JUMP JUMPDEST PUSH0 PUSH1 0x20 DUP3 DUP5 SUB SLT ISZERO PUSH2 0x1216 JUMPI PUSH0 DUP1 REVERT JUMPDEST PUSH2 0x11C8 DUP3 PUSH2 0x11CF JUMP JUMPDEST PUSH0 DUP1 PUSH1 0x40 DUP4 DUP6 SUB SLT ISZERO PUSH2 0x1230 JUMPI PUSH0 DUP1 REVERT JUMPDEST PUSH2 0x1239 DUP4 PUSH2 0x1108 JUMP JUMPDEST SWAP2 POP PUSH2 0x11A6 PUSH1 0x20 DUP5 ADD PUSH2 0x1108 JUMP JUMPDEST PUSH1 0x1 DUP2 DUP2 SHR SWAP1 DUP3 AND DUP1 PUSH2 0x125B JUMPI PUSH1 0x7F DUP3 AND SWAP2 POP JUMPDEST PUSH1 0x20 DUP3 LT DUP2 SUB PUSH2 0x1279 JUMPI PUSH4 0x4E487B71 PUSH1 0xE0 SHL PUSH0 MSTORE PUSH1 0x22 PUSH1 0x4 MSTORE PUSH1 0x24 PUSH0 REVERT JUMPDEST POP SWAP2 SWAP1 POP JUMP JUMPDEST PUSH1 0x20 DUP1 DUP3 MSTORE PUSH1 0xC SWAP1 DUP3 ADD MSTORE PUSH12 0x4E6F7420616C6C6F77656421 PUSH1 0xA0 SHL PUSH1 0x40 DUP3 ADD MSTORE PUSH1 0x60 ADD SWAP1 JUMP JUMPDEST PUSH4 0x4E487B71 PUSH1 0xE0 SHL PUSH0 MSTORE PUSH1 0x11 PUSH1 0x4 MSTORE PUSH1 0x24 PUSH0 REVERT JUMPDEST DUP1 DUP3 ADD DUP1 DUP3 GT ISZERO PUSH2 0x562 JUMPI PUSH2 0x562 PUSH2 0x12A5 JUMP JUMPDEST DUP2 DUP2 SUB DUP2 DUP2 GT ISZERO PUSH2 0x562 JUMPI PUSH2 0x562 PUSH2 0x12A5 JUMP JUMPDEST DUP1 DUP3 MUL DUP2 ISZERO DUP3 DUP3 DIV DUP5 EQ OR PUSH2 0x562 JUMPI PUSH2 0x562 PUSH2 0x12A5 JUMP JUMPDEST PUSH0 DUP3 PUSH2 0x1310 JUMPI PUSH4 0x4E487B71 PUSH1 0xE0 SHL PUSH0 MSTORE PUSH1 0x12 PUSH1 0x4 MSTORE PUSH1 0x24 PUSH0 REVERT JUMPDEST POP DIV SWAP1 JUMP JUMPDEST PUSH0 PUSH1 0x1 DUP3 ADD PUSH2 0x1326 JUMPI PUSH2 0x1326 PUSH2 0x12A5 JUMP JUMPDEST POP PUSH1 0x1 ADD SWAP1 JUMP INVALID LOG2 PUSH5 0x6970667358 0x22 SLT KECCAK256 0xE9 MSTORE8 DUP9 0xC6 0xDB 0x25 KECCAK256 MULMOD RETURN PUSH18 0xDF04C1EF0515DB5A51061FAD50AD30BF0533 SMOD 0xC3 DUP14 DELEGATECALL PUSH5 0x736F6C6343 STOP ADDMOD BYTE STOP CALLER "
				},
				"gasEstimates": {
					"creation": {
						"codeDepositCost": "992600",
						"executionCost": "infinite",
						"totalCost": "infinite"
					},
					"external": {
						"LOCKED_SUPPLY()": "328",
						"PUBLIC_SUPPLY()": "267",
						"TOTAL_SUPPLY()": "240",
						"allowance(address,address)": "infinite",
						"approve(address,uint256)": "24803",
						"awardBonus()": "2414",
						"balanceOf(address)": "2627",
						"buyingEnabled()": "2437",
						"decimals()": "288",
						"gameTreasury()": "2392",
						"getNextUnlockInfo()": "infinite",
						"isDex(address)": "2574",
						"lastUnlockMonth()": "2339",
						"liquidityListing()": "2393",
						"managers(address)": "2638",
						"marketing()": "2415",
						"name()": "infinite",
						"referralBonus()": "2370",
						"sellingEnabled()": "2392",
						"setBuyingEnabled(bool)": "26782",
						"setDexAddress(address,bool)": "infinite",
						"setManager(address,bool)": "infinite",
						"setSellingEnabled(bool)": "26760",
						"stakingReward()": "2372",
						"startTimestamp()": "infinite",
						"symbol()": "infinite",
						"totalSupply()": "2393",
						"totalUnlocked()": "2406",
						"transfer(address,uint256)": "51261",
						"transferFrom(address,address,uint256)": "infinite",
						"unlockTokens()": "infinite",
						"updateDistributionAddress(uint256,address)": "26990"
					}
				},
				"methodIdentifiers": {
					"LOCKED_SUPPLY()": "e8be9a44",
					"PUBLIC_SUPPLY()": "8342083a",
					"TOTAL_SUPPLY()": "902d55a5",
					"allowance(address,address)": "dd62ed3e",
					"approve(address,uint256)": "095ea7b3",
					"awardBonus()": "b361412a",
					"balanceOf(address)": "70a08231",
					"buyingEnabled()": "8ed2fe91",
					"decimals()": "313ce567",
					"gameTreasury()": "d2f9efab",
					"getNextUnlockInfo()": "be381b85",
					"isDex(address)": "3c11e12a",
					"lastUnlockMonth()": "8310a74d",
					"liquidityListing()": "67859b6e",
					"managers(address)": "fdff9b4d",
					"marketing()": "2d3e474a",
					"name()": "06fdde03",
					"referralBonus()": "ce7842f5",
					"sellingEnabled()": "f771cb65",
					"setBuyingEnabled(bool)": "8ddedb33",
					"setDexAddress(address,bool)": "7cdf6fb1",
					"setManager(address,bool)": "a5e90eee",
					"setSellingEnabled(bool)": "b16d78cf",
					"stakingReward()": "042249bb",
					"startTimestamp()": "e6fd48bc",
					"symbol()": "95d89b41",
					"totalSupply()": "18160ddd",
					"totalUnlocked()": "a779d080",
					"transfer(address,uint256)": "a9059cbb",
					"transferFrom(address,address,uint256)": "23b872dd",
					"unlockTokens()": "f968f493",
					"updateDistributionAddress(uint256,address)": "2be8781f"
				}
			},
			"storageLayout": {
				"storage": [
					{
						"astId": 279,
						"contract": "src/assets/BBD_Token_flattened.sol:BBDToken",
						"label": "_balances",
						"offset": 0,
						"slot": "0",
						"type": "t_mapping(t_address,t_uint256)"
					},
					{
						"astId": 285,
						"contract": "src/assets/BBD_Token_flattened.sol:BBDToken",
						"label": "_allowances",
						"offset": 0,
						"slot": "1",
						"type": "t_mapping(t_address,t_mapping(t_address,t_uint256))"
					},
					{
						"astId": 287,
						"contract": "src/assets/BBD_Token_flattened.sol:BBDToken",
						"label": "_totalSupply",
						"offset": 0,
						"slot": "2",
						"type": "t_uint256"
					},
					{
						"astId": 289,
						"contract": "src/assets/BBD_Token_flattened.sol:BBDToken",
						"label": "_name",
						"offset": 0,
						"slot": "3",
						"type": "t_string_storage"
					},
					{
						"astId": 291,
						"contract": "src/assets/BBD_Token_flattened.sol:BBDToken",
						"label": "_symbol",
						"offset": 0,
						"slot": "4",
						"type": "t_string_storage"
					},
					{
						"astId": 793,
						"contract": "src/assets/BBD_Token_flattened.sol:BBDToken",
						"label": "lastUnlockMonth",
						"offset": 0,
						"slot": "5",
						"type": "t_uint256"
					},
					{
						"astId": 795,
						"contract": "src/assets/BBD_Token_flattened.sol:BBDToken",
						"label": "totalUnlocked",
						"offset": 0,
						"slot": "6",
						"type": "t_uint256"
					},
					{
						"astId": 798,
						"contract": "src/assets/BBD_Token_flattened.sol:BBDToken",
						"label": "liquidityListing",
						"offset": 0,
						"slot": "7",
						"type": "t_address"
					},
					{
						"astId": 801,
						"contract": "src/assets/BBD_Token_flattened.sol:BBDToken",
						"label": "gameTreasury",
						"offset": 0,
						"slot": "8",
						"type": "t_address"
					},
					{
						"astId": 804,
						"contract": "src/assets/BBD_Token_flattened.sol:BBDToken",
						"label": "marketing",
						"offset": 0,
						"slot": "9",
						"type": "t_address"
					},
					{
						"astId": 807,
						"contract": "src/assets/BBD_Token_flattened.sol:BBDToken",
						"label": "stakingReward",
						"offset": 0,
						"slot": "10",
						"type": "t_address"
					},
					{
						"astId": 810,
						"contract": "src/assets/BBD_Token_flattened.sol:BBDToken",
						"label": "referralBonus",
						"offset": 0,
						"slot": "11",
						"type": "t_address"
					},
					{
						"astId": 813,
						"contract": "src/assets/BBD_Token_flattened.sol:BBDToken",
						"label": "awardBonus",
						"offset": 0,
						"slot": "12",
						"type": "t_address"
					},
					{
						"astId": 816,
						"contract": "src/assets/BBD_Token_flattened.sol:BBDToken",
						"label": "buyingEnabled",
						"offset": 20,
						"slot": "12",
						"type": "t_bool"
					},
					{
						"astId": 819,
						"contract": "src/assets/BBD_Token_flattened.sol:BBDToken",
						"label": "sellingEnabled",
						"offset": 21,
						"slot": "12",
						"type": "t_bool"
					},
					{
						"astId": 821,
						"contract": "src/assets/BBD_Token_flattened.sol:BBDToken",
						"label": "_owner",
						"offset": 0,
						"slot": "13",
						"type": "t_address"
					},
					{
						"astId": 825,
						"contract": "src/assets/BBD_Token_flattened.sol:BBDToken",
						"label": "isDex",
						"offset": 0,
						"slot": "14",
						"type": "t_mapping(t_address,t_bool)"
					},
					{
						"astId": 829,
						"contract": "src/assets/BBD_Token_flattened.sol:BBDToken",
						"label": "managers",
						"offset": 0,
						"slot": "15",
						"type": "t_mapping(t_address,t_bool)"
					}
				],
				"types": {
					"t_address": {
						"encoding": "inplace",
						"label": "address",
						"numberOfBytes": "20"
					},
					"t_bool": {
						"encoding": "inplace",
						"label": "bool",
						"numberOfBytes": "1"
					},
					"t_mapping(t_address,t_bool)": {
						"encoding": "mapping",
						"key": "t_address",
						"label": "mapping(address => bool)",
						"numberOfBytes": "32",
						"value": "t_bool"
					},
					"t_mapping(t_address,t_mapping(t_address,t_uint256))": {
						"encoding": "mapping",
						"key": "t_address",
						"label": "mapping(address => mapping(address => uint256))",
						"numberOfBytes": "32",
						"value": "t_mapping(t_address,t_uint256)"
					},
					"t_mapping(t_address,t_uint256)": {
						"encoding": "mapping",
						"key": "t_address",
						"label": "mapping(address => uint256)",
						"numberOfBytes": "32",
						"value": "t_uint256"
					},
					"t_string_storage": {
						"encoding": "bytes",
						"label": "string",
						"numberOfBytes": "32"
					},
					"t_uint256": {
						"encoding": "inplace",
						"label": "uint256",
						"numberOfBytes": "32"
					}
				}
			},
			"userdoc": {
				"kind": "user",
				"methods": {},
				"version": 1
			}
		}
	}
}